{"abi":[{"inputs":[{"internalType":"uint256","name":"minimum","type":"uint256"},{"internalType":"uint256","name":"num_days","type":"uint256"},{"internalType":"address","name":"creator","type":"address"},{"internalType":"address","name":"sentTo","type":"address"},{"internalType":"string","name":"contractName","type":"string"}],"stateMutability":"nonpayable","type":"constructor"},{"inputs":[{"internalType":"address","name":"","type":"address"}],"name":"Investment","outputs":[{"internalType":"uint256","name":"","type":"uint256"}],"stateMutability":"view","type":"function"},{"inputs":[{"internalType":"uint256","name":"","type":"uint256"}],"name":"Investors","outputs":[{"internalType":"address","name":"","type":"address"}],"stateMutability":"view","type":"function"},{"inputs":[],"name":"PayDayVoted","outputs":[],"stateMutability":"nonpayable","type":"function"},{"inputs":[{"internalType":"address","name":"","type":"address"}],"name":"Stakeholders","outputs":[{"internalType":"bool","name":"","type":"bool"}],"stateMutability":"view","type":"function"},{"inputs":[{"internalType":"address","name":"","type":"address"}],"name":"Stakeholders_endTheContract","outputs":[{"internalType":"bool","name":"","type":"bool"}],"stateMutability":"view","type":"function"},{"inputs":[],"name":"allInvestorPercent","outputs":[{"internalType":"uint256","name":"","type":"uint256"}],"stateMutability":"view","type":"function"},{"inputs":[{"internalType":"uint256","name":"index","type":"uint256"}],"name":"approveRequest","outputs":[],"stateMutability":"nonpayable","type":"function"},{"inputs":[{"internalType":"uint256","name":"index","type":"uint256"}],"name":"executed_order_66","outputs":[{"internalType":"bool","name":"","type":"bool"}],"stateMutability":"nonpayable","type":"function"},{"inputs":[],"name":"getMoney","outputs":[{"internalType":"bool","name":"","type":"bool"}],"stateMutability":"payable","type":"function"},{"inputs":[],"name":"investorBalanc","outputs":[{"internalType":"uint256","name":"","type":"uint256"}],"stateMutability":"view","type":"function"},{"inputs":[{"internalType":"uint256","name":"reqId","type":"uint256"},{"internalType":"address","name":"user","type":"address"}],"name":"isStakeholdersApprove","outputs":[{"internalType":"bool","name":"","type":"bool"}],"stateMutability":"view","type":"function"},{"inputs":[],"name":"join","outputs":[],"stateMutability":"payable","type":"function"},{"inputs":[],"name":"lastLeaveVal","outputs":[{"internalType":"uint256","name":"","type":"uint256"}],"stateMutability":"view","type":"function"},{"inputs":[],"name":"lastRePay","outputs":[{"internalType":"uint256","name":"","type":"uint256"}],"stateMutability":"view","type":"function"},{"inputs":[],"name":"lastTotalVal","outputs":[{"internalType":"uint256","name":"","type":"uint256"}],"stateMutability":"view","type":"function"},{"inputs":[{"internalType":"address","name":"leave_address","type":"address"},{"internalType":"uint256","name":"yield","type":"uint256"}],"name":"leave_contract","outputs":[{"internalType":"bool","name":"","type":"bool"}],"stateMutability":"nonpayable","type":"function"},{"inputs":[{"internalType":"address","name":"","type":"address"}],"name":"lefted","outputs":[{"internalType":"bool","name":"","type":"bool"}],"stateMutability":"view","type":"function"},{"inputs":[{"internalType":"string","name":"what","type":"string"},{"internalType":"string","name":"why","type":"string"},{"internalType":"uint256","name":"value","type":"uint256"}],"name":"makeNewRequset","outputs":[],"stateMutability":"nonpayable","type":"function"},{"inputs":[],"name":"manager","outputs":[{"internalType":"address","name":"","type":"address"}],"stateMutability":"view","type":"function"},{"inputs":[],"name":"managerFineFee","outputs":[{"internalType":"uint256","name":"","type":"uint256"}],"stateMutability":"view","type":"function"},{"inputs":[],"name":"minimumContribution","outputs":[{"internalType":"uint256","name":"","type":"uint256"}],"stateMutability":"view","type":"function"},{"inputs":[{"internalType":"uint256","name":"","type":"uint256"}],"name":"myRequsts","outputs":[{"internalType":"string","name":"description","type":"string"},{"internalType":"string","name":"what","type":"string"},{"internalType":"uint256","name":"value","type":"uint256"},{"internalType":"bool","name":"complete","type":"bool"},{"internalType":"uint256","name":"approvalCount","type":"uint256"}],"stateMutability":"view","type":"function"},{"inputs":[],"name":"name","outputs":[{"internalType":"string","name":"","type":"string"}],"stateMutability":"view","type":"function"},{"inputs":[],"name":"numOfInvestors","outputs":[{"internalType":"uint256","name":"","type":"uint256"}],"stateMutability":"view","type":"function"},{"inputs":[{"internalType":"address","name":"","type":"address"}],"name":"ownPercent","outputs":[{"internalType":"uint256","name":"","type":"uint256"}],"stateMutability":"view","type":"function"},{"inputs":[],"name":"payDay","outputs":[],"stateMutability":"nonpayable","type":"function"},{"inputs":[],"name":"site","outputs":[{"internalType":"address","name":"","type":"address"}],"stateMutability":"view","type":"function"},{"inputs":[],"name":"startContract","outputs":[],"stateMutability":"nonpayable","type":"function"},{"inputs":[],"name":"the_balance","outputs":[{"internalType":"uint256","name":"","type":"uint256"}],"stateMutability":"view","type":"function"},{"inputs":[],"name":"timeEnd","outputs":[{"internalType":"uint256","name":"","type":"uint256"}],"stateMutability":"view","type":"function"},{"inputs":[],"name":"timeStart","outputs":[{"internalType":"uint256","name":"","type":"uint256"}],"stateMutability":"view","type":"function"},{"inputs":[],"name":"timeToJoin","outputs":[{"internalType":"uint256","name":"","type":"uint256"}],"stateMutability":"view","type":"function"}],"devdoc":{"kind":"dev","methods":{},"version":1},"evm":{"assembly":"    /* \"Inbox.sol\":65:9159  contract basic {... */\n  mstore(0x40, 0x80)\n    /* \"Inbox.sol\":1073:1076  800 */\n  0x0320\n    /* \"Inbox.sol\":1058:1076  uint penelty = 800 */\n  0x00\n  sstore\n    /* \"Inbox.sol\":1132:1135  100 */\n  0x64\n    /* \"Inbox.sol\":1113:1135  uint manager_fee = 100 */\n  0x01\n  sstore\n    /* \"Inbox.sol\":1170:1172  20 */\n  0x14\n    /* \"Inbox.sol\":1152:1172  uint days_start = 20 */\n  0x02\n  sstore\n    /* \"Inbox.sol\":1202:1203  4 */\n  0x04\n    /* \"Inbox.sol\":1179:1203  uint numStakeholders = 4 */\n  0x03\n  sstore\n    /* \"Inbox.sol\":1479:1480  0 */\n  0x00\n    /* \"Inbox.sol\":1447:1480  uint endTheContract_numOfVote = 0 */\n  0x09\n  sstore\n    /* \"Inbox.sol\":1547:1548  0 */\n  0x00\n    /* \"Inbox.sol\":1520:1548  uint public numOfInvestors=0 */\n  0x0b\n  sstore\n    /* \"Inbox.sol\":2510:2979  constructor(... */\n  callvalue\n  dup1\n  iszero\n  tag_1\n  jumpi\n  0x00\n  dup1\n  revert\ntag_1:\n  pop\n  mload(0x40)\n  sub(codesize, bytecodeSize)\n  dup1\n  bytecodeSize\n  dup4\n  codecopy\n  dup2\n  dup2\n  add\n  0x40\n  mstore\n  dup2\n  add\n  swap1\n  tag_2\n  swap2\n  swap1\n  tag_3\n  jump\t// in\ntag_2:\n    /* \"Inbox.sol\":2683:2695  contractName */\n  dup1\n    /* \"Inbox.sol\":2678:2682  name */\n  0x04\n    /* \"Inbox.sol\":2678:2695  name=contractName */\n  swap1\n  dup2\n  tag_6\n  swap2\n  swap1\n  tag_7\n  jump\t// in\ntag_6:\n  pop\n    /* \"Inbox.sol\":2713:2719  sentTo */\n  dup2\n    /* \"Inbox.sol\":2706:2710  site */\n  0x06\n  0x00\n    /* \"Inbox.sol\":2706:2719  site = sentTo */\n  0x0100\n  exp\n  dup2\n  sload\n  dup2\n  0xffffffffffffffffffffffffffffffffffffffff\n  mul\n  not\n  and\n  swap1\n  dup4\n  0xffffffffffffffffffffffffffffffffffffffff\n  and\n  mul\n  or\n  swap1\n  sstore\n  pop\n    /* \"Inbox.sol\":2740:2747  creator */\n  dup3\n    /* \"Inbox.sol\":2730:2737  manager */\n  0x05\n  0x00\n    /* \"Inbox.sol\":2730:2747  manager = creator */\n  0x0100\n  exp\n  dup2\n  sload\n  dup2\n  0xffffffffffffffffffffffffffffffffffffffff\n  mul\n  not\n  and\n  swap1\n  dup4\n  0xffffffffffffffffffffffffffffffffffffffff\n  and\n  mul\n  or\n  swap1\n  sstore\n  pop\n    /* \"Inbox.sol\":2780:2787  minimum */\n  dup5\n    /* \"Inbox.sol\":2758:2777  minimumContribution */\n  0x0f\n    /* \"Inbox.sol\":2758:2787  minimumContribution = minimum */\n  dup2\n  swap1\n  sstore\n  pop\n    /* \"Inbox.sol\":2810:2825  block.timestamp */\n  timestamp\n    /* \"Inbox.sol\":2798:2807  timeStart */\n  0x10\n    /* \"Inbox.sol\":2798:2825  timeStart = block.timestamp */\n  dup2\n  swap1\n  sstore\n  pop\n    /* \"Inbox.sol\":2876:2882  1 days */\n  0x015180\n    /* \"Inbox.sol\":2865:2873  num_days */\n  dup5\n    /* \"Inbox.sol\":2865:2882  num_days * 1 days */\n  tag_8\n  swap2\n  swap1\n  tag_9\n  jump\t// in\ntag_8:\n    /* \"Inbox.sol\":2846:2861  block.timestamp */\n  timestamp\n    /* \"Inbox.sol\":2846:2883  block.timestamp + (num_days * 1 days) */\n  tag_10\n  swap2\n  swap1\n  tag_11\n  jump\t// in\ntag_10:\n    /* \"Inbox.sol\":2836:2843  timeEnd */\n  0x12\n    /* \"Inbox.sol\":2836:2883  timeEnd = block.timestamp + (num_days * 1 days) */\n  dup2\n  swap1\n  sstore\n  pop\n    /* \"Inbox.sol\":2939:2945  1 days */\n  0x015180\n    /* \"Inbox.sol\":2926:2936  days_start */\n  sload(0x02)\n    /* \"Inbox.sol\":2926:2945  days_start * 1 days */\n  tag_12\n  swap2\n  swap1\n  tag_9\n  jump\t// in\ntag_12:\n    /* \"Inbox.sol\":2907:2922  block.timestamp */\n  timestamp\n    /* \"Inbox.sol\":2907:2946  block.timestamp + (days_start * 1 days) */\n  tag_13\n  swap2\n  swap1\n  tag_11\n  jump\t// in\ntag_13:\n    /* \"Inbox.sol\":2894:2904  timeToJoin */\n  0x11\n    /* \"Inbox.sol\":2894:2946  timeToJoin = block.timestamp + (days_start * 1 days) */\n  dup2\n  swap1\n  sstore\n  pop\n    /* \"Inbox.sol\":2966:2971  false */\n  0x00\n    /* \"Inbox.sol\":2957:2963  canBuy */\n  0x13\n  0x00\n    /* \"Inbox.sol\":2957:2971  canBuy = false */\n  0x0100\n  exp\n  dup2\n  sload\n  dup2\n  0xff\n  mul\n  not\n  and\n  swap1\n  dup4\n  iszero\n  iszero\n  mul\n  or\n  swap1\n  sstore\n  pop\n    /* \"Inbox.sol\":2510:2979  constructor(... */\n  pop\n  pop\n  pop\n  pop\n  pop\n    /* \"Inbox.sol\":65:9159  contract basic {... */\n  jump(tag_14)\n    /* \"#utility.yul\":7:82   */\ntag_15:\n    /* \"#utility.yul\":40:46   */\n  0x00\n    /* \"#utility.yul\":73:75   */\n  0x40\n    /* \"#utility.yul\":67:76   */\n  mload\n    /* \"#utility.yul\":57:76   */\n  swap1\n  pop\n    /* \"#utility.yul\":7:82   */\n  swap1\n  jump\t// out\n    /* \"#utility.yul\":88:205   */\ntag_16:\n    /* \"#utility.yul\":197:198   */\n  0x00\n    /* \"#utility.yul\":194:195   */\n  dup1\n    /* \"#utility.yul\":187:199   */\n  revert\n    /* \"#utility.yul\":211:328   */\ntag_17:\n    /* \"#utility.yul\":320:321   */\n  0x00\n    /* \"#utility.yul\":317:318   */\n  dup1\n    /* \"#utility.yul\":310:322   */\n  revert\n    /* \"#utility.yul\":334:411   */\ntag_18:\n    /* \"#utility.yul\":371:378   */\n  0x00\n    /* \"#utility.yul\":400:405   */\n  dup2\n    /* \"#utility.yul\":389:405   */\n  swap1\n  pop\n    /* \"#utility.yul\":334:411   */\n  swap2\n  swap1\n  pop\n  jump\t// out\n    /* \"#utility.yul\":417:539   */\ntag_19:\n    /* \"#utility.yul\":490:514   */\n  tag_60\n    /* \"#utility.yul\":508:513   */\n  dup2\n    /* \"#utility.yul\":490:514   */\n  tag_18\n  jump\t// in\ntag_60:\n    /* \"#utility.yul\":483:488   */\n  dup2\n    /* \"#utility.yul\":480:515   */\n  eq\n    /* \"#utility.yul\":470:533   */\n  tag_61\n  jumpi\n    /* \"#utility.yul\":529:530   */\n  0x00\n    /* \"#utility.yul\":526:527   */\n  dup1\n    /* \"#utility.yul\":519:531   */\n  revert\n    /* \"#utility.yul\":470:533   */\ntag_61:\n    /* \"#utility.yul\":417:539   */\n  pop\n  jump\t// out\n    /* \"#utility.yul\":545:688   */\ntag_20:\n    /* \"#utility.yul\":602:607   */\n  0x00\n    /* \"#utility.yul\":633:639   */\n  dup2\n    /* \"#utility.yul\":627:640   */\n  mload\n    /* \"#utility.yul\":618:640   */\n  swap1\n  pop\n    /* \"#utility.yul\":649:682   */\n  tag_63\n    /* \"#utility.yul\":676:681   */\n  dup2\n    /* \"#utility.yul\":649:682   */\n  tag_19\n  jump\t// in\ntag_63:\n    /* \"#utility.yul\":545:688   */\n  swap3\n  swap2\n  pop\n  pop\n  jump\t// out\n    /* \"#utility.yul\":694:820   */\ntag_21:\n    /* \"#utility.yul\":731:738   */\n  0x00\n    /* \"#utility.yul\":771:813   */\n  0xffffffffffffffffffffffffffffffffffffffff\n    /* \"#utility.yul\":764:769   */\n  dup3\n    /* \"#utility.yul\":760:814   */\n  and\n    /* \"#utility.yul\":749:814   */\n  swap1\n  pop\n    /* \"#utility.yul\":694:820   */\n  swap2\n  swap1\n  pop\n  jump\t// out\n    /* \"#utility.yul\":826:922   */\ntag_22:\n    /* \"#utility.yul\":863:870   */\n  0x00\n    /* \"#utility.yul\":892:916   */\n  tag_66\n    /* \"#utility.yul\":910:915   */\n  dup3\n    /* \"#utility.yul\":892:916   */\n  tag_21\n  jump\t// in\ntag_66:\n    /* \"#utility.yul\":881:916   */\n  swap1\n  pop\n    /* \"#utility.yul\":826:922   */\n  swap2\n  swap1\n  pop\n  jump\t// out\n    /* \"#utility.yul\":928:1050   */\ntag_23:\n    /* \"#utility.yul\":1001:1025   */\n  tag_68\n    /* \"#utility.yul\":1019:1024   */\n  dup2\n    /* \"#utility.yul\":1001:1025   */\n  tag_22\n  jump\t// in\ntag_68:\n    /* \"#utility.yul\":994:999   */\n  dup2\n    /* \"#utility.yul\":991:1026   */\n  eq\n    /* \"#utility.yul\":981:1044   */\n  tag_69\n  jumpi\n    /* \"#utility.yul\":1040:1041   */\n  0x00\n    /* \"#utility.yul\":1037:1038   */\n  dup1\n    /* \"#utility.yul\":1030:1042   */\n  revert\n    /* \"#utility.yul\":981:1044   */\ntag_69:\n    /* \"#utility.yul\":928:1050   */\n  pop\n  jump\t// out\n    /* \"#utility.yul\":1056:1199   */\ntag_24:\n    /* \"#utility.yul\":1113:1118   */\n  0x00\n    /* \"#utility.yul\":1144:1150   */\n  dup2\n    /* \"#utility.yul\":1138:1151   */\n  mload\n    /* \"#utility.yul\":1129:1151   */\n  swap1\n  pop\n    /* \"#utility.yul\":1160:1193   */\n  tag_71\n    /* \"#utility.yul\":1187:1192   */\n  dup2\n    /* \"#utility.yul\":1160:1193   */\n  tag_23\n  jump\t// in\ntag_71:\n    /* \"#utility.yul\":1056:1199   */\n  swap3\n  swap2\n  pop\n  pop\n  jump\t// out\n    /* \"#utility.yul\":1205:1322   */\ntag_25:\n    /* \"#utility.yul\":1314:1315   */\n  0x00\n    /* \"#utility.yul\":1311:1312   */\n  dup1\n    /* \"#utility.yul\":1304:1316   */\n  revert\n    /* \"#utility.yul\":1328:1445   */\ntag_26:\n    /* \"#utility.yul\":1437:1438   */\n  0x00\n    /* \"#utility.yul\":1434:1435   */\n  dup1\n    /* \"#utility.yul\":1427:1439   */\n  revert\n    /* \"#utility.yul\":1451:1553   */\ntag_27:\n    /* \"#utility.yul\":1492:1498   */\n  0x00\n    /* \"#utility.yul\":1543:1545   */\n  0x1f\n    /* \"#utility.yul\":1539:1546   */\n  not\n    /* \"#utility.yul\":1534:1536   */\n  0x1f\n    /* \"#utility.yul\":1527:1532   */\n  dup4\n    /* \"#utility.yul\":1523:1537   */\n  add\n    /* \"#utility.yul\":1519:1547   */\n  and\n    /* \"#utility.yul\":1509:1547   */\n  swap1\n  pop\n    /* \"#utility.yul\":1451:1553   */\n  swap2\n  swap1\n  pop\n  jump\t// out\n    /* \"#utility.yul\":1559:1739   */\ntag_28:\n    /* \"#utility.yul\":1607:1684   */\n  0x4e487b7100000000000000000000000000000000000000000000000000000000\n    /* \"#utility.yul\":1604:1605   */\n  0x00\n    /* \"#utility.yul\":1597:1685   */\n  mstore\n    /* \"#utility.yul\":1704:1708   */\n  0x41\n    /* \"#utility.yul\":1701:1702   */\n  0x04\n    /* \"#utility.yul\":1694:1709   */\n  mstore\n    /* \"#utility.yul\":1728:1732   */\n  0x24\n    /* \"#utility.yul\":1725:1726   */\n  0x00\n    /* \"#utility.yul\":1718:1733   */\n  revert\n    /* \"#utility.yul\":1745:2026   */\ntag_29:\n    /* \"#utility.yul\":1828:1855   */\n  tag_77\n    /* \"#utility.yul\":1850:1854   */\n  dup3\n    /* \"#utility.yul\":1828:1855   */\n  tag_27\n  jump\t// in\ntag_77:\n    /* \"#utility.yul\":1820:1826   */\n  dup2\n    /* \"#utility.yul\":1816:1856   */\n  add\n    /* \"#utility.yul\":1958:1964   */\n  dup2\n    /* \"#utility.yul\":1946:1956   */\n  dup2\n    /* \"#utility.yul\":1943:1965   */\n  lt\n    /* \"#utility.yul\":1922:1940   */\n  0xffffffffffffffff\n    /* \"#utility.yul\":1910:1920   */\n  dup3\n    /* \"#utility.yul\":1907:1941   */\n  gt\n    /* \"#utility.yul\":1904:1966   */\n  or\n    /* \"#utility.yul\":1901:1989   */\n  iszero\n  tag_78\n  jumpi\n    /* \"#utility.yul\":1969:1987   */\n  tag_79\n  tag_28\n  jump\t// in\ntag_79:\n    /* \"#utility.yul\":1901:1989   */\ntag_78:\n    /* \"#utility.yul\":2009:2019   */\n  dup1\n    /* \"#utility.yul\":2005:2007   */\n  0x40\n    /* \"#utility.yul\":1998:2020   */\n  mstore\n    /* \"#utility.yul\":1788:2026   */\n  pop\n    /* \"#utility.yul\":1745:2026   */\n  pop\n  pop\n  jump\t// out\n    /* \"#utility.yul\":2032:2161   */\ntag_30:\n    /* \"#utility.yul\":2066:2072   */\n  0x00\n    /* \"#utility.yul\":2093:2113   */\n  tag_81\n  tag_15\n  jump\t// in\ntag_81:\n    /* \"#utility.yul\":2083:2113   */\n  swap1\n  pop\n    /* \"#utility.yul\":2122:2155   */\n  tag_82\n    /* \"#utility.yul\":2150:2154   */\n  dup3\n    /* \"#utility.yul\":2142:2148   */\n  dup3\n    /* \"#utility.yul\":2122:2155   */\n  tag_29\n  jump\t// in\ntag_82:\n    /* \"#utility.yul\":2032:2161   */\n  swap2\n  swap1\n  pop\n  jump\t// out\n    /* \"#utility.yul\":2167:2475   */\ntag_31:\n    /* \"#utility.yul\":2229:2233   */\n  0x00\n    /* \"#utility.yul\":2319:2337   */\n  0xffffffffffffffff\n    /* \"#utility.yul\":2311:2317   */\n  dup3\n    /* \"#utility.yul\":2308:2338   */\n  gt\n    /* \"#utility.yul\":2305:2361   */\n  iszero\n  tag_84\n  jumpi\n    /* \"#utility.yul\":2341:2359   */\n  tag_85\n  tag_28\n  jump\t// in\ntag_85:\n    /* \"#utility.yul\":2305:2361   */\ntag_84:\n    /* \"#utility.yul\":2379:2408   */\n  tag_86\n    /* \"#utility.yul\":2401:2407   */\n  dup3\n    /* \"#utility.yul\":2379:2408   */\n  tag_27\n  jump\t// in\ntag_86:\n    /* \"#utility.yul\":2371:2408   */\n  swap1\n  pop\n    /* \"#utility.yul\":2463:2467   */\n  0x20\n    /* \"#utility.yul\":2457:2461   */\n  dup2\n    /* \"#utility.yul\":2453:2468   */\n  add\n    /* \"#utility.yul\":2445:2468   */\n  swap1\n  pop\n    /* \"#utility.yul\":2167:2475   */\n  swap2\n  swap1\n  pop\n  jump\t// out\n    /* \"#utility.yul\":2481:2788   */\ntag_32:\n    /* \"#utility.yul\":2549:2550   */\n  0x00\n    /* \"#utility.yul\":2559:2672   */\ntag_88:\n    /* \"#utility.yul\":2573:2579   */\n  dup4\n    /* \"#utility.yul\":2570:2571   */\n  dup2\n    /* \"#utility.yul\":2567:2580   */\n  lt\n    /* \"#utility.yul\":2559:2672   */\n  iszero\n  tag_90\n  jumpi\n    /* \"#utility.yul\":2658:2659   */\n  dup1\n    /* \"#utility.yul\":2653:2656   */\n  dup3\n    /* \"#utility.yul\":2649:2660   */\n  add\n    /* \"#utility.yul\":2643:2661   */\n  mload\n    /* \"#utility.yul\":2639:2640   */\n  dup2\n    /* \"#utility.yul\":2634:2637   */\n  dup5\n    /* \"#utility.yul\":2630:2641   */\n  add\n    /* \"#utility.yul\":2623:2662   */\n  mstore\n    /* \"#utility.yul\":2595:2597   */\n  0x20\n    /* \"#utility.yul\":2592:2593   */\n  dup2\n    /* \"#utility.yul\":2588:2598   */\n  add\n    /* \"#utility.yul\":2583:2598   */\n  swap1\n  pop\n    /* \"#utility.yul\":2559:2672   */\n  jump(tag_88)\ntag_90:\n    /* \"#utility.yul\":2690:2696   */\n  dup4\n    /* \"#utility.yul\":2687:2688   */\n  dup2\n    /* \"#utility.yul\":2684:2697   */\n  gt\n    /* \"#utility.yul\":2681:2782   */\n  iszero\n  tag_91\n  jumpi\n    /* \"#utility.yul\":2770:2771   */\n  0x00\n    /* \"#utility.yul\":2761:2767   */\n  dup5\n    /* \"#utility.yul\":2756:2759   */\n  dup5\n    /* \"#utility.yul\":2752:2768   */\n  add\n    /* \"#utility.yul\":2745:2772   */\n  mstore\n    /* \"#utility.yul\":2681:2782   */\ntag_91:\n    /* \"#utility.yul\":2530:2788   */\n  pop\n    /* \"#utility.yul\":2481:2788   */\n  pop\n  pop\n  pop\n  jump\t// out\n    /* \"#utility.yul\":2794:3215   */\ntag_33:\n    /* \"#utility.yul\":2883:2888   */\n  0x00\n    /* \"#utility.yul\":2908:2974   */\n  tag_93\n    /* \"#utility.yul\":2924:2973   */\n  tag_94\n    /* \"#utility.yul\":2966:2972   */\n  dup5\n    /* \"#utility.yul\":2924:2973   */\n  tag_31\n  jump\t// in\ntag_94:\n    /* \"#utility.yul\":2908:2974   */\n  tag_30\n  jump\t// in\ntag_93:\n    /* \"#utility.yul\":2899:2974   */\n  swap1\n  pop\n    /* \"#utility.yul\":2997:3003   */\n  dup3\n    /* \"#utility.yul\":2990:2995   */\n  dup2\n    /* \"#utility.yul\":2983:3004   */\n  mstore\n    /* \"#utility.yul\":3035:3039   */\n  0x20\n    /* \"#utility.yul\":3028:3033   */\n  dup2\n    /* \"#utility.yul\":3024:3040   */\n  add\n    /* \"#utility.yul\":3073:3076   */\n  dup5\n    /* \"#utility.yul\":3064:3070   */\n  dup5\n    /* \"#utility.yul\":3059:3062   */\n  dup5\n    /* \"#utility.yul\":3055:3071   */\n  add\n    /* \"#utility.yul\":3052:3077   */\n  gt\n    /* \"#utility.yul\":3049:3161   */\n  iszero\n  tag_95\n  jumpi\n    /* \"#utility.yul\":3080:3159   */\n  tag_96\n  tag_26\n  jump\t// in\ntag_96:\n    /* \"#utility.yul\":3049:3161   */\ntag_95:\n    /* \"#utility.yul\":3170:3209   */\n  tag_97\n    /* \"#utility.yul\":3202:3208   */\n  dup5\n    /* \"#utility.yul\":3197:3200   */\n  dup3\n    /* \"#utility.yul\":3192:3195   */\n  dup6\n    /* \"#utility.yul\":3170:3209   */\n  tag_32\n  jump\t// in\ntag_97:\n    /* \"#utility.yul\":2889:3215   */\n  pop\n    /* \"#utility.yul\":2794:3215   */\n  swap4\n  swap3\n  pop\n  pop\n  pop\n  jump\t// out\n    /* \"#utility.yul\":3235:3590   */\ntag_34:\n    /* \"#utility.yul\":3302:3307   */\n  0x00\n    /* \"#utility.yul\":3351:3354   */\n  dup3\n    /* \"#utility.yul\":3344:3348   */\n  0x1f\n    /* \"#utility.yul\":3336:3342   */\n  dup4\n    /* \"#utility.yul\":3332:3349   */\n  add\n    /* \"#utility.yul\":3328:3355   */\n  slt\n    /* \"#utility.yul\":3318:3440   */\n  tag_99\n  jumpi\n    /* \"#utility.yul\":3359:3438   */\n  tag_100\n  tag_25\n  jump\t// in\ntag_100:\n    /* \"#utility.yul\":3318:3440   */\ntag_99:\n    /* \"#utility.yul\":3469:3475   */\n  dup2\n    /* \"#utility.yul\":3463:3476   */\n  mload\n    /* \"#utility.yul\":3494:3584   */\n  tag_101\n    /* \"#utility.yul\":3580:3583   */\n  dup5\n    /* \"#utility.yul\":3572:3578   */\n  dup3\n    /* \"#utility.yul\":3565:3569   */\n  0x20\n    /* \"#utility.yul\":3557:3563   */\n  dup7\n    /* \"#utility.yul\":3553:3570   */\n  add\n    /* \"#utility.yul\":3494:3584   */\n  tag_33\n  jump\t// in\ntag_101:\n    /* \"#utility.yul\":3485:3584   */\n  swap2\n  pop\n    /* \"#utility.yul\":3308:3590   */\n  pop\n    /* \"#utility.yul\":3235:3590   */\n  swap3\n  swap2\n  pop\n  pop\n  jump\t// out\n    /* \"#utility.yul\":3596:4746   */\ntag_3:\n    /* \"#utility.yul\":3712:3718   */\n  0x00\n    /* \"#utility.yul\":3720:3726   */\n  dup1\n    /* \"#utility.yul\":3728:3734   */\n  0x00\n    /* \"#utility.yul\":3736:3742   */\n  dup1\n    /* \"#utility.yul\":3744:3750   */\n  0x00\n    /* \"#utility.yul\":3793:3796   */\n  0xa0\n    /* \"#utility.yul\":3781:3790   */\n  dup7\n    /* \"#utility.yul\":3772:3779   */\n  dup9\n    /* \"#utility.yul\":3768:3791   */\n  sub\n    /* \"#utility.yul\":3764:3797   */\n  slt\n    /* \"#utility.yul\":3761:3881   */\n  iszero\n  tag_103\n  jumpi\n    /* \"#utility.yul\":3800:3879   */\n  tag_104\n  tag_16\n  jump\t// in\ntag_104:\n    /* \"#utility.yul\":3761:3881   */\ntag_103:\n    /* \"#utility.yul\":3920:3921   */\n  0x00\n    /* \"#utility.yul\":3945:4009   */\n  tag_105\n    /* \"#utility.yul\":4001:4008   */\n  dup9\n    /* \"#utility.yul\":3992:3998   */\n  dup3\n    /* \"#utility.yul\":3981:3990   */\n  dup10\n    /* \"#utility.yul\":3977:3999   */\n  add\n    /* \"#utility.yul\":3945:4009   */\n  tag_20\n  jump\t// in\ntag_105:\n    /* \"#utility.yul\":3935:4009   */\n  swap6\n  pop\n    /* \"#utility.yul\":3891:4019   */\n  pop\n    /* \"#utility.yul\":4058:4060   */\n  0x20\n    /* \"#utility.yul\":4084:4148   */\n  tag_106\n    /* \"#utility.yul\":4140:4147   */\n  dup9\n    /* \"#utility.yul\":4131:4137   */\n  dup3\n    /* \"#utility.yul\":4120:4129   */\n  dup10\n    /* \"#utility.yul\":4116:4138   */\n  add\n    /* \"#utility.yul\":4084:4148   */\n  tag_20\n  jump\t// in\ntag_106:\n    /* \"#utility.yul\":4074:4148   */\n  swap5\n  pop\n    /* \"#utility.yul\":4029:4158   */\n  pop\n    /* \"#utility.yul\":4197:4199   */\n  0x40\n    /* \"#utility.yul\":4223:4287   */\n  tag_107\n    /* \"#utility.yul\":4279:4286   */\n  dup9\n    /* \"#utility.yul\":4270:4276   */\n  dup3\n    /* \"#utility.yul\":4259:4268   */\n  dup10\n    /* \"#utility.yul\":4255:4277   */\n  add\n    /* \"#utility.yul\":4223:4287   */\n  tag_24\n  jump\t// in\ntag_107:\n    /* \"#utility.yul\":4213:4287   */\n  swap4\n  pop\n    /* \"#utility.yul\":4168:4297   */\n  pop\n    /* \"#utility.yul\":4336:4338   */\n  0x60\n    /* \"#utility.yul\":4362:4426   */\n  tag_108\n    /* \"#utility.yul\":4418:4425   */\n  dup9\n    /* \"#utility.yul\":4409:4415   */\n  dup3\n    /* \"#utility.yul\":4398:4407   */\n  dup10\n    /* \"#utility.yul\":4394:4416   */\n  add\n    /* \"#utility.yul\":4362:4426   */\n  tag_24\n  jump\t// in\ntag_108:\n    /* \"#utility.yul\":4352:4426   */\n  swap3\n  pop\n    /* \"#utility.yul\":4307:4436   */\n  pop\n    /* \"#utility.yul\":4496:4499   */\n  0x80\n    /* \"#utility.yul\":4485:4494   */\n  dup7\n    /* \"#utility.yul\":4481:4500   */\n  add\n    /* \"#utility.yul\":4475:4501   */\n  mload\n    /* \"#utility.yul\":4528:4546   */\n  0xffffffffffffffff\n    /* \"#utility.yul\":4520:4526   */\n  dup2\n    /* \"#utility.yul\":4517:4547   */\n  gt\n    /* \"#utility.yul\":4514:4631   */\n  iszero\n  tag_109\n  jumpi\n    /* \"#utility.yul\":4550:4629   */\n  tag_110\n  tag_17\n  jump\t// in\ntag_110:\n    /* \"#utility.yul\":4514:4631   */\ntag_109:\n    /* \"#utility.yul\":4655:4729   */\n  tag_111\n    /* \"#utility.yul\":4721:4728   */\n  dup9\n    /* \"#utility.yul\":4712:4718   */\n  dup3\n    /* \"#utility.yul\":4701:4710   */\n  dup10\n    /* \"#utility.yul\":4697:4719   */\n  add\n    /* \"#utility.yul\":4655:4729   */\n  tag_34\n  jump\t// in\ntag_111:\n    /* \"#utility.yul\":4645:4729   */\n  swap2\n  pop\n    /* \"#utility.yul\":4446:4739   */\n  pop\n    /* \"#utility.yul\":3596:4746   */\n  swap3\n  swap6\n  pop\n  swap3\n  swap6\n  swap1\n  swap4\n  pop\n  jump\t// out\n    /* \"#utility.yul\":4752:4851   */\ntag_35:\n    /* \"#utility.yul\":4804:4810   */\n  0x00\n    /* \"#utility.yul\":4838:4843   */\n  dup2\n    /* \"#utility.yul\":4832:4844   */\n  mload\n    /* \"#utility.yul\":4822:4844   */\n  swap1\n  pop\n    /* \"#utility.yul\":4752:4851   */\n  swap2\n  swap1\n  pop\n  jump\t// out\n    /* \"#utility.yul\":4857:5037   */\ntag_36:\n    /* \"#utility.yul\":4905:4982   */\n  0x4e487b7100000000000000000000000000000000000000000000000000000000\n    /* \"#utility.yul\":4902:4903   */\n  0x00\n    /* \"#utility.yul\":4895:4983   */\n  mstore\n    /* \"#utility.yul\":5002:5006   */\n  0x22\n    /* \"#utility.yul\":4999:5000   */\n  0x04\n    /* \"#utility.yul\":4992:5007   */\n  mstore\n    /* \"#utility.yul\":5026:5030   */\n  0x24\n    /* \"#utility.yul\":5023:5024   */\n  0x00\n    /* \"#utility.yul\":5016:5031   */\n  revert\n    /* \"#utility.yul\":5043:5363   */\ntag_37:\n    /* \"#utility.yul\":5087:5093   */\n  0x00\n    /* \"#utility.yul\":5124:5125   */\n  0x02\n    /* \"#utility.yul\":5118:5122   */\n  dup3\n    /* \"#utility.yul\":5114:5126   */\n  div\n    /* \"#utility.yul\":5104:5126   */\n  swap1\n  pop\n    /* \"#utility.yul\":5171:5172   */\n  0x01\n    /* \"#utility.yul\":5165:5169   */\n  dup3\n    /* \"#utility.yul\":5161:5173   */\n  and\n    /* \"#utility.yul\":5192:5210   */\n  dup1\n    /* \"#utility.yul\":5182:5263   */\n  tag_115\n  jumpi\n    /* \"#utility.yul\":5248:5252   */\n  0x7f\n    /* \"#utility.yul\":5240:5246   */\n  dup3\n    /* \"#utility.yul\":5236:5253   */\n  and\n    /* \"#utility.yul\":5226:5253   */\n  swap2\n  pop\n    /* \"#utility.yul\":5182:5263   */\ntag_115:\n    /* \"#utility.yul\":5310:5312   */\n  0x20\n    /* \"#utility.yul\":5302:5308   */\n  dup3\n    /* \"#utility.yul\":5299:5313   */\n  lt\n    /* \"#utility.yul\":5279:5297   */\n  dup2\n    /* \"#utility.yul\":5276:5314   */\n  sub\n    /* \"#utility.yul\":5273:5357   */\n  tag_116\n  jumpi\n    /* \"#utility.yul\":5329:5347   */\n  tag_117\n  tag_36\n  jump\t// in\ntag_117:\n    /* \"#utility.yul\":5273:5357   */\ntag_116:\n    /* \"#utility.yul\":5094:5363   */\n  pop\n    /* \"#utility.yul\":5043:5363   */\n  swap2\n  swap1\n  pop\n  jump\t// out\n    /* \"#utility.yul\":5369:5510   */\ntag_38:\n    /* \"#utility.yul\":5418:5422   */\n  0x00\n    /* \"#utility.yul\":5441:5444   */\n  dup2\n    /* \"#utility.yul\":5433:5444   */\n  swap1\n  pop\n    /* \"#utility.yul\":5464:5467   */\n  dup2\n    /* \"#utility.yul\":5461:5462   */\n  0x00\n    /* \"#utility.yul\":5454:5468   */\n  mstore\n    /* \"#utility.yul\":5498:5502   */\n  0x20\n    /* \"#utility.yul\":5495:5496   */\n  0x00\n    /* \"#utility.yul\":5485:5503   */\n  keccak256\n    /* \"#utility.yul\":5477:5503   */\n  swap1\n  pop\n    /* \"#utility.yul\":5369:5510   */\n  swap2\n  swap1\n  pop\n  jump\t// out\n    /* \"#utility.yul\":5516:5609   */\ntag_39:\n    /* \"#utility.yul\":5553:5559   */\n  0x00\n    /* \"#utility.yul\":5600:5602   */\n  0x20\n    /* \"#utility.yul\":5595:5597   */\n  0x1f\n    /* \"#utility.yul\":5588:5593   */\n  dup4\n    /* \"#utility.yul\":5584:5598   */\n  add\n    /* \"#utility.yul\":5580:5603   */\n  div\n    /* \"#utility.yul\":5570:5603   */\n  swap1\n  pop\n    /* \"#utility.yul\":5516:5609   */\n  swap2\n  swap1\n  pop\n  jump\t// out\n    /* \"#utility.yul\":5615:5722   */\ntag_40:\n    /* \"#utility.yul\":5659:5667   */\n  0x00\n    /* \"#utility.yul\":5709:5714   */\n  dup3\n    /* \"#utility.yul\":5703:5707   */\n  dup3\n    /* \"#utility.yul\":5699:5715   */\n  shl\n    /* \"#utility.yul\":5678:5715   */\n  swap1\n  pop\n    /* \"#utility.yul\":5615:5722   */\n  swap3\n  swap2\n  pop\n  pop\n  jump\t// out\n    /* \"#utility.yul\":5728:6121   */\ntag_41:\n    /* \"#utility.yul\":5797:5803   */\n  0x00\n    /* \"#utility.yul\":5847:5848   */\n  0x08\n    /* \"#utility.yul\":5835:5845   */\n  dup4\n    /* \"#utility.yul\":5831:5849   */\n  mul\n    /* \"#utility.yul\":5870:5967   */\n  tag_122\n    /* \"#utility.yul\":5900:5966   */\n  0xffffffffffffffffffffffffffffffffffffffffffffffffffffffffffffffff\n    /* \"#utility.yul\":5889:5898   */\n  dup3\n    /* \"#utility.yul\":5870:5967   */\n  tag_40\n  jump\t// in\ntag_122:\n    /* \"#utility.yul\":5988:6027   */\n  tag_123\n    /* \"#utility.yul\":6018:6026   */\n  dup7\n    /* \"#utility.yul\":6007:6016   */\n  dup4\n    /* \"#utility.yul\":5988:6027   */\n  tag_40\n  jump\t// in\ntag_123:\n    /* \"#utility.yul\":5976:6027   */\n  swap6\n  pop\n    /* \"#utility.yul\":6060:6064   */\n  dup1\n    /* \"#utility.yul\":6056:6065   */\n  not\n    /* \"#utility.yul\":6049:6054   */\n  dup5\n    /* \"#utility.yul\":6045:6066   */\n  and\n    /* \"#utility.yul\":6036:6066   */\n  swap4\n  pop\n    /* \"#utility.yul\":6109:6113   */\n  dup1\n    /* \"#utility.yul\":6099:6107   */\n  dup7\n    /* \"#utility.yul\":6095:6114   */\n  and\n    /* \"#utility.yul\":6088:6093   */\n  dup5\n    /* \"#utility.yul\":6085:6115   */\n  or\n    /* \"#utility.yul\":6075:6115   */\n  swap3\n  pop\n    /* \"#utility.yul\":5804:6121   */\n  pop\n  pop\n    /* \"#utility.yul\":5728:6121   */\n  swap4\n  swap3\n  pop\n  pop\n  pop\n  jump\t// out\n    /* \"#utility.yul\":6127:6187   */\ntag_42:\n    /* \"#utility.yul\":6155:6158   */\n  0x00\n    /* \"#utility.yul\":6176:6181   */\n  dup2\n    /* \"#utility.yul\":6169:6181   */\n  swap1\n  pop\n    /* \"#utility.yul\":6127:6187   */\n  swap2\n  swap1\n  pop\n  jump\t// out\n    /* \"#utility.yul\":6193:6335   */\ntag_43:\n    /* \"#utility.yul\":6243:6252   */\n  0x00\n    /* \"#utility.yul\":6276:6329   */\n  tag_126\n    /* \"#utility.yul\":6294:6328   */\n  tag_127\n    /* \"#utility.yul\":6303:6327   */\n  tag_128\n    /* \"#utility.yul\":6321:6326   */\n  dup5\n    /* \"#utility.yul\":6303:6327   */\n  tag_18\n  jump\t// in\ntag_128:\n    /* \"#utility.yul\":6294:6328   */\n  tag_42\n  jump\t// in\ntag_127:\n    /* \"#utility.yul\":6276:6329   */\n  tag_18\n  jump\t// in\ntag_126:\n    /* \"#utility.yul\":6263:6329   */\n  swap1\n  pop\n    /* \"#utility.yul\":6193:6335   */\n  swap2\n  swap1\n  pop\n  jump\t// out\n    /* \"#utility.yul\":6341:6416   */\ntag_44:\n    /* \"#utility.yul\":6384:6387   */\n  0x00\n    /* \"#utility.yul\":6405:6410   */\n  dup2\n    /* \"#utility.yul\":6398:6410   */\n  swap1\n  pop\n    /* \"#utility.yul\":6341:6416   */\n  swap2\n  swap1\n  pop\n  jump\t// out\n    /* \"#utility.yul\":6422:6691   */\ntag_45:\n    /* \"#utility.yul\":6532:6571   */\n  tag_131\n    /* \"#utility.yul\":6563:6570   */\n  dup4\n    /* \"#utility.yul\":6532:6571   */\n  tag_43\n  jump\t// in\ntag_131:\n    /* \"#utility.yul\":6593:6684   */\n  tag_132\n    /* \"#utility.yul\":6642:6683   */\n  tag_133\n    /* \"#utility.yul\":6666:6682   */\n  dup3\n    /* \"#utility.yul\":6642:6683   */\n  tag_44\n  jump\t// in\ntag_133:\n    /* \"#utility.yul\":6634:6640   */\n  dup5\n    /* \"#utility.yul\":6627:6631   */\n  dup5\n    /* \"#utility.yul\":6621:6632   */\n  sload\n    /* \"#utility.yul\":6593:6684   */\n  tag_41\n  jump\t// in\ntag_132:\n    /* \"#utility.yul\":6587:6591   */\n  dup3\n    /* \"#utility.yul\":6580:6685   */\n  sstore\n    /* \"#utility.yul\":6498:6691   */\n  pop\n    /* \"#utility.yul\":6422:6691   */\n  pop\n  pop\n  pop\n  jump\t// out\n    /* \"#utility.yul\":6697:6770   */\ntag_46:\n    /* \"#utility.yul\":6742:6745   */\n  0x00\n    /* \"#utility.yul\":6697:6770   */\n  swap1\n  jump\t// out\n    /* \"#utility.yul\":6776:6965   */\ntag_47:\n    /* \"#utility.yul\":6853:6885   */\n  tag_136\n  tag_46\n  jump\t// in\ntag_136:\n    /* \"#utility.yul\":6894:6959   */\n  tag_137\n    /* \"#utility.yul\":6952:6958   */\n  dup2\n    /* \"#utility.yul\":6944:6950   */\n  dup5\n    /* \"#utility.yul\":6938:6942   */\n  dup5\n    /* \"#utility.yul\":6894:6959   */\n  tag_45\n  jump\t// in\ntag_137:\n    /* \"#utility.yul\":6829:6965   */\n  pop\n    /* \"#utility.yul\":6776:6965   */\n  pop\n  pop\n  jump\t// out\n    /* \"#utility.yul\":6971:7157   */\ntag_48:\n    /* \"#utility.yul\":7031:7151   */\ntag_139:\n    /* \"#utility.yul\":7048:7051   */\n  dup2\n    /* \"#utility.yul\":7041:7046   */\n  dup2\n    /* \"#utility.yul\":7038:7052   */\n  lt\n    /* \"#utility.yul\":7031:7151   */\n  iszero\n  tag_141\n  jumpi\n    /* \"#utility.yul\":7102:7141   */\n  tag_142\n    /* \"#utility.yul\":7139:7140   */\n  0x00\n    /* \"#utility.yul\":7132:7137   */\n  dup3\n    /* \"#utility.yul\":7102:7141   */\n  tag_47\n  jump\t// in\ntag_142:\n    /* \"#utility.yul\":7075:7076   */\n  0x01\n    /* \"#utility.yul\":7068:7073   */\n  dup2\n    /* \"#utility.yul\":7064:7077   */\n  add\n    /* \"#utility.yul\":7055:7077   */\n  swap1\n  pop\n    /* \"#utility.yul\":7031:7151   */\n  jump(tag_139)\ntag_141:\n    /* \"#utility.yul\":6971:7157   */\n  pop\n  pop\n  jump\t// out\n    /* \"#utility.yul\":7163:7706   */\ntag_49:\n    /* \"#utility.yul\":7264:7266   */\n  0x1f\n    /* \"#utility.yul\":7259:7262   */\n  dup3\n    /* \"#utility.yul\":7256:7267   */\n  gt\n    /* \"#utility.yul\":7253:7699   */\n  iszero\n  tag_144\n  jumpi\n    /* \"#utility.yul\":7298:7336   */\n  tag_145\n    /* \"#utility.yul\":7330:7335   */\n  dup2\n    /* \"#utility.yul\":7298:7336   */\n  tag_38\n  jump\t// in\ntag_145:\n    /* \"#utility.yul\":7382:7411   */\n  tag_146\n    /* \"#utility.yul\":7400:7410   */\n  dup5\n    /* \"#utility.yul\":7382:7411   */\n  tag_39\n  jump\t// in\ntag_146:\n    /* \"#utility.yul\":7372:7380   */\n  dup2\n    /* \"#utility.yul\":7368:7412   */\n  add\n    /* \"#utility.yul\":7565:7567   */\n  0x20\n    /* \"#utility.yul\":7553:7563   */\n  dup6\n    /* \"#utility.yul\":7550:7568   */\n  lt\n    /* \"#utility.yul\":7547:7596   */\n  iszero\n  tag_147\n  jumpi\n    /* \"#utility.yul\":7586:7594   */\n  dup2\n    /* \"#utility.yul\":7571:7594   */\n  swap1\n  pop\n    /* \"#utility.yul\":7547:7596   */\ntag_147:\n    /* \"#utility.yul\":7609:7689   */\n  tag_148\n    /* \"#utility.yul\":7665:7687   */\n  tag_149\n    /* \"#utility.yul\":7683:7686   */\n  dup6\n    /* \"#utility.yul\":7665:7687   */\n  tag_39\n  jump\t// in\ntag_149:\n    /* \"#utility.yul\":7655:7663   */\n  dup4\n    /* \"#utility.yul\":7651:7688   */\n  add\n    /* \"#utility.yul\":7638:7649   */\n  dup3\n    /* \"#utility.yul\":7609:7689   */\n  tag_48\n  jump\t// in\ntag_148:\n    /* \"#utility.yul\":7268:7699   */\n  pop\n  pop\n    /* \"#utility.yul\":7253:7699   */\ntag_144:\n    /* \"#utility.yul\":7163:7706   */\n  pop\n  pop\n  pop\n  jump\t// out\n    /* \"#utility.yul\":7712:7829   */\ntag_50:\n    /* \"#utility.yul\":7766:7774   */\n  0x00\n    /* \"#utility.yul\":7816:7821   */\n  dup3\n    /* \"#utility.yul\":7810:7814   */\n  dup3\n    /* \"#utility.yul\":7806:7822   */\n  shr\n    /* \"#utility.yul\":7785:7822   */\n  swap1\n  pop\n    /* \"#utility.yul\":7712:7829   */\n  swap3\n  swap2\n  pop\n  pop\n  jump\t// out\n    /* \"#utility.yul\":7835:8004   */\ntag_51:\n    /* \"#utility.yul\":7879:7885   */\n  0x00\n    /* \"#utility.yul\":7912:7963   */\n  tag_152\n    /* \"#utility.yul\":7960:7961   */\n  0x00\n    /* \"#utility.yul\":7956:7962   */\n  not\n    /* \"#utility.yul\":7948:7953   */\n  dup5\n    /* \"#utility.yul\":7945:7946   */\n  0x08\n    /* \"#utility.yul\":7941:7954   */\n  mul\n    /* \"#utility.yul\":7912:7963   */\n  tag_50\n  jump\t// in\ntag_152:\n    /* \"#utility.yul\":7908:7964   */\n  not\n    /* \"#utility.yul\":7993:7997   */\n  dup1\n    /* \"#utility.yul\":7987:7991   */\n  dup4\n    /* \"#utility.yul\":7983:7998   */\n  and\n    /* \"#utility.yul\":7973:7998   */\n  swap2\n  pop\n    /* \"#utility.yul\":7886:8004   */\n  pop\n    /* \"#utility.yul\":7835:8004   */\n  swap3\n  swap2\n  pop\n  pop\n  jump\t// out\n    /* \"#utility.yul\":8009:8304   */\ntag_52:\n    /* \"#utility.yul\":8085:8089   */\n  0x00\n    /* \"#utility.yul\":8231:8260   */\n  tag_154\n    /* \"#utility.yul\":8256:8259   */\n  dup4\n    /* \"#utility.yul\":8250:8254   */\n  dup4\n    /* \"#utility.yul\":8231:8260   */\n  tag_51\n  jump\t// in\ntag_154:\n    /* \"#utility.yul\":8223:8260   */\n  swap2\n  pop\n    /* \"#utility.yul\":8293:8296   */\n  dup3\n    /* \"#utility.yul\":8290:8291   */\n  0x02\n    /* \"#utility.yul\":8286:8297   */\n  mul\n    /* \"#utility.yul\":8280:8284   */\n  dup3\n    /* \"#utility.yul\":8277:8298   */\n  or\n    /* \"#utility.yul\":8269:8298   */\n  swap1\n  pop\n    /* \"#utility.yul\":8009:8304   */\n  swap3\n  swap2\n  pop\n  pop\n  jump\t// out\n    /* \"#utility.yul\":8309:9704   */\ntag_7:\n    /* \"#utility.yul\":8426:8463   */\n  tag_156\n    /* \"#utility.yul\":8459:8462   */\n  dup3\n    /* \"#utility.yul\":8426:8463   */\n  tag_35\n  jump\t// in\ntag_156:\n    /* \"#utility.yul\":8528:8546   */\n  0xffffffffffffffff\n    /* \"#utility.yul\":8520:8526   */\n  dup2\n    /* \"#utility.yul\":8517:8547   */\n  gt\n    /* \"#utility.yul\":8514:8570   */\n  iszero\n  tag_157\n  jumpi\n    /* \"#utility.yul\":8550:8568   */\n  tag_158\n  tag_28\n  jump\t// in\ntag_158:\n    /* \"#utility.yul\":8514:8570   */\ntag_157:\n    /* \"#utility.yul\":8594:8632   */\n  tag_159\n    /* \"#utility.yul\":8626:8630   */\n  dup3\n    /* \"#utility.yul\":8620:8631   */\n  sload\n    /* \"#utility.yul\":8594:8632   */\n  tag_37\n  jump\t// in\ntag_159:\n    /* \"#utility.yul\":8679:8746   */\n  tag_160\n    /* \"#utility.yul\":8739:8745   */\n  dup3\n    /* \"#utility.yul\":8731:8737   */\n  dup3\n    /* \"#utility.yul\":8725:8729   */\n  dup6\n    /* \"#utility.yul\":8679:8746   */\n  tag_49\n  jump\t// in\ntag_160:\n    /* \"#utility.yul\":8773:8774   */\n  0x00\n    /* \"#utility.yul\":8797:8801   */\n  0x20\n    /* \"#utility.yul\":8784:8801   */\n  swap1\n  pop\n    /* \"#utility.yul\":8829:8831   */\n  0x1f\n    /* \"#utility.yul\":8821:8827   */\n  dup4\n    /* \"#utility.yul\":8818:8832   */\n  gt\n    /* \"#utility.yul\":8846:8847   */\n  0x01\n    /* \"#utility.yul\":8841:9459   */\n  dup2\n  eq\n  tag_162\n  jumpi\n    /* \"#utility.yul\":9503:9504   */\n  0x00\n    /* \"#utility.yul\":9520:9526   */\n  dup5\n    /* \"#utility.yul\":9517:9594   */\n  iszero\n  tag_163\n  jumpi\n    /* \"#utility.yul\":9569:9578   */\n  dup3\n    /* \"#utility.yul\":9564:9567   */\n  dup8\n    /* \"#utility.yul\":9560:9579   */\n  add\n    /* \"#utility.yul\":9554:9580   */\n  mload\n    /* \"#utility.yul\":9545:9580   */\n  swap1\n  pop\n    /* \"#utility.yul\":9517:9594   */\ntag_163:\n    /* \"#utility.yul\":9620:9687   */\n  tag_164\n    /* \"#utility.yul\":9680:9686   */\n  dup6\n    /* \"#utility.yul\":9673:9678   */\n  dup3\n    /* \"#utility.yul\":9620:9687   */\n  tag_52\n  jump\t// in\ntag_164:\n    /* \"#utility.yul\":9614:9618   */\n  dup7\n    /* \"#utility.yul\":9607:9688   */\n  sstore\n    /* \"#utility.yul\":9476:9698   */\n  pop\n    /* \"#utility.yul\":8811:9698   */\n  jump(tag_161)\n    /* \"#utility.yul\":8841:9459   */\ntag_162:\n    /* \"#utility.yul\":8893:8897   */\n  0x1f\n    /* \"#utility.yul\":8889:8898   */\n  not\n    /* \"#utility.yul\":8881:8887   */\n  dup5\n    /* \"#utility.yul\":8877:8899   */\n  and\n    /* \"#utility.yul\":8927:8964   */\n  tag_165\n    /* \"#utility.yul\":8959:8963   */\n  dup7\n    /* \"#utility.yul\":8927:8964   */\n  tag_38\n  jump\t// in\ntag_165:\n    /* \"#utility.yul\":8986:8987   */\n  0x00\n    /* \"#utility.yul\":9000:9208   */\ntag_166:\n    /* \"#utility.yul\":9014:9021   */\n  dup3\n    /* \"#utility.yul\":9011:9012   */\n  dup2\n    /* \"#utility.yul\":9008:9022   */\n  lt\n    /* \"#utility.yul\":9000:9208   */\n  iszero\n  tag_168\n  jumpi\n    /* \"#utility.yul\":9093:9102   */\n  dup5\n    /* \"#utility.yul\":9088:9091   */\n  dup10\n    /* \"#utility.yul\":9084:9103   */\n  add\n    /* \"#utility.yul\":9078:9104   */\n  mload\n    /* \"#utility.yul\":9070:9076   */\n  dup3\n    /* \"#utility.yul\":9063:9105   */\n  sstore\n    /* \"#utility.yul\":9144:9145   */\n  0x01\n    /* \"#utility.yul\":9136:9142   */\n  dup3\n    /* \"#utility.yul\":9132:9146   */\n  add\n    /* \"#utility.yul\":9122:9146   */\n  swap2\n  pop\n    /* \"#utility.yul\":9191:9193   */\n  0x20\n    /* \"#utility.yul\":9180:9189   */\n  dup6\n    /* \"#utility.yul\":9176:9194   */\n  add\n    /* \"#utility.yul\":9163:9194   */\n  swap5\n  pop\n    /* \"#utility.yul\":9037:9041   */\n  0x20\n    /* \"#utility.yul\":9034:9035   */\n  dup2\n    /* \"#utility.yul\":9030:9042   */\n  add\n    /* \"#utility.yul\":9025:9042   */\n  swap1\n  pop\n    /* \"#utility.yul\":9000:9208   */\n  jump(tag_166)\ntag_168:\n    /* \"#utility.yul\":9236:9242   */\n  dup7\n    /* \"#utility.yul\":9227:9234   */\n  dup4\n    /* \"#utility.yul\":9224:9243   */\n  lt\n    /* \"#utility.yul\":9221:9400   */\n  iszero\n  tag_169\n  jumpi\n    /* \"#utility.yul\":9294:9303   */\n  dup5\n    /* \"#utility.yul\":9289:9292   */\n  dup10\n    /* \"#utility.yul\":9285:9304   */\n  add\n    /* \"#utility.yul\":9279:9305   */\n  mload\n    /* \"#utility.yul\":9337:9385   */\n  tag_170\n    /* \"#utility.yul\":9379:9383   */\n  0x1f\n    /* \"#utility.yul\":9371:9377   */\n  dup10\n    /* \"#utility.yul\":9367:9384   */\n  and\n    /* \"#utility.yul\":9356:9365   */\n  dup3\n    /* \"#utility.yul\":9337:9385   */\n  tag_51\n  jump\t// in\ntag_170:\n    /* \"#utility.yul\":9329:9335   */\n  dup4\n    /* \"#utility.yul\":9322:9386   */\n  sstore\n    /* \"#utility.yul\":9244:9400   */\n  pop\n    /* \"#utility.yul\":9221:9400   */\ntag_169:\n    /* \"#utility.yul\":9446:9447   */\n  0x01\n    /* \"#utility.yul\":9442:9443   */\n  0x02\n    /* \"#utility.yul\":9434:9440   */\n  dup9\n    /* \"#utility.yul\":9430:9444   */\n  mul\n    /* \"#utility.yul\":9426:9448   */\n  add\n    /* \"#utility.yul\":9420:9424   */\n  dup9\n    /* \"#utility.yul\":9413:9449   */\n  sstore\n    /* \"#utility.yul\":8848:9459   */\n  pop\n  pop\n  pop\n    /* \"#utility.yul\":8811:9698   */\ntag_161:\n  pop\n    /* \"#utility.yul\":8401:9704   */\n  pop\n  pop\n  pop\n    /* \"#utility.yul\":8309:9704   */\n  pop\n  pop\n  jump\t// out\n    /* \"#utility.yul\":9710:9890   */\ntag_53:\n    /* \"#utility.yul\":9758:9835   */\n  0x4e487b7100000000000000000000000000000000000000000000000000000000\n    /* \"#utility.yul\":9755:9756   */\n  0x00\n    /* \"#utility.yul\":9748:9836   */\n  mstore\n    /* \"#utility.yul\":9855:9859   */\n  0x11\n    /* \"#utility.yul\":9852:9853   */\n  0x04\n    /* \"#utility.yul\":9845:9860   */\n  mstore\n    /* \"#utility.yul\":9879:9883   */\n  0x24\n    /* \"#utility.yul\":9876:9877   */\n  0x00\n    /* \"#utility.yul\":9869:9884   */\n  revert\n    /* \"#utility.yul\":9896:10244   */\ntag_9:\n    /* \"#utility.yul\":9936:9943   */\n  0x00\n    /* \"#utility.yul\":9959:9979   */\n  tag_173\n    /* \"#utility.yul\":9977:9978   */\n  dup3\n    /* \"#utility.yul\":9959:9979   */\n  tag_18\n  jump\t// in\ntag_173:\n    /* \"#utility.yul\":9954:9979   */\n  swap2\n  pop\n    /* \"#utility.yul\":9993:10013   */\n  tag_174\n    /* \"#utility.yul\":10011:10012   */\n  dup4\n    /* \"#utility.yul\":9993:10013   */\n  tag_18\n  jump\t// in\ntag_174:\n    /* \"#utility.yul\":9988:10013   */\n  swap3\n  pop\n    /* \"#utility.yul\":10181:10182   */\n  dup2\n    /* \"#utility.yul\":10113:10179   */\n  0xffffffffffffffffffffffffffffffffffffffffffffffffffffffffffffffff\n    /* \"#utility.yul\":10109:10183   */\n  div\n    /* \"#utility.yul\":10106:10107   */\n  dup4\n    /* \"#utility.yul\":10103:10184   */\n  gt\n    /* \"#utility.yul\":10098:10099   */\n  dup3\n    /* \"#utility.yul\":10091:10100   */\n  iszero\n    /* \"#utility.yul\":10084:10101   */\n  iszero\n    /* \"#utility.yul\":10080:10185   */\n  and\n    /* \"#utility.yul\":10077:10208   */\n  iszero\n  tag_175\n  jumpi\n    /* \"#utility.yul\":10188:10206   */\n  tag_176\n  tag_53\n  jump\t// in\ntag_176:\n    /* \"#utility.yul\":10077:10208   */\ntag_175:\n    /* \"#utility.yul\":10236:10237   */\n  dup3\n    /* \"#utility.yul\":10233:10234   */\n  dup3\n    /* \"#utility.yul\":10229:10238   */\n  mul\n    /* \"#utility.yul\":10218:10238   */\n  swap1\n  pop\n    /* \"#utility.yul\":9896:10244   */\n  swap3\n  swap2\n  pop\n  pop\n  jump\t// out\n    /* \"#utility.yul\":10250:10555   */\ntag_11:\n    /* \"#utility.yul\":10290:10293   */\n  0x00\n    /* \"#utility.yul\":10309:10329   */\n  tag_178\n    /* \"#utility.yul\":10327:10328   */\n  dup3\n    /* \"#utility.yul\":10309:10329   */\n  tag_18\n  jump\t// in\ntag_178:\n    /* \"#utility.yul\":10304:10329   */\n  swap2\n  pop\n    /* \"#utility.yul\":10343:10363   */\n  tag_179\n    /* \"#utility.yul\":10361:10362   */\n  dup4\n    /* \"#utility.yul\":10343:10363   */\n  tag_18\n  jump\t// in\ntag_179:\n    /* \"#utility.yul\":10338:10363   */\n  swap3\n  pop\n    /* \"#utility.yul\":10497:10498   */\n  dup3\n    /* \"#utility.yul\":10429:10495   */\n  0xffffffffffffffffffffffffffffffffffffffffffffffffffffffffffffffff\n    /* \"#utility.yul\":10425:10499   */\n  sub\n    /* \"#utility.yul\":10422:10423   */\n  dup3\n    /* \"#utility.yul\":10419:10500   */\n  gt\n    /* \"#utility.yul\":10416:10523   */\n  iszero\n  tag_180\n  jumpi\n    /* \"#utility.yul\":10503:10521   */\n  tag_181\n  tag_53\n  jump\t// in\ntag_181:\n    /* \"#utility.yul\":10416:10523   */\ntag_180:\n    /* \"#utility.yul\":10547:10548   */\n  dup3\n    /* \"#utility.yul\":10544:10545   */\n  dup3\n    /* \"#utility.yul\":10540:10549   */\n  add\n    /* \"#utility.yul\":10533:10549   */\n  swap1\n  pop\n    /* \"#utility.yul\":10250:10555   */\n  swap3\n  swap2\n  pop\n  pop\n  jump\t// out\n    /* \"Inbox.sol\":65:9159  contract basic {... */\ntag_14:\n  dataSize(sub_0)\n  dup1\n  dataOffset(sub_0)\n  0x00\n  codecopy\n  0x00\n  return\nstop\n\nsub_0: assembly {\n        /* \"Inbox.sol\":65:9159  contract basic {... */\n      mstore(0x40, 0x80)\n      jumpi(tag_1, lt(calldatasize, 0x04))\n      shr(0xe0, calldataload(0x00))\n      dup1\n      0x8975aa08\n      gt\n      tag_34\n      jumpi\n      dup1\n      0xd7898240\n      gt\n      tag_35\n      jumpi\n      dup1\n      0xf63f9655\n      gt\n      tag_36\n      jumpi\n      dup1\n      0xf63f9655\n      eq\n      tag_30\n      jumpi\n      dup1\n      0xfbae5e7d\n      eq\n      tag_31\n      jumpi\n      dup1\n      0xfd74d294\n      eq\n      tag_32\n      jumpi\n      dup1\n      0xfda263e8\n      eq\n      tag_33\n      jumpi\n      jump(tag_1)\n    tag_36:\n      dup1\n      0xd7898240\n      eq\n      tag_26\n      jumpi\n      dup1\n      0xd7d1bbdb\n      eq\n      tag_27\n      jumpi\n      dup1\n      0xe028a693\n      eq\n      tag_28\n      jumpi\n      dup1\n      0xe0d370ac\n      eq\n      tag_29\n      jumpi\n      jump(tag_1)\n    tag_35:\n      dup1\n      0xa4758c9a\n      gt\n      tag_37\n      jumpi\n      dup1\n      0xa4758c9a\n      eq\n      tag_22\n      jumpi\n      dup1\n      0xacdb8341\n      eq\n      tag_23\n      jumpi\n      dup1\n      0xb2f8be5c\n      eq\n      tag_24\n      jumpi\n      dup1\n      0xb688a363\n      eq\n      tag_25\n      jumpi\n      jump(tag_1)\n    tag_37:\n      dup1\n      0x8975aa08\n      eq\n      tag_18\n      jumpi\n      dup1\n      0x937e09b1\n      eq\n      tag_19\n      jumpi\n      dup1\n      0x98e1b410\n      eq\n      tag_20\n      jumpi\n      dup1\n      0x999cc5ca\n      eq\n      tag_21\n      jumpi\n      jump(tag_1)\n    tag_34:\n      dup1\n      0x32b7acec\n      gt\n      tag_38\n      jumpi\n      dup1\n      0x481c6a75\n      gt\n      tag_39\n      jumpi\n      dup1\n      0x481c6a75\n      eq\n      tag_14\n      jumpi\n      dup1\n      0x5fb02f4d\n      eq\n      tag_15\n      jumpi\n      dup1\n      0x789b2e6c\n      eq\n      tag_16\n      jumpi\n      dup1\n      0x864a53dc\n      eq\n      tag_17\n      jumpi\n      jump(tag_1)\n    tag_39:\n      dup1\n      0x32b7acec\n      eq\n      tag_10\n      jumpi\n      dup1\n      0x364548cd\n      eq\n      tag_11\n      jumpi\n      dup1\n      0x3ba20f2a\n      eq\n      tag_12\n      jumpi\n      dup1\n      0x3d22aea8\n      eq\n      tag_13\n      jumpi\n      jump(tag_1)\n    tag_38:\n      dup1\n      0x2b84b316\n      gt\n      tag_40\n      jumpi\n      dup1\n      0x2b84b316\n      eq\n      tag_6\n      jumpi\n      dup1\n      0x2ef3fa27\n      eq\n      tag_7\n      jumpi\n      dup1\n      0x2f5274e3\n      eq\n      tag_8\n      jumpi\n      dup1\n      0x31d0e40f\n      eq\n      tag_9\n      jumpi\n      jump(tag_1)\n    tag_40:\n      dup1\n      0x60929a\n      eq\n      tag_2\n      jumpi\n      dup1\n      0x01999870\n      eq\n      tag_3\n      jumpi\n      dup1\n      0x06fdde03\n      eq\n      tag_4\n      jumpi\n      dup1\n      0x1e28528e\n      eq\n      tag_5\n      jumpi\n    tag_1:\n      0x00\n      dup1\n      revert\n        /* \"Inbox.sol\":5579:5789  function isStakeholdersApprove(uint reqId, address user)... */\n    tag_2:\n      callvalue\n      dup1\n      iszero\n      tag_41\n      jumpi\n      0x00\n      dup1\n      revert\n    tag_41:\n      pop\n      tag_42\n      0x04\n      dup1\n      calldatasize\n      sub\n      dup2\n      add\n      swap1\n      tag_43\n      swap2\n      swap1\n      tag_44\n      jump\t// in\n    tag_43:\n      tag_45\n      jump\t// in\n    tag_42:\n      mload(0x40)\n      tag_46\n      swap2\n      swap1\n      tag_47\n      jump\t// in\n    tag_46:\n      mload(0x40)\n      dup1\n      swap2\n      sub\n      swap1\n      return\n        /* \"Inbox.sol\":1520:1548  uint public numOfInvestors=0 */\n    tag_3:\n      callvalue\n      dup1\n      iszero\n      tag_48\n      jumpi\n      0x00\n      dup1\n      revert\n    tag_48:\n      pop\n      tag_49\n      tag_50\n      jump\t// in\n    tag_49:\n      mload(0x40)\n      tag_51\n      swap2\n      swap1\n      tag_52\n      jump\t// in\n    tag_51:\n      mload(0x40)\n      dup1\n      swap2\n      sub\n      swap1\n      return\n        /* \"Inbox.sol\":1249:1268  string  public name */\n    tag_4:\n      callvalue\n      dup1\n      iszero\n      tag_53\n      jumpi\n      0x00\n      dup1\n      revert\n    tag_53:\n      pop\n      tag_54\n      tag_55\n      jump\t// in\n    tag_54:\n      mload(0x40)\n      tag_56\n      swap2\n      swap1\n      tag_57\n      jump\t// in\n    tag_56:\n      mload(0x40)\n      dup1\n      swap2\n      sub\n      swap1\n      return\n        /* \"Inbox.sol\":1330:1374  mapping(address => bool) public Stakeholders */\n    tag_5:\n      callvalue\n      dup1\n      iszero\n      tag_58\n      jumpi\n      0x00\n      dup1\n      revert\n    tag_58:\n      pop\n      tag_59\n      0x04\n      dup1\n      calldatasize\n      sub\n      dup2\n      add\n      swap1\n      tag_60\n      swap2\n      swap1\n      tag_61\n      jump\t// in\n    tag_60:\n      tag_62\n      jump\t// in\n    tag_59:\n      mload(0x40)\n      tag_63\n      swap2\n      swap1\n      tag_47\n      jump\t// in\n    tag_63:\n      mload(0x40)\n      dup1\n      swap2\n      sub\n      swap1\n      return\n        /* \"Inbox.sol\":5797:6096  function makeNewRequset(... */\n    tag_6:\n      callvalue\n      dup1\n      iszero\n      tag_64\n      jumpi\n      0x00\n      dup1\n      revert\n    tag_64:\n      pop\n      tag_65\n      0x04\n      dup1\n      calldatasize\n      sub\n      dup2\n      add\n      swap1\n      tag_66\n      swap2\n      swap1\n      tag_67\n      jump\t// in\n    tag_66:\n      tag_68\n      jump\t// in\n    tag_65:\n      stop\n        /* \"Inbox.sol\":2987:3115  function investorBalanc() public view returns (uint) {... */\n    tag_7:\n      callvalue\n      dup1\n      iszero\n      tag_69\n      jumpi\n      0x00\n      dup1\n      revert\n    tag_69:\n      pop\n      tag_70\n      tag_71\n      jump\t// in\n    tag_70:\n      mload(0x40)\n      tag_72\n      swap2\n      swap1\n      tag_52\n      jump\t// in\n    tag_72:\n      mload(0x40)\n      dup1\n      swap2\n      sub\n      swap1\n      return\n        /* \"Inbox.sol\":2126:2150  uint public lastLeaveVal */\n    tag_8:\n      callvalue\n      dup1\n      iszero\n      tag_73\n      jumpi\n      0x00\n      dup1\n      revert\n    tag_73:\n      pop\n      tag_74\n      tag_75\n      jump\t// in\n    tag_74:\n      mload(0x40)\n      tag_76\n      swap2\n      swap1\n      tag_52\n      jump\t// in\n    tag_76:\n      mload(0x40)\n      dup1\n      swap2\n      sub\n      swap1\n      return\n        /* \"Inbox.sol\":2063:2089  uint public managerFineFee */\n    tag_9:\n      callvalue\n      dup1\n      iszero\n      tag_77\n      jumpi\n      0x00\n      dup1\n      revert\n    tag_77:\n      pop\n      tag_78\n      tag_79\n      jump\t// in\n    tag_78:\n      mload(0x40)\n      tag_80\n      swap2\n      swap1\n      tag_52\n      jump\t// in\n    tag_80:\n      mload(0x40)\n      dup1\n      swap2\n      sub\n      swap1\n      return\n        /* \"Inbox.sol\":1604:1646  mapping(address => uint) public ownPercent */\n    tag_10:\n      callvalue\n      dup1\n      iszero\n      tag_81\n      jumpi\n      0x00\n      dup1\n      revert\n    tag_81:\n      pop\n      tag_82\n      0x04\n      dup1\n      calldatasize\n      sub\n      dup2\n      add\n      swap1\n      tag_83\n      swap2\n      swap1\n      tag_61\n      jump\t// in\n    tag_83:\n      tag_84\n      jump\t// in\n    tag_82:\n      mload(0x40)\n      tag_85\n      swap2\n      swap1\n      tag_52\n      jump\t// in\n    tag_85:\n      mload(0x40)\n      dup1\n      swap2\n      sub\n      swap1\n      return\n        /* \"Inbox.sol\":1381:1440  mapping(address => bool) public Stakeholders_endTheContract */\n    tag_11:\n      callvalue\n      dup1\n      iszero\n      tag_86\n      jumpi\n      0x00\n      dup1\n      revert\n    tag_86:\n      pop\n      tag_87\n      0x04\n      dup1\n      calldatasize\n      sub\n      dup2\n      add\n      swap1\n      tag_88\n      swap2\n      swap1\n      tag_61\n      jump\t// in\n    tag_88:\n      tag_89\n      jump\t// in\n    tag_87:\n      mload(0x40)\n      tag_90\n      swap2\n      swap1\n      tag_47\n      jump\t// in\n    tag_90:\n      mload(0x40)\n      dup1\n      swap2\n      sub\n      swap1\n      return\n        /* \"Inbox.sol\":1835:1860  uint256 public timeToJoin */\n    tag_12:\n      callvalue\n      dup1\n      iszero\n      tag_91\n      jumpi\n      0x00\n      dup1\n      revert\n    tag_91:\n      pop\n      tag_92\n      tag_93\n      jump\t// in\n    tag_92:\n      mload(0x40)\n      tag_94\n      swap2\n      swap1\n      tag_52\n      jump\t// in\n    tag_94:\n      mload(0x40)\n      dup1\n      swap2\n      sub\n      swap1\n      return\n        /* \"Inbox.sol\":6404:6767  function executed_order_66(uint index)... */\n    tag_13:\n      callvalue\n      dup1\n      iszero\n      tag_95\n      jumpi\n      0x00\n      dup1\n      revert\n    tag_95:\n      pop\n      tag_96\n      0x04\n      dup1\n      calldatasize\n      sub\n      dup2\n      add\n      swap1\n      tag_97\n      swap2\n      swap1\n      tag_98\n      jump\t// in\n    tag_97:\n      tag_99\n      jump\t// in\n    tag_96:\n      mload(0x40)\n      tag_100\n      swap2\n      swap1\n      tag_47\n      jump\t// in\n    tag_100:\n      mload(0x40)\n      dup1\n      swap2\n      sub\n      swap1\n      return\n        /* \"Inbox.sol\":1275:1297  address public manager */\n    tag_14:\n      callvalue\n      dup1\n      iszero\n      tag_101\n      jumpi\n      0x00\n      dup1\n      revert\n    tag_101:\n      pop\n      tag_102\n      tag_103\n      jump\t// in\n    tag_102:\n      mload(0x40)\n      tag_104\n      swap2\n      swap1\n      tag_105\n      jump\t// in\n    tag_104:\n      mload(0x40)\n      dup1\n      swap2\n      sub\n      swap1\n      return\n        /* \"Inbox.sol\":3543:4006  function startContract() public {... */\n    tag_15:\n      callvalue\n      dup1\n      iszero\n      tag_106\n      jumpi\n      0x00\n      dup1\n      revert\n    tag_106:\n      pop\n      tag_107\n      tag_108\n      jump\t// in\n    tag_107:\n      stop\n        /* \"Inbox.sol\":8514:9156  function payDay() public EndPeriod onlySite {... */\n    tag_16:\n      callvalue\n      dup1\n      iszero\n      tag_109\n      jumpi\n      0x00\n      dup1\n      revert\n    tag_109:\n      pop\n      tag_110\n      tag_111\n      jump\t// in\n    tag_110:\n      stop\n        /* \"Inbox.sol\":8158:8506  function PayDayVoted() public workPeriod onlyStakeholders {... */\n    tag_17:\n      callvalue\n      dup1\n      iszero\n      tag_112\n      jumpi\n      0x00\n      dup1\n      revert\n    tag_112:\n      pop\n      tag_113\n      tag_114\n      jump\t// in\n    tag_113:\n      stop\n        /* \"Inbox.sol\":2032:2056  uint public lastTotalVal */\n    tag_18:\n      callvalue\n      dup1\n      iszero\n      tag_115\n      jumpi\n      0x00\n      dup1\n      revert\n    tag_115:\n      pop\n      tag_116\n      tag_117\n      jump\t// in\n    tag_116:\n      mload(0x40)\n      tag_118\n      swap2\n      swap1\n      tag_52\n      jump\t// in\n    tag_118:\n      mload(0x40)\n      dup1\n      swap2\n      sub\n      swap1\n      return\n        /* \"Inbox.sol\":1727:1758  uint public minimumContribution */\n    tag_19:\n      callvalue\n      dup1\n      iszero\n      tag_119\n      jumpi\n      0x00\n      dup1\n      revert\n    tag_119:\n      pop\n      tag_120\n      tag_121\n      jump\t// in\n    tag_120:\n      mload(0x40)\n      tag_122\n      swap2\n      swap1\n      tag_52\n      jump\t// in\n    tag_122:\n      mload(0x40)\n      dup1\n      swap2\n      sub\n      swap1\n      return\n        /* \"Inbox.sol\":3455:3535  function getMoney() public payable returns (bool) {... */\n    tag_20:\n      tag_123\n      tag_124\n      jump\t// in\n    tag_123:\n      mload(0x40)\n      tag_125\n      swap2\n      swap1\n      tag_47\n      jump\t// in\n    tag_125:\n      mload(0x40)\n      dup1\n      swap2\n      sub\n      swap1\n      return\n        /* \"Inbox.sol\":1682:1720  mapping(address => bool) public lefted */\n    tag_21:\n      callvalue\n      dup1\n      iszero\n      tag_126\n      jumpi\n      0x00\n      dup1\n      revert\n    tag_126:\n      pop\n      tag_127\n      0x04\n      dup1\n      calldatasize\n      sub\n      dup2\n      add\n      swap1\n      tag_128\n      swap2\n      swap1\n      tag_61\n      jump\t// in\n    tag_128:\n      tag_129\n      jump\t// in\n    tag_127:\n      mload(0x40)\n      tag_130\n      swap2\n      swap1\n      tag_47\n      jump\t// in\n    tag_130:\n      mload(0x40)\n      dup1\n      swap2\n      sub\n      swap1\n      return\n        /* \"Inbox.sol\":2096:2119  uint public the_balance */\n    tag_22:\n      callvalue\n      dup1\n      iszero\n      tag_131\n      jumpi\n      0x00\n      dup1\n      revert\n    tag_131:\n      pop\n      tag_132\n      tag_133\n      jump\t// in\n    tag_132:\n      mload(0x40)\n      tag_134\n      swap2\n      swap1\n      tag_52\n      jump\t// in\n    tag_134:\n      mload(0x40)\n      dup1\n      swap2\n      sub\n      swap1\n      return\n        /* \"Inbox.sol\":2159:2476  function allInvestorPercent() public view returns (uint) {... */\n    tag_23:\n      callvalue\n      dup1\n      iszero\n      tag_135\n      jumpi\n      0x00\n      dup1\n      revert\n    tag_135:\n      pop\n      tag_136\n      tag_137\n      jump\t// in\n    tag_136:\n      mload(0x40)\n      tag_138\n      swap2\n      swap1\n      tag_52\n      jump\t// in\n    tag_138:\n      mload(0x40)\n      dup1\n      swap2\n      sub\n      swap1\n      return\n        /* \"Inbox.sol\":6775:7751  function leave_contract(... */\n    tag_24:\n      callvalue\n      dup1\n      iszero\n      tag_139\n      jumpi\n      0x00\n      dup1\n      revert\n    tag_139:\n      pop\n      tag_140\n      0x04\n      dup1\n      calldatasize\n      sub\n      dup2\n      add\n      swap1\n      tag_141\n      swap2\n      swap1\n      tag_142\n      jump\t// in\n    tag_141:\n      tag_143\n      jump\t// in\n    tag_140:\n      mload(0x40)\n      tag_144\n      swap2\n      swap1\n      tag_47\n      jump\t// in\n    tag_144:\n      mload(0x40)\n      dup1\n      swap2\n      sub\n      swap1\n      return\n        /* \"Inbox.sol\":3123:3447  function join() public payable JoinPeriod {... */\n    tag_25:\n      tag_145\n      tag_146\n      jump\t// in\n    tag_145:\n      stop\n        /* \"Inbox.sol\":1555:1597  mapping(address => uint) public Investment */\n    tag_26:\n      callvalue\n      dup1\n      iszero\n      tag_147\n      jumpi\n      0x00\n      dup1\n      revert\n    tag_147:\n      pop\n      tag_148\n      0x04\n      dup1\n      calldatasize\n      sub\n      dup2\n      add\n      swap1\n      tag_149\n      swap2\n      swap1\n      tag_61\n      jump\t// in\n    tag_149:\n      tag_150\n      jump\t// in\n    tag_148:\n      mload(0x40)\n      tag_151\n      swap2\n      swap1\n      tag_52\n      jump\t// in\n    tag_151:\n      mload(0x40)\n      dup1\n      swap2\n      sub\n      swap1\n      return\n        /* \"Inbox.sol\":6104:6396  function approveRequest(uint index) public onlyStakeholders {... */\n    tag_27:\n      callvalue\n      dup1\n      iszero\n      tag_152\n      jumpi\n      0x00\n      dup1\n      revert\n    tag_152:\n      pop\n      tag_153\n      0x04\n      dup1\n      calldatasize\n      sub\n      dup2\n      add\n      swap1\n      tag_154\n      swap2\n      swap1\n      tag_98\n      jump\t// in\n    tag_154:\n      tag_155\n      jump\t// in\n    tag_153:\n      stop\n        /* \"Inbox.sol\":2004:2025  uint public lastRePay */\n    tag_28:\n      callvalue\n      dup1\n      iszero\n      tag_156\n      jumpi\n      0x00\n      dup1\n      revert\n    tag_156:\n      pop\n      tag_157\n      tag_158\n      jump\t// in\n    tag_157:\n      mload(0x40)\n      tag_159\n      swap2\n      swap1\n      tag_52\n      jump\t// in\n    tag_159:\n      mload(0x40)\n      dup1\n      swap2\n      sub\n      swap1\n      return\n        /* \"Inbox.sol\":1304:1323  address public site */\n    tag_29:\n      callvalue\n      dup1\n      iszero\n      tag_160\n      jumpi\n      0x00\n      dup1\n      revert\n    tag_160:\n      pop\n      tag_161\n      tag_162\n      jump\t// in\n    tag_161:\n      mload(0x40)\n      tag_163\n      swap2\n      swap1\n      tag_105\n      jump\t// in\n    tag_163:\n      mload(0x40)\n      dup1\n      swap2\n      sub\n      swap1\n      return\n        /* \"Inbox.sol\":1952:1978  Request[] public myRequsts */\n    tag_30:\n      callvalue\n      dup1\n      iszero\n      tag_164\n      jumpi\n      0x00\n      dup1\n      revert\n    tag_164:\n      pop\n      tag_165\n      0x04\n      dup1\n      calldatasize\n      sub\n      dup2\n      add\n      swap1\n      tag_166\n      swap2\n      swap1\n      tag_98\n      jump\t// in\n    tag_166:\n      tag_167\n      jump\t// in\n    tag_165:\n      mload(0x40)\n      tag_168\n      swap6\n      swap5\n      swap4\n      swap3\n      swap2\n      swap1\n      tag_169\n      jump\t// in\n    tag_168:\n      mload(0x40)\n      dup1\n      swap2\n      sub\n      swap1\n      return\n        /* \"Inbox.sol\":1487:1513  address[] public Investors */\n    tag_31:\n      callvalue\n      dup1\n      iszero\n      tag_170\n      jumpi\n      0x00\n      dup1\n      revert\n    tag_170:\n      pop\n      tag_171\n      0x04\n      dup1\n      calldatasize\n      sub\n      dup2\n      add\n      swap1\n      tag_172\n      swap2\n      swap1\n      tag_98\n      jump\t// in\n    tag_172:\n      tag_173\n      jump\t// in\n    tag_171:\n      mload(0x40)\n      tag_174\n      swap2\n      swap1\n      tag_105\n      jump\t// in\n    tag_174:\n      mload(0x40)\n      dup1\n      swap2\n      sub\n      swap1\n      return\n        /* \"Inbox.sol\":1804:1828  uint256 public timeStart */\n    tag_32:\n      callvalue\n      dup1\n      iszero\n      tag_175\n      jumpi\n      0x00\n      dup1\n      revert\n    tag_175:\n      pop\n      tag_176\n      tag_177\n      jump\t// in\n    tag_176:\n      mload(0x40)\n      tag_178\n      swap2\n      swap1\n      tag_52\n      jump\t// in\n    tag_178:\n      mload(0x40)\n      dup1\n      swap2\n      sub\n      swap1\n      return\n        /* \"Inbox.sol\":1867:1889  uint256 public timeEnd */\n    tag_33:\n      callvalue\n      dup1\n      iszero\n      tag_179\n      jumpi\n      0x00\n      dup1\n      revert\n    tag_179:\n      pop\n      tag_180\n      tag_181\n      jump\t// in\n    tag_180:\n      mload(0x40)\n      tag_182\n      swap2\n      swap1\n      tag_52\n      jump\t// in\n    tag_182:\n      mload(0x40)\n      dup1\n      swap2\n      sub\n      swap1\n      return\n        /* \"Inbox.sol\":5579:5789  function isStakeholdersApprove(uint reqId, address user)... */\n    tag_45:\n        /* \"Inbox.sol\":5684:5688  bool */\n      0x00\n        /* \"Inbox.sol\":5706:5725  Request storage req */\n      dup1\n        /* \"Inbox.sol\":5728:5737  myRequsts */\n      0x14\n        /* \"Inbox.sol\":5738:5743  reqId */\n      dup5\n        /* \"Inbox.sol\":5728:5744  myRequsts[reqId] */\n      dup2\n      sload\n      dup2\n      lt\n      tag_184\n      jumpi\n      tag_185\n      tag_186\n      jump\t// in\n    tag_185:\n    tag_184:\n      swap1\n      0x00\n      mstore\n      keccak256(0x00, 0x20)\n      swap1\n      0x06\n      mul\n      add\n        /* \"Inbox.sol\":5706:5744  Request storage req = myRequsts[reqId] */\n      swap1\n      pop\n        /* \"Inbox.sol\":5762:5765  req */\n      dup1\n        /* \"Inbox.sol\":5762:5775  req.approvals */\n      0x05\n      add\n        /* \"Inbox.sol\":5762:5781  req.approvals[user] */\n      0x00\n        /* \"Inbox.sol\":5776:5780  user */\n      dup5\n        /* \"Inbox.sol\":5762:5781  req.approvals[user] */\n      0xffffffffffffffffffffffffffffffffffffffff\n      and\n      0xffffffffffffffffffffffffffffffffffffffff\n      and\n      dup2\n      mstore\n      0x20\n      add\n      swap1\n      dup2\n      mstore\n      0x20\n      add\n      0x00\n      keccak256\n      0x00\n      swap1\n      sload\n      swap1\n      0x0100\n      exp\n      swap1\n      div\n      0xff\n      and\n        /* \"Inbox.sol\":5755:5781  return req.approvals[user] */\n      swap2\n      pop\n      pop\n        /* \"Inbox.sol\":5579:5789  function isStakeholdersApprove(uint reqId, address user)... */\n      swap3\n      swap2\n      pop\n      pop\n      jump\t// out\n        /* \"Inbox.sol\":1520:1548  uint public numOfInvestors=0 */\n    tag_50:\n      sload(0x0b)\n      dup2\n      jump\t// out\n        /* \"Inbox.sol\":1249:1268  string  public name */\n    tag_55:\n      0x04\n      dup1\n      sload\n      tag_188\n      swap1\n      tag_189\n      jump\t// in\n    tag_188:\n      dup1\n      0x1f\n      add\n      0x20\n      dup1\n      swap2\n      div\n      mul\n      0x20\n      add\n      mload(0x40)\n      swap1\n      dup2\n      add\n      0x40\n      mstore\n      dup1\n      swap3\n      swap2\n      swap1\n      dup2\n      dup2\n      mstore\n      0x20\n      add\n      dup3\n      dup1\n      sload\n      tag_190\n      swap1\n      tag_189\n      jump\t// in\n    tag_190:\n      dup1\n      iszero\n      tag_191\n      jumpi\n      dup1\n      0x1f\n      lt\n      tag_192\n      jumpi\n      0x0100\n      dup1\n      dup4\n      sload\n      div\n      mul\n      dup4\n      mstore\n      swap2\n      0x20\n      add\n      swap2\n      jump(tag_191)\n    tag_192:\n      dup3\n      add\n      swap2\n      swap1\n      0x00\n      mstore\n      keccak256(0x00, 0x20)\n      swap1\n    tag_193:\n      dup2\n      sload\n      dup2\n      mstore\n      swap1\n      0x01\n      add\n      swap1\n      0x20\n      add\n      dup1\n      dup4\n      gt\n      tag_193\n      jumpi\n      dup3\n      swap1\n      sub\n      0x1f\n      and\n      dup3\n      add\n      swap2\n    tag_191:\n      pop\n      pop\n      pop\n      pop\n      pop\n      dup2\n      jump\t// out\n        /* \"Inbox.sol\":1330:1374  mapping(address => bool) public Stakeholders */\n    tag_62:\n      mstore(0x20, 0x07)\n      dup1\n      0x00\n      mstore\n      keccak256(0x00, 0x40)\n      0x00\n      swap2\n      pop\n      sload\n      swap1\n      0x0100\n      exp\n      swap1\n      div\n      0xff\n      and\n      dup2\n      jump\t// out\n        /* \"Inbox.sol\":5797:6096  function makeNewRequset(... */\n    tag_68:\n        /* \"Inbox.sol\":143:150  manager */\n      0x05\n      0x00\n      swap1\n      sload\n      swap1\n      0x0100\n      exp\n      swap1\n      div\n      0xffffffffffffffffffffffffffffffffffffffff\n      and\n        /* \"Inbox.sol\":129:150  msg.sender == manager */\n      0xffffffffffffffffffffffffffffffffffffffff\n      and\n        /* \"Inbox.sol\":129:139  msg.sender */\n      caller\n        /* \"Inbox.sol\":129:150  msg.sender == manager */\n      0xffffffffffffffffffffffffffffffffffffffff\n      and\n      eq\n        /* \"Inbox.sol\":121:151  require(msg.sender == manager) */\n      tag_195\n      jumpi\n      0x00\n      dup1\n      revert\n    tag_195:\n        /* \"Inbox.sol\":5936:5962  Request storage newRequest */\n      0x00\n        /* \"Inbox.sol\":5965:5974  myRequsts */\n      0x14\n        /* \"Inbox.sol\":5965:5981  myRequsts.push() */\n      0x01\n      dup2\n      0x01\n      dup2\n      sload\n      add\n      dup1\n      dup3\n      sstore\n      dup1\n      swap2\n      pop\n      pop\n      sub\n      swap1\n      0x00\n      mstore\n      keccak256(0x00, 0x20)\n      swap1\n      0x06\n      mul\n      add\n        /* \"Inbox.sol\":5936:5981  Request storage newRequest = myRequsts.push() */\n      swap1\n      pop\n        /* \"Inbox.sol\":6017:6020  why */\n      dup3\n        /* \"Inbox.sol\":5992:6002  newRequest */\n      dup2\n        /* \"Inbox.sol\":5992:6014  newRequest.description */\n      0x00\n      add\n        /* \"Inbox.sol\":5992:6020  newRequest.description = why */\n      swap1\n      dup2\n      tag_198\n      swap2\n      swap1\n      tag_199\n      jump\t// in\n    tag_198:\n      pop\n        /* \"Inbox.sol\":6050:6055  value */\n      dup2\n        /* \"Inbox.sol\":6031:6041  newRequest */\n      dup2\n        /* \"Inbox.sol\":6031:6047  newRequest.value */\n      0x02\n      add\n        /* \"Inbox.sol\":6031:6055  newRequest.value = value */\n      dup2\n      swap1\n      sstore\n      pop\n        /* \"Inbox.sol\":6084:6088  what */\n      dup4\n        /* \"Inbox.sol\":6066:6076  newRequest */\n      dup2\n        /* \"Inbox.sol\":6066:6081  newRequest.what */\n      0x01\n      add\n        /* \"Inbox.sol\":6066:6088  newRequest.what = what */\n      swap1\n      dup2\n      tag_200\n      swap2\n      swap1\n      tag_199\n      jump\t// in\n    tag_200:\n      pop\n        /* \"Inbox.sol\":5925:6096  {... */\n      pop\n        /* \"Inbox.sol\":5797:6096  function makeNewRequset(... */\n      pop\n      pop\n      pop\n      jump\t// out\n        /* \"Inbox.sol\":2987:3115  function investorBalanc() public view returns (uint) {... */\n    tag_71:\n        /* \"Inbox.sol\":3034:3038  uint */\n      0x00\n        /* \"Inbox.sol\":3102:3106  1000 */\n      0x03e8\n        /* \"Inbox.sol\":3089:3100  manager_fee */\n      sload(0x01)\n        /* \"Inbox.sol\":3084:3088  1000 */\n      0x03e8\n        /* \"Inbox.sol\":3084:3100  1000-manager_fee */\n      tag_202\n      swap2\n      swap1\n      tag_203\n      jump\t// in\n    tag_202:\n        /* \"Inbox.sol\":3060:3081  address(this).balance */\n      selfbalance\n        /* \"Inbox.sol\":3059:3101  (address(this).balance)*(1000-manager_fee) */\n      tag_204\n      swap2\n      swap1\n      tag_205\n      jump\t// in\n    tag_204:\n        /* \"Inbox.sol\":3059:3106  (address(this).balance)*(1000-manager_fee)/1000 */\n      tag_206\n      swap2\n      swap1\n      tag_207\n      jump\t// in\n    tag_206:\n        /* \"Inbox.sol\":3051:3107  return ((address(this).balance)*(1000-manager_fee)/1000) */\n      swap1\n      pop\n        /* \"Inbox.sol\":2987:3115  function investorBalanc() public view returns (uint) {... */\n      swap1\n      jump\t// out\n        /* \"Inbox.sol\":2126:2150  uint public lastLeaveVal */\n    tag_75:\n      sload(0x19)\n      dup2\n      jump\t// out\n        /* \"Inbox.sol\":2063:2089  uint public managerFineFee */\n    tag_79:\n      sload(0x17)\n      dup2\n      jump\t// out\n        /* \"Inbox.sol\":1604:1646  mapping(address => uint) public ownPercent */\n    tag_84:\n      mstore(0x20, 0x0d)\n      dup1\n      0x00\n      mstore\n      keccak256(0x00, 0x40)\n      0x00\n      swap2\n      pop\n      swap1\n      pop\n      sload\n      dup2\n      jump\t// out\n        /* \"Inbox.sol\":1381:1440  mapping(address => bool) public Stakeholders_endTheContract */\n    tag_89:\n      mstore(0x20, 0x08)\n      dup1\n      0x00\n      mstore\n      keccak256(0x00, 0x40)\n      0x00\n      swap2\n      pop\n      sload\n      swap1\n      0x0100\n      exp\n      swap1\n      div\n      0xff\n      and\n      dup2\n      jump\t// out\n        /* \"Inbox.sol\":1835:1860  uint256 public timeToJoin */\n    tag_93:\n      sload(0x11)\n      dup2\n      jump\t// out\n        /* \"Inbox.sol\":6404:6767  function executed_order_66(uint index)... */\n    tag_99:\n        /* \"Inbox.sol\":6518:6522  bool */\n      0x00\n        /* \"Inbox.sol\":666:670  true */\n      0x01\n        /* \"Inbox.sol\":656:670  canBuy == true */\n      iszero\n      iszero\n        /* \"Inbox.sol\":656:662  canBuy */\n      0x13\n      0x00\n      swap1\n      sload\n      swap1\n      0x0100\n      exp\n      swap1\n      div\n      0xff\n      and\n        /* \"Inbox.sol\":656:670  canBuy == true */\n      iszero\n      iszero\n      eq\n        /* \"Inbox.sol\":647:672  require((canBuy == true)) */\n      tag_209\n      jumpi\n      0x00\n      dup1\n      revert\n    tag_209:\n        /* \"Inbox.sol\":143:150  manager */\n      0x05\n      0x00\n      swap1\n      sload\n      swap1\n      0x0100\n      exp\n      swap1\n      div\n      0xffffffffffffffffffffffffffffffffffffffff\n      and\n        /* \"Inbox.sol\":129:150  msg.sender == manager */\n      0xffffffffffffffffffffffffffffffffffffffff\n      and\n        /* \"Inbox.sol\":129:139  msg.sender */\n      caller\n        /* \"Inbox.sol\":129:150  msg.sender == manager */\n      0xffffffffffffffffffffffffffffffffffffffff\n      and\n      eq\n        /* \"Inbox.sol\":121:151  require(msg.sender == manager) */\n      tag_211\n      jumpi\n      0x00\n      dup1\n      revert\n    tag_211:\n        /* \"Inbox.sol\":6540:6563  Request storage request */\n      0x00\n        /* \"Inbox.sol\":6566:6575  myRequsts */\n      0x14\n        /* \"Inbox.sol\":6576:6581  index */\n      dup4\n        /* \"Inbox.sol\":6566:6582  myRequsts[index] */\n      dup2\n      sload\n      dup2\n      lt\n      tag_213\n      jumpi\n      tag_214\n      tag_186\n      jump\t// in\n    tag_214:\n    tag_213:\n      swap1\n      0x00\n      mstore\n      keccak256(0x00, 0x20)\n      swap1\n      0x06\n      mul\n      add\n        /* \"Inbox.sol\":6540:6582  Request storage request = myRequsts[index] */\n      swap1\n      pop\n        /* \"Inbox.sol\":6652:6653  2 */\n      0x02\n        /* \"Inbox.sol\":6634:6649  numStakeholders */\n      sload(0x03)\n        /* \"Inbox.sol\":6634:6653  numStakeholders / 2 */\n      tag_216\n      swap2\n      swap1\n      tag_207\n      jump\t// in\n    tag_216:\n        /* \"Inbox.sol\":6601:6608  request */\n      dup2\n        /* \"Inbox.sol\":6601:6622  request.approvalCount */\n      0x04\n      add\n      sload\n        /* \"Inbox.sol\":6601:6654  request.approvalCount >= uint256(numStakeholders / 2) */\n      lt\n      iszero\n        /* \"Inbox.sol\":6593:6655  require(request.approvalCount >= uint256(numStakeholders / 2)) */\n      tag_217\n      jumpi\n      0x00\n      dup1\n      revert\n    tag_217:\n        /* \"Inbox.sol\":6674:6678  site */\n      0x06\n      0x00\n      swap1\n      sload\n      swap1\n      0x0100\n      exp\n      swap1\n      div\n      0xffffffffffffffffffffffffffffffffffffffff\n      and\n        /* \"Inbox.sol\":6666:6688  payable(site).transfer */\n      0xffffffffffffffffffffffffffffffffffffffff\n      and\n        /* \"Inbox.sol\":6666:6703  payable(site).transfer(request.value) */\n      0x08fc\n        /* \"Inbox.sol\":6689:6696  request */\n      dup3\n        /* \"Inbox.sol\":6689:6702  request.value */\n      0x02\n      add\n      sload\n        /* \"Inbox.sol\":6666:6703  payable(site).transfer(request.value) */\n      swap1\n      dup2\n      iszero\n      mul\n      swap1\n      mload(0x40)\n      0x00\n      mload(0x40)\n      dup1\n      dup4\n      sub\n      dup2\n      dup6\n      dup9\n      dup9\n      call\n      swap4\n      pop\n      pop\n      pop\n      pop\n      iszero\n      dup1\n      iszero\n      tag_219\n      jumpi\n      returndatasize\n      0x00\n      dup1\n      returndatacopy\n      revert(0x00, returndatasize)\n    tag_219:\n      pop\n        /* \"Inbox.sol\":6733:6737  true */\n      0x01\n        /* \"Inbox.sol\":6714:6721  request */\n      dup2\n        /* \"Inbox.sol\":6714:6730  request.complete */\n      0x03\n      add\n      0x00\n        /* \"Inbox.sol\":6714:6737  request.complete = true */\n      0x0100\n      exp\n      dup2\n      sload\n      dup2\n      0xff\n      mul\n      not\n      and\n      swap1\n      dup4\n      iszero\n      iszero\n      mul\n      or\n      swap1\n      sstore\n      pop\n        /* \"Inbox.sol\":6755:6759  true */\n      0x01\n        /* \"Inbox.sol\":6748:6759  return true */\n      swap2\n      pop\n      pop\n        /* \"Inbox.sol\":6404:6767  function executed_order_66(uint index)... */\n      swap2\n      swap1\n      pop\n      jump\t// out\n        /* \"Inbox.sol\":1275:1297  address public manager */\n    tag_103:\n      0x05\n      0x00\n      swap1\n      sload\n      swap1\n      0x0100\n      exp\n      swap1\n      div\n      0xffffffffffffffffffffffffffffffffffffffff\n      and\n      dup2\n      jump\t// out\n        /* \"Inbox.sol\":3543:4006  function startContract() public {... */\n    tag_108:\n        /* \"Inbox.sol\":3595:3599  true */\n      0x01\n        /* \"Inbox.sol\":3586:3592  canBuy */\n      0x13\n      0x00\n        /* \"Inbox.sol\":3586:3599  canBuy = true */\n      0x0100\n      exp\n      dup2\n      sload\n      dup2\n      0xff\n      mul\n      not\n      and\n      swap1\n      dup4\n      iszero\n      iszero\n      mul\n      or\n      swap1\n      sstore\n      pop\n        /* \"Inbox.sol\":3610:3623  uint totalVal */\n      0x00\n        /* \"Inbox.sol\":3626:3647  address(this).balance */\n      selfbalance\n        /* \"Inbox.sol\":3610:3647  uint totalVal = address(this).balance */\n      swap1\n      pop\n        /* \"Inbox.sol\":3702:3713  uint ammunt */\n      0x00\n        /* \"Inbox.sol\":3729:3735  uint i */\n      dup1\n        /* \"Inbox.sol\":3738:3739  0 */\n      0x00\n        /* \"Inbox.sol\":3729:3739  uint i = 0 */\n      swap1\n      pop\n        /* \"Inbox.sol\":3724:3971  for (uint i = 0; i < Investors.length; i++) {... */\n    tag_221:\n        /* \"Inbox.sol\":3745:3754  Investors */\n      0x0a\n        /* \"Inbox.sol\":3745:3761  Investors.length */\n      dup1\n      sload\n      swap1\n      pop\n        /* \"Inbox.sol\":3741:3742  i */\n      dup2\n        /* \"Inbox.sol\":3741:3761  i < Investors.length */\n      lt\n        /* \"Inbox.sol\":3724:3971  for (uint i = 0; i < Investors.length; i++) {... */\n      iszero\n      tag_222\n      jumpi\n        /* \"Inbox.sol\":3783:3804  address temp_investor */\n      0x00\n        /* \"Inbox.sol\":3807:3816  Investors */\n      0x0a\n        /* \"Inbox.sol\":3817:3818  i */\n      dup3\n        /* \"Inbox.sol\":3807:3819  Investors[i] */\n      dup2\n      sload\n      dup2\n      lt\n      tag_224\n      jumpi\n      tag_225\n      tag_186\n      jump\t// in\n    tag_225:\n    tag_224:\n      swap1\n      0x00\n      mstore\n      keccak256(0x00, 0x20)\n      add\n      0x00\n      swap1\n      sload\n      swap1\n      0x0100\n      exp\n      swap1\n      div\n      0xffffffffffffffffffffffffffffffffffffffff\n      and\n        /* \"Inbox.sol\":3783:3819  address temp_investor = Investors[i] */\n      swap1\n      pop\n        /* \"Inbox.sol\":3843:3853  Investment */\n      0x0c\n        /* \"Inbox.sol\":3843:3868  Investment[temp_investor] */\n      0x00\n        /* \"Inbox.sol\":3854:3867  temp_investor */\n      dup3\n        /* \"Inbox.sol\":3843:3868  Investment[temp_investor] */\n      0xffffffffffffffffffffffffffffffffffffffff\n      and\n      0xffffffffffffffffffffffffffffffffffffffff\n      and\n      dup2\n      mstore\n      0x20\n      add\n      swap1\n      dup2\n      mstore\n      0x20\n      add\n      0x00\n      keccak256\n      sload\n        /* \"Inbox.sol\":3834:3868  ammunt = Investment[temp_investor] */\n      swap3\n      pop\n        /* \"Inbox.sol\":3933:3941  totalVal */\n      dup4\n        /* \"Inbox.sol\":3925:3929  1000 */\n      0x03e8\n        /* \"Inbox.sol\":3915:3921  ammunt */\n      dup5\n        /* \"Inbox.sol\":3914:3929  (ammunt) * 1000 */\n      tag_227\n      swap2\n      swap1\n      tag_205\n      jump\t// in\n    tag_227:\n        /* \"Inbox.sol\":3913:3941  ((ammunt) * 1000) / totalVal */\n      tag_228\n      swap2\n      swap1\n      tag_207\n      jump\t// in\n    tag_228:\n        /* \"Inbox.sol\":3883:3893  ownPercent */\n      0x0d\n        /* \"Inbox.sol\":3883:3908  ownPercent[temp_investor] */\n      0x00\n        /* \"Inbox.sol\":3894:3907  temp_investor */\n      dup4\n        /* \"Inbox.sol\":3883:3908  ownPercent[temp_investor] */\n      0xffffffffffffffffffffffffffffffffffffffff\n      and\n      0xffffffffffffffffffffffffffffffffffffffff\n      and\n      dup2\n      mstore\n      0x20\n      add\n      swap1\n      dup2\n      mstore\n      0x20\n      add\n      0x00\n      keccak256\n        /* \"Inbox.sol\":3883:3943  ownPercent[temp_investor] = ((((ammunt) * 1000) / totalVal)) */\n      dup2\n      swap1\n      sstore\n      pop\n        /* \"Inbox.sol\":3768:3971  {... */\n      pop\n        /* \"Inbox.sol\":3763:3766  i++ */\n      dup1\n      dup1\n      tag_229\n      swap1\n      tag_230\n      jump\t// in\n    tag_229:\n      swap2\n      pop\n      pop\n        /* \"Inbox.sol\":3724:3971  for (uint i = 0; i < Investors.length; i++) {... */\n      jump(tag_221)\n    tag_222:\n      pop\n        /* \"Inbox.sol\":3981:3998  setStakeholders() */\n      tag_231\n        /* \"Inbox.sol\":3981:3996  setStakeholders */\n      tag_232\n        /* \"Inbox.sol\":3981:3998  setStakeholders() */\n      jump\t// in\n    tag_231:\n        /* \"Inbox.sol\":3575:4006  {... */\n      pop\n      pop\n        /* \"Inbox.sol\":3543:4006  function startContract() public {... */\n      jump\t// out\n        /* \"Inbox.sol\":8514:9156  function payDay() public EndPeriod onlySite {... */\n    tag_111:\n        /* \"Inbox.sol\":799:800  2 */\n      0x02\n        /* \"Inbox.sol\":781:796  numStakeholders */\n      sload(0x03)\n        /* \"Inbox.sol\":781:800  numStakeholders / 2 */\n      tag_234\n      swap2\n      swap1\n      tag_207\n      jump\t// in\n    tag_234:\n        /* \"Inbox.sol\":753:777  endTheContract_numOfVote */\n      sload(0x09)\n        /* \"Inbox.sol\":753:800  endTheContract_numOfVote >= numStakeholders / 2 */\n      lt\n      iszero\n        /* \"Inbox.sol\":752:820  (endTheContract_numOfVote >= numStakeholders / 2) || canBuy == false */\n      dup1\n      tag_235\n      jumpi\n      pop\n        /* \"Inbox.sol\":815:820  false */\n      0x00\n        /* \"Inbox.sol\":805:820  canBuy == false */\n      iszero\n      iszero\n        /* \"Inbox.sol\":805:811  canBuy */\n      0x13\n      0x00\n      swap1\n      sload\n      swap1\n      0x0100\n      exp\n      swap1\n      div\n      0xff\n      and\n        /* \"Inbox.sol\":805:820  canBuy == false */\n      iszero\n      iszero\n      eq\n        /* \"Inbox.sol\":752:820  (endTheContract_numOfVote >= numStakeholders / 2) || canBuy == false */\n    tag_235:\n        /* \"Inbox.sol\":730:831  require(... */\n      tag_236\n      jumpi\n      0x00\n      dup1\n      revert\n    tag_236:\n        /* \"Inbox.sol\":332:336  site */\n      0x06\n      0x00\n      swap1\n      sload\n      swap1\n      0x0100\n      exp\n      swap1\n      div\n      0xffffffffffffffffffffffffffffffffffffffff\n      and\n        /* \"Inbox.sol\":318:336  msg.sender == site */\n      0xffffffffffffffffffffffffffffffffffffffff\n      and\n        /* \"Inbox.sol\":318:328  msg.sender */\n      caller\n        /* \"Inbox.sol\":318:336  msg.sender == site */\n      0xffffffffffffffffffffffffffffffffffffffff\n      and\n      eq\n        /* \"Inbox.sol\":310:337  require(msg.sender == site) */\n      tag_238\n      jumpi\n      0x00\n      dup1\n      revert\n    tag_238:\n        /* \"Inbox.sol\":8603:8619  investorBalanc() */\n      tag_240\n        /* \"Inbox.sol\":8603:8617  investorBalanc */\n      tag_71\n        /* \"Inbox.sol\":8603:8619  investorBalanc() */\n      jump\t// in\n    tag_240:\n        /* \"Inbox.sol\":8590:8601  the_balance */\n      0x18\n        /* \"Inbox.sol\":8590:8619  the_balance =investorBalanc() */\n      dup2\n      swap1\n      sstore\n      pop\n        /* \"Inbox.sol\":8636:8642  uint i */\n      0x00\n        /* \"Inbox.sol\":8631:9000  for (uint i = 0; i < Investors.length; i++) {... */\n    tag_241:\n        /* \"Inbox.sol\":8652:8661  Investors */\n      0x0a\n        /* \"Inbox.sol\":8652:8668  Investors.length */\n      dup1\n      sload\n      swap1\n      pop\n        /* \"Inbox.sol\":8648:8649  i */\n      dup2\n        /* \"Inbox.sol\":8648:8668  i < Investors.length */\n      lt\n        /* \"Inbox.sol\":8631:9000  for (uint i = 0; i < Investors.length; i++) {... */\n      iszero\n      tag_242\n      jumpi\n        /* \"Inbox.sol\":8690:8706  address investor */\n      0x00\n        /* \"Inbox.sol\":8709:8718  Investors */\n      0x0a\n        /* \"Inbox.sol\":8719:8720  i */\n      dup3\n        /* \"Inbox.sol\":8709:8721  Investors[i] */\n      dup2\n      sload\n      dup2\n      lt\n      tag_244\n      jumpi\n      tag_245\n      tag_186\n      jump\t// in\n    tag_245:\n    tag_244:\n      swap1\n      0x00\n      mstore\n      keccak256(0x00, 0x20)\n      add\n      0x00\n      swap1\n      sload\n      swap1\n      0x0100\n      exp\n      swap1\n      div\n      0xffffffffffffffffffffffffffffffffffffffff\n      and\n        /* \"Inbox.sol\":8690:8721  address investor = Investors[i] */\n      swap1\n      pop\n        /* \"Inbox.sol\":8760:8765  false */\n      0x00\n        /* \"Inbox.sol\":8740:8765  lefted[investor] == false */\n      iszero\n      iszero\n        /* \"Inbox.sol\":8740:8746  lefted */\n      0x0e\n        /* \"Inbox.sol\":8740:8756  lefted[investor] */\n      0x00\n        /* \"Inbox.sol\":8747:8755  investor */\n      dup4\n        /* \"Inbox.sol\":8740:8756  lefted[investor] */\n      0xffffffffffffffffffffffffffffffffffffffff\n      and\n      0xffffffffffffffffffffffffffffffffffffffff\n      and\n      dup2\n      mstore\n      0x20\n      add\n      swap1\n      dup2\n      mstore\n      0x20\n      add\n      0x00\n      keccak256\n      0x00\n      swap1\n      sload\n      swap1\n      0x0100\n      exp\n      swap1\n      div\n      0xff\n      and\n        /* \"Inbox.sol\":8740:8765  lefted[investor] == false */\n      iszero\n      iszero\n      sub\n        /* \"Inbox.sol\":8736:8989  if (lefted[investor] == false) {... */\n      tag_247\n      jumpi\n        /* \"Inbox.sol\":8786:8800  uint myPercent */\n      0x00\n        /* \"Inbox.sol\":8803:8813  ownPercent */\n      0x0d\n        /* \"Inbox.sol\":8803:8823  ownPercent[investor] */\n      0x00\n        /* \"Inbox.sol\":8814:8822  investor */\n      dup4\n        /* \"Inbox.sol\":8803:8823  ownPercent[investor] */\n      0xffffffffffffffffffffffffffffffffffffffff\n      and\n      0xffffffffffffffffffffffffffffffffffffffff\n      and\n      dup2\n      mstore\n      0x20\n      add\n      swap1\n      dup2\n      mstore\n      0x20\n      add\n      0x00\n      keccak256\n      sload\n        /* \"Inbox.sol\":8786:8823  uint myPercent = ownPercent[investor] */\n      swap1\n      pop\n        /* \"Inbox.sol\":8842:8852  uint value */\n      0x00\n        /* \"Inbox.sol\":8883:8887  1000 */\n      0x03e8\n        /* \"Inbox.sol\":8868:8879  the_balance */\n      sload(0x18)\n        /* \"Inbox.sol\":8856:8865  myPercent */\n      dup4\n        /* \"Inbox.sol\":8856:8879  myPercent * the_balance */\n      tag_248\n      swap2\n      swap1\n      tag_205\n      jump\t// in\n    tag_248:\n        /* \"Inbox.sol\":8855:8887  (myPercent * the_balance) / 1000 */\n      tag_249\n      swap2\n      swap1\n      tag_207\n      jump\t// in\n    tag_249:\n        /* \"Inbox.sol\":8842:8887  uint value = (myPercent * the_balance) / 1000 */\n      swap1\n      pop\n        /* \"Inbox.sol\":8914:8922  investor */\n      dup3\n        /* \"Inbox.sol\":8906:8932  payable(investor).transfer */\n      0xffffffffffffffffffffffffffffffffffffffff\n      and\n        /* \"Inbox.sol\":8906:8939  payable(investor).transfer(value) */\n      0x08fc\n        /* \"Inbox.sol\":8933:8938  value */\n      dup3\n        /* \"Inbox.sol\":8906:8939  payable(investor).transfer(value) */\n      swap1\n      dup2\n      iszero\n      mul\n      swap1\n      mload(0x40)\n      0x00\n      mload(0x40)\n      dup1\n      dup4\n      sub\n      dup2\n      dup6\n      dup9\n      dup9\n      call\n      swap4\n      pop\n      pop\n      pop\n      pop\n      iszero\n      dup1\n      iszero\n      tag_251\n      jumpi\n      returndatasize\n      0x00\n      dup1\n      returndatacopy\n      revert(0x00, returndatasize)\n    tag_251:\n      pop\n        /* \"Inbox.sol\":8767:8989  {... */\n      pop\n      pop\n        /* \"Inbox.sol\":8736:8989  if (lefted[investor] == false) {... */\n    tag_247:\n        /* \"Inbox.sol\":8675:9000  {... */\n      pop\n        /* \"Inbox.sol\":8670:8673  i++ */\n      dup1\n      dup1\n      tag_252\n      swap1\n      tag_230\n      jump\t// in\n    tag_252:\n      swap2\n      pop\n      pop\n        /* \"Inbox.sol\":8631:9000  for (uint i = 0; i < Investors.length; i++) {... */\n      jump(tag_241)\n    tag_242:\n      pop\n        /* \"Inbox.sol\":9027:9048  address(this).balance */\n      selfbalance\n        /* \"Inbox.sol\":9010:9024  managerFineFee */\n      0x17\n        /* \"Inbox.sol\":9010:9048  managerFineFee = address(this).balance */\n      dup2\n      swap1\n      sstore\n      pop\n        /* \"Inbox.sol\":9067:9074  manager */\n      0x05\n      0x00\n      swap1\n      sload\n      swap1\n      0x0100\n      exp\n      swap1\n      div\n      0xffffffffffffffffffffffffffffffffffffffff\n      and\n        /* \"Inbox.sol\":9059:9084  payable(manager).transfer */\n      0xffffffffffffffffffffffffffffffffffffffff\n      and\n        /* \"Inbox.sol\":9059:9100  payable(manager).transfer(managerFineFee) */\n      0x08fc\n        /* \"Inbox.sol\":9085:9099  managerFineFee */\n      sload(0x17)\n        /* \"Inbox.sol\":9059:9100  payable(manager).transfer(managerFineFee) */\n      swap1\n      dup2\n      iszero\n      mul\n      swap1\n      mload(0x40)\n      0x00\n      mload(0x40)\n      dup1\n      dup4\n      sub\n      dup2\n      dup6\n      dup9\n      dup9\n      call\n      swap4\n      pop\n      pop\n      pop\n      pop\n      iszero\n      dup1\n      iszero\n      tag_254\n      jumpi\n      returndatasize\n      0x00\n      dup1\n      returndatacopy\n      revert(0x00, returndatasize)\n    tag_254:\n      pop\n        /* \"Inbox.sol\":8514:9156  function payDay() public EndPeriod onlySite {... */\n      jump\t// out\n        /* \"Inbox.sol\":8158:8506  function PayDayVoted() public workPeriod onlyStakeholders {... */\n    tag_114:\n        /* \"Inbox.sol\":666:670  true */\n      0x01\n        /* \"Inbox.sol\":656:670  canBuy == true */\n      iszero\n      iszero\n        /* \"Inbox.sol\":656:662  canBuy */\n      0x13\n      0x00\n      swap1\n      sload\n      swap1\n      0x0100\n      exp\n      swap1\n      div\n      0xff\n      and\n        /* \"Inbox.sol\":656:670  canBuy == true */\n      iszero\n      iszero\n      eq\n        /* \"Inbox.sol\":647:672  require((canBuy == true)) */\n      tag_256\n      jumpi\n      0x00\n      dup1\n      revert\n    tag_256:\n        /* \"Inbox.sol\":226:238  Stakeholders */\n      0x07\n        /* \"Inbox.sol\":226:250  Stakeholders[msg.sender] */\n      0x00\n        /* \"Inbox.sol\":239:249  msg.sender */\n      caller\n        /* \"Inbox.sol\":226:250  Stakeholders[msg.sender] */\n      0xffffffffffffffffffffffffffffffffffffffff\n      and\n      0xffffffffffffffffffffffffffffffffffffffff\n      and\n      dup2\n      mstore\n      0x20\n      add\n      swap1\n      dup2\n      mstore\n      0x20\n      add\n      0x00\n      keccak256\n      0x00\n      swap1\n      sload\n      swap1\n      0x0100\n      exp\n      swap1\n      div\n      0xff\n      and\n        /* \"Inbox.sol\":218:251  require(Stakeholders[msg.sender]) */\n      tag_258\n      jumpi\n      0x00\n      dup1\n      revert\n    tag_258:\n        /* \"Inbox.sol\":8274:8279  false */\n      0x00\n        /* \"Inbox.sol\":8231:8279  Stakeholders_endTheContract[msg.sender] == false */\n      iszero\n      iszero\n        /* \"Inbox.sol\":8231:8258  Stakeholders_endTheContract */\n      0x08\n        /* \"Inbox.sol\":8231:8270  Stakeholders_endTheContract[msg.sender] */\n      0x00\n        /* \"Inbox.sol\":8259:8269  msg.sender */\n      caller\n        /* \"Inbox.sol\":8231:8270  Stakeholders_endTheContract[msg.sender] */\n      0xffffffffffffffffffffffffffffffffffffffff\n      and\n      0xffffffffffffffffffffffffffffffffffffffff\n      and\n      dup2\n      mstore\n      0x20\n      add\n      swap1\n      dup2\n      mstore\n      0x20\n      add\n      0x00\n      keccak256\n      0x00\n      swap1\n      sload\n      swap1\n      0x0100\n      exp\n      swap1\n      div\n      0xff\n      and\n        /* \"Inbox.sol\":8231:8279  Stakeholders_endTheContract[msg.sender] == false */\n      iszero\n      iszero\n      sub\n        /* \"Inbox.sol\":8227:8395  if (Stakeholders_endTheContract[msg.sender] == false) {... */\n      tag_260\n      jumpi\n        /* \"Inbox.sol\":8338:8342  true */\n      0x01\n        /* \"Inbox.sol\":8296:8323  Stakeholders_endTheContract */\n      0x08\n        /* \"Inbox.sol\":8296:8335  Stakeholders_endTheContract[msg.sender] */\n      0x00\n        /* \"Inbox.sol\":8324:8334  msg.sender */\n      caller\n        /* \"Inbox.sol\":8296:8335  Stakeholders_endTheContract[msg.sender] */\n      0xffffffffffffffffffffffffffffffffffffffff\n      and\n      0xffffffffffffffffffffffffffffffffffffffff\n      and\n      dup2\n      mstore\n      0x20\n      add\n      swap1\n      dup2\n      mstore\n      0x20\n      add\n      0x00\n      keccak256\n      0x00\n        /* \"Inbox.sol\":8296:8342  Stakeholders_endTheContract[msg.sender] = true */\n      0x0100\n      exp\n      dup2\n      sload\n      dup2\n      0xff\n      mul\n      not\n      and\n      swap1\n      dup4\n      iszero\n      iszero\n      mul\n      or\n      swap1\n      sstore\n      pop\n        /* \"Inbox.sol\":8357:8381  endTheContract_numOfVote */\n      0x09\n      0x00\n        /* \"Inbox.sol\":8357:8383  endTheContract_numOfVote++ */\n      dup2\n      sload\n      dup1\n      swap3\n      swap2\n      swap1\n      tag_261\n      swap1\n      tag_230\n      jump\t// in\n    tag_261:\n      swap2\n      swap1\n      pop\n      sstore\n      pop\n        /* \"Inbox.sol\":8227:8395  if (Stakeholders_endTheContract[msg.sender] == false) {... */\n    tag_260:\n        /* \"Inbox.sol\":8455:8456  2 */\n      0x02\n        /* \"Inbox.sol\":8437:8452  numStakeholders */\n      sload(0x03)\n        /* \"Inbox.sol\":8437:8456  numStakeholders / 2 */\n      tag_262\n      swap2\n      swap1\n      tag_207\n      jump\t// in\n    tag_262:\n        /* \"Inbox.sol\":8409:8433  endTheContract_numOfVote */\n      sload(0x09)\n        /* \"Inbox.sol\":8409:8456  endTheContract_numOfVote >= numStakeholders / 2 */\n      lt\n        /* \"Inbox.sol\":8405:8499  if (endTheContract_numOfVote >= numStakeholders / 2) {... */\n      tag_263\n      jumpi\n        /* \"Inbox.sol\":8482:8487  false */\n      0x00\n        /* \"Inbox.sol\":8473:8479  canBuy */\n      0x13\n      0x00\n        /* \"Inbox.sol\":8473:8487  canBuy = false */\n      0x0100\n      exp\n      dup2\n      sload\n      dup2\n      0xff\n      mul\n      not\n      and\n      swap1\n      dup4\n      iszero\n      iszero\n      mul\n      or\n      swap1\n      sstore\n      pop\n        /* \"Inbox.sol\":8405:8499  if (endTheContract_numOfVote >= numStakeholders / 2) {... */\n    tag_263:\n        /* \"Inbox.sol\":8158:8506  function PayDayVoted() public workPeriod onlyStakeholders {... */\n      jump\t// out\n        /* \"Inbox.sol\":2032:2056  uint public lastTotalVal */\n    tag_117:\n      sload(0x16)\n      dup2\n      jump\t// out\n        /* \"Inbox.sol\":1727:1758  uint public minimumContribution */\n    tag_121:\n      sload(0x0f)\n      dup2\n      jump\t// out\n        /* \"Inbox.sol\":3455:3535  function getMoney() public payable returns (bool) {... */\n    tag_124:\n        /* \"Inbox.sol\":3499:3503  bool */\n      0x00\n        /* \"Inbox.sol\":3523:3527  true */\n      0x01\n        /* \"Inbox.sol\":3516:3527  return true */\n      swap1\n      pop\n        /* \"Inbox.sol\":3455:3535  function getMoney() public payable returns (bool) {... */\n      swap1\n      jump\t// out\n        /* \"Inbox.sol\":1682:1720  mapping(address => bool) public lefted */\n    tag_129:\n      mstore(0x20, 0x0e)\n      dup1\n      0x00\n      mstore\n      keccak256(0x00, 0x40)\n      0x00\n      swap2\n      pop\n      sload\n      swap1\n      0x0100\n      exp\n      swap1\n      div\n      0xff\n      and\n      dup2\n      jump\t// out\n        /* \"Inbox.sol\":2096:2119  uint public the_balance */\n    tag_133:\n      sload(0x18)\n      dup2\n      jump\t// out\n        /* \"Inbox.sol\":2159:2476  function allInvestorPercent() public view returns (uint) {... */\n    tag_137:\n        /* \"Inbox.sol\":2210:2214  uint */\n      0x00\n        /* \"Inbox.sol\":2227:2235  uint sum */\n      dup1\n        /* \"Inbox.sol\":2251:2257  uint i */\n      0x00\n        /* \"Inbox.sol\":2246:2448  for (uint i = 0; i < Investors.length; i++) {... */\n    tag_266:\n        /* \"Inbox.sol\":2267:2276  Investors */\n      0x0a\n        /* \"Inbox.sol\":2267:2283  Investors.length */\n      dup1\n      sload\n      swap1\n      pop\n        /* \"Inbox.sol\":2263:2264  i */\n      dup2\n        /* \"Inbox.sol\":2263:2283  i < Investors.length */\n      lt\n        /* \"Inbox.sol\":2246:2448  for (uint i = 0; i < Investors.length; i++) {... */\n      iszero\n      tag_267\n      jumpi\n        /* \"Inbox.sol\":2305:2317  address user */\n      0x00\n        /* \"Inbox.sol\":2320:2329  Investors */\n      0x0a\n        /* \"Inbox.sol\":2330:2331  i */\n      dup3\n        /* \"Inbox.sol\":2320:2332  Investors[i] */\n      dup2\n      sload\n      dup2\n      lt\n      tag_269\n      jumpi\n      tag_270\n      tag_186\n      jump\t// in\n    tag_270:\n    tag_269:\n      swap1\n      0x00\n      mstore\n      keccak256(0x00, 0x20)\n      add\n      0x00\n      swap1\n      sload\n      swap1\n      0x0100\n      exp\n      swap1\n      div\n      0xffffffffffffffffffffffffffffffffffffffff\n      and\n        /* \"Inbox.sol\":2305:2332  address user = Investors[i] */\n      swap1\n      pop\n        /* \"Inbox.sol\":2367:2372  false */\n      0x00\n        /* \"Inbox.sol\":2351:2372  lefted[user] == false */\n      iszero\n      iszero\n        /* \"Inbox.sol\":2351:2357  lefted */\n      0x0e\n        /* \"Inbox.sol\":2351:2363  lefted[user] */\n      0x00\n        /* \"Inbox.sol\":2358:2362  user */\n      dup4\n        /* \"Inbox.sol\":2351:2363  lefted[user] */\n      0xffffffffffffffffffffffffffffffffffffffff\n      and\n      0xffffffffffffffffffffffffffffffffffffffff\n      and\n      dup2\n      mstore\n      0x20\n      add\n      swap1\n      dup2\n      mstore\n      0x20\n      add\n      0x00\n      keccak256\n      0x00\n      swap1\n      sload\n      swap1\n      0x0100\n      exp\n      swap1\n      div\n      0xff\n      and\n        /* \"Inbox.sol\":2351:2372  lefted[user] == false */\n      iszero\n      iszero\n      sub\n        /* \"Inbox.sol\":2347:2437  if (lefted[user] == false) {... */\n      tag_272\n      jumpi\n        /* \"Inbox.sol\":2405:2415  ownPercent */\n      0x0d\n        /* \"Inbox.sol\":2405:2421  ownPercent[user] */\n      0x00\n        /* \"Inbox.sol\":2416:2420  user */\n      dup3\n        /* \"Inbox.sol\":2405:2421  ownPercent[user] */\n      0xffffffffffffffffffffffffffffffffffffffff\n      and\n      0xffffffffffffffffffffffffffffffffffffffff\n      and\n      dup2\n      mstore\n      0x20\n      add\n      swap1\n      dup2\n      mstore\n      0x20\n      add\n      0x00\n      keccak256\n      sload\n        /* \"Inbox.sol\":2399:2402  sum */\n      dup4\n        /* \"Inbox.sol\":2399:2421  sum + ownPercent[user] */\n      tag_273\n      swap2\n      swap1\n      tag_274\n      jump\t// in\n    tag_273:\n        /* \"Inbox.sol\":2393:2421  sum = sum + ownPercent[user] */\n      swap3\n      pop\n        /* \"Inbox.sol\":2347:2437  if (lefted[user] == false) {... */\n    tag_272:\n        /* \"Inbox.sol\":2290:2448  {... */\n      pop\n        /* \"Inbox.sol\":2285:2288  i++ */\n      dup1\n      dup1\n      tag_275\n      swap1\n      tag_230\n      jump\t// in\n    tag_275:\n      swap2\n      pop\n      pop\n        /* \"Inbox.sol\":2246:2448  for (uint i = 0; i < Investors.length; i++) {... */\n      jump(tag_266)\n    tag_267:\n      pop\n        /* \"Inbox.sol\":2465:2468  sum */\n      dup1\n        /* \"Inbox.sol\":2458:2468  return sum */\n      swap2\n      pop\n      pop\n        /* \"Inbox.sol\":2159:2476  function allInvestorPercent() public view returns (uint) {... */\n      swap1\n      jump\t// out\n        /* \"Inbox.sol\":6775:7751  function leave_contract(... */\n    tag_143:\n        /* \"Inbox.sol\":6943:6947  bool */\n      0x00\n        /* \"Inbox.sol\":666:670  true */\n      0x01\n        /* \"Inbox.sol\":656:670  canBuy == true */\n      iszero\n      iszero\n        /* \"Inbox.sol\":656:662  canBuy */\n      0x13\n      0x00\n      swap1\n      sload\n      swap1\n      0x0100\n      exp\n      swap1\n      div\n      0xff\n      and\n        /* \"Inbox.sol\":656:670  canBuy == true */\n      iszero\n      iszero\n      eq\n        /* \"Inbox.sol\":647:672  require((canBuy == true)) */\n      tag_277\n      jumpi\n      0x00\n      dup1\n      revert\n    tag_277:\n        /* \"Inbox.sol\":332:336  site */\n      0x06\n      0x00\n      swap1\n      sload\n      swap1\n      0x0100\n      exp\n      swap1\n      div\n      0xffffffffffffffffffffffffffffffffffffffff\n      and\n        /* \"Inbox.sol\":318:336  msg.sender == site */\n      0xffffffffffffffffffffffffffffffffffffffff\n      and\n        /* \"Inbox.sol\":318:328  msg.sender */\n      caller\n        /* \"Inbox.sol\":318:336  msg.sender == site */\n      0xffffffffffffffffffffffffffffffffffffffff\n      and\n      eq\n        /* \"Inbox.sol\":310:337  require(msg.sender == site) */\n      tag_279\n      jumpi\n      0x00\n      dup1\n      revert\n    tag_279:\n        /* \"Inbox.sol\":6996:7001  false */\n      0x00\n        /* \"Inbox.sol\":6968:7001  Stakeholders[msg.sender] == false */\n      iszero\n      iszero\n        /* \"Inbox.sol\":6968:6980  Stakeholders */\n      0x07\n        /* \"Inbox.sol\":6968:6992  Stakeholders[msg.sender] */\n      0x00\n        /* \"Inbox.sol\":6981:6991  msg.sender */\n      caller\n        /* \"Inbox.sol\":6968:6992  Stakeholders[msg.sender] */\n      0xffffffffffffffffffffffffffffffffffffffff\n      and\n      0xffffffffffffffffffffffffffffffffffffffff\n      and\n      dup2\n      mstore\n      0x20\n      add\n      swap1\n      dup2\n      mstore\n      0x20\n      add\n      0x00\n      keccak256\n      0x00\n      swap1\n      sload\n      swap1\n      0x0100\n      exp\n      swap1\n      div\n      0xff\n      and\n        /* \"Inbox.sol\":6968:7001  Stakeholders[msg.sender] == false */\n      iszero\n      iszero\n      eq\n        /* \"Inbox.sol\":6960:7002  require(Stakeholders[msg.sender] == false) */\n      tag_281\n      jumpi\n      0x00\n      dup1\n      revert\n    tag_281:\n        /* \"Inbox.sol\":7163:7177  uint myPercent */\n      0x00\n        /* \"Inbox.sol\":7180:7190  ownPercent */\n      0x0d\n        /* \"Inbox.sol\":7180:7205  ownPercent[leave_address] */\n      0x00\n        /* \"Inbox.sol\":7191:7204  leave_address */\n      dup6\n        /* \"Inbox.sol\":7180:7205  ownPercent[leave_address] */\n      0xffffffffffffffffffffffffffffffffffffffff\n      and\n      0xffffffffffffffffffffffffffffffffffffffff\n      and\n      dup2\n      mstore\n      0x20\n      add\n      swap1\n      dup2\n      mstore\n      0x20\n      add\n      0x00\n      keccak256\n      sload\n        /* \"Inbox.sol\":7163:7205  uint myPercent = ownPercent[leave_address] */\n      swap1\n      pop\n        /* \"Inbox.sol\":7216:7231  uint totalValue */\n      0x00\n        /* \"Inbox.sol\":7242:7258  investorBalanc() */\n      tag_282\n        /* \"Inbox.sol\":7242:7256  investorBalanc */\n      tag_71\n        /* \"Inbox.sol\":7242:7258  investorBalanc() */\n      jump\t// in\n    tag_282:\n        /* \"Inbox.sol\":7234:7239  yield */\n      dup5\n        /* \"Inbox.sol\":7234:7258  yield + investorBalanc() */\n      tag_283\n      swap2\n      swap1\n      tag_274\n      jump\t// in\n    tag_283:\n        /* \"Inbox.sol\":7216:7258  uint totalValue = yield + investorBalanc() */\n      swap1\n      pop\n        /* \"Inbox.sol\":7269:7279  uint value */\n      0x00\n        /* \"Inbox.sol\":7331:7335  1000 */\n      0x03e8\n        /* \"Inbox.sol\":7320:7327  penelty */\n      sload(0x00)\n        /* \"Inbox.sol\":7312:7316  1000 */\n      0x03e8\n        /* \"Inbox.sol\":7299:7308  myPercent */\n      dup6\n        /* \"Inbox.sol\":7286:7296  totalValue */\n      dup6\n        /* \"Inbox.sol\":7286:7308  totalValue * myPercent */\n      tag_284\n      swap2\n      swap1\n      tag_205\n      jump\t// in\n    tag_284:\n        /* \"Inbox.sol\":7285:7316  (totalValue * myPercent) / 1000 */\n      tag_285\n      swap2\n      swap1\n      tag_207\n      jump\t// in\n    tag_285:\n        /* \"Inbox.sol\":7284:7327  ((totalValue * myPercent) / 1000) * penelty */\n      tag_286\n      swap2\n      swap1\n      tag_205\n      jump\t// in\n    tag_286:\n        /* \"Inbox.sol\":7283:7335  (((totalValue * myPercent) / 1000) * penelty) / 1000 */\n      tag_287\n      swap2\n      swap1\n      tag_207\n      jump\t// in\n    tag_287:\n        /* \"Inbox.sol\":7269:7336  uint value = ((((totalValue * myPercent) / 1000) * penelty) / 1000) */\n      swap1\n      pop\n        /* \"Inbox.sol\":7362:7367  value */\n      dup1\n        /* \"Inbox.sol\":7347:7359  lastTotalVal */\n      0x16\n        /* \"Inbox.sol\":7347:7367  lastTotalVal = value */\n      dup2\n      swap1\n      sstore\n      pop\n        /* \"Inbox.sol\":7391:7412  address(this).balance */\n      selfbalance\n        /* \"Inbox.sol\":7382:7387  value */\n      dup2\n        /* \"Inbox.sol\":7382:7412  value <= address(this).balance */\n      gt\n        /* \"Inbox.sol\":7378:7744  if (value <= address(this).balance) {... */\n      tag_288\n      jumpi\n        /* \"Inbox.sol\":7442:7454  lastTotalVal */\n      sload(0x16)\n        /* \"Inbox.sol\":7429:7441  lastLeaveVal */\n      0x19\n        /* \"Inbox.sol\":7429:7454  lastLeaveVal=lastTotalVal */\n      dup2\n      swap1\n      sstore\n      pop\n        /* \"Inbox.sol\":7489:7502  leave_address */\n      dup6\n        /* \"Inbox.sol\":7481:7512  payable(leave_address).transfer */\n      0xffffffffffffffffffffffffffffffffffffffff\n      and\n        /* \"Inbox.sol\":7481:7519  payable(leave_address).transfer(value) */\n      0x08fc\n        /* \"Inbox.sol\":7513:7518  value */\n      dup3\n        /* \"Inbox.sol\":7481:7519  payable(leave_address).transfer(value) */\n      swap1\n      dup2\n      iszero\n      mul\n      swap1\n      mload(0x40)\n      0x00\n      mload(0x40)\n      dup1\n      dup4\n      sub\n      dup2\n      dup6\n      dup9\n      dup9\n      call\n      swap4\n      pop\n      pop\n      pop\n      pop\n      iszero\n      dup1\n      iszero\n      tag_290\n      jumpi\n      returndatasize\n      0x00\n      dup1\n      returndatacopy\n      revert(0x00, returndatasize)\n    tag_290:\n      pop\n        /* \"Inbox.sol\":7558:7562  true */\n      0x01\n        /* \"Inbox.sol\":7534:7540  lefted */\n      0x0e\n        /* \"Inbox.sol\":7534:7555  lefted[leave_address] */\n      0x00\n        /* \"Inbox.sol\":7541:7554  leave_address */\n      dup9\n        /* \"Inbox.sol\":7534:7555  lefted[leave_address] */\n      0xffffffffffffffffffffffffffffffffffffffff\n      and\n      0xffffffffffffffffffffffffffffffffffffffff\n      and\n      dup2\n      mstore\n      0x20\n      add\n      swap1\n      dup2\n      mstore\n      0x20\n      add\n      0x00\n      keccak256\n      0x00\n        /* \"Inbox.sol\":7534:7562  lefted[leave_address] = true */\n      0x0100\n      exp\n      dup2\n      sload\n      dup2\n      0xff\n      mul\n      not\n      and\n      swap1\n      dup4\n      iszero\n      iszero\n      mul\n      or\n      swap1\n      sstore\n      pop\n        /* \"Inbox.sol\":7589:7594  value */\n      dup1\n        /* \"Inbox.sol\":7577:7586  lastRePay */\n      0x15\n        /* \"Inbox.sol\":7577:7594  lastRePay = value */\n      dup2\n      swap1\n      sstore\n      pop\n        /* \"Inbox.sol\":7609:7630  fixPercent(myPercent) */\n      tag_291\n        /* \"Inbox.sol\":7620:7629  myPercent */\n      dup4\n        /* \"Inbox.sol\":7609:7619  fixPercent */\n      tag_292\n        /* \"Inbox.sol\":7609:7630  fixPercent(myPercent) */\n      jump\t// in\n    tag_291:\n        /* \"Inbox.sol\":7645:7659  numOfInvestors */\n      0x0b\n      0x00\n        /* \"Inbox.sol\":7645:7661  numOfInvestors-- */\n      dup2\n      sload\n      dup1\n      swap3\n      swap2\n      swap1\n      tag_293\n      swap1\n      tag_294\n      jump\t// in\n    tag_293:\n      swap2\n      swap1\n      pop\n      sstore\n      pop\n        /* \"Inbox.sol\":7683:7687  true */\n      0x01\n        /* \"Inbox.sol\":7676:7687  return true */\n      swap4\n      pop\n      pop\n      pop\n      pop\n      jump(tag_280)\n        /* \"Inbox.sol\":7378:7744  if (value <= address(this).balance) {... */\n    tag_288:\n        /* \"Inbox.sol\":7727:7732  false */\n      0x00\n        /* \"Inbox.sol\":7720:7732  return false */\n      swap4\n      pop\n      pop\n      pop\n      pop\n        /* \"Inbox.sol\":348:349  _ */\n    tag_280:\n        /* \"Inbox.sol\":6775:7751  function leave_contract(... */\n      swap3\n      swap2\n      pop\n      pop\n      jump\t// out\n        /* \"Inbox.sol\":3123:3447  function join() public payable JoinPeriod {... */\n    tag_146:\n        /* \"Inbox.sol\":416:421  false */\n      0x00\n        /* \"Inbox.sol\":406:421  canBuy == false */\n      iszero\n      iszero\n        /* \"Inbox.sol\":406:412  canBuy */\n      0x13\n      0x00\n      swap1\n      sload\n      swap1\n      0x0100\n      exp\n      swap1\n      div\n      0xff\n      and\n        /* \"Inbox.sol\":406:421  canBuy == false */\n      iszero\n      iszero\n      eq\n        /* \"Inbox.sol\":398:422  require(canBuy == false) */\n      tag_297\n      jumpi\n      0x00\n      dup1\n      revert\n    tag_297:\n        /* \"Inbox.sol\":3176:3189  uint myInvest */\n      0x00\n        /* \"Inbox.sol\":3192:3202  Investment */\n      0x0c\n        /* \"Inbox.sol\":3192:3214  Investment[msg.sender] */\n      0x00\n        /* \"Inbox.sol\":3203:3213  msg.sender */\n      caller\n        /* \"Inbox.sol\":3192:3214  Investment[msg.sender] */\n      0xffffffffffffffffffffffffffffffffffffffff\n      and\n      0xffffffffffffffffffffffffffffffffffffffff\n      and\n      dup2\n      mstore\n      0x20\n      add\n      swap1\n      dup2\n      mstore\n      0x20\n      add\n      0x00\n      keccak256\n      sload\n        /* \"Inbox.sol\":3176:3214  uint myInvest = Investment[msg.sender] */\n      swap1\n      pop\n        /* \"Inbox.sol\":3241:3242  0 */\n      0x00\n        /* \"Inbox.sol\":3229:3237  myInvest */\n      dup2\n        /* \"Inbox.sol\":3229:3242  myInvest == 0 */\n      sub\n        /* \"Inbox.sol\":3225:3384  if (myInvest == 0) {... */\n      tag_299\n      jumpi\n        /* \"Inbox.sol\":3280:3299  minimumContribution */\n      sload(0x0f)\n        /* \"Inbox.sol\":3267:3276  msg.value */\n      callvalue\n        /* \"Inbox.sol\":3267:3299  msg.value >= minimumContribution */\n      lt\n      iszero\n        /* \"Inbox.sol\":3259:3300  require(msg.value >= minimumContribution) */\n      tag_300\n      jumpi\n      0x00\n      dup1\n      revert\n    tag_300:\n        /* \"Inbox.sol\":3315:3324  Investors */\n      0x0a\n        /* \"Inbox.sol\":3330:3340  msg.sender */\n      caller\n        /* \"Inbox.sol\":3315:3341  Investors.push(msg.sender) */\n      swap1\n      dup1\n      0x01\n      dup2\n      sload\n      add\n      dup1\n      dup3\n      sstore\n      dup1\n      swap2\n      pop\n      pop\n      0x01\n      swap1\n      sub\n      swap1\n      0x00\n      mstore\n      keccak256(0x00, 0x20)\n      add\n      0x00\n      swap1\n      swap2\n      swap1\n      swap2\n      swap1\n      swap2\n      0x0100\n      exp\n      dup2\n      sload\n      dup2\n      0xffffffffffffffffffffffffffffffffffffffff\n      mul\n      not\n      and\n      swap1\n      dup4\n      0xffffffffffffffffffffffffffffffffffffffff\n      and\n      mul\n      or\n      swap1\n      sstore\n      pop\n        /* \"Inbox.sol\":3356:3370  numOfInvestors */\n      0x0b\n      0x00\n        /* \"Inbox.sol\":3356:3372  numOfInvestors++ */\n      dup2\n      sload\n      dup1\n      swap3\n      swap2\n      swap1\n      tag_302\n      swap1\n      tag_230\n      jump\t// in\n    tag_302:\n      swap2\n      swap1\n      pop\n      sstore\n      pop\n        /* \"Inbox.sol\":3225:3384  if (myInvest == 0) {... */\n    tag_299:\n        /* \"Inbox.sol\":3430:3439  msg.value */\n      callvalue\n        /* \"Inbox.sol\":3419:3427  myInvest */\n      dup2\n        /* \"Inbox.sol\":3419:3439  myInvest + msg.value */\n      tag_303\n      swap2\n      swap1\n      tag_274\n      jump\t// in\n    tag_303:\n        /* \"Inbox.sol\":3394:3404  Investment */\n      0x0c\n        /* \"Inbox.sol\":3394:3416  Investment[msg.sender] */\n      0x00\n        /* \"Inbox.sol\":3405:3415  msg.sender */\n      caller\n        /* \"Inbox.sol\":3394:3416  Investment[msg.sender] */\n      0xffffffffffffffffffffffffffffffffffffffff\n      and\n      0xffffffffffffffffffffffffffffffffffffffff\n      and\n      dup2\n      mstore\n      0x20\n      add\n      swap1\n      dup2\n      mstore\n      0x20\n      add\n      0x00\n      keccak256\n        /* \"Inbox.sol\":3394:3439  Investment[msg.sender] = myInvest + msg.value */\n      dup2\n      swap1\n      sstore\n      pop\n        /* \"Inbox.sol\":3165:3447  {... */\n      pop\n        /* \"Inbox.sol\":3123:3447  function join() public payable JoinPeriod {... */\n      jump\t// out\n        /* \"Inbox.sol\":1555:1597  mapping(address => uint) public Investment */\n    tag_150:\n      mstore(0x20, 0x0c)\n      dup1\n      0x00\n      mstore\n      keccak256(0x00, 0x40)\n      0x00\n      swap2\n      pop\n      swap1\n      pop\n      sload\n      dup2\n      jump\t// out\n        /* \"Inbox.sol\":6104:6396  function approveRequest(uint index) public onlyStakeholders {... */\n    tag_155:\n        /* \"Inbox.sol\":226:238  Stakeholders */\n      0x07\n        /* \"Inbox.sol\":226:250  Stakeholders[msg.sender] */\n      0x00\n        /* \"Inbox.sol\":239:249  msg.sender */\n      caller\n        /* \"Inbox.sol\":226:250  Stakeholders[msg.sender] */\n      0xffffffffffffffffffffffffffffffffffffffff\n      and\n      0xffffffffffffffffffffffffffffffffffffffff\n      and\n      dup2\n      mstore\n      0x20\n      add\n      swap1\n      dup2\n      mstore\n      0x20\n      add\n      0x00\n      keccak256\n      0x00\n      swap1\n      sload\n      swap1\n      0x0100\n      exp\n      swap1\n      div\n      0xff\n      and\n        /* \"Inbox.sol\":218:251  require(Stakeholders[msg.sender]) */\n      tag_305\n      jumpi\n      0x00\n      dup1\n      revert\n    tag_305:\n        /* \"Inbox.sol\":6215:6238  Request storage request */\n      0x00\n        /* \"Inbox.sol\":6241:6250  myRequsts */\n      0x14\n        /* \"Inbox.sol\":6251:6256  index */\n      dup3\n        /* \"Inbox.sol\":6241:6257  myRequsts[index] */\n      dup2\n      sload\n      dup2\n      lt\n      tag_307\n      jumpi\n      tag_308\n      tag_186\n      jump\t// in\n    tag_308:\n    tag_307:\n      swap1\n      0x00\n      mstore\n      keccak256(0x00, 0x20)\n      swap1\n      0x06\n      mul\n      add\n        /* \"Inbox.sol\":6215:6257  Request storage request = myRequsts[index] */\n      swap1\n      pop\n        /* \"Inbox.sol\":6277:6284  request */\n      dup1\n        /* \"Inbox.sol\":6277:6294  request.approvals */\n      0x05\n      add\n        /* \"Inbox.sol\":6277:6306  request.approvals[msg.sender] */\n      0x00\n        /* \"Inbox.sol\":6295:6305  msg.sender */\n      caller\n        /* \"Inbox.sol\":6277:6306  request.approvals[msg.sender] */\n      0xffffffffffffffffffffffffffffffffffffffff\n      and\n      0xffffffffffffffffffffffffffffffffffffffff\n      and\n      dup2\n      mstore\n      0x20\n      add\n      swap1\n      dup2\n      mstore\n      0x20\n      add\n      0x00\n      keccak256\n      0x00\n      swap1\n      sload\n      swap1\n      0x0100\n      exp\n      swap1\n      div\n      0xff\n      and\n        /* \"Inbox.sol\":6276:6306  !request.approvals[msg.sender] */\n      iszero\n        /* \"Inbox.sol\":6268:6307  require(!request.approvals[msg.sender]) */\n      tag_310\n      jumpi\n      0x00\n      dup1\n      revert\n    tag_310:\n        /* \"Inbox.sol\":6350:6354  true */\n      0x01\n        /* \"Inbox.sol\":6318:6325  request */\n      dup2\n        /* \"Inbox.sol\":6318:6335  request.approvals */\n      0x05\n      add\n        /* \"Inbox.sol\":6318:6347  request.approvals[msg.sender] */\n      0x00\n        /* \"Inbox.sol\":6336:6346  msg.sender */\n      caller\n        /* \"Inbox.sol\":6318:6347  request.approvals[msg.sender] */\n      0xffffffffffffffffffffffffffffffffffffffff\n      and\n      0xffffffffffffffffffffffffffffffffffffffff\n      and\n      dup2\n      mstore\n      0x20\n      add\n      swap1\n      dup2\n      mstore\n      0x20\n      add\n      0x00\n      keccak256\n      0x00\n        /* \"Inbox.sol\":6318:6354  request.approvals[msg.sender] = true */\n      0x0100\n      exp\n      dup2\n      sload\n      dup2\n      0xff\n      mul\n      not\n      and\n      swap1\n      dup4\n      iszero\n      iszero\n      mul\n      or\n      swap1\n      sstore\n      pop\n        /* \"Inbox.sol\":6365:6372  request */\n      dup1\n        /* \"Inbox.sol\":6365:6386  request.approvalCount */\n      0x04\n      add\n      0x00\n        /* \"Inbox.sol\":6365:6388  request.approvalCount++ */\n      dup2\n      sload\n      dup1\n      swap3\n      swap2\n      swap1\n      tag_311\n      swap1\n      tag_230\n      jump\t// in\n    tag_311:\n      swap2\n      swap1\n      pop\n      sstore\n      pop\n        /* \"Inbox.sol\":6164:6396  {... */\n      pop\n        /* \"Inbox.sol\":6104:6396  function approveRequest(uint index) public onlyStakeholders {... */\n      pop\n      jump\t// out\n        /* \"Inbox.sol\":2004:2025  uint public lastRePay */\n    tag_158:\n      sload(0x15)\n      dup2\n      jump\t// out\n        /* \"Inbox.sol\":1304:1323  address public site */\n    tag_162:\n      0x06\n      0x00\n      swap1\n      sload\n      swap1\n      0x0100\n      exp\n      swap1\n      div\n      0xffffffffffffffffffffffffffffffffffffffff\n      and\n      dup2\n      jump\t// out\n        /* \"Inbox.sol\":1952:1978  Request[] public myRequsts */\n    tag_167:\n      0x14\n      dup2\n      dup2\n      sload\n      dup2\n      lt\n      tag_312\n      jumpi\n      0x00\n      dup1\n      revert\n    tag_312:\n      swap1\n      0x00\n      mstore\n      keccak256(0x00, 0x20)\n      swap1\n      0x06\n      mul\n      add\n      0x00\n      swap2\n      pop\n      swap1\n      pop\n      dup1\n      0x00\n      add\n      dup1\n      sload\n      tag_314\n      swap1\n      tag_189\n      jump\t// in\n    tag_314:\n      dup1\n      0x1f\n      add\n      0x20\n      dup1\n      swap2\n      div\n      mul\n      0x20\n      add\n      mload(0x40)\n      swap1\n      dup2\n      add\n      0x40\n      mstore\n      dup1\n      swap3\n      swap2\n      swap1\n      dup2\n      dup2\n      mstore\n      0x20\n      add\n      dup3\n      dup1\n      sload\n      tag_315\n      swap1\n      tag_189\n      jump\t// in\n    tag_315:\n      dup1\n      iszero\n      tag_316\n      jumpi\n      dup1\n      0x1f\n      lt\n      tag_317\n      jumpi\n      0x0100\n      dup1\n      dup4\n      sload\n      div\n      mul\n      dup4\n      mstore\n      swap2\n      0x20\n      add\n      swap2\n      jump(tag_316)\n    tag_317:\n      dup3\n      add\n      swap2\n      swap1\n      0x00\n      mstore\n      keccak256(0x00, 0x20)\n      swap1\n    tag_318:\n      dup2\n      sload\n      dup2\n      mstore\n      swap1\n      0x01\n      add\n      swap1\n      0x20\n      add\n      dup1\n      dup4\n      gt\n      tag_318\n      jumpi\n      dup3\n      swap1\n      sub\n      0x1f\n      and\n      dup3\n      add\n      swap2\n    tag_316:\n      pop\n      pop\n      pop\n      pop\n      pop\n      swap1\n      dup1\n      0x01\n      add\n      dup1\n      sload\n      tag_319\n      swap1\n      tag_189\n      jump\t// in\n    tag_319:\n      dup1\n      0x1f\n      add\n      0x20\n      dup1\n      swap2\n      div\n      mul\n      0x20\n      add\n      mload(0x40)\n      swap1\n      dup2\n      add\n      0x40\n      mstore\n      dup1\n      swap3\n      swap2\n      swap1\n      dup2\n      dup2\n      mstore\n      0x20\n      add\n      dup3\n      dup1\n      sload\n      tag_320\n      swap1\n      tag_189\n      jump\t// in\n    tag_320:\n      dup1\n      iszero\n      tag_321\n      jumpi\n      dup1\n      0x1f\n      lt\n      tag_322\n      jumpi\n      0x0100\n      dup1\n      dup4\n      sload\n      div\n      mul\n      dup4\n      mstore\n      swap2\n      0x20\n      add\n      swap2\n      jump(tag_321)\n    tag_322:\n      dup3\n      add\n      swap2\n      swap1\n      0x00\n      mstore\n      keccak256(0x00, 0x20)\n      swap1\n    tag_323:\n      dup2\n      sload\n      dup2\n      mstore\n      swap1\n      0x01\n      add\n      swap1\n      0x20\n      add\n      dup1\n      dup4\n      gt\n      tag_323\n      jumpi\n      dup3\n      swap1\n      sub\n      0x1f\n      and\n      dup3\n      add\n      swap2\n    tag_321:\n      pop\n      pop\n      pop\n      pop\n      pop\n      swap1\n      dup1\n      0x02\n      add\n      sload\n      swap1\n      dup1\n      0x03\n      add\n      0x00\n      swap1\n      sload\n      swap1\n      0x0100\n      exp\n      swap1\n      div\n      0xff\n      and\n      swap1\n      dup1\n      0x04\n      add\n      sload\n      swap1\n      pop\n      dup6\n      jump\t// out\n        /* \"Inbox.sol\":1487:1513  address[] public Investors */\n    tag_173:\n      0x0a\n      dup2\n      dup2\n      sload\n      dup2\n      lt\n      tag_324\n      jumpi\n      0x00\n      dup1\n      revert\n    tag_324:\n      swap1\n      0x00\n      mstore\n      keccak256(0x00, 0x20)\n      add\n      0x00\n      swap2\n      pop\n      sload\n      swap1\n      0x0100\n      exp\n      swap1\n      div\n      0xffffffffffffffffffffffffffffffffffffffff\n      and\n      dup2\n      jump\t// out\n        /* \"Inbox.sol\":1804:1828  uint256 public timeStart */\n    tag_177:\n      sload(0x10)\n      dup2\n      jump\t// out\n        /* \"Inbox.sol\":1867:1889  uint256 public timeEnd */\n    tag_181:\n      sload(0x12)\n      dup2\n      jump\t// out\n        /* \"Inbox.sol\":4014:5571  function setStakeholders() private {... */\n    tag_232:\n        /* \"Inbox.sol\":4060:4089  address[] memory address_temp */\n      0x00\n        /* \"Inbox.sol\":4106:4121  numStakeholders */\n      sload(0x03)\n        /* \"Inbox.sol\":4092:4122  new address[](numStakeholders) */\n      0xffffffffffffffff\n      dup2\n      gt\n      iszero\n      tag_327\n      jumpi\n      tag_328\n      tag_329\n      jump\t// in\n    tag_328:\n    tag_327:\n      mload(0x40)\n      swap1\n      dup1\n      dup3\n      mstore\n      dup1\n      0x20\n      mul\n      0x20\n      add\n      dup3\n      add\n      0x40\n      mstore\n      dup1\n      iszero\n      tag_330\n      jumpi\n      dup2\n      0x20\n      add\n      0x20\n      dup3\n      mul\n      dup1\n      calldatasize\n      dup4\n      calldatacopy\n      dup1\n      dup3\n      add\n      swap2\n      pop\n      pop\n      swap1\n      pop\n    tag_330:\n      pop\n        /* \"Inbox.sol\":4060:4122  address[] memory address_temp = new address[](numStakeholders) */\n      swap1\n      pop\n        /* \"Inbox.sol\":4133:4157  uint[] memory value_temp */\n      0x00\n        /* \"Inbox.sol\":4171:4186  numStakeholders */\n      sload(0x03)\n        /* \"Inbox.sol\":4160:4187  new uint[](numStakeholders) */\n      0xffffffffffffffff\n      dup2\n      gt\n      iszero\n      tag_331\n      jumpi\n      tag_332\n      tag_329\n      jump\t// in\n    tag_332:\n    tag_331:\n      mload(0x40)\n      swap1\n      dup1\n      dup3\n      mstore\n      dup1\n      0x20\n      mul\n      0x20\n      add\n      dup3\n      add\n      0x40\n      mstore\n      dup1\n      iszero\n      tag_333\n      jumpi\n      dup2\n      0x20\n      add\n      0x20\n      dup3\n      mul\n      dup1\n      calldatasize\n      dup4\n      calldatacopy\n      dup1\n      dup3\n      add\n      swap2\n      pop\n      pop\n      swap1\n      pop\n    tag_333:\n      pop\n        /* \"Inbox.sol\":4133:4187  uint[] memory value_temp = new uint[](numStakeholders) */\n      swap1\n      pop\n        /* \"Inbox.sol\":4198:4206  uint min */\n      0x00\n        /* \"Inbox.sol\":4217:4225  uint pos */\n      dup1\n        /* \"Inbox.sol\":4228:4229  0 */\n      0x00\n        /* \"Inbox.sol\":4217:4229  uint pos = 0 */\n      swap1\n      pop\n        /* \"Inbox.sol\":4240:4253  uint temp_val */\n      0x00\n        /* \"Inbox.sol\":4264:4276  address temp */\n      dup1\n        /* \"Inbox.sol\":4279:4288  Investors */\n      0x0a\n        /* \"Inbox.sol\":4289:4290  0 */\n      0x00\n        /* \"Inbox.sol\":4279:4291  Investors[0] */\n      dup2\n      sload\n      dup2\n      lt\n      tag_334\n      jumpi\n      tag_335\n      tag_186\n      jump\t// in\n    tag_335:\n    tag_334:\n      swap1\n      0x00\n      mstore\n      keccak256(0x00, 0x20)\n      add\n      0x00\n      swap1\n      sload\n      swap1\n      0x0100\n      exp\n      swap1\n      div\n      0xffffffffffffffffffffffffffffffffffffffff\n      and\n        /* \"Inbox.sol\":4264:4291  address temp = Investors[0] */\n      swap1\n      pop\n        /* \"Inbox.sol\":4320:4324  temp */\n      dup1\n        /* \"Inbox.sol\":4302:4314  address_temp */\n      dup7\n        /* \"Inbox.sol\":4315:4316  0 */\n      0x00\n        /* \"Inbox.sol\":4302:4317  address_temp[0] */\n      dup2\n      mload\n      dup2\n      lt\n      tag_337\n      jumpi\n      tag_338\n      tag_186\n      jump\t// in\n    tag_338:\n    tag_337:\n      0x20\n      mul\n      0x20\n      add\n      add\n        /* \"Inbox.sol\":4302:4324  address_temp[0] = temp */\n      swap1\n      0xffffffffffffffffffffffffffffffffffffffff\n      and\n      swap1\n      dup2\n      0xffffffffffffffffffffffffffffffffffffffff\n      and\n      dup2\n      mstore\n      pop\n      pop\n        /* \"Inbox.sol\":4341:4351  Investment */\n      0x0c\n        /* \"Inbox.sol\":4341:4357  Investment[temp] */\n      0x00\n        /* \"Inbox.sol\":4352:4356  temp */\n      dup3\n        /* \"Inbox.sol\":4341:4357  Investment[temp] */\n      0xffffffffffffffffffffffffffffffffffffffff\n      and\n      0xffffffffffffffffffffffffffffffffffffffff\n      and\n      dup2\n      mstore\n      0x20\n      add\n      swap1\n      dup2\n      mstore\n      0x20\n      add\n      0x00\n      keccak256\n      sload\n        /* \"Inbox.sol\":4335:4357  min = Investment[temp] */\n      swap4\n      pop\n        /* \"Inbox.sol\":4384:4387  min */\n      dup4\n        /* \"Inbox.sol\":4368:4378  value_temp */\n      dup6\n        /* \"Inbox.sol\":4379:4380  0 */\n      0x00\n        /* \"Inbox.sol\":4368:4381  value_temp[0] */\n      dup2\n      mload\n      dup2\n      lt\n      tag_339\n      jumpi\n      tag_340\n      tag_186\n      jump\t// in\n    tag_340:\n    tag_339:\n      0x20\n      mul\n      0x20\n      add\n      add\n        /* \"Inbox.sol\":4368:4387  value_temp[0] = min */\n      dup2\n      dup2\n      mstore\n      pop\n      pop\n        /* \"Inbox.sol\":4403:4409  uint i */\n      0x00\n        /* \"Inbox.sol\":4412:4413  1 */\n      0x01\n        /* \"Inbox.sol\":4403:4413  uint i = 1 */\n      swap1\n      pop\n        /* \"Inbox.sol\":4398:4851  for (uint i = 1; i < numStakeholders; i++) {... */\n    tag_341:\n        /* \"Inbox.sol\":4419:4434  numStakeholders */\n      sload(0x03)\n        /* \"Inbox.sol\":4415:4416  i */\n      dup2\n        /* \"Inbox.sol\":4415:4434  i < numStakeholders */\n      lt\n        /* \"Inbox.sol\":4398:4851  for (uint i = 1; i < numStakeholders; i++) {... */\n      iszero\n      tag_342\n      jumpi\n        /* \"Inbox.sol\":4522:4531  Investors */\n      0x0a\n        /* \"Inbox.sol\":4532:4533  i */\n      dup2\n        /* \"Inbox.sol\":4522:4534  Investors[i] */\n      dup2\n      sload\n      dup2\n      lt\n      tag_344\n      jumpi\n      tag_345\n      tag_186\n      jump\t// in\n    tag_345:\n    tag_344:\n      swap1\n      0x00\n      mstore\n      keccak256(0x00, 0x20)\n      add\n      0x00\n      swap1\n      sload\n      swap1\n      0x0100\n      exp\n      swap1\n      div\n      0xffffffffffffffffffffffffffffffffffffffff\n      and\n        /* \"Inbox.sol\":4515:4534  temp = Investors[i] */\n      swap2\n      pop\n        /* \"Inbox.sol\":4581:4585  temp */\n      dup2\n        /* \"Inbox.sol\":4563:4575  address_temp */\n      dup8\n        /* \"Inbox.sol\":4576:4577  i */\n      dup3\n        /* \"Inbox.sol\":4563:4578  address_temp[i] */\n      dup2\n      mload\n      dup2\n      lt\n      tag_347\n      jumpi\n      tag_348\n      tag_186\n      jump\t// in\n    tag_348:\n    tag_347:\n      0x20\n      mul\n      0x20\n      add\n      add\n        /* \"Inbox.sol\":4563:4585  address_temp[i] = temp */\n      swap1\n      0xffffffffffffffffffffffffffffffffffffffff\n      and\n      swap1\n      dup2\n      0xffffffffffffffffffffffffffffffffffffffff\n      and\n      dup2\n      mstore\n      pop\n      pop\n        /* \"Inbox.sol\":4635:4645  Investment */\n      0x0c\n        /* \"Inbox.sol\":4635:4651  Investment[temp] */\n      0x00\n        /* \"Inbox.sol\":4646:4650  temp */\n      dup4\n        /* \"Inbox.sol\":4635:4651  Investment[temp] */\n      0xffffffffffffffffffffffffffffffffffffffff\n      and\n      0xffffffffffffffffffffffffffffffffffffffff\n      and\n      dup2\n      mstore\n      0x20\n      add\n      swap1\n      dup2\n      mstore\n      0x20\n      add\n      0x00\n      keccak256\n      sload\n        /* \"Inbox.sol\":4624:4651  temp_val = Investment[temp] */\n      swap3\n      pop\n        /* \"Inbox.sol\":4706:4714  temp_val */\n      dup3\n        /* \"Inbox.sol\":4690:4700  value_temp */\n      dup7\n        /* \"Inbox.sol\":4701:4702  i */\n      dup3\n        /* \"Inbox.sol\":4690:4703  value_temp[i] */\n      dup2\n      mload\n      dup2\n      lt\n      tag_349\n      jumpi\n      tag_350\n      tag_186\n      jump\t// in\n    tag_350:\n    tag_349:\n      0x20\n      mul\n      0x20\n      add\n      add\n        /* \"Inbox.sol\":4690:4714  value_temp[i] = temp_val */\n      dup2\n      dup2\n      mstore\n      pop\n      pop\n        /* \"Inbox.sol\":4755:4763  temp_val */\n      dup3\n        /* \"Inbox.sol\":4749:4752  min */\n      dup6\n        /* \"Inbox.sol\":4749:4763  min > temp_val */\n      gt\n        /* \"Inbox.sol\":4745:4840  if (min > temp_val) {... */\n      iszero\n      tag_351\n      jumpi\n        /* \"Inbox.sol\":4790:4798  temp_val */\n      dup3\n        /* \"Inbox.sol\":4784:4798  min = temp_val */\n      swap5\n      pop\n        /* \"Inbox.sol\":4823:4824  i */\n      dup1\n        /* \"Inbox.sol\":4817:4824  pos = i */\n      swap4\n      pop\n        /* \"Inbox.sol\":4745:4840  if (min > temp_val) {... */\n    tag_351:\n        /* \"Inbox.sol\":4436:4439  i++ */\n      dup1\n      dup1\n      tag_352\n      swap1\n      tag_230\n      jump\t// in\n    tag_352:\n      swap2\n      pop\n      pop\n        /* \"Inbox.sol\":4398:4851  for (uint i = 1; i < numStakeholders; i++) {... */\n      jump(tag_341)\n    tag_342:\n      pop\n        /* \"Inbox.sol\":4868:4874  uint i */\n      0x00\n        /* \"Inbox.sol\":4877:4892  numStakeholders */\n      sload(0x03)\n        /* \"Inbox.sol\":4868:4892  uint i = numStakeholders */\n      swap1\n      pop\n        /* \"Inbox.sol\":4863:5446  for (uint i = numStakeholders; i < Investors.length; i++) {... */\n    tag_353:\n        /* \"Inbox.sol\":4898:4907  Investors */\n      0x0a\n        /* \"Inbox.sol\":4898:4914  Investors.length */\n      dup1\n      sload\n      swap1\n      pop\n        /* \"Inbox.sol\":4894:4895  i */\n      dup2\n        /* \"Inbox.sol\":4894:4914  i < Investors.length */\n      lt\n        /* \"Inbox.sol\":4863:5446  for (uint i = numStakeholders; i < Investors.length; i++) {... */\n      iszero\n      tag_354\n      jumpi\n        /* \"Inbox.sol\":4943:4952  Investors */\n      0x0a\n        /* \"Inbox.sol\":4953:4954  i */\n      dup2\n        /* \"Inbox.sol\":4943:4955  Investors[i] */\n      dup2\n      sload\n      dup2\n      lt\n      tag_356\n      jumpi\n      tag_357\n      tag_186\n      jump\t// in\n    tag_357:\n    tag_356:\n      swap1\n      0x00\n      mstore\n      keccak256(0x00, 0x20)\n      add\n      0x00\n      swap1\n      sload\n      swap1\n      0x0100\n      exp\n      swap1\n      div\n      0xffffffffffffffffffffffffffffffffffffffff\n      and\n        /* \"Inbox.sol\":4936:4955  temp = Investors[i] */\n      swap2\n      pop\n        /* \"Inbox.sol\":4996:5006  Investment */\n      0x0c\n        /* \"Inbox.sol\":4996:5012  Investment[temp] */\n      0x00\n        /* \"Inbox.sol\":5007:5011  temp */\n      dup4\n        /* \"Inbox.sol\":4996:5012  Investment[temp] */\n      0xffffffffffffffffffffffffffffffffffffffff\n      and\n      0xffffffffffffffffffffffffffffffffffffffff\n      and\n      dup2\n      mstore\n      0x20\n      add\n      swap1\n      dup2\n      mstore\n      0x20\n      add\n      0x00\n      keccak256\n      sload\n        /* \"Inbox.sol\":4985:5012  temp_val = Investment[temp] */\n      swap3\n      pop\n        /* \"Inbox.sol\":5061:5064  min */\n      dup5\n        /* \"Inbox.sol\":5050:5058  temp_val */\n      dup4\n        /* \"Inbox.sol\":5050:5064  temp_val > min */\n      gt\n        /* \"Inbox.sol\":5046:5435  if (temp_val > min) {... */\n      iszero\n      tag_359\n      jumpi\n        /* \"Inbox.sol\":5105:5109  temp */\n      dup2\n        /* \"Inbox.sol\":5085:5097  address_temp */\n      dup8\n        /* \"Inbox.sol\":5098:5101  pos */\n      dup6\n        /* \"Inbox.sol\":5085:5102  address_temp[pos] */\n      dup2\n      mload\n      dup2\n      lt\n      tag_360\n      jumpi\n      tag_361\n      tag_186\n      jump\t// in\n    tag_361:\n    tag_360:\n      0x20\n      mul\n      0x20\n      add\n      add\n        /* \"Inbox.sol\":5085:5109  address_temp[pos] = temp */\n      swap1\n      0xffffffffffffffffffffffffffffffffffffffff\n      and\n      swap1\n      dup2\n      0xffffffffffffffffffffffffffffffffffffffff\n      and\n      dup2\n      mstore\n      pop\n      pop\n        /* \"Inbox.sol\":5146:5154  temp_val */\n      dup3\n        /* \"Inbox.sol\":5128:5138  value_temp */\n      dup7\n        /* \"Inbox.sol\":5139:5142  pos */\n      dup6\n        /* \"Inbox.sol\":5128:5143  value_temp[pos] */\n      dup2\n      mload\n      dup2\n      lt\n      tag_362\n      jumpi\n      tag_363\n      tag_186\n      jump\t// in\n    tag_363:\n    tag_362:\n      0x20\n      mul\n      0x20\n      add\n      add\n        /* \"Inbox.sol\":5128:5154  value_temp[pos] = temp_val */\n      dup2\n      dup2\n      mstore\n      pop\n      pop\n        /* \"Inbox.sol\":5179:5187  temp_val */\n      dup3\n        /* \"Inbox.sol\":5173:5187  min = temp_val */\n      swap5\n      pop\n        /* \"Inbox.sol\":5211:5217  uint j */\n      0x00\n        /* \"Inbox.sol\":5206:5420  for (uint j = 0; j < numStakeholders; j++) {... */\n    tag_364:\n        /* \"Inbox.sol\":5227:5242  numStakeholders */\n      sload(0x03)\n        /* \"Inbox.sol\":5223:5224  j */\n      dup2\n        /* \"Inbox.sol\":5223:5242  j < numStakeholders */\n      lt\n        /* \"Inbox.sol\":5206:5420  for (uint j = 0; j < numStakeholders; j++) {... */\n      iszero\n      tag_365\n      jumpi\n        /* \"Inbox.sol\":5292:5295  min */\n      dup6\n        /* \"Inbox.sol\":5276:5286  value_temp */\n      dup8\n        /* \"Inbox.sol\":5287:5288  j */\n      dup3\n        /* \"Inbox.sol\":5276:5289  value_temp[j] */\n      dup2\n      mload\n      dup2\n      lt\n      tag_367\n      jumpi\n      tag_368\n      tag_186\n      jump\t// in\n    tag_368:\n    tag_367:\n      0x20\n      mul\n      0x20\n      add\n      add\n      mload\n        /* \"Inbox.sol\":5276:5295  value_temp[j] < min */\n      lt\n        /* \"Inbox.sol\":5272:5401  if (value_temp[j] < min) {... */\n      iszero\n      tag_369\n      jumpi\n        /* \"Inbox.sol\":5330:5340  value_temp */\n      dup7\n        /* \"Inbox.sol\":5341:5342  j */\n      dup2\n        /* \"Inbox.sol\":5330:5343  value_temp[j] */\n      dup2\n      mload\n      dup2\n      lt\n      tag_370\n      jumpi\n      tag_371\n      tag_186\n      jump\t// in\n    tag_371:\n    tag_370:\n      0x20\n      mul\n      0x20\n      add\n      add\n      mload\n        /* \"Inbox.sol\":5324:5343  min = value_temp[j] */\n      swap6\n      pop\n        /* \"Inbox.sol\":5376:5377  j */\n      dup1\n        /* \"Inbox.sol\":5370:5377  pos = j */\n      swap5\n      pop\n        /* \"Inbox.sol\":5272:5401  if (value_temp[j] < min) {... */\n    tag_369:\n        /* \"Inbox.sol\":5244:5247  j++ */\n      dup1\n      dup1\n      tag_372\n      swap1\n      tag_230\n      jump\t// in\n    tag_372:\n      swap2\n      pop\n      pop\n        /* \"Inbox.sol\":5206:5420  for (uint j = 0; j < numStakeholders; j++) {... */\n      jump(tag_364)\n    tag_365:\n      pop\n        /* \"Inbox.sol\":5046:5435  if (temp_val > min) {... */\n    tag_359:\n        /* \"Inbox.sol\":4916:4919  i++ */\n      dup1\n      dup1\n      tag_373\n      swap1\n      tag_230\n      jump\t// in\n    tag_373:\n      swap2\n      pop\n      pop\n        /* \"Inbox.sol\":4863:5446  for (uint i = numStakeholders; i < Investors.length; i++) {... */\n      jump(tag_353)\n    tag_354:\n      pop\n        /* \"Inbox.sol\":5463:5469  uint i */\n      0x00\n        /* \"Inbox.sol\":5458:5564  for (uint i = 0; i < numStakeholders; i++) {... */\n    tag_374:\n        /* \"Inbox.sol\":5479:5494  numStakeholders */\n      sload(0x03)\n        /* \"Inbox.sol\":5475:5476  i */\n      dup2\n        /* \"Inbox.sol\":5475:5494  i < numStakeholders */\n      lt\n        /* \"Inbox.sol\":5458:5564  for (uint i = 0; i < numStakeholders; i++) {... */\n      iszero\n      tag_375\n      jumpi\n        /* \"Inbox.sol\":5548:5552  true */\n      0x01\n        /* \"Inbox.sol\":5516:5528  Stakeholders */\n      0x07\n        /* \"Inbox.sol\":5516:5545  Stakeholders[address_temp[i]] */\n      0x00\n        /* \"Inbox.sol\":5529:5541  address_temp */\n      dup10\n        /* \"Inbox.sol\":5542:5543  i */\n      dup5\n        /* \"Inbox.sol\":5529:5544  address_temp[i] */\n      dup2\n      mload\n      dup2\n      lt\n      tag_377\n      jumpi\n      tag_378\n      tag_186\n      jump\t// in\n    tag_378:\n    tag_377:\n      0x20\n      mul\n      0x20\n      add\n      add\n      mload\n        /* \"Inbox.sol\":5516:5545  Stakeholders[address_temp[i]] */\n      0xffffffffffffffffffffffffffffffffffffffff\n      and\n      0xffffffffffffffffffffffffffffffffffffffff\n      and\n      dup2\n      mstore\n      0x20\n      add\n      swap1\n      dup2\n      mstore\n      0x20\n      add\n      0x00\n      keccak256\n      0x00\n        /* \"Inbox.sol\":5516:5552  Stakeholders[address_temp[i]] = true */\n      0x0100\n      exp\n      dup2\n      sload\n      dup2\n      0xff\n      mul\n      not\n      and\n      swap1\n      dup4\n      iszero\n      iszero\n      mul\n      or\n      swap1\n      sstore\n      pop\n        /* \"Inbox.sol\":5496:5499  i++ */\n      dup1\n      dup1\n      tag_379\n      swap1\n      tag_230\n      jump\t// in\n    tag_379:\n      swap2\n      pop\n      pop\n        /* \"Inbox.sol\":5458:5564  for (uint i = 0; i < numStakeholders; i++) {... */\n      jump(tag_374)\n    tag_375:\n      pop\n        /* \"Inbox.sol\":4049:5571  {... */\n      pop\n      pop\n      pop\n      pop\n      pop\n      pop\n        /* \"Inbox.sol\":4014:5571  function setStakeholders() private {... */\n      jump\t// out\n        /* \"Inbox.sol\":7759:8150  function fixPercent(uint leftPercent) private {... */\n    tag_292:\n        /* \"Inbox.sol\":7816:7835  uint totalPercented */\n      0x00\n        /* \"Inbox.sol\":7845:7856  leftPercent */\n      dup2\n        /* \"Inbox.sol\":7838:7842  1000 */\n      0x03e8\n        /* \"Inbox.sol\":7838:7856  1000 - leftPercent */\n      tag_381\n      swap2\n      swap1\n      tag_203\n      jump\t// in\n    tag_381:\n        /* \"Inbox.sol\":7816:7856  uint totalPercented = 1000 - leftPercent */\n      swap1\n      pop\n        /* \"Inbox.sol\":7872:7878  uint i */\n      0x00\n        /* \"Inbox.sol\":7867:8143  for (uint i = 0; i < Investors.length; i++) {... */\n    tag_382:\n        /* \"Inbox.sol\":7888:7897  Investors */\n      0x0a\n        /* \"Inbox.sol\":7888:7904  Investors.length */\n      dup1\n      sload\n      swap1\n      pop\n        /* \"Inbox.sol\":7884:7885  i */\n      dup2\n        /* \"Inbox.sol\":7884:7904  i < Investors.length */\n      lt\n        /* \"Inbox.sol\":7867:8143  for (uint i = 0; i < Investors.length; i++) {... */\n      iszero\n      tag_383\n      jumpi\n        /* \"Inbox.sol\":7926:7938  address user */\n      0x00\n        /* \"Inbox.sol\":7941:7950  Investors */\n      0x0a\n        /* \"Inbox.sol\":7951:7952  i */\n      dup3\n        /* \"Inbox.sol\":7941:7953  Investors[i] */\n      dup2\n      sload\n      dup2\n      lt\n      tag_385\n      jumpi\n      tag_386\n      tag_186\n      jump\t// in\n    tag_386:\n    tag_385:\n      swap1\n      0x00\n      mstore\n      keccak256(0x00, 0x20)\n      add\n      0x00\n      swap1\n      sload\n      swap1\n      0x0100\n      exp\n      swap1\n      div\n      0xffffffffffffffffffffffffffffffffffffffff\n      and\n        /* \"Inbox.sol\":7926:7953  address user = Investors[i] */\n      swap1\n      pop\n        /* \"Inbox.sol\":7988:7993  false */\n      0x00\n        /* \"Inbox.sol\":7972:7993  lefted[user] == false */\n      iszero\n      iszero\n        /* \"Inbox.sol\":7972:7978  lefted */\n      0x0e\n        /* \"Inbox.sol\":7972:7984  lefted[user] */\n      0x00\n        /* \"Inbox.sol\":7979:7983  user */\n      dup4\n        /* \"Inbox.sol\":7972:7984  lefted[user] */\n      0xffffffffffffffffffffffffffffffffffffffff\n      and\n      0xffffffffffffffffffffffffffffffffffffffff\n      and\n      dup2\n      mstore\n      0x20\n      add\n      swap1\n      dup2\n      mstore\n      0x20\n      add\n      0x00\n      keccak256\n      0x00\n      swap1\n      sload\n      swap1\n      0x0100\n      exp\n      swap1\n      div\n      0xff\n      and\n        /* \"Inbox.sol\":7972:7993  lefted[user] == false */\n      iszero\n      iszero\n      sub\n        /* \"Inbox.sol\":7968:8132  if (lefted[user] == false) {... */\n      tag_388\n      jumpi\n        /* \"Inbox.sol\":8014:8025  uint newVal */\n      0x00\n        /* \"Inbox.sol\":8057:8071  totalPercented */\n      dup4\n        /* \"Inbox.sol\":8049:8053  1000 */\n      0x03e8\n        /* \"Inbox.sol\":8030:8040  ownPercent */\n      0x0d\n        /* \"Inbox.sol\":8030:8046  ownPercent[user] */\n      0x00\n        /* \"Inbox.sol\":8041:8045  user */\n      dup6\n        /* \"Inbox.sol\":8030:8046  ownPercent[user] */\n      0xffffffffffffffffffffffffffffffffffffffff\n      and\n      0xffffffffffffffffffffffffffffffffffffffff\n      and\n      dup2\n      mstore\n      0x20\n      add\n      swap1\n      dup2\n      mstore\n      0x20\n      add\n      0x00\n      keccak256\n      sload\n        /* \"Inbox.sol\":8030:8053  ownPercent[user] * 1000 */\n      tag_389\n      swap2\n      swap1\n      tag_205\n      jump\t// in\n    tag_389:\n        /* \"Inbox.sol\":8029:8071  (ownPercent[user] * 1000) / totalPercented */\n      tag_390\n      swap2\n      swap1\n      tag_207\n      jump\t// in\n    tag_390:\n        /* \"Inbox.sol\":8014:8072  uint newVal = ((ownPercent[user] * 1000) / totalPercented) */\n      swap1\n      pop\n        /* \"Inbox.sol\":8110:8116  newVal */\n      dup1\n        /* \"Inbox.sol\":8091:8101  ownPercent */\n      0x0d\n        /* \"Inbox.sol\":8091:8107  ownPercent[user] */\n      0x00\n        /* \"Inbox.sol\":8102:8106  user */\n      dup5\n        /* \"Inbox.sol\":8091:8107  ownPercent[user] */\n      0xffffffffffffffffffffffffffffffffffffffff\n      and\n      0xffffffffffffffffffffffffffffffffffffffff\n      and\n      dup2\n      mstore\n      0x20\n      add\n      swap1\n      dup2\n      mstore\n      0x20\n      add\n      0x00\n      keccak256\n        /* \"Inbox.sol\":8091:8116  ownPercent[user] = newVal */\n      dup2\n      swap1\n      sstore\n      pop\n        /* \"Inbox.sol\":7995:8132  {... */\n      pop\n        /* \"Inbox.sol\":7968:8132  if (lefted[user] == false) {... */\n    tag_388:\n        /* \"Inbox.sol\":7911:8143  {... */\n      pop\n        /* \"Inbox.sol\":7906:7909  i++ */\n      dup1\n      dup1\n      tag_391\n      swap1\n      tag_230\n      jump\t// in\n    tag_391:\n      swap2\n      pop\n      pop\n        /* \"Inbox.sol\":7867:8143  for (uint i = 0; i < Investors.length; i++) {... */\n      jump(tag_382)\n    tag_383:\n      pop\n        /* \"Inbox.sol\":7805:8150  {... */\n      pop\n        /* \"Inbox.sol\":7759:8150  function fixPercent(uint leftPercent) private {... */\n      pop\n      jump\t// out\n        /* \"#utility.yul\":7:82   */\n    tag_392:\n        /* \"#utility.yul\":40:46   */\n      0x00\n        /* \"#utility.yul\":73:75   */\n      0x40\n        /* \"#utility.yul\":67:76   */\n      mload\n        /* \"#utility.yul\":57:76   */\n      swap1\n      pop\n        /* \"#utility.yul\":7:82   */\n      swap1\n      jump\t// out\n        /* \"#utility.yul\":88:205   */\n    tag_393:\n        /* \"#utility.yul\":197:198   */\n      0x00\n        /* \"#utility.yul\":194:195   */\n      dup1\n        /* \"#utility.yul\":187:199   */\n      revert\n        /* \"#utility.yul\":211:328   */\n    tag_394:\n        /* \"#utility.yul\":320:321   */\n      0x00\n        /* \"#utility.yul\":317:318   */\n      dup1\n        /* \"#utility.yul\":310:322   */\n      revert\n        /* \"#utility.yul\":334:411   */\n    tag_395:\n        /* \"#utility.yul\":371:378   */\n      0x00\n        /* \"#utility.yul\":400:405   */\n      dup2\n        /* \"#utility.yul\":389:405   */\n      swap1\n      pop\n        /* \"#utility.yul\":334:411   */\n      swap2\n      swap1\n      pop\n      jump\t// out\n        /* \"#utility.yul\":417:539   */\n    tag_396:\n        /* \"#utility.yul\":490:514   */\n      tag_443\n        /* \"#utility.yul\":508:513   */\n      dup2\n        /* \"#utility.yul\":490:514   */\n      tag_395\n      jump\t// in\n    tag_443:\n        /* \"#utility.yul\":483:488   */\n      dup2\n        /* \"#utility.yul\":480:515   */\n      eq\n        /* \"#utility.yul\":470:533   */\n      tag_444\n      jumpi\n        /* \"#utility.yul\":529:530   */\n      0x00\n        /* \"#utility.yul\":526:527   */\n      dup1\n        /* \"#utility.yul\":519:531   */\n      revert\n        /* \"#utility.yul\":470:533   */\n    tag_444:\n        /* \"#utility.yul\":417:539   */\n      pop\n      jump\t// out\n        /* \"#utility.yul\":545:684   */\n    tag_397:\n        /* \"#utility.yul\":591:596   */\n      0x00\n        /* \"#utility.yul\":629:635   */\n      dup2\n        /* \"#utility.yul\":616:636   */\n      calldataload\n        /* \"#utility.yul\":607:636   */\n      swap1\n      pop\n        /* \"#utility.yul\":645:678   */\n      tag_446\n        /* \"#utility.yul\":672:677   */\n      dup2\n        /* \"#utility.yul\":645:678   */\n      tag_396\n      jump\t// in\n    tag_446:\n        /* \"#utility.yul\":545:684   */\n      swap3\n      swap2\n      pop\n      pop\n      jump\t// out\n        /* \"#utility.yul\":690:816   */\n    tag_398:\n        /* \"#utility.yul\":727:734   */\n      0x00\n        /* \"#utility.yul\":767:809   */\n      0xffffffffffffffffffffffffffffffffffffffff\n        /* \"#utility.yul\":760:765   */\n      dup3\n        /* \"#utility.yul\":756:810   */\n      and\n        /* \"#utility.yul\":745:810   */\n      swap1\n      pop\n        /* \"#utility.yul\":690:816   */\n      swap2\n      swap1\n      pop\n      jump\t// out\n        /* \"#utility.yul\":822:918   */\n    tag_399:\n        /* \"#utility.yul\":859:866   */\n      0x00\n        /* \"#utility.yul\":888:912   */\n      tag_449\n        /* \"#utility.yul\":906:911   */\n      dup3\n        /* \"#utility.yul\":888:912   */\n      tag_398\n      jump\t// in\n    tag_449:\n        /* \"#utility.yul\":877:912   */\n      swap1\n      pop\n        /* \"#utility.yul\":822:918   */\n      swap2\n      swap1\n      pop\n      jump\t// out\n        /* \"#utility.yul\":924:1046   */\n    tag_400:\n        /* \"#utility.yul\":997:1021   */\n      tag_451\n        /* \"#utility.yul\":1015:1020   */\n      dup2\n        /* \"#utility.yul\":997:1021   */\n      tag_399\n      jump\t// in\n    tag_451:\n        /* \"#utility.yul\":990:995   */\n      dup2\n        /* \"#utility.yul\":987:1022   */\n      eq\n        /* \"#utility.yul\":977:1040   */\n      tag_452\n      jumpi\n        /* \"#utility.yul\":1036:1037   */\n      0x00\n        /* \"#utility.yul\":1033:1034   */\n      dup1\n        /* \"#utility.yul\":1026:1038   */\n      revert\n        /* \"#utility.yul\":977:1040   */\n    tag_452:\n        /* \"#utility.yul\":924:1046   */\n      pop\n      jump\t// out\n        /* \"#utility.yul\":1052:1191   */\n    tag_401:\n        /* \"#utility.yul\":1098:1103   */\n      0x00\n        /* \"#utility.yul\":1136:1142   */\n      dup2\n        /* \"#utility.yul\":1123:1143   */\n      calldataload\n        /* \"#utility.yul\":1114:1143   */\n      swap1\n      pop\n        /* \"#utility.yul\":1152:1185   */\n      tag_454\n        /* \"#utility.yul\":1179:1184   */\n      dup2\n        /* \"#utility.yul\":1152:1185   */\n      tag_400\n      jump\t// in\n    tag_454:\n        /* \"#utility.yul\":1052:1191   */\n      swap3\n      swap2\n      pop\n      pop\n      jump\t// out\n        /* \"#utility.yul\":1197:1671   */\n    tag_44:\n        /* \"#utility.yul\":1265:1271   */\n      0x00\n        /* \"#utility.yul\":1273:1279   */\n      dup1\n        /* \"#utility.yul\":1322:1324   */\n      0x40\n        /* \"#utility.yul\":1310:1319   */\n      dup4\n        /* \"#utility.yul\":1301:1308   */\n      dup6\n        /* \"#utility.yul\":1297:1320   */\n      sub\n        /* \"#utility.yul\":1293:1325   */\n      slt\n        /* \"#utility.yul\":1290:1409   */\n      iszero\n      tag_456\n      jumpi\n        /* \"#utility.yul\":1328:1407   */\n      tag_457\n      tag_393\n      jump\t// in\n    tag_457:\n        /* \"#utility.yul\":1290:1409   */\n    tag_456:\n        /* \"#utility.yul\":1448:1449   */\n      0x00\n        /* \"#utility.yul\":1473:1526   */\n      tag_458\n        /* \"#utility.yul\":1518:1525   */\n      dup6\n        /* \"#utility.yul\":1509:1515   */\n      dup3\n        /* \"#utility.yul\":1498:1507   */\n      dup7\n        /* \"#utility.yul\":1494:1516   */\n      add\n        /* \"#utility.yul\":1473:1526   */\n      tag_397\n      jump\t// in\n    tag_458:\n        /* \"#utility.yul\":1463:1526   */\n      swap3\n      pop\n        /* \"#utility.yul\":1419:1536   */\n      pop\n        /* \"#utility.yul\":1575:1577   */\n      0x20\n        /* \"#utility.yul\":1601:1654   */\n      tag_459\n        /* \"#utility.yul\":1646:1653   */\n      dup6\n        /* \"#utility.yul\":1637:1643   */\n      dup3\n        /* \"#utility.yul\":1626:1635   */\n      dup7\n        /* \"#utility.yul\":1622:1644   */\n      add\n        /* \"#utility.yul\":1601:1654   */\n      tag_401\n      jump\t// in\n    tag_459:\n        /* \"#utility.yul\":1591:1654   */\n      swap2\n      pop\n        /* \"#utility.yul\":1546:1664   */\n      pop\n        /* \"#utility.yul\":1197:1671   */\n      swap3\n      pop\n      swap3\n      swap1\n      pop\n      jump\t// out\n        /* \"#utility.yul\":1677:1767   */\n    tag_402:\n        /* \"#utility.yul\":1711:1718   */\n      0x00\n        /* \"#utility.yul\":1754:1759   */\n      dup2\n        /* \"#utility.yul\":1747:1760   */\n      iszero\n        /* \"#utility.yul\":1740:1761   */\n      iszero\n        /* \"#utility.yul\":1729:1761   */\n      swap1\n      pop\n        /* \"#utility.yul\":1677:1767   */\n      swap2\n      swap1\n      pop\n      jump\t// out\n        /* \"#utility.yul\":1773:1882   */\n    tag_403:\n        /* \"#utility.yul\":1854:1875   */\n      tag_462\n        /* \"#utility.yul\":1869:1874   */\n      dup2\n        /* \"#utility.yul\":1854:1875   */\n      tag_402\n      jump\t// in\n    tag_462:\n        /* \"#utility.yul\":1849:1852   */\n      dup3\n        /* \"#utility.yul\":1842:1876   */\n      mstore\n        /* \"#utility.yul\":1773:1882   */\n      pop\n      pop\n      jump\t// out\n        /* \"#utility.yul\":1888:2098   */\n    tag_47:\n        /* \"#utility.yul\":1975:1979   */\n      0x00\n        /* \"#utility.yul\":2013:2015   */\n      0x20\n        /* \"#utility.yul\":2002:2011   */\n      dup3\n        /* \"#utility.yul\":1998:2016   */\n      add\n        /* \"#utility.yul\":1990:2016   */\n      swap1\n      pop\n        /* \"#utility.yul\":2026:2091   */\n      tag_464\n        /* \"#utility.yul\":2088:2089   */\n      0x00\n        /* \"#utility.yul\":2077:2086   */\n      dup4\n        /* \"#utility.yul\":2073:2090   */\n      add\n        /* \"#utility.yul\":2064:2070   */\n      dup5\n        /* \"#utility.yul\":2026:2091   */\n      tag_403\n      jump\t// in\n    tag_464:\n        /* \"#utility.yul\":1888:2098   */\n      swap3\n      swap2\n      pop\n      pop\n      jump\t// out\n        /* \"#utility.yul\":2104:2222   */\n    tag_404:\n        /* \"#utility.yul\":2191:2215   */\n      tag_466\n        /* \"#utility.yul\":2209:2214   */\n      dup2\n        /* \"#utility.yul\":2191:2215   */\n      tag_395\n      jump\t// in\n    tag_466:\n        /* \"#utility.yul\":2186:2189   */\n      dup3\n        /* \"#utility.yul\":2179:2216   */\n      mstore\n        /* \"#utility.yul\":2104:2222   */\n      pop\n      pop\n      jump\t// out\n        /* \"#utility.yul\":2228:2450   */\n    tag_52:\n        /* \"#utility.yul\":2321:2325   */\n      0x00\n        /* \"#utility.yul\":2359:2361   */\n      0x20\n        /* \"#utility.yul\":2348:2357   */\n      dup3\n        /* \"#utility.yul\":2344:2362   */\n      add\n        /* \"#utility.yul\":2336:2362   */\n      swap1\n      pop\n        /* \"#utility.yul\":2372:2443   */\n      tag_468\n        /* \"#utility.yul\":2440:2441   */\n      0x00\n        /* \"#utility.yul\":2429:2438   */\n      dup4\n        /* \"#utility.yul\":2425:2442   */\n      add\n        /* \"#utility.yul\":2416:2422   */\n      dup5\n        /* \"#utility.yul\":2372:2443   */\n      tag_404\n      jump\t// in\n    tag_468:\n        /* \"#utility.yul\":2228:2450   */\n      swap3\n      swap2\n      pop\n      pop\n      jump\t// out\n        /* \"#utility.yul\":2456:2555   */\n    tag_405:\n        /* \"#utility.yul\":2508:2514   */\n      0x00\n        /* \"#utility.yul\":2542:2547   */\n      dup2\n        /* \"#utility.yul\":2536:2548   */\n      mload\n        /* \"#utility.yul\":2526:2548   */\n      swap1\n      pop\n        /* \"#utility.yul\":2456:2555   */\n      swap2\n      swap1\n      pop\n      jump\t// out\n        /* \"#utility.yul\":2561:2730   */\n    tag_406:\n        /* \"#utility.yul\":2645:2656   */\n      0x00\n        /* \"#utility.yul\":2679:2685   */\n      dup3\n        /* \"#utility.yul\":2674:2677   */\n      dup3\n        /* \"#utility.yul\":2667:2686   */\n      mstore\n        /* \"#utility.yul\":2719:2723   */\n      0x20\n        /* \"#utility.yul\":2714:2717   */\n      dup3\n        /* \"#utility.yul\":2710:2724   */\n      add\n        /* \"#utility.yul\":2695:2724   */\n      swap1\n      pop\n        /* \"#utility.yul\":2561:2730   */\n      swap3\n      swap2\n      pop\n      pop\n      jump\t// out\n        /* \"#utility.yul\":2736:3043   */\n    tag_407:\n        /* \"#utility.yul\":2804:2805   */\n      0x00\n        /* \"#utility.yul\":2814:2927   */\n    tag_472:\n        /* \"#utility.yul\":2828:2834   */\n      dup4\n        /* \"#utility.yul\":2825:2826   */\n      dup2\n        /* \"#utility.yul\":2822:2835   */\n      lt\n        /* \"#utility.yul\":2814:2927   */\n      iszero\n      tag_474\n      jumpi\n        /* \"#utility.yul\":2913:2914   */\n      dup1\n        /* \"#utility.yul\":2908:2911   */\n      dup3\n        /* \"#utility.yul\":2904:2915   */\n      add\n        /* \"#utility.yul\":2898:2916   */\n      mload\n        /* \"#utility.yul\":2894:2895   */\n      dup2\n        /* \"#utility.yul\":2889:2892   */\n      dup5\n        /* \"#utility.yul\":2885:2896   */\n      add\n        /* \"#utility.yul\":2878:2917   */\n      mstore\n        /* \"#utility.yul\":2850:2852   */\n      0x20\n        /* \"#utility.yul\":2847:2848   */\n      dup2\n        /* \"#utility.yul\":2843:2853   */\n      add\n        /* \"#utility.yul\":2838:2853   */\n      swap1\n      pop\n        /* \"#utility.yul\":2814:2927   */\n      jump(tag_472)\n    tag_474:\n        /* \"#utility.yul\":2945:2951   */\n      dup4\n        /* \"#utility.yul\":2942:2943   */\n      dup2\n        /* \"#utility.yul\":2939:2952   */\n      gt\n        /* \"#utility.yul\":2936:3037   */\n      iszero\n      tag_475\n      jumpi\n        /* \"#utility.yul\":3025:3026   */\n      0x00\n        /* \"#utility.yul\":3016:3022   */\n      dup5\n        /* \"#utility.yul\":3011:3014   */\n      dup5\n        /* \"#utility.yul\":3007:3023   */\n      add\n        /* \"#utility.yul\":3000:3027   */\n      mstore\n        /* \"#utility.yul\":2936:3037   */\n    tag_475:\n        /* \"#utility.yul\":2785:3043   */\n      pop\n        /* \"#utility.yul\":2736:3043   */\n      pop\n      pop\n      pop\n      jump\t// out\n        /* \"#utility.yul\":3049:3151   */\n    tag_408:\n        /* \"#utility.yul\":3090:3096   */\n      0x00\n        /* \"#utility.yul\":3141:3143   */\n      0x1f\n        /* \"#utility.yul\":3137:3144   */\n      not\n        /* \"#utility.yul\":3132:3134   */\n      0x1f\n        /* \"#utility.yul\":3125:3130   */\n      dup4\n        /* \"#utility.yul\":3121:3135   */\n      add\n        /* \"#utility.yul\":3117:3145   */\n      and\n        /* \"#utility.yul\":3107:3145   */\n      swap1\n      pop\n        /* \"#utility.yul\":3049:3151   */\n      swap2\n      swap1\n      pop\n      jump\t// out\n        /* \"#utility.yul\":3157:3521   */\n    tag_409:\n        /* \"#utility.yul\":3245:3248   */\n      0x00\n        /* \"#utility.yul\":3273:3312   */\n      tag_478\n        /* \"#utility.yul\":3306:3311   */\n      dup3\n        /* \"#utility.yul\":3273:3312   */\n      tag_405\n      jump\t// in\n    tag_478:\n        /* \"#utility.yul\":3328:3399   */\n      tag_479\n        /* \"#utility.yul\":3392:3398   */\n      dup2\n        /* \"#utility.yul\":3387:3390   */\n      dup6\n        /* \"#utility.yul\":3328:3399   */\n      tag_406\n      jump\t// in\n    tag_479:\n        /* \"#utility.yul\":3321:3399   */\n      swap4\n      pop\n        /* \"#utility.yul\":3408:3460   */\n      tag_480\n        /* \"#utility.yul\":3453:3459   */\n      dup2\n        /* \"#utility.yul\":3448:3451   */\n      dup6\n        /* \"#utility.yul\":3441:3445   */\n      0x20\n        /* \"#utility.yul\":3434:3439   */\n      dup7\n        /* \"#utility.yul\":3430:3446   */\n      add\n        /* \"#utility.yul\":3408:3460   */\n      tag_407\n      jump\t// in\n    tag_480:\n        /* \"#utility.yul\":3485:3514   */\n      tag_481\n        /* \"#utility.yul\":3507:3513   */\n      dup2\n        /* \"#utility.yul\":3485:3514   */\n      tag_408\n      jump\t// in\n    tag_481:\n        /* \"#utility.yul\":3480:3483   */\n      dup5\n        /* \"#utility.yul\":3476:3515   */\n      add\n        /* \"#utility.yul\":3469:3515   */\n      swap2\n      pop\n        /* \"#utility.yul\":3249:3521   */\n      pop\n        /* \"#utility.yul\":3157:3521   */\n      swap3\n      swap2\n      pop\n      pop\n      jump\t// out\n        /* \"#utility.yul\":3527:3840   */\n    tag_57:\n        /* \"#utility.yul\":3640:3644   */\n      0x00\n        /* \"#utility.yul\":3678:3680   */\n      0x20\n        /* \"#utility.yul\":3667:3676   */\n      dup3\n        /* \"#utility.yul\":3663:3681   */\n      add\n        /* \"#utility.yul\":3655:3681   */\n      swap1\n      pop\n        /* \"#utility.yul\":3727:3736   */\n      dup2\n        /* \"#utility.yul\":3721:3725   */\n      dup2\n        /* \"#utility.yul\":3717:3737   */\n      sub\n        /* \"#utility.yul\":3713:3714   */\n      0x00\n        /* \"#utility.yul\":3702:3711   */\n      dup4\n        /* \"#utility.yul\":3698:3715   */\n      add\n        /* \"#utility.yul\":3691:3738   */\n      mstore\n        /* \"#utility.yul\":3755:3833   */\n      tag_483\n        /* \"#utility.yul\":3828:3832   */\n      dup2\n        /* \"#utility.yul\":3819:3825   */\n      dup5\n        /* \"#utility.yul\":3755:3833   */\n      tag_409\n      jump\t// in\n    tag_483:\n        /* \"#utility.yul\":3747:3833   */\n      swap1\n      pop\n        /* \"#utility.yul\":3527:3840   */\n      swap3\n      swap2\n      pop\n      pop\n      jump\t// out\n        /* \"#utility.yul\":3846:4175   */\n    tag_61:\n        /* \"#utility.yul\":3905:3911   */\n      0x00\n        /* \"#utility.yul\":3954:3956   */\n      0x20\n        /* \"#utility.yul\":3942:3951   */\n      dup3\n        /* \"#utility.yul\":3933:3940   */\n      dup5\n        /* \"#utility.yul\":3929:3952   */\n      sub\n        /* \"#utility.yul\":3925:3957   */\n      slt\n        /* \"#utility.yul\":3922:4041   */\n      iszero\n      tag_485\n      jumpi\n        /* \"#utility.yul\":3960:4039   */\n      tag_486\n      tag_393\n      jump\t// in\n    tag_486:\n        /* \"#utility.yul\":3922:4041   */\n    tag_485:\n        /* \"#utility.yul\":4080:4081   */\n      0x00\n        /* \"#utility.yul\":4105:4158   */\n      tag_487\n        /* \"#utility.yul\":4150:4157   */\n      dup5\n        /* \"#utility.yul\":4141:4147   */\n      dup3\n        /* \"#utility.yul\":4130:4139   */\n      dup6\n        /* \"#utility.yul\":4126:4148   */\n      add\n        /* \"#utility.yul\":4105:4158   */\n      tag_401\n      jump\t// in\n    tag_487:\n        /* \"#utility.yul\":4095:4158   */\n      swap2\n      pop\n        /* \"#utility.yul\":4051:4168   */\n      pop\n        /* \"#utility.yul\":3846:4175   */\n      swap3\n      swap2\n      pop\n      pop\n      jump\t// out\n        /* \"#utility.yul\":4181:4298   */\n    tag_410:\n        /* \"#utility.yul\":4290:4291   */\n      0x00\n        /* \"#utility.yul\":4287:4288   */\n      dup1\n        /* \"#utility.yul\":4280:4292   */\n      revert\n        /* \"#utility.yul\":4304:4421   */\n    tag_411:\n        /* \"#utility.yul\":4413:4414   */\n      0x00\n        /* \"#utility.yul\":4410:4411   */\n      dup1\n        /* \"#utility.yul\":4403:4415   */\n      revert\n        /* \"#utility.yul\":4427:4607   */\n    tag_329:\n        /* \"#utility.yul\":4475:4552   */\n      0x4e487b7100000000000000000000000000000000000000000000000000000000\n        /* \"#utility.yul\":4472:4473   */\n      0x00\n        /* \"#utility.yul\":4465:4553   */\n      mstore\n        /* \"#utility.yul\":4572:4576   */\n      0x41\n        /* \"#utility.yul\":4569:4570   */\n      0x04\n        /* \"#utility.yul\":4562:4577   */\n      mstore\n        /* \"#utility.yul\":4596:4600   */\n      0x24\n        /* \"#utility.yul\":4593:4594   */\n      0x00\n        /* \"#utility.yul\":4586:4601   */\n      revert\n        /* \"#utility.yul\":4613:4894   */\n    tag_412:\n        /* \"#utility.yul\":4696:4723   */\n      tag_492\n        /* \"#utility.yul\":4718:4722   */\n      dup3\n        /* \"#utility.yul\":4696:4723   */\n      tag_408\n      jump\t// in\n    tag_492:\n        /* \"#utility.yul\":4688:4694   */\n      dup2\n        /* \"#utility.yul\":4684:4724   */\n      add\n        /* \"#utility.yul\":4826:4832   */\n      dup2\n        /* \"#utility.yul\":4814:4824   */\n      dup2\n        /* \"#utility.yul\":4811:4833   */\n      lt\n        /* \"#utility.yul\":4790:4808   */\n      0xffffffffffffffff\n        /* \"#utility.yul\":4778:4788   */\n      dup3\n        /* \"#utility.yul\":4775:4809   */\n      gt\n        /* \"#utility.yul\":4772:4834   */\n      or\n        /* \"#utility.yul\":4769:4857   */\n      iszero\n      tag_493\n      jumpi\n        /* \"#utility.yul\":4837:4855   */\n      tag_494\n      tag_329\n      jump\t// in\n    tag_494:\n        /* \"#utility.yul\":4769:4857   */\n    tag_493:\n        /* \"#utility.yul\":4877:4887   */\n      dup1\n        /* \"#utility.yul\":4873:4875   */\n      0x40\n        /* \"#utility.yul\":4866:4888   */\n      mstore\n        /* \"#utility.yul\":4656:4894   */\n      pop\n        /* \"#utility.yul\":4613:4894   */\n      pop\n      pop\n      jump\t// out\n        /* \"#utility.yul\":4900:5029   */\n    tag_413:\n        /* \"#utility.yul\":4934:4940   */\n      0x00\n        /* \"#utility.yul\":4961:4981   */\n      tag_496\n      tag_392\n      jump\t// in\n    tag_496:\n        /* \"#utility.yul\":4951:4981   */\n      swap1\n      pop\n        /* \"#utility.yul\":4990:5023   */\n      tag_497\n        /* \"#utility.yul\":5018:5022   */\n      dup3\n        /* \"#utility.yul\":5010:5016   */\n      dup3\n        /* \"#utility.yul\":4990:5023   */\n      tag_412\n      jump\t// in\n    tag_497:\n        /* \"#utility.yul\":4900:5029   */\n      swap2\n      swap1\n      pop\n      jump\t// out\n        /* \"#utility.yul\":5035:5343   */\n    tag_414:\n        /* \"#utility.yul\":5097:5101   */\n      0x00\n        /* \"#utility.yul\":5187:5205   */\n      0xffffffffffffffff\n        /* \"#utility.yul\":5179:5185   */\n      dup3\n        /* \"#utility.yul\":5176:5206   */\n      gt\n        /* \"#utility.yul\":5173:5229   */\n      iszero\n      tag_499\n      jumpi\n        /* \"#utility.yul\":5209:5227   */\n      tag_500\n      tag_329\n      jump\t// in\n    tag_500:\n        /* \"#utility.yul\":5173:5229   */\n    tag_499:\n        /* \"#utility.yul\":5247:5276   */\n      tag_501\n        /* \"#utility.yul\":5269:5275   */\n      dup3\n        /* \"#utility.yul\":5247:5276   */\n      tag_408\n      jump\t// in\n    tag_501:\n        /* \"#utility.yul\":5239:5276   */\n      swap1\n      pop\n        /* \"#utility.yul\":5331:5335   */\n      0x20\n        /* \"#utility.yul\":5325:5329   */\n      dup2\n        /* \"#utility.yul\":5321:5336   */\n      add\n        /* \"#utility.yul\":5313:5336   */\n      swap1\n      pop\n        /* \"#utility.yul\":5035:5343   */\n      swap2\n      swap1\n      pop\n      jump\t// out\n        /* \"#utility.yul\":5349:5503   */\n    tag_415:\n        /* \"#utility.yul\":5433:5439   */\n      dup3\n        /* \"#utility.yul\":5428:5431   */\n      dup2\n        /* \"#utility.yul\":5423:5426   */\n      dup4\n        /* \"#utility.yul\":5410:5440   */\n      calldatacopy\n        /* \"#utility.yul\":5495:5496   */\n      0x00\n        /* \"#utility.yul\":5486:5492   */\n      dup4\n        /* \"#utility.yul\":5481:5484   */\n      dup4\n        /* \"#utility.yul\":5477:5493   */\n      add\n        /* \"#utility.yul\":5470:5497   */\n      mstore\n        /* \"#utility.yul\":5349:5503   */\n      pop\n      pop\n      pop\n      jump\t// out\n        /* \"#utility.yul\":5509:5921   */\n    tag_416:\n        /* \"#utility.yul\":5587:5592   */\n      0x00\n        /* \"#utility.yul\":5612:5678   */\n      tag_504\n        /* \"#utility.yul\":5628:5677   */\n      tag_505\n        /* \"#utility.yul\":5670:5676   */\n      dup5\n        /* \"#utility.yul\":5628:5677   */\n      tag_414\n      jump\t// in\n    tag_505:\n        /* \"#utility.yul\":5612:5678   */\n      tag_413\n      jump\t// in\n    tag_504:\n        /* \"#utility.yul\":5603:5678   */\n      swap1\n      pop\n        /* \"#utility.yul\":5701:5707   */\n      dup3\n        /* \"#utility.yul\":5694:5699   */\n      dup2\n        /* \"#utility.yul\":5687:5708   */\n      mstore\n        /* \"#utility.yul\":5739:5743   */\n      0x20\n        /* \"#utility.yul\":5732:5737   */\n      dup2\n        /* \"#utility.yul\":5728:5744   */\n      add\n        /* \"#utility.yul\":5777:5780   */\n      dup5\n        /* \"#utility.yul\":5768:5774   */\n      dup5\n        /* \"#utility.yul\":5763:5766   */\n      dup5\n        /* \"#utility.yul\":5759:5775   */\n      add\n        /* \"#utility.yul\":5756:5781   */\n      gt\n        /* \"#utility.yul\":5753:5865   */\n      iszero\n      tag_506\n      jumpi\n        /* \"#utility.yul\":5784:5863   */\n      tag_507\n      tag_411\n      jump\t// in\n    tag_507:\n        /* \"#utility.yul\":5753:5865   */\n    tag_506:\n        /* \"#utility.yul\":5874:5915   */\n      tag_508\n        /* \"#utility.yul\":5908:5914   */\n      dup5\n        /* \"#utility.yul\":5903:5906   */\n      dup3\n        /* \"#utility.yul\":5898:5901   */\n      dup6\n        /* \"#utility.yul\":5874:5915   */\n      tag_415\n      jump\t// in\n    tag_508:\n        /* \"#utility.yul\":5593:5921   */\n      pop\n        /* \"#utility.yul\":5509:5921   */\n      swap4\n      swap3\n      pop\n      pop\n      pop\n      jump\t// out\n        /* \"#utility.yul\":5941:6281   */\n    tag_417:\n        /* \"#utility.yul\":5997:6002   */\n      0x00\n        /* \"#utility.yul\":6046:6049   */\n      dup3\n        /* \"#utility.yul\":6039:6043   */\n      0x1f\n        /* \"#utility.yul\":6031:6037   */\n      dup4\n        /* \"#utility.yul\":6027:6044   */\n      add\n        /* \"#utility.yul\":6023:6050   */\n      slt\n        /* \"#utility.yul\":6013:6135   */\n      tag_510\n      jumpi\n        /* \"#utility.yul\":6054:6133   */\n      tag_511\n      tag_410\n      jump\t// in\n    tag_511:\n        /* \"#utility.yul\":6013:6135   */\n    tag_510:\n        /* \"#utility.yul\":6171:6177   */\n      dup2\n        /* \"#utility.yul\":6158:6178   */\n      calldataload\n        /* \"#utility.yul\":6196:6275   */\n      tag_512\n        /* \"#utility.yul\":6271:6274   */\n      dup5\n        /* \"#utility.yul\":6263:6269   */\n      dup3\n        /* \"#utility.yul\":6256:6260   */\n      0x20\n        /* \"#utility.yul\":6248:6254   */\n      dup7\n        /* \"#utility.yul\":6244:6261   */\n      add\n        /* \"#utility.yul\":6196:6275   */\n      tag_416\n      jump\t// in\n    tag_512:\n        /* \"#utility.yul\":6187:6275   */\n      swap2\n      pop\n        /* \"#utility.yul\":6003:6281   */\n      pop\n        /* \"#utility.yul\":5941:6281   */\n      swap3\n      swap2\n      pop\n      pop\n      jump\t// out\n        /* \"#utility.yul\":6287:7266   */\n    tag_67:\n        /* \"#utility.yul\":6384:6390   */\n      0x00\n        /* \"#utility.yul\":6392:6398   */\n      dup1\n        /* \"#utility.yul\":6400:6406   */\n      0x00\n        /* \"#utility.yul\":6449:6451   */\n      0x60\n        /* \"#utility.yul\":6437:6446   */\n      dup5\n        /* \"#utility.yul\":6428:6435   */\n      dup7\n        /* \"#utility.yul\":6424:6447   */\n      sub\n        /* \"#utility.yul\":6420:6452   */\n      slt\n        /* \"#utility.yul\":6417:6536   */\n      iszero\n      tag_514\n      jumpi\n        /* \"#utility.yul\":6455:6534   */\n      tag_515\n      tag_393\n      jump\t// in\n    tag_515:\n        /* \"#utility.yul\":6417:6536   */\n    tag_514:\n        /* \"#utility.yul\":6603:6604   */\n      0x00\n        /* \"#utility.yul\":6592:6601   */\n      dup5\n        /* \"#utility.yul\":6588:6605   */\n      add\n        /* \"#utility.yul\":6575:6606   */\n      calldataload\n        /* \"#utility.yul\":6633:6651   */\n      0xffffffffffffffff\n        /* \"#utility.yul\":6625:6631   */\n      dup2\n        /* \"#utility.yul\":6622:6652   */\n      gt\n        /* \"#utility.yul\":6619:6736   */\n      iszero\n      tag_516\n      jumpi\n        /* \"#utility.yul\":6655:6734   */\n      tag_517\n      tag_394\n      jump\t// in\n    tag_517:\n        /* \"#utility.yul\":6619:6736   */\n    tag_516:\n        /* \"#utility.yul\":6760:6823   */\n      tag_518\n        /* \"#utility.yul\":6815:6822   */\n      dup7\n        /* \"#utility.yul\":6806:6812   */\n      dup3\n        /* \"#utility.yul\":6795:6804   */\n      dup8\n        /* \"#utility.yul\":6791:6813   */\n      add\n        /* \"#utility.yul\":6760:6823   */\n      tag_417\n      jump\t// in\n    tag_518:\n        /* \"#utility.yul\":6750:6823   */\n      swap4\n      pop\n        /* \"#utility.yul\":6546:6833   */\n      pop\n        /* \"#utility.yul\":6900:6902   */\n      0x20\n        /* \"#utility.yul\":6889:6898   */\n      dup5\n        /* \"#utility.yul\":6885:6903   */\n      add\n        /* \"#utility.yul\":6872:6904   */\n      calldataload\n        /* \"#utility.yul\":6931:6949   */\n      0xffffffffffffffff\n        /* \"#utility.yul\":6923:6929   */\n      dup2\n        /* \"#utility.yul\":6920:6950   */\n      gt\n        /* \"#utility.yul\":6917:7034   */\n      iszero\n      tag_519\n      jumpi\n        /* \"#utility.yul\":6953:7032   */\n      tag_520\n      tag_394\n      jump\t// in\n    tag_520:\n        /* \"#utility.yul\":6917:7034   */\n    tag_519:\n        /* \"#utility.yul\":7058:7121   */\n      tag_521\n        /* \"#utility.yul\":7113:7120   */\n      dup7\n        /* \"#utility.yul\":7104:7110   */\n      dup3\n        /* \"#utility.yul\":7093:7102   */\n      dup8\n        /* \"#utility.yul\":7089:7111   */\n      add\n        /* \"#utility.yul\":7058:7121   */\n      tag_417\n      jump\t// in\n    tag_521:\n        /* \"#utility.yul\":7048:7121   */\n      swap3\n      pop\n        /* \"#utility.yul\":6843:7131   */\n      pop\n        /* \"#utility.yul\":7170:7172   */\n      0x40\n        /* \"#utility.yul\":7196:7249   */\n      tag_522\n        /* \"#utility.yul\":7241:7248   */\n      dup7\n        /* \"#utility.yul\":7232:7238   */\n      dup3\n        /* \"#utility.yul\":7221:7230   */\n      dup8\n        /* \"#utility.yul\":7217:7239   */\n      add\n        /* \"#utility.yul\":7196:7249   */\n      tag_397\n      jump\t// in\n    tag_522:\n        /* \"#utility.yul\":7186:7249   */\n      swap2\n      pop\n        /* \"#utility.yul\":7141:7259   */\n      pop\n        /* \"#utility.yul\":6287:7266   */\n      swap3\n      pop\n      swap3\n      pop\n      swap3\n      jump\t// out\n        /* \"#utility.yul\":7272:7601   */\n    tag_98:\n        /* \"#utility.yul\":7331:7337   */\n      0x00\n        /* \"#utility.yul\":7380:7382   */\n      0x20\n        /* \"#utility.yul\":7368:7377   */\n      dup3\n        /* \"#utility.yul\":7359:7366   */\n      dup5\n        /* \"#utility.yul\":7355:7378   */\n      sub\n        /* \"#utility.yul\":7351:7383   */\n      slt\n        /* \"#utility.yul\":7348:7467   */\n      iszero\n      tag_524\n      jumpi\n        /* \"#utility.yul\":7386:7465   */\n      tag_525\n      tag_393\n      jump\t// in\n    tag_525:\n        /* \"#utility.yul\":7348:7467   */\n    tag_524:\n        /* \"#utility.yul\":7506:7507   */\n      0x00\n        /* \"#utility.yul\":7531:7584   */\n      tag_526\n        /* \"#utility.yul\":7576:7583   */\n      dup5\n        /* \"#utility.yul\":7567:7573   */\n      dup3\n        /* \"#utility.yul\":7556:7565   */\n      dup6\n        /* \"#utility.yul\":7552:7574   */\n      add\n        /* \"#utility.yul\":7531:7584   */\n      tag_397\n      jump\t// in\n    tag_526:\n        /* \"#utility.yul\":7521:7584   */\n      swap2\n      pop\n        /* \"#utility.yul\":7477:7594   */\n      pop\n        /* \"#utility.yul\":7272:7601   */\n      swap3\n      swap2\n      pop\n      pop\n      jump\t// out\n        /* \"#utility.yul\":7607:7725   */\n    tag_418:\n        /* \"#utility.yul\":7694:7718   */\n      tag_528\n        /* \"#utility.yul\":7712:7717   */\n      dup2\n        /* \"#utility.yul\":7694:7718   */\n      tag_399\n      jump\t// in\n    tag_528:\n        /* \"#utility.yul\":7689:7692   */\n      dup3\n        /* \"#utility.yul\":7682:7719   */\n      mstore\n        /* \"#utility.yul\":7607:7725   */\n      pop\n      pop\n      jump\t// out\n        /* \"#utility.yul\":7731:7953   */\n    tag_105:\n        /* \"#utility.yul\":7824:7828   */\n      0x00\n        /* \"#utility.yul\":7862:7864   */\n      0x20\n        /* \"#utility.yul\":7851:7860   */\n      dup3\n        /* \"#utility.yul\":7847:7865   */\n      add\n        /* \"#utility.yul\":7839:7865   */\n      swap1\n      pop\n        /* \"#utility.yul\":7875:7946   */\n      tag_530\n        /* \"#utility.yul\":7943:7944   */\n      0x00\n        /* \"#utility.yul\":7932:7941   */\n      dup4\n        /* \"#utility.yul\":7928:7945   */\n      add\n        /* \"#utility.yul\":7919:7925   */\n      dup5\n        /* \"#utility.yul\":7875:7946   */\n      tag_418\n      jump\t// in\n    tag_530:\n        /* \"#utility.yul\":7731:7953   */\n      swap3\n      swap2\n      pop\n      pop\n      jump\t// out\n        /* \"#utility.yul\":7959:8433   */\n    tag_142:\n        /* \"#utility.yul\":8027:8033   */\n      0x00\n        /* \"#utility.yul\":8035:8041   */\n      dup1\n        /* \"#utility.yul\":8084:8086   */\n      0x40\n        /* \"#utility.yul\":8072:8081   */\n      dup4\n        /* \"#utility.yul\":8063:8070   */\n      dup6\n        /* \"#utility.yul\":8059:8082   */\n      sub\n        /* \"#utility.yul\":8055:8087   */\n      slt\n        /* \"#utility.yul\":8052:8171   */\n      iszero\n      tag_532\n      jumpi\n        /* \"#utility.yul\":8090:8169   */\n      tag_533\n      tag_393\n      jump\t// in\n    tag_533:\n        /* \"#utility.yul\":8052:8171   */\n    tag_532:\n        /* \"#utility.yul\":8210:8211   */\n      0x00\n        /* \"#utility.yul\":8235:8288   */\n      tag_534\n        /* \"#utility.yul\":8280:8287   */\n      dup6\n        /* \"#utility.yul\":8271:8277   */\n      dup3\n        /* \"#utility.yul\":8260:8269   */\n      dup7\n        /* \"#utility.yul\":8256:8278   */\n      add\n        /* \"#utility.yul\":8235:8288   */\n      tag_401\n      jump\t// in\n    tag_534:\n        /* \"#utility.yul\":8225:8288   */\n      swap3\n      pop\n        /* \"#utility.yul\":8181:8298   */\n      pop\n        /* \"#utility.yul\":8337:8339   */\n      0x20\n        /* \"#utility.yul\":8363:8416   */\n      tag_535\n        /* \"#utility.yul\":8408:8415   */\n      dup6\n        /* \"#utility.yul\":8399:8405   */\n      dup3\n        /* \"#utility.yul\":8388:8397   */\n      dup7\n        /* \"#utility.yul\":8384:8406   */\n      add\n        /* \"#utility.yul\":8363:8416   */\n      tag_397\n      jump\t// in\n    tag_535:\n        /* \"#utility.yul\":8353:8416   */\n      swap2\n      pop\n        /* \"#utility.yul\":8308:8426   */\n      pop\n        /* \"#utility.yul\":7959:8433   */\n      swap3\n      pop\n      swap3\n      swap1\n      pop\n      jump\t// out\n        /* \"#utility.yul\":8439:9273   */\n    tag_169:\n        /* \"#utility.yul\":8678:8682   */\n      0x00\n        /* \"#utility.yul\":8716:8719   */\n      0xa0\n        /* \"#utility.yul\":8705:8714   */\n      dup3\n        /* \"#utility.yul\":8701:8720   */\n      add\n        /* \"#utility.yul\":8693:8720   */\n      swap1\n      pop\n        /* \"#utility.yul\":8766:8775   */\n      dup2\n        /* \"#utility.yul\":8760:8764   */\n      dup2\n        /* \"#utility.yul\":8756:8776   */\n      sub\n        /* \"#utility.yul\":8752:8753   */\n      0x00\n        /* \"#utility.yul\":8741:8750   */\n      dup4\n        /* \"#utility.yul\":8737:8754   */\n      add\n        /* \"#utility.yul\":8730:8777   */\n      mstore\n        /* \"#utility.yul\":8794:8872   */\n      tag_537\n        /* \"#utility.yul\":8867:8871   */\n      dup2\n        /* \"#utility.yul\":8858:8864   */\n      dup9\n        /* \"#utility.yul\":8794:8872   */\n      tag_409\n      jump\t// in\n    tag_537:\n        /* \"#utility.yul\":8786:8872   */\n      swap1\n      pop\n        /* \"#utility.yul\":8919:8928   */\n      dup2\n        /* \"#utility.yul\":8913:8917   */\n      dup2\n        /* \"#utility.yul\":8909:8929   */\n      sub\n        /* \"#utility.yul\":8904:8906   */\n      0x20\n        /* \"#utility.yul\":8893:8902   */\n      dup4\n        /* \"#utility.yul\":8889:8907   */\n      add\n        /* \"#utility.yul\":8882:8930   */\n      mstore\n        /* \"#utility.yul\":8947:9025   */\n      tag_538\n        /* \"#utility.yul\":9020:9024   */\n      dup2\n        /* \"#utility.yul\":9011:9017   */\n      dup8\n        /* \"#utility.yul\":8947:9025   */\n      tag_409\n      jump\t// in\n    tag_538:\n        /* \"#utility.yul\":8939:9025   */\n      swap1\n      pop\n        /* \"#utility.yul\":9035:9107   */\n      tag_539\n        /* \"#utility.yul\":9103:9105   */\n      0x40\n        /* \"#utility.yul\":9092:9101   */\n      dup4\n        /* \"#utility.yul\":9088:9106   */\n      add\n        /* \"#utility.yul\":9079:9085   */\n      dup7\n        /* \"#utility.yul\":9035:9107   */\n      tag_404\n      jump\t// in\n    tag_539:\n        /* \"#utility.yul\":9117:9183   */\n      tag_540\n        /* \"#utility.yul\":9179:9181   */\n      0x60\n        /* \"#utility.yul\":9168:9177   */\n      dup4\n        /* \"#utility.yul\":9164:9182   */\n      add\n        /* \"#utility.yul\":9155:9161   */\n      dup6\n        /* \"#utility.yul\":9117:9183   */\n      tag_403\n      jump\t// in\n    tag_540:\n        /* \"#utility.yul\":9193:9266   */\n      tag_541\n        /* \"#utility.yul\":9261:9264   */\n      0x80\n        /* \"#utility.yul\":9250:9259   */\n      dup4\n        /* \"#utility.yul\":9246:9265   */\n      add\n        /* \"#utility.yul\":9237:9243   */\n      dup5\n        /* \"#utility.yul\":9193:9266   */\n      tag_404\n      jump\t// in\n    tag_541:\n        /* \"#utility.yul\":8439:9273   */\n      swap7\n      swap6\n      pop\n      pop\n      pop\n      pop\n      pop\n      pop\n      jump\t// out\n        /* \"#utility.yul\":9279:9459   */\n    tag_186:\n        /* \"#utility.yul\":9327:9404   */\n      0x4e487b7100000000000000000000000000000000000000000000000000000000\n        /* \"#utility.yul\":9324:9325   */\n      0x00\n        /* \"#utility.yul\":9317:9405   */\n      mstore\n        /* \"#utility.yul\":9424:9428   */\n      0x32\n        /* \"#utility.yul\":9421:9422   */\n      0x04\n        /* \"#utility.yul\":9414:9429   */\n      mstore\n        /* \"#utility.yul\":9448:9452   */\n      0x24\n        /* \"#utility.yul\":9445:9446   */\n      0x00\n        /* \"#utility.yul\":9438:9453   */\n      revert\n        /* \"#utility.yul\":9465:9645   */\n    tag_419:\n        /* \"#utility.yul\":9513:9590   */\n      0x4e487b7100000000000000000000000000000000000000000000000000000000\n        /* \"#utility.yul\":9510:9511   */\n      0x00\n        /* \"#utility.yul\":9503:9591   */\n      mstore\n        /* \"#utility.yul\":9610:9614   */\n      0x22\n        /* \"#utility.yul\":9607:9608   */\n      0x04\n        /* \"#utility.yul\":9600:9615   */\n      mstore\n        /* \"#utility.yul\":9634:9638   */\n      0x24\n        /* \"#utility.yul\":9631:9632   */\n      0x00\n        /* \"#utility.yul\":9624:9639   */\n      revert\n        /* \"#utility.yul\":9651:9971   */\n    tag_189:\n        /* \"#utility.yul\":9695:9701   */\n      0x00\n        /* \"#utility.yul\":9732:9733   */\n      0x02\n        /* \"#utility.yul\":9726:9730   */\n      dup3\n        /* \"#utility.yul\":9722:9734   */\n      div\n        /* \"#utility.yul\":9712:9734   */\n      swap1\n      pop\n        /* \"#utility.yul\":9779:9780   */\n      0x01\n        /* \"#utility.yul\":9773:9777   */\n      dup3\n        /* \"#utility.yul\":9769:9781   */\n      and\n        /* \"#utility.yul\":9800:9818   */\n      dup1\n        /* \"#utility.yul\":9790:9871   */\n      tag_545\n      jumpi\n        /* \"#utility.yul\":9856:9860   */\n      0x7f\n        /* \"#utility.yul\":9848:9854   */\n      dup3\n        /* \"#utility.yul\":9844:9861   */\n      and\n        /* \"#utility.yul\":9834:9861   */\n      swap2\n      pop\n        /* \"#utility.yul\":9790:9871   */\n    tag_545:\n        /* \"#utility.yul\":9918:9920   */\n      0x20\n        /* \"#utility.yul\":9910:9916   */\n      dup3\n        /* \"#utility.yul\":9907:9921   */\n      lt\n        /* \"#utility.yul\":9887:9905   */\n      dup2\n        /* \"#utility.yul\":9884:9922   */\n      sub\n        /* \"#utility.yul\":9881:9965   */\n      tag_546\n      jumpi\n        /* \"#utility.yul\":9937:9955   */\n      tag_547\n      tag_419\n      jump\t// in\n    tag_547:\n        /* \"#utility.yul\":9881:9965   */\n    tag_546:\n        /* \"#utility.yul\":9702:9971   */\n      pop\n        /* \"#utility.yul\":9651:9971   */\n      swap2\n      swap1\n      pop\n      jump\t// out\n        /* \"#utility.yul\":9977:10118   */\n    tag_420:\n        /* \"#utility.yul\":10026:10030   */\n      0x00\n        /* \"#utility.yul\":10049:10052   */\n      dup2\n        /* \"#utility.yul\":10041:10052   */\n      swap1\n      pop\n        /* \"#utility.yul\":10072:10075   */\n      dup2\n        /* \"#utility.yul\":10069:10070   */\n      0x00\n        /* \"#utility.yul\":10062:10076   */\n      mstore\n        /* \"#utility.yul\":10106:10110   */\n      0x20\n        /* \"#utility.yul\":10103:10104   */\n      0x00\n        /* \"#utility.yul\":10093:10111   */\n      keccak256\n        /* \"#utility.yul\":10085:10111   */\n      swap1\n      pop\n        /* \"#utility.yul\":9977:10118   */\n      swap2\n      swap1\n      pop\n      jump\t// out\n        /* \"#utility.yul\":10124:10217   */\n    tag_421:\n        /* \"#utility.yul\":10161:10167   */\n      0x00\n        /* \"#utility.yul\":10208:10210   */\n      0x20\n        /* \"#utility.yul\":10203:10205   */\n      0x1f\n        /* \"#utility.yul\":10196:10201   */\n      dup4\n        /* \"#utility.yul\":10192:10206   */\n      add\n        /* \"#utility.yul\":10188:10211   */\n      div\n        /* \"#utility.yul\":10178:10211   */\n      swap1\n      pop\n        /* \"#utility.yul\":10124:10217   */\n      swap2\n      swap1\n      pop\n      jump\t// out\n        /* \"#utility.yul\":10223:10330   */\n    tag_422:\n        /* \"#utility.yul\":10267:10275   */\n      0x00\n        /* \"#utility.yul\":10317:10322   */\n      dup3\n        /* \"#utility.yul\":10311:10315   */\n      dup3\n        /* \"#utility.yul\":10307:10323   */\n      shl\n        /* \"#utility.yul\":10286:10323   */\n      swap1\n      pop\n        /* \"#utility.yul\":10223:10330   */\n      swap3\n      swap2\n      pop\n      pop\n      jump\t// out\n        /* \"#utility.yul\":10336:10729   */\n    tag_423:\n        /* \"#utility.yul\":10405:10411   */\n      0x00\n        /* \"#utility.yul\":10455:10456   */\n      0x08\n        /* \"#utility.yul\":10443:10453   */\n      dup4\n        /* \"#utility.yul\":10439:10457   */\n      mul\n        /* \"#utility.yul\":10478:10575   */\n      tag_552\n        /* \"#utility.yul\":10508:10574   */\n      0xffffffffffffffffffffffffffffffffffffffffffffffffffffffffffffffff\n        /* \"#utility.yul\":10497:10506   */\n      dup3\n        /* \"#utility.yul\":10478:10575   */\n      tag_422\n      jump\t// in\n    tag_552:\n        /* \"#utility.yul\":10596:10635   */\n      tag_553\n        /* \"#utility.yul\":10626:10634   */\n      dup7\n        /* \"#utility.yul\":10615:10624   */\n      dup4\n        /* \"#utility.yul\":10596:10635   */\n      tag_422\n      jump\t// in\n    tag_553:\n        /* \"#utility.yul\":10584:10635   */\n      swap6\n      pop\n        /* \"#utility.yul\":10668:10672   */\n      dup1\n        /* \"#utility.yul\":10664:10673   */\n      not\n        /* \"#utility.yul\":10657:10662   */\n      dup5\n        /* \"#utility.yul\":10653:10674   */\n      and\n        /* \"#utility.yul\":10644:10674   */\n      swap4\n      pop\n        /* \"#utility.yul\":10717:10721   */\n      dup1\n        /* \"#utility.yul\":10707:10715   */\n      dup7\n        /* \"#utility.yul\":10703:10722   */\n      and\n        /* \"#utility.yul\":10696:10701   */\n      dup5\n        /* \"#utility.yul\":10693:10723   */\n      or\n        /* \"#utility.yul\":10683:10723   */\n      swap3\n      pop\n        /* \"#utility.yul\":10412:10729   */\n      pop\n      pop\n        /* \"#utility.yul\":10336:10729   */\n      swap4\n      swap3\n      pop\n      pop\n      pop\n      jump\t// out\n        /* \"#utility.yul\":10735:10795   */\n    tag_424:\n        /* \"#utility.yul\":10763:10766   */\n      0x00\n        /* \"#utility.yul\":10784:10789   */\n      dup2\n        /* \"#utility.yul\":10777:10789   */\n      swap1\n      pop\n        /* \"#utility.yul\":10735:10795   */\n      swap2\n      swap1\n      pop\n      jump\t// out\n        /* \"#utility.yul\":10801:10943   */\n    tag_425:\n        /* \"#utility.yul\":10851:10860   */\n      0x00\n        /* \"#utility.yul\":10884:10937   */\n      tag_556\n        /* \"#utility.yul\":10902:10936   */\n      tag_557\n        /* \"#utility.yul\":10911:10935   */\n      tag_558\n        /* \"#utility.yul\":10929:10934   */\n      dup5\n        /* \"#utility.yul\":10911:10935   */\n      tag_395\n      jump\t// in\n    tag_558:\n        /* \"#utility.yul\":10902:10936   */\n      tag_424\n      jump\t// in\n    tag_557:\n        /* \"#utility.yul\":10884:10937   */\n      tag_395\n      jump\t// in\n    tag_556:\n        /* \"#utility.yul\":10871:10937   */\n      swap1\n      pop\n        /* \"#utility.yul\":10801:10943   */\n      swap2\n      swap1\n      pop\n      jump\t// out\n        /* \"#utility.yul\":10949:11024   */\n    tag_426:\n        /* \"#utility.yul\":10992:10995   */\n      0x00\n        /* \"#utility.yul\":11013:11018   */\n      dup2\n        /* \"#utility.yul\":11006:11018   */\n      swap1\n      pop\n        /* \"#utility.yul\":10949:11024   */\n      swap2\n      swap1\n      pop\n      jump\t// out\n        /* \"#utility.yul\":11030:11299   */\n    tag_427:\n        /* \"#utility.yul\":11140:11179   */\n      tag_561\n        /* \"#utility.yul\":11171:11178   */\n      dup4\n        /* \"#utility.yul\":11140:11179   */\n      tag_425\n      jump\t// in\n    tag_561:\n        /* \"#utility.yul\":11201:11292   */\n      tag_562\n        /* \"#utility.yul\":11250:11291   */\n      tag_563\n        /* \"#utility.yul\":11274:11290   */\n      dup3\n        /* \"#utility.yul\":11250:11291   */\n      tag_426\n      jump\t// in\n    tag_563:\n        /* \"#utility.yul\":11242:11248   */\n      dup5\n        /* \"#utility.yul\":11235:11239   */\n      dup5\n        /* \"#utility.yul\":11229:11240   */\n      sload\n        /* \"#utility.yul\":11201:11292   */\n      tag_423\n      jump\t// in\n    tag_562:\n        /* \"#utility.yul\":11195:11199   */\n      dup3\n        /* \"#utility.yul\":11188:11293   */\n      sstore\n        /* \"#utility.yul\":11106:11299   */\n      pop\n        /* \"#utility.yul\":11030:11299   */\n      pop\n      pop\n      pop\n      jump\t// out\n        /* \"#utility.yul\":11305:11378   */\n    tag_428:\n        /* \"#utility.yul\":11350:11353   */\n      0x00\n        /* \"#utility.yul\":11305:11378   */\n      swap1\n      jump\t// out\n        /* \"#utility.yul\":11384:11573   */\n    tag_429:\n        /* \"#utility.yul\":11461:11493   */\n      tag_566\n      tag_428\n      jump\t// in\n    tag_566:\n        /* \"#utility.yul\":11502:11567   */\n      tag_567\n        /* \"#utility.yul\":11560:11566   */\n      dup2\n        /* \"#utility.yul\":11552:11558   */\n      dup5\n        /* \"#utility.yul\":11546:11550   */\n      dup5\n        /* \"#utility.yul\":11502:11567   */\n      tag_427\n      jump\t// in\n    tag_567:\n        /* \"#utility.yul\":11437:11573   */\n      pop\n        /* \"#utility.yul\":11384:11573   */\n      pop\n      pop\n      jump\t// out\n        /* \"#utility.yul\":11579:11765   */\n    tag_430:\n        /* \"#utility.yul\":11639:11759   */\n    tag_569:\n        /* \"#utility.yul\":11656:11659   */\n      dup2\n        /* \"#utility.yul\":11649:11654   */\n      dup2\n        /* \"#utility.yul\":11646:11660   */\n      lt\n        /* \"#utility.yul\":11639:11759   */\n      iszero\n      tag_571\n      jumpi\n        /* \"#utility.yul\":11710:11749   */\n      tag_572\n        /* \"#utility.yul\":11747:11748   */\n      0x00\n        /* \"#utility.yul\":11740:11745   */\n      dup3\n        /* \"#utility.yul\":11710:11749   */\n      tag_429\n      jump\t// in\n    tag_572:\n        /* \"#utility.yul\":11683:11684   */\n      0x01\n        /* \"#utility.yul\":11676:11681   */\n      dup2\n        /* \"#utility.yul\":11672:11685   */\n      add\n        /* \"#utility.yul\":11663:11685   */\n      swap1\n      pop\n        /* \"#utility.yul\":11639:11759   */\n      jump(tag_569)\n    tag_571:\n        /* \"#utility.yul\":11579:11765   */\n      pop\n      pop\n      jump\t// out\n        /* \"#utility.yul\":11771:12314   */\n    tag_431:\n        /* \"#utility.yul\":11872:11874   */\n      0x1f\n        /* \"#utility.yul\":11867:11870   */\n      dup3\n        /* \"#utility.yul\":11864:11875   */\n      gt\n        /* \"#utility.yul\":11861:12307   */\n      iszero\n      tag_574\n      jumpi\n        /* \"#utility.yul\":11906:11944   */\n      tag_575\n        /* \"#utility.yul\":11938:11943   */\n      dup2\n        /* \"#utility.yul\":11906:11944   */\n      tag_420\n      jump\t// in\n    tag_575:\n        /* \"#utility.yul\":11990:12019   */\n      tag_576\n        /* \"#utility.yul\":12008:12018   */\n      dup5\n        /* \"#utility.yul\":11990:12019   */\n      tag_421\n      jump\t// in\n    tag_576:\n        /* \"#utility.yul\":11980:11988   */\n      dup2\n        /* \"#utility.yul\":11976:12020   */\n      add\n        /* \"#utility.yul\":12173:12175   */\n      0x20\n        /* \"#utility.yul\":12161:12171   */\n      dup6\n        /* \"#utility.yul\":12158:12176   */\n      lt\n        /* \"#utility.yul\":12155:12204   */\n      iszero\n      tag_577\n      jumpi\n        /* \"#utility.yul\":12194:12202   */\n      dup2\n        /* \"#utility.yul\":12179:12202   */\n      swap1\n      pop\n        /* \"#utility.yul\":12155:12204   */\n    tag_577:\n        /* \"#utility.yul\":12217:12297   */\n      tag_578\n        /* \"#utility.yul\":12273:12295   */\n      tag_579\n        /* \"#utility.yul\":12291:12294   */\n      dup6\n        /* \"#utility.yul\":12273:12295   */\n      tag_421\n      jump\t// in\n    tag_579:\n        /* \"#utility.yul\":12263:12271   */\n      dup4\n        /* \"#utility.yul\":12259:12296   */\n      add\n        /* \"#utility.yul\":12246:12257   */\n      dup3\n        /* \"#utility.yul\":12217:12297   */\n      tag_430\n      jump\t// in\n    tag_578:\n        /* \"#utility.yul\":11876:12307   */\n      pop\n      pop\n        /* \"#utility.yul\":11861:12307   */\n    tag_574:\n        /* \"#utility.yul\":11771:12314   */\n      pop\n      pop\n      pop\n      jump\t// out\n        /* \"#utility.yul\":12320:12437   */\n    tag_432:\n        /* \"#utility.yul\":12374:12382   */\n      0x00\n        /* \"#utility.yul\":12424:12429   */\n      dup3\n        /* \"#utility.yul\":12418:12422   */\n      dup3\n        /* \"#utility.yul\":12414:12430   */\n      shr\n        /* \"#utility.yul\":12393:12430   */\n      swap1\n      pop\n        /* \"#utility.yul\":12320:12437   */\n      swap3\n      swap2\n      pop\n      pop\n      jump\t// out\n        /* \"#utility.yul\":12443:12612   */\n    tag_433:\n        /* \"#utility.yul\":12487:12493   */\n      0x00\n        /* \"#utility.yul\":12520:12571   */\n      tag_582\n        /* \"#utility.yul\":12568:12569   */\n      0x00\n        /* \"#utility.yul\":12564:12570   */\n      not\n        /* \"#utility.yul\":12556:12561   */\n      dup5\n        /* \"#utility.yul\":12553:12554   */\n      0x08\n        /* \"#utility.yul\":12549:12562   */\n      mul\n        /* \"#utility.yul\":12520:12571   */\n      tag_432\n      jump\t// in\n    tag_582:\n        /* \"#utility.yul\":12516:12572   */\n      not\n        /* \"#utility.yul\":12601:12605   */\n      dup1\n        /* \"#utility.yul\":12595:12599   */\n      dup4\n        /* \"#utility.yul\":12591:12606   */\n      and\n        /* \"#utility.yul\":12581:12606   */\n      swap2\n      pop\n        /* \"#utility.yul\":12494:12612   */\n      pop\n        /* \"#utility.yul\":12443:12612   */\n      swap3\n      swap2\n      pop\n      pop\n      jump\t// out\n        /* \"#utility.yul\":12617:12912   */\n    tag_434:\n        /* \"#utility.yul\":12693:12697   */\n      0x00\n        /* \"#utility.yul\":12839:12868   */\n      tag_584\n        /* \"#utility.yul\":12864:12867   */\n      dup4\n        /* \"#utility.yul\":12858:12862   */\n      dup4\n        /* \"#utility.yul\":12839:12868   */\n      tag_433\n      jump\t// in\n    tag_584:\n        /* \"#utility.yul\":12831:12868   */\n      swap2\n      pop\n        /* \"#utility.yul\":12901:12904   */\n      dup3\n        /* \"#utility.yul\":12898:12899   */\n      0x02\n        /* \"#utility.yul\":12894:12905   */\n      mul\n        /* \"#utility.yul\":12888:12892   */\n      dup3\n        /* \"#utility.yul\":12885:12906   */\n      or\n        /* \"#utility.yul\":12877:12906   */\n      swap1\n      pop\n        /* \"#utility.yul\":12617:12912   */\n      swap3\n      swap2\n      pop\n      pop\n      jump\t// out\n        /* \"#utility.yul\":12917:14312   */\n    tag_199:\n        /* \"#utility.yul\":13034:13071   */\n      tag_586\n        /* \"#utility.yul\":13067:13070   */\n      dup3\n        /* \"#utility.yul\":13034:13071   */\n      tag_405\n      jump\t// in\n    tag_586:\n        /* \"#utility.yul\":13136:13154   */\n      0xffffffffffffffff\n        /* \"#utility.yul\":13128:13134   */\n      dup2\n        /* \"#utility.yul\":13125:13155   */\n      gt\n        /* \"#utility.yul\":13122:13178   */\n      iszero\n      tag_587\n      jumpi\n        /* \"#utility.yul\":13158:13176   */\n      tag_588\n      tag_329\n      jump\t// in\n    tag_588:\n        /* \"#utility.yul\":13122:13178   */\n    tag_587:\n        /* \"#utility.yul\":13202:13240   */\n      tag_589\n        /* \"#utility.yul\":13234:13238   */\n      dup3\n        /* \"#utility.yul\":13228:13239   */\n      sload\n        /* \"#utility.yul\":13202:13240   */\n      tag_189\n      jump\t// in\n    tag_589:\n        /* \"#utility.yul\":13287:13354   */\n      tag_590\n        /* \"#utility.yul\":13347:13353   */\n      dup3\n        /* \"#utility.yul\":13339:13345   */\n      dup3\n        /* \"#utility.yul\":13333:13337   */\n      dup6\n        /* \"#utility.yul\":13287:13354   */\n      tag_431\n      jump\t// in\n    tag_590:\n        /* \"#utility.yul\":13381:13382   */\n      0x00\n        /* \"#utility.yul\":13405:13409   */\n      0x20\n        /* \"#utility.yul\":13392:13409   */\n      swap1\n      pop\n        /* \"#utility.yul\":13437:13439   */\n      0x1f\n        /* \"#utility.yul\":13429:13435   */\n      dup4\n        /* \"#utility.yul\":13426:13440   */\n      gt\n        /* \"#utility.yul\":13454:13455   */\n      0x01\n        /* \"#utility.yul\":13449:14067   */\n      dup2\n      eq\n      tag_592\n      jumpi\n        /* \"#utility.yul\":14111:14112   */\n      0x00\n        /* \"#utility.yul\":14128:14134   */\n      dup5\n        /* \"#utility.yul\":14125:14202   */\n      iszero\n      tag_593\n      jumpi\n        /* \"#utility.yul\":14177:14186   */\n      dup3\n        /* \"#utility.yul\":14172:14175   */\n      dup8\n        /* \"#utility.yul\":14168:14187   */\n      add\n        /* \"#utility.yul\":14162:14188   */\n      mload\n        /* \"#utility.yul\":14153:14188   */\n      swap1\n      pop\n        /* \"#utility.yul\":14125:14202   */\n    tag_593:\n        /* \"#utility.yul\":14228:14295   */\n      tag_594\n        /* \"#utility.yul\":14288:14294   */\n      dup6\n        /* \"#utility.yul\":14281:14286   */\n      dup3\n        /* \"#utility.yul\":14228:14295   */\n      tag_434\n      jump\t// in\n    tag_594:\n        /* \"#utility.yul\":14222:14226   */\n      dup7\n        /* \"#utility.yul\":14215:14296   */\n      sstore\n        /* \"#utility.yul\":14084:14306   */\n      pop\n        /* \"#utility.yul\":13419:14306   */\n      jump(tag_591)\n        /* \"#utility.yul\":13449:14067   */\n    tag_592:\n        /* \"#utility.yul\":13501:13505   */\n      0x1f\n        /* \"#utility.yul\":13497:13506   */\n      not\n        /* \"#utility.yul\":13489:13495   */\n      dup5\n        /* \"#utility.yul\":13485:13507   */\n      and\n        /* \"#utility.yul\":13535:13572   */\n      tag_595\n        /* \"#utility.yul\":13567:13571   */\n      dup7\n        /* \"#utility.yul\":13535:13572   */\n      tag_420\n      jump\t// in\n    tag_595:\n        /* \"#utility.yul\":13594:13595   */\n      0x00\n        /* \"#utility.yul\":13608:13816   */\n    tag_596:\n        /* \"#utility.yul\":13622:13629   */\n      dup3\n        /* \"#utility.yul\":13619:13620   */\n      dup2\n        /* \"#utility.yul\":13616:13630   */\n      lt\n        /* \"#utility.yul\":13608:13816   */\n      iszero\n      tag_598\n      jumpi\n        /* \"#utility.yul\":13701:13710   */\n      dup5\n        /* \"#utility.yul\":13696:13699   */\n      dup10\n        /* \"#utility.yul\":13692:13711   */\n      add\n        /* \"#utility.yul\":13686:13712   */\n      mload\n        /* \"#utility.yul\":13678:13684   */\n      dup3\n        /* \"#utility.yul\":13671:13713   */\n      sstore\n        /* \"#utility.yul\":13752:13753   */\n      0x01\n        /* \"#utility.yul\":13744:13750   */\n      dup3\n        /* \"#utility.yul\":13740:13754   */\n      add\n        /* \"#utility.yul\":13730:13754   */\n      swap2\n      pop\n        /* \"#utility.yul\":13799:13801   */\n      0x20\n        /* \"#utility.yul\":13788:13797   */\n      dup6\n        /* \"#utility.yul\":13784:13802   */\n      add\n        /* \"#utility.yul\":13771:13802   */\n      swap5\n      pop\n        /* \"#utility.yul\":13645:13649   */\n      0x20\n        /* \"#utility.yul\":13642:13643   */\n      dup2\n        /* \"#utility.yul\":13638:13650   */\n      add\n        /* \"#utility.yul\":13633:13650   */\n      swap1\n      pop\n        /* \"#utility.yul\":13608:13816   */\n      jump(tag_596)\n    tag_598:\n        /* \"#utility.yul\":13844:13850   */\n      dup7\n        /* \"#utility.yul\":13835:13842   */\n      dup4\n        /* \"#utility.yul\":13832:13851   */\n      lt\n        /* \"#utility.yul\":13829:14008   */\n      iszero\n      tag_599\n      jumpi\n        /* \"#utility.yul\":13902:13911   */\n      dup5\n        /* \"#utility.yul\":13897:13900   */\n      dup10\n        /* \"#utility.yul\":13893:13912   */\n      add\n        /* \"#utility.yul\":13887:13913   */\n      mload\n        /* \"#utility.yul\":13945:13993   */\n      tag_600\n        /* \"#utility.yul\":13987:13991   */\n      0x1f\n        /* \"#utility.yul\":13979:13985   */\n      dup10\n        /* \"#utility.yul\":13975:13992   */\n      and\n        /* \"#utility.yul\":13964:13973   */\n      dup3\n        /* \"#utility.yul\":13945:13993   */\n      tag_433\n      jump\t// in\n    tag_600:\n        /* \"#utility.yul\":13937:13943   */\n      dup4\n        /* \"#utility.yul\":13930:13994   */\n      sstore\n        /* \"#utility.yul\":13852:14008   */\n      pop\n        /* \"#utility.yul\":13829:14008   */\n    tag_599:\n        /* \"#utility.yul\":14054:14055   */\n      0x01\n        /* \"#utility.yul\":14050:14051   */\n      0x02\n        /* \"#utility.yul\":14042:14048   */\n      dup9\n        /* \"#utility.yul\":14038:14052   */\n      mul\n        /* \"#utility.yul\":14034:14056   */\n      add\n        /* \"#utility.yul\":14028:14032   */\n      dup9\n        /* \"#utility.yul\":14021:14057   */\n      sstore\n        /* \"#utility.yul\":13456:14067   */\n      pop\n      pop\n      pop\n        /* \"#utility.yul\":13419:14306   */\n    tag_591:\n      pop\n        /* \"#utility.yul\":13009:14312   */\n      pop\n      pop\n      pop\n        /* \"#utility.yul\":12917:14312   */\n      pop\n      pop\n      jump\t// out\n        /* \"#utility.yul\":14318:14498   */\n    tag_435:\n        /* \"#utility.yul\":14366:14443   */\n      0x4e487b7100000000000000000000000000000000000000000000000000000000\n        /* \"#utility.yul\":14363:14364   */\n      0x00\n        /* \"#utility.yul\":14356:14444   */\n      mstore\n        /* \"#utility.yul\":14463:14467   */\n      0x11\n        /* \"#utility.yul\":14460:14461   */\n      0x04\n        /* \"#utility.yul\":14453:14468   */\n      mstore\n        /* \"#utility.yul\":14487:14491   */\n      0x24\n        /* \"#utility.yul\":14484:14485   */\n      0x00\n        /* \"#utility.yul\":14477:14492   */\n      revert\n        /* \"#utility.yul\":14504:14695   */\n    tag_203:\n        /* \"#utility.yul\":14544:14548   */\n      0x00\n        /* \"#utility.yul\":14564:14584   */\n      tag_603\n        /* \"#utility.yul\":14582:14583   */\n      dup3\n        /* \"#utility.yul\":14564:14584   */\n      tag_395\n      jump\t// in\n    tag_603:\n        /* \"#utility.yul\":14559:14584   */\n      swap2\n      pop\n        /* \"#utility.yul\":14598:14618   */\n      tag_604\n        /* \"#utility.yul\":14616:14617   */\n      dup4\n        /* \"#utility.yul\":14598:14618   */\n      tag_395\n      jump\t// in\n    tag_604:\n        /* \"#utility.yul\":14593:14618   */\n      swap3\n      pop\n        /* \"#utility.yul\":14637:14638   */\n      dup3\n        /* \"#utility.yul\":14634:14635   */\n      dup3\n        /* \"#utility.yul\":14631:14639   */\n      lt\n        /* \"#utility.yul\":14628:14662   */\n      iszero\n      tag_605\n      jumpi\n        /* \"#utility.yul\":14642:14660   */\n      tag_606\n      tag_435\n      jump\t// in\n    tag_606:\n        /* \"#utility.yul\":14628:14662   */\n    tag_605:\n        /* \"#utility.yul\":14687:14688   */\n      dup3\n        /* \"#utility.yul\":14684:14685   */\n      dup3\n        /* \"#utility.yul\":14680:14689   */\n      sub\n        /* \"#utility.yul\":14672:14689   */\n      swap1\n      pop\n        /* \"#utility.yul\":14504:14695   */\n      swap3\n      swap2\n      pop\n      pop\n      jump\t// out\n        /* \"#utility.yul\":14701:15049   */\n    tag_205:\n        /* \"#utility.yul\":14741:14748   */\n      0x00\n        /* \"#utility.yul\":14764:14784   */\n      tag_608\n        /* \"#utility.yul\":14782:14783   */\n      dup3\n        /* \"#utility.yul\":14764:14784   */\n      tag_395\n      jump\t// in\n    tag_608:\n        /* \"#utility.yul\":14759:14784   */\n      swap2\n      pop\n        /* \"#utility.yul\":14798:14818   */\n      tag_609\n        /* \"#utility.yul\":14816:14817   */\n      dup4\n        /* \"#utility.yul\":14798:14818   */\n      tag_395\n      jump\t// in\n    tag_609:\n        /* \"#utility.yul\":14793:14818   */\n      swap3\n      pop\n        /* \"#utility.yul\":14986:14987   */\n      dup2\n        /* \"#utility.yul\":14918:14984   */\n      0xffffffffffffffffffffffffffffffffffffffffffffffffffffffffffffffff\n        /* \"#utility.yul\":14914:14988   */\n      div\n        /* \"#utility.yul\":14911:14912   */\n      dup4\n        /* \"#utility.yul\":14908:14989   */\n      gt\n        /* \"#utility.yul\":14903:14904   */\n      dup3\n        /* \"#utility.yul\":14896:14905   */\n      iszero\n        /* \"#utility.yul\":14889:14906   */\n      iszero\n        /* \"#utility.yul\":14885:14990   */\n      and\n        /* \"#utility.yul\":14882:15013   */\n      iszero\n      tag_610\n      jumpi\n        /* \"#utility.yul\":14993:15011   */\n      tag_611\n      tag_435\n      jump\t// in\n    tag_611:\n        /* \"#utility.yul\":14882:15013   */\n    tag_610:\n        /* \"#utility.yul\":15041:15042   */\n      dup3\n        /* \"#utility.yul\":15038:15039   */\n      dup3\n        /* \"#utility.yul\":15034:15043   */\n      mul\n        /* \"#utility.yul\":15023:15043   */\n      swap1\n      pop\n        /* \"#utility.yul\":14701:15049   */\n      swap3\n      swap2\n      pop\n      pop\n      jump\t// out\n        /* \"#utility.yul\":15055:15235   */\n    tag_436:\n        /* \"#utility.yul\":15103:15180   */\n      0x4e487b7100000000000000000000000000000000000000000000000000000000\n        /* \"#utility.yul\":15100:15101   */\n      0x00\n        /* \"#utility.yul\":15093:15181   */\n      mstore\n        /* \"#utility.yul\":15200:15204   */\n      0x12\n        /* \"#utility.yul\":15197:15198   */\n      0x04\n        /* \"#utility.yul\":15190:15205   */\n      mstore\n        /* \"#utility.yul\":15224:15228   */\n      0x24\n        /* \"#utility.yul\":15221:15222   */\n      0x00\n        /* \"#utility.yul\":15214:15229   */\n      revert\n        /* \"#utility.yul\":15241:15426   */\n    tag_207:\n        /* \"#utility.yul\":15281:15282   */\n      0x00\n        /* \"#utility.yul\":15298:15318   */\n      tag_614\n        /* \"#utility.yul\":15316:15317   */\n      dup3\n        /* \"#utility.yul\":15298:15318   */\n      tag_395\n      jump\t// in\n    tag_614:\n        /* \"#utility.yul\":15293:15318   */\n      swap2\n      pop\n        /* \"#utility.yul\":15332:15352   */\n      tag_615\n        /* \"#utility.yul\":15350:15351   */\n      dup4\n        /* \"#utility.yul\":15332:15352   */\n      tag_395\n      jump\t// in\n    tag_615:\n        /* \"#utility.yul\":15327:15352   */\n      swap3\n      pop\n        /* \"#utility.yul\":15371:15372   */\n      dup3\n        /* \"#utility.yul\":15361:15396   */\n      tag_616\n      jumpi\n        /* \"#utility.yul\":15376:15394   */\n      tag_617\n      tag_436\n      jump\t// in\n    tag_617:\n        /* \"#utility.yul\":15361:15396   */\n    tag_616:\n        /* \"#utility.yul\":15418:15419   */\n      dup3\n        /* \"#utility.yul\":15415:15416   */\n      dup3\n        /* \"#utility.yul\":15411:15420   */\n      div\n        /* \"#utility.yul\":15406:15420   */\n      swap1\n      pop\n        /* \"#utility.yul\":15241:15426   */\n      swap3\n      swap2\n      pop\n      pop\n      jump\t// out\n        /* \"#utility.yul\":15432:15665   */\n    tag_230:\n        /* \"#utility.yul\":15471:15474   */\n      0x00\n        /* \"#utility.yul\":15494:15518   */\n      tag_619\n        /* \"#utility.yul\":15512:15517   */\n      dup3\n        /* \"#utility.yul\":15494:15518   */\n      tag_395\n      jump\t// in\n    tag_619:\n        /* \"#utility.yul\":15485:15518   */\n      swap2\n      pop\n        /* \"#utility.yul\":15540:15606   */\n      0xffffffffffffffffffffffffffffffffffffffffffffffffffffffffffffffff\n        /* \"#utility.yul\":15533:15538   */\n      dup3\n        /* \"#utility.yul\":15530:15607   */\n      sub\n        /* \"#utility.yul\":15527:15630   */\n      tag_620\n      jumpi\n        /* \"#utility.yul\":15610:15628   */\n      tag_621\n      tag_435\n      jump\t// in\n    tag_621:\n        /* \"#utility.yul\":15527:15630   */\n    tag_620:\n        /* \"#utility.yul\":15657:15658   */\n      0x01\n        /* \"#utility.yul\":15650:15655   */\n      dup3\n        /* \"#utility.yul\":15646:15659   */\n      add\n        /* \"#utility.yul\":15639:15659   */\n      swap1\n      pop\n        /* \"#utility.yul\":15432:15665   */\n      swap2\n      swap1\n      pop\n      jump\t// out\n        /* \"#utility.yul\":15671:15976   */\n    tag_274:\n        /* \"#utility.yul\":15711:15714   */\n      0x00\n        /* \"#utility.yul\":15730:15750   */\n      tag_623\n        /* \"#utility.yul\":15748:15749   */\n      dup3\n        /* \"#utility.yul\":15730:15750   */\n      tag_395\n      jump\t// in\n    tag_623:\n        /* \"#utility.yul\":15725:15750   */\n      swap2\n      pop\n        /* \"#utility.yul\":15764:15784   */\n      tag_624\n        /* \"#utility.yul\":15782:15783   */\n      dup4\n        /* \"#utility.yul\":15764:15784   */\n      tag_395\n      jump\t// in\n    tag_624:\n        /* \"#utility.yul\":15759:15784   */\n      swap3\n      pop\n        /* \"#utility.yul\":15918:15919   */\n      dup3\n        /* \"#utility.yul\":15850:15916   */\n      0xffffffffffffffffffffffffffffffffffffffffffffffffffffffffffffffff\n        /* \"#utility.yul\":15846:15920   */\n      sub\n        /* \"#utility.yul\":15843:15844   */\n      dup3\n        /* \"#utility.yul\":15840:15921   */\n      gt\n        /* \"#utility.yul\":15837:15944   */\n      iszero\n      tag_625\n      jumpi\n        /* \"#utility.yul\":15924:15942   */\n      tag_626\n      tag_435\n      jump\t// in\n    tag_626:\n        /* \"#utility.yul\":15837:15944   */\n    tag_625:\n        /* \"#utility.yul\":15968:15969   */\n      dup3\n        /* \"#utility.yul\":15965:15966   */\n      dup3\n        /* \"#utility.yul\":15961:15970   */\n      add\n        /* \"#utility.yul\":15954:15970   */\n      swap1\n      pop\n        /* \"#utility.yul\":15671:15976   */\n      swap3\n      swap2\n      pop\n      pop\n      jump\t// out\n        /* \"#utility.yul\":15982:16153   */\n    tag_294:\n        /* \"#utility.yul\":16021:16024   */\n      0x00\n        /* \"#utility.yul\":16044:16068   */\n      tag_628\n        /* \"#utility.yul\":16062:16067   */\n      dup3\n        /* \"#utility.yul\":16044:16068   */\n      tag_395\n      jump\t// in\n    tag_628:\n        /* \"#utility.yul\":16035:16068   */\n      swap2\n      pop\n        /* \"#utility.yul\":16090:16094   */\n      0x00\n        /* \"#utility.yul\":16083:16088   */\n      dup3\n        /* \"#utility.yul\":16080:16095   */\n      sub\n        /* \"#utility.yul\":16077:16118   */\n      tag_629\n      jumpi\n        /* \"#utility.yul\":16098:16116   */\n      tag_630\n      tag_435\n      jump\t// in\n    tag_630:\n        /* \"#utility.yul\":16077:16118   */\n    tag_629:\n        /* \"#utility.yul\":16145:16146   */\n      0x01\n        /* \"#utility.yul\":16138:16143   */\n      dup3\n        /* \"#utility.yul\":16134:16147   */\n      sub\n        /* \"#utility.yul\":16127:16147   */\n      swap1\n      pop\n        /* \"#utility.yul\":15982:16153   */\n      swap2\n      swap1\n      pop\n      jump\t// out\n\n    auxdata: 0xa2646970667358221220345d1c2dda7255a2ad98a662bd56c6aae5ba1cfe7350aaa035d16273e638732364736f6c634300080f0033\n}\n","bytecode":{"linkReferences":{},"object":"608060405261032060005560646001556014600255600460035560006009556000600b553480156200003057600080fd5b50604051620031b4380380620031b48339818101604052810190620000569190620003a5565b80600490816200006791906200068d565b5081600660006101000a81548173ffffffffffffffffffffffffffffffffffffffff021916908373ffffffffffffffffffffffffffffffffffffffff16021790555082600560006101000a81548173ffffffffffffffffffffffffffffffffffffffff021916908373ffffffffffffffffffffffffffffffffffffffff16021790555084600f81905550426010819055506201518084620001099190620007a3565b4262000116919062000804565b601281905550620151806002546200012f9190620007a3565b426200013c919062000804565b6011819055506000601360006101000a81548160ff021916908315150217905550505050505062000861565b6000604051905090565b600080fd5b600080fd5b6000819050919050565b62000191816200017c565b81146200019d57600080fd5b50565b600081519050620001b18162000186565b92915050565b600073ffffffffffffffffffffffffffffffffffffffff82169050919050565b6000620001e482620001b7565b9050919050565b620001f681620001d7565b81146200020257600080fd5b50565b6000815190506200021681620001eb565b92915050565b600080fd5b600080fd5b6000601f19601f8301169050919050565b7f4e487b7100000000000000000000000000000000000000000000000000000000600052604160045260246000fd5b620002718262000226565b810181811067ffffffffffffffff8211171562000293576200029262000237565b5b80604052505050565b6000620002a862000168565b9050620002b6828262000266565b919050565b600067ffffffffffffffff821115620002d957620002d862000237565b5b620002e48262000226565b9050602081019050919050565b60005b8381101562000311578082015181840152602081019050620002f4565b8381111562000321576000848401525b50505050565b60006200033e6200033884620002bb565b6200029c565b9050828152602081018484840111156200035d576200035c62000221565b5b6200036a848285620002f1565b509392505050565b600082601f8301126200038a57620003896200021c565b5b81516200039c84826020860162000327565b91505092915050565b600080600080600060a08688031215620003c457620003c362000172565b5b6000620003d488828901620001a0565b9550506020620003e788828901620001a0565b9450506040620003fa8882890162000205565b93505060606200040d8882890162000205565b925050608086015167ffffffffffffffff81111562000431576200043062000177565b5b6200043f8882890162000372565b9150509295509295909350565b600081519050919050565b7f4e487b7100000000000000000000000000000000000000000000000000000000600052602260045260246000fd5b600060028204905060018216806200049f57607f821691505b602082108103620004b557620004b462000457565b5b50919050565b60008190508160005260206000209050919050565b60006020601f8301049050919050565b600082821b905092915050565b6000600883026200051f7fffffffffffffffffffffffffffffffffffffffffffffffffffffffffffffffff82620004e0565b6200052b8683620004e0565b95508019841693508086168417925050509392505050565b6000819050919050565b60006200056e6200056862000562846200017c565b62000543565b6200017c565b9050919050565b6000819050919050565b6200058a836200054d565b620005a2620005998262000575565b848454620004ed565b825550505050565b600090565b620005b9620005aa565b620005c68184846200057f565b505050565b5b81811015620005ee57620005e2600082620005af565b600181019050620005cc565b5050565b601f8211156200063d576200060781620004bb565b6200061284620004d0565b8101602085101562000622578190505b6200063a6200063185620004d0565b830182620005cb565b50505b505050565b600082821c905092915050565b6000620006626000198460080262000642565b1980831691505092915050565b60006200067d83836200064f565b9150826002028217905092915050565b62000698826200044c565b67ffffffffffffffff811115620006b457620006b362000237565b5b620006c0825462000486565b620006cd828285620005f2565b600060209050601f831160018114620007055760008415620006f0578287015190505b620006fc85826200066f565b8655506200076c565b601f1984166200071586620004bb565b60005b828110156200073f5784890151825560018201915060208501945060208101905062000718565b868310156200075f57848901516200075b601f8916826200064f565b8355505b6001600288020188555050505b505050505050565b7f4e487b7100000000000000000000000000000000000000000000000000000000600052601160045260246000fd5b6000620007b0826200017c565b9150620007bd836200017c565b9250817fffffffffffffffffffffffffffffffffffffffffffffffffffffffffffffffff0483118215151615620007f957620007f862000774565b5b828202905092915050565b600062000811826200017c565b91506200081e836200017c565b9250827fffffffffffffffffffffffffffffffffffffffffffffffffffffffffffffffff0382111562000856576200085562000774565b5b828201905092915050565b61294380620008716000396000f3fe6080604052600436106101e25760003560e01c80638975aa0811610102578063d789824011610095578063f63f965511610064578063f63f9655146106bd578063fbae5e7d146106fe578063fd74d2941461073b578063fda263e814610766576101e2565b8063d789824014610601578063d7d1bbdb1461063e578063e028a69314610667578063e0d370ac14610692576101e2565b8063a4758c9a116100d1578063a4758c9a14610564578063acdb83411461058f578063b2f8be5c146105ba578063b688a363146105f7576101e2565b80638975aa08146104b3578063937e09b1146104de57806398e1b41014610509578063999cc5ca14610527576101e2565b806332b7acec1161017a578063481c6a7511610149578063481c6a75146104435780635fb02f4d1461046e578063789b2e6c14610485578063864a53dc1461049c576101e2565b806332b7acec14610361578063364548cd1461039e5780633ba20f2a146103db5780633d22aea814610406576101e2565b80632b84b316116101b65780632b84b316146102b75780632ef3fa27146102e05780632f5274e31461030b57806331d0e40f14610336576101e2565b806260929a146101e7578063019998701461022457806306fdde031461024f5780631e28528e1461027a575b600080fd5b3480156101f357600080fd5b5061020e60048036038101906102099190611fdc565b610791565b60405161021b9190612037565b60405180910390f35b34801561023057600080fd5b50610239610810565b6040516102469190612061565b60405180910390f35b34801561025b57600080fd5b50610264610816565b6040516102719190612115565b60405180910390f35b34801561028657600080fd5b506102a1600480360381019061029c9190612137565b6108a4565b6040516102ae9190612037565b60405180910390f35b3480156102c357600080fd5b506102de60048036038101906102d99190612299565b6108c4565b005b3480156102ec57600080fd5b506102f5610975565b6040516103029190612061565b60405180910390f35b34801561031757600080fd5b506103206109a4565b60405161032d9190612061565b60405180910390f35b34801561034257600080fd5b5061034b6109aa565b6040516103589190612061565b60405180910390f35b34801561036d57600080fd5b5061038860048036038101906103839190612137565b6109b0565b6040516103959190612061565b60405180910390f35b3480156103aa57600080fd5b506103c560048036038101906103c09190612137565b6109c8565b6040516103d29190612037565b60405180910390f35b3480156103e757600080fd5b506103f06109e8565b6040516103fd9190612061565b60405180910390f35b34801561041257600080fd5b5061042d60048036038101906104289190612324565b6109ee565b60405161043a9190612037565b60405180910390f35b34801561044f57600080fd5b50610458610b43565b6040516104659190612360565b60405180910390f35b34801561047a57600080fd5b50610483610b69565b005b34801561049157600080fd5b5061049a610ca0565b005b3480156104a857600080fd5b506104b1610f24565b005b3480156104bf57600080fd5b506104c8611098565b6040516104d59190612061565b60405180910390f35b3480156104ea57600080fd5b506104f361109e565b6040516105009190612061565b60405180910390f35b6105116110a4565b60405161051e9190612037565b60405180910390f35b34801561053357600080fd5b5061054e60048036038101906105499190612137565b6110ad565b60405161055b9190612037565b60405180910390f35b34801561057057600080fd5b506105796110cd565b6040516105869190612061565b60405180910390f35b34801561059b57600080fd5b506105a46110d3565b6040516105b19190612061565b60405180910390f35b3480156105c657600080fd5b506105e160048036038101906105dc919061237b565b6111eb565b6040516105ee9190612037565b60405180910390f35b6105ff61144e565b005b34801561060d57600080fd5b5061062860048036038101906106239190612137565b611597565b6040516106359190612061565b60405180910390f35b34801561064a57600080fd5b5061066560048036038101906106609190612324565b6115af565b005b34801561067357600080fd5b5061067c6116fc565b6040516106899190612061565b60405180910390f35b34801561069e57600080fd5b506106a7611702565b6040516106b49190612360565b60405180910390f35b3480156106c957600080fd5b506106e460048036038101906106df9190612324565b611728565b6040516106f59594939291906123bb565b60405180910390f35b34801561070a57600080fd5b5061072560048036038101906107209190612324565b61188b565b6040516107329190612360565b60405180910390f35b34801561074757600080fd5b506107506118ca565b60405161075d9190612061565b60405180910390f35b34801561077257600080fd5b5061077b6118d0565b6040516107889190612061565b60405180910390f35b600080601484815481106107a8576107a761241c565b5b906000526020600020906006020190508060050160008473ffffffffffffffffffffffffffffffffffffffff1673ffffffffffffffffffffffffffffffffffffffff16815260200190815260200160002060009054906101000a900460ff1691505092915050565b600b5481565b600480546108239061247a565b80601f016020809104026020016040519081016040528092919081815260200182805461084f9061247a565b801561089c5780601f106108715761010080835404028352916020019161089c565b820191906000526020600020905b81548152906001019060200180831161087f57829003601f168201915b505050505081565b60076020528060005260406000206000915054906101000a900460ff1681565b600560009054906101000a900473ffffffffffffffffffffffffffffffffffffffff1673ffffffffffffffffffffffffffffffffffffffff163373ffffffffffffffffffffffffffffffffffffffff161461091e57600080fd5b600060146001816001815401808255809150500390600052602060002090600602019050828160000190816109539190612657565b508181600201819055508381600101908161096e9190612657565b5050505050565b60006103e86001546103e861098a9190612758565b47610995919061278c565b61099f9190612815565b905090565b60195481565b60175481565b600d6020528060005260406000206000915090505481565b60086020528060005260406000206000915054906101000a900460ff1681565b60115481565b600060011515601360009054906101000a900460ff16151514610a1057600080fd5b600560009054906101000a900473ffffffffffffffffffffffffffffffffffffffff1673ffffffffffffffffffffffffffffffffffffffff163373ffffffffffffffffffffffffffffffffffffffff1614610a6a57600080fd5b600060148381548110610a8057610a7f61241c565b5b906000526020600020906006020190506002600354610a9f9190612815565b81600401541015610aaf57600080fd5b600660009054906101000a900473ffffffffffffffffffffffffffffffffffffffff1673ffffffffffffffffffffffffffffffffffffffff166108fc82600201549081150290604051600060405180830381858888f19350505050158015610b1b573d6000803e3d6000fd5b5060018160030160006101000a81548160ff0219169083151502179055506001915050919050565b600560009054906101000a900473ffffffffffffffffffffffffffffffffffffffff1681565b6001601360006101000a81548160ff0219169083151502179055506000479050600080600090505b600a80549050811015610c93576000600a8281548110610bb457610bb361241c565b5b9060005260206000200160009054906101000a900473ffffffffffffffffffffffffffffffffffffffff169050600c60008273ffffffffffffffffffffffffffffffffffffffff1673ffffffffffffffffffffffffffffffffffffffff168152602001908152602001600020549250836103e884610c32919061278c565b610c3c9190612815565b600d60008373ffffffffffffffffffffffffffffffffffffffff1673ffffffffffffffffffffffffffffffffffffffff16815260200190815260200160002081905550508080610c8b90612846565b915050610b91565b50610c9c6118d6565b5050565b6002600354610caf9190612815565b600954101580610cd2575060001515601360009054906101000a900460ff161515145b610cdb57600080fd5b600660009054906101000a900473ffffffffffffffffffffffffffffffffffffffff1673ffffffffffffffffffffffffffffffffffffffff163373ffffffffffffffffffffffffffffffffffffffff1614610d3557600080fd5b610d3d610975565b60188190555060005b600a80549050811015610eaf576000600a8281548110610d6957610d6861241c565b5b9060005260206000200160009054906101000a900473ffffffffffffffffffffffffffffffffffffffff16905060001515600e60008373ffffffffffffffffffffffffffffffffffffffff1673ffffffffffffffffffffffffffffffffffffffff16815260200190815260200160002060009054906101000a900460ff16151503610e9b576000600d60008373ffffffffffffffffffffffffffffffffffffffff1673ffffffffffffffffffffffffffffffffffffffff16815260200190815260200160002054905060006103e860185483610e45919061278c565b610e4f9190612815565b90508273ffffffffffffffffffffffffffffffffffffffff166108fc829081150290604051600060405180830381858888f19350505050158015610e97573d6000803e3d6000fd5b5050505b508080610ea790612846565b915050610d46565b5047601781905550600560009054906101000a900473ffffffffffffffffffffffffffffffffffffffff1673ffffffffffffffffffffffffffffffffffffffff166108fc6017549081150290604051600060405180830381858888f19350505050158015610f21573d6000803e3d6000fd5b50565b60011515601360009054906101000a900460ff16151514610f4457600080fd5b600760003373ffffffffffffffffffffffffffffffffffffffff1673ffffffffffffffffffffffffffffffffffffffff16815260200190815260200160002060009054906101000a900460ff16610f9a57600080fd5b60001515600860003373ffffffffffffffffffffffffffffffffffffffff1673ffffffffffffffffffffffffffffffffffffffff16815260200190815260200160002060009054906101000a900460ff16151503611063576001600860003373ffffffffffffffffffffffffffffffffffffffff1673ffffffffffffffffffffffffffffffffffffffff16815260200190815260200160002060006101000a81548160ff0219169083151502179055506009600081548092919061105d90612846565b91905055505b60026003546110729190612815565b60095410611096576000601360006101000a81548160ff0219169083151502179055505b565b60165481565b600f5481565b60006001905090565b600e6020528060005260406000206000915054906101000a900460ff1681565b60185481565b60008060005b600a805490508110156111e3576000600a82815481106110fc576110fb61241c565b5b9060005260206000200160009054906101000a900473ffffffffffffffffffffffffffffffffffffffff16905060001515600e60008373ffffffffffffffffffffffffffffffffffffffff1673ffffffffffffffffffffffffffffffffffffffff16815260200190815260200160002060009054906101000a900460ff161515036111cf57600d60008273ffffffffffffffffffffffffffffffffffffffff1673ffffffffffffffffffffffffffffffffffffffff16815260200190815260200160002054836111cc919061288e565b92505b5080806111db90612846565b9150506110d9565b508091505090565b600060011515601360009054906101000a900460ff1615151461120d57600080fd5b600660009054906101000a900473ffffffffffffffffffffffffffffffffffffffff1673ffffffffffffffffffffffffffffffffffffffff163373ffffffffffffffffffffffffffffffffffffffff161461126757600080fd5b60001515600760003373ffffffffffffffffffffffffffffffffffffffff1673ffffffffffffffffffffffffffffffffffffffff16815260200190815260200160002060009054906101000a900460ff161515146112c457600080fd5b6000600d60008573ffffffffffffffffffffffffffffffffffffffff1673ffffffffffffffffffffffffffffffffffffffff1681526020019081526020016000205490506000611312610975565b8461131d919061288e565b905060006103e86000546103e88585611336919061278c565b6113409190612815565b61134a919061278c565b6113549190612815565b905080601681905550478111611440576016546019819055508573ffffffffffffffffffffffffffffffffffffffff166108fc829081150290604051600060405180830381858888f193505050501580156113b3573d6000803e3d6000fd5b506001600e60008873ffffffffffffffffffffffffffffffffffffffff1673ffffffffffffffffffffffffffffffffffffffff16815260200190815260200160002060006101000a81548160ff0219169083151502179055508060158190555061141c83611dbc565b600b600081548092919061142f906128e4565b919050555060019350505050611448565b600093505050505b92915050565b60001515601360009054906101000a900460ff1615151461146e57600080fd5b6000600c60003373ffffffffffffffffffffffffffffffffffffffff1673ffffffffffffffffffffffffffffffffffffffff1681526020019081526020016000205490506000810361154557600f543410156114c957600080fd5b600a339080600181540180825580915050600190039060005260206000200160009091909190916101000a81548173ffffffffffffffffffffffffffffffffffffffff021916908373ffffffffffffffffffffffffffffffffffffffff160217905550600b600081548092919061153f90612846565b91905055505b3481611551919061288e565b600c60003373ffffffffffffffffffffffffffffffffffffffff1673ffffffffffffffffffffffffffffffffffffffff1681526020019081526020016000208190555050565b600c6020528060005260406000206000915090505481565b600760003373ffffffffffffffffffffffffffffffffffffffff1673ffffffffffffffffffffffffffffffffffffffff16815260200190815260200160002060009054906101000a900460ff1661160557600080fd5b60006014828154811061161b5761161a61241c565b5b906000526020600020906006020190508060050160003373ffffffffffffffffffffffffffffffffffffffff1673ffffffffffffffffffffffffffffffffffffffff16815260200190815260200160002060009054906101000a900460ff161561168457600080fd5b60018160050160003373ffffffffffffffffffffffffffffffffffffffff1673ffffffffffffffffffffffffffffffffffffffff16815260200190815260200160002060006101000a81548160ff0219169083151502179055508060040160008154809291906116f390612846565b91905055505050565b60155481565b600660009054906101000a900473ffffffffffffffffffffffffffffffffffffffff1681565b6014818154811061173857600080fd5b906000526020600020906006020160009150905080600001805461175b9061247a565b80601f01602080910402602001604051908101604052809291908181526020018280546117879061247a565b80156117d45780601f106117a9576101008083540402835291602001916117d4565b820191906000526020600020905b8154815290600101906020018083116117b757829003601f168201915b5050505050908060010180546117e99061247a565b80601f01602080910402602001604051908101604052809291908181526020018280546118159061247a565b80156118625780601f1061183757610100808354040283529160200191611862565b820191906000526020600020905b81548152906001019060200180831161184557829003601f168201915b5050505050908060020154908060030160009054906101000a900460ff16908060040154905085565b600a818154811061189b57600080fd5b906000526020600020016000915054906101000a900473ffffffffffffffffffffffffffffffffffffffff1681565b60105481565b60125481565b600060035467ffffffffffffffff8111156118f4576118f361216e565b5b6040519080825280602002602001820160405280156119225781602001602082028036833780820191505090505b509050600060035467ffffffffffffffff8111156119435761194261216e565b5b6040519080825280602002602001820160405280156119715781602001602082028036833780820191505090505b50905060008060009050600080600a6000815481106119935761199261241c565b5b9060005260206000200160009054906101000a900473ffffffffffffffffffffffffffffffffffffffff16905080866000815181106119d5576119d461241c565b5b602002602001019073ffffffffffffffffffffffffffffffffffffffff16908173ffffffffffffffffffffffffffffffffffffffff1681525050600c60008273ffffffffffffffffffffffffffffffffffffffff1673ffffffffffffffffffffffffffffffffffffffff1681526020019081526020016000205493508385600081518110611a6657611a6561241c565b5b6020026020010181815250506000600190505b600354811015611b9657600a8181548110611a9757611a9661241c565b5b9060005260206000200160009054906101000a900473ffffffffffffffffffffffffffffffffffffffff16915081878281518110611ad857611ad761241c565b5b602002602001019073ffffffffffffffffffffffffffffffffffffffff16908173ffffffffffffffffffffffffffffffffffffffff1681525050600c60008373ffffffffffffffffffffffffffffffffffffffff1673ffffffffffffffffffffffffffffffffffffffff16815260200190815260200160002054925082868281518110611b6857611b6761241c565b5b60200260200101818152505082851115611b83578294508093505b8080611b8e90612846565b915050611a79565b50600060035490505b600a80549050811015611d2057600a8181548110611bc057611bbf61241c565b5b9060005260206000200160009054906101000a900473ffffffffffffffffffffffffffffffffffffffff169150600c60008373ffffffffffffffffffffffffffffffffffffffff1673ffffffffffffffffffffffffffffffffffffffff16815260200190815260200160002054925084831115611d0d5781878581518110611c4b57611c4a61241c565b5b602002602001019073ffffffffffffffffffffffffffffffffffffffff16908173ffffffffffffffffffffffffffffffffffffffff168152505082868581518110611c9957611c9861241c565b5b60200260200101818152505082945060005b600354811015611d0b5785878281518110611cc957611cc861241c565b5b60200260200101511015611cf857868181518110611cea57611ce961241c565b5b602002602001015195508094505b8080611d0390612846565b915050611cab565b505b8080611d1890612846565b915050611b9f565b5060005b600354811015611db357600160076000898481518110611d4757611d4661241c565b5b602002602001015173ffffffffffffffffffffffffffffffffffffffff1673ffffffffffffffffffffffffffffffffffffffff16815260200190815260200160002060006101000a81548160ff0219169083151502179055508080611dab90612846565b915050611d24565b50505050505050565b6000816103e8611dcc9190612758565b905060005b600a80549050811015611f2f576000600a8281548110611df457611df361241c565b5b9060005260206000200160009054906101000a900473ffffffffffffffffffffffffffffffffffffffff16905060001515600e60008373ffffffffffffffffffffffffffffffffffffffff1673ffffffffffffffffffffffffffffffffffffffff16815260200190815260200160002060009054906101000a900460ff16151503611f1b576000836103e8600d60008573ffffffffffffffffffffffffffffffffffffffff1673ffffffffffffffffffffffffffffffffffffffff16815260200190815260200160002054611ec9919061278c565b611ed39190612815565b905080600d60008473ffffffffffffffffffffffffffffffffffffffff1673ffffffffffffffffffffffffffffffffffffffff16815260200190815260200160002081905550505b508080611f2790612846565b915050611dd1565b505050565b6000604051905090565b600080fd5b600080fd5b6000819050919050565b611f5b81611f48565b8114611f6657600080fd5b50565b600081359050611f7881611f52565b92915050565b600073ffffffffffffffffffffffffffffffffffffffff82169050919050565b6000611fa982611f7e565b9050919050565b611fb981611f9e565b8114611fc457600080fd5b50565b600081359050611fd681611fb0565b92915050565b60008060408385031215611ff357611ff2611f3e565b5b600061200185828601611f69565b925050602061201285828601611fc7565b9150509250929050565b60008115159050919050565b6120318161201c565b82525050565b600060208201905061204c6000830184612028565b92915050565b61205b81611f48565b82525050565b60006020820190506120766000830184612052565b92915050565b600081519050919050565b600082825260208201905092915050565b60005b838110156120b657808201518184015260208101905061209b565b838111156120c5576000848401525b50505050565b6000601f19601f8301169050919050565b60006120e78261207c565b6120f18185612087565b9350612101818560208601612098565b61210a816120cb565b840191505092915050565b6000602082019050818103600083015261212f81846120dc565b905092915050565b60006020828403121561214d5761214c611f3e565b5b600061215b84828501611fc7565b91505092915050565b600080fd5b600080fd5b7f4e487b7100000000000000000000000000000000000000000000000000000000600052604160045260246000fd5b6121a6826120cb565b810181811067ffffffffffffffff821117156121c5576121c461216e565b5b80604052505050565b60006121d8611f34565b90506121e4828261219d565b919050565b600067ffffffffffffffff8211156122045761220361216e565b5b61220d826120cb565b9050602081019050919050565b82818337600083830152505050565b600061223c612237846121e9565b6121ce565b90508281526020810184848401111561225857612257612169565b5b61226384828561221a565b509392505050565b600082601f8301126122805761227f612164565b5b8135612290848260208601612229565b91505092915050565b6000806000606084860312156122b2576122b1611f3e565b5b600084013567ffffffffffffffff8111156122d0576122cf611f43565b5b6122dc8682870161226b565b935050602084013567ffffffffffffffff8111156122fd576122fc611f43565b5b6123098682870161226b565b925050604061231a86828701611f69565b9150509250925092565b60006020828403121561233a57612339611f3e565b5b600061234884828501611f69565b91505092915050565b61235a81611f9e565b82525050565b60006020820190506123756000830184612351565b92915050565b6000806040838503121561239257612391611f3e565b5b60006123a085828601611fc7565b92505060206123b185828601611f69565b9150509250929050565b600060a08201905081810360008301526123d581886120dc565b905081810360208301526123e981876120dc565b90506123f86040830186612052565b6124056060830185612028565b6124126080830184612052565b9695505050505050565b7f4e487b7100000000000000000000000000000000000000000000000000000000600052603260045260246000fd5b7f4e487b7100000000000000000000000000000000000000000000000000000000600052602260045260246000fd5b6000600282049050600182168061249257607f821691505b6020821081036124a5576124a461244b565b5b50919050565b60008190508160005260206000209050919050565b60006020601f8301049050919050565b600082821b905092915050565b60006008830261250d7fffffffffffffffffffffffffffffffffffffffffffffffffffffffffffffffff826124d0565b61251786836124d0565b95508019841693508086168417925050509392505050565b6000819050919050565b600061255461254f61254a84611f48565b61252f565b611f48565b9050919050565b6000819050919050565b61256e83612539565b61258261257a8261255b565b8484546124dd565b825550505050565b600090565b61259761258a565b6125a2818484612565565b505050565b5b818110156125c6576125bb60008261258f565b6001810190506125a8565b5050565b601f82111561260b576125dc816124ab565b6125e5846124c0565b810160208510156125f4578190505b612608612600856124c0565b8301826125a7565b50505b505050565b600082821c905092915050565b600061262e60001984600802612610565b1980831691505092915050565b6000612647838361261d565b9150826002028217905092915050565b6126608261207c565b67ffffffffffffffff8111156126795761267861216e565b5b612683825461247a565b61268e8282856125ca565b600060209050601f8311600181146126c157600084156126af578287015190505b6126b9858261263b565b865550612721565b601f1984166126cf866124ab565b60005b828110156126f7578489015182556001820191506020850194506020810190506126d2565b868310156127145784890151612710601f89168261261d565b8355505b6001600288020188555050505b505050505050565b7f4e487b7100000000000000000000000000000000000000000000000000000000600052601160045260246000fd5b600061276382611f48565b915061276e83611f48565b92508282101561278157612780612729565b5b828203905092915050565b600061279782611f48565b91506127a283611f48565b9250817fffffffffffffffffffffffffffffffffffffffffffffffffffffffffffffffff04831182151516156127db576127da612729565b5b828202905092915050565b7f4e487b7100000000000000000000000000000000000000000000000000000000600052601260045260246000fd5b600061282082611f48565b915061282b83611f48565b92508261283b5761283a6127e6565b5b828204905092915050565b600061285182611f48565b91507fffffffffffffffffffffffffffffffffffffffffffffffffffffffffffffffff820361288357612882612729565b5b600182019050919050565b600061289982611f48565b91506128a483611f48565b9250827fffffffffffffffffffffffffffffffffffffffffffffffffffffffffffffffff038211156128d9576128d8612729565b5b828201905092915050565b60006128ef82611f48565b91506000820361290257612901612729565b5b60018203905091905056fea2646970667358221220345d1c2dda7255a2ad98a662bd56c6aae5ba1cfe7350aaa035d16273e638732364736f6c634300080f0033","opcodes":"PUSH1 0x80 PUSH1 0x40 MSTORE PUSH2 0x320 PUSH1 0x0 SSTORE PUSH1 0x64 PUSH1 0x1 SSTORE PUSH1 0x14 PUSH1 0x2 SSTORE PUSH1 0x4 PUSH1 0x3 SSTORE PUSH1 0x0 PUSH1 0x9 SSTORE PUSH1 0x0 PUSH1 0xB SSTORE CALLVALUE DUP1 ISZERO PUSH3 0x30 JUMPI PUSH1 0x0 DUP1 REVERT JUMPDEST POP PUSH1 0x40 MLOAD PUSH3 0x31B4 CODESIZE SUB DUP1 PUSH3 0x31B4 DUP4 CODECOPY DUP2 DUP2 ADD PUSH1 0x40 MSTORE DUP2 ADD SWAP1 PUSH3 0x56 SWAP2 SWAP1 PUSH3 0x3A5 JUMP JUMPDEST DUP1 PUSH1 0x4 SWAP1 DUP2 PUSH3 0x67 SWAP2 SWAP1 PUSH3 0x68D JUMP JUMPDEST POP DUP2 PUSH1 0x6 PUSH1 0x0 PUSH2 0x100 EXP DUP2 SLOAD DUP2 PUSH20 0xFFFFFFFFFFFFFFFFFFFFFFFFFFFFFFFFFFFFFFFF MUL NOT AND SWAP1 DUP4 PUSH20 0xFFFFFFFFFFFFFFFFFFFFFFFFFFFFFFFFFFFFFFFF AND MUL OR SWAP1 SSTORE POP DUP3 PUSH1 0x5 PUSH1 0x0 PUSH2 0x100 EXP DUP2 SLOAD DUP2 PUSH20 0xFFFFFFFFFFFFFFFFFFFFFFFFFFFFFFFFFFFFFFFF MUL NOT AND SWAP1 DUP4 PUSH20 0xFFFFFFFFFFFFFFFFFFFFFFFFFFFFFFFFFFFFFFFF AND MUL OR SWAP1 SSTORE POP DUP5 PUSH1 0xF DUP2 SWAP1 SSTORE POP TIMESTAMP PUSH1 0x10 DUP2 SWAP1 SSTORE POP PUSH3 0x15180 DUP5 PUSH3 0x109 SWAP2 SWAP1 PUSH3 0x7A3 JUMP JUMPDEST TIMESTAMP PUSH3 0x116 SWAP2 SWAP1 PUSH3 0x804 JUMP JUMPDEST PUSH1 0x12 DUP2 SWAP1 SSTORE POP PUSH3 0x15180 PUSH1 0x2 SLOAD PUSH3 0x12F SWAP2 SWAP1 PUSH3 0x7A3 JUMP JUMPDEST TIMESTAMP PUSH3 0x13C SWAP2 SWAP1 PUSH3 0x804 JUMP JUMPDEST PUSH1 0x11 DUP2 SWAP1 SSTORE POP PUSH1 0x0 PUSH1 0x13 PUSH1 0x0 PUSH2 0x100 EXP DUP2 SLOAD DUP2 PUSH1 0xFF MUL NOT AND SWAP1 DUP4 ISZERO ISZERO MUL OR SWAP1 SSTORE POP POP POP POP POP POP PUSH3 0x861 JUMP JUMPDEST PUSH1 0x0 PUSH1 0x40 MLOAD SWAP1 POP SWAP1 JUMP JUMPDEST PUSH1 0x0 DUP1 REVERT JUMPDEST PUSH1 0x0 DUP1 REVERT JUMPDEST PUSH1 0x0 DUP2 SWAP1 POP SWAP2 SWAP1 POP JUMP JUMPDEST PUSH3 0x191 DUP2 PUSH3 0x17C JUMP JUMPDEST DUP2 EQ PUSH3 0x19D JUMPI PUSH1 0x0 DUP1 REVERT JUMPDEST POP JUMP JUMPDEST PUSH1 0x0 DUP2 MLOAD SWAP1 POP PUSH3 0x1B1 DUP2 PUSH3 0x186 JUMP JUMPDEST SWAP3 SWAP2 POP POP JUMP JUMPDEST PUSH1 0x0 PUSH20 0xFFFFFFFFFFFFFFFFFFFFFFFFFFFFFFFFFFFFFFFF DUP3 AND SWAP1 POP SWAP2 SWAP1 POP JUMP JUMPDEST PUSH1 0x0 PUSH3 0x1E4 DUP3 PUSH3 0x1B7 JUMP JUMPDEST SWAP1 POP SWAP2 SWAP1 POP JUMP JUMPDEST PUSH3 0x1F6 DUP2 PUSH3 0x1D7 JUMP JUMPDEST DUP2 EQ PUSH3 0x202 JUMPI PUSH1 0x0 DUP1 REVERT JUMPDEST POP JUMP JUMPDEST PUSH1 0x0 DUP2 MLOAD SWAP1 POP PUSH3 0x216 DUP2 PUSH3 0x1EB JUMP JUMPDEST SWAP3 SWAP2 POP POP JUMP JUMPDEST PUSH1 0x0 DUP1 REVERT JUMPDEST PUSH1 0x0 DUP1 REVERT JUMPDEST PUSH1 0x0 PUSH1 0x1F NOT PUSH1 0x1F DUP4 ADD AND SWAP1 POP SWAP2 SWAP1 POP JUMP JUMPDEST PUSH32 0x4E487B7100000000000000000000000000000000000000000000000000000000 PUSH1 0x0 MSTORE PUSH1 0x41 PUSH1 0x4 MSTORE PUSH1 0x24 PUSH1 0x0 REVERT JUMPDEST PUSH3 0x271 DUP3 PUSH3 0x226 JUMP JUMPDEST DUP2 ADD DUP2 DUP2 LT PUSH8 0xFFFFFFFFFFFFFFFF DUP3 GT OR ISZERO PUSH3 0x293 JUMPI PUSH3 0x292 PUSH3 0x237 JUMP JUMPDEST JUMPDEST DUP1 PUSH1 0x40 MSTORE POP POP POP JUMP JUMPDEST PUSH1 0x0 PUSH3 0x2A8 PUSH3 0x168 JUMP JUMPDEST SWAP1 POP PUSH3 0x2B6 DUP3 DUP3 PUSH3 0x266 JUMP JUMPDEST SWAP2 SWAP1 POP JUMP JUMPDEST PUSH1 0x0 PUSH8 0xFFFFFFFFFFFFFFFF DUP3 GT ISZERO PUSH3 0x2D9 JUMPI PUSH3 0x2D8 PUSH3 0x237 JUMP JUMPDEST JUMPDEST PUSH3 0x2E4 DUP3 PUSH3 0x226 JUMP JUMPDEST SWAP1 POP PUSH1 0x20 DUP2 ADD SWAP1 POP SWAP2 SWAP1 POP JUMP JUMPDEST PUSH1 0x0 JUMPDEST DUP4 DUP2 LT ISZERO PUSH3 0x311 JUMPI DUP1 DUP3 ADD MLOAD DUP2 DUP5 ADD MSTORE PUSH1 0x20 DUP2 ADD SWAP1 POP PUSH3 0x2F4 JUMP JUMPDEST DUP4 DUP2 GT ISZERO PUSH3 0x321 JUMPI PUSH1 0x0 DUP5 DUP5 ADD MSTORE JUMPDEST POP POP POP POP JUMP JUMPDEST PUSH1 0x0 PUSH3 0x33E PUSH3 0x338 DUP5 PUSH3 0x2BB JUMP JUMPDEST PUSH3 0x29C JUMP JUMPDEST SWAP1 POP DUP3 DUP2 MSTORE PUSH1 0x20 DUP2 ADD DUP5 DUP5 DUP5 ADD GT ISZERO PUSH3 0x35D JUMPI PUSH3 0x35C PUSH3 0x221 JUMP JUMPDEST JUMPDEST PUSH3 0x36A DUP5 DUP3 DUP6 PUSH3 0x2F1 JUMP JUMPDEST POP SWAP4 SWAP3 POP POP POP JUMP JUMPDEST PUSH1 0x0 DUP3 PUSH1 0x1F DUP4 ADD SLT PUSH3 0x38A JUMPI PUSH3 0x389 PUSH3 0x21C JUMP JUMPDEST JUMPDEST DUP2 MLOAD PUSH3 0x39C DUP5 DUP3 PUSH1 0x20 DUP7 ADD PUSH3 0x327 JUMP JUMPDEST SWAP2 POP POP SWAP3 SWAP2 POP POP JUMP JUMPDEST PUSH1 0x0 DUP1 PUSH1 0x0 DUP1 PUSH1 0x0 PUSH1 0xA0 DUP7 DUP9 SUB SLT ISZERO PUSH3 0x3C4 JUMPI PUSH3 0x3C3 PUSH3 0x172 JUMP JUMPDEST JUMPDEST PUSH1 0x0 PUSH3 0x3D4 DUP9 DUP3 DUP10 ADD PUSH3 0x1A0 JUMP JUMPDEST SWAP6 POP POP PUSH1 0x20 PUSH3 0x3E7 DUP9 DUP3 DUP10 ADD PUSH3 0x1A0 JUMP JUMPDEST SWAP5 POP POP PUSH1 0x40 PUSH3 0x3FA DUP9 DUP3 DUP10 ADD PUSH3 0x205 JUMP JUMPDEST SWAP4 POP POP PUSH1 0x60 PUSH3 0x40D DUP9 DUP3 DUP10 ADD PUSH3 0x205 JUMP JUMPDEST SWAP3 POP POP PUSH1 0x80 DUP7 ADD MLOAD PUSH8 0xFFFFFFFFFFFFFFFF DUP2 GT ISZERO PUSH3 0x431 JUMPI PUSH3 0x430 PUSH3 0x177 JUMP JUMPDEST JUMPDEST PUSH3 0x43F DUP9 DUP3 DUP10 ADD PUSH3 0x372 JUMP JUMPDEST SWAP2 POP POP SWAP3 SWAP6 POP SWAP3 SWAP6 SWAP1 SWAP4 POP JUMP JUMPDEST PUSH1 0x0 DUP2 MLOAD SWAP1 POP SWAP2 SWAP1 POP JUMP JUMPDEST PUSH32 0x4E487B7100000000000000000000000000000000000000000000000000000000 PUSH1 0x0 MSTORE PUSH1 0x22 PUSH1 0x4 MSTORE PUSH1 0x24 PUSH1 0x0 REVERT JUMPDEST PUSH1 0x0 PUSH1 0x2 DUP3 DIV SWAP1 POP PUSH1 0x1 DUP3 AND DUP1 PUSH3 0x49F JUMPI PUSH1 0x7F DUP3 AND SWAP2 POP JUMPDEST PUSH1 0x20 DUP3 LT DUP2 SUB PUSH3 0x4B5 JUMPI PUSH3 0x4B4 PUSH3 0x457 JUMP JUMPDEST JUMPDEST POP SWAP2 SWAP1 POP JUMP JUMPDEST PUSH1 0x0 DUP2 SWAP1 POP DUP2 PUSH1 0x0 MSTORE PUSH1 0x20 PUSH1 0x0 KECCAK256 SWAP1 POP SWAP2 SWAP1 POP JUMP JUMPDEST PUSH1 0x0 PUSH1 0x20 PUSH1 0x1F DUP4 ADD DIV SWAP1 POP SWAP2 SWAP1 POP JUMP JUMPDEST PUSH1 0x0 DUP3 DUP3 SHL SWAP1 POP SWAP3 SWAP2 POP POP JUMP JUMPDEST PUSH1 0x0 PUSH1 0x8 DUP4 MUL PUSH3 0x51F PUSH32 0xFFFFFFFFFFFFFFFFFFFFFFFFFFFFFFFFFFFFFFFFFFFFFFFFFFFFFFFFFFFFFFFF DUP3 PUSH3 0x4E0 JUMP JUMPDEST PUSH3 0x52B DUP7 DUP4 PUSH3 0x4E0 JUMP JUMPDEST SWAP6 POP DUP1 NOT DUP5 AND SWAP4 POP DUP1 DUP7 AND DUP5 OR SWAP3 POP POP POP SWAP4 SWAP3 POP POP POP JUMP JUMPDEST PUSH1 0x0 DUP2 SWAP1 POP SWAP2 SWAP1 POP JUMP JUMPDEST PUSH1 0x0 PUSH3 0x56E PUSH3 0x568 PUSH3 0x562 DUP5 PUSH3 0x17C JUMP JUMPDEST PUSH3 0x543 JUMP JUMPDEST PUSH3 0x17C JUMP JUMPDEST SWAP1 POP SWAP2 SWAP1 POP JUMP JUMPDEST PUSH1 0x0 DUP2 SWAP1 POP SWAP2 SWAP1 POP JUMP JUMPDEST PUSH3 0x58A DUP4 PUSH3 0x54D JUMP JUMPDEST PUSH3 0x5A2 PUSH3 0x599 DUP3 PUSH3 0x575 JUMP JUMPDEST DUP5 DUP5 SLOAD PUSH3 0x4ED JUMP JUMPDEST DUP3 SSTORE POP POP POP POP JUMP JUMPDEST PUSH1 0x0 SWAP1 JUMP JUMPDEST PUSH3 0x5B9 PUSH3 0x5AA JUMP JUMPDEST PUSH3 0x5C6 DUP2 DUP5 DUP5 PUSH3 0x57F JUMP JUMPDEST POP POP POP JUMP JUMPDEST JUMPDEST DUP2 DUP2 LT ISZERO PUSH3 0x5EE JUMPI PUSH3 0x5E2 PUSH1 0x0 DUP3 PUSH3 0x5AF JUMP JUMPDEST PUSH1 0x1 DUP2 ADD SWAP1 POP PUSH3 0x5CC JUMP JUMPDEST POP POP JUMP JUMPDEST PUSH1 0x1F DUP3 GT ISZERO PUSH3 0x63D JUMPI PUSH3 0x607 DUP2 PUSH3 0x4BB JUMP JUMPDEST PUSH3 0x612 DUP5 PUSH3 0x4D0 JUMP JUMPDEST DUP2 ADD PUSH1 0x20 DUP6 LT ISZERO PUSH3 0x622 JUMPI DUP2 SWAP1 POP JUMPDEST PUSH3 0x63A PUSH3 0x631 DUP6 PUSH3 0x4D0 JUMP JUMPDEST DUP4 ADD DUP3 PUSH3 0x5CB JUMP JUMPDEST POP POP JUMPDEST POP POP POP JUMP JUMPDEST PUSH1 0x0 DUP3 DUP3 SHR SWAP1 POP SWAP3 SWAP2 POP POP JUMP JUMPDEST PUSH1 0x0 PUSH3 0x662 PUSH1 0x0 NOT DUP5 PUSH1 0x8 MUL PUSH3 0x642 JUMP JUMPDEST NOT DUP1 DUP4 AND SWAP2 POP POP SWAP3 SWAP2 POP POP JUMP JUMPDEST PUSH1 0x0 PUSH3 0x67D DUP4 DUP4 PUSH3 0x64F JUMP JUMPDEST SWAP2 POP DUP3 PUSH1 0x2 MUL DUP3 OR SWAP1 POP SWAP3 SWAP2 POP POP JUMP JUMPDEST PUSH3 0x698 DUP3 PUSH3 0x44C JUMP JUMPDEST PUSH8 0xFFFFFFFFFFFFFFFF DUP2 GT ISZERO PUSH3 0x6B4 JUMPI PUSH3 0x6B3 PUSH3 0x237 JUMP JUMPDEST JUMPDEST PUSH3 0x6C0 DUP3 SLOAD PUSH3 0x486 JUMP JUMPDEST PUSH3 0x6CD DUP3 DUP3 DUP6 PUSH3 0x5F2 JUMP JUMPDEST PUSH1 0x0 PUSH1 0x20 SWAP1 POP PUSH1 0x1F DUP4 GT PUSH1 0x1 DUP2 EQ PUSH3 0x705 JUMPI PUSH1 0x0 DUP5 ISZERO PUSH3 0x6F0 JUMPI DUP3 DUP8 ADD MLOAD SWAP1 POP JUMPDEST PUSH3 0x6FC DUP6 DUP3 PUSH3 0x66F JUMP JUMPDEST DUP7 SSTORE POP PUSH3 0x76C JUMP JUMPDEST PUSH1 0x1F NOT DUP5 AND PUSH3 0x715 DUP7 PUSH3 0x4BB JUMP JUMPDEST PUSH1 0x0 JUMPDEST DUP3 DUP2 LT ISZERO PUSH3 0x73F JUMPI DUP5 DUP10 ADD MLOAD DUP3 SSTORE PUSH1 0x1 DUP3 ADD SWAP2 POP PUSH1 0x20 DUP6 ADD SWAP5 POP PUSH1 0x20 DUP2 ADD SWAP1 POP PUSH3 0x718 JUMP JUMPDEST DUP7 DUP4 LT ISZERO PUSH3 0x75F JUMPI DUP5 DUP10 ADD MLOAD PUSH3 0x75B PUSH1 0x1F DUP10 AND DUP3 PUSH3 0x64F JUMP JUMPDEST DUP4 SSTORE POP JUMPDEST PUSH1 0x1 PUSH1 0x2 DUP9 MUL ADD DUP9 SSTORE POP POP POP JUMPDEST POP POP POP POP POP POP JUMP JUMPDEST PUSH32 0x4E487B7100000000000000000000000000000000000000000000000000000000 PUSH1 0x0 MSTORE PUSH1 0x11 PUSH1 0x4 MSTORE PUSH1 0x24 PUSH1 0x0 REVERT JUMPDEST PUSH1 0x0 PUSH3 0x7B0 DUP3 PUSH3 0x17C JUMP JUMPDEST SWAP2 POP PUSH3 0x7BD DUP4 PUSH3 0x17C JUMP JUMPDEST SWAP3 POP DUP2 PUSH32 0xFFFFFFFFFFFFFFFFFFFFFFFFFFFFFFFFFFFFFFFFFFFFFFFFFFFFFFFFFFFFFFFF DIV DUP4 GT DUP3 ISZERO ISZERO AND ISZERO PUSH3 0x7F9 JUMPI PUSH3 0x7F8 PUSH3 0x774 JUMP JUMPDEST JUMPDEST DUP3 DUP3 MUL SWAP1 POP SWAP3 SWAP2 POP POP JUMP JUMPDEST PUSH1 0x0 PUSH3 0x811 DUP3 PUSH3 0x17C JUMP JUMPDEST SWAP2 POP PUSH3 0x81E DUP4 PUSH3 0x17C JUMP JUMPDEST SWAP3 POP DUP3 PUSH32 0xFFFFFFFFFFFFFFFFFFFFFFFFFFFFFFFFFFFFFFFFFFFFFFFFFFFFFFFFFFFFFFFF SUB DUP3 GT ISZERO PUSH3 0x856 JUMPI PUSH3 0x855 PUSH3 0x774 JUMP JUMPDEST JUMPDEST DUP3 DUP3 ADD SWAP1 POP SWAP3 SWAP2 POP POP JUMP JUMPDEST PUSH2 0x2943 DUP1 PUSH3 0x871 PUSH1 0x0 CODECOPY PUSH1 0x0 RETURN INVALID PUSH1 0x80 PUSH1 0x40 MSTORE PUSH1 0x4 CALLDATASIZE LT PUSH2 0x1E2 JUMPI PUSH1 0x0 CALLDATALOAD PUSH1 0xE0 SHR DUP1 PUSH4 0x8975AA08 GT PUSH2 0x102 JUMPI DUP1 PUSH4 0xD7898240 GT PUSH2 0x95 JUMPI DUP1 PUSH4 0xF63F9655 GT PUSH2 0x64 JUMPI DUP1 PUSH4 0xF63F9655 EQ PUSH2 0x6BD JUMPI DUP1 PUSH4 0xFBAE5E7D EQ PUSH2 0x6FE JUMPI DUP1 PUSH4 0xFD74D294 EQ PUSH2 0x73B JUMPI DUP1 PUSH4 0xFDA263E8 EQ PUSH2 0x766 JUMPI PUSH2 0x1E2 JUMP JUMPDEST DUP1 PUSH4 0xD7898240 EQ PUSH2 0x601 JUMPI DUP1 PUSH4 0xD7D1BBDB EQ PUSH2 0x63E JUMPI DUP1 PUSH4 0xE028A693 EQ PUSH2 0x667 JUMPI DUP1 PUSH4 0xE0D370AC EQ PUSH2 0x692 JUMPI PUSH2 0x1E2 JUMP JUMPDEST DUP1 PUSH4 0xA4758C9A GT PUSH2 0xD1 JUMPI DUP1 PUSH4 0xA4758C9A EQ PUSH2 0x564 JUMPI DUP1 PUSH4 0xACDB8341 EQ PUSH2 0x58F JUMPI DUP1 PUSH4 0xB2F8BE5C EQ PUSH2 0x5BA JUMPI DUP1 PUSH4 0xB688A363 EQ PUSH2 0x5F7 JUMPI PUSH2 0x1E2 JUMP JUMPDEST DUP1 PUSH4 0x8975AA08 EQ PUSH2 0x4B3 JUMPI DUP1 PUSH4 0x937E09B1 EQ PUSH2 0x4DE JUMPI DUP1 PUSH4 0x98E1B410 EQ PUSH2 0x509 JUMPI DUP1 PUSH4 0x999CC5CA EQ PUSH2 0x527 JUMPI PUSH2 0x1E2 JUMP JUMPDEST DUP1 PUSH4 0x32B7ACEC GT PUSH2 0x17A JUMPI DUP1 PUSH4 0x481C6A75 GT PUSH2 0x149 JUMPI DUP1 PUSH4 0x481C6A75 EQ PUSH2 0x443 JUMPI DUP1 PUSH4 0x5FB02F4D EQ PUSH2 0x46E JUMPI DUP1 PUSH4 0x789B2E6C EQ PUSH2 0x485 JUMPI DUP1 PUSH4 0x864A53DC EQ PUSH2 0x49C JUMPI PUSH2 0x1E2 JUMP JUMPDEST DUP1 PUSH4 0x32B7ACEC EQ PUSH2 0x361 JUMPI DUP1 PUSH4 0x364548CD EQ PUSH2 0x39E JUMPI DUP1 PUSH4 0x3BA20F2A EQ PUSH2 0x3DB JUMPI DUP1 PUSH4 0x3D22AEA8 EQ PUSH2 0x406 JUMPI PUSH2 0x1E2 JUMP JUMPDEST DUP1 PUSH4 0x2B84B316 GT PUSH2 0x1B6 JUMPI DUP1 PUSH4 0x2B84B316 EQ PUSH2 0x2B7 JUMPI DUP1 PUSH4 0x2EF3FA27 EQ PUSH2 0x2E0 JUMPI DUP1 PUSH4 0x2F5274E3 EQ PUSH2 0x30B JUMPI DUP1 PUSH4 0x31D0E40F EQ PUSH2 0x336 JUMPI PUSH2 0x1E2 JUMP JUMPDEST DUP1 PUSH3 0x60929A EQ PUSH2 0x1E7 JUMPI DUP1 PUSH4 0x1999870 EQ PUSH2 0x224 JUMPI DUP1 PUSH4 0x6FDDE03 EQ PUSH2 0x24F JUMPI DUP1 PUSH4 0x1E28528E EQ PUSH2 0x27A JUMPI JUMPDEST PUSH1 0x0 DUP1 REVERT JUMPDEST CALLVALUE DUP1 ISZERO PUSH2 0x1F3 JUMPI PUSH1 0x0 DUP1 REVERT JUMPDEST POP PUSH2 0x20E PUSH1 0x4 DUP1 CALLDATASIZE SUB DUP2 ADD SWAP1 PUSH2 0x209 SWAP2 SWAP1 PUSH2 0x1FDC JUMP JUMPDEST PUSH2 0x791 JUMP JUMPDEST PUSH1 0x40 MLOAD PUSH2 0x21B SWAP2 SWAP1 PUSH2 0x2037 JUMP JUMPDEST PUSH1 0x40 MLOAD DUP1 SWAP2 SUB SWAP1 RETURN JUMPDEST CALLVALUE DUP1 ISZERO PUSH2 0x230 JUMPI PUSH1 0x0 DUP1 REVERT JUMPDEST POP PUSH2 0x239 PUSH2 0x810 JUMP JUMPDEST PUSH1 0x40 MLOAD PUSH2 0x246 SWAP2 SWAP1 PUSH2 0x2061 JUMP JUMPDEST PUSH1 0x40 MLOAD DUP1 SWAP2 SUB SWAP1 RETURN JUMPDEST CALLVALUE DUP1 ISZERO PUSH2 0x25B JUMPI PUSH1 0x0 DUP1 REVERT JUMPDEST POP PUSH2 0x264 PUSH2 0x816 JUMP JUMPDEST PUSH1 0x40 MLOAD PUSH2 0x271 SWAP2 SWAP1 PUSH2 0x2115 JUMP JUMPDEST PUSH1 0x40 MLOAD DUP1 SWAP2 SUB SWAP1 RETURN JUMPDEST CALLVALUE DUP1 ISZERO PUSH2 0x286 JUMPI PUSH1 0x0 DUP1 REVERT JUMPDEST POP PUSH2 0x2A1 PUSH1 0x4 DUP1 CALLDATASIZE SUB DUP2 ADD SWAP1 PUSH2 0x29C SWAP2 SWAP1 PUSH2 0x2137 JUMP JUMPDEST PUSH2 0x8A4 JUMP JUMPDEST PUSH1 0x40 MLOAD PUSH2 0x2AE SWAP2 SWAP1 PUSH2 0x2037 JUMP JUMPDEST PUSH1 0x40 MLOAD DUP1 SWAP2 SUB SWAP1 RETURN JUMPDEST CALLVALUE DUP1 ISZERO PUSH2 0x2C3 JUMPI PUSH1 0x0 DUP1 REVERT JUMPDEST POP PUSH2 0x2DE PUSH1 0x4 DUP1 CALLDATASIZE SUB DUP2 ADD SWAP1 PUSH2 0x2D9 SWAP2 SWAP1 PUSH2 0x2299 JUMP JUMPDEST PUSH2 0x8C4 JUMP JUMPDEST STOP JUMPDEST CALLVALUE DUP1 ISZERO PUSH2 0x2EC JUMPI PUSH1 0x0 DUP1 REVERT JUMPDEST POP PUSH2 0x2F5 PUSH2 0x975 JUMP JUMPDEST PUSH1 0x40 MLOAD PUSH2 0x302 SWAP2 SWAP1 PUSH2 0x2061 JUMP JUMPDEST PUSH1 0x40 MLOAD DUP1 SWAP2 SUB SWAP1 RETURN JUMPDEST CALLVALUE DUP1 ISZERO PUSH2 0x317 JUMPI PUSH1 0x0 DUP1 REVERT JUMPDEST POP PUSH2 0x320 PUSH2 0x9A4 JUMP JUMPDEST PUSH1 0x40 MLOAD PUSH2 0x32D SWAP2 SWAP1 PUSH2 0x2061 JUMP JUMPDEST PUSH1 0x40 MLOAD DUP1 SWAP2 SUB SWAP1 RETURN JUMPDEST CALLVALUE DUP1 ISZERO PUSH2 0x342 JUMPI PUSH1 0x0 DUP1 REVERT JUMPDEST POP PUSH2 0x34B PUSH2 0x9AA JUMP JUMPDEST PUSH1 0x40 MLOAD PUSH2 0x358 SWAP2 SWAP1 PUSH2 0x2061 JUMP JUMPDEST PUSH1 0x40 MLOAD DUP1 SWAP2 SUB SWAP1 RETURN JUMPDEST CALLVALUE DUP1 ISZERO PUSH2 0x36D JUMPI PUSH1 0x0 DUP1 REVERT JUMPDEST POP PUSH2 0x388 PUSH1 0x4 DUP1 CALLDATASIZE SUB DUP2 ADD SWAP1 PUSH2 0x383 SWAP2 SWAP1 PUSH2 0x2137 JUMP JUMPDEST PUSH2 0x9B0 JUMP JUMPDEST PUSH1 0x40 MLOAD PUSH2 0x395 SWAP2 SWAP1 PUSH2 0x2061 JUMP JUMPDEST PUSH1 0x40 MLOAD DUP1 SWAP2 SUB SWAP1 RETURN JUMPDEST CALLVALUE DUP1 ISZERO PUSH2 0x3AA JUMPI PUSH1 0x0 DUP1 REVERT JUMPDEST POP PUSH2 0x3C5 PUSH1 0x4 DUP1 CALLDATASIZE SUB DUP2 ADD SWAP1 PUSH2 0x3C0 SWAP2 SWAP1 PUSH2 0x2137 JUMP JUMPDEST PUSH2 0x9C8 JUMP JUMPDEST PUSH1 0x40 MLOAD PUSH2 0x3D2 SWAP2 SWAP1 PUSH2 0x2037 JUMP JUMPDEST PUSH1 0x40 MLOAD DUP1 SWAP2 SUB SWAP1 RETURN JUMPDEST CALLVALUE DUP1 ISZERO PUSH2 0x3E7 JUMPI PUSH1 0x0 DUP1 REVERT JUMPDEST POP PUSH2 0x3F0 PUSH2 0x9E8 JUMP JUMPDEST PUSH1 0x40 MLOAD PUSH2 0x3FD SWAP2 SWAP1 PUSH2 0x2061 JUMP JUMPDEST PUSH1 0x40 MLOAD DUP1 SWAP2 SUB SWAP1 RETURN JUMPDEST CALLVALUE DUP1 ISZERO PUSH2 0x412 JUMPI PUSH1 0x0 DUP1 REVERT JUMPDEST POP PUSH2 0x42D PUSH1 0x4 DUP1 CALLDATASIZE SUB DUP2 ADD SWAP1 PUSH2 0x428 SWAP2 SWAP1 PUSH2 0x2324 JUMP JUMPDEST PUSH2 0x9EE JUMP JUMPDEST PUSH1 0x40 MLOAD PUSH2 0x43A SWAP2 SWAP1 PUSH2 0x2037 JUMP JUMPDEST PUSH1 0x40 MLOAD DUP1 SWAP2 SUB SWAP1 RETURN JUMPDEST CALLVALUE DUP1 ISZERO PUSH2 0x44F JUMPI PUSH1 0x0 DUP1 REVERT JUMPDEST POP PUSH2 0x458 PUSH2 0xB43 JUMP JUMPDEST PUSH1 0x40 MLOAD PUSH2 0x465 SWAP2 SWAP1 PUSH2 0x2360 JUMP JUMPDEST PUSH1 0x40 MLOAD DUP1 SWAP2 SUB SWAP1 RETURN JUMPDEST CALLVALUE DUP1 ISZERO PUSH2 0x47A JUMPI PUSH1 0x0 DUP1 REVERT JUMPDEST POP PUSH2 0x483 PUSH2 0xB69 JUMP JUMPDEST STOP JUMPDEST CALLVALUE DUP1 ISZERO PUSH2 0x491 JUMPI PUSH1 0x0 DUP1 REVERT JUMPDEST POP PUSH2 0x49A PUSH2 0xCA0 JUMP JUMPDEST STOP JUMPDEST CALLVALUE DUP1 ISZERO PUSH2 0x4A8 JUMPI PUSH1 0x0 DUP1 REVERT JUMPDEST POP PUSH2 0x4B1 PUSH2 0xF24 JUMP JUMPDEST STOP JUMPDEST CALLVALUE DUP1 ISZERO PUSH2 0x4BF JUMPI PUSH1 0x0 DUP1 REVERT JUMPDEST POP PUSH2 0x4C8 PUSH2 0x1098 JUMP JUMPDEST PUSH1 0x40 MLOAD PUSH2 0x4D5 SWAP2 SWAP1 PUSH2 0x2061 JUMP JUMPDEST PUSH1 0x40 MLOAD DUP1 SWAP2 SUB SWAP1 RETURN JUMPDEST CALLVALUE DUP1 ISZERO PUSH2 0x4EA JUMPI PUSH1 0x0 DUP1 REVERT JUMPDEST POP PUSH2 0x4F3 PUSH2 0x109E JUMP JUMPDEST PUSH1 0x40 MLOAD PUSH2 0x500 SWAP2 SWAP1 PUSH2 0x2061 JUMP JUMPDEST PUSH1 0x40 MLOAD DUP1 SWAP2 SUB SWAP1 RETURN JUMPDEST PUSH2 0x511 PUSH2 0x10A4 JUMP JUMPDEST PUSH1 0x40 MLOAD PUSH2 0x51E SWAP2 SWAP1 PUSH2 0x2037 JUMP JUMPDEST PUSH1 0x40 MLOAD DUP1 SWAP2 SUB SWAP1 RETURN JUMPDEST CALLVALUE DUP1 ISZERO PUSH2 0x533 JUMPI PUSH1 0x0 DUP1 REVERT JUMPDEST POP PUSH2 0x54E PUSH1 0x4 DUP1 CALLDATASIZE SUB DUP2 ADD SWAP1 PUSH2 0x549 SWAP2 SWAP1 PUSH2 0x2137 JUMP JUMPDEST PUSH2 0x10AD JUMP JUMPDEST PUSH1 0x40 MLOAD PUSH2 0x55B SWAP2 SWAP1 PUSH2 0x2037 JUMP JUMPDEST PUSH1 0x40 MLOAD DUP1 SWAP2 SUB SWAP1 RETURN JUMPDEST CALLVALUE DUP1 ISZERO PUSH2 0x570 JUMPI PUSH1 0x0 DUP1 REVERT JUMPDEST POP PUSH2 0x579 PUSH2 0x10CD JUMP JUMPDEST PUSH1 0x40 MLOAD PUSH2 0x586 SWAP2 SWAP1 PUSH2 0x2061 JUMP JUMPDEST PUSH1 0x40 MLOAD DUP1 SWAP2 SUB SWAP1 RETURN JUMPDEST CALLVALUE DUP1 ISZERO PUSH2 0x59B JUMPI PUSH1 0x0 DUP1 REVERT JUMPDEST POP PUSH2 0x5A4 PUSH2 0x10D3 JUMP JUMPDEST PUSH1 0x40 MLOAD PUSH2 0x5B1 SWAP2 SWAP1 PUSH2 0x2061 JUMP JUMPDEST PUSH1 0x40 MLOAD DUP1 SWAP2 SUB SWAP1 RETURN JUMPDEST CALLVALUE DUP1 ISZERO PUSH2 0x5C6 JUMPI PUSH1 0x0 DUP1 REVERT JUMPDEST POP PUSH2 0x5E1 PUSH1 0x4 DUP1 CALLDATASIZE SUB DUP2 ADD SWAP1 PUSH2 0x5DC SWAP2 SWAP1 PUSH2 0x237B JUMP JUMPDEST PUSH2 0x11EB JUMP JUMPDEST PUSH1 0x40 MLOAD PUSH2 0x5EE SWAP2 SWAP1 PUSH2 0x2037 JUMP JUMPDEST PUSH1 0x40 MLOAD DUP1 SWAP2 SUB SWAP1 RETURN JUMPDEST PUSH2 0x5FF PUSH2 0x144E JUMP JUMPDEST STOP JUMPDEST CALLVALUE DUP1 ISZERO PUSH2 0x60D JUMPI PUSH1 0x0 DUP1 REVERT JUMPDEST POP PUSH2 0x628 PUSH1 0x4 DUP1 CALLDATASIZE SUB DUP2 ADD SWAP1 PUSH2 0x623 SWAP2 SWAP1 PUSH2 0x2137 JUMP JUMPDEST PUSH2 0x1597 JUMP JUMPDEST PUSH1 0x40 MLOAD PUSH2 0x635 SWAP2 SWAP1 PUSH2 0x2061 JUMP JUMPDEST PUSH1 0x40 MLOAD DUP1 SWAP2 SUB SWAP1 RETURN JUMPDEST CALLVALUE DUP1 ISZERO PUSH2 0x64A JUMPI PUSH1 0x0 DUP1 REVERT JUMPDEST POP PUSH2 0x665 PUSH1 0x4 DUP1 CALLDATASIZE SUB DUP2 ADD SWAP1 PUSH2 0x660 SWAP2 SWAP1 PUSH2 0x2324 JUMP JUMPDEST PUSH2 0x15AF JUMP JUMPDEST STOP JUMPDEST CALLVALUE DUP1 ISZERO PUSH2 0x673 JUMPI PUSH1 0x0 DUP1 REVERT JUMPDEST POP PUSH2 0x67C PUSH2 0x16FC JUMP JUMPDEST PUSH1 0x40 MLOAD PUSH2 0x689 SWAP2 SWAP1 PUSH2 0x2061 JUMP JUMPDEST PUSH1 0x40 MLOAD DUP1 SWAP2 SUB SWAP1 RETURN JUMPDEST CALLVALUE DUP1 ISZERO PUSH2 0x69E JUMPI PUSH1 0x0 DUP1 REVERT JUMPDEST POP PUSH2 0x6A7 PUSH2 0x1702 JUMP JUMPDEST PUSH1 0x40 MLOAD PUSH2 0x6B4 SWAP2 SWAP1 PUSH2 0x2360 JUMP JUMPDEST PUSH1 0x40 MLOAD DUP1 SWAP2 SUB SWAP1 RETURN JUMPDEST CALLVALUE DUP1 ISZERO PUSH2 0x6C9 JUMPI PUSH1 0x0 DUP1 REVERT JUMPDEST POP PUSH2 0x6E4 PUSH1 0x4 DUP1 CALLDATASIZE SUB DUP2 ADD SWAP1 PUSH2 0x6DF SWAP2 SWAP1 PUSH2 0x2324 JUMP JUMPDEST PUSH2 0x1728 JUMP JUMPDEST PUSH1 0x40 MLOAD PUSH2 0x6F5 SWAP6 SWAP5 SWAP4 SWAP3 SWAP2 SWAP1 PUSH2 0x23BB JUMP JUMPDEST PUSH1 0x40 MLOAD DUP1 SWAP2 SUB SWAP1 RETURN JUMPDEST CALLVALUE DUP1 ISZERO PUSH2 0x70A JUMPI PUSH1 0x0 DUP1 REVERT JUMPDEST POP PUSH2 0x725 PUSH1 0x4 DUP1 CALLDATASIZE SUB DUP2 ADD SWAP1 PUSH2 0x720 SWAP2 SWAP1 PUSH2 0x2324 JUMP JUMPDEST PUSH2 0x188B JUMP JUMPDEST PUSH1 0x40 MLOAD PUSH2 0x732 SWAP2 SWAP1 PUSH2 0x2360 JUMP JUMPDEST PUSH1 0x40 MLOAD DUP1 SWAP2 SUB SWAP1 RETURN JUMPDEST CALLVALUE DUP1 ISZERO PUSH2 0x747 JUMPI PUSH1 0x0 DUP1 REVERT JUMPDEST POP PUSH2 0x750 PUSH2 0x18CA JUMP JUMPDEST PUSH1 0x40 MLOAD PUSH2 0x75D SWAP2 SWAP1 PUSH2 0x2061 JUMP JUMPDEST PUSH1 0x40 MLOAD DUP1 SWAP2 SUB SWAP1 RETURN JUMPDEST CALLVALUE DUP1 ISZERO PUSH2 0x772 JUMPI PUSH1 0x0 DUP1 REVERT JUMPDEST POP PUSH2 0x77B PUSH2 0x18D0 JUMP JUMPDEST PUSH1 0x40 MLOAD PUSH2 0x788 SWAP2 SWAP1 PUSH2 0x2061 JUMP JUMPDEST PUSH1 0x40 MLOAD DUP1 SWAP2 SUB SWAP1 RETURN JUMPDEST PUSH1 0x0 DUP1 PUSH1 0x14 DUP5 DUP2 SLOAD DUP2 LT PUSH2 0x7A8 JUMPI PUSH2 0x7A7 PUSH2 0x241C JUMP JUMPDEST JUMPDEST SWAP1 PUSH1 0x0 MSTORE PUSH1 0x20 PUSH1 0x0 KECCAK256 SWAP1 PUSH1 0x6 MUL ADD SWAP1 POP DUP1 PUSH1 0x5 ADD PUSH1 0x0 DUP5 PUSH20 0xFFFFFFFFFFFFFFFFFFFFFFFFFFFFFFFFFFFFFFFF AND PUSH20 0xFFFFFFFFFFFFFFFFFFFFFFFFFFFFFFFFFFFFFFFF AND DUP2 MSTORE PUSH1 0x20 ADD SWAP1 DUP2 MSTORE PUSH1 0x20 ADD PUSH1 0x0 KECCAK256 PUSH1 0x0 SWAP1 SLOAD SWAP1 PUSH2 0x100 EXP SWAP1 DIV PUSH1 0xFF AND SWAP2 POP POP SWAP3 SWAP2 POP POP JUMP JUMPDEST PUSH1 0xB SLOAD DUP2 JUMP JUMPDEST PUSH1 0x4 DUP1 SLOAD PUSH2 0x823 SWAP1 PUSH2 0x247A JUMP JUMPDEST DUP1 PUSH1 0x1F ADD PUSH1 0x20 DUP1 SWAP2 DIV MUL PUSH1 0x20 ADD PUSH1 0x40 MLOAD SWAP1 DUP2 ADD PUSH1 0x40 MSTORE DUP1 SWAP3 SWAP2 SWAP1 DUP2 DUP2 MSTORE PUSH1 0x20 ADD DUP3 DUP1 SLOAD PUSH2 0x84F SWAP1 PUSH2 0x247A JUMP JUMPDEST DUP1 ISZERO PUSH2 0x89C JUMPI DUP1 PUSH1 0x1F LT PUSH2 0x871 JUMPI PUSH2 0x100 DUP1 DUP4 SLOAD DIV MUL DUP4 MSTORE SWAP2 PUSH1 0x20 ADD SWAP2 PUSH2 0x89C JUMP JUMPDEST DUP3 ADD SWAP2 SWAP1 PUSH1 0x0 MSTORE PUSH1 0x20 PUSH1 0x0 KECCAK256 SWAP1 JUMPDEST DUP2 SLOAD DUP2 MSTORE SWAP1 PUSH1 0x1 ADD SWAP1 PUSH1 0x20 ADD DUP1 DUP4 GT PUSH2 0x87F JUMPI DUP3 SWAP1 SUB PUSH1 0x1F AND DUP3 ADD SWAP2 JUMPDEST POP POP POP POP POP DUP2 JUMP JUMPDEST PUSH1 0x7 PUSH1 0x20 MSTORE DUP1 PUSH1 0x0 MSTORE PUSH1 0x40 PUSH1 0x0 KECCAK256 PUSH1 0x0 SWAP2 POP SLOAD SWAP1 PUSH2 0x100 EXP SWAP1 DIV PUSH1 0xFF AND DUP2 JUMP JUMPDEST PUSH1 0x5 PUSH1 0x0 SWAP1 SLOAD SWAP1 PUSH2 0x100 EXP SWAP1 DIV PUSH20 0xFFFFFFFFFFFFFFFFFFFFFFFFFFFFFFFFFFFFFFFF AND PUSH20 0xFFFFFFFFFFFFFFFFFFFFFFFFFFFFFFFFFFFFFFFF AND CALLER PUSH20 0xFFFFFFFFFFFFFFFFFFFFFFFFFFFFFFFFFFFFFFFF AND EQ PUSH2 0x91E JUMPI PUSH1 0x0 DUP1 REVERT JUMPDEST PUSH1 0x0 PUSH1 0x14 PUSH1 0x1 DUP2 PUSH1 0x1 DUP2 SLOAD ADD DUP1 DUP3 SSTORE DUP1 SWAP2 POP POP SUB SWAP1 PUSH1 0x0 MSTORE PUSH1 0x20 PUSH1 0x0 KECCAK256 SWAP1 PUSH1 0x6 MUL ADD SWAP1 POP DUP3 DUP2 PUSH1 0x0 ADD SWAP1 DUP2 PUSH2 0x953 SWAP2 SWAP1 PUSH2 0x2657 JUMP JUMPDEST POP DUP2 DUP2 PUSH1 0x2 ADD DUP2 SWAP1 SSTORE POP DUP4 DUP2 PUSH1 0x1 ADD SWAP1 DUP2 PUSH2 0x96E SWAP2 SWAP1 PUSH2 0x2657 JUMP JUMPDEST POP POP POP POP POP JUMP JUMPDEST PUSH1 0x0 PUSH2 0x3E8 PUSH1 0x1 SLOAD PUSH2 0x3E8 PUSH2 0x98A SWAP2 SWAP1 PUSH2 0x2758 JUMP JUMPDEST SELFBALANCE PUSH2 0x995 SWAP2 SWAP1 PUSH2 0x278C JUMP JUMPDEST PUSH2 0x99F SWAP2 SWAP1 PUSH2 0x2815 JUMP JUMPDEST SWAP1 POP SWAP1 JUMP JUMPDEST PUSH1 0x19 SLOAD DUP2 JUMP JUMPDEST PUSH1 0x17 SLOAD DUP2 JUMP JUMPDEST PUSH1 0xD PUSH1 0x20 MSTORE DUP1 PUSH1 0x0 MSTORE PUSH1 0x40 PUSH1 0x0 KECCAK256 PUSH1 0x0 SWAP2 POP SWAP1 POP SLOAD DUP2 JUMP JUMPDEST PUSH1 0x8 PUSH1 0x20 MSTORE DUP1 PUSH1 0x0 MSTORE PUSH1 0x40 PUSH1 0x0 KECCAK256 PUSH1 0x0 SWAP2 POP SLOAD SWAP1 PUSH2 0x100 EXP SWAP1 DIV PUSH1 0xFF AND DUP2 JUMP JUMPDEST PUSH1 0x11 SLOAD DUP2 JUMP JUMPDEST PUSH1 0x0 PUSH1 0x1 ISZERO ISZERO PUSH1 0x13 PUSH1 0x0 SWAP1 SLOAD SWAP1 PUSH2 0x100 EXP SWAP1 DIV PUSH1 0xFF AND ISZERO ISZERO EQ PUSH2 0xA10 JUMPI PUSH1 0x0 DUP1 REVERT JUMPDEST PUSH1 0x5 PUSH1 0x0 SWAP1 SLOAD SWAP1 PUSH2 0x100 EXP SWAP1 DIV PUSH20 0xFFFFFFFFFFFFFFFFFFFFFFFFFFFFFFFFFFFFFFFF AND PUSH20 0xFFFFFFFFFFFFFFFFFFFFFFFFFFFFFFFFFFFFFFFF AND CALLER PUSH20 0xFFFFFFFFFFFFFFFFFFFFFFFFFFFFFFFFFFFFFFFF AND EQ PUSH2 0xA6A JUMPI PUSH1 0x0 DUP1 REVERT JUMPDEST PUSH1 0x0 PUSH1 0x14 DUP4 DUP2 SLOAD DUP2 LT PUSH2 0xA80 JUMPI PUSH2 0xA7F PUSH2 0x241C JUMP JUMPDEST JUMPDEST SWAP1 PUSH1 0x0 MSTORE PUSH1 0x20 PUSH1 0x0 KECCAK256 SWAP1 PUSH1 0x6 MUL ADD SWAP1 POP PUSH1 0x2 PUSH1 0x3 SLOAD PUSH2 0xA9F SWAP2 SWAP1 PUSH2 0x2815 JUMP JUMPDEST DUP2 PUSH1 0x4 ADD SLOAD LT ISZERO PUSH2 0xAAF JUMPI PUSH1 0x0 DUP1 REVERT JUMPDEST PUSH1 0x6 PUSH1 0x0 SWAP1 SLOAD SWAP1 PUSH2 0x100 EXP SWAP1 DIV PUSH20 0xFFFFFFFFFFFFFFFFFFFFFFFFFFFFFFFFFFFFFFFF AND PUSH20 0xFFFFFFFFFFFFFFFFFFFFFFFFFFFFFFFFFFFFFFFF AND PUSH2 0x8FC DUP3 PUSH1 0x2 ADD SLOAD SWAP1 DUP2 ISZERO MUL SWAP1 PUSH1 0x40 MLOAD PUSH1 0x0 PUSH1 0x40 MLOAD DUP1 DUP4 SUB DUP2 DUP6 DUP9 DUP9 CALL SWAP4 POP POP POP POP ISZERO DUP1 ISZERO PUSH2 0xB1B JUMPI RETURNDATASIZE PUSH1 0x0 DUP1 RETURNDATACOPY RETURNDATASIZE PUSH1 0x0 REVERT JUMPDEST POP PUSH1 0x1 DUP2 PUSH1 0x3 ADD PUSH1 0x0 PUSH2 0x100 EXP DUP2 SLOAD DUP2 PUSH1 0xFF MUL NOT AND SWAP1 DUP4 ISZERO ISZERO MUL OR SWAP1 SSTORE POP PUSH1 0x1 SWAP2 POP POP SWAP2 SWAP1 POP JUMP JUMPDEST PUSH1 0x5 PUSH1 0x0 SWAP1 SLOAD SWAP1 PUSH2 0x100 EXP SWAP1 DIV PUSH20 0xFFFFFFFFFFFFFFFFFFFFFFFFFFFFFFFFFFFFFFFF AND DUP2 JUMP JUMPDEST PUSH1 0x1 PUSH1 0x13 PUSH1 0x0 PUSH2 0x100 EXP DUP2 SLOAD DUP2 PUSH1 0xFF MUL NOT AND SWAP1 DUP4 ISZERO ISZERO MUL OR SWAP1 SSTORE POP PUSH1 0x0 SELFBALANCE SWAP1 POP PUSH1 0x0 DUP1 PUSH1 0x0 SWAP1 POP JUMPDEST PUSH1 0xA DUP1 SLOAD SWAP1 POP DUP2 LT ISZERO PUSH2 0xC93 JUMPI PUSH1 0x0 PUSH1 0xA DUP3 DUP2 SLOAD DUP2 LT PUSH2 0xBB4 JUMPI PUSH2 0xBB3 PUSH2 0x241C JUMP JUMPDEST JUMPDEST SWAP1 PUSH1 0x0 MSTORE PUSH1 0x20 PUSH1 0x0 KECCAK256 ADD PUSH1 0x0 SWAP1 SLOAD SWAP1 PUSH2 0x100 EXP SWAP1 DIV PUSH20 0xFFFFFFFFFFFFFFFFFFFFFFFFFFFFFFFFFFFFFFFF AND SWAP1 POP PUSH1 0xC PUSH1 0x0 DUP3 PUSH20 0xFFFFFFFFFFFFFFFFFFFFFFFFFFFFFFFFFFFFFFFF AND PUSH20 0xFFFFFFFFFFFFFFFFFFFFFFFFFFFFFFFFFFFFFFFF AND DUP2 MSTORE PUSH1 0x20 ADD SWAP1 DUP2 MSTORE PUSH1 0x20 ADD PUSH1 0x0 KECCAK256 SLOAD SWAP3 POP DUP4 PUSH2 0x3E8 DUP5 PUSH2 0xC32 SWAP2 SWAP1 PUSH2 0x278C JUMP JUMPDEST PUSH2 0xC3C SWAP2 SWAP1 PUSH2 0x2815 JUMP JUMPDEST PUSH1 0xD PUSH1 0x0 DUP4 PUSH20 0xFFFFFFFFFFFFFFFFFFFFFFFFFFFFFFFFFFFFFFFF AND PUSH20 0xFFFFFFFFFFFFFFFFFFFFFFFFFFFFFFFFFFFFFFFF AND DUP2 MSTORE PUSH1 0x20 ADD SWAP1 DUP2 MSTORE PUSH1 0x20 ADD PUSH1 0x0 KECCAK256 DUP2 SWAP1 SSTORE POP POP DUP1 DUP1 PUSH2 0xC8B SWAP1 PUSH2 0x2846 JUMP JUMPDEST SWAP2 POP POP PUSH2 0xB91 JUMP JUMPDEST POP PUSH2 0xC9C PUSH2 0x18D6 JUMP JUMPDEST POP POP JUMP JUMPDEST PUSH1 0x2 PUSH1 0x3 SLOAD PUSH2 0xCAF SWAP2 SWAP1 PUSH2 0x2815 JUMP JUMPDEST PUSH1 0x9 SLOAD LT ISZERO DUP1 PUSH2 0xCD2 JUMPI POP PUSH1 0x0 ISZERO ISZERO PUSH1 0x13 PUSH1 0x0 SWAP1 SLOAD SWAP1 PUSH2 0x100 EXP SWAP1 DIV PUSH1 0xFF AND ISZERO ISZERO EQ JUMPDEST PUSH2 0xCDB JUMPI PUSH1 0x0 DUP1 REVERT JUMPDEST PUSH1 0x6 PUSH1 0x0 SWAP1 SLOAD SWAP1 PUSH2 0x100 EXP SWAP1 DIV PUSH20 0xFFFFFFFFFFFFFFFFFFFFFFFFFFFFFFFFFFFFFFFF AND PUSH20 0xFFFFFFFFFFFFFFFFFFFFFFFFFFFFFFFFFFFFFFFF AND CALLER PUSH20 0xFFFFFFFFFFFFFFFFFFFFFFFFFFFFFFFFFFFFFFFF AND EQ PUSH2 0xD35 JUMPI PUSH1 0x0 DUP1 REVERT JUMPDEST PUSH2 0xD3D PUSH2 0x975 JUMP JUMPDEST PUSH1 0x18 DUP2 SWAP1 SSTORE POP PUSH1 0x0 JUMPDEST PUSH1 0xA DUP1 SLOAD SWAP1 POP DUP2 LT ISZERO PUSH2 0xEAF JUMPI PUSH1 0x0 PUSH1 0xA DUP3 DUP2 SLOAD DUP2 LT PUSH2 0xD69 JUMPI PUSH2 0xD68 PUSH2 0x241C JUMP JUMPDEST JUMPDEST SWAP1 PUSH1 0x0 MSTORE PUSH1 0x20 PUSH1 0x0 KECCAK256 ADD PUSH1 0x0 SWAP1 SLOAD SWAP1 PUSH2 0x100 EXP SWAP1 DIV PUSH20 0xFFFFFFFFFFFFFFFFFFFFFFFFFFFFFFFFFFFFFFFF AND SWAP1 POP PUSH1 0x0 ISZERO ISZERO PUSH1 0xE PUSH1 0x0 DUP4 PUSH20 0xFFFFFFFFFFFFFFFFFFFFFFFFFFFFFFFFFFFFFFFF AND PUSH20 0xFFFFFFFFFFFFFFFFFFFFFFFFFFFFFFFFFFFFFFFF AND DUP2 MSTORE PUSH1 0x20 ADD SWAP1 DUP2 MSTORE PUSH1 0x20 ADD PUSH1 0x0 KECCAK256 PUSH1 0x0 SWAP1 SLOAD SWAP1 PUSH2 0x100 EXP SWAP1 DIV PUSH1 0xFF AND ISZERO ISZERO SUB PUSH2 0xE9B JUMPI PUSH1 0x0 PUSH1 0xD PUSH1 0x0 DUP4 PUSH20 0xFFFFFFFFFFFFFFFFFFFFFFFFFFFFFFFFFFFFFFFF AND PUSH20 0xFFFFFFFFFFFFFFFFFFFFFFFFFFFFFFFFFFFFFFFF AND DUP2 MSTORE PUSH1 0x20 ADD SWAP1 DUP2 MSTORE PUSH1 0x20 ADD PUSH1 0x0 KECCAK256 SLOAD SWAP1 POP PUSH1 0x0 PUSH2 0x3E8 PUSH1 0x18 SLOAD DUP4 PUSH2 0xE45 SWAP2 SWAP1 PUSH2 0x278C JUMP JUMPDEST PUSH2 0xE4F SWAP2 SWAP1 PUSH2 0x2815 JUMP JUMPDEST SWAP1 POP DUP3 PUSH20 0xFFFFFFFFFFFFFFFFFFFFFFFFFFFFFFFFFFFFFFFF AND PUSH2 0x8FC DUP3 SWAP1 DUP2 ISZERO MUL SWAP1 PUSH1 0x40 MLOAD PUSH1 0x0 PUSH1 0x40 MLOAD DUP1 DUP4 SUB DUP2 DUP6 DUP9 DUP9 CALL SWAP4 POP POP POP POP ISZERO DUP1 ISZERO PUSH2 0xE97 JUMPI RETURNDATASIZE PUSH1 0x0 DUP1 RETURNDATACOPY RETURNDATASIZE PUSH1 0x0 REVERT JUMPDEST POP POP POP JUMPDEST POP DUP1 DUP1 PUSH2 0xEA7 SWAP1 PUSH2 0x2846 JUMP JUMPDEST SWAP2 POP POP PUSH2 0xD46 JUMP JUMPDEST POP SELFBALANCE PUSH1 0x17 DUP2 SWAP1 SSTORE POP PUSH1 0x5 PUSH1 0x0 SWAP1 SLOAD SWAP1 PUSH2 0x100 EXP SWAP1 DIV PUSH20 0xFFFFFFFFFFFFFFFFFFFFFFFFFFFFFFFFFFFFFFFF AND PUSH20 0xFFFFFFFFFFFFFFFFFFFFFFFFFFFFFFFFFFFFFFFF AND PUSH2 0x8FC PUSH1 0x17 SLOAD SWAP1 DUP2 ISZERO MUL SWAP1 PUSH1 0x40 MLOAD PUSH1 0x0 PUSH1 0x40 MLOAD DUP1 DUP4 SUB DUP2 DUP6 DUP9 DUP9 CALL SWAP4 POP POP POP POP ISZERO DUP1 ISZERO PUSH2 0xF21 JUMPI RETURNDATASIZE PUSH1 0x0 DUP1 RETURNDATACOPY RETURNDATASIZE PUSH1 0x0 REVERT JUMPDEST POP JUMP JUMPDEST PUSH1 0x1 ISZERO ISZERO PUSH1 0x13 PUSH1 0x0 SWAP1 SLOAD SWAP1 PUSH2 0x100 EXP SWAP1 DIV PUSH1 0xFF AND ISZERO ISZERO EQ PUSH2 0xF44 JUMPI PUSH1 0x0 DUP1 REVERT JUMPDEST PUSH1 0x7 PUSH1 0x0 CALLER PUSH20 0xFFFFFFFFFFFFFFFFFFFFFFFFFFFFFFFFFFFFFFFF AND PUSH20 0xFFFFFFFFFFFFFFFFFFFFFFFFFFFFFFFFFFFFFFFF AND DUP2 MSTORE PUSH1 0x20 ADD SWAP1 DUP2 MSTORE PUSH1 0x20 ADD PUSH1 0x0 KECCAK256 PUSH1 0x0 SWAP1 SLOAD SWAP1 PUSH2 0x100 EXP SWAP1 DIV PUSH1 0xFF AND PUSH2 0xF9A JUMPI PUSH1 0x0 DUP1 REVERT JUMPDEST PUSH1 0x0 ISZERO ISZERO PUSH1 0x8 PUSH1 0x0 CALLER PUSH20 0xFFFFFFFFFFFFFFFFFFFFFFFFFFFFFFFFFFFFFFFF AND PUSH20 0xFFFFFFFFFFFFFFFFFFFFFFFFFFFFFFFFFFFFFFFF AND DUP2 MSTORE PUSH1 0x20 ADD SWAP1 DUP2 MSTORE PUSH1 0x20 ADD PUSH1 0x0 KECCAK256 PUSH1 0x0 SWAP1 SLOAD SWAP1 PUSH2 0x100 EXP SWAP1 DIV PUSH1 0xFF AND ISZERO ISZERO SUB PUSH2 0x1063 JUMPI PUSH1 0x1 PUSH1 0x8 PUSH1 0x0 CALLER PUSH20 0xFFFFFFFFFFFFFFFFFFFFFFFFFFFFFFFFFFFFFFFF AND PUSH20 0xFFFFFFFFFFFFFFFFFFFFFFFFFFFFFFFFFFFFFFFF AND DUP2 MSTORE PUSH1 0x20 ADD SWAP1 DUP2 MSTORE PUSH1 0x20 ADD PUSH1 0x0 KECCAK256 PUSH1 0x0 PUSH2 0x100 EXP DUP2 SLOAD DUP2 PUSH1 0xFF MUL NOT AND SWAP1 DUP4 ISZERO ISZERO MUL OR SWAP1 SSTORE POP PUSH1 0x9 PUSH1 0x0 DUP2 SLOAD DUP1 SWAP3 SWAP2 SWAP1 PUSH2 0x105D SWAP1 PUSH2 0x2846 JUMP JUMPDEST SWAP2 SWAP1 POP SSTORE POP JUMPDEST PUSH1 0x2 PUSH1 0x3 SLOAD PUSH2 0x1072 SWAP2 SWAP1 PUSH2 0x2815 JUMP JUMPDEST PUSH1 0x9 SLOAD LT PUSH2 0x1096 JUMPI PUSH1 0x0 PUSH1 0x13 PUSH1 0x0 PUSH2 0x100 EXP DUP2 SLOAD DUP2 PUSH1 0xFF MUL NOT AND SWAP1 DUP4 ISZERO ISZERO MUL OR SWAP1 SSTORE POP JUMPDEST JUMP JUMPDEST PUSH1 0x16 SLOAD DUP2 JUMP JUMPDEST PUSH1 0xF SLOAD DUP2 JUMP JUMPDEST PUSH1 0x0 PUSH1 0x1 SWAP1 POP SWAP1 JUMP JUMPDEST PUSH1 0xE PUSH1 0x20 MSTORE DUP1 PUSH1 0x0 MSTORE PUSH1 0x40 PUSH1 0x0 KECCAK256 PUSH1 0x0 SWAP2 POP SLOAD SWAP1 PUSH2 0x100 EXP SWAP1 DIV PUSH1 0xFF AND DUP2 JUMP JUMPDEST PUSH1 0x18 SLOAD DUP2 JUMP JUMPDEST PUSH1 0x0 DUP1 PUSH1 0x0 JUMPDEST PUSH1 0xA DUP1 SLOAD SWAP1 POP DUP2 LT ISZERO PUSH2 0x11E3 JUMPI PUSH1 0x0 PUSH1 0xA DUP3 DUP2 SLOAD DUP2 LT PUSH2 0x10FC JUMPI PUSH2 0x10FB PUSH2 0x241C JUMP JUMPDEST JUMPDEST SWAP1 PUSH1 0x0 MSTORE PUSH1 0x20 PUSH1 0x0 KECCAK256 ADD PUSH1 0x0 SWAP1 SLOAD SWAP1 PUSH2 0x100 EXP SWAP1 DIV PUSH20 0xFFFFFFFFFFFFFFFFFFFFFFFFFFFFFFFFFFFFFFFF AND SWAP1 POP PUSH1 0x0 ISZERO ISZERO PUSH1 0xE PUSH1 0x0 DUP4 PUSH20 0xFFFFFFFFFFFFFFFFFFFFFFFFFFFFFFFFFFFFFFFF AND PUSH20 0xFFFFFFFFFFFFFFFFFFFFFFFFFFFFFFFFFFFFFFFF AND DUP2 MSTORE PUSH1 0x20 ADD SWAP1 DUP2 MSTORE PUSH1 0x20 ADD PUSH1 0x0 KECCAK256 PUSH1 0x0 SWAP1 SLOAD SWAP1 PUSH2 0x100 EXP SWAP1 DIV PUSH1 0xFF AND ISZERO ISZERO SUB PUSH2 0x11CF JUMPI PUSH1 0xD PUSH1 0x0 DUP3 PUSH20 0xFFFFFFFFFFFFFFFFFFFFFFFFFFFFFFFFFFFFFFFF AND PUSH20 0xFFFFFFFFFFFFFFFFFFFFFFFFFFFFFFFFFFFFFFFF AND DUP2 MSTORE PUSH1 0x20 ADD SWAP1 DUP2 MSTORE PUSH1 0x20 ADD PUSH1 0x0 KECCAK256 SLOAD DUP4 PUSH2 0x11CC SWAP2 SWAP1 PUSH2 0x288E JUMP JUMPDEST SWAP3 POP JUMPDEST POP DUP1 DUP1 PUSH2 0x11DB SWAP1 PUSH2 0x2846 JUMP JUMPDEST SWAP2 POP POP PUSH2 0x10D9 JUMP JUMPDEST POP DUP1 SWAP2 POP POP SWAP1 JUMP JUMPDEST PUSH1 0x0 PUSH1 0x1 ISZERO ISZERO PUSH1 0x13 PUSH1 0x0 SWAP1 SLOAD SWAP1 PUSH2 0x100 EXP SWAP1 DIV PUSH1 0xFF AND ISZERO ISZERO EQ PUSH2 0x120D JUMPI PUSH1 0x0 DUP1 REVERT JUMPDEST PUSH1 0x6 PUSH1 0x0 SWAP1 SLOAD SWAP1 PUSH2 0x100 EXP SWAP1 DIV PUSH20 0xFFFFFFFFFFFFFFFFFFFFFFFFFFFFFFFFFFFFFFFF AND PUSH20 0xFFFFFFFFFFFFFFFFFFFFFFFFFFFFFFFFFFFFFFFF AND CALLER PUSH20 0xFFFFFFFFFFFFFFFFFFFFFFFFFFFFFFFFFFFFFFFF AND EQ PUSH2 0x1267 JUMPI PUSH1 0x0 DUP1 REVERT JUMPDEST PUSH1 0x0 ISZERO ISZERO PUSH1 0x7 PUSH1 0x0 CALLER PUSH20 0xFFFFFFFFFFFFFFFFFFFFFFFFFFFFFFFFFFFFFFFF AND PUSH20 0xFFFFFFFFFFFFFFFFFFFFFFFFFFFFFFFFFFFFFFFF AND DUP2 MSTORE PUSH1 0x20 ADD SWAP1 DUP2 MSTORE PUSH1 0x20 ADD PUSH1 0x0 KECCAK256 PUSH1 0x0 SWAP1 SLOAD SWAP1 PUSH2 0x100 EXP SWAP1 DIV PUSH1 0xFF AND ISZERO ISZERO EQ PUSH2 0x12C4 JUMPI PUSH1 0x0 DUP1 REVERT JUMPDEST PUSH1 0x0 PUSH1 0xD PUSH1 0x0 DUP6 PUSH20 0xFFFFFFFFFFFFFFFFFFFFFFFFFFFFFFFFFFFFFFFF AND PUSH20 0xFFFFFFFFFFFFFFFFFFFFFFFFFFFFFFFFFFFFFFFF AND DUP2 MSTORE PUSH1 0x20 ADD SWAP1 DUP2 MSTORE PUSH1 0x20 ADD PUSH1 0x0 KECCAK256 SLOAD SWAP1 POP PUSH1 0x0 PUSH2 0x1312 PUSH2 0x975 JUMP JUMPDEST DUP5 PUSH2 0x131D SWAP2 SWAP1 PUSH2 0x288E JUMP JUMPDEST SWAP1 POP PUSH1 0x0 PUSH2 0x3E8 PUSH1 0x0 SLOAD PUSH2 0x3E8 DUP6 DUP6 PUSH2 0x1336 SWAP2 SWAP1 PUSH2 0x278C JUMP JUMPDEST PUSH2 0x1340 SWAP2 SWAP1 PUSH2 0x2815 JUMP JUMPDEST PUSH2 0x134A SWAP2 SWAP1 PUSH2 0x278C JUMP JUMPDEST PUSH2 0x1354 SWAP2 SWAP1 PUSH2 0x2815 JUMP JUMPDEST SWAP1 POP DUP1 PUSH1 0x16 DUP2 SWAP1 SSTORE POP SELFBALANCE DUP2 GT PUSH2 0x1440 JUMPI PUSH1 0x16 SLOAD PUSH1 0x19 DUP2 SWAP1 SSTORE POP DUP6 PUSH20 0xFFFFFFFFFFFFFFFFFFFFFFFFFFFFFFFFFFFFFFFF AND PUSH2 0x8FC DUP3 SWAP1 DUP2 ISZERO MUL SWAP1 PUSH1 0x40 MLOAD PUSH1 0x0 PUSH1 0x40 MLOAD DUP1 DUP4 SUB DUP2 DUP6 DUP9 DUP9 CALL SWAP4 POP POP POP POP ISZERO DUP1 ISZERO PUSH2 0x13B3 JUMPI RETURNDATASIZE PUSH1 0x0 DUP1 RETURNDATACOPY RETURNDATASIZE PUSH1 0x0 REVERT JUMPDEST POP PUSH1 0x1 PUSH1 0xE PUSH1 0x0 DUP9 PUSH20 0xFFFFFFFFFFFFFFFFFFFFFFFFFFFFFFFFFFFFFFFF AND PUSH20 0xFFFFFFFFFFFFFFFFFFFFFFFFFFFFFFFFFFFFFFFF AND DUP2 MSTORE PUSH1 0x20 ADD SWAP1 DUP2 MSTORE PUSH1 0x20 ADD PUSH1 0x0 KECCAK256 PUSH1 0x0 PUSH2 0x100 EXP DUP2 SLOAD DUP2 PUSH1 0xFF MUL NOT AND SWAP1 DUP4 ISZERO ISZERO MUL OR SWAP1 SSTORE POP DUP1 PUSH1 0x15 DUP2 SWAP1 SSTORE POP PUSH2 0x141C DUP4 PUSH2 0x1DBC JUMP JUMPDEST PUSH1 0xB PUSH1 0x0 DUP2 SLOAD DUP1 SWAP3 SWAP2 SWAP1 PUSH2 0x142F SWAP1 PUSH2 0x28E4 JUMP JUMPDEST SWAP2 SWAP1 POP SSTORE POP PUSH1 0x1 SWAP4 POP POP POP POP PUSH2 0x1448 JUMP JUMPDEST PUSH1 0x0 SWAP4 POP POP POP POP JUMPDEST SWAP3 SWAP2 POP POP JUMP JUMPDEST PUSH1 0x0 ISZERO ISZERO PUSH1 0x13 PUSH1 0x0 SWAP1 SLOAD SWAP1 PUSH2 0x100 EXP SWAP1 DIV PUSH1 0xFF AND ISZERO ISZERO EQ PUSH2 0x146E JUMPI PUSH1 0x0 DUP1 REVERT JUMPDEST PUSH1 0x0 PUSH1 0xC PUSH1 0x0 CALLER PUSH20 0xFFFFFFFFFFFFFFFFFFFFFFFFFFFFFFFFFFFFFFFF AND PUSH20 0xFFFFFFFFFFFFFFFFFFFFFFFFFFFFFFFFFFFFFFFF AND DUP2 MSTORE PUSH1 0x20 ADD SWAP1 DUP2 MSTORE PUSH1 0x20 ADD PUSH1 0x0 KECCAK256 SLOAD SWAP1 POP PUSH1 0x0 DUP2 SUB PUSH2 0x1545 JUMPI PUSH1 0xF SLOAD CALLVALUE LT ISZERO PUSH2 0x14C9 JUMPI PUSH1 0x0 DUP1 REVERT JUMPDEST PUSH1 0xA CALLER SWAP1 DUP1 PUSH1 0x1 DUP2 SLOAD ADD DUP1 DUP3 SSTORE DUP1 SWAP2 POP POP PUSH1 0x1 SWAP1 SUB SWAP1 PUSH1 0x0 MSTORE PUSH1 0x20 PUSH1 0x0 KECCAK256 ADD PUSH1 0x0 SWAP1 SWAP2 SWAP1 SWAP2 SWAP1 SWAP2 PUSH2 0x100 EXP DUP2 SLOAD DUP2 PUSH20 0xFFFFFFFFFFFFFFFFFFFFFFFFFFFFFFFFFFFFFFFF MUL NOT AND SWAP1 DUP4 PUSH20 0xFFFFFFFFFFFFFFFFFFFFFFFFFFFFFFFFFFFFFFFF AND MUL OR SWAP1 SSTORE POP PUSH1 0xB PUSH1 0x0 DUP2 SLOAD DUP1 SWAP3 SWAP2 SWAP1 PUSH2 0x153F SWAP1 PUSH2 0x2846 JUMP JUMPDEST SWAP2 SWAP1 POP SSTORE POP JUMPDEST CALLVALUE DUP2 PUSH2 0x1551 SWAP2 SWAP1 PUSH2 0x288E JUMP JUMPDEST PUSH1 0xC PUSH1 0x0 CALLER PUSH20 0xFFFFFFFFFFFFFFFFFFFFFFFFFFFFFFFFFFFFFFFF AND PUSH20 0xFFFFFFFFFFFFFFFFFFFFFFFFFFFFFFFFFFFFFFFF AND DUP2 MSTORE PUSH1 0x20 ADD SWAP1 DUP2 MSTORE PUSH1 0x20 ADD PUSH1 0x0 KECCAK256 DUP2 SWAP1 SSTORE POP POP JUMP JUMPDEST PUSH1 0xC PUSH1 0x20 MSTORE DUP1 PUSH1 0x0 MSTORE PUSH1 0x40 PUSH1 0x0 KECCAK256 PUSH1 0x0 SWAP2 POP SWAP1 POP SLOAD DUP2 JUMP JUMPDEST PUSH1 0x7 PUSH1 0x0 CALLER PUSH20 0xFFFFFFFFFFFFFFFFFFFFFFFFFFFFFFFFFFFFFFFF AND PUSH20 0xFFFFFFFFFFFFFFFFFFFFFFFFFFFFFFFFFFFFFFFF AND DUP2 MSTORE PUSH1 0x20 ADD SWAP1 DUP2 MSTORE PUSH1 0x20 ADD PUSH1 0x0 KECCAK256 PUSH1 0x0 SWAP1 SLOAD SWAP1 PUSH2 0x100 EXP SWAP1 DIV PUSH1 0xFF AND PUSH2 0x1605 JUMPI PUSH1 0x0 DUP1 REVERT JUMPDEST PUSH1 0x0 PUSH1 0x14 DUP3 DUP2 SLOAD DUP2 LT PUSH2 0x161B JUMPI PUSH2 0x161A PUSH2 0x241C JUMP JUMPDEST JUMPDEST SWAP1 PUSH1 0x0 MSTORE PUSH1 0x20 PUSH1 0x0 KECCAK256 SWAP1 PUSH1 0x6 MUL ADD SWAP1 POP DUP1 PUSH1 0x5 ADD PUSH1 0x0 CALLER PUSH20 0xFFFFFFFFFFFFFFFFFFFFFFFFFFFFFFFFFFFFFFFF AND PUSH20 0xFFFFFFFFFFFFFFFFFFFFFFFFFFFFFFFFFFFFFFFF AND DUP2 MSTORE PUSH1 0x20 ADD SWAP1 DUP2 MSTORE PUSH1 0x20 ADD PUSH1 0x0 KECCAK256 PUSH1 0x0 SWAP1 SLOAD SWAP1 PUSH2 0x100 EXP SWAP1 DIV PUSH1 0xFF AND ISZERO PUSH2 0x1684 JUMPI PUSH1 0x0 DUP1 REVERT JUMPDEST PUSH1 0x1 DUP2 PUSH1 0x5 ADD PUSH1 0x0 CALLER PUSH20 0xFFFFFFFFFFFFFFFFFFFFFFFFFFFFFFFFFFFFFFFF AND PUSH20 0xFFFFFFFFFFFFFFFFFFFFFFFFFFFFFFFFFFFFFFFF AND DUP2 MSTORE PUSH1 0x20 ADD SWAP1 DUP2 MSTORE PUSH1 0x20 ADD PUSH1 0x0 KECCAK256 PUSH1 0x0 PUSH2 0x100 EXP DUP2 SLOAD DUP2 PUSH1 0xFF MUL NOT AND SWAP1 DUP4 ISZERO ISZERO MUL OR SWAP1 SSTORE POP DUP1 PUSH1 0x4 ADD PUSH1 0x0 DUP2 SLOAD DUP1 SWAP3 SWAP2 SWAP1 PUSH2 0x16F3 SWAP1 PUSH2 0x2846 JUMP JUMPDEST SWAP2 SWAP1 POP SSTORE POP POP POP JUMP JUMPDEST PUSH1 0x15 SLOAD DUP2 JUMP JUMPDEST PUSH1 0x6 PUSH1 0x0 SWAP1 SLOAD SWAP1 PUSH2 0x100 EXP SWAP1 DIV PUSH20 0xFFFFFFFFFFFFFFFFFFFFFFFFFFFFFFFFFFFFFFFF AND DUP2 JUMP JUMPDEST PUSH1 0x14 DUP2 DUP2 SLOAD DUP2 LT PUSH2 0x1738 JUMPI PUSH1 0x0 DUP1 REVERT JUMPDEST SWAP1 PUSH1 0x0 MSTORE PUSH1 0x20 PUSH1 0x0 KECCAK256 SWAP1 PUSH1 0x6 MUL ADD PUSH1 0x0 SWAP2 POP SWAP1 POP DUP1 PUSH1 0x0 ADD DUP1 SLOAD PUSH2 0x175B SWAP1 PUSH2 0x247A JUMP JUMPDEST DUP1 PUSH1 0x1F ADD PUSH1 0x20 DUP1 SWAP2 DIV MUL PUSH1 0x20 ADD PUSH1 0x40 MLOAD SWAP1 DUP2 ADD PUSH1 0x40 MSTORE DUP1 SWAP3 SWAP2 SWAP1 DUP2 DUP2 MSTORE PUSH1 0x20 ADD DUP3 DUP1 SLOAD PUSH2 0x1787 SWAP1 PUSH2 0x247A JUMP JUMPDEST DUP1 ISZERO PUSH2 0x17D4 JUMPI DUP1 PUSH1 0x1F LT PUSH2 0x17A9 JUMPI PUSH2 0x100 DUP1 DUP4 SLOAD DIV MUL DUP4 MSTORE SWAP2 PUSH1 0x20 ADD SWAP2 PUSH2 0x17D4 JUMP JUMPDEST DUP3 ADD SWAP2 SWAP1 PUSH1 0x0 MSTORE PUSH1 0x20 PUSH1 0x0 KECCAK256 SWAP1 JUMPDEST DUP2 SLOAD DUP2 MSTORE SWAP1 PUSH1 0x1 ADD SWAP1 PUSH1 0x20 ADD DUP1 DUP4 GT PUSH2 0x17B7 JUMPI DUP3 SWAP1 SUB PUSH1 0x1F AND DUP3 ADD SWAP2 JUMPDEST POP POP POP POP POP SWAP1 DUP1 PUSH1 0x1 ADD DUP1 SLOAD PUSH2 0x17E9 SWAP1 PUSH2 0x247A JUMP JUMPDEST DUP1 PUSH1 0x1F ADD PUSH1 0x20 DUP1 SWAP2 DIV MUL PUSH1 0x20 ADD PUSH1 0x40 MLOAD SWAP1 DUP2 ADD PUSH1 0x40 MSTORE DUP1 SWAP3 SWAP2 SWAP1 DUP2 DUP2 MSTORE PUSH1 0x20 ADD DUP3 DUP1 SLOAD PUSH2 0x1815 SWAP1 PUSH2 0x247A JUMP JUMPDEST DUP1 ISZERO PUSH2 0x1862 JUMPI DUP1 PUSH1 0x1F LT PUSH2 0x1837 JUMPI PUSH2 0x100 DUP1 DUP4 SLOAD DIV MUL DUP4 MSTORE SWAP2 PUSH1 0x20 ADD SWAP2 PUSH2 0x1862 JUMP JUMPDEST DUP3 ADD SWAP2 SWAP1 PUSH1 0x0 MSTORE PUSH1 0x20 PUSH1 0x0 KECCAK256 SWAP1 JUMPDEST DUP2 SLOAD DUP2 MSTORE SWAP1 PUSH1 0x1 ADD SWAP1 PUSH1 0x20 ADD DUP1 DUP4 GT PUSH2 0x1845 JUMPI DUP3 SWAP1 SUB PUSH1 0x1F AND DUP3 ADD SWAP2 JUMPDEST POP POP POP POP POP SWAP1 DUP1 PUSH1 0x2 ADD SLOAD SWAP1 DUP1 PUSH1 0x3 ADD PUSH1 0x0 SWAP1 SLOAD SWAP1 PUSH2 0x100 EXP SWAP1 DIV PUSH1 0xFF AND SWAP1 DUP1 PUSH1 0x4 ADD SLOAD SWAP1 POP DUP6 JUMP JUMPDEST PUSH1 0xA DUP2 DUP2 SLOAD DUP2 LT PUSH2 0x189B JUMPI PUSH1 0x0 DUP1 REVERT JUMPDEST SWAP1 PUSH1 0x0 MSTORE PUSH1 0x20 PUSH1 0x0 KECCAK256 ADD PUSH1 0x0 SWAP2 POP SLOAD SWAP1 PUSH2 0x100 EXP SWAP1 DIV PUSH20 0xFFFFFFFFFFFFFFFFFFFFFFFFFFFFFFFFFFFFFFFF AND DUP2 JUMP JUMPDEST PUSH1 0x10 SLOAD DUP2 JUMP JUMPDEST PUSH1 0x12 SLOAD DUP2 JUMP JUMPDEST PUSH1 0x0 PUSH1 0x3 SLOAD PUSH8 0xFFFFFFFFFFFFFFFF DUP2 GT ISZERO PUSH2 0x18F4 JUMPI PUSH2 0x18F3 PUSH2 0x216E JUMP JUMPDEST JUMPDEST PUSH1 0x40 MLOAD SWAP1 DUP1 DUP3 MSTORE DUP1 PUSH1 0x20 MUL PUSH1 0x20 ADD DUP3 ADD PUSH1 0x40 MSTORE DUP1 ISZERO PUSH2 0x1922 JUMPI DUP2 PUSH1 0x20 ADD PUSH1 0x20 DUP3 MUL DUP1 CALLDATASIZE DUP4 CALLDATACOPY DUP1 DUP3 ADD SWAP2 POP POP SWAP1 POP JUMPDEST POP SWAP1 POP PUSH1 0x0 PUSH1 0x3 SLOAD PUSH8 0xFFFFFFFFFFFFFFFF DUP2 GT ISZERO PUSH2 0x1943 JUMPI PUSH2 0x1942 PUSH2 0x216E JUMP JUMPDEST JUMPDEST PUSH1 0x40 MLOAD SWAP1 DUP1 DUP3 MSTORE DUP1 PUSH1 0x20 MUL PUSH1 0x20 ADD DUP3 ADD PUSH1 0x40 MSTORE DUP1 ISZERO PUSH2 0x1971 JUMPI DUP2 PUSH1 0x20 ADD PUSH1 0x20 DUP3 MUL DUP1 CALLDATASIZE DUP4 CALLDATACOPY DUP1 DUP3 ADD SWAP2 POP POP SWAP1 POP JUMPDEST POP SWAP1 POP PUSH1 0x0 DUP1 PUSH1 0x0 SWAP1 POP PUSH1 0x0 DUP1 PUSH1 0xA PUSH1 0x0 DUP2 SLOAD DUP2 LT PUSH2 0x1993 JUMPI PUSH2 0x1992 PUSH2 0x241C JUMP JUMPDEST JUMPDEST SWAP1 PUSH1 0x0 MSTORE PUSH1 0x20 PUSH1 0x0 KECCAK256 ADD PUSH1 0x0 SWAP1 SLOAD SWAP1 PUSH2 0x100 EXP SWAP1 DIV PUSH20 0xFFFFFFFFFFFFFFFFFFFFFFFFFFFFFFFFFFFFFFFF AND SWAP1 POP DUP1 DUP7 PUSH1 0x0 DUP2 MLOAD DUP2 LT PUSH2 0x19D5 JUMPI PUSH2 0x19D4 PUSH2 0x241C JUMP JUMPDEST JUMPDEST PUSH1 0x20 MUL PUSH1 0x20 ADD ADD SWAP1 PUSH20 0xFFFFFFFFFFFFFFFFFFFFFFFFFFFFFFFFFFFFFFFF AND SWAP1 DUP2 PUSH20 0xFFFFFFFFFFFFFFFFFFFFFFFFFFFFFFFFFFFFFFFF AND DUP2 MSTORE POP POP PUSH1 0xC PUSH1 0x0 DUP3 PUSH20 0xFFFFFFFFFFFFFFFFFFFFFFFFFFFFFFFFFFFFFFFF AND PUSH20 0xFFFFFFFFFFFFFFFFFFFFFFFFFFFFFFFFFFFFFFFF AND DUP2 MSTORE PUSH1 0x20 ADD SWAP1 DUP2 MSTORE PUSH1 0x20 ADD PUSH1 0x0 KECCAK256 SLOAD SWAP4 POP DUP4 DUP6 PUSH1 0x0 DUP2 MLOAD DUP2 LT PUSH2 0x1A66 JUMPI PUSH2 0x1A65 PUSH2 0x241C JUMP JUMPDEST JUMPDEST PUSH1 0x20 MUL PUSH1 0x20 ADD ADD DUP2 DUP2 MSTORE POP POP PUSH1 0x0 PUSH1 0x1 SWAP1 POP JUMPDEST PUSH1 0x3 SLOAD DUP2 LT ISZERO PUSH2 0x1B96 JUMPI PUSH1 0xA DUP2 DUP2 SLOAD DUP2 LT PUSH2 0x1A97 JUMPI PUSH2 0x1A96 PUSH2 0x241C JUMP JUMPDEST JUMPDEST SWAP1 PUSH1 0x0 MSTORE PUSH1 0x20 PUSH1 0x0 KECCAK256 ADD PUSH1 0x0 SWAP1 SLOAD SWAP1 PUSH2 0x100 EXP SWAP1 DIV PUSH20 0xFFFFFFFFFFFFFFFFFFFFFFFFFFFFFFFFFFFFFFFF AND SWAP2 POP DUP2 DUP8 DUP3 DUP2 MLOAD DUP2 LT PUSH2 0x1AD8 JUMPI PUSH2 0x1AD7 PUSH2 0x241C JUMP JUMPDEST JUMPDEST PUSH1 0x20 MUL PUSH1 0x20 ADD ADD SWAP1 PUSH20 0xFFFFFFFFFFFFFFFFFFFFFFFFFFFFFFFFFFFFFFFF AND SWAP1 DUP2 PUSH20 0xFFFFFFFFFFFFFFFFFFFFFFFFFFFFFFFFFFFFFFFF AND DUP2 MSTORE POP POP PUSH1 0xC PUSH1 0x0 DUP4 PUSH20 0xFFFFFFFFFFFFFFFFFFFFFFFFFFFFFFFFFFFFFFFF AND PUSH20 0xFFFFFFFFFFFFFFFFFFFFFFFFFFFFFFFFFFFFFFFF AND DUP2 MSTORE PUSH1 0x20 ADD SWAP1 DUP2 MSTORE PUSH1 0x20 ADD PUSH1 0x0 KECCAK256 SLOAD SWAP3 POP DUP3 DUP7 DUP3 DUP2 MLOAD DUP2 LT PUSH2 0x1B68 JUMPI PUSH2 0x1B67 PUSH2 0x241C JUMP JUMPDEST JUMPDEST PUSH1 0x20 MUL PUSH1 0x20 ADD ADD DUP2 DUP2 MSTORE POP POP DUP3 DUP6 GT ISZERO PUSH2 0x1B83 JUMPI DUP3 SWAP5 POP DUP1 SWAP4 POP JUMPDEST DUP1 DUP1 PUSH2 0x1B8E SWAP1 PUSH2 0x2846 JUMP JUMPDEST SWAP2 POP POP PUSH2 0x1A79 JUMP JUMPDEST POP PUSH1 0x0 PUSH1 0x3 SLOAD SWAP1 POP JUMPDEST PUSH1 0xA DUP1 SLOAD SWAP1 POP DUP2 LT ISZERO PUSH2 0x1D20 JUMPI PUSH1 0xA DUP2 DUP2 SLOAD DUP2 LT PUSH2 0x1BC0 JUMPI PUSH2 0x1BBF PUSH2 0x241C JUMP JUMPDEST JUMPDEST SWAP1 PUSH1 0x0 MSTORE PUSH1 0x20 PUSH1 0x0 KECCAK256 ADD PUSH1 0x0 SWAP1 SLOAD SWAP1 PUSH2 0x100 EXP SWAP1 DIV PUSH20 0xFFFFFFFFFFFFFFFFFFFFFFFFFFFFFFFFFFFFFFFF AND SWAP2 POP PUSH1 0xC PUSH1 0x0 DUP4 PUSH20 0xFFFFFFFFFFFFFFFFFFFFFFFFFFFFFFFFFFFFFFFF AND PUSH20 0xFFFFFFFFFFFFFFFFFFFFFFFFFFFFFFFFFFFFFFFF AND DUP2 MSTORE PUSH1 0x20 ADD SWAP1 DUP2 MSTORE PUSH1 0x20 ADD PUSH1 0x0 KECCAK256 SLOAD SWAP3 POP DUP5 DUP4 GT ISZERO PUSH2 0x1D0D JUMPI DUP2 DUP8 DUP6 DUP2 MLOAD DUP2 LT PUSH2 0x1C4B JUMPI PUSH2 0x1C4A PUSH2 0x241C JUMP JUMPDEST JUMPDEST PUSH1 0x20 MUL PUSH1 0x20 ADD ADD SWAP1 PUSH20 0xFFFFFFFFFFFFFFFFFFFFFFFFFFFFFFFFFFFFFFFF AND SWAP1 DUP2 PUSH20 0xFFFFFFFFFFFFFFFFFFFFFFFFFFFFFFFFFFFFFFFF AND DUP2 MSTORE POP POP DUP3 DUP7 DUP6 DUP2 MLOAD DUP2 LT PUSH2 0x1C99 JUMPI PUSH2 0x1C98 PUSH2 0x241C JUMP JUMPDEST JUMPDEST PUSH1 0x20 MUL PUSH1 0x20 ADD ADD DUP2 DUP2 MSTORE POP POP DUP3 SWAP5 POP PUSH1 0x0 JUMPDEST PUSH1 0x3 SLOAD DUP2 LT ISZERO PUSH2 0x1D0B JUMPI DUP6 DUP8 DUP3 DUP2 MLOAD DUP2 LT PUSH2 0x1CC9 JUMPI PUSH2 0x1CC8 PUSH2 0x241C JUMP JUMPDEST JUMPDEST PUSH1 0x20 MUL PUSH1 0x20 ADD ADD MLOAD LT ISZERO PUSH2 0x1CF8 JUMPI DUP7 DUP2 DUP2 MLOAD DUP2 LT PUSH2 0x1CEA JUMPI PUSH2 0x1CE9 PUSH2 0x241C JUMP JUMPDEST JUMPDEST PUSH1 0x20 MUL PUSH1 0x20 ADD ADD MLOAD SWAP6 POP DUP1 SWAP5 POP JUMPDEST DUP1 DUP1 PUSH2 0x1D03 SWAP1 PUSH2 0x2846 JUMP JUMPDEST SWAP2 POP POP PUSH2 0x1CAB JUMP JUMPDEST POP JUMPDEST DUP1 DUP1 PUSH2 0x1D18 SWAP1 PUSH2 0x2846 JUMP JUMPDEST SWAP2 POP POP PUSH2 0x1B9F JUMP JUMPDEST POP PUSH1 0x0 JUMPDEST PUSH1 0x3 SLOAD DUP2 LT ISZERO PUSH2 0x1DB3 JUMPI PUSH1 0x1 PUSH1 0x7 PUSH1 0x0 DUP10 DUP5 DUP2 MLOAD DUP2 LT PUSH2 0x1D47 JUMPI PUSH2 0x1D46 PUSH2 0x241C JUMP JUMPDEST JUMPDEST PUSH1 0x20 MUL PUSH1 0x20 ADD ADD MLOAD PUSH20 0xFFFFFFFFFFFFFFFFFFFFFFFFFFFFFFFFFFFFFFFF AND PUSH20 0xFFFFFFFFFFFFFFFFFFFFFFFFFFFFFFFFFFFFFFFF AND DUP2 MSTORE PUSH1 0x20 ADD SWAP1 DUP2 MSTORE PUSH1 0x20 ADD PUSH1 0x0 KECCAK256 PUSH1 0x0 PUSH2 0x100 EXP DUP2 SLOAD DUP2 PUSH1 0xFF MUL NOT AND SWAP1 DUP4 ISZERO ISZERO MUL OR SWAP1 SSTORE POP DUP1 DUP1 PUSH2 0x1DAB SWAP1 PUSH2 0x2846 JUMP JUMPDEST SWAP2 POP POP PUSH2 0x1D24 JUMP JUMPDEST POP POP POP POP POP POP POP JUMP JUMPDEST PUSH1 0x0 DUP2 PUSH2 0x3E8 PUSH2 0x1DCC SWAP2 SWAP1 PUSH2 0x2758 JUMP JUMPDEST SWAP1 POP PUSH1 0x0 JUMPDEST PUSH1 0xA DUP1 SLOAD SWAP1 POP DUP2 LT ISZERO PUSH2 0x1F2F JUMPI PUSH1 0x0 PUSH1 0xA DUP3 DUP2 SLOAD DUP2 LT PUSH2 0x1DF4 JUMPI PUSH2 0x1DF3 PUSH2 0x241C JUMP JUMPDEST JUMPDEST SWAP1 PUSH1 0x0 MSTORE PUSH1 0x20 PUSH1 0x0 KECCAK256 ADD PUSH1 0x0 SWAP1 SLOAD SWAP1 PUSH2 0x100 EXP SWAP1 DIV PUSH20 0xFFFFFFFFFFFFFFFFFFFFFFFFFFFFFFFFFFFFFFFF AND SWAP1 POP PUSH1 0x0 ISZERO ISZERO PUSH1 0xE PUSH1 0x0 DUP4 PUSH20 0xFFFFFFFFFFFFFFFFFFFFFFFFFFFFFFFFFFFFFFFF AND PUSH20 0xFFFFFFFFFFFFFFFFFFFFFFFFFFFFFFFFFFFFFFFF AND DUP2 MSTORE PUSH1 0x20 ADD SWAP1 DUP2 MSTORE PUSH1 0x20 ADD PUSH1 0x0 KECCAK256 PUSH1 0x0 SWAP1 SLOAD SWAP1 PUSH2 0x100 EXP SWAP1 DIV PUSH1 0xFF AND ISZERO ISZERO SUB PUSH2 0x1F1B JUMPI PUSH1 0x0 DUP4 PUSH2 0x3E8 PUSH1 0xD PUSH1 0x0 DUP6 PUSH20 0xFFFFFFFFFFFFFFFFFFFFFFFFFFFFFFFFFFFFFFFF AND PUSH20 0xFFFFFFFFFFFFFFFFFFFFFFFFFFFFFFFFFFFFFFFF AND DUP2 MSTORE PUSH1 0x20 ADD SWAP1 DUP2 MSTORE PUSH1 0x20 ADD PUSH1 0x0 KECCAK256 SLOAD PUSH2 0x1EC9 SWAP2 SWAP1 PUSH2 0x278C JUMP JUMPDEST PUSH2 0x1ED3 SWAP2 SWAP1 PUSH2 0x2815 JUMP JUMPDEST SWAP1 POP DUP1 PUSH1 0xD PUSH1 0x0 DUP5 PUSH20 0xFFFFFFFFFFFFFFFFFFFFFFFFFFFFFFFFFFFFFFFF AND PUSH20 0xFFFFFFFFFFFFFFFFFFFFFFFFFFFFFFFFFFFFFFFF AND DUP2 MSTORE PUSH1 0x20 ADD SWAP1 DUP2 MSTORE PUSH1 0x20 ADD PUSH1 0x0 KECCAK256 DUP2 SWAP1 SSTORE POP POP JUMPDEST POP DUP1 DUP1 PUSH2 0x1F27 SWAP1 PUSH2 0x2846 JUMP JUMPDEST SWAP2 POP POP PUSH2 0x1DD1 JUMP JUMPDEST POP POP POP JUMP JUMPDEST PUSH1 0x0 PUSH1 0x40 MLOAD SWAP1 POP SWAP1 JUMP JUMPDEST PUSH1 0x0 DUP1 REVERT JUMPDEST PUSH1 0x0 DUP1 REVERT JUMPDEST PUSH1 0x0 DUP2 SWAP1 POP SWAP2 SWAP1 POP JUMP JUMPDEST PUSH2 0x1F5B DUP2 PUSH2 0x1F48 JUMP JUMPDEST DUP2 EQ PUSH2 0x1F66 JUMPI PUSH1 0x0 DUP1 REVERT JUMPDEST POP JUMP JUMPDEST PUSH1 0x0 DUP2 CALLDATALOAD SWAP1 POP PUSH2 0x1F78 DUP2 PUSH2 0x1F52 JUMP JUMPDEST SWAP3 SWAP2 POP POP JUMP JUMPDEST PUSH1 0x0 PUSH20 0xFFFFFFFFFFFFFFFFFFFFFFFFFFFFFFFFFFFFFFFF DUP3 AND SWAP1 POP SWAP2 SWAP1 POP JUMP JUMPDEST PUSH1 0x0 PUSH2 0x1FA9 DUP3 PUSH2 0x1F7E JUMP JUMPDEST SWAP1 POP SWAP2 SWAP1 POP JUMP JUMPDEST PUSH2 0x1FB9 DUP2 PUSH2 0x1F9E JUMP JUMPDEST DUP2 EQ PUSH2 0x1FC4 JUMPI PUSH1 0x0 DUP1 REVERT JUMPDEST POP JUMP JUMPDEST PUSH1 0x0 DUP2 CALLDATALOAD SWAP1 POP PUSH2 0x1FD6 DUP2 PUSH2 0x1FB0 JUMP JUMPDEST SWAP3 SWAP2 POP POP JUMP JUMPDEST PUSH1 0x0 DUP1 PUSH1 0x40 DUP4 DUP6 SUB SLT ISZERO PUSH2 0x1FF3 JUMPI PUSH2 0x1FF2 PUSH2 0x1F3E JUMP JUMPDEST JUMPDEST PUSH1 0x0 PUSH2 0x2001 DUP6 DUP3 DUP7 ADD PUSH2 0x1F69 JUMP JUMPDEST SWAP3 POP POP PUSH1 0x20 PUSH2 0x2012 DUP6 DUP3 DUP7 ADD PUSH2 0x1FC7 JUMP JUMPDEST SWAP2 POP POP SWAP3 POP SWAP3 SWAP1 POP JUMP JUMPDEST PUSH1 0x0 DUP2 ISZERO ISZERO SWAP1 POP SWAP2 SWAP1 POP JUMP JUMPDEST PUSH2 0x2031 DUP2 PUSH2 0x201C JUMP JUMPDEST DUP3 MSTORE POP POP JUMP JUMPDEST PUSH1 0x0 PUSH1 0x20 DUP3 ADD SWAP1 POP PUSH2 0x204C PUSH1 0x0 DUP4 ADD DUP5 PUSH2 0x2028 JUMP JUMPDEST SWAP3 SWAP2 POP POP JUMP JUMPDEST PUSH2 0x205B DUP2 PUSH2 0x1F48 JUMP JUMPDEST DUP3 MSTORE POP POP JUMP JUMPDEST PUSH1 0x0 PUSH1 0x20 DUP3 ADD SWAP1 POP PUSH2 0x2076 PUSH1 0x0 DUP4 ADD DUP5 PUSH2 0x2052 JUMP JUMPDEST SWAP3 SWAP2 POP POP JUMP JUMPDEST PUSH1 0x0 DUP2 MLOAD SWAP1 POP SWAP2 SWAP1 POP JUMP JUMPDEST PUSH1 0x0 DUP3 DUP3 MSTORE PUSH1 0x20 DUP3 ADD SWAP1 POP SWAP3 SWAP2 POP POP JUMP JUMPDEST PUSH1 0x0 JUMPDEST DUP4 DUP2 LT ISZERO PUSH2 0x20B6 JUMPI DUP1 DUP3 ADD MLOAD DUP2 DUP5 ADD MSTORE PUSH1 0x20 DUP2 ADD SWAP1 POP PUSH2 0x209B JUMP JUMPDEST DUP4 DUP2 GT ISZERO PUSH2 0x20C5 JUMPI PUSH1 0x0 DUP5 DUP5 ADD MSTORE JUMPDEST POP POP POP POP JUMP JUMPDEST PUSH1 0x0 PUSH1 0x1F NOT PUSH1 0x1F DUP4 ADD AND SWAP1 POP SWAP2 SWAP1 POP JUMP JUMPDEST PUSH1 0x0 PUSH2 0x20E7 DUP3 PUSH2 0x207C JUMP JUMPDEST PUSH2 0x20F1 DUP2 DUP6 PUSH2 0x2087 JUMP JUMPDEST SWAP4 POP PUSH2 0x2101 DUP2 DUP6 PUSH1 0x20 DUP7 ADD PUSH2 0x2098 JUMP JUMPDEST PUSH2 0x210A DUP2 PUSH2 0x20CB JUMP JUMPDEST DUP5 ADD SWAP2 POP POP SWAP3 SWAP2 POP POP JUMP JUMPDEST PUSH1 0x0 PUSH1 0x20 DUP3 ADD SWAP1 POP DUP2 DUP2 SUB PUSH1 0x0 DUP4 ADD MSTORE PUSH2 0x212F DUP2 DUP5 PUSH2 0x20DC JUMP JUMPDEST SWAP1 POP SWAP3 SWAP2 POP POP JUMP JUMPDEST PUSH1 0x0 PUSH1 0x20 DUP3 DUP5 SUB SLT ISZERO PUSH2 0x214D JUMPI PUSH2 0x214C PUSH2 0x1F3E JUMP JUMPDEST JUMPDEST PUSH1 0x0 PUSH2 0x215B DUP5 DUP3 DUP6 ADD PUSH2 0x1FC7 JUMP JUMPDEST SWAP2 POP POP SWAP3 SWAP2 POP POP JUMP JUMPDEST PUSH1 0x0 DUP1 REVERT JUMPDEST PUSH1 0x0 DUP1 REVERT JUMPDEST PUSH32 0x4E487B7100000000000000000000000000000000000000000000000000000000 PUSH1 0x0 MSTORE PUSH1 0x41 PUSH1 0x4 MSTORE PUSH1 0x24 PUSH1 0x0 REVERT JUMPDEST PUSH2 0x21A6 DUP3 PUSH2 0x20CB JUMP JUMPDEST DUP2 ADD DUP2 DUP2 LT PUSH8 0xFFFFFFFFFFFFFFFF DUP3 GT OR ISZERO PUSH2 0x21C5 JUMPI PUSH2 0x21C4 PUSH2 0x216E JUMP JUMPDEST JUMPDEST DUP1 PUSH1 0x40 MSTORE POP POP POP JUMP JUMPDEST PUSH1 0x0 PUSH2 0x21D8 PUSH2 0x1F34 JUMP JUMPDEST SWAP1 POP PUSH2 0x21E4 DUP3 DUP3 PUSH2 0x219D JUMP JUMPDEST SWAP2 SWAP1 POP JUMP JUMPDEST PUSH1 0x0 PUSH8 0xFFFFFFFFFFFFFFFF DUP3 GT ISZERO PUSH2 0x2204 JUMPI PUSH2 0x2203 PUSH2 0x216E JUMP JUMPDEST JUMPDEST PUSH2 0x220D DUP3 PUSH2 0x20CB JUMP JUMPDEST SWAP1 POP PUSH1 0x20 DUP2 ADD SWAP1 POP SWAP2 SWAP1 POP JUMP JUMPDEST DUP3 DUP2 DUP4 CALLDATACOPY PUSH1 0x0 DUP4 DUP4 ADD MSTORE POP POP POP JUMP JUMPDEST PUSH1 0x0 PUSH2 0x223C PUSH2 0x2237 DUP5 PUSH2 0x21E9 JUMP JUMPDEST PUSH2 0x21CE JUMP JUMPDEST SWAP1 POP DUP3 DUP2 MSTORE PUSH1 0x20 DUP2 ADD DUP5 DUP5 DUP5 ADD GT ISZERO PUSH2 0x2258 JUMPI PUSH2 0x2257 PUSH2 0x2169 JUMP JUMPDEST JUMPDEST PUSH2 0x2263 DUP5 DUP3 DUP6 PUSH2 0x221A JUMP JUMPDEST POP SWAP4 SWAP3 POP POP POP JUMP JUMPDEST PUSH1 0x0 DUP3 PUSH1 0x1F DUP4 ADD SLT PUSH2 0x2280 JUMPI PUSH2 0x227F PUSH2 0x2164 JUMP JUMPDEST JUMPDEST DUP2 CALLDATALOAD PUSH2 0x2290 DUP5 DUP3 PUSH1 0x20 DUP7 ADD PUSH2 0x2229 JUMP JUMPDEST SWAP2 POP POP SWAP3 SWAP2 POP POP JUMP JUMPDEST PUSH1 0x0 DUP1 PUSH1 0x0 PUSH1 0x60 DUP5 DUP7 SUB SLT ISZERO PUSH2 0x22B2 JUMPI PUSH2 0x22B1 PUSH2 0x1F3E JUMP JUMPDEST JUMPDEST PUSH1 0x0 DUP5 ADD CALLDATALOAD PUSH8 0xFFFFFFFFFFFFFFFF DUP2 GT ISZERO PUSH2 0x22D0 JUMPI PUSH2 0x22CF PUSH2 0x1F43 JUMP JUMPDEST JUMPDEST PUSH2 0x22DC DUP7 DUP3 DUP8 ADD PUSH2 0x226B JUMP JUMPDEST SWAP4 POP POP PUSH1 0x20 DUP5 ADD CALLDATALOAD PUSH8 0xFFFFFFFFFFFFFFFF DUP2 GT ISZERO PUSH2 0x22FD JUMPI PUSH2 0x22FC PUSH2 0x1F43 JUMP JUMPDEST JUMPDEST PUSH2 0x2309 DUP7 DUP3 DUP8 ADD PUSH2 0x226B JUMP JUMPDEST SWAP3 POP POP PUSH1 0x40 PUSH2 0x231A DUP7 DUP3 DUP8 ADD PUSH2 0x1F69 JUMP JUMPDEST SWAP2 POP POP SWAP3 POP SWAP3 POP SWAP3 JUMP JUMPDEST PUSH1 0x0 PUSH1 0x20 DUP3 DUP5 SUB SLT ISZERO PUSH2 0x233A JUMPI PUSH2 0x2339 PUSH2 0x1F3E JUMP JUMPDEST JUMPDEST PUSH1 0x0 PUSH2 0x2348 DUP5 DUP3 DUP6 ADD PUSH2 0x1F69 JUMP JUMPDEST SWAP2 POP POP SWAP3 SWAP2 POP POP JUMP JUMPDEST PUSH2 0x235A DUP2 PUSH2 0x1F9E JUMP JUMPDEST DUP3 MSTORE POP POP JUMP JUMPDEST PUSH1 0x0 PUSH1 0x20 DUP3 ADD SWAP1 POP PUSH2 0x2375 PUSH1 0x0 DUP4 ADD DUP5 PUSH2 0x2351 JUMP JUMPDEST SWAP3 SWAP2 POP POP JUMP JUMPDEST PUSH1 0x0 DUP1 PUSH1 0x40 DUP4 DUP6 SUB SLT ISZERO PUSH2 0x2392 JUMPI PUSH2 0x2391 PUSH2 0x1F3E JUMP JUMPDEST JUMPDEST PUSH1 0x0 PUSH2 0x23A0 DUP6 DUP3 DUP7 ADD PUSH2 0x1FC7 JUMP JUMPDEST SWAP3 POP POP PUSH1 0x20 PUSH2 0x23B1 DUP6 DUP3 DUP7 ADD PUSH2 0x1F69 JUMP JUMPDEST SWAP2 POP POP SWAP3 POP SWAP3 SWAP1 POP JUMP JUMPDEST PUSH1 0x0 PUSH1 0xA0 DUP3 ADD SWAP1 POP DUP2 DUP2 SUB PUSH1 0x0 DUP4 ADD MSTORE PUSH2 0x23D5 DUP2 DUP9 PUSH2 0x20DC JUMP JUMPDEST SWAP1 POP DUP2 DUP2 SUB PUSH1 0x20 DUP4 ADD MSTORE PUSH2 0x23E9 DUP2 DUP8 PUSH2 0x20DC JUMP JUMPDEST SWAP1 POP PUSH2 0x23F8 PUSH1 0x40 DUP4 ADD DUP7 PUSH2 0x2052 JUMP JUMPDEST PUSH2 0x2405 PUSH1 0x60 DUP4 ADD DUP6 PUSH2 0x2028 JUMP JUMPDEST PUSH2 0x2412 PUSH1 0x80 DUP4 ADD DUP5 PUSH2 0x2052 JUMP JUMPDEST SWAP7 SWAP6 POP POP POP POP POP POP JUMP JUMPDEST PUSH32 0x4E487B7100000000000000000000000000000000000000000000000000000000 PUSH1 0x0 MSTORE PUSH1 0x32 PUSH1 0x4 MSTORE PUSH1 0x24 PUSH1 0x0 REVERT JUMPDEST PUSH32 0x4E487B7100000000000000000000000000000000000000000000000000000000 PUSH1 0x0 MSTORE PUSH1 0x22 PUSH1 0x4 MSTORE PUSH1 0x24 PUSH1 0x0 REVERT JUMPDEST PUSH1 0x0 PUSH1 0x2 DUP3 DIV SWAP1 POP PUSH1 0x1 DUP3 AND DUP1 PUSH2 0x2492 JUMPI PUSH1 0x7F DUP3 AND SWAP2 POP JUMPDEST PUSH1 0x20 DUP3 LT DUP2 SUB PUSH2 0x24A5 JUMPI PUSH2 0x24A4 PUSH2 0x244B JUMP JUMPDEST JUMPDEST POP SWAP2 SWAP1 POP JUMP JUMPDEST PUSH1 0x0 DUP2 SWAP1 POP DUP2 PUSH1 0x0 MSTORE PUSH1 0x20 PUSH1 0x0 KECCAK256 SWAP1 POP SWAP2 SWAP1 POP JUMP JUMPDEST PUSH1 0x0 PUSH1 0x20 PUSH1 0x1F DUP4 ADD DIV SWAP1 POP SWAP2 SWAP1 POP JUMP JUMPDEST PUSH1 0x0 DUP3 DUP3 SHL SWAP1 POP SWAP3 SWAP2 POP POP JUMP JUMPDEST PUSH1 0x0 PUSH1 0x8 DUP4 MUL PUSH2 0x250D PUSH32 0xFFFFFFFFFFFFFFFFFFFFFFFFFFFFFFFFFFFFFFFFFFFFFFFFFFFFFFFFFFFFFFFF DUP3 PUSH2 0x24D0 JUMP JUMPDEST PUSH2 0x2517 DUP7 DUP4 PUSH2 0x24D0 JUMP JUMPDEST SWAP6 POP DUP1 NOT DUP5 AND SWAP4 POP DUP1 DUP7 AND DUP5 OR SWAP3 POP POP POP SWAP4 SWAP3 POP POP POP JUMP JUMPDEST PUSH1 0x0 DUP2 SWAP1 POP SWAP2 SWAP1 POP JUMP JUMPDEST PUSH1 0x0 PUSH2 0x2554 PUSH2 0x254F PUSH2 0x254A DUP5 PUSH2 0x1F48 JUMP JUMPDEST PUSH2 0x252F JUMP JUMPDEST PUSH2 0x1F48 JUMP JUMPDEST SWAP1 POP SWAP2 SWAP1 POP JUMP JUMPDEST PUSH1 0x0 DUP2 SWAP1 POP SWAP2 SWAP1 POP JUMP JUMPDEST PUSH2 0x256E DUP4 PUSH2 0x2539 JUMP JUMPDEST PUSH2 0x2582 PUSH2 0x257A DUP3 PUSH2 0x255B JUMP JUMPDEST DUP5 DUP5 SLOAD PUSH2 0x24DD JUMP JUMPDEST DUP3 SSTORE POP POP POP POP JUMP JUMPDEST PUSH1 0x0 SWAP1 JUMP JUMPDEST PUSH2 0x2597 PUSH2 0x258A JUMP JUMPDEST PUSH2 0x25A2 DUP2 DUP5 DUP5 PUSH2 0x2565 JUMP JUMPDEST POP POP POP JUMP JUMPDEST JUMPDEST DUP2 DUP2 LT ISZERO PUSH2 0x25C6 JUMPI PUSH2 0x25BB PUSH1 0x0 DUP3 PUSH2 0x258F JUMP JUMPDEST PUSH1 0x1 DUP2 ADD SWAP1 POP PUSH2 0x25A8 JUMP JUMPDEST POP POP JUMP JUMPDEST PUSH1 0x1F DUP3 GT ISZERO PUSH2 0x260B JUMPI PUSH2 0x25DC DUP2 PUSH2 0x24AB JUMP JUMPDEST PUSH2 0x25E5 DUP5 PUSH2 0x24C0 JUMP JUMPDEST DUP2 ADD PUSH1 0x20 DUP6 LT ISZERO PUSH2 0x25F4 JUMPI DUP2 SWAP1 POP JUMPDEST PUSH2 0x2608 PUSH2 0x2600 DUP6 PUSH2 0x24C0 JUMP JUMPDEST DUP4 ADD DUP3 PUSH2 0x25A7 JUMP JUMPDEST POP POP JUMPDEST POP POP POP JUMP JUMPDEST PUSH1 0x0 DUP3 DUP3 SHR SWAP1 POP SWAP3 SWAP2 POP POP JUMP JUMPDEST PUSH1 0x0 PUSH2 0x262E PUSH1 0x0 NOT DUP5 PUSH1 0x8 MUL PUSH2 0x2610 JUMP JUMPDEST NOT DUP1 DUP4 AND SWAP2 POP POP SWAP3 SWAP2 POP POP JUMP JUMPDEST PUSH1 0x0 PUSH2 0x2647 DUP4 DUP4 PUSH2 0x261D JUMP JUMPDEST SWAP2 POP DUP3 PUSH1 0x2 MUL DUP3 OR SWAP1 POP SWAP3 SWAP2 POP POP JUMP JUMPDEST PUSH2 0x2660 DUP3 PUSH2 0x207C JUMP JUMPDEST PUSH8 0xFFFFFFFFFFFFFFFF DUP2 GT ISZERO PUSH2 0x2679 JUMPI PUSH2 0x2678 PUSH2 0x216E JUMP JUMPDEST JUMPDEST PUSH2 0x2683 DUP3 SLOAD PUSH2 0x247A JUMP JUMPDEST PUSH2 0x268E DUP3 DUP3 DUP6 PUSH2 0x25CA JUMP JUMPDEST PUSH1 0x0 PUSH1 0x20 SWAP1 POP PUSH1 0x1F DUP4 GT PUSH1 0x1 DUP2 EQ PUSH2 0x26C1 JUMPI PUSH1 0x0 DUP5 ISZERO PUSH2 0x26AF JUMPI DUP3 DUP8 ADD MLOAD SWAP1 POP JUMPDEST PUSH2 0x26B9 DUP6 DUP3 PUSH2 0x263B JUMP JUMPDEST DUP7 SSTORE POP PUSH2 0x2721 JUMP JUMPDEST PUSH1 0x1F NOT DUP5 AND PUSH2 0x26CF DUP7 PUSH2 0x24AB JUMP JUMPDEST PUSH1 0x0 JUMPDEST DUP3 DUP2 LT ISZERO PUSH2 0x26F7 JUMPI DUP5 DUP10 ADD MLOAD DUP3 SSTORE PUSH1 0x1 DUP3 ADD SWAP2 POP PUSH1 0x20 DUP6 ADD SWAP5 POP PUSH1 0x20 DUP2 ADD SWAP1 POP PUSH2 0x26D2 JUMP JUMPDEST DUP7 DUP4 LT ISZERO PUSH2 0x2714 JUMPI DUP5 DUP10 ADD MLOAD PUSH2 0x2710 PUSH1 0x1F DUP10 AND DUP3 PUSH2 0x261D JUMP JUMPDEST DUP4 SSTORE POP JUMPDEST PUSH1 0x1 PUSH1 0x2 DUP9 MUL ADD DUP9 SSTORE POP POP POP JUMPDEST POP POP POP POP POP POP JUMP JUMPDEST PUSH32 0x4E487B7100000000000000000000000000000000000000000000000000000000 PUSH1 0x0 MSTORE PUSH1 0x11 PUSH1 0x4 MSTORE PUSH1 0x24 PUSH1 0x0 REVERT JUMPDEST PUSH1 0x0 PUSH2 0x2763 DUP3 PUSH2 0x1F48 JUMP JUMPDEST SWAP2 POP PUSH2 0x276E DUP4 PUSH2 0x1F48 JUMP JUMPDEST SWAP3 POP DUP3 DUP3 LT ISZERO PUSH2 0x2781 JUMPI PUSH2 0x2780 PUSH2 0x2729 JUMP JUMPDEST JUMPDEST DUP3 DUP3 SUB SWAP1 POP SWAP3 SWAP2 POP POP JUMP JUMPDEST PUSH1 0x0 PUSH2 0x2797 DUP3 PUSH2 0x1F48 JUMP JUMPDEST SWAP2 POP PUSH2 0x27A2 DUP4 PUSH2 0x1F48 JUMP JUMPDEST SWAP3 POP DUP2 PUSH32 0xFFFFFFFFFFFFFFFFFFFFFFFFFFFFFFFFFFFFFFFFFFFFFFFFFFFFFFFFFFFFFFFF DIV DUP4 GT DUP3 ISZERO ISZERO AND ISZERO PUSH2 0x27DB JUMPI PUSH2 0x27DA PUSH2 0x2729 JUMP JUMPDEST JUMPDEST DUP3 DUP3 MUL SWAP1 POP SWAP3 SWAP2 POP POP JUMP JUMPDEST PUSH32 0x4E487B7100000000000000000000000000000000000000000000000000000000 PUSH1 0x0 MSTORE PUSH1 0x12 PUSH1 0x4 MSTORE PUSH1 0x24 PUSH1 0x0 REVERT JUMPDEST PUSH1 0x0 PUSH2 0x2820 DUP3 PUSH2 0x1F48 JUMP JUMPDEST SWAP2 POP PUSH2 0x282B DUP4 PUSH2 0x1F48 JUMP JUMPDEST SWAP3 POP DUP3 PUSH2 0x283B JUMPI PUSH2 0x283A PUSH2 0x27E6 JUMP JUMPDEST JUMPDEST DUP3 DUP3 DIV SWAP1 POP SWAP3 SWAP2 POP POP JUMP JUMPDEST PUSH1 0x0 PUSH2 0x2851 DUP3 PUSH2 0x1F48 JUMP JUMPDEST SWAP2 POP PUSH32 0xFFFFFFFFFFFFFFFFFFFFFFFFFFFFFFFFFFFFFFFFFFFFFFFFFFFFFFFFFFFFFFFF DUP3 SUB PUSH2 0x2883 JUMPI PUSH2 0x2882 PUSH2 0x2729 JUMP JUMPDEST JUMPDEST PUSH1 0x1 DUP3 ADD SWAP1 POP SWAP2 SWAP1 POP JUMP JUMPDEST PUSH1 0x0 PUSH2 0x2899 DUP3 PUSH2 0x1F48 JUMP JUMPDEST SWAP2 POP PUSH2 0x28A4 DUP4 PUSH2 0x1F48 JUMP JUMPDEST SWAP3 POP DUP3 PUSH32 0xFFFFFFFFFFFFFFFFFFFFFFFFFFFFFFFFFFFFFFFFFFFFFFFFFFFFFFFFFFFFFFFF SUB DUP3 GT ISZERO PUSH2 0x28D9 JUMPI PUSH2 0x28D8 PUSH2 0x2729 JUMP JUMPDEST JUMPDEST DUP3 DUP3 ADD SWAP1 POP SWAP3 SWAP2 POP POP JUMP JUMPDEST PUSH1 0x0 PUSH2 0x28EF DUP3 PUSH2 0x1F48 JUMP JUMPDEST SWAP2 POP PUSH1 0x0 DUP3 SUB PUSH2 0x2902 JUMPI PUSH2 0x2901 PUSH2 0x2729 JUMP JUMPDEST JUMPDEST PUSH1 0x1 DUP3 SUB SWAP1 POP SWAP2 SWAP1 POP JUMP INVALID LOG2 PUSH5 0x6970667358 0x22 SLT KECCAK256 CALLVALUE 0x5D SHR 0x2D 0xDA PUSH19 0x55A2AD98A662BD56C6AAE5BA1CFE7350AAA035 0xD1 PUSH3 0x73E638 PUSH20 0x2364736F6C634300080F00330000000000000000 "},"gasEstimates":{"creation":{"codeDepositCost":"2112600","executionCost":"infinite","totalCost":"infinite"},"external":{"Investment(address)":"2859","Investors(uint256)":"5022","PayDayVoted()":"infinite","Stakeholders(address)":"2958","Stakeholders_endTheContract(address)":"2913","allInvestorPercent()":"infinite","approveRequest(uint256)":"infinite","executed_order_66(uint256)":"infinite","getMoney()":"409","investorBalanc()":"infinite","isStakeholdersApprove(uint256,address)":"5313","join()":"infinite","lastLeaveVal()":"2519","lastRePay()":"2518","lastTotalVal()":"2475","leave_contract(address,uint256)":"infinite","lefted(address)":"2957","makeNewRequset(string,string,uint256)":"infinite","manager()":"2559","managerFineFee()":"2541","minimumContribution()":"2497","myRequsts(uint256)":"infinite","name()":"infinite","numOfInvestors()":"2498","ownPercent(address)":"2860","payDay()":"infinite","site()":"2625","startContract()":"infinite","the_balance()":"2474","timeEnd()":"2539","timeStart()":"2517","timeToJoin()":"2519"},"internal":{"fixPercent(uint256)":"infinite","setStakeholders()":"infinite"}},"methodIdentifiers":{"Investment(address)":"d7898240","Investors(uint256)":"fbae5e7d","PayDayVoted()":"864a53dc","Stakeholders(address)":"1e28528e","Stakeholders_endTheContract(address)":"364548cd","allInvestorPercent()":"acdb8341","approveRequest(uint256)":"d7d1bbdb","executed_order_66(uint256)":"3d22aea8","getMoney()":"98e1b410","investorBalanc()":"2ef3fa27","isStakeholdersApprove(uint256,address)":"0060929a","join()":"b688a363","lastLeaveVal()":"2f5274e3","lastRePay()":"e028a693","lastTotalVal()":"8975aa08","leave_contract(address,uint256)":"b2f8be5c","lefted(address)":"999cc5ca","makeNewRequset(string,string,uint256)":"2b84b316","manager()":"481c6a75","managerFineFee()":"31d0e40f","minimumContribution()":"937e09b1","myRequsts(uint256)":"f63f9655","name()":"06fdde03","numOfInvestors()":"01999870","ownPercent(address)":"32b7acec","payDay()":"789b2e6c","site()":"e0d370ac","startContract()":"5fb02f4d","the_balance()":"a4758c9a","timeEnd()":"fda263e8","timeStart()":"fd74d294","timeToJoin()":"3ba20f2a"}},"storageLayout":{"storage":[{"astId":101,"contract":"Inbox.sol:basic","label":"penelty","offset":0,"slot":"0","type":"t_uint256"},{"astId":104,"contract":"Inbox.sol:basic","label":"manager_fee","offset":0,"slot":"1","type":"t_uint256"},{"astId":107,"contract":"Inbox.sol:basic","label":"days_start","offset":0,"slot":"2","type":"t_uint256"},{"astId":110,"contract":"Inbox.sol:basic","label":"numStakeholders","offset":0,"slot":"3","type":"t_uint256"},{"astId":112,"contract":"Inbox.sol:basic","label":"name","offset":0,"slot":"4","type":"t_string_storage"},{"astId":114,"contract":"Inbox.sol:basic","label":"manager","offset":0,"slot":"5","type":"t_address"},{"astId":116,"contract":"Inbox.sol:basic","label":"site","offset":0,"slot":"6","type":"t_address"},{"astId":120,"contract":"Inbox.sol:basic","label":"Stakeholders","offset":0,"slot":"7","type":"t_mapping(t_address,t_bool)"},{"astId":124,"contract":"Inbox.sol:basic","label":"Stakeholders_endTheContract","offset":0,"slot":"8","type":"t_mapping(t_address,t_bool)"},{"astId":127,"contract":"Inbox.sol:basic","label":"endTheContract_numOfVote","offset":0,"slot":"9","type":"t_uint256"},{"astId":130,"contract":"Inbox.sol:basic","label":"Investors","offset":0,"slot":"10","type":"t_array(t_address)dyn_storage"},{"astId":133,"contract":"Inbox.sol:basic","label":"numOfInvestors","offset":0,"slot":"11","type":"t_uint256"},{"astId":137,"contract":"Inbox.sol:basic","label":"Investment","offset":0,"slot":"12","type":"t_mapping(t_address,t_uint256)"},{"astId":141,"contract":"Inbox.sol:basic","label":"ownPercent","offset":0,"slot":"13","type":"t_mapping(t_address,t_uint256)"},{"astId":145,"contract":"Inbox.sol:basic","label":"lefted","offset":0,"slot":"14","type":"t_mapping(t_address,t_bool)"},{"astId":147,"contract":"Inbox.sol:basic","label":"minimumContribution","offset":0,"slot":"15","type":"t_uint256"},{"astId":149,"contract":"Inbox.sol:basic","label":"timeStart","offset":0,"slot":"16","type":"t_uint256"},{"astId":151,"contract":"Inbox.sol:basic","label":"timeToJoin","offset":0,"slot":"17","type":"t_uint256"},{"astId":153,"contract":"Inbox.sol:basic","label":"timeEnd","offset":0,"slot":"18","type":"t_uint256"},{"astId":155,"contract":"Inbox.sol:basic","label":"canBuy","offset":0,"slot":"19","type":"t_bool"},{"astId":159,"contract":"Inbox.sol:basic","label":"myRequsts","offset":0,"slot":"20","type":"t_array(t_struct(Request)98_storage)dyn_storage"},{"astId":161,"contract":"Inbox.sol:basic","label":"lastRePay","offset":0,"slot":"21","type":"t_uint256"},{"astId":163,"contract":"Inbox.sol:basic","label":"lastTotalVal","offset":0,"slot":"22","type":"t_uint256"},{"astId":165,"contract":"Inbox.sol:basic","label":"managerFineFee","offset":0,"slot":"23","type":"t_uint256"},{"astId":167,"contract":"Inbox.sol:basic","label":"the_balance","offset":0,"slot":"24","type":"t_uint256"},{"astId":169,"contract":"Inbox.sol:basic","label":"lastLeaveVal","offset":0,"slot":"25","type":"t_uint256"}],"types":{"t_address":{"encoding":"inplace","label":"address","numberOfBytes":"20"},"t_array(t_address)dyn_storage":{"base":"t_address","encoding":"dynamic_array","label":"address[]","numberOfBytes":"32"},"t_array(t_struct(Request)98_storage)dyn_storage":{"base":"t_struct(Request)98_storage","encoding":"dynamic_array","label":"struct basic.Request[]","numberOfBytes":"32"},"t_bool":{"encoding":"inplace","label":"bool","numberOfBytes":"1"},"t_mapping(t_address,t_bool)":{"encoding":"mapping","key":"t_address","label":"mapping(address => bool)","numberOfBytes":"32","value":"t_bool"},"t_mapping(t_address,t_uint256)":{"encoding":"mapping","key":"t_address","label":"mapping(address => uint256)","numberOfBytes":"32","value":"t_uint256"},"t_string_storage":{"encoding":"bytes","label":"string","numberOfBytes":"32"},"t_struct(Request)98_storage":{"encoding":"inplace","label":"struct basic.Request","members":[{"astId":85,"contract":"Inbox.sol:basic","label":"description","offset":0,"slot":"0","type":"t_string_storage"},{"astId":87,"contract":"Inbox.sol:basic","label":"what","offset":0,"slot":"1","type":"t_string_storage"},{"astId":89,"contract":"Inbox.sol:basic","label":"value","offset":0,"slot":"2","type":"t_uint256"},{"astId":91,"contract":"Inbox.sol:basic","label":"complete","offset":0,"slot":"3","type":"t_bool"},{"astId":93,"contract":"Inbox.sol:basic","label":"approvalCount","offset":0,"slot":"4","type":"t_uint256"},{"astId":97,"contract":"Inbox.sol:basic","label":"approvals","offset":0,"slot":"5","type":"t_mapping(t_address,t_bool)"}],"numberOfBytes":"192"},"t_uint256":{"encoding":"inplace","label":"uint256","numberOfBytes":"32"}}},"userdoc":{"kind":"user","methods":{},"version":1}}