{"abi":[{"inputs":[{"internalType":"uint256","name":"minimum","type":"uint256"},{"internalType":"uint256","name":"num_days","type":"uint256"},{"internalType":"address","name":"creator","type":"address"},{"internalType":"address","name":"sentTo","type":"address"}],"stateMutability":"nonpayable","type":"constructor"},{"inputs":[{"internalType":"address","name":"","type":"address"}],"name":"Investment","outputs":[{"internalType":"uint256","name":"","type":"uint256"}],"stateMutability":"view","type":"function"},{"inputs":[{"internalType":"uint256","name":"","type":"uint256"}],"name":"Investors","outputs":[{"internalType":"address","name":"","type":"address"}],"stateMutability":"view","type":"function"},{"inputs":[],"name":"PayDayVoted","outputs":[],"stateMutability":"nonpayable","type":"function"},{"inputs":[{"internalType":"address","name":"","type":"address"}],"name":"Stakeholders","outputs":[{"internalType":"bool","name":"","type":"bool"}],"stateMutability":"view","type":"function"},{"inputs":[{"internalType":"address","name":"","type":"address"}],"name":"Stakeholders_endTheContract","outputs":[{"internalType":"bool","name":"","type":"bool"}],"stateMutability":"view","type":"function"},{"inputs":[],"name":"allInvestorPercent","outputs":[{"internalType":"uint256","name":"","type":"uint256"}],"stateMutability":"view","type":"function"},{"inputs":[{"internalType":"uint256","name":"index","type":"uint256"}],"name":"approveRequest","outputs":[],"stateMutability":"nonpayable","type":"function"},{"inputs":[{"internalType":"uint256","name":"index","type":"uint256"}],"name":"executed_order_66","outputs":[{"internalType":"bool","name":"","type":"bool"}],"stateMutability":"nonpayable","type":"function"},{"inputs":[],"name":"getMoney","outputs":[{"internalType":"bool","name":"","type":"bool"}],"stateMutability":"payable","type":"function"},{"inputs":[],"name":"investorBalanc","outputs":[{"internalType":"uint256","name":"","type":"uint256"}],"stateMutability":"view","type":"function"},{"inputs":[{"internalType":"uint256","name":"reqId","type":"uint256"},{"internalType":"address","name":"user","type":"address"}],"name":"isStakeholdersApprove","outputs":[{"internalType":"bool","name":"","type":"bool"}],"stateMutability":"view","type":"function"},{"inputs":[],"name":"join","outputs":[],"stateMutability":"payable","type":"function"},{"inputs":[],"name":"lastLeaveVal","outputs":[{"internalType":"uint256","name":"","type":"uint256"}],"stateMutability":"view","type":"function"},{"inputs":[],"name":"lastRePay","outputs":[{"internalType":"uint256","name":"","type":"uint256"}],"stateMutability":"view","type":"function"},{"inputs":[],"name":"lastTotalVal","outputs":[{"internalType":"uint256","name":"","type":"uint256"}],"stateMutability":"view","type":"function"},{"inputs":[{"internalType":"address","name":"leave_address","type":"address"},{"internalType":"uint256","name":"yield","type":"uint256"}],"name":"leave_contract","outputs":[{"internalType":"bool","name":"","type":"bool"}],"stateMutability":"nonpayable","type":"function"},{"inputs":[{"internalType":"address","name":"","type":"address"}],"name":"lefted","outputs":[{"internalType":"bool","name":"","type":"bool"}],"stateMutability":"view","type":"function"},{"inputs":[{"internalType":"string","name":"what","type":"string"},{"internalType":"string","name":"why","type":"string"},{"internalType":"uint256","name":"value","type":"uint256"}],"name":"makeNewRequset","outputs":[],"stateMutability":"nonpayable","type":"function"},{"inputs":[],"name":"manager","outputs":[{"internalType":"address","name":"","type":"address"}],"stateMutability":"view","type":"function"},{"inputs":[],"name":"managerFineFee","outputs":[{"internalType":"uint256","name":"","type":"uint256"}],"stateMutability":"view","type":"function"},{"inputs":[],"name":"minimumContribution","outputs":[{"internalType":"uint256","name":"","type":"uint256"}],"stateMutability":"view","type":"function"},{"inputs":[{"internalType":"uint256","name":"","type":"uint256"}],"name":"myRequsts","outputs":[{"internalType":"string","name":"description","type":"string"},{"internalType":"string","name":"what","type":"string"},{"internalType":"uint256","name":"value","type":"uint256"},{"internalType":"bool","name":"complete","type":"bool"},{"internalType":"uint256","name":"approvalCount","type":"uint256"}],"stateMutability":"view","type":"function"},{"inputs":[{"internalType":"address","name":"","type":"address"}],"name":"ownPercent","outputs":[{"internalType":"uint256","name":"","type":"uint256"}],"stateMutability":"view","type":"function"},{"inputs":[],"name":"payDay","outputs":[],"stateMutability":"nonpayable","type":"function"},{"inputs":[],"name":"site","outputs":[{"internalType":"address","name":"","type":"address"}],"stateMutability":"view","type":"function"},{"inputs":[],"name":"startContract","outputs":[],"stateMutability":"nonpayable","type":"function"},{"inputs":[],"name":"the_balance","outputs":[{"internalType":"uint256","name":"","type":"uint256"}],"stateMutability":"view","type":"function"},{"inputs":[],"name":"timeEnd","outputs":[{"internalType":"uint256","name":"","type":"uint256"}],"stateMutability":"view","type":"function"},{"inputs":[],"name":"timeStart","outputs":[{"internalType":"uint256","name":"","type":"uint256"}],"stateMutability":"view","type":"function"},{"inputs":[],"name":"timeToJoin","outputs":[{"internalType":"uint256","name":"","type":"uint256"}],"stateMutability":"view","type":"function"}],"devdoc":{"kind":"dev","methods":{},"version":1},"evm":{"assembly":"    /* \"Inbox.sol\":65:8971  contract basic {... */\n  mstore(0x40, 0x80)\n    /* \"Inbox.sol\":1073:1076  800 */\n  0x0320\n    /* \"Inbox.sol\":1058:1076  uint penelty = 800 */\n  0x00\n  sstore\n    /* \"Inbox.sol\":1132:1135  100 */\n  0x64\n    /* \"Inbox.sol\":1113:1135  uint manager_fee = 100 */\n  0x01\n  sstore\n    /* \"Inbox.sol\":1170:1172  20 */\n  0x14\n    /* \"Inbox.sol\":1152:1172  uint days_start = 20 */\n  0x02\n  sstore\n    /* \"Inbox.sol\":1202:1203  4 */\n  0x04\n    /* \"Inbox.sol\":1179:1203  uint numStakeholders = 4 */\n  0x03\n  sstore\n    /* \"Inbox.sol\":1453:1454  0 */\n  0x00\n    /* \"Inbox.sol\":1421:1454  uint endTheContract_numOfVote = 0 */\n  0x08\n  sstore\n    /* \"Inbox.sol\":2449:2853  constructor(... */\n  callvalue\n  dup1\n  iszero\n  tag_1\n  jumpi\n  0x00\n  dup1\n  revert\ntag_1:\n  pop\n  mload(0x40)\n  sub(codesize, bytecodeSize)\n  dup1\n  bytecodeSize\n  dup4\n  codecopy\n  dup2\n  dup2\n  add\n  0x40\n  mstore\n  dup2\n  add\n  swap1\n  tag_2\n  swap2\n  swap1\n  tag_3\n  jump\t// in\ntag_2:\n    /* \"Inbox.sol\":2587:2593  sentTo */\n  dup1\n    /* \"Inbox.sol\":2580:2584  site */\n  0x05\n  0x00\n    /* \"Inbox.sol\":2580:2593  site = sentTo */\n  0x0100\n  exp\n  dup2\n  sload\n  dup2\n  0xffffffffffffffffffffffffffffffffffffffff\n  mul\n  not\n  and\n  swap1\n  dup4\n  0xffffffffffffffffffffffffffffffffffffffff\n  and\n  mul\n  or\n  swap1\n  sstore\n  pop\n    /* \"Inbox.sol\":2614:2621  creator */\n  dup2\n    /* \"Inbox.sol\":2604:2611  manager */\n  0x04\n  0x00\n    /* \"Inbox.sol\":2604:2621  manager = creator */\n  0x0100\n  exp\n  dup2\n  sload\n  dup2\n  0xffffffffffffffffffffffffffffffffffffffff\n  mul\n  not\n  and\n  swap1\n  dup4\n  0xffffffffffffffffffffffffffffffffffffffff\n  and\n  mul\n  or\n  swap1\n  sstore\n  pop\n    /* \"Inbox.sol\":2654:2661  minimum */\n  dup4\n    /* \"Inbox.sol\":2632:2651  minimumContribution */\n  0x0d\n    /* \"Inbox.sol\":2632:2661  minimumContribution = minimum */\n  dup2\n  swap1\n  sstore\n  pop\n    /* \"Inbox.sol\":2684:2699  block.timestamp */\n  timestamp\n    /* \"Inbox.sol\":2672:2681  timeStart */\n  0x0e\n    /* \"Inbox.sol\":2672:2699  timeStart = block.timestamp */\n  dup2\n  swap1\n  sstore\n  pop\n    /* \"Inbox.sol\":2750:2756  1 days */\n  0x015180\n    /* \"Inbox.sol\":2739:2747  num_days */\n  dup4\n    /* \"Inbox.sol\":2739:2756  num_days * 1 days */\n  tag_6\n  swap2\n  swap1\n  tag_7\n  jump\t// in\ntag_6:\n    /* \"Inbox.sol\":2720:2735  block.timestamp */\n  timestamp\n    /* \"Inbox.sol\":2720:2757  block.timestamp + (num_days * 1 days) */\n  tag_8\n  swap2\n  swap1\n  tag_9\n  jump\t// in\ntag_8:\n    /* \"Inbox.sol\":2710:2717  timeEnd */\n  0x10\n    /* \"Inbox.sol\":2710:2757  timeEnd = block.timestamp + (num_days * 1 days) */\n  dup2\n  swap1\n  sstore\n  pop\n    /* \"Inbox.sol\":2813:2819  1 days */\n  0x015180\n    /* \"Inbox.sol\":2800:2810  days_start */\n  sload(0x02)\n    /* \"Inbox.sol\":2800:2819  days_start * 1 days */\n  tag_10\n  swap2\n  swap1\n  tag_7\n  jump\t// in\ntag_10:\n    /* \"Inbox.sol\":2781:2796  block.timestamp */\n  timestamp\n    /* \"Inbox.sol\":2781:2820  block.timestamp + (days_start * 1 days) */\n  tag_11\n  swap2\n  swap1\n  tag_9\n  jump\t// in\ntag_11:\n    /* \"Inbox.sol\":2768:2778  timeToJoin */\n  0x0f\n    /* \"Inbox.sol\":2768:2820  timeToJoin = block.timestamp + (days_start * 1 days) */\n  dup2\n  swap1\n  sstore\n  pop\n    /* \"Inbox.sol\":2840:2845  false */\n  0x00\n    /* \"Inbox.sol\":2831:2837  canBuy */\n  0x11\n  0x00\n    /* \"Inbox.sol\":2831:2845  canBuy = false */\n  0x0100\n  exp\n  dup2\n  sload\n  dup2\n  0xff\n  mul\n  not\n  and\n  swap1\n  dup4\n  iszero\n  iszero\n  mul\n  or\n  swap1\n  sstore\n  pop\n    /* \"Inbox.sol\":2449:2853  constructor(... */\n  pop\n  pop\n  pop\n  pop\n    /* \"Inbox.sol\":65:8971  contract basic {... */\n  jump(tag_12)\n    /* \"#utility.yul\":88:205   */\ntag_14:\n    /* \"#utility.yul\":197:198   */\n  0x00\n    /* \"#utility.yul\":194:195   */\n  dup1\n    /* \"#utility.yul\":187:199   */\n  revert\n    /* \"#utility.yul\":334:411   */\ntag_16:\n    /* \"#utility.yul\":371:378   */\n  0x00\n    /* \"#utility.yul\":400:405   */\n  dup2\n    /* \"#utility.yul\":389:405   */\n  swap1\n  pop\n    /* \"#utility.yul\":334:411   */\n  swap2\n  swap1\n  pop\n  jump\t// out\n    /* \"#utility.yul\":417:539   */\ntag_17:\n    /* \"#utility.yul\":490:514   */\n  tag_30\n    /* \"#utility.yul\":508:513   */\n  dup2\n    /* \"#utility.yul\":490:514   */\n  tag_16\n  jump\t// in\ntag_30:\n    /* \"#utility.yul\":483:488   */\n  dup2\n    /* \"#utility.yul\":480:515   */\n  eq\n    /* \"#utility.yul\":470:533   */\n  tag_31\n  jumpi\n    /* \"#utility.yul\":529:530   */\n  0x00\n    /* \"#utility.yul\":526:527   */\n  dup1\n    /* \"#utility.yul\":519:531   */\n  revert\n    /* \"#utility.yul\":470:533   */\ntag_31:\n    /* \"#utility.yul\":417:539   */\n  pop\n  jump\t// out\n    /* \"#utility.yul\":545:688   */\ntag_18:\n    /* \"#utility.yul\":602:607   */\n  0x00\n    /* \"#utility.yul\":633:639   */\n  dup2\n    /* \"#utility.yul\":627:640   */\n  mload\n    /* \"#utility.yul\":618:640   */\n  swap1\n  pop\n    /* \"#utility.yul\":649:682   */\n  tag_33\n    /* \"#utility.yul\":676:681   */\n  dup2\n    /* \"#utility.yul\":649:682   */\n  tag_17\n  jump\t// in\ntag_33:\n    /* \"#utility.yul\":545:688   */\n  swap3\n  swap2\n  pop\n  pop\n  jump\t// out\n    /* \"#utility.yul\":694:820   */\ntag_19:\n    /* \"#utility.yul\":731:738   */\n  0x00\n    /* \"#utility.yul\":771:813   */\n  0xffffffffffffffffffffffffffffffffffffffff\n    /* \"#utility.yul\":764:769   */\n  dup3\n    /* \"#utility.yul\":760:814   */\n  and\n    /* \"#utility.yul\":749:814   */\n  swap1\n  pop\n    /* \"#utility.yul\":694:820   */\n  swap2\n  swap1\n  pop\n  jump\t// out\n    /* \"#utility.yul\":826:922   */\ntag_20:\n    /* \"#utility.yul\":863:870   */\n  0x00\n    /* \"#utility.yul\":892:916   */\n  tag_36\n    /* \"#utility.yul\":910:915   */\n  dup3\n    /* \"#utility.yul\":892:916   */\n  tag_19\n  jump\t// in\ntag_36:\n    /* \"#utility.yul\":881:916   */\n  swap1\n  pop\n    /* \"#utility.yul\":826:922   */\n  swap2\n  swap1\n  pop\n  jump\t// out\n    /* \"#utility.yul\":928:1050   */\ntag_21:\n    /* \"#utility.yul\":1001:1025   */\n  tag_38\n    /* \"#utility.yul\":1019:1024   */\n  dup2\n    /* \"#utility.yul\":1001:1025   */\n  tag_20\n  jump\t// in\ntag_38:\n    /* \"#utility.yul\":994:999   */\n  dup2\n    /* \"#utility.yul\":991:1026   */\n  eq\n    /* \"#utility.yul\":981:1044   */\n  tag_39\n  jumpi\n    /* \"#utility.yul\":1040:1041   */\n  0x00\n    /* \"#utility.yul\":1037:1038   */\n  dup1\n    /* \"#utility.yul\":1030:1042   */\n  revert\n    /* \"#utility.yul\":981:1044   */\ntag_39:\n    /* \"#utility.yul\":928:1050   */\n  pop\n  jump\t// out\n    /* \"#utility.yul\":1056:1199   */\ntag_22:\n    /* \"#utility.yul\":1113:1118   */\n  0x00\n    /* \"#utility.yul\":1144:1150   */\n  dup2\n    /* \"#utility.yul\":1138:1151   */\n  mload\n    /* \"#utility.yul\":1129:1151   */\n  swap1\n  pop\n    /* \"#utility.yul\":1160:1193   */\n  tag_41\n    /* \"#utility.yul\":1187:1192   */\n  dup2\n    /* \"#utility.yul\":1160:1193   */\n  tag_21\n  jump\t// in\ntag_41:\n    /* \"#utility.yul\":1056:1199   */\n  swap3\n  swap2\n  pop\n  pop\n  jump\t// out\n    /* \"#utility.yul\":1205:2025   */\ntag_3:\n    /* \"#utility.yul\":1302:1308   */\n  0x00\n    /* \"#utility.yul\":1310:1316   */\n  dup1\n    /* \"#utility.yul\":1318:1324   */\n  0x00\n    /* \"#utility.yul\":1326:1332   */\n  dup1\n    /* \"#utility.yul\":1375:1378   */\n  0x80\n    /* \"#utility.yul\":1363:1372   */\n  dup6\n    /* \"#utility.yul\":1354:1361   */\n  dup8\n    /* \"#utility.yul\":1350:1373   */\n  sub\n    /* \"#utility.yul\":1346:1379   */\n  slt\n    /* \"#utility.yul\":1343:1463   */\n  iszero\n  tag_43\n  jumpi\n    /* \"#utility.yul\":1382:1461   */\n  tag_44\n  tag_14\n  jump\t// in\ntag_44:\n    /* \"#utility.yul\":1343:1463   */\ntag_43:\n    /* \"#utility.yul\":1502:1503   */\n  0x00\n    /* \"#utility.yul\":1527:1591   */\n  tag_45\n    /* \"#utility.yul\":1583:1590   */\n  dup8\n    /* \"#utility.yul\":1574:1580   */\n  dup3\n    /* \"#utility.yul\":1563:1572   */\n  dup9\n    /* \"#utility.yul\":1559:1581   */\n  add\n    /* \"#utility.yul\":1527:1591   */\n  tag_18\n  jump\t// in\ntag_45:\n    /* \"#utility.yul\":1517:1591   */\n  swap5\n  pop\n    /* \"#utility.yul\":1473:1601   */\n  pop\n    /* \"#utility.yul\":1640:1642   */\n  0x20\n    /* \"#utility.yul\":1666:1730   */\n  tag_46\n    /* \"#utility.yul\":1722:1729   */\n  dup8\n    /* \"#utility.yul\":1713:1719   */\n  dup3\n    /* \"#utility.yul\":1702:1711   */\n  dup9\n    /* \"#utility.yul\":1698:1720   */\n  add\n    /* \"#utility.yul\":1666:1730   */\n  tag_18\n  jump\t// in\ntag_46:\n    /* \"#utility.yul\":1656:1730   */\n  swap4\n  pop\n    /* \"#utility.yul\":1611:1740   */\n  pop\n    /* \"#utility.yul\":1779:1781   */\n  0x40\n    /* \"#utility.yul\":1805:1869   */\n  tag_47\n    /* \"#utility.yul\":1861:1868   */\n  dup8\n    /* \"#utility.yul\":1852:1858   */\n  dup3\n    /* \"#utility.yul\":1841:1850   */\n  dup9\n    /* \"#utility.yul\":1837:1859   */\n  add\n    /* \"#utility.yul\":1805:1869   */\n  tag_22\n  jump\t// in\ntag_47:\n    /* \"#utility.yul\":1795:1869   */\n  swap3\n  pop\n    /* \"#utility.yul\":1750:1879   */\n  pop\n    /* \"#utility.yul\":1918:1920   */\n  0x60\n    /* \"#utility.yul\":1944:2008   */\n  tag_48\n    /* \"#utility.yul\":2000:2007   */\n  dup8\n    /* \"#utility.yul\":1991:1997   */\n  dup3\n    /* \"#utility.yul\":1980:1989   */\n  dup9\n    /* \"#utility.yul\":1976:1998   */\n  add\n    /* \"#utility.yul\":1944:2008   */\n  tag_22\n  jump\t// in\ntag_48:\n    /* \"#utility.yul\":1934:2008   */\n  swap2\n  pop\n    /* \"#utility.yul\":1889:2018   */\n  pop\n    /* \"#utility.yul\":1205:2025   */\n  swap3\n  swap6\n  swap2\n  swap5\n  pop\n  swap3\n  pop\n  jump\t// out\n    /* \"#utility.yul\":2031:2211   */\ntag_23:\n    /* \"#utility.yul\":2079:2156   */\n  0x4e487b7100000000000000000000000000000000000000000000000000000000\n    /* \"#utility.yul\":2076:2077   */\n  0x00\n    /* \"#utility.yul\":2069:2157   */\n  mstore\n    /* \"#utility.yul\":2176:2180   */\n  0x11\n    /* \"#utility.yul\":2173:2174   */\n  0x04\n    /* \"#utility.yul\":2166:2181   */\n  mstore\n    /* \"#utility.yul\":2200:2204   */\n  0x24\n    /* \"#utility.yul\":2197:2198   */\n  0x00\n    /* \"#utility.yul\":2190:2205   */\n  revert\n    /* \"#utility.yul\":2217:2565   */\ntag_7:\n    /* \"#utility.yul\":2257:2264   */\n  0x00\n    /* \"#utility.yul\":2280:2300   */\n  tag_51\n    /* \"#utility.yul\":2298:2299   */\n  dup3\n    /* \"#utility.yul\":2280:2300   */\n  tag_16\n  jump\t// in\ntag_51:\n    /* \"#utility.yul\":2275:2300   */\n  swap2\n  pop\n    /* \"#utility.yul\":2314:2334   */\n  tag_52\n    /* \"#utility.yul\":2332:2333   */\n  dup4\n    /* \"#utility.yul\":2314:2334   */\n  tag_16\n  jump\t// in\ntag_52:\n    /* \"#utility.yul\":2309:2334   */\n  swap3\n  pop\n    /* \"#utility.yul\":2502:2503   */\n  dup2\n    /* \"#utility.yul\":2434:2500   */\n  0xffffffffffffffffffffffffffffffffffffffffffffffffffffffffffffffff\n    /* \"#utility.yul\":2430:2504   */\n  div\n    /* \"#utility.yul\":2427:2428   */\n  dup4\n    /* \"#utility.yul\":2424:2505   */\n  gt\n    /* \"#utility.yul\":2419:2420   */\n  dup3\n    /* \"#utility.yul\":2412:2421   */\n  iszero\n    /* \"#utility.yul\":2405:2422   */\n  iszero\n    /* \"#utility.yul\":2401:2506   */\n  and\n    /* \"#utility.yul\":2398:2529   */\n  iszero\n  tag_53\n  jumpi\n    /* \"#utility.yul\":2509:2527   */\n  tag_54\n  tag_23\n  jump\t// in\ntag_54:\n    /* \"#utility.yul\":2398:2529   */\ntag_53:\n    /* \"#utility.yul\":2557:2558   */\n  dup3\n    /* \"#utility.yul\":2554:2555   */\n  dup3\n    /* \"#utility.yul\":2550:2559   */\n  mul\n    /* \"#utility.yul\":2539:2559   */\n  swap1\n  pop\n    /* \"#utility.yul\":2217:2565   */\n  swap3\n  swap2\n  pop\n  pop\n  jump\t// out\n    /* \"#utility.yul\":2571:2876   */\ntag_9:\n    /* \"#utility.yul\":2611:2614   */\n  0x00\n    /* \"#utility.yul\":2630:2650   */\n  tag_56\n    /* \"#utility.yul\":2648:2649   */\n  dup3\n    /* \"#utility.yul\":2630:2650   */\n  tag_16\n  jump\t// in\ntag_56:\n    /* \"#utility.yul\":2625:2650   */\n  swap2\n  pop\n    /* \"#utility.yul\":2664:2684   */\n  tag_57\n    /* \"#utility.yul\":2682:2683   */\n  dup4\n    /* \"#utility.yul\":2664:2684   */\n  tag_16\n  jump\t// in\ntag_57:\n    /* \"#utility.yul\":2659:2684   */\n  swap3\n  pop\n    /* \"#utility.yul\":2818:2819   */\n  dup3\n    /* \"#utility.yul\":2750:2816   */\n  0xffffffffffffffffffffffffffffffffffffffffffffffffffffffffffffffff\n    /* \"#utility.yul\":2746:2820   */\n  sub\n    /* \"#utility.yul\":2743:2744   */\n  dup3\n    /* \"#utility.yul\":2740:2821   */\n  gt\n    /* \"#utility.yul\":2737:2844   */\n  iszero\n  tag_58\n  jumpi\n    /* \"#utility.yul\":2824:2842   */\n  tag_59\n  tag_23\n  jump\t// in\ntag_59:\n    /* \"#utility.yul\":2737:2844   */\ntag_58:\n    /* \"#utility.yul\":2868:2869   */\n  dup3\n    /* \"#utility.yul\":2865:2866   */\n  dup3\n    /* \"#utility.yul\":2861:2870   */\n  add\n    /* \"#utility.yul\":2854:2870   */\n  swap1\n  pop\n    /* \"#utility.yul\":2571:2876   */\n  swap3\n  swap2\n  pop\n  pop\n  jump\t// out\n    /* \"Inbox.sol\":65:8971  contract basic {... */\ntag_12:\n  dataSize(sub_0)\n  dup1\n  dataOffset(sub_0)\n  0x00\n  codecopy\n  0x00\n  return\nstop\n\nsub_0: assembly {\n        /* \"Inbox.sol\":65:8971  contract basic {... */\n      mstore(0x40, 0x80)\n      jumpi(tag_1, lt(calldatasize, 0x04))\n      shr(0xe0, calldataload(0x00))\n      dup1\n      0x937e09b1\n      gt\n      tag_32\n      jumpi\n      dup1\n      0xd7898240\n      gt\n      tag_33\n      jumpi\n      dup1\n      0xf63f9655\n      gt\n      tag_34\n      jumpi\n      dup1\n      0xf63f9655\n      eq\n      tag_28\n      jumpi\n      dup1\n      0xfbae5e7d\n      eq\n      tag_29\n      jumpi\n      dup1\n      0xfd74d294\n      eq\n      tag_30\n      jumpi\n      dup1\n      0xfda263e8\n      eq\n      tag_31\n      jumpi\n      jump(tag_1)\n    tag_34:\n      dup1\n      0xd7898240\n      eq\n      tag_24\n      jumpi\n      dup1\n      0xd7d1bbdb\n      eq\n      tag_25\n      jumpi\n      dup1\n      0xe028a693\n      eq\n      tag_26\n      jumpi\n      dup1\n      0xe0d370ac\n      eq\n      tag_27\n      jumpi\n      jump(tag_1)\n    tag_33:\n      dup1\n      0xa4758c9a\n      gt\n      tag_35\n      jumpi\n      dup1\n      0xa4758c9a\n      eq\n      tag_20\n      jumpi\n      dup1\n      0xacdb8341\n      eq\n      tag_21\n      jumpi\n      dup1\n      0xb2f8be5c\n      eq\n      tag_22\n      jumpi\n      dup1\n      0xb688a363\n      eq\n      tag_23\n      jumpi\n      jump(tag_1)\n    tag_35:\n      dup1\n      0x937e09b1\n      eq\n      tag_17\n      jumpi\n      dup1\n      0x98e1b410\n      eq\n      tag_18\n      jumpi\n      dup1\n      0x999cc5ca\n      eq\n      tag_19\n      jumpi\n      jump(tag_1)\n    tag_32:\n      dup1\n      0x364548cd\n      gt\n      tag_36\n      jumpi\n      dup1\n      0x5fb02f4d\n      gt\n      tag_37\n      jumpi\n      dup1\n      0x5fb02f4d\n      eq\n      tag_13\n      jumpi\n      dup1\n      0x789b2e6c\n      eq\n      tag_14\n      jumpi\n      dup1\n      0x864a53dc\n      eq\n      tag_15\n      jumpi\n      dup1\n      0x8975aa08\n      eq\n      tag_16\n      jumpi\n      jump(tag_1)\n    tag_37:\n      dup1\n      0x364548cd\n      eq\n      tag_9\n      jumpi\n      dup1\n      0x3ba20f2a\n      eq\n      tag_10\n      jumpi\n      dup1\n      0x3d22aea8\n      eq\n      tag_11\n      jumpi\n      dup1\n      0x481c6a75\n      eq\n      tag_12\n      jumpi\n      jump(tag_1)\n    tag_36:\n      dup1\n      0x2ef3fa27\n      gt\n      tag_38\n      jumpi\n      dup1\n      0x2ef3fa27\n      eq\n      tag_5\n      jumpi\n      dup1\n      0x2f5274e3\n      eq\n      tag_6\n      jumpi\n      dup1\n      0x31d0e40f\n      eq\n      tag_7\n      jumpi\n      dup1\n      0x32b7acec\n      eq\n      tag_8\n      jumpi\n      jump(tag_1)\n    tag_38:\n      dup1\n      0x60929a\n      eq\n      tag_2\n      jumpi\n      dup1\n      0x1e28528e\n      eq\n      tag_3\n      jumpi\n      dup1\n      0x2b84b316\n      eq\n      tag_4\n      jumpi\n    tag_1:\n      0x00\n      dup1\n      revert\n        /* \"Inbox.sol\":5422:5632  function isStakeholdersApprove(uint reqId, address user)... */\n    tag_2:\n      callvalue\n      dup1\n      iszero\n      tag_39\n      jumpi\n      0x00\n      dup1\n      revert\n    tag_39:\n      pop\n      tag_40\n      0x04\n      dup1\n      calldatasize\n      sub\n      dup2\n      add\n      swap1\n      tag_41\n      swap2\n      swap1\n      tag_42\n      jump\t// in\n    tag_41:\n      tag_43\n      jump\t// in\n    tag_40:\n      mload(0x40)\n      tag_44\n      swap2\n      swap1\n      tag_45\n      jump\t// in\n    tag_44:\n      mload(0x40)\n      dup1\n      swap2\n      sub\n      swap1\n      return\n        /* \"Inbox.sol\":1304:1348  mapping(address => bool) public Stakeholders */\n    tag_3:\n      callvalue\n      dup1\n      iszero\n      tag_46\n      jumpi\n      0x00\n      dup1\n      revert\n    tag_46:\n      pop\n      tag_47\n      0x04\n      dup1\n      calldatasize\n      sub\n      dup2\n      add\n      swap1\n      tag_48\n      swap2\n      swap1\n      tag_49\n      jump\t// in\n    tag_48:\n      tag_50\n      jump\t// in\n    tag_47:\n      mload(0x40)\n      tag_51\n      swap2\n      swap1\n      tag_45\n      jump\t// in\n    tag_51:\n      mload(0x40)\n      dup1\n      swap2\n      sub\n      swap1\n      return\n        /* \"Inbox.sol\":5640:5939  function makeNewRequset(... */\n    tag_4:\n      callvalue\n      dup1\n      iszero\n      tag_52\n      jumpi\n      0x00\n      dup1\n      revert\n    tag_52:\n      pop\n      tag_53\n      0x04\n      dup1\n      calldatasize\n      sub\n      dup2\n      add\n      swap1\n      tag_54\n      swap2\n      swap1\n      tag_55\n      jump\t// in\n    tag_54:\n      tag_56\n      jump\t// in\n    tag_53:\n      stop\n        /* \"Inbox.sol\":2861:2989  function investorBalanc() public view returns (uint) {... */\n    tag_5:\n      callvalue\n      dup1\n      iszero\n      tag_57\n      jumpi\n      0x00\n      dup1\n      revert\n    tag_57:\n      pop\n      tag_58\n      tag_59\n      jump\t// in\n    tag_58:\n      mload(0x40)\n      tag_60\n      swap2\n      swap1\n      tag_61\n      jump\t// in\n    tag_60:\n      mload(0x40)\n      dup1\n      swap2\n      sub\n      swap1\n      return\n        /* \"Inbox.sol\":2065:2089  uint public lastLeaveVal */\n    tag_6:\n      callvalue\n      dup1\n      iszero\n      tag_62\n      jumpi\n      0x00\n      dup1\n      revert\n    tag_62:\n      pop\n      tag_63\n      tag_64\n      jump\t// in\n    tag_63:\n      mload(0x40)\n      tag_65\n      swap2\n      swap1\n      tag_61\n      jump\t// in\n    tag_65:\n      mload(0x40)\n      dup1\n      swap2\n      sub\n      swap1\n      return\n        /* \"Inbox.sol\":2002:2028  uint public managerFineFee */\n    tag_7:\n      callvalue\n      dup1\n      iszero\n      tag_66\n      jumpi\n      0x00\n      dup1\n      revert\n    tag_66:\n      pop\n      tag_67\n      tag_68\n      jump\t// in\n    tag_67:\n      mload(0x40)\n      tag_69\n      swap2\n      swap1\n      tag_61\n      jump\t// in\n    tag_69:\n      mload(0x40)\n      dup1\n      swap2\n      sub\n      swap1\n      return\n        /* \"Inbox.sol\":1543:1585  mapping(address => uint) public ownPercent */\n    tag_8:\n      callvalue\n      dup1\n      iszero\n      tag_70\n      jumpi\n      0x00\n      dup1\n      revert\n    tag_70:\n      pop\n      tag_71\n      0x04\n      dup1\n      calldatasize\n      sub\n      dup2\n      add\n      swap1\n      tag_72\n      swap2\n      swap1\n      tag_49\n      jump\t// in\n    tag_72:\n      tag_73\n      jump\t// in\n    tag_71:\n      mload(0x40)\n      tag_74\n      swap2\n      swap1\n      tag_61\n      jump\t// in\n    tag_74:\n      mload(0x40)\n      dup1\n      swap2\n      sub\n      swap1\n      return\n        /* \"Inbox.sol\":1355:1414  mapping(address => bool) public Stakeholders_endTheContract */\n    tag_9:\n      callvalue\n      dup1\n      iszero\n      tag_75\n      jumpi\n      0x00\n      dup1\n      revert\n    tag_75:\n      pop\n      tag_76\n      0x04\n      dup1\n      calldatasize\n      sub\n      dup2\n      add\n      swap1\n      tag_77\n      swap2\n      swap1\n      tag_49\n      jump\t// in\n    tag_77:\n      tag_78\n      jump\t// in\n    tag_76:\n      mload(0x40)\n      tag_79\n      swap2\n      swap1\n      tag_45\n      jump\t// in\n    tag_79:\n      mload(0x40)\n      dup1\n      swap2\n      sub\n      swap1\n      return\n        /* \"Inbox.sol\":1774:1799  uint256 public timeToJoin */\n    tag_10:\n      callvalue\n      dup1\n      iszero\n      tag_80\n      jumpi\n      0x00\n      dup1\n      revert\n    tag_80:\n      pop\n      tag_81\n      tag_82\n      jump\t// in\n    tag_81:\n      mload(0x40)\n      tag_83\n      swap2\n      swap1\n      tag_61\n      jump\t// in\n    tag_83:\n      mload(0x40)\n      dup1\n      swap2\n      sub\n      swap1\n      return\n        /* \"Inbox.sol\":6247:6610  function executed_order_66(uint index)... */\n    tag_11:\n      callvalue\n      dup1\n      iszero\n      tag_84\n      jumpi\n      0x00\n      dup1\n      revert\n    tag_84:\n      pop\n      tag_85\n      0x04\n      dup1\n      calldatasize\n      sub\n      dup2\n      add\n      swap1\n      tag_86\n      swap2\n      swap1\n      tag_87\n      jump\t// in\n    tag_86:\n      tag_88\n      jump\t// in\n    tag_85:\n      mload(0x40)\n      tag_89\n      swap2\n      swap1\n      tag_45\n      jump\t// in\n    tag_89:\n      mload(0x40)\n      dup1\n      swap2\n      sub\n      swap1\n      return\n        /* \"Inbox.sol\":1249:1271  address public manager */\n    tag_12:\n      callvalue\n      dup1\n      iszero\n      tag_90\n      jumpi\n      0x00\n      dup1\n      revert\n    tag_90:\n      pop\n      tag_91\n      tag_92\n      jump\t// in\n    tag_91:\n      mload(0x40)\n      tag_93\n      swap2\n      swap1\n      tag_94\n      jump\t// in\n    tag_93:\n      mload(0x40)\n      dup1\n      swap2\n      sub\n      swap1\n      return\n        /* \"Inbox.sol\":3386:3849  function startContract() public {... */\n    tag_13:\n      callvalue\n      dup1\n      iszero\n      tag_95\n      jumpi\n      0x00\n      dup1\n      revert\n    tag_95:\n      pop\n      tag_96\n      tag_97\n      jump\t// in\n    tag_96:\n      stop\n        /* \"Inbox.sol\":8326:8968  function payDay() public EndPeriod onlySite {... */\n    tag_14:\n      callvalue\n      dup1\n      iszero\n      tag_98\n      jumpi\n      0x00\n      dup1\n      revert\n    tag_98:\n      pop\n      tag_99\n      tag_100\n      jump\t// in\n    tag_99:\n      stop\n        /* \"Inbox.sol\":7970:8318  function PayDayVoted() public workPeriod onlyStakeholders {... */\n    tag_15:\n      callvalue\n      dup1\n      iszero\n      tag_101\n      jumpi\n      0x00\n      dup1\n      revert\n    tag_101:\n      pop\n      tag_102\n      tag_103\n      jump\t// in\n    tag_102:\n      stop\n        /* \"Inbox.sol\":1971:1995  uint public lastTotalVal */\n    tag_16:\n      callvalue\n      dup1\n      iszero\n      tag_104\n      jumpi\n      0x00\n      dup1\n      revert\n    tag_104:\n      pop\n      tag_105\n      tag_106\n      jump\t// in\n    tag_105:\n      mload(0x40)\n      tag_107\n      swap2\n      swap1\n      tag_61\n      jump\t// in\n    tag_107:\n      mload(0x40)\n      dup1\n      swap2\n      sub\n      swap1\n      return\n        /* \"Inbox.sol\":1666:1697  uint public minimumContribution */\n    tag_17:\n      callvalue\n      dup1\n      iszero\n      tag_108\n      jumpi\n      0x00\n      dup1\n      revert\n    tag_108:\n      pop\n      tag_109\n      tag_110\n      jump\t// in\n    tag_109:\n      mload(0x40)\n      tag_111\n      swap2\n      swap1\n      tag_61\n      jump\t// in\n    tag_111:\n      mload(0x40)\n      dup1\n      swap2\n      sub\n      swap1\n      return\n        /* \"Inbox.sol\":3298:3378  function getMoney() public payable returns (bool) {... */\n    tag_18:\n      tag_112\n      tag_113\n      jump\t// in\n    tag_112:\n      mload(0x40)\n      tag_114\n      swap2\n      swap1\n      tag_45\n      jump\t// in\n    tag_114:\n      mload(0x40)\n      dup1\n      swap2\n      sub\n      swap1\n      return\n        /* \"Inbox.sol\":1621:1659  mapping(address => bool) public lefted */\n    tag_19:\n      callvalue\n      dup1\n      iszero\n      tag_115\n      jumpi\n      0x00\n      dup1\n      revert\n    tag_115:\n      pop\n      tag_116\n      0x04\n      dup1\n      calldatasize\n      sub\n      dup2\n      add\n      swap1\n      tag_117\n      swap2\n      swap1\n      tag_49\n      jump\t// in\n    tag_117:\n      tag_118\n      jump\t// in\n    tag_116:\n      mload(0x40)\n      tag_119\n      swap2\n      swap1\n      tag_45\n      jump\t// in\n    tag_119:\n      mload(0x40)\n      dup1\n      swap2\n      sub\n      swap1\n      return\n        /* \"Inbox.sol\":2035:2058  uint public the_balance */\n    tag_20:\n      callvalue\n      dup1\n      iszero\n      tag_120\n      jumpi\n      0x00\n      dup1\n      revert\n    tag_120:\n      pop\n      tag_121\n      tag_122\n      jump\t// in\n    tag_121:\n      mload(0x40)\n      tag_123\n      swap2\n      swap1\n      tag_61\n      jump\t// in\n    tag_123:\n      mload(0x40)\n      dup1\n      swap2\n      sub\n      swap1\n      return\n        /* \"Inbox.sol\":2098:2415  function allInvestorPercent() public view returns (uint) {... */\n    tag_21:\n      callvalue\n      dup1\n      iszero\n      tag_124\n      jumpi\n      0x00\n      dup1\n      revert\n    tag_124:\n      pop\n      tag_125\n      tag_126\n      jump\t// in\n    tag_125:\n      mload(0x40)\n      tag_127\n      swap2\n      swap1\n      tag_61\n      jump\t// in\n    tag_127:\n      mload(0x40)\n      dup1\n      swap2\n      sub\n      swap1\n      return\n        /* \"Inbox.sol\":6618:7563  function leave_contract(... */\n    tag_22:\n      callvalue\n      dup1\n      iszero\n      tag_128\n      jumpi\n      0x00\n      dup1\n      revert\n    tag_128:\n      pop\n      tag_129\n      0x04\n      dup1\n      calldatasize\n      sub\n      dup2\n      add\n      swap1\n      tag_130\n      swap2\n      swap1\n      tag_131\n      jump\t// in\n    tag_130:\n      tag_132\n      jump\t// in\n    tag_129:\n      mload(0x40)\n      tag_133\n      swap2\n      swap1\n      tag_45\n      jump\t// in\n    tag_133:\n      mload(0x40)\n      dup1\n      swap2\n      sub\n      swap1\n      return\n        /* \"Inbox.sol\":2997:3290  function join() public payable JoinPeriod {... */\n    tag_23:\n      tag_134\n      tag_135\n      jump\t// in\n    tag_134:\n      stop\n        /* \"Inbox.sol\":1494:1536  mapping(address => uint) public Investment */\n    tag_24:\n      callvalue\n      dup1\n      iszero\n      tag_136\n      jumpi\n      0x00\n      dup1\n      revert\n    tag_136:\n      pop\n      tag_137\n      0x04\n      dup1\n      calldatasize\n      sub\n      dup2\n      add\n      swap1\n      tag_138\n      swap2\n      swap1\n      tag_49\n      jump\t// in\n    tag_138:\n      tag_139\n      jump\t// in\n    tag_137:\n      mload(0x40)\n      tag_140\n      swap2\n      swap1\n      tag_61\n      jump\t// in\n    tag_140:\n      mload(0x40)\n      dup1\n      swap2\n      sub\n      swap1\n      return\n        /* \"Inbox.sol\":5947:6239  function approveRequest(uint index) public onlyStakeholders {... */\n    tag_25:\n      callvalue\n      dup1\n      iszero\n      tag_141\n      jumpi\n      0x00\n      dup1\n      revert\n    tag_141:\n      pop\n      tag_142\n      0x04\n      dup1\n      calldatasize\n      sub\n      dup2\n      add\n      swap1\n      tag_143\n      swap2\n      swap1\n      tag_87\n      jump\t// in\n    tag_143:\n      tag_144\n      jump\t// in\n    tag_142:\n      stop\n        /* \"Inbox.sol\":1943:1964  uint public lastRePay */\n    tag_26:\n      callvalue\n      dup1\n      iszero\n      tag_145\n      jumpi\n      0x00\n      dup1\n      revert\n    tag_145:\n      pop\n      tag_146\n      tag_147\n      jump\t// in\n    tag_146:\n      mload(0x40)\n      tag_148\n      swap2\n      swap1\n      tag_61\n      jump\t// in\n    tag_148:\n      mload(0x40)\n      dup1\n      swap2\n      sub\n      swap1\n      return\n        /* \"Inbox.sol\":1278:1297  address public site */\n    tag_27:\n      callvalue\n      dup1\n      iszero\n      tag_149\n      jumpi\n      0x00\n      dup1\n      revert\n    tag_149:\n      pop\n      tag_150\n      tag_151\n      jump\t// in\n    tag_150:\n      mload(0x40)\n      tag_152\n      swap2\n      swap1\n      tag_94\n      jump\t// in\n    tag_152:\n      mload(0x40)\n      dup1\n      swap2\n      sub\n      swap1\n      return\n        /* \"Inbox.sol\":1891:1917  Request[] public myRequsts */\n    tag_28:\n      callvalue\n      dup1\n      iszero\n      tag_153\n      jumpi\n      0x00\n      dup1\n      revert\n    tag_153:\n      pop\n      tag_154\n      0x04\n      dup1\n      calldatasize\n      sub\n      dup2\n      add\n      swap1\n      tag_155\n      swap2\n      swap1\n      tag_87\n      jump\t// in\n    tag_155:\n      tag_156\n      jump\t// in\n    tag_154:\n      mload(0x40)\n      tag_157\n      swap6\n      swap5\n      swap4\n      swap3\n      swap2\n      swap1\n      tag_158\n      jump\t// in\n    tag_157:\n      mload(0x40)\n      dup1\n      swap2\n      sub\n      swap1\n      return\n        /* \"Inbox.sol\":1461:1487  address[] public Investors */\n    tag_29:\n      callvalue\n      dup1\n      iszero\n      tag_159\n      jumpi\n      0x00\n      dup1\n      revert\n    tag_159:\n      pop\n      tag_160\n      0x04\n      dup1\n      calldatasize\n      sub\n      dup2\n      add\n      swap1\n      tag_161\n      swap2\n      swap1\n      tag_87\n      jump\t// in\n    tag_161:\n      tag_162\n      jump\t// in\n    tag_160:\n      mload(0x40)\n      tag_163\n      swap2\n      swap1\n      tag_94\n      jump\t// in\n    tag_163:\n      mload(0x40)\n      dup1\n      swap2\n      sub\n      swap1\n      return\n        /* \"Inbox.sol\":1743:1767  uint256 public timeStart */\n    tag_30:\n      callvalue\n      dup1\n      iszero\n      tag_164\n      jumpi\n      0x00\n      dup1\n      revert\n    tag_164:\n      pop\n      tag_165\n      tag_166\n      jump\t// in\n    tag_165:\n      mload(0x40)\n      tag_167\n      swap2\n      swap1\n      tag_61\n      jump\t// in\n    tag_167:\n      mload(0x40)\n      dup1\n      swap2\n      sub\n      swap1\n      return\n        /* \"Inbox.sol\":1806:1828  uint256 public timeEnd */\n    tag_31:\n      callvalue\n      dup1\n      iszero\n      tag_168\n      jumpi\n      0x00\n      dup1\n      revert\n    tag_168:\n      pop\n      tag_169\n      tag_170\n      jump\t// in\n    tag_169:\n      mload(0x40)\n      tag_171\n      swap2\n      swap1\n      tag_61\n      jump\t// in\n    tag_171:\n      mload(0x40)\n      dup1\n      swap2\n      sub\n      swap1\n      return\n        /* \"Inbox.sol\":5422:5632  function isStakeholdersApprove(uint reqId, address user)... */\n    tag_43:\n        /* \"Inbox.sol\":5527:5531  bool */\n      0x00\n        /* \"Inbox.sol\":5549:5568  Request storage req */\n      dup1\n        /* \"Inbox.sol\":5571:5580  myRequsts */\n      0x12\n        /* \"Inbox.sol\":5581:5586  reqId */\n      dup5\n        /* \"Inbox.sol\":5571:5587  myRequsts[reqId] */\n      dup2\n      sload\n      dup2\n      lt\n      tag_173\n      jumpi\n      tag_174\n      tag_175\n      jump\t// in\n    tag_174:\n    tag_173:\n      swap1\n      0x00\n      mstore\n      keccak256(0x00, 0x20)\n      swap1\n      0x06\n      mul\n      add\n        /* \"Inbox.sol\":5549:5587  Request storage req = myRequsts[reqId] */\n      swap1\n      pop\n        /* \"Inbox.sol\":5605:5608  req */\n      dup1\n        /* \"Inbox.sol\":5605:5618  req.approvals */\n      0x05\n      add\n        /* \"Inbox.sol\":5605:5624  req.approvals[user] */\n      0x00\n        /* \"Inbox.sol\":5619:5623  user */\n      dup5\n        /* \"Inbox.sol\":5605:5624  req.approvals[user] */\n      0xffffffffffffffffffffffffffffffffffffffff\n      and\n      0xffffffffffffffffffffffffffffffffffffffff\n      and\n      dup2\n      mstore\n      0x20\n      add\n      swap1\n      dup2\n      mstore\n      0x20\n      add\n      0x00\n      keccak256\n      0x00\n      swap1\n      sload\n      swap1\n      0x0100\n      exp\n      swap1\n      div\n      0xff\n      and\n        /* \"Inbox.sol\":5598:5624  return req.approvals[user] */\n      swap2\n      pop\n      pop\n        /* \"Inbox.sol\":5422:5632  function isStakeholdersApprove(uint reqId, address user)... */\n      swap3\n      swap2\n      pop\n      pop\n      jump\t// out\n        /* \"Inbox.sol\":1304:1348  mapping(address => bool) public Stakeholders */\n    tag_50:\n      mstore(0x20, 0x06)\n      dup1\n      0x00\n      mstore\n      keccak256(0x00, 0x40)\n      0x00\n      swap2\n      pop\n      sload\n      swap1\n      0x0100\n      exp\n      swap1\n      div\n      0xff\n      and\n      dup2\n      jump\t// out\n        /* \"Inbox.sol\":5640:5939  function makeNewRequset(... */\n    tag_56:\n        /* \"Inbox.sol\":143:150  manager */\n      0x04\n      0x00\n      swap1\n      sload\n      swap1\n      0x0100\n      exp\n      swap1\n      div\n      0xffffffffffffffffffffffffffffffffffffffff\n      and\n        /* \"Inbox.sol\":129:150  msg.sender == manager */\n      0xffffffffffffffffffffffffffffffffffffffff\n      and\n        /* \"Inbox.sol\":129:139  msg.sender */\n      caller\n        /* \"Inbox.sol\":129:150  msg.sender == manager */\n      0xffffffffffffffffffffffffffffffffffffffff\n      and\n      eq\n        /* \"Inbox.sol\":121:151  require(msg.sender == manager) */\n      tag_178\n      jumpi\n      0x00\n      dup1\n      revert\n    tag_178:\n        /* \"Inbox.sol\":5779:5805  Request storage newRequest */\n      0x00\n        /* \"Inbox.sol\":5808:5817  myRequsts */\n      0x12\n        /* \"Inbox.sol\":5808:5824  myRequsts.push() */\n      0x01\n      dup2\n      0x01\n      dup2\n      sload\n      add\n      dup1\n      dup3\n      sstore\n      dup1\n      swap2\n      pop\n      pop\n      sub\n      swap1\n      0x00\n      mstore\n      keccak256(0x00, 0x20)\n      swap1\n      0x06\n      mul\n      add\n        /* \"Inbox.sol\":5779:5824  Request storage newRequest = myRequsts.push() */\n      swap1\n      pop\n        /* \"Inbox.sol\":5860:5863  why */\n      dup3\n        /* \"Inbox.sol\":5835:5845  newRequest */\n      dup2\n        /* \"Inbox.sol\":5835:5857  newRequest.description */\n      0x00\n      add\n        /* \"Inbox.sol\":5835:5863  newRequest.description = why */\n      swap1\n      dup2\n      tag_181\n      swap2\n      swap1\n      tag_182\n      jump\t// in\n    tag_181:\n      pop\n        /* \"Inbox.sol\":5893:5898  value */\n      dup2\n        /* \"Inbox.sol\":5874:5884  newRequest */\n      dup2\n        /* \"Inbox.sol\":5874:5890  newRequest.value */\n      0x02\n      add\n        /* \"Inbox.sol\":5874:5898  newRequest.value = value */\n      dup2\n      swap1\n      sstore\n      pop\n        /* \"Inbox.sol\":5927:5931  what */\n      dup4\n        /* \"Inbox.sol\":5909:5919  newRequest */\n      dup2\n        /* \"Inbox.sol\":5909:5924  newRequest.what */\n      0x01\n      add\n        /* \"Inbox.sol\":5909:5931  newRequest.what = what */\n      swap1\n      dup2\n      tag_183\n      swap2\n      swap1\n      tag_182\n      jump\t// in\n    tag_183:\n      pop\n        /* \"Inbox.sol\":5768:5939  {... */\n      pop\n        /* \"Inbox.sol\":5640:5939  function makeNewRequset(... */\n      pop\n      pop\n      pop\n      jump\t// out\n        /* \"Inbox.sol\":2861:2989  function investorBalanc() public view returns (uint) {... */\n    tag_59:\n        /* \"Inbox.sol\":2908:2912  uint */\n      0x00\n        /* \"Inbox.sol\":2976:2980  1000 */\n      0x03e8\n        /* \"Inbox.sol\":2963:2974  manager_fee */\n      sload(0x01)\n        /* \"Inbox.sol\":2958:2962  1000 */\n      0x03e8\n        /* \"Inbox.sol\":2958:2974  1000-manager_fee */\n      tag_185\n      swap2\n      swap1\n      tag_186\n      jump\t// in\n    tag_185:\n        /* \"Inbox.sol\":2934:2955  address(this).balance */\n      selfbalance\n        /* \"Inbox.sol\":2933:2975  (address(this).balance)*(1000-manager_fee) */\n      tag_187\n      swap2\n      swap1\n      tag_188\n      jump\t// in\n    tag_187:\n        /* \"Inbox.sol\":2933:2980  (address(this).balance)*(1000-manager_fee)/1000 */\n      tag_189\n      swap2\n      swap1\n      tag_190\n      jump\t// in\n    tag_189:\n        /* \"Inbox.sol\":2925:2981  return ((address(this).balance)*(1000-manager_fee)/1000) */\n      swap1\n      pop\n        /* \"Inbox.sol\":2861:2989  function investorBalanc() public view returns (uint) {... */\n      swap1\n      jump\t// out\n        /* \"Inbox.sol\":2065:2089  uint public lastLeaveVal */\n    tag_64:\n      sload(0x17)\n      dup2\n      jump\t// out\n        /* \"Inbox.sol\":2002:2028  uint public managerFineFee */\n    tag_68:\n      sload(0x15)\n      dup2\n      jump\t// out\n        /* \"Inbox.sol\":1543:1585  mapping(address => uint) public ownPercent */\n    tag_73:\n      mstore(0x20, 0x0b)\n      dup1\n      0x00\n      mstore\n      keccak256(0x00, 0x40)\n      0x00\n      swap2\n      pop\n      swap1\n      pop\n      sload\n      dup2\n      jump\t// out\n        /* \"Inbox.sol\":1355:1414  mapping(address => bool) public Stakeholders_endTheContract */\n    tag_78:\n      mstore(0x20, 0x07)\n      dup1\n      0x00\n      mstore\n      keccak256(0x00, 0x40)\n      0x00\n      swap2\n      pop\n      sload\n      swap1\n      0x0100\n      exp\n      swap1\n      div\n      0xff\n      and\n      dup2\n      jump\t// out\n        /* \"Inbox.sol\":1774:1799  uint256 public timeToJoin */\n    tag_82:\n      sload(0x0f)\n      dup2\n      jump\t// out\n        /* \"Inbox.sol\":6247:6610  function executed_order_66(uint index)... */\n    tag_88:\n        /* \"Inbox.sol\":6361:6365  bool */\n      0x00\n        /* \"Inbox.sol\":666:670  true */\n      0x01\n        /* \"Inbox.sol\":656:670  canBuy == true */\n      iszero\n      iszero\n        /* \"Inbox.sol\":656:662  canBuy */\n      0x11\n      0x00\n      swap1\n      sload\n      swap1\n      0x0100\n      exp\n      swap1\n      div\n      0xff\n      and\n        /* \"Inbox.sol\":656:670  canBuy == true */\n      iszero\n      iszero\n      eq\n        /* \"Inbox.sol\":647:672  require((canBuy == true)) */\n      tag_192\n      jumpi\n      0x00\n      dup1\n      revert\n    tag_192:\n        /* \"Inbox.sol\":143:150  manager */\n      0x04\n      0x00\n      swap1\n      sload\n      swap1\n      0x0100\n      exp\n      swap1\n      div\n      0xffffffffffffffffffffffffffffffffffffffff\n      and\n        /* \"Inbox.sol\":129:150  msg.sender == manager */\n      0xffffffffffffffffffffffffffffffffffffffff\n      and\n        /* \"Inbox.sol\":129:139  msg.sender */\n      caller\n        /* \"Inbox.sol\":129:150  msg.sender == manager */\n      0xffffffffffffffffffffffffffffffffffffffff\n      and\n      eq\n        /* \"Inbox.sol\":121:151  require(msg.sender == manager) */\n      tag_194\n      jumpi\n      0x00\n      dup1\n      revert\n    tag_194:\n        /* \"Inbox.sol\":6383:6406  Request storage request */\n      0x00\n        /* \"Inbox.sol\":6409:6418  myRequsts */\n      0x12\n        /* \"Inbox.sol\":6419:6424  index */\n      dup4\n        /* \"Inbox.sol\":6409:6425  myRequsts[index] */\n      dup2\n      sload\n      dup2\n      lt\n      tag_196\n      jumpi\n      tag_197\n      tag_175\n      jump\t// in\n    tag_197:\n    tag_196:\n      swap1\n      0x00\n      mstore\n      keccak256(0x00, 0x20)\n      swap1\n      0x06\n      mul\n      add\n        /* \"Inbox.sol\":6383:6425  Request storage request = myRequsts[index] */\n      swap1\n      pop\n        /* \"Inbox.sol\":6495:6496  2 */\n      0x02\n        /* \"Inbox.sol\":6477:6492  numStakeholders */\n      sload(0x03)\n        /* \"Inbox.sol\":6477:6496  numStakeholders / 2 */\n      tag_199\n      swap2\n      swap1\n      tag_190\n      jump\t// in\n    tag_199:\n        /* \"Inbox.sol\":6444:6451  request */\n      dup2\n        /* \"Inbox.sol\":6444:6465  request.approvalCount */\n      0x04\n      add\n      sload\n        /* \"Inbox.sol\":6444:6497  request.approvalCount >= uint256(numStakeholders / 2) */\n      lt\n      iszero\n        /* \"Inbox.sol\":6436:6498  require(request.approvalCount >= uint256(numStakeholders / 2)) */\n      tag_200\n      jumpi\n      0x00\n      dup1\n      revert\n    tag_200:\n        /* \"Inbox.sol\":6517:6521  site */\n      0x05\n      0x00\n      swap1\n      sload\n      swap1\n      0x0100\n      exp\n      swap1\n      div\n      0xffffffffffffffffffffffffffffffffffffffff\n      and\n        /* \"Inbox.sol\":6509:6531  payable(site).transfer */\n      0xffffffffffffffffffffffffffffffffffffffff\n      and\n        /* \"Inbox.sol\":6509:6546  payable(site).transfer(request.value) */\n      0x08fc\n        /* \"Inbox.sol\":6532:6539  request */\n      dup3\n        /* \"Inbox.sol\":6532:6545  request.value */\n      0x02\n      add\n      sload\n        /* \"Inbox.sol\":6509:6546  payable(site).transfer(request.value) */\n      swap1\n      dup2\n      iszero\n      mul\n      swap1\n      mload(0x40)\n      0x00\n      mload(0x40)\n      dup1\n      dup4\n      sub\n      dup2\n      dup6\n      dup9\n      dup9\n      call\n      swap4\n      pop\n      pop\n      pop\n      pop\n      iszero\n      dup1\n      iszero\n      tag_202\n      jumpi\n      returndatasize\n      0x00\n      dup1\n      returndatacopy\n      revert(0x00, returndatasize)\n    tag_202:\n      pop\n        /* \"Inbox.sol\":6576:6580  true */\n      0x01\n        /* \"Inbox.sol\":6557:6564  request */\n      dup2\n        /* \"Inbox.sol\":6557:6573  request.complete */\n      0x03\n      add\n      0x00\n        /* \"Inbox.sol\":6557:6580  request.complete = true */\n      0x0100\n      exp\n      dup2\n      sload\n      dup2\n      0xff\n      mul\n      not\n      and\n      swap1\n      dup4\n      iszero\n      iszero\n      mul\n      or\n      swap1\n      sstore\n      pop\n        /* \"Inbox.sol\":6598:6602  true */\n      0x01\n        /* \"Inbox.sol\":6591:6602  return true */\n      swap2\n      pop\n      pop\n        /* \"Inbox.sol\":6247:6610  function executed_order_66(uint index)... */\n      swap2\n      swap1\n      pop\n      jump\t// out\n        /* \"Inbox.sol\":1249:1271  address public manager */\n    tag_92:\n      0x04\n      0x00\n      swap1\n      sload\n      swap1\n      0x0100\n      exp\n      swap1\n      div\n      0xffffffffffffffffffffffffffffffffffffffff\n      and\n      dup2\n      jump\t// out\n        /* \"Inbox.sol\":3386:3849  function startContract() public {... */\n    tag_97:\n        /* \"Inbox.sol\":3438:3442  true */\n      0x01\n        /* \"Inbox.sol\":3429:3435  canBuy */\n      0x11\n      0x00\n        /* \"Inbox.sol\":3429:3442  canBuy = true */\n      0x0100\n      exp\n      dup2\n      sload\n      dup2\n      0xff\n      mul\n      not\n      and\n      swap1\n      dup4\n      iszero\n      iszero\n      mul\n      or\n      swap1\n      sstore\n      pop\n        /* \"Inbox.sol\":3453:3466  uint totalVal */\n      0x00\n        /* \"Inbox.sol\":3469:3490  address(this).balance */\n      selfbalance\n        /* \"Inbox.sol\":3453:3490  uint totalVal = address(this).balance */\n      swap1\n      pop\n        /* \"Inbox.sol\":3545:3556  uint ammunt */\n      0x00\n        /* \"Inbox.sol\":3572:3578  uint i */\n      dup1\n        /* \"Inbox.sol\":3581:3582  0 */\n      0x00\n        /* \"Inbox.sol\":3572:3582  uint i = 0 */\n      swap1\n      pop\n        /* \"Inbox.sol\":3567:3814  for (uint i = 0; i < Investors.length; i++) {... */\n    tag_204:\n        /* \"Inbox.sol\":3588:3597  Investors */\n      0x09\n        /* \"Inbox.sol\":3588:3604  Investors.length */\n      dup1\n      sload\n      swap1\n      pop\n        /* \"Inbox.sol\":3584:3585  i */\n      dup2\n        /* \"Inbox.sol\":3584:3604  i < Investors.length */\n      lt\n        /* \"Inbox.sol\":3567:3814  for (uint i = 0; i < Investors.length; i++) {... */\n      iszero\n      tag_205\n      jumpi\n        /* \"Inbox.sol\":3626:3647  address temp_investor */\n      0x00\n        /* \"Inbox.sol\":3650:3659  Investors */\n      0x09\n        /* \"Inbox.sol\":3660:3661  i */\n      dup3\n        /* \"Inbox.sol\":3650:3662  Investors[i] */\n      dup2\n      sload\n      dup2\n      lt\n      tag_207\n      jumpi\n      tag_208\n      tag_175\n      jump\t// in\n    tag_208:\n    tag_207:\n      swap1\n      0x00\n      mstore\n      keccak256(0x00, 0x20)\n      add\n      0x00\n      swap1\n      sload\n      swap1\n      0x0100\n      exp\n      swap1\n      div\n      0xffffffffffffffffffffffffffffffffffffffff\n      and\n        /* \"Inbox.sol\":3626:3662  address temp_investor = Investors[i] */\n      swap1\n      pop\n        /* \"Inbox.sol\":3686:3696  Investment */\n      0x0a\n        /* \"Inbox.sol\":3686:3711  Investment[temp_investor] */\n      0x00\n        /* \"Inbox.sol\":3697:3710  temp_investor */\n      dup3\n        /* \"Inbox.sol\":3686:3711  Investment[temp_investor] */\n      0xffffffffffffffffffffffffffffffffffffffff\n      and\n      0xffffffffffffffffffffffffffffffffffffffff\n      and\n      dup2\n      mstore\n      0x20\n      add\n      swap1\n      dup2\n      mstore\n      0x20\n      add\n      0x00\n      keccak256\n      sload\n        /* \"Inbox.sol\":3677:3711  ammunt = Investment[temp_investor] */\n      swap3\n      pop\n        /* \"Inbox.sol\":3776:3784  totalVal */\n      dup4\n        /* \"Inbox.sol\":3768:3772  1000 */\n      0x03e8\n        /* \"Inbox.sol\":3758:3764  ammunt */\n      dup5\n        /* \"Inbox.sol\":3757:3772  (ammunt) * 1000 */\n      tag_210\n      swap2\n      swap1\n      tag_188\n      jump\t// in\n    tag_210:\n        /* \"Inbox.sol\":3756:3784  ((ammunt) * 1000) / totalVal */\n      tag_211\n      swap2\n      swap1\n      tag_190\n      jump\t// in\n    tag_211:\n        /* \"Inbox.sol\":3726:3736  ownPercent */\n      0x0b\n        /* \"Inbox.sol\":3726:3751  ownPercent[temp_investor] */\n      0x00\n        /* \"Inbox.sol\":3737:3750  temp_investor */\n      dup4\n        /* \"Inbox.sol\":3726:3751  ownPercent[temp_investor] */\n      0xffffffffffffffffffffffffffffffffffffffff\n      and\n      0xffffffffffffffffffffffffffffffffffffffff\n      and\n      dup2\n      mstore\n      0x20\n      add\n      swap1\n      dup2\n      mstore\n      0x20\n      add\n      0x00\n      keccak256\n        /* \"Inbox.sol\":3726:3786  ownPercent[temp_investor] = ((((ammunt) * 1000) / totalVal)) */\n      dup2\n      swap1\n      sstore\n      pop\n        /* \"Inbox.sol\":3611:3814  {... */\n      pop\n        /* \"Inbox.sol\":3606:3609  i++ */\n      dup1\n      dup1\n      tag_212\n      swap1\n      tag_213\n      jump\t// in\n    tag_212:\n      swap2\n      pop\n      pop\n        /* \"Inbox.sol\":3567:3814  for (uint i = 0; i < Investors.length; i++) {... */\n      jump(tag_204)\n    tag_205:\n      pop\n        /* \"Inbox.sol\":3824:3841  setStakeholders() */\n      tag_214\n        /* \"Inbox.sol\":3824:3839  setStakeholders */\n      tag_215\n        /* \"Inbox.sol\":3824:3841  setStakeholders() */\n      jump\t// in\n    tag_214:\n        /* \"Inbox.sol\":3418:3849  {... */\n      pop\n      pop\n        /* \"Inbox.sol\":3386:3849  function startContract() public {... */\n      jump\t// out\n        /* \"Inbox.sol\":8326:8968  function payDay() public EndPeriod onlySite {... */\n    tag_100:\n        /* \"Inbox.sol\":799:800  2 */\n      0x02\n        /* \"Inbox.sol\":781:796  numStakeholders */\n      sload(0x03)\n        /* \"Inbox.sol\":781:800  numStakeholders / 2 */\n      tag_217\n      swap2\n      swap1\n      tag_190\n      jump\t// in\n    tag_217:\n        /* \"Inbox.sol\":753:777  endTheContract_numOfVote */\n      sload(0x08)\n        /* \"Inbox.sol\":753:800  endTheContract_numOfVote >= numStakeholders / 2 */\n      lt\n      iszero\n        /* \"Inbox.sol\":752:820  (endTheContract_numOfVote >= numStakeholders / 2) || canBuy == false */\n      dup1\n      tag_218\n      jumpi\n      pop\n        /* \"Inbox.sol\":815:820  false */\n      0x00\n        /* \"Inbox.sol\":805:820  canBuy == false */\n      iszero\n      iszero\n        /* \"Inbox.sol\":805:811  canBuy */\n      0x11\n      0x00\n      swap1\n      sload\n      swap1\n      0x0100\n      exp\n      swap1\n      div\n      0xff\n      and\n        /* \"Inbox.sol\":805:820  canBuy == false */\n      iszero\n      iszero\n      eq\n        /* \"Inbox.sol\":752:820  (endTheContract_numOfVote >= numStakeholders / 2) || canBuy == false */\n    tag_218:\n        /* \"Inbox.sol\":730:831  require(... */\n      tag_219\n      jumpi\n      0x00\n      dup1\n      revert\n    tag_219:\n        /* \"Inbox.sol\":332:336  site */\n      0x05\n      0x00\n      swap1\n      sload\n      swap1\n      0x0100\n      exp\n      swap1\n      div\n      0xffffffffffffffffffffffffffffffffffffffff\n      and\n        /* \"Inbox.sol\":318:336  msg.sender == site */\n      0xffffffffffffffffffffffffffffffffffffffff\n      and\n        /* \"Inbox.sol\":318:328  msg.sender */\n      caller\n        /* \"Inbox.sol\":318:336  msg.sender == site */\n      0xffffffffffffffffffffffffffffffffffffffff\n      and\n      eq\n        /* \"Inbox.sol\":310:337  require(msg.sender == site) */\n      tag_221\n      jumpi\n      0x00\n      dup1\n      revert\n    tag_221:\n        /* \"Inbox.sol\":8415:8431  investorBalanc() */\n      tag_223\n        /* \"Inbox.sol\":8415:8429  investorBalanc */\n      tag_59\n        /* \"Inbox.sol\":8415:8431  investorBalanc() */\n      jump\t// in\n    tag_223:\n        /* \"Inbox.sol\":8402:8413  the_balance */\n      0x16\n        /* \"Inbox.sol\":8402:8431  the_balance =investorBalanc() */\n      dup2\n      swap1\n      sstore\n      pop\n        /* \"Inbox.sol\":8448:8454  uint i */\n      0x00\n        /* \"Inbox.sol\":8443:8812  for (uint i = 0; i < Investors.length; i++) {... */\n    tag_224:\n        /* \"Inbox.sol\":8464:8473  Investors */\n      0x09\n        /* \"Inbox.sol\":8464:8480  Investors.length */\n      dup1\n      sload\n      swap1\n      pop\n        /* \"Inbox.sol\":8460:8461  i */\n      dup2\n        /* \"Inbox.sol\":8460:8480  i < Investors.length */\n      lt\n        /* \"Inbox.sol\":8443:8812  for (uint i = 0; i < Investors.length; i++) {... */\n      iszero\n      tag_225\n      jumpi\n        /* \"Inbox.sol\":8502:8518  address investor */\n      0x00\n        /* \"Inbox.sol\":8521:8530  Investors */\n      0x09\n        /* \"Inbox.sol\":8531:8532  i */\n      dup3\n        /* \"Inbox.sol\":8521:8533  Investors[i] */\n      dup2\n      sload\n      dup2\n      lt\n      tag_227\n      jumpi\n      tag_228\n      tag_175\n      jump\t// in\n    tag_228:\n    tag_227:\n      swap1\n      0x00\n      mstore\n      keccak256(0x00, 0x20)\n      add\n      0x00\n      swap1\n      sload\n      swap1\n      0x0100\n      exp\n      swap1\n      div\n      0xffffffffffffffffffffffffffffffffffffffff\n      and\n        /* \"Inbox.sol\":8502:8533  address investor = Investors[i] */\n      swap1\n      pop\n        /* \"Inbox.sol\":8572:8577  false */\n      0x00\n        /* \"Inbox.sol\":8552:8577  lefted[investor] == false */\n      iszero\n      iszero\n        /* \"Inbox.sol\":8552:8558  lefted */\n      0x0c\n        /* \"Inbox.sol\":8552:8568  lefted[investor] */\n      0x00\n        /* \"Inbox.sol\":8559:8567  investor */\n      dup4\n        /* \"Inbox.sol\":8552:8568  lefted[investor] */\n      0xffffffffffffffffffffffffffffffffffffffff\n      and\n      0xffffffffffffffffffffffffffffffffffffffff\n      and\n      dup2\n      mstore\n      0x20\n      add\n      swap1\n      dup2\n      mstore\n      0x20\n      add\n      0x00\n      keccak256\n      0x00\n      swap1\n      sload\n      swap1\n      0x0100\n      exp\n      swap1\n      div\n      0xff\n      and\n        /* \"Inbox.sol\":8552:8577  lefted[investor] == false */\n      iszero\n      iszero\n      sub\n        /* \"Inbox.sol\":8548:8801  if (lefted[investor] == false) {... */\n      tag_230\n      jumpi\n        /* \"Inbox.sol\":8598:8612  uint myPercent */\n      0x00\n        /* \"Inbox.sol\":8615:8625  ownPercent */\n      0x0b\n        /* \"Inbox.sol\":8615:8635  ownPercent[investor] */\n      0x00\n        /* \"Inbox.sol\":8626:8634  investor */\n      dup4\n        /* \"Inbox.sol\":8615:8635  ownPercent[investor] */\n      0xffffffffffffffffffffffffffffffffffffffff\n      and\n      0xffffffffffffffffffffffffffffffffffffffff\n      and\n      dup2\n      mstore\n      0x20\n      add\n      swap1\n      dup2\n      mstore\n      0x20\n      add\n      0x00\n      keccak256\n      sload\n        /* \"Inbox.sol\":8598:8635  uint myPercent = ownPercent[investor] */\n      swap1\n      pop\n        /* \"Inbox.sol\":8654:8664  uint value */\n      0x00\n        /* \"Inbox.sol\":8695:8699  1000 */\n      0x03e8\n        /* \"Inbox.sol\":8680:8691  the_balance */\n      sload(0x16)\n        /* \"Inbox.sol\":8668:8677  myPercent */\n      dup4\n        /* \"Inbox.sol\":8668:8691  myPercent * the_balance */\n      tag_231\n      swap2\n      swap1\n      tag_188\n      jump\t// in\n    tag_231:\n        /* \"Inbox.sol\":8667:8699  (myPercent * the_balance) / 1000 */\n      tag_232\n      swap2\n      swap1\n      tag_190\n      jump\t// in\n    tag_232:\n        /* \"Inbox.sol\":8654:8699  uint value = (myPercent * the_balance) / 1000 */\n      swap1\n      pop\n        /* \"Inbox.sol\":8726:8734  investor */\n      dup3\n        /* \"Inbox.sol\":8718:8744  payable(investor).transfer */\n      0xffffffffffffffffffffffffffffffffffffffff\n      and\n        /* \"Inbox.sol\":8718:8751  payable(investor).transfer(value) */\n      0x08fc\n        /* \"Inbox.sol\":8745:8750  value */\n      dup3\n        /* \"Inbox.sol\":8718:8751  payable(investor).transfer(value) */\n      swap1\n      dup2\n      iszero\n      mul\n      swap1\n      mload(0x40)\n      0x00\n      mload(0x40)\n      dup1\n      dup4\n      sub\n      dup2\n      dup6\n      dup9\n      dup9\n      call\n      swap4\n      pop\n      pop\n      pop\n      pop\n      iszero\n      dup1\n      iszero\n      tag_234\n      jumpi\n      returndatasize\n      0x00\n      dup1\n      returndatacopy\n      revert(0x00, returndatasize)\n    tag_234:\n      pop\n        /* \"Inbox.sol\":8579:8801  {... */\n      pop\n      pop\n        /* \"Inbox.sol\":8548:8801  if (lefted[investor] == false) {... */\n    tag_230:\n        /* \"Inbox.sol\":8487:8812  {... */\n      pop\n        /* \"Inbox.sol\":8482:8485  i++ */\n      dup1\n      dup1\n      tag_235\n      swap1\n      tag_213\n      jump\t// in\n    tag_235:\n      swap2\n      pop\n      pop\n        /* \"Inbox.sol\":8443:8812  for (uint i = 0; i < Investors.length; i++) {... */\n      jump(tag_224)\n    tag_225:\n      pop\n        /* \"Inbox.sol\":8839:8860  address(this).balance */\n      selfbalance\n        /* \"Inbox.sol\":8822:8836  managerFineFee */\n      0x15\n        /* \"Inbox.sol\":8822:8860  managerFineFee = address(this).balance */\n      dup2\n      swap1\n      sstore\n      pop\n        /* \"Inbox.sol\":8879:8886  manager */\n      0x04\n      0x00\n      swap1\n      sload\n      swap1\n      0x0100\n      exp\n      swap1\n      div\n      0xffffffffffffffffffffffffffffffffffffffff\n      and\n        /* \"Inbox.sol\":8871:8896  payable(manager).transfer */\n      0xffffffffffffffffffffffffffffffffffffffff\n      and\n        /* \"Inbox.sol\":8871:8912  payable(manager).transfer(managerFineFee) */\n      0x08fc\n        /* \"Inbox.sol\":8897:8911  managerFineFee */\n      sload(0x15)\n        /* \"Inbox.sol\":8871:8912  payable(manager).transfer(managerFineFee) */\n      swap1\n      dup2\n      iszero\n      mul\n      swap1\n      mload(0x40)\n      0x00\n      mload(0x40)\n      dup1\n      dup4\n      sub\n      dup2\n      dup6\n      dup9\n      dup9\n      call\n      swap4\n      pop\n      pop\n      pop\n      pop\n      iszero\n      dup1\n      iszero\n      tag_237\n      jumpi\n      returndatasize\n      0x00\n      dup1\n      returndatacopy\n      revert(0x00, returndatasize)\n    tag_237:\n      pop\n        /* \"Inbox.sol\":8326:8968  function payDay() public EndPeriod onlySite {... */\n      jump\t// out\n        /* \"Inbox.sol\":7970:8318  function PayDayVoted() public workPeriod onlyStakeholders {... */\n    tag_103:\n        /* \"Inbox.sol\":666:670  true */\n      0x01\n        /* \"Inbox.sol\":656:670  canBuy == true */\n      iszero\n      iszero\n        /* \"Inbox.sol\":656:662  canBuy */\n      0x11\n      0x00\n      swap1\n      sload\n      swap1\n      0x0100\n      exp\n      swap1\n      div\n      0xff\n      and\n        /* \"Inbox.sol\":656:670  canBuy == true */\n      iszero\n      iszero\n      eq\n        /* \"Inbox.sol\":647:672  require((canBuy == true)) */\n      tag_239\n      jumpi\n      0x00\n      dup1\n      revert\n    tag_239:\n        /* \"Inbox.sol\":226:238  Stakeholders */\n      0x06\n        /* \"Inbox.sol\":226:250  Stakeholders[msg.sender] */\n      0x00\n        /* \"Inbox.sol\":239:249  msg.sender */\n      caller\n        /* \"Inbox.sol\":226:250  Stakeholders[msg.sender] */\n      0xffffffffffffffffffffffffffffffffffffffff\n      and\n      0xffffffffffffffffffffffffffffffffffffffff\n      and\n      dup2\n      mstore\n      0x20\n      add\n      swap1\n      dup2\n      mstore\n      0x20\n      add\n      0x00\n      keccak256\n      0x00\n      swap1\n      sload\n      swap1\n      0x0100\n      exp\n      swap1\n      div\n      0xff\n      and\n        /* \"Inbox.sol\":218:251  require(Stakeholders[msg.sender]) */\n      tag_241\n      jumpi\n      0x00\n      dup1\n      revert\n    tag_241:\n        /* \"Inbox.sol\":8086:8091  false */\n      0x00\n        /* \"Inbox.sol\":8043:8091  Stakeholders_endTheContract[msg.sender] == false */\n      iszero\n      iszero\n        /* \"Inbox.sol\":8043:8070  Stakeholders_endTheContract */\n      0x07\n        /* \"Inbox.sol\":8043:8082  Stakeholders_endTheContract[msg.sender] */\n      0x00\n        /* \"Inbox.sol\":8071:8081  msg.sender */\n      caller\n        /* \"Inbox.sol\":8043:8082  Stakeholders_endTheContract[msg.sender] */\n      0xffffffffffffffffffffffffffffffffffffffff\n      and\n      0xffffffffffffffffffffffffffffffffffffffff\n      and\n      dup2\n      mstore\n      0x20\n      add\n      swap1\n      dup2\n      mstore\n      0x20\n      add\n      0x00\n      keccak256\n      0x00\n      swap1\n      sload\n      swap1\n      0x0100\n      exp\n      swap1\n      div\n      0xff\n      and\n        /* \"Inbox.sol\":8043:8091  Stakeholders_endTheContract[msg.sender] == false */\n      iszero\n      iszero\n      sub\n        /* \"Inbox.sol\":8039:8207  if (Stakeholders_endTheContract[msg.sender] == false) {... */\n      tag_243\n      jumpi\n        /* \"Inbox.sol\":8150:8154  true */\n      0x01\n        /* \"Inbox.sol\":8108:8135  Stakeholders_endTheContract */\n      0x07\n        /* \"Inbox.sol\":8108:8147  Stakeholders_endTheContract[msg.sender] */\n      0x00\n        /* \"Inbox.sol\":8136:8146  msg.sender */\n      caller\n        /* \"Inbox.sol\":8108:8147  Stakeholders_endTheContract[msg.sender] */\n      0xffffffffffffffffffffffffffffffffffffffff\n      and\n      0xffffffffffffffffffffffffffffffffffffffff\n      and\n      dup2\n      mstore\n      0x20\n      add\n      swap1\n      dup2\n      mstore\n      0x20\n      add\n      0x00\n      keccak256\n      0x00\n        /* \"Inbox.sol\":8108:8154  Stakeholders_endTheContract[msg.sender] = true */\n      0x0100\n      exp\n      dup2\n      sload\n      dup2\n      0xff\n      mul\n      not\n      and\n      swap1\n      dup4\n      iszero\n      iszero\n      mul\n      or\n      swap1\n      sstore\n      pop\n        /* \"Inbox.sol\":8169:8193  endTheContract_numOfVote */\n      0x08\n      0x00\n        /* \"Inbox.sol\":8169:8195  endTheContract_numOfVote++ */\n      dup2\n      sload\n      dup1\n      swap3\n      swap2\n      swap1\n      tag_244\n      swap1\n      tag_213\n      jump\t// in\n    tag_244:\n      swap2\n      swap1\n      pop\n      sstore\n      pop\n        /* \"Inbox.sol\":8039:8207  if (Stakeholders_endTheContract[msg.sender] == false) {... */\n    tag_243:\n        /* \"Inbox.sol\":8267:8268  2 */\n      0x02\n        /* \"Inbox.sol\":8249:8264  numStakeholders */\n      sload(0x03)\n        /* \"Inbox.sol\":8249:8268  numStakeholders / 2 */\n      tag_245\n      swap2\n      swap1\n      tag_190\n      jump\t// in\n    tag_245:\n        /* \"Inbox.sol\":8221:8245  endTheContract_numOfVote */\n      sload(0x08)\n        /* \"Inbox.sol\":8221:8268  endTheContract_numOfVote >= numStakeholders / 2 */\n      lt\n        /* \"Inbox.sol\":8217:8311  if (endTheContract_numOfVote >= numStakeholders / 2) {... */\n      tag_246\n      jumpi\n        /* \"Inbox.sol\":8294:8299  false */\n      0x00\n        /* \"Inbox.sol\":8285:8291  canBuy */\n      0x11\n      0x00\n        /* \"Inbox.sol\":8285:8299  canBuy = false */\n      0x0100\n      exp\n      dup2\n      sload\n      dup2\n      0xff\n      mul\n      not\n      and\n      swap1\n      dup4\n      iszero\n      iszero\n      mul\n      or\n      swap1\n      sstore\n      pop\n        /* \"Inbox.sol\":8217:8311  if (endTheContract_numOfVote >= numStakeholders / 2) {... */\n    tag_246:\n        /* \"Inbox.sol\":7970:8318  function PayDayVoted() public workPeriod onlyStakeholders {... */\n      jump\t// out\n        /* \"Inbox.sol\":1971:1995  uint public lastTotalVal */\n    tag_106:\n      sload(0x14)\n      dup2\n      jump\t// out\n        /* \"Inbox.sol\":1666:1697  uint public minimumContribution */\n    tag_110:\n      sload(0x0d)\n      dup2\n      jump\t// out\n        /* \"Inbox.sol\":3298:3378  function getMoney() public payable returns (bool) {... */\n    tag_113:\n        /* \"Inbox.sol\":3342:3346  bool */\n      0x00\n        /* \"Inbox.sol\":3366:3370  true */\n      0x01\n        /* \"Inbox.sol\":3359:3370  return true */\n      swap1\n      pop\n        /* \"Inbox.sol\":3298:3378  function getMoney() public payable returns (bool) {... */\n      swap1\n      jump\t// out\n        /* \"Inbox.sol\":1621:1659  mapping(address => bool) public lefted */\n    tag_118:\n      mstore(0x20, 0x0c)\n      dup1\n      0x00\n      mstore\n      keccak256(0x00, 0x40)\n      0x00\n      swap2\n      pop\n      sload\n      swap1\n      0x0100\n      exp\n      swap1\n      div\n      0xff\n      and\n      dup2\n      jump\t// out\n        /* \"Inbox.sol\":2035:2058  uint public the_balance */\n    tag_122:\n      sload(0x16)\n      dup2\n      jump\t// out\n        /* \"Inbox.sol\":2098:2415  function allInvestorPercent() public view returns (uint) {... */\n    tag_126:\n        /* \"Inbox.sol\":2149:2153  uint */\n      0x00\n        /* \"Inbox.sol\":2166:2174  uint sum */\n      dup1\n        /* \"Inbox.sol\":2190:2196  uint i */\n      0x00\n        /* \"Inbox.sol\":2185:2387  for (uint i = 0; i < Investors.length; i++) {... */\n    tag_249:\n        /* \"Inbox.sol\":2206:2215  Investors */\n      0x09\n        /* \"Inbox.sol\":2206:2222  Investors.length */\n      dup1\n      sload\n      swap1\n      pop\n        /* \"Inbox.sol\":2202:2203  i */\n      dup2\n        /* \"Inbox.sol\":2202:2222  i < Investors.length */\n      lt\n        /* \"Inbox.sol\":2185:2387  for (uint i = 0; i < Investors.length; i++) {... */\n      iszero\n      tag_250\n      jumpi\n        /* \"Inbox.sol\":2244:2256  address user */\n      0x00\n        /* \"Inbox.sol\":2259:2268  Investors */\n      0x09\n        /* \"Inbox.sol\":2269:2270  i */\n      dup3\n        /* \"Inbox.sol\":2259:2271  Investors[i] */\n      dup2\n      sload\n      dup2\n      lt\n      tag_252\n      jumpi\n      tag_253\n      tag_175\n      jump\t// in\n    tag_253:\n    tag_252:\n      swap1\n      0x00\n      mstore\n      keccak256(0x00, 0x20)\n      add\n      0x00\n      swap1\n      sload\n      swap1\n      0x0100\n      exp\n      swap1\n      div\n      0xffffffffffffffffffffffffffffffffffffffff\n      and\n        /* \"Inbox.sol\":2244:2271  address user = Investors[i] */\n      swap1\n      pop\n        /* \"Inbox.sol\":2306:2311  false */\n      0x00\n        /* \"Inbox.sol\":2290:2311  lefted[user] == false */\n      iszero\n      iszero\n        /* \"Inbox.sol\":2290:2296  lefted */\n      0x0c\n        /* \"Inbox.sol\":2290:2302  lefted[user] */\n      0x00\n        /* \"Inbox.sol\":2297:2301  user */\n      dup4\n        /* \"Inbox.sol\":2290:2302  lefted[user] */\n      0xffffffffffffffffffffffffffffffffffffffff\n      and\n      0xffffffffffffffffffffffffffffffffffffffff\n      and\n      dup2\n      mstore\n      0x20\n      add\n      swap1\n      dup2\n      mstore\n      0x20\n      add\n      0x00\n      keccak256\n      0x00\n      swap1\n      sload\n      swap1\n      0x0100\n      exp\n      swap1\n      div\n      0xff\n      and\n        /* \"Inbox.sol\":2290:2311  lefted[user] == false */\n      iszero\n      iszero\n      sub\n        /* \"Inbox.sol\":2286:2376  if (lefted[user] == false) {... */\n      tag_255\n      jumpi\n        /* \"Inbox.sol\":2344:2354  ownPercent */\n      0x0b\n        /* \"Inbox.sol\":2344:2360  ownPercent[user] */\n      0x00\n        /* \"Inbox.sol\":2355:2359  user */\n      dup3\n        /* \"Inbox.sol\":2344:2360  ownPercent[user] */\n      0xffffffffffffffffffffffffffffffffffffffff\n      and\n      0xffffffffffffffffffffffffffffffffffffffff\n      and\n      dup2\n      mstore\n      0x20\n      add\n      swap1\n      dup2\n      mstore\n      0x20\n      add\n      0x00\n      keccak256\n      sload\n        /* \"Inbox.sol\":2338:2341  sum */\n      dup4\n        /* \"Inbox.sol\":2338:2360  sum + ownPercent[user] */\n      tag_256\n      swap2\n      swap1\n      tag_257\n      jump\t// in\n    tag_256:\n        /* \"Inbox.sol\":2332:2360  sum = sum + ownPercent[user] */\n      swap3\n      pop\n        /* \"Inbox.sol\":2286:2376  if (lefted[user] == false) {... */\n    tag_255:\n        /* \"Inbox.sol\":2229:2387  {... */\n      pop\n        /* \"Inbox.sol\":2224:2227  i++ */\n      dup1\n      dup1\n      tag_258\n      swap1\n      tag_213\n      jump\t// in\n    tag_258:\n      swap2\n      pop\n      pop\n        /* \"Inbox.sol\":2185:2387  for (uint i = 0; i < Investors.length; i++) {... */\n      jump(tag_249)\n    tag_250:\n      pop\n        /* \"Inbox.sol\":2404:2407  sum */\n      dup1\n        /* \"Inbox.sol\":2397:2407  return sum */\n      swap2\n      pop\n      pop\n        /* \"Inbox.sol\":2098:2415  function allInvestorPercent() public view returns (uint) {... */\n      swap1\n      jump\t// out\n        /* \"Inbox.sol\":6618:7563  function leave_contract(... */\n    tag_132:\n        /* \"Inbox.sol\":6786:6790  bool */\n      0x00\n        /* \"Inbox.sol\":666:670  true */\n      0x01\n        /* \"Inbox.sol\":656:670  canBuy == true */\n      iszero\n      iszero\n        /* \"Inbox.sol\":656:662  canBuy */\n      0x11\n      0x00\n      swap1\n      sload\n      swap1\n      0x0100\n      exp\n      swap1\n      div\n      0xff\n      and\n        /* \"Inbox.sol\":656:670  canBuy == true */\n      iszero\n      iszero\n      eq\n        /* \"Inbox.sol\":647:672  require((canBuy == true)) */\n      tag_260\n      jumpi\n      0x00\n      dup1\n      revert\n    tag_260:\n        /* \"Inbox.sol\":332:336  site */\n      0x05\n      0x00\n      swap1\n      sload\n      swap1\n      0x0100\n      exp\n      swap1\n      div\n      0xffffffffffffffffffffffffffffffffffffffff\n      and\n        /* \"Inbox.sol\":318:336  msg.sender == site */\n      0xffffffffffffffffffffffffffffffffffffffff\n      and\n        /* \"Inbox.sol\":318:328  msg.sender */\n      caller\n        /* \"Inbox.sol\":318:336  msg.sender == site */\n      0xffffffffffffffffffffffffffffffffffffffff\n      and\n      eq\n        /* \"Inbox.sol\":310:337  require(msg.sender == site) */\n      tag_262\n      jumpi\n      0x00\n      dup1\n      revert\n    tag_262:\n        /* \"Inbox.sol\":6839:6844  false */\n      0x00\n        /* \"Inbox.sol\":6811:6844  Stakeholders[msg.sender] == false */\n      iszero\n      iszero\n        /* \"Inbox.sol\":6811:6823  Stakeholders */\n      0x06\n        /* \"Inbox.sol\":6811:6835  Stakeholders[msg.sender] */\n      0x00\n        /* \"Inbox.sol\":6824:6834  msg.sender */\n      caller\n        /* \"Inbox.sol\":6811:6835  Stakeholders[msg.sender] */\n      0xffffffffffffffffffffffffffffffffffffffff\n      and\n      0xffffffffffffffffffffffffffffffffffffffff\n      and\n      dup2\n      mstore\n      0x20\n      add\n      swap1\n      dup2\n      mstore\n      0x20\n      add\n      0x00\n      keccak256\n      0x00\n      swap1\n      sload\n      swap1\n      0x0100\n      exp\n      swap1\n      div\n      0xff\n      and\n        /* \"Inbox.sol\":6811:6844  Stakeholders[msg.sender] == false */\n      iszero\n      iszero\n      eq\n        /* \"Inbox.sol\":6803:6845  require(Stakeholders[msg.sender] == false) */\n      tag_264\n      jumpi\n      0x00\n      dup1\n      revert\n    tag_264:\n        /* \"Inbox.sol\":7006:7020  uint myPercent */\n      0x00\n        /* \"Inbox.sol\":7023:7033  ownPercent */\n      0x0b\n        /* \"Inbox.sol\":7023:7048  ownPercent[leave_address] */\n      0x00\n        /* \"Inbox.sol\":7034:7047  leave_address */\n      dup6\n        /* \"Inbox.sol\":7023:7048  ownPercent[leave_address] */\n      0xffffffffffffffffffffffffffffffffffffffff\n      and\n      0xffffffffffffffffffffffffffffffffffffffff\n      and\n      dup2\n      mstore\n      0x20\n      add\n      swap1\n      dup2\n      mstore\n      0x20\n      add\n      0x00\n      keccak256\n      sload\n        /* \"Inbox.sol\":7006:7048  uint myPercent = ownPercent[leave_address] */\n      swap1\n      pop\n        /* \"Inbox.sol\":7059:7074  uint totalValue */\n      0x00\n        /* \"Inbox.sol\":7085:7101  investorBalanc() */\n      tag_265\n        /* \"Inbox.sol\":7085:7099  investorBalanc */\n      tag_59\n        /* \"Inbox.sol\":7085:7101  investorBalanc() */\n      jump\t// in\n    tag_265:\n        /* \"Inbox.sol\":7077:7082  yield */\n      dup5\n        /* \"Inbox.sol\":7077:7101  yield + investorBalanc() */\n      tag_266\n      swap2\n      swap1\n      tag_257\n      jump\t// in\n    tag_266:\n        /* \"Inbox.sol\":7059:7101  uint totalValue = yield + investorBalanc() */\n      swap1\n      pop\n        /* \"Inbox.sol\":7112:7122  uint value */\n      0x00\n        /* \"Inbox.sol\":7174:7178  1000 */\n      0x03e8\n        /* \"Inbox.sol\":7163:7170  penelty */\n      sload(0x00)\n        /* \"Inbox.sol\":7155:7159  1000 */\n      0x03e8\n        /* \"Inbox.sol\":7142:7151  myPercent */\n      dup6\n        /* \"Inbox.sol\":7129:7139  totalValue */\n      dup6\n        /* \"Inbox.sol\":7129:7151  totalValue * myPercent */\n      tag_267\n      swap2\n      swap1\n      tag_188\n      jump\t// in\n    tag_267:\n        /* \"Inbox.sol\":7128:7159  (totalValue * myPercent) / 1000 */\n      tag_268\n      swap2\n      swap1\n      tag_190\n      jump\t// in\n    tag_268:\n        /* \"Inbox.sol\":7127:7170  ((totalValue * myPercent) / 1000) * penelty */\n      tag_269\n      swap2\n      swap1\n      tag_188\n      jump\t// in\n    tag_269:\n        /* \"Inbox.sol\":7126:7178  (((totalValue * myPercent) / 1000) * penelty) / 1000 */\n      tag_270\n      swap2\n      swap1\n      tag_190\n      jump\t// in\n    tag_270:\n        /* \"Inbox.sol\":7112:7179  uint value = ((((totalValue * myPercent) / 1000) * penelty) / 1000) */\n      swap1\n      pop\n        /* \"Inbox.sol\":7205:7210  value */\n      dup1\n        /* \"Inbox.sol\":7190:7202  lastTotalVal */\n      0x14\n        /* \"Inbox.sol\":7190:7210  lastTotalVal = value */\n      dup2\n      swap1\n      sstore\n      pop\n        /* \"Inbox.sol\":7234:7255  address(this).balance */\n      selfbalance\n        /* \"Inbox.sol\":7225:7230  value */\n      dup2\n        /* \"Inbox.sol\":7225:7255  value <= address(this).balance */\n      gt\n        /* \"Inbox.sol\":7221:7556  if (value <= address(this).balance) {... */\n      tag_271\n      jumpi\n        /* \"Inbox.sol\":7285:7297  lastTotalVal */\n      sload(0x14)\n        /* \"Inbox.sol\":7272:7284  lastLeaveVal */\n      0x17\n        /* \"Inbox.sol\":7272:7297  lastLeaveVal=lastTotalVal */\n      dup2\n      swap1\n      sstore\n      pop\n        /* \"Inbox.sol\":7332:7345  leave_address */\n      dup6\n        /* \"Inbox.sol\":7324:7355  payable(leave_address).transfer */\n      0xffffffffffffffffffffffffffffffffffffffff\n      and\n        /* \"Inbox.sol\":7324:7362  payable(leave_address).transfer(value) */\n      0x08fc\n        /* \"Inbox.sol\":7356:7361  value */\n      dup3\n        /* \"Inbox.sol\":7324:7362  payable(leave_address).transfer(value) */\n      swap1\n      dup2\n      iszero\n      mul\n      swap1\n      mload(0x40)\n      0x00\n      mload(0x40)\n      dup1\n      dup4\n      sub\n      dup2\n      dup6\n      dup9\n      dup9\n      call\n      swap4\n      pop\n      pop\n      pop\n      pop\n      iszero\n      dup1\n      iszero\n      tag_273\n      jumpi\n      returndatasize\n      0x00\n      dup1\n      returndatacopy\n      revert(0x00, returndatasize)\n    tag_273:\n      pop\n        /* \"Inbox.sol\":7401:7405  true */\n      0x01\n        /* \"Inbox.sol\":7377:7383  lefted */\n      0x0c\n        /* \"Inbox.sol\":7377:7398  lefted[leave_address] */\n      0x00\n        /* \"Inbox.sol\":7384:7397  leave_address */\n      dup9\n        /* \"Inbox.sol\":7377:7398  lefted[leave_address] */\n      0xffffffffffffffffffffffffffffffffffffffff\n      and\n      0xffffffffffffffffffffffffffffffffffffffff\n      and\n      dup2\n      mstore\n      0x20\n      add\n      swap1\n      dup2\n      mstore\n      0x20\n      add\n      0x00\n      keccak256\n      0x00\n        /* \"Inbox.sol\":7377:7405  lefted[leave_address] = true */\n      0x0100\n      exp\n      dup2\n      sload\n      dup2\n      0xff\n      mul\n      not\n      and\n      swap1\n      dup4\n      iszero\n      iszero\n      mul\n      or\n      swap1\n      sstore\n      pop\n        /* \"Inbox.sol\":7432:7437  value */\n      dup1\n        /* \"Inbox.sol\":7420:7429  lastRePay */\n      0x13\n        /* \"Inbox.sol\":7420:7437  lastRePay = value */\n      dup2\n      swap1\n      sstore\n      pop\n        /* \"Inbox.sol\":7452:7473  fixPercent(myPercent) */\n      tag_274\n        /* \"Inbox.sol\":7463:7472  myPercent */\n      dup4\n        /* \"Inbox.sol\":7452:7462  fixPercent */\n      tag_275\n        /* \"Inbox.sol\":7452:7473  fixPercent(myPercent) */\n      jump\t// in\n    tag_274:\n        /* \"Inbox.sol\":7495:7499  true */\n      0x01\n        /* \"Inbox.sol\":7488:7499  return true */\n      swap4\n      pop\n      pop\n      pop\n      pop\n      jump(tag_263)\n        /* \"Inbox.sol\":7221:7556  if (value <= address(this).balance) {... */\n    tag_271:\n        /* \"Inbox.sol\":7539:7544  false */\n      0x00\n        /* \"Inbox.sol\":7532:7544  return false */\n      swap4\n      pop\n      pop\n      pop\n      pop\n        /* \"Inbox.sol\":348:349  _ */\n    tag_263:\n        /* \"Inbox.sol\":6618:7563  function leave_contract(... */\n      swap3\n      swap2\n      pop\n      pop\n      jump\t// out\n        /* \"Inbox.sol\":2997:3290  function join() public payable JoinPeriod {... */\n    tag_135:\n        /* \"Inbox.sol\":416:421  false */\n      0x00\n        /* \"Inbox.sol\":406:421  canBuy == false */\n      iszero\n      iszero\n        /* \"Inbox.sol\":406:412  canBuy */\n      0x11\n      0x00\n      swap1\n      sload\n      swap1\n      0x0100\n      exp\n      swap1\n      div\n      0xff\n      and\n        /* \"Inbox.sol\":406:421  canBuy == false */\n      iszero\n      iszero\n      eq\n        /* \"Inbox.sol\":398:422  require(canBuy == false) */\n      tag_278\n      jumpi\n      0x00\n      dup1\n      revert\n    tag_278:\n        /* \"Inbox.sol\":3050:3063  uint myInvest */\n      0x00\n        /* \"Inbox.sol\":3066:3076  Investment */\n      0x0a\n        /* \"Inbox.sol\":3066:3088  Investment[msg.sender] */\n      0x00\n        /* \"Inbox.sol\":3077:3087  msg.sender */\n      caller\n        /* \"Inbox.sol\":3066:3088  Investment[msg.sender] */\n      0xffffffffffffffffffffffffffffffffffffffff\n      and\n      0xffffffffffffffffffffffffffffffffffffffff\n      and\n      dup2\n      mstore\n      0x20\n      add\n      swap1\n      dup2\n      mstore\n      0x20\n      add\n      0x00\n      keccak256\n      sload\n        /* \"Inbox.sol\":3050:3088  uint myInvest = Investment[msg.sender] */\n      swap1\n      pop\n        /* \"Inbox.sol\":3115:3116  0 */\n      0x00\n        /* \"Inbox.sol\":3103:3111  myInvest */\n      dup2\n        /* \"Inbox.sol\":3103:3116  myInvest == 0 */\n      sub\n        /* \"Inbox.sol\":3099:3227  if (myInvest == 0) {... */\n      tag_280\n      jumpi\n        /* \"Inbox.sol\":3154:3173  minimumContribution */\n      sload(0x0d)\n        /* \"Inbox.sol\":3141:3150  msg.value */\n      callvalue\n        /* \"Inbox.sol\":3141:3173  msg.value >= minimumContribution */\n      lt\n      iszero\n        /* \"Inbox.sol\":3133:3174  require(msg.value >= minimumContribution) */\n      tag_281\n      jumpi\n      0x00\n      dup1\n      revert\n    tag_281:\n        /* \"Inbox.sol\":3189:3198  Investors */\n      0x09\n        /* \"Inbox.sol\":3204:3214  msg.sender */\n      caller\n        /* \"Inbox.sol\":3189:3215  Investors.push(msg.sender) */\n      swap1\n      dup1\n      0x01\n      dup2\n      sload\n      add\n      dup1\n      dup3\n      sstore\n      dup1\n      swap2\n      pop\n      pop\n      0x01\n      swap1\n      sub\n      swap1\n      0x00\n      mstore\n      keccak256(0x00, 0x20)\n      add\n      0x00\n      swap1\n      swap2\n      swap1\n      swap2\n      swap1\n      swap2\n      0x0100\n      exp\n      dup2\n      sload\n      dup2\n      0xffffffffffffffffffffffffffffffffffffffff\n      mul\n      not\n      and\n      swap1\n      dup4\n      0xffffffffffffffffffffffffffffffffffffffff\n      and\n      mul\n      or\n      swap1\n      sstore\n      pop\n        /* \"Inbox.sol\":3099:3227  if (myInvest == 0) {... */\n    tag_280:\n        /* \"Inbox.sol\":3273:3282  msg.value */\n      callvalue\n        /* \"Inbox.sol\":3262:3270  myInvest */\n      dup2\n        /* \"Inbox.sol\":3262:3282  myInvest + msg.value */\n      tag_283\n      swap2\n      swap1\n      tag_257\n      jump\t// in\n    tag_283:\n        /* \"Inbox.sol\":3237:3247  Investment */\n      0x0a\n        /* \"Inbox.sol\":3237:3259  Investment[msg.sender] */\n      0x00\n        /* \"Inbox.sol\":3248:3258  msg.sender */\n      caller\n        /* \"Inbox.sol\":3237:3259  Investment[msg.sender] */\n      0xffffffffffffffffffffffffffffffffffffffff\n      and\n      0xffffffffffffffffffffffffffffffffffffffff\n      and\n      dup2\n      mstore\n      0x20\n      add\n      swap1\n      dup2\n      mstore\n      0x20\n      add\n      0x00\n      keccak256\n        /* \"Inbox.sol\":3237:3282  Investment[msg.sender] = myInvest + msg.value */\n      dup2\n      swap1\n      sstore\n      pop\n        /* \"Inbox.sol\":3039:3290  {... */\n      pop\n        /* \"Inbox.sol\":2997:3290  function join() public payable JoinPeriod {... */\n      jump\t// out\n        /* \"Inbox.sol\":1494:1536  mapping(address => uint) public Investment */\n    tag_139:\n      mstore(0x20, 0x0a)\n      dup1\n      0x00\n      mstore\n      keccak256(0x00, 0x40)\n      0x00\n      swap2\n      pop\n      swap1\n      pop\n      sload\n      dup2\n      jump\t// out\n        /* \"Inbox.sol\":5947:6239  function approveRequest(uint index) public onlyStakeholders {... */\n    tag_144:\n        /* \"Inbox.sol\":226:238  Stakeholders */\n      0x06\n        /* \"Inbox.sol\":226:250  Stakeholders[msg.sender] */\n      0x00\n        /* \"Inbox.sol\":239:249  msg.sender */\n      caller\n        /* \"Inbox.sol\":226:250  Stakeholders[msg.sender] */\n      0xffffffffffffffffffffffffffffffffffffffff\n      and\n      0xffffffffffffffffffffffffffffffffffffffff\n      and\n      dup2\n      mstore\n      0x20\n      add\n      swap1\n      dup2\n      mstore\n      0x20\n      add\n      0x00\n      keccak256\n      0x00\n      swap1\n      sload\n      swap1\n      0x0100\n      exp\n      swap1\n      div\n      0xff\n      and\n        /* \"Inbox.sol\":218:251  require(Stakeholders[msg.sender]) */\n      tag_285\n      jumpi\n      0x00\n      dup1\n      revert\n    tag_285:\n        /* \"Inbox.sol\":6058:6081  Request storage request */\n      0x00\n        /* \"Inbox.sol\":6084:6093  myRequsts */\n      0x12\n        /* \"Inbox.sol\":6094:6099  index */\n      dup3\n        /* \"Inbox.sol\":6084:6100  myRequsts[index] */\n      dup2\n      sload\n      dup2\n      lt\n      tag_287\n      jumpi\n      tag_288\n      tag_175\n      jump\t// in\n    tag_288:\n    tag_287:\n      swap1\n      0x00\n      mstore\n      keccak256(0x00, 0x20)\n      swap1\n      0x06\n      mul\n      add\n        /* \"Inbox.sol\":6058:6100  Request storage request = myRequsts[index] */\n      swap1\n      pop\n        /* \"Inbox.sol\":6120:6127  request */\n      dup1\n        /* \"Inbox.sol\":6120:6137  request.approvals */\n      0x05\n      add\n        /* \"Inbox.sol\":6120:6149  request.approvals[msg.sender] */\n      0x00\n        /* \"Inbox.sol\":6138:6148  msg.sender */\n      caller\n        /* \"Inbox.sol\":6120:6149  request.approvals[msg.sender] */\n      0xffffffffffffffffffffffffffffffffffffffff\n      and\n      0xffffffffffffffffffffffffffffffffffffffff\n      and\n      dup2\n      mstore\n      0x20\n      add\n      swap1\n      dup2\n      mstore\n      0x20\n      add\n      0x00\n      keccak256\n      0x00\n      swap1\n      sload\n      swap1\n      0x0100\n      exp\n      swap1\n      div\n      0xff\n      and\n        /* \"Inbox.sol\":6119:6149  !request.approvals[msg.sender] */\n      iszero\n        /* \"Inbox.sol\":6111:6150  require(!request.approvals[msg.sender]) */\n      tag_290\n      jumpi\n      0x00\n      dup1\n      revert\n    tag_290:\n        /* \"Inbox.sol\":6193:6197  true */\n      0x01\n        /* \"Inbox.sol\":6161:6168  request */\n      dup2\n        /* \"Inbox.sol\":6161:6178  request.approvals */\n      0x05\n      add\n        /* \"Inbox.sol\":6161:6190  request.approvals[msg.sender] */\n      0x00\n        /* \"Inbox.sol\":6179:6189  msg.sender */\n      caller\n        /* \"Inbox.sol\":6161:6190  request.approvals[msg.sender] */\n      0xffffffffffffffffffffffffffffffffffffffff\n      and\n      0xffffffffffffffffffffffffffffffffffffffff\n      and\n      dup2\n      mstore\n      0x20\n      add\n      swap1\n      dup2\n      mstore\n      0x20\n      add\n      0x00\n      keccak256\n      0x00\n        /* \"Inbox.sol\":6161:6197  request.approvals[msg.sender] = true */\n      0x0100\n      exp\n      dup2\n      sload\n      dup2\n      0xff\n      mul\n      not\n      and\n      swap1\n      dup4\n      iszero\n      iszero\n      mul\n      or\n      swap1\n      sstore\n      pop\n        /* \"Inbox.sol\":6208:6215  request */\n      dup1\n        /* \"Inbox.sol\":6208:6229  request.approvalCount */\n      0x04\n      add\n      0x00\n        /* \"Inbox.sol\":6208:6231  request.approvalCount++ */\n      dup2\n      sload\n      dup1\n      swap3\n      swap2\n      swap1\n      tag_291\n      swap1\n      tag_213\n      jump\t// in\n    tag_291:\n      swap2\n      swap1\n      pop\n      sstore\n      pop\n        /* \"Inbox.sol\":6007:6239  {... */\n      pop\n        /* \"Inbox.sol\":5947:6239  function approveRequest(uint index) public onlyStakeholders {... */\n      pop\n      jump\t// out\n        /* \"Inbox.sol\":1943:1964  uint public lastRePay */\n    tag_147:\n      sload(0x13)\n      dup2\n      jump\t// out\n        /* \"Inbox.sol\":1278:1297  address public site */\n    tag_151:\n      0x05\n      0x00\n      swap1\n      sload\n      swap1\n      0x0100\n      exp\n      swap1\n      div\n      0xffffffffffffffffffffffffffffffffffffffff\n      and\n      dup2\n      jump\t// out\n        /* \"Inbox.sol\":1891:1917  Request[] public myRequsts */\n    tag_156:\n      0x12\n      dup2\n      dup2\n      sload\n      dup2\n      lt\n      tag_292\n      jumpi\n      0x00\n      dup1\n      revert\n    tag_292:\n      swap1\n      0x00\n      mstore\n      keccak256(0x00, 0x20)\n      swap1\n      0x06\n      mul\n      add\n      0x00\n      swap2\n      pop\n      swap1\n      pop\n      dup1\n      0x00\n      add\n      dup1\n      sload\n      tag_294\n      swap1\n      tag_295\n      jump\t// in\n    tag_294:\n      dup1\n      0x1f\n      add\n      0x20\n      dup1\n      swap2\n      div\n      mul\n      0x20\n      add\n      mload(0x40)\n      swap1\n      dup2\n      add\n      0x40\n      mstore\n      dup1\n      swap3\n      swap2\n      swap1\n      dup2\n      dup2\n      mstore\n      0x20\n      add\n      dup3\n      dup1\n      sload\n      tag_296\n      swap1\n      tag_295\n      jump\t// in\n    tag_296:\n      dup1\n      iszero\n      tag_297\n      jumpi\n      dup1\n      0x1f\n      lt\n      tag_298\n      jumpi\n      0x0100\n      dup1\n      dup4\n      sload\n      div\n      mul\n      dup4\n      mstore\n      swap2\n      0x20\n      add\n      swap2\n      jump(tag_297)\n    tag_298:\n      dup3\n      add\n      swap2\n      swap1\n      0x00\n      mstore\n      keccak256(0x00, 0x20)\n      swap1\n    tag_299:\n      dup2\n      sload\n      dup2\n      mstore\n      swap1\n      0x01\n      add\n      swap1\n      0x20\n      add\n      dup1\n      dup4\n      gt\n      tag_299\n      jumpi\n      dup3\n      swap1\n      sub\n      0x1f\n      and\n      dup3\n      add\n      swap2\n    tag_297:\n      pop\n      pop\n      pop\n      pop\n      pop\n      swap1\n      dup1\n      0x01\n      add\n      dup1\n      sload\n      tag_300\n      swap1\n      tag_295\n      jump\t// in\n    tag_300:\n      dup1\n      0x1f\n      add\n      0x20\n      dup1\n      swap2\n      div\n      mul\n      0x20\n      add\n      mload(0x40)\n      swap1\n      dup2\n      add\n      0x40\n      mstore\n      dup1\n      swap3\n      swap2\n      swap1\n      dup2\n      dup2\n      mstore\n      0x20\n      add\n      dup3\n      dup1\n      sload\n      tag_301\n      swap1\n      tag_295\n      jump\t// in\n    tag_301:\n      dup1\n      iszero\n      tag_302\n      jumpi\n      dup1\n      0x1f\n      lt\n      tag_303\n      jumpi\n      0x0100\n      dup1\n      dup4\n      sload\n      div\n      mul\n      dup4\n      mstore\n      swap2\n      0x20\n      add\n      swap2\n      jump(tag_302)\n    tag_303:\n      dup3\n      add\n      swap2\n      swap1\n      0x00\n      mstore\n      keccak256(0x00, 0x20)\n      swap1\n    tag_304:\n      dup2\n      sload\n      dup2\n      mstore\n      swap1\n      0x01\n      add\n      swap1\n      0x20\n      add\n      dup1\n      dup4\n      gt\n      tag_304\n      jumpi\n      dup3\n      swap1\n      sub\n      0x1f\n      and\n      dup3\n      add\n      swap2\n    tag_302:\n      pop\n      pop\n      pop\n      pop\n      pop\n      swap1\n      dup1\n      0x02\n      add\n      sload\n      swap1\n      dup1\n      0x03\n      add\n      0x00\n      swap1\n      sload\n      swap1\n      0x0100\n      exp\n      swap1\n      div\n      0xff\n      and\n      swap1\n      dup1\n      0x04\n      add\n      sload\n      swap1\n      pop\n      dup6\n      jump\t// out\n        /* \"Inbox.sol\":1461:1487  address[] public Investors */\n    tag_162:\n      0x09\n      dup2\n      dup2\n      sload\n      dup2\n      lt\n      tag_305\n      jumpi\n      0x00\n      dup1\n      revert\n    tag_305:\n      swap1\n      0x00\n      mstore\n      keccak256(0x00, 0x20)\n      add\n      0x00\n      swap2\n      pop\n      sload\n      swap1\n      0x0100\n      exp\n      swap1\n      div\n      0xffffffffffffffffffffffffffffffffffffffff\n      and\n      dup2\n      jump\t// out\n        /* \"Inbox.sol\":1743:1767  uint256 public timeStart */\n    tag_166:\n      sload(0x0e)\n      dup2\n      jump\t// out\n        /* \"Inbox.sol\":1806:1828  uint256 public timeEnd */\n    tag_170:\n      sload(0x10)\n      dup2\n      jump\t// out\n        /* \"Inbox.sol\":3857:5414  function setStakeholders() private {... */\n    tag_215:\n        /* \"Inbox.sol\":3903:3932  address[] memory address_temp */\n      0x00\n        /* \"Inbox.sol\":3949:3964  numStakeholders */\n      sload(0x03)\n        /* \"Inbox.sol\":3935:3965  new address[](numStakeholders) */\n      0xffffffffffffffff\n      dup2\n      gt\n      iszero\n      tag_308\n      jumpi\n      tag_309\n      tag_310\n      jump\t// in\n    tag_309:\n    tag_308:\n      mload(0x40)\n      swap1\n      dup1\n      dup3\n      mstore\n      dup1\n      0x20\n      mul\n      0x20\n      add\n      dup3\n      add\n      0x40\n      mstore\n      dup1\n      iszero\n      tag_311\n      jumpi\n      dup2\n      0x20\n      add\n      0x20\n      dup3\n      mul\n      dup1\n      calldatasize\n      dup4\n      calldatacopy\n      dup1\n      dup3\n      add\n      swap2\n      pop\n      pop\n      swap1\n      pop\n    tag_311:\n      pop\n        /* \"Inbox.sol\":3903:3965  address[] memory address_temp = new address[](numStakeholders) */\n      swap1\n      pop\n        /* \"Inbox.sol\":3976:4000  uint[] memory value_temp */\n      0x00\n        /* \"Inbox.sol\":4014:4029  numStakeholders */\n      sload(0x03)\n        /* \"Inbox.sol\":4003:4030  new uint[](numStakeholders) */\n      0xffffffffffffffff\n      dup2\n      gt\n      iszero\n      tag_312\n      jumpi\n      tag_313\n      tag_310\n      jump\t// in\n    tag_313:\n    tag_312:\n      mload(0x40)\n      swap1\n      dup1\n      dup3\n      mstore\n      dup1\n      0x20\n      mul\n      0x20\n      add\n      dup3\n      add\n      0x40\n      mstore\n      dup1\n      iszero\n      tag_314\n      jumpi\n      dup2\n      0x20\n      add\n      0x20\n      dup3\n      mul\n      dup1\n      calldatasize\n      dup4\n      calldatacopy\n      dup1\n      dup3\n      add\n      swap2\n      pop\n      pop\n      swap1\n      pop\n    tag_314:\n      pop\n        /* \"Inbox.sol\":3976:4030  uint[] memory value_temp = new uint[](numStakeholders) */\n      swap1\n      pop\n        /* \"Inbox.sol\":4041:4049  uint min */\n      0x00\n        /* \"Inbox.sol\":4060:4068  uint pos */\n      dup1\n        /* \"Inbox.sol\":4071:4072  0 */\n      0x00\n        /* \"Inbox.sol\":4060:4072  uint pos = 0 */\n      swap1\n      pop\n        /* \"Inbox.sol\":4083:4096  uint temp_val */\n      0x00\n        /* \"Inbox.sol\":4107:4119  address temp */\n      dup1\n        /* \"Inbox.sol\":4122:4131  Investors */\n      0x09\n        /* \"Inbox.sol\":4132:4133  0 */\n      0x00\n        /* \"Inbox.sol\":4122:4134  Investors[0] */\n      dup2\n      sload\n      dup2\n      lt\n      tag_315\n      jumpi\n      tag_316\n      tag_175\n      jump\t// in\n    tag_316:\n    tag_315:\n      swap1\n      0x00\n      mstore\n      keccak256(0x00, 0x20)\n      add\n      0x00\n      swap1\n      sload\n      swap1\n      0x0100\n      exp\n      swap1\n      div\n      0xffffffffffffffffffffffffffffffffffffffff\n      and\n        /* \"Inbox.sol\":4107:4134  address temp = Investors[0] */\n      swap1\n      pop\n        /* \"Inbox.sol\":4163:4167  temp */\n      dup1\n        /* \"Inbox.sol\":4145:4157  address_temp */\n      dup7\n        /* \"Inbox.sol\":4158:4159  0 */\n      0x00\n        /* \"Inbox.sol\":4145:4160  address_temp[0] */\n      dup2\n      mload\n      dup2\n      lt\n      tag_318\n      jumpi\n      tag_319\n      tag_175\n      jump\t// in\n    tag_319:\n    tag_318:\n      0x20\n      mul\n      0x20\n      add\n      add\n        /* \"Inbox.sol\":4145:4167  address_temp[0] = temp */\n      swap1\n      0xffffffffffffffffffffffffffffffffffffffff\n      and\n      swap1\n      dup2\n      0xffffffffffffffffffffffffffffffffffffffff\n      and\n      dup2\n      mstore\n      pop\n      pop\n        /* \"Inbox.sol\":4184:4194  Investment */\n      0x0a\n        /* \"Inbox.sol\":4184:4200  Investment[temp] */\n      0x00\n        /* \"Inbox.sol\":4195:4199  temp */\n      dup3\n        /* \"Inbox.sol\":4184:4200  Investment[temp] */\n      0xffffffffffffffffffffffffffffffffffffffff\n      and\n      0xffffffffffffffffffffffffffffffffffffffff\n      and\n      dup2\n      mstore\n      0x20\n      add\n      swap1\n      dup2\n      mstore\n      0x20\n      add\n      0x00\n      keccak256\n      sload\n        /* \"Inbox.sol\":4178:4200  min = Investment[temp] */\n      swap4\n      pop\n        /* \"Inbox.sol\":4227:4230  min */\n      dup4\n        /* \"Inbox.sol\":4211:4221  value_temp */\n      dup6\n        /* \"Inbox.sol\":4222:4223  0 */\n      0x00\n        /* \"Inbox.sol\":4211:4224  value_temp[0] */\n      dup2\n      mload\n      dup2\n      lt\n      tag_320\n      jumpi\n      tag_321\n      tag_175\n      jump\t// in\n    tag_321:\n    tag_320:\n      0x20\n      mul\n      0x20\n      add\n      add\n        /* \"Inbox.sol\":4211:4230  value_temp[0] = min */\n      dup2\n      dup2\n      mstore\n      pop\n      pop\n        /* \"Inbox.sol\":4246:4252  uint i */\n      0x00\n        /* \"Inbox.sol\":4255:4256  1 */\n      0x01\n        /* \"Inbox.sol\":4246:4256  uint i = 1 */\n      swap1\n      pop\n        /* \"Inbox.sol\":4241:4694  for (uint i = 1; i < numStakeholders; i++) {... */\n    tag_322:\n        /* \"Inbox.sol\":4262:4277  numStakeholders */\n      sload(0x03)\n        /* \"Inbox.sol\":4258:4259  i */\n      dup2\n        /* \"Inbox.sol\":4258:4277  i < numStakeholders */\n      lt\n        /* \"Inbox.sol\":4241:4694  for (uint i = 1; i < numStakeholders; i++) {... */\n      iszero\n      tag_323\n      jumpi\n        /* \"Inbox.sol\":4365:4374  Investors */\n      0x09\n        /* \"Inbox.sol\":4375:4376  i */\n      dup2\n        /* \"Inbox.sol\":4365:4377  Investors[i] */\n      dup2\n      sload\n      dup2\n      lt\n      tag_325\n      jumpi\n      tag_326\n      tag_175\n      jump\t// in\n    tag_326:\n    tag_325:\n      swap1\n      0x00\n      mstore\n      keccak256(0x00, 0x20)\n      add\n      0x00\n      swap1\n      sload\n      swap1\n      0x0100\n      exp\n      swap1\n      div\n      0xffffffffffffffffffffffffffffffffffffffff\n      and\n        /* \"Inbox.sol\":4358:4377  temp = Investors[i] */\n      swap2\n      pop\n        /* \"Inbox.sol\":4424:4428  temp */\n      dup2\n        /* \"Inbox.sol\":4406:4418  address_temp */\n      dup8\n        /* \"Inbox.sol\":4419:4420  i */\n      dup3\n        /* \"Inbox.sol\":4406:4421  address_temp[i] */\n      dup2\n      mload\n      dup2\n      lt\n      tag_328\n      jumpi\n      tag_329\n      tag_175\n      jump\t// in\n    tag_329:\n    tag_328:\n      0x20\n      mul\n      0x20\n      add\n      add\n        /* \"Inbox.sol\":4406:4428  address_temp[i] = temp */\n      swap1\n      0xffffffffffffffffffffffffffffffffffffffff\n      and\n      swap1\n      dup2\n      0xffffffffffffffffffffffffffffffffffffffff\n      and\n      dup2\n      mstore\n      pop\n      pop\n        /* \"Inbox.sol\":4478:4488  Investment */\n      0x0a\n        /* \"Inbox.sol\":4478:4494  Investment[temp] */\n      0x00\n        /* \"Inbox.sol\":4489:4493  temp */\n      dup4\n        /* \"Inbox.sol\":4478:4494  Investment[temp] */\n      0xffffffffffffffffffffffffffffffffffffffff\n      and\n      0xffffffffffffffffffffffffffffffffffffffff\n      and\n      dup2\n      mstore\n      0x20\n      add\n      swap1\n      dup2\n      mstore\n      0x20\n      add\n      0x00\n      keccak256\n      sload\n        /* \"Inbox.sol\":4467:4494  temp_val = Investment[temp] */\n      swap3\n      pop\n        /* \"Inbox.sol\":4549:4557  temp_val */\n      dup3\n        /* \"Inbox.sol\":4533:4543  value_temp */\n      dup7\n        /* \"Inbox.sol\":4544:4545  i */\n      dup3\n        /* \"Inbox.sol\":4533:4546  value_temp[i] */\n      dup2\n      mload\n      dup2\n      lt\n      tag_330\n      jumpi\n      tag_331\n      tag_175\n      jump\t// in\n    tag_331:\n    tag_330:\n      0x20\n      mul\n      0x20\n      add\n      add\n        /* \"Inbox.sol\":4533:4557  value_temp[i] = temp_val */\n      dup2\n      dup2\n      mstore\n      pop\n      pop\n        /* \"Inbox.sol\":4598:4606  temp_val */\n      dup3\n        /* \"Inbox.sol\":4592:4595  min */\n      dup6\n        /* \"Inbox.sol\":4592:4606  min > temp_val */\n      gt\n        /* \"Inbox.sol\":4588:4683  if (min > temp_val) {... */\n      iszero\n      tag_332\n      jumpi\n        /* \"Inbox.sol\":4633:4641  temp_val */\n      dup3\n        /* \"Inbox.sol\":4627:4641  min = temp_val */\n      swap5\n      pop\n        /* \"Inbox.sol\":4666:4667  i */\n      dup1\n        /* \"Inbox.sol\":4660:4667  pos = i */\n      swap4\n      pop\n        /* \"Inbox.sol\":4588:4683  if (min > temp_val) {... */\n    tag_332:\n        /* \"Inbox.sol\":4279:4282  i++ */\n      dup1\n      dup1\n      tag_333\n      swap1\n      tag_213\n      jump\t// in\n    tag_333:\n      swap2\n      pop\n      pop\n        /* \"Inbox.sol\":4241:4694  for (uint i = 1; i < numStakeholders; i++) {... */\n      jump(tag_322)\n    tag_323:\n      pop\n        /* \"Inbox.sol\":4711:4717  uint i */\n      0x00\n        /* \"Inbox.sol\":4720:4735  numStakeholders */\n      sload(0x03)\n        /* \"Inbox.sol\":4711:4735  uint i = numStakeholders */\n      swap1\n      pop\n        /* \"Inbox.sol\":4706:5289  for (uint i = numStakeholders; i < Investors.length; i++) {... */\n    tag_334:\n        /* \"Inbox.sol\":4741:4750  Investors */\n      0x09\n        /* \"Inbox.sol\":4741:4757  Investors.length */\n      dup1\n      sload\n      swap1\n      pop\n        /* \"Inbox.sol\":4737:4738  i */\n      dup2\n        /* \"Inbox.sol\":4737:4757  i < Investors.length */\n      lt\n        /* \"Inbox.sol\":4706:5289  for (uint i = numStakeholders; i < Investors.length; i++) {... */\n      iszero\n      tag_335\n      jumpi\n        /* \"Inbox.sol\":4786:4795  Investors */\n      0x09\n        /* \"Inbox.sol\":4796:4797  i */\n      dup2\n        /* \"Inbox.sol\":4786:4798  Investors[i] */\n      dup2\n      sload\n      dup2\n      lt\n      tag_337\n      jumpi\n      tag_338\n      tag_175\n      jump\t// in\n    tag_338:\n    tag_337:\n      swap1\n      0x00\n      mstore\n      keccak256(0x00, 0x20)\n      add\n      0x00\n      swap1\n      sload\n      swap1\n      0x0100\n      exp\n      swap1\n      div\n      0xffffffffffffffffffffffffffffffffffffffff\n      and\n        /* \"Inbox.sol\":4779:4798  temp = Investors[i] */\n      swap2\n      pop\n        /* \"Inbox.sol\":4839:4849  Investment */\n      0x0a\n        /* \"Inbox.sol\":4839:4855  Investment[temp] */\n      0x00\n        /* \"Inbox.sol\":4850:4854  temp */\n      dup4\n        /* \"Inbox.sol\":4839:4855  Investment[temp] */\n      0xffffffffffffffffffffffffffffffffffffffff\n      and\n      0xffffffffffffffffffffffffffffffffffffffff\n      and\n      dup2\n      mstore\n      0x20\n      add\n      swap1\n      dup2\n      mstore\n      0x20\n      add\n      0x00\n      keccak256\n      sload\n        /* \"Inbox.sol\":4828:4855  temp_val = Investment[temp] */\n      swap3\n      pop\n        /* \"Inbox.sol\":4904:4907  min */\n      dup5\n        /* \"Inbox.sol\":4893:4901  temp_val */\n      dup4\n        /* \"Inbox.sol\":4893:4907  temp_val > min */\n      gt\n        /* \"Inbox.sol\":4889:5278  if (temp_val > min) {... */\n      iszero\n      tag_340\n      jumpi\n        /* \"Inbox.sol\":4948:4952  temp */\n      dup2\n        /* \"Inbox.sol\":4928:4940  address_temp */\n      dup8\n        /* \"Inbox.sol\":4941:4944  pos */\n      dup6\n        /* \"Inbox.sol\":4928:4945  address_temp[pos] */\n      dup2\n      mload\n      dup2\n      lt\n      tag_341\n      jumpi\n      tag_342\n      tag_175\n      jump\t// in\n    tag_342:\n    tag_341:\n      0x20\n      mul\n      0x20\n      add\n      add\n        /* \"Inbox.sol\":4928:4952  address_temp[pos] = temp */\n      swap1\n      0xffffffffffffffffffffffffffffffffffffffff\n      and\n      swap1\n      dup2\n      0xffffffffffffffffffffffffffffffffffffffff\n      and\n      dup2\n      mstore\n      pop\n      pop\n        /* \"Inbox.sol\":4989:4997  temp_val */\n      dup3\n        /* \"Inbox.sol\":4971:4981  value_temp */\n      dup7\n        /* \"Inbox.sol\":4982:4985  pos */\n      dup6\n        /* \"Inbox.sol\":4971:4986  value_temp[pos] */\n      dup2\n      mload\n      dup2\n      lt\n      tag_343\n      jumpi\n      tag_344\n      tag_175\n      jump\t// in\n    tag_344:\n    tag_343:\n      0x20\n      mul\n      0x20\n      add\n      add\n        /* \"Inbox.sol\":4971:4997  value_temp[pos] = temp_val */\n      dup2\n      dup2\n      mstore\n      pop\n      pop\n        /* \"Inbox.sol\":5022:5030  temp_val */\n      dup3\n        /* \"Inbox.sol\":5016:5030  min = temp_val */\n      swap5\n      pop\n        /* \"Inbox.sol\":5054:5060  uint j */\n      0x00\n        /* \"Inbox.sol\":5049:5263  for (uint j = 0; j < numStakeholders; j++) {... */\n    tag_345:\n        /* \"Inbox.sol\":5070:5085  numStakeholders */\n      sload(0x03)\n        /* \"Inbox.sol\":5066:5067  j */\n      dup2\n        /* \"Inbox.sol\":5066:5085  j < numStakeholders */\n      lt\n        /* \"Inbox.sol\":5049:5263  for (uint j = 0; j < numStakeholders; j++) {... */\n      iszero\n      tag_346\n      jumpi\n        /* \"Inbox.sol\":5135:5138  min */\n      dup6\n        /* \"Inbox.sol\":5119:5129  value_temp */\n      dup8\n        /* \"Inbox.sol\":5130:5131  j */\n      dup3\n        /* \"Inbox.sol\":5119:5132  value_temp[j] */\n      dup2\n      mload\n      dup2\n      lt\n      tag_348\n      jumpi\n      tag_349\n      tag_175\n      jump\t// in\n    tag_349:\n    tag_348:\n      0x20\n      mul\n      0x20\n      add\n      add\n      mload\n        /* \"Inbox.sol\":5119:5138  value_temp[j] < min */\n      lt\n        /* \"Inbox.sol\":5115:5244  if (value_temp[j] < min) {... */\n      iszero\n      tag_350\n      jumpi\n        /* \"Inbox.sol\":5173:5183  value_temp */\n      dup7\n        /* \"Inbox.sol\":5184:5185  j */\n      dup2\n        /* \"Inbox.sol\":5173:5186  value_temp[j] */\n      dup2\n      mload\n      dup2\n      lt\n      tag_351\n      jumpi\n      tag_352\n      tag_175\n      jump\t// in\n    tag_352:\n    tag_351:\n      0x20\n      mul\n      0x20\n      add\n      add\n      mload\n        /* \"Inbox.sol\":5167:5186  min = value_temp[j] */\n      swap6\n      pop\n        /* \"Inbox.sol\":5219:5220  j */\n      dup1\n        /* \"Inbox.sol\":5213:5220  pos = j */\n      swap5\n      pop\n        /* \"Inbox.sol\":5115:5244  if (value_temp[j] < min) {... */\n    tag_350:\n        /* \"Inbox.sol\":5087:5090  j++ */\n      dup1\n      dup1\n      tag_353\n      swap1\n      tag_213\n      jump\t// in\n    tag_353:\n      swap2\n      pop\n      pop\n        /* \"Inbox.sol\":5049:5263  for (uint j = 0; j < numStakeholders; j++) {... */\n      jump(tag_345)\n    tag_346:\n      pop\n        /* \"Inbox.sol\":4889:5278  if (temp_val > min) {... */\n    tag_340:\n        /* \"Inbox.sol\":4759:4762  i++ */\n      dup1\n      dup1\n      tag_354\n      swap1\n      tag_213\n      jump\t// in\n    tag_354:\n      swap2\n      pop\n      pop\n        /* \"Inbox.sol\":4706:5289  for (uint i = numStakeholders; i < Investors.length; i++) {... */\n      jump(tag_334)\n    tag_335:\n      pop\n        /* \"Inbox.sol\":5306:5312  uint i */\n      0x00\n        /* \"Inbox.sol\":5301:5407  for (uint i = 0; i < numStakeholders; i++) {... */\n    tag_355:\n        /* \"Inbox.sol\":5322:5337  numStakeholders */\n      sload(0x03)\n        /* \"Inbox.sol\":5318:5319  i */\n      dup2\n        /* \"Inbox.sol\":5318:5337  i < numStakeholders */\n      lt\n        /* \"Inbox.sol\":5301:5407  for (uint i = 0; i < numStakeholders; i++) {... */\n      iszero\n      tag_356\n      jumpi\n        /* \"Inbox.sol\":5391:5395  true */\n      0x01\n        /* \"Inbox.sol\":5359:5371  Stakeholders */\n      0x06\n        /* \"Inbox.sol\":5359:5388  Stakeholders[address_temp[i]] */\n      0x00\n        /* \"Inbox.sol\":5372:5384  address_temp */\n      dup10\n        /* \"Inbox.sol\":5385:5386  i */\n      dup5\n        /* \"Inbox.sol\":5372:5387  address_temp[i] */\n      dup2\n      mload\n      dup2\n      lt\n      tag_358\n      jumpi\n      tag_359\n      tag_175\n      jump\t// in\n    tag_359:\n    tag_358:\n      0x20\n      mul\n      0x20\n      add\n      add\n      mload\n        /* \"Inbox.sol\":5359:5388  Stakeholders[address_temp[i]] */\n      0xffffffffffffffffffffffffffffffffffffffff\n      and\n      0xffffffffffffffffffffffffffffffffffffffff\n      and\n      dup2\n      mstore\n      0x20\n      add\n      swap1\n      dup2\n      mstore\n      0x20\n      add\n      0x00\n      keccak256\n      0x00\n        /* \"Inbox.sol\":5359:5395  Stakeholders[address_temp[i]] = true */\n      0x0100\n      exp\n      dup2\n      sload\n      dup2\n      0xff\n      mul\n      not\n      and\n      swap1\n      dup4\n      iszero\n      iszero\n      mul\n      or\n      swap1\n      sstore\n      pop\n        /* \"Inbox.sol\":5339:5342  i++ */\n      dup1\n      dup1\n      tag_360\n      swap1\n      tag_213\n      jump\t// in\n    tag_360:\n      swap2\n      pop\n      pop\n        /* \"Inbox.sol\":5301:5407  for (uint i = 0; i < numStakeholders; i++) {... */\n      jump(tag_355)\n    tag_356:\n      pop\n        /* \"Inbox.sol\":3892:5414  {... */\n      pop\n      pop\n      pop\n      pop\n      pop\n      pop\n        /* \"Inbox.sol\":3857:5414  function setStakeholders() private {... */\n      jump\t// out\n        /* \"Inbox.sol\":7571:7962  function fixPercent(uint leftPercent) private {... */\n    tag_275:\n        /* \"Inbox.sol\":7628:7647  uint totalPercented */\n      0x00\n        /* \"Inbox.sol\":7657:7668  leftPercent */\n      dup2\n        /* \"Inbox.sol\":7650:7654  1000 */\n      0x03e8\n        /* \"Inbox.sol\":7650:7668  1000 - leftPercent */\n      tag_362\n      swap2\n      swap1\n      tag_186\n      jump\t// in\n    tag_362:\n        /* \"Inbox.sol\":7628:7668  uint totalPercented = 1000 - leftPercent */\n      swap1\n      pop\n        /* \"Inbox.sol\":7684:7690  uint i */\n      0x00\n        /* \"Inbox.sol\":7679:7955  for (uint i = 0; i < Investors.length; i++) {... */\n    tag_363:\n        /* \"Inbox.sol\":7700:7709  Investors */\n      0x09\n        /* \"Inbox.sol\":7700:7716  Investors.length */\n      dup1\n      sload\n      swap1\n      pop\n        /* \"Inbox.sol\":7696:7697  i */\n      dup2\n        /* \"Inbox.sol\":7696:7716  i < Investors.length */\n      lt\n        /* \"Inbox.sol\":7679:7955  for (uint i = 0; i < Investors.length; i++) {... */\n      iszero\n      tag_364\n      jumpi\n        /* \"Inbox.sol\":7738:7750  address user */\n      0x00\n        /* \"Inbox.sol\":7753:7762  Investors */\n      0x09\n        /* \"Inbox.sol\":7763:7764  i */\n      dup3\n        /* \"Inbox.sol\":7753:7765  Investors[i] */\n      dup2\n      sload\n      dup2\n      lt\n      tag_366\n      jumpi\n      tag_367\n      tag_175\n      jump\t// in\n    tag_367:\n    tag_366:\n      swap1\n      0x00\n      mstore\n      keccak256(0x00, 0x20)\n      add\n      0x00\n      swap1\n      sload\n      swap1\n      0x0100\n      exp\n      swap1\n      div\n      0xffffffffffffffffffffffffffffffffffffffff\n      and\n        /* \"Inbox.sol\":7738:7765  address user = Investors[i] */\n      swap1\n      pop\n        /* \"Inbox.sol\":7800:7805  false */\n      0x00\n        /* \"Inbox.sol\":7784:7805  lefted[user] == false */\n      iszero\n      iszero\n        /* \"Inbox.sol\":7784:7790  lefted */\n      0x0c\n        /* \"Inbox.sol\":7784:7796  lefted[user] */\n      0x00\n        /* \"Inbox.sol\":7791:7795  user */\n      dup4\n        /* \"Inbox.sol\":7784:7796  lefted[user] */\n      0xffffffffffffffffffffffffffffffffffffffff\n      and\n      0xffffffffffffffffffffffffffffffffffffffff\n      and\n      dup2\n      mstore\n      0x20\n      add\n      swap1\n      dup2\n      mstore\n      0x20\n      add\n      0x00\n      keccak256\n      0x00\n      swap1\n      sload\n      swap1\n      0x0100\n      exp\n      swap1\n      div\n      0xff\n      and\n        /* \"Inbox.sol\":7784:7805  lefted[user] == false */\n      iszero\n      iszero\n      sub\n        /* \"Inbox.sol\":7780:7944  if (lefted[user] == false) {... */\n      tag_369\n      jumpi\n        /* \"Inbox.sol\":7826:7837  uint newVal */\n      0x00\n        /* \"Inbox.sol\":7869:7883  totalPercented */\n      dup4\n        /* \"Inbox.sol\":7861:7865  1000 */\n      0x03e8\n        /* \"Inbox.sol\":7842:7852  ownPercent */\n      0x0b\n        /* \"Inbox.sol\":7842:7858  ownPercent[user] */\n      0x00\n        /* \"Inbox.sol\":7853:7857  user */\n      dup6\n        /* \"Inbox.sol\":7842:7858  ownPercent[user] */\n      0xffffffffffffffffffffffffffffffffffffffff\n      and\n      0xffffffffffffffffffffffffffffffffffffffff\n      and\n      dup2\n      mstore\n      0x20\n      add\n      swap1\n      dup2\n      mstore\n      0x20\n      add\n      0x00\n      keccak256\n      sload\n        /* \"Inbox.sol\":7842:7865  ownPercent[user] * 1000 */\n      tag_370\n      swap2\n      swap1\n      tag_188\n      jump\t// in\n    tag_370:\n        /* \"Inbox.sol\":7841:7883  (ownPercent[user] * 1000) / totalPercented */\n      tag_371\n      swap2\n      swap1\n      tag_190\n      jump\t// in\n    tag_371:\n        /* \"Inbox.sol\":7826:7884  uint newVal = ((ownPercent[user] * 1000) / totalPercented) */\n      swap1\n      pop\n        /* \"Inbox.sol\":7922:7928  newVal */\n      dup1\n        /* \"Inbox.sol\":7903:7913  ownPercent */\n      0x0b\n        /* \"Inbox.sol\":7903:7919  ownPercent[user] */\n      0x00\n        /* \"Inbox.sol\":7914:7918  user */\n      dup5\n        /* \"Inbox.sol\":7903:7919  ownPercent[user] */\n      0xffffffffffffffffffffffffffffffffffffffff\n      and\n      0xffffffffffffffffffffffffffffffffffffffff\n      and\n      dup2\n      mstore\n      0x20\n      add\n      swap1\n      dup2\n      mstore\n      0x20\n      add\n      0x00\n      keccak256\n        /* \"Inbox.sol\":7903:7928  ownPercent[user] = newVal */\n      dup2\n      swap1\n      sstore\n      pop\n        /* \"Inbox.sol\":7807:7944  {... */\n      pop\n        /* \"Inbox.sol\":7780:7944  if (lefted[user] == false) {... */\n    tag_369:\n        /* \"Inbox.sol\":7723:7955  {... */\n      pop\n        /* \"Inbox.sol\":7718:7721  i++ */\n      dup1\n      dup1\n      tag_372\n      swap1\n      tag_213\n      jump\t// in\n    tag_372:\n      swap2\n      pop\n      pop\n        /* \"Inbox.sol\":7679:7955  for (uint i = 0; i < Investors.length; i++) {... */\n      jump(tag_363)\n    tag_364:\n      pop\n        /* \"Inbox.sol\":7617:7962  {... */\n      pop\n        /* \"Inbox.sol\":7571:7962  function fixPercent(uint leftPercent) private {... */\n      pop\n      jump\t// out\n        /* \"#utility.yul\":7:82   */\n    tag_373:\n        /* \"#utility.yul\":40:46   */\n      0x00\n        /* \"#utility.yul\":73:75   */\n      0x40\n        /* \"#utility.yul\":67:76   */\n      mload\n        /* \"#utility.yul\":57:76   */\n      swap1\n      pop\n        /* \"#utility.yul\":7:82   */\n      swap1\n      jump\t// out\n        /* \"#utility.yul\":88:205   */\n    tag_374:\n        /* \"#utility.yul\":197:198   */\n      0x00\n        /* \"#utility.yul\":194:195   */\n      dup1\n        /* \"#utility.yul\":187:199   */\n      revert\n        /* \"#utility.yul\":211:328   */\n    tag_375:\n        /* \"#utility.yul\":320:321   */\n      0x00\n        /* \"#utility.yul\":317:318   */\n      dup1\n        /* \"#utility.yul\":310:322   */\n      revert\n        /* \"#utility.yul\":334:411   */\n    tag_376:\n        /* \"#utility.yul\":371:378   */\n      0x00\n        /* \"#utility.yul\":400:405   */\n      dup2\n        /* \"#utility.yul\":389:405   */\n      swap1\n      pop\n        /* \"#utility.yul\":334:411   */\n      swap2\n      swap1\n      pop\n      jump\t// out\n        /* \"#utility.yul\":417:539   */\n    tag_377:\n        /* \"#utility.yul\":490:514   */\n      tag_424\n        /* \"#utility.yul\":508:513   */\n      dup2\n        /* \"#utility.yul\":490:514   */\n      tag_376\n      jump\t// in\n    tag_424:\n        /* \"#utility.yul\":483:488   */\n      dup2\n        /* \"#utility.yul\":480:515   */\n      eq\n        /* \"#utility.yul\":470:533   */\n      tag_425\n      jumpi\n        /* \"#utility.yul\":529:530   */\n      0x00\n        /* \"#utility.yul\":526:527   */\n      dup1\n        /* \"#utility.yul\":519:531   */\n      revert\n        /* \"#utility.yul\":470:533   */\n    tag_425:\n        /* \"#utility.yul\":417:539   */\n      pop\n      jump\t// out\n        /* \"#utility.yul\":545:684   */\n    tag_378:\n        /* \"#utility.yul\":591:596   */\n      0x00\n        /* \"#utility.yul\":629:635   */\n      dup2\n        /* \"#utility.yul\":616:636   */\n      calldataload\n        /* \"#utility.yul\":607:636   */\n      swap1\n      pop\n        /* \"#utility.yul\":645:678   */\n      tag_427\n        /* \"#utility.yul\":672:677   */\n      dup2\n        /* \"#utility.yul\":645:678   */\n      tag_377\n      jump\t// in\n    tag_427:\n        /* \"#utility.yul\":545:684   */\n      swap3\n      swap2\n      pop\n      pop\n      jump\t// out\n        /* \"#utility.yul\":690:816   */\n    tag_379:\n        /* \"#utility.yul\":727:734   */\n      0x00\n        /* \"#utility.yul\":767:809   */\n      0xffffffffffffffffffffffffffffffffffffffff\n        /* \"#utility.yul\":760:765   */\n      dup3\n        /* \"#utility.yul\":756:810   */\n      and\n        /* \"#utility.yul\":745:810   */\n      swap1\n      pop\n        /* \"#utility.yul\":690:816   */\n      swap2\n      swap1\n      pop\n      jump\t// out\n        /* \"#utility.yul\":822:918   */\n    tag_380:\n        /* \"#utility.yul\":859:866   */\n      0x00\n        /* \"#utility.yul\":888:912   */\n      tag_430\n        /* \"#utility.yul\":906:911   */\n      dup3\n        /* \"#utility.yul\":888:912   */\n      tag_379\n      jump\t// in\n    tag_430:\n        /* \"#utility.yul\":877:912   */\n      swap1\n      pop\n        /* \"#utility.yul\":822:918   */\n      swap2\n      swap1\n      pop\n      jump\t// out\n        /* \"#utility.yul\":924:1046   */\n    tag_381:\n        /* \"#utility.yul\":997:1021   */\n      tag_432\n        /* \"#utility.yul\":1015:1020   */\n      dup2\n        /* \"#utility.yul\":997:1021   */\n      tag_380\n      jump\t// in\n    tag_432:\n        /* \"#utility.yul\":990:995   */\n      dup2\n        /* \"#utility.yul\":987:1022   */\n      eq\n        /* \"#utility.yul\":977:1040   */\n      tag_433\n      jumpi\n        /* \"#utility.yul\":1036:1037   */\n      0x00\n        /* \"#utility.yul\":1033:1034   */\n      dup1\n        /* \"#utility.yul\":1026:1038   */\n      revert\n        /* \"#utility.yul\":977:1040   */\n    tag_433:\n        /* \"#utility.yul\":924:1046   */\n      pop\n      jump\t// out\n        /* \"#utility.yul\":1052:1191   */\n    tag_382:\n        /* \"#utility.yul\":1098:1103   */\n      0x00\n        /* \"#utility.yul\":1136:1142   */\n      dup2\n        /* \"#utility.yul\":1123:1143   */\n      calldataload\n        /* \"#utility.yul\":1114:1143   */\n      swap1\n      pop\n        /* \"#utility.yul\":1152:1185   */\n      tag_435\n        /* \"#utility.yul\":1179:1184   */\n      dup2\n        /* \"#utility.yul\":1152:1185   */\n      tag_381\n      jump\t// in\n    tag_435:\n        /* \"#utility.yul\":1052:1191   */\n      swap3\n      swap2\n      pop\n      pop\n      jump\t// out\n        /* \"#utility.yul\":1197:1671   */\n    tag_42:\n        /* \"#utility.yul\":1265:1271   */\n      0x00\n        /* \"#utility.yul\":1273:1279   */\n      dup1\n        /* \"#utility.yul\":1322:1324   */\n      0x40\n        /* \"#utility.yul\":1310:1319   */\n      dup4\n        /* \"#utility.yul\":1301:1308   */\n      dup6\n        /* \"#utility.yul\":1297:1320   */\n      sub\n        /* \"#utility.yul\":1293:1325   */\n      slt\n        /* \"#utility.yul\":1290:1409   */\n      iszero\n      tag_437\n      jumpi\n        /* \"#utility.yul\":1328:1407   */\n      tag_438\n      tag_374\n      jump\t// in\n    tag_438:\n        /* \"#utility.yul\":1290:1409   */\n    tag_437:\n        /* \"#utility.yul\":1448:1449   */\n      0x00\n        /* \"#utility.yul\":1473:1526   */\n      tag_439\n        /* \"#utility.yul\":1518:1525   */\n      dup6\n        /* \"#utility.yul\":1509:1515   */\n      dup3\n        /* \"#utility.yul\":1498:1507   */\n      dup7\n        /* \"#utility.yul\":1494:1516   */\n      add\n        /* \"#utility.yul\":1473:1526   */\n      tag_378\n      jump\t// in\n    tag_439:\n        /* \"#utility.yul\":1463:1526   */\n      swap3\n      pop\n        /* \"#utility.yul\":1419:1536   */\n      pop\n        /* \"#utility.yul\":1575:1577   */\n      0x20\n        /* \"#utility.yul\":1601:1654   */\n      tag_440\n        /* \"#utility.yul\":1646:1653   */\n      dup6\n        /* \"#utility.yul\":1637:1643   */\n      dup3\n        /* \"#utility.yul\":1626:1635   */\n      dup7\n        /* \"#utility.yul\":1622:1644   */\n      add\n        /* \"#utility.yul\":1601:1654   */\n      tag_382\n      jump\t// in\n    tag_440:\n        /* \"#utility.yul\":1591:1654   */\n      swap2\n      pop\n        /* \"#utility.yul\":1546:1664   */\n      pop\n        /* \"#utility.yul\":1197:1671   */\n      swap3\n      pop\n      swap3\n      swap1\n      pop\n      jump\t// out\n        /* \"#utility.yul\":1677:1767   */\n    tag_383:\n        /* \"#utility.yul\":1711:1718   */\n      0x00\n        /* \"#utility.yul\":1754:1759   */\n      dup2\n        /* \"#utility.yul\":1747:1760   */\n      iszero\n        /* \"#utility.yul\":1740:1761   */\n      iszero\n        /* \"#utility.yul\":1729:1761   */\n      swap1\n      pop\n        /* \"#utility.yul\":1677:1767   */\n      swap2\n      swap1\n      pop\n      jump\t// out\n        /* \"#utility.yul\":1773:1882   */\n    tag_384:\n        /* \"#utility.yul\":1854:1875   */\n      tag_443\n        /* \"#utility.yul\":1869:1874   */\n      dup2\n        /* \"#utility.yul\":1854:1875   */\n      tag_383\n      jump\t// in\n    tag_443:\n        /* \"#utility.yul\":1849:1852   */\n      dup3\n        /* \"#utility.yul\":1842:1876   */\n      mstore\n        /* \"#utility.yul\":1773:1882   */\n      pop\n      pop\n      jump\t// out\n        /* \"#utility.yul\":1888:2098   */\n    tag_45:\n        /* \"#utility.yul\":1975:1979   */\n      0x00\n        /* \"#utility.yul\":2013:2015   */\n      0x20\n        /* \"#utility.yul\":2002:2011   */\n      dup3\n        /* \"#utility.yul\":1998:2016   */\n      add\n        /* \"#utility.yul\":1990:2016   */\n      swap1\n      pop\n        /* \"#utility.yul\":2026:2091   */\n      tag_445\n        /* \"#utility.yul\":2088:2089   */\n      0x00\n        /* \"#utility.yul\":2077:2086   */\n      dup4\n        /* \"#utility.yul\":2073:2090   */\n      add\n        /* \"#utility.yul\":2064:2070   */\n      dup5\n        /* \"#utility.yul\":2026:2091   */\n      tag_384\n      jump\t// in\n    tag_445:\n        /* \"#utility.yul\":1888:2098   */\n      swap3\n      swap2\n      pop\n      pop\n      jump\t// out\n        /* \"#utility.yul\":2104:2433   */\n    tag_49:\n        /* \"#utility.yul\":2163:2169   */\n      0x00\n        /* \"#utility.yul\":2212:2214   */\n      0x20\n        /* \"#utility.yul\":2200:2209   */\n      dup3\n        /* \"#utility.yul\":2191:2198   */\n      dup5\n        /* \"#utility.yul\":2187:2210   */\n      sub\n        /* \"#utility.yul\":2183:2215   */\n      slt\n        /* \"#utility.yul\":2180:2299   */\n      iszero\n      tag_447\n      jumpi\n        /* \"#utility.yul\":2218:2297   */\n      tag_448\n      tag_374\n      jump\t// in\n    tag_448:\n        /* \"#utility.yul\":2180:2299   */\n    tag_447:\n        /* \"#utility.yul\":2338:2339   */\n      0x00\n        /* \"#utility.yul\":2363:2416   */\n      tag_449\n        /* \"#utility.yul\":2408:2415   */\n      dup5\n        /* \"#utility.yul\":2399:2405   */\n      dup3\n        /* \"#utility.yul\":2388:2397   */\n      dup6\n        /* \"#utility.yul\":2384:2406   */\n      add\n        /* \"#utility.yul\":2363:2416   */\n      tag_382\n      jump\t// in\n    tag_449:\n        /* \"#utility.yul\":2353:2416   */\n      swap2\n      pop\n        /* \"#utility.yul\":2309:2426   */\n      pop\n        /* \"#utility.yul\":2104:2433   */\n      swap3\n      swap2\n      pop\n      pop\n      jump\t// out\n        /* \"#utility.yul\":2439:2556   */\n    tag_385:\n        /* \"#utility.yul\":2548:2549   */\n      0x00\n        /* \"#utility.yul\":2545:2546   */\n      dup1\n        /* \"#utility.yul\":2538:2550   */\n      revert\n        /* \"#utility.yul\":2562:2679   */\n    tag_386:\n        /* \"#utility.yul\":2671:2672   */\n      0x00\n        /* \"#utility.yul\":2668:2669   */\n      dup1\n        /* \"#utility.yul\":2661:2673   */\n      revert\n        /* \"#utility.yul\":2685:2787   */\n    tag_387:\n        /* \"#utility.yul\":2726:2732   */\n      0x00\n        /* \"#utility.yul\":2777:2779   */\n      0x1f\n        /* \"#utility.yul\":2773:2780   */\n      not\n        /* \"#utility.yul\":2768:2770   */\n      0x1f\n        /* \"#utility.yul\":2761:2766   */\n      dup4\n        /* \"#utility.yul\":2757:2771   */\n      add\n        /* \"#utility.yul\":2753:2781   */\n      and\n        /* \"#utility.yul\":2743:2781   */\n      swap1\n      pop\n        /* \"#utility.yul\":2685:2787   */\n      swap2\n      swap1\n      pop\n      jump\t// out\n        /* \"#utility.yul\":2793:2973   */\n    tag_310:\n        /* \"#utility.yul\":2841:2918   */\n      0x4e487b7100000000000000000000000000000000000000000000000000000000\n        /* \"#utility.yul\":2838:2839   */\n      0x00\n        /* \"#utility.yul\":2831:2919   */\n      mstore\n        /* \"#utility.yul\":2938:2942   */\n      0x41\n        /* \"#utility.yul\":2935:2936   */\n      0x04\n        /* \"#utility.yul\":2928:2943   */\n      mstore\n        /* \"#utility.yul\":2962:2966   */\n      0x24\n        /* \"#utility.yul\":2959:2960   */\n      0x00\n        /* \"#utility.yul\":2952:2967   */\n      revert\n        /* \"#utility.yul\":2979:3260   */\n    tag_388:\n        /* \"#utility.yul\":3062:3089   */\n      tag_455\n        /* \"#utility.yul\":3084:3088   */\n      dup3\n        /* \"#utility.yul\":3062:3089   */\n      tag_387\n      jump\t// in\n    tag_455:\n        /* \"#utility.yul\":3054:3060   */\n      dup2\n        /* \"#utility.yul\":3050:3090   */\n      add\n        /* \"#utility.yul\":3192:3198   */\n      dup2\n        /* \"#utility.yul\":3180:3190   */\n      dup2\n        /* \"#utility.yul\":3177:3199   */\n      lt\n        /* \"#utility.yul\":3156:3174   */\n      0xffffffffffffffff\n        /* \"#utility.yul\":3144:3154   */\n      dup3\n        /* \"#utility.yul\":3141:3175   */\n      gt\n        /* \"#utility.yul\":3138:3200   */\n      or\n        /* \"#utility.yul\":3135:3223   */\n      iszero\n      tag_456\n      jumpi\n        /* \"#utility.yul\":3203:3221   */\n      tag_457\n      tag_310\n      jump\t// in\n    tag_457:\n        /* \"#utility.yul\":3135:3223   */\n    tag_456:\n        /* \"#utility.yul\":3243:3253   */\n      dup1\n        /* \"#utility.yul\":3239:3241   */\n      0x40\n        /* \"#utility.yul\":3232:3254   */\n      mstore\n        /* \"#utility.yul\":3022:3260   */\n      pop\n        /* \"#utility.yul\":2979:3260   */\n      pop\n      pop\n      jump\t// out\n        /* \"#utility.yul\":3266:3395   */\n    tag_389:\n        /* \"#utility.yul\":3300:3306   */\n      0x00\n        /* \"#utility.yul\":3327:3347   */\n      tag_459\n      tag_373\n      jump\t// in\n    tag_459:\n        /* \"#utility.yul\":3317:3347   */\n      swap1\n      pop\n        /* \"#utility.yul\":3356:3389   */\n      tag_460\n        /* \"#utility.yul\":3384:3388   */\n      dup3\n        /* \"#utility.yul\":3376:3382   */\n      dup3\n        /* \"#utility.yul\":3356:3389   */\n      tag_388\n      jump\t// in\n    tag_460:\n        /* \"#utility.yul\":3266:3395   */\n      swap2\n      swap1\n      pop\n      jump\t// out\n        /* \"#utility.yul\":3401:3709   */\n    tag_390:\n        /* \"#utility.yul\":3463:3467   */\n      0x00\n        /* \"#utility.yul\":3553:3571   */\n      0xffffffffffffffff\n        /* \"#utility.yul\":3545:3551   */\n      dup3\n        /* \"#utility.yul\":3542:3572   */\n      gt\n        /* \"#utility.yul\":3539:3595   */\n      iszero\n      tag_462\n      jumpi\n        /* \"#utility.yul\":3575:3593   */\n      tag_463\n      tag_310\n      jump\t// in\n    tag_463:\n        /* \"#utility.yul\":3539:3595   */\n    tag_462:\n        /* \"#utility.yul\":3613:3642   */\n      tag_464\n        /* \"#utility.yul\":3635:3641   */\n      dup3\n        /* \"#utility.yul\":3613:3642   */\n      tag_387\n      jump\t// in\n    tag_464:\n        /* \"#utility.yul\":3605:3642   */\n      swap1\n      pop\n        /* \"#utility.yul\":3697:3701   */\n      0x20\n        /* \"#utility.yul\":3691:3695   */\n      dup2\n        /* \"#utility.yul\":3687:3702   */\n      add\n        /* \"#utility.yul\":3679:3702   */\n      swap1\n      pop\n        /* \"#utility.yul\":3401:3709   */\n      swap2\n      swap1\n      pop\n      jump\t// out\n        /* \"#utility.yul\":3715:3869   */\n    tag_391:\n        /* \"#utility.yul\":3799:3805   */\n      dup3\n        /* \"#utility.yul\":3794:3797   */\n      dup2\n        /* \"#utility.yul\":3789:3792   */\n      dup4\n        /* \"#utility.yul\":3776:3806   */\n      calldatacopy\n        /* \"#utility.yul\":3861:3862   */\n      0x00\n        /* \"#utility.yul\":3852:3858   */\n      dup4\n        /* \"#utility.yul\":3847:3850   */\n      dup4\n        /* \"#utility.yul\":3843:3859   */\n      add\n        /* \"#utility.yul\":3836:3863   */\n      mstore\n        /* \"#utility.yul\":3715:3869   */\n      pop\n      pop\n      pop\n      jump\t// out\n        /* \"#utility.yul\":3875:4287   */\n    tag_392:\n        /* \"#utility.yul\":3953:3958   */\n      0x00\n        /* \"#utility.yul\":3978:4044   */\n      tag_467\n        /* \"#utility.yul\":3994:4043   */\n      tag_468\n        /* \"#utility.yul\":4036:4042   */\n      dup5\n        /* \"#utility.yul\":3994:4043   */\n      tag_390\n      jump\t// in\n    tag_468:\n        /* \"#utility.yul\":3978:4044   */\n      tag_389\n      jump\t// in\n    tag_467:\n        /* \"#utility.yul\":3969:4044   */\n      swap1\n      pop\n        /* \"#utility.yul\":4067:4073   */\n      dup3\n        /* \"#utility.yul\":4060:4065   */\n      dup2\n        /* \"#utility.yul\":4053:4074   */\n      mstore\n        /* \"#utility.yul\":4105:4109   */\n      0x20\n        /* \"#utility.yul\":4098:4103   */\n      dup2\n        /* \"#utility.yul\":4094:4110   */\n      add\n        /* \"#utility.yul\":4143:4146   */\n      dup5\n        /* \"#utility.yul\":4134:4140   */\n      dup5\n        /* \"#utility.yul\":4129:4132   */\n      dup5\n        /* \"#utility.yul\":4125:4141   */\n      add\n        /* \"#utility.yul\":4122:4147   */\n      gt\n        /* \"#utility.yul\":4119:4231   */\n      iszero\n      tag_469\n      jumpi\n        /* \"#utility.yul\":4150:4229   */\n      tag_470\n      tag_386\n      jump\t// in\n    tag_470:\n        /* \"#utility.yul\":4119:4231   */\n    tag_469:\n        /* \"#utility.yul\":4240:4281   */\n      tag_471\n        /* \"#utility.yul\":4274:4280   */\n      dup5\n        /* \"#utility.yul\":4269:4272   */\n      dup3\n        /* \"#utility.yul\":4264:4267   */\n      dup6\n        /* \"#utility.yul\":4240:4281   */\n      tag_391\n      jump\t// in\n    tag_471:\n        /* \"#utility.yul\":3959:4287   */\n      pop\n        /* \"#utility.yul\":3875:4287   */\n      swap4\n      swap3\n      pop\n      pop\n      pop\n      jump\t// out\n        /* \"#utility.yul\":4307:4647   */\n    tag_393:\n        /* \"#utility.yul\":4363:4368   */\n      0x00\n        /* \"#utility.yul\":4412:4415   */\n      dup3\n        /* \"#utility.yul\":4405:4409   */\n      0x1f\n        /* \"#utility.yul\":4397:4403   */\n      dup4\n        /* \"#utility.yul\":4393:4410   */\n      add\n        /* \"#utility.yul\":4389:4416   */\n      slt\n        /* \"#utility.yul\":4379:4501   */\n      tag_473\n      jumpi\n        /* \"#utility.yul\":4420:4499   */\n      tag_474\n      tag_385\n      jump\t// in\n    tag_474:\n        /* \"#utility.yul\":4379:4501   */\n    tag_473:\n        /* \"#utility.yul\":4537:4543   */\n      dup2\n        /* \"#utility.yul\":4524:4544   */\n      calldataload\n        /* \"#utility.yul\":4562:4641   */\n      tag_475\n        /* \"#utility.yul\":4637:4640   */\n      dup5\n        /* \"#utility.yul\":4629:4635   */\n      dup3\n        /* \"#utility.yul\":4622:4626   */\n      0x20\n        /* \"#utility.yul\":4614:4620   */\n      dup7\n        /* \"#utility.yul\":4610:4627   */\n      add\n        /* \"#utility.yul\":4562:4641   */\n      tag_392\n      jump\t// in\n    tag_475:\n        /* \"#utility.yul\":4553:4641   */\n      swap2\n      pop\n        /* \"#utility.yul\":4369:4647   */\n      pop\n        /* \"#utility.yul\":4307:4647   */\n      swap3\n      swap2\n      pop\n      pop\n      jump\t// out\n        /* \"#utility.yul\":4653:5632   */\n    tag_55:\n        /* \"#utility.yul\":4750:4756   */\n      0x00\n        /* \"#utility.yul\":4758:4764   */\n      dup1\n        /* \"#utility.yul\":4766:4772   */\n      0x00\n        /* \"#utility.yul\":4815:4817   */\n      0x60\n        /* \"#utility.yul\":4803:4812   */\n      dup5\n        /* \"#utility.yul\":4794:4801   */\n      dup7\n        /* \"#utility.yul\":4790:4813   */\n      sub\n        /* \"#utility.yul\":4786:4818   */\n      slt\n        /* \"#utility.yul\":4783:4902   */\n      iszero\n      tag_477\n      jumpi\n        /* \"#utility.yul\":4821:4900   */\n      tag_478\n      tag_374\n      jump\t// in\n    tag_478:\n        /* \"#utility.yul\":4783:4902   */\n    tag_477:\n        /* \"#utility.yul\":4969:4970   */\n      0x00\n        /* \"#utility.yul\":4958:4967   */\n      dup5\n        /* \"#utility.yul\":4954:4971   */\n      add\n        /* \"#utility.yul\":4941:4972   */\n      calldataload\n        /* \"#utility.yul\":4999:5017   */\n      0xffffffffffffffff\n        /* \"#utility.yul\":4991:4997   */\n      dup2\n        /* \"#utility.yul\":4988:5018   */\n      gt\n        /* \"#utility.yul\":4985:5102   */\n      iszero\n      tag_479\n      jumpi\n        /* \"#utility.yul\":5021:5100   */\n      tag_480\n      tag_375\n      jump\t// in\n    tag_480:\n        /* \"#utility.yul\":4985:5102   */\n    tag_479:\n        /* \"#utility.yul\":5126:5189   */\n      tag_481\n        /* \"#utility.yul\":5181:5188   */\n      dup7\n        /* \"#utility.yul\":5172:5178   */\n      dup3\n        /* \"#utility.yul\":5161:5170   */\n      dup8\n        /* \"#utility.yul\":5157:5179   */\n      add\n        /* \"#utility.yul\":5126:5189   */\n      tag_393\n      jump\t// in\n    tag_481:\n        /* \"#utility.yul\":5116:5189   */\n      swap4\n      pop\n        /* \"#utility.yul\":4912:5199   */\n      pop\n        /* \"#utility.yul\":5266:5268   */\n      0x20\n        /* \"#utility.yul\":5255:5264   */\n      dup5\n        /* \"#utility.yul\":5251:5269   */\n      add\n        /* \"#utility.yul\":5238:5270   */\n      calldataload\n        /* \"#utility.yul\":5297:5315   */\n      0xffffffffffffffff\n        /* \"#utility.yul\":5289:5295   */\n      dup2\n        /* \"#utility.yul\":5286:5316   */\n      gt\n        /* \"#utility.yul\":5283:5400   */\n      iszero\n      tag_482\n      jumpi\n        /* \"#utility.yul\":5319:5398   */\n      tag_483\n      tag_375\n      jump\t// in\n    tag_483:\n        /* \"#utility.yul\":5283:5400   */\n    tag_482:\n        /* \"#utility.yul\":5424:5487   */\n      tag_484\n        /* \"#utility.yul\":5479:5486   */\n      dup7\n        /* \"#utility.yul\":5470:5476   */\n      dup3\n        /* \"#utility.yul\":5459:5468   */\n      dup8\n        /* \"#utility.yul\":5455:5477   */\n      add\n        /* \"#utility.yul\":5424:5487   */\n      tag_393\n      jump\t// in\n    tag_484:\n        /* \"#utility.yul\":5414:5487   */\n      swap3\n      pop\n        /* \"#utility.yul\":5209:5497   */\n      pop\n        /* \"#utility.yul\":5536:5538   */\n      0x40\n        /* \"#utility.yul\":5562:5615   */\n      tag_485\n        /* \"#utility.yul\":5607:5614   */\n      dup7\n        /* \"#utility.yul\":5598:5604   */\n      dup3\n        /* \"#utility.yul\":5587:5596   */\n      dup8\n        /* \"#utility.yul\":5583:5605   */\n      add\n        /* \"#utility.yul\":5562:5615   */\n      tag_378\n      jump\t// in\n    tag_485:\n        /* \"#utility.yul\":5552:5615   */\n      swap2\n      pop\n        /* \"#utility.yul\":5507:5625   */\n      pop\n        /* \"#utility.yul\":4653:5632   */\n      swap3\n      pop\n      swap3\n      pop\n      swap3\n      jump\t// out\n        /* \"#utility.yul\":5638:5756   */\n    tag_394:\n        /* \"#utility.yul\":5725:5749   */\n      tag_487\n        /* \"#utility.yul\":5743:5748   */\n      dup2\n        /* \"#utility.yul\":5725:5749   */\n      tag_376\n      jump\t// in\n    tag_487:\n        /* \"#utility.yul\":5720:5723   */\n      dup3\n        /* \"#utility.yul\":5713:5750   */\n      mstore\n        /* \"#utility.yul\":5638:5756   */\n      pop\n      pop\n      jump\t// out\n        /* \"#utility.yul\":5762:5984   */\n    tag_61:\n        /* \"#utility.yul\":5855:5859   */\n      0x00\n        /* \"#utility.yul\":5893:5895   */\n      0x20\n        /* \"#utility.yul\":5882:5891   */\n      dup3\n        /* \"#utility.yul\":5878:5896   */\n      add\n        /* \"#utility.yul\":5870:5896   */\n      swap1\n      pop\n        /* \"#utility.yul\":5906:5977   */\n      tag_489\n        /* \"#utility.yul\":5974:5975   */\n      0x00\n        /* \"#utility.yul\":5963:5972   */\n      dup4\n        /* \"#utility.yul\":5959:5976   */\n      add\n        /* \"#utility.yul\":5950:5956   */\n      dup5\n        /* \"#utility.yul\":5906:5977   */\n      tag_394\n      jump\t// in\n    tag_489:\n        /* \"#utility.yul\":5762:5984   */\n      swap3\n      swap2\n      pop\n      pop\n      jump\t// out\n        /* \"#utility.yul\":5990:6319   */\n    tag_87:\n        /* \"#utility.yul\":6049:6055   */\n      0x00\n        /* \"#utility.yul\":6098:6100   */\n      0x20\n        /* \"#utility.yul\":6086:6095   */\n      dup3\n        /* \"#utility.yul\":6077:6084   */\n      dup5\n        /* \"#utility.yul\":6073:6096   */\n      sub\n        /* \"#utility.yul\":6069:6101   */\n      slt\n        /* \"#utility.yul\":6066:6185   */\n      iszero\n      tag_491\n      jumpi\n        /* \"#utility.yul\":6104:6183   */\n      tag_492\n      tag_374\n      jump\t// in\n    tag_492:\n        /* \"#utility.yul\":6066:6185   */\n    tag_491:\n        /* \"#utility.yul\":6224:6225   */\n      0x00\n        /* \"#utility.yul\":6249:6302   */\n      tag_493\n        /* \"#utility.yul\":6294:6301   */\n      dup5\n        /* \"#utility.yul\":6285:6291   */\n      dup3\n        /* \"#utility.yul\":6274:6283   */\n      dup6\n        /* \"#utility.yul\":6270:6292   */\n      add\n        /* \"#utility.yul\":6249:6302   */\n      tag_378\n      jump\t// in\n    tag_493:\n        /* \"#utility.yul\":6239:6302   */\n      swap2\n      pop\n        /* \"#utility.yul\":6195:6312   */\n      pop\n        /* \"#utility.yul\":5990:6319   */\n      swap3\n      swap2\n      pop\n      pop\n      jump\t// out\n        /* \"#utility.yul\":6325:6443   */\n    tag_395:\n        /* \"#utility.yul\":6412:6436   */\n      tag_495\n        /* \"#utility.yul\":6430:6435   */\n      dup2\n        /* \"#utility.yul\":6412:6436   */\n      tag_380\n      jump\t// in\n    tag_495:\n        /* \"#utility.yul\":6407:6410   */\n      dup3\n        /* \"#utility.yul\":6400:6437   */\n      mstore\n        /* \"#utility.yul\":6325:6443   */\n      pop\n      pop\n      jump\t// out\n        /* \"#utility.yul\":6449:6671   */\n    tag_94:\n        /* \"#utility.yul\":6542:6546   */\n      0x00\n        /* \"#utility.yul\":6580:6582   */\n      0x20\n        /* \"#utility.yul\":6569:6578   */\n      dup3\n        /* \"#utility.yul\":6565:6583   */\n      add\n        /* \"#utility.yul\":6557:6583   */\n      swap1\n      pop\n        /* \"#utility.yul\":6593:6664   */\n      tag_497\n        /* \"#utility.yul\":6661:6662   */\n      0x00\n        /* \"#utility.yul\":6650:6659   */\n      dup4\n        /* \"#utility.yul\":6646:6663   */\n      add\n        /* \"#utility.yul\":6637:6643   */\n      dup5\n        /* \"#utility.yul\":6593:6664   */\n      tag_395\n      jump\t// in\n    tag_497:\n        /* \"#utility.yul\":6449:6671   */\n      swap3\n      swap2\n      pop\n      pop\n      jump\t// out\n        /* \"#utility.yul\":6677:7151   */\n    tag_131:\n        /* \"#utility.yul\":6745:6751   */\n      0x00\n        /* \"#utility.yul\":6753:6759   */\n      dup1\n        /* \"#utility.yul\":6802:6804   */\n      0x40\n        /* \"#utility.yul\":6790:6799   */\n      dup4\n        /* \"#utility.yul\":6781:6788   */\n      dup6\n        /* \"#utility.yul\":6777:6800   */\n      sub\n        /* \"#utility.yul\":6773:6805   */\n      slt\n        /* \"#utility.yul\":6770:6889   */\n      iszero\n      tag_499\n      jumpi\n        /* \"#utility.yul\":6808:6887   */\n      tag_500\n      tag_374\n      jump\t// in\n    tag_500:\n        /* \"#utility.yul\":6770:6889   */\n    tag_499:\n        /* \"#utility.yul\":6928:6929   */\n      0x00\n        /* \"#utility.yul\":6953:7006   */\n      tag_501\n        /* \"#utility.yul\":6998:7005   */\n      dup6\n        /* \"#utility.yul\":6989:6995   */\n      dup3\n        /* \"#utility.yul\":6978:6987   */\n      dup7\n        /* \"#utility.yul\":6974:6996   */\n      add\n        /* \"#utility.yul\":6953:7006   */\n      tag_382\n      jump\t// in\n    tag_501:\n        /* \"#utility.yul\":6943:7006   */\n      swap3\n      pop\n        /* \"#utility.yul\":6899:7016   */\n      pop\n        /* \"#utility.yul\":7055:7057   */\n      0x20\n        /* \"#utility.yul\":7081:7134   */\n      tag_502\n        /* \"#utility.yul\":7126:7133   */\n      dup6\n        /* \"#utility.yul\":7117:7123   */\n      dup3\n        /* \"#utility.yul\":7106:7115   */\n      dup7\n        /* \"#utility.yul\":7102:7124   */\n      add\n        /* \"#utility.yul\":7081:7134   */\n      tag_378\n      jump\t// in\n    tag_502:\n        /* \"#utility.yul\":7071:7134   */\n      swap2\n      pop\n        /* \"#utility.yul\":7026:7144   */\n      pop\n        /* \"#utility.yul\":6677:7151   */\n      swap3\n      pop\n      swap3\n      swap1\n      pop\n      jump\t// out\n        /* \"#utility.yul\":7157:7256   */\n    tag_396:\n        /* \"#utility.yul\":7209:7215   */\n      0x00\n        /* \"#utility.yul\":7243:7248   */\n      dup2\n        /* \"#utility.yul\":7237:7249   */\n      mload\n        /* \"#utility.yul\":7227:7249   */\n      swap1\n      pop\n        /* \"#utility.yul\":7157:7256   */\n      swap2\n      swap1\n      pop\n      jump\t// out\n        /* \"#utility.yul\":7262:7431   */\n    tag_397:\n        /* \"#utility.yul\":7346:7357   */\n      0x00\n        /* \"#utility.yul\":7380:7386   */\n      dup3\n        /* \"#utility.yul\":7375:7378   */\n      dup3\n        /* \"#utility.yul\":7368:7387   */\n      mstore\n        /* \"#utility.yul\":7420:7424   */\n      0x20\n        /* \"#utility.yul\":7415:7418   */\n      dup3\n        /* \"#utility.yul\":7411:7425   */\n      add\n        /* \"#utility.yul\":7396:7425   */\n      swap1\n      pop\n        /* \"#utility.yul\":7262:7431   */\n      swap3\n      swap2\n      pop\n      pop\n      jump\t// out\n        /* \"#utility.yul\":7437:7744   */\n    tag_398:\n        /* \"#utility.yul\":7505:7506   */\n      0x00\n        /* \"#utility.yul\":7515:7628   */\n    tag_506:\n        /* \"#utility.yul\":7529:7535   */\n      dup4\n        /* \"#utility.yul\":7526:7527   */\n      dup2\n        /* \"#utility.yul\":7523:7536   */\n      lt\n        /* \"#utility.yul\":7515:7628   */\n      iszero\n      tag_508\n      jumpi\n        /* \"#utility.yul\":7614:7615   */\n      dup1\n        /* \"#utility.yul\":7609:7612   */\n      dup3\n        /* \"#utility.yul\":7605:7616   */\n      add\n        /* \"#utility.yul\":7599:7617   */\n      mload\n        /* \"#utility.yul\":7595:7596   */\n      dup2\n        /* \"#utility.yul\":7590:7593   */\n      dup5\n        /* \"#utility.yul\":7586:7597   */\n      add\n        /* \"#utility.yul\":7579:7618   */\n      mstore\n        /* \"#utility.yul\":7551:7553   */\n      0x20\n        /* \"#utility.yul\":7548:7549   */\n      dup2\n        /* \"#utility.yul\":7544:7554   */\n      add\n        /* \"#utility.yul\":7539:7554   */\n      swap1\n      pop\n        /* \"#utility.yul\":7515:7628   */\n      jump(tag_506)\n    tag_508:\n        /* \"#utility.yul\":7646:7652   */\n      dup4\n        /* \"#utility.yul\":7643:7644   */\n      dup2\n        /* \"#utility.yul\":7640:7653   */\n      gt\n        /* \"#utility.yul\":7637:7738   */\n      iszero\n      tag_509\n      jumpi\n        /* \"#utility.yul\":7726:7727   */\n      0x00\n        /* \"#utility.yul\":7717:7723   */\n      dup5\n        /* \"#utility.yul\":7712:7715   */\n      dup5\n        /* \"#utility.yul\":7708:7724   */\n      add\n        /* \"#utility.yul\":7701:7728   */\n      mstore\n        /* \"#utility.yul\":7637:7738   */\n    tag_509:\n        /* \"#utility.yul\":7486:7744   */\n      pop\n        /* \"#utility.yul\":7437:7744   */\n      pop\n      pop\n      pop\n      jump\t// out\n        /* \"#utility.yul\":7750:8114   */\n    tag_399:\n        /* \"#utility.yul\":7838:7841   */\n      0x00\n        /* \"#utility.yul\":7866:7905   */\n      tag_511\n        /* \"#utility.yul\":7899:7904   */\n      dup3\n        /* \"#utility.yul\":7866:7905   */\n      tag_396\n      jump\t// in\n    tag_511:\n        /* \"#utility.yul\":7921:7992   */\n      tag_512\n        /* \"#utility.yul\":7985:7991   */\n      dup2\n        /* \"#utility.yul\":7980:7983   */\n      dup6\n        /* \"#utility.yul\":7921:7992   */\n      tag_397\n      jump\t// in\n    tag_512:\n        /* \"#utility.yul\":7914:7992   */\n      swap4\n      pop\n        /* \"#utility.yul\":8001:8053   */\n      tag_513\n        /* \"#utility.yul\":8046:8052   */\n      dup2\n        /* \"#utility.yul\":8041:8044   */\n      dup6\n        /* \"#utility.yul\":8034:8038   */\n      0x20\n        /* \"#utility.yul\":8027:8032   */\n      dup7\n        /* \"#utility.yul\":8023:8039   */\n      add\n        /* \"#utility.yul\":8001:8053   */\n      tag_398\n      jump\t// in\n    tag_513:\n        /* \"#utility.yul\":8078:8107   */\n      tag_514\n        /* \"#utility.yul\":8100:8106   */\n      dup2\n        /* \"#utility.yul\":8078:8107   */\n      tag_387\n      jump\t// in\n    tag_514:\n        /* \"#utility.yul\":8073:8076   */\n      dup5\n        /* \"#utility.yul\":8069:8108   */\n      add\n        /* \"#utility.yul\":8062:8108   */\n      swap2\n      pop\n        /* \"#utility.yul\":7842:8114   */\n      pop\n        /* \"#utility.yul\":7750:8114   */\n      swap3\n      swap2\n      pop\n      pop\n      jump\t// out\n        /* \"#utility.yul\":8120:8954   */\n    tag_158:\n        /* \"#utility.yul\":8359:8363   */\n      0x00\n        /* \"#utility.yul\":8397:8400   */\n      0xa0\n        /* \"#utility.yul\":8386:8395   */\n      dup3\n        /* \"#utility.yul\":8382:8401   */\n      add\n        /* \"#utility.yul\":8374:8401   */\n      swap1\n      pop\n        /* \"#utility.yul\":8447:8456   */\n      dup2\n        /* \"#utility.yul\":8441:8445   */\n      dup2\n        /* \"#utility.yul\":8437:8457   */\n      sub\n        /* \"#utility.yul\":8433:8434   */\n      0x00\n        /* \"#utility.yul\":8422:8431   */\n      dup4\n        /* \"#utility.yul\":8418:8435   */\n      add\n        /* \"#utility.yul\":8411:8458   */\n      mstore\n        /* \"#utility.yul\":8475:8553   */\n      tag_516\n        /* \"#utility.yul\":8548:8552   */\n      dup2\n        /* \"#utility.yul\":8539:8545   */\n      dup9\n        /* \"#utility.yul\":8475:8553   */\n      tag_399\n      jump\t// in\n    tag_516:\n        /* \"#utility.yul\":8467:8553   */\n      swap1\n      pop\n        /* \"#utility.yul\":8600:8609   */\n      dup2\n        /* \"#utility.yul\":8594:8598   */\n      dup2\n        /* \"#utility.yul\":8590:8610   */\n      sub\n        /* \"#utility.yul\":8585:8587   */\n      0x20\n        /* \"#utility.yul\":8574:8583   */\n      dup4\n        /* \"#utility.yul\":8570:8588   */\n      add\n        /* \"#utility.yul\":8563:8611   */\n      mstore\n        /* \"#utility.yul\":8628:8706   */\n      tag_517\n        /* \"#utility.yul\":8701:8705   */\n      dup2\n        /* \"#utility.yul\":8692:8698   */\n      dup8\n        /* \"#utility.yul\":8628:8706   */\n      tag_399\n      jump\t// in\n    tag_517:\n        /* \"#utility.yul\":8620:8706   */\n      swap1\n      pop\n        /* \"#utility.yul\":8716:8788   */\n      tag_518\n        /* \"#utility.yul\":8784:8786   */\n      0x40\n        /* \"#utility.yul\":8773:8782   */\n      dup4\n        /* \"#utility.yul\":8769:8787   */\n      add\n        /* \"#utility.yul\":8760:8766   */\n      dup7\n        /* \"#utility.yul\":8716:8788   */\n      tag_394\n      jump\t// in\n    tag_518:\n        /* \"#utility.yul\":8798:8864   */\n      tag_519\n        /* \"#utility.yul\":8860:8862   */\n      0x60\n        /* \"#utility.yul\":8849:8858   */\n      dup4\n        /* \"#utility.yul\":8845:8863   */\n      add\n        /* \"#utility.yul\":8836:8842   */\n      dup6\n        /* \"#utility.yul\":8798:8864   */\n      tag_384\n      jump\t// in\n    tag_519:\n        /* \"#utility.yul\":8874:8947   */\n      tag_520\n        /* \"#utility.yul\":8942:8945   */\n      0x80\n        /* \"#utility.yul\":8931:8940   */\n      dup4\n        /* \"#utility.yul\":8927:8946   */\n      add\n        /* \"#utility.yul\":8918:8924   */\n      dup5\n        /* \"#utility.yul\":8874:8947   */\n      tag_394\n      jump\t// in\n    tag_520:\n        /* \"#utility.yul\":8120:8954   */\n      swap7\n      swap6\n      pop\n      pop\n      pop\n      pop\n      pop\n      pop\n      jump\t// out\n        /* \"#utility.yul\":8960:9140   */\n    tag_175:\n        /* \"#utility.yul\":9008:9085   */\n      0x4e487b7100000000000000000000000000000000000000000000000000000000\n        /* \"#utility.yul\":9005:9006   */\n      0x00\n        /* \"#utility.yul\":8998:9086   */\n      mstore\n        /* \"#utility.yul\":9105:9109   */\n      0x32\n        /* \"#utility.yul\":9102:9103   */\n      0x04\n        /* \"#utility.yul\":9095:9110   */\n      mstore\n        /* \"#utility.yul\":9129:9133   */\n      0x24\n        /* \"#utility.yul\":9126:9127   */\n      0x00\n        /* \"#utility.yul\":9119:9134   */\n      revert\n        /* \"#utility.yul\":9146:9326   */\n    tag_400:\n        /* \"#utility.yul\":9194:9271   */\n      0x4e487b7100000000000000000000000000000000000000000000000000000000\n        /* \"#utility.yul\":9191:9192   */\n      0x00\n        /* \"#utility.yul\":9184:9272   */\n      mstore\n        /* \"#utility.yul\":9291:9295   */\n      0x22\n        /* \"#utility.yul\":9288:9289   */\n      0x04\n        /* \"#utility.yul\":9281:9296   */\n      mstore\n        /* \"#utility.yul\":9315:9319   */\n      0x24\n        /* \"#utility.yul\":9312:9313   */\n      0x00\n        /* \"#utility.yul\":9305:9320   */\n      revert\n        /* \"#utility.yul\":9332:9652   */\n    tag_295:\n        /* \"#utility.yul\":9376:9382   */\n      0x00\n        /* \"#utility.yul\":9413:9414   */\n      0x02\n        /* \"#utility.yul\":9407:9411   */\n      dup3\n        /* \"#utility.yul\":9403:9415   */\n      div\n        /* \"#utility.yul\":9393:9415   */\n      swap1\n      pop\n        /* \"#utility.yul\":9460:9461   */\n      0x01\n        /* \"#utility.yul\":9454:9458   */\n      dup3\n        /* \"#utility.yul\":9450:9462   */\n      and\n        /* \"#utility.yul\":9481:9499   */\n      dup1\n        /* \"#utility.yul\":9471:9552   */\n      tag_524\n      jumpi\n        /* \"#utility.yul\":9537:9541   */\n      0x7f\n        /* \"#utility.yul\":9529:9535   */\n      dup3\n        /* \"#utility.yul\":9525:9542   */\n      and\n        /* \"#utility.yul\":9515:9542   */\n      swap2\n      pop\n        /* \"#utility.yul\":9471:9552   */\n    tag_524:\n        /* \"#utility.yul\":9599:9601   */\n      0x20\n        /* \"#utility.yul\":9591:9597   */\n      dup3\n        /* \"#utility.yul\":9588:9602   */\n      lt\n        /* \"#utility.yul\":9568:9586   */\n      dup2\n        /* \"#utility.yul\":9565:9603   */\n      sub\n        /* \"#utility.yul\":9562:9646   */\n      tag_525\n      jumpi\n        /* \"#utility.yul\":9618:9636   */\n      tag_526\n      tag_400\n      jump\t// in\n    tag_526:\n        /* \"#utility.yul\":9562:9646   */\n    tag_525:\n        /* \"#utility.yul\":9383:9652   */\n      pop\n        /* \"#utility.yul\":9332:9652   */\n      swap2\n      swap1\n      pop\n      jump\t// out\n        /* \"#utility.yul\":9658:9799   */\n    tag_401:\n        /* \"#utility.yul\":9707:9711   */\n      0x00\n        /* \"#utility.yul\":9730:9733   */\n      dup2\n        /* \"#utility.yul\":9722:9733   */\n      swap1\n      pop\n        /* \"#utility.yul\":9753:9756   */\n      dup2\n        /* \"#utility.yul\":9750:9751   */\n      0x00\n        /* \"#utility.yul\":9743:9757   */\n      mstore\n        /* \"#utility.yul\":9787:9791   */\n      0x20\n        /* \"#utility.yul\":9784:9785   */\n      0x00\n        /* \"#utility.yul\":9774:9792   */\n      keccak256\n        /* \"#utility.yul\":9766:9792   */\n      swap1\n      pop\n        /* \"#utility.yul\":9658:9799   */\n      swap2\n      swap1\n      pop\n      jump\t// out\n        /* \"#utility.yul\":9805:9898   */\n    tag_402:\n        /* \"#utility.yul\":9842:9848   */\n      0x00\n        /* \"#utility.yul\":9889:9891   */\n      0x20\n        /* \"#utility.yul\":9884:9886   */\n      0x1f\n        /* \"#utility.yul\":9877:9882   */\n      dup4\n        /* \"#utility.yul\":9873:9887   */\n      add\n        /* \"#utility.yul\":9869:9892   */\n      div\n        /* \"#utility.yul\":9859:9892   */\n      swap1\n      pop\n        /* \"#utility.yul\":9805:9898   */\n      swap2\n      swap1\n      pop\n      jump\t// out\n        /* \"#utility.yul\":9904:10011   */\n    tag_403:\n        /* \"#utility.yul\":9948:9956   */\n      0x00\n        /* \"#utility.yul\":9998:10003   */\n      dup3\n        /* \"#utility.yul\":9992:9996   */\n      dup3\n        /* \"#utility.yul\":9988:10004   */\n      shl\n        /* \"#utility.yul\":9967:10004   */\n      swap1\n      pop\n        /* \"#utility.yul\":9904:10011   */\n      swap3\n      swap2\n      pop\n      pop\n      jump\t// out\n        /* \"#utility.yul\":10017:10410   */\n    tag_404:\n        /* \"#utility.yul\":10086:10092   */\n      0x00\n        /* \"#utility.yul\":10136:10137   */\n      0x08\n        /* \"#utility.yul\":10124:10134   */\n      dup4\n        /* \"#utility.yul\":10120:10138   */\n      mul\n        /* \"#utility.yul\":10159:10256   */\n      tag_531\n        /* \"#utility.yul\":10189:10255   */\n      0xffffffffffffffffffffffffffffffffffffffffffffffffffffffffffffffff\n        /* \"#utility.yul\":10178:10187   */\n      dup3\n        /* \"#utility.yul\":10159:10256   */\n      tag_403\n      jump\t// in\n    tag_531:\n        /* \"#utility.yul\":10277:10316   */\n      tag_532\n        /* \"#utility.yul\":10307:10315   */\n      dup7\n        /* \"#utility.yul\":10296:10305   */\n      dup4\n        /* \"#utility.yul\":10277:10316   */\n      tag_403\n      jump\t// in\n    tag_532:\n        /* \"#utility.yul\":10265:10316   */\n      swap6\n      pop\n        /* \"#utility.yul\":10349:10353   */\n      dup1\n        /* \"#utility.yul\":10345:10354   */\n      not\n        /* \"#utility.yul\":10338:10343   */\n      dup5\n        /* \"#utility.yul\":10334:10355   */\n      and\n        /* \"#utility.yul\":10325:10355   */\n      swap4\n      pop\n        /* \"#utility.yul\":10398:10402   */\n      dup1\n        /* \"#utility.yul\":10388:10396   */\n      dup7\n        /* \"#utility.yul\":10384:10403   */\n      and\n        /* \"#utility.yul\":10377:10382   */\n      dup5\n        /* \"#utility.yul\":10374:10404   */\n      or\n        /* \"#utility.yul\":10364:10404   */\n      swap3\n      pop\n        /* \"#utility.yul\":10093:10410   */\n      pop\n      pop\n        /* \"#utility.yul\":10017:10410   */\n      swap4\n      swap3\n      pop\n      pop\n      pop\n      jump\t// out\n        /* \"#utility.yul\":10416:10476   */\n    tag_405:\n        /* \"#utility.yul\":10444:10447   */\n      0x00\n        /* \"#utility.yul\":10465:10470   */\n      dup2\n        /* \"#utility.yul\":10458:10470   */\n      swap1\n      pop\n        /* \"#utility.yul\":10416:10476   */\n      swap2\n      swap1\n      pop\n      jump\t// out\n        /* \"#utility.yul\":10482:10624   */\n    tag_406:\n        /* \"#utility.yul\":10532:10541   */\n      0x00\n        /* \"#utility.yul\":10565:10618   */\n      tag_535\n        /* \"#utility.yul\":10583:10617   */\n      tag_536\n        /* \"#utility.yul\":10592:10616   */\n      tag_537\n        /* \"#utility.yul\":10610:10615   */\n      dup5\n        /* \"#utility.yul\":10592:10616   */\n      tag_376\n      jump\t// in\n    tag_537:\n        /* \"#utility.yul\":10583:10617   */\n      tag_405\n      jump\t// in\n    tag_536:\n        /* \"#utility.yul\":10565:10618   */\n      tag_376\n      jump\t// in\n    tag_535:\n        /* \"#utility.yul\":10552:10618   */\n      swap1\n      pop\n        /* \"#utility.yul\":10482:10624   */\n      swap2\n      swap1\n      pop\n      jump\t// out\n        /* \"#utility.yul\":10630:10705   */\n    tag_407:\n        /* \"#utility.yul\":10673:10676   */\n      0x00\n        /* \"#utility.yul\":10694:10699   */\n      dup2\n        /* \"#utility.yul\":10687:10699   */\n      swap1\n      pop\n        /* \"#utility.yul\":10630:10705   */\n      swap2\n      swap1\n      pop\n      jump\t// out\n        /* \"#utility.yul\":10711:10980   */\n    tag_408:\n        /* \"#utility.yul\":10821:10860   */\n      tag_540\n        /* \"#utility.yul\":10852:10859   */\n      dup4\n        /* \"#utility.yul\":10821:10860   */\n      tag_406\n      jump\t// in\n    tag_540:\n        /* \"#utility.yul\":10882:10973   */\n      tag_541\n        /* \"#utility.yul\":10931:10972   */\n      tag_542\n        /* \"#utility.yul\":10955:10971   */\n      dup3\n        /* \"#utility.yul\":10931:10972   */\n      tag_407\n      jump\t// in\n    tag_542:\n        /* \"#utility.yul\":10923:10929   */\n      dup5\n        /* \"#utility.yul\":10916:10920   */\n      dup5\n        /* \"#utility.yul\":10910:10921   */\n      sload\n        /* \"#utility.yul\":10882:10973   */\n      tag_404\n      jump\t// in\n    tag_541:\n        /* \"#utility.yul\":10876:10880   */\n      dup3\n        /* \"#utility.yul\":10869:10974   */\n      sstore\n        /* \"#utility.yul\":10787:10980   */\n      pop\n        /* \"#utility.yul\":10711:10980   */\n      pop\n      pop\n      pop\n      jump\t// out\n        /* \"#utility.yul\":10986:11059   */\n    tag_409:\n        /* \"#utility.yul\":11031:11034   */\n      0x00\n        /* \"#utility.yul\":10986:11059   */\n      swap1\n      jump\t// out\n        /* \"#utility.yul\":11065:11254   */\n    tag_410:\n        /* \"#utility.yul\":11142:11174   */\n      tag_545\n      tag_409\n      jump\t// in\n    tag_545:\n        /* \"#utility.yul\":11183:11248   */\n      tag_546\n        /* \"#utility.yul\":11241:11247   */\n      dup2\n        /* \"#utility.yul\":11233:11239   */\n      dup5\n        /* \"#utility.yul\":11227:11231   */\n      dup5\n        /* \"#utility.yul\":11183:11248   */\n      tag_408\n      jump\t// in\n    tag_546:\n        /* \"#utility.yul\":11118:11254   */\n      pop\n        /* \"#utility.yul\":11065:11254   */\n      pop\n      pop\n      jump\t// out\n        /* \"#utility.yul\":11260:11446   */\n    tag_411:\n        /* \"#utility.yul\":11320:11440   */\n    tag_548:\n        /* \"#utility.yul\":11337:11340   */\n      dup2\n        /* \"#utility.yul\":11330:11335   */\n      dup2\n        /* \"#utility.yul\":11327:11341   */\n      lt\n        /* \"#utility.yul\":11320:11440   */\n      iszero\n      tag_550\n      jumpi\n        /* \"#utility.yul\":11391:11430   */\n      tag_551\n        /* \"#utility.yul\":11428:11429   */\n      0x00\n        /* \"#utility.yul\":11421:11426   */\n      dup3\n        /* \"#utility.yul\":11391:11430   */\n      tag_410\n      jump\t// in\n    tag_551:\n        /* \"#utility.yul\":11364:11365   */\n      0x01\n        /* \"#utility.yul\":11357:11362   */\n      dup2\n        /* \"#utility.yul\":11353:11366   */\n      add\n        /* \"#utility.yul\":11344:11366   */\n      swap1\n      pop\n        /* \"#utility.yul\":11320:11440   */\n      jump(tag_548)\n    tag_550:\n        /* \"#utility.yul\":11260:11446   */\n      pop\n      pop\n      jump\t// out\n        /* \"#utility.yul\":11452:11995   */\n    tag_412:\n        /* \"#utility.yul\":11553:11555   */\n      0x1f\n        /* \"#utility.yul\":11548:11551   */\n      dup3\n        /* \"#utility.yul\":11545:11556   */\n      gt\n        /* \"#utility.yul\":11542:11988   */\n      iszero\n      tag_553\n      jumpi\n        /* \"#utility.yul\":11587:11625   */\n      tag_554\n        /* \"#utility.yul\":11619:11624   */\n      dup2\n        /* \"#utility.yul\":11587:11625   */\n      tag_401\n      jump\t// in\n    tag_554:\n        /* \"#utility.yul\":11671:11700   */\n      tag_555\n        /* \"#utility.yul\":11689:11699   */\n      dup5\n        /* \"#utility.yul\":11671:11700   */\n      tag_402\n      jump\t// in\n    tag_555:\n        /* \"#utility.yul\":11661:11669   */\n      dup2\n        /* \"#utility.yul\":11657:11701   */\n      add\n        /* \"#utility.yul\":11854:11856   */\n      0x20\n        /* \"#utility.yul\":11842:11852   */\n      dup6\n        /* \"#utility.yul\":11839:11857   */\n      lt\n        /* \"#utility.yul\":11836:11885   */\n      iszero\n      tag_556\n      jumpi\n        /* \"#utility.yul\":11875:11883   */\n      dup2\n        /* \"#utility.yul\":11860:11883   */\n      swap1\n      pop\n        /* \"#utility.yul\":11836:11885   */\n    tag_556:\n        /* \"#utility.yul\":11898:11978   */\n      tag_557\n        /* \"#utility.yul\":11954:11976   */\n      tag_558\n        /* \"#utility.yul\":11972:11975   */\n      dup6\n        /* \"#utility.yul\":11954:11976   */\n      tag_402\n      jump\t// in\n    tag_558:\n        /* \"#utility.yul\":11944:11952   */\n      dup4\n        /* \"#utility.yul\":11940:11977   */\n      add\n        /* \"#utility.yul\":11927:11938   */\n      dup3\n        /* \"#utility.yul\":11898:11978   */\n      tag_411\n      jump\t// in\n    tag_557:\n        /* \"#utility.yul\":11557:11988   */\n      pop\n      pop\n        /* \"#utility.yul\":11542:11988   */\n    tag_553:\n        /* \"#utility.yul\":11452:11995   */\n      pop\n      pop\n      pop\n      jump\t// out\n        /* \"#utility.yul\":12001:12118   */\n    tag_413:\n        /* \"#utility.yul\":12055:12063   */\n      0x00\n        /* \"#utility.yul\":12105:12110   */\n      dup3\n        /* \"#utility.yul\":12099:12103   */\n      dup3\n        /* \"#utility.yul\":12095:12111   */\n      shr\n        /* \"#utility.yul\":12074:12111   */\n      swap1\n      pop\n        /* \"#utility.yul\":12001:12118   */\n      swap3\n      swap2\n      pop\n      pop\n      jump\t// out\n        /* \"#utility.yul\":12124:12293   */\n    tag_414:\n        /* \"#utility.yul\":12168:12174   */\n      0x00\n        /* \"#utility.yul\":12201:12252   */\n      tag_561\n        /* \"#utility.yul\":12249:12250   */\n      0x00\n        /* \"#utility.yul\":12245:12251   */\n      not\n        /* \"#utility.yul\":12237:12242   */\n      dup5\n        /* \"#utility.yul\":12234:12235   */\n      0x08\n        /* \"#utility.yul\":12230:12243   */\n      mul\n        /* \"#utility.yul\":12201:12252   */\n      tag_413\n      jump\t// in\n    tag_561:\n        /* \"#utility.yul\":12197:12253   */\n      not\n        /* \"#utility.yul\":12282:12286   */\n      dup1\n        /* \"#utility.yul\":12276:12280   */\n      dup4\n        /* \"#utility.yul\":12272:12287   */\n      and\n        /* \"#utility.yul\":12262:12287   */\n      swap2\n      pop\n        /* \"#utility.yul\":12175:12293   */\n      pop\n        /* \"#utility.yul\":12124:12293   */\n      swap3\n      swap2\n      pop\n      pop\n      jump\t// out\n        /* \"#utility.yul\":12298:12593   */\n    tag_415:\n        /* \"#utility.yul\":12374:12378   */\n      0x00\n        /* \"#utility.yul\":12520:12549   */\n      tag_563\n        /* \"#utility.yul\":12545:12548   */\n      dup4\n        /* \"#utility.yul\":12539:12543   */\n      dup4\n        /* \"#utility.yul\":12520:12549   */\n      tag_414\n      jump\t// in\n    tag_563:\n        /* \"#utility.yul\":12512:12549   */\n      swap2\n      pop\n        /* \"#utility.yul\":12582:12585   */\n      dup3\n        /* \"#utility.yul\":12579:12580   */\n      0x02\n        /* \"#utility.yul\":12575:12586   */\n      mul\n        /* \"#utility.yul\":12569:12573   */\n      dup3\n        /* \"#utility.yul\":12566:12587   */\n      or\n        /* \"#utility.yul\":12558:12587   */\n      swap1\n      pop\n        /* \"#utility.yul\":12298:12593   */\n      swap3\n      swap2\n      pop\n      pop\n      jump\t// out\n        /* \"#utility.yul\":12598:13993   */\n    tag_182:\n        /* \"#utility.yul\":12715:12752   */\n      tag_565\n        /* \"#utility.yul\":12748:12751   */\n      dup3\n        /* \"#utility.yul\":12715:12752   */\n      tag_396\n      jump\t// in\n    tag_565:\n        /* \"#utility.yul\":12817:12835   */\n      0xffffffffffffffff\n        /* \"#utility.yul\":12809:12815   */\n      dup2\n        /* \"#utility.yul\":12806:12836   */\n      gt\n        /* \"#utility.yul\":12803:12859   */\n      iszero\n      tag_566\n      jumpi\n        /* \"#utility.yul\":12839:12857   */\n      tag_567\n      tag_310\n      jump\t// in\n    tag_567:\n        /* \"#utility.yul\":12803:12859   */\n    tag_566:\n        /* \"#utility.yul\":12883:12921   */\n      tag_568\n        /* \"#utility.yul\":12915:12919   */\n      dup3\n        /* \"#utility.yul\":12909:12920   */\n      sload\n        /* \"#utility.yul\":12883:12921   */\n      tag_295\n      jump\t// in\n    tag_568:\n        /* \"#utility.yul\":12968:13035   */\n      tag_569\n        /* \"#utility.yul\":13028:13034   */\n      dup3\n        /* \"#utility.yul\":13020:13026   */\n      dup3\n        /* \"#utility.yul\":13014:13018   */\n      dup6\n        /* \"#utility.yul\":12968:13035   */\n      tag_412\n      jump\t// in\n    tag_569:\n        /* \"#utility.yul\":13062:13063   */\n      0x00\n        /* \"#utility.yul\":13086:13090   */\n      0x20\n        /* \"#utility.yul\":13073:13090   */\n      swap1\n      pop\n        /* \"#utility.yul\":13118:13120   */\n      0x1f\n        /* \"#utility.yul\":13110:13116   */\n      dup4\n        /* \"#utility.yul\":13107:13121   */\n      gt\n        /* \"#utility.yul\":13135:13136   */\n      0x01\n        /* \"#utility.yul\":13130:13748   */\n      dup2\n      eq\n      tag_571\n      jumpi\n        /* \"#utility.yul\":13792:13793   */\n      0x00\n        /* \"#utility.yul\":13809:13815   */\n      dup5\n        /* \"#utility.yul\":13806:13883   */\n      iszero\n      tag_572\n      jumpi\n        /* \"#utility.yul\":13858:13867   */\n      dup3\n        /* \"#utility.yul\":13853:13856   */\n      dup8\n        /* \"#utility.yul\":13849:13868   */\n      add\n        /* \"#utility.yul\":13843:13869   */\n      mload\n        /* \"#utility.yul\":13834:13869   */\n      swap1\n      pop\n        /* \"#utility.yul\":13806:13883   */\n    tag_572:\n        /* \"#utility.yul\":13909:13976   */\n      tag_573\n        /* \"#utility.yul\":13969:13975   */\n      dup6\n        /* \"#utility.yul\":13962:13967   */\n      dup3\n        /* \"#utility.yul\":13909:13976   */\n      tag_415\n      jump\t// in\n    tag_573:\n        /* \"#utility.yul\":13903:13907   */\n      dup7\n        /* \"#utility.yul\":13896:13977   */\n      sstore\n        /* \"#utility.yul\":13765:13987   */\n      pop\n        /* \"#utility.yul\":13100:13987   */\n      jump(tag_570)\n        /* \"#utility.yul\":13130:13748   */\n    tag_571:\n        /* \"#utility.yul\":13182:13186   */\n      0x1f\n        /* \"#utility.yul\":13178:13187   */\n      not\n        /* \"#utility.yul\":13170:13176   */\n      dup5\n        /* \"#utility.yul\":13166:13188   */\n      and\n        /* \"#utility.yul\":13216:13253   */\n      tag_574\n        /* \"#utility.yul\":13248:13252   */\n      dup7\n        /* \"#utility.yul\":13216:13253   */\n      tag_401\n      jump\t// in\n    tag_574:\n        /* \"#utility.yul\":13275:13276   */\n      0x00\n        /* \"#utility.yul\":13289:13497   */\n    tag_575:\n        /* \"#utility.yul\":13303:13310   */\n      dup3\n        /* \"#utility.yul\":13300:13301   */\n      dup2\n        /* \"#utility.yul\":13297:13311   */\n      lt\n        /* \"#utility.yul\":13289:13497   */\n      iszero\n      tag_577\n      jumpi\n        /* \"#utility.yul\":13382:13391   */\n      dup5\n        /* \"#utility.yul\":13377:13380   */\n      dup10\n        /* \"#utility.yul\":13373:13392   */\n      add\n        /* \"#utility.yul\":13367:13393   */\n      mload\n        /* \"#utility.yul\":13359:13365   */\n      dup3\n        /* \"#utility.yul\":13352:13394   */\n      sstore\n        /* \"#utility.yul\":13433:13434   */\n      0x01\n        /* \"#utility.yul\":13425:13431   */\n      dup3\n        /* \"#utility.yul\":13421:13435   */\n      add\n        /* \"#utility.yul\":13411:13435   */\n      swap2\n      pop\n        /* \"#utility.yul\":13480:13482   */\n      0x20\n        /* \"#utility.yul\":13469:13478   */\n      dup6\n        /* \"#utility.yul\":13465:13483   */\n      add\n        /* \"#utility.yul\":13452:13483   */\n      swap5\n      pop\n        /* \"#utility.yul\":13326:13330   */\n      0x20\n        /* \"#utility.yul\":13323:13324   */\n      dup2\n        /* \"#utility.yul\":13319:13331   */\n      add\n        /* \"#utility.yul\":13314:13331   */\n      swap1\n      pop\n        /* \"#utility.yul\":13289:13497   */\n      jump(tag_575)\n    tag_577:\n        /* \"#utility.yul\":13525:13531   */\n      dup7\n        /* \"#utility.yul\":13516:13523   */\n      dup4\n        /* \"#utility.yul\":13513:13532   */\n      lt\n        /* \"#utility.yul\":13510:13689   */\n      iszero\n      tag_578\n      jumpi\n        /* \"#utility.yul\":13583:13592   */\n      dup5\n        /* \"#utility.yul\":13578:13581   */\n      dup10\n        /* \"#utility.yul\":13574:13593   */\n      add\n        /* \"#utility.yul\":13568:13594   */\n      mload\n        /* \"#utility.yul\":13626:13674   */\n      tag_579\n        /* \"#utility.yul\":13668:13672   */\n      0x1f\n        /* \"#utility.yul\":13660:13666   */\n      dup10\n        /* \"#utility.yul\":13656:13673   */\n      and\n        /* \"#utility.yul\":13645:13654   */\n      dup3\n        /* \"#utility.yul\":13626:13674   */\n      tag_414\n      jump\t// in\n    tag_579:\n        /* \"#utility.yul\":13618:13624   */\n      dup4\n        /* \"#utility.yul\":13611:13675   */\n      sstore\n        /* \"#utility.yul\":13533:13689   */\n      pop\n        /* \"#utility.yul\":13510:13689   */\n    tag_578:\n        /* \"#utility.yul\":13735:13736   */\n      0x01\n        /* \"#utility.yul\":13731:13732   */\n      0x02\n        /* \"#utility.yul\":13723:13729   */\n      dup9\n        /* \"#utility.yul\":13719:13733   */\n      mul\n        /* \"#utility.yul\":13715:13737   */\n      add\n        /* \"#utility.yul\":13709:13713   */\n      dup9\n        /* \"#utility.yul\":13702:13738   */\n      sstore\n        /* \"#utility.yul\":13137:13748   */\n      pop\n      pop\n      pop\n        /* \"#utility.yul\":13100:13987   */\n    tag_570:\n      pop\n        /* \"#utility.yul\":12690:13993   */\n      pop\n      pop\n      pop\n        /* \"#utility.yul\":12598:13993   */\n      pop\n      pop\n      jump\t// out\n        /* \"#utility.yul\":13999:14179   */\n    tag_416:\n        /* \"#utility.yul\":14047:14124   */\n      0x4e487b7100000000000000000000000000000000000000000000000000000000\n        /* \"#utility.yul\":14044:14045   */\n      0x00\n        /* \"#utility.yul\":14037:14125   */\n      mstore\n        /* \"#utility.yul\":14144:14148   */\n      0x11\n        /* \"#utility.yul\":14141:14142   */\n      0x04\n        /* \"#utility.yul\":14134:14149   */\n      mstore\n        /* \"#utility.yul\":14168:14172   */\n      0x24\n        /* \"#utility.yul\":14165:14166   */\n      0x00\n        /* \"#utility.yul\":14158:14173   */\n      revert\n        /* \"#utility.yul\":14185:14376   */\n    tag_186:\n        /* \"#utility.yul\":14225:14229   */\n      0x00\n        /* \"#utility.yul\":14245:14265   */\n      tag_582\n        /* \"#utility.yul\":14263:14264   */\n      dup3\n        /* \"#utility.yul\":14245:14265   */\n      tag_376\n      jump\t// in\n    tag_582:\n        /* \"#utility.yul\":14240:14265   */\n      swap2\n      pop\n        /* \"#utility.yul\":14279:14299   */\n      tag_583\n        /* \"#utility.yul\":14297:14298   */\n      dup4\n        /* \"#utility.yul\":14279:14299   */\n      tag_376\n      jump\t// in\n    tag_583:\n        /* \"#utility.yul\":14274:14299   */\n      swap3\n      pop\n        /* \"#utility.yul\":14318:14319   */\n      dup3\n        /* \"#utility.yul\":14315:14316   */\n      dup3\n        /* \"#utility.yul\":14312:14320   */\n      lt\n        /* \"#utility.yul\":14309:14343   */\n      iszero\n      tag_584\n      jumpi\n        /* \"#utility.yul\":14323:14341   */\n      tag_585\n      tag_416\n      jump\t// in\n    tag_585:\n        /* \"#utility.yul\":14309:14343   */\n    tag_584:\n        /* \"#utility.yul\":14368:14369   */\n      dup3\n        /* \"#utility.yul\":14365:14366   */\n      dup3\n        /* \"#utility.yul\":14361:14370   */\n      sub\n        /* \"#utility.yul\":14353:14370   */\n      swap1\n      pop\n        /* \"#utility.yul\":14185:14376   */\n      swap3\n      swap2\n      pop\n      pop\n      jump\t// out\n        /* \"#utility.yul\":14382:14730   */\n    tag_188:\n        /* \"#utility.yul\":14422:14429   */\n      0x00\n        /* \"#utility.yul\":14445:14465   */\n      tag_587\n        /* \"#utility.yul\":14463:14464   */\n      dup3\n        /* \"#utility.yul\":14445:14465   */\n      tag_376\n      jump\t// in\n    tag_587:\n        /* \"#utility.yul\":14440:14465   */\n      swap2\n      pop\n        /* \"#utility.yul\":14479:14499   */\n      tag_588\n        /* \"#utility.yul\":14497:14498   */\n      dup4\n        /* \"#utility.yul\":14479:14499   */\n      tag_376\n      jump\t// in\n    tag_588:\n        /* \"#utility.yul\":14474:14499   */\n      swap3\n      pop\n        /* \"#utility.yul\":14667:14668   */\n      dup2\n        /* \"#utility.yul\":14599:14665   */\n      0xffffffffffffffffffffffffffffffffffffffffffffffffffffffffffffffff\n        /* \"#utility.yul\":14595:14669   */\n      div\n        /* \"#utility.yul\":14592:14593   */\n      dup4\n        /* \"#utility.yul\":14589:14670   */\n      gt\n        /* \"#utility.yul\":14584:14585   */\n      dup3\n        /* \"#utility.yul\":14577:14586   */\n      iszero\n        /* \"#utility.yul\":14570:14587   */\n      iszero\n        /* \"#utility.yul\":14566:14671   */\n      and\n        /* \"#utility.yul\":14563:14694   */\n      iszero\n      tag_589\n      jumpi\n        /* \"#utility.yul\":14674:14692   */\n      tag_590\n      tag_416\n      jump\t// in\n    tag_590:\n        /* \"#utility.yul\":14563:14694   */\n    tag_589:\n        /* \"#utility.yul\":14722:14723   */\n      dup3\n        /* \"#utility.yul\":14719:14720   */\n      dup3\n        /* \"#utility.yul\":14715:14724   */\n      mul\n        /* \"#utility.yul\":14704:14724   */\n      swap1\n      pop\n        /* \"#utility.yul\":14382:14730   */\n      swap3\n      swap2\n      pop\n      pop\n      jump\t// out\n        /* \"#utility.yul\":14736:14916   */\n    tag_417:\n        /* \"#utility.yul\":14784:14861   */\n      0x4e487b7100000000000000000000000000000000000000000000000000000000\n        /* \"#utility.yul\":14781:14782   */\n      0x00\n        /* \"#utility.yul\":14774:14862   */\n      mstore\n        /* \"#utility.yul\":14881:14885   */\n      0x12\n        /* \"#utility.yul\":14878:14879   */\n      0x04\n        /* \"#utility.yul\":14871:14886   */\n      mstore\n        /* \"#utility.yul\":14905:14909   */\n      0x24\n        /* \"#utility.yul\":14902:14903   */\n      0x00\n        /* \"#utility.yul\":14895:14910   */\n      revert\n        /* \"#utility.yul\":14922:15107   */\n    tag_190:\n        /* \"#utility.yul\":14962:14963   */\n      0x00\n        /* \"#utility.yul\":14979:14999   */\n      tag_593\n        /* \"#utility.yul\":14997:14998   */\n      dup3\n        /* \"#utility.yul\":14979:14999   */\n      tag_376\n      jump\t// in\n    tag_593:\n        /* \"#utility.yul\":14974:14999   */\n      swap2\n      pop\n        /* \"#utility.yul\":15013:15033   */\n      tag_594\n        /* \"#utility.yul\":15031:15032   */\n      dup4\n        /* \"#utility.yul\":15013:15033   */\n      tag_376\n      jump\t// in\n    tag_594:\n        /* \"#utility.yul\":15008:15033   */\n      swap3\n      pop\n        /* \"#utility.yul\":15052:15053   */\n      dup3\n        /* \"#utility.yul\":15042:15077   */\n      tag_595\n      jumpi\n        /* \"#utility.yul\":15057:15075   */\n      tag_596\n      tag_417\n      jump\t// in\n    tag_596:\n        /* \"#utility.yul\":15042:15077   */\n    tag_595:\n        /* \"#utility.yul\":15099:15100   */\n      dup3\n        /* \"#utility.yul\":15096:15097   */\n      dup3\n        /* \"#utility.yul\":15092:15101   */\n      div\n        /* \"#utility.yul\":15087:15101   */\n      swap1\n      pop\n        /* \"#utility.yul\":14922:15107   */\n      swap3\n      swap2\n      pop\n      pop\n      jump\t// out\n        /* \"#utility.yul\":15113:15346   */\n    tag_213:\n        /* \"#utility.yul\":15152:15155   */\n      0x00\n        /* \"#utility.yul\":15175:15199   */\n      tag_598\n        /* \"#utility.yul\":15193:15198   */\n      dup3\n        /* \"#utility.yul\":15175:15199   */\n      tag_376\n      jump\t// in\n    tag_598:\n        /* \"#utility.yul\":15166:15199   */\n      swap2\n      pop\n        /* \"#utility.yul\":15221:15287   */\n      0xffffffffffffffffffffffffffffffffffffffffffffffffffffffffffffffff\n        /* \"#utility.yul\":15214:15219   */\n      dup3\n        /* \"#utility.yul\":15211:15288   */\n      sub\n        /* \"#utility.yul\":15208:15311   */\n      tag_599\n      jumpi\n        /* \"#utility.yul\":15291:15309   */\n      tag_600\n      tag_416\n      jump\t// in\n    tag_600:\n        /* \"#utility.yul\":15208:15311   */\n    tag_599:\n        /* \"#utility.yul\":15338:15339   */\n      0x01\n        /* \"#utility.yul\":15331:15336   */\n      dup3\n        /* \"#utility.yul\":15327:15340   */\n      add\n        /* \"#utility.yul\":15320:15340   */\n      swap1\n      pop\n        /* \"#utility.yul\":15113:15346   */\n      swap2\n      swap1\n      pop\n      jump\t// out\n        /* \"#utility.yul\":15352:15657   */\n    tag_257:\n        /* \"#utility.yul\":15392:15395   */\n      0x00\n        /* \"#utility.yul\":15411:15431   */\n      tag_602\n        /* \"#utility.yul\":15429:15430   */\n      dup3\n        /* \"#utility.yul\":15411:15431   */\n      tag_376\n      jump\t// in\n    tag_602:\n        /* \"#utility.yul\":15406:15431   */\n      swap2\n      pop\n        /* \"#utility.yul\":15445:15465   */\n      tag_603\n        /* \"#utility.yul\":15463:15464   */\n      dup4\n        /* \"#utility.yul\":15445:15465   */\n      tag_376\n      jump\t// in\n    tag_603:\n        /* \"#utility.yul\":15440:15465   */\n      swap3\n      pop\n        /* \"#utility.yul\":15599:15600   */\n      dup3\n        /* \"#utility.yul\":15531:15597   */\n      0xffffffffffffffffffffffffffffffffffffffffffffffffffffffffffffffff\n        /* \"#utility.yul\":15527:15601   */\n      sub\n        /* \"#utility.yul\":15524:15525   */\n      dup3\n        /* \"#utility.yul\":15521:15602   */\n      gt\n        /* \"#utility.yul\":15518:15625   */\n      iszero\n      tag_604\n      jumpi\n        /* \"#utility.yul\":15605:15623   */\n      tag_605\n      tag_416\n      jump\t// in\n    tag_605:\n        /* \"#utility.yul\":15518:15625   */\n    tag_604:\n        /* \"#utility.yul\":15649:15650   */\n      dup3\n        /* \"#utility.yul\":15646:15647   */\n      dup3\n        /* \"#utility.yul\":15642:15651   */\n      add\n        /* \"#utility.yul\":15635:15651   */\n      swap1\n      pop\n        /* \"#utility.yul\":15352:15657   */\n      swap3\n      swap2\n      pop\n      pop\n      jump\t// out\n\n    auxdata: 0xa2646970667358221220a6458267630fcce4c9ab42cd9c8059bd057cfc43040a49ca852715feedf3cc3564736f6c634300080f0033\n}\n","bytecode":{"linkReferences":{},"object":"608060405261032060005560646001556014600255600460035560006008553480156200002b57600080fd5b5060405162002b2c38038062002b2c8339818101604052810190620000519190620001f5565b80600560006101000a81548173ffffffffffffffffffffffffffffffffffffffff021916908373ffffffffffffffffffffffffffffffffffffffff16021790555081600460006101000a81548173ffffffffffffffffffffffffffffffffffffffff021916908373ffffffffffffffffffffffffffffffffffffffff16021790555083600d8190555042600e819055506201518083620000f2919062000296565b42620000ff9190620002f7565b6010819055506201518060025462000118919062000296565b42620001259190620002f7565b600f819055506000601160006101000a81548160ff0219169083151502179055505050505062000354565b600080fd5b6000819050919050565b6200016a8162000155565b81146200017657600080fd5b50565b6000815190506200018a816200015f565b92915050565b600073ffffffffffffffffffffffffffffffffffffffff82169050919050565b6000620001bd8262000190565b9050919050565b620001cf81620001b0565b8114620001db57600080fd5b50565b600081519050620001ef81620001c4565b92915050565b6000806000806080858703121562000212576200021162000150565b5b6000620002228782880162000179565b9450506020620002358782880162000179565b93505060406200024887828801620001de565b92505060606200025b87828801620001de565b91505092959194509250565b7f4e487b7100000000000000000000000000000000000000000000000000000000600052601160045260246000fd5b6000620002a38262000155565b9150620002b08362000155565b9250817fffffffffffffffffffffffffffffffffffffffffffffffffffffffffffffffff0483118215151615620002ec57620002eb62000267565b5b828202905092915050565b6000620003048262000155565b9150620003118362000155565b9250827fffffffffffffffffffffffffffffffffffffffffffffffffffffffffffffffff0382111562000349576200034862000267565b5b828201905092915050565b6127c880620003646000396000f3fe6080604052600436106101cc5760003560e01c8063937e09b1116100f7578063d789824011610095578063f63f965511610064578063f63f965514610651578063fbae5e7d14610692578063fd74d294146106cf578063fda263e8146106fa576101cc565b8063d789824014610595578063d7d1bbdb146105d2578063e028a693146105fb578063e0d370ac14610626576101cc565b8063a4758c9a116100d1578063a4758c9a146104f8578063acdb834114610523578063b2f8be5c1461054e578063b688a3631461058b576101cc565b8063937e09b11461047257806398e1b4101461049d578063999cc5ca146104bb576101cc565b8063364548cd1161016f5780635fb02f4d1161013e5780635fb02f4d14610402578063789b2e6c14610419578063864a53dc146104305780638975aa0814610447576101cc565b8063364548cd146103325780633ba20f2a1461036f5780633d22aea81461039a578063481c6a75146103d7576101cc565b80632ef3fa27116101ab5780632ef3fa27146102745780632f5274e31461029f57806331d0e40f146102ca57806332b7acec146102f5576101cc565b806260929a146101d15780631e28528e1461020e5780632b84b3161461024b575b600080fd5b3480156101dd57600080fd5b506101f860048036038101906101f39190611eac565b610725565b6040516102059190611f07565b60405180910390f35b34801561021a57600080fd5b5061023560048036038101906102309190611f22565b6107a4565b6040516102429190611f07565b60405180910390f35b34801561025757600080fd5b50610272600480360381019061026d9190612095565b6107c4565b005b34801561028057600080fd5b50610289610875565b604051610296919061212f565b60405180910390f35b3480156102ab57600080fd5b506102b46108a4565b6040516102c1919061212f565b60405180910390f35b3480156102d657600080fd5b506102df6108aa565b6040516102ec919061212f565b60405180910390f35b34801561030157600080fd5b5061031c60048036038101906103179190611f22565b6108b0565b604051610329919061212f565b60405180910390f35b34801561033e57600080fd5b5061035960048036038101906103549190611f22565b6108c8565b6040516103669190611f07565b60405180910390f35b34801561037b57600080fd5b506103846108e8565b604051610391919061212f565b60405180910390f35b3480156103a657600080fd5b506103c160048036038101906103bc919061214a565b6108ee565b6040516103ce9190611f07565b60405180910390f35b3480156103e357600080fd5b506103ec610a43565b6040516103f99190612186565b60405180910390f35b34801561040e57600080fd5b50610417610a69565b005b34801561042557600080fd5b5061042e610ba0565b005b34801561043c57600080fd5b50610445610e24565b005b34801561045357600080fd5b5061045c610f98565b604051610469919061212f565b60405180910390f35b34801561047e57600080fd5b50610487610f9e565b604051610494919061212f565b60405180910390f35b6104a5610fa4565b6040516104b29190611f07565b60405180910390f35b3480156104c757600080fd5b506104e260048036038101906104dd9190611f22565b610fad565b6040516104ef9190611f07565b60405180910390f35b34801561050457600080fd5b5061050d610fcd565b60405161051a919061212f565b60405180910390f35b34801561052f57600080fd5b50610538610fd3565b604051610545919061212f565b60405180910390f35b34801561055a57600080fd5b50610575600480360381019061057091906121a1565b6110eb565b6040516105829190611f07565b60405180910390f35b610593611336565b005b3480156105a157600080fd5b506105bc60048036038101906105b79190611f22565b611467565b6040516105c9919061212f565b60405180910390f35b3480156105de57600080fd5b506105f960048036038101906105f4919061214a565b61147f565b005b34801561060757600080fd5b506106106115cc565b60405161061d919061212f565b60405180910390f35b34801561063257600080fd5b5061063b6115d2565b6040516106489190612186565b60405180910390f35b34801561065d57600080fd5b506106786004803603810190610673919061214a565b6115f8565b604051610689959493929190612269565b60405180910390f35b34801561069e57600080fd5b506106b960048036038101906106b4919061214a565b61175b565b6040516106c69190612186565b60405180910390f35b3480156106db57600080fd5b506106e461179a565b6040516106f1919061212f565b60405180910390f35b34801561070657600080fd5b5061070f6117a0565b60405161071c919061212f565b60405180910390f35b6000806012848154811061073c5761073b6122ca565b5b906000526020600020906006020190508060050160008473ffffffffffffffffffffffffffffffffffffffff1673ffffffffffffffffffffffffffffffffffffffff16815260200190815260200160002060009054906101000a900460ff1691505092915050565b60066020528060005260406000206000915054906101000a900460ff1681565b600460009054906101000a900473ffffffffffffffffffffffffffffffffffffffff1673ffffffffffffffffffffffffffffffffffffffff163373ffffffffffffffffffffffffffffffffffffffff161461081e57600080fd5b600060126001816001815401808255809150500390600052602060002090600602019050828160000190816108539190612505565b508181600201819055508381600101908161086e9190612505565b5050505050565b60006103e86001546103e861088a9190612606565b47610895919061263a565b61089f91906126c3565b905090565b60175481565b60155481565b600b6020528060005260406000206000915090505481565b60076020528060005260406000206000915054906101000a900460ff1681565b600f5481565b600060011515601160009054906101000a900460ff1615151461091057600080fd5b600460009054906101000a900473ffffffffffffffffffffffffffffffffffffffff1673ffffffffffffffffffffffffffffffffffffffff163373ffffffffffffffffffffffffffffffffffffffff161461096a57600080fd5b6000601283815481106109805761097f6122ca565b5b90600052602060002090600602019050600260035461099f91906126c3565b816004015410156109af57600080fd5b600560009054906101000a900473ffffffffffffffffffffffffffffffffffffffff1673ffffffffffffffffffffffffffffffffffffffff166108fc82600201549081150290604051600060405180830381858888f19350505050158015610a1b573d6000803e3d6000fd5b5060018160030160006101000a81548160ff0219169083151502179055506001915050919050565b600460009054906101000a900473ffffffffffffffffffffffffffffffffffffffff1681565b6001601160006101000a81548160ff0219169083151502179055506000479050600080600090505b600980549050811015610b9357600060098281548110610ab457610ab36122ca565b5b9060005260206000200160009054906101000a900473ffffffffffffffffffffffffffffffffffffffff169050600a60008273ffffffffffffffffffffffffffffffffffffffff1673ffffffffffffffffffffffffffffffffffffffff168152602001908152602001600020549250836103e884610b32919061263a565b610b3c91906126c3565b600b60008373ffffffffffffffffffffffffffffffffffffffff1673ffffffffffffffffffffffffffffffffffffffff16815260200190815260200160002081905550508080610b8b906126f4565b915050610a91565b50610b9c6117a6565b5050565b6002600354610baf91906126c3565b600854101580610bd2575060001515601160009054906101000a900460ff161515145b610bdb57600080fd5b600560009054906101000a900473ffffffffffffffffffffffffffffffffffffffff1673ffffffffffffffffffffffffffffffffffffffff163373ffffffffffffffffffffffffffffffffffffffff1614610c3557600080fd5b610c3d610875565b60168190555060005b600980549050811015610daf57600060098281548110610c6957610c686122ca565b5b9060005260206000200160009054906101000a900473ffffffffffffffffffffffffffffffffffffffff16905060001515600c60008373ffffffffffffffffffffffffffffffffffffffff1673ffffffffffffffffffffffffffffffffffffffff16815260200190815260200160002060009054906101000a900460ff16151503610d9b576000600b60008373ffffffffffffffffffffffffffffffffffffffff1673ffffffffffffffffffffffffffffffffffffffff16815260200190815260200160002054905060006103e860165483610d45919061263a565b610d4f91906126c3565b90508273ffffffffffffffffffffffffffffffffffffffff166108fc829081150290604051600060405180830381858888f19350505050158015610d97573d6000803e3d6000fd5b5050505b508080610da7906126f4565b915050610c46565b5047601581905550600460009054906101000a900473ffffffffffffffffffffffffffffffffffffffff1673ffffffffffffffffffffffffffffffffffffffff166108fc6015549081150290604051600060405180830381858888f19350505050158015610e21573d6000803e3d6000fd5b50565b60011515601160009054906101000a900460ff16151514610e4457600080fd5b600660003373ffffffffffffffffffffffffffffffffffffffff1673ffffffffffffffffffffffffffffffffffffffff16815260200190815260200160002060009054906101000a900460ff16610e9a57600080fd5b60001515600760003373ffffffffffffffffffffffffffffffffffffffff1673ffffffffffffffffffffffffffffffffffffffff16815260200190815260200160002060009054906101000a900460ff16151503610f63576001600760003373ffffffffffffffffffffffffffffffffffffffff1673ffffffffffffffffffffffffffffffffffffffff16815260200190815260200160002060006101000a81548160ff02191690831515021790555060086000815480929190610f5d906126f4565b91905055505b6002600354610f7291906126c3565b60085410610f96576000601160006101000a81548160ff0219169083151502179055505b565b60145481565b600d5481565b60006001905090565b600c6020528060005260406000206000915054906101000a900460ff1681565b60165481565b60008060005b6009805490508110156110e357600060098281548110610ffc57610ffb6122ca565b5b9060005260206000200160009054906101000a900473ffffffffffffffffffffffffffffffffffffffff16905060001515600c60008373ffffffffffffffffffffffffffffffffffffffff1673ffffffffffffffffffffffffffffffffffffffff16815260200190815260200160002060009054906101000a900460ff161515036110cf57600b60008273ffffffffffffffffffffffffffffffffffffffff1673ffffffffffffffffffffffffffffffffffffffff16815260200190815260200160002054836110cc919061273c565b92505b5080806110db906126f4565b915050610fd9565b508091505090565b600060011515601160009054906101000a900460ff1615151461110d57600080fd5b600560009054906101000a900473ffffffffffffffffffffffffffffffffffffffff1673ffffffffffffffffffffffffffffffffffffffff163373ffffffffffffffffffffffffffffffffffffffff161461116757600080fd5b60001515600660003373ffffffffffffffffffffffffffffffffffffffff1673ffffffffffffffffffffffffffffffffffffffff16815260200190815260200160002060009054906101000a900460ff161515146111c457600080fd5b6000600b60008573ffffffffffffffffffffffffffffffffffffffff1673ffffffffffffffffffffffffffffffffffffffff1681526020019081526020016000205490506000611212610875565b8461121d919061273c565b905060006103e86000546103e88585611236919061263a565b61124091906126c3565b61124a919061263a565b61125491906126c3565b905080601481905550478111611328576014546017819055508573ffffffffffffffffffffffffffffffffffffffff166108fc829081150290604051600060405180830381858888f193505050501580156112b3573d6000803e3d6000fd5b506001600c60008873ffffffffffffffffffffffffffffffffffffffff1673ffffffffffffffffffffffffffffffffffffffff16815260200190815260200160002060006101000a81548160ff0219169083151502179055508060138190555061131c83611c8c565b60019350505050611330565b600093505050505b92915050565b60001515601160009054906101000a900460ff1615151461135657600080fd5b6000600a60003373ffffffffffffffffffffffffffffffffffffffff1673ffffffffffffffffffffffffffffffffffffffff1681526020019081526020016000205490506000810361141557600d543410156113b157600080fd5b6009339080600181540180825580915050600190039060005260206000200160009091909190916101000a81548173ffffffffffffffffffffffffffffffffffffffff021916908373ffffffffffffffffffffffffffffffffffffffff1602179055505b3481611421919061273c565b600a60003373ffffffffffffffffffffffffffffffffffffffff1673ffffffffffffffffffffffffffffffffffffffff1681526020019081526020016000208190555050565b600a6020528060005260406000206000915090505481565b600660003373ffffffffffffffffffffffffffffffffffffffff1673ffffffffffffffffffffffffffffffffffffffff16815260200190815260200160002060009054906101000a900460ff166114d557600080fd5b6000601282815481106114eb576114ea6122ca565b5b906000526020600020906006020190508060050160003373ffffffffffffffffffffffffffffffffffffffff1673ffffffffffffffffffffffffffffffffffffffff16815260200190815260200160002060009054906101000a900460ff161561155457600080fd5b60018160050160003373ffffffffffffffffffffffffffffffffffffffff1673ffffffffffffffffffffffffffffffffffffffff16815260200190815260200160002060006101000a81548160ff0219169083151502179055508060040160008154809291906115c3906126f4565b91905055505050565b60135481565b600560009054906101000a900473ffffffffffffffffffffffffffffffffffffffff1681565b6012818154811061160857600080fd5b906000526020600020906006020160009150905080600001805461162b90612328565b80601f016020809104026020016040519081016040528092919081815260200182805461165790612328565b80156116a45780601f10611679576101008083540402835291602001916116a4565b820191906000526020600020905b81548152906001019060200180831161168757829003601f168201915b5050505050908060010180546116b990612328565b80601f01602080910402602001604051908101604052809291908181526020018280546116e590612328565b80156117325780601f1061170757610100808354040283529160200191611732565b820191906000526020600020905b81548152906001019060200180831161171557829003601f168201915b5050505050908060020154908060030160009054906101000a900460ff16908060040154905085565b6009818154811061176b57600080fd5b906000526020600020016000915054906101000a900473ffffffffffffffffffffffffffffffffffffffff1681565b600e5481565b60105481565b600060035467ffffffffffffffff8111156117c4576117c3611f6a565b5b6040519080825280602002602001820160405280156117f25781602001602082028036833780820191505090505b509050600060035467ffffffffffffffff81111561181357611812611f6a565b5b6040519080825280602002602001820160405280156118415781602001602082028036833780820191505090505b509050600080600090506000806009600081548110611863576118626122ca565b5b9060005260206000200160009054906101000a900473ffffffffffffffffffffffffffffffffffffffff16905080866000815181106118a5576118a46122ca565b5b602002602001019073ffffffffffffffffffffffffffffffffffffffff16908173ffffffffffffffffffffffffffffffffffffffff1681525050600a60008273ffffffffffffffffffffffffffffffffffffffff1673ffffffffffffffffffffffffffffffffffffffff1681526020019081526020016000205493508385600081518110611936576119356122ca565b5b6020026020010181815250506000600190505b600354811015611a665760098181548110611967576119666122ca565b5b9060005260206000200160009054906101000a900473ffffffffffffffffffffffffffffffffffffffff169150818782815181106119a8576119a76122ca565b5b602002602001019073ffffffffffffffffffffffffffffffffffffffff16908173ffffffffffffffffffffffffffffffffffffffff1681525050600a60008373ffffffffffffffffffffffffffffffffffffffff1673ffffffffffffffffffffffffffffffffffffffff16815260200190815260200160002054925082868281518110611a3857611a376122ca565b5b60200260200101818152505082851115611a53578294508093505b8080611a5e906126f4565b915050611949565b50600060035490505b600980549050811015611bf05760098181548110611a9057611a8f6122ca565b5b9060005260206000200160009054906101000a900473ffffffffffffffffffffffffffffffffffffffff169150600a60008373ffffffffffffffffffffffffffffffffffffffff1673ffffffffffffffffffffffffffffffffffffffff16815260200190815260200160002054925084831115611bdd5781878581518110611b1b57611b1a6122ca565b5b602002602001019073ffffffffffffffffffffffffffffffffffffffff16908173ffffffffffffffffffffffffffffffffffffffff168152505082868581518110611b6957611b686122ca565b5b60200260200101818152505082945060005b600354811015611bdb5785878281518110611b9957611b986122ca565b5b60200260200101511015611bc857868181518110611bba57611bb96122ca565b5b602002602001015195508094505b8080611bd3906126f4565b915050611b7b565b505b8080611be8906126f4565b915050611a6f565b5060005b600354811015611c8357600160066000898481518110611c1757611c166122ca565b5b602002602001015173ffffffffffffffffffffffffffffffffffffffff1673ffffffffffffffffffffffffffffffffffffffff16815260200190815260200160002060006101000a81548160ff0219169083151502179055508080611c7b906126f4565b915050611bf4565b50505050505050565b6000816103e8611c9c9190612606565b905060005b600980549050811015611dff57600060098281548110611cc457611cc36122ca565b5b9060005260206000200160009054906101000a900473ffffffffffffffffffffffffffffffffffffffff16905060001515600c60008373ffffffffffffffffffffffffffffffffffffffff1673ffffffffffffffffffffffffffffffffffffffff16815260200190815260200160002060009054906101000a900460ff16151503611deb576000836103e8600b60008573ffffffffffffffffffffffffffffffffffffffff1673ffffffffffffffffffffffffffffffffffffffff16815260200190815260200160002054611d99919061263a565b611da391906126c3565b905080600b60008473ffffffffffffffffffffffffffffffffffffffff1673ffffffffffffffffffffffffffffffffffffffff16815260200190815260200160002081905550505b508080611df7906126f4565b915050611ca1565b505050565b6000604051905090565b600080fd5b600080fd5b6000819050919050565b611e2b81611e18565b8114611e3657600080fd5b50565b600081359050611e4881611e22565b92915050565b600073ffffffffffffffffffffffffffffffffffffffff82169050919050565b6000611e7982611e4e565b9050919050565b611e8981611e6e565b8114611e9457600080fd5b50565b600081359050611ea681611e80565b92915050565b60008060408385031215611ec357611ec2611e0e565b5b6000611ed185828601611e39565b9250506020611ee285828601611e97565b9150509250929050565b60008115159050919050565b611f0181611eec565b82525050565b6000602082019050611f1c6000830184611ef8565b92915050565b600060208284031215611f3857611f37611e0e565b5b6000611f4684828501611e97565b91505092915050565b600080fd5b600080fd5b6000601f19601f8301169050919050565b7f4e487b7100000000000000000000000000000000000000000000000000000000600052604160045260246000fd5b611fa282611f59565b810181811067ffffffffffffffff82111715611fc157611fc0611f6a565b5b80604052505050565b6000611fd4611e04565b9050611fe08282611f99565b919050565b600067ffffffffffffffff82111561200057611fff611f6a565b5b61200982611f59565b9050602081019050919050565b82818337600083830152505050565b600061203861203384611fe5565b611fca565b90508281526020810184848401111561205457612053611f54565b5b61205f848285612016565b509392505050565b600082601f83011261207c5761207b611f4f565b5b813561208c848260208601612025565b91505092915050565b6000806000606084860312156120ae576120ad611e0e565b5b600084013567ffffffffffffffff8111156120cc576120cb611e13565b5b6120d886828701612067565b935050602084013567ffffffffffffffff8111156120f9576120f8611e13565b5b61210586828701612067565b925050604061211686828701611e39565b9150509250925092565b61212981611e18565b82525050565b60006020820190506121446000830184612120565b92915050565b6000602082840312156121605761215f611e0e565b5b600061216e84828501611e39565b91505092915050565b61218081611e6e565b82525050565b600060208201905061219b6000830184612177565b92915050565b600080604083850312156121b8576121b7611e0e565b5b60006121c685828601611e97565b92505060206121d785828601611e39565b9150509250929050565b600081519050919050565b600082825260208201905092915050565b60005b8381101561221b578082015181840152602081019050612200565b8381111561222a576000848401525b50505050565b600061223b826121e1565b61224581856121ec565b93506122558185602086016121fd565b61225e81611f59565b840191505092915050565b600060a08201905081810360008301526122838188612230565b905081810360208301526122978187612230565b90506122a66040830186612120565b6122b36060830185611ef8565b6122c06080830184612120565b9695505050505050565b7f4e487b7100000000000000000000000000000000000000000000000000000000600052603260045260246000fd5b7f4e487b7100000000000000000000000000000000000000000000000000000000600052602260045260246000fd5b6000600282049050600182168061234057607f821691505b602082108103612353576123526122f9565b5b50919050565b60008190508160005260206000209050919050565b60006020601f8301049050919050565b600082821b905092915050565b6000600883026123bb7fffffffffffffffffffffffffffffffffffffffffffffffffffffffffffffffff8261237e565b6123c5868361237e565b95508019841693508086168417925050509392505050565b6000819050919050565b60006124026123fd6123f884611e18565b6123dd565b611e18565b9050919050565b6000819050919050565b61241c836123e7565b61243061242882612409565b84845461238b565b825550505050565b600090565b612445612438565b612450818484612413565b505050565b5b818110156124745761246960008261243d565b600181019050612456565b5050565b601f8211156124b95761248a81612359565b6124938461236e565b810160208510156124a2578190505b6124b66124ae8561236e565b830182612455565b50505b505050565b600082821c905092915050565b60006124dc600019846008026124be565b1980831691505092915050565b60006124f583836124cb565b9150826002028217905092915050565b61250e826121e1565b67ffffffffffffffff81111561252757612526611f6a565b5b6125318254612328565b61253c828285612478565b600060209050601f83116001811461256f576000841561255d578287015190505b61256785826124e9565b8655506125cf565b601f19841661257d86612359565b60005b828110156125a557848901518255600182019150602085019450602081019050612580565b868310156125c257848901516125be601f8916826124cb565b8355505b6001600288020188555050505b505050505050565b7f4e487b7100000000000000000000000000000000000000000000000000000000600052601160045260246000fd5b600061261182611e18565b915061261c83611e18565b92508282101561262f5761262e6125d7565b5b828203905092915050565b600061264582611e18565b915061265083611e18565b9250817fffffffffffffffffffffffffffffffffffffffffffffffffffffffffffffffff0483118215151615612689576126886125d7565b5b828202905092915050565b7f4e487b7100000000000000000000000000000000000000000000000000000000600052601260045260246000fd5b60006126ce82611e18565b91506126d983611e18565b9250826126e9576126e8612694565b5b828204905092915050565b60006126ff82611e18565b91507fffffffffffffffffffffffffffffffffffffffffffffffffffffffffffffffff8203612731576127306125d7565b5b600182019050919050565b600061274782611e18565b915061275283611e18565b9250827fffffffffffffffffffffffffffffffffffffffffffffffffffffffffffffffff03821115612787576127866125d7565b5b82820190509291505056fea2646970667358221220a6458267630fcce4c9ab42cd9c8059bd057cfc43040a49ca852715feedf3cc3564736f6c634300080f0033","opcodes":"PUSH1 0x80 PUSH1 0x40 MSTORE PUSH2 0x320 PUSH1 0x0 SSTORE PUSH1 0x64 PUSH1 0x1 SSTORE PUSH1 0x14 PUSH1 0x2 SSTORE PUSH1 0x4 PUSH1 0x3 SSTORE PUSH1 0x0 PUSH1 0x8 SSTORE CALLVALUE DUP1 ISZERO PUSH3 0x2B JUMPI PUSH1 0x0 DUP1 REVERT JUMPDEST POP PUSH1 0x40 MLOAD PUSH3 0x2B2C CODESIZE SUB DUP1 PUSH3 0x2B2C DUP4 CODECOPY DUP2 DUP2 ADD PUSH1 0x40 MSTORE DUP2 ADD SWAP1 PUSH3 0x51 SWAP2 SWAP1 PUSH3 0x1F5 JUMP JUMPDEST DUP1 PUSH1 0x5 PUSH1 0x0 PUSH2 0x100 EXP DUP2 SLOAD DUP2 PUSH20 0xFFFFFFFFFFFFFFFFFFFFFFFFFFFFFFFFFFFFFFFF MUL NOT AND SWAP1 DUP4 PUSH20 0xFFFFFFFFFFFFFFFFFFFFFFFFFFFFFFFFFFFFFFFF AND MUL OR SWAP1 SSTORE POP DUP2 PUSH1 0x4 PUSH1 0x0 PUSH2 0x100 EXP DUP2 SLOAD DUP2 PUSH20 0xFFFFFFFFFFFFFFFFFFFFFFFFFFFFFFFFFFFFFFFF MUL NOT AND SWAP1 DUP4 PUSH20 0xFFFFFFFFFFFFFFFFFFFFFFFFFFFFFFFFFFFFFFFF AND MUL OR SWAP1 SSTORE POP DUP4 PUSH1 0xD DUP2 SWAP1 SSTORE POP TIMESTAMP PUSH1 0xE DUP2 SWAP1 SSTORE POP PUSH3 0x15180 DUP4 PUSH3 0xF2 SWAP2 SWAP1 PUSH3 0x296 JUMP JUMPDEST TIMESTAMP PUSH3 0xFF SWAP2 SWAP1 PUSH3 0x2F7 JUMP JUMPDEST PUSH1 0x10 DUP2 SWAP1 SSTORE POP PUSH3 0x15180 PUSH1 0x2 SLOAD PUSH3 0x118 SWAP2 SWAP1 PUSH3 0x296 JUMP JUMPDEST TIMESTAMP PUSH3 0x125 SWAP2 SWAP1 PUSH3 0x2F7 JUMP JUMPDEST PUSH1 0xF DUP2 SWAP1 SSTORE POP PUSH1 0x0 PUSH1 0x11 PUSH1 0x0 PUSH2 0x100 EXP DUP2 SLOAD DUP2 PUSH1 0xFF MUL NOT AND SWAP1 DUP4 ISZERO ISZERO MUL OR SWAP1 SSTORE POP POP POP POP POP PUSH3 0x354 JUMP JUMPDEST PUSH1 0x0 DUP1 REVERT JUMPDEST PUSH1 0x0 DUP2 SWAP1 POP SWAP2 SWAP1 POP JUMP JUMPDEST PUSH3 0x16A DUP2 PUSH3 0x155 JUMP JUMPDEST DUP2 EQ PUSH3 0x176 JUMPI PUSH1 0x0 DUP1 REVERT JUMPDEST POP JUMP JUMPDEST PUSH1 0x0 DUP2 MLOAD SWAP1 POP PUSH3 0x18A DUP2 PUSH3 0x15F JUMP JUMPDEST SWAP3 SWAP2 POP POP JUMP JUMPDEST PUSH1 0x0 PUSH20 0xFFFFFFFFFFFFFFFFFFFFFFFFFFFFFFFFFFFFFFFF DUP3 AND SWAP1 POP SWAP2 SWAP1 POP JUMP JUMPDEST PUSH1 0x0 PUSH3 0x1BD DUP3 PUSH3 0x190 JUMP JUMPDEST SWAP1 POP SWAP2 SWAP1 POP JUMP JUMPDEST PUSH3 0x1CF DUP2 PUSH3 0x1B0 JUMP JUMPDEST DUP2 EQ PUSH3 0x1DB JUMPI PUSH1 0x0 DUP1 REVERT JUMPDEST POP JUMP JUMPDEST PUSH1 0x0 DUP2 MLOAD SWAP1 POP PUSH3 0x1EF DUP2 PUSH3 0x1C4 JUMP JUMPDEST SWAP3 SWAP2 POP POP JUMP JUMPDEST PUSH1 0x0 DUP1 PUSH1 0x0 DUP1 PUSH1 0x80 DUP6 DUP8 SUB SLT ISZERO PUSH3 0x212 JUMPI PUSH3 0x211 PUSH3 0x150 JUMP JUMPDEST JUMPDEST PUSH1 0x0 PUSH3 0x222 DUP8 DUP3 DUP9 ADD PUSH3 0x179 JUMP JUMPDEST SWAP5 POP POP PUSH1 0x20 PUSH3 0x235 DUP8 DUP3 DUP9 ADD PUSH3 0x179 JUMP JUMPDEST SWAP4 POP POP PUSH1 0x40 PUSH3 0x248 DUP8 DUP3 DUP9 ADD PUSH3 0x1DE JUMP JUMPDEST SWAP3 POP POP PUSH1 0x60 PUSH3 0x25B DUP8 DUP3 DUP9 ADD PUSH3 0x1DE JUMP JUMPDEST SWAP2 POP POP SWAP3 SWAP6 SWAP2 SWAP5 POP SWAP3 POP JUMP JUMPDEST PUSH32 0x4E487B7100000000000000000000000000000000000000000000000000000000 PUSH1 0x0 MSTORE PUSH1 0x11 PUSH1 0x4 MSTORE PUSH1 0x24 PUSH1 0x0 REVERT JUMPDEST PUSH1 0x0 PUSH3 0x2A3 DUP3 PUSH3 0x155 JUMP JUMPDEST SWAP2 POP PUSH3 0x2B0 DUP4 PUSH3 0x155 JUMP JUMPDEST SWAP3 POP DUP2 PUSH32 0xFFFFFFFFFFFFFFFFFFFFFFFFFFFFFFFFFFFFFFFFFFFFFFFFFFFFFFFFFFFFFFFF DIV DUP4 GT DUP3 ISZERO ISZERO AND ISZERO PUSH3 0x2EC JUMPI PUSH3 0x2EB PUSH3 0x267 JUMP JUMPDEST JUMPDEST DUP3 DUP3 MUL SWAP1 POP SWAP3 SWAP2 POP POP JUMP JUMPDEST PUSH1 0x0 PUSH3 0x304 DUP3 PUSH3 0x155 JUMP JUMPDEST SWAP2 POP PUSH3 0x311 DUP4 PUSH3 0x155 JUMP JUMPDEST SWAP3 POP DUP3 PUSH32 0xFFFFFFFFFFFFFFFFFFFFFFFFFFFFFFFFFFFFFFFFFFFFFFFFFFFFFFFFFFFFFFFF SUB DUP3 GT ISZERO PUSH3 0x349 JUMPI PUSH3 0x348 PUSH3 0x267 JUMP JUMPDEST JUMPDEST DUP3 DUP3 ADD SWAP1 POP SWAP3 SWAP2 POP POP JUMP JUMPDEST PUSH2 0x27C8 DUP1 PUSH3 0x364 PUSH1 0x0 CODECOPY PUSH1 0x0 RETURN INVALID PUSH1 0x80 PUSH1 0x40 MSTORE PUSH1 0x4 CALLDATASIZE LT PUSH2 0x1CC JUMPI PUSH1 0x0 CALLDATALOAD PUSH1 0xE0 SHR DUP1 PUSH4 0x937E09B1 GT PUSH2 0xF7 JUMPI DUP1 PUSH4 0xD7898240 GT PUSH2 0x95 JUMPI DUP1 PUSH4 0xF63F9655 GT PUSH2 0x64 JUMPI DUP1 PUSH4 0xF63F9655 EQ PUSH2 0x651 JUMPI DUP1 PUSH4 0xFBAE5E7D EQ PUSH2 0x692 JUMPI DUP1 PUSH4 0xFD74D294 EQ PUSH2 0x6CF JUMPI DUP1 PUSH4 0xFDA263E8 EQ PUSH2 0x6FA JUMPI PUSH2 0x1CC JUMP JUMPDEST DUP1 PUSH4 0xD7898240 EQ PUSH2 0x595 JUMPI DUP1 PUSH4 0xD7D1BBDB EQ PUSH2 0x5D2 JUMPI DUP1 PUSH4 0xE028A693 EQ PUSH2 0x5FB JUMPI DUP1 PUSH4 0xE0D370AC EQ PUSH2 0x626 JUMPI PUSH2 0x1CC JUMP JUMPDEST DUP1 PUSH4 0xA4758C9A GT PUSH2 0xD1 JUMPI DUP1 PUSH4 0xA4758C9A EQ PUSH2 0x4F8 JUMPI DUP1 PUSH4 0xACDB8341 EQ PUSH2 0x523 JUMPI DUP1 PUSH4 0xB2F8BE5C EQ PUSH2 0x54E JUMPI DUP1 PUSH4 0xB688A363 EQ PUSH2 0x58B JUMPI PUSH2 0x1CC JUMP JUMPDEST DUP1 PUSH4 0x937E09B1 EQ PUSH2 0x472 JUMPI DUP1 PUSH4 0x98E1B410 EQ PUSH2 0x49D JUMPI DUP1 PUSH4 0x999CC5CA EQ PUSH2 0x4BB JUMPI PUSH2 0x1CC JUMP JUMPDEST DUP1 PUSH4 0x364548CD GT PUSH2 0x16F JUMPI DUP1 PUSH4 0x5FB02F4D GT PUSH2 0x13E JUMPI DUP1 PUSH4 0x5FB02F4D EQ PUSH2 0x402 JUMPI DUP1 PUSH4 0x789B2E6C EQ PUSH2 0x419 JUMPI DUP1 PUSH4 0x864A53DC EQ PUSH2 0x430 JUMPI DUP1 PUSH4 0x8975AA08 EQ PUSH2 0x447 JUMPI PUSH2 0x1CC JUMP JUMPDEST DUP1 PUSH4 0x364548CD EQ PUSH2 0x332 JUMPI DUP1 PUSH4 0x3BA20F2A EQ PUSH2 0x36F JUMPI DUP1 PUSH4 0x3D22AEA8 EQ PUSH2 0x39A JUMPI DUP1 PUSH4 0x481C6A75 EQ PUSH2 0x3D7 JUMPI PUSH2 0x1CC JUMP JUMPDEST DUP1 PUSH4 0x2EF3FA27 GT PUSH2 0x1AB JUMPI DUP1 PUSH4 0x2EF3FA27 EQ PUSH2 0x274 JUMPI DUP1 PUSH4 0x2F5274E3 EQ PUSH2 0x29F JUMPI DUP1 PUSH4 0x31D0E40F EQ PUSH2 0x2CA JUMPI DUP1 PUSH4 0x32B7ACEC EQ PUSH2 0x2F5 JUMPI PUSH2 0x1CC JUMP JUMPDEST DUP1 PUSH3 0x60929A EQ PUSH2 0x1D1 JUMPI DUP1 PUSH4 0x1E28528E EQ PUSH2 0x20E JUMPI DUP1 PUSH4 0x2B84B316 EQ PUSH2 0x24B JUMPI JUMPDEST PUSH1 0x0 DUP1 REVERT JUMPDEST CALLVALUE DUP1 ISZERO PUSH2 0x1DD JUMPI PUSH1 0x0 DUP1 REVERT JUMPDEST POP PUSH2 0x1F8 PUSH1 0x4 DUP1 CALLDATASIZE SUB DUP2 ADD SWAP1 PUSH2 0x1F3 SWAP2 SWAP1 PUSH2 0x1EAC JUMP JUMPDEST PUSH2 0x725 JUMP JUMPDEST PUSH1 0x40 MLOAD PUSH2 0x205 SWAP2 SWAP1 PUSH2 0x1F07 JUMP JUMPDEST PUSH1 0x40 MLOAD DUP1 SWAP2 SUB SWAP1 RETURN JUMPDEST CALLVALUE DUP1 ISZERO PUSH2 0x21A JUMPI PUSH1 0x0 DUP1 REVERT JUMPDEST POP PUSH2 0x235 PUSH1 0x4 DUP1 CALLDATASIZE SUB DUP2 ADD SWAP1 PUSH2 0x230 SWAP2 SWAP1 PUSH2 0x1F22 JUMP JUMPDEST PUSH2 0x7A4 JUMP JUMPDEST PUSH1 0x40 MLOAD PUSH2 0x242 SWAP2 SWAP1 PUSH2 0x1F07 JUMP JUMPDEST PUSH1 0x40 MLOAD DUP1 SWAP2 SUB SWAP1 RETURN JUMPDEST CALLVALUE DUP1 ISZERO PUSH2 0x257 JUMPI PUSH1 0x0 DUP1 REVERT JUMPDEST POP PUSH2 0x272 PUSH1 0x4 DUP1 CALLDATASIZE SUB DUP2 ADD SWAP1 PUSH2 0x26D SWAP2 SWAP1 PUSH2 0x2095 JUMP JUMPDEST PUSH2 0x7C4 JUMP JUMPDEST STOP JUMPDEST CALLVALUE DUP1 ISZERO PUSH2 0x280 JUMPI PUSH1 0x0 DUP1 REVERT JUMPDEST POP PUSH2 0x289 PUSH2 0x875 JUMP JUMPDEST PUSH1 0x40 MLOAD PUSH2 0x296 SWAP2 SWAP1 PUSH2 0x212F JUMP JUMPDEST PUSH1 0x40 MLOAD DUP1 SWAP2 SUB SWAP1 RETURN JUMPDEST CALLVALUE DUP1 ISZERO PUSH2 0x2AB JUMPI PUSH1 0x0 DUP1 REVERT JUMPDEST POP PUSH2 0x2B4 PUSH2 0x8A4 JUMP JUMPDEST PUSH1 0x40 MLOAD PUSH2 0x2C1 SWAP2 SWAP1 PUSH2 0x212F JUMP JUMPDEST PUSH1 0x40 MLOAD DUP1 SWAP2 SUB SWAP1 RETURN JUMPDEST CALLVALUE DUP1 ISZERO PUSH2 0x2D6 JUMPI PUSH1 0x0 DUP1 REVERT JUMPDEST POP PUSH2 0x2DF PUSH2 0x8AA JUMP JUMPDEST PUSH1 0x40 MLOAD PUSH2 0x2EC SWAP2 SWAP1 PUSH2 0x212F JUMP JUMPDEST PUSH1 0x40 MLOAD DUP1 SWAP2 SUB SWAP1 RETURN JUMPDEST CALLVALUE DUP1 ISZERO PUSH2 0x301 JUMPI PUSH1 0x0 DUP1 REVERT JUMPDEST POP PUSH2 0x31C PUSH1 0x4 DUP1 CALLDATASIZE SUB DUP2 ADD SWAP1 PUSH2 0x317 SWAP2 SWAP1 PUSH2 0x1F22 JUMP JUMPDEST PUSH2 0x8B0 JUMP JUMPDEST PUSH1 0x40 MLOAD PUSH2 0x329 SWAP2 SWAP1 PUSH2 0x212F JUMP JUMPDEST PUSH1 0x40 MLOAD DUP1 SWAP2 SUB SWAP1 RETURN JUMPDEST CALLVALUE DUP1 ISZERO PUSH2 0x33E JUMPI PUSH1 0x0 DUP1 REVERT JUMPDEST POP PUSH2 0x359 PUSH1 0x4 DUP1 CALLDATASIZE SUB DUP2 ADD SWAP1 PUSH2 0x354 SWAP2 SWAP1 PUSH2 0x1F22 JUMP JUMPDEST PUSH2 0x8C8 JUMP JUMPDEST PUSH1 0x40 MLOAD PUSH2 0x366 SWAP2 SWAP1 PUSH2 0x1F07 JUMP JUMPDEST PUSH1 0x40 MLOAD DUP1 SWAP2 SUB SWAP1 RETURN JUMPDEST CALLVALUE DUP1 ISZERO PUSH2 0x37B JUMPI PUSH1 0x0 DUP1 REVERT JUMPDEST POP PUSH2 0x384 PUSH2 0x8E8 JUMP JUMPDEST PUSH1 0x40 MLOAD PUSH2 0x391 SWAP2 SWAP1 PUSH2 0x212F JUMP JUMPDEST PUSH1 0x40 MLOAD DUP1 SWAP2 SUB SWAP1 RETURN JUMPDEST CALLVALUE DUP1 ISZERO PUSH2 0x3A6 JUMPI PUSH1 0x0 DUP1 REVERT JUMPDEST POP PUSH2 0x3C1 PUSH1 0x4 DUP1 CALLDATASIZE SUB DUP2 ADD SWAP1 PUSH2 0x3BC SWAP2 SWAP1 PUSH2 0x214A JUMP JUMPDEST PUSH2 0x8EE JUMP JUMPDEST PUSH1 0x40 MLOAD PUSH2 0x3CE SWAP2 SWAP1 PUSH2 0x1F07 JUMP JUMPDEST PUSH1 0x40 MLOAD DUP1 SWAP2 SUB SWAP1 RETURN JUMPDEST CALLVALUE DUP1 ISZERO PUSH2 0x3E3 JUMPI PUSH1 0x0 DUP1 REVERT JUMPDEST POP PUSH2 0x3EC PUSH2 0xA43 JUMP JUMPDEST PUSH1 0x40 MLOAD PUSH2 0x3F9 SWAP2 SWAP1 PUSH2 0x2186 JUMP JUMPDEST PUSH1 0x40 MLOAD DUP1 SWAP2 SUB SWAP1 RETURN JUMPDEST CALLVALUE DUP1 ISZERO PUSH2 0x40E JUMPI PUSH1 0x0 DUP1 REVERT JUMPDEST POP PUSH2 0x417 PUSH2 0xA69 JUMP JUMPDEST STOP JUMPDEST CALLVALUE DUP1 ISZERO PUSH2 0x425 JUMPI PUSH1 0x0 DUP1 REVERT JUMPDEST POP PUSH2 0x42E PUSH2 0xBA0 JUMP JUMPDEST STOP JUMPDEST CALLVALUE DUP1 ISZERO PUSH2 0x43C JUMPI PUSH1 0x0 DUP1 REVERT JUMPDEST POP PUSH2 0x445 PUSH2 0xE24 JUMP JUMPDEST STOP JUMPDEST CALLVALUE DUP1 ISZERO PUSH2 0x453 JUMPI PUSH1 0x0 DUP1 REVERT JUMPDEST POP PUSH2 0x45C PUSH2 0xF98 JUMP JUMPDEST PUSH1 0x40 MLOAD PUSH2 0x469 SWAP2 SWAP1 PUSH2 0x212F JUMP JUMPDEST PUSH1 0x40 MLOAD DUP1 SWAP2 SUB SWAP1 RETURN JUMPDEST CALLVALUE DUP1 ISZERO PUSH2 0x47E JUMPI PUSH1 0x0 DUP1 REVERT JUMPDEST POP PUSH2 0x487 PUSH2 0xF9E JUMP JUMPDEST PUSH1 0x40 MLOAD PUSH2 0x494 SWAP2 SWAP1 PUSH2 0x212F JUMP JUMPDEST PUSH1 0x40 MLOAD DUP1 SWAP2 SUB SWAP1 RETURN JUMPDEST PUSH2 0x4A5 PUSH2 0xFA4 JUMP JUMPDEST PUSH1 0x40 MLOAD PUSH2 0x4B2 SWAP2 SWAP1 PUSH2 0x1F07 JUMP JUMPDEST PUSH1 0x40 MLOAD DUP1 SWAP2 SUB SWAP1 RETURN JUMPDEST CALLVALUE DUP1 ISZERO PUSH2 0x4C7 JUMPI PUSH1 0x0 DUP1 REVERT JUMPDEST POP PUSH2 0x4E2 PUSH1 0x4 DUP1 CALLDATASIZE SUB DUP2 ADD SWAP1 PUSH2 0x4DD SWAP2 SWAP1 PUSH2 0x1F22 JUMP JUMPDEST PUSH2 0xFAD JUMP JUMPDEST PUSH1 0x40 MLOAD PUSH2 0x4EF SWAP2 SWAP1 PUSH2 0x1F07 JUMP JUMPDEST PUSH1 0x40 MLOAD DUP1 SWAP2 SUB SWAP1 RETURN JUMPDEST CALLVALUE DUP1 ISZERO PUSH2 0x504 JUMPI PUSH1 0x0 DUP1 REVERT JUMPDEST POP PUSH2 0x50D PUSH2 0xFCD JUMP JUMPDEST PUSH1 0x40 MLOAD PUSH2 0x51A SWAP2 SWAP1 PUSH2 0x212F JUMP JUMPDEST PUSH1 0x40 MLOAD DUP1 SWAP2 SUB SWAP1 RETURN JUMPDEST CALLVALUE DUP1 ISZERO PUSH2 0x52F JUMPI PUSH1 0x0 DUP1 REVERT JUMPDEST POP PUSH2 0x538 PUSH2 0xFD3 JUMP JUMPDEST PUSH1 0x40 MLOAD PUSH2 0x545 SWAP2 SWAP1 PUSH2 0x212F JUMP JUMPDEST PUSH1 0x40 MLOAD DUP1 SWAP2 SUB SWAP1 RETURN JUMPDEST CALLVALUE DUP1 ISZERO PUSH2 0x55A JUMPI PUSH1 0x0 DUP1 REVERT JUMPDEST POP PUSH2 0x575 PUSH1 0x4 DUP1 CALLDATASIZE SUB DUP2 ADD SWAP1 PUSH2 0x570 SWAP2 SWAP1 PUSH2 0x21A1 JUMP JUMPDEST PUSH2 0x10EB JUMP JUMPDEST PUSH1 0x40 MLOAD PUSH2 0x582 SWAP2 SWAP1 PUSH2 0x1F07 JUMP JUMPDEST PUSH1 0x40 MLOAD DUP1 SWAP2 SUB SWAP1 RETURN JUMPDEST PUSH2 0x593 PUSH2 0x1336 JUMP JUMPDEST STOP JUMPDEST CALLVALUE DUP1 ISZERO PUSH2 0x5A1 JUMPI PUSH1 0x0 DUP1 REVERT JUMPDEST POP PUSH2 0x5BC PUSH1 0x4 DUP1 CALLDATASIZE SUB DUP2 ADD SWAP1 PUSH2 0x5B7 SWAP2 SWAP1 PUSH2 0x1F22 JUMP JUMPDEST PUSH2 0x1467 JUMP JUMPDEST PUSH1 0x40 MLOAD PUSH2 0x5C9 SWAP2 SWAP1 PUSH2 0x212F JUMP JUMPDEST PUSH1 0x40 MLOAD DUP1 SWAP2 SUB SWAP1 RETURN JUMPDEST CALLVALUE DUP1 ISZERO PUSH2 0x5DE JUMPI PUSH1 0x0 DUP1 REVERT JUMPDEST POP PUSH2 0x5F9 PUSH1 0x4 DUP1 CALLDATASIZE SUB DUP2 ADD SWAP1 PUSH2 0x5F4 SWAP2 SWAP1 PUSH2 0x214A JUMP JUMPDEST PUSH2 0x147F JUMP JUMPDEST STOP JUMPDEST CALLVALUE DUP1 ISZERO PUSH2 0x607 JUMPI PUSH1 0x0 DUP1 REVERT JUMPDEST POP PUSH2 0x610 PUSH2 0x15CC JUMP JUMPDEST PUSH1 0x40 MLOAD PUSH2 0x61D SWAP2 SWAP1 PUSH2 0x212F JUMP JUMPDEST PUSH1 0x40 MLOAD DUP1 SWAP2 SUB SWAP1 RETURN JUMPDEST CALLVALUE DUP1 ISZERO PUSH2 0x632 JUMPI PUSH1 0x0 DUP1 REVERT JUMPDEST POP PUSH2 0x63B PUSH2 0x15D2 JUMP JUMPDEST PUSH1 0x40 MLOAD PUSH2 0x648 SWAP2 SWAP1 PUSH2 0x2186 JUMP JUMPDEST PUSH1 0x40 MLOAD DUP1 SWAP2 SUB SWAP1 RETURN JUMPDEST CALLVALUE DUP1 ISZERO PUSH2 0x65D JUMPI PUSH1 0x0 DUP1 REVERT JUMPDEST POP PUSH2 0x678 PUSH1 0x4 DUP1 CALLDATASIZE SUB DUP2 ADD SWAP1 PUSH2 0x673 SWAP2 SWAP1 PUSH2 0x214A JUMP JUMPDEST PUSH2 0x15F8 JUMP JUMPDEST PUSH1 0x40 MLOAD PUSH2 0x689 SWAP6 SWAP5 SWAP4 SWAP3 SWAP2 SWAP1 PUSH2 0x2269 JUMP JUMPDEST PUSH1 0x40 MLOAD DUP1 SWAP2 SUB SWAP1 RETURN JUMPDEST CALLVALUE DUP1 ISZERO PUSH2 0x69E JUMPI PUSH1 0x0 DUP1 REVERT JUMPDEST POP PUSH2 0x6B9 PUSH1 0x4 DUP1 CALLDATASIZE SUB DUP2 ADD SWAP1 PUSH2 0x6B4 SWAP2 SWAP1 PUSH2 0x214A JUMP JUMPDEST PUSH2 0x175B JUMP JUMPDEST PUSH1 0x40 MLOAD PUSH2 0x6C6 SWAP2 SWAP1 PUSH2 0x2186 JUMP JUMPDEST PUSH1 0x40 MLOAD DUP1 SWAP2 SUB SWAP1 RETURN JUMPDEST CALLVALUE DUP1 ISZERO PUSH2 0x6DB JUMPI PUSH1 0x0 DUP1 REVERT JUMPDEST POP PUSH2 0x6E4 PUSH2 0x179A JUMP JUMPDEST PUSH1 0x40 MLOAD PUSH2 0x6F1 SWAP2 SWAP1 PUSH2 0x212F JUMP JUMPDEST PUSH1 0x40 MLOAD DUP1 SWAP2 SUB SWAP1 RETURN JUMPDEST CALLVALUE DUP1 ISZERO PUSH2 0x706 JUMPI PUSH1 0x0 DUP1 REVERT JUMPDEST POP PUSH2 0x70F PUSH2 0x17A0 JUMP JUMPDEST PUSH1 0x40 MLOAD PUSH2 0x71C SWAP2 SWAP1 PUSH2 0x212F JUMP JUMPDEST PUSH1 0x40 MLOAD DUP1 SWAP2 SUB SWAP1 RETURN JUMPDEST PUSH1 0x0 DUP1 PUSH1 0x12 DUP5 DUP2 SLOAD DUP2 LT PUSH2 0x73C JUMPI PUSH2 0x73B PUSH2 0x22CA JUMP JUMPDEST JUMPDEST SWAP1 PUSH1 0x0 MSTORE PUSH1 0x20 PUSH1 0x0 KECCAK256 SWAP1 PUSH1 0x6 MUL ADD SWAP1 POP DUP1 PUSH1 0x5 ADD PUSH1 0x0 DUP5 PUSH20 0xFFFFFFFFFFFFFFFFFFFFFFFFFFFFFFFFFFFFFFFF AND PUSH20 0xFFFFFFFFFFFFFFFFFFFFFFFFFFFFFFFFFFFFFFFF AND DUP2 MSTORE PUSH1 0x20 ADD SWAP1 DUP2 MSTORE PUSH1 0x20 ADD PUSH1 0x0 KECCAK256 PUSH1 0x0 SWAP1 SLOAD SWAP1 PUSH2 0x100 EXP SWAP1 DIV PUSH1 0xFF AND SWAP2 POP POP SWAP3 SWAP2 POP POP JUMP JUMPDEST PUSH1 0x6 PUSH1 0x20 MSTORE DUP1 PUSH1 0x0 MSTORE PUSH1 0x40 PUSH1 0x0 KECCAK256 PUSH1 0x0 SWAP2 POP SLOAD SWAP1 PUSH2 0x100 EXP SWAP1 DIV PUSH1 0xFF AND DUP2 JUMP JUMPDEST PUSH1 0x4 PUSH1 0x0 SWAP1 SLOAD SWAP1 PUSH2 0x100 EXP SWAP1 DIV PUSH20 0xFFFFFFFFFFFFFFFFFFFFFFFFFFFFFFFFFFFFFFFF AND PUSH20 0xFFFFFFFFFFFFFFFFFFFFFFFFFFFFFFFFFFFFFFFF AND CALLER PUSH20 0xFFFFFFFFFFFFFFFFFFFFFFFFFFFFFFFFFFFFFFFF AND EQ PUSH2 0x81E JUMPI PUSH1 0x0 DUP1 REVERT JUMPDEST PUSH1 0x0 PUSH1 0x12 PUSH1 0x1 DUP2 PUSH1 0x1 DUP2 SLOAD ADD DUP1 DUP3 SSTORE DUP1 SWAP2 POP POP SUB SWAP1 PUSH1 0x0 MSTORE PUSH1 0x20 PUSH1 0x0 KECCAK256 SWAP1 PUSH1 0x6 MUL ADD SWAP1 POP DUP3 DUP2 PUSH1 0x0 ADD SWAP1 DUP2 PUSH2 0x853 SWAP2 SWAP1 PUSH2 0x2505 JUMP JUMPDEST POP DUP2 DUP2 PUSH1 0x2 ADD DUP2 SWAP1 SSTORE POP DUP4 DUP2 PUSH1 0x1 ADD SWAP1 DUP2 PUSH2 0x86E SWAP2 SWAP1 PUSH2 0x2505 JUMP JUMPDEST POP POP POP POP POP JUMP JUMPDEST PUSH1 0x0 PUSH2 0x3E8 PUSH1 0x1 SLOAD PUSH2 0x3E8 PUSH2 0x88A SWAP2 SWAP1 PUSH2 0x2606 JUMP JUMPDEST SELFBALANCE PUSH2 0x895 SWAP2 SWAP1 PUSH2 0x263A JUMP JUMPDEST PUSH2 0x89F SWAP2 SWAP1 PUSH2 0x26C3 JUMP JUMPDEST SWAP1 POP SWAP1 JUMP JUMPDEST PUSH1 0x17 SLOAD DUP2 JUMP JUMPDEST PUSH1 0x15 SLOAD DUP2 JUMP JUMPDEST PUSH1 0xB PUSH1 0x20 MSTORE DUP1 PUSH1 0x0 MSTORE PUSH1 0x40 PUSH1 0x0 KECCAK256 PUSH1 0x0 SWAP2 POP SWAP1 POP SLOAD DUP2 JUMP JUMPDEST PUSH1 0x7 PUSH1 0x20 MSTORE DUP1 PUSH1 0x0 MSTORE PUSH1 0x40 PUSH1 0x0 KECCAK256 PUSH1 0x0 SWAP2 POP SLOAD SWAP1 PUSH2 0x100 EXP SWAP1 DIV PUSH1 0xFF AND DUP2 JUMP JUMPDEST PUSH1 0xF SLOAD DUP2 JUMP JUMPDEST PUSH1 0x0 PUSH1 0x1 ISZERO ISZERO PUSH1 0x11 PUSH1 0x0 SWAP1 SLOAD SWAP1 PUSH2 0x100 EXP SWAP1 DIV PUSH1 0xFF AND ISZERO ISZERO EQ PUSH2 0x910 JUMPI PUSH1 0x0 DUP1 REVERT JUMPDEST PUSH1 0x4 PUSH1 0x0 SWAP1 SLOAD SWAP1 PUSH2 0x100 EXP SWAP1 DIV PUSH20 0xFFFFFFFFFFFFFFFFFFFFFFFFFFFFFFFFFFFFFFFF AND PUSH20 0xFFFFFFFFFFFFFFFFFFFFFFFFFFFFFFFFFFFFFFFF AND CALLER PUSH20 0xFFFFFFFFFFFFFFFFFFFFFFFFFFFFFFFFFFFFFFFF AND EQ PUSH2 0x96A JUMPI PUSH1 0x0 DUP1 REVERT JUMPDEST PUSH1 0x0 PUSH1 0x12 DUP4 DUP2 SLOAD DUP2 LT PUSH2 0x980 JUMPI PUSH2 0x97F PUSH2 0x22CA JUMP JUMPDEST JUMPDEST SWAP1 PUSH1 0x0 MSTORE PUSH1 0x20 PUSH1 0x0 KECCAK256 SWAP1 PUSH1 0x6 MUL ADD SWAP1 POP PUSH1 0x2 PUSH1 0x3 SLOAD PUSH2 0x99F SWAP2 SWAP1 PUSH2 0x26C3 JUMP JUMPDEST DUP2 PUSH1 0x4 ADD SLOAD LT ISZERO PUSH2 0x9AF JUMPI PUSH1 0x0 DUP1 REVERT JUMPDEST PUSH1 0x5 PUSH1 0x0 SWAP1 SLOAD SWAP1 PUSH2 0x100 EXP SWAP1 DIV PUSH20 0xFFFFFFFFFFFFFFFFFFFFFFFFFFFFFFFFFFFFFFFF AND PUSH20 0xFFFFFFFFFFFFFFFFFFFFFFFFFFFFFFFFFFFFFFFF AND PUSH2 0x8FC DUP3 PUSH1 0x2 ADD SLOAD SWAP1 DUP2 ISZERO MUL SWAP1 PUSH1 0x40 MLOAD PUSH1 0x0 PUSH1 0x40 MLOAD DUP1 DUP4 SUB DUP2 DUP6 DUP9 DUP9 CALL SWAP4 POP POP POP POP ISZERO DUP1 ISZERO PUSH2 0xA1B JUMPI RETURNDATASIZE PUSH1 0x0 DUP1 RETURNDATACOPY RETURNDATASIZE PUSH1 0x0 REVERT JUMPDEST POP PUSH1 0x1 DUP2 PUSH1 0x3 ADD PUSH1 0x0 PUSH2 0x100 EXP DUP2 SLOAD DUP2 PUSH1 0xFF MUL NOT AND SWAP1 DUP4 ISZERO ISZERO MUL OR SWAP1 SSTORE POP PUSH1 0x1 SWAP2 POP POP SWAP2 SWAP1 POP JUMP JUMPDEST PUSH1 0x4 PUSH1 0x0 SWAP1 SLOAD SWAP1 PUSH2 0x100 EXP SWAP1 DIV PUSH20 0xFFFFFFFFFFFFFFFFFFFFFFFFFFFFFFFFFFFFFFFF AND DUP2 JUMP JUMPDEST PUSH1 0x1 PUSH1 0x11 PUSH1 0x0 PUSH2 0x100 EXP DUP2 SLOAD DUP2 PUSH1 0xFF MUL NOT AND SWAP1 DUP4 ISZERO ISZERO MUL OR SWAP1 SSTORE POP PUSH1 0x0 SELFBALANCE SWAP1 POP PUSH1 0x0 DUP1 PUSH1 0x0 SWAP1 POP JUMPDEST PUSH1 0x9 DUP1 SLOAD SWAP1 POP DUP2 LT ISZERO PUSH2 0xB93 JUMPI PUSH1 0x0 PUSH1 0x9 DUP3 DUP2 SLOAD DUP2 LT PUSH2 0xAB4 JUMPI PUSH2 0xAB3 PUSH2 0x22CA JUMP JUMPDEST JUMPDEST SWAP1 PUSH1 0x0 MSTORE PUSH1 0x20 PUSH1 0x0 KECCAK256 ADD PUSH1 0x0 SWAP1 SLOAD SWAP1 PUSH2 0x100 EXP SWAP1 DIV PUSH20 0xFFFFFFFFFFFFFFFFFFFFFFFFFFFFFFFFFFFFFFFF AND SWAP1 POP PUSH1 0xA PUSH1 0x0 DUP3 PUSH20 0xFFFFFFFFFFFFFFFFFFFFFFFFFFFFFFFFFFFFFFFF AND PUSH20 0xFFFFFFFFFFFFFFFFFFFFFFFFFFFFFFFFFFFFFFFF AND DUP2 MSTORE PUSH1 0x20 ADD SWAP1 DUP2 MSTORE PUSH1 0x20 ADD PUSH1 0x0 KECCAK256 SLOAD SWAP3 POP DUP4 PUSH2 0x3E8 DUP5 PUSH2 0xB32 SWAP2 SWAP1 PUSH2 0x263A JUMP JUMPDEST PUSH2 0xB3C SWAP2 SWAP1 PUSH2 0x26C3 JUMP JUMPDEST PUSH1 0xB PUSH1 0x0 DUP4 PUSH20 0xFFFFFFFFFFFFFFFFFFFFFFFFFFFFFFFFFFFFFFFF AND PUSH20 0xFFFFFFFFFFFFFFFFFFFFFFFFFFFFFFFFFFFFFFFF AND DUP2 MSTORE PUSH1 0x20 ADD SWAP1 DUP2 MSTORE PUSH1 0x20 ADD PUSH1 0x0 KECCAK256 DUP2 SWAP1 SSTORE POP POP DUP1 DUP1 PUSH2 0xB8B SWAP1 PUSH2 0x26F4 JUMP JUMPDEST SWAP2 POP POP PUSH2 0xA91 JUMP JUMPDEST POP PUSH2 0xB9C PUSH2 0x17A6 JUMP JUMPDEST POP POP JUMP JUMPDEST PUSH1 0x2 PUSH1 0x3 SLOAD PUSH2 0xBAF SWAP2 SWAP1 PUSH2 0x26C3 JUMP JUMPDEST PUSH1 0x8 SLOAD LT ISZERO DUP1 PUSH2 0xBD2 JUMPI POP PUSH1 0x0 ISZERO ISZERO PUSH1 0x11 PUSH1 0x0 SWAP1 SLOAD SWAP1 PUSH2 0x100 EXP SWAP1 DIV PUSH1 0xFF AND ISZERO ISZERO EQ JUMPDEST PUSH2 0xBDB JUMPI PUSH1 0x0 DUP1 REVERT JUMPDEST PUSH1 0x5 PUSH1 0x0 SWAP1 SLOAD SWAP1 PUSH2 0x100 EXP SWAP1 DIV PUSH20 0xFFFFFFFFFFFFFFFFFFFFFFFFFFFFFFFFFFFFFFFF AND PUSH20 0xFFFFFFFFFFFFFFFFFFFFFFFFFFFFFFFFFFFFFFFF AND CALLER PUSH20 0xFFFFFFFFFFFFFFFFFFFFFFFFFFFFFFFFFFFFFFFF AND EQ PUSH2 0xC35 JUMPI PUSH1 0x0 DUP1 REVERT JUMPDEST PUSH2 0xC3D PUSH2 0x875 JUMP JUMPDEST PUSH1 0x16 DUP2 SWAP1 SSTORE POP PUSH1 0x0 JUMPDEST PUSH1 0x9 DUP1 SLOAD SWAP1 POP DUP2 LT ISZERO PUSH2 0xDAF JUMPI PUSH1 0x0 PUSH1 0x9 DUP3 DUP2 SLOAD DUP2 LT PUSH2 0xC69 JUMPI PUSH2 0xC68 PUSH2 0x22CA JUMP JUMPDEST JUMPDEST SWAP1 PUSH1 0x0 MSTORE PUSH1 0x20 PUSH1 0x0 KECCAK256 ADD PUSH1 0x0 SWAP1 SLOAD SWAP1 PUSH2 0x100 EXP SWAP1 DIV PUSH20 0xFFFFFFFFFFFFFFFFFFFFFFFFFFFFFFFFFFFFFFFF AND SWAP1 POP PUSH1 0x0 ISZERO ISZERO PUSH1 0xC PUSH1 0x0 DUP4 PUSH20 0xFFFFFFFFFFFFFFFFFFFFFFFFFFFFFFFFFFFFFFFF AND PUSH20 0xFFFFFFFFFFFFFFFFFFFFFFFFFFFFFFFFFFFFFFFF AND DUP2 MSTORE PUSH1 0x20 ADD SWAP1 DUP2 MSTORE PUSH1 0x20 ADD PUSH1 0x0 KECCAK256 PUSH1 0x0 SWAP1 SLOAD SWAP1 PUSH2 0x100 EXP SWAP1 DIV PUSH1 0xFF AND ISZERO ISZERO SUB PUSH2 0xD9B JUMPI PUSH1 0x0 PUSH1 0xB PUSH1 0x0 DUP4 PUSH20 0xFFFFFFFFFFFFFFFFFFFFFFFFFFFFFFFFFFFFFFFF AND PUSH20 0xFFFFFFFFFFFFFFFFFFFFFFFFFFFFFFFFFFFFFFFF AND DUP2 MSTORE PUSH1 0x20 ADD SWAP1 DUP2 MSTORE PUSH1 0x20 ADD PUSH1 0x0 KECCAK256 SLOAD SWAP1 POP PUSH1 0x0 PUSH2 0x3E8 PUSH1 0x16 SLOAD DUP4 PUSH2 0xD45 SWAP2 SWAP1 PUSH2 0x263A JUMP JUMPDEST PUSH2 0xD4F SWAP2 SWAP1 PUSH2 0x26C3 JUMP JUMPDEST SWAP1 POP DUP3 PUSH20 0xFFFFFFFFFFFFFFFFFFFFFFFFFFFFFFFFFFFFFFFF AND PUSH2 0x8FC DUP3 SWAP1 DUP2 ISZERO MUL SWAP1 PUSH1 0x40 MLOAD PUSH1 0x0 PUSH1 0x40 MLOAD DUP1 DUP4 SUB DUP2 DUP6 DUP9 DUP9 CALL SWAP4 POP POP POP POP ISZERO DUP1 ISZERO PUSH2 0xD97 JUMPI RETURNDATASIZE PUSH1 0x0 DUP1 RETURNDATACOPY RETURNDATASIZE PUSH1 0x0 REVERT JUMPDEST POP POP POP JUMPDEST POP DUP1 DUP1 PUSH2 0xDA7 SWAP1 PUSH2 0x26F4 JUMP JUMPDEST SWAP2 POP POP PUSH2 0xC46 JUMP JUMPDEST POP SELFBALANCE PUSH1 0x15 DUP2 SWAP1 SSTORE POP PUSH1 0x4 PUSH1 0x0 SWAP1 SLOAD SWAP1 PUSH2 0x100 EXP SWAP1 DIV PUSH20 0xFFFFFFFFFFFFFFFFFFFFFFFFFFFFFFFFFFFFFFFF AND PUSH20 0xFFFFFFFFFFFFFFFFFFFFFFFFFFFFFFFFFFFFFFFF AND PUSH2 0x8FC PUSH1 0x15 SLOAD SWAP1 DUP2 ISZERO MUL SWAP1 PUSH1 0x40 MLOAD PUSH1 0x0 PUSH1 0x40 MLOAD DUP1 DUP4 SUB DUP2 DUP6 DUP9 DUP9 CALL SWAP4 POP POP POP POP ISZERO DUP1 ISZERO PUSH2 0xE21 JUMPI RETURNDATASIZE PUSH1 0x0 DUP1 RETURNDATACOPY RETURNDATASIZE PUSH1 0x0 REVERT JUMPDEST POP JUMP JUMPDEST PUSH1 0x1 ISZERO ISZERO PUSH1 0x11 PUSH1 0x0 SWAP1 SLOAD SWAP1 PUSH2 0x100 EXP SWAP1 DIV PUSH1 0xFF AND ISZERO ISZERO EQ PUSH2 0xE44 JUMPI PUSH1 0x0 DUP1 REVERT JUMPDEST PUSH1 0x6 PUSH1 0x0 CALLER PUSH20 0xFFFFFFFFFFFFFFFFFFFFFFFFFFFFFFFFFFFFFFFF AND PUSH20 0xFFFFFFFFFFFFFFFFFFFFFFFFFFFFFFFFFFFFFFFF AND DUP2 MSTORE PUSH1 0x20 ADD SWAP1 DUP2 MSTORE PUSH1 0x20 ADD PUSH1 0x0 KECCAK256 PUSH1 0x0 SWAP1 SLOAD SWAP1 PUSH2 0x100 EXP SWAP1 DIV PUSH1 0xFF AND PUSH2 0xE9A JUMPI PUSH1 0x0 DUP1 REVERT JUMPDEST PUSH1 0x0 ISZERO ISZERO PUSH1 0x7 PUSH1 0x0 CALLER PUSH20 0xFFFFFFFFFFFFFFFFFFFFFFFFFFFFFFFFFFFFFFFF AND PUSH20 0xFFFFFFFFFFFFFFFFFFFFFFFFFFFFFFFFFFFFFFFF AND DUP2 MSTORE PUSH1 0x20 ADD SWAP1 DUP2 MSTORE PUSH1 0x20 ADD PUSH1 0x0 KECCAK256 PUSH1 0x0 SWAP1 SLOAD SWAP1 PUSH2 0x100 EXP SWAP1 DIV PUSH1 0xFF AND ISZERO ISZERO SUB PUSH2 0xF63 JUMPI PUSH1 0x1 PUSH1 0x7 PUSH1 0x0 CALLER PUSH20 0xFFFFFFFFFFFFFFFFFFFFFFFFFFFFFFFFFFFFFFFF AND PUSH20 0xFFFFFFFFFFFFFFFFFFFFFFFFFFFFFFFFFFFFFFFF AND DUP2 MSTORE PUSH1 0x20 ADD SWAP1 DUP2 MSTORE PUSH1 0x20 ADD PUSH1 0x0 KECCAK256 PUSH1 0x0 PUSH2 0x100 EXP DUP2 SLOAD DUP2 PUSH1 0xFF MUL NOT AND SWAP1 DUP4 ISZERO ISZERO MUL OR SWAP1 SSTORE POP PUSH1 0x8 PUSH1 0x0 DUP2 SLOAD DUP1 SWAP3 SWAP2 SWAP1 PUSH2 0xF5D SWAP1 PUSH2 0x26F4 JUMP JUMPDEST SWAP2 SWAP1 POP SSTORE POP JUMPDEST PUSH1 0x2 PUSH1 0x3 SLOAD PUSH2 0xF72 SWAP2 SWAP1 PUSH2 0x26C3 JUMP JUMPDEST PUSH1 0x8 SLOAD LT PUSH2 0xF96 JUMPI PUSH1 0x0 PUSH1 0x11 PUSH1 0x0 PUSH2 0x100 EXP DUP2 SLOAD DUP2 PUSH1 0xFF MUL NOT AND SWAP1 DUP4 ISZERO ISZERO MUL OR SWAP1 SSTORE POP JUMPDEST JUMP JUMPDEST PUSH1 0x14 SLOAD DUP2 JUMP JUMPDEST PUSH1 0xD SLOAD DUP2 JUMP JUMPDEST PUSH1 0x0 PUSH1 0x1 SWAP1 POP SWAP1 JUMP JUMPDEST PUSH1 0xC PUSH1 0x20 MSTORE DUP1 PUSH1 0x0 MSTORE PUSH1 0x40 PUSH1 0x0 KECCAK256 PUSH1 0x0 SWAP2 POP SLOAD SWAP1 PUSH2 0x100 EXP SWAP1 DIV PUSH1 0xFF AND DUP2 JUMP JUMPDEST PUSH1 0x16 SLOAD DUP2 JUMP JUMPDEST PUSH1 0x0 DUP1 PUSH1 0x0 JUMPDEST PUSH1 0x9 DUP1 SLOAD SWAP1 POP DUP2 LT ISZERO PUSH2 0x10E3 JUMPI PUSH1 0x0 PUSH1 0x9 DUP3 DUP2 SLOAD DUP2 LT PUSH2 0xFFC JUMPI PUSH2 0xFFB PUSH2 0x22CA JUMP JUMPDEST JUMPDEST SWAP1 PUSH1 0x0 MSTORE PUSH1 0x20 PUSH1 0x0 KECCAK256 ADD PUSH1 0x0 SWAP1 SLOAD SWAP1 PUSH2 0x100 EXP SWAP1 DIV PUSH20 0xFFFFFFFFFFFFFFFFFFFFFFFFFFFFFFFFFFFFFFFF AND SWAP1 POP PUSH1 0x0 ISZERO ISZERO PUSH1 0xC PUSH1 0x0 DUP4 PUSH20 0xFFFFFFFFFFFFFFFFFFFFFFFFFFFFFFFFFFFFFFFF AND PUSH20 0xFFFFFFFFFFFFFFFFFFFFFFFFFFFFFFFFFFFFFFFF AND DUP2 MSTORE PUSH1 0x20 ADD SWAP1 DUP2 MSTORE PUSH1 0x20 ADD PUSH1 0x0 KECCAK256 PUSH1 0x0 SWAP1 SLOAD SWAP1 PUSH2 0x100 EXP SWAP1 DIV PUSH1 0xFF AND ISZERO ISZERO SUB PUSH2 0x10CF JUMPI PUSH1 0xB PUSH1 0x0 DUP3 PUSH20 0xFFFFFFFFFFFFFFFFFFFFFFFFFFFFFFFFFFFFFFFF AND PUSH20 0xFFFFFFFFFFFFFFFFFFFFFFFFFFFFFFFFFFFFFFFF AND DUP2 MSTORE PUSH1 0x20 ADD SWAP1 DUP2 MSTORE PUSH1 0x20 ADD PUSH1 0x0 KECCAK256 SLOAD DUP4 PUSH2 0x10CC SWAP2 SWAP1 PUSH2 0x273C JUMP JUMPDEST SWAP3 POP JUMPDEST POP DUP1 DUP1 PUSH2 0x10DB SWAP1 PUSH2 0x26F4 JUMP JUMPDEST SWAP2 POP POP PUSH2 0xFD9 JUMP JUMPDEST POP DUP1 SWAP2 POP POP SWAP1 JUMP JUMPDEST PUSH1 0x0 PUSH1 0x1 ISZERO ISZERO PUSH1 0x11 PUSH1 0x0 SWAP1 SLOAD SWAP1 PUSH2 0x100 EXP SWAP1 DIV PUSH1 0xFF AND ISZERO ISZERO EQ PUSH2 0x110D JUMPI PUSH1 0x0 DUP1 REVERT JUMPDEST PUSH1 0x5 PUSH1 0x0 SWAP1 SLOAD SWAP1 PUSH2 0x100 EXP SWAP1 DIV PUSH20 0xFFFFFFFFFFFFFFFFFFFFFFFFFFFFFFFFFFFFFFFF AND PUSH20 0xFFFFFFFFFFFFFFFFFFFFFFFFFFFFFFFFFFFFFFFF AND CALLER PUSH20 0xFFFFFFFFFFFFFFFFFFFFFFFFFFFFFFFFFFFFFFFF AND EQ PUSH2 0x1167 JUMPI PUSH1 0x0 DUP1 REVERT JUMPDEST PUSH1 0x0 ISZERO ISZERO PUSH1 0x6 PUSH1 0x0 CALLER PUSH20 0xFFFFFFFFFFFFFFFFFFFFFFFFFFFFFFFFFFFFFFFF AND PUSH20 0xFFFFFFFFFFFFFFFFFFFFFFFFFFFFFFFFFFFFFFFF AND DUP2 MSTORE PUSH1 0x20 ADD SWAP1 DUP2 MSTORE PUSH1 0x20 ADD PUSH1 0x0 KECCAK256 PUSH1 0x0 SWAP1 SLOAD SWAP1 PUSH2 0x100 EXP SWAP1 DIV PUSH1 0xFF AND ISZERO ISZERO EQ PUSH2 0x11C4 JUMPI PUSH1 0x0 DUP1 REVERT JUMPDEST PUSH1 0x0 PUSH1 0xB PUSH1 0x0 DUP6 PUSH20 0xFFFFFFFFFFFFFFFFFFFFFFFFFFFFFFFFFFFFFFFF AND PUSH20 0xFFFFFFFFFFFFFFFFFFFFFFFFFFFFFFFFFFFFFFFF AND DUP2 MSTORE PUSH1 0x20 ADD SWAP1 DUP2 MSTORE PUSH1 0x20 ADD PUSH1 0x0 KECCAK256 SLOAD SWAP1 POP PUSH1 0x0 PUSH2 0x1212 PUSH2 0x875 JUMP JUMPDEST DUP5 PUSH2 0x121D SWAP2 SWAP1 PUSH2 0x273C JUMP JUMPDEST SWAP1 POP PUSH1 0x0 PUSH2 0x3E8 PUSH1 0x0 SLOAD PUSH2 0x3E8 DUP6 DUP6 PUSH2 0x1236 SWAP2 SWAP1 PUSH2 0x263A JUMP JUMPDEST PUSH2 0x1240 SWAP2 SWAP1 PUSH2 0x26C3 JUMP JUMPDEST PUSH2 0x124A SWAP2 SWAP1 PUSH2 0x263A JUMP JUMPDEST PUSH2 0x1254 SWAP2 SWAP1 PUSH2 0x26C3 JUMP JUMPDEST SWAP1 POP DUP1 PUSH1 0x14 DUP2 SWAP1 SSTORE POP SELFBALANCE DUP2 GT PUSH2 0x1328 JUMPI PUSH1 0x14 SLOAD PUSH1 0x17 DUP2 SWAP1 SSTORE POP DUP6 PUSH20 0xFFFFFFFFFFFFFFFFFFFFFFFFFFFFFFFFFFFFFFFF AND PUSH2 0x8FC DUP3 SWAP1 DUP2 ISZERO MUL SWAP1 PUSH1 0x40 MLOAD PUSH1 0x0 PUSH1 0x40 MLOAD DUP1 DUP4 SUB DUP2 DUP6 DUP9 DUP9 CALL SWAP4 POP POP POP POP ISZERO DUP1 ISZERO PUSH2 0x12B3 JUMPI RETURNDATASIZE PUSH1 0x0 DUP1 RETURNDATACOPY RETURNDATASIZE PUSH1 0x0 REVERT JUMPDEST POP PUSH1 0x1 PUSH1 0xC PUSH1 0x0 DUP9 PUSH20 0xFFFFFFFFFFFFFFFFFFFFFFFFFFFFFFFFFFFFFFFF AND PUSH20 0xFFFFFFFFFFFFFFFFFFFFFFFFFFFFFFFFFFFFFFFF AND DUP2 MSTORE PUSH1 0x20 ADD SWAP1 DUP2 MSTORE PUSH1 0x20 ADD PUSH1 0x0 KECCAK256 PUSH1 0x0 PUSH2 0x100 EXP DUP2 SLOAD DUP2 PUSH1 0xFF MUL NOT AND SWAP1 DUP4 ISZERO ISZERO MUL OR SWAP1 SSTORE POP DUP1 PUSH1 0x13 DUP2 SWAP1 SSTORE POP PUSH2 0x131C DUP4 PUSH2 0x1C8C JUMP JUMPDEST PUSH1 0x1 SWAP4 POP POP POP POP PUSH2 0x1330 JUMP JUMPDEST PUSH1 0x0 SWAP4 POP POP POP POP JUMPDEST SWAP3 SWAP2 POP POP JUMP JUMPDEST PUSH1 0x0 ISZERO ISZERO PUSH1 0x11 PUSH1 0x0 SWAP1 SLOAD SWAP1 PUSH2 0x100 EXP SWAP1 DIV PUSH1 0xFF AND ISZERO ISZERO EQ PUSH2 0x1356 JUMPI PUSH1 0x0 DUP1 REVERT JUMPDEST PUSH1 0x0 PUSH1 0xA PUSH1 0x0 CALLER PUSH20 0xFFFFFFFFFFFFFFFFFFFFFFFFFFFFFFFFFFFFFFFF AND PUSH20 0xFFFFFFFFFFFFFFFFFFFFFFFFFFFFFFFFFFFFFFFF AND DUP2 MSTORE PUSH1 0x20 ADD SWAP1 DUP2 MSTORE PUSH1 0x20 ADD PUSH1 0x0 KECCAK256 SLOAD SWAP1 POP PUSH1 0x0 DUP2 SUB PUSH2 0x1415 JUMPI PUSH1 0xD SLOAD CALLVALUE LT ISZERO PUSH2 0x13B1 JUMPI PUSH1 0x0 DUP1 REVERT JUMPDEST PUSH1 0x9 CALLER SWAP1 DUP1 PUSH1 0x1 DUP2 SLOAD ADD DUP1 DUP3 SSTORE DUP1 SWAP2 POP POP PUSH1 0x1 SWAP1 SUB SWAP1 PUSH1 0x0 MSTORE PUSH1 0x20 PUSH1 0x0 KECCAK256 ADD PUSH1 0x0 SWAP1 SWAP2 SWAP1 SWAP2 SWAP1 SWAP2 PUSH2 0x100 EXP DUP2 SLOAD DUP2 PUSH20 0xFFFFFFFFFFFFFFFFFFFFFFFFFFFFFFFFFFFFFFFF MUL NOT AND SWAP1 DUP4 PUSH20 0xFFFFFFFFFFFFFFFFFFFFFFFFFFFFFFFFFFFFFFFF AND MUL OR SWAP1 SSTORE POP JUMPDEST CALLVALUE DUP2 PUSH2 0x1421 SWAP2 SWAP1 PUSH2 0x273C JUMP JUMPDEST PUSH1 0xA PUSH1 0x0 CALLER PUSH20 0xFFFFFFFFFFFFFFFFFFFFFFFFFFFFFFFFFFFFFFFF AND PUSH20 0xFFFFFFFFFFFFFFFFFFFFFFFFFFFFFFFFFFFFFFFF AND DUP2 MSTORE PUSH1 0x20 ADD SWAP1 DUP2 MSTORE PUSH1 0x20 ADD PUSH1 0x0 KECCAK256 DUP2 SWAP1 SSTORE POP POP JUMP JUMPDEST PUSH1 0xA PUSH1 0x20 MSTORE DUP1 PUSH1 0x0 MSTORE PUSH1 0x40 PUSH1 0x0 KECCAK256 PUSH1 0x0 SWAP2 POP SWAP1 POP SLOAD DUP2 JUMP JUMPDEST PUSH1 0x6 PUSH1 0x0 CALLER PUSH20 0xFFFFFFFFFFFFFFFFFFFFFFFFFFFFFFFFFFFFFFFF AND PUSH20 0xFFFFFFFFFFFFFFFFFFFFFFFFFFFFFFFFFFFFFFFF AND DUP2 MSTORE PUSH1 0x20 ADD SWAP1 DUP2 MSTORE PUSH1 0x20 ADD PUSH1 0x0 KECCAK256 PUSH1 0x0 SWAP1 SLOAD SWAP1 PUSH2 0x100 EXP SWAP1 DIV PUSH1 0xFF AND PUSH2 0x14D5 JUMPI PUSH1 0x0 DUP1 REVERT JUMPDEST PUSH1 0x0 PUSH1 0x12 DUP3 DUP2 SLOAD DUP2 LT PUSH2 0x14EB JUMPI PUSH2 0x14EA PUSH2 0x22CA JUMP JUMPDEST JUMPDEST SWAP1 PUSH1 0x0 MSTORE PUSH1 0x20 PUSH1 0x0 KECCAK256 SWAP1 PUSH1 0x6 MUL ADD SWAP1 POP DUP1 PUSH1 0x5 ADD PUSH1 0x0 CALLER PUSH20 0xFFFFFFFFFFFFFFFFFFFFFFFFFFFFFFFFFFFFFFFF AND PUSH20 0xFFFFFFFFFFFFFFFFFFFFFFFFFFFFFFFFFFFFFFFF AND DUP2 MSTORE PUSH1 0x20 ADD SWAP1 DUP2 MSTORE PUSH1 0x20 ADD PUSH1 0x0 KECCAK256 PUSH1 0x0 SWAP1 SLOAD SWAP1 PUSH2 0x100 EXP SWAP1 DIV PUSH1 0xFF AND ISZERO PUSH2 0x1554 JUMPI PUSH1 0x0 DUP1 REVERT JUMPDEST PUSH1 0x1 DUP2 PUSH1 0x5 ADD PUSH1 0x0 CALLER PUSH20 0xFFFFFFFFFFFFFFFFFFFFFFFFFFFFFFFFFFFFFFFF AND PUSH20 0xFFFFFFFFFFFFFFFFFFFFFFFFFFFFFFFFFFFFFFFF AND DUP2 MSTORE PUSH1 0x20 ADD SWAP1 DUP2 MSTORE PUSH1 0x20 ADD PUSH1 0x0 KECCAK256 PUSH1 0x0 PUSH2 0x100 EXP DUP2 SLOAD DUP2 PUSH1 0xFF MUL NOT AND SWAP1 DUP4 ISZERO ISZERO MUL OR SWAP1 SSTORE POP DUP1 PUSH1 0x4 ADD PUSH1 0x0 DUP2 SLOAD DUP1 SWAP3 SWAP2 SWAP1 PUSH2 0x15C3 SWAP1 PUSH2 0x26F4 JUMP JUMPDEST SWAP2 SWAP1 POP SSTORE POP POP POP JUMP JUMPDEST PUSH1 0x13 SLOAD DUP2 JUMP JUMPDEST PUSH1 0x5 PUSH1 0x0 SWAP1 SLOAD SWAP1 PUSH2 0x100 EXP SWAP1 DIV PUSH20 0xFFFFFFFFFFFFFFFFFFFFFFFFFFFFFFFFFFFFFFFF AND DUP2 JUMP JUMPDEST PUSH1 0x12 DUP2 DUP2 SLOAD DUP2 LT PUSH2 0x1608 JUMPI PUSH1 0x0 DUP1 REVERT JUMPDEST SWAP1 PUSH1 0x0 MSTORE PUSH1 0x20 PUSH1 0x0 KECCAK256 SWAP1 PUSH1 0x6 MUL ADD PUSH1 0x0 SWAP2 POP SWAP1 POP DUP1 PUSH1 0x0 ADD DUP1 SLOAD PUSH2 0x162B SWAP1 PUSH2 0x2328 JUMP JUMPDEST DUP1 PUSH1 0x1F ADD PUSH1 0x20 DUP1 SWAP2 DIV MUL PUSH1 0x20 ADD PUSH1 0x40 MLOAD SWAP1 DUP2 ADD PUSH1 0x40 MSTORE DUP1 SWAP3 SWAP2 SWAP1 DUP2 DUP2 MSTORE PUSH1 0x20 ADD DUP3 DUP1 SLOAD PUSH2 0x1657 SWAP1 PUSH2 0x2328 JUMP JUMPDEST DUP1 ISZERO PUSH2 0x16A4 JUMPI DUP1 PUSH1 0x1F LT PUSH2 0x1679 JUMPI PUSH2 0x100 DUP1 DUP4 SLOAD DIV MUL DUP4 MSTORE SWAP2 PUSH1 0x20 ADD SWAP2 PUSH2 0x16A4 JUMP JUMPDEST DUP3 ADD SWAP2 SWAP1 PUSH1 0x0 MSTORE PUSH1 0x20 PUSH1 0x0 KECCAK256 SWAP1 JUMPDEST DUP2 SLOAD DUP2 MSTORE SWAP1 PUSH1 0x1 ADD SWAP1 PUSH1 0x20 ADD DUP1 DUP4 GT PUSH2 0x1687 JUMPI DUP3 SWAP1 SUB PUSH1 0x1F AND DUP3 ADD SWAP2 JUMPDEST POP POP POP POP POP SWAP1 DUP1 PUSH1 0x1 ADD DUP1 SLOAD PUSH2 0x16B9 SWAP1 PUSH2 0x2328 JUMP JUMPDEST DUP1 PUSH1 0x1F ADD PUSH1 0x20 DUP1 SWAP2 DIV MUL PUSH1 0x20 ADD PUSH1 0x40 MLOAD SWAP1 DUP2 ADD PUSH1 0x40 MSTORE DUP1 SWAP3 SWAP2 SWAP1 DUP2 DUP2 MSTORE PUSH1 0x20 ADD DUP3 DUP1 SLOAD PUSH2 0x16E5 SWAP1 PUSH2 0x2328 JUMP JUMPDEST DUP1 ISZERO PUSH2 0x1732 JUMPI DUP1 PUSH1 0x1F LT PUSH2 0x1707 JUMPI PUSH2 0x100 DUP1 DUP4 SLOAD DIV MUL DUP4 MSTORE SWAP2 PUSH1 0x20 ADD SWAP2 PUSH2 0x1732 JUMP JUMPDEST DUP3 ADD SWAP2 SWAP1 PUSH1 0x0 MSTORE PUSH1 0x20 PUSH1 0x0 KECCAK256 SWAP1 JUMPDEST DUP2 SLOAD DUP2 MSTORE SWAP1 PUSH1 0x1 ADD SWAP1 PUSH1 0x20 ADD DUP1 DUP4 GT PUSH2 0x1715 JUMPI DUP3 SWAP1 SUB PUSH1 0x1F AND DUP3 ADD SWAP2 JUMPDEST POP POP POP POP POP SWAP1 DUP1 PUSH1 0x2 ADD SLOAD SWAP1 DUP1 PUSH1 0x3 ADD PUSH1 0x0 SWAP1 SLOAD SWAP1 PUSH2 0x100 EXP SWAP1 DIV PUSH1 0xFF AND SWAP1 DUP1 PUSH1 0x4 ADD SLOAD SWAP1 POP DUP6 JUMP JUMPDEST PUSH1 0x9 DUP2 DUP2 SLOAD DUP2 LT PUSH2 0x176B JUMPI PUSH1 0x0 DUP1 REVERT JUMPDEST SWAP1 PUSH1 0x0 MSTORE PUSH1 0x20 PUSH1 0x0 KECCAK256 ADD PUSH1 0x0 SWAP2 POP SLOAD SWAP1 PUSH2 0x100 EXP SWAP1 DIV PUSH20 0xFFFFFFFFFFFFFFFFFFFFFFFFFFFFFFFFFFFFFFFF AND DUP2 JUMP JUMPDEST PUSH1 0xE SLOAD DUP2 JUMP JUMPDEST PUSH1 0x10 SLOAD DUP2 JUMP JUMPDEST PUSH1 0x0 PUSH1 0x3 SLOAD PUSH8 0xFFFFFFFFFFFFFFFF DUP2 GT ISZERO PUSH2 0x17C4 JUMPI PUSH2 0x17C3 PUSH2 0x1F6A JUMP JUMPDEST JUMPDEST PUSH1 0x40 MLOAD SWAP1 DUP1 DUP3 MSTORE DUP1 PUSH1 0x20 MUL PUSH1 0x20 ADD DUP3 ADD PUSH1 0x40 MSTORE DUP1 ISZERO PUSH2 0x17F2 JUMPI DUP2 PUSH1 0x20 ADD PUSH1 0x20 DUP3 MUL DUP1 CALLDATASIZE DUP4 CALLDATACOPY DUP1 DUP3 ADD SWAP2 POP POP SWAP1 POP JUMPDEST POP SWAP1 POP PUSH1 0x0 PUSH1 0x3 SLOAD PUSH8 0xFFFFFFFFFFFFFFFF DUP2 GT ISZERO PUSH2 0x1813 JUMPI PUSH2 0x1812 PUSH2 0x1F6A JUMP JUMPDEST JUMPDEST PUSH1 0x40 MLOAD SWAP1 DUP1 DUP3 MSTORE DUP1 PUSH1 0x20 MUL PUSH1 0x20 ADD DUP3 ADD PUSH1 0x40 MSTORE DUP1 ISZERO PUSH2 0x1841 JUMPI DUP2 PUSH1 0x20 ADD PUSH1 0x20 DUP3 MUL DUP1 CALLDATASIZE DUP4 CALLDATACOPY DUP1 DUP3 ADD SWAP2 POP POP SWAP1 POP JUMPDEST POP SWAP1 POP PUSH1 0x0 DUP1 PUSH1 0x0 SWAP1 POP PUSH1 0x0 DUP1 PUSH1 0x9 PUSH1 0x0 DUP2 SLOAD DUP2 LT PUSH2 0x1863 JUMPI PUSH2 0x1862 PUSH2 0x22CA JUMP JUMPDEST JUMPDEST SWAP1 PUSH1 0x0 MSTORE PUSH1 0x20 PUSH1 0x0 KECCAK256 ADD PUSH1 0x0 SWAP1 SLOAD SWAP1 PUSH2 0x100 EXP SWAP1 DIV PUSH20 0xFFFFFFFFFFFFFFFFFFFFFFFFFFFFFFFFFFFFFFFF AND SWAP1 POP DUP1 DUP7 PUSH1 0x0 DUP2 MLOAD DUP2 LT PUSH2 0x18A5 JUMPI PUSH2 0x18A4 PUSH2 0x22CA JUMP JUMPDEST JUMPDEST PUSH1 0x20 MUL PUSH1 0x20 ADD ADD SWAP1 PUSH20 0xFFFFFFFFFFFFFFFFFFFFFFFFFFFFFFFFFFFFFFFF AND SWAP1 DUP2 PUSH20 0xFFFFFFFFFFFFFFFFFFFFFFFFFFFFFFFFFFFFFFFF AND DUP2 MSTORE POP POP PUSH1 0xA PUSH1 0x0 DUP3 PUSH20 0xFFFFFFFFFFFFFFFFFFFFFFFFFFFFFFFFFFFFFFFF AND PUSH20 0xFFFFFFFFFFFFFFFFFFFFFFFFFFFFFFFFFFFFFFFF AND DUP2 MSTORE PUSH1 0x20 ADD SWAP1 DUP2 MSTORE PUSH1 0x20 ADD PUSH1 0x0 KECCAK256 SLOAD SWAP4 POP DUP4 DUP6 PUSH1 0x0 DUP2 MLOAD DUP2 LT PUSH2 0x1936 JUMPI PUSH2 0x1935 PUSH2 0x22CA JUMP JUMPDEST JUMPDEST PUSH1 0x20 MUL PUSH1 0x20 ADD ADD DUP2 DUP2 MSTORE POP POP PUSH1 0x0 PUSH1 0x1 SWAP1 POP JUMPDEST PUSH1 0x3 SLOAD DUP2 LT ISZERO PUSH2 0x1A66 JUMPI PUSH1 0x9 DUP2 DUP2 SLOAD DUP2 LT PUSH2 0x1967 JUMPI PUSH2 0x1966 PUSH2 0x22CA JUMP JUMPDEST JUMPDEST SWAP1 PUSH1 0x0 MSTORE PUSH1 0x20 PUSH1 0x0 KECCAK256 ADD PUSH1 0x0 SWAP1 SLOAD SWAP1 PUSH2 0x100 EXP SWAP1 DIV PUSH20 0xFFFFFFFFFFFFFFFFFFFFFFFFFFFFFFFFFFFFFFFF AND SWAP2 POP DUP2 DUP8 DUP3 DUP2 MLOAD DUP2 LT PUSH2 0x19A8 JUMPI PUSH2 0x19A7 PUSH2 0x22CA JUMP JUMPDEST JUMPDEST PUSH1 0x20 MUL PUSH1 0x20 ADD ADD SWAP1 PUSH20 0xFFFFFFFFFFFFFFFFFFFFFFFFFFFFFFFFFFFFFFFF AND SWAP1 DUP2 PUSH20 0xFFFFFFFFFFFFFFFFFFFFFFFFFFFFFFFFFFFFFFFF AND DUP2 MSTORE POP POP PUSH1 0xA PUSH1 0x0 DUP4 PUSH20 0xFFFFFFFFFFFFFFFFFFFFFFFFFFFFFFFFFFFFFFFF AND PUSH20 0xFFFFFFFFFFFFFFFFFFFFFFFFFFFFFFFFFFFFFFFF AND DUP2 MSTORE PUSH1 0x20 ADD SWAP1 DUP2 MSTORE PUSH1 0x20 ADD PUSH1 0x0 KECCAK256 SLOAD SWAP3 POP DUP3 DUP7 DUP3 DUP2 MLOAD DUP2 LT PUSH2 0x1A38 JUMPI PUSH2 0x1A37 PUSH2 0x22CA JUMP JUMPDEST JUMPDEST PUSH1 0x20 MUL PUSH1 0x20 ADD ADD DUP2 DUP2 MSTORE POP POP DUP3 DUP6 GT ISZERO PUSH2 0x1A53 JUMPI DUP3 SWAP5 POP DUP1 SWAP4 POP JUMPDEST DUP1 DUP1 PUSH2 0x1A5E SWAP1 PUSH2 0x26F4 JUMP JUMPDEST SWAP2 POP POP PUSH2 0x1949 JUMP JUMPDEST POP PUSH1 0x0 PUSH1 0x3 SLOAD SWAP1 POP JUMPDEST PUSH1 0x9 DUP1 SLOAD SWAP1 POP DUP2 LT ISZERO PUSH2 0x1BF0 JUMPI PUSH1 0x9 DUP2 DUP2 SLOAD DUP2 LT PUSH2 0x1A90 JUMPI PUSH2 0x1A8F PUSH2 0x22CA JUMP JUMPDEST JUMPDEST SWAP1 PUSH1 0x0 MSTORE PUSH1 0x20 PUSH1 0x0 KECCAK256 ADD PUSH1 0x0 SWAP1 SLOAD SWAP1 PUSH2 0x100 EXP SWAP1 DIV PUSH20 0xFFFFFFFFFFFFFFFFFFFFFFFFFFFFFFFFFFFFFFFF AND SWAP2 POP PUSH1 0xA PUSH1 0x0 DUP4 PUSH20 0xFFFFFFFFFFFFFFFFFFFFFFFFFFFFFFFFFFFFFFFF AND PUSH20 0xFFFFFFFFFFFFFFFFFFFFFFFFFFFFFFFFFFFFFFFF AND DUP2 MSTORE PUSH1 0x20 ADD SWAP1 DUP2 MSTORE PUSH1 0x20 ADD PUSH1 0x0 KECCAK256 SLOAD SWAP3 POP DUP5 DUP4 GT ISZERO PUSH2 0x1BDD JUMPI DUP2 DUP8 DUP6 DUP2 MLOAD DUP2 LT PUSH2 0x1B1B JUMPI PUSH2 0x1B1A PUSH2 0x22CA JUMP JUMPDEST JUMPDEST PUSH1 0x20 MUL PUSH1 0x20 ADD ADD SWAP1 PUSH20 0xFFFFFFFFFFFFFFFFFFFFFFFFFFFFFFFFFFFFFFFF AND SWAP1 DUP2 PUSH20 0xFFFFFFFFFFFFFFFFFFFFFFFFFFFFFFFFFFFFFFFF AND DUP2 MSTORE POP POP DUP3 DUP7 DUP6 DUP2 MLOAD DUP2 LT PUSH2 0x1B69 JUMPI PUSH2 0x1B68 PUSH2 0x22CA JUMP JUMPDEST JUMPDEST PUSH1 0x20 MUL PUSH1 0x20 ADD ADD DUP2 DUP2 MSTORE POP POP DUP3 SWAP5 POP PUSH1 0x0 JUMPDEST PUSH1 0x3 SLOAD DUP2 LT ISZERO PUSH2 0x1BDB JUMPI DUP6 DUP8 DUP3 DUP2 MLOAD DUP2 LT PUSH2 0x1B99 JUMPI PUSH2 0x1B98 PUSH2 0x22CA JUMP JUMPDEST JUMPDEST PUSH1 0x20 MUL PUSH1 0x20 ADD ADD MLOAD LT ISZERO PUSH2 0x1BC8 JUMPI DUP7 DUP2 DUP2 MLOAD DUP2 LT PUSH2 0x1BBA JUMPI PUSH2 0x1BB9 PUSH2 0x22CA JUMP JUMPDEST JUMPDEST PUSH1 0x20 MUL PUSH1 0x20 ADD ADD MLOAD SWAP6 POP DUP1 SWAP5 POP JUMPDEST DUP1 DUP1 PUSH2 0x1BD3 SWAP1 PUSH2 0x26F4 JUMP JUMPDEST SWAP2 POP POP PUSH2 0x1B7B JUMP JUMPDEST POP JUMPDEST DUP1 DUP1 PUSH2 0x1BE8 SWAP1 PUSH2 0x26F4 JUMP JUMPDEST SWAP2 POP POP PUSH2 0x1A6F JUMP JUMPDEST POP PUSH1 0x0 JUMPDEST PUSH1 0x3 SLOAD DUP2 LT ISZERO PUSH2 0x1C83 JUMPI PUSH1 0x1 PUSH1 0x6 PUSH1 0x0 DUP10 DUP5 DUP2 MLOAD DUP2 LT PUSH2 0x1C17 JUMPI PUSH2 0x1C16 PUSH2 0x22CA JUMP JUMPDEST JUMPDEST PUSH1 0x20 MUL PUSH1 0x20 ADD ADD MLOAD PUSH20 0xFFFFFFFFFFFFFFFFFFFFFFFFFFFFFFFFFFFFFFFF AND PUSH20 0xFFFFFFFFFFFFFFFFFFFFFFFFFFFFFFFFFFFFFFFF AND DUP2 MSTORE PUSH1 0x20 ADD SWAP1 DUP2 MSTORE PUSH1 0x20 ADD PUSH1 0x0 KECCAK256 PUSH1 0x0 PUSH2 0x100 EXP DUP2 SLOAD DUP2 PUSH1 0xFF MUL NOT AND SWAP1 DUP4 ISZERO ISZERO MUL OR SWAP1 SSTORE POP DUP1 DUP1 PUSH2 0x1C7B SWAP1 PUSH2 0x26F4 JUMP JUMPDEST SWAP2 POP POP PUSH2 0x1BF4 JUMP JUMPDEST POP POP POP POP POP POP POP JUMP JUMPDEST PUSH1 0x0 DUP2 PUSH2 0x3E8 PUSH2 0x1C9C SWAP2 SWAP1 PUSH2 0x2606 JUMP JUMPDEST SWAP1 POP PUSH1 0x0 JUMPDEST PUSH1 0x9 DUP1 SLOAD SWAP1 POP DUP2 LT ISZERO PUSH2 0x1DFF JUMPI PUSH1 0x0 PUSH1 0x9 DUP3 DUP2 SLOAD DUP2 LT PUSH2 0x1CC4 JUMPI PUSH2 0x1CC3 PUSH2 0x22CA JUMP JUMPDEST JUMPDEST SWAP1 PUSH1 0x0 MSTORE PUSH1 0x20 PUSH1 0x0 KECCAK256 ADD PUSH1 0x0 SWAP1 SLOAD SWAP1 PUSH2 0x100 EXP SWAP1 DIV PUSH20 0xFFFFFFFFFFFFFFFFFFFFFFFFFFFFFFFFFFFFFFFF AND SWAP1 POP PUSH1 0x0 ISZERO ISZERO PUSH1 0xC PUSH1 0x0 DUP4 PUSH20 0xFFFFFFFFFFFFFFFFFFFFFFFFFFFFFFFFFFFFFFFF AND PUSH20 0xFFFFFFFFFFFFFFFFFFFFFFFFFFFFFFFFFFFFFFFF AND DUP2 MSTORE PUSH1 0x20 ADD SWAP1 DUP2 MSTORE PUSH1 0x20 ADD PUSH1 0x0 KECCAK256 PUSH1 0x0 SWAP1 SLOAD SWAP1 PUSH2 0x100 EXP SWAP1 DIV PUSH1 0xFF AND ISZERO ISZERO SUB PUSH2 0x1DEB JUMPI PUSH1 0x0 DUP4 PUSH2 0x3E8 PUSH1 0xB PUSH1 0x0 DUP6 PUSH20 0xFFFFFFFFFFFFFFFFFFFFFFFFFFFFFFFFFFFFFFFF AND PUSH20 0xFFFFFFFFFFFFFFFFFFFFFFFFFFFFFFFFFFFFFFFF AND DUP2 MSTORE PUSH1 0x20 ADD SWAP1 DUP2 MSTORE PUSH1 0x20 ADD PUSH1 0x0 KECCAK256 SLOAD PUSH2 0x1D99 SWAP2 SWAP1 PUSH2 0x263A JUMP JUMPDEST PUSH2 0x1DA3 SWAP2 SWAP1 PUSH2 0x26C3 JUMP JUMPDEST SWAP1 POP DUP1 PUSH1 0xB PUSH1 0x0 DUP5 PUSH20 0xFFFFFFFFFFFFFFFFFFFFFFFFFFFFFFFFFFFFFFFF AND PUSH20 0xFFFFFFFFFFFFFFFFFFFFFFFFFFFFFFFFFFFFFFFF AND DUP2 MSTORE PUSH1 0x20 ADD SWAP1 DUP2 MSTORE PUSH1 0x20 ADD PUSH1 0x0 KECCAK256 DUP2 SWAP1 SSTORE POP POP JUMPDEST POP DUP1 DUP1 PUSH2 0x1DF7 SWAP1 PUSH2 0x26F4 JUMP JUMPDEST SWAP2 POP POP PUSH2 0x1CA1 JUMP JUMPDEST POP POP POP JUMP JUMPDEST PUSH1 0x0 PUSH1 0x40 MLOAD SWAP1 POP SWAP1 JUMP JUMPDEST PUSH1 0x0 DUP1 REVERT JUMPDEST PUSH1 0x0 DUP1 REVERT JUMPDEST PUSH1 0x0 DUP2 SWAP1 POP SWAP2 SWAP1 POP JUMP JUMPDEST PUSH2 0x1E2B DUP2 PUSH2 0x1E18 JUMP JUMPDEST DUP2 EQ PUSH2 0x1E36 JUMPI PUSH1 0x0 DUP1 REVERT JUMPDEST POP JUMP JUMPDEST PUSH1 0x0 DUP2 CALLDATALOAD SWAP1 POP PUSH2 0x1E48 DUP2 PUSH2 0x1E22 JUMP JUMPDEST SWAP3 SWAP2 POP POP JUMP JUMPDEST PUSH1 0x0 PUSH20 0xFFFFFFFFFFFFFFFFFFFFFFFFFFFFFFFFFFFFFFFF DUP3 AND SWAP1 POP SWAP2 SWAP1 POP JUMP JUMPDEST PUSH1 0x0 PUSH2 0x1E79 DUP3 PUSH2 0x1E4E JUMP JUMPDEST SWAP1 POP SWAP2 SWAP1 POP JUMP JUMPDEST PUSH2 0x1E89 DUP2 PUSH2 0x1E6E JUMP JUMPDEST DUP2 EQ PUSH2 0x1E94 JUMPI PUSH1 0x0 DUP1 REVERT JUMPDEST POP JUMP JUMPDEST PUSH1 0x0 DUP2 CALLDATALOAD SWAP1 POP PUSH2 0x1EA6 DUP2 PUSH2 0x1E80 JUMP JUMPDEST SWAP3 SWAP2 POP POP JUMP JUMPDEST PUSH1 0x0 DUP1 PUSH1 0x40 DUP4 DUP6 SUB SLT ISZERO PUSH2 0x1EC3 JUMPI PUSH2 0x1EC2 PUSH2 0x1E0E JUMP JUMPDEST JUMPDEST PUSH1 0x0 PUSH2 0x1ED1 DUP6 DUP3 DUP7 ADD PUSH2 0x1E39 JUMP JUMPDEST SWAP3 POP POP PUSH1 0x20 PUSH2 0x1EE2 DUP6 DUP3 DUP7 ADD PUSH2 0x1E97 JUMP JUMPDEST SWAP2 POP POP SWAP3 POP SWAP3 SWAP1 POP JUMP JUMPDEST PUSH1 0x0 DUP2 ISZERO ISZERO SWAP1 POP SWAP2 SWAP1 POP JUMP JUMPDEST PUSH2 0x1F01 DUP2 PUSH2 0x1EEC JUMP JUMPDEST DUP3 MSTORE POP POP JUMP JUMPDEST PUSH1 0x0 PUSH1 0x20 DUP3 ADD SWAP1 POP PUSH2 0x1F1C PUSH1 0x0 DUP4 ADD DUP5 PUSH2 0x1EF8 JUMP JUMPDEST SWAP3 SWAP2 POP POP JUMP JUMPDEST PUSH1 0x0 PUSH1 0x20 DUP3 DUP5 SUB SLT ISZERO PUSH2 0x1F38 JUMPI PUSH2 0x1F37 PUSH2 0x1E0E JUMP JUMPDEST JUMPDEST PUSH1 0x0 PUSH2 0x1F46 DUP5 DUP3 DUP6 ADD PUSH2 0x1E97 JUMP JUMPDEST SWAP2 POP POP SWAP3 SWAP2 POP POP JUMP JUMPDEST PUSH1 0x0 DUP1 REVERT JUMPDEST PUSH1 0x0 DUP1 REVERT JUMPDEST PUSH1 0x0 PUSH1 0x1F NOT PUSH1 0x1F DUP4 ADD AND SWAP1 POP SWAP2 SWAP1 POP JUMP JUMPDEST PUSH32 0x4E487B7100000000000000000000000000000000000000000000000000000000 PUSH1 0x0 MSTORE PUSH1 0x41 PUSH1 0x4 MSTORE PUSH1 0x24 PUSH1 0x0 REVERT JUMPDEST PUSH2 0x1FA2 DUP3 PUSH2 0x1F59 JUMP JUMPDEST DUP2 ADD DUP2 DUP2 LT PUSH8 0xFFFFFFFFFFFFFFFF DUP3 GT OR ISZERO PUSH2 0x1FC1 JUMPI PUSH2 0x1FC0 PUSH2 0x1F6A JUMP JUMPDEST JUMPDEST DUP1 PUSH1 0x40 MSTORE POP POP POP JUMP JUMPDEST PUSH1 0x0 PUSH2 0x1FD4 PUSH2 0x1E04 JUMP JUMPDEST SWAP1 POP PUSH2 0x1FE0 DUP3 DUP3 PUSH2 0x1F99 JUMP JUMPDEST SWAP2 SWAP1 POP JUMP JUMPDEST PUSH1 0x0 PUSH8 0xFFFFFFFFFFFFFFFF DUP3 GT ISZERO PUSH2 0x2000 JUMPI PUSH2 0x1FFF PUSH2 0x1F6A JUMP JUMPDEST JUMPDEST PUSH2 0x2009 DUP3 PUSH2 0x1F59 JUMP JUMPDEST SWAP1 POP PUSH1 0x20 DUP2 ADD SWAP1 POP SWAP2 SWAP1 POP JUMP JUMPDEST DUP3 DUP2 DUP4 CALLDATACOPY PUSH1 0x0 DUP4 DUP4 ADD MSTORE POP POP POP JUMP JUMPDEST PUSH1 0x0 PUSH2 0x2038 PUSH2 0x2033 DUP5 PUSH2 0x1FE5 JUMP JUMPDEST PUSH2 0x1FCA JUMP JUMPDEST SWAP1 POP DUP3 DUP2 MSTORE PUSH1 0x20 DUP2 ADD DUP5 DUP5 DUP5 ADD GT ISZERO PUSH2 0x2054 JUMPI PUSH2 0x2053 PUSH2 0x1F54 JUMP JUMPDEST JUMPDEST PUSH2 0x205F DUP5 DUP3 DUP6 PUSH2 0x2016 JUMP JUMPDEST POP SWAP4 SWAP3 POP POP POP JUMP JUMPDEST PUSH1 0x0 DUP3 PUSH1 0x1F DUP4 ADD SLT PUSH2 0x207C JUMPI PUSH2 0x207B PUSH2 0x1F4F JUMP JUMPDEST JUMPDEST DUP2 CALLDATALOAD PUSH2 0x208C DUP5 DUP3 PUSH1 0x20 DUP7 ADD PUSH2 0x2025 JUMP JUMPDEST SWAP2 POP POP SWAP3 SWAP2 POP POP JUMP JUMPDEST PUSH1 0x0 DUP1 PUSH1 0x0 PUSH1 0x60 DUP5 DUP7 SUB SLT ISZERO PUSH2 0x20AE JUMPI PUSH2 0x20AD PUSH2 0x1E0E JUMP JUMPDEST JUMPDEST PUSH1 0x0 DUP5 ADD CALLDATALOAD PUSH8 0xFFFFFFFFFFFFFFFF DUP2 GT ISZERO PUSH2 0x20CC JUMPI PUSH2 0x20CB PUSH2 0x1E13 JUMP JUMPDEST JUMPDEST PUSH2 0x20D8 DUP7 DUP3 DUP8 ADD PUSH2 0x2067 JUMP JUMPDEST SWAP4 POP POP PUSH1 0x20 DUP5 ADD CALLDATALOAD PUSH8 0xFFFFFFFFFFFFFFFF DUP2 GT ISZERO PUSH2 0x20F9 JUMPI PUSH2 0x20F8 PUSH2 0x1E13 JUMP JUMPDEST JUMPDEST PUSH2 0x2105 DUP7 DUP3 DUP8 ADD PUSH2 0x2067 JUMP JUMPDEST SWAP3 POP POP PUSH1 0x40 PUSH2 0x2116 DUP7 DUP3 DUP8 ADD PUSH2 0x1E39 JUMP JUMPDEST SWAP2 POP POP SWAP3 POP SWAP3 POP SWAP3 JUMP JUMPDEST PUSH2 0x2129 DUP2 PUSH2 0x1E18 JUMP JUMPDEST DUP3 MSTORE POP POP JUMP JUMPDEST PUSH1 0x0 PUSH1 0x20 DUP3 ADD SWAP1 POP PUSH2 0x2144 PUSH1 0x0 DUP4 ADD DUP5 PUSH2 0x2120 JUMP JUMPDEST SWAP3 SWAP2 POP POP JUMP JUMPDEST PUSH1 0x0 PUSH1 0x20 DUP3 DUP5 SUB SLT ISZERO PUSH2 0x2160 JUMPI PUSH2 0x215F PUSH2 0x1E0E JUMP JUMPDEST JUMPDEST PUSH1 0x0 PUSH2 0x216E DUP5 DUP3 DUP6 ADD PUSH2 0x1E39 JUMP JUMPDEST SWAP2 POP POP SWAP3 SWAP2 POP POP JUMP JUMPDEST PUSH2 0x2180 DUP2 PUSH2 0x1E6E JUMP JUMPDEST DUP3 MSTORE POP POP JUMP JUMPDEST PUSH1 0x0 PUSH1 0x20 DUP3 ADD SWAP1 POP PUSH2 0x219B PUSH1 0x0 DUP4 ADD DUP5 PUSH2 0x2177 JUMP JUMPDEST SWAP3 SWAP2 POP POP JUMP JUMPDEST PUSH1 0x0 DUP1 PUSH1 0x40 DUP4 DUP6 SUB SLT ISZERO PUSH2 0x21B8 JUMPI PUSH2 0x21B7 PUSH2 0x1E0E JUMP JUMPDEST JUMPDEST PUSH1 0x0 PUSH2 0x21C6 DUP6 DUP3 DUP7 ADD PUSH2 0x1E97 JUMP JUMPDEST SWAP3 POP POP PUSH1 0x20 PUSH2 0x21D7 DUP6 DUP3 DUP7 ADD PUSH2 0x1E39 JUMP JUMPDEST SWAP2 POP POP SWAP3 POP SWAP3 SWAP1 POP JUMP JUMPDEST PUSH1 0x0 DUP2 MLOAD SWAP1 POP SWAP2 SWAP1 POP JUMP JUMPDEST PUSH1 0x0 DUP3 DUP3 MSTORE PUSH1 0x20 DUP3 ADD SWAP1 POP SWAP3 SWAP2 POP POP JUMP JUMPDEST PUSH1 0x0 JUMPDEST DUP4 DUP2 LT ISZERO PUSH2 0x221B JUMPI DUP1 DUP3 ADD MLOAD DUP2 DUP5 ADD MSTORE PUSH1 0x20 DUP2 ADD SWAP1 POP PUSH2 0x2200 JUMP JUMPDEST DUP4 DUP2 GT ISZERO PUSH2 0x222A JUMPI PUSH1 0x0 DUP5 DUP5 ADD MSTORE JUMPDEST POP POP POP POP JUMP JUMPDEST PUSH1 0x0 PUSH2 0x223B DUP3 PUSH2 0x21E1 JUMP JUMPDEST PUSH2 0x2245 DUP2 DUP6 PUSH2 0x21EC JUMP JUMPDEST SWAP4 POP PUSH2 0x2255 DUP2 DUP6 PUSH1 0x20 DUP7 ADD PUSH2 0x21FD JUMP JUMPDEST PUSH2 0x225E DUP2 PUSH2 0x1F59 JUMP JUMPDEST DUP5 ADD SWAP2 POP POP SWAP3 SWAP2 POP POP JUMP JUMPDEST PUSH1 0x0 PUSH1 0xA0 DUP3 ADD SWAP1 POP DUP2 DUP2 SUB PUSH1 0x0 DUP4 ADD MSTORE PUSH2 0x2283 DUP2 DUP9 PUSH2 0x2230 JUMP JUMPDEST SWAP1 POP DUP2 DUP2 SUB PUSH1 0x20 DUP4 ADD MSTORE PUSH2 0x2297 DUP2 DUP8 PUSH2 0x2230 JUMP JUMPDEST SWAP1 POP PUSH2 0x22A6 PUSH1 0x40 DUP4 ADD DUP7 PUSH2 0x2120 JUMP JUMPDEST PUSH2 0x22B3 PUSH1 0x60 DUP4 ADD DUP6 PUSH2 0x1EF8 JUMP JUMPDEST PUSH2 0x22C0 PUSH1 0x80 DUP4 ADD DUP5 PUSH2 0x2120 JUMP JUMPDEST SWAP7 SWAP6 POP POP POP POP POP POP JUMP JUMPDEST PUSH32 0x4E487B7100000000000000000000000000000000000000000000000000000000 PUSH1 0x0 MSTORE PUSH1 0x32 PUSH1 0x4 MSTORE PUSH1 0x24 PUSH1 0x0 REVERT JUMPDEST PUSH32 0x4E487B7100000000000000000000000000000000000000000000000000000000 PUSH1 0x0 MSTORE PUSH1 0x22 PUSH1 0x4 MSTORE PUSH1 0x24 PUSH1 0x0 REVERT JUMPDEST PUSH1 0x0 PUSH1 0x2 DUP3 DIV SWAP1 POP PUSH1 0x1 DUP3 AND DUP1 PUSH2 0x2340 JUMPI PUSH1 0x7F DUP3 AND SWAP2 POP JUMPDEST PUSH1 0x20 DUP3 LT DUP2 SUB PUSH2 0x2353 JUMPI PUSH2 0x2352 PUSH2 0x22F9 JUMP JUMPDEST JUMPDEST POP SWAP2 SWAP1 POP JUMP JUMPDEST PUSH1 0x0 DUP2 SWAP1 POP DUP2 PUSH1 0x0 MSTORE PUSH1 0x20 PUSH1 0x0 KECCAK256 SWAP1 POP SWAP2 SWAP1 POP JUMP JUMPDEST PUSH1 0x0 PUSH1 0x20 PUSH1 0x1F DUP4 ADD DIV SWAP1 POP SWAP2 SWAP1 POP JUMP JUMPDEST PUSH1 0x0 DUP3 DUP3 SHL SWAP1 POP SWAP3 SWAP2 POP POP JUMP JUMPDEST PUSH1 0x0 PUSH1 0x8 DUP4 MUL PUSH2 0x23BB PUSH32 0xFFFFFFFFFFFFFFFFFFFFFFFFFFFFFFFFFFFFFFFFFFFFFFFFFFFFFFFFFFFFFFFF DUP3 PUSH2 0x237E JUMP JUMPDEST PUSH2 0x23C5 DUP7 DUP4 PUSH2 0x237E JUMP JUMPDEST SWAP6 POP DUP1 NOT DUP5 AND SWAP4 POP DUP1 DUP7 AND DUP5 OR SWAP3 POP POP POP SWAP4 SWAP3 POP POP POP JUMP JUMPDEST PUSH1 0x0 DUP2 SWAP1 POP SWAP2 SWAP1 POP JUMP JUMPDEST PUSH1 0x0 PUSH2 0x2402 PUSH2 0x23FD PUSH2 0x23F8 DUP5 PUSH2 0x1E18 JUMP JUMPDEST PUSH2 0x23DD JUMP JUMPDEST PUSH2 0x1E18 JUMP JUMPDEST SWAP1 POP SWAP2 SWAP1 POP JUMP JUMPDEST PUSH1 0x0 DUP2 SWAP1 POP SWAP2 SWAP1 POP JUMP JUMPDEST PUSH2 0x241C DUP4 PUSH2 0x23E7 JUMP JUMPDEST PUSH2 0x2430 PUSH2 0x2428 DUP3 PUSH2 0x2409 JUMP JUMPDEST DUP5 DUP5 SLOAD PUSH2 0x238B JUMP JUMPDEST DUP3 SSTORE POP POP POP POP JUMP JUMPDEST PUSH1 0x0 SWAP1 JUMP JUMPDEST PUSH2 0x2445 PUSH2 0x2438 JUMP JUMPDEST PUSH2 0x2450 DUP2 DUP5 DUP5 PUSH2 0x2413 JUMP JUMPDEST POP POP POP JUMP JUMPDEST JUMPDEST DUP2 DUP2 LT ISZERO PUSH2 0x2474 JUMPI PUSH2 0x2469 PUSH1 0x0 DUP3 PUSH2 0x243D JUMP JUMPDEST PUSH1 0x1 DUP2 ADD SWAP1 POP PUSH2 0x2456 JUMP JUMPDEST POP POP JUMP JUMPDEST PUSH1 0x1F DUP3 GT ISZERO PUSH2 0x24B9 JUMPI PUSH2 0x248A DUP2 PUSH2 0x2359 JUMP JUMPDEST PUSH2 0x2493 DUP5 PUSH2 0x236E JUMP JUMPDEST DUP2 ADD PUSH1 0x20 DUP6 LT ISZERO PUSH2 0x24A2 JUMPI DUP2 SWAP1 POP JUMPDEST PUSH2 0x24B6 PUSH2 0x24AE DUP6 PUSH2 0x236E JUMP JUMPDEST DUP4 ADD DUP3 PUSH2 0x2455 JUMP JUMPDEST POP POP JUMPDEST POP POP POP JUMP JUMPDEST PUSH1 0x0 DUP3 DUP3 SHR SWAP1 POP SWAP3 SWAP2 POP POP JUMP JUMPDEST PUSH1 0x0 PUSH2 0x24DC PUSH1 0x0 NOT DUP5 PUSH1 0x8 MUL PUSH2 0x24BE JUMP JUMPDEST NOT DUP1 DUP4 AND SWAP2 POP POP SWAP3 SWAP2 POP POP JUMP JUMPDEST PUSH1 0x0 PUSH2 0x24F5 DUP4 DUP4 PUSH2 0x24CB JUMP JUMPDEST SWAP2 POP DUP3 PUSH1 0x2 MUL DUP3 OR SWAP1 POP SWAP3 SWAP2 POP POP JUMP JUMPDEST PUSH2 0x250E DUP3 PUSH2 0x21E1 JUMP JUMPDEST PUSH8 0xFFFFFFFFFFFFFFFF DUP2 GT ISZERO PUSH2 0x2527 JUMPI PUSH2 0x2526 PUSH2 0x1F6A JUMP JUMPDEST JUMPDEST PUSH2 0x2531 DUP3 SLOAD PUSH2 0x2328 JUMP JUMPDEST PUSH2 0x253C DUP3 DUP3 DUP6 PUSH2 0x2478 JUMP JUMPDEST PUSH1 0x0 PUSH1 0x20 SWAP1 POP PUSH1 0x1F DUP4 GT PUSH1 0x1 DUP2 EQ PUSH2 0x256F JUMPI PUSH1 0x0 DUP5 ISZERO PUSH2 0x255D JUMPI DUP3 DUP8 ADD MLOAD SWAP1 POP JUMPDEST PUSH2 0x2567 DUP6 DUP3 PUSH2 0x24E9 JUMP JUMPDEST DUP7 SSTORE POP PUSH2 0x25CF JUMP JUMPDEST PUSH1 0x1F NOT DUP5 AND PUSH2 0x257D DUP7 PUSH2 0x2359 JUMP JUMPDEST PUSH1 0x0 JUMPDEST DUP3 DUP2 LT ISZERO PUSH2 0x25A5 JUMPI DUP5 DUP10 ADD MLOAD DUP3 SSTORE PUSH1 0x1 DUP3 ADD SWAP2 POP PUSH1 0x20 DUP6 ADD SWAP5 POP PUSH1 0x20 DUP2 ADD SWAP1 POP PUSH2 0x2580 JUMP JUMPDEST DUP7 DUP4 LT ISZERO PUSH2 0x25C2 JUMPI DUP5 DUP10 ADD MLOAD PUSH2 0x25BE PUSH1 0x1F DUP10 AND DUP3 PUSH2 0x24CB JUMP JUMPDEST DUP4 SSTORE POP JUMPDEST PUSH1 0x1 PUSH1 0x2 DUP9 MUL ADD DUP9 SSTORE POP POP POP JUMPDEST POP POP POP POP POP POP JUMP JUMPDEST PUSH32 0x4E487B7100000000000000000000000000000000000000000000000000000000 PUSH1 0x0 MSTORE PUSH1 0x11 PUSH1 0x4 MSTORE PUSH1 0x24 PUSH1 0x0 REVERT JUMPDEST PUSH1 0x0 PUSH2 0x2611 DUP3 PUSH2 0x1E18 JUMP JUMPDEST SWAP2 POP PUSH2 0x261C DUP4 PUSH2 0x1E18 JUMP JUMPDEST SWAP3 POP DUP3 DUP3 LT ISZERO PUSH2 0x262F JUMPI PUSH2 0x262E PUSH2 0x25D7 JUMP JUMPDEST JUMPDEST DUP3 DUP3 SUB SWAP1 POP SWAP3 SWAP2 POP POP JUMP JUMPDEST PUSH1 0x0 PUSH2 0x2645 DUP3 PUSH2 0x1E18 JUMP JUMPDEST SWAP2 POP PUSH2 0x2650 DUP4 PUSH2 0x1E18 JUMP JUMPDEST SWAP3 POP DUP2 PUSH32 0xFFFFFFFFFFFFFFFFFFFFFFFFFFFFFFFFFFFFFFFFFFFFFFFFFFFFFFFFFFFFFFFF DIV DUP4 GT DUP3 ISZERO ISZERO AND ISZERO PUSH2 0x2689 JUMPI PUSH2 0x2688 PUSH2 0x25D7 JUMP JUMPDEST JUMPDEST DUP3 DUP3 MUL SWAP1 POP SWAP3 SWAP2 POP POP JUMP JUMPDEST PUSH32 0x4E487B7100000000000000000000000000000000000000000000000000000000 PUSH1 0x0 MSTORE PUSH1 0x12 PUSH1 0x4 MSTORE PUSH1 0x24 PUSH1 0x0 REVERT JUMPDEST PUSH1 0x0 PUSH2 0x26CE DUP3 PUSH2 0x1E18 JUMP JUMPDEST SWAP2 POP PUSH2 0x26D9 DUP4 PUSH2 0x1E18 JUMP JUMPDEST SWAP3 POP DUP3 PUSH2 0x26E9 JUMPI PUSH2 0x26E8 PUSH2 0x2694 JUMP JUMPDEST JUMPDEST DUP3 DUP3 DIV SWAP1 POP SWAP3 SWAP2 POP POP JUMP JUMPDEST PUSH1 0x0 PUSH2 0x26FF DUP3 PUSH2 0x1E18 JUMP JUMPDEST SWAP2 POP PUSH32 0xFFFFFFFFFFFFFFFFFFFFFFFFFFFFFFFFFFFFFFFFFFFFFFFFFFFFFFFFFFFFFFFF DUP3 SUB PUSH2 0x2731 JUMPI PUSH2 0x2730 PUSH2 0x25D7 JUMP JUMPDEST JUMPDEST PUSH1 0x1 DUP3 ADD SWAP1 POP SWAP2 SWAP1 POP JUMP JUMPDEST PUSH1 0x0 PUSH2 0x2747 DUP3 PUSH2 0x1E18 JUMP JUMPDEST SWAP2 POP PUSH2 0x2752 DUP4 PUSH2 0x1E18 JUMP JUMPDEST SWAP3 POP DUP3 PUSH32 0xFFFFFFFFFFFFFFFFFFFFFFFFFFFFFFFFFFFFFFFFFFFFFFFFFFFFFFFFFFFFFFFF SUB DUP3 GT ISZERO PUSH2 0x2787 JUMPI PUSH2 0x2786 PUSH2 0x25D7 JUMP JUMPDEST JUMPDEST DUP3 DUP3 ADD SWAP1 POP SWAP3 SWAP2 POP POP JUMP INVALID LOG2 PUSH5 0x6970667358 0x22 SLT KECCAK256 0xA6 GASLIMIT DUP3 PUSH8 0x630FCCE4C9AB42CD SWAP13 DUP1 MSIZE 0xBD SDIV PUSH29 0xFC43040A49CA852715FEEDF3CC3564736F6C634300080F003300000000 "},"gasEstimates":{"creation":{"codeDepositCost":"2036800","executionCost":"infinite","totalCost":"infinite"},"external":{"Investment(address)":"2859","Investors(uint256)":"5022","PayDayVoted()":"infinite","Stakeholders(address)":"2914","Stakeholders_endTheContract(address)":"2891","allInvestorPercent()":"infinite","approveRequest(uint256)":"infinite","executed_order_66(uint256)":"infinite","getMoney()":"387","investorBalanc()":"infinite","isStakeholdersApprove(uint256,address)":"5313","join()":"infinite","lastLeaveVal()":"2497","lastRePay()":"2518","lastTotalVal()":"2540","leave_contract(address,uint256)":"infinite","lefted(address)":"2935","makeNewRequset(string,string,uint256)":"infinite","manager()":"2626","managerFineFee()":"2519","minimumContribution()":"2475","myRequsts(uint256)":"infinite","ownPercent(address)":"2926","payDay()":"infinite","site()":"2625","startContract()":"infinite","the_balance()":"2474","timeEnd()":"2539","timeStart()":"2517","timeToJoin()":"2497"},"internal":{"fixPercent(uint256)":"infinite","setStakeholders()":"infinite"}},"methodIdentifiers":{"Investment(address)":"d7898240","Investors(uint256)":"fbae5e7d","PayDayVoted()":"864a53dc","Stakeholders(address)":"1e28528e","Stakeholders_endTheContract(address)":"364548cd","allInvestorPercent()":"acdb8341","approveRequest(uint256)":"d7d1bbdb","executed_order_66(uint256)":"3d22aea8","getMoney()":"98e1b410","investorBalanc()":"2ef3fa27","isStakeholdersApprove(uint256,address)":"0060929a","join()":"b688a363","lastLeaveVal()":"2f5274e3","lastRePay()":"e028a693","lastTotalVal()":"8975aa08","leave_contract(address,uint256)":"b2f8be5c","lefted(address)":"999cc5ca","makeNewRequset(string,string,uint256)":"2b84b316","manager()":"481c6a75","managerFineFee()":"31d0e40f","minimumContribution()":"937e09b1","myRequsts(uint256)":"f63f9655","ownPercent(address)":"32b7acec","payDay()":"789b2e6c","site()":"e0d370ac","startContract()":"5fb02f4d","the_balance()":"a4758c9a","timeEnd()":"fda263e8","timeStart()":"fd74d294","timeToJoin()":"3ba20f2a"}},"storageLayout":{"storage":[{"astId":101,"contract":"Inbox.sol:basic","label":"penelty","offset":0,"slot":"0","type":"t_uint256"},{"astId":104,"contract":"Inbox.sol:basic","label":"manager_fee","offset":0,"slot":"1","type":"t_uint256"},{"astId":107,"contract":"Inbox.sol:basic","label":"days_start","offset":0,"slot":"2","type":"t_uint256"},{"astId":110,"contract":"Inbox.sol:basic","label":"numStakeholders","offset":0,"slot":"3","type":"t_uint256"},{"astId":112,"contract":"Inbox.sol:basic","label":"manager","offset":0,"slot":"4","type":"t_address"},{"astId":114,"contract":"Inbox.sol:basic","label":"site","offset":0,"slot":"5","type":"t_address"},{"astId":118,"contract":"Inbox.sol:basic","label":"Stakeholders","offset":0,"slot":"6","type":"t_mapping(t_address,t_bool)"},{"astId":122,"contract":"Inbox.sol:basic","label":"Stakeholders_endTheContract","offset":0,"slot":"7","type":"t_mapping(t_address,t_bool)"},{"astId":125,"contract":"Inbox.sol:basic","label":"endTheContract_numOfVote","offset":0,"slot":"8","type":"t_uint256"},{"astId":128,"contract":"Inbox.sol:basic","label":"Investors","offset":0,"slot":"9","type":"t_array(t_address)dyn_storage"},{"astId":132,"contract":"Inbox.sol:basic","label":"Investment","offset":0,"slot":"10","type":"t_mapping(t_address,t_uint256)"},{"astId":136,"contract":"Inbox.sol:basic","label":"ownPercent","offset":0,"slot":"11","type":"t_mapping(t_address,t_uint256)"},{"astId":140,"contract":"Inbox.sol:basic","label":"lefted","offset":0,"slot":"12","type":"t_mapping(t_address,t_bool)"},{"astId":142,"contract":"Inbox.sol:basic","label":"minimumContribution","offset":0,"slot":"13","type":"t_uint256"},{"astId":144,"contract":"Inbox.sol:basic","label":"timeStart","offset":0,"slot":"14","type":"t_uint256"},{"astId":146,"contract":"Inbox.sol:basic","label":"timeToJoin","offset":0,"slot":"15","type":"t_uint256"},{"astId":148,"contract":"Inbox.sol:basic","label":"timeEnd","offset":0,"slot":"16","type":"t_uint256"},{"astId":150,"contract":"Inbox.sol:basic","label":"canBuy","offset":0,"slot":"17","type":"t_bool"},{"astId":154,"contract":"Inbox.sol:basic","label":"myRequsts","offset":0,"slot":"18","type":"t_array(t_struct(Request)98_storage)dyn_storage"},{"astId":156,"contract":"Inbox.sol:basic","label":"lastRePay","offset":0,"slot":"19","type":"t_uint256"},{"astId":158,"contract":"Inbox.sol:basic","label":"lastTotalVal","offset":0,"slot":"20","type":"t_uint256"},{"astId":160,"contract":"Inbox.sol:basic","label":"managerFineFee","offset":0,"slot":"21","type":"t_uint256"},{"astId":162,"contract":"Inbox.sol:basic","label":"the_balance","offset":0,"slot":"22","type":"t_uint256"},{"astId":164,"contract":"Inbox.sol:basic","label":"lastLeaveVal","offset":0,"slot":"23","type":"t_uint256"}],"types":{"t_address":{"encoding":"inplace","label":"address","numberOfBytes":"20"},"t_array(t_address)dyn_storage":{"base":"t_address","encoding":"dynamic_array","label":"address[]","numberOfBytes":"32"},"t_array(t_struct(Request)98_storage)dyn_storage":{"base":"t_struct(Request)98_storage","encoding":"dynamic_array","label":"struct basic.Request[]","numberOfBytes":"32"},"t_bool":{"encoding":"inplace","label":"bool","numberOfBytes":"1"},"t_mapping(t_address,t_bool)":{"encoding":"mapping","key":"t_address","label":"mapping(address => bool)","numberOfBytes":"32","value":"t_bool"},"t_mapping(t_address,t_uint256)":{"encoding":"mapping","key":"t_address","label":"mapping(address => uint256)","numberOfBytes":"32","value":"t_uint256"},"t_string_storage":{"encoding":"bytes","label":"string","numberOfBytes":"32"},"t_struct(Request)98_storage":{"encoding":"inplace","label":"struct basic.Request","members":[{"astId":85,"contract":"Inbox.sol:basic","label":"description","offset":0,"slot":"0","type":"t_string_storage"},{"astId":87,"contract":"Inbox.sol:basic","label":"what","offset":0,"slot":"1","type":"t_string_storage"},{"astId":89,"contract":"Inbox.sol:basic","label":"value","offset":0,"slot":"2","type":"t_uint256"},{"astId":91,"contract":"Inbox.sol:basic","label":"complete","offset":0,"slot":"3","type":"t_bool"},{"astId":93,"contract":"Inbox.sol:basic","label":"approvalCount","offset":0,"slot":"4","type":"t_uint256"},{"astId":97,"contract":"Inbox.sol:basic","label":"approvals","offset":0,"slot":"5","type":"t_mapping(t_address,t_bool)"}],"numberOfBytes":"192"},"t_uint256":{"encoding":"inplace","label":"uint256","numberOfBytes":"32"}}},"userdoc":{"kind":"user","methods":{},"version":1}}