{"abi":[{"inputs":[{"internalType":"uint256","name":"minimum","type":"uint256"},{"internalType":"uint256","name":"num_days","type":"uint256"},{"internalType":"address","name":"creator","type":"address"},{"internalType":"address","name":"sentTo","type":"address"},{"internalType":"string","name":"contractName","type":"string"}],"stateMutability":"nonpayable","type":"constructor"},{"inputs":[{"internalType":"address","name":"","type":"address"}],"name":"Investment","outputs":[{"internalType":"uint256","name":"","type":"uint256"}],"stateMutability":"view","type":"function"},{"inputs":[{"internalType":"uint256","name":"","type":"uint256"}],"name":"Investors","outputs":[{"internalType":"address","name":"","type":"address"}],"stateMutability":"view","type":"function"},{"inputs":[],"name":"PayDayVoted","outputs":[],"stateMutability":"nonpayable","type":"function"},{"inputs":[{"internalType":"address","name":"","type":"address"}],"name":"Stakeholders","outputs":[{"internalType":"bool","name":"","type":"bool"}],"stateMutability":"view","type":"function"},{"inputs":[{"internalType":"address","name":"","type":"address"}],"name":"Stakeholders_endTheContract","outputs":[{"internalType":"bool","name":"","type":"bool"}],"stateMutability":"view","type":"function"},{"inputs":[],"name":"allInvestorPercent","outputs":[{"internalType":"uint256","name":"","type":"uint256"}],"stateMutability":"view","type":"function"},{"inputs":[{"internalType":"uint256","name":"index","type":"uint256"}],"name":"approveRequest","outputs":[],"stateMutability":"nonpayable","type":"function"},{"inputs":[],"name":"canBuy","outputs":[{"internalType":"bool","name":"","type":"bool"}],"stateMutability":"view","type":"function"},{"inputs":[{"internalType":"uint256","name":"index","type":"uint256"}],"name":"executed_order_66","outputs":[{"internalType":"bool","name":"","type":"bool"}],"stateMutability":"nonpayable","type":"function"},{"inputs":[],"name":"getMoney","outputs":[{"internalType":"bool","name":"","type":"bool"}],"stateMutability":"payable","type":"function"},{"inputs":[],"name":"investorBalanc","outputs":[{"internalType":"uint256","name":"","type":"uint256"}],"stateMutability":"view","type":"function"},{"inputs":[{"internalType":"uint256","name":"reqId","type":"uint256"},{"internalType":"address","name":"user","type":"address"}],"name":"isStakeholdersApprove","outputs":[{"internalType":"bool","name":"","type":"bool"}],"stateMutability":"view","type":"function"},{"inputs":[],"name":"join","outputs":[],"stateMutability":"payable","type":"function"},{"inputs":[],"name":"lastLeaveVal","outputs":[{"internalType":"uint256","name":"","type":"uint256"}],"stateMutability":"view","type":"function"},{"inputs":[],"name":"lastRePay","outputs":[{"internalType":"uint256","name":"","type":"uint256"}],"stateMutability":"view","type":"function"},{"inputs":[],"name":"lastTotalVal","outputs":[{"internalType":"uint256","name":"","type":"uint256"}],"stateMutability":"view","type":"function"},{"inputs":[{"internalType":"address","name":"leave_address","type":"address"},{"internalType":"uint256","name":"yield","type":"uint256"}],"name":"leave_contract","outputs":[{"internalType":"bool","name":"","type":"bool"}],"stateMutability":"nonpayable","type":"function"},{"inputs":[{"internalType":"address","name":"","type":"address"}],"name":"lefted","outputs":[{"internalType":"bool","name":"","type":"bool"}],"stateMutability":"view","type":"function"},{"inputs":[],"name":"listSize","outputs":[{"internalType":"uint256","name":"","type":"uint256"}],"stateMutability":"view","type":"function"},{"inputs":[{"internalType":"string","name":"what","type":"string"},{"internalType":"string","name":"why","type":"string"},{"internalType":"uint256","name":"value","type":"uint256"}],"name":"makeNewRequset","outputs":[],"stateMutability":"nonpayable","type":"function"},{"inputs":[],"name":"manager","outputs":[{"internalType":"address","name":"","type":"address"}],"stateMutability":"view","type":"function"},{"inputs":[],"name":"managerFineFee","outputs":[{"internalType":"uint256","name":"","type":"uint256"}],"stateMutability":"view","type":"function"},{"inputs":[],"name":"minimumContribution","outputs":[{"internalType":"uint256","name":"","type":"uint256"}],"stateMutability":"view","type":"function"},{"inputs":[{"internalType":"uint256","name":"","type":"uint256"}],"name":"myRequsts","outputs":[{"internalType":"string","name":"description","type":"string"},{"internalType":"string","name":"what","type":"string"},{"internalType":"uint256","name":"value","type":"uint256"},{"internalType":"bool","name":"complete","type":"bool"},{"internalType":"uint256","name":"approvalCount","type":"uint256"}],"stateMutability":"view","type":"function"},{"inputs":[],"name":"name","outputs":[{"internalType":"string","name":"","type":"string"}],"stateMutability":"view","type":"function"},{"inputs":[],"name":"numOfInvestors","outputs":[{"internalType":"uint256","name":"","type":"uint256"}],"stateMutability":"view","type":"function"},{"inputs":[{"internalType":"address","name":"","type":"address"}],"name":"ownPercent","outputs":[{"internalType":"uint256","name":"","type":"uint256"}],"stateMutability":"view","type":"function"},{"inputs":[],"name":"payDay","outputs":[],"stateMutability":"nonpayable","type":"function"},{"inputs":[],"name":"site","outputs":[{"internalType":"address","name":"","type":"address"}],"stateMutability":"view","type":"function"},{"inputs":[],"name":"startContract","outputs":[],"stateMutability":"nonpayable","type":"function"},{"inputs":[],"name":"the_balance","outputs":[{"internalType":"uint256","name":"","type":"uint256"}],"stateMutability":"view","type":"function"},{"inputs":[],"name":"timeEnd","outputs":[{"internalType":"uint256","name":"","type":"uint256"}],"stateMutability":"view","type":"function"},{"inputs":[],"name":"timeStart","outputs":[{"internalType":"uint256","name":"","type":"uint256"}],"stateMutability":"view","type":"function"},{"inputs":[],"name":"timeToJoin","outputs":[{"internalType":"uint256","name":"","type":"uint256"}],"stateMutability":"view","type":"function"}],"devdoc":{"kind":"dev","methods":{},"version":1},"evm":{"assembly":"    /* \"Inbox.sol\":65:9344  contract basic {... */\n  mstore(0x40, 0x80)\n    /* \"Inbox.sol\":1075:1078  800 */\n  0x0320\n    /* \"Inbox.sol\":1060:1078  uint penelty = 800 */\n  0x00\n  sstore\n    /* \"Inbox.sol\":1134:1137  100 */\n  0x64\n    /* \"Inbox.sol\":1115:1137  uint manager_fee = 100 */\n  0x01\n  sstore\n    /* \"Inbox.sol\":1172:1174  20 */\n  0x14\n    /* \"Inbox.sol\":1154:1174  uint days_start = 20 */\n  0x02\n  sstore\n    /* \"Inbox.sol\":1204:1205  4 */\n  0x04\n    /* \"Inbox.sol\":1181:1205  uint numStakeholders = 4 */\n  0x03\n  sstore\n    /* \"Inbox.sol\":1481:1482  0 */\n  0x00\n    /* \"Inbox.sol\":1449:1482  uint endTheContract_numOfVote = 0 */\n  0x09\n  sstore\n    /* \"Inbox.sol\":1549:1550  0 */\n  0x00\n    /* \"Inbox.sol\":1522:1550  uint public numOfInvestors=0 */\n  0x0b\n  sstore\n    /* \"Inbox.sol\":2550:3019  constructor(... */\n  callvalue\n  dup1\n  iszero\n  tag_1\n  jumpi\n  0x00\n  dup1\n  revert\ntag_1:\n  pop\n  mload(0x40)\n  sub(codesize, bytecodeSize)\n  dup1\n  bytecodeSize\n  dup4\n  codecopy\n  dup2\n  dup2\n  add\n  0x40\n  mstore\n  dup2\n  add\n  swap1\n  tag_2\n  swap2\n  swap1\n  tag_3\n  jump\t// in\ntag_2:\n    /* \"Inbox.sol\":2723:2735  contractName */\n  dup1\n    /* \"Inbox.sol\":2718:2722  name */\n  0x04\n    /* \"Inbox.sol\":2718:2735  name=contractName */\n  swap1\n  dup2\n  tag_6\n  swap2\n  swap1\n  tag_7\n  jump\t// in\ntag_6:\n  pop\n    /* \"Inbox.sol\":2753:2759  sentTo */\n  dup2\n    /* \"Inbox.sol\":2746:2750  site */\n  0x06\n  0x00\n    /* \"Inbox.sol\":2746:2759  site = sentTo */\n  0x0100\n  exp\n  dup2\n  sload\n  dup2\n  0xffffffffffffffffffffffffffffffffffffffff\n  mul\n  not\n  and\n  swap1\n  dup4\n  0xffffffffffffffffffffffffffffffffffffffff\n  and\n  mul\n  or\n  swap1\n  sstore\n  pop\n    /* \"Inbox.sol\":2780:2787  creator */\n  dup3\n    /* \"Inbox.sol\":2770:2777  manager */\n  0x05\n  0x00\n    /* \"Inbox.sol\":2770:2787  manager = creator */\n  0x0100\n  exp\n  dup2\n  sload\n  dup2\n  0xffffffffffffffffffffffffffffffffffffffff\n  mul\n  not\n  and\n  swap1\n  dup4\n  0xffffffffffffffffffffffffffffffffffffffff\n  and\n  mul\n  or\n  swap1\n  sstore\n  pop\n    /* \"Inbox.sol\":2820:2827  minimum */\n  dup5\n    /* \"Inbox.sol\":2798:2817  minimumContribution */\n  0x0f\n    /* \"Inbox.sol\":2798:2827  minimumContribution = minimum */\n  dup2\n  swap1\n  sstore\n  pop\n    /* \"Inbox.sol\":2850:2865  block.timestamp */\n  timestamp\n    /* \"Inbox.sol\":2838:2847  timeStart */\n  0x10\n    /* \"Inbox.sol\":2838:2865  timeStart = block.timestamp */\n  dup2\n  swap1\n  sstore\n  pop\n    /* \"Inbox.sol\":2916:2922  1 days */\n  0x015180\n    /* \"Inbox.sol\":2905:2913  num_days */\n  dup5\n    /* \"Inbox.sol\":2905:2922  num_days * 1 days */\n  tag_8\n  swap2\n  swap1\n  tag_9\n  jump\t// in\ntag_8:\n    /* \"Inbox.sol\":2886:2901  block.timestamp */\n  timestamp\n    /* \"Inbox.sol\":2886:2923  block.timestamp + (num_days * 1 days) */\n  tag_10\n  swap2\n  swap1\n  tag_11\n  jump\t// in\ntag_10:\n    /* \"Inbox.sol\":2876:2883  timeEnd */\n  0x12\n    /* \"Inbox.sol\":2876:2923  timeEnd = block.timestamp + (num_days * 1 days) */\n  dup2\n  swap1\n  sstore\n  pop\n    /* \"Inbox.sol\":2979:2985  1 days */\n  0x015180\n    /* \"Inbox.sol\":2966:2976  days_start */\n  sload(0x02)\n    /* \"Inbox.sol\":2966:2985  days_start * 1 days */\n  tag_12\n  swap2\n  swap1\n  tag_9\n  jump\t// in\ntag_12:\n    /* \"Inbox.sol\":2947:2962  block.timestamp */\n  timestamp\n    /* \"Inbox.sol\":2947:2986  block.timestamp + (days_start * 1 days) */\n  tag_13\n  swap2\n  swap1\n  tag_11\n  jump\t// in\ntag_13:\n    /* \"Inbox.sol\":2934:2944  timeToJoin */\n  0x11\n    /* \"Inbox.sol\":2934:2986  timeToJoin = block.timestamp + (days_start * 1 days) */\n  dup2\n  swap1\n  sstore\n  pop\n    /* \"Inbox.sol\":3006:3011  false */\n  0x00\n    /* \"Inbox.sol\":2997:3003  canBuy */\n  0x13\n  0x00\n    /* \"Inbox.sol\":2997:3011  canBuy = false */\n  0x0100\n  exp\n  dup2\n  sload\n  dup2\n  0xff\n  mul\n  not\n  and\n  swap1\n  dup4\n  iszero\n  iszero\n  mul\n  or\n  swap1\n  sstore\n  pop\n    /* \"Inbox.sol\":2550:3019  constructor(... */\n  pop\n  pop\n  pop\n  pop\n  pop\n    /* \"Inbox.sol\":65:9344  contract basic {... */\n  jump(tag_14)\n    /* \"#utility.yul\":7:82   */\ntag_15:\n    /* \"#utility.yul\":40:46   */\n  0x00\n    /* \"#utility.yul\":73:75   */\n  0x40\n    /* \"#utility.yul\":67:76   */\n  mload\n    /* \"#utility.yul\":57:76   */\n  swap1\n  pop\n    /* \"#utility.yul\":7:82   */\n  swap1\n  jump\t// out\n    /* \"#utility.yul\":88:205   */\ntag_16:\n    /* \"#utility.yul\":197:198   */\n  0x00\n    /* \"#utility.yul\":194:195   */\n  dup1\n    /* \"#utility.yul\":187:199   */\n  revert\n    /* \"#utility.yul\":211:328   */\ntag_17:\n    /* \"#utility.yul\":320:321   */\n  0x00\n    /* \"#utility.yul\":317:318   */\n  dup1\n    /* \"#utility.yul\":310:322   */\n  revert\n    /* \"#utility.yul\":334:411   */\ntag_18:\n    /* \"#utility.yul\":371:378   */\n  0x00\n    /* \"#utility.yul\":400:405   */\n  dup2\n    /* \"#utility.yul\":389:405   */\n  swap1\n  pop\n    /* \"#utility.yul\":334:411   */\n  swap2\n  swap1\n  pop\n  jump\t// out\n    /* \"#utility.yul\":417:539   */\ntag_19:\n    /* \"#utility.yul\":490:514   */\n  tag_60\n    /* \"#utility.yul\":508:513   */\n  dup2\n    /* \"#utility.yul\":490:514   */\n  tag_18\n  jump\t// in\ntag_60:\n    /* \"#utility.yul\":483:488   */\n  dup2\n    /* \"#utility.yul\":480:515   */\n  eq\n    /* \"#utility.yul\":470:533   */\n  tag_61\n  jumpi\n    /* \"#utility.yul\":529:530   */\n  0x00\n    /* \"#utility.yul\":526:527   */\n  dup1\n    /* \"#utility.yul\":519:531   */\n  revert\n    /* \"#utility.yul\":470:533   */\ntag_61:\n    /* \"#utility.yul\":417:539   */\n  pop\n  jump\t// out\n    /* \"#utility.yul\":545:688   */\ntag_20:\n    /* \"#utility.yul\":602:607   */\n  0x00\n    /* \"#utility.yul\":633:639   */\n  dup2\n    /* \"#utility.yul\":627:640   */\n  mload\n    /* \"#utility.yul\":618:640   */\n  swap1\n  pop\n    /* \"#utility.yul\":649:682   */\n  tag_63\n    /* \"#utility.yul\":676:681   */\n  dup2\n    /* \"#utility.yul\":649:682   */\n  tag_19\n  jump\t// in\ntag_63:\n    /* \"#utility.yul\":545:688   */\n  swap3\n  swap2\n  pop\n  pop\n  jump\t// out\n    /* \"#utility.yul\":694:820   */\ntag_21:\n    /* \"#utility.yul\":731:738   */\n  0x00\n    /* \"#utility.yul\":771:813   */\n  0xffffffffffffffffffffffffffffffffffffffff\n    /* \"#utility.yul\":764:769   */\n  dup3\n    /* \"#utility.yul\":760:814   */\n  and\n    /* \"#utility.yul\":749:814   */\n  swap1\n  pop\n    /* \"#utility.yul\":694:820   */\n  swap2\n  swap1\n  pop\n  jump\t// out\n    /* \"#utility.yul\":826:922   */\ntag_22:\n    /* \"#utility.yul\":863:870   */\n  0x00\n    /* \"#utility.yul\":892:916   */\n  tag_66\n    /* \"#utility.yul\":910:915   */\n  dup3\n    /* \"#utility.yul\":892:916   */\n  tag_21\n  jump\t// in\ntag_66:\n    /* \"#utility.yul\":881:916   */\n  swap1\n  pop\n    /* \"#utility.yul\":826:922   */\n  swap2\n  swap1\n  pop\n  jump\t// out\n    /* \"#utility.yul\":928:1050   */\ntag_23:\n    /* \"#utility.yul\":1001:1025   */\n  tag_68\n    /* \"#utility.yul\":1019:1024   */\n  dup2\n    /* \"#utility.yul\":1001:1025   */\n  tag_22\n  jump\t// in\ntag_68:\n    /* \"#utility.yul\":994:999   */\n  dup2\n    /* \"#utility.yul\":991:1026   */\n  eq\n    /* \"#utility.yul\":981:1044   */\n  tag_69\n  jumpi\n    /* \"#utility.yul\":1040:1041   */\n  0x00\n    /* \"#utility.yul\":1037:1038   */\n  dup1\n    /* \"#utility.yul\":1030:1042   */\n  revert\n    /* \"#utility.yul\":981:1044   */\ntag_69:\n    /* \"#utility.yul\":928:1050   */\n  pop\n  jump\t// out\n    /* \"#utility.yul\":1056:1199   */\ntag_24:\n    /* \"#utility.yul\":1113:1118   */\n  0x00\n    /* \"#utility.yul\":1144:1150   */\n  dup2\n    /* \"#utility.yul\":1138:1151   */\n  mload\n    /* \"#utility.yul\":1129:1151   */\n  swap1\n  pop\n    /* \"#utility.yul\":1160:1193   */\n  tag_71\n    /* \"#utility.yul\":1187:1192   */\n  dup2\n    /* \"#utility.yul\":1160:1193   */\n  tag_23\n  jump\t// in\ntag_71:\n    /* \"#utility.yul\":1056:1199   */\n  swap3\n  swap2\n  pop\n  pop\n  jump\t// out\n    /* \"#utility.yul\":1205:1322   */\ntag_25:\n    /* \"#utility.yul\":1314:1315   */\n  0x00\n    /* \"#utility.yul\":1311:1312   */\n  dup1\n    /* \"#utility.yul\":1304:1316   */\n  revert\n    /* \"#utility.yul\":1328:1445   */\ntag_26:\n    /* \"#utility.yul\":1437:1438   */\n  0x00\n    /* \"#utility.yul\":1434:1435   */\n  dup1\n    /* \"#utility.yul\":1427:1439   */\n  revert\n    /* \"#utility.yul\":1451:1553   */\ntag_27:\n    /* \"#utility.yul\":1492:1498   */\n  0x00\n    /* \"#utility.yul\":1543:1545   */\n  0x1f\n    /* \"#utility.yul\":1539:1546   */\n  not\n    /* \"#utility.yul\":1534:1536   */\n  0x1f\n    /* \"#utility.yul\":1527:1532   */\n  dup4\n    /* \"#utility.yul\":1523:1537   */\n  add\n    /* \"#utility.yul\":1519:1547   */\n  and\n    /* \"#utility.yul\":1509:1547   */\n  swap1\n  pop\n    /* \"#utility.yul\":1451:1553   */\n  swap2\n  swap1\n  pop\n  jump\t// out\n    /* \"#utility.yul\":1559:1739   */\ntag_28:\n    /* \"#utility.yul\":1607:1684   */\n  0x4e487b7100000000000000000000000000000000000000000000000000000000\n    /* \"#utility.yul\":1604:1605   */\n  0x00\n    /* \"#utility.yul\":1597:1685   */\n  mstore\n    /* \"#utility.yul\":1704:1708   */\n  0x41\n    /* \"#utility.yul\":1701:1702   */\n  0x04\n    /* \"#utility.yul\":1694:1709   */\n  mstore\n    /* \"#utility.yul\":1728:1732   */\n  0x24\n    /* \"#utility.yul\":1725:1726   */\n  0x00\n    /* \"#utility.yul\":1718:1733   */\n  revert\n    /* \"#utility.yul\":1745:2026   */\ntag_29:\n    /* \"#utility.yul\":1828:1855   */\n  tag_77\n    /* \"#utility.yul\":1850:1854   */\n  dup3\n    /* \"#utility.yul\":1828:1855   */\n  tag_27\n  jump\t// in\ntag_77:\n    /* \"#utility.yul\":1820:1826   */\n  dup2\n    /* \"#utility.yul\":1816:1856   */\n  add\n    /* \"#utility.yul\":1958:1964   */\n  dup2\n    /* \"#utility.yul\":1946:1956   */\n  dup2\n    /* \"#utility.yul\":1943:1965   */\n  lt\n    /* \"#utility.yul\":1922:1940   */\n  0xffffffffffffffff\n    /* \"#utility.yul\":1910:1920   */\n  dup3\n    /* \"#utility.yul\":1907:1941   */\n  gt\n    /* \"#utility.yul\":1904:1966   */\n  or\n    /* \"#utility.yul\":1901:1989   */\n  iszero\n  tag_78\n  jumpi\n    /* \"#utility.yul\":1969:1987   */\n  tag_79\n  tag_28\n  jump\t// in\ntag_79:\n    /* \"#utility.yul\":1901:1989   */\ntag_78:\n    /* \"#utility.yul\":2009:2019   */\n  dup1\n    /* \"#utility.yul\":2005:2007   */\n  0x40\n    /* \"#utility.yul\":1998:2020   */\n  mstore\n    /* \"#utility.yul\":1788:2026   */\n  pop\n    /* \"#utility.yul\":1745:2026   */\n  pop\n  pop\n  jump\t// out\n    /* \"#utility.yul\":2032:2161   */\ntag_30:\n    /* \"#utility.yul\":2066:2072   */\n  0x00\n    /* \"#utility.yul\":2093:2113   */\n  tag_81\n  tag_15\n  jump\t// in\ntag_81:\n    /* \"#utility.yul\":2083:2113   */\n  swap1\n  pop\n    /* \"#utility.yul\":2122:2155   */\n  tag_82\n    /* \"#utility.yul\":2150:2154   */\n  dup3\n    /* \"#utility.yul\":2142:2148   */\n  dup3\n    /* \"#utility.yul\":2122:2155   */\n  tag_29\n  jump\t// in\ntag_82:\n    /* \"#utility.yul\":2032:2161   */\n  swap2\n  swap1\n  pop\n  jump\t// out\n    /* \"#utility.yul\":2167:2475   */\ntag_31:\n    /* \"#utility.yul\":2229:2233   */\n  0x00\n    /* \"#utility.yul\":2319:2337   */\n  0xffffffffffffffff\n    /* \"#utility.yul\":2311:2317   */\n  dup3\n    /* \"#utility.yul\":2308:2338   */\n  gt\n    /* \"#utility.yul\":2305:2361   */\n  iszero\n  tag_84\n  jumpi\n    /* \"#utility.yul\":2341:2359   */\n  tag_85\n  tag_28\n  jump\t// in\ntag_85:\n    /* \"#utility.yul\":2305:2361   */\ntag_84:\n    /* \"#utility.yul\":2379:2408   */\n  tag_86\n    /* \"#utility.yul\":2401:2407   */\n  dup3\n    /* \"#utility.yul\":2379:2408   */\n  tag_27\n  jump\t// in\ntag_86:\n    /* \"#utility.yul\":2371:2408   */\n  swap1\n  pop\n    /* \"#utility.yul\":2463:2467   */\n  0x20\n    /* \"#utility.yul\":2457:2461   */\n  dup2\n    /* \"#utility.yul\":2453:2468   */\n  add\n    /* \"#utility.yul\":2445:2468   */\n  swap1\n  pop\n    /* \"#utility.yul\":2167:2475   */\n  swap2\n  swap1\n  pop\n  jump\t// out\n    /* \"#utility.yul\":2481:2788   */\ntag_32:\n    /* \"#utility.yul\":2549:2550   */\n  0x00\n    /* \"#utility.yul\":2559:2672   */\ntag_88:\n    /* \"#utility.yul\":2573:2579   */\n  dup4\n    /* \"#utility.yul\":2570:2571   */\n  dup2\n    /* \"#utility.yul\":2567:2580   */\n  lt\n    /* \"#utility.yul\":2559:2672   */\n  iszero\n  tag_90\n  jumpi\n    /* \"#utility.yul\":2658:2659   */\n  dup1\n    /* \"#utility.yul\":2653:2656   */\n  dup3\n    /* \"#utility.yul\":2649:2660   */\n  add\n    /* \"#utility.yul\":2643:2661   */\n  mload\n    /* \"#utility.yul\":2639:2640   */\n  dup2\n    /* \"#utility.yul\":2634:2637   */\n  dup5\n    /* \"#utility.yul\":2630:2641   */\n  add\n    /* \"#utility.yul\":2623:2662   */\n  mstore\n    /* \"#utility.yul\":2595:2597   */\n  0x20\n    /* \"#utility.yul\":2592:2593   */\n  dup2\n    /* \"#utility.yul\":2588:2598   */\n  add\n    /* \"#utility.yul\":2583:2598   */\n  swap1\n  pop\n    /* \"#utility.yul\":2559:2672   */\n  jump(tag_88)\ntag_90:\n    /* \"#utility.yul\":2690:2696   */\n  dup4\n    /* \"#utility.yul\":2687:2688   */\n  dup2\n    /* \"#utility.yul\":2684:2697   */\n  gt\n    /* \"#utility.yul\":2681:2782   */\n  iszero\n  tag_91\n  jumpi\n    /* \"#utility.yul\":2770:2771   */\n  0x00\n    /* \"#utility.yul\":2761:2767   */\n  dup5\n    /* \"#utility.yul\":2756:2759   */\n  dup5\n    /* \"#utility.yul\":2752:2768   */\n  add\n    /* \"#utility.yul\":2745:2772   */\n  mstore\n    /* \"#utility.yul\":2681:2782   */\ntag_91:\n    /* \"#utility.yul\":2530:2788   */\n  pop\n    /* \"#utility.yul\":2481:2788   */\n  pop\n  pop\n  pop\n  jump\t// out\n    /* \"#utility.yul\":2794:3215   */\ntag_33:\n    /* \"#utility.yul\":2883:2888   */\n  0x00\n    /* \"#utility.yul\":2908:2974   */\n  tag_93\n    /* \"#utility.yul\":2924:2973   */\n  tag_94\n    /* \"#utility.yul\":2966:2972   */\n  dup5\n    /* \"#utility.yul\":2924:2973   */\n  tag_31\n  jump\t// in\ntag_94:\n    /* \"#utility.yul\":2908:2974   */\n  tag_30\n  jump\t// in\ntag_93:\n    /* \"#utility.yul\":2899:2974   */\n  swap1\n  pop\n    /* \"#utility.yul\":2997:3003   */\n  dup3\n    /* \"#utility.yul\":2990:2995   */\n  dup2\n    /* \"#utility.yul\":2983:3004   */\n  mstore\n    /* \"#utility.yul\":3035:3039   */\n  0x20\n    /* \"#utility.yul\":3028:3033   */\n  dup2\n    /* \"#utility.yul\":3024:3040   */\n  add\n    /* \"#utility.yul\":3073:3076   */\n  dup5\n    /* \"#utility.yul\":3064:3070   */\n  dup5\n    /* \"#utility.yul\":3059:3062   */\n  dup5\n    /* \"#utility.yul\":3055:3071   */\n  add\n    /* \"#utility.yul\":3052:3077   */\n  gt\n    /* \"#utility.yul\":3049:3161   */\n  iszero\n  tag_95\n  jumpi\n    /* \"#utility.yul\":3080:3159   */\n  tag_96\n  tag_26\n  jump\t// in\ntag_96:\n    /* \"#utility.yul\":3049:3161   */\ntag_95:\n    /* \"#utility.yul\":3170:3209   */\n  tag_97\n    /* \"#utility.yul\":3202:3208   */\n  dup5\n    /* \"#utility.yul\":3197:3200   */\n  dup3\n    /* \"#utility.yul\":3192:3195   */\n  dup6\n    /* \"#utility.yul\":3170:3209   */\n  tag_32\n  jump\t// in\ntag_97:\n    /* \"#utility.yul\":2889:3215   */\n  pop\n    /* \"#utility.yul\":2794:3215   */\n  swap4\n  swap3\n  pop\n  pop\n  pop\n  jump\t// out\n    /* \"#utility.yul\":3235:3590   */\ntag_34:\n    /* \"#utility.yul\":3302:3307   */\n  0x00\n    /* \"#utility.yul\":3351:3354   */\n  dup3\n    /* \"#utility.yul\":3344:3348   */\n  0x1f\n    /* \"#utility.yul\":3336:3342   */\n  dup4\n    /* \"#utility.yul\":3332:3349   */\n  add\n    /* \"#utility.yul\":3328:3355   */\n  slt\n    /* \"#utility.yul\":3318:3440   */\n  tag_99\n  jumpi\n    /* \"#utility.yul\":3359:3438   */\n  tag_100\n  tag_25\n  jump\t// in\ntag_100:\n    /* \"#utility.yul\":3318:3440   */\ntag_99:\n    /* \"#utility.yul\":3469:3475   */\n  dup2\n    /* \"#utility.yul\":3463:3476   */\n  mload\n    /* \"#utility.yul\":3494:3584   */\n  tag_101\n    /* \"#utility.yul\":3580:3583   */\n  dup5\n    /* \"#utility.yul\":3572:3578   */\n  dup3\n    /* \"#utility.yul\":3565:3569   */\n  0x20\n    /* \"#utility.yul\":3557:3563   */\n  dup7\n    /* \"#utility.yul\":3553:3570   */\n  add\n    /* \"#utility.yul\":3494:3584   */\n  tag_33\n  jump\t// in\ntag_101:\n    /* \"#utility.yul\":3485:3584   */\n  swap2\n  pop\n    /* \"#utility.yul\":3308:3590   */\n  pop\n    /* \"#utility.yul\":3235:3590   */\n  swap3\n  swap2\n  pop\n  pop\n  jump\t// out\n    /* \"#utility.yul\":3596:4746   */\ntag_3:\n    /* \"#utility.yul\":3712:3718   */\n  0x00\n    /* \"#utility.yul\":3720:3726   */\n  dup1\n    /* \"#utility.yul\":3728:3734   */\n  0x00\n    /* \"#utility.yul\":3736:3742   */\n  dup1\n    /* \"#utility.yul\":3744:3750   */\n  0x00\n    /* \"#utility.yul\":3793:3796   */\n  0xa0\n    /* \"#utility.yul\":3781:3790   */\n  dup7\n    /* \"#utility.yul\":3772:3779   */\n  dup9\n    /* \"#utility.yul\":3768:3791   */\n  sub\n    /* \"#utility.yul\":3764:3797   */\n  slt\n    /* \"#utility.yul\":3761:3881   */\n  iszero\n  tag_103\n  jumpi\n    /* \"#utility.yul\":3800:3879   */\n  tag_104\n  tag_16\n  jump\t// in\ntag_104:\n    /* \"#utility.yul\":3761:3881   */\ntag_103:\n    /* \"#utility.yul\":3920:3921   */\n  0x00\n    /* \"#utility.yul\":3945:4009   */\n  tag_105\n    /* \"#utility.yul\":4001:4008   */\n  dup9\n    /* \"#utility.yul\":3992:3998   */\n  dup3\n    /* \"#utility.yul\":3981:3990   */\n  dup10\n    /* \"#utility.yul\":3977:3999   */\n  add\n    /* \"#utility.yul\":3945:4009   */\n  tag_20\n  jump\t// in\ntag_105:\n    /* \"#utility.yul\":3935:4009   */\n  swap6\n  pop\n    /* \"#utility.yul\":3891:4019   */\n  pop\n    /* \"#utility.yul\":4058:4060   */\n  0x20\n    /* \"#utility.yul\":4084:4148   */\n  tag_106\n    /* \"#utility.yul\":4140:4147   */\n  dup9\n    /* \"#utility.yul\":4131:4137   */\n  dup3\n    /* \"#utility.yul\":4120:4129   */\n  dup10\n    /* \"#utility.yul\":4116:4138   */\n  add\n    /* \"#utility.yul\":4084:4148   */\n  tag_20\n  jump\t// in\ntag_106:\n    /* \"#utility.yul\":4074:4148   */\n  swap5\n  pop\n    /* \"#utility.yul\":4029:4158   */\n  pop\n    /* \"#utility.yul\":4197:4199   */\n  0x40\n    /* \"#utility.yul\":4223:4287   */\n  tag_107\n    /* \"#utility.yul\":4279:4286   */\n  dup9\n    /* \"#utility.yul\":4270:4276   */\n  dup3\n    /* \"#utility.yul\":4259:4268   */\n  dup10\n    /* \"#utility.yul\":4255:4277   */\n  add\n    /* \"#utility.yul\":4223:4287   */\n  tag_24\n  jump\t// in\ntag_107:\n    /* \"#utility.yul\":4213:4287   */\n  swap4\n  pop\n    /* \"#utility.yul\":4168:4297   */\n  pop\n    /* \"#utility.yul\":4336:4338   */\n  0x60\n    /* \"#utility.yul\":4362:4426   */\n  tag_108\n    /* \"#utility.yul\":4418:4425   */\n  dup9\n    /* \"#utility.yul\":4409:4415   */\n  dup3\n    /* \"#utility.yul\":4398:4407   */\n  dup10\n    /* \"#utility.yul\":4394:4416   */\n  add\n    /* \"#utility.yul\":4362:4426   */\n  tag_24\n  jump\t// in\ntag_108:\n    /* \"#utility.yul\":4352:4426   */\n  swap3\n  pop\n    /* \"#utility.yul\":4307:4436   */\n  pop\n    /* \"#utility.yul\":4496:4499   */\n  0x80\n    /* \"#utility.yul\":4485:4494   */\n  dup7\n    /* \"#utility.yul\":4481:4500   */\n  add\n    /* \"#utility.yul\":4475:4501   */\n  mload\n    /* \"#utility.yul\":4528:4546   */\n  0xffffffffffffffff\n    /* \"#utility.yul\":4520:4526   */\n  dup2\n    /* \"#utility.yul\":4517:4547   */\n  gt\n    /* \"#utility.yul\":4514:4631   */\n  iszero\n  tag_109\n  jumpi\n    /* \"#utility.yul\":4550:4629   */\n  tag_110\n  tag_17\n  jump\t// in\ntag_110:\n    /* \"#utility.yul\":4514:4631   */\ntag_109:\n    /* \"#utility.yul\":4655:4729   */\n  tag_111\n    /* \"#utility.yul\":4721:4728   */\n  dup9\n    /* \"#utility.yul\":4712:4718   */\n  dup3\n    /* \"#utility.yul\":4701:4710   */\n  dup10\n    /* \"#utility.yul\":4697:4719   */\n  add\n    /* \"#utility.yul\":4655:4729   */\n  tag_34\n  jump\t// in\ntag_111:\n    /* \"#utility.yul\":4645:4729   */\n  swap2\n  pop\n    /* \"#utility.yul\":4446:4739   */\n  pop\n    /* \"#utility.yul\":3596:4746   */\n  swap3\n  swap6\n  pop\n  swap3\n  swap6\n  swap1\n  swap4\n  pop\n  jump\t// out\n    /* \"#utility.yul\":4752:4851   */\ntag_35:\n    /* \"#utility.yul\":4804:4810   */\n  0x00\n    /* \"#utility.yul\":4838:4843   */\n  dup2\n    /* \"#utility.yul\":4832:4844   */\n  mload\n    /* \"#utility.yul\":4822:4844   */\n  swap1\n  pop\n    /* \"#utility.yul\":4752:4851   */\n  swap2\n  swap1\n  pop\n  jump\t// out\n    /* \"#utility.yul\":4857:5037   */\ntag_36:\n    /* \"#utility.yul\":4905:4982   */\n  0x4e487b7100000000000000000000000000000000000000000000000000000000\n    /* \"#utility.yul\":4902:4903   */\n  0x00\n    /* \"#utility.yul\":4895:4983   */\n  mstore\n    /* \"#utility.yul\":5002:5006   */\n  0x22\n    /* \"#utility.yul\":4999:5000   */\n  0x04\n    /* \"#utility.yul\":4992:5007   */\n  mstore\n    /* \"#utility.yul\":5026:5030   */\n  0x24\n    /* \"#utility.yul\":5023:5024   */\n  0x00\n    /* \"#utility.yul\":5016:5031   */\n  revert\n    /* \"#utility.yul\":5043:5363   */\ntag_37:\n    /* \"#utility.yul\":5087:5093   */\n  0x00\n    /* \"#utility.yul\":5124:5125   */\n  0x02\n    /* \"#utility.yul\":5118:5122   */\n  dup3\n    /* \"#utility.yul\":5114:5126   */\n  div\n    /* \"#utility.yul\":5104:5126   */\n  swap1\n  pop\n    /* \"#utility.yul\":5171:5172   */\n  0x01\n    /* \"#utility.yul\":5165:5169   */\n  dup3\n    /* \"#utility.yul\":5161:5173   */\n  and\n    /* \"#utility.yul\":5192:5210   */\n  dup1\n    /* \"#utility.yul\":5182:5263   */\n  tag_115\n  jumpi\n    /* \"#utility.yul\":5248:5252   */\n  0x7f\n    /* \"#utility.yul\":5240:5246   */\n  dup3\n    /* \"#utility.yul\":5236:5253   */\n  and\n    /* \"#utility.yul\":5226:5253   */\n  swap2\n  pop\n    /* \"#utility.yul\":5182:5263   */\ntag_115:\n    /* \"#utility.yul\":5310:5312   */\n  0x20\n    /* \"#utility.yul\":5302:5308   */\n  dup3\n    /* \"#utility.yul\":5299:5313   */\n  lt\n    /* \"#utility.yul\":5279:5297   */\n  dup2\n    /* \"#utility.yul\":5276:5314   */\n  sub\n    /* \"#utility.yul\":5273:5357   */\n  tag_116\n  jumpi\n    /* \"#utility.yul\":5329:5347   */\n  tag_117\n  tag_36\n  jump\t// in\ntag_117:\n    /* \"#utility.yul\":5273:5357   */\ntag_116:\n    /* \"#utility.yul\":5094:5363   */\n  pop\n    /* \"#utility.yul\":5043:5363   */\n  swap2\n  swap1\n  pop\n  jump\t// out\n    /* \"#utility.yul\":5369:5510   */\ntag_38:\n    /* \"#utility.yul\":5418:5422   */\n  0x00\n    /* \"#utility.yul\":5441:5444   */\n  dup2\n    /* \"#utility.yul\":5433:5444   */\n  swap1\n  pop\n    /* \"#utility.yul\":5464:5467   */\n  dup2\n    /* \"#utility.yul\":5461:5462   */\n  0x00\n    /* \"#utility.yul\":5454:5468   */\n  mstore\n    /* \"#utility.yul\":5498:5502   */\n  0x20\n    /* \"#utility.yul\":5495:5496   */\n  0x00\n    /* \"#utility.yul\":5485:5503   */\n  keccak256\n    /* \"#utility.yul\":5477:5503   */\n  swap1\n  pop\n    /* \"#utility.yul\":5369:5510   */\n  swap2\n  swap1\n  pop\n  jump\t// out\n    /* \"#utility.yul\":5516:5609   */\ntag_39:\n    /* \"#utility.yul\":5553:5559   */\n  0x00\n    /* \"#utility.yul\":5600:5602   */\n  0x20\n    /* \"#utility.yul\":5595:5597   */\n  0x1f\n    /* \"#utility.yul\":5588:5593   */\n  dup4\n    /* \"#utility.yul\":5584:5598   */\n  add\n    /* \"#utility.yul\":5580:5603   */\n  div\n    /* \"#utility.yul\":5570:5603   */\n  swap1\n  pop\n    /* \"#utility.yul\":5516:5609   */\n  swap2\n  swap1\n  pop\n  jump\t// out\n    /* \"#utility.yul\":5615:5722   */\ntag_40:\n    /* \"#utility.yul\":5659:5667   */\n  0x00\n    /* \"#utility.yul\":5709:5714   */\n  dup3\n    /* \"#utility.yul\":5703:5707   */\n  dup3\n    /* \"#utility.yul\":5699:5715   */\n  shl\n    /* \"#utility.yul\":5678:5715   */\n  swap1\n  pop\n    /* \"#utility.yul\":5615:5722   */\n  swap3\n  swap2\n  pop\n  pop\n  jump\t// out\n    /* \"#utility.yul\":5728:6121   */\ntag_41:\n    /* \"#utility.yul\":5797:5803   */\n  0x00\n    /* \"#utility.yul\":5847:5848   */\n  0x08\n    /* \"#utility.yul\":5835:5845   */\n  dup4\n    /* \"#utility.yul\":5831:5849   */\n  mul\n    /* \"#utility.yul\":5870:5967   */\n  tag_122\n    /* \"#utility.yul\":5900:5966   */\n  0xffffffffffffffffffffffffffffffffffffffffffffffffffffffffffffffff\n    /* \"#utility.yul\":5889:5898   */\n  dup3\n    /* \"#utility.yul\":5870:5967   */\n  tag_40\n  jump\t// in\ntag_122:\n    /* \"#utility.yul\":5988:6027   */\n  tag_123\n    /* \"#utility.yul\":6018:6026   */\n  dup7\n    /* \"#utility.yul\":6007:6016   */\n  dup4\n    /* \"#utility.yul\":5988:6027   */\n  tag_40\n  jump\t// in\ntag_123:\n    /* \"#utility.yul\":5976:6027   */\n  swap6\n  pop\n    /* \"#utility.yul\":6060:6064   */\n  dup1\n    /* \"#utility.yul\":6056:6065   */\n  not\n    /* \"#utility.yul\":6049:6054   */\n  dup5\n    /* \"#utility.yul\":6045:6066   */\n  and\n    /* \"#utility.yul\":6036:6066   */\n  swap4\n  pop\n    /* \"#utility.yul\":6109:6113   */\n  dup1\n    /* \"#utility.yul\":6099:6107   */\n  dup7\n    /* \"#utility.yul\":6095:6114   */\n  and\n    /* \"#utility.yul\":6088:6093   */\n  dup5\n    /* \"#utility.yul\":6085:6115   */\n  or\n    /* \"#utility.yul\":6075:6115   */\n  swap3\n  pop\n    /* \"#utility.yul\":5804:6121   */\n  pop\n  pop\n    /* \"#utility.yul\":5728:6121   */\n  swap4\n  swap3\n  pop\n  pop\n  pop\n  jump\t// out\n    /* \"#utility.yul\":6127:6187   */\ntag_42:\n    /* \"#utility.yul\":6155:6158   */\n  0x00\n    /* \"#utility.yul\":6176:6181   */\n  dup2\n    /* \"#utility.yul\":6169:6181   */\n  swap1\n  pop\n    /* \"#utility.yul\":6127:6187   */\n  swap2\n  swap1\n  pop\n  jump\t// out\n    /* \"#utility.yul\":6193:6335   */\ntag_43:\n    /* \"#utility.yul\":6243:6252   */\n  0x00\n    /* \"#utility.yul\":6276:6329   */\n  tag_126\n    /* \"#utility.yul\":6294:6328   */\n  tag_127\n    /* \"#utility.yul\":6303:6327   */\n  tag_128\n    /* \"#utility.yul\":6321:6326   */\n  dup5\n    /* \"#utility.yul\":6303:6327   */\n  tag_18\n  jump\t// in\ntag_128:\n    /* \"#utility.yul\":6294:6328   */\n  tag_42\n  jump\t// in\ntag_127:\n    /* \"#utility.yul\":6276:6329   */\n  tag_18\n  jump\t// in\ntag_126:\n    /* \"#utility.yul\":6263:6329   */\n  swap1\n  pop\n    /* \"#utility.yul\":6193:6335   */\n  swap2\n  swap1\n  pop\n  jump\t// out\n    /* \"#utility.yul\":6341:6416   */\ntag_44:\n    /* \"#utility.yul\":6384:6387   */\n  0x00\n    /* \"#utility.yul\":6405:6410   */\n  dup2\n    /* \"#utility.yul\":6398:6410   */\n  swap1\n  pop\n    /* \"#utility.yul\":6341:6416   */\n  swap2\n  swap1\n  pop\n  jump\t// out\n    /* \"#utility.yul\":6422:6691   */\ntag_45:\n    /* \"#utility.yul\":6532:6571   */\n  tag_131\n    /* \"#utility.yul\":6563:6570   */\n  dup4\n    /* \"#utility.yul\":6532:6571   */\n  tag_43\n  jump\t// in\ntag_131:\n    /* \"#utility.yul\":6593:6684   */\n  tag_132\n    /* \"#utility.yul\":6642:6683   */\n  tag_133\n    /* \"#utility.yul\":6666:6682   */\n  dup3\n    /* \"#utility.yul\":6642:6683   */\n  tag_44\n  jump\t// in\ntag_133:\n    /* \"#utility.yul\":6634:6640   */\n  dup5\n    /* \"#utility.yul\":6627:6631   */\n  dup5\n    /* \"#utility.yul\":6621:6632   */\n  sload\n    /* \"#utility.yul\":6593:6684   */\n  tag_41\n  jump\t// in\ntag_132:\n    /* \"#utility.yul\":6587:6591   */\n  dup3\n    /* \"#utility.yul\":6580:6685   */\n  sstore\n    /* \"#utility.yul\":6498:6691   */\n  pop\n    /* \"#utility.yul\":6422:6691   */\n  pop\n  pop\n  pop\n  jump\t// out\n    /* \"#utility.yul\":6697:6770   */\ntag_46:\n    /* \"#utility.yul\":6742:6745   */\n  0x00\n    /* \"#utility.yul\":6697:6770   */\n  swap1\n  jump\t// out\n    /* \"#utility.yul\":6776:6965   */\ntag_47:\n    /* \"#utility.yul\":6853:6885   */\n  tag_136\n  tag_46\n  jump\t// in\ntag_136:\n    /* \"#utility.yul\":6894:6959   */\n  tag_137\n    /* \"#utility.yul\":6952:6958   */\n  dup2\n    /* \"#utility.yul\":6944:6950   */\n  dup5\n    /* \"#utility.yul\":6938:6942   */\n  dup5\n    /* \"#utility.yul\":6894:6959   */\n  tag_45\n  jump\t// in\ntag_137:\n    /* \"#utility.yul\":6829:6965   */\n  pop\n    /* \"#utility.yul\":6776:6965   */\n  pop\n  pop\n  jump\t// out\n    /* \"#utility.yul\":6971:7157   */\ntag_48:\n    /* \"#utility.yul\":7031:7151   */\ntag_139:\n    /* \"#utility.yul\":7048:7051   */\n  dup2\n    /* \"#utility.yul\":7041:7046   */\n  dup2\n    /* \"#utility.yul\":7038:7052   */\n  lt\n    /* \"#utility.yul\":7031:7151   */\n  iszero\n  tag_141\n  jumpi\n    /* \"#utility.yul\":7102:7141   */\n  tag_142\n    /* \"#utility.yul\":7139:7140   */\n  0x00\n    /* \"#utility.yul\":7132:7137   */\n  dup3\n    /* \"#utility.yul\":7102:7141   */\n  tag_47\n  jump\t// in\ntag_142:\n    /* \"#utility.yul\":7075:7076   */\n  0x01\n    /* \"#utility.yul\":7068:7073   */\n  dup2\n    /* \"#utility.yul\":7064:7077   */\n  add\n    /* \"#utility.yul\":7055:7077   */\n  swap1\n  pop\n    /* \"#utility.yul\":7031:7151   */\n  jump(tag_139)\ntag_141:\n    /* \"#utility.yul\":6971:7157   */\n  pop\n  pop\n  jump\t// out\n    /* \"#utility.yul\":7163:7706   */\ntag_49:\n    /* \"#utility.yul\":7264:7266   */\n  0x1f\n    /* \"#utility.yul\":7259:7262   */\n  dup3\n    /* \"#utility.yul\":7256:7267   */\n  gt\n    /* \"#utility.yul\":7253:7699   */\n  iszero\n  tag_144\n  jumpi\n    /* \"#utility.yul\":7298:7336   */\n  tag_145\n    /* \"#utility.yul\":7330:7335   */\n  dup2\n    /* \"#utility.yul\":7298:7336   */\n  tag_38\n  jump\t// in\ntag_145:\n    /* \"#utility.yul\":7382:7411   */\n  tag_146\n    /* \"#utility.yul\":7400:7410   */\n  dup5\n    /* \"#utility.yul\":7382:7411   */\n  tag_39\n  jump\t// in\ntag_146:\n    /* \"#utility.yul\":7372:7380   */\n  dup2\n    /* \"#utility.yul\":7368:7412   */\n  add\n    /* \"#utility.yul\":7565:7567   */\n  0x20\n    /* \"#utility.yul\":7553:7563   */\n  dup6\n    /* \"#utility.yul\":7550:7568   */\n  lt\n    /* \"#utility.yul\":7547:7596   */\n  iszero\n  tag_147\n  jumpi\n    /* \"#utility.yul\":7586:7594   */\n  dup2\n    /* \"#utility.yul\":7571:7594   */\n  swap1\n  pop\n    /* \"#utility.yul\":7547:7596   */\ntag_147:\n    /* \"#utility.yul\":7609:7689   */\n  tag_148\n    /* \"#utility.yul\":7665:7687   */\n  tag_149\n    /* \"#utility.yul\":7683:7686   */\n  dup6\n    /* \"#utility.yul\":7665:7687   */\n  tag_39\n  jump\t// in\ntag_149:\n    /* \"#utility.yul\":7655:7663   */\n  dup4\n    /* \"#utility.yul\":7651:7688   */\n  add\n    /* \"#utility.yul\":7638:7649   */\n  dup3\n    /* \"#utility.yul\":7609:7689   */\n  tag_48\n  jump\t// in\ntag_148:\n    /* \"#utility.yul\":7268:7699   */\n  pop\n  pop\n    /* \"#utility.yul\":7253:7699   */\ntag_144:\n    /* \"#utility.yul\":7163:7706   */\n  pop\n  pop\n  pop\n  jump\t// out\n    /* \"#utility.yul\":7712:7829   */\ntag_50:\n    /* \"#utility.yul\":7766:7774   */\n  0x00\n    /* \"#utility.yul\":7816:7821   */\n  dup3\n    /* \"#utility.yul\":7810:7814   */\n  dup3\n    /* \"#utility.yul\":7806:7822   */\n  shr\n    /* \"#utility.yul\":7785:7822   */\n  swap1\n  pop\n    /* \"#utility.yul\":7712:7829   */\n  swap3\n  swap2\n  pop\n  pop\n  jump\t// out\n    /* \"#utility.yul\":7835:8004   */\ntag_51:\n    /* \"#utility.yul\":7879:7885   */\n  0x00\n    /* \"#utility.yul\":7912:7963   */\n  tag_152\n    /* \"#utility.yul\":7960:7961   */\n  0x00\n    /* \"#utility.yul\":7956:7962   */\n  not\n    /* \"#utility.yul\":7948:7953   */\n  dup5\n    /* \"#utility.yul\":7945:7946   */\n  0x08\n    /* \"#utility.yul\":7941:7954   */\n  mul\n    /* \"#utility.yul\":7912:7963   */\n  tag_50\n  jump\t// in\ntag_152:\n    /* \"#utility.yul\":7908:7964   */\n  not\n    /* \"#utility.yul\":7993:7997   */\n  dup1\n    /* \"#utility.yul\":7987:7991   */\n  dup4\n    /* \"#utility.yul\":7983:7998   */\n  and\n    /* \"#utility.yul\":7973:7998   */\n  swap2\n  pop\n    /* \"#utility.yul\":7886:8004   */\n  pop\n    /* \"#utility.yul\":7835:8004   */\n  swap3\n  swap2\n  pop\n  pop\n  jump\t// out\n    /* \"#utility.yul\":8009:8304   */\ntag_52:\n    /* \"#utility.yul\":8085:8089   */\n  0x00\n    /* \"#utility.yul\":8231:8260   */\n  tag_154\n    /* \"#utility.yul\":8256:8259   */\n  dup4\n    /* \"#utility.yul\":8250:8254   */\n  dup4\n    /* \"#utility.yul\":8231:8260   */\n  tag_51\n  jump\t// in\ntag_154:\n    /* \"#utility.yul\":8223:8260   */\n  swap2\n  pop\n    /* \"#utility.yul\":8293:8296   */\n  dup3\n    /* \"#utility.yul\":8290:8291   */\n  0x02\n    /* \"#utility.yul\":8286:8297   */\n  mul\n    /* \"#utility.yul\":8280:8284   */\n  dup3\n    /* \"#utility.yul\":8277:8298   */\n  or\n    /* \"#utility.yul\":8269:8298   */\n  swap1\n  pop\n    /* \"#utility.yul\":8009:8304   */\n  swap3\n  swap2\n  pop\n  pop\n  jump\t// out\n    /* \"#utility.yul\":8309:9704   */\ntag_7:\n    /* \"#utility.yul\":8426:8463   */\n  tag_156\n    /* \"#utility.yul\":8459:8462   */\n  dup3\n    /* \"#utility.yul\":8426:8463   */\n  tag_35\n  jump\t// in\ntag_156:\n    /* \"#utility.yul\":8528:8546   */\n  0xffffffffffffffff\n    /* \"#utility.yul\":8520:8526   */\n  dup2\n    /* \"#utility.yul\":8517:8547   */\n  gt\n    /* \"#utility.yul\":8514:8570   */\n  iszero\n  tag_157\n  jumpi\n    /* \"#utility.yul\":8550:8568   */\n  tag_158\n  tag_28\n  jump\t// in\ntag_158:\n    /* \"#utility.yul\":8514:8570   */\ntag_157:\n    /* \"#utility.yul\":8594:8632   */\n  tag_159\n    /* \"#utility.yul\":8626:8630   */\n  dup3\n    /* \"#utility.yul\":8620:8631   */\n  sload\n    /* \"#utility.yul\":8594:8632   */\n  tag_37\n  jump\t// in\ntag_159:\n    /* \"#utility.yul\":8679:8746   */\n  tag_160\n    /* \"#utility.yul\":8739:8745   */\n  dup3\n    /* \"#utility.yul\":8731:8737   */\n  dup3\n    /* \"#utility.yul\":8725:8729   */\n  dup6\n    /* \"#utility.yul\":8679:8746   */\n  tag_49\n  jump\t// in\ntag_160:\n    /* \"#utility.yul\":8773:8774   */\n  0x00\n    /* \"#utility.yul\":8797:8801   */\n  0x20\n    /* \"#utility.yul\":8784:8801   */\n  swap1\n  pop\n    /* \"#utility.yul\":8829:8831   */\n  0x1f\n    /* \"#utility.yul\":8821:8827   */\n  dup4\n    /* \"#utility.yul\":8818:8832   */\n  gt\n    /* \"#utility.yul\":8846:8847   */\n  0x01\n    /* \"#utility.yul\":8841:9459   */\n  dup2\n  eq\n  tag_162\n  jumpi\n    /* \"#utility.yul\":9503:9504   */\n  0x00\n    /* \"#utility.yul\":9520:9526   */\n  dup5\n    /* \"#utility.yul\":9517:9594   */\n  iszero\n  tag_163\n  jumpi\n    /* \"#utility.yul\":9569:9578   */\n  dup3\n    /* \"#utility.yul\":9564:9567   */\n  dup8\n    /* \"#utility.yul\":9560:9579   */\n  add\n    /* \"#utility.yul\":9554:9580   */\n  mload\n    /* \"#utility.yul\":9545:9580   */\n  swap1\n  pop\n    /* \"#utility.yul\":9517:9594   */\ntag_163:\n    /* \"#utility.yul\":9620:9687   */\n  tag_164\n    /* \"#utility.yul\":9680:9686   */\n  dup6\n    /* \"#utility.yul\":9673:9678   */\n  dup3\n    /* \"#utility.yul\":9620:9687   */\n  tag_52\n  jump\t// in\ntag_164:\n    /* \"#utility.yul\":9614:9618   */\n  dup7\n    /* \"#utility.yul\":9607:9688   */\n  sstore\n    /* \"#utility.yul\":9476:9698   */\n  pop\n    /* \"#utility.yul\":8811:9698   */\n  jump(tag_161)\n    /* \"#utility.yul\":8841:9459   */\ntag_162:\n    /* \"#utility.yul\":8893:8897   */\n  0x1f\n    /* \"#utility.yul\":8889:8898   */\n  not\n    /* \"#utility.yul\":8881:8887   */\n  dup5\n    /* \"#utility.yul\":8877:8899   */\n  and\n    /* \"#utility.yul\":8927:8964   */\n  tag_165\n    /* \"#utility.yul\":8959:8963   */\n  dup7\n    /* \"#utility.yul\":8927:8964   */\n  tag_38\n  jump\t// in\ntag_165:\n    /* \"#utility.yul\":8986:8987   */\n  0x00\n    /* \"#utility.yul\":9000:9208   */\ntag_166:\n    /* \"#utility.yul\":9014:9021   */\n  dup3\n    /* \"#utility.yul\":9011:9012   */\n  dup2\n    /* \"#utility.yul\":9008:9022   */\n  lt\n    /* \"#utility.yul\":9000:9208   */\n  iszero\n  tag_168\n  jumpi\n    /* \"#utility.yul\":9093:9102   */\n  dup5\n    /* \"#utility.yul\":9088:9091   */\n  dup10\n    /* \"#utility.yul\":9084:9103   */\n  add\n    /* \"#utility.yul\":9078:9104   */\n  mload\n    /* \"#utility.yul\":9070:9076   */\n  dup3\n    /* \"#utility.yul\":9063:9105   */\n  sstore\n    /* \"#utility.yul\":9144:9145   */\n  0x01\n    /* \"#utility.yul\":9136:9142   */\n  dup3\n    /* \"#utility.yul\":9132:9146   */\n  add\n    /* \"#utility.yul\":9122:9146   */\n  swap2\n  pop\n    /* \"#utility.yul\":9191:9193   */\n  0x20\n    /* \"#utility.yul\":9180:9189   */\n  dup6\n    /* \"#utility.yul\":9176:9194   */\n  add\n    /* \"#utility.yul\":9163:9194   */\n  swap5\n  pop\n    /* \"#utility.yul\":9037:9041   */\n  0x20\n    /* \"#utility.yul\":9034:9035   */\n  dup2\n    /* \"#utility.yul\":9030:9042   */\n  add\n    /* \"#utility.yul\":9025:9042   */\n  swap1\n  pop\n    /* \"#utility.yul\":9000:9208   */\n  jump(tag_166)\ntag_168:\n    /* \"#utility.yul\":9236:9242   */\n  dup7\n    /* \"#utility.yul\":9227:9234   */\n  dup4\n    /* \"#utility.yul\":9224:9243   */\n  lt\n    /* \"#utility.yul\":9221:9400   */\n  iszero\n  tag_169\n  jumpi\n    /* \"#utility.yul\":9294:9303   */\n  dup5\n    /* \"#utility.yul\":9289:9292   */\n  dup10\n    /* \"#utility.yul\":9285:9304   */\n  add\n    /* \"#utility.yul\":9279:9305   */\n  mload\n    /* \"#utility.yul\":9337:9385   */\n  tag_170\n    /* \"#utility.yul\":9379:9383   */\n  0x1f\n    /* \"#utility.yul\":9371:9377   */\n  dup10\n    /* \"#utility.yul\":9367:9384   */\n  and\n    /* \"#utility.yul\":9356:9365   */\n  dup3\n    /* \"#utility.yul\":9337:9385   */\n  tag_51\n  jump\t// in\ntag_170:\n    /* \"#utility.yul\":9329:9335   */\n  dup4\n    /* \"#utility.yul\":9322:9386   */\n  sstore\n    /* \"#utility.yul\":9244:9400   */\n  pop\n    /* \"#utility.yul\":9221:9400   */\ntag_169:\n    /* \"#utility.yul\":9446:9447   */\n  0x01\n    /* \"#utility.yul\":9442:9443   */\n  0x02\n    /* \"#utility.yul\":9434:9440   */\n  dup9\n    /* \"#utility.yul\":9430:9444   */\n  mul\n    /* \"#utility.yul\":9426:9448   */\n  add\n    /* \"#utility.yul\":9420:9424   */\n  dup9\n    /* \"#utility.yul\":9413:9449   */\n  sstore\n    /* \"#utility.yul\":8848:9459   */\n  pop\n  pop\n  pop\n    /* \"#utility.yul\":8811:9698   */\ntag_161:\n  pop\n    /* \"#utility.yul\":8401:9704   */\n  pop\n  pop\n  pop\n    /* \"#utility.yul\":8309:9704   */\n  pop\n  pop\n  jump\t// out\n    /* \"#utility.yul\":9710:9890   */\ntag_53:\n    /* \"#utility.yul\":9758:9835   */\n  0x4e487b7100000000000000000000000000000000000000000000000000000000\n    /* \"#utility.yul\":9755:9756   */\n  0x00\n    /* \"#utility.yul\":9748:9836   */\n  mstore\n    /* \"#utility.yul\":9855:9859   */\n  0x11\n    /* \"#utility.yul\":9852:9853   */\n  0x04\n    /* \"#utility.yul\":9845:9860   */\n  mstore\n    /* \"#utility.yul\":9879:9883   */\n  0x24\n    /* \"#utility.yul\":9876:9877   */\n  0x00\n    /* \"#utility.yul\":9869:9884   */\n  revert\n    /* \"#utility.yul\":9896:10244   */\ntag_9:\n    /* \"#utility.yul\":9936:9943   */\n  0x00\n    /* \"#utility.yul\":9959:9979   */\n  tag_173\n    /* \"#utility.yul\":9977:9978   */\n  dup3\n    /* \"#utility.yul\":9959:9979   */\n  tag_18\n  jump\t// in\ntag_173:\n    /* \"#utility.yul\":9954:9979   */\n  swap2\n  pop\n    /* \"#utility.yul\":9993:10013   */\n  tag_174\n    /* \"#utility.yul\":10011:10012   */\n  dup4\n    /* \"#utility.yul\":9993:10013   */\n  tag_18\n  jump\t// in\ntag_174:\n    /* \"#utility.yul\":9988:10013   */\n  swap3\n  pop\n    /* \"#utility.yul\":10181:10182   */\n  dup2\n    /* \"#utility.yul\":10113:10179   */\n  0xffffffffffffffffffffffffffffffffffffffffffffffffffffffffffffffff\n    /* \"#utility.yul\":10109:10183   */\n  div\n    /* \"#utility.yul\":10106:10107   */\n  dup4\n    /* \"#utility.yul\":10103:10184   */\n  gt\n    /* \"#utility.yul\":10098:10099   */\n  dup3\n    /* \"#utility.yul\":10091:10100   */\n  iszero\n    /* \"#utility.yul\":10084:10101   */\n  iszero\n    /* \"#utility.yul\":10080:10185   */\n  and\n    /* \"#utility.yul\":10077:10208   */\n  iszero\n  tag_175\n  jumpi\n    /* \"#utility.yul\":10188:10206   */\n  tag_176\n  tag_53\n  jump\t// in\ntag_176:\n    /* \"#utility.yul\":10077:10208   */\ntag_175:\n    /* \"#utility.yul\":10236:10237   */\n  dup3\n    /* \"#utility.yul\":10233:10234   */\n  dup3\n    /* \"#utility.yul\":10229:10238   */\n  mul\n    /* \"#utility.yul\":10218:10238   */\n  swap1\n  pop\n    /* \"#utility.yul\":9896:10244   */\n  swap3\n  swap2\n  pop\n  pop\n  jump\t// out\n    /* \"#utility.yul\":10250:10555   */\ntag_11:\n    /* \"#utility.yul\":10290:10293   */\n  0x00\n    /* \"#utility.yul\":10309:10329   */\n  tag_178\n    /* \"#utility.yul\":10327:10328   */\n  dup3\n    /* \"#utility.yul\":10309:10329   */\n  tag_18\n  jump\t// in\ntag_178:\n    /* \"#utility.yul\":10304:10329   */\n  swap2\n  pop\n    /* \"#utility.yul\":10343:10363   */\n  tag_179\n    /* \"#utility.yul\":10361:10362   */\n  dup4\n    /* \"#utility.yul\":10343:10363   */\n  tag_18\n  jump\t// in\ntag_179:\n    /* \"#utility.yul\":10338:10363   */\n  swap3\n  pop\n    /* \"#utility.yul\":10497:10498   */\n  dup3\n    /* \"#utility.yul\":10429:10495   */\n  0xffffffffffffffffffffffffffffffffffffffffffffffffffffffffffffffff\n    /* \"#utility.yul\":10425:10499   */\n  sub\n    /* \"#utility.yul\":10422:10423   */\n  dup3\n    /* \"#utility.yul\":10419:10500   */\n  gt\n    /* \"#utility.yul\":10416:10523   */\n  iszero\n  tag_180\n  jumpi\n    /* \"#utility.yul\":10503:10521   */\n  tag_181\n  tag_53\n  jump\t// in\ntag_181:\n    /* \"#utility.yul\":10416:10523   */\ntag_180:\n    /* \"#utility.yul\":10547:10548   */\n  dup3\n    /* \"#utility.yul\":10544:10545   */\n  dup3\n    /* \"#utility.yul\":10540:10549   */\n  add\n    /* \"#utility.yul\":10533:10549   */\n  swap1\n  pop\n    /* \"#utility.yul\":10250:10555   */\n  swap3\n  swap2\n  pop\n  pop\n  jump\t// out\n    /* \"Inbox.sol\":65:9344  contract basic {... */\ntag_14:\n  dataSize(sub_0)\n  dup1\n  dataOffset(sub_0)\n  0x00\n  codecopy\n  0x00\n  return\nstop\n\nsub_0: assembly {\n        /* \"Inbox.sol\":65:9344  contract basic {... */\n      mstore(0x40, 0x80)\n      jumpi(tag_1, lt(calldatasize, 0x04))\n      shr(0xe0, calldataload(0x00))\n      dup1\n      0x937e09b1\n      gt\n      tag_36\n      jumpi\n      dup1\n      0xd7898240\n      gt\n      tag_37\n      jumpi\n      dup1\n      0xf63f9655\n      gt\n      tag_38\n      jumpi\n      dup1\n      0xf63f9655\n      eq\n      tag_31\n      jumpi\n      dup1\n      0xfbae5e7d\n      eq\n      tag_32\n      jumpi\n      dup1\n      0xfd74d294\n      eq\n      tag_33\n      jumpi\n      dup1\n      0xfda263e8\n      eq\n      tag_34\n      jumpi\n      dup1\n      0xff65226c\n      eq\n      tag_35\n      jumpi\n      jump(tag_1)\n    tag_38:\n      dup1\n      0xd7898240\n      eq\n      tag_27\n      jumpi\n      dup1\n      0xd7d1bbdb\n      eq\n      tag_28\n      jumpi\n      dup1\n      0xe028a693\n      eq\n      tag_29\n      jumpi\n      dup1\n      0xe0d370ac\n      eq\n      tag_30\n      jumpi\n      jump(tag_1)\n    tag_37:\n      dup1\n      0xa4758c9a\n      gt\n      tag_39\n      jumpi\n      dup1\n      0xa4758c9a\n      eq\n      tag_23\n      jumpi\n      dup1\n      0xacdb8341\n      eq\n      tag_24\n      jumpi\n      dup1\n      0xb2f8be5c\n      eq\n      tag_25\n      jumpi\n      dup1\n      0xb688a363\n      eq\n      tag_26\n      jumpi\n      jump(tag_1)\n    tag_39:\n      dup1\n      0x937e09b1\n      eq\n      tag_19\n      jumpi\n      dup1\n      0x972c5356\n      eq\n      tag_20\n      jumpi\n      dup1\n      0x98e1b410\n      eq\n      tag_21\n      jumpi\n      dup1\n      0x999cc5ca\n      eq\n      tag_22\n      jumpi\n      jump(tag_1)\n    tag_36:\n      dup1\n      0x32b7acec\n      gt\n      tag_40\n      jumpi\n      dup1\n      0x481c6a75\n      gt\n      tag_41\n      jumpi\n      dup1\n      0x481c6a75\n      eq\n      tag_14\n      jumpi\n      dup1\n      0x5fb02f4d\n      eq\n      tag_15\n      jumpi\n      dup1\n      0x789b2e6c\n      eq\n      tag_16\n      jumpi\n      dup1\n      0x864a53dc\n      eq\n      tag_17\n      jumpi\n      dup1\n      0x8975aa08\n      eq\n      tag_18\n      jumpi\n      jump(tag_1)\n    tag_41:\n      dup1\n      0x32b7acec\n      eq\n      tag_10\n      jumpi\n      dup1\n      0x364548cd\n      eq\n      tag_11\n      jumpi\n      dup1\n      0x3ba20f2a\n      eq\n      tag_12\n      jumpi\n      dup1\n      0x3d22aea8\n      eq\n      tag_13\n      jumpi\n      jump(tag_1)\n    tag_40:\n      dup1\n      0x2b84b316\n      gt\n      tag_42\n      jumpi\n      dup1\n      0x2b84b316\n      eq\n      tag_6\n      jumpi\n      dup1\n      0x2ef3fa27\n      eq\n      tag_7\n      jumpi\n      dup1\n      0x2f5274e3\n      eq\n      tag_8\n      jumpi\n      dup1\n      0x31d0e40f\n      eq\n      tag_9\n      jumpi\n      jump(tag_1)\n    tag_42:\n      dup1\n      0x60929a\n      eq\n      tag_2\n      jumpi\n      dup1\n      0x01999870\n      eq\n      tag_3\n      jumpi\n      dup1\n      0x06fdde03\n      eq\n      tag_4\n      jumpi\n      dup1\n      0x1e28528e\n      eq\n      tag_5\n      jumpi\n    tag_1:\n      0x00\n      dup1\n      revert\n        /* \"Inbox.sol\":5730:5953  function isStakeholdersApprove(uint reqId, address user) //not need>?... */\n    tag_2:\n      callvalue\n      dup1\n      iszero\n      tag_43\n      jumpi\n      0x00\n      dup1\n      revert\n    tag_43:\n      pop\n      tag_44\n      0x04\n      dup1\n      calldatasize\n      sub\n      dup2\n      add\n      swap1\n      tag_45\n      swap2\n      swap1\n      tag_46\n      jump\t// in\n    tag_45:\n      tag_47\n      jump\t// in\n    tag_44:\n      mload(0x40)\n      tag_48\n      swap2\n      swap1\n      tag_49\n      jump\t// in\n    tag_48:\n      mload(0x40)\n      dup1\n      swap2\n      sub\n      swap1\n      return\n        /* \"Inbox.sol\":1522:1550  uint public numOfInvestors=0 */\n    tag_3:\n      callvalue\n      dup1\n      iszero\n      tag_50\n      jumpi\n      0x00\n      dup1\n      revert\n    tag_50:\n      pop\n      tag_51\n      tag_52\n      jump\t// in\n    tag_51:\n      mload(0x40)\n      tag_53\n      swap2\n      swap1\n      tag_54\n      jump\t// in\n    tag_53:\n      mload(0x40)\n      dup1\n      swap2\n      sub\n      swap1\n      return\n        /* \"Inbox.sol\":1251:1270  string  public name */\n    tag_4:\n      callvalue\n      dup1\n      iszero\n      tag_55\n      jumpi\n      0x00\n      dup1\n      revert\n    tag_55:\n      pop\n      tag_56\n      tag_57\n      jump\t// in\n    tag_56:\n      mload(0x40)\n      tag_58\n      swap2\n      swap1\n      tag_59\n      jump\t// in\n    tag_58:\n      mload(0x40)\n      dup1\n      swap2\n      sub\n      swap1\n      return\n        /* \"Inbox.sol\":1332:1376  mapping(address => bool) public Stakeholders */\n    tag_5:\n      callvalue\n      dup1\n      iszero\n      tag_60\n      jumpi\n      0x00\n      dup1\n      revert\n    tag_60:\n      pop\n      tag_61\n      0x04\n      dup1\n      calldatasize\n      sub\n      dup2\n      add\n      swap1\n      tag_62\n      swap2\n      swap1\n      tag_63\n      jump\t// in\n    tag_62:\n      tag_64\n      jump\t// in\n    tag_61:\n      mload(0x40)\n      tag_65\n      swap2\n      swap1\n      tag_49\n      jump\t// in\n    tag_65:\n      mload(0x40)\n      dup1\n      swap2\n      sub\n      swap1\n      return\n        /* \"Inbox.sol\":5961:6281  function makeNewRequset(... */\n    tag_6:\n      callvalue\n      dup1\n      iszero\n      tag_66\n      jumpi\n      0x00\n      dup1\n      revert\n    tag_66:\n      pop\n      tag_67\n      0x04\n      dup1\n      calldatasize\n      sub\n      dup2\n      add\n      swap1\n      tag_68\n      swap2\n      swap1\n      tag_69\n      jump\t// in\n    tag_68:\n      tag_70\n      jump\t// in\n    tag_67:\n      stop\n        /* \"Inbox.sol\":3027:3155  function investorBalanc() public view returns (uint) {... */\n    tag_7:\n      callvalue\n      dup1\n      iszero\n      tag_71\n      jumpi\n      0x00\n      dup1\n      revert\n    tag_71:\n      pop\n      tag_72\n      tag_73\n      jump\t// in\n    tag_72:\n      mload(0x40)\n      tag_74\n      swap2\n      swap1\n      tag_54\n      jump\t// in\n    tag_74:\n      mload(0x40)\n      dup1\n      swap2\n      sub\n      swap1\n      return\n        /* \"Inbox.sol\":2166:2190  uint public lastLeaveVal */\n    tag_8:\n      callvalue\n      dup1\n      iszero\n      tag_75\n      jumpi\n      0x00\n      dup1\n      revert\n    tag_75:\n      pop\n      tag_76\n      tag_77\n      jump\t// in\n    tag_76:\n      mload(0x40)\n      tag_78\n      swap2\n      swap1\n      tag_54\n      jump\t// in\n    tag_78:\n      mload(0x40)\n      dup1\n      swap2\n      sub\n      swap1\n      return\n        /* \"Inbox.sol\":2103:2129  uint public managerFineFee */\n    tag_9:\n      callvalue\n      dup1\n      iszero\n      tag_79\n      jumpi\n      0x00\n      dup1\n      revert\n    tag_79:\n      pop\n      tag_80\n      tag_81\n      jump\t// in\n    tag_80:\n      mload(0x40)\n      tag_82\n      swap2\n      swap1\n      tag_54\n      jump\t// in\n    tag_82:\n      mload(0x40)\n      dup1\n      swap2\n      sub\n      swap1\n      return\n        /* \"Inbox.sol\":1606:1648  mapping(address => uint) public ownPercent */\n    tag_10:\n      callvalue\n      dup1\n      iszero\n      tag_83\n      jumpi\n      0x00\n      dup1\n      revert\n    tag_83:\n      pop\n      tag_84\n      0x04\n      dup1\n      calldatasize\n      sub\n      dup2\n      add\n      swap1\n      tag_85\n      swap2\n      swap1\n      tag_63\n      jump\t// in\n    tag_85:\n      tag_86\n      jump\t// in\n    tag_84:\n      mload(0x40)\n      tag_87\n      swap2\n      swap1\n      tag_54\n      jump\t// in\n    tag_87:\n      mload(0x40)\n      dup1\n      swap2\n      sub\n      swap1\n      return\n        /* \"Inbox.sol\":1383:1442  mapping(address => bool) public Stakeholders_endTheContract */\n    tag_11:\n      callvalue\n      dup1\n      iszero\n      tag_88\n      jumpi\n      0x00\n      dup1\n      revert\n    tag_88:\n      pop\n      tag_89\n      0x04\n      dup1\n      calldatasize\n      sub\n      dup2\n      add\n      swap1\n      tag_90\n      swap2\n      swap1\n      tag_63\n      jump\t// in\n    tag_90:\n      tag_91\n      jump\t// in\n    tag_89:\n      mload(0x40)\n      tag_92\n      swap2\n      swap1\n      tag_49\n      jump\t// in\n    tag_92:\n      mload(0x40)\n      dup1\n      swap2\n      sub\n      swap1\n      return\n        /* \"Inbox.sol\":1837:1862  uint256 public timeToJoin */\n    tag_12:\n      callvalue\n      dup1\n      iszero\n      tag_93\n      jumpi\n      0x00\n      dup1\n      revert\n    tag_93:\n      pop\n      tag_94\n      tag_95\n      jump\t// in\n    tag_94:\n      mload(0x40)\n      tag_96\n      swap2\n      swap1\n      tag_54\n      jump\t// in\n    tag_96:\n      mload(0x40)\n      dup1\n      swap2\n      sub\n      swap1\n      return\n        /* \"Inbox.sol\":6589:6952  function executed_order_66(uint index)... */\n    tag_13:\n      callvalue\n      dup1\n      iszero\n      tag_97\n      jumpi\n      0x00\n      dup1\n      revert\n    tag_97:\n      pop\n      tag_98\n      0x04\n      dup1\n      calldatasize\n      sub\n      dup2\n      add\n      swap1\n      tag_99\n      swap2\n      swap1\n      tag_100\n      jump\t// in\n    tag_99:\n      tag_101\n      jump\t// in\n    tag_98:\n      mload(0x40)\n      tag_102\n      swap2\n      swap1\n      tag_49\n      jump\t// in\n    tag_102:\n      mload(0x40)\n      dup1\n      swap2\n      sub\n      swap1\n      return\n        /* \"Inbox.sol\":1277:1299  address public manager */\n    tag_14:\n      callvalue\n      dup1\n      iszero\n      tag_103\n      jumpi\n      0x00\n      dup1\n      revert\n    tag_103:\n      pop\n      tag_104\n      tag_105\n      jump\t// in\n    tag_104:\n      mload(0x40)\n      tag_106\n      swap2\n      swap1\n      tag_107\n      jump\t// in\n    tag_106:\n      mload(0x40)\n      dup1\n      swap2\n      sub\n      swap1\n      return\n        /* \"Inbox.sol\":3583:4157  function startContract() public  { //need to change to only manager... */\n    tag_15:\n      callvalue\n      dup1\n      iszero\n      tag_108\n      jumpi\n      0x00\n      dup1\n      revert\n    tag_108:\n      pop\n      tag_109\n      tag_110\n      jump\t// in\n    tag_109:\n      stop\n        /* \"Inbox.sol\":8699:9341  function payDay() public EndPeriod onlySite {... */\n    tag_16:\n      callvalue\n      dup1\n      iszero\n      tag_111\n      jumpi\n      0x00\n      dup1\n      revert\n    tag_111:\n      pop\n      tag_112\n      tag_113\n      jump\t// in\n    tag_112:\n      stop\n        /* \"Inbox.sol\":8343:8691  function PayDayVoted() public workPeriod onlyStakeholders {... */\n    tag_17:\n      callvalue\n      dup1\n      iszero\n      tag_114\n      jumpi\n      0x00\n      dup1\n      revert\n    tag_114:\n      pop\n      tag_115\n      tag_116\n      jump\t// in\n    tag_115:\n      stop\n        /* \"Inbox.sol\":2072:2096  uint public lastTotalVal */\n    tag_18:\n      callvalue\n      dup1\n      iszero\n      tag_117\n      jumpi\n      0x00\n      dup1\n      revert\n    tag_117:\n      pop\n      tag_118\n      tag_119\n      jump\t// in\n    tag_118:\n      mload(0x40)\n      tag_120\n      swap2\n      swap1\n      tag_54\n      jump\t// in\n    tag_120:\n      mload(0x40)\n      dup1\n      swap2\n      sub\n      swap1\n      return\n        /* \"Inbox.sol\":1729:1760  uint public minimumContribution */\n    tag_19:\n      callvalue\n      dup1\n      iszero\n      tag_121\n      jumpi\n      0x00\n      dup1\n      revert\n    tag_121:\n      pop\n      tag_122\n      tag_123\n      jump\t// in\n    tag_122:\n      mload(0x40)\n      tag_124\n      swap2\n      swap1\n      tag_54\n      jump\t// in\n    tag_124:\n      mload(0x40)\n      dup1\n      swap2\n      sub\n      swap1\n      return\n        /* \"Inbox.sol\":1997:2018  uint  public listSize */\n    tag_20:\n      callvalue\n      dup1\n      iszero\n      tag_125\n      jumpi\n      0x00\n      dup1\n      revert\n    tag_125:\n      pop\n      tag_126\n      tag_127\n      jump\t// in\n    tag_126:\n      mload(0x40)\n      tag_128\n      swap2\n      swap1\n      tag_54\n      jump\t// in\n    tag_128:\n      mload(0x40)\n      dup1\n      swap2\n      sub\n      swap1\n      return\n        /* \"Inbox.sol\":3495:3575  function getMoney() public payable returns (bool) {... */\n    tag_21:\n      tag_129\n      tag_130\n      jump\t// in\n    tag_129:\n      mload(0x40)\n      tag_131\n      swap2\n      swap1\n      tag_49\n      jump\t// in\n    tag_131:\n      mload(0x40)\n      dup1\n      swap2\n      sub\n      swap1\n      return\n        /* \"Inbox.sol\":1684:1722  mapping(address => bool) public lefted */\n    tag_22:\n      callvalue\n      dup1\n      iszero\n      tag_132\n      jumpi\n      0x00\n      dup1\n      revert\n    tag_132:\n      pop\n      tag_133\n      0x04\n      dup1\n      calldatasize\n      sub\n      dup2\n      add\n      swap1\n      tag_134\n      swap2\n      swap1\n      tag_63\n      jump\t// in\n    tag_134:\n      tag_135\n      jump\t// in\n    tag_133:\n      mload(0x40)\n      tag_136\n      swap2\n      swap1\n      tag_49\n      jump\t// in\n    tag_136:\n      mload(0x40)\n      dup1\n      swap2\n      sub\n      swap1\n      return\n        /* \"Inbox.sol\":2136:2159  uint public the_balance */\n    tag_23:\n      callvalue\n      dup1\n      iszero\n      tag_137\n      jumpi\n      0x00\n      dup1\n      revert\n    tag_137:\n      pop\n      tag_138\n      tag_139\n      jump\t// in\n    tag_138:\n      mload(0x40)\n      tag_140\n      swap2\n      swap1\n      tag_54\n      jump\t// in\n    tag_140:\n      mload(0x40)\n      dup1\n      swap2\n      sub\n      swap1\n      return\n        /* \"Inbox.sol\":2199:2516  function allInvestorPercent() public view returns (uint) {... */\n    tag_24:\n      callvalue\n      dup1\n      iszero\n      tag_141\n      jumpi\n      0x00\n      dup1\n      revert\n    tag_141:\n      pop\n      tag_142\n      tag_143\n      jump\t// in\n    tag_142:\n      mload(0x40)\n      tag_144\n      swap2\n      swap1\n      tag_54\n      jump\t// in\n    tag_144:\n      mload(0x40)\n      dup1\n      swap2\n      sub\n      swap1\n      return\n        /* \"Inbox.sol\":6960:7936  function leave_contract(... */\n    tag_25:\n      callvalue\n      dup1\n      iszero\n      tag_145\n      jumpi\n      0x00\n      dup1\n      revert\n    tag_145:\n      pop\n      tag_146\n      0x04\n      dup1\n      calldatasize\n      sub\n      dup2\n      add\n      swap1\n      tag_147\n      swap2\n      swap1\n      tag_148\n      jump\t// in\n    tag_147:\n      tag_149\n      jump\t// in\n    tag_146:\n      mload(0x40)\n      tag_150\n      swap2\n      swap1\n      tag_49\n      jump\t// in\n    tag_150:\n      mload(0x40)\n      dup1\n      swap2\n      sub\n      swap1\n      return\n        /* \"Inbox.sol\":3163:3487  function join() public payable JoinPeriod {... */\n    tag_26:\n      tag_151\n      tag_152\n      jump\t// in\n    tag_151:\n      stop\n        /* \"Inbox.sol\":1557:1599  mapping(address => uint) public Investment */\n    tag_27:\n      callvalue\n      dup1\n      iszero\n      tag_153\n      jumpi\n      0x00\n      dup1\n      revert\n    tag_153:\n      pop\n      tag_154\n      0x04\n      dup1\n      calldatasize\n      sub\n      dup2\n      add\n      swap1\n      tag_155\n      swap2\n      swap1\n      tag_63\n      jump\t// in\n    tag_155:\n      tag_156\n      jump\t// in\n    tag_154:\n      mload(0x40)\n      tag_157\n      swap2\n      swap1\n      tag_54\n      jump\t// in\n    tag_157:\n      mload(0x40)\n      dup1\n      swap2\n      sub\n      swap1\n      return\n        /* \"Inbox.sol\":6289:6581  function approveRequest(uint index) public onlyStakeholders {... */\n    tag_28:\n      callvalue\n      dup1\n      iszero\n      tag_158\n      jumpi\n      0x00\n      dup1\n      revert\n    tag_158:\n      pop\n      tag_159\n      0x04\n      dup1\n      calldatasize\n      sub\n      dup2\n      add\n      swap1\n      tag_160\n      swap2\n      swap1\n      tag_100\n      jump\t// in\n    tag_160:\n      tag_161\n      jump\t// in\n    tag_159:\n      stop\n        /* \"Inbox.sol\":2044:2065  uint public lastRePay */\n    tag_29:\n      callvalue\n      dup1\n      iszero\n      tag_162\n      jumpi\n      0x00\n      dup1\n      revert\n    tag_162:\n      pop\n      tag_163\n      tag_164\n      jump\t// in\n    tag_163:\n      mload(0x40)\n      tag_165\n      swap2\n      swap1\n      tag_54\n      jump\t// in\n    tag_165:\n      mload(0x40)\n      dup1\n      swap2\n      sub\n      swap1\n      return\n        /* \"Inbox.sol\":1306:1325  address public site */\n    tag_30:\n      callvalue\n      dup1\n      iszero\n      tag_166\n      jumpi\n      0x00\n      dup1\n      revert\n    tag_166:\n      pop\n      tag_167\n      tag_168\n      jump\t// in\n    tag_167:\n      mload(0x40)\n      tag_169\n      swap2\n      swap1\n      tag_107\n      jump\t// in\n    tag_169:\n      mload(0x40)\n      dup1\n      swap2\n      sub\n      swap1\n      return\n        /* \"Inbox.sol\":1964:1990  Request[] public myRequsts */\n    tag_31:\n      callvalue\n      dup1\n      iszero\n      tag_170\n      jumpi\n      0x00\n      dup1\n      revert\n    tag_170:\n      pop\n      tag_171\n      0x04\n      dup1\n      calldatasize\n      sub\n      dup2\n      add\n      swap1\n      tag_172\n      swap2\n      swap1\n      tag_100\n      jump\t// in\n    tag_172:\n      tag_173\n      jump\t// in\n    tag_171:\n      mload(0x40)\n      tag_174\n      swap6\n      swap5\n      swap4\n      swap3\n      swap2\n      swap1\n      tag_175\n      jump\t// in\n    tag_174:\n      mload(0x40)\n      dup1\n      swap2\n      sub\n      swap1\n      return\n        /* \"Inbox.sol\":1489:1515  address[] public Investors */\n    tag_32:\n      callvalue\n      dup1\n      iszero\n      tag_176\n      jumpi\n      0x00\n      dup1\n      revert\n    tag_176:\n      pop\n      tag_177\n      0x04\n      dup1\n      calldatasize\n      sub\n      dup2\n      add\n      swap1\n      tag_178\n      swap2\n      swap1\n      tag_100\n      jump\t// in\n    tag_178:\n      tag_179\n      jump\t// in\n    tag_177:\n      mload(0x40)\n      tag_180\n      swap2\n      swap1\n      tag_107\n      jump\t// in\n    tag_180:\n      mload(0x40)\n      dup1\n      swap2\n      sub\n      swap1\n      return\n        /* \"Inbox.sol\":1806:1830  uint256 public timeStart */\n    tag_33:\n      callvalue\n      dup1\n      iszero\n      tag_181\n      jumpi\n      0x00\n      dup1\n      revert\n    tag_181:\n      pop\n      tag_182\n      tag_183\n      jump\t// in\n    tag_182:\n      mload(0x40)\n      tag_184\n      swap2\n      swap1\n      tag_54\n      jump\t// in\n    tag_184:\n      mload(0x40)\n      dup1\n      swap2\n      sub\n      swap1\n      return\n        /* \"Inbox.sol\":1869:1891  uint256 public timeEnd */\n    tag_34:\n      callvalue\n      dup1\n      iszero\n      tag_185\n      jumpi\n      0x00\n      dup1\n      revert\n    tag_185:\n      pop\n      tag_186\n      tag_187\n      jump\t// in\n    tag_186:\n      mload(0x40)\n      tag_188\n      swap2\n      swap1\n      tag_54\n      jump\t// in\n    tag_188:\n      mload(0x40)\n      dup1\n      swap2\n      sub\n      swap1\n      return\n        /* \"Inbox.sol\":1898:1919  bool    public canBuy */\n    tag_35:\n      callvalue\n      dup1\n      iszero\n      tag_189\n      jumpi\n      0x00\n      dup1\n      revert\n    tag_189:\n      pop\n      tag_190\n      tag_191\n      jump\t// in\n    tag_190:\n      mload(0x40)\n      tag_192\n      swap2\n      swap1\n      tag_49\n      jump\t// in\n    tag_192:\n      mload(0x40)\n      dup1\n      swap2\n      sub\n      swap1\n      return\n        /* \"Inbox.sol\":5730:5953  function isStakeholdersApprove(uint reqId, address user) //not need>?... */\n    tag_47:\n        /* \"Inbox.sol\":5848:5852  bool */\n      0x00\n        /* \"Inbox.sol\":5870:5889  Request storage req */\n      dup1\n        /* \"Inbox.sol\":5892:5901  myRequsts */\n      0x14\n        /* \"Inbox.sol\":5902:5907  reqId */\n      dup5\n        /* \"Inbox.sol\":5892:5908  myRequsts[reqId] */\n      dup2\n      sload\n      dup2\n      lt\n      tag_194\n      jumpi\n      tag_195\n      tag_196\n      jump\t// in\n    tag_195:\n    tag_194:\n      swap1\n      0x00\n      mstore\n      keccak256(0x00, 0x20)\n      swap1\n      0x06\n      mul\n      add\n        /* \"Inbox.sol\":5870:5908  Request storage req = myRequsts[reqId] */\n      swap1\n      pop\n        /* \"Inbox.sol\":5926:5929  req */\n      dup1\n        /* \"Inbox.sol\":5926:5939  req.approvals */\n      0x05\n      add\n        /* \"Inbox.sol\":5926:5945  req.approvals[user] */\n      0x00\n        /* \"Inbox.sol\":5940:5944  user */\n      dup5\n        /* \"Inbox.sol\":5926:5945  req.approvals[user] */\n      0xffffffffffffffffffffffffffffffffffffffff\n      and\n      0xffffffffffffffffffffffffffffffffffffffff\n      and\n      dup2\n      mstore\n      0x20\n      add\n      swap1\n      dup2\n      mstore\n      0x20\n      add\n      0x00\n      keccak256\n      0x00\n      swap1\n      sload\n      swap1\n      0x0100\n      exp\n      swap1\n      div\n      0xff\n      and\n        /* \"Inbox.sol\":5919:5945  return req.approvals[user] */\n      swap2\n      pop\n      pop\n        /* \"Inbox.sol\":5730:5953  function isStakeholdersApprove(uint reqId, address user) //not need>?... */\n      swap3\n      swap2\n      pop\n      pop\n      jump\t// out\n        /* \"Inbox.sol\":1522:1550  uint public numOfInvestors=0 */\n    tag_52:\n      sload(0x0b)\n      dup2\n      jump\t// out\n        /* \"Inbox.sol\":1251:1270  string  public name */\n    tag_57:\n      0x04\n      dup1\n      sload\n      tag_198\n      swap1\n      tag_199\n      jump\t// in\n    tag_198:\n      dup1\n      0x1f\n      add\n      0x20\n      dup1\n      swap2\n      div\n      mul\n      0x20\n      add\n      mload(0x40)\n      swap1\n      dup2\n      add\n      0x40\n      mstore\n      dup1\n      swap3\n      swap2\n      swap1\n      dup2\n      dup2\n      mstore\n      0x20\n      add\n      dup3\n      dup1\n      sload\n      tag_200\n      swap1\n      tag_199\n      jump\t// in\n    tag_200:\n      dup1\n      iszero\n      tag_201\n      jumpi\n      dup1\n      0x1f\n      lt\n      tag_202\n      jumpi\n      0x0100\n      dup1\n      dup4\n      sload\n      div\n      mul\n      dup4\n      mstore\n      swap2\n      0x20\n      add\n      swap2\n      jump(tag_201)\n    tag_202:\n      dup3\n      add\n      swap2\n      swap1\n      0x00\n      mstore\n      keccak256(0x00, 0x20)\n      swap1\n    tag_203:\n      dup2\n      sload\n      dup2\n      mstore\n      swap1\n      0x01\n      add\n      swap1\n      0x20\n      add\n      dup1\n      dup4\n      gt\n      tag_203\n      jumpi\n      dup3\n      swap1\n      sub\n      0x1f\n      and\n      dup3\n      add\n      swap2\n    tag_201:\n      pop\n      pop\n      pop\n      pop\n      pop\n      dup2\n      jump\t// out\n        /* \"Inbox.sol\":1332:1376  mapping(address => bool) public Stakeholders */\n    tag_64:\n      mstore(0x20, 0x07)\n      dup1\n      0x00\n      mstore\n      keccak256(0x00, 0x40)\n      0x00\n      swap2\n      pop\n      sload\n      swap1\n      0x0100\n      exp\n      swap1\n      div\n      0xff\n      and\n      dup2\n      jump\t// out\n        /* \"Inbox.sol\":5961:6281  function makeNewRequset(... */\n    tag_70:\n        /* \"Inbox.sol\":143:150  manager */\n      0x05\n      0x00\n      swap1\n      sload\n      swap1\n      0x0100\n      exp\n      swap1\n      div\n      0xffffffffffffffffffffffffffffffffffffffff\n      and\n        /* \"Inbox.sol\":129:150  msg.sender == manager */\n      0xffffffffffffffffffffffffffffffffffffffff\n      and\n        /* \"Inbox.sol\":129:139  msg.sender */\n      caller\n        /* \"Inbox.sol\":129:150  msg.sender == manager */\n      0xffffffffffffffffffffffffffffffffffffffff\n      and\n      eq\n        /* \"Inbox.sol\":121:151  require(msg.sender == manager) */\n      tag_205\n      jumpi\n      0x00\n      dup1\n      revert\n    tag_205:\n        /* \"Inbox.sol\":6100:6126  Request storage newRequest */\n      0x00\n        /* \"Inbox.sol\":6129:6138  myRequsts */\n      0x14\n        /* \"Inbox.sol\":6129:6145  myRequsts.push() */\n      0x01\n      dup2\n      0x01\n      dup2\n      sload\n      add\n      dup1\n      dup3\n      sstore\n      dup1\n      swap2\n      pop\n      pop\n      sub\n      swap1\n      0x00\n      mstore\n      keccak256(0x00, 0x20)\n      swap1\n      0x06\n      mul\n      add\n        /* \"Inbox.sol\":6100:6145  Request storage newRequest = myRequsts.push() */\n      swap1\n      pop\n        /* \"Inbox.sol\":6181:6184  why */\n      dup3\n        /* \"Inbox.sol\":6156:6166  newRequest */\n      dup2\n        /* \"Inbox.sol\":6156:6178  newRequest.description */\n      0x00\n      add\n        /* \"Inbox.sol\":6156:6184  newRequest.description = why */\n      swap1\n      dup2\n      tag_208\n      swap2\n      swap1\n      tag_209\n      jump\t// in\n    tag_208:\n      pop\n        /* \"Inbox.sol\":6214:6219  value */\n      dup2\n        /* \"Inbox.sol\":6195:6205  newRequest */\n      dup2\n        /* \"Inbox.sol\":6195:6211  newRequest.value */\n      0x02\n      add\n        /* \"Inbox.sol\":6195:6219  newRequest.value = value */\n      dup2\n      swap1\n      sstore\n      pop\n        /* \"Inbox.sol\":6248:6252  what */\n      dup4\n        /* \"Inbox.sol\":6230:6240  newRequest */\n      dup2\n        /* \"Inbox.sol\":6230:6245  newRequest.what */\n      0x01\n      add\n        /* \"Inbox.sol\":6230:6252  newRequest.what = what */\n      swap1\n      dup2\n      tag_210\n      swap2\n      swap1\n      tag_209\n      jump\t// in\n    tag_210:\n      pop\n        /* \"Inbox.sol\":6263:6271  listSize */\n      0x15\n      0x00\n        /* \"Inbox.sol\":6263:6273  listSize++ */\n      dup2\n      sload\n      dup1\n      swap3\n      swap2\n      swap1\n      tag_211\n      swap1\n      tag_212\n      jump\t// in\n    tag_211:\n      swap2\n      swap1\n      pop\n      sstore\n      pop\n        /* \"Inbox.sol\":6089:6281  {... */\n      pop\n        /* \"Inbox.sol\":5961:6281  function makeNewRequset(... */\n      pop\n      pop\n      pop\n      jump\t// out\n        /* \"Inbox.sol\":3027:3155  function investorBalanc() public view returns (uint) {... */\n    tag_73:\n        /* \"Inbox.sol\":3074:3078  uint */\n      0x00\n        /* \"Inbox.sol\":3142:3146  1000 */\n      0x03e8\n        /* \"Inbox.sol\":3129:3140  manager_fee */\n      sload(0x01)\n        /* \"Inbox.sol\":3124:3128  1000 */\n      0x03e8\n        /* \"Inbox.sol\":3124:3140  1000-manager_fee */\n      tag_214\n      swap2\n      swap1\n      tag_215\n      jump\t// in\n    tag_214:\n        /* \"Inbox.sol\":3100:3121  address(this).balance */\n      selfbalance\n        /* \"Inbox.sol\":3099:3141  (address(this).balance)*(1000-manager_fee) */\n      tag_216\n      swap2\n      swap1\n      tag_217\n      jump\t// in\n    tag_216:\n        /* \"Inbox.sol\":3099:3146  (address(this).balance)*(1000-manager_fee)/1000 */\n      tag_218\n      swap2\n      swap1\n      tag_219\n      jump\t// in\n    tag_218:\n        /* \"Inbox.sol\":3091:3147  return ((address(this).balance)*(1000-manager_fee)/1000) */\n      swap1\n      pop\n        /* \"Inbox.sol\":3027:3155  function investorBalanc() public view returns (uint) {... */\n      swap1\n      jump\t// out\n        /* \"Inbox.sol\":2166:2190  uint public lastLeaveVal */\n    tag_77:\n      sload(0x1a)\n      dup2\n      jump\t// out\n        /* \"Inbox.sol\":2103:2129  uint public managerFineFee */\n    tag_81:\n      sload(0x18)\n      dup2\n      jump\t// out\n        /* \"Inbox.sol\":1606:1648  mapping(address => uint) public ownPercent */\n    tag_86:\n      mstore(0x20, 0x0d)\n      dup1\n      0x00\n      mstore\n      keccak256(0x00, 0x40)\n      0x00\n      swap2\n      pop\n      swap1\n      pop\n      sload\n      dup2\n      jump\t// out\n        /* \"Inbox.sol\":1383:1442  mapping(address => bool) public Stakeholders_endTheContract */\n    tag_91:\n      mstore(0x20, 0x08)\n      dup1\n      0x00\n      mstore\n      keccak256(0x00, 0x40)\n      0x00\n      swap2\n      pop\n      sload\n      swap1\n      0x0100\n      exp\n      swap1\n      div\n      0xff\n      and\n      dup2\n      jump\t// out\n        /* \"Inbox.sol\":1837:1862  uint256 public timeToJoin */\n    tag_95:\n      sload(0x11)\n      dup2\n      jump\t// out\n        /* \"Inbox.sol\":6589:6952  function executed_order_66(uint index)... */\n    tag_101:\n        /* \"Inbox.sol\":6703:6707  bool */\n      0x00\n        /* \"Inbox.sol\":666:670  true */\n      0x01\n        /* \"Inbox.sol\":656:670  canBuy == true */\n      iszero\n      iszero\n        /* \"Inbox.sol\":656:662  canBuy */\n      0x13\n      0x00\n      swap1\n      sload\n      swap1\n      0x0100\n      exp\n      swap1\n      div\n      0xff\n      and\n        /* \"Inbox.sol\":656:670  canBuy == true */\n      iszero\n      iszero\n      eq\n        /* \"Inbox.sol\":647:672  require((canBuy == true)) */\n      tag_221\n      jumpi\n      0x00\n      dup1\n      revert\n    tag_221:\n        /* \"Inbox.sol\":143:150  manager */\n      0x05\n      0x00\n      swap1\n      sload\n      swap1\n      0x0100\n      exp\n      swap1\n      div\n      0xffffffffffffffffffffffffffffffffffffffff\n      and\n        /* \"Inbox.sol\":129:150  msg.sender == manager */\n      0xffffffffffffffffffffffffffffffffffffffff\n      and\n        /* \"Inbox.sol\":129:139  msg.sender */\n      caller\n        /* \"Inbox.sol\":129:150  msg.sender == manager */\n      0xffffffffffffffffffffffffffffffffffffffff\n      and\n      eq\n        /* \"Inbox.sol\":121:151  require(msg.sender == manager) */\n      tag_223\n      jumpi\n      0x00\n      dup1\n      revert\n    tag_223:\n        /* \"Inbox.sol\":6725:6748  Request storage request */\n      0x00\n        /* \"Inbox.sol\":6751:6760  myRequsts */\n      0x14\n        /* \"Inbox.sol\":6761:6766  index */\n      dup4\n        /* \"Inbox.sol\":6751:6767  myRequsts[index] */\n      dup2\n      sload\n      dup2\n      lt\n      tag_225\n      jumpi\n      tag_226\n      tag_196\n      jump\t// in\n    tag_226:\n    tag_225:\n      swap1\n      0x00\n      mstore\n      keccak256(0x00, 0x20)\n      swap1\n      0x06\n      mul\n      add\n        /* \"Inbox.sol\":6725:6767  Request storage request = myRequsts[index] */\n      swap1\n      pop\n        /* \"Inbox.sol\":6837:6838  2 */\n      0x02\n        /* \"Inbox.sol\":6819:6834  numStakeholders */\n      sload(0x03)\n        /* \"Inbox.sol\":6819:6838  numStakeholders / 2 */\n      tag_228\n      swap2\n      swap1\n      tag_219\n      jump\t// in\n    tag_228:\n        /* \"Inbox.sol\":6786:6793  request */\n      dup2\n        /* \"Inbox.sol\":6786:6807  request.approvalCount */\n      0x04\n      add\n      sload\n        /* \"Inbox.sol\":6786:6839  request.approvalCount >= uint256(numStakeholders / 2) */\n      lt\n      iszero\n        /* \"Inbox.sol\":6778:6840  require(request.approvalCount >= uint256(numStakeholders / 2)) */\n      tag_229\n      jumpi\n      0x00\n      dup1\n      revert\n    tag_229:\n        /* \"Inbox.sol\":6859:6863  site */\n      0x06\n      0x00\n      swap1\n      sload\n      swap1\n      0x0100\n      exp\n      swap1\n      div\n      0xffffffffffffffffffffffffffffffffffffffff\n      and\n        /* \"Inbox.sol\":6851:6873  payable(site).transfer */\n      0xffffffffffffffffffffffffffffffffffffffff\n      and\n        /* \"Inbox.sol\":6851:6888  payable(site).transfer(request.value) */\n      0x08fc\n        /* \"Inbox.sol\":6874:6881  request */\n      dup3\n        /* \"Inbox.sol\":6874:6887  request.value */\n      0x02\n      add\n      sload\n        /* \"Inbox.sol\":6851:6888  payable(site).transfer(request.value) */\n      swap1\n      dup2\n      iszero\n      mul\n      swap1\n      mload(0x40)\n      0x00\n      mload(0x40)\n      dup1\n      dup4\n      sub\n      dup2\n      dup6\n      dup9\n      dup9\n      call\n      swap4\n      pop\n      pop\n      pop\n      pop\n      iszero\n      dup1\n      iszero\n      tag_231\n      jumpi\n      returndatasize\n      0x00\n      dup1\n      returndatacopy\n      revert(0x00, returndatasize)\n    tag_231:\n      pop\n        /* \"Inbox.sol\":6918:6922  true */\n      0x01\n        /* \"Inbox.sol\":6899:6906  request */\n      dup2\n        /* \"Inbox.sol\":6899:6915  request.complete */\n      0x03\n      add\n      0x00\n        /* \"Inbox.sol\":6899:6922  request.complete = true */\n      0x0100\n      exp\n      dup2\n      sload\n      dup2\n      0xff\n      mul\n      not\n      and\n      swap1\n      dup4\n      iszero\n      iszero\n      mul\n      or\n      swap1\n      sstore\n      pop\n        /* \"Inbox.sol\":6940:6944  true */\n      0x01\n        /* \"Inbox.sol\":6933:6944  return true */\n      swap2\n      pop\n      pop\n        /* \"Inbox.sol\":6589:6952  function executed_order_66(uint index)... */\n      swap2\n      swap1\n      pop\n      jump\t// out\n        /* \"Inbox.sol\":1277:1299  address public manager */\n    tag_105:\n      0x05\n      0x00\n      swap1\n      sload\n      swap1\n      0x0100\n      exp\n      swap1\n      div\n      0xffffffffffffffffffffffffffffffffffffffff\n      and\n      dup2\n      jump\t// out\n        /* \"Inbox.sol\":3583:4157  function startContract() public  { //need to change to only manager... */\n    tag_110:\n        /* \"Inbox.sol\":3746:3750  true */\n      0x01\n        /* \"Inbox.sol\":3737:3743  canBuy */\n      0x13\n      0x00\n        /* \"Inbox.sol\":3737:3750  canBuy = true */\n      0x0100\n      exp\n      dup2\n      sload\n      dup2\n      0xff\n      mul\n      not\n      and\n      swap1\n      dup4\n      iszero\n      iszero\n      mul\n      or\n      swap1\n      sstore\n      pop\n        /* \"Inbox.sol\":3761:3774  uint totalVal */\n      0x00\n        /* \"Inbox.sol\":3777:3798  address(this).balance */\n      selfbalance\n        /* \"Inbox.sol\":3761:3798  uint totalVal = address(this).balance */\n      swap1\n      pop\n        /* \"Inbox.sol\":3853:3864  uint ammunt */\n      0x00\n        /* \"Inbox.sol\":3880:3886  uint i */\n      dup1\n        /* \"Inbox.sol\":3889:3890  0 */\n      0x00\n        /* \"Inbox.sol\":3880:3890  uint i = 0 */\n      swap1\n      pop\n        /* \"Inbox.sol\":3875:4122  for (uint i = 0; i < Investors.length; i++) {... */\n    tag_233:\n        /* \"Inbox.sol\":3896:3905  Investors */\n      0x0a\n        /* \"Inbox.sol\":3896:3912  Investors.length */\n      dup1\n      sload\n      swap1\n      pop\n        /* \"Inbox.sol\":3892:3893  i */\n      dup2\n        /* \"Inbox.sol\":3892:3912  i < Investors.length */\n      lt\n        /* \"Inbox.sol\":3875:4122  for (uint i = 0; i < Investors.length; i++) {... */\n      iszero\n      tag_234\n      jumpi\n        /* \"Inbox.sol\":3934:3955  address temp_investor */\n      0x00\n        /* \"Inbox.sol\":3958:3967  Investors */\n      0x0a\n        /* \"Inbox.sol\":3968:3969  i */\n      dup3\n        /* \"Inbox.sol\":3958:3970  Investors[i] */\n      dup2\n      sload\n      dup2\n      lt\n      tag_236\n      jumpi\n      tag_237\n      tag_196\n      jump\t// in\n    tag_237:\n    tag_236:\n      swap1\n      0x00\n      mstore\n      keccak256(0x00, 0x20)\n      add\n      0x00\n      swap1\n      sload\n      swap1\n      0x0100\n      exp\n      swap1\n      div\n      0xffffffffffffffffffffffffffffffffffffffff\n      and\n        /* \"Inbox.sol\":3934:3970  address temp_investor = Investors[i] */\n      swap1\n      pop\n        /* \"Inbox.sol\":3994:4004  Investment */\n      0x0c\n        /* \"Inbox.sol\":3994:4019  Investment[temp_investor] */\n      0x00\n        /* \"Inbox.sol\":4005:4018  temp_investor */\n      dup3\n        /* \"Inbox.sol\":3994:4019  Investment[temp_investor] */\n      0xffffffffffffffffffffffffffffffffffffffff\n      and\n      0xffffffffffffffffffffffffffffffffffffffff\n      and\n      dup2\n      mstore\n      0x20\n      add\n      swap1\n      dup2\n      mstore\n      0x20\n      add\n      0x00\n      keccak256\n      sload\n        /* \"Inbox.sol\":3985:4019  ammunt = Investment[temp_investor] */\n      swap3\n      pop\n        /* \"Inbox.sol\":4084:4092  totalVal */\n      dup4\n        /* \"Inbox.sol\":4076:4080  1000 */\n      0x03e8\n        /* \"Inbox.sol\":4066:4072  ammunt */\n      dup5\n        /* \"Inbox.sol\":4065:4080  (ammunt) * 1000 */\n      tag_239\n      swap2\n      swap1\n      tag_217\n      jump\t// in\n    tag_239:\n        /* \"Inbox.sol\":4064:4092  ((ammunt) * 1000) / totalVal */\n      tag_240\n      swap2\n      swap1\n      tag_219\n      jump\t// in\n    tag_240:\n        /* \"Inbox.sol\":4034:4044  ownPercent */\n      0x0d\n        /* \"Inbox.sol\":4034:4059  ownPercent[temp_investor] */\n      0x00\n        /* \"Inbox.sol\":4045:4058  temp_investor */\n      dup4\n        /* \"Inbox.sol\":4034:4059  ownPercent[temp_investor] */\n      0xffffffffffffffffffffffffffffffffffffffff\n      and\n      0xffffffffffffffffffffffffffffffffffffffff\n      and\n      dup2\n      mstore\n      0x20\n      add\n      swap1\n      dup2\n      mstore\n      0x20\n      add\n      0x00\n      keccak256\n        /* \"Inbox.sol\":4034:4094  ownPercent[temp_investor] = ((((ammunt) * 1000) / totalVal)) */\n      dup2\n      swap1\n      sstore\n      pop\n        /* \"Inbox.sol\":3919:4122  {... */\n      pop\n        /* \"Inbox.sol\":3914:3917  i++ */\n      dup1\n      dup1\n      tag_241\n      swap1\n      tag_212\n      jump\t// in\n    tag_241:\n      swap2\n      pop\n      pop\n        /* \"Inbox.sol\":3875:4122  for (uint i = 0; i < Investors.length; i++) {... */\n      jump(tag_233)\n    tag_234:\n      pop\n        /* \"Inbox.sol\":4132:4149  setStakeholders() */\n      tag_242\n        /* \"Inbox.sol\":4132:4147  setStakeholders */\n      tag_243\n        /* \"Inbox.sol\":4132:4149  setStakeholders() */\n      jump\t// in\n    tag_242:\n        /* \"Inbox.sol\":3616:4157  { //need to change to only manager... */\n      pop\n      pop\n        /* \"Inbox.sol\":3583:4157  function startContract() public  { //need to change to only manager... */\n      jump\t// out\n        /* \"Inbox.sol\":8699:9341  function payDay() public EndPeriod onlySite {... */\n    tag_113:\n        /* \"Inbox.sol\":799:800  2 */\n      0x02\n        /* \"Inbox.sol\":781:796  numStakeholders */\n      sload(0x03)\n        /* \"Inbox.sol\":781:800  numStakeholders / 2 */\n      tag_245\n      swap2\n      swap1\n      tag_219\n      jump\t// in\n    tag_245:\n        /* \"Inbox.sol\":753:777  endTheContract_numOfVote */\n      sload(0x09)\n        /* \"Inbox.sol\":753:800  endTheContract_numOfVote >= numStakeholders / 2 */\n      lt\n      iszero\n        /* \"Inbox.sol\":752:820  (endTheContract_numOfVote >= numStakeholders / 2) || canBuy == false */\n      dup1\n      tag_246\n      jumpi\n      pop\n        /* \"Inbox.sol\":815:820  false */\n      0x00\n        /* \"Inbox.sol\":805:820  canBuy == false */\n      iszero\n      iszero\n        /* \"Inbox.sol\":805:811  canBuy */\n      0x13\n      0x00\n      swap1\n      sload\n      swap1\n      0x0100\n      exp\n      swap1\n      div\n      0xff\n      and\n        /* \"Inbox.sol\":805:820  canBuy == false */\n      iszero\n      iszero\n      eq\n        /* \"Inbox.sol\":752:820  (endTheContract_numOfVote >= numStakeholders / 2) || canBuy == false */\n    tag_246:\n        /* \"Inbox.sol\":730:831  require(... */\n      tag_247\n      jumpi\n      0x00\n      dup1\n      revert\n    tag_247:\n        /* \"Inbox.sol\":332:336  site */\n      0x06\n      0x00\n      swap1\n      sload\n      swap1\n      0x0100\n      exp\n      swap1\n      div\n      0xffffffffffffffffffffffffffffffffffffffff\n      and\n        /* \"Inbox.sol\":318:336  msg.sender == site */\n      0xffffffffffffffffffffffffffffffffffffffff\n      and\n        /* \"Inbox.sol\":318:328  msg.sender */\n      caller\n        /* \"Inbox.sol\":318:336  msg.sender == site */\n      0xffffffffffffffffffffffffffffffffffffffff\n      and\n      eq\n        /* \"Inbox.sol\":310:337  require(msg.sender == site) */\n      tag_249\n      jumpi\n      0x00\n      dup1\n      revert\n    tag_249:\n        /* \"Inbox.sol\":8788:8804  investorBalanc() */\n      tag_251\n        /* \"Inbox.sol\":8788:8802  investorBalanc */\n      tag_73\n        /* \"Inbox.sol\":8788:8804  investorBalanc() */\n      jump\t// in\n    tag_251:\n        /* \"Inbox.sol\":8775:8786  the_balance */\n      0x19\n        /* \"Inbox.sol\":8775:8804  the_balance =investorBalanc() */\n      dup2\n      swap1\n      sstore\n      pop\n        /* \"Inbox.sol\":8821:8827  uint i */\n      0x00\n        /* \"Inbox.sol\":8816:9185  for (uint i = 0; i < Investors.length; i++) {... */\n    tag_252:\n        /* \"Inbox.sol\":8837:8846  Investors */\n      0x0a\n        /* \"Inbox.sol\":8837:8853  Investors.length */\n      dup1\n      sload\n      swap1\n      pop\n        /* \"Inbox.sol\":8833:8834  i */\n      dup2\n        /* \"Inbox.sol\":8833:8853  i < Investors.length */\n      lt\n        /* \"Inbox.sol\":8816:9185  for (uint i = 0; i < Investors.length; i++) {... */\n      iszero\n      tag_253\n      jumpi\n        /* \"Inbox.sol\":8875:8891  address investor */\n      0x00\n        /* \"Inbox.sol\":8894:8903  Investors */\n      0x0a\n        /* \"Inbox.sol\":8904:8905  i */\n      dup3\n        /* \"Inbox.sol\":8894:8906  Investors[i] */\n      dup2\n      sload\n      dup2\n      lt\n      tag_255\n      jumpi\n      tag_256\n      tag_196\n      jump\t// in\n    tag_256:\n    tag_255:\n      swap1\n      0x00\n      mstore\n      keccak256(0x00, 0x20)\n      add\n      0x00\n      swap1\n      sload\n      swap1\n      0x0100\n      exp\n      swap1\n      div\n      0xffffffffffffffffffffffffffffffffffffffff\n      and\n        /* \"Inbox.sol\":8875:8906  address investor = Investors[i] */\n      swap1\n      pop\n        /* \"Inbox.sol\":8945:8950  false */\n      0x00\n        /* \"Inbox.sol\":8925:8950  lefted[investor] == false */\n      iszero\n      iszero\n        /* \"Inbox.sol\":8925:8931  lefted */\n      0x0e\n        /* \"Inbox.sol\":8925:8941  lefted[investor] */\n      0x00\n        /* \"Inbox.sol\":8932:8940  investor */\n      dup4\n        /* \"Inbox.sol\":8925:8941  lefted[investor] */\n      0xffffffffffffffffffffffffffffffffffffffff\n      and\n      0xffffffffffffffffffffffffffffffffffffffff\n      and\n      dup2\n      mstore\n      0x20\n      add\n      swap1\n      dup2\n      mstore\n      0x20\n      add\n      0x00\n      keccak256\n      0x00\n      swap1\n      sload\n      swap1\n      0x0100\n      exp\n      swap1\n      div\n      0xff\n      and\n        /* \"Inbox.sol\":8925:8950  lefted[investor] == false */\n      iszero\n      iszero\n      sub\n        /* \"Inbox.sol\":8921:9174  if (lefted[investor] == false) {... */\n      tag_258\n      jumpi\n        /* \"Inbox.sol\":8971:8985  uint myPercent */\n      0x00\n        /* \"Inbox.sol\":8988:8998  ownPercent */\n      0x0d\n        /* \"Inbox.sol\":8988:9008  ownPercent[investor] */\n      0x00\n        /* \"Inbox.sol\":8999:9007  investor */\n      dup4\n        /* \"Inbox.sol\":8988:9008  ownPercent[investor] */\n      0xffffffffffffffffffffffffffffffffffffffff\n      and\n      0xffffffffffffffffffffffffffffffffffffffff\n      and\n      dup2\n      mstore\n      0x20\n      add\n      swap1\n      dup2\n      mstore\n      0x20\n      add\n      0x00\n      keccak256\n      sload\n        /* \"Inbox.sol\":8971:9008  uint myPercent = ownPercent[investor] */\n      swap1\n      pop\n        /* \"Inbox.sol\":9027:9037  uint value */\n      0x00\n        /* \"Inbox.sol\":9068:9072  1000 */\n      0x03e8\n        /* \"Inbox.sol\":9053:9064  the_balance */\n      sload(0x19)\n        /* \"Inbox.sol\":9041:9050  myPercent */\n      dup4\n        /* \"Inbox.sol\":9041:9064  myPercent * the_balance */\n      tag_259\n      swap2\n      swap1\n      tag_217\n      jump\t// in\n    tag_259:\n        /* \"Inbox.sol\":9040:9072  (myPercent * the_balance) / 1000 */\n      tag_260\n      swap2\n      swap1\n      tag_219\n      jump\t// in\n    tag_260:\n        /* \"Inbox.sol\":9027:9072  uint value = (myPercent * the_balance) / 1000 */\n      swap1\n      pop\n        /* \"Inbox.sol\":9099:9107  investor */\n      dup3\n        /* \"Inbox.sol\":9091:9117  payable(investor).transfer */\n      0xffffffffffffffffffffffffffffffffffffffff\n      and\n        /* \"Inbox.sol\":9091:9124  payable(investor).transfer(value) */\n      0x08fc\n        /* \"Inbox.sol\":9118:9123  value */\n      dup3\n        /* \"Inbox.sol\":9091:9124  payable(investor).transfer(value) */\n      swap1\n      dup2\n      iszero\n      mul\n      swap1\n      mload(0x40)\n      0x00\n      mload(0x40)\n      dup1\n      dup4\n      sub\n      dup2\n      dup6\n      dup9\n      dup9\n      call\n      swap4\n      pop\n      pop\n      pop\n      pop\n      iszero\n      dup1\n      iszero\n      tag_262\n      jumpi\n      returndatasize\n      0x00\n      dup1\n      returndatacopy\n      revert(0x00, returndatasize)\n    tag_262:\n      pop\n        /* \"Inbox.sol\":8952:9174  {... */\n      pop\n      pop\n        /* \"Inbox.sol\":8921:9174  if (lefted[investor] == false) {... */\n    tag_258:\n        /* \"Inbox.sol\":8860:9185  {... */\n      pop\n        /* \"Inbox.sol\":8855:8858  i++ */\n      dup1\n      dup1\n      tag_263\n      swap1\n      tag_212\n      jump\t// in\n    tag_263:\n      swap2\n      pop\n      pop\n        /* \"Inbox.sol\":8816:9185  for (uint i = 0; i < Investors.length; i++) {... */\n      jump(tag_252)\n    tag_253:\n      pop\n        /* \"Inbox.sol\":9212:9233  address(this).balance */\n      selfbalance\n        /* \"Inbox.sol\":9195:9209  managerFineFee */\n      0x18\n        /* \"Inbox.sol\":9195:9233  managerFineFee = address(this).balance */\n      dup2\n      swap1\n      sstore\n      pop\n        /* \"Inbox.sol\":9252:9259  manager */\n      0x05\n      0x00\n      swap1\n      sload\n      swap1\n      0x0100\n      exp\n      swap1\n      div\n      0xffffffffffffffffffffffffffffffffffffffff\n      and\n        /* \"Inbox.sol\":9244:9269  payable(manager).transfer */\n      0xffffffffffffffffffffffffffffffffffffffff\n      and\n        /* \"Inbox.sol\":9244:9285  payable(manager).transfer(managerFineFee) */\n      0x08fc\n        /* \"Inbox.sol\":9270:9284  managerFineFee */\n      sload(0x18)\n        /* \"Inbox.sol\":9244:9285  payable(manager).transfer(managerFineFee) */\n      swap1\n      dup2\n      iszero\n      mul\n      swap1\n      mload(0x40)\n      0x00\n      mload(0x40)\n      dup1\n      dup4\n      sub\n      dup2\n      dup6\n      dup9\n      dup9\n      call\n      swap4\n      pop\n      pop\n      pop\n      pop\n      iszero\n      dup1\n      iszero\n      tag_265\n      jumpi\n      returndatasize\n      0x00\n      dup1\n      returndatacopy\n      revert(0x00, returndatasize)\n    tag_265:\n      pop\n        /* \"Inbox.sol\":8699:9341  function payDay() public EndPeriod onlySite {... */\n      jump\t// out\n        /* \"Inbox.sol\":8343:8691  function PayDayVoted() public workPeriod onlyStakeholders {... */\n    tag_116:\n        /* \"Inbox.sol\":666:670  true */\n      0x01\n        /* \"Inbox.sol\":656:670  canBuy == true */\n      iszero\n      iszero\n        /* \"Inbox.sol\":656:662  canBuy */\n      0x13\n      0x00\n      swap1\n      sload\n      swap1\n      0x0100\n      exp\n      swap1\n      div\n      0xff\n      and\n        /* \"Inbox.sol\":656:670  canBuy == true */\n      iszero\n      iszero\n      eq\n        /* \"Inbox.sol\":647:672  require((canBuy == true)) */\n      tag_267\n      jumpi\n      0x00\n      dup1\n      revert\n    tag_267:\n        /* \"Inbox.sol\":226:238  Stakeholders */\n      0x07\n        /* \"Inbox.sol\":226:250  Stakeholders[msg.sender] */\n      0x00\n        /* \"Inbox.sol\":239:249  msg.sender */\n      caller\n        /* \"Inbox.sol\":226:250  Stakeholders[msg.sender] */\n      0xffffffffffffffffffffffffffffffffffffffff\n      and\n      0xffffffffffffffffffffffffffffffffffffffff\n      and\n      dup2\n      mstore\n      0x20\n      add\n      swap1\n      dup2\n      mstore\n      0x20\n      add\n      0x00\n      keccak256\n      0x00\n      swap1\n      sload\n      swap1\n      0x0100\n      exp\n      swap1\n      div\n      0xff\n      and\n        /* \"Inbox.sol\":218:251  require(Stakeholders[msg.sender]) */\n      tag_269\n      jumpi\n      0x00\n      dup1\n      revert\n    tag_269:\n        /* \"Inbox.sol\":8459:8464  false */\n      0x00\n        /* \"Inbox.sol\":8416:8464  Stakeholders_endTheContract[msg.sender] == false */\n      iszero\n      iszero\n        /* \"Inbox.sol\":8416:8443  Stakeholders_endTheContract */\n      0x08\n        /* \"Inbox.sol\":8416:8455  Stakeholders_endTheContract[msg.sender] */\n      0x00\n        /* \"Inbox.sol\":8444:8454  msg.sender */\n      caller\n        /* \"Inbox.sol\":8416:8455  Stakeholders_endTheContract[msg.sender] */\n      0xffffffffffffffffffffffffffffffffffffffff\n      and\n      0xffffffffffffffffffffffffffffffffffffffff\n      and\n      dup2\n      mstore\n      0x20\n      add\n      swap1\n      dup2\n      mstore\n      0x20\n      add\n      0x00\n      keccak256\n      0x00\n      swap1\n      sload\n      swap1\n      0x0100\n      exp\n      swap1\n      div\n      0xff\n      and\n        /* \"Inbox.sol\":8416:8464  Stakeholders_endTheContract[msg.sender] == false */\n      iszero\n      iszero\n      sub\n        /* \"Inbox.sol\":8412:8580  if (Stakeholders_endTheContract[msg.sender] == false) {... */\n      tag_271\n      jumpi\n        /* \"Inbox.sol\":8523:8527  true */\n      0x01\n        /* \"Inbox.sol\":8481:8508  Stakeholders_endTheContract */\n      0x08\n        /* \"Inbox.sol\":8481:8520  Stakeholders_endTheContract[msg.sender] */\n      0x00\n        /* \"Inbox.sol\":8509:8519  msg.sender */\n      caller\n        /* \"Inbox.sol\":8481:8520  Stakeholders_endTheContract[msg.sender] */\n      0xffffffffffffffffffffffffffffffffffffffff\n      and\n      0xffffffffffffffffffffffffffffffffffffffff\n      and\n      dup2\n      mstore\n      0x20\n      add\n      swap1\n      dup2\n      mstore\n      0x20\n      add\n      0x00\n      keccak256\n      0x00\n        /* \"Inbox.sol\":8481:8527  Stakeholders_endTheContract[msg.sender] = true */\n      0x0100\n      exp\n      dup2\n      sload\n      dup2\n      0xff\n      mul\n      not\n      and\n      swap1\n      dup4\n      iszero\n      iszero\n      mul\n      or\n      swap1\n      sstore\n      pop\n        /* \"Inbox.sol\":8542:8566  endTheContract_numOfVote */\n      0x09\n      0x00\n        /* \"Inbox.sol\":8542:8568  endTheContract_numOfVote++ */\n      dup2\n      sload\n      dup1\n      swap3\n      swap2\n      swap1\n      tag_272\n      swap1\n      tag_212\n      jump\t// in\n    tag_272:\n      swap2\n      swap1\n      pop\n      sstore\n      pop\n        /* \"Inbox.sol\":8412:8580  if (Stakeholders_endTheContract[msg.sender] == false) {... */\n    tag_271:\n        /* \"Inbox.sol\":8640:8641  2 */\n      0x02\n        /* \"Inbox.sol\":8622:8637  numStakeholders */\n      sload(0x03)\n        /* \"Inbox.sol\":8622:8641  numStakeholders / 2 */\n      tag_273\n      swap2\n      swap1\n      tag_219\n      jump\t// in\n    tag_273:\n        /* \"Inbox.sol\":8594:8618  endTheContract_numOfVote */\n      sload(0x09)\n        /* \"Inbox.sol\":8594:8641  endTheContract_numOfVote >= numStakeholders / 2 */\n      lt\n        /* \"Inbox.sol\":8590:8684  if (endTheContract_numOfVote >= numStakeholders / 2) {... */\n      tag_274\n      jumpi\n        /* \"Inbox.sol\":8667:8672  false */\n      0x00\n        /* \"Inbox.sol\":8658:8664  canBuy */\n      0x13\n      0x00\n        /* \"Inbox.sol\":8658:8672  canBuy = false */\n      0x0100\n      exp\n      dup2\n      sload\n      dup2\n      0xff\n      mul\n      not\n      and\n      swap1\n      dup4\n      iszero\n      iszero\n      mul\n      or\n      swap1\n      sstore\n      pop\n        /* \"Inbox.sol\":8590:8684  if (endTheContract_numOfVote >= numStakeholders / 2) {... */\n    tag_274:\n        /* \"Inbox.sol\":8343:8691  function PayDayVoted() public workPeriod onlyStakeholders {... */\n      jump\t// out\n        /* \"Inbox.sol\":2072:2096  uint public lastTotalVal */\n    tag_119:\n      sload(0x17)\n      dup2\n      jump\t// out\n        /* \"Inbox.sol\":1729:1760  uint public minimumContribution */\n    tag_123:\n      sload(0x0f)\n      dup2\n      jump\t// out\n        /* \"Inbox.sol\":1997:2018  uint  public listSize */\n    tag_127:\n      sload(0x15)\n      dup2\n      jump\t// out\n        /* \"Inbox.sol\":3495:3575  function getMoney() public payable returns (bool) {... */\n    tag_130:\n        /* \"Inbox.sol\":3539:3543  bool */\n      0x00\n        /* \"Inbox.sol\":3563:3567  true */\n      0x01\n        /* \"Inbox.sol\":3556:3567  return true */\n      swap1\n      pop\n        /* \"Inbox.sol\":3495:3575  function getMoney() public payable returns (bool) {... */\n      swap1\n      jump\t// out\n        /* \"Inbox.sol\":1684:1722  mapping(address => bool) public lefted */\n    tag_135:\n      mstore(0x20, 0x0e)\n      dup1\n      0x00\n      mstore\n      keccak256(0x00, 0x40)\n      0x00\n      swap2\n      pop\n      sload\n      swap1\n      0x0100\n      exp\n      swap1\n      div\n      0xff\n      and\n      dup2\n      jump\t// out\n        /* \"Inbox.sol\":2136:2159  uint public the_balance */\n    tag_139:\n      sload(0x19)\n      dup2\n      jump\t// out\n        /* \"Inbox.sol\":2199:2516  function allInvestorPercent() public view returns (uint) {... */\n    tag_143:\n        /* \"Inbox.sol\":2250:2254  uint */\n      0x00\n        /* \"Inbox.sol\":2267:2275  uint sum */\n      dup1\n        /* \"Inbox.sol\":2291:2297  uint i */\n      0x00\n        /* \"Inbox.sol\":2286:2488  for (uint i = 0; i < Investors.length; i++) {... */\n    tag_277:\n        /* \"Inbox.sol\":2307:2316  Investors */\n      0x0a\n        /* \"Inbox.sol\":2307:2323  Investors.length */\n      dup1\n      sload\n      swap1\n      pop\n        /* \"Inbox.sol\":2303:2304  i */\n      dup2\n        /* \"Inbox.sol\":2303:2323  i < Investors.length */\n      lt\n        /* \"Inbox.sol\":2286:2488  for (uint i = 0; i < Investors.length; i++) {... */\n      iszero\n      tag_278\n      jumpi\n        /* \"Inbox.sol\":2345:2357  address user */\n      0x00\n        /* \"Inbox.sol\":2360:2369  Investors */\n      0x0a\n        /* \"Inbox.sol\":2370:2371  i */\n      dup3\n        /* \"Inbox.sol\":2360:2372  Investors[i] */\n      dup2\n      sload\n      dup2\n      lt\n      tag_280\n      jumpi\n      tag_281\n      tag_196\n      jump\t// in\n    tag_281:\n    tag_280:\n      swap1\n      0x00\n      mstore\n      keccak256(0x00, 0x20)\n      add\n      0x00\n      swap1\n      sload\n      swap1\n      0x0100\n      exp\n      swap1\n      div\n      0xffffffffffffffffffffffffffffffffffffffff\n      and\n        /* \"Inbox.sol\":2345:2372  address user = Investors[i] */\n      swap1\n      pop\n        /* \"Inbox.sol\":2407:2412  false */\n      0x00\n        /* \"Inbox.sol\":2391:2412  lefted[user] == false */\n      iszero\n      iszero\n        /* \"Inbox.sol\":2391:2397  lefted */\n      0x0e\n        /* \"Inbox.sol\":2391:2403  lefted[user] */\n      0x00\n        /* \"Inbox.sol\":2398:2402  user */\n      dup4\n        /* \"Inbox.sol\":2391:2403  lefted[user] */\n      0xffffffffffffffffffffffffffffffffffffffff\n      and\n      0xffffffffffffffffffffffffffffffffffffffff\n      and\n      dup2\n      mstore\n      0x20\n      add\n      swap1\n      dup2\n      mstore\n      0x20\n      add\n      0x00\n      keccak256\n      0x00\n      swap1\n      sload\n      swap1\n      0x0100\n      exp\n      swap1\n      div\n      0xff\n      and\n        /* \"Inbox.sol\":2391:2412  lefted[user] == false */\n      iszero\n      iszero\n      sub\n        /* \"Inbox.sol\":2387:2477  if (lefted[user] == false) {... */\n      tag_283\n      jumpi\n        /* \"Inbox.sol\":2445:2455  ownPercent */\n      0x0d\n        /* \"Inbox.sol\":2445:2461  ownPercent[user] */\n      0x00\n        /* \"Inbox.sol\":2456:2460  user */\n      dup3\n        /* \"Inbox.sol\":2445:2461  ownPercent[user] */\n      0xffffffffffffffffffffffffffffffffffffffff\n      and\n      0xffffffffffffffffffffffffffffffffffffffff\n      and\n      dup2\n      mstore\n      0x20\n      add\n      swap1\n      dup2\n      mstore\n      0x20\n      add\n      0x00\n      keccak256\n      sload\n        /* \"Inbox.sol\":2439:2442  sum */\n      dup4\n        /* \"Inbox.sol\":2439:2461  sum + ownPercent[user] */\n      tag_284\n      swap2\n      swap1\n      tag_285\n      jump\t// in\n    tag_284:\n        /* \"Inbox.sol\":2433:2461  sum = sum + ownPercent[user] */\n      swap3\n      pop\n        /* \"Inbox.sol\":2387:2477  if (lefted[user] == false) {... */\n    tag_283:\n        /* \"Inbox.sol\":2330:2488  {... */\n      pop\n        /* \"Inbox.sol\":2325:2328  i++ */\n      dup1\n      dup1\n      tag_286\n      swap1\n      tag_212\n      jump\t// in\n    tag_286:\n      swap2\n      pop\n      pop\n        /* \"Inbox.sol\":2286:2488  for (uint i = 0; i < Investors.length; i++) {... */\n      jump(tag_277)\n    tag_278:\n      pop\n        /* \"Inbox.sol\":2505:2508  sum */\n      dup1\n        /* \"Inbox.sol\":2498:2508  return sum */\n      swap2\n      pop\n      pop\n        /* \"Inbox.sol\":2199:2516  function allInvestorPercent() public view returns (uint) {... */\n      swap1\n      jump\t// out\n        /* \"Inbox.sol\":6960:7936  function leave_contract(... */\n    tag_149:\n        /* \"Inbox.sol\":7128:7132  bool */\n      0x00\n        /* \"Inbox.sol\":666:670  true */\n      0x01\n        /* \"Inbox.sol\":656:670  canBuy == true */\n      iszero\n      iszero\n        /* \"Inbox.sol\":656:662  canBuy */\n      0x13\n      0x00\n      swap1\n      sload\n      swap1\n      0x0100\n      exp\n      swap1\n      div\n      0xff\n      and\n        /* \"Inbox.sol\":656:670  canBuy == true */\n      iszero\n      iszero\n      eq\n        /* \"Inbox.sol\":647:672  require((canBuy == true)) */\n      tag_288\n      jumpi\n      0x00\n      dup1\n      revert\n    tag_288:\n        /* \"Inbox.sol\":332:336  site */\n      0x06\n      0x00\n      swap1\n      sload\n      swap1\n      0x0100\n      exp\n      swap1\n      div\n      0xffffffffffffffffffffffffffffffffffffffff\n      and\n        /* \"Inbox.sol\":318:336  msg.sender == site */\n      0xffffffffffffffffffffffffffffffffffffffff\n      and\n        /* \"Inbox.sol\":318:328  msg.sender */\n      caller\n        /* \"Inbox.sol\":318:336  msg.sender == site */\n      0xffffffffffffffffffffffffffffffffffffffff\n      and\n      eq\n        /* \"Inbox.sol\":310:337  require(msg.sender == site) */\n      tag_290\n      jumpi\n      0x00\n      dup1\n      revert\n    tag_290:\n        /* \"Inbox.sol\":7181:7186  false */\n      0x00\n        /* \"Inbox.sol\":7153:7186  Stakeholders[msg.sender] == false */\n      iszero\n      iszero\n        /* \"Inbox.sol\":7153:7165  Stakeholders */\n      0x07\n        /* \"Inbox.sol\":7153:7177  Stakeholders[msg.sender] */\n      0x00\n        /* \"Inbox.sol\":7166:7176  msg.sender */\n      caller\n        /* \"Inbox.sol\":7153:7177  Stakeholders[msg.sender] */\n      0xffffffffffffffffffffffffffffffffffffffff\n      and\n      0xffffffffffffffffffffffffffffffffffffffff\n      and\n      dup2\n      mstore\n      0x20\n      add\n      swap1\n      dup2\n      mstore\n      0x20\n      add\n      0x00\n      keccak256\n      0x00\n      swap1\n      sload\n      swap1\n      0x0100\n      exp\n      swap1\n      div\n      0xff\n      and\n        /* \"Inbox.sol\":7153:7186  Stakeholders[msg.sender] == false */\n      iszero\n      iszero\n      eq\n        /* \"Inbox.sol\":7145:7187  require(Stakeholders[msg.sender] == false) */\n      tag_292\n      jumpi\n      0x00\n      dup1\n      revert\n    tag_292:\n        /* \"Inbox.sol\":7348:7362  uint myPercent */\n      0x00\n        /* \"Inbox.sol\":7365:7375  ownPercent */\n      0x0d\n        /* \"Inbox.sol\":7365:7390  ownPercent[leave_address] */\n      0x00\n        /* \"Inbox.sol\":7376:7389  leave_address */\n      dup6\n        /* \"Inbox.sol\":7365:7390  ownPercent[leave_address] */\n      0xffffffffffffffffffffffffffffffffffffffff\n      and\n      0xffffffffffffffffffffffffffffffffffffffff\n      and\n      dup2\n      mstore\n      0x20\n      add\n      swap1\n      dup2\n      mstore\n      0x20\n      add\n      0x00\n      keccak256\n      sload\n        /* \"Inbox.sol\":7348:7390  uint myPercent = ownPercent[leave_address] */\n      swap1\n      pop\n        /* \"Inbox.sol\":7401:7416  uint totalValue */\n      0x00\n        /* \"Inbox.sol\":7427:7443  investorBalanc() */\n      tag_293\n        /* \"Inbox.sol\":7427:7441  investorBalanc */\n      tag_73\n        /* \"Inbox.sol\":7427:7443  investorBalanc() */\n      jump\t// in\n    tag_293:\n        /* \"Inbox.sol\":7419:7424  yield */\n      dup5\n        /* \"Inbox.sol\":7419:7443  yield + investorBalanc() */\n      tag_294\n      swap2\n      swap1\n      tag_285\n      jump\t// in\n    tag_294:\n        /* \"Inbox.sol\":7401:7443  uint totalValue = yield + investorBalanc() */\n      swap1\n      pop\n        /* \"Inbox.sol\":7454:7464  uint value */\n      0x00\n        /* \"Inbox.sol\":7516:7520  1000 */\n      0x03e8\n        /* \"Inbox.sol\":7505:7512  penelty */\n      sload(0x00)\n        /* \"Inbox.sol\":7497:7501  1000 */\n      0x03e8\n        /* \"Inbox.sol\":7484:7493  myPercent */\n      dup6\n        /* \"Inbox.sol\":7471:7481  totalValue */\n      dup6\n        /* \"Inbox.sol\":7471:7493  totalValue * myPercent */\n      tag_295\n      swap2\n      swap1\n      tag_217\n      jump\t// in\n    tag_295:\n        /* \"Inbox.sol\":7470:7501  (totalValue * myPercent) / 1000 */\n      tag_296\n      swap2\n      swap1\n      tag_219\n      jump\t// in\n    tag_296:\n        /* \"Inbox.sol\":7469:7512  ((totalValue * myPercent) / 1000) * penelty */\n      tag_297\n      swap2\n      swap1\n      tag_217\n      jump\t// in\n    tag_297:\n        /* \"Inbox.sol\":7468:7520  (((totalValue * myPercent) / 1000) * penelty) / 1000 */\n      tag_298\n      swap2\n      swap1\n      tag_219\n      jump\t// in\n    tag_298:\n        /* \"Inbox.sol\":7454:7521  uint value = ((((totalValue * myPercent) / 1000) * penelty) / 1000) */\n      swap1\n      pop\n        /* \"Inbox.sol\":7547:7552  value */\n      dup1\n        /* \"Inbox.sol\":7532:7544  lastTotalVal */\n      0x17\n        /* \"Inbox.sol\":7532:7552  lastTotalVal = value */\n      dup2\n      swap1\n      sstore\n      pop\n        /* \"Inbox.sol\":7576:7597  address(this).balance */\n      selfbalance\n        /* \"Inbox.sol\":7567:7572  value */\n      dup2\n        /* \"Inbox.sol\":7567:7597  value <= address(this).balance */\n      gt\n        /* \"Inbox.sol\":7563:7929  if (value <= address(this).balance) {... */\n      tag_299\n      jumpi\n        /* \"Inbox.sol\":7627:7639  lastTotalVal */\n      sload(0x17)\n        /* \"Inbox.sol\":7614:7626  lastLeaveVal */\n      0x1a\n        /* \"Inbox.sol\":7614:7639  lastLeaveVal=lastTotalVal */\n      dup2\n      swap1\n      sstore\n      pop\n        /* \"Inbox.sol\":7674:7687  leave_address */\n      dup6\n        /* \"Inbox.sol\":7666:7697  payable(leave_address).transfer */\n      0xffffffffffffffffffffffffffffffffffffffff\n      and\n        /* \"Inbox.sol\":7666:7704  payable(leave_address).transfer(value) */\n      0x08fc\n        /* \"Inbox.sol\":7698:7703  value */\n      dup3\n        /* \"Inbox.sol\":7666:7704  payable(leave_address).transfer(value) */\n      swap1\n      dup2\n      iszero\n      mul\n      swap1\n      mload(0x40)\n      0x00\n      mload(0x40)\n      dup1\n      dup4\n      sub\n      dup2\n      dup6\n      dup9\n      dup9\n      call\n      swap4\n      pop\n      pop\n      pop\n      pop\n      iszero\n      dup1\n      iszero\n      tag_301\n      jumpi\n      returndatasize\n      0x00\n      dup1\n      returndatacopy\n      revert(0x00, returndatasize)\n    tag_301:\n      pop\n        /* \"Inbox.sol\":7743:7747  true */\n      0x01\n        /* \"Inbox.sol\":7719:7725  lefted */\n      0x0e\n        /* \"Inbox.sol\":7719:7740  lefted[leave_address] */\n      0x00\n        /* \"Inbox.sol\":7726:7739  leave_address */\n      dup9\n        /* \"Inbox.sol\":7719:7740  lefted[leave_address] */\n      0xffffffffffffffffffffffffffffffffffffffff\n      and\n      0xffffffffffffffffffffffffffffffffffffffff\n      and\n      dup2\n      mstore\n      0x20\n      add\n      swap1\n      dup2\n      mstore\n      0x20\n      add\n      0x00\n      keccak256\n      0x00\n        /* \"Inbox.sol\":7719:7747  lefted[leave_address] = true */\n      0x0100\n      exp\n      dup2\n      sload\n      dup2\n      0xff\n      mul\n      not\n      and\n      swap1\n      dup4\n      iszero\n      iszero\n      mul\n      or\n      swap1\n      sstore\n      pop\n        /* \"Inbox.sol\":7774:7779  value */\n      dup1\n        /* \"Inbox.sol\":7762:7771  lastRePay */\n      0x16\n        /* \"Inbox.sol\":7762:7779  lastRePay = value */\n      dup2\n      swap1\n      sstore\n      pop\n        /* \"Inbox.sol\":7794:7815  fixPercent(myPercent) */\n      tag_302\n        /* \"Inbox.sol\":7805:7814  myPercent */\n      dup4\n        /* \"Inbox.sol\":7794:7804  fixPercent */\n      tag_303\n        /* \"Inbox.sol\":7794:7815  fixPercent(myPercent) */\n      jump\t// in\n    tag_302:\n        /* \"Inbox.sol\":7830:7844  numOfInvestors */\n      0x0b\n      0x00\n        /* \"Inbox.sol\":7830:7846  numOfInvestors-- */\n      dup2\n      sload\n      dup1\n      swap3\n      swap2\n      swap1\n      tag_304\n      swap1\n      tag_305\n      jump\t// in\n    tag_304:\n      swap2\n      swap1\n      pop\n      sstore\n      pop\n        /* \"Inbox.sol\":7868:7872  true */\n      0x01\n        /* \"Inbox.sol\":7861:7872  return true */\n      swap4\n      pop\n      pop\n      pop\n      pop\n      jump(tag_291)\n        /* \"Inbox.sol\":7563:7929  if (value <= address(this).balance) {... */\n    tag_299:\n        /* \"Inbox.sol\":7912:7917  false */\n      0x00\n        /* \"Inbox.sol\":7905:7917  return false */\n      swap4\n      pop\n      pop\n      pop\n      pop\n        /* \"Inbox.sol\":348:349  _ */\n    tag_291:\n        /* \"Inbox.sol\":6960:7936  function leave_contract(... */\n      swap3\n      swap2\n      pop\n      pop\n      jump\t// out\n        /* \"Inbox.sol\":3163:3487  function join() public payable JoinPeriod {... */\n    tag_152:\n        /* \"Inbox.sol\":416:421  false */\n      0x00\n        /* \"Inbox.sol\":406:421  canBuy == false */\n      iszero\n      iszero\n        /* \"Inbox.sol\":406:412  canBuy */\n      0x13\n      0x00\n      swap1\n      sload\n      swap1\n      0x0100\n      exp\n      swap1\n      div\n      0xff\n      and\n        /* \"Inbox.sol\":406:421  canBuy == false */\n      iszero\n      iszero\n      eq\n        /* \"Inbox.sol\":398:422  require(canBuy == false) */\n      tag_308\n      jumpi\n      0x00\n      dup1\n      revert\n    tag_308:\n        /* \"Inbox.sol\":3216:3229  uint myInvest */\n      0x00\n        /* \"Inbox.sol\":3232:3242  Investment */\n      0x0c\n        /* \"Inbox.sol\":3232:3254  Investment[msg.sender] */\n      0x00\n        /* \"Inbox.sol\":3243:3253  msg.sender */\n      caller\n        /* \"Inbox.sol\":3232:3254  Investment[msg.sender] */\n      0xffffffffffffffffffffffffffffffffffffffff\n      and\n      0xffffffffffffffffffffffffffffffffffffffff\n      and\n      dup2\n      mstore\n      0x20\n      add\n      swap1\n      dup2\n      mstore\n      0x20\n      add\n      0x00\n      keccak256\n      sload\n        /* \"Inbox.sol\":3216:3254  uint myInvest = Investment[msg.sender] */\n      swap1\n      pop\n        /* \"Inbox.sol\":3281:3282  0 */\n      0x00\n        /* \"Inbox.sol\":3269:3277  myInvest */\n      dup2\n        /* \"Inbox.sol\":3269:3282  myInvest == 0 */\n      sub\n        /* \"Inbox.sol\":3265:3424  if (myInvest == 0) {... */\n      tag_310\n      jumpi\n        /* \"Inbox.sol\":3320:3339  minimumContribution */\n      sload(0x0f)\n        /* \"Inbox.sol\":3307:3316  msg.value */\n      callvalue\n        /* \"Inbox.sol\":3307:3339  msg.value >= minimumContribution */\n      lt\n      iszero\n        /* \"Inbox.sol\":3299:3340  require(msg.value >= minimumContribution) */\n      tag_311\n      jumpi\n      0x00\n      dup1\n      revert\n    tag_311:\n        /* \"Inbox.sol\":3355:3364  Investors */\n      0x0a\n        /* \"Inbox.sol\":3370:3380  msg.sender */\n      caller\n        /* \"Inbox.sol\":3355:3381  Investors.push(msg.sender) */\n      swap1\n      dup1\n      0x01\n      dup2\n      sload\n      add\n      dup1\n      dup3\n      sstore\n      dup1\n      swap2\n      pop\n      pop\n      0x01\n      swap1\n      sub\n      swap1\n      0x00\n      mstore\n      keccak256(0x00, 0x20)\n      add\n      0x00\n      swap1\n      swap2\n      swap1\n      swap2\n      swap1\n      swap2\n      0x0100\n      exp\n      dup2\n      sload\n      dup2\n      0xffffffffffffffffffffffffffffffffffffffff\n      mul\n      not\n      and\n      swap1\n      dup4\n      0xffffffffffffffffffffffffffffffffffffffff\n      and\n      mul\n      or\n      swap1\n      sstore\n      pop\n        /* \"Inbox.sol\":3396:3410  numOfInvestors */\n      0x0b\n      0x00\n        /* \"Inbox.sol\":3396:3412  numOfInvestors++ */\n      dup2\n      sload\n      dup1\n      swap3\n      swap2\n      swap1\n      tag_313\n      swap1\n      tag_212\n      jump\t// in\n    tag_313:\n      swap2\n      swap1\n      pop\n      sstore\n      pop\n        /* \"Inbox.sol\":3265:3424  if (myInvest == 0) {... */\n    tag_310:\n        /* \"Inbox.sol\":3470:3479  msg.value */\n      callvalue\n        /* \"Inbox.sol\":3459:3467  myInvest */\n      dup2\n        /* \"Inbox.sol\":3459:3479  myInvest + msg.value */\n      tag_314\n      swap2\n      swap1\n      tag_285\n      jump\t// in\n    tag_314:\n        /* \"Inbox.sol\":3434:3444  Investment */\n      0x0c\n        /* \"Inbox.sol\":3434:3456  Investment[msg.sender] */\n      0x00\n        /* \"Inbox.sol\":3445:3455  msg.sender */\n      caller\n        /* \"Inbox.sol\":3434:3456  Investment[msg.sender] */\n      0xffffffffffffffffffffffffffffffffffffffff\n      and\n      0xffffffffffffffffffffffffffffffffffffffff\n      and\n      dup2\n      mstore\n      0x20\n      add\n      swap1\n      dup2\n      mstore\n      0x20\n      add\n      0x00\n      keccak256\n        /* \"Inbox.sol\":3434:3479  Investment[msg.sender] = myInvest + msg.value */\n      dup2\n      swap1\n      sstore\n      pop\n        /* \"Inbox.sol\":3205:3487  {... */\n      pop\n        /* \"Inbox.sol\":3163:3487  function join() public payable JoinPeriod {... */\n      jump\t// out\n        /* \"Inbox.sol\":1557:1599  mapping(address => uint) public Investment */\n    tag_156:\n      mstore(0x20, 0x0c)\n      dup1\n      0x00\n      mstore\n      keccak256(0x00, 0x40)\n      0x00\n      swap2\n      pop\n      swap1\n      pop\n      sload\n      dup2\n      jump\t// out\n        /* \"Inbox.sol\":6289:6581  function approveRequest(uint index) public onlyStakeholders {... */\n    tag_161:\n        /* \"Inbox.sol\":226:238  Stakeholders */\n      0x07\n        /* \"Inbox.sol\":226:250  Stakeholders[msg.sender] */\n      0x00\n        /* \"Inbox.sol\":239:249  msg.sender */\n      caller\n        /* \"Inbox.sol\":226:250  Stakeholders[msg.sender] */\n      0xffffffffffffffffffffffffffffffffffffffff\n      and\n      0xffffffffffffffffffffffffffffffffffffffff\n      and\n      dup2\n      mstore\n      0x20\n      add\n      swap1\n      dup2\n      mstore\n      0x20\n      add\n      0x00\n      keccak256\n      0x00\n      swap1\n      sload\n      swap1\n      0x0100\n      exp\n      swap1\n      div\n      0xff\n      and\n        /* \"Inbox.sol\":218:251  require(Stakeholders[msg.sender]) */\n      tag_316\n      jumpi\n      0x00\n      dup1\n      revert\n    tag_316:\n        /* \"Inbox.sol\":6400:6423  Request storage request */\n      0x00\n        /* \"Inbox.sol\":6426:6435  myRequsts */\n      0x14\n        /* \"Inbox.sol\":6436:6441  index */\n      dup3\n        /* \"Inbox.sol\":6426:6442  myRequsts[index] */\n      dup2\n      sload\n      dup2\n      lt\n      tag_318\n      jumpi\n      tag_319\n      tag_196\n      jump\t// in\n    tag_319:\n    tag_318:\n      swap1\n      0x00\n      mstore\n      keccak256(0x00, 0x20)\n      swap1\n      0x06\n      mul\n      add\n        /* \"Inbox.sol\":6400:6442  Request storage request = myRequsts[index] */\n      swap1\n      pop\n        /* \"Inbox.sol\":6462:6469  request */\n      dup1\n        /* \"Inbox.sol\":6462:6479  request.approvals */\n      0x05\n      add\n        /* \"Inbox.sol\":6462:6491  request.approvals[msg.sender] */\n      0x00\n        /* \"Inbox.sol\":6480:6490  msg.sender */\n      caller\n        /* \"Inbox.sol\":6462:6491  request.approvals[msg.sender] */\n      0xffffffffffffffffffffffffffffffffffffffff\n      and\n      0xffffffffffffffffffffffffffffffffffffffff\n      and\n      dup2\n      mstore\n      0x20\n      add\n      swap1\n      dup2\n      mstore\n      0x20\n      add\n      0x00\n      keccak256\n      0x00\n      swap1\n      sload\n      swap1\n      0x0100\n      exp\n      swap1\n      div\n      0xff\n      and\n        /* \"Inbox.sol\":6461:6491  !request.approvals[msg.sender] */\n      iszero\n        /* \"Inbox.sol\":6453:6492  require(!request.approvals[msg.sender]) */\n      tag_321\n      jumpi\n      0x00\n      dup1\n      revert\n    tag_321:\n        /* \"Inbox.sol\":6535:6539  true */\n      0x01\n        /* \"Inbox.sol\":6503:6510  request */\n      dup2\n        /* \"Inbox.sol\":6503:6520  request.approvals */\n      0x05\n      add\n        /* \"Inbox.sol\":6503:6532  request.approvals[msg.sender] */\n      0x00\n        /* \"Inbox.sol\":6521:6531  msg.sender */\n      caller\n        /* \"Inbox.sol\":6503:6532  request.approvals[msg.sender] */\n      0xffffffffffffffffffffffffffffffffffffffff\n      and\n      0xffffffffffffffffffffffffffffffffffffffff\n      and\n      dup2\n      mstore\n      0x20\n      add\n      swap1\n      dup2\n      mstore\n      0x20\n      add\n      0x00\n      keccak256\n      0x00\n        /* \"Inbox.sol\":6503:6539  request.approvals[msg.sender] = true */\n      0x0100\n      exp\n      dup2\n      sload\n      dup2\n      0xff\n      mul\n      not\n      and\n      swap1\n      dup4\n      iszero\n      iszero\n      mul\n      or\n      swap1\n      sstore\n      pop\n        /* \"Inbox.sol\":6550:6557  request */\n      dup1\n        /* \"Inbox.sol\":6550:6571  request.approvalCount */\n      0x04\n      add\n      0x00\n        /* \"Inbox.sol\":6550:6573  request.approvalCount++ */\n      dup2\n      sload\n      dup1\n      swap3\n      swap2\n      swap1\n      tag_322\n      swap1\n      tag_212\n      jump\t// in\n    tag_322:\n      swap2\n      swap1\n      pop\n      sstore\n      pop\n        /* \"Inbox.sol\":6349:6581  {... */\n      pop\n        /* \"Inbox.sol\":6289:6581  function approveRequest(uint index) public onlyStakeholders {... */\n      pop\n      jump\t// out\n        /* \"Inbox.sol\":2044:2065  uint public lastRePay */\n    tag_164:\n      sload(0x16)\n      dup2\n      jump\t// out\n        /* \"Inbox.sol\":1306:1325  address public site */\n    tag_168:\n      0x06\n      0x00\n      swap1\n      sload\n      swap1\n      0x0100\n      exp\n      swap1\n      div\n      0xffffffffffffffffffffffffffffffffffffffff\n      and\n      dup2\n      jump\t// out\n        /* \"Inbox.sol\":1964:1990  Request[] public myRequsts */\n    tag_173:\n      0x14\n      dup2\n      dup2\n      sload\n      dup2\n      lt\n      tag_323\n      jumpi\n      0x00\n      dup1\n      revert\n    tag_323:\n      swap1\n      0x00\n      mstore\n      keccak256(0x00, 0x20)\n      swap1\n      0x06\n      mul\n      add\n      0x00\n      swap2\n      pop\n      swap1\n      pop\n      dup1\n      0x00\n      add\n      dup1\n      sload\n      tag_325\n      swap1\n      tag_199\n      jump\t// in\n    tag_325:\n      dup1\n      0x1f\n      add\n      0x20\n      dup1\n      swap2\n      div\n      mul\n      0x20\n      add\n      mload(0x40)\n      swap1\n      dup2\n      add\n      0x40\n      mstore\n      dup1\n      swap3\n      swap2\n      swap1\n      dup2\n      dup2\n      mstore\n      0x20\n      add\n      dup3\n      dup1\n      sload\n      tag_326\n      swap1\n      tag_199\n      jump\t// in\n    tag_326:\n      dup1\n      iszero\n      tag_327\n      jumpi\n      dup1\n      0x1f\n      lt\n      tag_328\n      jumpi\n      0x0100\n      dup1\n      dup4\n      sload\n      div\n      mul\n      dup4\n      mstore\n      swap2\n      0x20\n      add\n      swap2\n      jump(tag_327)\n    tag_328:\n      dup3\n      add\n      swap2\n      swap1\n      0x00\n      mstore\n      keccak256(0x00, 0x20)\n      swap1\n    tag_329:\n      dup2\n      sload\n      dup2\n      mstore\n      swap1\n      0x01\n      add\n      swap1\n      0x20\n      add\n      dup1\n      dup4\n      gt\n      tag_329\n      jumpi\n      dup3\n      swap1\n      sub\n      0x1f\n      and\n      dup3\n      add\n      swap2\n    tag_327:\n      pop\n      pop\n      pop\n      pop\n      pop\n      swap1\n      dup1\n      0x01\n      add\n      dup1\n      sload\n      tag_330\n      swap1\n      tag_199\n      jump\t// in\n    tag_330:\n      dup1\n      0x1f\n      add\n      0x20\n      dup1\n      swap2\n      div\n      mul\n      0x20\n      add\n      mload(0x40)\n      swap1\n      dup2\n      add\n      0x40\n      mstore\n      dup1\n      swap3\n      swap2\n      swap1\n      dup2\n      dup2\n      mstore\n      0x20\n      add\n      dup3\n      dup1\n      sload\n      tag_331\n      swap1\n      tag_199\n      jump\t// in\n    tag_331:\n      dup1\n      iszero\n      tag_332\n      jumpi\n      dup1\n      0x1f\n      lt\n      tag_333\n      jumpi\n      0x0100\n      dup1\n      dup4\n      sload\n      div\n      mul\n      dup4\n      mstore\n      swap2\n      0x20\n      add\n      swap2\n      jump(tag_332)\n    tag_333:\n      dup3\n      add\n      swap2\n      swap1\n      0x00\n      mstore\n      keccak256(0x00, 0x20)\n      swap1\n    tag_334:\n      dup2\n      sload\n      dup2\n      mstore\n      swap1\n      0x01\n      add\n      swap1\n      0x20\n      add\n      dup1\n      dup4\n      gt\n      tag_334\n      jumpi\n      dup3\n      swap1\n      sub\n      0x1f\n      and\n      dup3\n      add\n      swap2\n    tag_332:\n      pop\n      pop\n      pop\n      pop\n      pop\n      swap1\n      dup1\n      0x02\n      add\n      sload\n      swap1\n      dup1\n      0x03\n      add\n      0x00\n      swap1\n      sload\n      swap1\n      0x0100\n      exp\n      swap1\n      div\n      0xff\n      and\n      swap1\n      dup1\n      0x04\n      add\n      sload\n      swap1\n      pop\n      dup6\n      jump\t// out\n        /* \"Inbox.sol\":1489:1515  address[] public Investors */\n    tag_179:\n      0x0a\n      dup2\n      dup2\n      sload\n      dup2\n      lt\n      tag_335\n      jumpi\n      0x00\n      dup1\n      revert\n    tag_335:\n      swap1\n      0x00\n      mstore\n      keccak256(0x00, 0x20)\n      add\n      0x00\n      swap2\n      pop\n      sload\n      swap1\n      0x0100\n      exp\n      swap1\n      div\n      0xffffffffffffffffffffffffffffffffffffffff\n      and\n      dup2\n      jump\t// out\n        /* \"Inbox.sol\":1806:1830  uint256 public timeStart */\n    tag_183:\n      sload(0x10)\n      dup2\n      jump\t// out\n        /* \"Inbox.sol\":1869:1891  uint256 public timeEnd */\n    tag_187:\n      sload(0x12)\n      dup2\n      jump\t// out\n        /* \"Inbox.sol\":1898:1919  bool    public canBuy */\n    tag_191:\n      0x13\n      0x00\n      swap1\n      sload\n      swap1\n      0x0100\n      exp\n      swap1\n      div\n      0xff\n      and\n      dup2\n      jump\t// out\n        /* \"Inbox.sol\":4165:5722  function setStakeholders() private {... */\n    tag_243:\n        /* \"Inbox.sol\":4211:4240  address[] memory address_temp */\n      0x00\n        /* \"Inbox.sol\":4257:4272  numStakeholders */\n      sload(0x03)\n        /* \"Inbox.sol\":4243:4273  new address[](numStakeholders) */\n      0xffffffffffffffff\n      dup2\n      gt\n      iszero\n      tag_338\n      jumpi\n      tag_339\n      tag_340\n      jump\t// in\n    tag_339:\n    tag_338:\n      mload(0x40)\n      swap1\n      dup1\n      dup3\n      mstore\n      dup1\n      0x20\n      mul\n      0x20\n      add\n      dup3\n      add\n      0x40\n      mstore\n      dup1\n      iszero\n      tag_341\n      jumpi\n      dup2\n      0x20\n      add\n      0x20\n      dup3\n      mul\n      dup1\n      calldatasize\n      dup4\n      calldatacopy\n      dup1\n      dup3\n      add\n      swap2\n      pop\n      pop\n      swap1\n      pop\n    tag_341:\n      pop\n        /* \"Inbox.sol\":4211:4273  address[] memory address_temp = new address[](numStakeholders) */\n      swap1\n      pop\n        /* \"Inbox.sol\":4284:4308  uint[] memory value_temp */\n      0x00\n        /* \"Inbox.sol\":4322:4337  numStakeholders */\n      sload(0x03)\n        /* \"Inbox.sol\":4311:4338  new uint[](numStakeholders) */\n      0xffffffffffffffff\n      dup2\n      gt\n      iszero\n      tag_342\n      jumpi\n      tag_343\n      tag_340\n      jump\t// in\n    tag_343:\n    tag_342:\n      mload(0x40)\n      swap1\n      dup1\n      dup3\n      mstore\n      dup1\n      0x20\n      mul\n      0x20\n      add\n      dup3\n      add\n      0x40\n      mstore\n      dup1\n      iszero\n      tag_344\n      jumpi\n      dup2\n      0x20\n      add\n      0x20\n      dup3\n      mul\n      dup1\n      calldatasize\n      dup4\n      calldatacopy\n      dup1\n      dup3\n      add\n      swap2\n      pop\n      pop\n      swap1\n      pop\n    tag_344:\n      pop\n        /* \"Inbox.sol\":4284:4338  uint[] memory value_temp = new uint[](numStakeholders) */\n      swap1\n      pop\n        /* \"Inbox.sol\":4349:4357  uint min */\n      0x00\n        /* \"Inbox.sol\":4368:4376  uint pos */\n      dup1\n        /* \"Inbox.sol\":4379:4380  0 */\n      0x00\n        /* \"Inbox.sol\":4368:4380  uint pos = 0 */\n      swap1\n      pop\n        /* \"Inbox.sol\":4391:4404  uint temp_val */\n      0x00\n        /* \"Inbox.sol\":4415:4427  address temp */\n      dup1\n        /* \"Inbox.sol\":4430:4439  Investors */\n      0x0a\n        /* \"Inbox.sol\":4440:4441  0 */\n      0x00\n        /* \"Inbox.sol\":4430:4442  Investors[0] */\n      dup2\n      sload\n      dup2\n      lt\n      tag_345\n      jumpi\n      tag_346\n      tag_196\n      jump\t// in\n    tag_346:\n    tag_345:\n      swap1\n      0x00\n      mstore\n      keccak256(0x00, 0x20)\n      add\n      0x00\n      swap1\n      sload\n      swap1\n      0x0100\n      exp\n      swap1\n      div\n      0xffffffffffffffffffffffffffffffffffffffff\n      and\n        /* \"Inbox.sol\":4415:4442  address temp = Investors[0] */\n      swap1\n      pop\n        /* \"Inbox.sol\":4471:4475  temp */\n      dup1\n        /* \"Inbox.sol\":4453:4465  address_temp */\n      dup7\n        /* \"Inbox.sol\":4466:4467  0 */\n      0x00\n        /* \"Inbox.sol\":4453:4468  address_temp[0] */\n      dup2\n      mload\n      dup2\n      lt\n      tag_348\n      jumpi\n      tag_349\n      tag_196\n      jump\t// in\n    tag_349:\n    tag_348:\n      0x20\n      mul\n      0x20\n      add\n      add\n        /* \"Inbox.sol\":4453:4475  address_temp[0] = temp */\n      swap1\n      0xffffffffffffffffffffffffffffffffffffffff\n      and\n      swap1\n      dup2\n      0xffffffffffffffffffffffffffffffffffffffff\n      and\n      dup2\n      mstore\n      pop\n      pop\n        /* \"Inbox.sol\":4492:4502  Investment */\n      0x0c\n        /* \"Inbox.sol\":4492:4508  Investment[temp] */\n      0x00\n        /* \"Inbox.sol\":4503:4507  temp */\n      dup3\n        /* \"Inbox.sol\":4492:4508  Investment[temp] */\n      0xffffffffffffffffffffffffffffffffffffffff\n      and\n      0xffffffffffffffffffffffffffffffffffffffff\n      and\n      dup2\n      mstore\n      0x20\n      add\n      swap1\n      dup2\n      mstore\n      0x20\n      add\n      0x00\n      keccak256\n      sload\n        /* \"Inbox.sol\":4486:4508  min = Investment[temp] */\n      swap4\n      pop\n        /* \"Inbox.sol\":4535:4538  min */\n      dup4\n        /* \"Inbox.sol\":4519:4529  value_temp */\n      dup6\n        /* \"Inbox.sol\":4530:4531  0 */\n      0x00\n        /* \"Inbox.sol\":4519:4532  value_temp[0] */\n      dup2\n      mload\n      dup2\n      lt\n      tag_350\n      jumpi\n      tag_351\n      tag_196\n      jump\t// in\n    tag_351:\n    tag_350:\n      0x20\n      mul\n      0x20\n      add\n      add\n        /* \"Inbox.sol\":4519:4538  value_temp[0] = min */\n      dup2\n      dup2\n      mstore\n      pop\n      pop\n        /* \"Inbox.sol\":4554:4560  uint i */\n      0x00\n        /* \"Inbox.sol\":4563:4564  1 */\n      0x01\n        /* \"Inbox.sol\":4554:4564  uint i = 1 */\n      swap1\n      pop\n        /* \"Inbox.sol\":4549:5002  for (uint i = 1; i < numStakeholders; i++) {... */\n    tag_352:\n        /* \"Inbox.sol\":4570:4585  numStakeholders */\n      sload(0x03)\n        /* \"Inbox.sol\":4566:4567  i */\n      dup2\n        /* \"Inbox.sol\":4566:4585  i < numStakeholders */\n      lt\n        /* \"Inbox.sol\":4549:5002  for (uint i = 1; i < numStakeholders; i++) {... */\n      iszero\n      tag_353\n      jumpi\n        /* \"Inbox.sol\":4673:4682  Investors */\n      0x0a\n        /* \"Inbox.sol\":4683:4684  i */\n      dup2\n        /* \"Inbox.sol\":4673:4685  Investors[i] */\n      dup2\n      sload\n      dup2\n      lt\n      tag_355\n      jumpi\n      tag_356\n      tag_196\n      jump\t// in\n    tag_356:\n    tag_355:\n      swap1\n      0x00\n      mstore\n      keccak256(0x00, 0x20)\n      add\n      0x00\n      swap1\n      sload\n      swap1\n      0x0100\n      exp\n      swap1\n      div\n      0xffffffffffffffffffffffffffffffffffffffff\n      and\n        /* \"Inbox.sol\":4666:4685  temp = Investors[i] */\n      swap2\n      pop\n        /* \"Inbox.sol\":4732:4736  temp */\n      dup2\n        /* \"Inbox.sol\":4714:4726  address_temp */\n      dup8\n        /* \"Inbox.sol\":4727:4728  i */\n      dup3\n        /* \"Inbox.sol\":4714:4729  address_temp[i] */\n      dup2\n      mload\n      dup2\n      lt\n      tag_358\n      jumpi\n      tag_359\n      tag_196\n      jump\t// in\n    tag_359:\n    tag_358:\n      0x20\n      mul\n      0x20\n      add\n      add\n        /* \"Inbox.sol\":4714:4736  address_temp[i] = temp */\n      swap1\n      0xffffffffffffffffffffffffffffffffffffffff\n      and\n      swap1\n      dup2\n      0xffffffffffffffffffffffffffffffffffffffff\n      and\n      dup2\n      mstore\n      pop\n      pop\n        /* \"Inbox.sol\":4786:4796  Investment */\n      0x0c\n        /* \"Inbox.sol\":4786:4802  Investment[temp] */\n      0x00\n        /* \"Inbox.sol\":4797:4801  temp */\n      dup4\n        /* \"Inbox.sol\":4786:4802  Investment[temp] */\n      0xffffffffffffffffffffffffffffffffffffffff\n      and\n      0xffffffffffffffffffffffffffffffffffffffff\n      and\n      dup2\n      mstore\n      0x20\n      add\n      swap1\n      dup2\n      mstore\n      0x20\n      add\n      0x00\n      keccak256\n      sload\n        /* \"Inbox.sol\":4775:4802  temp_val = Investment[temp] */\n      swap3\n      pop\n        /* \"Inbox.sol\":4857:4865  temp_val */\n      dup3\n        /* \"Inbox.sol\":4841:4851  value_temp */\n      dup7\n        /* \"Inbox.sol\":4852:4853  i */\n      dup3\n        /* \"Inbox.sol\":4841:4854  value_temp[i] */\n      dup2\n      mload\n      dup2\n      lt\n      tag_360\n      jumpi\n      tag_361\n      tag_196\n      jump\t// in\n    tag_361:\n    tag_360:\n      0x20\n      mul\n      0x20\n      add\n      add\n        /* \"Inbox.sol\":4841:4865  value_temp[i] = temp_val */\n      dup2\n      dup2\n      mstore\n      pop\n      pop\n        /* \"Inbox.sol\":4906:4914  temp_val */\n      dup3\n        /* \"Inbox.sol\":4900:4903  min */\n      dup6\n        /* \"Inbox.sol\":4900:4914  min > temp_val */\n      gt\n        /* \"Inbox.sol\":4896:4991  if (min > temp_val) {... */\n      iszero\n      tag_362\n      jumpi\n        /* \"Inbox.sol\":4941:4949  temp_val */\n      dup3\n        /* \"Inbox.sol\":4935:4949  min = temp_val */\n      swap5\n      pop\n        /* \"Inbox.sol\":4974:4975  i */\n      dup1\n        /* \"Inbox.sol\":4968:4975  pos = i */\n      swap4\n      pop\n        /* \"Inbox.sol\":4896:4991  if (min > temp_val) {... */\n    tag_362:\n        /* \"Inbox.sol\":4587:4590  i++ */\n      dup1\n      dup1\n      tag_363\n      swap1\n      tag_212\n      jump\t// in\n    tag_363:\n      swap2\n      pop\n      pop\n        /* \"Inbox.sol\":4549:5002  for (uint i = 1; i < numStakeholders; i++) {... */\n      jump(tag_352)\n    tag_353:\n      pop\n        /* \"Inbox.sol\":5019:5025  uint i */\n      0x00\n        /* \"Inbox.sol\":5028:5043  numStakeholders */\n      sload(0x03)\n        /* \"Inbox.sol\":5019:5043  uint i = numStakeholders */\n      swap1\n      pop\n        /* \"Inbox.sol\":5014:5597  for (uint i = numStakeholders; i < Investors.length; i++) {... */\n    tag_364:\n        /* \"Inbox.sol\":5049:5058  Investors */\n      0x0a\n        /* \"Inbox.sol\":5049:5065  Investors.length */\n      dup1\n      sload\n      swap1\n      pop\n        /* \"Inbox.sol\":5045:5046  i */\n      dup2\n        /* \"Inbox.sol\":5045:5065  i < Investors.length */\n      lt\n        /* \"Inbox.sol\":5014:5597  for (uint i = numStakeholders; i < Investors.length; i++) {... */\n      iszero\n      tag_365\n      jumpi\n        /* \"Inbox.sol\":5094:5103  Investors */\n      0x0a\n        /* \"Inbox.sol\":5104:5105  i */\n      dup2\n        /* \"Inbox.sol\":5094:5106  Investors[i] */\n      dup2\n      sload\n      dup2\n      lt\n      tag_367\n      jumpi\n      tag_368\n      tag_196\n      jump\t// in\n    tag_368:\n    tag_367:\n      swap1\n      0x00\n      mstore\n      keccak256(0x00, 0x20)\n      add\n      0x00\n      swap1\n      sload\n      swap1\n      0x0100\n      exp\n      swap1\n      div\n      0xffffffffffffffffffffffffffffffffffffffff\n      and\n        /* \"Inbox.sol\":5087:5106  temp = Investors[i] */\n      swap2\n      pop\n        /* \"Inbox.sol\":5147:5157  Investment */\n      0x0c\n        /* \"Inbox.sol\":5147:5163  Investment[temp] */\n      0x00\n        /* \"Inbox.sol\":5158:5162  temp */\n      dup4\n        /* \"Inbox.sol\":5147:5163  Investment[temp] */\n      0xffffffffffffffffffffffffffffffffffffffff\n      and\n      0xffffffffffffffffffffffffffffffffffffffff\n      and\n      dup2\n      mstore\n      0x20\n      add\n      swap1\n      dup2\n      mstore\n      0x20\n      add\n      0x00\n      keccak256\n      sload\n        /* \"Inbox.sol\":5136:5163  temp_val = Investment[temp] */\n      swap3\n      pop\n        /* \"Inbox.sol\":5212:5215  min */\n      dup5\n        /* \"Inbox.sol\":5201:5209  temp_val */\n      dup4\n        /* \"Inbox.sol\":5201:5215  temp_val > min */\n      gt\n        /* \"Inbox.sol\":5197:5586  if (temp_val > min) {... */\n      iszero\n      tag_370\n      jumpi\n        /* \"Inbox.sol\":5256:5260  temp */\n      dup2\n        /* \"Inbox.sol\":5236:5248  address_temp */\n      dup8\n        /* \"Inbox.sol\":5249:5252  pos */\n      dup6\n        /* \"Inbox.sol\":5236:5253  address_temp[pos] */\n      dup2\n      mload\n      dup2\n      lt\n      tag_371\n      jumpi\n      tag_372\n      tag_196\n      jump\t// in\n    tag_372:\n    tag_371:\n      0x20\n      mul\n      0x20\n      add\n      add\n        /* \"Inbox.sol\":5236:5260  address_temp[pos] = temp */\n      swap1\n      0xffffffffffffffffffffffffffffffffffffffff\n      and\n      swap1\n      dup2\n      0xffffffffffffffffffffffffffffffffffffffff\n      and\n      dup2\n      mstore\n      pop\n      pop\n        /* \"Inbox.sol\":5297:5305  temp_val */\n      dup3\n        /* \"Inbox.sol\":5279:5289  value_temp */\n      dup7\n        /* \"Inbox.sol\":5290:5293  pos */\n      dup6\n        /* \"Inbox.sol\":5279:5294  value_temp[pos] */\n      dup2\n      mload\n      dup2\n      lt\n      tag_373\n      jumpi\n      tag_374\n      tag_196\n      jump\t// in\n    tag_374:\n    tag_373:\n      0x20\n      mul\n      0x20\n      add\n      add\n        /* \"Inbox.sol\":5279:5305  value_temp[pos] = temp_val */\n      dup2\n      dup2\n      mstore\n      pop\n      pop\n        /* \"Inbox.sol\":5330:5338  temp_val */\n      dup3\n        /* \"Inbox.sol\":5324:5338  min = temp_val */\n      swap5\n      pop\n        /* \"Inbox.sol\":5362:5368  uint j */\n      0x00\n        /* \"Inbox.sol\":5357:5571  for (uint j = 0; j < numStakeholders; j++) {... */\n    tag_375:\n        /* \"Inbox.sol\":5378:5393  numStakeholders */\n      sload(0x03)\n        /* \"Inbox.sol\":5374:5375  j */\n      dup2\n        /* \"Inbox.sol\":5374:5393  j < numStakeholders */\n      lt\n        /* \"Inbox.sol\":5357:5571  for (uint j = 0; j < numStakeholders; j++) {... */\n      iszero\n      tag_376\n      jumpi\n        /* \"Inbox.sol\":5443:5446  min */\n      dup6\n        /* \"Inbox.sol\":5427:5437  value_temp */\n      dup8\n        /* \"Inbox.sol\":5438:5439  j */\n      dup3\n        /* \"Inbox.sol\":5427:5440  value_temp[j] */\n      dup2\n      mload\n      dup2\n      lt\n      tag_378\n      jumpi\n      tag_379\n      tag_196\n      jump\t// in\n    tag_379:\n    tag_378:\n      0x20\n      mul\n      0x20\n      add\n      add\n      mload\n        /* \"Inbox.sol\":5427:5446  value_temp[j] < min */\n      lt\n        /* \"Inbox.sol\":5423:5552  if (value_temp[j] < min) {... */\n      iszero\n      tag_380\n      jumpi\n        /* \"Inbox.sol\":5481:5491  value_temp */\n      dup7\n        /* \"Inbox.sol\":5492:5493  j */\n      dup2\n        /* \"Inbox.sol\":5481:5494  value_temp[j] */\n      dup2\n      mload\n      dup2\n      lt\n      tag_381\n      jumpi\n      tag_382\n      tag_196\n      jump\t// in\n    tag_382:\n    tag_381:\n      0x20\n      mul\n      0x20\n      add\n      add\n      mload\n        /* \"Inbox.sol\":5475:5494  min = value_temp[j] */\n      swap6\n      pop\n        /* \"Inbox.sol\":5527:5528  j */\n      dup1\n        /* \"Inbox.sol\":5521:5528  pos = j */\n      swap5\n      pop\n        /* \"Inbox.sol\":5423:5552  if (value_temp[j] < min) {... */\n    tag_380:\n        /* \"Inbox.sol\":5395:5398  j++ */\n      dup1\n      dup1\n      tag_383\n      swap1\n      tag_212\n      jump\t// in\n    tag_383:\n      swap2\n      pop\n      pop\n        /* \"Inbox.sol\":5357:5571  for (uint j = 0; j < numStakeholders; j++) {... */\n      jump(tag_375)\n    tag_376:\n      pop\n        /* \"Inbox.sol\":5197:5586  if (temp_val > min) {... */\n    tag_370:\n        /* \"Inbox.sol\":5067:5070  i++ */\n      dup1\n      dup1\n      tag_384\n      swap1\n      tag_212\n      jump\t// in\n    tag_384:\n      swap2\n      pop\n      pop\n        /* \"Inbox.sol\":5014:5597  for (uint i = numStakeholders; i < Investors.length; i++) {... */\n      jump(tag_364)\n    tag_365:\n      pop\n        /* \"Inbox.sol\":5614:5620  uint i */\n      0x00\n        /* \"Inbox.sol\":5609:5715  for (uint i = 0; i < numStakeholders; i++) {... */\n    tag_385:\n        /* \"Inbox.sol\":5630:5645  numStakeholders */\n      sload(0x03)\n        /* \"Inbox.sol\":5626:5627  i */\n      dup2\n        /* \"Inbox.sol\":5626:5645  i < numStakeholders */\n      lt\n        /* \"Inbox.sol\":5609:5715  for (uint i = 0; i < numStakeholders; i++) {... */\n      iszero\n      tag_386\n      jumpi\n        /* \"Inbox.sol\":5699:5703  true */\n      0x01\n        /* \"Inbox.sol\":5667:5679  Stakeholders */\n      0x07\n        /* \"Inbox.sol\":5667:5696  Stakeholders[address_temp[i]] */\n      0x00\n        /* \"Inbox.sol\":5680:5692  address_temp */\n      dup10\n        /* \"Inbox.sol\":5693:5694  i */\n      dup5\n        /* \"Inbox.sol\":5680:5695  address_temp[i] */\n      dup2\n      mload\n      dup2\n      lt\n      tag_388\n      jumpi\n      tag_389\n      tag_196\n      jump\t// in\n    tag_389:\n    tag_388:\n      0x20\n      mul\n      0x20\n      add\n      add\n      mload\n        /* \"Inbox.sol\":5667:5696  Stakeholders[address_temp[i]] */\n      0xffffffffffffffffffffffffffffffffffffffff\n      and\n      0xffffffffffffffffffffffffffffffffffffffff\n      and\n      dup2\n      mstore\n      0x20\n      add\n      swap1\n      dup2\n      mstore\n      0x20\n      add\n      0x00\n      keccak256\n      0x00\n        /* \"Inbox.sol\":5667:5703  Stakeholders[address_temp[i]] = true */\n      0x0100\n      exp\n      dup2\n      sload\n      dup2\n      0xff\n      mul\n      not\n      and\n      swap1\n      dup4\n      iszero\n      iszero\n      mul\n      or\n      swap1\n      sstore\n      pop\n        /* \"Inbox.sol\":5647:5650  i++ */\n      dup1\n      dup1\n      tag_390\n      swap1\n      tag_212\n      jump\t// in\n    tag_390:\n      swap2\n      pop\n      pop\n        /* \"Inbox.sol\":5609:5715  for (uint i = 0; i < numStakeholders; i++) {... */\n      jump(tag_385)\n    tag_386:\n      pop\n        /* \"Inbox.sol\":4200:5722  {... */\n      pop\n      pop\n      pop\n      pop\n      pop\n      pop\n        /* \"Inbox.sol\":4165:5722  function setStakeholders() private {... */\n      jump\t// out\n        /* \"Inbox.sol\":7944:8335  function fixPercent(uint leftPercent) private {... */\n    tag_303:\n        /* \"Inbox.sol\":8001:8020  uint totalPercented */\n      0x00\n        /* \"Inbox.sol\":8030:8041  leftPercent */\n      dup2\n        /* \"Inbox.sol\":8023:8027  1000 */\n      0x03e8\n        /* \"Inbox.sol\":8023:8041  1000 - leftPercent */\n      tag_392\n      swap2\n      swap1\n      tag_215\n      jump\t// in\n    tag_392:\n        /* \"Inbox.sol\":8001:8041  uint totalPercented = 1000 - leftPercent */\n      swap1\n      pop\n        /* \"Inbox.sol\":8057:8063  uint i */\n      0x00\n        /* \"Inbox.sol\":8052:8328  for (uint i = 0; i < Investors.length; i++) {... */\n    tag_393:\n        /* \"Inbox.sol\":8073:8082  Investors */\n      0x0a\n        /* \"Inbox.sol\":8073:8089  Investors.length */\n      dup1\n      sload\n      swap1\n      pop\n        /* \"Inbox.sol\":8069:8070  i */\n      dup2\n        /* \"Inbox.sol\":8069:8089  i < Investors.length */\n      lt\n        /* \"Inbox.sol\":8052:8328  for (uint i = 0; i < Investors.length; i++) {... */\n      iszero\n      tag_394\n      jumpi\n        /* \"Inbox.sol\":8111:8123  address user */\n      0x00\n        /* \"Inbox.sol\":8126:8135  Investors */\n      0x0a\n        /* \"Inbox.sol\":8136:8137  i */\n      dup3\n        /* \"Inbox.sol\":8126:8138  Investors[i] */\n      dup2\n      sload\n      dup2\n      lt\n      tag_396\n      jumpi\n      tag_397\n      tag_196\n      jump\t// in\n    tag_397:\n    tag_396:\n      swap1\n      0x00\n      mstore\n      keccak256(0x00, 0x20)\n      add\n      0x00\n      swap1\n      sload\n      swap1\n      0x0100\n      exp\n      swap1\n      div\n      0xffffffffffffffffffffffffffffffffffffffff\n      and\n        /* \"Inbox.sol\":8111:8138  address user = Investors[i] */\n      swap1\n      pop\n        /* \"Inbox.sol\":8173:8178  false */\n      0x00\n        /* \"Inbox.sol\":8157:8178  lefted[user] == false */\n      iszero\n      iszero\n        /* \"Inbox.sol\":8157:8163  lefted */\n      0x0e\n        /* \"Inbox.sol\":8157:8169  lefted[user] */\n      0x00\n        /* \"Inbox.sol\":8164:8168  user */\n      dup4\n        /* \"Inbox.sol\":8157:8169  lefted[user] */\n      0xffffffffffffffffffffffffffffffffffffffff\n      and\n      0xffffffffffffffffffffffffffffffffffffffff\n      and\n      dup2\n      mstore\n      0x20\n      add\n      swap1\n      dup2\n      mstore\n      0x20\n      add\n      0x00\n      keccak256\n      0x00\n      swap1\n      sload\n      swap1\n      0x0100\n      exp\n      swap1\n      div\n      0xff\n      and\n        /* \"Inbox.sol\":8157:8178  lefted[user] == false */\n      iszero\n      iszero\n      sub\n        /* \"Inbox.sol\":8153:8317  if (lefted[user] == false) {... */\n      tag_399\n      jumpi\n        /* \"Inbox.sol\":8199:8210  uint newVal */\n      0x00\n        /* \"Inbox.sol\":8242:8256  totalPercented */\n      dup4\n        /* \"Inbox.sol\":8234:8238  1000 */\n      0x03e8\n        /* \"Inbox.sol\":8215:8225  ownPercent */\n      0x0d\n        /* \"Inbox.sol\":8215:8231  ownPercent[user] */\n      0x00\n        /* \"Inbox.sol\":8226:8230  user */\n      dup6\n        /* \"Inbox.sol\":8215:8231  ownPercent[user] */\n      0xffffffffffffffffffffffffffffffffffffffff\n      and\n      0xffffffffffffffffffffffffffffffffffffffff\n      and\n      dup2\n      mstore\n      0x20\n      add\n      swap1\n      dup2\n      mstore\n      0x20\n      add\n      0x00\n      keccak256\n      sload\n        /* \"Inbox.sol\":8215:8238  ownPercent[user] * 1000 */\n      tag_400\n      swap2\n      swap1\n      tag_217\n      jump\t// in\n    tag_400:\n        /* \"Inbox.sol\":8214:8256  (ownPercent[user] * 1000) / totalPercented */\n      tag_401\n      swap2\n      swap1\n      tag_219\n      jump\t// in\n    tag_401:\n        /* \"Inbox.sol\":8199:8257  uint newVal = ((ownPercent[user] * 1000) / totalPercented) */\n      swap1\n      pop\n        /* \"Inbox.sol\":8295:8301  newVal */\n      dup1\n        /* \"Inbox.sol\":8276:8286  ownPercent */\n      0x0d\n        /* \"Inbox.sol\":8276:8292  ownPercent[user] */\n      0x00\n        /* \"Inbox.sol\":8287:8291  user */\n      dup5\n        /* \"Inbox.sol\":8276:8292  ownPercent[user] */\n      0xffffffffffffffffffffffffffffffffffffffff\n      and\n      0xffffffffffffffffffffffffffffffffffffffff\n      and\n      dup2\n      mstore\n      0x20\n      add\n      swap1\n      dup2\n      mstore\n      0x20\n      add\n      0x00\n      keccak256\n        /* \"Inbox.sol\":8276:8301  ownPercent[user] = newVal */\n      dup2\n      swap1\n      sstore\n      pop\n        /* \"Inbox.sol\":8180:8317  {... */\n      pop\n        /* \"Inbox.sol\":8153:8317  if (lefted[user] == false) {... */\n    tag_399:\n        /* \"Inbox.sol\":8096:8328  {... */\n      pop\n        /* \"Inbox.sol\":8091:8094  i++ */\n      dup1\n      dup1\n      tag_402\n      swap1\n      tag_212\n      jump\t// in\n    tag_402:\n      swap2\n      pop\n      pop\n        /* \"Inbox.sol\":8052:8328  for (uint i = 0; i < Investors.length; i++) {... */\n      jump(tag_393)\n    tag_394:\n      pop\n        /* \"Inbox.sol\":7990:8335  {... */\n      pop\n        /* \"Inbox.sol\":7944:8335  function fixPercent(uint leftPercent) private {... */\n      pop\n      jump\t// out\n        /* \"#utility.yul\":7:82   */\n    tag_403:\n        /* \"#utility.yul\":40:46   */\n      0x00\n        /* \"#utility.yul\":73:75   */\n      0x40\n        /* \"#utility.yul\":67:76   */\n      mload\n        /* \"#utility.yul\":57:76   */\n      swap1\n      pop\n        /* \"#utility.yul\":7:82   */\n      swap1\n      jump\t// out\n        /* \"#utility.yul\":88:205   */\n    tag_404:\n        /* \"#utility.yul\":197:198   */\n      0x00\n        /* \"#utility.yul\":194:195   */\n      dup1\n        /* \"#utility.yul\":187:199   */\n      revert\n        /* \"#utility.yul\":211:328   */\n    tag_405:\n        /* \"#utility.yul\":320:321   */\n      0x00\n        /* \"#utility.yul\":317:318   */\n      dup1\n        /* \"#utility.yul\":310:322   */\n      revert\n        /* \"#utility.yul\":334:411   */\n    tag_406:\n        /* \"#utility.yul\":371:378   */\n      0x00\n        /* \"#utility.yul\":400:405   */\n      dup2\n        /* \"#utility.yul\":389:405   */\n      swap1\n      pop\n        /* \"#utility.yul\":334:411   */\n      swap2\n      swap1\n      pop\n      jump\t// out\n        /* \"#utility.yul\":417:539   */\n    tag_407:\n        /* \"#utility.yul\":490:514   */\n      tag_454\n        /* \"#utility.yul\":508:513   */\n      dup2\n        /* \"#utility.yul\":490:514   */\n      tag_406\n      jump\t// in\n    tag_454:\n        /* \"#utility.yul\":483:488   */\n      dup2\n        /* \"#utility.yul\":480:515   */\n      eq\n        /* \"#utility.yul\":470:533   */\n      tag_455\n      jumpi\n        /* \"#utility.yul\":529:530   */\n      0x00\n        /* \"#utility.yul\":526:527   */\n      dup1\n        /* \"#utility.yul\":519:531   */\n      revert\n        /* \"#utility.yul\":470:533   */\n    tag_455:\n        /* \"#utility.yul\":417:539   */\n      pop\n      jump\t// out\n        /* \"#utility.yul\":545:684   */\n    tag_408:\n        /* \"#utility.yul\":591:596   */\n      0x00\n        /* \"#utility.yul\":629:635   */\n      dup2\n        /* \"#utility.yul\":616:636   */\n      calldataload\n        /* \"#utility.yul\":607:636   */\n      swap1\n      pop\n        /* \"#utility.yul\":645:678   */\n      tag_457\n        /* \"#utility.yul\":672:677   */\n      dup2\n        /* \"#utility.yul\":645:678   */\n      tag_407\n      jump\t// in\n    tag_457:\n        /* \"#utility.yul\":545:684   */\n      swap3\n      swap2\n      pop\n      pop\n      jump\t// out\n        /* \"#utility.yul\":690:816   */\n    tag_409:\n        /* \"#utility.yul\":727:734   */\n      0x00\n        /* \"#utility.yul\":767:809   */\n      0xffffffffffffffffffffffffffffffffffffffff\n        /* \"#utility.yul\":760:765   */\n      dup3\n        /* \"#utility.yul\":756:810   */\n      and\n        /* \"#utility.yul\":745:810   */\n      swap1\n      pop\n        /* \"#utility.yul\":690:816   */\n      swap2\n      swap1\n      pop\n      jump\t// out\n        /* \"#utility.yul\":822:918   */\n    tag_410:\n        /* \"#utility.yul\":859:866   */\n      0x00\n        /* \"#utility.yul\":888:912   */\n      tag_460\n        /* \"#utility.yul\":906:911   */\n      dup3\n        /* \"#utility.yul\":888:912   */\n      tag_409\n      jump\t// in\n    tag_460:\n        /* \"#utility.yul\":877:912   */\n      swap1\n      pop\n        /* \"#utility.yul\":822:918   */\n      swap2\n      swap1\n      pop\n      jump\t// out\n        /* \"#utility.yul\":924:1046   */\n    tag_411:\n        /* \"#utility.yul\":997:1021   */\n      tag_462\n        /* \"#utility.yul\":1015:1020   */\n      dup2\n        /* \"#utility.yul\":997:1021   */\n      tag_410\n      jump\t// in\n    tag_462:\n        /* \"#utility.yul\":990:995   */\n      dup2\n        /* \"#utility.yul\":987:1022   */\n      eq\n        /* \"#utility.yul\":977:1040   */\n      tag_463\n      jumpi\n        /* \"#utility.yul\":1036:1037   */\n      0x00\n        /* \"#utility.yul\":1033:1034   */\n      dup1\n        /* \"#utility.yul\":1026:1038   */\n      revert\n        /* \"#utility.yul\":977:1040   */\n    tag_463:\n        /* \"#utility.yul\":924:1046   */\n      pop\n      jump\t// out\n        /* \"#utility.yul\":1052:1191   */\n    tag_412:\n        /* \"#utility.yul\":1098:1103   */\n      0x00\n        /* \"#utility.yul\":1136:1142   */\n      dup2\n        /* \"#utility.yul\":1123:1143   */\n      calldataload\n        /* \"#utility.yul\":1114:1143   */\n      swap1\n      pop\n        /* \"#utility.yul\":1152:1185   */\n      tag_465\n        /* \"#utility.yul\":1179:1184   */\n      dup2\n        /* \"#utility.yul\":1152:1185   */\n      tag_411\n      jump\t// in\n    tag_465:\n        /* \"#utility.yul\":1052:1191   */\n      swap3\n      swap2\n      pop\n      pop\n      jump\t// out\n        /* \"#utility.yul\":1197:1671   */\n    tag_46:\n        /* \"#utility.yul\":1265:1271   */\n      0x00\n        /* \"#utility.yul\":1273:1279   */\n      dup1\n        /* \"#utility.yul\":1322:1324   */\n      0x40\n        /* \"#utility.yul\":1310:1319   */\n      dup4\n        /* \"#utility.yul\":1301:1308   */\n      dup6\n        /* \"#utility.yul\":1297:1320   */\n      sub\n        /* \"#utility.yul\":1293:1325   */\n      slt\n        /* \"#utility.yul\":1290:1409   */\n      iszero\n      tag_467\n      jumpi\n        /* \"#utility.yul\":1328:1407   */\n      tag_468\n      tag_404\n      jump\t// in\n    tag_468:\n        /* \"#utility.yul\":1290:1409   */\n    tag_467:\n        /* \"#utility.yul\":1448:1449   */\n      0x00\n        /* \"#utility.yul\":1473:1526   */\n      tag_469\n        /* \"#utility.yul\":1518:1525   */\n      dup6\n        /* \"#utility.yul\":1509:1515   */\n      dup3\n        /* \"#utility.yul\":1498:1507   */\n      dup7\n        /* \"#utility.yul\":1494:1516   */\n      add\n        /* \"#utility.yul\":1473:1526   */\n      tag_408\n      jump\t// in\n    tag_469:\n        /* \"#utility.yul\":1463:1526   */\n      swap3\n      pop\n        /* \"#utility.yul\":1419:1536   */\n      pop\n        /* \"#utility.yul\":1575:1577   */\n      0x20\n        /* \"#utility.yul\":1601:1654   */\n      tag_470\n        /* \"#utility.yul\":1646:1653   */\n      dup6\n        /* \"#utility.yul\":1637:1643   */\n      dup3\n        /* \"#utility.yul\":1626:1635   */\n      dup7\n        /* \"#utility.yul\":1622:1644   */\n      add\n        /* \"#utility.yul\":1601:1654   */\n      tag_412\n      jump\t// in\n    tag_470:\n        /* \"#utility.yul\":1591:1654   */\n      swap2\n      pop\n        /* \"#utility.yul\":1546:1664   */\n      pop\n        /* \"#utility.yul\":1197:1671   */\n      swap3\n      pop\n      swap3\n      swap1\n      pop\n      jump\t// out\n        /* \"#utility.yul\":1677:1767   */\n    tag_413:\n        /* \"#utility.yul\":1711:1718   */\n      0x00\n        /* \"#utility.yul\":1754:1759   */\n      dup2\n        /* \"#utility.yul\":1747:1760   */\n      iszero\n        /* \"#utility.yul\":1740:1761   */\n      iszero\n        /* \"#utility.yul\":1729:1761   */\n      swap1\n      pop\n        /* \"#utility.yul\":1677:1767   */\n      swap2\n      swap1\n      pop\n      jump\t// out\n        /* \"#utility.yul\":1773:1882   */\n    tag_414:\n        /* \"#utility.yul\":1854:1875   */\n      tag_473\n        /* \"#utility.yul\":1869:1874   */\n      dup2\n        /* \"#utility.yul\":1854:1875   */\n      tag_413\n      jump\t// in\n    tag_473:\n        /* \"#utility.yul\":1849:1852   */\n      dup3\n        /* \"#utility.yul\":1842:1876   */\n      mstore\n        /* \"#utility.yul\":1773:1882   */\n      pop\n      pop\n      jump\t// out\n        /* \"#utility.yul\":1888:2098   */\n    tag_49:\n        /* \"#utility.yul\":1975:1979   */\n      0x00\n        /* \"#utility.yul\":2013:2015   */\n      0x20\n        /* \"#utility.yul\":2002:2011   */\n      dup3\n        /* \"#utility.yul\":1998:2016   */\n      add\n        /* \"#utility.yul\":1990:2016   */\n      swap1\n      pop\n        /* \"#utility.yul\":2026:2091   */\n      tag_475\n        /* \"#utility.yul\":2088:2089   */\n      0x00\n        /* \"#utility.yul\":2077:2086   */\n      dup4\n        /* \"#utility.yul\":2073:2090   */\n      add\n        /* \"#utility.yul\":2064:2070   */\n      dup5\n        /* \"#utility.yul\":2026:2091   */\n      tag_414\n      jump\t// in\n    tag_475:\n        /* \"#utility.yul\":1888:2098   */\n      swap3\n      swap2\n      pop\n      pop\n      jump\t// out\n        /* \"#utility.yul\":2104:2222   */\n    tag_415:\n        /* \"#utility.yul\":2191:2215   */\n      tag_477\n        /* \"#utility.yul\":2209:2214   */\n      dup2\n        /* \"#utility.yul\":2191:2215   */\n      tag_406\n      jump\t// in\n    tag_477:\n        /* \"#utility.yul\":2186:2189   */\n      dup3\n        /* \"#utility.yul\":2179:2216   */\n      mstore\n        /* \"#utility.yul\":2104:2222   */\n      pop\n      pop\n      jump\t// out\n        /* \"#utility.yul\":2228:2450   */\n    tag_54:\n        /* \"#utility.yul\":2321:2325   */\n      0x00\n        /* \"#utility.yul\":2359:2361   */\n      0x20\n        /* \"#utility.yul\":2348:2357   */\n      dup3\n        /* \"#utility.yul\":2344:2362   */\n      add\n        /* \"#utility.yul\":2336:2362   */\n      swap1\n      pop\n        /* \"#utility.yul\":2372:2443   */\n      tag_479\n        /* \"#utility.yul\":2440:2441   */\n      0x00\n        /* \"#utility.yul\":2429:2438   */\n      dup4\n        /* \"#utility.yul\":2425:2442   */\n      add\n        /* \"#utility.yul\":2416:2422   */\n      dup5\n        /* \"#utility.yul\":2372:2443   */\n      tag_415\n      jump\t// in\n    tag_479:\n        /* \"#utility.yul\":2228:2450   */\n      swap3\n      swap2\n      pop\n      pop\n      jump\t// out\n        /* \"#utility.yul\":2456:2555   */\n    tag_416:\n        /* \"#utility.yul\":2508:2514   */\n      0x00\n        /* \"#utility.yul\":2542:2547   */\n      dup2\n        /* \"#utility.yul\":2536:2548   */\n      mload\n        /* \"#utility.yul\":2526:2548   */\n      swap1\n      pop\n        /* \"#utility.yul\":2456:2555   */\n      swap2\n      swap1\n      pop\n      jump\t// out\n        /* \"#utility.yul\":2561:2730   */\n    tag_417:\n        /* \"#utility.yul\":2645:2656   */\n      0x00\n        /* \"#utility.yul\":2679:2685   */\n      dup3\n        /* \"#utility.yul\":2674:2677   */\n      dup3\n        /* \"#utility.yul\":2667:2686   */\n      mstore\n        /* \"#utility.yul\":2719:2723   */\n      0x20\n        /* \"#utility.yul\":2714:2717   */\n      dup3\n        /* \"#utility.yul\":2710:2724   */\n      add\n        /* \"#utility.yul\":2695:2724   */\n      swap1\n      pop\n        /* \"#utility.yul\":2561:2730   */\n      swap3\n      swap2\n      pop\n      pop\n      jump\t// out\n        /* \"#utility.yul\":2736:3043   */\n    tag_418:\n        /* \"#utility.yul\":2804:2805   */\n      0x00\n        /* \"#utility.yul\":2814:2927   */\n    tag_483:\n        /* \"#utility.yul\":2828:2834   */\n      dup4\n        /* \"#utility.yul\":2825:2826   */\n      dup2\n        /* \"#utility.yul\":2822:2835   */\n      lt\n        /* \"#utility.yul\":2814:2927   */\n      iszero\n      tag_485\n      jumpi\n        /* \"#utility.yul\":2913:2914   */\n      dup1\n        /* \"#utility.yul\":2908:2911   */\n      dup3\n        /* \"#utility.yul\":2904:2915   */\n      add\n        /* \"#utility.yul\":2898:2916   */\n      mload\n        /* \"#utility.yul\":2894:2895   */\n      dup2\n        /* \"#utility.yul\":2889:2892   */\n      dup5\n        /* \"#utility.yul\":2885:2896   */\n      add\n        /* \"#utility.yul\":2878:2917   */\n      mstore\n        /* \"#utility.yul\":2850:2852   */\n      0x20\n        /* \"#utility.yul\":2847:2848   */\n      dup2\n        /* \"#utility.yul\":2843:2853   */\n      add\n        /* \"#utility.yul\":2838:2853   */\n      swap1\n      pop\n        /* \"#utility.yul\":2814:2927   */\n      jump(tag_483)\n    tag_485:\n        /* \"#utility.yul\":2945:2951   */\n      dup4\n        /* \"#utility.yul\":2942:2943   */\n      dup2\n        /* \"#utility.yul\":2939:2952   */\n      gt\n        /* \"#utility.yul\":2936:3037   */\n      iszero\n      tag_486\n      jumpi\n        /* \"#utility.yul\":3025:3026   */\n      0x00\n        /* \"#utility.yul\":3016:3022   */\n      dup5\n        /* \"#utility.yul\":3011:3014   */\n      dup5\n        /* \"#utility.yul\":3007:3023   */\n      add\n        /* \"#utility.yul\":3000:3027   */\n      mstore\n        /* \"#utility.yul\":2936:3037   */\n    tag_486:\n        /* \"#utility.yul\":2785:3043   */\n      pop\n        /* \"#utility.yul\":2736:3043   */\n      pop\n      pop\n      pop\n      jump\t// out\n        /* \"#utility.yul\":3049:3151   */\n    tag_419:\n        /* \"#utility.yul\":3090:3096   */\n      0x00\n        /* \"#utility.yul\":3141:3143   */\n      0x1f\n        /* \"#utility.yul\":3137:3144   */\n      not\n        /* \"#utility.yul\":3132:3134   */\n      0x1f\n        /* \"#utility.yul\":3125:3130   */\n      dup4\n        /* \"#utility.yul\":3121:3135   */\n      add\n        /* \"#utility.yul\":3117:3145   */\n      and\n        /* \"#utility.yul\":3107:3145   */\n      swap1\n      pop\n        /* \"#utility.yul\":3049:3151   */\n      swap2\n      swap1\n      pop\n      jump\t// out\n        /* \"#utility.yul\":3157:3521   */\n    tag_420:\n        /* \"#utility.yul\":3245:3248   */\n      0x00\n        /* \"#utility.yul\":3273:3312   */\n      tag_489\n        /* \"#utility.yul\":3306:3311   */\n      dup3\n        /* \"#utility.yul\":3273:3312   */\n      tag_416\n      jump\t// in\n    tag_489:\n        /* \"#utility.yul\":3328:3399   */\n      tag_490\n        /* \"#utility.yul\":3392:3398   */\n      dup2\n        /* \"#utility.yul\":3387:3390   */\n      dup6\n        /* \"#utility.yul\":3328:3399   */\n      tag_417\n      jump\t// in\n    tag_490:\n        /* \"#utility.yul\":3321:3399   */\n      swap4\n      pop\n        /* \"#utility.yul\":3408:3460   */\n      tag_491\n        /* \"#utility.yul\":3453:3459   */\n      dup2\n        /* \"#utility.yul\":3448:3451   */\n      dup6\n        /* \"#utility.yul\":3441:3445   */\n      0x20\n        /* \"#utility.yul\":3434:3439   */\n      dup7\n        /* \"#utility.yul\":3430:3446   */\n      add\n        /* \"#utility.yul\":3408:3460   */\n      tag_418\n      jump\t// in\n    tag_491:\n        /* \"#utility.yul\":3485:3514   */\n      tag_492\n        /* \"#utility.yul\":3507:3513   */\n      dup2\n        /* \"#utility.yul\":3485:3514   */\n      tag_419\n      jump\t// in\n    tag_492:\n        /* \"#utility.yul\":3480:3483   */\n      dup5\n        /* \"#utility.yul\":3476:3515   */\n      add\n        /* \"#utility.yul\":3469:3515   */\n      swap2\n      pop\n        /* \"#utility.yul\":3249:3521   */\n      pop\n        /* \"#utility.yul\":3157:3521   */\n      swap3\n      swap2\n      pop\n      pop\n      jump\t// out\n        /* \"#utility.yul\":3527:3840   */\n    tag_59:\n        /* \"#utility.yul\":3640:3644   */\n      0x00\n        /* \"#utility.yul\":3678:3680   */\n      0x20\n        /* \"#utility.yul\":3667:3676   */\n      dup3\n        /* \"#utility.yul\":3663:3681   */\n      add\n        /* \"#utility.yul\":3655:3681   */\n      swap1\n      pop\n        /* \"#utility.yul\":3727:3736   */\n      dup2\n        /* \"#utility.yul\":3721:3725   */\n      dup2\n        /* \"#utility.yul\":3717:3737   */\n      sub\n        /* \"#utility.yul\":3713:3714   */\n      0x00\n        /* \"#utility.yul\":3702:3711   */\n      dup4\n        /* \"#utility.yul\":3698:3715   */\n      add\n        /* \"#utility.yul\":3691:3738   */\n      mstore\n        /* \"#utility.yul\":3755:3833   */\n      tag_494\n        /* \"#utility.yul\":3828:3832   */\n      dup2\n        /* \"#utility.yul\":3819:3825   */\n      dup5\n        /* \"#utility.yul\":3755:3833   */\n      tag_420\n      jump\t// in\n    tag_494:\n        /* \"#utility.yul\":3747:3833   */\n      swap1\n      pop\n        /* \"#utility.yul\":3527:3840   */\n      swap3\n      swap2\n      pop\n      pop\n      jump\t// out\n        /* \"#utility.yul\":3846:4175   */\n    tag_63:\n        /* \"#utility.yul\":3905:3911   */\n      0x00\n        /* \"#utility.yul\":3954:3956   */\n      0x20\n        /* \"#utility.yul\":3942:3951   */\n      dup3\n        /* \"#utility.yul\":3933:3940   */\n      dup5\n        /* \"#utility.yul\":3929:3952   */\n      sub\n        /* \"#utility.yul\":3925:3957   */\n      slt\n        /* \"#utility.yul\":3922:4041   */\n      iszero\n      tag_496\n      jumpi\n        /* \"#utility.yul\":3960:4039   */\n      tag_497\n      tag_404\n      jump\t// in\n    tag_497:\n        /* \"#utility.yul\":3922:4041   */\n    tag_496:\n        /* \"#utility.yul\":4080:4081   */\n      0x00\n        /* \"#utility.yul\":4105:4158   */\n      tag_498\n        /* \"#utility.yul\":4150:4157   */\n      dup5\n        /* \"#utility.yul\":4141:4147   */\n      dup3\n        /* \"#utility.yul\":4130:4139   */\n      dup6\n        /* \"#utility.yul\":4126:4148   */\n      add\n        /* \"#utility.yul\":4105:4158   */\n      tag_412\n      jump\t// in\n    tag_498:\n        /* \"#utility.yul\":4095:4158   */\n      swap2\n      pop\n        /* \"#utility.yul\":4051:4168   */\n      pop\n        /* \"#utility.yul\":3846:4175   */\n      swap3\n      swap2\n      pop\n      pop\n      jump\t// out\n        /* \"#utility.yul\":4181:4298   */\n    tag_421:\n        /* \"#utility.yul\":4290:4291   */\n      0x00\n        /* \"#utility.yul\":4287:4288   */\n      dup1\n        /* \"#utility.yul\":4280:4292   */\n      revert\n        /* \"#utility.yul\":4304:4421   */\n    tag_422:\n        /* \"#utility.yul\":4413:4414   */\n      0x00\n        /* \"#utility.yul\":4410:4411   */\n      dup1\n        /* \"#utility.yul\":4403:4415   */\n      revert\n        /* \"#utility.yul\":4427:4607   */\n    tag_340:\n        /* \"#utility.yul\":4475:4552   */\n      0x4e487b7100000000000000000000000000000000000000000000000000000000\n        /* \"#utility.yul\":4472:4473   */\n      0x00\n        /* \"#utility.yul\":4465:4553   */\n      mstore\n        /* \"#utility.yul\":4572:4576   */\n      0x41\n        /* \"#utility.yul\":4569:4570   */\n      0x04\n        /* \"#utility.yul\":4562:4577   */\n      mstore\n        /* \"#utility.yul\":4596:4600   */\n      0x24\n        /* \"#utility.yul\":4593:4594   */\n      0x00\n        /* \"#utility.yul\":4586:4601   */\n      revert\n        /* \"#utility.yul\":4613:4894   */\n    tag_423:\n        /* \"#utility.yul\":4696:4723   */\n      tag_503\n        /* \"#utility.yul\":4718:4722   */\n      dup3\n        /* \"#utility.yul\":4696:4723   */\n      tag_419\n      jump\t// in\n    tag_503:\n        /* \"#utility.yul\":4688:4694   */\n      dup2\n        /* \"#utility.yul\":4684:4724   */\n      add\n        /* \"#utility.yul\":4826:4832   */\n      dup2\n        /* \"#utility.yul\":4814:4824   */\n      dup2\n        /* \"#utility.yul\":4811:4833   */\n      lt\n        /* \"#utility.yul\":4790:4808   */\n      0xffffffffffffffff\n        /* \"#utility.yul\":4778:4788   */\n      dup3\n        /* \"#utility.yul\":4775:4809   */\n      gt\n        /* \"#utility.yul\":4772:4834   */\n      or\n        /* \"#utility.yul\":4769:4857   */\n      iszero\n      tag_504\n      jumpi\n        /* \"#utility.yul\":4837:4855   */\n      tag_505\n      tag_340\n      jump\t// in\n    tag_505:\n        /* \"#utility.yul\":4769:4857   */\n    tag_504:\n        /* \"#utility.yul\":4877:4887   */\n      dup1\n        /* \"#utility.yul\":4873:4875   */\n      0x40\n        /* \"#utility.yul\":4866:4888   */\n      mstore\n        /* \"#utility.yul\":4656:4894   */\n      pop\n        /* \"#utility.yul\":4613:4894   */\n      pop\n      pop\n      jump\t// out\n        /* \"#utility.yul\":4900:5029   */\n    tag_424:\n        /* \"#utility.yul\":4934:4940   */\n      0x00\n        /* \"#utility.yul\":4961:4981   */\n      tag_507\n      tag_403\n      jump\t// in\n    tag_507:\n        /* \"#utility.yul\":4951:4981   */\n      swap1\n      pop\n        /* \"#utility.yul\":4990:5023   */\n      tag_508\n        /* \"#utility.yul\":5018:5022   */\n      dup3\n        /* \"#utility.yul\":5010:5016   */\n      dup3\n        /* \"#utility.yul\":4990:5023   */\n      tag_423\n      jump\t// in\n    tag_508:\n        /* \"#utility.yul\":4900:5029   */\n      swap2\n      swap1\n      pop\n      jump\t// out\n        /* \"#utility.yul\":5035:5343   */\n    tag_425:\n        /* \"#utility.yul\":5097:5101   */\n      0x00\n        /* \"#utility.yul\":5187:5205   */\n      0xffffffffffffffff\n        /* \"#utility.yul\":5179:5185   */\n      dup3\n        /* \"#utility.yul\":5176:5206   */\n      gt\n        /* \"#utility.yul\":5173:5229   */\n      iszero\n      tag_510\n      jumpi\n        /* \"#utility.yul\":5209:5227   */\n      tag_511\n      tag_340\n      jump\t// in\n    tag_511:\n        /* \"#utility.yul\":5173:5229   */\n    tag_510:\n        /* \"#utility.yul\":5247:5276   */\n      tag_512\n        /* \"#utility.yul\":5269:5275   */\n      dup3\n        /* \"#utility.yul\":5247:5276   */\n      tag_419\n      jump\t// in\n    tag_512:\n        /* \"#utility.yul\":5239:5276   */\n      swap1\n      pop\n        /* \"#utility.yul\":5331:5335   */\n      0x20\n        /* \"#utility.yul\":5325:5329   */\n      dup2\n        /* \"#utility.yul\":5321:5336   */\n      add\n        /* \"#utility.yul\":5313:5336   */\n      swap1\n      pop\n        /* \"#utility.yul\":5035:5343   */\n      swap2\n      swap1\n      pop\n      jump\t// out\n        /* \"#utility.yul\":5349:5503   */\n    tag_426:\n        /* \"#utility.yul\":5433:5439   */\n      dup3\n        /* \"#utility.yul\":5428:5431   */\n      dup2\n        /* \"#utility.yul\":5423:5426   */\n      dup4\n        /* \"#utility.yul\":5410:5440   */\n      calldatacopy\n        /* \"#utility.yul\":5495:5496   */\n      0x00\n        /* \"#utility.yul\":5486:5492   */\n      dup4\n        /* \"#utility.yul\":5481:5484   */\n      dup4\n        /* \"#utility.yul\":5477:5493   */\n      add\n        /* \"#utility.yul\":5470:5497   */\n      mstore\n        /* \"#utility.yul\":5349:5503   */\n      pop\n      pop\n      pop\n      jump\t// out\n        /* \"#utility.yul\":5509:5921   */\n    tag_427:\n        /* \"#utility.yul\":5587:5592   */\n      0x00\n        /* \"#utility.yul\":5612:5678   */\n      tag_515\n        /* \"#utility.yul\":5628:5677   */\n      tag_516\n        /* \"#utility.yul\":5670:5676   */\n      dup5\n        /* \"#utility.yul\":5628:5677   */\n      tag_425\n      jump\t// in\n    tag_516:\n        /* \"#utility.yul\":5612:5678   */\n      tag_424\n      jump\t// in\n    tag_515:\n        /* \"#utility.yul\":5603:5678   */\n      swap1\n      pop\n        /* \"#utility.yul\":5701:5707   */\n      dup3\n        /* \"#utility.yul\":5694:5699   */\n      dup2\n        /* \"#utility.yul\":5687:5708   */\n      mstore\n        /* \"#utility.yul\":5739:5743   */\n      0x20\n        /* \"#utility.yul\":5732:5737   */\n      dup2\n        /* \"#utility.yul\":5728:5744   */\n      add\n        /* \"#utility.yul\":5777:5780   */\n      dup5\n        /* \"#utility.yul\":5768:5774   */\n      dup5\n        /* \"#utility.yul\":5763:5766   */\n      dup5\n        /* \"#utility.yul\":5759:5775   */\n      add\n        /* \"#utility.yul\":5756:5781   */\n      gt\n        /* \"#utility.yul\":5753:5865   */\n      iszero\n      tag_517\n      jumpi\n        /* \"#utility.yul\":5784:5863   */\n      tag_518\n      tag_422\n      jump\t// in\n    tag_518:\n        /* \"#utility.yul\":5753:5865   */\n    tag_517:\n        /* \"#utility.yul\":5874:5915   */\n      tag_519\n        /* \"#utility.yul\":5908:5914   */\n      dup5\n        /* \"#utility.yul\":5903:5906   */\n      dup3\n        /* \"#utility.yul\":5898:5901   */\n      dup6\n        /* \"#utility.yul\":5874:5915   */\n      tag_426\n      jump\t// in\n    tag_519:\n        /* \"#utility.yul\":5593:5921   */\n      pop\n        /* \"#utility.yul\":5509:5921   */\n      swap4\n      swap3\n      pop\n      pop\n      pop\n      jump\t// out\n        /* \"#utility.yul\":5941:6281   */\n    tag_428:\n        /* \"#utility.yul\":5997:6002   */\n      0x00\n        /* \"#utility.yul\":6046:6049   */\n      dup3\n        /* \"#utility.yul\":6039:6043   */\n      0x1f\n        /* \"#utility.yul\":6031:6037   */\n      dup4\n        /* \"#utility.yul\":6027:6044   */\n      add\n        /* \"#utility.yul\":6023:6050   */\n      slt\n        /* \"#utility.yul\":6013:6135   */\n      tag_521\n      jumpi\n        /* \"#utility.yul\":6054:6133   */\n      tag_522\n      tag_421\n      jump\t// in\n    tag_522:\n        /* \"#utility.yul\":6013:6135   */\n    tag_521:\n        /* \"#utility.yul\":6171:6177   */\n      dup2\n        /* \"#utility.yul\":6158:6178   */\n      calldataload\n        /* \"#utility.yul\":6196:6275   */\n      tag_523\n        /* \"#utility.yul\":6271:6274   */\n      dup5\n        /* \"#utility.yul\":6263:6269   */\n      dup3\n        /* \"#utility.yul\":6256:6260   */\n      0x20\n        /* \"#utility.yul\":6248:6254   */\n      dup7\n        /* \"#utility.yul\":6244:6261   */\n      add\n        /* \"#utility.yul\":6196:6275   */\n      tag_427\n      jump\t// in\n    tag_523:\n        /* \"#utility.yul\":6187:6275   */\n      swap2\n      pop\n        /* \"#utility.yul\":6003:6281   */\n      pop\n        /* \"#utility.yul\":5941:6281   */\n      swap3\n      swap2\n      pop\n      pop\n      jump\t// out\n        /* \"#utility.yul\":6287:7266   */\n    tag_69:\n        /* \"#utility.yul\":6384:6390   */\n      0x00\n        /* \"#utility.yul\":6392:6398   */\n      dup1\n        /* \"#utility.yul\":6400:6406   */\n      0x00\n        /* \"#utility.yul\":6449:6451   */\n      0x60\n        /* \"#utility.yul\":6437:6446   */\n      dup5\n        /* \"#utility.yul\":6428:6435   */\n      dup7\n        /* \"#utility.yul\":6424:6447   */\n      sub\n        /* \"#utility.yul\":6420:6452   */\n      slt\n        /* \"#utility.yul\":6417:6536   */\n      iszero\n      tag_525\n      jumpi\n        /* \"#utility.yul\":6455:6534   */\n      tag_526\n      tag_404\n      jump\t// in\n    tag_526:\n        /* \"#utility.yul\":6417:6536   */\n    tag_525:\n        /* \"#utility.yul\":6603:6604   */\n      0x00\n        /* \"#utility.yul\":6592:6601   */\n      dup5\n        /* \"#utility.yul\":6588:6605   */\n      add\n        /* \"#utility.yul\":6575:6606   */\n      calldataload\n        /* \"#utility.yul\":6633:6651   */\n      0xffffffffffffffff\n        /* \"#utility.yul\":6625:6631   */\n      dup2\n        /* \"#utility.yul\":6622:6652   */\n      gt\n        /* \"#utility.yul\":6619:6736   */\n      iszero\n      tag_527\n      jumpi\n        /* \"#utility.yul\":6655:6734   */\n      tag_528\n      tag_405\n      jump\t// in\n    tag_528:\n        /* \"#utility.yul\":6619:6736   */\n    tag_527:\n        /* \"#utility.yul\":6760:6823   */\n      tag_529\n        /* \"#utility.yul\":6815:6822   */\n      dup7\n        /* \"#utility.yul\":6806:6812   */\n      dup3\n        /* \"#utility.yul\":6795:6804   */\n      dup8\n        /* \"#utility.yul\":6791:6813   */\n      add\n        /* \"#utility.yul\":6760:6823   */\n      tag_428\n      jump\t// in\n    tag_529:\n        /* \"#utility.yul\":6750:6823   */\n      swap4\n      pop\n        /* \"#utility.yul\":6546:6833   */\n      pop\n        /* \"#utility.yul\":6900:6902   */\n      0x20\n        /* \"#utility.yul\":6889:6898   */\n      dup5\n        /* \"#utility.yul\":6885:6903   */\n      add\n        /* \"#utility.yul\":6872:6904   */\n      calldataload\n        /* \"#utility.yul\":6931:6949   */\n      0xffffffffffffffff\n        /* \"#utility.yul\":6923:6929   */\n      dup2\n        /* \"#utility.yul\":6920:6950   */\n      gt\n        /* \"#utility.yul\":6917:7034   */\n      iszero\n      tag_530\n      jumpi\n        /* \"#utility.yul\":6953:7032   */\n      tag_531\n      tag_405\n      jump\t// in\n    tag_531:\n        /* \"#utility.yul\":6917:7034   */\n    tag_530:\n        /* \"#utility.yul\":7058:7121   */\n      tag_532\n        /* \"#utility.yul\":7113:7120   */\n      dup7\n        /* \"#utility.yul\":7104:7110   */\n      dup3\n        /* \"#utility.yul\":7093:7102   */\n      dup8\n        /* \"#utility.yul\":7089:7111   */\n      add\n        /* \"#utility.yul\":7058:7121   */\n      tag_428\n      jump\t// in\n    tag_532:\n        /* \"#utility.yul\":7048:7121   */\n      swap3\n      pop\n        /* \"#utility.yul\":6843:7131   */\n      pop\n        /* \"#utility.yul\":7170:7172   */\n      0x40\n        /* \"#utility.yul\":7196:7249   */\n      tag_533\n        /* \"#utility.yul\":7241:7248   */\n      dup7\n        /* \"#utility.yul\":7232:7238   */\n      dup3\n        /* \"#utility.yul\":7221:7230   */\n      dup8\n        /* \"#utility.yul\":7217:7239   */\n      add\n        /* \"#utility.yul\":7196:7249   */\n      tag_408\n      jump\t// in\n    tag_533:\n        /* \"#utility.yul\":7186:7249   */\n      swap2\n      pop\n        /* \"#utility.yul\":7141:7259   */\n      pop\n        /* \"#utility.yul\":6287:7266   */\n      swap3\n      pop\n      swap3\n      pop\n      swap3\n      jump\t// out\n        /* \"#utility.yul\":7272:7601   */\n    tag_100:\n        /* \"#utility.yul\":7331:7337   */\n      0x00\n        /* \"#utility.yul\":7380:7382   */\n      0x20\n        /* \"#utility.yul\":7368:7377   */\n      dup3\n        /* \"#utility.yul\":7359:7366   */\n      dup5\n        /* \"#utility.yul\":7355:7378   */\n      sub\n        /* \"#utility.yul\":7351:7383   */\n      slt\n        /* \"#utility.yul\":7348:7467   */\n      iszero\n      tag_535\n      jumpi\n        /* \"#utility.yul\":7386:7465   */\n      tag_536\n      tag_404\n      jump\t// in\n    tag_536:\n        /* \"#utility.yul\":7348:7467   */\n    tag_535:\n        /* \"#utility.yul\":7506:7507   */\n      0x00\n        /* \"#utility.yul\":7531:7584   */\n      tag_537\n        /* \"#utility.yul\":7576:7583   */\n      dup5\n        /* \"#utility.yul\":7567:7573   */\n      dup3\n        /* \"#utility.yul\":7556:7565   */\n      dup6\n        /* \"#utility.yul\":7552:7574   */\n      add\n        /* \"#utility.yul\":7531:7584   */\n      tag_408\n      jump\t// in\n    tag_537:\n        /* \"#utility.yul\":7521:7584   */\n      swap2\n      pop\n        /* \"#utility.yul\":7477:7594   */\n      pop\n        /* \"#utility.yul\":7272:7601   */\n      swap3\n      swap2\n      pop\n      pop\n      jump\t// out\n        /* \"#utility.yul\":7607:7725   */\n    tag_429:\n        /* \"#utility.yul\":7694:7718   */\n      tag_539\n        /* \"#utility.yul\":7712:7717   */\n      dup2\n        /* \"#utility.yul\":7694:7718   */\n      tag_410\n      jump\t// in\n    tag_539:\n        /* \"#utility.yul\":7689:7692   */\n      dup3\n        /* \"#utility.yul\":7682:7719   */\n      mstore\n        /* \"#utility.yul\":7607:7725   */\n      pop\n      pop\n      jump\t// out\n        /* \"#utility.yul\":7731:7953   */\n    tag_107:\n        /* \"#utility.yul\":7824:7828   */\n      0x00\n        /* \"#utility.yul\":7862:7864   */\n      0x20\n        /* \"#utility.yul\":7851:7860   */\n      dup3\n        /* \"#utility.yul\":7847:7865   */\n      add\n        /* \"#utility.yul\":7839:7865   */\n      swap1\n      pop\n        /* \"#utility.yul\":7875:7946   */\n      tag_541\n        /* \"#utility.yul\":7943:7944   */\n      0x00\n        /* \"#utility.yul\":7932:7941   */\n      dup4\n        /* \"#utility.yul\":7928:7945   */\n      add\n        /* \"#utility.yul\":7919:7925   */\n      dup5\n        /* \"#utility.yul\":7875:7946   */\n      tag_429\n      jump\t// in\n    tag_541:\n        /* \"#utility.yul\":7731:7953   */\n      swap3\n      swap2\n      pop\n      pop\n      jump\t// out\n        /* \"#utility.yul\":7959:8433   */\n    tag_148:\n        /* \"#utility.yul\":8027:8033   */\n      0x00\n        /* \"#utility.yul\":8035:8041   */\n      dup1\n        /* \"#utility.yul\":8084:8086   */\n      0x40\n        /* \"#utility.yul\":8072:8081   */\n      dup4\n        /* \"#utility.yul\":8063:8070   */\n      dup6\n        /* \"#utility.yul\":8059:8082   */\n      sub\n        /* \"#utility.yul\":8055:8087   */\n      slt\n        /* \"#utility.yul\":8052:8171   */\n      iszero\n      tag_543\n      jumpi\n        /* \"#utility.yul\":8090:8169   */\n      tag_544\n      tag_404\n      jump\t// in\n    tag_544:\n        /* \"#utility.yul\":8052:8171   */\n    tag_543:\n        /* \"#utility.yul\":8210:8211   */\n      0x00\n        /* \"#utility.yul\":8235:8288   */\n      tag_545\n        /* \"#utility.yul\":8280:8287   */\n      dup6\n        /* \"#utility.yul\":8271:8277   */\n      dup3\n        /* \"#utility.yul\":8260:8269   */\n      dup7\n        /* \"#utility.yul\":8256:8278   */\n      add\n        /* \"#utility.yul\":8235:8288   */\n      tag_412\n      jump\t// in\n    tag_545:\n        /* \"#utility.yul\":8225:8288   */\n      swap3\n      pop\n        /* \"#utility.yul\":8181:8298   */\n      pop\n        /* \"#utility.yul\":8337:8339   */\n      0x20\n        /* \"#utility.yul\":8363:8416   */\n      tag_546\n        /* \"#utility.yul\":8408:8415   */\n      dup6\n        /* \"#utility.yul\":8399:8405   */\n      dup3\n        /* \"#utility.yul\":8388:8397   */\n      dup7\n        /* \"#utility.yul\":8384:8406   */\n      add\n        /* \"#utility.yul\":8363:8416   */\n      tag_408\n      jump\t// in\n    tag_546:\n        /* \"#utility.yul\":8353:8416   */\n      swap2\n      pop\n        /* \"#utility.yul\":8308:8426   */\n      pop\n        /* \"#utility.yul\":7959:8433   */\n      swap3\n      pop\n      swap3\n      swap1\n      pop\n      jump\t// out\n        /* \"#utility.yul\":8439:9273   */\n    tag_175:\n        /* \"#utility.yul\":8678:8682   */\n      0x00\n        /* \"#utility.yul\":8716:8719   */\n      0xa0\n        /* \"#utility.yul\":8705:8714   */\n      dup3\n        /* \"#utility.yul\":8701:8720   */\n      add\n        /* \"#utility.yul\":8693:8720   */\n      swap1\n      pop\n        /* \"#utility.yul\":8766:8775   */\n      dup2\n        /* \"#utility.yul\":8760:8764   */\n      dup2\n        /* \"#utility.yul\":8756:8776   */\n      sub\n        /* \"#utility.yul\":8752:8753   */\n      0x00\n        /* \"#utility.yul\":8741:8750   */\n      dup4\n        /* \"#utility.yul\":8737:8754   */\n      add\n        /* \"#utility.yul\":8730:8777   */\n      mstore\n        /* \"#utility.yul\":8794:8872   */\n      tag_548\n        /* \"#utility.yul\":8867:8871   */\n      dup2\n        /* \"#utility.yul\":8858:8864   */\n      dup9\n        /* \"#utility.yul\":8794:8872   */\n      tag_420\n      jump\t// in\n    tag_548:\n        /* \"#utility.yul\":8786:8872   */\n      swap1\n      pop\n        /* \"#utility.yul\":8919:8928   */\n      dup2\n        /* \"#utility.yul\":8913:8917   */\n      dup2\n        /* \"#utility.yul\":8909:8929   */\n      sub\n        /* \"#utility.yul\":8904:8906   */\n      0x20\n        /* \"#utility.yul\":8893:8902   */\n      dup4\n        /* \"#utility.yul\":8889:8907   */\n      add\n        /* \"#utility.yul\":8882:8930   */\n      mstore\n        /* \"#utility.yul\":8947:9025   */\n      tag_549\n        /* \"#utility.yul\":9020:9024   */\n      dup2\n        /* \"#utility.yul\":9011:9017   */\n      dup8\n        /* \"#utility.yul\":8947:9025   */\n      tag_420\n      jump\t// in\n    tag_549:\n        /* \"#utility.yul\":8939:9025   */\n      swap1\n      pop\n        /* \"#utility.yul\":9035:9107   */\n      tag_550\n        /* \"#utility.yul\":9103:9105   */\n      0x40\n        /* \"#utility.yul\":9092:9101   */\n      dup4\n        /* \"#utility.yul\":9088:9106   */\n      add\n        /* \"#utility.yul\":9079:9085   */\n      dup7\n        /* \"#utility.yul\":9035:9107   */\n      tag_415\n      jump\t// in\n    tag_550:\n        /* \"#utility.yul\":9117:9183   */\n      tag_551\n        /* \"#utility.yul\":9179:9181   */\n      0x60\n        /* \"#utility.yul\":9168:9177   */\n      dup4\n        /* \"#utility.yul\":9164:9182   */\n      add\n        /* \"#utility.yul\":9155:9161   */\n      dup6\n        /* \"#utility.yul\":9117:9183   */\n      tag_414\n      jump\t// in\n    tag_551:\n        /* \"#utility.yul\":9193:9266   */\n      tag_552\n        /* \"#utility.yul\":9261:9264   */\n      0x80\n        /* \"#utility.yul\":9250:9259   */\n      dup4\n        /* \"#utility.yul\":9246:9265   */\n      add\n        /* \"#utility.yul\":9237:9243   */\n      dup5\n        /* \"#utility.yul\":9193:9266   */\n      tag_415\n      jump\t// in\n    tag_552:\n        /* \"#utility.yul\":8439:9273   */\n      swap7\n      swap6\n      pop\n      pop\n      pop\n      pop\n      pop\n      pop\n      jump\t// out\n        /* \"#utility.yul\":9279:9459   */\n    tag_196:\n        /* \"#utility.yul\":9327:9404   */\n      0x4e487b7100000000000000000000000000000000000000000000000000000000\n        /* \"#utility.yul\":9324:9325   */\n      0x00\n        /* \"#utility.yul\":9317:9405   */\n      mstore\n        /* \"#utility.yul\":9424:9428   */\n      0x32\n        /* \"#utility.yul\":9421:9422   */\n      0x04\n        /* \"#utility.yul\":9414:9429   */\n      mstore\n        /* \"#utility.yul\":9448:9452   */\n      0x24\n        /* \"#utility.yul\":9445:9446   */\n      0x00\n        /* \"#utility.yul\":9438:9453   */\n      revert\n        /* \"#utility.yul\":9465:9645   */\n    tag_430:\n        /* \"#utility.yul\":9513:9590   */\n      0x4e487b7100000000000000000000000000000000000000000000000000000000\n        /* \"#utility.yul\":9510:9511   */\n      0x00\n        /* \"#utility.yul\":9503:9591   */\n      mstore\n        /* \"#utility.yul\":9610:9614   */\n      0x22\n        /* \"#utility.yul\":9607:9608   */\n      0x04\n        /* \"#utility.yul\":9600:9615   */\n      mstore\n        /* \"#utility.yul\":9634:9638   */\n      0x24\n        /* \"#utility.yul\":9631:9632   */\n      0x00\n        /* \"#utility.yul\":9624:9639   */\n      revert\n        /* \"#utility.yul\":9651:9971   */\n    tag_199:\n        /* \"#utility.yul\":9695:9701   */\n      0x00\n        /* \"#utility.yul\":9732:9733   */\n      0x02\n        /* \"#utility.yul\":9726:9730   */\n      dup3\n        /* \"#utility.yul\":9722:9734   */\n      div\n        /* \"#utility.yul\":9712:9734   */\n      swap1\n      pop\n        /* \"#utility.yul\":9779:9780   */\n      0x01\n        /* \"#utility.yul\":9773:9777   */\n      dup3\n        /* \"#utility.yul\":9769:9781   */\n      and\n        /* \"#utility.yul\":9800:9818   */\n      dup1\n        /* \"#utility.yul\":9790:9871   */\n      tag_556\n      jumpi\n        /* \"#utility.yul\":9856:9860   */\n      0x7f\n        /* \"#utility.yul\":9848:9854   */\n      dup3\n        /* \"#utility.yul\":9844:9861   */\n      and\n        /* \"#utility.yul\":9834:9861   */\n      swap2\n      pop\n        /* \"#utility.yul\":9790:9871   */\n    tag_556:\n        /* \"#utility.yul\":9918:9920   */\n      0x20\n        /* \"#utility.yul\":9910:9916   */\n      dup3\n        /* \"#utility.yul\":9907:9921   */\n      lt\n        /* \"#utility.yul\":9887:9905   */\n      dup2\n        /* \"#utility.yul\":9884:9922   */\n      sub\n        /* \"#utility.yul\":9881:9965   */\n      tag_557\n      jumpi\n        /* \"#utility.yul\":9937:9955   */\n      tag_558\n      tag_430\n      jump\t// in\n    tag_558:\n        /* \"#utility.yul\":9881:9965   */\n    tag_557:\n        /* \"#utility.yul\":9702:9971   */\n      pop\n        /* \"#utility.yul\":9651:9971   */\n      swap2\n      swap1\n      pop\n      jump\t// out\n        /* \"#utility.yul\":9977:10118   */\n    tag_431:\n        /* \"#utility.yul\":10026:10030   */\n      0x00\n        /* \"#utility.yul\":10049:10052   */\n      dup2\n        /* \"#utility.yul\":10041:10052   */\n      swap1\n      pop\n        /* \"#utility.yul\":10072:10075   */\n      dup2\n        /* \"#utility.yul\":10069:10070   */\n      0x00\n        /* \"#utility.yul\":10062:10076   */\n      mstore\n        /* \"#utility.yul\":10106:10110   */\n      0x20\n        /* \"#utility.yul\":10103:10104   */\n      0x00\n        /* \"#utility.yul\":10093:10111   */\n      keccak256\n        /* \"#utility.yul\":10085:10111   */\n      swap1\n      pop\n        /* \"#utility.yul\":9977:10118   */\n      swap2\n      swap1\n      pop\n      jump\t// out\n        /* \"#utility.yul\":10124:10217   */\n    tag_432:\n        /* \"#utility.yul\":10161:10167   */\n      0x00\n        /* \"#utility.yul\":10208:10210   */\n      0x20\n        /* \"#utility.yul\":10203:10205   */\n      0x1f\n        /* \"#utility.yul\":10196:10201   */\n      dup4\n        /* \"#utility.yul\":10192:10206   */\n      add\n        /* \"#utility.yul\":10188:10211   */\n      div\n        /* \"#utility.yul\":10178:10211   */\n      swap1\n      pop\n        /* \"#utility.yul\":10124:10217   */\n      swap2\n      swap1\n      pop\n      jump\t// out\n        /* \"#utility.yul\":10223:10330   */\n    tag_433:\n        /* \"#utility.yul\":10267:10275   */\n      0x00\n        /* \"#utility.yul\":10317:10322   */\n      dup3\n        /* \"#utility.yul\":10311:10315   */\n      dup3\n        /* \"#utility.yul\":10307:10323   */\n      shl\n        /* \"#utility.yul\":10286:10323   */\n      swap1\n      pop\n        /* \"#utility.yul\":10223:10330   */\n      swap3\n      swap2\n      pop\n      pop\n      jump\t// out\n        /* \"#utility.yul\":10336:10729   */\n    tag_434:\n        /* \"#utility.yul\":10405:10411   */\n      0x00\n        /* \"#utility.yul\":10455:10456   */\n      0x08\n        /* \"#utility.yul\":10443:10453   */\n      dup4\n        /* \"#utility.yul\":10439:10457   */\n      mul\n        /* \"#utility.yul\":10478:10575   */\n      tag_563\n        /* \"#utility.yul\":10508:10574   */\n      0xffffffffffffffffffffffffffffffffffffffffffffffffffffffffffffffff\n        /* \"#utility.yul\":10497:10506   */\n      dup3\n        /* \"#utility.yul\":10478:10575   */\n      tag_433\n      jump\t// in\n    tag_563:\n        /* \"#utility.yul\":10596:10635   */\n      tag_564\n        /* \"#utility.yul\":10626:10634   */\n      dup7\n        /* \"#utility.yul\":10615:10624   */\n      dup4\n        /* \"#utility.yul\":10596:10635   */\n      tag_433\n      jump\t// in\n    tag_564:\n        /* \"#utility.yul\":10584:10635   */\n      swap6\n      pop\n        /* \"#utility.yul\":10668:10672   */\n      dup1\n        /* \"#utility.yul\":10664:10673   */\n      not\n        /* \"#utility.yul\":10657:10662   */\n      dup5\n        /* \"#utility.yul\":10653:10674   */\n      and\n        /* \"#utility.yul\":10644:10674   */\n      swap4\n      pop\n        /* \"#utility.yul\":10717:10721   */\n      dup1\n        /* \"#utility.yul\":10707:10715   */\n      dup7\n        /* \"#utility.yul\":10703:10722   */\n      and\n        /* \"#utility.yul\":10696:10701   */\n      dup5\n        /* \"#utility.yul\":10693:10723   */\n      or\n        /* \"#utility.yul\":10683:10723   */\n      swap3\n      pop\n        /* \"#utility.yul\":10412:10729   */\n      pop\n      pop\n        /* \"#utility.yul\":10336:10729   */\n      swap4\n      swap3\n      pop\n      pop\n      pop\n      jump\t// out\n        /* \"#utility.yul\":10735:10795   */\n    tag_435:\n        /* \"#utility.yul\":10763:10766   */\n      0x00\n        /* \"#utility.yul\":10784:10789   */\n      dup2\n        /* \"#utility.yul\":10777:10789   */\n      swap1\n      pop\n        /* \"#utility.yul\":10735:10795   */\n      swap2\n      swap1\n      pop\n      jump\t// out\n        /* \"#utility.yul\":10801:10943   */\n    tag_436:\n        /* \"#utility.yul\":10851:10860   */\n      0x00\n        /* \"#utility.yul\":10884:10937   */\n      tag_567\n        /* \"#utility.yul\":10902:10936   */\n      tag_568\n        /* \"#utility.yul\":10911:10935   */\n      tag_569\n        /* \"#utility.yul\":10929:10934   */\n      dup5\n        /* \"#utility.yul\":10911:10935   */\n      tag_406\n      jump\t// in\n    tag_569:\n        /* \"#utility.yul\":10902:10936   */\n      tag_435\n      jump\t// in\n    tag_568:\n        /* \"#utility.yul\":10884:10937   */\n      tag_406\n      jump\t// in\n    tag_567:\n        /* \"#utility.yul\":10871:10937   */\n      swap1\n      pop\n        /* \"#utility.yul\":10801:10943   */\n      swap2\n      swap1\n      pop\n      jump\t// out\n        /* \"#utility.yul\":10949:11024   */\n    tag_437:\n        /* \"#utility.yul\":10992:10995   */\n      0x00\n        /* \"#utility.yul\":11013:11018   */\n      dup2\n        /* \"#utility.yul\":11006:11018   */\n      swap1\n      pop\n        /* \"#utility.yul\":10949:11024   */\n      swap2\n      swap1\n      pop\n      jump\t// out\n        /* \"#utility.yul\":11030:11299   */\n    tag_438:\n        /* \"#utility.yul\":11140:11179   */\n      tag_572\n        /* \"#utility.yul\":11171:11178   */\n      dup4\n        /* \"#utility.yul\":11140:11179   */\n      tag_436\n      jump\t// in\n    tag_572:\n        /* \"#utility.yul\":11201:11292   */\n      tag_573\n        /* \"#utility.yul\":11250:11291   */\n      tag_574\n        /* \"#utility.yul\":11274:11290   */\n      dup3\n        /* \"#utility.yul\":11250:11291   */\n      tag_437\n      jump\t// in\n    tag_574:\n        /* \"#utility.yul\":11242:11248   */\n      dup5\n        /* \"#utility.yul\":11235:11239   */\n      dup5\n        /* \"#utility.yul\":11229:11240   */\n      sload\n        /* \"#utility.yul\":11201:11292   */\n      tag_434\n      jump\t// in\n    tag_573:\n        /* \"#utility.yul\":11195:11199   */\n      dup3\n        /* \"#utility.yul\":11188:11293   */\n      sstore\n        /* \"#utility.yul\":11106:11299   */\n      pop\n        /* \"#utility.yul\":11030:11299   */\n      pop\n      pop\n      pop\n      jump\t// out\n        /* \"#utility.yul\":11305:11378   */\n    tag_439:\n        /* \"#utility.yul\":11350:11353   */\n      0x00\n        /* \"#utility.yul\":11305:11378   */\n      swap1\n      jump\t// out\n        /* \"#utility.yul\":11384:11573   */\n    tag_440:\n        /* \"#utility.yul\":11461:11493   */\n      tag_577\n      tag_439\n      jump\t// in\n    tag_577:\n        /* \"#utility.yul\":11502:11567   */\n      tag_578\n        /* \"#utility.yul\":11560:11566   */\n      dup2\n        /* \"#utility.yul\":11552:11558   */\n      dup5\n        /* \"#utility.yul\":11546:11550   */\n      dup5\n        /* \"#utility.yul\":11502:11567   */\n      tag_438\n      jump\t// in\n    tag_578:\n        /* \"#utility.yul\":11437:11573   */\n      pop\n        /* \"#utility.yul\":11384:11573   */\n      pop\n      pop\n      jump\t// out\n        /* \"#utility.yul\":11579:11765   */\n    tag_441:\n        /* \"#utility.yul\":11639:11759   */\n    tag_580:\n        /* \"#utility.yul\":11656:11659   */\n      dup2\n        /* \"#utility.yul\":11649:11654   */\n      dup2\n        /* \"#utility.yul\":11646:11660   */\n      lt\n        /* \"#utility.yul\":11639:11759   */\n      iszero\n      tag_582\n      jumpi\n        /* \"#utility.yul\":11710:11749   */\n      tag_583\n        /* \"#utility.yul\":11747:11748   */\n      0x00\n        /* \"#utility.yul\":11740:11745   */\n      dup3\n        /* \"#utility.yul\":11710:11749   */\n      tag_440\n      jump\t// in\n    tag_583:\n        /* \"#utility.yul\":11683:11684   */\n      0x01\n        /* \"#utility.yul\":11676:11681   */\n      dup2\n        /* \"#utility.yul\":11672:11685   */\n      add\n        /* \"#utility.yul\":11663:11685   */\n      swap1\n      pop\n        /* \"#utility.yul\":11639:11759   */\n      jump(tag_580)\n    tag_582:\n        /* \"#utility.yul\":11579:11765   */\n      pop\n      pop\n      jump\t// out\n        /* \"#utility.yul\":11771:12314   */\n    tag_442:\n        /* \"#utility.yul\":11872:11874   */\n      0x1f\n        /* \"#utility.yul\":11867:11870   */\n      dup3\n        /* \"#utility.yul\":11864:11875   */\n      gt\n        /* \"#utility.yul\":11861:12307   */\n      iszero\n      tag_585\n      jumpi\n        /* \"#utility.yul\":11906:11944   */\n      tag_586\n        /* \"#utility.yul\":11938:11943   */\n      dup2\n        /* \"#utility.yul\":11906:11944   */\n      tag_431\n      jump\t// in\n    tag_586:\n        /* \"#utility.yul\":11990:12019   */\n      tag_587\n        /* \"#utility.yul\":12008:12018   */\n      dup5\n        /* \"#utility.yul\":11990:12019   */\n      tag_432\n      jump\t// in\n    tag_587:\n        /* \"#utility.yul\":11980:11988   */\n      dup2\n        /* \"#utility.yul\":11976:12020   */\n      add\n        /* \"#utility.yul\":12173:12175   */\n      0x20\n        /* \"#utility.yul\":12161:12171   */\n      dup6\n        /* \"#utility.yul\":12158:12176   */\n      lt\n        /* \"#utility.yul\":12155:12204   */\n      iszero\n      tag_588\n      jumpi\n        /* \"#utility.yul\":12194:12202   */\n      dup2\n        /* \"#utility.yul\":12179:12202   */\n      swap1\n      pop\n        /* \"#utility.yul\":12155:12204   */\n    tag_588:\n        /* \"#utility.yul\":12217:12297   */\n      tag_589\n        /* \"#utility.yul\":12273:12295   */\n      tag_590\n        /* \"#utility.yul\":12291:12294   */\n      dup6\n        /* \"#utility.yul\":12273:12295   */\n      tag_432\n      jump\t// in\n    tag_590:\n        /* \"#utility.yul\":12263:12271   */\n      dup4\n        /* \"#utility.yul\":12259:12296   */\n      add\n        /* \"#utility.yul\":12246:12257   */\n      dup3\n        /* \"#utility.yul\":12217:12297   */\n      tag_441\n      jump\t// in\n    tag_589:\n        /* \"#utility.yul\":11876:12307   */\n      pop\n      pop\n        /* \"#utility.yul\":11861:12307   */\n    tag_585:\n        /* \"#utility.yul\":11771:12314   */\n      pop\n      pop\n      pop\n      jump\t// out\n        /* \"#utility.yul\":12320:12437   */\n    tag_443:\n        /* \"#utility.yul\":12374:12382   */\n      0x00\n        /* \"#utility.yul\":12424:12429   */\n      dup3\n        /* \"#utility.yul\":12418:12422   */\n      dup3\n        /* \"#utility.yul\":12414:12430   */\n      shr\n        /* \"#utility.yul\":12393:12430   */\n      swap1\n      pop\n        /* \"#utility.yul\":12320:12437   */\n      swap3\n      swap2\n      pop\n      pop\n      jump\t// out\n        /* \"#utility.yul\":12443:12612   */\n    tag_444:\n        /* \"#utility.yul\":12487:12493   */\n      0x00\n        /* \"#utility.yul\":12520:12571   */\n      tag_593\n        /* \"#utility.yul\":12568:12569   */\n      0x00\n        /* \"#utility.yul\":12564:12570   */\n      not\n        /* \"#utility.yul\":12556:12561   */\n      dup5\n        /* \"#utility.yul\":12553:12554   */\n      0x08\n        /* \"#utility.yul\":12549:12562   */\n      mul\n        /* \"#utility.yul\":12520:12571   */\n      tag_443\n      jump\t// in\n    tag_593:\n        /* \"#utility.yul\":12516:12572   */\n      not\n        /* \"#utility.yul\":12601:12605   */\n      dup1\n        /* \"#utility.yul\":12595:12599   */\n      dup4\n        /* \"#utility.yul\":12591:12606   */\n      and\n        /* \"#utility.yul\":12581:12606   */\n      swap2\n      pop\n        /* \"#utility.yul\":12494:12612   */\n      pop\n        /* \"#utility.yul\":12443:12612   */\n      swap3\n      swap2\n      pop\n      pop\n      jump\t// out\n        /* \"#utility.yul\":12617:12912   */\n    tag_445:\n        /* \"#utility.yul\":12693:12697   */\n      0x00\n        /* \"#utility.yul\":12839:12868   */\n      tag_595\n        /* \"#utility.yul\":12864:12867   */\n      dup4\n        /* \"#utility.yul\":12858:12862   */\n      dup4\n        /* \"#utility.yul\":12839:12868   */\n      tag_444\n      jump\t// in\n    tag_595:\n        /* \"#utility.yul\":12831:12868   */\n      swap2\n      pop\n        /* \"#utility.yul\":12901:12904   */\n      dup3\n        /* \"#utility.yul\":12898:12899   */\n      0x02\n        /* \"#utility.yul\":12894:12905   */\n      mul\n        /* \"#utility.yul\":12888:12892   */\n      dup3\n        /* \"#utility.yul\":12885:12906   */\n      or\n        /* \"#utility.yul\":12877:12906   */\n      swap1\n      pop\n        /* \"#utility.yul\":12617:12912   */\n      swap3\n      swap2\n      pop\n      pop\n      jump\t// out\n        /* \"#utility.yul\":12917:14312   */\n    tag_209:\n        /* \"#utility.yul\":13034:13071   */\n      tag_597\n        /* \"#utility.yul\":13067:13070   */\n      dup3\n        /* \"#utility.yul\":13034:13071   */\n      tag_416\n      jump\t// in\n    tag_597:\n        /* \"#utility.yul\":13136:13154   */\n      0xffffffffffffffff\n        /* \"#utility.yul\":13128:13134   */\n      dup2\n        /* \"#utility.yul\":13125:13155   */\n      gt\n        /* \"#utility.yul\":13122:13178   */\n      iszero\n      tag_598\n      jumpi\n        /* \"#utility.yul\":13158:13176   */\n      tag_599\n      tag_340\n      jump\t// in\n    tag_599:\n        /* \"#utility.yul\":13122:13178   */\n    tag_598:\n        /* \"#utility.yul\":13202:13240   */\n      tag_600\n        /* \"#utility.yul\":13234:13238   */\n      dup3\n        /* \"#utility.yul\":13228:13239   */\n      sload\n        /* \"#utility.yul\":13202:13240   */\n      tag_199\n      jump\t// in\n    tag_600:\n        /* \"#utility.yul\":13287:13354   */\n      tag_601\n        /* \"#utility.yul\":13347:13353   */\n      dup3\n        /* \"#utility.yul\":13339:13345   */\n      dup3\n        /* \"#utility.yul\":13333:13337   */\n      dup6\n        /* \"#utility.yul\":13287:13354   */\n      tag_442\n      jump\t// in\n    tag_601:\n        /* \"#utility.yul\":13381:13382   */\n      0x00\n        /* \"#utility.yul\":13405:13409   */\n      0x20\n        /* \"#utility.yul\":13392:13409   */\n      swap1\n      pop\n        /* \"#utility.yul\":13437:13439   */\n      0x1f\n        /* \"#utility.yul\":13429:13435   */\n      dup4\n        /* \"#utility.yul\":13426:13440   */\n      gt\n        /* \"#utility.yul\":13454:13455   */\n      0x01\n        /* \"#utility.yul\":13449:14067   */\n      dup2\n      eq\n      tag_603\n      jumpi\n        /* \"#utility.yul\":14111:14112   */\n      0x00\n        /* \"#utility.yul\":14128:14134   */\n      dup5\n        /* \"#utility.yul\":14125:14202   */\n      iszero\n      tag_604\n      jumpi\n        /* \"#utility.yul\":14177:14186   */\n      dup3\n        /* \"#utility.yul\":14172:14175   */\n      dup8\n        /* \"#utility.yul\":14168:14187   */\n      add\n        /* \"#utility.yul\":14162:14188   */\n      mload\n        /* \"#utility.yul\":14153:14188   */\n      swap1\n      pop\n        /* \"#utility.yul\":14125:14202   */\n    tag_604:\n        /* \"#utility.yul\":14228:14295   */\n      tag_605\n        /* \"#utility.yul\":14288:14294   */\n      dup6\n        /* \"#utility.yul\":14281:14286   */\n      dup3\n        /* \"#utility.yul\":14228:14295   */\n      tag_445\n      jump\t// in\n    tag_605:\n        /* \"#utility.yul\":14222:14226   */\n      dup7\n        /* \"#utility.yul\":14215:14296   */\n      sstore\n        /* \"#utility.yul\":14084:14306   */\n      pop\n        /* \"#utility.yul\":13419:14306   */\n      jump(tag_602)\n        /* \"#utility.yul\":13449:14067   */\n    tag_603:\n        /* \"#utility.yul\":13501:13505   */\n      0x1f\n        /* \"#utility.yul\":13497:13506   */\n      not\n        /* \"#utility.yul\":13489:13495   */\n      dup5\n        /* \"#utility.yul\":13485:13507   */\n      and\n        /* \"#utility.yul\":13535:13572   */\n      tag_606\n        /* \"#utility.yul\":13567:13571   */\n      dup7\n        /* \"#utility.yul\":13535:13572   */\n      tag_431\n      jump\t// in\n    tag_606:\n        /* \"#utility.yul\":13594:13595   */\n      0x00\n        /* \"#utility.yul\":13608:13816   */\n    tag_607:\n        /* \"#utility.yul\":13622:13629   */\n      dup3\n        /* \"#utility.yul\":13619:13620   */\n      dup2\n        /* \"#utility.yul\":13616:13630   */\n      lt\n        /* \"#utility.yul\":13608:13816   */\n      iszero\n      tag_609\n      jumpi\n        /* \"#utility.yul\":13701:13710   */\n      dup5\n        /* \"#utility.yul\":13696:13699   */\n      dup10\n        /* \"#utility.yul\":13692:13711   */\n      add\n        /* \"#utility.yul\":13686:13712   */\n      mload\n        /* \"#utility.yul\":13678:13684   */\n      dup3\n        /* \"#utility.yul\":13671:13713   */\n      sstore\n        /* \"#utility.yul\":13752:13753   */\n      0x01\n        /* \"#utility.yul\":13744:13750   */\n      dup3\n        /* \"#utility.yul\":13740:13754   */\n      add\n        /* \"#utility.yul\":13730:13754   */\n      swap2\n      pop\n        /* \"#utility.yul\":13799:13801   */\n      0x20\n        /* \"#utility.yul\":13788:13797   */\n      dup6\n        /* \"#utility.yul\":13784:13802   */\n      add\n        /* \"#utility.yul\":13771:13802   */\n      swap5\n      pop\n        /* \"#utility.yul\":13645:13649   */\n      0x20\n        /* \"#utility.yul\":13642:13643   */\n      dup2\n        /* \"#utility.yul\":13638:13650   */\n      add\n        /* \"#utility.yul\":13633:13650   */\n      swap1\n      pop\n        /* \"#utility.yul\":13608:13816   */\n      jump(tag_607)\n    tag_609:\n        /* \"#utility.yul\":13844:13850   */\n      dup7\n        /* \"#utility.yul\":13835:13842   */\n      dup4\n        /* \"#utility.yul\":13832:13851   */\n      lt\n        /* \"#utility.yul\":13829:14008   */\n      iszero\n      tag_610\n      jumpi\n        /* \"#utility.yul\":13902:13911   */\n      dup5\n        /* \"#utility.yul\":13897:13900   */\n      dup10\n        /* \"#utility.yul\":13893:13912   */\n      add\n        /* \"#utility.yul\":13887:13913   */\n      mload\n        /* \"#utility.yul\":13945:13993   */\n      tag_611\n        /* \"#utility.yul\":13987:13991   */\n      0x1f\n        /* \"#utility.yul\":13979:13985   */\n      dup10\n        /* \"#utility.yul\":13975:13992   */\n      and\n        /* \"#utility.yul\":13964:13973   */\n      dup3\n        /* \"#utility.yul\":13945:13993   */\n      tag_444\n      jump\t// in\n    tag_611:\n        /* \"#utility.yul\":13937:13943   */\n      dup4\n        /* \"#utility.yul\":13930:13994   */\n      sstore\n        /* \"#utility.yul\":13852:14008   */\n      pop\n        /* \"#utility.yul\":13829:14008   */\n    tag_610:\n        /* \"#utility.yul\":14054:14055   */\n      0x01\n        /* \"#utility.yul\":14050:14051   */\n      0x02\n        /* \"#utility.yul\":14042:14048   */\n      dup9\n        /* \"#utility.yul\":14038:14052   */\n      mul\n        /* \"#utility.yul\":14034:14056   */\n      add\n        /* \"#utility.yul\":14028:14032   */\n      dup9\n        /* \"#utility.yul\":14021:14057   */\n      sstore\n        /* \"#utility.yul\":13456:14067   */\n      pop\n      pop\n      pop\n        /* \"#utility.yul\":13419:14306   */\n    tag_602:\n      pop\n        /* \"#utility.yul\":13009:14312   */\n      pop\n      pop\n      pop\n        /* \"#utility.yul\":12917:14312   */\n      pop\n      pop\n      jump\t// out\n        /* \"#utility.yul\":14318:14498   */\n    tag_446:\n        /* \"#utility.yul\":14366:14443   */\n      0x4e487b7100000000000000000000000000000000000000000000000000000000\n        /* \"#utility.yul\":14363:14364   */\n      0x00\n        /* \"#utility.yul\":14356:14444   */\n      mstore\n        /* \"#utility.yul\":14463:14467   */\n      0x11\n        /* \"#utility.yul\":14460:14461   */\n      0x04\n        /* \"#utility.yul\":14453:14468   */\n      mstore\n        /* \"#utility.yul\":14487:14491   */\n      0x24\n        /* \"#utility.yul\":14484:14485   */\n      0x00\n        /* \"#utility.yul\":14477:14492   */\n      revert\n        /* \"#utility.yul\":14504:14737   */\n    tag_212:\n        /* \"#utility.yul\":14543:14546   */\n      0x00\n        /* \"#utility.yul\":14566:14590   */\n      tag_614\n        /* \"#utility.yul\":14584:14589   */\n      dup3\n        /* \"#utility.yul\":14566:14590   */\n      tag_406\n      jump\t// in\n    tag_614:\n        /* \"#utility.yul\":14557:14590   */\n      swap2\n      pop\n        /* \"#utility.yul\":14612:14678   */\n      0xffffffffffffffffffffffffffffffffffffffffffffffffffffffffffffffff\n        /* \"#utility.yul\":14605:14610   */\n      dup3\n        /* \"#utility.yul\":14602:14679   */\n      sub\n        /* \"#utility.yul\":14599:14702   */\n      tag_615\n      jumpi\n        /* \"#utility.yul\":14682:14700   */\n      tag_616\n      tag_446\n      jump\t// in\n    tag_616:\n        /* \"#utility.yul\":14599:14702   */\n    tag_615:\n        /* \"#utility.yul\":14729:14730   */\n      0x01\n        /* \"#utility.yul\":14722:14727   */\n      dup3\n        /* \"#utility.yul\":14718:14731   */\n      add\n        /* \"#utility.yul\":14711:14731   */\n      swap1\n      pop\n        /* \"#utility.yul\":14504:14737   */\n      swap2\n      swap1\n      pop\n      jump\t// out\n        /* \"#utility.yul\":14743:14934   */\n    tag_215:\n        /* \"#utility.yul\":14783:14787   */\n      0x00\n        /* \"#utility.yul\":14803:14823   */\n      tag_618\n        /* \"#utility.yul\":14821:14822   */\n      dup3\n        /* \"#utility.yul\":14803:14823   */\n      tag_406\n      jump\t// in\n    tag_618:\n        /* \"#utility.yul\":14798:14823   */\n      swap2\n      pop\n        /* \"#utility.yul\":14837:14857   */\n      tag_619\n        /* \"#utility.yul\":14855:14856   */\n      dup4\n        /* \"#utility.yul\":14837:14857   */\n      tag_406\n      jump\t// in\n    tag_619:\n        /* \"#utility.yul\":14832:14857   */\n      swap3\n      pop\n        /* \"#utility.yul\":14876:14877   */\n      dup3\n        /* \"#utility.yul\":14873:14874   */\n      dup3\n        /* \"#utility.yul\":14870:14878   */\n      lt\n        /* \"#utility.yul\":14867:14901   */\n      iszero\n      tag_620\n      jumpi\n        /* \"#utility.yul\":14881:14899   */\n      tag_621\n      tag_446\n      jump\t// in\n    tag_621:\n        /* \"#utility.yul\":14867:14901   */\n    tag_620:\n        /* \"#utility.yul\":14926:14927   */\n      dup3\n        /* \"#utility.yul\":14923:14924   */\n      dup3\n        /* \"#utility.yul\":14919:14928   */\n      sub\n        /* \"#utility.yul\":14911:14928   */\n      swap1\n      pop\n        /* \"#utility.yul\":14743:14934   */\n      swap3\n      swap2\n      pop\n      pop\n      jump\t// out\n        /* \"#utility.yul\":14940:15288   */\n    tag_217:\n        /* \"#utility.yul\":14980:14987   */\n      0x00\n        /* \"#utility.yul\":15003:15023   */\n      tag_623\n        /* \"#utility.yul\":15021:15022   */\n      dup3\n        /* \"#utility.yul\":15003:15023   */\n      tag_406\n      jump\t// in\n    tag_623:\n        /* \"#utility.yul\":14998:15023   */\n      swap2\n      pop\n        /* \"#utility.yul\":15037:15057   */\n      tag_624\n        /* \"#utility.yul\":15055:15056   */\n      dup4\n        /* \"#utility.yul\":15037:15057   */\n      tag_406\n      jump\t// in\n    tag_624:\n        /* \"#utility.yul\":15032:15057   */\n      swap3\n      pop\n        /* \"#utility.yul\":15225:15226   */\n      dup2\n        /* \"#utility.yul\":15157:15223   */\n      0xffffffffffffffffffffffffffffffffffffffffffffffffffffffffffffffff\n        /* \"#utility.yul\":15153:15227   */\n      div\n        /* \"#utility.yul\":15150:15151   */\n      dup4\n        /* \"#utility.yul\":15147:15228   */\n      gt\n        /* \"#utility.yul\":15142:15143   */\n      dup3\n        /* \"#utility.yul\":15135:15144   */\n      iszero\n        /* \"#utility.yul\":15128:15145   */\n      iszero\n        /* \"#utility.yul\":15124:15229   */\n      and\n        /* \"#utility.yul\":15121:15252   */\n      iszero\n      tag_625\n      jumpi\n        /* \"#utility.yul\":15232:15250   */\n      tag_626\n      tag_446\n      jump\t// in\n    tag_626:\n        /* \"#utility.yul\":15121:15252   */\n    tag_625:\n        /* \"#utility.yul\":15280:15281   */\n      dup3\n        /* \"#utility.yul\":15277:15278   */\n      dup3\n        /* \"#utility.yul\":15273:15282   */\n      mul\n        /* \"#utility.yul\":15262:15282   */\n      swap1\n      pop\n        /* \"#utility.yul\":14940:15288   */\n      swap3\n      swap2\n      pop\n      pop\n      jump\t// out\n        /* \"#utility.yul\":15294:15474   */\n    tag_447:\n        /* \"#utility.yul\":15342:15419   */\n      0x4e487b7100000000000000000000000000000000000000000000000000000000\n        /* \"#utility.yul\":15339:15340   */\n      0x00\n        /* \"#utility.yul\":15332:15420   */\n      mstore\n        /* \"#utility.yul\":15439:15443   */\n      0x12\n        /* \"#utility.yul\":15436:15437   */\n      0x04\n        /* \"#utility.yul\":15429:15444   */\n      mstore\n        /* \"#utility.yul\":15463:15467   */\n      0x24\n        /* \"#utility.yul\":15460:15461   */\n      0x00\n        /* \"#utility.yul\":15453:15468   */\n      revert\n        /* \"#utility.yul\":15480:15665   */\n    tag_219:\n        /* \"#utility.yul\":15520:15521   */\n      0x00\n        /* \"#utility.yul\":15537:15557   */\n      tag_629\n        /* \"#utility.yul\":15555:15556   */\n      dup3\n        /* \"#utility.yul\":15537:15557   */\n      tag_406\n      jump\t// in\n    tag_629:\n        /* \"#utility.yul\":15532:15557   */\n      swap2\n      pop\n        /* \"#utility.yul\":15571:15591   */\n      tag_630\n        /* \"#utility.yul\":15589:15590   */\n      dup4\n        /* \"#utility.yul\":15571:15591   */\n      tag_406\n      jump\t// in\n    tag_630:\n        /* \"#utility.yul\":15566:15591   */\n      swap3\n      pop\n        /* \"#utility.yul\":15610:15611   */\n      dup3\n        /* \"#utility.yul\":15600:15635   */\n      tag_631\n      jumpi\n        /* \"#utility.yul\":15615:15633   */\n      tag_632\n      tag_447\n      jump\t// in\n    tag_632:\n        /* \"#utility.yul\":15600:15635   */\n    tag_631:\n        /* \"#utility.yul\":15657:15658   */\n      dup3\n        /* \"#utility.yul\":15654:15655   */\n      dup3\n        /* \"#utility.yul\":15650:15659   */\n      div\n        /* \"#utility.yul\":15645:15659   */\n      swap1\n      pop\n        /* \"#utility.yul\":15480:15665   */\n      swap3\n      swap2\n      pop\n      pop\n      jump\t// out\n        /* \"#utility.yul\":15671:15976   */\n    tag_285:\n        /* \"#utility.yul\":15711:15714   */\n      0x00\n        /* \"#utility.yul\":15730:15750   */\n      tag_634\n        /* \"#utility.yul\":15748:15749   */\n      dup3\n        /* \"#utility.yul\":15730:15750   */\n      tag_406\n      jump\t// in\n    tag_634:\n        /* \"#utility.yul\":15725:15750   */\n      swap2\n      pop\n        /* \"#utility.yul\":15764:15784   */\n      tag_635\n        /* \"#utility.yul\":15782:15783   */\n      dup4\n        /* \"#utility.yul\":15764:15784   */\n      tag_406\n      jump\t// in\n    tag_635:\n        /* \"#utility.yul\":15759:15784   */\n      swap3\n      pop\n        /* \"#utility.yul\":15918:15919   */\n      dup3\n        /* \"#utility.yul\":15850:15916   */\n      0xffffffffffffffffffffffffffffffffffffffffffffffffffffffffffffffff\n        /* \"#utility.yul\":15846:15920   */\n      sub\n        /* \"#utility.yul\":15843:15844   */\n      dup3\n        /* \"#utility.yul\":15840:15921   */\n      gt\n        /* \"#utility.yul\":15837:15944   */\n      iszero\n      tag_636\n      jumpi\n        /* \"#utility.yul\":15924:15942   */\n      tag_637\n      tag_446\n      jump\t// in\n    tag_637:\n        /* \"#utility.yul\":15837:15944   */\n    tag_636:\n        /* \"#utility.yul\":15968:15969   */\n      dup3\n        /* \"#utility.yul\":15965:15966   */\n      dup3\n        /* \"#utility.yul\":15961:15970   */\n      add\n        /* \"#utility.yul\":15954:15970   */\n      swap1\n      pop\n        /* \"#utility.yul\":15671:15976   */\n      swap3\n      swap2\n      pop\n      pop\n      jump\t// out\n        /* \"#utility.yul\":15982:16153   */\n    tag_305:\n        /* \"#utility.yul\":16021:16024   */\n      0x00\n        /* \"#utility.yul\":16044:16068   */\n      tag_639\n        /* \"#utility.yul\":16062:16067   */\n      dup3\n        /* \"#utility.yul\":16044:16068   */\n      tag_406\n      jump\t// in\n    tag_639:\n        /* \"#utility.yul\":16035:16068   */\n      swap2\n      pop\n        /* \"#utility.yul\":16090:16094   */\n      0x00\n        /* \"#utility.yul\":16083:16088   */\n      dup3\n        /* \"#utility.yul\":16080:16095   */\n      sub\n        /* \"#utility.yul\":16077:16118   */\n      tag_640\n      jumpi\n        /* \"#utility.yul\":16098:16116   */\n      tag_641\n      tag_446\n      jump\t// in\n    tag_641:\n        /* \"#utility.yul\":16077:16118   */\n    tag_640:\n        /* \"#utility.yul\":16145:16146   */\n      0x01\n        /* \"#utility.yul\":16138:16143   */\n      dup3\n        /* \"#utility.yul\":16134:16147   */\n      sub\n        /* \"#utility.yul\":16127:16147   */\n      swap1\n      pop\n        /* \"#utility.yul\":15982:16153   */\n      swap2\n      swap1\n      pop\n      jump\t// out\n\n    auxdata: 0xa26469706673582212200c824e46e0d3881c85ce38e91d7adb2354f57b9c7de29c68a2e27ffef67ebf7764736f6c634300080f0033\n}\n","bytecode":{"linkReferences":{},"object":"608060405261032060005560646001556014600255600460035560006009556000600b553480156200003057600080fd5b5060405162003251380380620032518339818101604052810190620000569190620003a5565b80600490816200006791906200068d565b5081600660006101000a81548173ffffffffffffffffffffffffffffffffffffffff021916908373ffffffffffffffffffffffffffffffffffffffff16021790555082600560006101000a81548173ffffffffffffffffffffffffffffffffffffffff021916908373ffffffffffffffffffffffffffffffffffffffff16021790555084600f81905550426010819055506201518084620001099190620007a3565b4262000116919062000804565b601281905550620151806002546200012f9190620007a3565b426200013c919062000804565b6011819055506000601360006101000a81548160ff021916908315150217905550505050505062000861565b6000604051905090565b600080fd5b600080fd5b6000819050919050565b62000191816200017c565b81146200019d57600080fd5b50565b600081519050620001b18162000186565b92915050565b600073ffffffffffffffffffffffffffffffffffffffff82169050919050565b6000620001e482620001b7565b9050919050565b620001f681620001d7565b81146200020257600080fd5b50565b6000815190506200021681620001eb565b92915050565b600080fd5b600080fd5b6000601f19601f8301169050919050565b7f4e487b7100000000000000000000000000000000000000000000000000000000600052604160045260246000fd5b620002718262000226565b810181811067ffffffffffffffff8211171562000293576200029262000237565b5b80604052505050565b6000620002a862000168565b9050620002b6828262000266565b919050565b600067ffffffffffffffff821115620002d957620002d862000237565b5b620002e48262000226565b9050602081019050919050565b60005b8381101562000311578082015181840152602081019050620002f4565b8381111562000321576000848401525b50505050565b60006200033e6200033884620002bb565b6200029c565b9050828152602081018484840111156200035d576200035c62000221565b5b6200036a848285620002f1565b509392505050565b600082601f8301126200038a57620003896200021c565b5b81516200039c84826020860162000327565b91505092915050565b600080600080600060a08688031215620003c457620003c362000172565b5b6000620003d488828901620001a0565b9550506020620003e788828901620001a0565b9450506040620003fa8882890162000205565b93505060606200040d8882890162000205565b925050608086015167ffffffffffffffff81111562000431576200043062000177565b5b6200043f8882890162000372565b9150509295509295909350565b600081519050919050565b7f4e487b7100000000000000000000000000000000000000000000000000000000600052602260045260246000fd5b600060028204905060018216806200049f57607f821691505b602082108103620004b557620004b462000457565b5b50919050565b60008190508160005260206000209050919050565b60006020601f8301049050919050565b600082821b905092915050565b6000600883026200051f7fffffffffffffffffffffffffffffffffffffffffffffffffffffffffffffffff82620004e0565b6200052b8683620004e0565b95508019841693508086168417925050509392505050565b6000819050919050565b60006200056e6200056862000562846200017c565b62000543565b6200017c565b9050919050565b6000819050919050565b6200058a836200054d565b620005a2620005998262000575565b848454620004ed565b825550505050565b600090565b620005b9620005aa565b620005c68184846200057f565b505050565b5b81811015620005ee57620005e2600082620005af565b600181019050620005cc565b5050565b601f8211156200063d576200060781620004bb565b6200061284620004d0565b8101602085101562000622578190505b6200063a6200063185620004d0565b830182620005cb565b50505b505050565b600082821c905092915050565b6000620006626000198460080262000642565b1980831691505092915050565b60006200067d83836200064f565b9150826002028217905092915050565b62000698826200044c565b67ffffffffffffffff811115620006b457620006b362000237565b5b620006c0825462000486565b620006cd828285620005f2565b600060209050601f831160018114620007055760008415620006f0578287015190505b620006fc85826200066f565b8655506200076c565b601f1984166200071586620004bb565b60005b828110156200073f5784890151825560018201915060208501945060208101905062000718565b868310156200075f57848901516200075b601f8916826200064f565b8355505b6001600288020188555050505b505050505050565b7f4e487b7100000000000000000000000000000000000000000000000000000000600052601160045260246000fd5b6000620007b0826200017c565b9150620007bd836200017c565b9250817fffffffffffffffffffffffffffffffffffffffffffffffffffffffffffffffff0483118215151615620007f957620007f862000774565b5b828202905092915050565b600062000811826200017c565b91506200081e836200017c565b9250827fffffffffffffffffffffffffffffffffffffffffffffffffffffffffffffffff0382111562000856576200085562000774565b5b828201905092915050565b6129e080620008716000396000f3fe6080604052600436106101f85760003560e01c8063937e09b11161010d578063d7898240116100a0578063f63f96551161006f578063f63f9655146106fe578063fbae5e7d1461073f578063fd74d2941461077c578063fda263e8146107a7578063ff65226c146107d2576101f8565b8063d789824014610642578063d7d1bbdb1461067f578063e028a693146106a8578063e0d370ac146106d3576101f8565b8063a4758c9a116100dc578063a4758c9a146105a5578063acdb8341146105d0578063b2f8be5c146105fb578063b688a36314610638576101f8565b8063937e09b1146104f4578063972c53561461051f57806398e1b4101461054a578063999cc5ca14610568576101f8565b806332b7acec11610190578063481c6a751161015f578063481c6a75146104595780635fb02f4d14610484578063789b2e6c1461049b578063864a53dc146104b25780638975aa08146104c9576101f8565b806332b7acec14610377578063364548cd146103b45780633ba20f2a146103f15780633d22aea81461041c576101f8565b80632b84b316116101cc5780632b84b316146102cd5780632ef3fa27146102f65780632f5274e31461032157806331d0e40f1461034c576101f8565b806260929a146101fd578063019998701461023a57806306fdde03146102655780631e28528e14610290575b600080fd5b34801561020957600080fd5b50610224600480360381019061021f9190612079565b6107fd565b60405161023191906120d4565b60405180910390f35b34801561024657600080fd5b5061024f61087c565b60405161025c91906120fe565b60405180910390f35b34801561027157600080fd5b5061027a610882565b60405161028791906121b2565b60405180910390f35b34801561029c57600080fd5b506102b760048036038101906102b291906121d4565b610910565b6040516102c491906120d4565b60405180910390f35b3480156102d957600080fd5b506102f460048036038101906102ef9190612336565b610930565b005b34801561030257600080fd5b5061030b6109f9565b60405161031891906120fe565b60405180910390f35b34801561032d57600080fd5b50610336610a28565b60405161034391906120fe565b60405180910390f35b34801561035857600080fd5b50610361610a2e565b60405161036e91906120fe565b60405180910390f35b34801561038357600080fd5b5061039e600480360381019061039991906121d4565b610a34565b6040516103ab91906120fe565b60405180910390f35b3480156103c057600080fd5b506103db60048036038101906103d691906121d4565b610a4c565b6040516103e891906120d4565b60405180910390f35b3480156103fd57600080fd5b50610406610a6c565b60405161041391906120fe565b60405180910390f35b34801561042857600080fd5b50610443600480360381019061043e91906123c1565b610a72565b60405161045091906120d4565b60405180910390f35b34801561046557600080fd5b5061046e610bc7565b60405161047b91906123fd565b60405180910390f35b34801561049057600080fd5b50610499610bed565b005b3480156104a757600080fd5b506104b0610d24565b005b3480156104be57600080fd5b506104c7610fa8565b005b3480156104d557600080fd5b506104de61111c565b6040516104eb91906120fe565b60405180910390f35b34801561050057600080fd5b50610509611122565b60405161051691906120fe565b60405180910390f35b34801561052b57600080fd5b50610534611128565b60405161054191906120fe565b60405180910390f35b61055261112e565b60405161055f91906120d4565b60405180910390f35b34801561057457600080fd5b5061058f600480360381019061058a91906121d4565b611137565b60405161059c91906120d4565b60405180910390f35b3480156105b157600080fd5b506105ba611157565b6040516105c791906120fe565b60405180910390f35b3480156105dc57600080fd5b506105e561115d565b6040516105f291906120fe565b60405180910390f35b34801561060757600080fd5b50610622600480360381019061061d9190612418565b611275565b60405161062f91906120d4565b60405180910390f35b6106406114d8565b005b34801561064e57600080fd5b50610669600480360381019061066491906121d4565b611621565b60405161067691906120fe565b60405180910390f35b34801561068b57600080fd5b506106a660048036038101906106a191906123c1565b611639565b005b3480156106b457600080fd5b506106bd611786565b6040516106ca91906120fe565b60405180910390f35b3480156106df57600080fd5b506106e861178c565b6040516106f591906123fd565b60405180910390f35b34801561070a57600080fd5b50610725600480360381019061072091906123c1565b6117b2565b604051610736959493929190612458565b60405180910390f35b34801561074b57600080fd5b50610766600480360381019061076191906123c1565b611915565b60405161077391906123fd565b60405180910390f35b34801561078857600080fd5b50610791611954565b60405161079e91906120fe565b60405180910390f35b3480156107b357600080fd5b506107bc61195a565b6040516107c991906120fe565b60405180910390f35b3480156107de57600080fd5b506107e7611960565b6040516107f491906120d4565b60405180910390f35b60008060148481548110610814576108136124b9565b5b906000526020600020906006020190508060050160008473ffffffffffffffffffffffffffffffffffffffff1673ffffffffffffffffffffffffffffffffffffffff16815260200190815260200160002060009054906101000a900460ff1691505092915050565b600b5481565b6004805461088f90612517565b80601f01602080910402602001604051908101604052809291908181526020018280546108bb90612517565b80156109085780601f106108dd57610100808354040283529160200191610908565b820191906000526020600020905b8154815290600101906020018083116108eb57829003601f168201915b505050505081565b60076020528060005260406000206000915054906101000a900460ff1681565b600560009054906101000a900473ffffffffffffffffffffffffffffffffffffffff1673ffffffffffffffffffffffffffffffffffffffff163373ffffffffffffffffffffffffffffffffffffffff161461098a57600080fd5b600060146001816001815401808255809150500390600052602060002090600602019050828160000190816109bf91906126f4565b50818160020181905550838160010190816109da91906126f4565b50601560008154809291906109ee906127f5565b919050555050505050565b60006103e86001546103e8610a0e919061283d565b47610a199190612871565b610a2391906128fa565b905090565b601a5481565b60185481565b600d6020528060005260406000206000915090505481565b60086020528060005260406000206000915054906101000a900460ff1681565b60115481565b600060011515601360009054906101000a900460ff16151514610a9457600080fd5b600560009054906101000a900473ffffffffffffffffffffffffffffffffffffffff1673ffffffffffffffffffffffffffffffffffffffff163373ffffffffffffffffffffffffffffffffffffffff1614610aee57600080fd5b600060148381548110610b0457610b036124b9565b5b906000526020600020906006020190506002600354610b2391906128fa565b81600401541015610b3357600080fd5b600660009054906101000a900473ffffffffffffffffffffffffffffffffffffffff1673ffffffffffffffffffffffffffffffffffffffff166108fc82600201549081150290604051600060405180830381858888f19350505050158015610b9f573d6000803e3d6000fd5b5060018160030160006101000a81548160ff0219169083151502179055506001915050919050565b600560009054906101000a900473ffffffffffffffffffffffffffffffffffffffff1681565b6001601360006101000a81548160ff0219169083151502179055506000479050600080600090505b600a80549050811015610d17576000600a8281548110610c3857610c376124b9565b5b9060005260206000200160009054906101000a900473ffffffffffffffffffffffffffffffffffffffff169050600c60008273ffffffffffffffffffffffffffffffffffffffff1673ffffffffffffffffffffffffffffffffffffffff168152602001908152602001600020549250836103e884610cb69190612871565b610cc091906128fa565b600d60008373ffffffffffffffffffffffffffffffffffffffff1673ffffffffffffffffffffffffffffffffffffffff16815260200190815260200160002081905550508080610d0f906127f5565b915050610c15565b50610d20611973565b5050565b6002600354610d3391906128fa565b600954101580610d56575060001515601360009054906101000a900460ff161515145b610d5f57600080fd5b600660009054906101000a900473ffffffffffffffffffffffffffffffffffffffff1673ffffffffffffffffffffffffffffffffffffffff163373ffffffffffffffffffffffffffffffffffffffff1614610db957600080fd5b610dc16109f9565b60198190555060005b600a80549050811015610f33576000600a8281548110610ded57610dec6124b9565b5b9060005260206000200160009054906101000a900473ffffffffffffffffffffffffffffffffffffffff16905060001515600e60008373ffffffffffffffffffffffffffffffffffffffff1673ffffffffffffffffffffffffffffffffffffffff16815260200190815260200160002060009054906101000a900460ff16151503610f1f576000600d60008373ffffffffffffffffffffffffffffffffffffffff1673ffffffffffffffffffffffffffffffffffffffff16815260200190815260200160002054905060006103e860195483610ec99190612871565b610ed391906128fa565b90508273ffffffffffffffffffffffffffffffffffffffff166108fc829081150290604051600060405180830381858888f19350505050158015610f1b573d6000803e3d6000fd5b5050505b508080610f2b906127f5565b915050610dca565b5047601881905550600560009054906101000a900473ffffffffffffffffffffffffffffffffffffffff1673ffffffffffffffffffffffffffffffffffffffff166108fc6018549081150290604051600060405180830381858888f19350505050158015610fa5573d6000803e3d6000fd5b50565b60011515601360009054906101000a900460ff16151514610fc857600080fd5b600760003373ffffffffffffffffffffffffffffffffffffffff1673ffffffffffffffffffffffffffffffffffffffff16815260200190815260200160002060009054906101000a900460ff1661101e57600080fd5b60001515600860003373ffffffffffffffffffffffffffffffffffffffff1673ffffffffffffffffffffffffffffffffffffffff16815260200190815260200160002060009054906101000a900460ff161515036110e7576001600860003373ffffffffffffffffffffffffffffffffffffffff1673ffffffffffffffffffffffffffffffffffffffff16815260200190815260200160002060006101000a81548160ff021916908315150217905550600960008154809291906110e1906127f5565b91905055505b60026003546110f691906128fa565b6009541061111a576000601360006101000a81548160ff0219169083151502179055505b565b60175481565b600f5481565b60155481565b60006001905090565b600e6020528060005260406000206000915054906101000a900460ff1681565b60195481565b60008060005b600a8054905081101561126d576000600a8281548110611186576111856124b9565b5b9060005260206000200160009054906101000a900473ffffffffffffffffffffffffffffffffffffffff16905060001515600e60008373ffffffffffffffffffffffffffffffffffffffff1673ffffffffffffffffffffffffffffffffffffffff16815260200190815260200160002060009054906101000a900460ff1615150361125957600d60008273ffffffffffffffffffffffffffffffffffffffff1673ffffffffffffffffffffffffffffffffffffffff1681526020019081526020016000205483611256919061292b565b92505b508080611265906127f5565b915050611163565b508091505090565b600060011515601360009054906101000a900460ff1615151461129757600080fd5b600660009054906101000a900473ffffffffffffffffffffffffffffffffffffffff1673ffffffffffffffffffffffffffffffffffffffff163373ffffffffffffffffffffffffffffffffffffffff16146112f157600080fd5b60001515600760003373ffffffffffffffffffffffffffffffffffffffff1673ffffffffffffffffffffffffffffffffffffffff16815260200190815260200160002060009054906101000a900460ff1615151461134e57600080fd5b6000600d60008573ffffffffffffffffffffffffffffffffffffffff1673ffffffffffffffffffffffffffffffffffffffff168152602001908152602001600020549050600061139c6109f9565b846113a7919061292b565b905060006103e86000546103e885856113c09190612871565b6113ca91906128fa565b6113d49190612871565b6113de91906128fa565b9050806017819055504781116114ca57601754601a819055508573ffffffffffffffffffffffffffffffffffffffff166108fc829081150290604051600060405180830381858888f1935050505015801561143d573d6000803e3d6000fd5b506001600e60008873ffffffffffffffffffffffffffffffffffffffff1673ffffffffffffffffffffffffffffffffffffffff16815260200190815260200160002060006101000a81548160ff021916908315150217905550806016819055506114a683611e59565b600b60008154809291906114b990612981565b9190505550600193505050506114d2565b600093505050505b92915050565b60001515601360009054906101000a900460ff161515146114f857600080fd5b6000600c60003373ffffffffffffffffffffffffffffffffffffffff1673ffffffffffffffffffffffffffffffffffffffff168152602001908152602001600020549050600081036115cf57600f5434101561155357600080fd5b600a339080600181540180825580915050600190039060005260206000200160009091909190916101000a81548173ffffffffffffffffffffffffffffffffffffffff021916908373ffffffffffffffffffffffffffffffffffffffff160217905550600b60008154809291906115c9906127f5565b91905055505b34816115db919061292b565b600c60003373ffffffffffffffffffffffffffffffffffffffff1673ffffffffffffffffffffffffffffffffffffffff1681526020019081526020016000208190555050565b600c6020528060005260406000206000915090505481565b600760003373ffffffffffffffffffffffffffffffffffffffff1673ffffffffffffffffffffffffffffffffffffffff16815260200190815260200160002060009054906101000a900460ff1661168f57600080fd5b6000601482815481106116a5576116a46124b9565b5b906000526020600020906006020190508060050160003373ffffffffffffffffffffffffffffffffffffffff1673ffffffffffffffffffffffffffffffffffffffff16815260200190815260200160002060009054906101000a900460ff161561170e57600080fd5b60018160050160003373ffffffffffffffffffffffffffffffffffffffff1673ffffffffffffffffffffffffffffffffffffffff16815260200190815260200160002060006101000a81548160ff02191690831515021790555080600401600081548092919061177d906127f5565b91905055505050565b60165481565b600660009054906101000a900473ffffffffffffffffffffffffffffffffffffffff1681565b601481815481106117c257600080fd5b90600052602060002090600602016000915090508060000180546117e590612517565b80601f016020809104026020016040519081016040528092919081815260200182805461181190612517565b801561185e5780601f106118335761010080835404028352916020019161185e565b820191906000526020600020905b81548152906001019060200180831161184157829003601f168201915b50505050509080600101805461187390612517565b80601f016020809104026020016040519081016040528092919081815260200182805461189f90612517565b80156118ec5780601f106118c1576101008083540402835291602001916118ec565b820191906000526020600020905b8154815290600101906020018083116118cf57829003601f168201915b5050505050908060020154908060030160009054906101000a900460ff16908060040154905085565b600a818154811061192557600080fd5b906000526020600020016000915054906101000a900473ffffffffffffffffffffffffffffffffffffffff1681565b60105481565b60125481565b601360009054906101000a900460ff1681565b600060035467ffffffffffffffff8111156119915761199061220b565b5b6040519080825280602002602001820160405280156119bf5781602001602082028036833780820191505090505b509050600060035467ffffffffffffffff8111156119e0576119df61220b565b5b604051908082528060200260200182016040528015611a0e5781602001602082028036833780820191505090505b50905060008060009050600080600a600081548110611a3057611a2f6124b9565b5b9060005260206000200160009054906101000a900473ffffffffffffffffffffffffffffffffffffffff1690508086600081518110611a7257611a716124b9565b5b602002602001019073ffffffffffffffffffffffffffffffffffffffff16908173ffffffffffffffffffffffffffffffffffffffff1681525050600c60008273ffffffffffffffffffffffffffffffffffffffff1673ffffffffffffffffffffffffffffffffffffffff1681526020019081526020016000205493508385600081518110611b0357611b026124b9565b5b6020026020010181815250506000600190505b600354811015611c3357600a8181548110611b3457611b336124b9565b5b9060005260206000200160009054906101000a900473ffffffffffffffffffffffffffffffffffffffff16915081878281518110611b7557611b746124b9565b5b602002602001019073ffffffffffffffffffffffffffffffffffffffff16908173ffffffffffffffffffffffffffffffffffffffff1681525050600c60008373ffffffffffffffffffffffffffffffffffffffff1673ffffffffffffffffffffffffffffffffffffffff16815260200190815260200160002054925082868281518110611c0557611c046124b9565b5b60200260200101818152505082851115611c20578294508093505b8080611c2b906127f5565b915050611b16565b50600060035490505b600a80549050811015611dbd57600a8181548110611c5d57611c5c6124b9565b5b9060005260206000200160009054906101000a900473ffffffffffffffffffffffffffffffffffffffff169150600c60008373ffffffffffffffffffffffffffffffffffffffff1673ffffffffffffffffffffffffffffffffffffffff16815260200190815260200160002054925084831115611daa5781878581518110611ce857611ce76124b9565b5b602002602001019073ffffffffffffffffffffffffffffffffffffffff16908173ffffffffffffffffffffffffffffffffffffffff168152505082868581518110611d3657611d356124b9565b5b60200260200101818152505082945060005b600354811015611da85785878281518110611d6657611d656124b9565b5b60200260200101511015611d9557868181518110611d8757611d866124b9565b5b602002602001015195508094505b8080611da0906127f5565b915050611d48565b505b8080611db5906127f5565b915050611c3c565b5060005b600354811015611e5057600160076000898481518110611de457611de36124b9565b5b602002602001015173ffffffffffffffffffffffffffffffffffffffff1673ffffffffffffffffffffffffffffffffffffffff16815260200190815260200160002060006101000a81548160ff0219169083151502179055508080611e48906127f5565b915050611dc1565b50505050505050565b6000816103e8611e69919061283d565b905060005b600a80549050811015611fcc576000600a8281548110611e9157611e906124b9565b5b9060005260206000200160009054906101000a900473ffffffffffffffffffffffffffffffffffffffff16905060001515600e60008373ffffffffffffffffffffffffffffffffffffffff1673ffffffffffffffffffffffffffffffffffffffff16815260200190815260200160002060009054906101000a900460ff16151503611fb8576000836103e8600d60008573ffffffffffffffffffffffffffffffffffffffff1673ffffffffffffffffffffffffffffffffffffffff16815260200190815260200160002054611f669190612871565b611f7091906128fa565b905080600d60008473ffffffffffffffffffffffffffffffffffffffff1673ffffffffffffffffffffffffffffffffffffffff16815260200190815260200160002081905550505b508080611fc4906127f5565b915050611e6e565b505050565b6000604051905090565b600080fd5b600080fd5b6000819050919050565b611ff881611fe5565b811461200357600080fd5b50565b60008135905061201581611fef565b92915050565b600073ffffffffffffffffffffffffffffffffffffffff82169050919050565b60006120468261201b565b9050919050565b6120568161203b565b811461206157600080fd5b50565b6000813590506120738161204d565b92915050565b600080604083850312156120905761208f611fdb565b5b600061209e85828601612006565b92505060206120af85828601612064565b9150509250929050565b60008115159050919050565b6120ce816120b9565b82525050565b60006020820190506120e960008301846120c5565b92915050565b6120f881611fe5565b82525050565b600060208201905061211360008301846120ef565b92915050565b600081519050919050565b600082825260208201905092915050565b60005b83811015612153578082015181840152602081019050612138565b83811115612162576000848401525b50505050565b6000601f19601f8301169050919050565b600061218482612119565b61218e8185612124565b935061219e818560208601612135565b6121a781612168565b840191505092915050565b600060208201905081810360008301526121cc8184612179565b905092915050565b6000602082840312156121ea576121e9611fdb565b5b60006121f884828501612064565b91505092915050565b600080fd5b600080fd5b7f4e487b7100000000000000000000000000000000000000000000000000000000600052604160045260246000fd5b61224382612168565b810181811067ffffffffffffffff821117156122625761226161220b565b5b80604052505050565b6000612275611fd1565b9050612281828261223a565b919050565b600067ffffffffffffffff8211156122a1576122a061220b565b5b6122aa82612168565b9050602081019050919050565b82818337600083830152505050565b60006122d96122d484612286565b61226b565b9050828152602081018484840111156122f5576122f4612206565b5b6123008482856122b7565b509392505050565b600082601f83011261231d5761231c612201565b5b813561232d8482602086016122c6565b91505092915050565b60008060006060848603121561234f5761234e611fdb565b5b600084013567ffffffffffffffff81111561236d5761236c611fe0565b5b61237986828701612308565b935050602084013567ffffffffffffffff81111561239a57612399611fe0565b5b6123a686828701612308565b92505060406123b786828701612006565b9150509250925092565b6000602082840312156123d7576123d6611fdb565b5b60006123e584828501612006565b91505092915050565b6123f78161203b565b82525050565b600060208201905061241260008301846123ee565b92915050565b6000806040838503121561242f5761242e611fdb565b5b600061243d85828601612064565b925050602061244e85828601612006565b9150509250929050565b600060a08201905081810360008301526124728188612179565b905081810360208301526124868187612179565b905061249560408301866120ef565b6124a260608301856120c5565b6124af60808301846120ef565b9695505050505050565b7f4e487b7100000000000000000000000000000000000000000000000000000000600052603260045260246000fd5b7f4e487b7100000000000000000000000000000000000000000000000000000000600052602260045260246000fd5b6000600282049050600182168061252f57607f821691505b602082108103612542576125416124e8565b5b50919050565b60008190508160005260206000209050919050565b60006020601f8301049050919050565b600082821b905092915050565b6000600883026125aa7fffffffffffffffffffffffffffffffffffffffffffffffffffffffffffffffff8261256d565b6125b4868361256d565b95508019841693508086168417925050509392505050565b6000819050919050565b60006125f16125ec6125e784611fe5565b6125cc565b611fe5565b9050919050565b6000819050919050565b61260b836125d6565b61261f612617826125f8565b84845461257a565b825550505050565b600090565b612634612627565b61263f818484612602565b505050565b5b818110156126635761265860008261262c565b600181019050612645565b5050565b601f8211156126a85761267981612548565b6126828461255d565b81016020851015612691578190505b6126a561269d8561255d565b830182612644565b50505b505050565b600082821c905092915050565b60006126cb600019846008026126ad565b1980831691505092915050565b60006126e483836126ba565b9150826002028217905092915050565b6126fd82612119565b67ffffffffffffffff8111156127165761271561220b565b5b6127208254612517565b61272b828285612667565b600060209050601f83116001811461275e576000841561274c578287015190505b61275685826126d8565b8655506127be565b601f19841661276c86612548565b60005b828110156127945784890151825560018201915060208501945060208101905061276f565b868310156127b157848901516127ad601f8916826126ba565b8355505b6001600288020188555050505b505050505050565b7f4e487b7100000000000000000000000000000000000000000000000000000000600052601160045260246000fd5b600061280082611fe5565b91507fffffffffffffffffffffffffffffffffffffffffffffffffffffffffffffffff8203612832576128316127c6565b5b600182019050919050565b600061284882611fe5565b915061285383611fe5565b925082821015612866576128656127c6565b5b828203905092915050565b600061287c82611fe5565b915061288783611fe5565b9250817fffffffffffffffffffffffffffffffffffffffffffffffffffffffffffffffff04831182151516156128c0576128bf6127c6565b5b828202905092915050565b7f4e487b7100000000000000000000000000000000000000000000000000000000600052601260045260246000fd5b600061290582611fe5565b915061291083611fe5565b9250826129205761291f6128cb565b5b828204905092915050565b600061293682611fe5565b915061294183611fe5565b9250827fffffffffffffffffffffffffffffffffffffffffffffffffffffffffffffffff03821115612976576129756127c6565b5b828201905092915050565b600061298c82611fe5565b91506000820361299f5761299e6127c6565b5b60018203905091905056fea26469706673582212200c824e46e0d3881c85ce38e91d7adb2354f57b9c7de29c68a2e27ffef67ebf7764736f6c634300080f0033","opcodes":"PUSH1 0x80 PUSH1 0x40 MSTORE PUSH2 0x320 PUSH1 0x0 SSTORE PUSH1 0x64 PUSH1 0x1 SSTORE PUSH1 0x14 PUSH1 0x2 SSTORE PUSH1 0x4 PUSH1 0x3 SSTORE PUSH1 0x0 PUSH1 0x9 SSTORE PUSH1 0x0 PUSH1 0xB SSTORE CALLVALUE DUP1 ISZERO PUSH3 0x30 JUMPI PUSH1 0x0 DUP1 REVERT JUMPDEST POP PUSH1 0x40 MLOAD PUSH3 0x3251 CODESIZE SUB DUP1 PUSH3 0x3251 DUP4 CODECOPY DUP2 DUP2 ADD PUSH1 0x40 MSTORE DUP2 ADD SWAP1 PUSH3 0x56 SWAP2 SWAP1 PUSH3 0x3A5 JUMP JUMPDEST DUP1 PUSH1 0x4 SWAP1 DUP2 PUSH3 0x67 SWAP2 SWAP1 PUSH3 0x68D JUMP JUMPDEST POP DUP2 PUSH1 0x6 PUSH1 0x0 PUSH2 0x100 EXP DUP2 SLOAD DUP2 PUSH20 0xFFFFFFFFFFFFFFFFFFFFFFFFFFFFFFFFFFFFFFFF MUL NOT AND SWAP1 DUP4 PUSH20 0xFFFFFFFFFFFFFFFFFFFFFFFFFFFFFFFFFFFFFFFF AND MUL OR SWAP1 SSTORE POP DUP3 PUSH1 0x5 PUSH1 0x0 PUSH2 0x100 EXP DUP2 SLOAD DUP2 PUSH20 0xFFFFFFFFFFFFFFFFFFFFFFFFFFFFFFFFFFFFFFFF MUL NOT AND SWAP1 DUP4 PUSH20 0xFFFFFFFFFFFFFFFFFFFFFFFFFFFFFFFFFFFFFFFF AND MUL OR SWAP1 SSTORE POP DUP5 PUSH1 0xF DUP2 SWAP1 SSTORE POP TIMESTAMP PUSH1 0x10 DUP2 SWAP1 SSTORE POP PUSH3 0x15180 DUP5 PUSH3 0x109 SWAP2 SWAP1 PUSH3 0x7A3 JUMP JUMPDEST TIMESTAMP PUSH3 0x116 SWAP2 SWAP1 PUSH3 0x804 JUMP JUMPDEST PUSH1 0x12 DUP2 SWAP1 SSTORE POP PUSH3 0x15180 PUSH1 0x2 SLOAD PUSH3 0x12F SWAP2 SWAP1 PUSH3 0x7A3 JUMP JUMPDEST TIMESTAMP PUSH3 0x13C SWAP2 SWAP1 PUSH3 0x804 JUMP JUMPDEST PUSH1 0x11 DUP2 SWAP1 SSTORE POP PUSH1 0x0 PUSH1 0x13 PUSH1 0x0 PUSH2 0x100 EXP DUP2 SLOAD DUP2 PUSH1 0xFF MUL NOT AND SWAP1 DUP4 ISZERO ISZERO MUL OR SWAP1 SSTORE POP POP POP POP POP POP PUSH3 0x861 JUMP JUMPDEST PUSH1 0x0 PUSH1 0x40 MLOAD SWAP1 POP SWAP1 JUMP JUMPDEST PUSH1 0x0 DUP1 REVERT JUMPDEST PUSH1 0x0 DUP1 REVERT JUMPDEST PUSH1 0x0 DUP2 SWAP1 POP SWAP2 SWAP1 POP JUMP JUMPDEST PUSH3 0x191 DUP2 PUSH3 0x17C JUMP JUMPDEST DUP2 EQ PUSH3 0x19D JUMPI PUSH1 0x0 DUP1 REVERT JUMPDEST POP JUMP JUMPDEST PUSH1 0x0 DUP2 MLOAD SWAP1 POP PUSH3 0x1B1 DUP2 PUSH3 0x186 JUMP JUMPDEST SWAP3 SWAP2 POP POP JUMP JUMPDEST PUSH1 0x0 PUSH20 0xFFFFFFFFFFFFFFFFFFFFFFFFFFFFFFFFFFFFFFFF DUP3 AND SWAP1 POP SWAP2 SWAP1 POP JUMP JUMPDEST PUSH1 0x0 PUSH3 0x1E4 DUP3 PUSH3 0x1B7 JUMP JUMPDEST SWAP1 POP SWAP2 SWAP1 POP JUMP JUMPDEST PUSH3 0x1F6 DUP2 PUSH3 0x1D7 JUMP JUMPDEST DUP2 EQ PUSH3 0x202 JUMPI PUSH1 0x0 DUP1 REVERT JUMPDEST POP JUMP JUMPDEST PUSH1 0x0 DUP2 MLOAD SWAP1 POP PUSH3 0x216 DUP2 PUSH3 0x1EB JUMP JUMPDEST SWAP3 SWAP2 POP POP JUMP JUMPDEST PUSH1 0x0 DUP1 REVERT JUMPDEST PUSH1 0x0 DUP1 REVERT JUMPDEST PUSH1 0x0 PUSH1 0x1F NOT PUSH1 0x1F DUP4 ADD AND SWAP1 POP SWAP2 SWAP1 POP JUMP JUMPDEST PUSH32 0x4E487B7100000000000000000000000000000000000000000000000000000000 PUSH1 0x0 MSTORE PUSH1 0x41 PUSH1 0x4 MSTORE PUSH1 0x24 PUSH1 0x0 REVERT JUMPDEST PUSH3 0x271 DUP3 PUSH3 0x226 JUMP JUMPDEST DUP2 ADD DUP2 DUP2 LT PUSH8 0xFFFFFFFFFFFFFFFF DUP3 GT OR ISZERO PUSH3 0x293 JUMPI PUSH3 0x292 PUSH3 0x237 JUMP JUMPDEST JUMPDEST DUP1 PUSH1 0x40 MSTORE POP POP POP JUMP JUMPDEST PUSH1 0x0 PUSH3 0x2A8 PUSH3 0x168 JUMP JUMPDEST SWAP1 POP PUSH3 0x2B6 DUP3 DUP3 PUSH3 0x266 JUMP JUMPDEST SWAP2 SWAP1 POP JUMP JUMPDEST PUSH1 0x0 PUSH8 0xFFFFFFFFFFFFFFFF DUP3 GT ISZERO PUSH3 0x2D9 JUMPI PUSH3 0x2D8 PUSH3 0x237 JUMP JUMPDEST JUMPDEST PUSH3 0x2E4 DUP3 PUSH3 0x226 JUMP JUMPDEST SWAP1 POP PUSH1 0x20 DUP2 ADD SWAP1 POP SWAP2 SWAP1 POP JUMP JUMPDEST PUSH1 0x0 JUMPDEST DUP4 DUP2 LT ISZERO PUSH3 0x311 JUMPI DUP1 DUP3 ADD MLOAD DUP2 DUP5 ADD MSTORE PUSH1 0x20 DUP2 ADD SWAP1 POP PUSH3 0x2F4 JUMP JUMPDEST DUP4 DUP2 GT ISZERO PUSH3 0x321 JUMPI PUSH1 0x0 DUP5 DUP5 ADD MSTORE JUMPDEST POP POP POP POP JUMP JUMPDEST PUSH1 0x0 PUSH3 0x33E PUSH3 0x338 DUP5 PUSH3 0x2BB JUMP JUMPDEST PUSH3 0x29C JUMP JUMPDEST SWAP1 POP DUP3 DUP2 MSTORE PUSH1 0x20 DUP2 ADD DUP5 DUP5 DUP5 ADD GT ISZERO PUSH3 0x35D JUMPI PUSH3 0x35C PUSH3 0x221 JUMP JUMPDEST JUMPDEST PUSH3 0x36A DUP5 DUP3 DUP6 PUSH3 0x2F1 JUMP JUMPDEST POP SWAP4 SWAP3 POP POP POP JUMP JUMPDEST PUSH1 0x0 DUP3 PUSH1 0x1F DUP4 ADD SLT PUSH3 0x38A JUMPI PUSH3 0x389 PUSH3 0x21C JUMP JUMPDEST JUMPDEST DUP2 MLOAD PUSH3 0x39C DUP5 DUP3 PUSH1 0x20 DUP7 ADD PUSH3 0x327 JUMP JUMPDEST SWAP2 POP POP SWAP3 SWAP2 POP POP JUMP JUMPDEST PUSH1 0x0 DUP1 PUSH1 0x0 DUP1 PUSH1 0x0 PUSH1 0xA0 DUP7 DUP9 SUB SLT ISZERO PUSH3 0x3C4 JUMPI PUSH3 0x3C3 PUSH3 0x172 JUMP JUMPDEST JUMPDEST PUSH1 0x0 PUSH3 0x3D4 DUP9 DUP3 DUP10 ADD PUSH3 0x1A0 JUMP JUMPDEST SWAP6 POP POP PUSH1 0x20 PUSH3 0x3E7 DUP9 DUP3 DUP10 ADD PUSH3 0x1A0 JUMP JUMPDEST SWAP5 POP POP PUSH1 0x40 PUSH3 0x3FA DUP9 DUP3 DUP10 ADD PUSH3 0x205 JUMP JUMPDEST SWAP4 POP POP PUSH1 0x60 PUSH3 0x40D DUP9 DUP3 DUP10 ADD PUSH3 0x205 JUMP JUMPDEST SWAP3 POP POP PUSH1 0x80 DUP7 ADD MLOAD PUSH8 0xFFFFFFFFFFFFFFFF DUP2 GT ISZERO PUSH3 0x431 JUMPI PUSH3 0x430 PUSH3 0x177 JUMP JUMPDEST JUMPDEST PUSH3 0x43F DUP9 DUP3 DUP10 ADD PUSH3 0x372 JUMP JUMPDEST SWAP2 POP POP SWAP3 SWAP6 POP SWAP3 SWAP6 SWAP1 SWAP4 POP JUMP JUMPDEST PUSH1 0x0 DUP2 MLOAD SWAP1 POP SWAP2 SWAP1 POP JUMP JUMPDEST PUSH32 0x4E487B7100000000000000000000000000000000000000000000000000000000 PUSH1 0x0 MSTORE PUSH1 0x22 PUSH1 0x4 MSTORE PUSH1 0x24 PUSH1 0x0 REVERT JUMPDEST PUSH1 0x0 PUSH1 0x2 DUP3 DIV SWAP1 POP PUSH1 0x1 DUP3 AND DUP1 PUSH3 0x49F JUMPI PUSH1 0x7F DUP3 AND SWAP2 POP JUMPDEST PUSH1 0x20 DUP3 LT DUP2 SUB PUSH3 0x4B5 JUMPI PUSH3 0x4B4 PUSH3 0x457 JUMP JUMPDEST JUMPDEST POP SWAP2 SWAP1 POP JUMP JUMPDEST PUSH1 0x0 DUP2 SWAP1 POP DUP2 PUSH1 0x0 MSTORE PUSH1 0x20 PUSH1 0x0 KECCAK256 SWAP1 POP SWAP2 SWAP1 POP JUMP JUMPDEST PUSH1 0x0 PUSH1 0x20 PUSH1 0x1F DUP4 ADD DIV SWAP1 POP SWAP2 SWAP1 POP JUMP JUMPDEST PUSH1 0x0 DUP3 DUP3 SHL SWAP1 POP SWAP3 SWAP2 POP POP JUMP JUMPDEST PUSH1 0x0 PUSH1 0x8 DUP4 MUL PUSH3 0x51F PUSH32 0xFFFFFFFFFFFFFFFFFFFFFFFFFFFFFFFFFFFFFFFFFFFFFFFFFFFFFFFFFFFFFFFF DUP3 PUSH3 0x4E0 JUMP JUMPDEST PUSH3 0x52B DUP7 DUP4 PUSH3 0x4E0 JUMP JUMPDEST SWAP6 POP DUP1 NOT DUP5 AND SWAP4 POP DUP1 DUP7 AND DUP5 OR SWAP3 POP POP POP SWAP4 SWAP3 POP POP POP JUMP JUMPDEST PUSH1 0x0 DUP2 SWAP1 POP SWAP2 SWAP1 POP JUMP JUMPDEST PUSH1 0x0 PUSH3 0x56E PUSH3 0x568 PUSH3 0x562 DUP5 PUSH3 0x17C JUMP JUMPDEST PUSH3 0x543 JUMP JUMPDEST PUSH3 0x17C JUMP JUMPDEST SWAP1 POP SWAP2 SWAP1 POP JUMP JUMPDEST PUSH1 0x0 DUP2 SWAP1 POP SWAP2 SWAP1 POP JUMP JUMPDEST PUSH3 0x58A DUP4 PUSH3 0x54D JUMP JUMPDEST PUSH3 0x5A2 PUSH3 0x599 DUP3 PUSH3 0x575 JUMP JUMPDEST DUP5 DUP5 SLOAD PUSH3 0x4ED JUMP JUMPDEST DUP3 SSTORE POP POP POP POP JUMP JUMPDEST PUSH1 0x0 SWAP1 JUMP JUMPDEST PUSH3 0x5B9 PUSH3 0x5AA JUMP JUMPDEST PUSH3 0x5C6 DUP2 DUP5 DUP5 PUSH3 0x57F JUMP JUMPDEST POP POP POP JUMP JUMPDEST JUMPDEST DUP2 DUP2 LT ISZERO PUSH3 0x5EE JUMPI PUSH3 0x5E2 PUSH1 0x0 DUP3 PUSH3 0x5AF JUMP JUMPDEST PUSH1 0x1 DUP2 ADD SWAP1 POP PUSH3 0x5CC JUMP JUMPDEST POP POP JUMP JUMPDEST PUSH1 0x1F DUP3 GT ISZERO PUSH3 0x63D JUMPI PUSH3 0x607 DUP2 PUSH3 0x4BB JUMP JUMPDEST PUSH3 0x612 DUP5 PUSH3 0x4D0 JUMP JUMPDEST DUP2 ADD PUSH1 0x20 DUP6 LT ISZERO PUSH3 0x622 JUMPI DUP2 SWAP1 POP JUMPDEST PUSH3 0x63A PUSH3 0x631 DUP6 PUSH3 0x4D0 JUMP JUMPDEST DUP4 ADD DUP3 PUSH3 0x5CB JUMP JUMPDEST POP POP JUMPDEST POP POP POP JUMP JUMPDEST PUSH1 0x0 DUP3 DUP3 SHR SWAP1 POP SWAP3 SWAP2 POP POP JUMP JUMPDEST PUSH1 0x0 PUSH3 0x662 PUSH1 0x0 NOT DUP5 PUSH1 0x8 MUL PUSH3 0x642 JUMP JUMPDEST NOT DUP1 DUP4 AND SWAP2 POP POP SWAP3 SWAP2 POP POP JUMP JUMPDEST PUSH1 0x0 PUSH3 0x67D DUP4 DUP4 PUSH3 0x64F JUMP JUMPDEST SWAP2 POP DUP3 PUSH1 0x2 MUL DUP3 OR SWAP1 POP SWAP3 SWAP2 POP POP JUMP JUMPDEST PUSH3 0x698 DUP3 PUSH3 0x44C JUMP JUMPDEST PUSH8 0xFFFFFFFFFFFFFFFF DUP2 GT ISZERO PUSH3 0x6B4 JUMPI PUSH3 0x6B3 PUSH3 0x237 JUMP JUMPDEST JUMPDEST PUSH3 0x6C0 DUP3 SLOAD PUSH3 0x486 JUMP JUMPDEST PUSH3 0x6CD DUP3 DUP3 DUP6 PUSH3 0x5F2 JUMP JUMPDEST PUSH1 0x0 PUSH1 0x20 SWAP1 POP PUSH1 0x1F DUP4 GT PUSH1 0x1 DUP2 EQ PUSH3 0x705 JUMPI PUSH1 0x0 DUP5 ISZERO PUSH3 0x6F0 JUMPI DUP3 DUP8 ADD MLOAD SWAP1 POP JUMPDEST PUSH3 0x6FC DUP6 DUP3 PUSH3 0x66F JUMP JUMPDEST DUP7 SSTORE POP PUSH3 0x76C JUMP JUMPDEST PUSH1 0x1F NOT DUP5 AND PUSH3 0x715 DUP7 PUSH3 0x4BB JUMP JUMPDEST PUSH1 0x0 JUMPDEST DUP3 DUP2 LT ISZERO PUSH3 0x73F JUMPI DUP5 DUP10 ADD MLOAD DUP3 SSTORE PUSH1 0x1 DUP3 ADD SWAP2 POP PUSH1 0x20 DUP6 ADD SWAP5 POP PUSH1 0x20 DUP2 ADD SWAP1 POP PUSH3 0x718 JUMP JUMPDEST DUP7 DUP4 LT ISZERO PUSH3 0x75F JUMPI DUP5 DUP10 ADD MLOAD PUSH3 0x75B PUSH1 0x1F DUP10 AND DUP3 PUSH3 0x64F JUMP JUMPDEST DUP4 SSTORE POP JUMPDEST PUSH1 0x1 PUSH1 0x2 DUP9 MUL ADD DUP9 SSTORE POP POP POP JUMPDEST POP POP POP POP POP POP JUMP JUMPDEST PUSH32 0x4E487B7100000000000000000000000000000000000000000000000000000000 PUSH1 0x0 MSTORE PUSH1 0x11 PUSH1 0x4 MSTORE PUSH1 0x24 PUSH1 0x0 REVERT JUMPDEST PUSH1 0x0 PUSH3 0x7B0 DUP3 PUSH3 0x17C JUMP JUMPDEST SWAP2 POP PUSH3 0x7BD DUP4 PUSH3 0x17C JUMP JUMPDEST SWAP3 POP DUP2 PUSH32 0xFFFFFFFFFFFFFFFFFFFFFFFFFFFFFFFFFFFFFFFFFFFFFFFFFFFFFFFFFFFFFFFF DIV DUP4 GT DUP3 ISZERO ISZERO AND ISZERO PUSH3 0x7F9 JUMPI PUSH3 0x7F8 PUSH3 0x774 JUMP JUMPDEST JUMPDEST DUP3 DUP3 MUL SWAP1 POP SWAP3 SWAP2 POP POP JUMP JUMPDEST PUSH1 0x0 PUSH3 0x811 DUP3 PUSH3 0x17C JUMP JUMPDEST SWAP2 POP PUSH3 0x81E DUP4 PUSH3 0x17C JUMP JUMPDEST SWAP3 POP DUP3 PUSH32 0xFFFFFFFFFFFFFFFFFFFFFFFFFFFFFFFFFFFFFFFFFFFFFFFFFFFFFFFFFFFFFFFF SUB DUP3 GT ISZERO PUSH3 0x856 JUMPI PUSH3 0x855 PUSH3 0x774 JUMP JUMPDEST JUMPDEST DUP3 DUP3 ADD SWAP1 POP SWAP3 SWAP2 POP POP JUMP JUMPDEST PUSH2 0x29E0 DUP1 PUSH3 0x871 PUSH1 0x0 CODECOPY PUSH1 0x0 RETURN INVALID PUSH1 0x80 PUSH1 0x40 MSTORE PUSH1 0x4 CALLDATASIZE LT PUSH2 0x1F8 JUMPI PUSH1 0x0 CALLDATALOAD PUSH1 0xE0 SHR DUP1 PUSH4 0x937E09B1 GT PUSH2 0x10D JUMPI DUP1 PUSH4 0xD7898240 GT PUSH2 0xA0 JUMPI DUP1 PUSH4 0xF63F9655 GT PUSH2 0x6F JUMPI DUP1 PUSH4 0xF63F9655 EQ PUSH2 0x6FE JUMPI DUP1 PUSH4 0xFBAE5E7D EQ PUSH2 0x73F JUMPI DUP1 PUSH4 0xFD74D294 EQ PUSH2 0x77C JUMPI DUP1 PUSH4 0xFDA263E8 EQ PUSH2 0x7A7 JUMPI DUP1 PUSH4 0xFF65226C EQ PUSH2 0x7D2 JUMPI PUSH2 0x1F8 JUMP JUMPDEST DUP1 PUSH4 0xD7898240 EQ PUSH2 0x642 JUMPI DUP1 PUSH4 0xD7D1BBDB EQ PUSH2 0x67F JUMPI DUP1 PUSH4 0xE028A693 EQ PUSH2 0x6A8 JUMPI DUP1 PUSH4 0xE0D370AC EQ PUSH2 0x6D3 JUMPI PUSH2 0x1F8 JUMP JUMPDEST DUP1 PUSH4 0xA4758C9A GT PUSH2 0xDC JUMPI DUP1 PUSH4 0xA4758C9A EQ PUSH2 0x5A5 JUMPI DUP1 PUSH4 0xACDB8341 EQ PUSH2 0x5D0 JUMPI DUP1 PUSH4 0xB2F8BE5C EQ PUSH2 0x5FB JUMPI DUP1 PUSH4 0xB688A363 EQ PUSH2 0x638 JUMPI PUSH2 0x1F8 JUMP JUMPDEST DUP1 PUSH4 0x937E09B1 EQ PUSH2 0x4F4 JUMPI DUP1 PUSH4 0x972C5356 EQ PUSH2 0x51F JUMPI DUP1 PUSH4 0x98E1B410 EQ PUSH2 0x54A JUMPI DUP1 PUSH4 0x999CC5CA EQ PUSH2 0x568 JUMPI PUSH2 0x1F8 JUMP JUMPDEST DUP1 PUSH4 0x32B7ACEC GT PUSH2 0x190 JUMPI DUP1 PUSH4 0x481C6A75 GT PUSH2 0x15F JUMPI DUP1 PUSH4 0x481C6A75 EQ PUSH2 0x459 JUMPI DUP1 PUSH4 0x5FB02F4D EQ PUSH2 0x484 JUMPI DUP1 PUSH4 0x789B2E6C EQ PUSH2 0x49B JUMPI DUP1 PUSH4 0x864A53DC EQ PUSH2 0x4B2 JUMPI DUP1 PUSH4 0x8975AA08 EQ PUSH2 0x4C9 JUMPI PUSH2 0x1F8 JUMP JUMPDEST DUP1 PUSH4 0x32B7ACEC EQ PUSH2 0x377 JUMPI DUP1 PUSH4 0x364548CD EQ PUSH2 0x3B4 JUMPI DUP1 PUSH4 0x3BA20F2A EQ PUSH2 0x3F1 JUMPI DUP1 PUSH4 0x3D22AEA8 EQ PUSH2 0x41C JUMPI PUSH2 0x1F8 JUMP JUMPDEST DUP1 PUSH4 0x2B84B316 GT PUSH2 0x1CC JUMPI DUP1 PUSH4 0x2B84B316 EQ PUSH2 0x2CD JUMPI DUP1 PUSH4 0x2EF3FA27 EQ PUSH2 0x2F6 JUMPI DUP1 PUSH4 0x2F5274E3 EQ PUSH2 0x321 JUMPI DUP1 PUSH4 0x31D0E40F EQ PUSH2 0x34C JUMPI PUSH2 0x1F8 JUMP JUMPDEST DUP1 PUSH3 0x60929A EQ PUSH2 0x1FD JUMPI DUP1 PUSH4 0x1999870 EQ PUSH2 0x23A JUMPI DUP1 PUSH4 0x6FDDE03 EQ PUSH2 0x265 JUMPI DUP1 PUSH4 0x1E28528E EQ PUSH2 0x290 JUMPI JUMPDEST PUSH1 0x0 DUP1 REVERT JUMPDEST CALLVALUE DUP1 ISZERO PUSH2 0x209 JUMPI PUSH1 0x0 DUP1 REVERT JUMPDEST POP PUSH2 0x224 PUSH1 0x4 DUP1 CALLDATASIZE SUB DUP2 ADD SWAP1 PUSH2 0x21F SWAP2 SWAP1 PUSH2 0x2079 JUMP JUMPDEST PUSH2 0x7FD JUMP JUMPDEST PUSH1 0x40 MLOAD PUSH2 0x231 SWAP2 SWAP1 PUSH2 0x20D4 JUMP JUMPDEST PUSH1 0x40 MLOAD DUP1 SWAP2 SUB SWAP1 RETURN JUMPDEST CALLVALUE DUP1 ISZERO PUSH2 0x246 JUMPI PUSH1 0x0 DUP1 REVERT JUMPDEST POP PUSH2 0x24F PUSH2 0x87C JUMP JUMPDEST PUSH1 0x40 MLOAD PUSH2 0x25C SWAP2 SWAP1 PUSH2 0x20FE JUMP JUMPDEST PUSH1 0x40 MLOAD DUP1 SWAP2 SUB SWAP1 RETURN JUMPDEST CALLVALUE DUP1 ISZERO PUSH2 0x271 JUMPI PUSH1 0x0 DUP1 REVERT JUMPDEST POP PUSH2 0x27A PUSH2 0x882 JUMP JUMPDEST PUSH1 0x40 MLOAD PUSH2 0x287 SWAP2 SWAP1 PUSH2 0x21B2 JUMP JUMPDEST PUSH1 0x40 MLOAD DUP1 SWAP2 SUB SWAP1 RETURN JUMPDEST CALLVALUE DUP1 ISZERO PUSH2 0x29C JUMPI PUSH1 0x0 DUP1 REVERT JUMPDEST POP PUSH2 0x2B7 PUSH1 0x4 DUP1 CALLDATASIZE SUB DUP2 ADD SWAP1 PUSH2 0x2B2 SWAP2 SWAP1 PUSH2 0x21D4 JUMP JUMPDEST PUSH2 0x910 JUMP JUMPDEST PUSH1 0x40 MLOAD PUSH2 0x2C4 SWAP2 SWAP1 PUSH2 0x20D4 JUMP JUMPDEST PUSH1 0x40 MLOAD DUP1 SWAP2 SUB SWAP1 RETURN JUMPDEST CALLVALUE DUP1 ISZERO PUSH2 0x2D9 JUMPI PUSH1 0x0 DUP1 REVERT JUMPDEST POP PUSH2 0x2F4 PUSH1 0x4 DUP1 CALLDATASIZE SUB DUP2 ADD SWAP1 PUSH2 0x2EF SWAP2 SWAP1 PUSH2 0x2336 JUMP JUMPDEST PUSH2 0x930 JUMP JUMPDEST STOP JUMPDEST CALLVALUE DUP1 ISZERO PUSH2 0x302 JUMPI PUSH1 0x0 DUP1 REVERT JUMPDEST POP PUSH2 0x30B PUSH2 0x9F9 JUMP JUMPDEST PUSH1 0x40 MLOAD PUSH2 0x318 SWAP2 SWAP1 PUSH2 0x20FE JUMP JUMPDEST PUSH1 0x40 MLOAD DUP1 SWAP2 SUB SWAP1 RETURN JUMPDEST CALLVALUE DUP1 ISZERO PUSH2 0x32D JUMPI PUSH1 0x0 DUP1 REVERT JUMPDEST POP PUSH2 0x336 PUSH2 0xA28 JUMP JUMPDEST PUSH1 0x40 MLOAD PUSH2 0x343 SWAP2 SWAP1 PUSH2 0x20FE JUMP JUMPDEST PUSH1 0x40 MLOAD DUP1 SWAP2 SUB SWAP1 RETURN JUMPDEST CALLVALUE DUP1 ISZERO PUSH2 0x358 JUMPI PUSH1 0x0 DUP1 REVERT JUMPDEST POP PUSH2 0x361 PUSH2 0xA2E JUMP JUMPDEST PUSH1 0x40 MLOAD PUSH2 0x36E SWAP2 SWAP1 PUSH2 0x20FE JUMP JUMPDEST PUSH1 0x40 MLOAD DUP1 SWAP2 SUB SWAP1 RETURN JUMPDEST CALLVALUE DUP1 ISZERO PUSH2 0x383 JUMPI PUSH1 0x0 DUP1 REVERT JUMPDEST POP PUSH2 0x39E PUSH1 0x4 DUP1 CALLDATASIZE SUB DUP2 ADD SWAP1 PUSH2 0x399 SWAP2 SWAP1 PUSH2 0x21D4 JUMP JUMPDEST PUSH2 0xA34 JUMP JUMPDEST PUSH1 0x40 MLOAD PUSH2 0x3AB SWAP2 SWAP1 PUSH2 0x20FE JUMP JUMPDEST PUSH1 0x40 MLOAD DUP1 SWAP2 SUB SWAP1 RETURN JUMPDEST CALLVALUE DUP1 ISZERO PUSH2 0x3C0 JUMPI PUSH1 0x0 DUP1 REVERT JUMPDEST POP PUSH2 0x3DB PUSH1 0x4 DUP1 CALLDATASIZE SUB DUP2 ADD SWAP1 PUSH2 0x3D6 SWAP2 SWAP1 PUSH2 0x21D4 JUMP JUMPDEST PUSH2 0xA4C JUMP JUMPDEST PUSH1 0x40 MLOAD PUSH2 0x3E8 SWAP2 SWAP1 PUSH2 0x20D4 JUMP JUMPDEST PUSH1 0x40 MLOAD DUP1 SWAP2 SUB SWAP1 RETURN JUMPDEST CALLVALUE DUP1 ISZERO PUSH2 0x3FD JUMPI PUSH1 0x0 DUP1 REVERT JUMPDEST POP PUSH2 0x406 PUSH2 0xA6C JUMP JUMPDEST PUSH1 0x40 MLOAD PUSH2 0x413 SWAP2 SWAP1 PUSH2 0x20FE JUMP JUMPDEST PUSH1 0x40 MLOAD DUP1 SWAP2 SUB SWAP1 RETURN JUMPDEST CALLVALUE DUP1 ISZERO PUSH2 0x428 JUMPI PUSH1 0x0 DUP1 REVERT JUMPDEST POP PUSH2 0x443 PUSH1 0x4 DUP1 CALLDATASIZE SUB DUP2 ADD SWAP1 PUSH2 0x43E SWAP2 SWAP1 PUSH2 0x23C1 JUMP JUMPDEST PUSH2 0xA72 JUMP JUMPDEST PUSH1 0x40 MLOAD PUSH2 0x450 SWAP2 SWAP1 PUSH2 0x20D4 JUMP JUMPDEST PUSH1 0x40 MLOAD DUP1 SWAP2 SUB SWAP1 RETURN JUMPDEST CALLVALUE DUP1 ISZERO PUSH2 0x465 JUMPI PUSH1 0x0 DUP1 REVERT JUMPDEST POP PUSH2 0x46E PUSH2 0xBC7 JUMP JUMPDEST PUSH1 0x40 MLOAD PUSH2 0x47B SWAP2 SWAP1 PUSH2 0x23FD JUMP JUMPDEST PUSH1 0x40 MLOAD DUP1 SWAP2 SUB SWAP1 RETURN JUMPDEST CALLVALUE DUP1 ISZERO PUSH2 0x490 JUMPI PUSH1 0x0 DUP1 REVERT JUMPDEST POP PUSH2 0x499 PUSH2 0xBED JUMP JUMPDEST STOP JUMPDEST CALLVALUE DUP1 ISZERO PUSH2 0x4A7 JUMPI PUSH1 0x0 DUP1 REVERT JUMPDEST POP PUSH2 0x4B0 PUSH2 0xD24 JUMP JUMPDEST STOP JUMPDEST CALLVALUE DUP1 ISZERO PUSH2 0x4BE JUMPI PUSH1 0x0 DUP1 REVERT JUMPDEST POP PUSH2 0x4C7 PUSH2 0xFA8 JUMP JUMPDEST STOP JUMPDEST CALLVALUE DUP1 ISZERO PUSH2 0x4D5 JUMPI PUSH1 0x0 DUP1 REVERT JUMPDEST POP PUSH2 0x4DE PUSH2 0x111C JUMP JUMPDEST PUSH1 0x40 MLOAD PUSH2 0x4EB SWAP2 SWAP1 PUSH2 0x20FE JUMP JUMPDEST PUSH1 0x40 MLOAD DUP1 SWAP2 SUB SWAP1 RETURN JUMPDEST CALLVALUE DUP1 ISZERO PUSH2 0x500 JUMPI PUSH1 0x0 DUP1 REVERT JUMPDEST POP PUSH2 0x509 PUSH2 0x1122 JUMP JUMPDEST PUSH1 0x40 MLOAD PUSH2 0x516 SWAP2 SWAP1 PUSH2 0x20FE JUMP JUMPDEST PUSH1 0x40 MLOAD DUP1 SWAP2 SUB SWAP1 RETURN JUMPDEST CALLVALUE DUP1 ISZERO PUSH2 0x52B JUMPI PUSH1 0x0 DUP1 REVERT JUMPDEST POP PUSH2 0x534 PUSH2 0x1128 JUMP JUMPDEST PUSH1 0x40 MLOAD PUSH2 0x541 SWAP2 SWAP1 PUSH2 0x20FE JUMP JUMPDEST PUSH1 0x40 MLOAD DUP1 SWAP2 SUB SWAP1 RETURN JUMPDEST PUSH2 0x552 PUSH2 0x112E JUMP JUMPDEST PUSH1 0x40 MLOAD PUSH2 0x55F SWAP2 SWAP1 PUSH2 0x20D4 JUMP JUMPDEST PUSH1 0x40 MLOAD DUP1 SWAP2 SUB SWAP1 RETURN JUMPDEST CALLVALUE DUP1 ISZERO PUSH2 0x574 JUMPI PUSH1 0x0 DUP1 REVERT JUMPDEST POP PUSH2 0x58F PUSH1 0x4 DUP1 CALLDATASIZE SUB DUP2 ADD SWAP1 PUSH2 0x58A SWAP2 SWAP1 PUSH2 0x21D4 JUMP JUMPDEST PUSH2 0x1137 JUMP JUMPDEST PUSH1 0x40 MLOAD PUSH2 0x59C SWAP2 SWAP1 PUSH2 0x20D4 JUMP JUMPDEST PUSH1 0x40 MLOAD DUP1 SWAP2 SUB SWAP1 RETURN JUMPDEST CALLVALUE DUP1 ISZERO PUSH2 0x5B1 JUMPI PUSH1 0x0 DUP1 REVERT JUMPDEST POP PUSH2 0x5BA PUSH2 0x1157 JUMP JUMPDEST PUSH1 0x40 MLOAD PUSH2 0x5C7 SWAP2 SWAP1 PUSH2 0x20FE JUMP JUMPDEST PUSH1 0x40 MLOAD DUP1 SWAP2 SUB SWAP1 RETURN JUMPDEST CALLVALUE DUP1 ISZERO PUSH2 0x5DC JUMPI PUSH1 0x0 DUP1 REVERT JUMPDEST POP PUSH2 0x5E5 PUSH2 0x115D JUMP JUMPDEST PUSH1 0x40 MLOAD PUSH2 0x5F2 SWAP2 SWAP1 PUSH2 0x20FE JUMP JUMPDEST PUSH1 0x40 MLOAD DUP1 SWAP2 SUB SWAP1 RETURN JUMPDEST CALLVALUE DUP1 ISZERO PUSH2 0x607 JUMPI PUSH1 0x0 DUP1 REVERT JUMPDEST POP PUSH2 0x622 PUSH1 0x4 DUP1 CALLDATASIZE SUB DUP2 ADD SWAP1 PUSH2 0x61D SWAP2 SWAP1 PUSH2 0x2418 JUMP JUMPDEST PUSH2 0x1275 JUMP JUMPDEST PUSH1 0x40 MLOAD PUSH2 0x62F SWAP2 SWAP1 PUSH2 0x20D4 JUMP JUMPDEST PUSH1 0x40 MLOAD DUP1 SWAP2 SUB SWAP1 RETURN JUMPDEST PUSH2 0x640 PUSH2 0x14D8 JUMP JUMPDEST STOP JUMPDEST CALLVALUE DUP1 ISZERO PUSH2 0x64E JUMPI PUSH1 0x0 DUP1 REVERT JUMPDEST POP PUSH2 0x669 PUSH1 0x4 DUP1 CALLDATASIZE SUB DUP2 ADD SWAP1 PUSH2 0x664 SWAP2 SWAP1 PUSH2 0x21D4 JUMP JUMPDEST PUSH2 0x1621 JUMP JUMPDEST PUSH1 0x40 MLOAD PUSH2 0x676 SWAP2 SWAP1 PUSH2 0x20FE JUMP JUMPDEST PUSH1 0x40 MLOAD DUP1 SWAP2 SUB SWAP1 RETURN JUMPDEST CALLVALUE DUP1 ISZERO PUSH2 0x68B JUMPI PUSH1 0x0 DUP1 REVERT JUMPDEST POP PUSH2 0x6A6 PUSH1 0x4 DUP1 CALLDATASIZE SUB DUP2 ADD SWAP1 PUSH2 0x6A1 SWAP2 SWAP1 PUSH2 0x23C1 JUMP JUMPDEST PUSH2 0x1639 JUMP JUMPDEST STOP JUMPDEST CALLVALUE DUP1 ISZERO PUSH2 0x6B4 JUMPI PUSH1 0x0 DUP1 REVERT JUMPDEST POP PUSH2 0x6BD PUSH2 0x1786 JUMP JUMPDEST PUSH1 0x40 MLOAD PUSH2 0x6CA SWAP2 SWAP1 PUSH2 0x20FE JUMP JUMPDEST PUSH1 0x40 MLOAD DUP1 SWAP2 SUB SWAP1 RETURN JUMPDEST CALLVALUE DUP1 ISZERO PUSH2 0x6DF JUMPI PUSH1 0x0 DUP1 REVERT JUMPDEST POP PUSH2 0x6E8 PUSH2 0x178C JUMP JUMPDEST PUSH1 0x40 MLOAD PUSH2 0x6F5 SWAP2 SWAP1 PUSH2 0x23FD JUMP JUMPDEST PUSH1 0x40 MLOAD DUP1 SWAP2 SUB SWAP1 RETURN JUMPDEST CALLVALUE DUP1 ISZERO PUSH2 0x70A JUMPI PUSH1 0x0 DUP1 REVERT JUMPDEST POP PUSH2 0x725 PUSH1 0x4 DUP1 CALLDATASIZE SUB DUP2 ADD SWAP1 PUSH2 0x720 SWAP2 SWAP1 PUSH2 0x23C1 JUMP JUMPDEST PUSH2 0x17B2 JUMP JUMPDEST PUSH1 0x40 MLOAD PUSH2 0x736 SWAP6 SWAP5 SWAP4 SWAP3 SWAP2 SWAP1 PUSH2 0x2458 JUMP JUMPDEST PUSH1 0x40 MLOAD DUP1 SWAP2 SUB SWAP1 RETURN JUMPDEST CALLVALUE DUP1 ISZERO PUSH2 0x74B JUMPI PUSH1 0x0 DUP1 REVERT JUMPDEST POP PUSH2 0x766 PUSH1 0x4 DUP1 CALLDATASIZE SUB DUP2 ADD SWAP1 PUSH2 0x761 SWAP2 SWAP1 PUSH2 0x23C1 JUMP JUMPDEST PUSH2 0x1915 JUMP JUMPDEST PUSH1 0x40 MLOAD PUSH2 0x773 SWAP2 SWAP1 PUSH2 0x23FD JUMP JUMPDEST PUSH1 0x40 MLOAD DUP1 SWAP2 SUB SWAP1 RETURN JUMPDEST CALLVALUE DUP1 ISZERO PUSH2 0x788 JUMPI PUSH1 0x0 DUP1 REVERT JUMPDEST POP PUSH2 0x791 PUSH2 0x1954 JUMP JUMPDEST PUSH1 0x40 MLOAD PUSH2 0x79E SWAP2 SWAP1 PUSH2 0x20FE JUMP JUMPDEST PUSH1 0x40 MLOAD DUP1 SWAP2 SUB SWAP1 RETURN JUMPDEST CALLVALUE DUP1 ISZERO PUSH2 0x7B3 JUMPI PUSH1 0x0 DUP1 REVERT JUMPDEST POP PUSH2 0x7BC PUSH2 0x195A JUMP JUMPDEST PUSH1 0x40 MLOAD PUSH2 0x7C9 SWAP2 SWAP1 PUSH2 0x20FE JUMP JUMPDEST PUSH1 0x40 MLOAD DUP1 SWAP2 SUB SWAP1 RETURN JUMPDEST CALLVALUE DUP1 ISZERO PUSH2 0x7DE JUMPI PUSH1 0x0 DUP1 REVERT JUMPDEST POP PUSH2 0x7E7 PUSH2 0x1960 JUMP JUMPDEST PUSH1 0x40 MLOAD PUSH2 0x7F4 SWAP2 SWAP1 PUSH2 0x20D4 JUMP JUMPDEST PUSH1 0x40 MLOAD DUP1 SWAP2 SUB SWAP1 RETURN JUMPDEST PUSH1 0x0 DUP1 PUSH1 0x14 DUP5 DUP2 SLOAD DUP2 LT PUSH2 0x814 JUMPI PUSH2 0x813 PUSH2 0x24B9 JUMP JUMPDEST JUMPDEST SWAP1 PUSH1 0x0 MSTORE PUSH1 0x20 PUSH1 0x0 KECCAK256 SWAP1 PUSH1 0x6 MUL ADD SWAP1 POP DUP1 PUSH1 0x5 ADD PUSH1 0x0 DUP5 PUSH20 0xFFFFFFFFFFFFFFFFFFFFFFFFFFFFFFFFFFFFFFFF AND PUSH20 0xFFFFFFFFFFFFFFFFFFFFFFFFFFFFFFFFFFFFFFFF AND DUP2 MSTORE PUSH1 0x20 ADD SWAP1 DUP2 MSTORE PUSH1 0x20 ADD PUSH1 0x0 KECCAK256 PUSH1 0x0 SWAP1 SLOAD SWAP1 PUSH2 0x100 EXP SWAP1 DIV PUSH1 0xFF AND SWAP2 POP POP SWAP3 SWAP2 POP POP JUMP JUMPDEST PUSH1 0xB SLOAD DUP2 JUMP JUMPDEST PUSH1 0x4 DUP1 SLOAD PUSH2 0x88F SWAP1 PUSH2 0x2517 JUMP JUMPDEST DUP1 PUSH1 0x1F ADD PUSH1 0x20 DUP1 SWAP2 DIV MUL PUSH1 0x20 ADD PUSH1 0x40 MLOAD SWAP1 DUP2 ADD PUSH1 0x40 MSTORE DUP1 SWAP3 SWAP2 SWAP1 DUP2 DUP2 MSTORE PUSH1 0x20 ADD DUP3 DUP1 SLOAD PUSH2 0x8BB SWAP1 PUSH2 0x2517 JUMP JUMPDEST DUP1 ISZERO PUSH2 0x908 JUMPI DUP1 PUSH1 0x1F LT PUSH2 0x8DD JUMPI PUSH2 0x100 DUP1 DUP4 SLOAD DIV MUL DUP4 MSTORE SWAP2 PUSH1 0x20 ADD SWAP2 PUSH2 0x908 JUMP JUMPDEST DUP3 ADD SWAP2 SWAP1 PUSH1 0x0 MSTORE PUSH1 0x20 PUSH1 0x0 KECCAK256 SWAP1 JUMPDEST DUP2 SLOAD DUP2 MSTORE SWAP1 PUSH1 0x1 ADD SWAP1 PUSH1 0x20 ADD DUP1 DUP4 GT PUSH2 0x8EB JUMPI DUP3 SWAP1 SUB PUSH1 0x1F AND DUP3 ADD SWAP2 JUMPDEST POP POP POP POP POP DUP2 JUMP JUMPDEST PUSH1 0x7 PUSH1 0x20 MSTORE DUP1 PUSH1 0x0 MSTORE PUSH1 0x40 PUSH1 0x0 KECCAK256 PUSH1 0x0 SWAP2 POP SLOAD SWAP1 PUSH2 0x100 EXP SWAP1 DIV PUSH1 0xFF AND DUP2 JUMP JUMPDEST PUSH1 0x5 PUSH1 0x0 SWAP1 SLOAD SWAP1 PUSH2 0x100 EXP SWAP1 DIV PUSH20 0xFFFFFFFFFFFFFFFFFFFFFFFFFFFFFFFFFFFFFFFF AND PUSH20 0xFFFFFFFFFFFFFFFFFFFFFFFFFFFFFFFFFFFFFFFF AND CALLER PUSH20 0xFFFFFFFFFFFFFFFFFFFFFFFFFFFFFFFFFFFFFFFF AND EQ PUSH2 0x98A JUMPI PUSH1 0x0 DUP1 REVERT JUMPDEST PUSH1 0x0 PUSH1 0x14 PUSH1 0x1 DUP2 PUSH1 0x1 DUP2 SLOAD ADD DUP1 DUP3 SSTORE DUP1 SWAP2 POP POP SUB SWAP1 PUSH1 0x0 MSTORE PUSH1 0x20 PUSH1 0x0 KECCAK256 SWAP1 PUSH1 0x6 MUL ADD SWAP1 POP DUP3 DUP2 PUSH1 0x0 ADD SWAP1 DUP2 PUSH2 0x9BF SWAP2 SWAP1 PUSH2 0x26F4 JUMP JUMPDEST POP DUP2 DUP2 PUSH1 0x2 ADD DUP2 SWAP1 SSTORE POP DUP4 DUP2 PUSH1 0x1 ADD SWAP1 DUP2 PUSH2 0x9DA SWAP2 SWAP1 PUSH2 0x26F4 JUMP JUMPDEST POP PUSH1 0x15 PUSH1 0x0 DUP2 SLOAD DUP1 SWAP3 SWAP2 SWAP1 PUSH2 0x9EE SWAP1 PUSH2 0x27F5 JUMP JUMPDEST SWAP2 SWAP1 POP SSTORE POP POP POP POP POP JUMP JUMPDEST PUSH1 0x0 PUSH2 0x3E8 PUSH1 0x1 SLOAD PUSH2 0x3E8 PUSH2 0xA0E SWAP2 SWAP1 PUSH2 0x283D JUMP JUMPDEST SELFBALANCE PUSH2 0xA19 SWAP2 SWAP1 PUSH2 0x2871 JUMP JUMPDEST PUSH2 0xA23 SWAP2 SWAP1 PUSH2 0x28FA JUMP JUMPDEST SWAP1 POP SWAP1 JUMP JUMPDEST PUSH1 0x1A SLOAD DUP2 JUMP JUMPDEST PUSH1 0x18 SLOAD DUP2 JUMP JUMPDEST PUSH1 0xD PUSH1 0x20 MSTORE DUP1 PUSH1 0x0 MSTORE PUSH1 0x40 PUSH1 0x0 KECCAK256 PUSH1 0x0 SWAP2 POP SWAP1 POP SLOAD DUP2 JUMP JUMPDEST PUSH1 0x8 PUSH1 0x20 MSTORE DUP1 PUSH1 0x0 MSTORE PUSH1 0x40 PUSH1 0x0 KECCAK256 PUSH1 0x0 SWAP2 POP SLOAD SWAP1 PUSH2 0x100 EXP SWAP1 DIV PUSH1 0xFF AND DUP2 JUMP JUMPDEST PUSH1 0x11 SLOAD DUP2 JUMP JUMPDEST PUSH1 0x0 PUSH1 0x1 ISZERO ISZERO PUSH1 0x13 PUSH1 0x0 SWAP1 SLOAD SWAP1 PUSH2 0x100 EXP SWAP1 DIV PUSH1 0xFF AND ISZERO ISZERO EQ PUSH2 0xA94 JUMPI PUSH1 0x0 DUP1 REVERT JUMPDEST PUSH1 0x5 PUSH1 0x0 SWAP1 SLOAD SWAP1 PUSH2 0x100 EXP SWAP1 DIV PUSH20 0xFFFFFFFFFFFFFFFFFFFFFFFFFFFFFFFFFFFFFFFF AND PUSH20 0xFFFFFFFFFFFFFFFFFFFFFFFFFFFFFFFFFFFFFFFF AND CALLER PUSH20 0xFFFFFFFFFFFFFFFFFFFFFFFFFFFFFFFFFFFFFFFF AND EQ PUSH2 0xAEE JUMPI PUSH1 0x0 DUP1 REVERT JUMPDEST PUSH1 0x0 PUSH1 0x14 DUP4 DUP2 SLOAD DUP2 LT PUSH2 0xB04 JUMPI PUSH2 0xB03 PUSH2 0x24B9 JUMP JUMPDEST JUMPDEST SWAP1 PUSH1 0x0 MSTORE PUSH1 0x20 PUSH1 0x0 KECCAK256 SWAP1 PUSH1 0x6 MUL ADD SWAP1 POP PUSH1 0x2 PUSH1 0x3 SLOAD PUSH2 0xB23 SWAP2 SWAP1 PUSH2 0x28FA JUMP JUMPDEST DUP2 PUSH1 0x4 ADD SLOAD LT ISZERO PUSH2 0xB33 JUMPI PUSH1 0x0 DUP1 REVERT JUMPDEST PUSH1 0x6 PUSH1 0x0 SWAP1 SLOAD SWAP1 PUSH2 0x100 EXP SWAP1 DIV PUSH20 0xFFFFFFFFFFFFFFFFFFFFFFFFFFFFFFFFFFFFFFFF AND PUSH20 0xFFFFFFFFFFFFFFFFFFFFFFFFFFFFFFFFFFFFFFFF AND PUSH2 0x8FC DUP3 PUSH1 0x2 ADD SLOAD SWAP1 DUP2 ISZERO MUL SWAP1 PUSH1 0x40 MLOAD PUSH1 0x0 PUSH1 0x40 MLOAD DUP1 DUP4 SUB DUP2 DUP6 DUP9 DUP9 CALL SWAP4 POP POP POP POP ISZERO DUP1 ISZERO PUSH2 0xB9F JUMPI RETURNDATASIZE PUSH1 0x0 DUP1 RETURNDATACOPY RETURNDATASIZE PUSH1 0x0 REVERT JUMPDEST POP PUSH1 0x1 DUP2 PUSH1 0x3 ADD PUSH1 0x0 PUSH2 0x100 EXP DUP2 SLOAD DUP2 PUSH1 0xFF MUL NOT AND SWAP1 DUP4 ISZERO ISZERO MUL OR SWAP1 SSTORE POP PUSH1 0x1 SWAP2 POP POP SWAP2 SWAP1 POP JUMP JUMPDEST PUSH1 0x5 PUSH1 0x0 SWAP1 SLOAD SWAP1 PUSH2 0x100 EXP SWAP1 DIV PUSH20 0xFFFFFFFFFFFFFFFFFFFFFFFFFFFFFFFFFFFFFFFF AND DUP2 JUMP JUMPDEST PUSH1 0x1 PUSH1 0x13 PUSH1 0x0 PUSH2 0x100 EXP DUP2 SLOAD DUP2 PUSH1 0xFF MUL NOT AND SWAP1 DUP4 ISZERO ISZERO MUL OR SWAP1 SSTORE POP PUSH1 0x0 SELFBALANCE SWAP1 POP PUSH1 0x0 DUP1 PUSH1 0x0 SWAP1 POP JUMPDEST PUSH1 0xA DUP1 SLOAD SWAP1 POP DUP2 LT ISZERO PUSH2 0xD17 JUMPI PUSH1 0x0 PUSH1 0xA DUP3 DUP2 SLOAD DUP2 LT PUSH2 0xC38 JUMPI PUSH2 0xC37 PUSH2 0x24B9 JUMP JUMPDEST JUMPDEST SWAP1 PUSH1 0x0 MSTORE PUSH1 0x20 PUSH1 0x0 KECCAK256 ADD PUSH1 0x0 SWAP1 SLOAD SWAP1 PUSH2 0x100 EXP SWAP1 DIV PUSH20 0xFFFFFFFFFFFFFFFFFFFFFFFFFFFFFFFFFFFFFFFF AND SWAP1 POP PUSH1 0xC PUSH1 0x0 DUP3 PUSH20 0xFFFFFFFFFFFFFFFFFFFFFFFFFFFFFFFFFFFFFFFF AND PUSH20 0xFFFFFFFFFFFFFFFFFFFFFFFFFFFFFFFFFFFFFFFF AND DUP2 MSTORE PUSH1 0x20 ADD SWAP1 DUP2 MSTORE PUSH1 0x20 ADD PUSH1 0x0 KECCAK256 SLOAD SWAP3 POP DUP4 PUSH2 0x3E8 DUP5 PUSH2 0xCB6 SWAP2 SWAP1 PUSH2 0x2871 JUMP JUMPDEST PUSH2 0xCC0 SWAP2 SWAP1 PUSH2 0x28FA JUMP JUMPDEST PUSH1 0xD PUSH1 0x0 DUP4 PUSH20 0xFFFFFFFFFFFFFFFFFFFFFFFFFFFFFFFFFFFFFFFF AND PUSH20 0xFFFFFFFFFFFFFFFFFFFFFFFFFFFFFFFFFFFFFFFF AND DUP2 MSTORE PUSH1 0x20 ADD SWAP1 DUP2 MSTORE PUSH1 0x20 ADD PUSH1 0x0 KECCAK256 DUP2 SWAP1 SSTORE POP POP DUP1 DUP1 PUSH2 0xD0F SWAP1 PUSH2 0x27F5 JUMP JUMPDEST SWAP2 POP POP PUSH2 0xC15 JUMP JUMPDEST POP PUSH2 0xD20 PUSH2 0x1973 JUMP JUMPDEST POP POP JUMP JUMPDEST PUSH1 0x2 PUSH1 0x3 SLOAD PUSH2 0xD33 SWAP2 SWAP1 PUSH2 0x28FA JUMP JUMPDEST PUSH1 0x9 SLOAD LT ISZERO DUP1 PUSH2 0xD56 JUMPI POP PUSH1 0x0 ISZERO ISZERO PUSH1 0x13 PUSH1 0x0 SWAP1 SLOAD SWAP1 PUSH2 0x100 EXP SWAP1 DIV PUSH1 0xFF AND ISZERO ISZERO EQ JUMPDEST PUSH2 0xD5F JUMPI PUSH1 0x0 DUP1 REVERT JUMPDEST PUSH1 0x6 PUSH1 0x0 SWAP1 SLOAD SWAP1 PUSH2 0x100 EXP SWAP1 DIV PUSH20 0xFFFFFFFFFFFFFFFFFFFFFFFFFFFFFFFFFFFFFFFF AND PUSH20 0xFFFFFFFFFFFFFFFFFFFFFFFFFFFFFFFFFFFFFFFF AND CALLER PUSH20 0xFFFFFFFFFFFFFFFFFFFFFFFFFFFFFFFFFFFFFFFF AND EQ PUSH2 0xDB9 JUMPI PUSH1 0x0 DUP1 REVERT JUMPDEST PUSH2 0xDC1 PUSH2 0x9F9 JUMP JUMPDEST PUSH1 0x19 DUP2 SWAP1 SSTORE POP PUSH1 0x0 JUMPDEST PUSH1 0xA DUP1 SLOAD SWAP1 POP DUP2 LT ISZERO PUSH2 0xF33 JUMPI PUSH1 0x0 PUSH1 0xA DUP3 DUP2 SLOAD DUP2 LT PUSH2 0xDED JUMPI PUSH2 0xDEC PUSH2 0x24B9 JUMP JUMPDEST JUMPDEST SWAP1 PUSH1 0x0 MSTORE PUSH1 0x20 PUSH1 0x0 KECCAK256 ADD PUSH1 0x0 SWAP1 SLOAD SWAP1 PUSH2 0x100 EXP SWAP1 DIV PUSH20 0xFFFFFFFFFFFFFFFFFFFFFFFFFFFFFFFFFFFFFFFF AND SWAP1 POP PUSH1 0x0 ISZERO ISZERO PUSH1 0xE PUSH1 0x0 DUP4 PUSH20 0xFFFFFFFFFFFFFFFFFFFFFFFFFFFFFFFFFFFFFFFF AND PUSH20 0xFFFFFFFFFFFFFFFFFFFFFFFFFFFFFFFFFFFFFFFF AND DUP2 MSTORE PUSH1 0x20 ADD SWAP1 DUP2 MSTORE PUSH1 0x20 ADD PUSH1 0x0 KECCAK256 PUSH1 0x0 SWAP1 SLOAD SWAP1 PUSH2 0x100 EXP SWAP1 DIV PUSH1 0xFF AND ISZERO ISZERO SUB PUSH2 0xF1F JUMPI PUSH1 0x0 PUSH1 0xD PUSH1 0x0 DUP4 PUSH20 0xFFFFFFFFFFFFFFFFFFFFFFFFFFFFFFFFFFFFFFFF AND PUSH20 0xFFFFFFFFFFFFFFFFFFFFFFFFFFFFFFFFFFFFFFFF AND DUP2 MSTORE PUSH1 0x20 ADD SWAP1 DUP2 MSTORE PUSH1 0x20 ADD PUSH1 0x0 KECCAK256 SLOAD SWAP1 POP PUSH1 0x0 PUSH2 0x3E8 PUSH1 0x19 SLOAD DUP4 PUSH2 0xEC9 SWAP2 SWAP1 PUSH2 0x2871 JUMP JUMPDEST PUSH2 0xED3 SWAP2 SWAP1 PUSH2 0x28FA JUMP JUMPDEST SWAP1 POP DUP3 PUSH20 0xFFFFFFFFFFFFFFFFFFFFFFFFFFFFFFFFFFFFFFFF AND PUSH2 0x8FC DUP3 SWAP1 DUP2 ISZERO MUL SWAP1 PUSH1 0x40 MLOAD PUSH1 0x0 PUSH1 0x40 MLOAD DUP1 DUP4 SUB DUP2 DUP6 DUP9 DUP9 CALL SWAP4 POP POP POP POP ISZERO DUP1 ISZERO PUSH2 0xF1B JUMPI RETURNDATASIZE PUSH1 0x0 DUP1 RETURNDATACOPY RETURNDATASIZE PUSH1 0x0 REVERT JUMPDEST POP POP POP JUMPDEST POP DUP1 DUP1 PUSH2 0xF2B SWAP1 PUSH2 0x27F5 JUMP JUMPDEST SWAP2 POP POP PUSH2 0xDCA JUMP JUMPDEST POP SELFBALANCE PUSH1 0x18 DUP2 SWAP1 SSTORE POP PUSH1 0x5 PUSH1 0x0 SWAP1 SLOAD SWAP1 PUSH2 0x100 EXP SWAP1 DIV PUSH20 0xFFFFFFFFFFFFFFFFFFFFFFFFFFFFFFFFFFFFFFFF AND PUSH20 0xFFFFFFFFFFFFFFFFFFFFFFFFFFFFFFFFFFFFFFFF AND PUSH2 0x8FC PUSH1 0x18 SLOAD SWAP1 DUP2 ISZERO MUL SWAP1 PUSH1 0x40 MLOAD PUSH1 0x0 PUSH1 0x40 MLOAD DUP1 DUP4 SUB DUP2 DUP6 DUP9 DUP9 CALL SWAP4 POP POP POP POP ISZERO DUP1 ISZERO PUSH2 0xFA5 JUMPI RETURNDATASIZE PUSH1 0x0 DUP1 RETURNDATACOPY RETURNDATASIZE PUSH1 0x0 REVERT JUMPDEST POP JUMP JUMPDEST PUSH1 0x1 ISZERO ISZERO PUSH1 0x13 PUSH1 0x0 SWAP1 SLOAD SWAP1 PUSH2 0x100 EXP SWAP1 DIV PUSH1 0xFF AND ISZERO ISZERO EQ PUSH2 0xFC8 JUMPI PUSH1 0x0 DUP1 REVERT JUMPDEST PUSH1 0x7 PUSH1 0x0 CALLER PUSH20 0xFFFFFFFFFFFFFFFFFFFFFFFFFFFFFFFFFFFFFFFF AND PUSH20 0xFFFFFFFFFFFFFFFFFFFFFFFFFFFFFFFFFFFFFFFF AND DUP2 MSTORE PUSH1 0x20 ADD SWAP1 DUP2 MSTORE PUSH1 0x20 ADD PUSH1 0x0 KECCAK256 PUSH1 0x0 SWAP1 SLOAD SWAP1 PUSH2 0x100 EXP SWAP1 DIV PUSH1 0xFF AND PUSH2 0x101E JUMPI PUSH1 0x0 DUP1 REVERT JUMPDEST PUSH1 0x0 ISZERO ISZERO PUSH1 0x8 PUSH1 0x0 CALLER PUSH20 0xFFFFFFFFFFFFFFFFFFFFFFFFFFFFFFFFFFFFFFFF AND PUSH20 0xFFFFFFFFFFFFFFFFFFFFFFFFFFFFFFFFFFFFFFFF AND DUP2 MSTORE PUSH1 0x20 ADD SWAP1 DUP2 MSTORE PUSH1 0x20 ADD PUSH1 0x0 KECCAK256 PUSH1 0x0 SWAP1 SLOAD SWAP1 PUSH2 0x100 EXP SWAP1 DIV PUSH1 0xFF AND ISZERO ISZERO SUB PUSH2 0x10E7 JUMPI PUSH1 0x1 PUSH1 0x8 PUSH1 0x0 CALLER PUSH20 0xFFFFFFFFFFFFFFFFFFFFFFFFFFFFFFFFFFFFFFFF AND PUSH20 0xFFFFFFFFFFFFFFFFFFFFFFFFFFFFFFFFFFFFFFFF AND DUP2 MSTORE PUSH1 0x20 ADD SWAP1 DUP2 MSTORE PUSH1 0x20 ADD PUSH1 0x0 KECCAK256 PUSH1 0x0 PUSH2 0x100 EXP DUP2 SLOAD DUP2 PUSH1 0xFF MUL NOT AND SWAP1 DUP4 ISZERO ISZERO MUL OR SWAP1 SSTORE POP PUSH1 0x9 PUSH1 0x0 DUP2 SLOAD DUP1 SWAP3 SWAP2 SWAP1 PUSH2 0x10E1 SWAP1 PUSH2 0x27F5 JUMP JUMPDEST SWAP2 SWAP1 POP SSTORE POP JUMPDEST PUSH1 0x2 PUSH1 0x3 SLOAD PUSH2 0x10F6 SWAP2 SWAP1 PUSH2 0x28FA JUMP JUMPDEST PUSH1 0x9 SLOAD LT PUSH2 0x111A JUMPI PUSH1 0x0 PUSH1 0x13 PUSH1 0x0 PUSH2 0x100 EXP DUP2 SLOAD DUP2 PUSH1 0xFF MUL NOT AND SWAP1 DUP4 ISZERO ISZERO MUL OR SWAP1 SSTORE POP JUMPDEST JUMP JUMPDEST PUSH1 0x17 SLOAD DUP2 JUMP JUMPDEST PUSH1 0xF SLOAD DUP2 JUMP JUMPDEST PUSH1 0x15 SLOAD DUP2 JUMP JUMPDEST PUSH1 0x0 PUSH1 0x1 SWAP1 POP SWAP1 JUMP JUMPDEST PUSH1 0xE PUSH1 0x20 MSTORE DUP1 PUSH1 0x0 MSTORE PUSH1 0x40 PUSH1 0x0 KECCAK256 PUSH1 0x0 SWAP2 POP SLOAD SWAP1 PUSH2 0x100 EXP SWAP1 DIV PUSH1 0xFF AND DUP2 JUMP JUMPDEST PUSH1 0x19 SLOAD DUP2 JUMP JUMPDEST PUSH1 0x0 DUP1 PUSH1 0x0 JUMPDEST PUSH1 0xA DUP1 SLOAD SWAP1 POP DUP2 LT ISZERO PUSH2 0x126D JUMPI PUSH1 0x0 PUSH1 0xA DUP3 DUP2 SLOAD DUP2 LT PUSH2 0x1186 JUMPI PUSH2 0x1185 PUSH2 0x24B9 JUMP JUMPDEST JUMPDEST SWAP1 PUSH1 0x0 MSTORE PUSH1 0x20 PUSH1 0x0 KECCAK256 ADD PUSH1 0x0 SWAP1 SLOAD SWAP1 PUSH2 0x100 EXP SWAP1 DIV PUSH20 0xFFFFFFFFFFFFFFFFFFFFFFFFFFFFFFFFFFFFFFFF AND SWAP1 POP PUSH1 0x0 ISZERO ISZERO PUSH1 0xE PUSH1 0x0 DUP4 PUSH20 0xFFFFFFFFFFFFFFFFFFFFFFFFFFFFFFFFFFFFFFFF AND PUSH20 0xFFFFFFFFFFFFFFFFFFFFFFFFFFFFFFFFFFFFFFFF AND DUP2 MSTORE PUSH1 0x20 ADD SWAP1 DUP2 MSTORE PUSH1 0x20 ADD PUSH1 0x0 KECCAK256 PUSH1 0x0 SWAP1 SLOAD SWAP1 PUSH2 0x100 EXP SWAP1 DIV PUSH1 0xFF AND ISZERO ISZERO SUB PUSH2 0x1259 JUMPI PUSH1 0xD PUSH1 0x0 DUP3 PUSH20 0xFFFFFFFFFFFFFFFFFFFFFFFFFFFFFFFFFFFFFFFF AND PUSH20 0xFFFFFFFFFFFFFFFFFFFFFFFFFFFFFFFFFFFFFFFF AND DUP2 MSTORE PUSH1 0x20 ADD SWAP1 DUP2 MSTORE PUSH1 0x20 ADD PUSH1 0x0 KECCAK256 SLOAD DUP4 PUSH2 0x1256 SWAP2 SWAP1 PUSH2 0x292B JUMP JUMPDEST SWAP3 POP JUMPDEST POP DUP1 DUP1 PUSH2 0x1265 SWAP1 PUSH2 0x27F5 JUMP JUMPDEST SWAP2 POP POP PUSH2 0x1163 JUMP JUMPDEST POP DUP1 SWAP2 POP POP SWAP1 JUMP JUMPDEST PUSH1 0x0 PUSH1 0x1 ISZERO ISZERO PUSH1 0x13 PUSH1 0x0 SWAP1 SLOAD SWAP1 PUSH2 0x100 EXP SWAP1 DIV PUSH1 0xFF AND ISZERO ISZERO EQ PUSH2 0x1297 JUMPI PUSH1 0x0 DUP1 REVERT JUMPDEST PUSH1 0x6 PUSH1 0x0 SWAP1 SLOAD SWAP1 PUSH2 0x100 EXP SWAP1 DIV PUSH20 0xFFFFFFFFFFFFFFFFFFFFFFFFFFFFFFFFFFFFFFFF AND PUSH20 0xFFFFFFFFFFFFFFFFFFFFFFFFFFFFFFFFFFFFFFFF AND CALLER PUSH20 0xFFFFFFFFFFFFFFFFFFFFFFFFFFFFFFFFFFFFFFFF AND EQ PUSH2 0x12F1 JUMPI PUSH1 0x0 DUP1 REVERT JUMPDEST PUSH1 0x0 ISZERO ISZERO PUSH1 0x7 PUSH1 0x0 CALLER PUSH20 0xFFFFFFFFFFFFFFFFFFFFFFFFFFFFFFFFFFFFFFFF AND PUSH20 0xFFFFFFFFFFFFFFFFFFFFFFFFFFFFFFFFFFFFFFFF AND DUP2 MSTORE PUSH1 0x20 ADD SWAP1 DUP2 MSTORE PUSH1 0x20 ADD PUSH1 0x0 KECCAK256 PUSH1 0x0 SWAP1 SLOAD SWAP1 PUSH2 0x100 EXP SWAP1 DIV PUSH1 0xFF AND ISZERO ISZERO EQ PUSH2 0x134E JUMPI PUSH1 0x0 DUP1 REVERT JUMPDEST PUSH1 0x0 PUSH1 0xD PUSH1 0x0 DUP6 PUSH20 0xFFFFFFFFFFFFFFFFFFFFFFFFFFFFFFFFFFFFFFFF AND PUSH20 0xFFFFFFFFFFFFFFFFFFFFFFFFFFFFFFFFFFFFFFFF AND DUP2 MSTORE PUSH1 0x20 ADD SWAP1 DUP2 MSTORE PUSH1 0x20 ADD PUSH1 0x0 KECCAK256 SLOAD SWAP1 POP PUSH1 0x0 PUSH2 0x139C PUSH2 0x9F9 JUMP JUMPDEST DUP5 PUSH2 0x13A7 SWAP2 SWAP1 PUSH2 0x292B JUMP JUMPDEST SWAP1 POP PUSH1 0x0 PUSH2 0x3E8 PUSH1 0x0 SLOAD PUSH2 0x3E8 DUP6 DUP6 PUSH2 0x13C0 SWAP2 SWAP1 PUSH2 0x2871 JUMP JUMPDEST PUSH2 0x13CA SWAP2 SWAP1 PUSH2 0x28FA JUMP JUMPDEST PUSH2 0x13D4 SWAP2 SWAP1 PUSH2 0x2871 JUMP JUMPDEST PUSH2 0x13DE SWAP2 SWAP1 PUSH2 0x28FA JUMP JUMPDEST SWAP1 POP DUP1 PUSH1 0x17 DUP2 SWAP1 SSTORE POP SELFBALANCE DUP2 GT PUSH2 0x14CA JUMPI PUSH1 0x17 SLOAD PUSH1 0x1A DUP2 SWAP1 SSTORE POP DUP6 PUSH20 0xFFFFFFFFFFFFFFFFFFFFFFFFFFFFFFFFFFFFFFFF AND PUSH2 0x8FC DUP3 SWAP1 DUP2 ISZERO MUL SWAP1 PUSH1 0x40 MLOAD PUSH1 0x0 PUSH1 0x40 MLOAD DUP1 DUP4 SUB DUP2 DUP6 DUP9 DUP9 CALL SWAP4 POP POP POP POP ISZERO DUP1 ISZERO PUSH2 0x143D JUMPI RETURNDATASIZE PUSH1 0x0 DUP1 RETURNDATACOPY RETURNDATASIZE PUSH1 0x0 REVERT JUMPDEST POP PUSH1 0x1 PUSH1 0xE PUSH1 0x0 DUP9 PUSH20 0xFFFFFFFFFFFFFFFFFFFFFFFFFFFFFFFFFFFFFFFF AND PUSH20 0xFFFFFFFFFFFFFFFFFFFFFFFFFFFFFFFFFFFFFFFF AND DUP2 MSTORE PUSH1 0x20 ADD SWAP1 DUP2 MSTORE PUSH1 0x20 ADD PUSH1 0x0 KECCAK256 PUSH1 0x0 PUSH2 0x100 EXP DUP2 SLOAD DUP2 PUSH1 0xFF MUL NOT AND SWAP1 DUP4 ISZERO ISZERO MUL OR SWAP1 SSTORE POP DUP1 PUSH1 0x16 DUP2 SWAP1 SSTORE POP PUSH2 0x14A6 DUP4 PUSH2 0x1E59 JUMP JUMPDEST PUSH1 0xB PUSH1 0x0 DUP2 SLOAD DUP1 SWAP3 SWAP2 SWAP1 PUSH2 0x14B9 SWAP1 PUSH2 0x2981 JUMP JUMPDEST SWAP2 SWAP1 POP SSTORE POP PUSH1 0x1 SWAP4 POP POP POP POP PUSH2 0x14D2 JUMP JUMPDEST PUSH1 0x0 SWAP4 POP POP POP POP JUMPDEST SWAP3 SWAP2 POP POP JUMP JUMPDEST PUSH1 0x0 ISZERO ISZERO PUSH1 0x13 PUSH1 0x0 SWAP1 SLOAD SWAP1 PUSH2 0x100 EXP SWAP1 DIV PUSH1 0xFF AND ISZERO ISZERO EQ PUSH2 0x14F8 JUMPI PUSH1 0x0 DUP1 REVERT JUMPDEST PUSH1 0x0 PUSH1 0xC PUSH1 0x0 CALLER PUSH20 0xFFFFFFFFFFFFFFFFFFFFFFFFFFFFFFFFFFFFFFFF AND PUSH20 0xFFFFFFFFFFFFFFFFFFFFFFFFFFFFFFFFFFFFFFFF AND DUP2 MSTORE PUSH1 0x20 ADD SWAP1 DUP2 MSTORE PUSH1 0x20 ADD PUSH1 0x0 KECCAK256 SLOAD SWAP1 POP PUSH1 0x0 DUP2 SUB PUSH2 0x15CF JUMPI PUSH1 0xF SLOAD CALLVALUE LT ISZERO PUSH2 0x1553 JUMPI PUSH1 0x0 DUP1 REVERT JUMPDEST PUSH1 0xA CALLER SWAP1 DUP1 PUSH1 0x1 DUP2 SLOAD ADD DUP1 DUP3 SSTORE DUP1 SWAP2 POP POP PUSH1 0x1 SWAP1 SUB SWAP1 PUSH1 0x0 MSTORE PUSH1 0x20 PUSH1 0x0 KECCAK256 ADD PUSH1 0x0 SWAP1 SWAP2 SWAP1 SWAP2 SWAP1 SWAP2 PUSH2 0x100 EXP DUP2 SLOAD DUP2 PUSH20 0xFFFFFFFFFFFFFFFFFFFFFFFFFFFFFFFFFFFFFFFF MUL NOT AND SWAP1 DUP4 PUSH20 0xFFFFFFFFFFFFFFFFFFFFFFFFFFFFFFFFFFFFFFFF AND MUL OR SWAP1 SSTORE POP PUSH1 0xB PUSH1 0x0 DUP2 SLOAD DUP1 SWAP3 SWAP2 SWAP1 PUSH2 0x15C9 SWAP1 PUSH2 0x27F5 JUMP JUMPDEST SWAP2 SWAP1 POP SSTORE POP JUMPDEST CALLVALUE DUP2 PUSH2 0x15DB SWAP2 SWAP1 PUSH2 0x292B JUMP JUMPDEST PUSH1 0xC PUSH1 0x0 CALLER PUSH20 0xFFFFFFFFFFFFFFFFFFFFFFFFFFFFFFFFFFFFFFFF AND PUSH20 0xFFFFFFFFFFFFFFFFFFFFFFFFFFFFFFFFFFFFFFFF AND DUP2 MSTORE PUSH1 0x20 ADD SWAP1 DUP2 MSTORE PUSH1 0x20 ADD PUSH1 0x0 KECCAK256 DUP2 SWAP1 SSTORE POP POP JUMP JUMPDEST PUSH1 0xC PUSH1 0x20 MSTORE DUP1 PUSH1 0x0 MSTORE PUSH1 0x40 PUSH1 0x0 KECCAK256 PUSH1 0x0 SWAP2 POP SWAP1 POP SLOAD DUP2 JUMP JUMPDEST PUSH1 0x7 PUSH1 0x0 CALLER PUSH20 0xFFFFFFFFFFFFFFFFFFFFFFFFFFFFFFFFFFFFFFFF AND PUSH20 0xFFFFFFFFFFFFFFFFFFFFFFFFFFFFFFFFFFFFFFFF AND DUP2 MSTORE PUSH1 0x20 ADD SWAP1 DUP2 MSTORE PUSH1 0x20 ADD PUSH1 0x0 KECCAK256 PUSH1 0x0 SWAP1 SLOAD SWAP1 PUSH2 0x100 EXP SWAP1 DIV PUSH1 0xFF AND PUSH2 0x168F JUMPI PUSH1 0x0 DUP1 REVERT JUMPDEST PUSH1 0x0 PUSH1 0x14 DUP3 DUP2 SLOAD DUP2 LT PUSH2 0x16A5 JUMPI PUSH2 0x16A4 PUSH2 0x24B9 JUMP JUMPDEST JUMPDEST SWAP1 PUSH1 0x0 MSTORE PUSH1 0x20 PUSH1 0x0 KECCAK256 SWAP1 PUSH1 0x6 MUL ADD SWAP1 POP DUP1 PUSH1 0x5 ADD PUSH1 0x0 CALLER PUSH20 0xFFFFFFFFFFFFFFFFFFFFFFFFFFFFFFFFFFFFFFFF AND PUSH20 0xFFFFFFFFFFFFFFFFFFFFFFFFFFFFFFFFFFFFFFFF AND DUP2 MSTORE PUSH1 0x20 ADD SWAP1 DUP2 MSTORE PUSH1 0x20 ADD PUSH1 0x0 KECCAK256 PUSH1 0x0 SWAP1 SLOAD SWAP1 PUSH2 0x100 EXP SWAP1 DIV PUSH1 0xFF AND ISZERO PUSH2 0x170E JUMPI PUSH1 0x0 DUP1 REVERT JUMPDEST PUSH1 0x1 DUP2 PUSH1 0x5 ADD PUSH1 0x0 CALLER PUSH20 0xFFFFFFFFFFFFFFFFFFFFFFFFFFFFFFFFFFFFFFFF AND PUSH20 0xFFFFFFFFFFFFFFFFFFFFFFFFFFFFFFFFFFFFFFFF AND DUP2 MSTORE PUSH1 0x20 ADD SWAP1 DUP2 MSTORE PUSH1 0x20 ADD PUSH1 0x0 KECCAK256 PUSH1 0x0 PUSH2 0x100 EXP DUP2 SLOAD DUP2 PUSH1 0xFF MUL NOT AND SWAP1 DUP4 ISZERO ISZERO MUL OR SWAP1 SSTORE POP DUP1 PUSH1 0x4 ADD PUSH1 0x0 DUP2 SLOAD DUP1 SWAP3 SWAP2 SWAP1 PUSH2 0x177D SWAP1 PUSH2 0x27F5 JUMP JUMPDEST SWAP2 SWAP1 POP SSTORE POP POP POP JUMP JUMPDEST PUSH1 0x16 SLOAD DUP2 JUMP JUMPDEST PUSH1 0x6 PUSH1 0x0 SWAP1 SLOAD SWAP1 PUSH2 0x100 EXP SWAP1 DIV PUSH20 0xFFFFFFFFFFFFFFFFFFFFFFFFFFFFFFFFFFFFFFFF AND DUP2 JUMP JUMPDEST PUSH1 0x14 DUP2 DUP2 SLOAD DUP2 LT PUSH2 0x17C2 JUMPI PUSH1 0x0 DUP1 REVERT JUMPDEST SWAP1 PUSH1 0x0 MSTORE PUSH1 0x20 PUSH1 0x0 KECCAK256 SWAP1 PUSH1 0x6 MUL ADD PUSH1 0x0 SWAP2 POP SWAP1 POP DUP1 PUSH1 0x0 ADD DUP1 SLOAD PUSH2 0x17E5 SWAP1 PUSH2 0x2517 JUMP JUMPDEST DUP1 PUSH1 0x1F ADD PUSH1 0x20 DUP1 SWAP2 DIV MUL PUSH1 0x20 ADD PUSH1 0x40 MLOAD SWAP1 DUP2 ADD PUSH1 0x40 MSTORE DUP1 SWAP3 SWAP2 SWAP1 DUP2 DUP2 MSTORE PUSH1 0x20 ADD DUP3 DUP1 SLOAD PUSH2 0x1811 SWAP1 PUSH2 0x2517 JUMP JUMPDEST DUP1 ISZERO PUSH2 0x185E JUMPI DUP1 PUSH1 0x1F LT PUSH2 0x1833 JUMPI PUSH2 0x100 DUP1 DUP4 SLOAD DIV MUL DUP4 MSTORE SWAP2 PUSH1 0x20 ADD SWAP2 PUSH2 0x185E JUMP JUMPDEST DUP3 ADD SWAP2 SWAP1 PUSH1 0x0 MSTORE PUSH1 0x20 PUSH1 0x0 KECCAK256 SWAP1 JUMPDEST DUP2 SLOAD DUP2 MSTORE SWAP1 PUSH1 0x1 ADD SWAP1 PUSH1 0x20 ADD DUP1 DUP4 GT PUSH2 0x1841 JUMPI DUP3 SWAP1 SUB PUSH1 0x1F AND DUP3 ADD SWAP2 JUMPDEST POP POP POP POP POP SWAP1 DUP1 PUSH1 0x1 ADD DUP1 SLOAD PUSH2 0x1873 SWAP1 PUSH2 0x2517 JUMP JUMPDEST DUP1 PUSH1 0x1F ADD PUSH1 0x20 DUP1 SWAP2 DIV MUL PUSH1 0x20 ADD PUSH1 0x40 MLOAD SWAP1 DUP2 ADD PUSH1 0x40 MSTORE DUP1 SWAP3 SWAP2 SWAP1 DUP2 DUP2 MSTORE PUSH1 0x20 ADD DUP3 DUP1 SLOAD PUSH2 0x189F SWAP1 PUSH2 0x2517 JUMP JUMPDEST DUP1 ISZERO PUSH2 0x18EC JUMPI DUP1 PUSH1 0x1F LT PUSH2 0x18C1 JUMPI PUSH2 0x100 DUP1 DUP4 SLOAD DIV MUL DUP4 MSTORE SWAP2 PUSH1 0x20 ADD SWAP2 PUSH2 0x18EC JUMP JUMPDEST DUP3 ADD SWAP2 SWAP1 PUSH1 0x0 MSTORE PUSH1 0x20 PUSH1 0x0 KECCAK256 SWAP1 JUMPDEST DUP2 SLOAD DUP2 MSTORE SWAP1 PUSH1 0x1 ADD SWAP1 PUSH1 0x20 ADD DUP1 DUP4 GT PUSH2 0x18CF JUMPI DUP3 SWAP1 SUB PUSH1 0x1F AND DUP3 ADD SWAP2 JUMPDEST POP POP POP POP POP SWAP1 DUP1 PUSH1 0x2 ADD SLOAD SWAP1 DUP1 PUSH1 0x3 ADD PUSH1 0x0 SWAP1 SLOAD SWAP1 PUSH2 0x100 EXP SWAP1 DIV PUSH1 0xFF AND SWAP1 DUP1 PUSH1 0x4 ADD SLOAD SWAP1 POP DUP6 JUMP JUMPDEST PUSH1 0xA DUP2 DUP2 SLOAD DUP2 LT PUSH2 0x1925 JUMPI PUSH1 0x0 DUP1 REVERT JUMPDEST SWAP1 PUSH1 0x0 MSTORE PUSH1 0x20 PUSH1 0x0 KECCAK256 ADD PUSH1 0x0 SWAP2 POP SLOAD SWAP1 PUSH2 0x100 EXP SWAP1 DIV PUSH20 0xFFFFFFFFFFFFFFFFFFFFFFFFFFFFFFFFFFFFFFFF AND DUP2 JUMP JUMPDEST PUSH1 0x10 SLOAD DUP2 JUMP JUMPDEST PUSH1 0x12 SLOAD DUP2 JUMP JUMPDEST PUSH1 0x13 PUSH1 0x0 SWAP1 SLOAD SWAP1 PUSH2 0x100 EXP SWAP1 DIV PUSH1 0xFF AND DUP2 JUMP JUMPDEST PUSH1 0x0 PUSH1 0x3 SLOAD PUSH8 0xFFFFFFFFFFFFFFFF DUP2 GT ISZERO PUSH2 0x1991 JUMPI PUSH2 0x1990 PUSH2 0x220B JUMP JUMPDEST JUMPDEST PUSH1 0x40 MLOAD SWAP1 DUP1 DUP3 MSTORE DUP1 PUSH1 0x20 MUL PUSH1 0x20 ADD DUP3 ADD PUSH1 0x40 MSTORE DUP1 ISZERO PUSH2 0x19BF JUMPI DUP2 PUSH1 0x20 ADD PUSH1 0x20 DUP3 MUL DUP1 CALLDATASIZE DUP4 CALLDATACOPY DUP1 DUP3 ADD SWAP2 POP POP SWAP1 POP JUMPDEST POP SWAP1 POP PUSH1 0x0 PUSH1 0x3 SLOAD PUSH8 0xFFFFFFFFFFFFFFFF DUP2 GT ISZERO PUSH2 0x19E0 JUMPI PUSH2 0x19DF PUSH2 0x220B JUMP JUMPDEST JUMPDEST PUSH1 0x40 MLOAD SWAP1 DUP1 DUP3 MSTORE DUP1 PUSH1 0x20 MUL PUSH1 0x20 ADD DUP3 ADD PUSH1 0x40 MSTORE DUP1 ISZERO PUSH2 0x1A0E JUMPI DUP2 PUSH1 0x20 ADD PUSH1 0x20 DUP3 MUL DUP1 CALLDATASIZE DUP4 CALLDATACOPY DUP1 DUP3 ADD SWAP2 POP POP SWAP1 POP JUMPDEST POP SWAP1 POP PUSH1 0x0 DUP1 PUSH1 0x0 SWAP1 POP PUSH1 0x0 DUP1 PUSH1 0xA PUSH1 0x0 DUP2 SLOAD DUP2 LT PUSH2 0x1A30 JUMPI PUSH2 0x1A2F PUSH2 0x24B9 JUMP JUMPDEST JUMPDEST SWAP1 PUSH1 0x0 MSTORE PUSH1 0x20 PUSH1 0x0 KECCAK256 ADD PUSH1 0x0 SWAP1 SLOAD SWAP1 PUSH2 0x100 EXP SWAP1 DIV PUSH20 0xFFFFFFFFFFFFFFFFFFFFFFFFFFFFFFFFFFFFFFFF AND SWAP1 POP DUP1 DUP7 PUSH1 0x0 DUP2 MLOAD DUP2 LT PUSH2 0x1A72 JUMPI PUSH2 0x1A71 PUSH2 0x24B9 JUMP JUMPDEST JUMPDEST PUSH1 0x20 MUL PUSH1 0x20 ADD ADD SWAP1 PUSH20 0xFFFFFFFFFFFFFFFFFFFFFFFFFFFFFFFFFFFFFFFF AND SWAP1 DUP2 PUSH20 0xFFFFFFFFFFFFFFFFFFFFFFFFFFFFFFFFFFFFFFFF AND DUP2 MSTORE POP POP PUSH1 0xC PUSH1 0x0 DUP3 PUSH20 0xFFFFFFFFFFFFFFFFFFFFFFFFFFFFFFFFFFFFFFFF AND PUSH20 0xFFFFFFFFFFFFFFFFFFFFFFFFFFFFFFFFFFFFFFFF AND DUP2 MSTORE PUSH1 0x20 ADD SWAP1 DUP2 MSTORE PUSH1 0x20 ADD PUSH1 0x0 KECCAK256 SLOAD SWAP4 POP DUP4 DUP6 PUSH1 0x0 DUP2 MLOAD DUP2 LT PUSH2 0x1B03 JUMPI PUSH2 0x1B02 PUSH2 0x24B9 JUMP JUMPDEST JUMPDEST PUSH1 0x20 MUL PUSH1 0x20 ADD ADD DUP2 DUP2 MSTORE POP POP PUSH1 0x0 PUSH1 0x1 SWAP1 POP JUMPDEST PUSH1 0x3 SLOAD DUP2 LT ISZERO PUSH2 0x1C33 JUMPI PUSH1 0xA DUP2 DUP2 SLOAD DUP2 LT PUSH2 0x1B34 JUMPI PUSH2 0x1B33 PUSH2 0x24B9 JUMP JUMPDEST JUMPDEST SWAP1 PUSH1 0x0 MSTORE PUSH1 0x20 PUSH1 0x0 KECCAK256 ADD PUSH1 0x0 SWAP1 SLOAD SWAP1 PUSH2 0x100 EXP SWAP1 DIV PUSH20 0xFFFFFFFFFFFFFFFFFFFFFFFFFFFFFFFFFFFFFFFF AND SWAP2 POP DUP2 DUP8 DUP3 DUP2 MLOAD DUP2 LT PUSH2 0x1B75 JUMPI PUSH2 0x1B74 PUSH2 0x24B9 JUMP JUMPDEST JUMPDEST PUSH1 0x20 MUL PUSH1 0x20 ADD ADD SWAP1 PUSH20 0xFFFFFFFFFFFFFFFFFFFFFFFFFFFFFFFFFFFFFFFF AND SWAP1 DUP2 PUSH20 0xFFFFFFFFFFFFFFFFFFFFFFFFFFFFFFFFFFFFFFFF AND DUP2 MSTORE POP POP PUSH1 0xC PUSH1 0x0 DUP4 PUSH20 0xFFFFFFFFFFFFFFFFFFFFFFFFFFFFFFFFFFFFFFFF AND PUSH20 0xFFFFFFFFFFFFFFFFFFFFFFFFFFFFFFFFFFFFFFFF AND DUP2 MSTORE PUSH1 0x20 ADD SWAP1 DUP2 MSTORE PUSH1 0x20 ADD PUSH1 0x0 KECCAK256 SLOAD SWAP3 POP DUP3 DUP7 DUP3 DUP2 MLOAD DUP2 LT PUSH2 0x1C05 JUMPI PUSH2 0x1C04 PUSH2 0x24B9 JUMP JUMPDEST JUMPDEST PUSH1 0x20 MUL PUSH1 0x20 ADD ADD DUP2 DUP2 MSTORE POP POP DUP3 DUP6 GT ISZERO PUSH2 0x1C20 JUMPI DUP3 SWAP5 POP DUP1 SWAP4 POP JUMPDEST DUP1 DUP1 PUSH2 0x1C2B SWAP1 PUSH2 0x27F5 JUMP JUMPDEST SWAP2 POP POP PUSH2 0x1B16 JUMP JUMPDEST POP PUSH1 0x0 PUSH1 0x3 SLOAD SWAP1 POP JUMPDEST PUSH1 0xA DUP1 SLOAD SWAP1 POP DUP2 LT ISZERO PUSH2 0x1DBD JUMPI PUSH1 0xA DUP2 DUP2 SLOAD DUP2 LT PUSH2 0x1C5D JUMPI PUSH2 0x1C5C PUSH2 0x24B9 JUMP JUMPDEST JUMPDEST SWAP1 PUSH1 0x0 MSTORE PUSH1 0x20 PUSH1 0x0 KECCAK256 ADD PUSH1 0x0 SWAP1 SLOAD SWAP1 PUSH2 0x100 EXP SWAP1 DIV PUSH20 0xFFFFFFFFFFFFFFFFFFFFFFFFFFFFFFFFFFFFFFFF AND SWAP2 POP PUSH1 0xC PUSH1 0x0 DUP4 PUSH20 0xFFFFFFFFFFFFFFFFFFFFFFFFFFFFFFFFFFFFFFFF AND PUSH20 0xFFFFFFFFFFFFFFFFFFFFFFFFFFFFFFFFFFFFFFFF AND DUP2 MSTORE PUSH1 0x20 ADD SWAP1 DUP2 MSTORE PUSH1 0x20 ADD PUSH1 0x0 KECCAK256 SLOAD SWAP3 POP DUP5 DUP4 GT ISZERO PUSH2 0x1DAA JUMPI DUP2 DUP8 DUP6 DUP2 MLOAD DUP2 LT PUSH2 0x1CE8 JUMPI PUSH2 0x1CE7 PUSH2 0x24B9 JUMP JUMPDEST JUMPDEST PUSH1 0x20 MUL PUSH1 0x20 ADD ADD SWAP1 PUSH20 0xFFFFFFFFFFFFFFFFFFFFFFFFFFFFFFFFFFFFFFFF AND SWAP1 DUP2 PUSH20 0xFFFFFFFFFFFFFFFFFFFFFFFFFFFFFFFFFFFFFFFF AND DUP2 MSTORE POP POP DUP3 DUP7 DUP6 DUP2 MLOAD DUP2 LT PUSH2 0x1D36 JUMPI PUSH2 0x1D35 PUSH2 0x24B9 JUMP JUMPDEST JUMPDEST PUSH1 0x20 MUL PUSH1 0x20 ADD ADD DUP2 DUP2 MSTORE POP POP DUP3 SWAP5 POP PUSH1 0x0 JUMPDEST PUSH1 0x3 SLOAD DUP2 LT ISZERO PUSH2 0x1DA8 JUMPI DUP6 DUP8 DUP3 DUP2 MLOAD DUP2 LT PUSH2 0x1D66 JUMPI PUSH2 0x1D65 PUSH2 0x24B9 JUMP JUMPDEST JUMPDEST PUSH1 0x20 MUL PUSH1 0x20 ADD ADD MLOAD LT ISZERO PUSH2 0x1D95 JUMPI DUP7 DUP2 DUP2 MLOAD DUP2 LT PUSH2 0x1D87 JUMPI PUSH2 0x1D86 PUSH2 0x24B9 JUMP JUMPDEST JUMPDEST PUSH1 0x20 MUL PUSH1 0x20 ADD ADD MLOAD SWAP6 POP DUP1 SWAP5 POP JUMPDEST DUP1 DUP1 PUSH2 0x1DA0 SWAP1 PUSH2 0x27F5 JUMP JUMPDEST SWAP2 POP POP PUSH2 0x1D48 JUMP JUMPDEST POP JUMPDEST DUP1 DUP1 PUSH2 0x1DB5 SWAP1 PUSH2 0x27F5 JUMP JUMPDEST SWAP2 POP POP PUSH2 0x1C3C JUMP JUMPDEST POP PUSH1 0x0 JUMPDEST PUSH1 0x3 SLOAD DUP2 LT ISZERO PUSH2 0x1E50 JUMPI PUSH1 0x1 PUSH1 0x7 PUSH1 0x0 DUP10 DUP5 DUP2 MLOAD DUP2 LT PUSH2 0x1DE4 JUMPI PUSH2 0x1DE3 PUSH2 0x24B9 JUMP JUMPDEST JUMPDEST PUSH1 0x20 MUL PUSH1 0x20 ADD ADD MLOAD PUSH20 0xFFFFFFFFFFFFFFFFFFFFFFFFFFFFFFFFFFFFFFFF AND PUSH20 0xFFFFFFFFFFFFFFFFFFFFFFFFFFFFFFFFFFFFFFFF AND DUP2 MSTORE PUSH1 0x20 ADD SWAP1 DUP2 MSTORE PUSH1 0x20 ADD PUSH1 0x0 KECCAK256 PUSH1 0x0 PUSH2 0x100 EXP DUP2 SLOAD DUP2 PUSH1 0xFF MUL NOT AND SWAP1 DUP4 ISZERO ISZERO MUL OR SWAP1 SSTORE POP DUP1 DUP1 PUSH2 0x1E48 SWAP1 PUSH2 0x27F5 JUMP JUMPDEST SWAP2 POP POP PUSH2 0x1DC1 JUMP JUMPDEST POP POP POP POP POP POP POP JUMP JUMPDEST PUSH1 0x0 DUP2 PUSH2 0x3E8 PUSH2 0x1E69 SWAP2 SWAP1 PUSH2 0x283D JUMP JUMPDEST SWAP1 POP PUSH1 0x0 JUMPDEST PUSH1 0xA DUP1 SLOAD SWAP1 POP DUP2 LT ISZERO PUSH2 0x1FCC JUMPI PUSH1 0x0 PUSH1 0xA DUP3 DUP2 SLOAD DUP2 LT PUSH2 0x1E91 JUMPI PUSH2 0x1E90 PUSH2 0x24B9 JUMP JUMPDEST JUMPDEST SWAP1 PUSH1 0x0 MSTORE PUSH1 0x20 PUSH1 0x0 KECCAK256 ADD PUSH1 0x0 SWAP1 SLOAD SWAP1 PUSH2 0x100 EXP SWAP1 DIV PUSH20 0xFFFFFFFFFFFFFFFFFFFFFFFFFFFFFFFFFFFFFFFF AND SWAP1 POP PUSH1 0x0 ISZERO ISZERO PUSH1 0xE PUSH1 0x0 DUP4 PUSH20 0xFFFFFFFFFFFFFFFFFFFFFFFFFFFFFFFFFFFFFFFF AND PUSH20 0xFFFFFFFFFFFFFFFFFFFFFFFFFFFFFFFFFFFFFFFF AND DUP2 MSTORE PUSH1 0x20 ADD SWAP1 DUP2 MSTORE PUSH1 0x20 ADD PUSH1 0x0 KECCAK256 PUSH1 0x0 SWAP1 SLOAD SWAP1 PUSH2 0x100 EXP SWAP1 DIV PUSH1 0xFF AND ISZERO ISZERO SUB PUSH2 0x1FB8 JUMPI PUSH1 0x0 DUP4 PUSH2 0x3E8 PUSH1 0xD PUSH1 0x0 DUP6 PUSH20 0xFFFFFFFFFFFFFFFFFFFFFFFFFFFFFFFFFFFFFFFF AND PUSH20 0xFFFFFFFFFFFFFFFFFFFFFFFFFFFFFFFFFFFFFFFF AND DUP2 MSTORE PUSH1 0x20 ADD SWAP1 DUP2 MSTORE PUSH1 0x20 ADD PUSH1 0x0 KECCAK256 SLOAD PUSH2 0x1F66 SWAP2 SWAP1 PUSH2 0x2871 JUMP JUMPDEST PUSH2 0x1F70 SWAP2 SWAP1 PUSH2 0x28FA JUMP JUMPDEST SWAP1 POP DUP1 PUSH1 0xD PUSH1 0x0 DUP5 PUSH20 0xFFFFFFFFFFFFFFFFFFFFFFFFFFFFFFFFFFFFFFFF AND PUSH20 0xFFFFFFFFFFFFFFFFFFFFFFFFFFFFFFFFFFFFFFFF AND DUP2 MSTORE PUSH1 0x20 ADD SWAP1 DUP2 MSTORE PUSH1 0x20 ADD PUSH1 0x0 KECCAK256 DUP2 SWAP1 SSTORE POP POP JUMPDEST POP DUP1 DUP1 PUSH2 0x1FC4 SWAP1 PUSH2 0x27F5 JUMP JUMPDEST SWAP2 POP POP PUSH2 0x1E6E JUMP JUMPDEST POP POP POP JUMP JUMPDEST PUSH1 0x0 PUSH1 0x40 MLOAD SWAP1 POP SWAP1 JUMP JUMPDEST PUSH1 0x0 DUP1 REVERT JUMPDEST PUSH1 0x0 DUP1 REVERT JUMPDEST PUSH1 0x0 DUP2 SWAP1 POP SWAP2 SWAP1 POP JUMP JUMPDEST PUSH2 0x1FF8 DUP2 PUSH2 0x1FE5 JUMP JUMPDEST DUP2 EQ PUSH2 0x2003 JUMPI PUSH1 0x0 DUP1 REVERT JUMPDEST POP JUMP JUMPDEST PUSH1 0x0 DUP2 CALLDATALOAD SWAP1 POP PUSH2 0x2015 DUP2 PUSH2 0x1FEF JUMP JUMPDEST SWAP3 SWAP2 POP POP JUMP JUMPDEST PUSH1 0x0 PUSH20 0xFFFFFFFFFFFFFFFFFFFFFFFFFFFFFFFFFFFFFFFF DUP3 AND SWAP1 POP SWAP2 SWAP1 POP JUMP JUMPDEST PUSH1 0x0 PUSH2 0x2046 DUP3 PUSH2 0x201B JUMP JUMPDEST SWAP1 POP SWAP2 SWAP1 POP JUMP JUMPDEST PUSH2 0x2056 DUP2 PUSH2 0x203B JUMP JUMPDEST DUP2 EQ PUSH2 0x2061 JUMPI PUSH1 0x0 DUP1 REVERT JUMPDEST POP JUMP JUMPDEST PUSH1 0x0 DUP2 CALLDATALOAD SWAP1 POP PUSH2 0x2073 DUP2 PUSH2 0x204D JUMP JUMPDEST SWAP3 SWAP2 POP POP JUMP JUMPDEST PUSH1 0x0 DUP1 PUSH1 0x40 DUP4 DUP6 SUB SLT ISZERO PUSH2 0x2090 JUMPI PUSH2 0x208F PUSH2 0x1FDB JUMP JUMPDEST JUMPDEST PUSH1 0x0 PUSH2 0x209E DUP6 DUP3 DUP7 ADD PUSH2 0x2006 JUMP JUMPDEST SWAP3 POP POP PUSH1 0x20 PUSH2 0x20AF DUP6 DUP3 DUP7 ADD PUSH2 0x2064 JUMP JUMPDEST SWAP2 POP POP SWAP3 POP SWAP3 SWAP1 POP JUMP JUMPDEST PUSH1 0x0 DUP2 ISZERO ISZERO SWAP1 POP SWAP2 SWAP1 POP JUMP JUMPDEST PUSH2 0x20CE DUP2 PUSH2 0x20B9 JUMP JUMPDEST DUP3 MSTORE POP POP JUMP JUMPDEST PUSH1 0x0 PUSH1 0x20 DUP3 ADD SWAP1 POP PUSH2 0x20E9 PUSH1 0x0 DUP4 ADD DUP5 PUSH2 0x20C5 JUMP JUMPDEST SWAP3 SWAP2 POP POP JUMP JUMPDEST PUSH2 0x20F8 DUP2 PUSH2 0x1FE5 JUMP JUMPDEST DUP3 MSTORE POP POP JUMP JUMPDEST PUSH1 0x0 PUSH1 0x20 DUP3 ADD SWAP1 POP PUSH2 0x2113 PUSH1 0x0 DUP4 ADD DUP5 PUSH2 0x20EF JUMP JUMPDEST SWAP3 SWAP2 POP POP JUMP JUMPDEST PUSH1 0x0 DUP2 MLOAD SWAP1 POP SWAP2 SWAP1 POP JUMP JUMPDEST PUSH1 0x0 DUP3 DUP3 MSTORE PUSH1 0x20 DUP3 ADD SWAP1 POP SWAP3 SWAP2 POP POP JUMP JUMPDEST PUSH1 0x0 JUMPDEST DUP4 DUP2 LT ISZERO PUSH2 0x2153 JUMPI DUP1 DUP3 ADD MLOAD DUP2 DUP5 ADD MSTORE PUSH1 0x20 DUP2 ADD SWAP1 POP PUSH2 0x2138 JUMP JUMPDEST DUP4 DUP2 GT ISZERO PUSH2 0x2162 JUMPI PUSH1 0x0 DUP5 DUP5 ADD MSTORE JUMPDEST POP POP POP POP JUMP JUMPDEST PUSH1 0x0 PUSH1 0x1F NOT PUSH1 0x1F DUP4 ADD AND SWAP1 POP SWAP2 SWAP1 POP JUMP JUMPDEST PUSH1 0x0 PUSH2 0x2184 DUP3 PUSH2 0x2119 JUMP JUMPDEST PUSH2 0x218E DUP2 DUP6 PUSH2 0x2124 JUMP JUMPDEST SWAP4 POP PUSH2 0x219E DUP2 DUP6 PUSH1 0x20 DUP7 ADD PUSH2 0x2135 JUMP JUMPDEST PUSH2 0x21A7 DUP2 PUSH2 0x2168 JUMP JUMPDEST DUP5 ADD SWAP2 POP POP SWAP3 SWAP2 POP POP JUMP JUMPDEST PUSH1 0x0 PUSH1 0x20 DUP3 ADD SWAP1 POP DUP2 DUP2 SUB PUSH1 0x0 DUP4 ADD MSTORE PUSH2 0x21CC DUP2 DUP5 PUSH2 0x2179 JUMP JUMPDEST SWAP1 POP SWAP3 SWAP2 POP POP JUMP JUMPDEST PUSH1 0x0 PUSH1 0x20 DUP3 DUP5 SUB SLT ISZERO PUSH2 0x21EA JUMPI PUSH2 0x21E9 PUSH2 0x1FDB JUMP JUMPDEST JUMPDEST PUSH1 0x0 PUSH2 0x21F8 DUP5 DUP3 DUP6 ADD PUSH2 0x2064 JUMP JUMPDEST SWAP2 POP POP SWAP3 SWAP2 POP POP JUMP JUMPDEST PUSH1 0x0 DUP1 REVERT JUMPDEST PUSH1 0x0 DUP1 REVERT JUMPDEST PUSH32 0x4E487B7100000000000000000000000000000000000000000000000000000000 PUSH1 0x0 MSTORE PUSH1 0x41 PUSH1 0x4 MSTORE PUSH1 0x24 PUSH1 0x0 REVERT JUMPDEST PUSH2 0x2243 DUP3 PUSH2 0x2168 JUMP JUMPDEST DUP2 ADD DUP2 DUP2 LT PUSH8 0xFFFFFFFFFFFFFFFF DUP3 GT OR ISZERO PUSH2 0x2262 JUMPI PUSH2 0x2261 PUSH2 0x220B JUMP JUMPDEST JUMPDEST DUP1 PUSH1 0x40 MSTORE POP POP POP JUMP JUMPDEST PUSH1 0x0 PUSH2 0x2275 PUSH2 0x1FD1 JUMP JUMPDEST SWAP1 POP PUSH2 0x2281 DUP3 DUP3 PUSH2 0x223A JUMP JUMPDEST SWAP2 SWAP1 POP JUMP JUMPDEST PUSH1 0x0 PUSH8 0xFFFFFFFFFFFFFFFF DUP3 GT ISZERO PUSH2 0x22A1 JUMPI PUSH2 0x22A0 PUSH2 0x220B JUMP JUMPDEST JUMPDEST PUSH2 0x22AA DUP3 PUSH2 0x2168 JUMP JUMPDEST SWAP1 POP PUSH1 0x20 DUP2 ADD SWAP1 POP SWAP2 SWAP1 POP JUMP JUMPDEST DUP3 DUP2 DUP4 CALLDATACOPY PUSH1 0x0 DUP4 DUP4 ADD MSTORE POP POP POP JUMP JUMPDEST PUSH1 0x0 PUSH2 0x22D9 PUSH2 0x22D4 DUP5 PUSH2 0x2286 JUMP JUMPDEST PUSH2 0x226B JUMP JUMPDEST SWAP1 POP DUP3 DUP2 MSTORE PUSH1 0x20 DUP2 ADD DUP5 DUP5 DUP5 ADD GT ISZERO PUSH2 0x22F5 JUMPI PUSH2 0x22F4 PUSH2 0x2206 JUMP JUMPDEST JUMPDEST PUSH2 0x2300 DUP5 DUP3 DUP6 PUSH2 0x22B7 JUMP JUMPDEST POP SWAP4 SWAP3 POP POP POP JUMP JUMPDEST PUSH1 0x0 DUP3 PUSH1 0x1F DUP4 ADD SLT PUSH2 0x231D JUMPI PUSH2 0x231C PUSH2 0x2201 JUMP JUMPDEST JUMPDEST DUP2 CALLDATALOAD PUSH2 0x232D DUP5 DUP3 PUSH1 0x20 DUP7 ADD PUSH2 0x22C6 JUMP JUMPDEST SWAP2 POP POP SWAP3 SWAP2 POP POP JUMP JUMPDEST PUSH1 0x0 DUP1 PUSH1 0x0 PUSH1 0x60 DUP5 DUP7 SUB SLT ISZERO PUSH2 0x234F JUMPI PUSH2 0x234E PUSH2 0x1FDB JUMP JUMPDEST JUMPDEST PUSH1 0x0 DUP5 ADD CALLDATALOAD PUSH8 0xFFFFFFFFFFFFFFFF DUP2 GT ISZERO PUSH2 0x236D JUMPI PUSH2 0x236C PUSH2 0x1FE0 JUMP JUMPDEST JUMPDEST PUSH2 0x2379 DUP7 DUP3 DUP8 ADD PUSH2 0x2308 JUMP JUMPDEST SWAP4 POP POP PUSH1 0x20 DUP5 ADD CALLDATALOAD PUSH8 0xFFFFFFFFFFFFFFFF DUP2 GT ISZERO PUSH2 0x239A JUMPI PUSH2 0x2399 PUSH2 0x1FE0 JUMP JUMPDEST JUMPDEST PUSH2 0x23A6 DUP7 DUP3 DUP8 ADD PUSH2 0x2308 JUMP JUMPDEST SWAP3 POP POP PUSH1 0x40 PUSH2 0x23B7 DUP7 DUP3 DUP8 ADD PUSH2 0x2006 JUMP JUMPDEST SWAP2 POP POP SWAP3 POP SWAP3 POP SWAP3 JUMP JUMPDEST PUSH1 0x0 PUSH1 0x20 DUP3 DUP5 SUB SLT ISZERO PUSH2 0x23D7 JUMPI PUSH2 0x23D6 PUSH2 0x1FDB JUMP JUMPDEST JUMPDEST PUSH1 0x0 PUSH2 0x23E5 DUP5 DUP3 DUP6 ADD PUSH2 0x2006 JUMP JUMPDEST SWAP2 POP POP SWAP3 SWAP2 POP POP JUMP JUMPDEST PUSH2 0x23F7 DUP2 PUSH2 0x203B JUMP JUMPDEST DUP3 MSTORE POP POP JUMP JUMPDEST PUSH1 0x0 PUSH1 0x20 DUP3 ADD SWAP1 POP PUSH2 0x2412 PUSH1 0x0 DUP4 ADD DUP5 PUSH2 0x23EE JUMP JUMPDEST SWAP3 SWAP2 POP POP JUMP JUMPDEST PUSH1 0x0 DUP1 PUSH1 0x40 DUP4 DUP6 SUB SLT ISZERO PUSH2 0x242F JUMPI PUSH2 0x242E PUSH2 0x1FDB JUMP JUMPDEST JUMPDEST PUSH1 0x0 PUSH2 0x243D DUP6 DUP3 DUP7 ADD PUSH2 0x2064 JUMP JUMPDEST SWAP3 POP POP PUSH1 0x20 PUSH2 0x244E DUP6 DUP3 DUP7 ADD PUSH2 0x2006 JUMP JUMPDEST SWAP2 POP POP SWAP3 POP SWAP3 SWAP1 POP JUMP JUMPDEST PUSH1 0x0 PUSH1 0xA0 DUP3 ADD SWAP1 POP DUP2 DUP2 SUB PUSH1 0x0 DUP4 ADD MSTORE PUSH2 0x2472 DUP2 DUP9 PUSH2 0x2179 JUMP JUMPDEST SWAP1 POP DUP2 DUP2 SUB PUSH1 0x20 DUP4 ADD MSTORE PUSH2 0x2486 DUP2 DUP8 PUSH2 0x2179 JUMP JUMPDEST SWAP1 POP PUSH2 0x2495 PUSH1 0x40 DUP4 ADD DUP7 PUSH2 0x20EF JUMP JUMPDEST PUSH2 0x24A2 PUSH1 0x60 DUP4 ADD DUP6 PUSH2 0x20C5 JUMP JUMPDEST PUSH2 0x24AF PUSH1 0x80 DUP4 ADD DUP5 PUSH2 0x20EF JUMP JUMPDEST SWAP7 SWAP6 POP POP POP POP POP POP JUMP JUMPDEST PUSH32 0x4E487B7100000000000000000000000000000000000000000000000000000000 PUSH1 0x0 MSTORE PUSH1 0x32 PUSH1 0x4 MSTORE PUSH1 0x24 PUSH1 0x0 REVERT JUMPDEST PUSH32 0x4E487B7100000000000000000000000000000000000000000000000000000000 PUSH1 0x0 MSTORE PUSH1 0x22 PUSH1 0x4 MSTORE PUSH1 0x24 PUSH1 0x0 REVERT JUMPDEST PUSH1 0x0 PUSH1 0x2 DUP3 DIV SWAP1 POP PUSH1 0x1 DUP3 AND DUP1 PUSH2 0x252F JUMPI PUSH1 0x7F DUP3 AND SWAP2 POP JUMPDEST PUSH1 0x20 DUP3 LT DUP2 SUB PUSH2 0x2542 JUMPI PUSH2 0x2541 PUSH2 0x24E8 JUMP JUMPDEST JUMPDEST POP SWAP2 SWAP1 POP JUMP JUMPDEST PUSH1 0x0 DUP2 SWAP1 POP DUP2 PUSH1 0x0 MSTORE PUSH1 0x20 PUSH1 0x0 KECCAK256 SWAP1 POP SWAP2 SWAP1 POP JUMP JUMPDEST PUSH1 0x0 PUSH1 0x20 PUSH1 0x1F DUP4 ADD DIV SWAP1 POP SWAP2 SWAP1 POP JUMP JUMPDEST PUSH1 0x0 DUP3 DUP3 SHL SWAP1 POP SWAP3 SWAP2 POP POP JUMP JUMPDEST PUSH1 0x0 PUSH1 0x8 DUP4 MUL PUSH2 0x25AA PUSH32 0xFFFFFFFFFFFFFFFFFFFFFFFFFFFFFFFFFFFFFFFFFFFFFFFFFFFFFFFFFFFFFFFF DUP3 PUSH2 0x256D JUMP JUMPDEST PUSH2 0x25B4 DUP7 DUP4 PUSH2 0x256D JUMP JUMPDEST SWAP6 POP DUP1 NOT DUP5 AND SWAP4 POP DUP1 DUP7 AND DUP5 OR SWAP3 POP POP POP SWAP4 SWAP3 POP POP POP JUMP JUMPDEST PUSH1 0x0 DUP2 SWAP1 POP SWAP2 SWAP1 POP JUMP JUMPDEST PUSH1 0x0 PUSH2 0x25F1 PUSH2 0x25EC PUSH2 0x25E7 DUP5 PUSH2 0x1FE5 JUMP JUMPDEST PUSH2 0x25CC JUMP JUMPDEST PUSH2 0x1FE5 JUMP JUMPDEST SWAP1 POP SWAP2 SWAP1 POP JUMP JUMPDEST PUSH1 0x0 DUP2 SWAP1 POP SWAP2 SWAP1 POP JUMP JUMPDEST PUSH2 0x260B DUP4 PUSH2 0x25D6 JUMP JUMPDEST PUSH2 0x261F PUSH2 0x2617 DUP3 PUSH2 0x25F8 JUMP JUMPDEST DUP5 DUP5 SLOAD PUSH2 0x257A JUMP JUMPDEST DUP3 SSTORE POP POP POP POP JUMP JUMPDEST PUSH1 0x0 SWAP1 JUMP JUMPDEST PUSH2 0x2634 PUSH2 0x2627 JUMP JUMPDEST PUSH2 0x263F DUP2 DUP5 DUP5 PUSH2 0x2602 JUMP JUMPDEST POP POP POP JUMP JUMPDEST JUMPDEST DUP2 DUP2 LT ISZERO PUSH2 0x2663 JUMPI PUSH2 0x2658 PUSH1 0x0 DUP3 PUSH2 0x262C JUMP JUMPDEST PUSH1 0x1 DUP2 ADD SWAP1 POP PUSH2 0x2645 JUMP JUMPDEST POP POP JUMP JUMPDEST PUSH1 0x1F DUP3 GT ISZERO PUSH2 0x26A8 JUMPI PUSH2 0x2679 DUP2 PUSH2 0x2548 JUMP JUMPDEST PUSH2 0x2682 DUP5 PUSH2 0x255D JUMP JUMPDEST DUP2 ADD PUSH1 0x20 DUP6 LT ISZERO PUSH2 0x2691 JUMPI DUP2 SWAP1 POP JUMPDEST PUSH2 0x26A5 PUSH2 0x269D DUP6 PUSH2 0x255D JUMP JUMPDEST DUP4 ADD DUP3 PUSH2 0x2644 JUMP JUMPDEST POP POP JUMPDEST POP POP POP JUMP JUMPDEST PUSH1 0x0 DUP3 DUP3 SHR SWAP1 POP SWAP3 SWAP2 POP POP JUMP JUMPDEST PUSH1 0x0 PUSH2 0x26CB PUSH1 0x0 NOT DUP5 PUSH1 0x8 MUL PUSH2 0x26AD JUMP JUMPDEST NOT DUP1 DUP4 AND SWAP2 POP POP SWAP3 SWAP2 POP POP JUMP JUMPDEST PUSH1 0x0 PUSH2 0x26E4 DUP4 DUP4 PUSH2 0x26BA JUMP JUMPDEST SWAP2 POP DUP3 PUSH1 0x2 MUL DUP3 OR SWAP1 POP SWAP3 SWAP2 POP POP JUMP JUMPDEST PUSH2 0x26FD DUP3 PUSH2 0x2119 JUMP JUMPDEST PUSH8 0xFFFFFFFFFFFFFFFF DUP2 GT ISZERO PUSH2 0x2716 JUMPI PUSH2 0x2715 PUSH2 0x220B JUMP JUMPDEST JUMPDEST PUSH2 0x2720 DUP3 SLOAD PUSH2 0x2517 JUMP JUMPDEST PUSH2 0x272B DUP3 DUP3 DUP6 PUSH2 0x2667 JUMP JUMPDEST PUSH1 0x0 PUSH1 0x20 SWAP1 POP PUSH1 0x1F DUP4 GT PUSH1 0x1 DUP2 EQ PUSH2 0x275E JUMPI PUSH1 0x0 DUP5 ISZERO PUSH2 0x274C JUMPI DUP3 DUP8 ADD MLOAD SWAP1 POP JUMPDEST PUSH2 0x2756 DUP6 DUP3 PUSH2 0x26D8 JUMP JUMPDEST DUP7 SSTORE POP PUSH2 0x27BE JUMP JUMPDEST PUSH1 0x1F NOT DUP5 AND PUSH2 0x276C DUP7 PUSH2 0x2548 JUMP JUMPDEST PUSH1 0x0 JUMPDEST DUP3 DUP2 LT ISZERO PUSH2 0x2794 JUMPI DUP5 DUP10 ADD MLOAD DUP3 SSTORE PUSH1 0x1 DUP3 ADD SWAP2 POP PUSH1 0x20 DUP6 ADD SWAP5 POP PUSH1 0x20 DUP2 ADD SWAP1 POP PUSH2 0x276F JUMP JUMPDEST DUP7 DUP4 LT ISZERO PUSH2 0x27B1 JUMPI DUP5 DUP10 ADD MLOAD PUSH2 0x27AD PUSH1 0x1F DUP10 AND DUP3 PUSH2 0x26BA JUMP JUMPDEST DUP4 SSTORE POP JUMPDEST PUSH1 0x1 PUSH1 0x2 DUP9 MUL ADD DUP9 SSTORE POP POP POP JUMPDEST POP POP POP POP POP POP JUMP JUMPDEST PUSH32 0x4E487B7100000000000000000000000000000000000000000000000000000000 PUSH1 0x0 MSTORE PUSH1 0x11 PUSH1 0x4 MSTORE PUSH1 0x24 PUSH1 0x0 REVERT JUMPDEST PUSH1 0x0 PUSH2 0x2800 DUP3 PUSH2 0x1FE5 JUMP JUMPDEST SWAP2 POP PUSH32 0xFFFFFFFFFFFFFFFFFFFFFFFFFFFFFFFFFFFFFFFFFFFFFFFFFFFFFFFFFFFFFFFF DUP3 SUB PUSH2 0x2832 JUMPI PUSH2 0x2831 PUSH2 0x27C6 JUMP JUMPDEST JUMPDEST PUSH1 0x1 DUP3 ADD SWAP1 POP SWAP2 SWAP1 POP JUMP JUMPDEST PUSH1 0x0 PUSH2 0x2848 DUP3 PUSH2 0x1FE5 JUMP JUMPDEST SWAP2 POP PUSH2 0x2853 DUP4 PUSH2 0x1FE5 JUMP JUMPDEST SWAP3 POP DUP3 DUP3 LT ISZERO PUSH2 0x2866 JUMPI PUSH2 0x2865 PUSH2 0x27C6 JUMP JUMPDEST JUMPDEST DUP3 DUP3 SUB SWAP1 POP SWAP3 SWAP2 POP POP JUMP JUMPDEST PUSH1 0x0 PUSH2 0x287C DUP3 PUSH2 0x1FE5 JUMP JUMPDEST SWAP2 POP PUSH2 0x2887 DUP4 PUSH2 0x1FE5 JUMP JUMPDEST SWAP3 POP DUP2 PUSH32 0xFFFFFFFFFFFFFFFFFFFFFFFFFFFFFFFFFFFFFFFFFFFFFFFFFFFFFFFFFFFFFFFF DIV DUP4 GT DUP3 ISZERO ISZERO AND ISZERO PUSH2 0x28C0 JUMPI PUSH2 0x28BF PUSH2 0x27C6 JUMP JUMPDEST JUMPDEST DUP3 DUP3 MUL SWAP1 POP SWAP3 SWAP2 POP POP JUMP JUMPDEST PUSH32 0x4E487B7100000000000000000000000000000000000000000000000000000000 PUSH1 0x0 MSTORE PUSH1 0x12 PUSH1 0x4 MSTORE PUSH1 0x24 PUSH1 0x0 REVERT JUMPDEST PUSH1 0x0 PUSH2 0x2905 DUP3 PUSH2 0x1FE5 JUMP JUMPDEST SWAP2 POP PUSH2 0x2910 DUP4 PUSH2 0x1FE5 JUMP JUMPDEST SWAP3 POP DUP3 PUSH2 0x2920 JUMPI PUSH2 0x291F PUSH2 0x28CB JUMP JUMPDEST JUMPDEST DUP3 DUP3 DIV SWAP1 POP SWAP3 SWAP2 POP POP JUMP JUMPDEST PUSH1 0x0 PUSH2 0x2936 DUP3 PUSH2 0x1FE5 JUMP JUMPDEST SWAP2 POP PUSH2 0x2941 DUP4 PUSH2 0x1FE5 JUMP JUMPDEST SWAP3 POP DUP3 PUSH32 0xFFFFFFFFFFFFFFFFFFFFFFFFFFFFFFFFFFFFFFFFFFFFFFFFFFFFFFFFFFFFFFFF SUB DUP3 GT ISZERO PUSH2 0x2976 JUMPI PUSH2 0x2975 PUSH2 0x27C6 JUMP JUMPDEST JUMPDEST DUP3 DUP3 ADD SWAP1 POP SWAP3 SWAP2 POP POP JUMP JUMPDEST PUSH1 0x0 PUSH2 0x298C DUP3 PUSH2 0x1FE5 JUMP JUMPDEST SWAP2 POP PUSH1 0x0 DUP3 SUB PUSH2 0x299F JUMPI PUSH2 0x299E PUSH2 0x27C6 JUMP JUMPDEST JUMPDEST PUSH1 0x1 DUP3 SUB SWAP1 POP SWAP2 SWAP1 POP JUMP INVALID LOG2 PUSH5 0x6970667358 0x22 SLT KECCAK256 0xC DUP3 0x4E CHAINID 0xE0 0xD3 DUP9 SHR DUP6 0xCE CODESIZE 0xE9 SAR PUSH27 0xDB2354F57B9C7DE29C68A2E27FFEF67EBF7764736F6C634300080F STOP CALLER "},"gasEstimates":{"creation":{"codeDepositCost":"2144000","executionCost":"infinite","totalCost":"infinite"},"external":{"Investment(address)":"2859","Investors(uint256)":"5022","PayDayVoted()":"infinite","Stakeholders(address)":"2958","Stakeholders_endTheContract(address)":"2913","allInvestorPercent()":"infinite","approveRequest(uint256)":"infinite","canBuy()":"2603","executed_order_66(uint256)":"infinite","getMoney()":"409","investorBalanc()":"infinite","isStakeholdersApprove(uint256,address)":"5313","join()":"infinite","lastLeaveVal()":"2519","lastRePay()":"2518","lastTotalVal()":"2562","leave_contract(address,uint256)":"infinite","lefted(address)":"2957","listSize()":"2497","makeNewRequset(string,string,uint256)":"infinite","manager()":"2559","managerFineFee()":"2541","minimumContribution()":"2475","myRequsts(uint256)":"infinite","name()":"infinite","numOfInvestors()":"2498","ownPercent(address)":"2860","payDay()":"infinite","site()":"2625","startContract()":"infinite","the_balance()":"2474","timeEnd()":"2539","timeStart()":"2517","timeToJoin()":"2519"},"internal":{"fixPercent(uint256)":"infinite","setStakeholders()":"infinite"}},"methodIdentifiers":{"Investment(address)":"d7898240","Investors(uint256)":"fbae5e7d","PayDayVoted()":"864a53dc","Stakeholders(address)":"1e28528e","Stakeholders_endTheContract(address)":"364548cd","allInvestorPercent()":"acdb8341","approveRequest(uint256)":"d7d1bbdb","canBuy()":"ff65226c","executed_order_66(uint256)":"3d22aea8","getMoney()":"98e1b410","investorBalanc()":"2ef3fa27","isStakeholdersApprove(uint256,address)":"0060929a","join()":"b688a363","lastLeaveVal()":"2f5274e3","lastRePay()":"e028a693","lastTotalVal()":"8975aa08","leave_contract(address,uint256)":"b2f8be5c","lefted(address)":"999cc5ca","listSize()":"972c5356","makeNewRequset(string,string,uint256)":"2b84b316","manager()":"481c6a75","managerFineFee()":"31d0e40f","minimumContribution()":"937e09b1","myRequsts(uint256)":"f63f9655","name()":"06fdde03","numOfInvestors()":"01999870","ownPercent(address)":"32b7acec","payDay()":"789b2e6c","site()":"e0d370ac","startContract()":"5fb02f4d","the_balance()":"a4758c9a","timeEnd()":"fda263e8","timeStart()":"fd74d294","timeToJoin()":"3ba20f2a"}},"storageLayout":{"storage":[{"astId":101,"contract":"Inbox.sol:basic","label":"penelty","offset":0,"slot":"0","type":"t_uint256"},{"astId":104,"contract":"Inbox.sol:basic","label":"manager_fee","offset":0,"slot":"1","type":"t_uint256"},{"astId":107,"contract":"Inbox.sol:basic","label":"days_start","offset":0,"slot":"2","type":"t_uint256"},{"astId":110,"contract":"Inbox.sol:basic","label":"numStakeholders","offset":0,"slot":"3","type":"t_uint256"},{"astId":112,"contract":"Inbox.sol:basic","label":"name","offset":0,"slot":"4","type":"t_string_storage"},{"astId":114,"contract":"Inbox.sol:basic","label":"manager","offset":0,"slot":"5","type":"t_address"},{"astId":116,"contract":"Inbox.sol:basic","label":"site","offset":0,"slot":"6","type":"t_address"},{"astId":120,"contract":"Inbox.sol:basic","label":"Stakeholders","offset":0,"slot":"7","type":"t_mapping(t_address,t_bool)"},{"astId":124,"contract":"Inbox.sol:basic","label":"Stakeholders_endTheContract","offset":0,"slot":"8","type":"t_mapping(t_address,t_bool)"},{"astId":127,"contract":"Inbox.sol:basic","label":"endTheContract_numOfVote","offset":0,"slot":"9","type":"t_uint256"},{"astId":130,"contract":"Inbox.sol:basic","label":"Investors","offset":0,"slot":"10","type":"t_array(t_address)dyn_storage"},{"astId":133,"contract":"Inbox.sol:basic","label":"numOfInvestors","offset":0,"slot":"11","type":"t_uint256"},{"astId":137,"contract":"Inbox.sol:basic","label":"Investment","offset":0,"slot":"12","type":"t_mapping(t_address,t_uint256)"},{"astId":141,"contract":"Inbox.sol:basic","label":"ownPercent","offset":0,"slot":"13","type":"t_mapping(t_address,t_uint256)"},{"astId":145,"contract":"Inbox.sol:basic","label":"lefted","offset":0,"slot":"14","type":"t_mapping(t_address,t_bool)"},{"astId":147,"contract":"Inbox.sol:basic","label":"minimumContribution","offset":0,"slot":"15","type":"t_uint256"},{"astId":149,"contract":"Inbox.sol:basic","label":"timeStart","offset":0,"slot":"16","type":"t_uint256"},{"astId":151,"contract":"Inbox.sol:basic","label":"timeToJoin","offset":0,"slot":"17","type":"t_uint256"},{"astId":153,"contract":"Inbox.sol:basic","label":"timeEnd","offset":0,"slot":"18","type":"t_uint256"},{"astId":155,"contract":"Inbox.sol:basic","label":"canBuy","offset":0,"slot":"19","type":"t_bool"},{"astId":159,"contract":"Inbox.sol:basic","label":"myRequsts","offset":0,"slot":"20","type":"t_array(t_struct(Request)98_storage)dyn_storage"},{"astId":161,"contract":"Inbox.sol:basic","label":"listSize","offset":0,"slot":"21","type":"t_uint256"},{"astId":163,"contract":"Inbox.sol:basic","label":"lastRePay","offset":0,"slot":"22","type":"t_uint256"},{"astId":165,"contract":"Inbox.sol:basic","label":"lastTotalVal","offset":0,"slot":"23","type":"t_uint256"},{"astId":167,"contract":"Inbox.sol:basic","label":"managerFineFee","offset":0,"slot":"24","type":"t_uint256"},{"astId":169,"contract":"Inbox.sol:basic","label":"the_balance","offset":0,"slot":"25","type":"t_uint256"},{"astId":171,"contract":"Inbox.sol:basic","label":"lastLeaveVal","offset":0,"slot":"26","type":"t_uint256"}],"types":{"t_address":{"encoding":"inplace","label":"address","numberOfBytes":"20"},"t_array(t_address)dyn_storage":{"base":"t_address","encoding":"dynamic_array","label":"address[]","numberOfBytes":"32"},"t_array(t_struct(Request)98_storage)dyn_storage":{"base":"t_struct(Request)98_storage","encoding":"dynamic_array","label":"struct basic.Request[]","numberOfBytes":"32"},"t_bool":{"encoding":"inplace","label":"bool","numberOfBytes":"1"},"t_mapping(t_address,t_bool)":{"encoding":"mapping","key":"t_address","label":"mapping(address => bool)","numberOfBytes":"32","value":"t_bool"},"t_mapping(t_address,t_uint256)":{"encoding":"mapping","key":"t_address","label":"mapping(address => uint256)","numberOfBytes":"32","value":"t_uint256"},"t_string_storage":{"encoding":"bytes","label":"string","numberOfBytes":"32"},"t_struct(Request)98_storage":{"encoding":"inplace","label":"struct basic.Request","members":[{"astId":85,"contract":"Inbox.sol:basic","label":"description","offset":0,"slot":"0","type":"t_string_storage"},{"astId":87,"contract":"Inbox.sol:basic","label":"what","offset":0,"slot":"1","type":"t_string_storage"},{"astId":89,"contract":"Inbox.sol:basic","label":"value","offset":0,"slot":"2","type":"t_uint256"},{"astId":91,"contract":"Inbox.sol:basic","label":"complete","offset":0,"slot":"3","type":"t_bool"},{"astId":93,"contract":"Inbox.sol:basic","label":"approvalCount","offset":0,"slot":"4","type":"t_uint256"},{"astId":97,"contract":"Inbox.sol:basic","label":"approvals","offset":0,"slot":"5","type":"t_mapping(t_address,t_bool)"}],"numberOfBytes":"192"},"t_uint256":{"encoding":"inplace","label":"uint256","numberOfBytes":"32"}}},"userdoc":{"kind":"user","methods":{},"version":1}}