{"abi":[{"inputs":[{"internalType":"uint256","name":"minimum","type":"uint256"},{"internalType":"uint256","name":"num_days","type":"uint256"},{"internalType":"address","name":"creator","type":"address"},{"internalType":"address","name":"sentTo","type":"address"},{"internalType":"string","name":"contractName","type":"string"}],"stateMutability":"nonpayable","type":"constructor"},{"inputs":[{"internalType":"address","name":"","type":"address"}],"name":"Investment","outputs":[{"internalType":"uint256","name":"","type":"uint256"}],"stateMutability":"view","type":"function"},{"inputs":[{"internalType":"uint256","name":"","type":"uint256"}],"name":"Investors","outputs":[{"internalType":"address","name":"","type":"address"}],"stateMutability":"view","type":"function"},{"inputs":[],"name":"PayDayVoted","outputs":[],"stateMutability":"nonpayable","type":"function"},{"inputs":[{"internalType":"address","name":"","type":"address"}],"name":"Stakeholders","outputs":[{"internalType":"bool","name":"","type":"bool"}],"stateMutability":"view","type":"function"},{"inputs":[{"internalType":"address","name":"","type":"address"}],"name":"Stakeholders_endTheContract","outputs":[{"internalType":"bool","name":"","type":"bool"}],"stateMutability":"view","type":"function"},{"inputs":[],"name":"allInvestorPercent","outputs":[{"internalType":"uint256","name":"","type":"uint256"}],"stateMutability":"view","type":"function"},{"inputs":[{"internalType":"uint256","name":"index","type":"uint256"},{"internalType":"bool","name":"res","type":"bool"}],"name":"approveRequest","outputs":[],"stateMutability":"nonpayable","type":"function"},{"inputs":[],"name":"canBuy","outputs":[{"internalType":"bool","name":"","type":"bool"}],"stateMutability":"view","type":"function"},{"inputs":[{"internalType":"uint256","name":"index","type":"uint256"}],"name":"executed_order_66","outputs":[{"internalType":"bool","name":"","type":"bool"}],"stateMutability":"nonpayable","type":"function"},{"inputs":[],"name":"getMoney","outputs":[{"internalType":"bool","name":"","type":"bool"}],"stateMutability":"payable","type":"function"},{"inputs":[],"name":"investorBalanc","outputs":[{"internalType":"uint256","name":"","type":"uint256"}],"stateMutability":"view","type":"function"},{"inputs":[{"internalType":"uint256","name":"reqId","type":"uint256"},{"internalType":"address","name":"user","type":"address"}],"name":"isStakeholdersVoted","outputs":[{"internalType":"bool","name":"","type":"bool"}],"stateMutability":"view","type":"function"},{"inputs":[],"name":"join","outputs":[],"stateMutability":"payable","type":"function"},{"inputs":[],"name":"lastLeaveVal","outputs":[{"internalType":"uint256","name":"","type":"uint256"}],"stateMutability":"view","type":"function"},{"inputs":[],"name":"lastRePay","outputs":[{"internalType":"uint256","name":"","type":"uint256"}],"stateMutability":"view","type":"function"},{"inputs":[],"name":"lastTotalVal","outputs":[{"internalType":"uint256","name":"","type":"uint256"}],"stateMutability":"view","type":"function"},{"inputs":[{"internalType":"address","name":"leave_address","type":"address"},{"internalType":"uint256","name":"yield","type":"uint256"}],"name":"leave_contract","outputs":[{"internalType":"bool","name":"","type":"bool"}],"stateMutability":"nonpayable","type":"function"},{"inputs":[{"internalType":"address","name":"","type":"address"}],"name":"lefted","outputs":[{"internalType":"bool","name":"","type":"bool"}],"stateMutability":"view","type":"function"},{"inputs":[],"name":"listSize","outputs":[{"internalType":"uint256","name":"","type":"uint256"}],"stateMutability":"view","type":"function"},{"inputs":[{"internalType":"string","name":"what","type":"string"},{"internalType":"string","name":"why","type":"string"},{"internalType":"uint256","name":"value","type":"uint256"}],"name":"makeNewRequset","outputs":[],"stateMutability":"nonpayable","type":"function"},{"inputs":[],"name":"manager","outputs":[{"internalType":"address","name":"","type":"address"}],"stateMutability":"view","type":"function"},{"inputs":[],"name":"managerFineFee","outputs":[{"internalType":"uint256","name":"","type":"uint256"}],"stateMutability":"view","type":"function"},{"inputs":[],"name":"minimumContribution","outputs":[{"internalType":"uint256","name":"","type":"uint256"}],"stateMutability":"view","type":"function"},{"inputs":[{"internalType":"uint256","name":"","type":"uint256"}],"name":"myRequsts","outputs":[{"internalType":"string","name":"description","type":"string"},{"internalType":"string","name":"what","type":"string"},{"internalType":"uint256","name":"value","type":"uint256"},{"internalType":"bool","name":"complete","type":"bool"},{"internalType":"uint256","name":"approvalCount","type":"uint256"}],"stateMutability":"view","type":"function"},{"inputs":[],"name":"name","outputs":[{"internalType":"string","name":"","type":"string"}],"stateMutability":"view","type":"function"},{"inputs":[],"name":"numOfInvestors","outputs":[{"internalType":"uint256","name":"","type":"uint256"}],"stateMutability":"view","type":"function"},{"inputs":[{"internalType":"address","name":"","type":"address"}],"name":"ownPercent","outputs":[{"internalType":"uint256","name":"","type":"uint256"}],"stateMutability":"view","type":"function"},{"inputs":[],"name":"payDay","outputs":[],"stateMutability":"nonpayable","type":"function"},{"inputs":[{"internalType":"uint256","name":"index","type":"uint256"}],"name":"requestIsVoted","outputs":[{"internalType":"bool","name":"","type":"bool"}],"stateMutability":"view","type":"function"},{"inputs":[],"name":"site","outputs":[{"internalType":"address","name":"","type":"address"}],"stateMutability":"view","type":"function"},{"inputs":[],"name":"startContract","outputs":[],"stateMutability":"nonpayable","type":"function"},{"inputs":[],"name":"the_balance","outputs":[{"internalType":"uint256","name":"","type":"uint256"}],"stateMutability":"view","type":"function"},{"inputs":[],"name":"timeEnd","outputs":[{"internalType":"uint256","name":"","type":"uint256"}],"stateMutability":"view","type":"function"},{"inputs":[],"name":"timeStart","outputs":[{"internalType":"uint256","name":"","type":"uint256"}],"stateMutability":"view","type":"function"},{"inputs":[],"name":"timeToJoin","outputs":[{"internalType":"uint256","name":"","type":"uint256"}],"stateMutability":"view","type":"function"}],"devdoc":{"kind":"dev","methods":{},"version":1},"evm":{"assembly":"    /* \"Inbox.sol\":65:9589  contract basic {... */\n  mstore(0x40, 0x80)\n    /* \"Inbox.sol\":1075:1078  800 */\n  0x0320\n    /* \"Inbox.sol\":1060:1078  uint penelty = 800 */\n  0x00\n  sstore\n    /* \"Inbox.sol\":1134:1137  100 */\n  0x64\n    /* \"Inbox.sol\":1115:1137  uint manager_fee = 100 */\n  0x01\n  sstore\n    /* \"Inbox.sol\":1172:1174  20 */\n  0x14\n    /* \"Inbox.sol\":1154:1174  uint days_start = 20 */\n  0x02\n  sstore\n    /* \"Inbox.sol\":1204:1205  4 */\n  0x04\n    /* \"Inbox.sol\":1181:1205  uint numStakeholders = 4 */\n  0x03\n  sstore\n    /* \"Inbox.sol\":1481:1482  0 */\n  0x00\n    /* \"Inbox.sol\":1449:1482  uint endTheContract_numOfVote = 0 */\n  0x09\n  sstore\n    /* \"Inbox.sol\":1549:1550  0 */\n  0x00\n    /* \"Inbox.sol\":1522:1550  uint public numOfInvestors=0 */\n  0x0b\n  sstore\n    /* \"Inbox.sol\":2550:3019  constructor(... */\n  callvalue\n  dup1\n  iszero\n  tag_1\n  jumpi\n  0x00\n  dup1\n  revert\ntag_1:\n  pop\n  mload(0x40)\n  sub(codesize, bytecodeSize)\n  dup1\n  bytecodeSize\n  dup4\n  codecopy\n  dup2\n  dup2\n  add\n  0x40\n  mstore\n  dup2\n  add\n  swap1\n  tag_2\n  swap2\n  swap1\n  tag_3\n  jump\t// in\ntag_2:\n    /* \"Inbox.sol\":2723:2735  contractName */\n  dup1\n    /* \"Inbox.sol\":2718:2722  name */\n  0x04\n    /* \"Inbox.sol\":2718:2735  name=contractName */\n  swap1\n  dup2\n  tag_6\n  swap2\n  swap1\n  tag_7\n  jump\t// in\ntag_6:\n  pop\n    /* \"Inbox.sol\":2753:2759  sentTo */\n  dup2\n    /* \"Inbox.sol\":2746:2750  site */\n  0x06\n  0x00\n    /* \"Inbox.sol\":2746:2759  site = sentTo */\n  0x0100\n  exp\n  dup2\n  sload\n  dup2\n  0xffffffffffffffffffffffffffffffffffffffff\n  mul\n  not\n  and\n  swap1\n  dup4\n  0xffffffffffffffffffffffffffffffffffffffff\n  and\n  mul\n  or\n  swap1\n  sstore\n  pop\n    /* \"Inbox.sol\":2780:2787  creator */\n  dup3\n    /* \"Inbox.sol\":2770:2777  manager */\n  0x05\n  0x00\n    /* \"Inbox.sol\":2770:2787  manager = creator */\n  0x0100\n  exp\n  dup2\n  sload\n  dup2\n  0xffffffffffffffffffffffffffffffffffffffff\n  mul\n  not\n  and\n  swap1\n  dup4\n  0xffffffffffffffffffffffffffffffffffffffff\n  and\n  mul\n  or\n  swap1\n  sstore\n  pop\n    /* \"Inbox.sol\":2820:2827  minimum */\n  dup5\n    /* \"Inbox.sol\":2798:2817  minimumContribution */\n  0x0f\n    /* \"Inbox.sol\":2798:2827  minimumContribution = minimum */\n  dup2\n  swap1\n  sstore\n  pop\n    /* \"Inbox.sol\":2850:2865  block.timestamp */\n  timestamp\n    /* \"Inbox.sol\":2838:2847  timeStart */\n  0x10\n    /* \"Inbox.sol\":2838:2865  timeStart = block.timestamp */\n  dup2\n  swap1\n  sstore\n  pop\n    /* \"Inbox.sol\":2916:2922  1 days */\n  0x015180\n    /* \"Inbox.sol\":2905:2913  num_days */\n  dup5\n    /* \"Inbox.sol\":2905:2922  num_days * 1 days */\n  tag_8\n  swap2\n  swap1\n  tag_9\n  jump\t// in\ntag_8:\n    /* \"Inbox.sol\":2886:2901  block.timestamp */\n  timestamp\n    /* \"Inbox.sol\":2886:2923  block.timestamp + (num_days * 1 days) */\n  tag_10\n  swap2\n  swap1\n  tag_11\n  jump\t// in\ntag_10:\n    /* \"Inbox.sol\":2876:2883  timeEnd */\n  0x12\n    /* \"Inbox.sol\":2876:2923  timeEnd = block.timestamp + (num_days * 1 days) */\n  dup2\n  swap1\n  sstore\n  pop\n    /* \"Inbox.sol\":2979:2985  1 days */\n  0x015180\n    /* \"Inbox.sol\":2966:2976  days_start */\n  sload(0x02)\n    /* \"Inbox.sol\":2966:2985  days_start * 1 days */\n  tag_12\n  swap2\n  swap1\n  tag_9\n  jump\t// in\ntag_12:\n    /* \"Inbox.sol\":2947:2962  block.timestamp */\n  timestamp\n    /* \"Inbox.sol\":2947:2986  block.timestamp + (days_start * 1 days) */\n  tag_13\n  swap2\n  swap1\n  tag_11\n  jump\t// in\ntag_13:\n    /* \"Inbox.sol\":2934:2944  timeToJoin */\n  0x11\n    /* \"Inbox.sol\":2934:2986  timeToJoin = block.timestamp + (days_start * 1 days) */\n  dup2\n  swap1\n  sstore\n  pop\n    /* \"Inbox.sol\":3006:3011  false */\n  0x00\n    /* \"Inbox.sol\":2997:3003  canBuy */\n  0x13\n  0x00\n    /* \"Inbox.sol\":2997:3011  canBuy = false */\n  0x0100\n  exp\n  dup2\n  sload\n  dup2\n  0xff\n  mul\n  not\n  and\n  swap1\n  dup4\n  iszero\n  iszero\n  mul\n  or\n  swap1\n  sstore\n  pop\n    /* \"Inbox.sol\":2550:3019  constructor(... */\n  pop\n  pop\n  pop\n  pop\n  pop\n    /* \"Inbox.sol\":65:9589  contract basic {... */\n  jump(tag_14)\n    /* \"#utility.yul\":7:82   */\ntag_15:\n    /* \"#utility.yul\":40:46   */\n  0x00\n    /* \"#utility.yul\":73:75   */\n  0x40\n    /* \"#utility.yul\":67:76   */\n  mload\n    /* \"#utility.yul\":57:76   */\n  swap1\n  pop\n    /* \"#utility.yul\":7:82   */\n  swap1\n  jump\t// out\n    /* \"#utility.yul\":88:205   */\ntag_16:\n    /* \"#utility.yul\":197:198   */\n  0x00\n    /* \"#utility.yul\":194:195   */\n  dup1\n    /* \"#utility.yul\":187:199   */\n  revert\n    /* \"#utility.yul\":211:328   */\ntag_17:\n    /* \"#utility.yul\":320:321   */\n  0x00\n    /* \"#utility.yul\":317:318   */\n  dup1\n    /* \"#utility.yul\":310:322   */\n  revert\n    /* \"#utility.yul\":334:411   */\ntag_18:\n    /* \"#utility.yul\":371:378   */\n  0x00\n    /* \"#utility.yul\":400:405   */\n  dup2\n    /* \"#utility.yul\":389:405   */\n  swap1\n  pop\n    /* \"#utility.yul\":334:411   */\n  swap2\n  swap1\n  pop\n  jump\t// out\n    /* \"#utility.yul\":417:539   */\ntag_19:\n    /* \"#utility.yul\":490:514   */\n  tag_60\n    /* \"#utility.yul\":508:513   */\n  dup2\n    /* \"#utility.yul\":490:514   */\n  tag_18\n  jump\t// in\ntag_60:\n    /* \"#utility.yul\":483:488   */\n  dup2\n    /* \"#utility.yul\":480:515   */\n  eq\n    /* \"#utility.yul\":470:533   */\n  tag_61\n  jumpi\n    /* \"#utility.yul\":529:530   */\n  0x00\n    /* \"#utility.yul\":526:527   */\n  dup1\n    /* \"#utility.yul\":519:531   */\n  revert\n    /* \"#utility.yul\":470:533   */\ntag_61:\n    /* \"#utility.yul\":417:539   */\n  pop\n  jump\t// out\n    /* \"#utility.yul\":545:688   */\ntag_20:\n    /* \"#utility.yul\":602:607   */\n  0x00\n    /* \"#utility.yul\":633:639   */\n  dup2\n    /* \"#utility.yul\":627:640   */\n  mload\n    /* \"#utility.yul\":618:640   */\n  swap1\n  pop\n    /* \"#utility.yul\":649:682   */\n  tag_63\n    /* \"#utility.yul\":676:681   */\n  dup2\n    /* \"#utility.yul\":649:682   */\n  tag_19\n  jump\t// in\ntag_63:\n    /* \"#utility.yul\":545:688   */\n  swap3\n  swap2\n  pop\n  pop\n  jump\t// out\n    /* \"#utility.yul\":694:820   */\ntag_21:\n    /* \"#utility.yul\":731:738   */\n  0x00\n    /* \"#utility.yul\":771:813   */\n  0xffffffffffffffffffffffffffffffffffffffff\n    /* \"#utility.yul\":764:769   */\n  dup3\n    /* \"#utility.yul\":760:814   */\n  and\n    /* \"#utility.yul\":749:814   */\n  swap1\n  pop\n    /* \"#utility.yul\":694:820   */\n  swap2\n  swap1\n  pop\n  jump\t// out\n    /* \"#utility.yul\":826:922   */\ntag_22:\n    /* \"#utility.yul\":863:870   */\n  0x00\n    /* \"#utility.yul\":892:916   */\n  tag_66\n    /* \"#utility.yul\":910:915   */\n  dup3\n    /* \"#utility.yul\":892:916   */\n  tag_21\n  jump\t// in\ntag_66:\n    /* \"#utility.yul\":881:916   */\n  swap1\n  pop\n    /* \"#utility.yul\":826:922   */\n  swap2\n  swap1\n  pop\n  jump\t// out\n    /* \"#utility.yul\":928:1050   */\ntag_23:\n    /* \"#utility.yul\":1001:1025   */\n  tag_68\n    /* \"#utility.yul\":1019:1024   */\n  dup2\n    /* \"#utility.yul\":1001:1025   */\n  tag_22\n  jump\t// in\ntag_68:\n    /* \"#utility.yul\":994:999   */\n  dup2\n    /* \"#utility.yul\":991:1026   */\n  eq\n    /* \"#utility.yul\":981:1044   */\n  tag_69\n  jumpi\n    /* \"#utility.yul\":1040:1041   */\n  0x00\n    /* \"#utility.yul\":1037:1038   */\n  dup1\n    /* \"#utility.yul\":1030:1042   */\n  revert\n    /* \"#utility.yul\":981:1044   */\ntag_69:\n    /* \"#utility.yul\":928:1050   */\n  pop\n  jump\t// out\n    /* \"#utility.yul\":1056:1199   */\ntag_24:\n    /* \"#utility.yul\":1113:1118   */\n  0x00\n    /* \"#utility.yul\":1144:1150   */\n  dup2\n    /* \"#utility.yul\":1138:1151   */\n  mload\n    /* \"#utility.yul\":1129:1151   */\n  swap1\n  pop\n    /* \"#utility.yul\":1160:1193   */\n  tag_71\n    /* \"#utility.yul\":1187:1192   */\n  dup2\n    /* \"#utility.yul\":1160:1193   */\n  tag_23\n  jump\t// in\ntag_71:\n    /* \"#utility.yul\":1056:1199   */\n  swap3\n  swap2\n  pop\n  pop\n  jump\t// out\n    /* \"#utility.yul\":1205:1322   */\ntag_25:\n    /* \"#utility.yul\":1314:1315   */\n  0x00\n    /* \"#utility.yul\":1311:1312   */\n  dup1\n    /* \"#utility.yul\":1304:1316   */\n  revert\n    /* \"#utility.yul\":1328:1445   */\ntag_26:\n    /* \"#utility.yul\":1437:1438   */\n  0x00\n    /* \"#utility.yul\":1434:1435   */\n  dup1\n    /* \"#utility.yul\":1427:1439   */\n  revert\n    /* \"#utility.yul\":1451:1553   */\ntag_27:\n    /* \"#utility.yul\":1492:1498   */\n  0x00\n    /* \"#utility.yul\":1543:1545   */\n  0x1f\n    /* \"#utility.yul\":1539:1546   */\n  not\n    /* \"#utility.yul\":1534:1536   */\n  0x1f\n    /* \"#utility.yul\":1527:1532   */\n  dup4\n    /* \"#utility.yul\":1523:1537   */\n  add\n    /* \"#utility.yul\":1519:1547   */\n  and\n    /* \"#utility.yul\":1509:1547   */\n  swap1\n  pop\n    /* \"#utility.yul\":1451:1553   */\n  swap2\n  swap1\n  pop\n  jump\t// out\n    /* \"#utility.yul\":1559:1739   */\ntag_28:\n    /* \"#utility.yul\":1607:1684   */\n  0x4e487b7100000000000000000000000000000000000000000000000000000000\n    /* \"#utility.yul\":1604:1605   */\n  0x00\n    /* \"#utility.yul\":1597:1685   */\n  mstore\n    /* \"#utility.yul\":1704:1708   */\n  0x41\n    /* \"#utility.yul\":1701:1702   */\n  0x04\n    /* \"#utility.yul\":1694:1709   */\n  mstore\n    /* \"#utility.yul\":1728:1732   */\n  0x24\n    /* \"#utility.yul\":1725:1726   */\n  0x00\n    /* \"#utility.yul\":1718:1733   */\n  revert\n    /* \"#utility.yul\":1745:2026   */\ntag_29:\n    /* \"#utility.yul\":1828:1855   */\n  tag_77\n    /* \"#utility.yul\":1850:1854   */\n  dup3\n    /* \"#utility.yul\":1828:1855   */\n  tag_27\n  jump\t// in\ntag_77:\n    /* \"#utility.yul\":1820:1826   */\n  dup2\n    /* \"#utility.yul\":1816:1856   */\n  add\n    /* \"#utility.yul\":1958:1964   */\n  dup2\n    /* \"#utility.yul\":1946:1956   */\n  dup2\n    /* \"#utility.yul\":1943:1965   */\n  lt\n    /* \"#utility.yul\":1922:1940   */\n  0xffffffffffffffff\n    /* \"#utility.yul\":1910:1920   */\n  dup3\n    /* \"#utility.yul\":1907:1941   */\n  gt\n    /* \"#utility.yul\":1904:1966   */\n  or\n    /* \"#utility.yul\":1901:1989   */\n  iszero\n  tag_78\n  jumpi\n    /* \"#utility.yul\":1969:1987   */\n  tag_79\n  tag_28\n  jump\t// in\ntag_79:\n    /* \"#utility.yul\":1901:1989   */\ntag_78:\n    /* \"#utility.yul\":2009:2019   */\n  dup1\n    /* \"#utility.yul\":2005:2007   */\n  0x40\n    /* \"#utility.yul\":1998:2020   */\n  mstore\n    /* \"#utility.yul\":1788:2026   */\n  pop\n    /* \"#utility.yul\":1745:2026   */\n  pop\n  pop\n  jump\t// out\n    /* \"#utility.yul\":2032:2161   */\ntag_30:\n    /* \"#utility.yul\":2066:2072   */\n  0x00\n    /* \"#utility.yul\":2093:2113   */\n  tag_81\n  tag_15\n  jump\t// in\ntag_81:\n    /* \"#utility.yul\":2083:2113   */\n  swap1\n  pop\n    /* \"#utility.yul\":2122:2155   */\n  tag_82\n    /* \"#utility.yul\":2150:2154   */\n  dup3\n    /* \"#utility.yul\":2142:2148   */\n  dup3\n    /* \"#utility.yul\":2122:2155   */\n  tag_29\n  jump\t// in\ntag_82:\n    /* \"#utility.yul\":2032:2161   */\n  swap2\n  swap1\n  pop\n  jump\t// out\n    /* \"#utility.yul\":2167:2475   */\ntag_31:\n    /* \"#utility.yul\":2229:2233   */\n  0x00\n    /* \"#utility.yul\":2319:2337   */\n  0xffffffffffffffff\n    /* \"#utility.yul\":2311:2317   */\n  dup3\n    /* \"#utility.yul\":2308:2338   */\n  gt\n    /* \"#utility.yul\":2305:2361   */\n  iszero\n  tag_84\n  jumpi\n    /* \"#utility.yul\":2341:2359   */\n  tag_85\n  tag_28\n  jump\t// in\ntag_85:\n    /* \"#utility.yul\":2305:2361   */\ntag_84:\n    /* \"#utility.yul\":2379:2408   */\n  tag_86\n    /* \"#utility.yul\":2401:2407   */\n  dup3\n    /* \"#utility.yul\":2379:2408   */\n  tag_27\n  jump\t// in\ntag_86:\n    /* \"#utility.yul\":2371:2408   */\n  swap1\n  pop\n    /* \"#utility.yul\":2463:2467   */\n  0x20\n    /* \"#utility.yul\":2457:2461   */\n  dup2\n    /* \"#utility.yul\":2453:2468   */\n  add\n    /* \"#utility.yul\":2445:2468   */\n  swap1\n  pop\n    /* \"#utility.yul\":2167:2475   */\n  swap2\n  swap1\n  pop\n  jump\t// out\n    /* \"#utility.yul\":2481:2788   */\ntag_32:\n    /* \"#utility.yul\":2549:2550   */\n  0x00\n    /* \"#utility.yul\":2559:2672   */\ntag_88:\n    /* \"#utility.yul\":2573:2579   */\n  dup4\n    /* \"#utility.yul\":2570:2571   */\n  dup2\n    /* \"#utility.yul\":2567:2580   */\n  lt\n    /* \"#utility.yul\":2559:2672   */\n  iszero\n  tag_90\n  jumpi\n    /* \"#utility.yul\":2658:2659   */\n  dup1\n    /* \"#utility.yul\":2653:2656   */\n  dup3\n    /* \"#utility.yul\":2649:2660   */\n  add\n    /* \"#utility.yul\":2643:2661   */\n  mload\n    /* \"#utility.yul\":2639:2640   */\n  dup2\n    /* \"#utility.yul\":2634:2637   */\n  dup5\n    /* \"#utility.yul\":2630:2641   */\n  add\n    /* \"#utility.yul\":2623:2662   */\n  mstore\n    /* \"#utility.yul\":2595:2597   */\n  0x20\n    /* \"#utility.yul\":2592:2593   */\n  dup2\n    /* \"#utility.yul\":2588:2598   */\n  add\n    /* \"#utility.yul\":2583:2598   */\n  swap1\n  pop\n    /* \"#utility.yul\":2559:2672   */\n  jump(tag_88)\ntag_90:\n    /* \"#utility.yul\":2690:2696   */\n  dup4\n    /* \"#utility.yul\":2687:2688   */\n  dup2\n    /* \"#utility.yul\":2684:2697   */\n  gt\n    /* \"#utility.yul\":2681:2782   */\n  iszero\n  tag_91\n  jumpi\n    /* \"#utility.yul\":2770:2771   */\n  0x00\n    /* \"#utility.yul\":2761:2767   */\n  dup5\n    /* \"#utility.yul\":2756:2759   */\n  dup5\n    /* \"#utility.yul\":2752:2768   */\n  add\n    /* \"#utility.yul\":2745:2772   */\n  mstore\n    /* \"#utility.yul\":2681:2782   */\ntag_91:\n    /* \"#utility.yul\":2530:2788   */\n  pop\n    /* \"#utility.yul\":2481:2788   */\n  pop\n  pop\n  pop\n  jump\t// out\n    /* \"#utility.yul\":2794:3215   */\ntag_33:\n    /* \"#utility.yul\":2883:2888   */\n  0x00\n    /* \"#utility.yul\":2908:2974   */\n  tag_93\n    /* \"#utility.yul\":2924:2973   */\n  tag_94\n    /* \"#utility.yul\":2966:2972   */\n  dup5\n    /* \"#utility.yul\":2924:2973   */\n  tag_31\n  jump\t// in\ntag_94:\n    /* \"#utility.yul\":2908:2974   */\n  tag_30\n  jump\t// in\ntag_93:\n    /* \"#utility.yul\":2899:2974   */\n  swap1\n  pop\n    /* \"#utility.yul\":2997:3003   */\n  dup3\n    /* \"#utility.yul\":2990:2995   */\n  dup2\n    /* \"#utility.yul\":2983:3004   */\n  mstore\n    /* \"#utility.yul\":3035:3039   */\n  0x20\n    /* \"#utility.yul\":3028:3033   */\n  dup2\n    /* \"#utility.yul\":3024:3040   */\n  add\n    /* \"#utility.yul\":3073:3076   */\n  dup5\n    /* \"#utility.yul\":3064:3070   */\n  dup5\n    /* \"#utility.yul\":3059:3062   */\n  dup5\n    /* \"#utility.yul\":3055:3071   */\n  add\n    /* \"#utility.yul\":3052:3077   */\n  gt\n    /* \"#utility.yul\":3049:3161   */\n  iszero\n  tag_95\n  jumpi\n    /* \"#utility.yul\":3080:3159   */\n  tag_96\n  tag_26\n  jump\t// in\ntag_96:\n    /* \"#utility.yul\":3049:3161   */\ntag_95:\n    /* \"#utility.yul\":3170:3209   */\n  tag_97\n    /* \"#utility.yul\":3202:3208   */\n  dup5\n    /* \"#utility.yul\":3197:3200   */\n  dup3\n    /* \"#utility.yul\":3192:3195   */\n  dup6\n    /* \"#utility.yul\":3170:3209   */\n  tag_32\n  jump\t// in\ntag_97:\n    /* \"#utility.yul\":2889:3215   */\n  pop\n    /* \"#utility.yul\":2794:3215   */\n  swap4\n  swap3\n  pop\n  pop\n  pop\n  jump\t// out\n    /* \"#utility.yul\":3235:3590   */\ntag_34:\n    /* \"#utility.yul\":3302:3307   */\n  0x00\n    /* \"#utility.yul\":3351:3354   */\n  dup3\n    /* \"#utility.yul\":3344:3348   */\n  0x1f\n    /* \"#utility.yul\":3336:3342   */\n  dup4\n    /* \"#utility.yul\":3332:3349   */\n  add\n    /* \"#utility.yul\":3328:3355   */\n  slt\n    /* \"#utility.yul\":3318:3440   */\n  tag_99\n  jumpi\n    /* \"#utility.yul\":3359:3438   */\n  tag_100\n  tag_25\n  jump\t// in\ntag_100:\n    /* \"#utility.yul\":3318:3440   */\ntag_99:\n    /* \"#utility.yul\":3469:3475   */\n  dup2\n    /* \"#utility.yul\":3463:3476   */\n  mload\n    /* \"#utility.yul\":3494:3584   */\n  tag_101\n    /* \"#utility.yul\":3580:3583   */\n  dup5\n    /* \"#utility.yul\":3572:3578   */\n  dup3\n    /* \"#utility.yul\":3565:3569   */\n  0x20\n    /* \"#utility.yul\":3557:3563   */\n  dup7\n    /* \"#utility.yul\":3553:3570   */\n  add\n    /* \"#utility.yul\":3494:3584   */\n  tag_33\n  jump\t// in\ntag_101:\n    /* \"#utility.yul\":3485:3584   */\n  swap2\n  pop\n    /* \"#utility.yul\":3308:3590   */\n  pop\n    /* \"#utility.yul\":3235:3590   */\n  swap3\n  swap2\n  pop\n  pop\n  jump\t// out\n    /* \"#utility.yul\":3596:4746   */\ntag_3:\n    /* \"#utility.yul\":3712:3718   */\n  0x00\n    /* \"#utility.yul\":3720:3726   */\n  dup1\n    /* \"#utility.yul\":3728:3734   */\n  0x00\n    /* \"#utility.yul\":3736:3742   */\n  dup1\n    /* \"#utility.yul\":3744:3750   */\n  0x00\n    /* \"#utility.yul\":3793:3796   */\n  0xa0\n    /* \"#utility.yul\":3781:3790   */\n  dup7\n    /* \"#utility.yul\":3772:3779   */\n  dup9\n    /* \"#utility.yul\":3768:3791   */\n  sub\n    /* \"#utility.yul\":3764:3797   */\n  slt\n    /* \"#utility.yul\":3761:3881   */\n  iszero\n  tag_103\n  jumpi\n    /* \"#utility.yul\":3800:3879   */\n  tag_104\n  tag_16\n  jump\t// in\ntag_104:\n    /* \"#utility.yul\":3761:3881   */\ntag_103:\n    /* \"#utility.yul\":3920:3921   */\n  0x00\n    /* \"#utility.yul\":3945:4009   */\n  tag_105\n    /* \"#utility.yul\":4001:4008   */\n  dup9\n    /* \"#utility.yul\":3992:3998   */\n  dup3\n    /* \"#utility.yul\":3981:3990   */\n  dup10\n    /* \"#utility.yul\":3977:3999   */\n  add\n    /* \"#utility.yul\":3945:4009   */\n  tag_20\n  jump\t// in\ntag_105:\n    /* \"#utility.yul\":3935:4009   */\n  swap6\n  pop\n    /* \"#utility.yul\":3891:4019   */\n  pop\n    /* \"#utility.yul\":4058:4060   */\n  0x20\n    /* \"#utility.yul\":4084:4148   */\n  tag_106\n    /* \"#utility.yul\":4140:4147   */\n  dup9\n    /* \"#utility.yul\":4131:4137   */\n  dup3\n    /* \"#utility.yul\":4120:4129   */\n  dup10\n    /* \"#utility.yul\":4116:4138   */\n  add\n    /* \"#utility.yul\":4084:4148   */\n  tag_20\n  jump\t// in\ntag_106:\n    /* \"#utility.yul\":4074:4148   */\n  swap5\n  pop\n    /* \"#utility.yul\":4029:4158   */\n  pop\n    /* \"#utility.yul\":4197:4199   */\n  0x40\n    /* \"#utility.yul\":4223:4287   */\n  tag_107\n    /* \"#utility.yul\":4279:4286   */\n  dup9\n    /* \"#utility.yul\":4270:4276   */\n  dup3\n    /* \"#utility.yul\":4259:4268   */\n  dup10\n    /* \"#utility.yul\":4255:4277   */\n  add\n    /* \"#utility.yul\":4223:4287   */\n  tag_24\n  jump\t// in\ntag_107:\n    /* \"#utility.yul\":4213:4287   */\n  swap4\n  pop\n    /* \"#utility.yul\":4168:4297   */\n  pop\n    /* \"#utility.yul\":4336:4338   */\n  0x60\n    /* \"#utility.yul\":4362:4426   */\n  tag_108\n    /* \"#utility.yul\":4418:4425   */\n  dup9\n    /* \"#utility.yul\":4409:4415   */\n  dup3\n    /* \"#utility.yul\":4398:4407   */\n  dup10\n    /* \"#utility.yul\":4394:4416   */\n  add\n    /* \"#utility.yul\":4362:4426   */\n  tag_24\n  jump\t// in\ntag_108:\n    /* \"#utility.yul\":4352:4426   */\n  swap3\n  pop\n    /* \"#utility.yul\":4307:4436   */\n  pop\n    /* \"#utility.yul\":4496:4499   */\n  0x80\n    /* \"#utility.yul\":4485:4494   */\n  dup7\n    /* \"#utility.yul\":4481:4500   */\n  add\n    /* \"#utility.yul\":4475:4501   */\n  mload\n    /* \"#utility.yul\":4528:4546   */\n  0xffffffffffffffff\n    /* \"#utility.yul\":4520:4526   */\n  dup2\n    /* \"#utility.yul\":4517:4547   */\n  gt\n    /* \"#utility.yul\":4514:4631   */\n  iszero\n  tag_109\n  jumpi\n    /* \"#utility.yul\":4550:4629   */\n  tag_110\n  tag_17\n  jump\t// in\ntag_110:\n    /* \"#utility.yul\":4514:4631   */\ntag_109:\n    /* \"#utility.yul\":4655:4729   */\n  tag_111\n    /* \"#utility.yul\":4721:4728   */\n  dup9\n    /* \"#utility.yul\":4712:4718   */\n  dup3\n    /* \"#utility.yul\":4701:4710   */\n  dup10\n    /* \"#utility.yul\":4697:4719   */\n  add\n    /* \"#utility.yul\":4655:4729   */\n  tag_34\n  jump\t// in\ntag_111:\n    /* \"#utility.yul\":4645:4729   */\n  swap2\n  pop\n    /* \"#utility.yul\":4446:4739   */\n  pop\n    /* \"#utility.yul\":3596:4746   */\n  swap3\n  swap6\n  pop\n  swap3\n  swap6\n  swap1\n  swap4\n  pop\n  jump\t// out\n    /* \"#utility.yul\":4752:4851   */\ntag_35:\n    /* \"#utility.yul\":4804:4810   */\n  0x00\n    /* \"#utility.yul\":4838:4843   */\n  dup2\n    /* \"#utility.yul\":4832:4844   */\n  mload\n    /* \"#utility.yul\":4822:4844   */\n  swap1\n  pop\n    /* \"#utility.yul\":4752:4851   */\n  swap2\n  swap1\n  pop\n  jump\t// out\n    /* \"#utility.yul\":4857:5037   */\ntag_36:\n    /* \"#utility.yul\":4905:4982   */\n  0x4e487b7100000000000000000000000000000000000000000000000000000000\n    /* \"#utility.yul\":4902:4903   */\n  0x00\n    /* \"#utility.yul\":4895:4983   */\n  mstore\n    /* \"#utility.yul\":5002:5006   */\n  0x22\n    /* \"#utility.yul\":4999:5000   */\n  0x04\n    /* \"#utility.yul\":4992:5007   */\n  mstore\n    /* \"#utility.yul\":5026:5030   */\n  0x24\n    /* \"#utility.yul\":5023:5024   */\n  0x00\n    /* \"#utility.yul\":5016:5031   */\n  revert\n    /* \"#utility.yul\":5043:5363   */\ntag_37:\n    /* \"#utility.yul\":5087:5093   */\n  0x00\n    /* \"#utility.yul\":5124:5125   */\n  0x02\n    /* \"#utility.yul\":5118:5122   */\n  dup3\n    /* \"#utility.yul\":5114:5126   */\n  div\n    /* \"#utility.yul\":5104:5126   */\n  swap1\n  pop\n    /* \"#utility.yul\":5171:5172   */\n  0x01\n    /* \"#utility.yul\":5165:5169   */\n  dup3\n    /* \"#utility.yul\":5161:5173   */\n  and\n    /* \"#utility.yul\":5192:5210   */\n  dup1\n    /* \"#utility.yul\":5182:5263   */\n  tag_115\n  jumpi\n    /* \"#utility.yul\":5248:5252   */\n  0x7f\n    /* \"#utility.yul\":5240:5246   */\n  dup3\n    /* \"#utility.yul\":5236:5253   */\n  and\n    /* \"#utility.yul\":5226:5253   */\n  swap2\n  pop\n    /* \"#utility.yul\":5182:5263   */\ntag_115:\n    /* \"#utility.yul\":5310:5312   */\n  0x20\n    /* \"#utility.yul\":5302:5308   */\n  dup3\n    /* \"#utility.yul\":5299:5313   */\n  lt\n    /* \"#utility.yul\":5279:5297   */\n  dup2\n    /* \"#utility.yul\":5276:5314   */\n  sub\n    /* \"#utility.yul\":5273:5357   */\n  tag_116\n  jumpi\n    /* \"#utility.yul\":5329:5347   */\n  tag_117\n  tag_36\n  jump\t// in\ntag_117:\n    /* \"#utility.yul\":5273:5357   */\ntag_116:\n    /* \"#utility.yul\":5094:5363   */\n  pop\n    /* \"#utility.yul\":5043:5363   */\n  swap2\n  swap1\n  pop\n  jump\t// out\n    /* \"#utility.yul\":5369:5510   */\ntag_38:\n    /* \"#utility.yul\":5418:5422   */\n  0x00\n    /* \"#utility.yul\":5441:5444   */\n  dup2\n    /* \"#utility.yul\":5433:5444   */\n  swap1\n  pop\n    /* \"#utility.yul\":5464:5467   */\n  dup2\n    /* \"#utility.yul\":5461:5462   */\n  0x00\n    /* \"#utility.yul\":5454:5468   */\n  mstore\n    /* \"#utility.yul\":5498:5502   */\n  0x20\n    /* \"#utility.yul\":5495:5496   */\n  0x00\n    /* \"#utility.yul\":5485:5503   */\n  keccak256\n    /* \"#utility.yul\":5477:5503   */\n  swap1\n  pop\n    /* \"#utility.yul\":5369:5510   */\n  swap2\n  swap1\n  pop\n  jump\t// out\n    /* \"#utility.yul\":5516:5609   */\ntag_39:\n    /* \"#utility.yul\":5553:5559   */\n  0x00\n    /* \"#utility.yul\":5600:5602   */\n  0x20\n    /* \"#utility.yul\":5595:5597   */\n  0x1f\n    /* \"#utility.yul\":5588:5593   */\n  dup4\n    /* \"#utility.yul\":5584:5598   */\n  add\n    /* \"#utility.yul\":5580:5603   */\n  div\n    /* \"#utility.yul\":5570:5603   */\n  swap1\n  pop\n    /* \"#utility.yul\":5516:5609   */\n  swap2\n  swap1\n  pop\n  jump\t// out\n    /* \"#utility.yul\":5615:5722   */\ntag_40:\n    /* \"#utility.yul\":5659:5667   */\n  0x00\n    /* \"#utility.yul\":5709:5714   */\n  dup3\n    /* \"#utility.yul\":5703:5707   */\n  dup3\n    /* \"#utility.yul\":5699:5715   */\n  shl\n    /* \"#utility.yul\":5678:5715   */\n  swap1\n  pop\n    /* \"#utility.yul\":5615:5722   */\n  swap3\n  swap2\n  pop\n  pop\n  jump\t// out\n    /* \"#utility.yul\":5728:6121   */\ntag_41:\n    /* \"#utility.yul\":5797:5803   */\n  0x00\n    /* \"#utility.yul\":5847:5848   */\n  0x08\n    /* \"#utility.yul\":5835:5845   */\n  dup4\n    /* \"#utility.yul\":5831:5849   */\n  mul\n    /* \"#utility.yul\":5870:5967   */\n  tag_122\n    /* \"#utility.yul\":5900:5966   */\n  0xffffffffffffffffffffffffffffffffffffffffffffffffffffffffffffffff\n    /* \"#utility.yul\":5889:5898   */\n  dup3\n    /* \"#utility.yul\":5870:5967   */\n  tag_40\n  jump\t// in\ntag_122:\n    /* \"#utility.yul\":5988:6027   */\n  tag_123\n    /* \"#utility.yul\":6018:6026   */\n  dup7\n    /* \"#utility.yul\":6007:6016   */\n  dup4\n    /* \"#utility.yul\":5988:6027   */\n  tag_40\n  jump\t// in\ntag_123:\n    /* \"#utility.yul\":5976:6027   */\n  swap6\n  pop\n    /* \"#utility.yul\":6060:6064   */\n  dup1\n    /* \"#utility.yul\":6056:6065   */\n  not\n    /* \"#utility.yul\":6049:6054   */\n  dup5\n    /* \"#utility.yul\":6045:6066   */\n  and\n    /* \"#utility.yul\":6036:6066   */\n  swap4\n  pop\n    /* \"#utility.yul\":6109:6113   */\n  dup1\n    /* \"#utility.yul\":6099:6107   */\n  dup7\n    /* \"#utility.yul\":6095:6114   */\n  and\n    /* \"#utility.yul\":6088:6093   */\n  dup5\n    /* \"#utility.yul\":6085:6115   */\n  or\n    /* \"#utility.yul\":6075:6115   */\n  swap3\n  pop\n    /* \"#utility.yul\":5804:6121   */\n  pop\n  pop\n    /* \"#utility.yul\":5728:6121   */\n  swap4\n  swap3\n  pop\n  pop\n  pop\n  jump\t// out\n    /* \"#utility.yul\":6127:6187   */\ntag_42:\n    /* \"#utility.yul\":6155:6158   */\n  0x00\n    /* \"#utility.yul\":6176:6181   */\n  dup2\n    /* \"#utility.yul\":6169:6181   */\n  swap1\n  pop\n    /* \"#utility.yul\":6127:6187   */\n  swap2\n  swap1\n  pop\n  jump\t// out\n    /* \"#utility.yul\":6193:6335   */\ntag_43:\n    /* \"#utility.yul\":6243:6252   */\n  0x00\n    /* \"#utility.yul\":6276:6329   */\n  tag_126\n    /* \"#utility.yul\":6294:6328   */\n  tag_127\n    /* \"#utility.yul\":6303:6327   */\n  tag_128\n    /* \"#utility.yul\":6321:6326   */\n  dup5\n    /* \"#utility.yul\":6303:6327   */\n  tag_18\n  jump\t// in\ntag_128:\n    /* \"#utility.yul\":6294:6328   */\n  tag_42\n  jump\t// in\ntag_127:\n    /* \"#utility.yul\":6276:6329   */\n  tag_18\n  jump\t// in\ntag_126:\n    /* \"#utility.yul\":6263:6329   */\n  swap1\n  pop\n    /* \"#utility.yul\":6193:6335   */\n  swap2\n  swap1\n  pop\n  jump\t// out\n    /* \"#utility.yul\":6341:6416   */\ntag_44:\n    /* \"#utility.yul\":6384:6387   */\n  0x00\n    /* \"#utility.yul\":6405:6410   */\n  dup2\n    /* \"#utility.yul\":6398:6410   */\n  swap1\n  pop\n    /* \"#utility.yul\":6341:6416   */\n  swap2\n  swap1\n  pop\n  jump\t// out\n    /* \"#utility.yul\":6422:6691   */\ntag_45:\n    /* \"#utility.yul\":6532:6571   */\n  tag_131\n    /* \"#utility.yul\":6563:6570   */\n  dup4\n    /* \"#utility.yul\":6532:6571   */\n  tag_43\n  jump\t// in\ntag_131:\n    /* \"#utility.yul\":6593:6684   */\n  tag_132\n    /* \"#utility.yul\":6642:6683   */\n  tag_133\n    /* \"#utility.yul\":6666:6682   */\n  dup3\n    /* \"#utility.yul\":6642:6683   */\n  tag_44\n  jump\t// in\ntag_133:\n    /* \"#utility.yul\":6634:6640   */\n  dup5\n    /* \"#utility.yul\":6627:6631   */\n  dup5\n    /* \"#utility.yul\":6621:6632   */\n  sload\n    /* \"#utility.yul\":6593:6684   */\n  tag_41\n  jump\t// in\ntag_132:\n    /* \"#utility.yul\":6587:6591   */\n  dup3\n    /* \"#utility.yul\":6580:6685   */\n  sstore\n    /* \"#utility.yul\":6498:6691   */\n  pop\n    /* \"#utility.yul\":6422:6691   */\n  pop\n  pop\n  pop\n  jump\t// out\n    /* \"#utility.yul\":6697:6770   */\ntag_46:\n    /* \"#utility.yul\":6742:6745   */\n  0x00\n    /* \"#utility.yul\":6697:6770   */\n  swap1\n  jump\t// out\n    /* \"#utility.yul\":6776:6965   */\ntag_47:\n    /* \"#utility.yul\":6853:6885   */\n  tag_136\n  tag_46\n  jump\t// in\ntag_136:\n    /* \"#utility.yul\":6894:6959   */\n  tag_137\n    /* \"#utility.yul\":6952:6958   */\n  dup2\n    /* \"#utility.yul\":6944:6950   */\n  dup5\n    /* \"#utility.yul\":6938:6942   */\n  dup5\n    /* \"#utility.yul\":6894:6959   */\n  tag_45\n  jump\t// in\ntag_137:\n    /* \"#utility.yul\":6829:6965   */\n  pop\n    /* \"#utility.yul\":6776:6965   */\n  pop\n  pop\n  jump\t// out\n    /* \"#utility.yul\":6971:7157   */\ntag_48:\n    /* \"#utility.yul\":7031:7151   */\ntag_139:\n    /* \"#utility.yul\":7048:7051   */\n  dup2\n    /* \"#utility.yul\":7041:7046   */\n  dup2\n    /* \"#utility.yul\":7038:7052   */\n  lt\n    /* \"#utility.yul\":7031:7151   */\n  iszero\n  tag_141\n  jumpi\n    /* \"#utility.yul\":7102:7141   */\n  tag_142\n    /* \"#utility.yul\":7139:7140   */\n  0x00\n    /* \"#utility.yul\":7132:7137   */\n  dup3\n    /* \"#utility.yul\":7102:7141   */\n  tag_47\n  jump\t// in\ntag_142:\n    /* \"#utility.yul\":7075:7076   */\n  0x01\n    /* \"#utility.yul\":7068:7073   */\n  dup2\n    /* \"#utility.yul\":7064:7077   */\n  add\n    /* \"#utility.yul\":7055:7077   */\n  swap1\n  pop\n    /* \"#utility.yul\":7031:7151   */\n  jump(tag_139)\ntag_141:\n    /* \"#utility.yul\":6971:7157   */\n  pop\n  pop\n  jump\t// out\n    /* \"#utility.yul\":7163:7706   */\ntag_49:\n    /* \"#utility.yul\":7264:7266   */\n  0x1f\n    /* \"#utility.yul\":7259:7262   */\n  dup3\n    /* \"#utility.yul\":7256:7267   */\n  gt\n    /* \"#utility.yul\":7253:7699   */\n  iszero\n  tag_144\n  jumpi\n    /* \"#utility.yul\":7298:7336   */\n  tag_145\n    /* \"#utility.yul\":7330:7335   */\n  dup2\n    /* \"#utility.yul\":7298:7336   */\n  tag_38\n  jump\t// in\ntag_145:\n    /* \"#utility.yul\":7382:7411   */\n  tag_146\n    /* \"#utility.yul\":7400:7410   */\n  dup5\n    /* \"#utility.yul\":7382:7411   */\n  tag_39\n  jump\t// in\ntag_146:\n    /* \"#utility.yul\":7372:7380   */\n  dup2\n    /* \"#utility.yul\":7368:7412   */\n  add\n    /* \"#utility.yul\":7565:7567   */\n  0x20\n    /* \"#utility.yul\":7553:7563   */\n  dup6\n    /* \"#utility.yul\":7550:7568   */\n  lt\n    /* \"#utility.yul\":7547:7596   */\n  iszero\n  tag_147\n  jumpi\n    /* \"#utility.yul\":7586:7594   */\n  dup2\n    /* \"#utility.yul\":7571:7594   */\n  swap1\n  pop\n    /* \"#utility.yul\":7547:7596   */\ntag_147:\n    /* \"#utility.yul\":7609:7689   */\n  tag_148\n    /* \"#utility.yul\":7665:7687   */\n  tag_149\n    /* \"#utility.yul\":7683:7686   */\n  dup6\n    /* \"#utility.yul\":7665:7687   */\n  tag_39\n  jump\t// in\ntag_149:\n    /* \"#utility.yul\":7655:7663   */\n  dup4\n    /* \"#utility.yul\":7651:7688   */\n  add\n    /* \"#utility.yul\":7638:7649   */\n  dup3\n    /* \"#utility.yul\":7609:7689   */\n  tag_48\n  jump\t// in\ntag_148:\n    /* \"#utility.yul\":7268:7699   */\n  pop\n  pop\n    /* \"#utility.yul\":7253:7699   */\ntag_144:\n    /* \"#utility.yul\":7163:7706   */\n  pop\n  pop\n  pop\n  jump\t// out\n    /* \"#utility.yul\":7712:7829   */\ntag_50:\n    /* \"#utility.yul\":7766:7774   */\n  0x00\n    /* \"#utility.yul\":7816:7821   */\n  dup3\n    /* \"#utility.yul\":7810:7814   */\n  dup3\n    /* \"#utility.yul\":7806:7822   */\n  shr\n    /* \"#utility.yul\":7785:7822   */\n  swap1\n  pop\n    /* \"#utility.yul\":7712:7829   */\n  swap3\n  swap2\n  pop\n  pop\n  jump\t// out\n    /* \"#utility.yul\":7835:8004   */\ntag_51:\n    /* \"#utility.yul\":7879:7885   */\n  0x00\n    /* \"#utility.yul\":7912:7963   */\n  tag_152\n    /* \"#utility.yul\":7960:7961   */\n  0x00\n    /* \"#utility.yul\":7956:7962   */\n  not\n    /* \"#utility.yul\":7948:7953   */\n  dup5\n    /* \"#utility.yul\":7945:7946   */\n  0x08\n    /* \"#utility.yul\":7941:7954   */\n  mul\n    /* \"#utility.yul\":7912:7963   */\n  tag_50\n  jump\t// in\ntag_152:\n    /* \"#utility.yul\":7908:7964   */\n  not\n    /* \"#utility.yul\":7993:7997   */\n  dup1\n    /* \"#utility.yul\":7987:7991   */\n  dup4\n    /* \"#utility.yul\":7983:7998   */\n  and\n    /* \"#utility.yul\":7973:7998   */\n  swap2\n  pop\n    /* \"#utility.yul\":7886:8004   */\n  pop\n    /* \"#utility.yul\":7835:8004   */\n  swap3\n  swap2\n  pop\n  pop\n  jump\t// out\n    /* \"#utility.yul\":8009:8304   */\ntag_52:\n    /* \"#utility.yul\":8085:8089   */\n  0x00\n    /* \"#utility.yul\":8231:8260   */\n  tag_154\n    /* \"#utility.yul\":8256:8259   */\n  dup4\n    /* \"#utility.yul\":8250:8254   */\n  dup4\n    /* \"#utility.yul\":8231:8260   */\n  tag_51\n  jump\t// in\ntag_154:\n    /* \"#utility.yul\":8223:8260   */\n  swap2\n  pop\n    /* \"#utility.yul\":8293:8296   */\n  dup3\n    /* \"#utility.yul\":8290:8291   */\n  0x02\n    /* \"#utility.yul\":8286:8297   */\n  mul\n    /* \"#utility.yul\":8280:8284   */\n  dup3\n    /* \"#utility.yul\":8277:8298   */\n  or\n    /* \"#utility.yul\":8269:8298   */\n  swap1\n  pop\n    /* \"#utility.yul\":8009:8304   */\n  swap3\n  swap2\n  pop\n  pop\n  jump\t// out\n    /* \"#utility.yul\":8309:9704   */\ntag_7:\n    /* \"#utility.yul\":8426:8463   */\n  tag_156\n    /* \"#utility.yul\":8459:8462   */\n  dup3\n    /* \"#utility.yul\":8426:8463   */\n  tag_35\n  jump\t// in\ntag_156:\n    /* \"#utility.yul\":8528:8546   */\n  0xffffffffffffffff\n    /* \"#utility.yul\":8520:8526   */\n  dup2\n    /* \"#utility.yul\":8517:8547   */\n  gt\n    /* \"#utility.yul\":8514:8570   */\n  iszero\n  tag_157\n  jumpi\n    /* \"#utility.yul\":8550:8568   */\n  tag_158\n  tag_28\n  jump\t// in\ntag_158:\n    /* \"#utility.yul\":8514:8570   */\ntag_157:\n    /* \"#utility.yul\":8594:8632   */\n  tag_159\n    /* \"#utility.yul\":8626:8630   */\n  dup3\n    /* \"#utility.yul\":8620:8631   */\n  sload\n    /* \"#utility.yul\":8594:8632   */\n  tag_37\n  jump\t// in\ntag_159:\n    /* \"#utility.yul\":8679:8746   */\n  tag_160\n    /* \"#utility.yul\":8739:8745   */\n  dup3\n    /* \"#utility.yul\":8731:8737   */\n  dup3\n    /* \"#utility.yul\":8725:8729   */\n  dup6\n    /* \"#utility.yul\":8679:8746   */\n  tag_49\n  jump\t// in\ntag_160:\n    /* \"#utility.yul\":8773:8774   */\n  0x00\n    /* \"#utility.yul\":8797:8801   */\n  0x20\n    /* \"#utility.yul\":8784:8801   */\n  swap1\n  pop\n    /* \"#utility.yul\":8829:8831   */\n  0x1f\n    /* \"#utility.yul\":8821:8827   */\n  dup4\n    /* \"#utility.yul\":8818:8832   */\n  gt\n    /* \"#utility.yul\":8846:8847   */\n  0x01\n    /* \"#utility.yul\":8841:9459   */\n  dup2\n  eq\n  tag_162\n  jumpi\n    /* \"#utility.yul\":9503:9504   */\n  0x00\n    /* \"#utility.yul\":9520:9526   */\n  dup5\n    /* \"#utility.yul\":9517:9594   */\n  iszero\n  tag_163\n  jumpi\n    /* \"#utility.yul\":9569:9578   */\n  dup3\n    /* \"#utility.yul\":9564:9567   */\n  dup8\n    /* \"#utility.yul\":9560:9579   */\n  add\n    /* \"#utility.yul\":9554:9580   */\n  mload\n    /* \"#utility.yul\":9545:9580   */\n  swap1\n  pop\n    /* \"#utility.yul\":9517:9594   */\ntag_163:\n    /* \"#utility.yul\":9620:9687   */\n  tag_164\n    /* \"#utility.yul\":9680:9686   */\n  dup6\n    /* \"#utility.yul\":9673:9678   */\n  dup3\n    /* \"#utility.yul\":9620:9687   */\n  tag_52\n  jump\t// in\ntag_164:\n    /* \"#utility.yul\":9614:9618   */\n  dup7\n    /* \"#utility.yul\":9607:9688   */\n  sstore\n    /* \"#utility.yul\":9476:9698   */\n  pop\n    /* \"#utility.yul\":8811:9698   */\n  jump(tag_161)\n    /* \"#utility.yul\":8841:9459   */\ntag_162:\n    /* \"#utility.yul\":8893:8897   */\n  0x1f\n    /* \"#utility.yul\":8889:8898   */\n  not\n    /* \"#utility.yul\":8881:8887   */\n  dup5\n    /* \"#utility.yul\":8877:8899   */\n  and\n    /* \"#utility.yul\":8927:8964   */\n  tag_165\n    /* \"#utility.yul\":8959:8963   */\n  dup7\n    /* \"#utility.yul\":8927:8964   */\n  tag_38\n  jump\t// in\ntag_165:\n    /* \"#utility.yul\":8986:8987   */\n  0x00\n    /* \"#utility.yul\":9000:9208   */\ntag_166:\n    /* \"#utility.yul\":9014:9021   */\n  dup3\n    /* \"#utility.yul\":9011:9012   */\n  dup2\n    /* \"#utility.yul\":9008:9022   */\n  lt\n    /* \"#utility.yul\":9000:9208   */\n  iszero\n  tag_168\n  jumpi\n    /* \"#utility.yul\":9093:9102   */\n  dup5\n    /* \"#utility.yul\":9088:9091   */\n  dup10\n    /* \"#utility.yul\":9084:9103   */\n  add\n    /* \"#utility.yul\":9078:9104   */\n  mload\n    /* \"#utility.yul\":9070:9076   */\n  dup3\n    /* \"#utility.yul\":9063:9105   */\n  sstore\n    /* \"#utility.yul\":9144:9145   */\n  0x01\n    /* \"#utility.yul\":9136:9142   */\n  dup3\n    /* \"#utility.yul\":9132:9146   */\n  add\n    /* \"#utility.yul\":9122:9146   */\n  swap2\n  pop\n    /* \"#utility.yul\":9191:9193   */\n  0x20\n    /* \"#utility.yul\":9180:9189   */\n  dup6\n    /* \"#utility.yul\":9176:9194   */\n  add\n    /* \"#utility.yul\":9163:9194   */\n  swap5\n  pop\n    /* \"#utility.yul\":9037:9041   */\n  0x20\n    /* \"#utility.yul\":9034:9035   */\n  dup2\n    /* \"#utility.yul\":9030:9042   */\n  add\n    /* \"#utility.yul\":9025:9042   */\n  swap1\n  pop\n    /* \"#utility.yul\":9000:9208   */\n  jump(tag_166)\ntag_168:\n    /* \"#utility.yul\":9236:9242   */\n  dup7\n    /* \"#utility.yul\":9227:9234   */\n  dup4\n    /* \"#utility.yul\":9224:9243   */\n  lt\n    /* \"#utility.yul\":9221:9400   */\n  iszero\n  tag_169\n  jumpi\n    /* \"#utility.yul\":9294:9303   */\n  dup5\n    /* \"#utility.yul\":9289:9292   */\n  dup10\n    /* \"#utility.yul\":9285:9304   */\n  add\n    /* \"#utility.yul\":9279:9305   */\n  mload\n    /* \"#utility.yul\":9337:9385   */\n  tag_170\n    /* \"#utility.yul\":9379:9383   */\n  0x1f\n    /* \"#utility.yul\":9371:9377   */\n  dup10\n    /* \"#utility.yul\":9367:9384   */\n  and\n    /* \"#utility.yul\":9356:9365   */\n  dup3\n    /* \"#utility.yul\":9337:9385   */\n  tag_51\n  jump\t// in\ntag_170:\n    /* \"#utility.yul\":9329:9335   */\n  dup4\n    /* \"#utility.yul\":9322:9386   */\n  sstore\n    /* \"#utility.yul\":9244:9400   */\n  pop\n    /* \"#utility.yul\":9221:9400   */\ntag_169:\n    /* \"#utility.yul\":9446:9447   */\n  0x01\n    /* \"#utility.yul\":9442:9443   */\n  0x02\n    /* \"#utility.yul\":9434:9440   */\n  dup9\n    /* \"#utility.yul\":9430:9444   */\n  mul\n    /* \"#utility.yul\":9426:9448   */\n  add\n    /* \"#utility.yul\":9420:9424   */\n  dup9\n    /* \"#utility.yul\":9413:9449   */\n  sstore\n    /* \"#utility.yul\":8848:9459   */\n  pop\n  pop\n  pop\n    /* \"#utility.yul\":8811:9698   */\ntag_161:\n  pop\n    /* \"#utility.yul\":8401:9704   */\n  pop\n  pop\n  pop\n    /* \"#utility.yul\":8309:9704   */\n  pop\n  pop\n  jump\t// out\n    /* \"#utility.yul\":9710:9890   */\ntag_53:\n    /* \"#utility.yul\":9758:9835   */\n  0x4e487b7100000000000000000000000000000000000000000000000000000000\n    /* \"#utility.yul\":9755:9756   */\n  0x00\n    /* \"#utility.yul\":9748:9836   */\n  mstore\n    /* \"#utility.yul\":9855:9859   */\n  0x11\n    /* \"#utility.yul\":9852:9853   */\n  0x04\n    /* \"#utility.yul\":9845:9860   */\n  mstore\n    /* \"#utility.yul\":9879:9883   */\n  0x24\n    /* \"#utility.yul\":9876:9877   */\n  0x00\n    /* \"#utility.yul\":9869:9884   */\n  revert\n    /* \"#utility.yul\":9896:10244   */\ntag_9:\n    /* \"#utility.yul\":9936:9943   */\n  0x00\n    /* \"#utility.yul\":9959:9979   */\n  tag_173\n    /* \"#utility.yul\":9977:9978   */\n  dup3\n    /* \"#utility.yul\":9959:9979   */\n  tag_18\n  jump\t// in\ntag_173:\n    /* \"#utility.yul\":9954:9979   */\n  swap2\n  pop\n    /* \"#utility.yul\":9993:10013   */\n  tag_174\n    /* \"#utility.yul\":10011:10012   */\n  dup4\n    /* \"#utility.yul\":9993:10013   */\n  tag_18\n  jump\t// in\ntag_174:\n    /* \"#utility.yul\":9988:10013   */\n  swap3\n  pop\n    /* \"#utility.yul\":10181:10182   */\n  dup2\n    /* \"#utility.yul\":10113:10179   */\n  0xffffffffffffffffffffffffffffffffffffffffffffffffffffffffffffffff\n    /* \"#utility.yul\":10109:10183   */\n  div\n    /* \"#utility.yul\":10106:10107   */\n  dup4\n    /* \"#utility.yul\":10103:10184   */\n  gt\n    /* \"#utility.yul\":10098:10099   */\n  dup3\n    /* \"#utility.yul\":10091:10100   */\n  iszero\n    /* \"#utility.yul\":10084:10101   */\n  iszero\n    /* \"#utility.yul\":10080:10185   */\n  and\n    /* \"#utility.yul\":10077:10208   */\n  iszero\n  tag_175\n  jumpi\n    /* \"#utility.yul\":10188:10206   */\n  tag_176\n  tag_53\n  jump\t// in\ntag_176:\n    /* \"#utility.yul\":10077:10208   */\ntag_175:\n    /* \"#utility.yul\":10236:10237   */\n  dup3\n    /* \"#utility.yul\":10233:10234   */\n  dup3\n    /* \"#utility.yul\":10229:10238   */\n  mul\n    /* \"#utility.yul\":10218:10238   */\n  swap1\n  pop\n    /* \"#utility.yul\":9896:10244   */\n  swap3\n  swap2\n  pop\n  pop\n  jump\t// out\n    /* \"#utility.yul\":10250:10555   */\ntag_11:\n    /* \"#utility.yul\":10290:10293   */\n  0x00\n    /* \"#utility.yul\":10309:10329   */\n  tag_178\n    /* \"#utility.yul\":10327:10328   */\n  dup3\n    /* \"#utility.yul\":10309:10329   */\n  tag_18\n  jump\t// in\ntag_178:\n    /* \"#utility.yul\":10304:10329   */\n  swap2\n  pop\n    /* \"#utility.yul\":10343:10363   */\n  tag_179\n    /* \"#utility.yul\":10361:10362   */\n  dup4\n    /* \"#utility.yul\":10343:10363   */\n  tag_18\n  jump\t// in\ntag_179:\n    /* \"#utility.yul\":10338:10363   */\n  swap3\n  pop\n    /* \"#utility.yul\":10497:10498   */\n  dup3\n    /* \"#utility.yul\":10429:10495   */\n  0xffffffffffffffffffffffffffffffffffffffffffffffffffffffffffffffff\n    /* \"#utility.yul\":10425:10499   */\n  sub\n    /* \"#utility.yul\":10422:10423   */\n  dup3\n    /* \"#utility.yul\":10419:10500   */\n  gt\n    /* \"#utility.yul\":10416:10523   */\n  iszero\n  tag_180\n  jumpi\n    /* \"#utility.yul\":10503:10521   */\n  tag_181\n  tag_53\n  jump\t// in\ntag_181:\n    /* \"#utility.yul\":10416:10523   */\ntag_180:\n    /* \"#utility.yul\":10547:10548   */\n  dup3\n    /* \"#utility.yul\":10544:10545   */\n  dup3\n    /* \"#utility.yul\":10540:10549   */\n  add\n    /* \"#utility.yul\":10533:10549   */\n  swap1\n  pop\n    /* \"#utility.yul\":10250:10555   */\n  swap3\n  swap2\n  pop\n  pop\n  jump\t// out\n    /* \"Inbox.sol\":65:9589  contract basic {... */\ntag_14:\n  dataSize(sub_0)\n  dup1\n  dataOffset(sub_0)\n  0x00\n  codecopy\n  0x00\n  return\nstop\n\nsub_0: assembly {\n        /* \"Inbox.sol\":65:9589  contract basic {... */\n      mstore(0x40, 0x80)\n      jumpi(tag_1, lt(calldatasize, 0x04))\n      shr(0xe0, calldataload(0x00))\n      dup1\n      0x864a53dc\n      gt\n      tag_37\n      jumpi\n      dup1\n      0xb688a363\n      gt\n      tag_38\n      jumpi\n      dup1\n      0xf63f9655\n      gt\n      tag_39\n      jumpi\n      dup1\n      0xf63f9655\n      eq\n      tag_32\n      jumpi\n      dup1\n      0xfbae5e7d\n      eq\n      tag_33\n      jumpi\n      dup1\n      0xfd74d294\n      eq\n      tag_34\n      jumpi\n      dup1\n      0xfda263e8\n      eq\n      tag_35\n      jumpi\n      dup1\n      0xff65226c\n      eq\n      tag_36\n      jumpi\n      jump(tag_1)\n    tag_39:\n      dup1\n      0xb688a363\n      eq\n      tag_28\n      jumpi\n      dup1\n      0xd7898240\n      eq\n      tag_29\n      jumpi\n      dup1\n      0xe028a693\n      eq\n      tag_30\n      jumpi\n      dup1\n      0xe0d370ac\n      eq\n      tag_31\n      jumpi\n      jump(tag_1)\n    tag_38:\n      dup1\n      0x98e1b410\n      gt\n      tag_40\n      jumpi\n      dup1\n      0x98e1b410\n      eq\n      tag_23\n      jumpi\n      dup1\n      0x999cc5ca\n      eq\n      tag_24\n      jumpi\n      dup1\n      0xa4758c9a\n      eq\n      tag_25\n      jumpi\n      dup1\n      0xacdb8341\n      eq\n      tag_26\n      jumpi\n      dup1\n      0xb2f8be5c\n      eq\n      tag_27\n      jumpi\n      jump(tag_1)\n    tag_40:\n      dup1\n      0x864a53dc\n      eq\n      tag_19\n      jumpi\n      dup1\n      0x8975aa08\n      eq\n      tag_20\n      jumpi\n      dup1\n      0x937e09b1\n      eq\n      tag_21\n      jumpi\n      dup1\n      0x972c5356\n      eq\n      tag_22\n      jumpi\n      jump(tag_1)\n    tag_37:\n      dup1\n      0x361af171\n      gt\n      tag_41\n      jumpi\n      dup1\n      0x481c6a75\n      gt\n      tag_42\n      jumpi\n      dup1\n      0x481c6a75\n      eq\n      tag_14\n      jumpi\n      dup1\n      0x5fb02f4d\n      eq\n      tag_15\n      jumpi\n      dup1\n      0x767e0b9c\n      eq\n      tag_16\n      jumpi\n      dup1\n      0x789b2e6c\n      eq\n      tag_17\n      jumpi\n      dup1\n      0x816c97ba\n      eq\n      tag_18\n      jumpi\n      jump(tag_1)\n    tag_42:\n      dup1\n      0x361af171\n      eq\n      tag_10\n      jumpi\n      dup1\n      0x364548cd\n      eq\n      tag_11\n      jumpi\n      dup1\n      0x3ba20f2a\n      eq\n      tag_12\n      jumpi\n      dup1\n      0x3d22aea8\n      eq\n      tag_13\n      jumpi\n      jump(tag_1)\n    tag_41:\n      dup1\n      0x2ef3fa27\n      gt\n      tag_43\n      jumpi\n      dup1\n      0x2ef3fa27\n      eq\n      tag_6\n      jumpi\n      dup1\n      0x2f5274e3\n      eq\n      tag_7\n      jumpi\n      dup1\n      0x31d0e40f\n      eq\n      tag_8\n      jumpi\n      dup1\n      0x32b7acec\n      eq\n      tag_9\n      jumpi\n      jump(tag_1)\n    tag_43:\n      dup1\n      0x01999870\n      eq\n      tag_2\n      jumpi\n      dup1\n      0x06fdde03\n      eq\n      tag_3\n      jumpi\n      dup1\n      0x1e28528e\n      eq\n      tag_4\n      jumpi\n      dup1\n      0x2b84b316\n      eq\n      tag_5\n      jumpi\n    tag_1:\n      0x00\n      dup1\n      revert\n        /* \"Inbox.sol\":1522:1550  uint public numOfInvestors=0 */\n    tag_2:\n      callvalue\n      dup1\n      iszero\n      tag_44\n      jumpi\n      0x00\n      dup1\n      revert\n    tag_44:\n      pop\n      tag_45\n      tag_46\n      jump\t// in\n    tag_45:\n      mload(0x40)\n      tag_47\n      swap2\n      swap1\n      tag_48\n      jump\t// in\n    tag_47:\n      mload(0x40)\n      dup1\n      swap2\n      sub\n      swap1\n      return\n        /* \"Inbox.sol\":1251:1270  string  public name */\n    tag_3:\n      callvalue\n      dup1\n      iszero\n      tag_49\n      jumpi\n      0x00\n      dup1\n      revert\n    tag_49:\n      pop\n      tag_50\n      tag_51\n      jump\t// in\n    tag_50:\n      mload(0x40)\n      tag_52\n      swap2\n      swap1\n      tag_53\n      jump\t// in\n    tag_52:\n      mload(0x40)\n      dup1\n      swap2\n      sub\n      swap1\n      return\n        /* \"Inbox.sol\":1332:1376  mapping(address => bool) public Stakeholders */\n    tag_4:\n      callvalue\n      dup1\n      iszero\n      tag_54\n      jumpi\n      0x00\n      dup1\n      revert\n    tag_54:\n      pop\n      tag_55\n      0x04\n      dup1\n      calldatasize\n      sub\n      dup2\n      add\n      swap1\n      tag_56\n      swap2\n      swap1\n      tag_57\n      jump\t// in\n    tag_56:\n      tag_58\n      jump\t// in\n    tag_55:\n      mload(0x40)\n      tag_59\n      swap2\n      swap1\n      tag_60\n      jump\t// in\n    tag_59:\n      mload(0x40)\n      dup1\n      swap2\n      sub\n      swap1\n      return\n        /* \"Inbox.sol\":5736:6056  function makeNewRequset(... */\n    tag_5:\n      callvalue\n      dup1\n      iszero\n      tag_61\n      jumpi\n      0x00\n      dup1\n      revert\n    tag_61:\n      pop\n      tag_62\n      0x04\n      dup1\n      calldatasize\n      sub\n      dup2\n      add\n      swap1\n      tag_63\n      swap2\n      swap1\n      tag_64\n      jump\t// in\n    tag_63:\n      tag_65\n      jump\t// in\n    tag_62:\n      stop\n        /* \"Inbox.sol\":3027:3155  function investorBalanc() public view returns (uint) {... */\n    tag_6:\n      callvalue\n      dup1\n      iszero\n      tag_66\n      jumpi\n      0x00\n      dup1\n      revert\n    tag_66:\n      pop\n      tag_67\n      tag_68\n      jump\t// in\n    tag_67:\n      mload(0x40)\n      tag_69\n      swap2\n      swap1\n      tag_48\n      jump\t// in\n    tag_69:\n      mload(0x40)\n      dup1\n      swap2\n      sub\n      swap1\n      return\n        /* \"Inbox.sol\":2166:2190  uint public lastLeaveVal */\n    tag_7:\n      callvalue\n      dup1\n      iszero\n      tag_70\n      jumpi\n      0x00\n      dup1\n      revert\n    tag_70:\n      pop\n      tag_71\n      tag_72\n      jump\t// in\n    tag_71:\n      mload(0x40)\n      tag_73\n      swap2\n      swap1\n      tag_48\n      jump\t// in\n    tag_73:\n      mload(0x40)\n      dup1\n      swap2\n      sub\n      swap1\n      return\n        /* \"Inbox.sol\":2103:2129  uint public managerFineFee */\n    tag_8:\n      callvalue\n      dup1\n      iszero\n      tag_74\n      jumpi\n      0x00\n      dup1\n      revert\n    tag_74:\n      pop\n      tag_75\n      tag_76\n      jump\t// in\n    tag_75:\n      mload(0x40)\n      tag_77\n      swap2\n      swap1\n      tag_48\n      jump\t// in\n    tag_77:\n      mload(0x40)\n      dup1\n      swap2\n      sub\n      swap1\n      return\n        /* \"Inbox.sol\":1606:1648  mapping(address => uint) public ownPercent */\n    tag_9:\n      callvalue\n      dup1\n      iszero\n      tag_78\n      jumpi\n      0x00\n      dup1\n      revert\n    tag_78:\n      pop\n      tag_79\n      0x04\n      dup1\n      calldatasize\n      sub\n      dup2\n      add\n      swap1\n      tag_80\n      swap2\n      swap1\n      tag_57\n      jump\t// in\n    tag_80:\n      tag_81\n      jump\t// in\n    tag_79:\n      mload(0x40)\n      tag_82\n      swap2\n      swap1\n      tag_48\n      jump\t// in\n    tag_82:\n      mload(0x40)\n      dup1\n      swap2\n      sub\n      swap1\n      return\n        /* \"Inbox.sol\":6064:6249  function requestIsVoted(uint index) public view returns(bool){ //by msg sender... */\n    tag_10:\n      callvalue\n      dup1\n      iszero\n      tag_83\n      jumpi\n      0x00\n      dup1\n      revert\n    tag_83:\n      pop\n      tag_84\n      0x04\n      dup1\n      calldatasize\n      sub\n      dup2\n      add\n      swap1\n      tag_85\n      swap2\n      swap1\n      tag_86\n      jump\t// in\n    tag_85:\n      tag_87\n      jump\t// in\n    tag_84:\n      mload(0x40)\n      tag_88\n      swap2\n      swap1\n      tag_60\n      jump\t// in\n    tag_88:\n      mload(0x40)\n      dup1\n      swap2\n      sub\n      swap1\n      return\n        /* \"Inbox.sol\":1383:1442  mapping(address => bool) public Stakeholders_endTheContract */\n    tag_11:\n      callvalue\n      dup1\n      iszero\n      tag_89\n      jumpi\n      0x00\n      dup1\n      revert\n    tag_89:\n      pop\n      tag_90\n      0x04\n      dup1\n      calldatasize\n      sub\n      dup2\n      add\n      swap1\n      tag_91\n      swap2\n      swap1\n      tag_57\n      jump\t// in\n    tag_91:\n      tag_92\n      jump\t// in\n    tag_90:\n      mload(0x40)\n      tag_93\n      swap2\n      swap1\n      tag_60\n      jump\t// in\n    tag_93:\n      mload(0x40)\n      dup1\n      swap2\n      sub\n      swap1\n      return\n        /* \"Inbox.sol\":1837:1862  uint256 public timeToJoin */\n    tag_12:\n      callvalue\n      dup1\n      iszero\n      tag_94\n      jumpi\n      0x00\n      dup1\n      revert\n    tag_94:\n      pop\n      tag_95\n      tag_96\n      jump\t// in\n    tag_95:\n      mload(0x40)\n      tag_97\n      swap2\n      swap1\n      tag_48\n      jump\t// in\n    tag_97:\n      mload(0x40)\n      dup1\n      swap2\n      sub\n      swap1\n      return\n        /* \"Inbox.sol\":6834:7197  function executed_order_66(uint index)... */\n    tag_13:\n      callvalue\n      dup1\n      iszero\n      tag_98\n      jumpi\n      0x00\n      dup1\n      revert\n    tag_98:\n      pop\n      tag_99\n      0x04\n      dup1\n      calldatasize\n      sub\n      dup2\n      add\n      swap1\n      tag_100\n      swap2\n      swap1\n      tag_86\n      jump\t// in\n    tag_100:\n      tag_101\n      jump\t// in\n    tag_99:\n      mload(0x40)\n      tag_102\n      swap2\n      swap1\n      tag_60\n      jump\t// in\n    tag_102:\n      mload(0x40)\n      dup1\n      swap2\n      sub\n      swap1\n      return\n        /* \"Inbox.sol\":1277:1299  address public manager */\n    tag_14:\n      callvalue\n      dup1\n      iszero\n      tag_103\n      jumpi\n      0x00\n      dup1\n      revert\n    tag_103:\n      pop\n      tag_104\n      tag_105\n      jump\t// in\n    tag_104:\n      mload(0x40)\n      tag_106\n      swap2\n      swap1\n      tag_107\n      jump\t// in\n    tag_106:\n      mload(0x40)\n      dup1\n      swap2\n      sub\n      swap1\n      return\n        /* \"Inbox.sol\":3583:4157  function startContract() public  { //need to change to only manager... */\n    tag_15:\n      callvalue\n      dup1\n      iszero\n      tag_108\n      jumpi\n      0x00\n      dup1\n      revert\n    tag_108:\n      pop\n      tag_109\n      tag_110\n      jump\t// in\n    tag_109:\n      stop\n        /* \"Inbox.sol\":6485:6826  function approveRequest(uint index, bool res) public onlyStakeholders {... */\n    tag_16:\n      callvalue\n      dup1\n      iszero\n      tag_111\n      jumpi\n      0x00\n      dup1\n      revert\n    tag_111:\n      pop\n      tag_112\n      0x04\n      dup1\n      calldatasize\n      sub\n      dup2\n      add\n      swap1\n      tag_113\n      swap2\n      swap1\n      tag_114\n      jump\t// in\n    tag_113:\n      tag_115\n      jump\t// in\n    tag_112:\n      stop\n        /* \"Inbox.sol\":8944:9586  function payDay() public EndPeriod onlySite {... */\n    tag_17:\n      callvalue\n      dup1\n      iszero\n      tag_116\n      jumpi\n      0x00\n      dup1\n      revert\n    tag_116:\n      pop\n      tag_117\n      tag_118\n      jump\t// in\n    tag_117:\n      stop\n        /* \"Inbox.sol\":6256:6477  function isStakeholdersVoted(uint reqId, address user) //by address... */\n    tag_18:\n      callvalue\n      dup1\n      iszero\n      tag_119\n      jumpi\n      0x00\n      dup1\n      revert\n    tag_119:\n      pop\n      tag_120\n      0x04\n      dup1\n      calldatasize\n      sub\n      dup2\n      add\n      swap1\n      tag_121\n      swap2\n      swap1\n      tag_122\n      jump\t// in\n    tag_121:\n      tag_123\n      jump\t// in\n    tag_120:\n      mload(0x40)\n      tag_124\n      swap2\n      swap1\n      tag_60\n      jump\t// in\n    tag_124:\n      mload(0x40)\n      dup1\n      swap2\n      sub\n      swap1\n      return\n        /* \"Inbox.sol\":8588:8936  function PayDayVoted() public workPeriod onlyStakeholders {... */\n    tag_19:\n      callvalue\n      dup1\n      iszero\n      tag_125\n      jumpi\n      0x00\n      dup1\n      revert\n    tag_125:\n      pop\n      tag_126\n      tag_127\n      jump\t// in\n    tag_126:\n      stop\n        /* \"Inbox.sol\":2072:2096  uint public lastTotalVal */\n    tag_20:\n      callvalue\n      dup1\n      iszero\n      tag_128\n      jumpi\n      0x00\n      dup1\n      revert\n    tag_128:\n      pop\n      tag_129\n      tag_130\n      jump\t// in\n    tag_129:\n      mload(0x40)\n      tag_131\n      swap2\n      swap1\n      tag_48\n      jump\t// in\n    tag_131:\n      mload(0x40)\n      dup1\n      swap2\n      sub\n      swap1\n      return\n        /* \"Inbox.sol\":1729:1760  uint public minimumContribution */\n    tag_21:\n      callvalue\n      dup1\n      iszero\n      tag_132\n      jumpi\n      0x00\n      dup1\n      revert\n    tag_132:\n      pop\n      tag_133\n      tag_134\n      jump\t// in\n    tag_133:\n      mload(0x40)\n      tag_135\n      swap2\n      swap1\n      tag_48\n      jump\t// in\n    tag_135:\n      mload(0x40)\n      dup1\n      swap2\n      sub\n      swap1\n      return\n        /* \"Inbox.sol\":1997:2018  uint  public listSize */\n    tag_22:\n      callvalue\n      dup1\n      iszero\n      tag_136\n      jumpi\n      0x00\n      dup1\n      revert\n    tag_136:\n      pop\n      tag_137\n      tag_138\n      jump\t// in\n    tag_137:\n      mload(0x40)\n      tag_139\n      swap2\n      swap1\n      tag_48\n      jump\t// in\n    tag_139:\n      mload(0x40)\n      dup1\n      swap2\n      sub\n      swap1\n      return\n        /* \"Inbox.sol\":3495:3575  function getMoney() public payable returns (bool) {... */\n    tag_23:\n      tag_140\n      tag_141\n      jump\t// in\n    tag_140:\n      mload(0x40)\n      tag_142\n      swap2\n      swap1\n      tag_60\n      jump\t// in\n    tag_142:\n      mload(0x40)\n      dup1\n      swap2\n      sub\n      swap1\n      return\n        /* \"Inbox.sol\":1684:1722  mapping(address => bool) public lefted */\n    tag_24:\n      callvalue\n      dup1\n      iszero\n      tag_143\n      jumpi\n      0x00\n      dup1\n      revert\n    tag_143:\n      pop\n      tag_144\n      0x04\n      dup1\n      calldatasize\n      sub\n      dup2\n      add\n      swap1\n      tag_145\n      swap2\n      swap1\n      tag_57\n      jump\t// in\n    tag_145:\n      tag_146\n      jump\t// in\n    tag_144:\n      mload(0x40)\n      tag_147\n      swap2\n      swap1\n      tag_60\n      jump\t// in\n    tag_147:\n      mload(0x40)\n      dup1\n      swap2\n      sub\n      swap1\n      return\n        /* \"Inbox.sol\":2136:2159  uint public the_balance */\n    tag_25:\n      callvalue\n      dup1\n      iszero\n      tag_148\n      jumpi\n      0x00\n      dup1\n      revert\n    tag_148:\n      pop\n      tag_149\n      tag_150\n      jump\t// in\n    tag_149:\n      mload(0x40)\n      tag_151\n      swap2\n      swap1\n      tag_48\n      jump\t// in\n    tag_151:\n      mload(0x40)\n      dup1\n      swap2\n      sub\n      swap1\n      return\n        /* \"Inbox.sol\":2199:2516  function allInvestorPercent() public view returns (uint) {... */\n    tag_26:\n      callvalue\n      dup1\n      iszero\n      tag_152\n      jumpi\n      0x00\n      dup1\n      revert\n    tag_152:\n      pop\n      tag_153\n      tag_154\n      jump\t// in\n    tag_153:\n      mload(0x40)\n      tag_155\n      swap2\n      swap1\n      tag_48\n      jump\t// in\n    tag_155:\n      mload(0x40)\n      dup1\n      swap2\n      sub\n      swap1\n      return\n        /* \"Inbox.sol\":7205:8181  function leave_contract(... */\n    tag_27:\n      callvalue\n      dup1\n      iszero\n      tag_156\n      jumpi\n      0x00\n      dup1\n      revert\n    tag_156:\n      pop\n      tag_157\n      0x04\n      dup1\n      calldatasize\n      sub\n      dup2\n      add\n      swap1\n      tag_158\n      swap2\n      swap1\n      tag_159\n      jump\t// in\n    tag_158:\n      tag_160\n      jump\t// in\n    tag_157:\n      mload(0x40)\n      tag_161\n      swap2\n      swap1\n      tag_60\n      jump\t// in\n    tag_161:\n      mload(0x40)\n      dup1\n      swap2\n      sub\n      swap1\n      return\n        /* \"Inbox.sol\":3163:3487  function join() public payable JoinPeriod {... */\n    tag_28:\n      tag_162\n      tag_163\n      jump\t// in\n    tag_162:\n      stop\n        /* \"Inbox.sol\":1557:1599  mapping(address => uint) public Investment */\n    tag_29:\n      callvalue\n      dup1\n      iszero\n      tag_164\n      jumpi\n      0x00\n      dup1\n      revert\n    tag_164:\n      pop\n      tag_165\n      0x04\n      dup1\n      calldatasize\n      sub\n      dup2\n      add\n      swap1\n      tag_166\n      swap2\n      swap1\n      tag_57\n      jump\t// in\n    tag_166:\n      tag_167\n      jump\t// in\n    tag_165:\n      mload(0x40)\n      tag_168\n      swap2\n      swap1\n      tag_48\n      jump\t// in\n    tag_168:\n      mload(0x40)\n      dup1\n      swap2\n      sub\n      swap1\n      return\n        /* \"Inbox.sol\":2044:2065  uint public lastRePay */\n    tag_30:\n      callvalue\n      dup1\n      iszero\n      tag_169\n      jumpi\n      0x00\n      dup1\n      revert\n    tag_169:\n      pop\n      tag_170\n      tag_171\n      jump\t// in\n    tag_170:\n      mload(0x40)\n      tag_172\n      swap2\n      swap1\n      tag_48\n      jump\t// in\n    tag_172:\n      mload(0x40)\n      dup1\n      swap2\n      sub\n      swap1\n      return\n        /* \"Inbox.sol\":1306:1325  address public site */\n    tag_31:\n      callvalue\n      dup1\n      iszero\n      tag_173\n      jumpi\n      0x00\n      dup1\n      revert\n    tag_173:\n      pop\n      tag_174\n      tag_175\n      jump\t// in\n    tag_174:\n      mload(0x40)\n      tag_176\n      swap2\n      swap1\n      tag_107\n      jump\t// in\n    tag_176:\n      mload(0x40)\n      dup1\n      swap2\n      sub\n      swap1\n      return\n        /* \"Inbox.sol\":1964:1990  Request[] public myRequsts */\n    tag_32:\n      callvalue\n      dup1\n      iszero\n      tag_177\n      jumpi\n      0x00\n      dup1\n      revert\n    tag_177:\n      pop\n      tag_178\n      0x04\n      dup1\n      calldatasize\n      sub\n      dup2\n      add\n      swap1\n      tag_179\n      swap2\n      swap1\n      tag_86\n      jump\t// in\n    tag_179:\n      tag_180\n      jump\t// in\n    tag_178:\n      mload(0x40)\n      tag_181\n      swap6\n      swap5\n      swap4\n      swap3\n      swap2\n      swap1\n      tag_182\n      jump\t// in\n    tag_181:\n      mload(0x40)\n      dup1\n      swap2\n      sub\n      swap1\n      return\n        /* \"Inbox.sol\":1489:1515  address[] public Investors */\n    tag_33:\n      callvalue\n      dup1\n      iszero\n      tag_183\n      jumpi\n      0x00\n      dup1\n      revert\n    tag_183:\n      pop\n      tag_184\n      0x04\n      dup1\n      calldatasize\n      sub\n      dup2\n      add\n      swap1\n      tag_185\n      swap2\n      swap1\n      tag_86\n      jump\t// in\n    tag_185:\n      tag_186\n      jump\t// in\n    tag_184:\n      mload(0x40)\n      tag_187\n      swap2\n      swap1\n      tag_107\n      jump\t// in\n    tag_187:\n      mload(0x40)\n      dup1\n      swap2\n      sub\n      swap1\n      return\n        /* \"Inbox.sol\":1806:1830  uint256 public timeStart */\n    tag_34:\n      callvalue\n      dup1\n      iszero\n      tag_188\n      jumpi\n      0x00\n      dup1\n      revert\n    tag_188:\n      pop\n      tag_189\n      tag_190\n      jump\t// in\n    tag_189:\n      mload(0x40)\n      tag_191\n      swap2\n      swap1\n      tag_48\n      jump\t// in\n    tag_191:\n      mload(0x40)\n      dup1\n      swap2\n      sub\n      swap1\n      return\n        /* \"Inbox.sol\":1869:1891  uint256 public timeEnd */\n    tag_35:\n      callvalue\n      dup1\n      iszero\n      tag_192\n      jumpi\n      0x00\n      dup1\n      revert\n    tag_192:\n      pop\n      tag_193\n      tag_194\n      jump\t// in\n    tag_193:\n      mload(0x40)\n      tag_195\n      swap2\n      swap1\n      tag_48\n      jump\t// in\n    tag_195:\n      mload(0x40)\n      dup1\n      swap2\n      sub\n      swap1\n      return\n        /* \"Inbox.sol\":1898:1919  bool    public canBuy */\n    tag_36:\n      callvalue\n      dup1\n      iszero\n      tag_196\n      jumpi\n      0x00\n      dup1\n      revert\n    tag_196:\n      pop\n      tag_197\n      tag_198\n      jump\t// in\n    tag_197:\n      mload(0x40)\n      tag_199\n      swap2\n      swap1\n      tag_60\n      jump\t// in\n    tag_199:\n      mload(0x40)\n      dup1\n      swap2\n      sub\n      swap1\n      return\n        /* \"Inbox.sol\":1522:1550  uint public numOfInvestors=0 */\n    tag_46:\n      sload(0x0b)\n      dup2\n      jump\t// out\n        /* \"Inbox.sol\":1251:1270  string  public name */\n    tag_51:\n      0x04\n      dup1\n      sload\n      tag_200\n      swap1\n      tag_201\n      jump\t// in\n    tag_200:\n      dup1\n      0x1f\n      add\n      0x20\n      dup1\n      swap2\n      div\n      mul\n      0x20\n      add\n      mload(0x40)\n      swap1\n      dup2\n      add\n      0x40\n      mstore\n      dup1\n      swap3\n      swap2\n      swap1\n      dup2\n      dup2\n      mstore\n      0x20\n      add\n      dup3\n      dup1\n      sload\n      tag_202\n      swap1\n      tag_201\n      jump\t// in\n    tag_202:\n      dup1\n      iszero\n      tag_203\n      jumpi\n      dup1\n      0x1f\n      lt\n      tag_204\n      jumpi\n      0x0100\n      dup1\n      dup4\n      sload\n      div\n      mul\n      dup4\n      mstore\n      swap2\n      0x20\n      add\n      swap2\n      jump(tag_203)\n    tag_204:\n      dup3\n      add\n      swap2\n      swap1\n      0x00\n      mstore\n      keccak256(0x00, 0x20)\n      swap1\n    tag_205:\n      dup2\n      sload\n      dup2\n      mstore\n      swap1\n      0x01\n      add\n      swap1\n      0x20\n      add\n      dup1\n      dup4\n      gt\n      tag_205\n      jumpi\n      dup3\n      swap1\n      sub\n      0x1f\n      and\n      dup3\n      add\n      swap2\n    tag_203:\n      pop\n      pop\n      pop\n      pop\n      pop\n      dup2\n      jump\t// out\n        /* \"Inbox.sol\":1332:1376  mapping(address => bool) public Stakeholders */\n    tag_58:\n      mstore(0x20, 0x07)\n      dup1\n      0x00\n      mstore\n      keccak256(0x00, 0x40)\n      0x00\n      swap2\n      pop\n      sload\n      swap1\n      0x0100\n      exp\n      swap1\n      div\n      0xff\n      and\n      dup2\n      jump\t// out\n        /* \"Inbox.sol\":5736:6056  function makeNewRequset(... */\n    tag_65:\n        /* \"Inbox.sol\":143:150  manager */\n      0x05\n      0x00\n      swap1\n      sload\n      swap1\n      0x0100\n      exp\n      swap1\n      div\n      0xffffffffffffffffffffffffffffffffffffffff\n      and\n        /* \"Inbox.sol\":129:150  msg.sender == manager */\n      0xffffffffffffffffffffffffffffffffffffffff\n      and\n        /* \"Inbox.sol\":129:139  msg.sender */\n      caller\n        /* \"Inbox.sol\":129:150  msg.sender == manager */\n      0xffffffffffffffffffffffffffffffffffffffff\n      and\n      eq\n        /* \"Inbox.sol\":121:151  require(msg.sender == manager) */\n      tag_207\n      jumpi\n      0x00\n      dup1\n      revert\n    tag_207:\n        /* \"Inbox.sol\":5875:5901  Request storage newRequest */\n      0x00\n        /* \"Inbox.sol\":5904:5913  myRequsts */\n      0x14\n        /* \"Inbox.sol\":5904:5920  myRequsts.push() */\n      0x01\n      dup2\n      0x01\n      dup2\n      sload\n      add\n      dup1\n      dup3\n      sstore\n      dup1\n      swap2\n      pop\n      pop\n      sub\n      swap1\n      0x00\n      mstore\n      keccak256(0x00, 0x20)\n      swap1\n      0x06\n      mul\n      add\n        /* \"Inbox.sol\":5875:5920  Request storage newRequest = myRequsts.push() */\n      swap1\n      pop\n        /* \"Inbox.sol\":5956:5959  why */\n      dup3\n        /* \"Inbox.sol\":5931:5941  newRequest */\n      dup2\n        /* \"Inbox.sol\":5931:5953  newRequest.description */\n      0x00\n      add\n        /* \"Inbox.sol\":5931:5959  newRequest.description = why */\n      swap1\n      dup2\n      tag_210\n      swap2\n      swap1\n      tag_211\n      jump\t// in\n    tag_210:\n      pop\n        /* \"Inbox.sol\":5989:5994  value */\n      dup2\n        /* \"Inbox.sol\":5970:5980  newRequest */\n      dup2\n        /* \"Inbox.sol\":5970:5986  newRequest.value */\n      0x02\n      add\n        /* \"Inbox.sol\":5970:5994  newRequest.value = value */\n      dup2\n      swap1\n      sstore\n      pop\n        /* \"Inbox.sol\":6023:6027  what */\n      dup4\n        /* \"Inbox.sol\":6005:6015  newRequest */\n      dup2\n        /* \"Inbox.sol\":6005:6020  newRequest.what */\n      0x01\n      add\n        /* \"Inbox.sol\":6005:6027  newRequest.what = what */\n      swap1\n      dup2\n      tag_212\n      swap2\n      swap1\n      tag_211\n      jump\t// in\n    tag_212:\n      pop\n        /* \"Inbox.sol\":6038:6046  listSize */\n      0x15\n      0x00\n        /* \"Inbox.sol\":6038:6048  listSize++ */\n      dup2\n      sload\n      dup1\n      swap3\n      swap2\n      swap1\n      tag_213\n      swap1\n      tag_214\n      jump\t// in\n    tag_213:\n      swap2\n      swap1\n      pop\n      sstore\n      pop\n        /* \"Inbox.sol\":5864:6056  {... */\n      pop\n        /* \"Inbox.sol\":5736:6056  function makeNewRequset(... */\n      pop\n      pop\n      pop\n      jump\t// out\n        /* \"Inbox.sol\":3027:3155  function investorBalanc() public view returns (uint) {... */\n    tag_68:\n        /* \"Inbox.sol\":3074:3078  uint */\n      0x00\n        /* \"Inbox.sol\":3142:3146  1000 */\n      0x03e8\n        /* \"Inbox.sol\":3129:3140  manager_fee */\n      sload(0x01)\n        /* \"Inbox.sol\":3124:3128  1000 */\n      0x03e8\n        /* \"Inbox.sol\":3124:3140  1000-manager_fee */\n      tag_216\n      swap2\n      swap1\n      tag_217\n      jump\t// in\n    tag_216:\n        /* \"Inbox.sol\":3100:3121  address(this).balance */\n      selfbalance\n        /* \"Inbox.sol\":3099:3141  (address(this).balance)*(1000-manager_fee) */\n      tag_218\n      swap2\n      swap1\n      tag_219\n      jump\t// in\n    tag_218:\n        /* \"Inbox.sol\":3099:3146  (address(this).balance)*(1000-manager_fee)/1000 */\n      tag_220\n      swap2\n      swap1\n      tag_221\n      jump\t// in\n    tag_220:\n        /* \"Inbox.sol\":3091:3147  return ((address(this).balance)*(1000-manager_fee)/1000) */\n      swap1\n      pop\n        /* \"Inbox.sol\":3027:3155  function investorBalanc() public view returns (uint) {... */\n      swap1\n      jump\t// out\n        /* \"Inbox.sol\":2166:2190  uint public lastLeaveVal */\n    tag_72:\n      sload(0x1a)\n      dup2\n      jump\t// out\n        /* \"Inbox.sol\":2103:2129  uint public managerFineFee */\n    tag_76:\n      sload(0x18)\n      dup2\n      jump\t// out\n        /* \"Inbox.sol\":1606:1648  mapping(address => uint) public ownPercent */\n    tag_81:\n      mstore(0x20, 0x0d)\n      dup1\n      0x00\n      mstore\n      keccak256(0x00, 0x40)\n      0x00\n      swap2\n      pop\n      swap1\n      pop\n      sload\n      dup2\n      jump\t// out\n        /* \"Inbox.sol\":6064:6249  function requestIsVoted(uint index) public view returns(bool){ //by msg sender... */\n    tag_87:\n        /* \"Inbox.sol\":6120:6124  bool */\n      0x00\n        /* \"Inbox.sol\":6152:6175  Request storage request */\n      dup1\n        /* \"Inbox.sol\":6178:6187  myRequsts */\n      0x14\n        /* \"Inbox.sol\":6188:6193  index */\n      dup4\n        /* \"Inbox.sol\":6178:6194  myRequsts[index] */\n      dup2\n      sload\n      dup2\n      lt\n      tag_223\n      jumpi\n      tag_224\n      tag_225\n      jump\t// in\n    tag_224:\n    tag_223:\n      swap1\n      0x00\n      mstore\n      keccak256(0x00, 0x20)\n      swap1\n      0x06\n      mul\n      add\n        /* \"Inbox.sol\":6152:6194  Request storage request = myRequsts[index] */\n      swap1\n      pop\n        /* \"Inbox.sol\":6212:6219  request */\n      dup1\n        /* \"Inbox.sol\":6212:6229  request.approvals */\n      0x05\n      add\n        /* \"Inbox.sol\":6212:6241  request.approvals[msg.sender] */\n      0x00\n        /* \"Inbox.sol\":6230:6240  msg.sender */\n      caller\n        /* \"Inbox.sol\":6212:6241  request.approvals[msg.sender] */\n      0xffffffffffffffffffffffffffffffffffffffff\n      and\n      0xffffffffffffffffffffffffffffffffffffffff\n      and\n      dup2\n      mstore\n      0x20\n      add\n      swap1\n      dup2\n      mstore\n      0x20\n      add\n      0x00\n      keccak256\n      0x00\n      swap1\n      sload\n      swap1\n      0x0100\n      exp\n      swap1\n      div\n      0xff\n      and\n        /* \"Inbox.sol\":6205:6241  return request.approvals[msg.sender] */\n      swap2\n      pop\n      pop\n        /* \"Inbox.sol\":6064:6249  function requestIsVoted(uint index) public view returns(bool){ //by msg sender... */\n      swap2\n      swap1\n      pop\n      jump\t// out\n        /* \"Inbox.sol\":1383:1442  mapping(address => bool) public Stakeholders_endTheContract */\n    tag_92:\n      mstore(0x20, 0x08)\n      dup1\n      0x00\n      mstore\n      keccak256(0x00, 0x40)\n      0x00\n      swap2\n      pop\n      sload\n      swap1\n      0x0100\n      exp\n      swap1\n      div\n      0xff\n      and\n      dup2\n      jump\t// out\n        /* \"Inbox.sol\":1837:1862  uint256 public timeToJoin */\n    tag_96:\n      sload(0x11)\n      dup2\n      jump\t// out\n        /* \"Inbox.sol\":6834:7197  function executed_order_66(uint index)... */\n    tag_101:\n        /* \"Inbox.sol\":6948:6952  bool */\n      0x00\n        /* \"Inbox.sol\":666:670  true */\n      0x01\n        /* \"Inbox.sol\":656:670  canBuy == true */\n      iszero\n      iszero\n        /* \"Inbox.sol\":656:662  canBuy */\n      0x13\n      0x00\n      swap1\n      sload\n      swap1\n      0x0100\n      exp\n      swap1\n      div\n      0xff\n      and\n        /* \"Inbox.sol\":656:670  canBuy == true */\n      iszero\n      iszero\n      eq\n        /* \"Inbox.sol\":647:672  require((canBuy == true)) */\n      tag_228\n      jumpi\n      0x00\n      dup1\n      revert\n    tag_228:\n        /* \"Inbox.sol\":143:150  manager */\n      0x05\n      0x00\n      swap1\n      sload\n      swap1\n      0x0100\n      exp\n      swap1\n      div\n      0xffffffffffffffffffffffffffffffffffffffff\n      and\n        /* \"Inbox.sol\":129:150  msg.sender == manager */\n      0xffffffffffffffffffffffffffffffffffffffff\n      and\n        /* \"Inbox.sol\":129:139  msg.sender */\n      caller\n        /* \"Inbox.sol\":129:150  msg.sender == manager */\n      0xffffffffffffffffffffffffffffffffffffffff\n      and\n      eq\n        /* \"Inbox.sol\":121:151  require(msg.sender == manager) */\n      tag_230\n      jumpi\n      0x00\n      dup1\n      revert\n    tag_230:\n        /* \"Inbox.sol\":6970:6993  Request storage request */\n      0x00\n        /* \"Inbox.sol\":6996:7005  myRequsts */\n      0x14\n        /* \"Inbox.sol\":7006:7011  index */\n      dup4\n        /* \"Inbox.sol\":6996:7012  myRequsts[index] */\n      dup2\n      sload\n      dup2\n      lt\n      tag_232\n      jumpi\n      tag_233\n      tag_225\n      jump\t// in\n    tag_233:\n    tag_232:\n      swap1\n      0x00\n      mstore\n      keccak256(0x00, 0x20)\n      swap1\n      0x06\n      mul\n      add\n        /* \"Inbox.sol\":6970:7012  Request storage request = myRequsts[index] */\n      swap1\n      pop\n        /* \"Inbox.sol\":7082:7083  2 */\n      0x02\n        /* \"Inbox.sol\":7064:7079  numStakeholders */\n      sload(0x03)\n        /* \"Inbox.sol\":7064:7083  numStakeholders / 2 */\n      tag_235\n      swap2\n      swap1\n      tag_221\n      jump\t// in\n    tag_235:\n        /* \"Inbox.sol\":7031:7038  request */\n      dup2\n        /* \"Inbox.sol\":7031:7052  request.approvalCount */\n      0x04\n      add\n      sload\n        /* \"Inbox.sol\":7031:7084  request.approvalCount >= uint256(numStakeholders / 2) */\n      lt\n      iszero\n        /* \"Inbox.sol\":7023:7085  require(request.approvalCount >= uint256(numStakeholders / 2)) */\n      tag_236\n      jumpi\n      0x00\n      dup1\n      revert\n    tag_236:\n        /* \"Inbox.sol\":7104:7108  site */\n      0x06\n      0x00\n      swap1\n      sload\n      swap1\n      0x0100\n      exp\n      swap1\n      div\n      0xffffffffffffffffffffffffffffffffffffffff\n      and\n        /* \"Inbox.sol\":7096:7118  payable(site).transfer */\n      0xffffffffffffffffffffffffffffffffffffffff\n      and\n        /* \"Inbox.sol\":7096:7133  payable(site).transfer(request.value) */\n      0x08fc\n        /* \"Inbox.sol\":7119:7126  request */\n      dup3\n        /* \"Inbox.sol\":7119:7132  request.value */\n      0x02\n      add\n      sload\n        /* \"Inbox.sol\":7096:7133  payable(site).transfer(request.value) */\n      swap1\n      dup2\n      iszero\n      mul\n      swap1\n      mload(0x40)\n      0x00\n      mload(0x40)\n      dup1\n      dup4\n      sub\n      dup2\n      dup6\n      dup9\n      dup9\n      call\n      swap4\n      pop\n      pop\n      pop\n      pop\n      iszero\n      dup1\n      iszero\n      tag_238\n      jumpi\n      returndatasize\n      0x00\n      dup1\n      returndatacopy\n      revert(0x00, returndatasize)\n    tag_238:\n      pop\n        /* \"Inbox.sol\":7163:7167  true */\n      0x01\n        /* \"Inbox.sol\":7144:7151  request */\n      dup2\n        /* \"Inbox.sol\":7144:7160  request.complete */\n      0x03\n      add\n      0x00\n        /* \"Inbox.sol\":7144:7167  request.complete = true */\n      0x0100\n      exp\n      dup2\n      sload\n      dup2\n      0xff\n      mul\n      not\n      and\n      swap1\n      dup4\n      iszero\n      iszero\n      mul\n      or\n      swap1\n      sstore\n      pop\n        /* \"Inbox.sol\":7185:7189  true */\n      0x01\n        /* \"Inbox.sol\":7178:7189  return true */\n      swap2\n      pop\n      pop\n        /* \"Inbox.sol\":6834:7197  function executed_order_66(uint index)... */\n      swap2\n      swap1\n      pop\n      jump\t// out\n        /* \"Inbox.sol\":1277:1299  address public manager */\n    tag_105:\n      0x05\n      0x00\n      swap1\n      sload\n      swap1\n      0x0100\n      exp\n      swap1\n      div\n      0xffffffffffffffffffffffffffffffffffffffff\n      and\n      dup2\n      jump\t// out\n        /* \"Inbox.sol\":3583:4157  function startContract() public  { //need to change to only manager... */\n    tag_110:\n        /* \"Inbox.sol\":3746:3750  true */\n      0x01\n        /* \"Inbox.sol\":3737:3743  canBuy */\n      0x13\n      0x00\n        /* \"Inbox.sol\":3737:3750  canBuy = true */\n      0x0100\n      exp\n      dup2\n      sload\n      dup2\n      0xff\n      mul\n      not\n      and\n      swap1\n      dup4\n      iszero\n      iszero\n      mul\n      or\n      swap1\n      sstore\n      pop\n        /* \"Inbox.sol\":3761:3774  uint totalVal */\n      0x00\n        /* \"Inbox.sol\":3777:3798  address(this).balance */\n      selfbalance\n        /* \"Inbox.sol\":3761:3798  uint totalVal = address(this).balance */\n      swap1\n      pop\n        /* \"Inbox.sol\":3853:3864  uint ammunt */\n      0x00\n        /* \"Inbox.sol\":3880:3886  uint i */\n      dup1\n        /* \"Inbox.sol\":3889:3890  0 */\n      0x00\n        /* \"Inbox.sol\":3880:3890  uint i = 0 */\n      swap1\n      pop\n        /* \"Inbox.sol\":3875:4122  for (uint i = 0; i < Investors.length; i++) {... */\n    tag_240:\n        /* \"Inbox.sol\":3896:3905  Investors */\n      0x0a\n        /* \"Inbox.sol\":3896:3912  Investors.length */\n      dup1\n      sload\n      swap1\n      pop\n        /* \"Inbox.sol\":3892:3893  i */\n      dup2\n        /* \"Inbox.sol\":3892:3912  i < Investors.length */\n      lt\n        /* \"Inbox.sol\":3875:4122  for (uint i = 0; i < Investors.length; i++) {... */\n      iszero\n      tag_241\n      jumpi\n        /* \"Inbox.sol\":3934:3955  address temp_investor */\n      0x00\n        /* \"Inbox.sol\":3958:3967  Investors */\n      0x0a\n        /* \"Inbox.sol\":3968:3969  i */\n      dup3\n        /* \"Inbox.sol\":3958:3970  Investors[i] */\n      dup2\n      sload\n      dup2\n      lt\n      tag_243\n      jumpi\n      tag_244\n      tag_225\n      jump\t// in\n    tag_244:\n    tag_243:\n      swap1\n      0x00\n      mstore\n      keccak256(0x00, 0x20)\n      add\n      0x00\n      swap1\n      sload\n      swap1\n      0x0100\n      exp\n      swap1\n      div\n      0xffffffffffffffffffffffffffffffffffffffff\n      and\n        /* \"Inbox.sol\":3934:3970  address temp_investor = Investors[i] */\n      swap1\n      pop\n        /* \"Inbox.sol\":3994:4004  Investment */\n      0x0c\n        /* \"Inbox.sol\":3994:4019  Investment[temp_investor] */\n      0x00\n        /* \"Inbox.sol\":4005:4018  temp_investor */\n      dup3\n        /* \"Inbox.sol\":3994:4019  Investment[temp_investor] */\n      0xffffffffffffffffffffffffffffffffffffffff\n      and\n      0xffffffffffffffffffffffffffffffffffffffff\n      and\n      dup2\n      mstore\n      0x20\n      add\n      swap1\n      dup2\n      mstore\n      0x20\n      add\n      0x00\n      keccak256\n      sload\n        /* \"Inbox.sol\":3985:4019  ammunt = Investment[temp_investor] */\n      swap3\n      pop\n        /* \"Inbox.sol\":4084:4092  totalVal */\n      dup4\n        /* \"Inbox.sol\":4076:4080  1000 */\n      0x03e8\n        /* \"Inbox.sol\":4066:4072  ammunt */\n      dup5\n        /* \"Inbox.sol\":4065:4080  (ammunt) * 1000 */\n      tag_246\n      swap2\n      swap1\n      tag_219\n      jump\t// in\n    tag_246:\n        /* \"Inbox.sol\":4064:4092  ((ammunt) * 1000) / totalVal */\n      tag_247\n      swap2\n      swap1\n      tag_221\n      jump\t// in\n    tag_247:\n        /* \"Inbox.sol\":4034:4044  ownPercent */\n      0x0d\n        /* \"Inbox.sol\":4034:4059  ownPercent[temp_investor] */\n      0x00\n        /* \"Inbox.sol\":4045:4058  temp_investor */\n      dup4\n        /* \"Inbox.sol\":4034:4059  ownPercent[temp_investor] */\n      0xffffffffffffffffffffffffffffffffffffffff\n      and\n      0xffffffffffffffffffffffffffffffffffffffff\n      and\n      dup2\n      mstore\n      0x20\n      add\n      swap1\n      dup2\n      mstore\n      0x20\n      add\n      0x00\n      keccak256\n        /* \"Inbox.sol\":4034:4094  ownPercent[temp_investor] = ((((ammunt) * 1000) / totalVal)) */\n      dup2\n      swap1\n      sstore\n      pop\n        /* \"Inbox.sol\":3919:4122  {... */\n      pop\n        /* \"Inbox.sol\":3914:3917  i++ */\n      dup1\n      dup1\n      tag_248\n      swap1\n      tag_214\n      jump\t// in\n    tag_248:\n      swap2\n      pop\n      pop\n        /* \"Inbox.sol\":3875:4122  for (uint i = 0; i < Investors.length; i++) {... */\n      jump(tag_240)\n    tag_241:\n      pop\n        /* \"Inbox.sol\":4132:4149  setStakeholders() */\n      tag_249\n        /* \"Inbox.sol\":4132:4147  setStakeholders */\n      tag_250\n        /* \"Inbox.sol\":4132:4149  setStakeholders() */\n      jump\t// in\n    tag_249:\n        /* \"Inbox.sol\":3616:4157  { //need to change to only manager... */\n      pop\n      pop\n        /* \"Inbox.sol\":3583:4157  function startContract() public  { //need to change to only manager... */\n      jump\t// out\n        /* \"Inbox.sol\":6485:6826  function approveRequest(uint index, bool res) public onlyStakeholders {... */\n    tag_115:\n        /* \"Inbox.sol\":226:238  Stakeholders */\n      0x07\n        /* \"Inbox.sol\":226:250  Stakeholders[msg.sender] */\n      0x00\n        /* \"Inbox.sol\":239:249  msg.sender */\n      caller\n        /* \"Inbox.sol\":226:250  Stakeholders[msg.sender] */\n      0xffffffffffffffffffffffffffffffffffffffff\n      and\n      0xffffffffffffffffffffffffffffffffffffffff\n      and\n      dup2\n      mstore\n      0x20\n      add\n      swap1\n      dup2\n      mstore\n      0x20\n      add\n      0x00\n      keccak256\n      0x00\n      swap1\n      sload\n      swap1\n      0x0100\n      exp\n      swap1\n      div\n      0xff\n      and\n        /* \"Inbox.sol\":218:251  require(Stakeholders[msg.sender]) */\n      tag_252\n      jumpi\n      0x00\n      dup1\n      revert\n    tag_252:\n        /* \"Inbox.sol\":6606:6629  Request storage request */\n      0x00\n        /* \"Inbox.sol\":6632:6641  myRequsts */\n      0x14\n        /* \"Inbox.sol\":6642:6647  index */\n      dup4\n        /* \"Inbox.sol\":6632:6648  myRequsts[index] */\n      dup2\n      sload\n      dup2\n      lt\n      tag_254\n      jumpi\n      tag_255\n      tag_225\n      jump\t// in\n    tag_255:\n    tag_254:\n      swap1\n      0x00\n      mstore\n      keccak256(0x00, 0x20)\n      swap1\n      0x06\n      mul\n      add\n        /* \"Inbox.sol\":6606:6648  Request storage request = myRequsts[index] */\n      swap1\n      pop\n        /* \"Inbox.sol\":6668:6675  request */\n      dup1\n        /* \"Inbox.sol\":6668:6685  request.approvals */\n      0x05\n      add\n        /* \"Inbox.sol\":6668:6697  request.approvals[msg.sender] */\n      0x00\n        /* \"Inbox.sol\":6686:6696  msg.sender */\n      caller\n        /* \"Inbox.sol\":6668:6697  request.approvals[msg.sender] */\n      0xffffffffffffffffffffffffffffffffffffffff\n      and\n      0xffffffffffffffffffffffffffffffffffffffff\n      and\n      dup2\n      mstore\n      0x20\n      add\n      swap1\n      dup2\n      mstore\n      0x20\n      add\n      0x00\n      keccak256\n      0x00\n      swap1\n      sload\n      swap1\n      0x0100\n      exp\n      swap1\n      div\n      0xff\n      and\n        /* \"Inbox.sol\":6667:6697  !request.approvals[msg.sender] */\n      iszero\n        /* \"Inbox.sol\":6659:6698  require(!request.approvals[msg.sender]) */\n      tag_257\n      jumpi\n      0x00\n      dup1\n      revert\n    tag_257:\n        /* \"Inbox.sol\":6741:6745  true */\n      0x01\n        /* \"Inbox.sol\":6709:6716  request */\n      dup2\n        /* \"Inbox.sol\":6709:6726  request.approvals */\n      0x05\n      add\n        /* \"Inbox.sol\":6709:6738  request.approvals[msg.sender] */\n      0x00\n        /* \"Inbox.sol\":6727:6737  msg.sender */\n      caller\n        /* \"Inbox.sol\":6709:6738  request.approvals[msg.sender] */\n      0xffffffffffffffffffffffffffffffffffffffff\n      and\n      0xffffffffffffffffffffffffffffffffffffffff\n      and\n      dup2\n      mstore\n      0x20\n      add\n      swap1\n      dup2\n      mstore\n      0x20\n      add\n      0x00\n      keccak256\n      0x00\n        /* \"Inbox.sol\":6709:6745  request.approvals[msg.sender] = true */\n      0x0100\n      exp\n      dup2\n      sload\n      dup2\n      0xff\n      mul\n      not\n      and\n      swap1\n      dup4\n      iszero\n      iszero\n      mul\n      or\n      swap1\n      sstore\n      pop\n        /* \"Inbox.sol\":6764:6768  true */\n      0x01\n        /* \"Inbox.sol\":6759:6768  res==true */\n      iszero\n      iszero\n        /* \"Inbox.sol\":6759:6762  res */\n      dup3\n        /* \"Inbox.sol\":6759:6768  res==true */\n      iszero\n      iszero\n      sub\n        /* \"Inbox.sol\":6756:6819  if(res==true){... */\n      tag_258\n      jumpi\n        /* \"Inbox.sol\":6784:6791  request */\n      dup1\n        /* \"Inbox.sol\":6784:6805  request.approvalCount */\n      0x04\n      add\n      0x00\n        /* \"Inbox.sol\":6784:6807  request.approvalCount++ */\n      dup2\n      sload\n      dup1\n      swap3\n      swap2\n      swap1\n      tag_259\n      swap1\n      tag_214\n      jump\t// in\n    tag_259:\n      swap2\n      swap1\n      pop\n      sstore\n      pop\n        /* \"Inbox.sol\":6756:6819  if(res==true){... */\n    tag_258:\n        /* \"Inbox.sol\":6555:6826  {... */\n      pop\n        /* \"Inbox.sol\":6485:6826  function approveRequest(uint index, bool res) public onlyStakeholders {... */\n      pop\n      pop\n      jump\t// out\n        /* \"Inbox.sol\":8944:9586  function payDay() public EndPeriod onlySite {... */\n    tag_118:\n        /* \"Inbox.sol\":799:800  2 */\n      0x02\n        /* \"Inbox.sol\":781:796  numStakeholders */\n      sload(0x03)\n        /* \"Inbox.sol\":781:800  numStakeholders / 2 */\n      tag_261\n      swap2\n      swap1\n      tag_221\n      jump\t// in\n    tag_261:\n        /* \"Inbox.sol\":753:777  endTheContract_numOfVote */\n      sload(0x09)\n        /* \"Inbox.sol\":753:800  endTheContract_numOfVote >= numStakeholders / 2 */\n      lt\n      iszero\n        /* \"Inbox.sol\":752:820  (endTheContract_numOfVote >= numStakeholders / 2) || canBuy == false */\n      dup1\n      tag_262\n      jumpi\n      pop\n        /* \"Inbox.sol\":815:820  false */\n      0x00\n        /* \"Inbox.sol\":805:820  canBuy == false */\n      iszero\n      iszero\n        /* \"Inbox.sol\":805:811  canBuy */\n      0x13\n      0x00\n      swap1\n      sload\n      swap1\n      0x0100\n      exp\n      swap1\n      div\n      0xff\n      and\n        /* \"Inbox.sol\":805:820  canBuy == false */\n      iszero\n      iszero\n      eq\n        /* \"Inbox.sol\":752:820  (endTheContract_numOfVote >= numStakeholders / 2) || canBuy == false */\n    tag_262:\n        /* \"Inbox.sol\":730:831  require(... */\n      tag_263\n      jumpi\n      0x00\n      dup1\n      revert\n    tag_263:\n        /* \"Inbox.sol\":332:336  site */\n      0x06\n      0x00\n      swap1\n      sload\n      swap1\n      0x0100\n      exp\n      swap1\n      div\n      0xffffffffffffffffffffffffffffffffffffffff\n      and\n        /* \"Inbox.sol\":318:336  msg.sender == site */\n      0xffffffffffffffffffffffffffffffffffffffff\n      and\n        /* \"Inbox.sol\":318:328  msg.sender */\n      caller\n        /* \"Inbox.sol\":318:336  msg.sender == site */\n      0xffffffffffffffffffffffffffffffffffffffff\n      and\n      eq\n        /* \"Inbox.sol\":310:337  require(msg.sender == site) */\n      tag_265\n      jumpi\n      0x00\n      dup1\n      revert\n    tag_265:\n        /* \"Inbox.sol\":9033:9049  investorBalanc() */\n      tag_267\n        /* \"Inbox.sol\":9033:9047  investorBalanc */\n      tag_68\n        /* \"Inbox.sol\":9033:9049  investorBalanc() */\n      jump\t// in\n    tag_267:\n        /* \"Inbox.sol\":9020:9031  the_balance */\n      0x19\n        /* \"Inbox.sol\":9020:9049  the_balance =investorBalanc() */\n      dup2\n      swap1\n      sstore\n      pop\n        /* \"Inbox.sol\":9066:9072  uint i */\n      0x00\n        /* \"Inbox.sol\":9061:9430  for (uint i = 0; i < Investors.length; i++) {... */\n    tag_268:\n        /* \"Inbox.sol\":9082:9091  Investors */\n      0x0a\n        /* \"Inbox.sol\":9082:9098  Investors.length */\n      dup1\n      sload\n      swap1\n      pop\n        /* \"Inbox.sol\":9078:9079  i */\n      dup2\n        /* \"Inbox.sol\":9078:9098  i < Investors.length */\n      lt\n        /* \"Inbox.sol\":9061:9430  for (uint i = 0; i < Investors.length; i++) {... */\n      iszero\n      tag_269\n      jumpi\n        /* \"Inbox.sol\":9120:9136  address investor */\n      0x00\n        /* \"Inbox.sol\":9139:9148  Investors */\n      0x0a\n        /* \"Inbox.sol\":9149:9150  i */\n      dup3\n        /* \"Inbox.sol\":9139:9151  Investors[i] */\n      dup2\n      sload\n      dup2\n      lt\n      tag_271\n      jumpi\n      tag_272\n      tag_225\n      jump\t// in\n    tag_272:\n    tag_271:\n      swap1\n      0x00\n      mstore\n      keccak256(0x00, 0x20)\n      add\n      0x00\n      swap1\n      sload\n      swap1\n      0x0100\n      exp\n      swap1\n      div\n      0xffffffffffffffffffffffffffffffffffffffff\n      and\n        /* \"Inbox.sol\":9120:9151  address investor = Investors[i] */\n      swap1\n      pop\n        /* \"Inbox.sol\":9190:9195  false */\n      0x00\n        /* \"Inbox.sol\":9170:9195  lefted[investor] == false */\n      iszero\n      iszero\n        /* \"Inbox.sol\":9170:9176  lefted */\n      0x0e\n        /* \"Inbox.sol\":9170:9186  lefted[investor] */\n      0x00\n        /* \"Inbox.sol\":9177:9185  investor */\n      dup4\n        /* \"Inbox.sol\":9170:9186  lefted[investor] */\n      0xffffffffffffffffffffffffffffffffffffffff\n      and\n      0xffffffffffffffffffffffffffffffffffffffff\n      and\n      dup2\n      mstore\n      0x20\n      add\n      swap1\n      dup2\n      mstore\n      0x20\n      add\n      0x00\n      keccak256\n      0x00\n      swap1\n      sload\n      swap1\n      0x0100\n      exp\n      swap1\n      div\n      0xff\n      and\n        /* \"Inbox.sol\":9170:9195  lefted[investor] == false */\n      iszero\n      iszero\n      sub\n        /* \"Inbox.sol\":9166:9419  if (lefted[investor] == false) {... */\n      tag_274\n      jumpi\n        /* \"Inbox.sol\":9216:9230  uint myPercent */\n      0x00\n        /* \"Inbox.sol\":9233:9243  ownPercent */\n      0x0d\n        /* \"Inbox.sol\":9233:9253  ownPercent[investor] */\n      0x00\n        /* \"Inbox.sol\":9244:9252  investor */\n      dup4\n        /* \"Inbox.sol\":9233:9253  ownPercent[investor] */\n      0xffffffffffffffffffffffffffffffffffffffff\n      and\n      0xffffffffffffffffffffffffffffffffffffffff\n      and\n      dup2\n      mstore\n      0x20\n      add\n      swap1\n      dup2\n      mstore\n      0x20\n      add\n      0x00\n      keccak256\n      sload\n        /* \"Inbox.sol\":9216:9253  uint myPercent = ownPercent[investor] */\n      swap1\n      pop\n        /* \"Inbox.sol\":9272:9282  uint value */\n      0x00\n        /* \"Inbox.sol\":9313:9317  1000 */\n      0x03e8\n        /* \"Inbox.sol\":9298:9309  the_balance */\n      sload(0x19)\n        /* \"Inbox.sol\":9286:9295  myPercent */\n      dup4\n        /* \"Inbox.sol\":9286:9309  myPercent * the_balance */\n      tag_275\n      swap2\n      swap1\n      tag_219\n      jump\t// in\n    tag_275:\n        /* \"Inbox.sol\":9285:9317  (myPercent * the_balance) / 1000 */\n      tag_276\n      swap2\n      swap1\n      tag_221\n      jump\t// in\n    tag_276:\n        /* \"Inbox.sol\":9272:9317  uint value = (myPercent * the_balance) / 1000 */\n      swap1\n      pop\n        /* \"Inbox.sol\":9344:9352  investor */\n      dup3\n        /* \"Inbox.sol\":9336:9362  payable(investor).transfer */\n      0xffffffffffffffffffffffffffffffffffffffff\n      and\n        /* \"Inbox.sol\":9336:9369  payable(investor).transfer(value) */\n      0x08fc\n        /* \"Inbox.sol\":9363:9368  value */\n      dup3\n        /* \"Inbox.sol\":9336:9369  payable(investor).transfer(value) */\n      swap1\n      dup2\n      iszero\n      mul\n      swap1\n      mload(0x40)\n      0x00\n      mload(0x40)\n      dup1\n      dup4\n      sub\n      dup2\n      dup6\n      dup9\n      dup9\n      call\n      swap4\n      pop\n      pop\n      pop\n      pop\n      iszero\n      dup1\n      iszero\n      tag_278\n      jumpi\n      returndatasize\n      0x00\n      dup1\n      returndatacopy\n      revert(0x00, returndatasize)\n    tag_278:\n      pop\n        /* \"Inbox.sol\":9197:9419  {... */\n      pop\n      pop\n        /* \"Inbox.sol\":9166:9419  if (lefted[investor] == false) {... */\n    tag_274:\n        /* \"Inbox.sol\":9105:9430  {... */\n      pop\n        /* \"Inbox.sol\":9100:9103  i++ */\n      dup1\n      dup1\n      tag_279\n      swap1\n      tag_214\n      jump\t// in\n    tag_279:\n      swap2\n      pop\n      pop\n        /* \"Inbox.sol\":9061:9430  for (uint i = 0; i < Investors.length; i++) {... */\n      jump(tag_268)\n    tag_269:\n      pop\n        /* \"Inbox.sol\":9457:9478  address(this).balance */\n      selfbalance\n        /* \"Inbox.sol\":9440:9454  managerFineFee */\n      0x18\n        /* \"Inbox.sol\":9440:9478  managerFineFee = address(this).balance */\n      dup2\n      swap1\n      sstore\n      pop\n        /* \"Inbox.sol\":9497:9504  manager */\n      0x05\n      0x00\n      swap1\n      sload\n      swap1\n      0x0100\n      exp\n      swap1\n      div\n      0xffffffffffffffffffffffffffffffffffffffff\n      and\n        /* \"Inbox.sol\":9489:9514  payable(manager).transfer */\n      0xffffffffffffffffffffffffffffffffffffffff\n      and\n        /* \"Inbox.sol\":9489:9530  payable(manager).transfer(managerFineFee) */\n      0x08fc\n        /* \"Inbox.sol\":9515:9529  managerFineFee */\n      sload(0x18)\n        /* \"Inbox.sol\":9489:9530  payable(manager).transfer(managerFineFee) */\n      swap1\n      dup2\n      iszero\n      mul\n      swap1\n      mload(0x40)\n      0x00\n      mload(0x40)\n      dup1\n      dup4\n      sub\n      dup2\n      dup6\n      dup9\n      dup9\n      call\n      swap4\n      pop\n      pop\n      pop\n      pop\n      iszero\n      dup1\n      iszero\n      tag_281\n      jumpi\n      returndatasize\n      0x00\n      dup1\n      returndatacopy\n      revert(0x00, returndatasize)\n    tag_281:\n      pop\n        /* \"Inbox.sol\":8944:9586  function payDay() public EndPeriod onlySite {... */\n      jump\t// out\n        /* \"Inbox.sol\":6256:6477  function isStakeholdersVoted(uint reqId, address user) //by address... */\n    tag_123:\n        /* \"Inbox.sol\":6372:6376  bool */\n      0x00\n        /* \"Inbox.sol\":6394:6413  Request storage req */\n      dup1\n        /* \"Inbox.sol\":6416:6425  myRequsts */\n      0x14\n        /* \"Inbox.sol\":6426:6431  reqId */\n      dup5\n        /* \"Inbox.sol\":6416:6432  myRequsts[reqId] */\n      dup2\n      sload\n      dup2\n      lt\n      tag_283\n      jumpi\n      tag_284\n      tag_225\n      jump\t// in\n    tag_284:\n    tag_283:\n      swap1\n      0x00\n      mstore\n      keccak256(0x00, 0x20)\n      swap1\n      0x06\n      mul\n      add\n        /* \"Inbox.sol\":6394:6432  Request storage req = myRequsts[reqId] */\n      swap1\n      pop\n        /* \"Inbox.sol\":6450:6453  req */\n      dup1\n        /* \"Inbox.sol\":6450:6463  req.approvals */\n      0x05\n      add\n        /* \"Inbox.sol\":6450:6469  req.approvals[user] */\n      0x00\n        /* \"Inbox.sol\":6464:6468  user */\n      dup5\n        /* \"Inbox.sol\":6450:6469  req.approvals[user] */\n      0xffffffffffffffffffffffffffffffffffffffff\n      and\n      0xffffffffffffffffffffffffffffffffffffffff\n      and\n      dup2\n      mstore\n      0x20\n      add\n      swap1\n      dup2\n      mstore\n      0x20\n      add\n      0x00\n      keccak256\n      0x00\n      swap1\n      sload\n      swap1\n      0x0100\n      exp\n      swap1\n      div\n      0xff\n      and\n        /* \"Inbox.sol\":6443:6469  return req.approvals[user] */\n      swap2\n      pop\n      pop\n        /* \"Inbox.sol\":6256:6477  function isStakeholdersVoted(uint reqId, address user) //by address... */\n      swap3\n      swap2\n      pop\n      pop\n      jump\t// out\n        /* \"Inbox.sol\":8588:8936  function PayDayVoted() public workPeriod onlyStakeholders {... */\n    tag_127:\n        /* \"Inbox.sol\":666:670  true */\n      0x01\n        /* \"Inbox.sol\":656:670  canBuy == true */\n      iszero\n      iszero\n        /* \"Inbox.sol\":656:662  canBuy */\n      0x13\n      0x00\n      swap1\n      sload\n      swap1\n      0x0100\n      exp\n      swap1\n      div\n      0xff\n      and\n        /* \"Inbox.sol\":656:670  canBuy == true */\n      iszero\n      iszero\n      eq\n        /* \"Inbox.sol\":647:672  require((canBuy == true)) */\n      tag_287\n      jumpi\n      0x00\n      dup1\n      revert\n    tag_287:\n        /* \"Inbox.sol\":226:238  Stakeholders */\n      0x07\n        /* \"Inbox.sol\":226:250  Stakeholders[msg.sender] */\n      0x00\n        /* \"Inbox.sol\":239:249  msg.sender */\n      caller\n        /* \"Inbox.sol\":226:250  Stakeholders[msg.sender] */\n      0xffffffffffffffffffffffffffffffffffffffff\n      and\n      0xffffffffffffffffffffffffffffffffffffffff\n      and\n      dup2\n      mstore\n      0x20\n      add\n      swap1\n      dup2\n      mstore\n      0x20\n      add\n      0x00\n      keccak256\n      0x00\n      swap1\n      sload\n      swap1\n      0x0100\n      exp\n      swap1\n      div\n      0xff\n      and\n        /* \"Inbox.sol\":218:251  require(Stakeholders[msg.sender]) */\n      tag_289\n      jumpi\n      0x00\n      dup1\n      revert\n    tag_289:\n        /* \"Inbox.sol\":8704:8709  false */\n      0x00\n        /* \"Inbox.sol\":8661:8709  Stakeholders_endTheContract[msg.sender] == false */\n      iszero\n      iszero\n        /* \"Inbox.sol\":8661:8688  Stakeholders_endTheContract */\n      0x08\n        /* \"Inbox.sol\":8661:8700  Stakeholders_endTheContract[msg.sender] */\n      0x00\n        /* \"Inbox.sol\":8689:8699  msg.sender */\n      caller\n        /* \"Inbox.sol\":8661:8700  Stakeholders_endTheContract[msg.sender] */\n      0xffffffffffffffffffffffffffffffffffffffff\n      and\n      0xffffffffffffffffffffffffffffffffffffffff\n      and\n      dup2\n      mstore\n      0x20\n      add\n      swap1\n      dup2\n      mstore\n      0x20\n      add\n      0x00\n      keccak256\n      0x00\n      swap1\n      sload\n      swap1\n      0x0100\n      exp\n      swap1\n      div\n      0xff\n      and\n        /* \"Inbox.sol\":8661:8709  Stakeholders_endTheContract[msg.sender] == false */\n      iszero\n      iszero\n      sub\n        /* \"Inbox.sol\":8657:8825  if (Stakeholders_endTheContract[msg.sender] == false) {... */\n      tag_291\n      jumpi\n        /* \"Inbox.sol\":8768:8772  true */\n      0x01\n        /* \"Inbox.sol\":8726:8753  Stakeholders_endTheContract */\n      0x08\n        /* \"Inbox.sol\":8726:8765  Stakeholders_endTheContract[msg.sender] */\n      0x00\n        /* \"Inbox.sol\":8754:8764  msg.sender */\n      caller\n        /* \"Inbox.sol\":8726:8765  Stakeholders_endTheContract[msg.sender] */\n      0xffffffffffffffffffffffffffffffffffffffff\n      and\n      0xffffffffffffffffffffffffffffffffffffffff\n      and\n      dup2\n      mstore\n      0x20\n      add\n      swap1\n      dup2\n      mstore\n      0x20\n      add\n      0x00\n      keccak256\n      0x00\n        /* \"Inbox.sol\":8726:8772  Stakeholders_endTheContract[msg.sender] = true */\n      0x0100\n      exp\n      dup2\n      sload\n      dup2\n      0xff\n      mul\n      not\n      and\n      swap1\n      dup4\n      iszero\n      iszero\n      mul\n      or\n      swap1\n      sstore\n      pop\n        /* \"Inbox.sol\":8787:8811  endTheContract_numOfVote */\n      0x09\n      0x00\n        /* \"Inbox.sol\":8787:8813  endTheContract_numOfVote++ */\n      dup2\n      sload\n      dup1\n      swap3\n      swap2\n      swap1\n      tag_292\n      swap1\n      tag_214\n      jump\t// in\n    tag_292:\n      swap2\n      swap1\n      pop\n      sstore\n      pop\n        /* \"Inbox.sol\":8657:8825  if (Stakeholders_endTheContract[msg.sender] == false) {... */\n    tag_291:\n        /* \"Inbox.sol\":8885:8886  2 */\n      0x02\n        /* \"Inbox.sol\":8867:8882  numStakeholders */\n      sload(0x03)\n        /* \"Inbox.sol\":8867:8886  numStakeholders / 2 */\n      tag_293\n      swap2\n      swap1\n      tag_221\n      jump\t// in\n    tag_293:\n        /* \"Inbox.sol\":8839:8863  endTheContract_numOfVote */\n      sload(0x09)\n        /* \"Inbox.sol\":8839:8886  endTheContract_numOfVote >= numStakeholders / 2 */\n      lt\n        /* \"Inbox.sol\":8835:8929  if (endTheContract_numOfVote >= numStakeholders / 2) {... */\n      tag_294\n      jumpi\n        /* \"Inbox.sol\":8912:8917  false */\n      0x00\n        /* \"Inbox.sol\":8903:8909  canBuy */\n      0x13\n      0x00\n        /* \"Inbox.sol\":8903:8917  canBuy = false */\n      0x0100\n      exp\n      dup2\n      sload\n      dup2\n      0xff\n      mul\n      not\n      and\n      swap1\n      dup4\n      iszero\n      iszero\n      mul\n      or\n      swap1\n      sstore\n      pop\n        /* \"Inbox.sol\":8835:8929  if (endTheContract_numOfVote >= numStakeholders / 2) {... */\n    tag_294:\n        /* \"Inbox.sol\":8588:8936  function PayDayVoted() public workPeriod onlyStakeholders {... */\n      jump\t// out\n        /* \"Inbox.sol\":2072:2096  uint public lastTotalVal */\n    tag_130:\n      sload(0x17)\n      dup2\n      jump\t// out\n        /* \"Inbox.sol\":1729:1760  uint public minimumContribution */\n    tag_134:\n      sload(0x0f)\n      dup2\n      jump\t// out\n        /* \"Inbox.sol\":1997:2018  uint  public listSize */\n    tag_138:\n      sload(0x15)\n      dup2\n      jump\t// out\n        /* \"Inbox.sol\":3495:3575  function getMoney() public payable returns (bool) {... */\n    tag_141:\n        /* \"Inbox.sol\":3539:3543  bool */\n      0x00\n        /* \"Inbox.sol\":3563:3567  true */\n      0x01\n        /* \"Inbox.sol\":3556:3567  return true */\n      swap1\n      pop\n        /* \"Inbox.sol\":3495:3575  function getMoney() public payable returns (bool) {... */\n      swap1\n      jump\t// out\n        /* \"Inbox.sol\":1684:1722  mapping(address => bool) public lefted */\n    tag_146:\n      mstore(0x20, 0x0e)\n      dup1\n      0x00\n      mstore\n      keccak256(0x00, 0x40)\n      0x00\n      swap2\n      pop\n      sload\n      swap1\n      0x0100\n      exp\n      swap1\n      div\n      0xff\n      and\n      dup2\n      jump\t// out\n        /* \"Inbox.sol\":2136:2159  uint public the_balance */\n    tag_150:\n      sload(0x19)\n      dup2\n      jump\t// out\n        /* \"Inbox.sol\":2199:2516  function allInvestorPercent() public view returns (uint) {... */\n    tag_154:\n        /* \"Inbox.sol\":2250:2254  uint */\n      0x00\n        /* \"Inbox.sol\":2267:2275  uint sum */\n      dup1\n        /* \"Inbox.sol\":2291:2297  uint i */\n      0x00\n        /* \"Inbox.sol\":2286:2488  for (uint i = 0; i < Investors.length; i++) {... */\n    tag_297:\n        /* \"Inbox.sol\":2307:2316  Investors */\n      0x0a\n        /* \"Inbox.sol\":2307:2323  Investors.length */\n      dup1\n      sload\n      swap1\n      pop\n        /* \"Inbox.sol\":2303:2304  i */\n      dup2\n        /* \"Inbox.sol\":2303:2323  i < Investors.length */\n      lt\n        /* \"Inbox.sol\":2286:2488  for (uint i = 0; i < Investors.length; i++) {... */\n      iszero\n      tag_298\n      jumpi\n        /* \"Inbox.sol\":2345:2357  address user */\n      0x00\n        /* \"Inbox.sol\":2360:2369  Investors */\n      0x0a\n        /* \"Inbox.sol\":2370:2371  i */\n      dup3\n        /* \"Inbox.sol\":2360:2372  Investors[i] */\n      dup2\n      sload\n      dup2\n      lt\n      tag_300\n      jumpi\n      tag_301\n      tag_225\n      jump\t// in\n    tag_301:\n    tag_300:\n      swap1\n      0x00\n      mstore\n      keccak256(0x00, 0x20)\n      add\n      0x00\n      swap1\n      sload\n      swap1\n      0x0100\n      exp\n      swap1\n      div\n      0xffffffffffffffffffffffffffffffffffffffff\n      and\n        /* \"Inbox.sol\":2345:2372  address user = Investors[i] */\n      swap1\n      pop\n        /* \"Inbox.sol\":2407:2412  false */\n      0x00\n        /* \"Inbox.sol\":2391:2412  lefted[user] == false */\n      iszero\n      iszero\n        /* \"Inbox.sol\":2391:2397  lefted */\n      0x0e\n        /* \"Inbox.sol\":2391:2403  lefted[user] */\n      0x00\n        /* \"Inbox.sol\":2398:2402  user */\n      dup4\n        /* \"Inbox.sol\":2391:2403  lefted[user] */\n      0xffffffffffffffffffffffffffffffffffffffff\n      and\n      0xffffffffffffffffffffffffffffffffffffffff\n      and\n      dup2\n      mstore\n      0x20\n      add\n      swap1\n      dup2\n      mstore\n      0x20\n      add\n      0x00\n      keccak256\n      0x00\n      swap1\n      sload\n      swap1\n      0x0100\n      exp\n      swap1\n      div\n      0xff\n      and\n        /* \"Inbox.sol\":2391:2412  lefted[user] == false */\n      iszero\n      iszero\n      sub\n        /* \"Inbox.sol\":2387:2477  if (lefted[user] == false) {... */\n      tag_303\n      jumpi\n        /* \"Inbox.sol\":2445:2455  ownPercent */\n      0x0d\n        /* \"Inbox.sol\":2445:2461  ownPercent[user] */\n      0x00\n        /* \"Inbox.sol\":2456:2460  user */\n      dup3\n        /* \"Inbox.sol\":2445:2461  ownPercent[user] */\n      0xffffffffffffffffffffffffffffffffffffffff\n      and\n      0xffffffffffffffffffffffffffffffffffffffff\n      and\n      dup2\n      mstore\n      0x20\n      add\n      swap1\n      dup2\n      mstore\n      0x20\n      add\n      0x00\n      keccak256\n      sload\n        /* \"Inbox.sol\":2439:2442  sum */\n      dup4\n        /* \"Inbox.sol\":2439:2461  sum + ownPercent[user] */\n      tag_304\n      swap2\n      swap1\n      tag_305\n      jump\t// in\n    tag_304:\n        /* \"Inbox.sol\":2433:2461  sum = sum + ownPercent[user] */\n      swap3\n      pop\n        /* \"Inbox.sol\":2387:2477  if (lefted[user] == false) {... */\n    tag_303:\n        /* \"Inbox.sol\":2330:2488  {... */\n      pop\n        /* \"Inbox.sol\":2325:2328  i++ */\n      dup1\n      dup1\n      tag_306\n      swap1\n      tag_214\n      jump\t// in\n    tag_306:\n      swap2\n      pop\n      pop\n        /* \"Inbox.sol\":2286:2488  for (uint i = 0; i < Investors.length; i++) {... */\n      jump(tag_297)\n    tag_298:\n      pop\n        /* \"Inbox.sol\":2505:2508  sum */\n      dup1\n        /* \"Inbox.sol\":2498:2508  return sum */\n      swap2\n      pop\n      pop\n        /* \"Inbox.sol\":2199:2516  function allInvestorPercent() public view returns (uint) {... */\n      swap1\n      jump\t// out\n        /* \"Inbox.sol\":7205:8181  function leave_contract(... */\n    tag_160:\n        /* \"Inbox.sol\":7373:7377  bool */\n      0x00\n        /* \"Inbox.sol\":666:670  true */\n      0x01\n        /* \"Inbox.sol\":656:670  canBuy == true */\n      iszero\n      iszero\n        /* \"Inbox.sol\":656:662  canBuy */\n      0x13\n      0x00\n      swap1\n      sload\n      swap1\n      0x0100\n      exp\n      swap1\n      div\n      0xff\n      and\n        /* \"Inbox.sol\":656:670  canBuy == true */\n      iszero\n      iszero\n      eq\n        /* \"Inbox.sol\":647:672  require((canBuy == true)) */\n      tag_308\n      jumpi\n      0x00\n      dup1\n      revert\n    tag_308:\n        /* \"Inbox.sol\":332:336  site */\n      0x06\n      0x00\n      swap1\n      sload\n      swap1\n      0x0100\n      exp\n      swap1\n      div\n      0xffffffffffffffffffffffffffffffffffffffff\n      and\n        /* \"Inbox.sol\":318:336  msg.sender == site */\n      0xffffffffffffffffffffffffffffffffffffffff\n      and\n        /* \"Inbox.sol\":318:328  msg.sender */\n      caller\n        /* \"Inbox.sol\":318:336  msg.sender == site */\n      0xffffffffffffffffffffffffffffffffffffffff\n      and\n      eq\n        /* \"Inbox.sol\":310:337  require(msg.sender == site) */\n      tag_310\n      jumpi\n      0x00\n      dup1\n      revert\n    tag_310:\n        /* \"Inbox.sol\":7426:7431  false */\n      0x00\n        /* \"Inbox.sol\":7398:7431  Stakeholders[msg.sender] == false */\n      iszero\n      iszero\n        /* \"Inbox.sol\":7398:7410  Stakeholders */\n      0x07\n        /* \"Inbox.sol\":7398:7422  Stakeholders[msg.sender] */\n      0x00\n        /* \"Inbox.sol\":7411:7421  msg.sender */\n      caller\n        /* \"Inbox.sol\":7398:7422  Stakeholders[msg.sender] */\n      0xffffffffffffffffffffffffffffffffffffffff\n      and\n      0xffffffffffffffffffffffffffffffffffffffff\n      and\n      dup2\n      mstore\n      0x20\n      add\n      swap1\n      dup2\n      mstore\n      0x20\n      add\n      0x00\n      keccak256\n      0x00\n      swap1\n      sload\n      swap1\n      0x0100\n      exp\n      swap1\n      div\n      0xff\n      and\n        /* \"Inbox.sol\":7398:7431  Stakeholders[msg.sender] == false */\n      iszero\n      iszero\n      eq\n        /* \"Inbox.sol\":7390:7432  require(Stakeholders[msg.sender] == false) */\n      tag_312\n      jumpi\n      0x00\n      dup1\n      revert\n    tag_312:\n        /* \"Inbox.sol\":7593:7607  uint myPercent */\n      0x00\n        /* \"Inbox.sol\":7610:7620  ownPercent */\n      0x0d\n        /* \"Inbox.sol\":7610:7635  ownPercent[leave_address] */\n      0x00\n        /* \"Inbox.sol\":7621:7634  leave_address */\n      dup6\n        /* \"Inbox.sol\":7610:7635  ownPercent[leave_address] */\n      0xffffffffffffffffffffffffffffffffffffffff\n      and\n      0xffffffffffffffffffffffffffffffffffffffff\n      and\n      dup2\n      mstore\n      0x20\n      add\n      swap1\n      dup2\n      mstore\n      0x20\n      add\n      0x00\n      keccak256\n      sload\n        /* \"Inbox.sol\":7593:7635  uint myPercent = ownPercent[leave_address] */\n      swap1\n      pop\n        /* \"Inbox.sol\":7646:7661  uint totalValue */\n      0x00\n        /* \"Inbox.sol\":7672:7688  investorBalanc() */\n      tag_313\n        /* \"Inbox.sol\":7672:7686  investorBalanc */\n      tag_68\n        /* \"Inbox.sol\":7672:7688  investorBalanc() */\n      jump\t// in\n    tag_313:\n        /* \"Inbox.sol\":7664:7669  yield */\n      dup5\n        /* \"Inbox.sol\":7664:7688  yield + investorBalanc() */\n      tag_314\n      swap2\n      swap1\n      tag_305\n      jump\t// in\n    tag_314:\n        /* \"Inbox.sol\":7646:7688  uint totalValue = yield + investorBalanc() */\n      swap1\n      pop\n        /* \"Inbox.sol\":7699:7709  uint value */\n      0x00\n        /* \"Inbox.sol\":7761:7765  1000 */\n      0x03e8\n        /* \"Inbox.sol\":7750:7757  penelty */\n      sload(0x00)\n        /* \"Inbox.sol\":7742:7746  1000 */\n      0x03e8\n        /* \"Inbox.sol\":7729:7738  myPercent */\n      dup6\n        /* \"Inbox.sol\":7716:7726  totalValue */\n      dup6\n        /* \"Inbox.sol\":7716:7738  totalValue * myPercent */\n      tag_315\n      swap2\n      swap1\n      tag_219\n      jump\t// in\n    tag_315:\n        /* \"Inbox.sol\":7715:7746  (totalValue * myPercent) / 1000 */\n      tag_316\n      swap2\n      swap1\n      tag_221\n      jump\t// in\n    tag_316:\n        /* \"Inbox.sol\":7714:7757  ((totalValue * myPercent) / 1000) * penelty */\n      tag_317\n      swap2\n      swap1\n      tag_219\n      jump\t// in\n    tag_317:\n        /* \"Inbox.sol\":7713:7765  (((totalValue * myPercent) / 1000) * penelty) / 1000 */\n      tag_318\n      swap2\n      swap1\n      tag_221\n      jump\t// in\n    tag_318:\n        /* \"Inbox.sol\":7699:7766  uint value = ((((totalValue * myPercent) / 1000) * penelty) / 1000) */\n      swap1\n      pop\n        /* \"Inbox.sol\":7792:7797  value */\n      dup1\n        /* \"Inbox.sol\":7777:7789  lastTotalVal */\n      0x17\n        /* \"Inbox.sol\":7777:7797  lastTotalVal = value */\n      dup2\n      swap1\n      sstore\n      pop\n        /* \"Inbox.sol\":7821:7842  address(this).balance */\n      selfbalance\n        /* \"Inbox.sol\":7812:7817  value */\n      dup2\n        /* \"Inbox.sol\":7812:7842  value <= address(this).balance */\n      gt\n        /* \"Inbox.sol\":7808:8174  if (value <= address(this).balance) {... */\n      tag_319\n      jumpi\n        /* \"Inbox.sol\":7872:7884  lastTotalVal */\n      sload(0x17)\n        /* \"Inbox.sol\":7859:7871  lastLeaveVal */\n      0x1a\n        /* \"Inbox.sol\":7859:7884  lastLeaveVal=lastTotalVal */\n      dup2\n      swap1\n      sstore\n      pop\n        /* \"Inbox.sol\":7919:7932  leave_address */\n      dup6\n        /* \"Inbox.sol\":7911:7942  payable(leave_address).transfer */\n      0xffffffffffffffffffffffffffffffffffffffff\n      and\n        /* \"Inbox.sol\":7911:7949  payable(leave_address).transfer(value) */\n      0x08fc\n        /* \"Inbox.sol\":7943:7948  value */\n      dup3\n        /* \"Inbox.sol\":7911:7949  payable(leave_address).transfer(value) */\n      swap1\n      dup2\n      iszero\n      mul\n      swap1\n      mload(0x40)\n      0x00\n      mload(0x40)\n      dup1\n      dup4\n      sub\n      dup2\n      dup6\n      dup9\n      dup9\n      call\n      swap4\n      pop\n      pop\n      pop\n      pop\n      iszero\n      dup1\n      iszero\n      tag_321\n      jumpi\n      returndatasize\n      0x00\n      dup1\n      returndatacopy\n      revert(0x00, returndatasize)\n    tag_321:\n      pop\n        /* \"Inbox.sol\":7988:7992  true */\n      0x01\n        /* \"Inbox.sol\":7964:7970  lefted */\n      0x0e\n        /* \"Inbox.sol\":7964:7985  lefted[leave_address] */\n      0x00\n        /* \"Inbox.sol\":7971:7984  leave_address */\n      dup9\n        /* \"Inbox.sol\":7964:7985  lefted[leave_address] */\n      0xffffffffffffffffffffffffffffffffffffffff\n      and\n      0xffffffffffffffffffffffffffffffffffffffff\n      and\n      dup2\n      mstore\n      0x20\n      add\n      swap1\n      dup2\n      mstore\n      0x20\n      add\n      0x00\n      keccak256\n      0x00\n        /* \"Inbox.sol\":7964:7992  lefted[leave_address] = true */\n      0x0100\n      exp\n      dup2\n      sload\n      dup2\n      0xff\n      mul\n      not\n      and\n      swap1\n      dup4\n      iszero\n      iszero\n      mul\n      or\n      swap1\n      sstore\n      pop\n        /* \"Inbox.sol\":8019:8024  value */\n      dup1\n        /* \"Inbox.sol\":8007:8016  lastRePay */\n      0x16\n        /* \"Inbox.sol\":8007:8024  lastRePay = value */\n      dup2\n      swap1\n      sstore\n      pop\n        /* \"Inbox.sol\":8039:8060  fixPercent(myPercent) */\n      tag_322\n        /* \"Inbox.sol\":8050:8059  myPercent */\n      dup4\n        /* \"Inbox.sol\":8039:8049  fixPercent */\n      tag_323\n        /* \"Inbox.sol\":8039:8060  fixPercent(myPercent) */\n      jump\t// in\n    tag_322:\n        /* \"Inbox.sol\":8075:8089  numOfInvestors */\n      0x0b\n      0x00\n        /* \"Inbox.sol\":8075:8091  numOfInvestors-- */\n      dup2\n      sload\n      dup1\n      swap3\n      swap2\n      swap1\n      tag_324\n      swap1\n      tag_325\n      jump\t// in\n    tag_324:\n      swap2\n      swap1\n      pop\n      sstore\n      pop\n        /* \"Inbox.sol\":8113:8117  true */\n      0x01\n        /* \"Inbox.sol\":8106:8117  return true */\n      swap4\n      pop\n      pop\n      pop\n      pop\n      jump(tag_311)\n        /* \"Inbox.sol\":7808:8174  if (value <= address(this).balance) {... */\n    tag_319:\n        /* \"Inbox.sol\":8157:8162  false */\n      0x00\n        /* \"Inbox.sol\":8150:8162  return false */\n      swap4\n      pop\n      pop\n      pop\n      pop\n        /* \"Inbox.sol\":348:349  _ */\n    tag_311:\n        /* \"Inbox.sol\":7205:8181  function leave_contract(... */\n      swap3\n      swap2\n      pop\n      pop\n      jump\t// out\n        /* \"Inbox.sol\":3163:3487  function join() public payable JoinPeriod {... */\n    tag_163:\n        /* \"Inbox.sol\":416:421  false */\n      0x00\n        /* \"Inbox.sol\":406:421  canBuy == false */\n      iszero\n      iszero\n        /* \"Inbox.sol\":406:412  canBuy */\n      0x13\n      0x00\n      swap1\n      sload\n      swap1\n      0x0100\n      exp\n      swap1\n      div\n      0xff\n      and\n        /* \"Inbox.sol\":406:421  canBuy == false */\n      iszero\n      iszero\n      eq\n        /* \"Inbox.sol\":398:422  require(canBuy == false) */\n      tag_328\n      jumpi\n      0x00\n      dup1\n      revert\n    tag_328:\n        /* \"Inbox.sol\":3216:3229  uint myInvest */\n      0x00\n        /* \"Inbox.sol\":3232:3242  Investment */\n      0x0c\n        /* \"Inbox.sol\":3232:3254  Investment[msg.sender] */\n      0x00\n        /* \"Inbox.sol\":3243:3253  msg.sender */\n      caller\n        /* \"Inbox.sol\":3232:3254  Investment[msg.sender] */\n      0xffffffffffffffffffffffffffffffffffffffff\n      and\n      0xffffffffffffffffffffffffffffffffffffffff\n      and\n      dup2\n      mstore\n      0x20\n      add\n      swap1\n      dup2\n      mstore\n      0x20\n      add\n      0x00\n      keccak256\n      sload\n        /* \"Inbox.sol\":3216:3254  uint myInvest = Investment[msg.sender] */\n      swap1\n      pop\n        /* \"Inbox.sol\":3281:3282  0 */\n      0x00\n        /* \"Inbox.sol\":3269:3277  myInvest */\n      dup2\n        /* \"Inbox.sol\":3269:3282  myInvest == 0 */\n      sub\n        /* \"Inbox.sol\":3265:3424  if (myInvest == 0) {... */\n      tag_330\n      jumpi\n        /* \"Inbox.sol\":3320:3339  minimumContribution */\n      sload(0x0f)\n        /* \"Inbox.sol\":3307:3316  msg.value */\n      callvalue\n        /* \"Inbox.sol\":3307:3339  msg.value >= minimumContribution */\n      lt\n      iszero\n        /* \"Inbox.sol\":3299:3340  require(msg.value >= minimumContribution) */\n      tag_331\n      jumpi\n      0x00\n      dup1\n      revert\n    tag_331:\n        /* \"Inbox.sol\":3355:3364  Investors */\n      0x0a\n        /* \"Inbox.sol\":3370:3380  msg.sender */\n      caller\n        /* \"Inbox.sol\":3355:3381  Investors.push(msg.sender) */\n      swap1\n      dup1\n      0x01\n      dup2\n      sload\n      add\n      dup1\n      dup3\n      sstore\n      dup1\n      swap2\n      pop\n      pop\n      0x01\n      swap1\n      sub\n      swap1\n      0x00\n      mstore\n      keccak256(0x00, 0x20)\n      add\n      0x00\n      swap1\n      swap2\n      swap1\n      swap2\n      swap1\n      swap2\n      0x0100\n      exp\n      dup2\n      sload\n      dup2\n      0xffffffffffffffffffffffffffffffffffffffff\n      mul\n      not\n      and\n      swap1\n      dup4\n      0xffffffffffffffffffffffffffffffffffffffff\n      and\n      mul\n      or\n      swap1\n      sstore\n      pop\n        /* \"Inbox.sol\":3396:3410  numOfInvestors */\n      0x0b\n      0x00\n        /* \"Inbox.sol\":3396:3412  numOfInvestors++ */\n      dup2\n      sload\n      dup1\n      swap3\n      swap2\n      swap1\n      tag_333\n      swap1\n      tag_214\n      jump\t// in\n    tag_333:\n      swap2\n      swap1\n      pop\n      sstore\n      pop\n        /* \"Inbox.sol\":3265:3424  if (myInvest == 0) {... */\n    tag_330:\n        /* \"Inbox.sol\":3470:3479  msg.value */\n      callvalue\n        /* \"Inbox.sol\":3459:3467  myInvest */\n      dup2\n        /* \"Inbox.sol\":3459:3479  myInvest + msg.value */\n      tag_334\n      swap2\n      swap1\n      tag_305\n      jump\t// in\n    tag_334:\n        /* \"Inbox.sol\":3434:3444  Investment */\n      0x0c\n        /* \"Inbox.sol\":3434:3456  Investment[msg.sender] */\n      0x00\n        /* \"Inbox.sol\":3445:3455  msg.sender */\n      caller\n        /* \"Inbox.sol\":3434:3456  Investment[msg.sender] */\n      0xffffffffffffffffffffffffffffffffffffffff\n      and\n      0xffffffffffffffffffffffffffffffffffffffff\n      and\n      dup2\n      mstore\n      0x20\n      add\n      swap1\n      dup2\n      mstore\n      0x20\n      add\n      0x00\n      keccak256\n        /* \"Inbox.sol\":3434:3479  Investment[msg.sender] = myInvest + msg.value */\n      dup2\n      swap1\n      sstore\n      pop\n        /* \"Inbox.sol\":3205:3487  {... */\n      pop\n        /* \"Inbox.sol\":3163:3487  function join() public payable JoinPeriod {... */\n      jump\t// out\n        /* \"Inbox.sol\":1557:1599  mapping(address => uint) public Investment */\n    tag_167:\n      mstore(0x20, 0x0c)\n      dup1\n      0x00\n      mstore\n      keccak256(0x00, 0x40)\n      0x00\n      swap2\n      pop\n      swap1\n      pop\n      sload\n      dup2\n      jump\t// out\n        /* \"Inbox.sol\":2044:2065  uint public lastRePay */\n    tag_171:\n      sload(0x16)\n      dup2\n      jump\t// out\n        /* \"Inbox.sol\":1306:1325  address public site */\n    tag_175:\n      0x06\n      0x00\n      swap1\n      sload\n      swap1\n      0x0100\n      exp\n      swap1\n      div\n      0xffffffffffffffffffffffffffffffffffffffff\n      and\n      dup2\n      jump\t// out\n        /* \"Inbox.sol\":1964:1990  Request[] public myRequsts */\n    tag_180:\n      0x14\n      dup2\n      dup2\n      sload\n      dup2\n      lt\n      tag_335\n      jumpi\n      0x00\n      dup1\n      revert\n    tag_335:\n      swap1\n      0x00\n      mstore\n      keccak256(0x00, 0x20)\n      swap1\n      0x06\n      mul\n      add\n      0x00\n      swap2\n      pop\n      swap1\n      pop\n      dup1\n      0x00\n      add\n      dup1\n      sload\n      tag_337\n      swap1\n      tag_201\n      jump\t// in\n    tag_337:\n      dup1\n      0x1f\n      add\n      0x20\n      dup1\n      swap2\n      div\n      mul\n      0x20\n      add\n      mload(0x40)\n      swap1\n      dup2\n      add\n      0x40\n      mstore\n      dup1\n      swap3\n      swap2\n      swap1\n      dup2\n      dup2\n      mstore\n      0x20\n      add\n      dup3\n      dup1\n      sload\n      tag_338\n      swap1\n      tag_201\n      jump\t// in\n    tag_338:\n      dup1\n      iszero\n      tag_339\n      jumpi\n      dup1\n      0x1f\n      lt\n      tag_340\n      jumpi\n      0x0100\n      dup1\n      dup4\n      sload\n      div\n      mul\n      dup4\n      mstore\n      swap2\n      0x20\n      add\n      swap2\n      jump(tag_339)\n    tag_340:\n      dup3\n      add\n      swap2\n      swap1\n      0x00\n      mstore\n      keccak256(0x00, 0x20)\n      swap1\n    tag_341:\n      dup2\n      sload\n      dup2\n      mstore\n      swap1\n      0x01\n      add\n      swap1\n      0x20\n      add\n      dup1\n      dup4\n      gt\n      tag_341\n      jumpi\n      dup3\n      swap1\n      sub\n      0x1f\n      and\n      dup3\n      add\n      swap2\n    tag_339:\n      pop\n      pop\n      pop\n      pop\n      pop\n      swap1\n      dup1\n      0x01\n      add\n      dup1\n      sload\n      tag_342\n      swap1\n      tag_201\n      jump\t// in\n    tag_342:\n      dup1\n      0x1f\n      add\n      0x20\n      dup1\n      swap2\n      div\n      mul\n      0x20\n      add\n      mload(0x40)\n      swap1\n      dup2\n      add\n      0x40\n      mstore\n      dup1\n      swap3\n      swap2\n      swap1\n      dup2\n      dup2\n      mstore\n      0x20\n      add\n      dup3\n      dup1\n      sload\n      tag_343\n      swap1\n      tag_201\n      jump\t// in\n    tag_343:\n      dup1\n      iszero\n      tag_344\n      jumpi\n      dup1\n      0x1f\n      lt\n      tag_345\n      jumpi\n      0x0100\n      dup1\n      dup4\n      sload\n      div\n      mul\n      dup4\n      mstore\n      swap2\n      0x20\n      add\n      swap2\n      jump(tag_344)\n    tag_345:\n      dup3\n      add\n      swap2\n      swap1\n      0x00\n      mstore\n      keccak256(0x00, 0x20)\n      swap1\n    tag_346:\n      dup2\n      sload\n      dup2\n      mstore\n      swap1\n      0x01\n      add\n      swap1\n      0x20\n      add\n      dup1\n      dup4\n      gt\n      tag_346\n      jumpi\n      dup3\n      swap1\n      sub\n      0x1f\n      and\n      dup3\n      add\n      swap2\n    tag_344:\n      pop\n      pop\n      pop\n      pop\n      pop\n      swap1\n      dup1\n      0x02\n      add\n      sload\n      swap1\n      dup1\n      0x03\n      add\n      0x00\n      swap1\n      sload\n      swap1\n      0x0100\n      exp\n      swap1\n      div\n      0xff\n      and\n      swap1\n      dup1\n      0x04\n      add\n      sload\n      swap1\n      pop\n      dup6\n      jump\t// out\n        /* \"Inbox.sol\":1489:1515  address[] public Investors */\n    tag_186:\n      0x0a\n      dup2\n      dup2\n      sload\n      dup2\n      lt\n      tag_347\n      jumpi\n      0x00\n      dup1\n      revert\n    tag_347:\n      swap1\n      0x00\n      mstore\n      keccak256(0x00, 0x20)\n      add\n      0x00\n      swap2\n      pop\n      sload\n      swap1\n      0x0100\n      exp\n      swap1\n      div\n      0xffffffffffffffffffffffffffffffffffffffff\n      and\n      dup2\n      jump\t// out\n        /* \"Inbox.sol\":1806:1830  uint256 public timeStart */\n    tag_190:\n      sload(0x10)\n      dup2\n      jump\t// out\n        /* \"Inbox.sol\":1869:1891  uint256 public timeEnd */\n    tag_194:\n      sload(0x12)\n      dup2\n      jump\t// out\n        /* \"Inbox.sol\":1898:1919  bool    public canBuy */\n    tag_198:\n      0x13\n      0x00\n      swap1\n      sload\n      swap1\n      0x0100\n      exp\n      swap1\n      div\n      0xff\n      and\n      dup2\n      jump\t// out\n        /* \"Inbox.sol\":4165:5722  function setStakeholders() private {... */\n    tag_250:\n        /* \"Inbox.sol\":4211:4240  address[] memory address_temp */\n      0x00\n        /* \"Inbox.sol\":4257:4272  numStakeholders */\n      sload(0x03)\n        /* \"Inbox.sol\":4243:4273  new address[](numStakeholders) */\n      0xffffffffffffffff\n      dup2\n      gt\n      iszero\n      tag_350\n      jumpi\n      tag_351\n      tag_352\n      jump\t// in\n    tag_351:\n    tag_350:\n      mload(0x40)\n      swap1\n      dup1\n      dup3\n      mstore\n      dup1\n      0x20\n      mul\n      0x20\n      add\n      dup3\n      add\n      0x40\n      mstore\n      dup1\n      iszero\n      tag_353\n      jumpi\n      dup2\n      0x20\n      add\n      0x20\n      dup3\n      mul\n      dup1\n      calldatasize\n      dup4\n      calldatacopy\n      dup1\n      dup3\n      add\n      swap2\n      pop\n      pop\n      swap1\n      pop\n    tag_353:\n      pop\n        /* \"Inbox.sol\":4211:4273  address[] memory address_temp = new address[](numStakeholders) */\n      swap1\n      pop\n        /* \"Inbox.sol\":4284:4308  uint[] memory value_temp */\n      0x00\n        /* \"Inbox.sol\":4322:4337  numStakeholders */\n      sload(0x03)\n        /* \"Inbox.sol\":4311:4338  new uint[](numStakeholders) */\n      0xffffffffffffffff\n      dup2\n      gt\n      iszero\n      tag_354\n      jumpi\n      tag_355\n      tag_352\n      jump\t// in\n    tag_355:\n    tag_354:\n      mload(0x40)\n      swap1\n      dup1\n      dup3\n      mstore\n      dup1\n      0x20\n      mul\n      0x20\n      add\n      dup3\n      add\n      0x40\n      mstore\n      dup1\n      iszero\n      tag_356\n      jumpi\n      dup2\n      0x20\n      add\n      0x20\n      dup3\n      mul\n      dup1\n      calldatasize\n      dup4\n      calldatacopy\n      dup1\n      dup3\n      add\n      swap2\n      pop\n      pop\n      swap1\n      pop\n    tag_356:\n      pop\n        /* \"Inbox.sol\":4284:4338  uint[] memory value_temp = new uint[](numStakeholders) */\n      swap1\n      pop\n        /* \"Inbox.sol\":4349:4357  uint min */\n      0x00\n        /* \"Inbox.sol\":4368:4376  uint pos */\n      dup1\n        /* \"Inbox.sol\":4379:4380  0 */\n      0x00\n        /* \"Inbox.sol\":4368:4380  uint pos = 0 */\n      swap1\n      pop\n        /* \"Inbox.sol\":4391:4404  uint temp_val */\n      0x00\n        /* \"Inbox.sol\":4415:4427  address temp */\n      dup1\n        /* \"Inbox.sol\":4430:4439  Investors */\n      0x0a\n        /* \"Inbox.sol\":4440:4441  0 */\n      0x00\n        /* \"Inbox.sol\":4430:4442  Investors[0] */\n      dup2\n      sload\n      dup2\n      lt\n      tag_357\n      jumpi\n      tag_358\n      tag_225\n      jump\t// in\n    tag_358:\n    tag_357:\n      swap1\n      0x00\n      mstore\n      keccak256(0x00, 0x20)\n      add\n      0x00\n      swap1\n      sload\n      swap1\n      0x0100\n      exp\n      swap1\n      div\n      0xffffffffffffffffffffffffffffffffffffffff\n      and\n        /* \"Inbox.sol\":4415:4442  address temp = Investors[0] */\n      swap1\n      pop\n        /* \"Inbox.sol\":4471:4475  temp */\n      dup1\n        /* \"Inbox.sol\":4453:4465  address_temp */\n      dup7\n        /* \"Inbox.sol\":4466:4467  0 */\n      0x00\n        /* \"Inbox.sol\":4453:4468  address_temp[0] */\n      dup2\n      mload\n      dup2\n      lt\n      tag_360\n      jumpi\n      tag_361\n      tag_225\n      jump\t// in\n    tag_361:\n    tag_360:\n      0x20\n      mul\n      0x20\n      add\n      add\n        /* \"Inbox.sol\":4453:4475  address_temp[0] = temp */\n      swap1\n      0xffffffffffffffffffffffffffffffffffffffff\n      and\n      swap1\n      dup2\n      0xffffffffffffffffffffffffffffffffffffffff\n      and\n      dup2\n      mstore\n      pop\n      pop\n        /* \"Inbox.sol\":4492:4502  Investment */\n      0x0c\n        /* \"Inbox.sol\":4492:4508  Investment[temp] */\n      0x00\n        /* \"Inbox.sol\":4503:4507  temp */\n      dup3\n        /* \"Inbox.sol\":4492:4508  Investment[temp] */\n      0xffffffffffffffffffffffffffffffffffffffff\n      and\n      0xffffffffffffffffffffffffffffffffffffffff\n      and\n      dup2\n      mstore\n      0x20\n      add\n      swap1\n      dup2\n      mstore\n      0x20\n      add\n      0x00\n      keccak256\n      sload\n        /* \"Inbox.sol\":4486:4508  min = Investment[temp] */\n      swap4\n      pop\n        /* \"Inbox.sol\":4535:4538  min */\n      dup4\n        /* \"Inbox.sol\":4519:4529  value_temp */\n      dup6\n        /* \"Inbox.sol\":4530:4531  0 */\n      0x00\n        /* \"Inbox.sol\":4519:4532  value_temp[0] */\n      dup2\n      mload\n      dup2\n      lt\n      tag_362\n      jumpi\n      tag_363\n      tag_225\n      jump\t// in\n    tag_363:\n    tag_362:\n      0x20\n      mul\n      0x20\n      add\n      add\n        /* \"Inbox.sol\":4519:4538  value_temp[0] = min */\n      dup2\n      dup2\n      mstore\n      pop\n      pop\n        /* \"Inbox.sol\":4554:4560  uint i */\n      0x00\n        /* \"Inbox.sol\":4563:4564  1 */\n      0x01\n        /* \"Inbox.sol\":4554:4564  uint i = 1 */\n      swap1\n      pop\n        /* \"Inbox.sol\":4549:5002  for (uint i = 1; i < numStakeholders; i++) {... */\n    tag_364:\n        /* \"Inbox.sol\":4570:4585  numStakeholders */\n      sload(0x03)\n        /* \"Inbox.sol\":4566:4567  i */\n      dup2\n        /* \"Inbox.sol\":4566:4585  i < numStakeholders */\n      lt\n        /* \"Inbox.sol\":4549:5002  for (uint i = 1; i < numStakeholders; i++) {... */\n      iszero\n      tag_365\n      jumpi\n        /* \"Inbox.sol\":4673:4682  Investors */\n      0x0a\n        /* \"Inbox.sol\":4683:4684  i */\n      dup2\n        /* \"Inbox.sol\":4673:4685  Investors[i] */\n      dup2\n      sload\n      dup2\n      lt\n      tag_367\n      jumpi\n      tag_368\n      tag_225\n      jump\t// in\n    tag_368:\n    tag_367:\n      swap1\n      0x00\n      mstore\n      keccak256(0x00, 0x20)\n      add\n      0x00\n      swap1\n      sload\n      swap1\n      0x0100\n      exp\n      swap1\n      div\n      0xffffffffffffffffffffffffffffffffffffffff\n      and\n        /* \"Inbox.sol\":4666:4685  temp = Investors[i] */\n      swap2\n      pop\n        /* \"Inbox.sol\":4732:4736  temp */\n      dup2\n        /* \"Inbox.sol\":4714:4726  address_temp */\n      dup8\n        /* \"Inbox.sol\":4727:4728  i */\n      dup3\n        /* \"Inbox.sol\":4714:4729  address_temp[i] */\n      dup2\n      mload\n      dup2\n      lt\n      tag_370\n      jumpi\n      tag_371\n      tag_225\n      jump\t// in\n    tag_371:\n    tag_370:\n      0x20\n      mul\n      0x20\n      add\n      add\n        /* \"Inbox.sol\":4714:4736  address_temp[i] = temp */\n      swap1\n      0xffffffffffffffffffffffffffffffffffffffff\n      and\n      swap1\n      dup2\n      0xffffffffffffffffffffffffffffffffffffffff\n      and\n      dup2\n      mstore\n      pop\n      pop\n        /* \"Inbox.sol\":4786:4796  Investment */\n      0x0c\n        /* \"Inbox.sol\":4786:4802  Investment[temp] */\n      0x00\n        /* \"Inbox.sol\":4797:4801  temp */\n      dup4\n        /* \"Inbox.sol\":4786:4802  Investment[temp] */\n      0xffffffffffffffffffffffffffffffffffffffff\n      and\n      0xffffffffffffffffffffffffffffffffffffffff\n      and\n      dup2\n      mstore\n      0x20\n      add\n      swap1\n      dup2\n      mstore\n      0x20\n      add\n      0x00\n      keccak256\n      sload\n        /* \"Inbox.sol\":4775:4802  temp_val = Investment[temp] */\n      swap3\n      pop\n        /* \"Inbox.sol\":4857:4865  temp_val */\n      dup3\n        /* \"Inbox.sol\":4841:4851  value_temp */\n      dup7\n        /* \"Inbox.sol\":4852:4853  i */\n      dup3\n        /* \"Inbox.sol\":4841:4854  value_temp[i] */\n      dup2\n      mload\n      dup2\n      lt\n      tag_372\n      jumpi\n      tag_373\n      tag_225\n      jump\t// in\n    tag_373:\n    tag_372:\n      0x20\n      mul\n      0x20\n      add\n      add\n        /* \"Inbox.sol\":4841:4865  value_temp[i] = temp_val */\n      dup2\n      dup2\n      mstore\n      pop\n      pop\n        /* \"Inbox.sol\":4906:4914  temp_val */\n      dup3\n        /* \"Inbox.sol\":4900:4903  min */\n      dup6\n        /* \"Inbox.sol\":4900:4914  min > temp_val */\n      gt\n        /* \"Inbox.sol\":4896:4991  if (min > temp_val) {... */\n      iszero\n      tag_374\n      jumpi\n        /* \"Inbox.sol\":4941:4949  temp_val */\n      dup3\n        /* \"Inbox.sol\":4935:4949  min = temp_val */\n      swap5\n      pop\n        /* \"Inbox.sol\":4974:4975  i */\n      dup1\n        /* \"Inbox.sol\":4968:4975  pos = i */\n      swap4\n      pop\n        /* \"Inbox.sol\":4896:4991  if (min > temp_val) {... */\n    tag_374:\n        /* \"Inbox.sol\":4587:4590  i++ */\n      dup1\n      dup1\n      tag_375\n      swap1\n      tag_214\n      jump\t// in\n    tag_375:\n      swap2\n      pop\n      pop\n        /* \"Inbox.sol\":4549:5002  for (uint i = 1; i < numStakeholders; i++) {... */\n      jump(tag_364)\n    tag_365:\n      pop\n        /* \"Inbox.sol\":5019:5025  uint i */\n      0x00\n        /* \"Inbox.sol\":5028:5043  numStakeholders */\n      sload(0x03)\n        /* \"Inbox.sol\":5019:5043  uint i = numStakeholders */\n      swap1\n      pop\n        /* \"Inbox.sol\":5014:5597  for (uint i = numStakeholders; i < Investors.length; i++) {... */\n    tag_376:\n        /* \"Inbox.sol\":5049:5058  Investors */\n      0x0a\n        /* \"Inbox.sol\":5049:5065  Investors.length */\n      dup1\n      sload\n      swap1\n      pop\n        /* \"Inbox.sol\":5045:5046  i */\n      dup2\n        /* \"Inbox.sol\":5045:5065  i < Investors.length */\n      lt\n        /* \"Inbox.sol\":5014:5597  for (uint i = numStakeholders; i < Investors.length; i++) {... */\n      iszero\n      tag_377\n      jumpi\n        /* \"Inbox.sol\":5094:5103  Investors */\n      0x0a\n        /* \"Inbox.sol\":5104:5105  i */\n      dup2\n        /* \"Inbox.sol\":5094:5106  Investors[i] */\n      dup2\n      sload\n      dup2\n      lt\n      tag_379\n      jumpi\n      tag_380\n      tag_225\n      jump\t// in\n    tag_380:\n    tag_379:\n      swap1\n      0x00\n      mstore\n      keccak256(0x00, 0x20)\n      add\n      0x00\n      swap1\n      sload\n      swap1\n      0x0100\n      exp\n      swap1\n      div\n      0xffffffffffffffffffffffffffffffffffffffff\n      and\n        /* \"Inbox.sol\":5087:5106  temp = Investors[i] */\n      swap2\n      pop\n        /* \"Inbox.sol\":5147:5157  Investment */\n      0x0c\n        /* \"Inbox.sol\":5147:5163  Investment[temp] */\n      0x00\n        /* \"Inbox.sol\":5158:5162  temp */\n      dup4\n        /* \"Inbox.sol\":5147:5163  Investment[temp] */\n      0xffffffffffffffffffffffffffffffffffffffff\n      and\n      0xffffffffffffffffffffffffffffffffffffffff\n      and\n      dup2\n      mstore\n      0x20\n      add\n      swap1\n      dup2\n      mstore\n      0x20\n      add\n      0x00\n      keccak256\n      sload\n        /* \"Inbox.sol\":5136:5163  temp_val = Investment[temp] */\n      swap3\n      pop\n        /* \"Inbox.sol\":5212:5215  min */\n      dup5\n        /* \"Inbox.sol\":5201:5209  temp_val */\n      dup4\n        /* \"Inbox.sol\":5201:5215  temp_val > min */\n      gt\n        /* \"Inbox.sol\":5197:5586  if (temp_val > min) {... */\n      iszero\n      tag_382\n      jumpi\n        /* \"Inbox.sol\":5256:5260  temp */\n      dup2\n        /* \"Inbox.sol\":5236:5248  address_temp */\n      dup8\n        /* \"Inbox.sol\":5249:5252  pos */\n      dup6\n        /* \"Inbox.sol\":5236:5253  address_temp[pos] */\n      dup2\n      mload\n      dup2\n      lt\n      tag_383\n      jumpi\n      tag_384\n      tag_225\n      jump\t// in\n    tag_384:\n    tag_383:\n      0x20\n      mul\n      0x20\n      add\n      add\n        /* \"Inbox.sol\":5236:5260  address_temp[pos] = temp */\n      swap1\n      0xffffffffffffffffffffffffffffffffffffffff\n      and\n      swap1\n      dup2\n      0xffffffffffffffffffffffffffffffffffffffff\n      and\n      dup2\n      mstore\n      pop\n      pop\n        /* \"Inbox.sol\":5297:5305  temp_val */\n      dup3\n        /* \"Inbox.sol\":5279:5289  value_temp */\n      dup7\n        /* \"Inbox.sol\":5290:5293  pos */\n      dup6\n        /* \"Inbox.sol\":5279:5294  value_temp[pos] */\n      dup2\n      mload\n      dup2\n      lt\n      tag_385\n      jumpi\n      tag_386\n      tag_225\n      jump\t// in\n    tag_386:\n    tag_385:\n      0x20\n      mul\n      0x20\n      add\n      add\n        /* \"Inbox.sol\":5279:5305  value_temp[pos] = temp_val */\n      dup2\n      dup2\n      mstore\n      pop\n      pop\n        /* \"Inbox.sol\":5330:5338  temp_val */\n      dup3\n        /* \"Inbox.sol\":5324:5338  min = temp_val */\n      swap5\n      pop\n        /* \"Inbox.sol\":5362:5368  uint j */\n      0x00\n        /* \"Inbox.sol\":5357:5571  for (uint j = 0; j < numStakeholders; j++) {... */\n    tag_387:\n        /* \"Inbox.sol\":5378:5393  numStakeholders */\n      sload(0x03)\n        /* \"Inbox.sol\":5374:5375  j */\n      dup2\n        /* \"Inbox.sol\":5374:5393  j < numStakeholders */\n      lt\n        /* \"Inbox.sol\":5357:5571  for (uint j = 0; j < numStakeholders; j++) {... */\n      iszero\n      tag_388\n      jumpi\n        /* \"Inbox.sol\":5443:5446  min */\n      dup6\n        /* \"Inbox.sol\":5427:5437  value_temp */\n      dup8\n        /* \"Inbox.sol\":5438:5439  j */\n      dup3\n        /* \"Inbox.sol\":5427:5440  value_temp[j] */\n      dup2\n      mload\n      dup2\n      lt\n      tag_390\n      jumpi\n      tag_391\n      tag_225\n      jump\t// in\n    tag_391:\n    tag_390:\n      0x20\n      mul\n      0x20\n      add\n      add\n      mload\n        /* \"Inbox.sol\":5427:5446  value_temp[j] < min */\n      lt\n        /* \"Inbox.sol\":5423:5552  if (value_temp[j] < min) {... */\n      iszero\n      tag_392\n      jumpi\n        /* \"Inbox.sol\":5481:5491  value_temp */\n      dup7\n        /* \"Inbox.sol\":5492:5493  j */\n      dup2\n        /* \"Inbox.sol\":5481:5494  value_temp[j] */\n      dup2\n      mload\n      dup2\n      lt\n      tag_393\n      jumpi\n      tag_394\n      tag_225\n      jump\t// in\n    tag_394:\n    tag_393:\n      0x20\n      mul\n      0x20\n      add\n      add\n      mload\n        /* \"Inbox.sol\":5475:5494  min = value_temp[j] */\n      swap6\n      pop\n        /* \"Inbox.sol\":5527:5528  j */\n      dup1\n        /* \"Inbox.sol\":5521:5528  pos = j */\n      swap5\n      pop\n        /* \"Inbox.sol\":5423:5552  if (value_temp[j] < min) {... */\n    tag_392:\n        /* \"Inbox.sol\":5395:5398  j++ */\n      dup1\n      dup1\n      tag_395\n      swap1\n      tag_214\n      jump\t// in\n    tag_395:\n      swap2\n      pop\n      pop\n        /* \"Inbox.sol\":5357:5571  for (uint j = 0; j < numStakeholders; j++) {... */\n      jump(tag_387)\n    tag_388:\n      pop\n        /* \"Inbox.sol\":5197:5586  if (temp_val > min) {... */\n    tag_382:\n        /* \"Inbox.sol\":5067:5070  i++ */\n      dup1\n      dup1\n      tag_396\n      swap1\n      tag_214\n      jump\t// in\n    tag_396:\n      swap2\n      pop\n      pop\n        /* \"Inbox.sol\":5014:5597  for (uint i = numStakeholders; i < Investors.length; i++) {... */\n      jump(tag_376)\n    tag_377:\n      pop\n        /* \"Inbox.sol\":5614:5620  uint i */\n      0x00\n        /* \"Inbox.sol\":5609:5715  for (uint i = 0; i < numStakeholders; i++) {... */\n    tag_397:\n        /* \"Inbox.sol\":5630:5645  numStakeholders */\n      sload(0x03)\n        /* \"Inbox.sol\":5626:5627  i */\n      dup2\n        /* \"Inbox.sol\":5626:5645  i < numStakeholders */\n      lt\n        /* \"Inbox.sol\":5609:5715  for (uint i = 0; i < numStakeholders; i++) {... */\n      iszero\n      tag_398\n      jumpi\n        /* \"Inbox.sol\":5699:5703  true */\n      0x01\n        /* \"Inbox.sol\":5667:5679  Stakeholders */\n      0x07\n        /* \"Inbox.sol\":5667:5696  Stakeholders[address_temp[i]] */\n      0x00\n        /* \"Inbox.sol\":5680:5692  address_temp */\n      dup10\n        /* \"Inbox.sol\":5693:5694  i */\n      dup5\n        /* \"Inbox.sol\":5680:5695  address_temp[i] */\n      dup2\n      mload\n      dup2\n      lt\n      tag_400\n      jumpi\n      tag_401\n      tag_225\n      jump\t// in\n    tag_401:\n    tag_400:\n      0x20\n      mul\n      0x20\n      add\n      add\n      mload\n        /* \"Inbox.sol\":5667:5696  Stakeholders[address_temp[i]] */\n      0xffffffffffffffffffffffffffffffffffffffff\n      and\n      0xffffffffffffffffffffffffffffffffffffffff\n      and\n      dup2\n      mstore\n      0x20\n      add\n      swap1\n      dup2\n      mstore\n      0x20\n      add\n      0x00\n      keccak256\n      0x00\n        /* \"Inbox.sol\":5667:5703  Stakeholders[address_temp[i]] = true */\n      0x0100\n      exp\n      dup2\n      sload\n      dup2\n      0xff\n      mul\n      not\n      and\n      swap1\n      dup4\n      iszero\n      iszero\n      mul\n      or\n      swap1\n      sstore\n      pop\n        /* \"Inbox.sol\":5647:5650  i++ */\n      dup1\n      dup1\n      tag_402\n      swap1\n      tag_214\n      jump\t// in\n    tag_402:\n      swap2\n      pop\n      pop\n        /* \"Inbox.sol\":5609:5715  for (uint i = 0; i < numStakeholders; i++) {... */\n      jump(tag_397)\n    tag_398:\n      pop\n        /* \"Inbox.sol\":4200:5722  {... */\n      pop\n      pop\n      pop\n      pop\n      pop\n      pop\n        /* \"Inbox.sol\":4165:5722  function setStakeholders() private {... */\n      jump\t// out\n        /* \"Inbox.sol\":8189:8580  function fixPercent(uint leftPercent) private {... */\n    tag_323:\n        /* \"Inbox.sol\":8246:8265  uint totalPercented */\n      0x00\n        /* \"Inbox.sol\":8275:8286  leftPercent */\n      dup2\n        /* \"Inbox.sol\":8268:8272  1000 */\n      0x03e8\n        /* \"Inbox.sol\":8268:8286  1000 - leftPercent */\n      tag_404\n      swap2\n      swap1\n      tag_217\n      jump\t// in\n    tag_404:\n        /* \"Inbox.sol\":8246:8286  uint totalPercented = 1000 - leftPercent */\n      swap1\n      pop\n        /* \"Inbox.sol\":8302:8308  uint i */\n      0x00\n        /* \"Inbox.sol\":8297:8573  for (uint i = 0; i < Investors.length; i++) {... */\n    tag_405:\n        /* \"Inbox.sol\":8318:8327  Investors */\n      0x0a\n        /* \"Inbox.sol\":8318:8334  Investors.length */\n      dup1\n      sload\n      swap1\n      pop\n        /* \"Inbox.sol\":8314:8315  i */\n      dup2\n        /* \"Inbox.sol\":8314:8334  i < Investors.length */\n      lt\n        /* \"Inbox.sol\":8297:8573  for (uint i = 0; i < Investors.length; i++) {... */\n      iszero\n      tag_406\n      jumpi\n        /* \"Inbox.sol\":8356:8368  address user */\n      0x00\n        /* \"Inbox.sol\":8371:8380  Investors */\n      0x0a\n        /* \"Inbox.sol\":8381:8382  i */\n      dup3\n        /* \"Inbox.sol\":8371:8383  Investors[i] */\n      dup2\n      sload\n      dup2\n      lt\n      tag_408\n      jumpi\n      tag_409\n      tag_225\n      jump\t// in\n    tag_409:\n    tag_408:\n      swap1\n      0x00\n      mstore\n      keccak256(0x00, 0x20)\n      add\n      0x00\n      swap1\n      sload\n      swap1\n      0x0100\n      exp\n      swap1\n      div\n      0xffffffffffffffffffffffffffffffffffffffff\n      and\n        /* \"Inbox.sol\":8356:8383  address user = Investors[i] */\n      swap1\n      pop\n        /* \"Inbox.sol\":8418:8423  false */\n      0x00\n        /* \"Inbox.sol\":8402:8423  lefted[user] == false */\n      iszero\n      iszero\n        /* \"Inbox.sol\":8402:8408  lefted */\n      0x0e\n        /* \"Inbox.sol\":8402:8414  lefted[user] */\n      0x00\n        /* \"Inbox.sol\":8409:8413  user */\n      dup4\n        /* \"Inbox.sol\":8402:8414  lefted[user] */\n      0xffffffffffffffffffffffffffffffffffffffff\n      and\n      0xffffffffffffffffffffffffffffffffffffffff\n      and\n      dup2\n      mstore\n      0x20\n      add\n      swap1\n      dup2\n      mstore\n      0x20\n      add\n      0x00\n      keccak256\n      0x00\n      swap1\n      sload\n      swap1\n      0x0100\n      exp\n      swap1\n      div\n      0xff\n      and\n        /* \"Inbox.sol\":8402:8423  lefted[user] == false */\n      iszero\n      iszero\n      sub\n        /* \"Inbox.sol\":8398:8562  if (lefted[user] == false) {... */\n      tag_411\n      jumpi\n        /* \"Inbox.sol\":8444:8455  uint newVal */\n      0x00\n        /* \"Inbox.sol\":8487:8501  totalPercented */\n      dup4\n        /* \"Inbox.sol\":8479:8483  1000 */\n      0x03e8\n        /* \"Inbox.sol\":8460:8470  ownPercent */\n      0x0d\n        /* \"Inbox.sol\":8460:8476  ownPercent[user] */\n      0x00\n        /* \"Inbox.sol\":8471:8475  user */\n      dup6\n        /* \"Inbox.sol\":8460:8476  ownPercent[user] */\n      0xffffffffffffffffffffffffffffffffffffffff\n      and\n      0xffffffffffffffffffffffffffffffffffffffff\n      and\n      dup2\n      mstore\n      0x20\n      add\n      swap1\n      dup2\n      mstore\n      0x20\n      add\n      0x00\n      keccak256\n      sload\n        /* \"Inbox.sol\":8460:8483  ownPercent[user] * 1000 */\n      tag_412\n      swap2\n      swap1\n      tag_219\n      jump\t// in\n    tag_412:\n        /* \"Inbox.sol\":8459:8501  (ownPercent[user] * 1000) / totalPercented */\n      tag_413\n      swap2\n      swap1\n      tag_221\n      jump\t// in\n    tag_413:\n        /* \"Inbox.sol\":8444:8502  uint newVal = ((ownPercent[user] * 1000) / totalPercented) */\n      swap1\n      pop\n        /* \"Inbox.sol\":8540:8546  newVal */\n      dup1\n        /* \"Inbox.sol\":8521:8531  ownPercent */\n      0x0d\n        /* \"Inbox.sol\":8521:8537  ownPercent[user] */\n      0x00\n        /* \"Inbox.sol\":8532:8536  user */\n      dup5\n        /* \"Inbox.sol\":8521:8537  ownPercent[user] */\n      0xffffffffffffffffffffffffffffffffffffffff\n      and\n      0xffffffffffffffffffffffffffffffffffffffff\n      and\n      dup2\n      mstore\n      0x20\n      add\n      swap1\n      dup2\n      mstore\n      0x20\n      add\n      0x00\n      keccak256\n        /* \"Inbox.sol\":8521:8546  ownPercent[user] = newVal */\n      dup2\n      swap1\n      sstore\n      pop\n        /* \"Inbox.sol\":8425:8562  {... */\n      pop\n        /* \"Inbox.sol\":8398:8562  if (lefted[user] == false) {... */\n    tag_411:\n        /* \"Inbox.sol\":8341:8573  {... */\n      pop\n        /* \"Inbox.sol\":8336:8339  i++ */\n      dup1\n      dup1\n      tag_414\n      swap1\n      tag_214\n      jump\t// in\n    tag_414:\n      swap2\n      pop\n      pop\n        /* \"Inbox.sol\":8297:8573  for (uint i = 0; i < Investors.length; i++) {... */\n      jump(tag_405)\n    tag_406:\n      pop\n        /* \"Inbox.sol\":8235:8580  {... */\n      pop\n        /* \"Inbox.sol\":8189:8580  function fixPercent(uint leftPercent) private {... */\n      pop\n      jump\t// out\n        /* \"#utility.yul\":7:84   */\n    tag_415:\n        /* \"#utility.yul\":44:51   */\n      0x00\n        /* \"#utility.yul\":73:78   */\n      dup2\n        /* \"#utility.yul\":62:78   */\n      swap1\n      pop\n        /* \"#utility.yul\":7:84   */\n      swap2\n      swap1\n      pop\n      jump\t// out\n        /* \"#utility.yul\":90:208   */\n    tag_416:\n        /* \"#utility.yul\":177:201   */\n      tag_465\n        /* \"#utility.yul\":195:200   */\n      dup2\n        /* \"#utility.yul\":177:201   */\n      tag_415\n      jump\t// in\n    tag_465:\n        /* \"#utility.yul\":172:175   */\n      dup3\n        /* \"#utility.yul\":165:202   */\n      mstore\n        /* \"#utility.yul\":90:208   */\n      pop\n      pop\n      jump\t// out\n        /* \"#utility.yul\":214:436   */\n    tag_48:\n        /* \"#utility.yul\":307:311   */\n      0x00\n        /* \"#utility.yul\":345:347   */\n      0x20\n        /* \"#utility.yul\":334:343   */\n      dup3\n        /* \"#utility.yul\":330:348   */\n      add\n        /* \"#utility.yul\":322:348   */\n      swap1\n      pop\n        /* \"#utility.yul\":358:429   */\n      tag_467\n        /* \"#utility.yul\":426:427   */\n      0x00\n        /* \"#utility.yul\":415:424   */\n      dup4\n        /* \"#utility.yul\":411:428   */\n      add\n        /* \"#utility.yul\":402:408   */\n      dup5\n        /* \"#utility.yul\":358:429   */\n      tag_416\n      jump\t// in\n    tag_467:\n        /* \"#utility.yul\":214:436   */\n      swap3\n      swap2\n      pop\n      pop\n      jump\t// out\n        /* \"#utility.yul\":442:541   */\n    tag_417:\n        /* \"#utility.yul\":494:500   */\n      0x00\n        /* \"#utility.yul\":528:533   */\n      dup2\n        /* \"#utility.yul\":522:534   */\n      mload\n        /* \"#utility.yul\":512:534   */\n      swap1\n      pop\n        /* \"#utility.yul\":442:541   */\n      swap2\n      swap1\n      pop\n      jump\t// out\n        /* \"#utility.yul\":547:716   */\n    tag_418:\n        /* \"#utility.yul\":631:642   */\n      0x00\n        /* \"#utility.yul\":665:671   */\n      dup3\n        /* \"#utility.yul\":660:663   */\n      dup3\n        /* \"#utility.yul\":653:672   */\n      mstore\n        /* \"#utility.yul\":705:709   */\n      0x20\n        /* \"#utility.yul\":700:703   */\n      dup3\n        /* \"#utility.yul\":696:710   */\n      add\n        /* \"#utility.yul\":681:710   */\n      swap1\n      pop\n        /* \"#utility.yul\":547:716   */\n      swap3\n      swap2\n      pop\n      pop\n      jump\t// out\n        /* \"#utility.yul\":722:1029   */\n    tag_419:\n        /* \"#utility.yul\":790:791   */\n      0x00\n        /* \"#utility.yul\":800:913   */\n    tag_471:\n        /* \"#utility.yul\":814:820   */\n      dup4\n        /* \"#utility.yul\":811:812   */\n      dup2\n        /* \"#utility.yul\":808:821   */\n      lt\n        /* \"#utility.yul\":800:913   */\n      iszero\n      tag_473\n      jumpi\n        /* \"#utility.yul\":899:900   */\n      dup1\n        /* \"#utility.yul\":894:897   */\n      dup3\n        /* \"#utility.yul\":890:901   */\n      add\n        /* \"#utility.yul\":884:902   */\n      mload\n        /* \"#utility.yul\":880:881   */\n      dup2\n        /* \"#utility.yul\":875:878   */\n      dup5\n        /* \"#utility.yul\":871:882   */\n      add\n        /* \"#utility.yul\":864:903   */\n      mstore\n        /* \"#utility.yul\":836:838   */\n      0x20\n        /* \"#utility.yul\":833:834   */\n      dup2\n        /* \"#utility.yul\":829:839   */\n      add\n        /* \"#utility.yul\":824:839   */\n      swap1\n      pop\n        /* \"#utility.yul\":800:913   */\n      jump(tag_471)\n    tag_473:\n        /* \"#utility.yul\":931:937   */\n      dup4\n        /* \"#utility.yul\":928:929   */\n      dup2\n        /* \"#utility.yul\":925:938   */\n      gt\n        /* \"#utility.yul\":922:1023   */\n      iszero\n      tag_474\n      jumpi\n        /* \"#utility.yul\":1011:1012   */\n      0x00\n        /* \"#utility.yul\":1002:1008   */\n      dup5\n        /* \"#utility.yul\":997:1000   */\n      dup5\n        /* \"#utility.yul\":993:1009   */\n      add\n        /* \"#utility.yul\":986:1013   */\n      mstore\n        /* \"#utility.yul\":922:1023   */\n    tag_474:\n        /* \"#utility.yul\":771:1029   */\n      pop\n        /* \"#utility.yul\":722:1029   */\n      pop\n      pop\n      pop\n      jump\t// out\n        /* \"#utility.yul\":1035:1137   */\n    tag_420:\n        /* \"#utility.yul\":1076:1082   */\n      0x00\n        /* \"#utility.yul\":1127:1129   */\n      0x1f\n        /* \"#utility.yul\":1123:1130   */\n      not\n        /* \"#utility.yul\":1118:1120   */\n      0x1f\n        /* \"#utility.yul\":1111:1116   */\n      dup4\n        /* \"#utility.yul\":1107:1121   */\n      add\n        /* \"#utility.yul\":1103:1131   */\n      and\n        /* \"#utility.yul\":1093:1131   */\n      swap1\n      pop\n        /* \"#utility.yul\":1035:1137   */\n      swap2\n      swap1\n      pop\n      jump\t// out\n        /* \"#utility.yul\":1143:1507   */\n    tag_421:\n        /* \"#utility.yul\":1231:1234   */\n      0x00\n        /* \"#utility.yul\":1259:1298   */\n      tag_477\n        /* \"#utility.yul\":1292:1297   */\n      dup3\n        /* \"#utility.yul\":1259:1298   */\n      tag_417\n      jump\t// in\n    tag_477:\n        /* \"#utility.yul\":1314:1385   */\n      tag_478\n        /* \"#utility.yul\":1378:1384   */\n      dup2\n        /* \"#utility.yul\":1373:1376   */\n      dup6\n        /* \"#utility.yul\":1314:1385   */\n      tag_418\n      jump\t// in\n    tag_478:\n        /* \"#utility.yul\":1307:1385   */\n      swap4\n      pop\n        /* \"#utility.yul\":1394:1446   */\n      tag_479\n        /* \"#utility.yul\":1439:1445   */\n      dup2\n        /* \"#utility.yul\":1434:1437   */\n      dup6\n        /* \"#utility.yul\":1427:1431   */\n      0x20\n        /* \"#utility.yul\":1420:1425   */\n      dup7\n        /* \"#utility.yul\":1416:1432   */\n      add\n        /* \"#utility.yul\":1394:1446   */\n      tag_419\n      jump\t// in\n    tag_479:\n        /* \"#utility.yul\":1471:1500   */\n      tag_480\n        /* \"#utility.yul\":1493:1499   */\n      dup2\n        /* \"#utility.yul\":1471:1500   */\n      tag_420\n      jump\t// in\n    tag_480:\n        /* \"#utility.yul\":1466:1469   */\n      dup5\n        /* \"#utility.yul\":1462:1501   */\n      add\n        /* \"#utility.yul\":1455:1501   */\n      swap2\n      pop\n        /* \"#utility.yul\":1235:1507   */\n      pop\n        /* \"#utility.yul\":1143:1507   */\n      swap3\n      swap2\n      pop\n      pop\n      jump\t// out\n        /* \"#utility.yul\":1513:1826   */\n    tag_53:\n        /* \"#utility.yul\":1626:1630   */\n      0x00\n        /* \"#utility.yul\":1664:1666   */\n      0x20\n        /* \"#utility.yul\":1653:1662   */\n      dup3\n        /* \"#utility.yul\":1649:1667   */\n      add\n        /* \"#utility.yul\":1641:1667   */\n      swap1\n      pop\n        /* \"#utility.yul\":1713:1722   */\n      dup2\n        /* \"#utility.yul\":1707:1711   */\n      dup2\n        /* \"#utility.yul\":1703:1723   */\n      sub\n        /* \"#utility.yul\":1699:1700   */\n      0x00\n        /* \"#utility.yul\":1688:1697   */\n      dup4\n        /* \"#utility.yul\":1684:1701   */\n      add\n        /* \"#utility.yul\":1677:1724   */\n      mstore\n        /* \"#utility.yul\":1741:1819   */\n      tag_482\n        /* \"#utility.yul\":1814:1818   */\n      dup2\n        /* \"#utility.yul\":1805:1811   */\n      dup5\n        /* \"#utility.yul\":1741:1819   */\n      tag_421\n      jump\t// in\n    tag_482:\n        /* \"#utility.yul\":1733:1819   */\n      swap1\n      pop\n        /* \"#utility.yul\":1513:1826   */\n      swap3\n      swap2\n      pop\n      pop\n      jump\t// out\n        /* \"#utility.yul\":1832:1907   */\n    tag_422:\n        /* \"#utility.yul\":1865:1871   */\n      0x00\n        /* \"#utility.yul\":1898:1900   */\n      0x40\n        /* \"#utility.yul\":1892:1901   */\n      mload\n        /* \"#utility.yul\":1882:1901   */\n      swap1\n      pop\n        /* \"#utility.yul\":1832:1907   */\n      swap1\n      jump\t// out\n        /* \"#utility.yul\":1913:2030   */\n    tag_423:\n        /* \"#utility.yul\":2022:2023   */\n      0x00\n        /* \"#utility.yul\":2019:2020   */\n      dup1\n        /* \"#utility.yul\":2012:2024   */\n      revert\n        /* \"#utility.yul\":2036:2153   */\n    tag_424:\n        /* \"#utility.yul\":2145:2146   */\n      0x00\n        /* \"#utility.yul\":2142:2143   */\n      dup1\n        /* \"#utility.yul\":2135:2147   */\n      revert\n        /* \"#utility.yul\":2159:2285   */\n    tag_425:\n        /* \"#utility.yul\":2196:2203   */\n      0x00\n        /* \"#utility.yul\":2236:2278   */\n      0xffffffffffffffffffffffffffffffffffffffff\n        /* \"#utility.yul\":2229:2234   */\n      dup3\n        /* \"#utility.yul\":2225:2279   */\n      and\n        /* \"#utility.yul\":2214:2279   */\n      swap1\n      pop\n        /* \"#utility.yul\":2159:2285   */\n      swap2\n      swap1\n      pop\n      jump\t// out\n        /* \"#utility.yul\":2291:2387   */\n    tag_426:\n        /* \"#utility.yul\":2328:2335   */\n      0x00\n        /* \"#utility.yul\":2357:2381   */\n      tag_488\n        /* \"#utility.yul\":2375:2380   */\n      dup3\n        /* \"#utility.yul\":2357:2381   */\n      tag_425\n      jump\t// in\n    tag_488:\n        /* \"#utility.yul\":2346:2381   */\n      swap1\n      pop\n        /* \"#utility.yul\":2291:2387   */\n      swap2\n      swap1\n      pop\n      jump\t// out\n        /* \"#utility.yul\":2393:2515   */\n    tag_427:\n        /* \"#utility.yul\":2466:2490   */\n      tag_490\n        /* \"#utility.yul\":2484:2489   */\n      dup2\n        /* \"#utility.yul\":2466:2490   */\n      tag_426\n      jump\t// in\n    tag_490:\n        /* \"#utility.yul\":2459:2464   */\n      dup2\n        /* \"#utility.yul\":2456:2491   */\n      eq\n        /* \"#utility.yul\":2446:2509   */\n      tag_491\n      jumpi\n        /* \"#utility.yul\":2505:2506   */\n      0x00\n        /* \"#utility.yul\":2502:2503   */\n      dup1\n        /* \"#utility.yul\":2495:2507   */\n      revert\n        /* \"#utility.yul\":2446:2509   */\n    tag_491:\n        /* \"#utility.yul\":2393:2515   */\n      pop\n      jump\t// out\n        /* \"#utility.yul\":2521:2660   */\n    tag_428:\n        /* \"#utility.yul\":2567:2572   */\n      0x00\n        /* \"#utility.yul\":2605:2611   */\n      dup2\n        /* \"#utility.yul\":2592:2612   */\n      calldataload\n        /* \"#utility.yul\":2583:2612   */\n      swap1\n      pop\n        /* \"#utility.yul\":2621:2654   */\n      tag_493\n        /* \"#utility.yul\":2648:2653   */\n      dup2\n        /* \"#utility.yul\":2621:2654   */\n      tag_427\n      jump\t// in\n    tag_493:\n        /* \"#utility.yul\":2521:2660   */\n      swap3\n      swap2\n      pop\n      pop\n      jump\t// out\n        /* \"#utility.yul\":2666:2995   */\n    tag_57:\n        /* \"#utility.yul\":2725:2731   */\n      0x00\n        /* \"#utility.yul\":2774:2776   */\n      0x20\n        /* \"#utility.yul\":2762:2771   */\n      dup3\n        /* \"#utility.yul\":2753:2760   */\n      dup5\n        /* \"#utility.yul\":2749:2772   */\n      sub\n        /* \"#utility.yul\":2745:2777   */\n      slt\n        /* \"#utility.yul\":2742:2861   */\n      iszero\n      tag_495\n      jumpi\n        /* \"#utility.yul\":2780:2859   */\n      tag_496\n      tag_423\n      jump\t// in\n    tag_496:\n        /* \"#utility.yul\":2742:2861   */\n    tag_495:\n        /* \"#utility.yul\":2900:2901   */\n      0x00\n        /* \"#utility.yul\":2925:2978   */\n      tag_497\n        /* \"#utility.yul\":2970:2977   */\n      dup5\n        /* \"#utility.yul\":2961:2967   */\n      dup3\n        /* \"#utility.yul\":2950:2959   */\n      dup6\n        /* \"#utility.yul\":2946:2968   */\n      add\n        /* \"#utility.yul\":2925:2978   */\n      tag_428\n      jump\t// in\n    tag_497:\n        /* \"#utility.yul\":2915:2978   */\n      swap2\n      pop\n        /* \"#utility.yul\":2871:2988   */\n      pop\n        /* \"#utility.yul\":2666:2995   */\n      swap3\n      swap2\n      pop\n      pop\n      jump\t// out\n        /* \"#utility.yul\":3001:3091   */\n    tag_429:\n        /* \"#utility.yul\":3035:3042   */\n      0x00\n        /* \"#utility.yul\":3078:3083   */\n      dup2\n        /* \"#utility.yul\":3071:3084   */\n      iszero\n        /* \"#utility.yul\":3064:3085   */\n      iszero\n        /* \"#utility.yul\":3053:3085   */\n      swap1\n      pop\n        /* \"#utility.yul\":3001:3091   */\n      swap2\n      swap1\n      pop\n      jump\t// out\n        /* \"#utility.yul\":3097:3206   */\n    tag_430:\n        /* \"#utility.yul\":3178:3199   */\n      tag_500\n        /* \"#utility.yul\":3193:3198   */\n      dup2\n        /* \"#utility.yul\":3178:3199   */\n      tag_429\n      jump\t// in\n    tag_500:\n        /* \"#utility.yul\":3173:3176   */\n      dup3\n        /* \"#utility.yul\":3166:3200   */\n      mstore\n        /* \"#utility.yul\":3097:3206   */\n      pop\n      pop\n      jump\t// out\n        /* \"#utility.yul\":3212:3422   */\n    tag_60:\n        /* \"#utility.yul\":3299:3303   */\n      0x00\n        /* \"#utility.yul\":3337:3339   */\n      0x20\n        /* \"#utility.yul\":3326:3335   */\n      dup3\n        /* \"#utility.yul\":3322:3340   */\n      add\n        /* \"#utility.yul\":3314:3340   */\n      swap1\n      pop\n        /* \"#utility.yul\":3350:3415   */\n      tag_502\n        /* \"#utility.yul\":3412:3413   */\n      0x00\n        /* \"#utility.yul\":3401:3410   */\n      dup4\n        /* \"#utility.yul\":3397:3414   */\n      add\n        /* \"#utility.yul\":3388:3394   */\n      dup5\n        /* \"#utility.yul\":3350:3415   */\n      tag_430\n      jump\t// in\n    tag_502:\n        /* \"#utility.yul\":3212:3422   */\n      swap3\n      swap2\n      pop\n      pop\n      jump\t// out\n        /* \"#utility.yul\":3428:3545   */\n    tag_431:\n        /* \"#utility.yul\":3537:3538   */\n      0x00\n        /* \"#utility.yul\":3534:3535   */\n      dup1\n        /* \"#utility.yul\":3527:3539   */\n      revert\n        /* \"#utility.yul\":3551:3668   */\n    tag_432:\n        /* \"#utility.yul\":3660:3661   */\n      0x00\n        /* \"#utility.yul\":3657:3658   */\n      dup1\n        /* \"#utility.yul\":3650:3662   */\n      revert\n        /* \"#utility.yul\":3674:3854   */\n    tag_352:\n        /* \"#utility.yul\":3722:3799   */\n      0x4e487b7100000000000000000000000000000000000000000000000000000000\n        /* \"#utility.yul\":3719:3720   */\n      0x00\n        /* \"#utility.yul\":3712:3800   */\n      mstore\n        /* \"#utility.yul\":3819:3823   */\n      0x41\n        /* \"#utility.yul\":3816:3817   */\n      0x04\n        /* \"#utility.yul\":3809:3824   */\n      mstore\n        /* \"#utility.yul\":3843:3847   */\n      0x24\n        /* \"#utility.yul\":3840:3841   */\n      0x00\n        /* \"#utility.yul\":3833:3848   */\n      revert\n        /* \"#utility.yul\":3860:4141   */\n    tag_433:\n        /* \"#utility.yul\":3943:3970   */\n      tag_507\n        /* \"#utility.yul\":3965:3969   */\n      dup3\n        /* \"#utility.yul\":3943:3970   */\n      tag_420\n      jump\t// in\n    tag_507:\n        /* \"#utility.yul\":3935:3941   */\n      dup2\n        /* \"#utility.yul\":3931:3971   */\n      add\n        /* \"#utility.yul\":4073:4079   */\n      dup2\n        /* \"#utility.yul\":4061:4071   */\n      dup2\n        /* \"#utility.yul\":4058:4080   */\n      lt\n        /* \"#utility.yul\":4037:4055   */\n      0xffffffffffffffff\n        /* \"#utility.yul\":4025:4035   */\n      dup3\n        /* \"#utility.yul\":4022:4056   */\n      gt\n        /* \"#utility.yul\":4019:4081   */\n      or\n        /* \"#utility.yul\":4016:4104   */\n      iszero\n      tag_508\n      jumpi\n        /* \"#utility.yul\":4084:4102   */\n      tag_509\n      tag_352\n      jump\t// in\n    tag_509:\n        /* \"#utility.yul\":4016:4104   */\n    tag_508:\n        /* \"#utility.yul\":4124:4134   */\n      dup1\n        /* \"#utility.yul\":4120:4122   */\n      0x40\n        /* \"#utility.yul\":4113:4135   */\n      mstore\n        /* \"#utility.yul\":3903:4141   */\n      pop\n        /* \"#utility.yul\":3860:4141   */\n      pop\n      pop\n      jump\t// out\n        /* \"#utility.yul\":4147:4276   */\n    tag_434:\n        /* \"#utility.yul\":4181:4187   */\n      0x00\n        /* \"#utility.yul\":4208:4228   */\n      tag_511\n      tag_422\n      jump\t// in\n    tag_511:\n        /* \"#utility.yul\":4198:4228   */\n      swap1\n      pop\n        /* \"#utility.yul\":4237:4270   */\n      tag_512\n        /* \"#utility.yul\":4265:4269   */\n      dup3\n        /* \"#utility.yul\":4257:4263   */\n      dup3\n        /* \"#utility.yul\":4237:4270   */\n      tag_433\n      jump\t// in\n    tag_512:\n        /* \"#utility.yul\":4147:4276   */\n      swap2\n      swap1\n      pop\n      jump\t// out\n        /* \"#utility.yul\":4282:4590   */\n    tag_435:\n        /* \"#utility.yul\":4344:4348   */\n      0x00\n        /* \"#utility.yul\":4434:4452   */\n      0xffffffffffffffff\n        /* \"#utility.yul\":4426:4432   */\n      dup3\n        /* \"#utility.yul\":4423:4453   */\n      gt\n        /* \"#utility.yul\":4420:4476   */\n      iszero\n      tag_514\n      jumpi\n        /* \"#utility.yul\":4456:4474   */\n      tag_515\n      tag_352\n      jump\t// in\n    tag_515:\n        /* \"#utility.yul\":4420:4476   */\n    tag_514:\n        /* \"#utility.yul\":4494:4523   */\n      tag_516\n        /* \"#utility.yul\":4516:4522   */\n      dup3\n        /* \"#utility.yul\":4494:4523   */\n      tag_420\n      jump\t// in\n    tag_516:\n        /* \"#utility.yul\":4486:4523   */\n      swap1\n      pop\n        /* \"#utility.yul\":4578:4582   */\n      0x20\n        /* \"#utility.yul\":4572:4576   */\n      dup2\n        /* \"#utility.yul\":4568:4583   */\n      add\n        /* \"#utility.yul\":4560:4583   */\n      swap1\n      pop\n        /* \"#utility.yul\":4282:4590   */\n      swap2\n      swap1\n      pop\n      jump\t// out\n        /* \"#utility.yul\":4596:4750   */\n    tag_436:\n        /* \"#utility.yul\":4680:4686   */\n      dup3\n        /* \"#utility.yul\":4675:4678   */\n      dup2\n        /* \"#utility.yul\":4670:4673   */\n      dup4\n        /* \"#utility.yul\":4657:4687   */\n      calldatacopy\n        /* \"#utility.yul\":4742:4743   */\n      0x00\n        /* \"#utility.yul\":4733:4739   */\n      dup4\n        /* \"#utility.yul\":4728:4731   */\n      dup4\n        /* \"#utility.yul\":4724:4740   */\n      add\n        /* \"#utility.yul\":4717:4744   */\n      mstore\n        /* \"#utility.yul\":4596:4750   */\n      pop\n      pop\n      pop\n      jump\t// out\n        /* \"#utility.yul\":4756:5168   */\n    tag_437:\n        /* \"#utility.yul\":4834:4839   */\n      0x00\n        /* \"#utility.yul\":4859:4925   */\n      tag_519\n        /* \"#utility.yul\":4875:4924   */\n      tag_520\n        /* \"#utility.yul\":4917:4923   */\n      dup5\n        /* \"#utility.yul\":4875:4924   */\n      tag_435\n      jump\t// in\n    tag_520:\n        /* \"#utility.yul\":4859:4925   */\n      tag_434\n      jump\t// in\n    tag_519:\n        /* \"#utility.yul\":4850:4925   */\n      swap1\n      pop\n        /* \"#utility.yul\":4948:4954   */\n      dup3\n        /* \"#utility.yul\":4941:4946   */\n      dup2\n        /* \"#utility.yul\":4934:4955   */\n      mstore\n        /* \"#utility.yul\":4986:4990   */\n      0x20\n        /* \"#utility.yul\":4979:4984   */\n      dup2\n        /* \"#utility.yul\":4975:4991   */\n      add\n        /* \"#utility.yul\":5024:5027   */\n      dup5\n        /* \"#utility.yul\":5015:5021   */\n      dup5\n        /* \"#utility.yul\":5010:5013   */\n      dup5\n        /* \"#utility.yul\":5006:5022   */\n      add\n        /* \"#utility.yul\":5003:5028   */\n      gt\n        /* \"#utility.yul\":5000:5112   */\n      iszero\n      tag_521\n      jumpi\n        /* \"#utility.yul\":5031:5110   */\n      tag_522\n      tag_432\n      jump\t// in\n    tag_522:\n        /* \"#utility.yul\":5000:5112   */\n    tag_521:\n        /* \"#utility.yul\":5121:5162   */\n      tag_523\n        /* \"#utility.yul\":5155:5161   */\n      dup5\n        /* \"#utility.yul\":5150:5153   */\n      dup3\n        /* \"#utility.yul\":5145:5148   */\n      dup6\n        /* \"#utility.yul\":5121:5162   */\n      tag_436\n      jump\t// in\n    tag_523:\n        /* \"#utility.yul\":4840:5168   */\n      pop\n        /* \"#utility.yul\":4756:5168   */\n      swap4\n      swap3\n      pop\n      pop\n      pop\n      jump\t// out\n        /* \"#utility.yul\":5188:5528   */\n    tag_438:\n        /* \"#utility.yul\":5244:5249   */\n      0x00\n        /* \"#utility.yul\":5293:5296   */\n      dup3\n        /* \"#utility.yul\":5286:5290   */\n      0x1f\n        /* \"#utility.yul\":5278:5284   */\n      dup4\n        /* \"#utility.yul\":5274:5291   */\n      add\n        /* \"#utility.yul\":5270:5297   */\n      slt\n        /* \"#utility.yul\":5260:5382   */\n      tag_525\n      jumpi\n        /* \"#utility.yul\":5301:5380   */\n      tag_526\n      tag_431\n      jump\t// in\n    tag_526:\n        /* \"#utility.yul\":5260:5382   */\n    tag_525:\n        /* \"#utility.yul\":5418:5424   */\n      dup2\n        /* \"#utility.yul\":5405:5425   */\n      calldataload\n        /* \"#utility.yul\":5443:5522   */\n      tag_527\n        /* \"#utility.yul\":5518:5521   */\n      dup5\n        /* \"#utility.yul\":5510:5516   */\n      dup3\n        /* \"#utility.yul\":5503:5507   */\n      0x20\n        /* \"#utility.yul\":5495:5501   */\n      dup7\n        /* \"#utility.yul\":5491:5508   */\n      add\n        /* \"#utility.yul\":5443:5522   */\n      tag_437\n      jump\t// in\n    tag_527:\n        /* \"#utility.yul\":5434:5522   */\n      swap2\n      pop\n        /* \"#utility.yul\":5250:5528   */\n      pop\n        /* \"#utility.yul\":5188:5528   */\n      swap3\n      swap2\n      pop\n      pop\n      jump\t// out\n        /* \"#utility.yul\":5534:5656   */\n    tag_439:\n        /* \"#utility.yul\":5607:5631   */\n      tag_529\n        /* \"#utility.yul\":5625:5630   */\n      dup2\n        /* \"#utility.yul\":5607:5631   */\n      tag_415\n      jump\t// in\n    tag_529:\n        /* \"#utility.yul\":5600:5605   */\n      dup2\n        /* \"#utility.yul\":5597:5632   */\n      eq\n        /* \"#utility.yul\":5587:5650   */\n      tag_530\n      jumpi\n        /* \"#utility.yul\":5646:5647   */\n      0x00\n        /* \"#utility.yul\":5643:5644   */\n      dup1\n        /* \"#utility.yul\":5636:5648   */\n      revert\n        /* \"#utility.yul\":5587:5650   */\n    tag_530:\n        /* \"#utility.yul\":5534:5656   */\n      pop\n      jump\t// out\n        /* \"#utility.yul\":5662:5801   */\n    tag_440:\n        /* \"#utility.yul\":5708:5713   */\n      0x00\n        /* \"#utility.yul\":5746:5752   */\n      dup2\n        /* \"#utility.yul\":5733:5753   */\n      calldataload\n        /* \"#utility.yul\":5724:5753   */\n      swap1\n      pop\n        /* \"#utility.yul\":5762:5795   */\n      tag_532\n        /* \"#utility.yul\":5789:5794   */\n      dup2\n        /* \"#utility.yul\":5762:5795   */\n      tag_439\n      jump\t// in\n    tag_532:\n        /* \"#utility.yul\":5662:5801   */\n      swap3\n      swap2\n      pop\n      pop\n      jump\t// out\n        /* \"#utility.yul\":5807:6786   */\n    tag_64:\n        /* \"#utility.yul\":5904:5910   */\n      0x00\n        /* \"#utility.yul\":5912:5918   */\n      dup1\n        /* \"#utility.yul\":5920:5926   */\n      0x00\n        /* \"#utility.yul\":5969:5971   */\n      0x60\n        /* \"#utility.yul\":5957:5966   */\n      dup5\n        /* \"#utility.yul\":5948:5955   */\n      dup7\n        /* \"#utility.yul\":5944:5967   */\n      sub\n        /* \"#utility.yul\":5940:5972   */\n      slt\n        /* \"#utility.yul\":5937:6056   */\n      iszero\n      tag_534\n      jumpi\n        /* \"#utility.yul\":5975:6054   */\n      tag_535\n      tag_423\n      jump\t// in\n    tag_535:\n        /* \"#utility.yul\":5937:6056   */\n    tag_534:\n        /* \"#utility.yul\":6123:6124   */\n      0x00\n        /* \"#utility.yul\":6112:6121   */\n      dup5\n        /* \"#utility.yul\":6108:6125   */\n      add\n        /* \"#utility.yul\":6095:6126   */\n      calldataload\n        /* \"#utility.yul\":6153:6171   */\n      0xffffffffffffffff\n        /* \"#utility.yul\":6145:6151   */\n      dup2\n        /* \"#utility.yul\":6142:6172   */\n      gt\n        /* \"#utility.yul\":6139:6256   */\n      iszero\n      tag_536\n      jumpi\n        /* \"#utility.yul\":6175:6254   */\n      tag_537\n      tag_424\n      jump\t// in\n    tag_537:\n        /* \"#utility.yul\":6139:6256   */\n    tag_536:\n        /* \"#utility.yul\":6280:6343   */\n      tag_538\n        /* \"#utility.yul\":6335:6342   */\n      dup7\n        /* \"#utility.yul\":6326:6332   */\n      dup3\n        /* \"#utility.yul\":6315:6324   */\n      dup8\n        /* \"#utility.yul\":6311:6333   */\n      add\n        /* \"#utility.yul\":6280:6343   */\n      tag_438\n      jump\t// in\n    tag_538:\n        /* \"#utility.yul\":6270:6343   */\n      swap4\n      pop\n        /* \"#utility.yul\":6066:6353   */\n      pop\n        /* \"#utility.yul\":6420:6422   */\n      0x20\n        /* \"#utility.yul\":6409:6418   */\n      dup5\n        /* \"#utility.yul\":6405:6423   */\n      add\n        /* \"#utility.yul\":6392:6424   */\n      calldataload\n        /* \"#utility.yul\":6451:6469   */\n      0xffffffffffffffff\n        /* \"#utility.yul\":6443:6449   */\n      dup2\n        /* \"#utility.yul\":6440:6470   */\n      gt\n        /* \"#utility.yul\":6437:6554   */\n      iszero\n      tag_539\n      jumpi\n        /* \"#utility.yul\":6473:6552   */\n      tag_540\n      tag_424\n      jump\t// in\n    tag_540:\n        /* \"#utility.yul\":6437:6554   */\n    tag_539:\n        /* \"#utility.yul\":6578:6641   */\n      tag_541\n        /* \"#utility.yul\":6633:6640   */\n      dup7\n        /* \"#utility.yul\":6624:6630   */\n      dup3\n        /* \"#utility.yul\":6613:6622   */\n      dup8\n        /* \"#utility.yul\":6609:6631   */\n      add\n        /* \"#utility.yul\":6578:6641   */\n      tag_438\n      jump\t// in\n    tag_541:\n        /* \"#utility.yul\":6568:6641   */\n      swap3\n      pop\n        /* \"#utility.yul\":6363:6651   */\n      pop\n        /* \"#utility.yul\":6690:6692   */\n      0x40\n        /* \"#utility.yul\":6716:6769   */\n      tag_542\n        /* \"#utility.yul\":6761:6768   */\n      dup7\n        /* \"#utility.yul\":6752:6758   */\n      dup3\n        /* \"#utility.yul\":6741:6750   */\n      dup8\n        /* \"#utility.yul\":6737:6759   */\n      add\n        /* \"#utility.yul\":6716:6769   */\n      tag_440\n      jump\t// in\n    tag_542:\n        /* \"#utility.yul\":6706:6769   */\n      swap2\n      pop\n        /* \"#utility.yul\":6661:6779   */\n      pop\n        /* \"#utility.yul\":5807:6786   */\n      swap3\n      pop\n      swap3\n      pop\n      swap3\n      jump\t// out\n        /* \"#utility.yul\":6792:7121   */\n    tag_86:\n        /* \"#utility.yul\":6851:6857   */\n      0x00\n        /* \"#utility.yul\":6900:6902   */\n      0x20\n        /* \"#utility.yul\":6888:6897   */\n      dup3\n        /* \"#utility.yul\":6879:6886   */\n      dup5\n        /* \"#utility.yul\":6875:6898   */\n      sub\n        /* \"#utility.yul\":6871:6903   */\n      slt\n        /* \"#utility.yul\":6868:6987   */\n      iszero\n      tag_544\n      jumpi\n        /* \"#utility.yul\":6906:6985   */\n      tag_545\n      tag_423\n      jump\t// in\n    tag_545:\n        /* \"#utility.yul\":6868:6987   */\n    tag_544:\n        /* \"#utility.yul\":7026:7027   */\n      0x00\n        /* \"#utility.yul\":7051:7104   */\n      tag_546\n        /* \"#utility.yul\":7096:7103   */\n      dup5\n        /* \"#utility.yul\":7087:7093   */\n      dup3\n        /* \"#utility.yul\":7076:7085   */\n      dup6\n        /* \"#utility.yul\":7072:7094   */\n      add\n        /* \"#utility.yul\":7051:7104   */\n      tag_440\n      jump\t// in\n    tag_546:\n        /* \"#utility.yul\":7041:7104   */\n      swap2\n      pop\n        /* \"#utility.yul\":6997:7114   */\n      pop\n        /* \"#utility.yul\":6792:7121   */\n      swap3\n      swap2\n      pop\n      pop\n      jump\t// out\n        /* \"#utility.yul\":7127:7245   */\n    tag_441:\n        /* \"#utility.yul\":7214:7238   */\n      tag_548\n        /* \"#utility.yul\":7232:7237   */\n      dup2\n        /* \"#utility.yul\":7214:7238   */\n      tag_426\n      jump\t// in\n    tag_548:\n        /* \"#utility.yul\":7209:7212   */\n      dup3\n        /* \"#utility.yul\":7202:7239   */\n      mstore\n        /* \"#utility.yul\":7127:7245   */\n      pop\n      pop\n      jump\t// out\n        /* \"#utility.yul\":7251:7473   */\n    tag_107:\n        /* \"#utility.yul\":7344:7348   */\n      0x00\n        /* \"#utility.yul\":7382:7384   */\n      0x20\n        /* \"#utility.yul\":7371:7380   */\n      dup3\n        /* \"#utility.yul\":7367:7385   */\n      add\n        /* \"#utility.yul\":7359:7385   */\n      swap1\n      pop\n        /* \"#utility.yul\":7395:7466   */\n      tag_550\n        /* \"#utility.yul\":7463:7464   */\n      0x00\n        /* \"#utility.yul\":7452:7461   */\n      dup4\n        /* \"#utility.yul\":7448:7465   */\n      add\n        /* \"#utility.yul\":7439:7445   */\n      dup5\n        /* \"#utility.yul\":7395:7466   */\n      tag_441\n      jump\t// in\n    tag_550:\n        /* \"#utility.yul\":7251:7473   */\n      swap3\n      swap2\n      pop\n      pop\n      jump\t// out\n        /* \"#utility.yul\":7479:7595   */\n    tag_442:\n        /* \"#utility.yul\":7549:7570   */\n      tag_552\n        /* \"#utility.yul\":7564:7569   */\n      dup2\n        /* \"#utility.yul\":7549:7570   */\n      tag_429\n      jump\t// in\n    tag_552:\n        /* \"#utility.yul\":7542:7547   */\n      dup2\n        /* \"#utility.yul\":7539:7571   */\n      eq\n        /* \"#utility.yul\":7529:7589   */\n      tag_553\n      jumpi\n        /* \"#utility.yul\":7585:7586   */\n      0x00\n        /* \"#utility.yul\":7582:7583   */\n      dup1\n        /* \"#utility.yul\":7575:7587   */\n      revert\n        /* \"#utility.yul\":7529:7589   */\n    tag_553:\n        /* \"#utility.yul\":7479:7595   */\n      pop\n      jump\t// out\n        /* \"#utility.yul\":7601:7734   */\n    tag_443:\n        /* \"#utility.yul\":7644:7649   */\n      0x00\n        /* \"#utility.yul\":7682:7688   */\n      dup2\n        /* \"#utility.yul\":7669:7689   */\n      calldataload\n        /* \"#utility.yul\":7660:7689   */\n      swap1\n      pop\n        /* \"#utility.yul\":7698:7728   */\n      tag_555\n        /* \"#utility.yul\":7722:7727   */\n      dup2\n        /* \"#utility.yul\":7698:7728   */\n      tag_442\n      jump\t// in\n    tag_555:\n        /* \"#utility.yul\":7601:7734   */\n      swap3\n      swap2\n      pop\n      pop\n      jump\t// out\n        /* \"#utility.yul\":7740:8208   */\n    tag_114:\n        /* \"#utility.yul\":7805:7811   */\n      0x00\n        /* \"#utility.yul\":7813:7819   */\n      dup1\n        /* \"#utility.yul\":7862:7864   */\n      0x40\n        /* \"#utility.yul\":7850:7859   */\n      dup4\n        /* \"#utility.yul\":7841:7848   */\n      dup6\n        /* \"#utility.yul\":7837:7860   */\n      sub\n        /* \"#utility.yul\":7833:7865   */\n      slt\n        /* \"#utility.yul\":7830:7949   */\n      iszero\n      tag_557\n      jumpi\n        /* \"#utility.yul\":7868:7947   */\n      tag_558\n      tag_423\n      jump\t// in\n    tag_558:\n        /* \"#utility.yul\":7830:7949   */\n    tag_557:\n        /* \"#utility.yul\":7988:7989   */\n      0x00\n        /* \"#utility.yul\":8013:8066   */\n      tag_559\n        /* \"#utility.yul\":8058:8065   */\n      dup6\n        /* \"#utility.yul\":8049:8055   */\n      dup3\n        /* \"#utility.yul\":8038:8047   */\n      dup7\n        /* \"#utility.yul\":8034:8056   */\n      add\n        /* \"#utility.yul\":8013:8066   */\n      tag_440\n      jump\t// in\n    tag_559:\n        /* \"#utility.yul\":8003:8066   */\n      swap3\n      pop\n        /* \"#utility.yul\":7959:8076   */\n      pop\n        /* \"#utility.yul\":8115:8117   */\n      0x20\n        /* \"#utility.yul\":8141:8191   */\n      tag_560\n        /* \"#utility.yul\":8183:8190   */\n      dup6\n        /* \"#utility.yul\":8174:8180   */\n      dup3\n        /* \"#utility.yul\":8163:8172   */\n      dup7\n        /* \"#utility.yul\":8159:8181   */\n      add\n        /* \"#utility.yul\":8141:8191   */\n      tag_443\n      jump\t// in\n    tag_560:\n        /* \"#utility.yul\":8131:8191   */\n      swap2\n      pop\n        /* \"#utility.yul\":8086:8201   */\n      pop\n        /* \"#utility.yul\":7740:8208   */\n      swap3\n      pop\n      swap3\n      swap1\n      pop\n      jump\t// out\n        /* \"#utility.yul\":8214:8688   */\n    tag_122:\n        /* \"#utility.yul\":8282:8288   */\n      0x00\n        /* \"#utility.yul\":8290:8296   */\n      dup1\n        /* \"#utility.yul\":8339:8341   */\n      0x40\n        /* \"#utility.yul\":8327:8336   */\n      dup4\n        /* \"#utility.yul\":8318:8325   */\n      dup6\n        /* \"#utility.yul\":8314:8337   */\n      sub\n        /* \"#utility.yul\":8310:8342   */\n      slt\n        /* \"#utility.yul\":8307:8426   */\n      iszero\n      tag_562\n      jumpi\n        /* \"#utility.yul\":8345:8424   */\n      tag_563\n      tag_423\n      jump\t// in\n    tag_563:\n        /* \"#utility.yul\":8307:8426   */\n    tag_562:\n        /* \"#utility.yul\":8465:8466   */\n      0x00\n        /* \"#utility.yul\":8490:8543   */\n      tag_564\n        /* \"#utility.yul\":8535:8542   */\n      dup6\n        /* \"#utility.yul\":8526:8532   */\n      dup3\n        /* \"#utility.yul\":8515:8524   */\n      dup7\n        /* \"#utility.yul\":8511:8533   */\n      add\n        /* \"#utility.yul\":8490:8543   */\n      tag_440\n      jump\t// in\n    tag_564:\n        /* \"#utility.yul\":8480:8543   */\n      swap3\n      pop\n        /* \"#utility.yul\":8436:8553   */\n      pop\n        /* \"#utility.yul\":8592:8594   */\n      0x20\n        /* \"#utility.yul\":8618:8671   */\n      tag_565\n        /* \"#utility.yul\":8663:8670   */\n      dup6\n        /* \"#utility.yul\":8654:8660   */\n      dup3\n        /* \"#utility.yul\":8643:8652   */\n      dup7\n        /* \"#utility.yul\":8639:8661   */\n      add\n        /* \"#utility.yul\":8618:8671   */\n      tag_428\n      jump\t// in\n    tag_565:\n        /* \"#utility.yul\":8608:8671   */\n      swap2\n      pop\n        /* \"#utility.yul\":8563:8681   */\n      pop\n        /* \"#utility.yul\":8214:8688   */\n      swap3\n      pop\n      swap3\n      swap1\n      pop\n      jump\t// out\n        /* \"#utility.yul\":8694:9168   */\n    tag_159:\n        /* \"#utility.yul\":8762:8768   */\n      0x00\n        /* \"#utility.yul\":8770:8776   */\n      dup1\n        /* \"#utility.yul\":8819:8821   */\n      0x40\n        /* \"#utility.yul\":8807:8816   */\n      dup4\n        /* \"#utility.yul\":8798:8805   */\n      dup6\n        /* \"#utility.yul\":8794:8817   */\n      sub\n        /* \"#utility.yul\":8790:8822   */\n      slt\n        /* \"#utility.yul\":8787:8906   */\n      iszero\n      tag_567\n      jumpi\n        /* \"#utility.yul\":8825:8904   */\n      tag_568\n      tag_423\n      jump\t// in\n    tag_568:\n        /* \"#utility.yul\":8787:8906   */\n    tag_567:\n        /* \"#utility.yul\":8945:8946   */\n      0x00\n        /* \"#utility.yul\":8970:9023   */\n      tag_569\n        /* \"#utility.yul\":9015:9022   */\n      dup6\n        /* \"#utility.yul\":9006:9012   */\n      dup3\n        /* \"#utility.yul\":8995:9004   */\n      dup7\n        /* \"#utility.yul\":8991:9013   */\n      add\n        /* \"#utility.yul\":8970:9023   */\n      tag_428\n      jump\t// in\n    tag_569:\n        /* \"#utility.yul\":8960:9023   */\n      swap3\n      pop\n        /* \"#utility.yul\":8916:9033   */\n      pop\n        /* \"#utility.yul\":9072:9074   */\n      0x20\n        /* \"#utility.yul\":9098:9151   */\n      tag_570\n        /* \"#utility.yul\":9143:9150   */\n      dup6\n        /* \"#utility.yul\":9134:9140   */\n      dup3\n        /* \"#utility.yul\":9123:9132   */\n      dup7\n        /* \"#utility.yul\":9119:9141   */\n      add\n        /* \"#utility.yul\":9098:9151   */\n      tag_440\n      jump\t// in\n    tag_570:\n        /* \"#utility.yul\":9088:9151   */\n      swap2\n      pop\n        /* \"#utility.yul\":9043:9161   */\n      pop\n        /* \"#utility.yul\":8694:9168   */\n      swap3\n      pop\n      swap3\n      swap1\n      pop\n      jump\t// out\n        /* \"#utility.yul\":9174:10008   */\n    tag_182:\n        /* \"#utility.yul\":9413:9417   */\n      0x00\n        /* \"#utility.yul\":9451:9454   */\n      0xa0\n        /* \"#utility.yul\":9440:9449   */\n      dup3\n        /* \"#utility.yul\":9436:9455   */\n      add\n        /* \"#utility.yul\":9428:9455   */\n      swap1\n      pop\n        /* \"#utility.yul\":9501:9510   */\n      dup2\n        /* \"#utility.yul\":9495:9499   */\n      dup2\n        /* \"#utility.yul\":9491:9511   */\n      sub\n        /* \"#utility.yul\":9487:9488   */\n      0x00\n        /* \"#utility.yul\":9476:9485   */\n      dup4\n        /* \"#utility.yul\":9472:9489   */\n      add\n        /* \"#utility.yul\":9465:9512   */\n      mstore\n        /* \"#utility.yul\":9529:9607   */\n      tag_572\n        /* \"#utility.yul\":9602:9606   */\n      dup2\n        /* \"#utility.yul\":9593:9599   */\n      dup9\n        /* \"#utility.yul\":9529:9607   */\n      tag_421\n      jump\t// in\n    tag_572:\n        /* \"#utility.yul\":9521:9607   */\n      swap1\n      pop\n        /* \"#utility.yul\":9654:9663   */\n      dup2\n        /* \"#utility.yul\":9648:9652   */\n      dup2\n        /* \"#utility.yul\":9644:9664   */\n      sub\n        /* \"#utility.yul\":9639:9641   */\n      0x20\n        /* \"#utility.yul\":9628:9637   */\n      dup4\n        /* \"#utility.yul\":9624:9642   */\n      add\n        /* \"#utility.yul\":9617:9665   */\n      mstore\n        /* \"#utility.yul\":9682:9760   */\n      tag_573\n        /* \"#utility.yul\":9755:9759   */\n      dup2\n        /* \"#utility.yul\":9746:9752   */\n      dup8\n        /* \"#utility.yul\":9682:9760   */\n      tag_421\n      jump\t// in\n    tag_573:\n        /* \"#utility.yul\":9674:9760   */\n      swap1\n      pop\n        /* \"#utility.yul\":9770:9842   */\n      tag_574\n        /* \"#utility.yul\":9838:9840   */\n      0x40\n        /* \"#utility.yul\":9827:9836   */\n      dup4\n        /* \"#utility.yul\":9823:9841   */\n      add\n        /* \"#utility.yul\":9814:9820   */\n      dup7\n        /* \"#utility.yul\":9770:9842   */\n      tag_416\n      jump\t// in\n    tag_574:\n        /* \"#utility.yul\":9852:9918   */\n      tag_575\n        /* \"#utility.yul\":9914:9916   */\n      0x60\n        /* \"#utility.yul\":9903:9912   */\n      dup4\n        /* \"#utility.yul\":9899:9917   */\n      add\n        /* \"#utility.yul\":9890:9896   */\n      dup6\n        /* \"#utility.yul\":9852:9918   */\n      tag_430\n      jump\t// in\n    tag_575:\n        /* \"#utility.yul\":9928:10001   */\n      tag_576\n        /* \"#utility.yul\":9996:9999   */\n      0x80\n        /* \"#utility.yul\":9985:9994   */\n      dup4\n        /* \"#utility.yul\":9981:10000   */\n      add\n        /* \"#utility.yul\":9972:9978   */\n      dup5\n        /* \"#utility.yul\":9928:10001   */\n      tag_416\n      jump\t// in\n    tag_576:\n        /* \"#utility.yul\":9174:10008   */\n      swap7\n      swap6\n      pop\n      pop\n      pop\n      pop\n      pop\n      pop\n      jump\t// out\n        /* \"#utility.yul\":10014:10194   */\n    tag_444:\n        /* \"#utility.yul\":10062:10139   */\n      0x4e487b7100000000000000000000000000000000000000000000000000000000\n        /* \"#utility.yul\":10059:10060   */\n      0x00\n        /* \"#utility.yul\":10052:10140   */\n      mstore\n        /* \"#utility.yul\":10159:10163   */\n      0x22\n        /* \"#utility.yul\":10156:10157   */\n      0x04\n        /* \"#utility.yul\":10149:10164   */\n      mstore\n        /* \"#utility.yul\":10183:10187   */\n      0x24\n        /* \"#utility.yul\":10180:10181   */\n      0x00\n        /* \"#utility.yul\":10173:10188   */\n      revert\n        /* \"#utility.yul\":10200:10520   */\n    tag_201:\n        /* \"#utility.yul\":10244:10250   */\n      0x00\n        /* \"#utility.yul\":10281:10282   */\n      0x02\n        /* \"#utility.yul\":10275:10279   */\n      dup3\n        /* \"#utility.yul\":10271:10283   */\n      div\n        /* \"#utility.yul\":10261:10283   */\n      swap1\n      pop\n        /* \"#utility.yul\":10328:10329   */\n      0x01\n        /* \"#utility.yul\":10322:10326   */\n      dup3\n        /* \"#utility.yul\":10318:10330   */\n      and\n        /* \"#utility.yul\":10349:10367   */\n      dup1\n        /* \"#utility.yul\":10339:10420   */\n      tag_579\n      jumpi\n        /* \"#utility.yul\":10405:10409   */\n      0x7f\n        /* \"#utility.yul\":10397:10403   */\n      dup3\n        /* \"#utility.yul\":10393:10410   */\n      and\n        /* \"#utility.yul\":10383:10410   */\n      swap2\n      pop\n        /* \"#utility.yul\":10339:10420   */\n    tag_579:\n        /* \"#utility.yul\":10467:10469   */\n      0x20\n        /* \"#utility.yul\":10459:10465   */\n      dup3\n        /* \"#utility.yul\":10456:10470   */\n      lt\n        /* \"#utility.yul\":10436:10454   */\n      dup2\n        /* \"#utility.yul\":10433:10471   */\n      sub\n        /* \"#utility.yul\":10430:10514   */\n      tag_580\n      jumpi\n        /* \"#utility.yul\":10486:10504   */\n      tag_581\n      tag_444\n      jump\t// in\n    tag_581:\n        /* \"#utility.yul\":10430:10514   */\n    tag_580:\n        /* \"#utility.yul\":10251:10520   */\n      pop\n        /* \"#utility.yul\":10200:10520   */\n      swap2\n      swap1\n      pop\n      jump\t// out\n        /* \"#utility.yul\":10526:10667   */\n    tag_445:\n        /* \"#utility.yul\":10575:10579   */\n      0x00\n        /* \"#utility.yul\":10598:10601   */\n      dup2\n        /* \"#utility.yul\":10590:10601   */\n      swap1\n      pop\n        /* \"#utility.yul\":10621:10624   */\n      dup2\n        /* \"#utility.yul\":10618:10619   */\n      0x00\n        /* \"#utility.yul\":10611:10625   */\n      mstore\n        /* \"#utility.yul\":10655:10659   */\n      0x20\n        /* \"#utility.yul\":10652:10653   */\n      0x00\n        /* \"#utility.yul\":10642:10660   */\n      keccak256\n        /* \"#utility.yul\":10634:10660   */\n      swap1\n      pop\n        /* \"#utility.yul\":10526:10667   */\n      swap2\n      swap1\n      pop\n      jump\t// out\n        /* \"#utility.yul\":10673:10766   */\n    tag_446:\n        /* \"#utility.yul\":10710:10716   */\n      0x00\n        /* \"#utility.yul\":10757:10759   */\n      0x20\n        /* \"#utility.yul\":10752:10754   */\n      0x1f\n        /* \"#utility.yul\":10745:10750   */\n      dup4\n        /* \"#utility.yul\":10741:10755   */\n      add\n        /* \"#utility.yul\":10737:10760   */\n      div\n        /* \"#utility.yul\":10727:10760   */\n      swap1\n      pop\n        /* \"#utility.yul\":10673:10766   */\n      swap2\n      swap1\n      pop\n      jump\t// out\n        /* \"#utility.yul\":10772:10879   */\n    tag_447:\n        /* \"#utility.yul\":10816:10824   */\n      0x00\n        /* \"#utility.yul\":10866:10871   */\n      dup3\n        /* \"#utility.yul\":10860:10864   */\n      dup3\n        /* \"#utility.yul\":10856:10872   */\n      shl\n        /* \"#utility.yul\":10835:10872   */\n      swap1\n      pop\n        /* \"#utility.yul\":10772:10879   */\n      swap3\n      swap2\n      pop\n      pop\n      jump\t// out\n        /* \"#utility.yul\":10885:11278   */\n    tag_448:\n        /* \"#utility.yul\":10954:10960   */\n      0x00\n        /* \"#utility.yul\":11004:11005   */\n      0x08\n        /* \"#utility.yul\":10992:11002   */\n      dup4\n        /* \"#utility.yul\":10988:11006   */\n      mul\n        /* \"#utility.yul\":11027:11124   */\n      tag_586\n        /* \"#utility.yul\":11057:11123   */\n      0xffffffffffffffffffffffffffffffffffffffffffffffffffffffffffffffff\n        /* \"#utility.yul\":11046:11055   */\n      dup3\n        /* \"#utility.yul\":11027:11124   */\n      tag_447\n      jump\t// in\n    tag_586:\n        /* \"#utility.yul\":11145:11184   */\n      tag_587\n        /* \"#utility.yul\":11175:11183   */\n      dup7\n        /* \"#utility.yul\":11164:11173   */\n      dup4\n        /* \"#utility.yul\":11145:11184   */\n      tag_447\n      jump\t// in\n    tag_587:\n        /* \"#utility.yul\":11133:11184   */\n      swap6\n      pop\n        /* \"#utility.yul\":11217:11221   */\n      dup1\n        /* \"#utility.yul\":11213:11222   */\n      not\n        /* \"#utility.yul\":11206:11211   */\n      dup5\n        /* \"#utility.yul\":11202:11223   */\n      and\n        /* \"#utility.yul\":11193:11223   */\n      swap4\n      pop\n        /* \"#utility.yul\":11266:11270   */\n      dup1\n        /* \"#utility.yul\":11256:11264   */\n      dup7\n        /* \"#utility.yul\":11252:11271   */\n      and\n        /* \"#utility.yul\":11245:11250   */\n      dup5\n        /* \"#utility.yul\":11242:11272   */\n      or\n        /* \"#utility.yul\":11232:11272   */\n      swap3\n      pop\n        /* \"#utility.yul\":10961:11278   */\n      pop\n      pop\n        /* \"#utility.yul\":10885:11278   */\n      swap4\n      swap3\n      pop\n      pop\n      pop\n      jump\t// out\n        /* \"#utility.yul\":11284:11344   */\n    tag_449:\n        /* \"#utility.yul\":11312:11315   */\n      0x00\n        /* \"#utility.yul\":11333:11338   */\n      dup2\n        /* \"#utility.yul\":11326:11338   */\n      swap1\n      pop\n        /* \"#utility.yul\":11284:11344   */\n      swap2\n      swap1\n      pop\n      jump\t// out\n        /* \"#utility.yul\":11350:11492   */\n    tag_450:\n        /* \"#utility.yul\":11400:11409   */\n      0x00\n        /* \"#utility.yul\":11433:11486   */\n      tag_590\n        /* \"#utility.yul\":11451:11485   */\n      tag_591\n        /* \"#utility.yul\":11460:11484   */\n      tag_592\n        /* \"#utility.yul\":11478:11483   */\n      dup5\n        /* \"#utility.yul\":11460:11484   */\n      tag_415\n      jump\t// in\n    tag_592:\n        /* \"#utility.yul\":11451:11485   */\n      tag_449\n      jump\t// in\n    tag_591:\n        /* \"#utility.yul\":11433:11486   */\n      tag_415\n      jump\t// in\n    tag_590:\n        /* \"#utility.yul\":11420:11486   */\n      swap1\n      pop\n        /* \"#utility.yul\":11350:11492   */\n      swap2\n      swap1\n      pop\n      jump\t// out\n        /* \"#utility.yul\":11498:11573   */\n    tag_451:\n        /* \"#utility.yul\":11541:11544   */\n      0x00\n        /* \"#utility.yul\":11562:11567   */\n      dup2\n        /* \"#utility.yul\":11555:11567   */\n      swap1\n      pop\n        /* \"#utility.yul\":11498:11573   */\n      swap2\n      swap1\n      pop\n      jump\t// out\n        /* \"#utility.yul\":11579:11848   */\n    tag_452:\n        /* \"#utility.yul\":11689:11728   */\n      tag_595\n        /* \"#utility.yul\":11720:11727   */\n      dup4\n        /* \"#utility.yul\":11689:11728   */\n      tag_450\n      jump\t// in\n    tag_595:\n        /* \"#utility.yul\":11750:11841   */\n      tag_596\n        /* \"#utility.yul\":11799:11840   */\n      tag_597\n        /* \"#utility.yul\":11823:11839   */\n      dup3\n        /* \"#utility.yul\":11799:11840   */\n      tag_451\n      jump\t// in\n    tag_597:\n        /* \"#utility.yul\":11791:11797   */\n      dup5\n        /* \"#utility.yul\":11784:11788   */\n      dup5\n        /* \"#utility.yul\":11778:11789   */\n      sload\n        /* \"#utility.yul\":11750:11841   */\n      tag_448\n      jump\t// in\n    tag_596:\n        /* \"#utility.yul\":11744:11748   */\n      dup3\n        /* \"#utility.yul\":11737:11842   */\n      sstore\n        /* \"#utility.yul\":11655:11848   */\n      pop\n        /* \"#utility.yul\":11579:11848   */\n      pop\n      pop\n      pop\n      jump\t// out\n        /* \"#utility.yul\":11854:11927   */\n    tag_453:\n        /* \"#utility.yul\":11899:11902   */\n      0x00\n        /* \"#utility.yul\":11854:11927   */\n      swap1\n      jump\t// out\n        /* \"#utility.yul\":11933:12122   */\n    tag_454:\n        /* \"#utility.yul\":12010:12042   */\n      tag_600\n      tag_453\n      jump\t// in\n    tag_600:\n        /* \"#utility.yul\":12051:12116   */\n      tag_601\n        /* \"#utility.yul\":12109:12115   */\n      dup2\n        /* \"#utility.yul\":12101:12107   */\n      dup5\n        /* \"#utility.yul\":12095:12099   */\n      dup5\n        /* \"#utility.yul\":12051:12116   */\n      tag_452\n      jump\t// in\n    tag_601:\n        /* \"#utility.yul\":11986:12122   */\n      pop\n        /* \"#utility.yul\":11933:12122   */\n      pop\n      pop\n      jump\t// out\n        /* \"#utility.yul\":12128:12314   */\n    tag_455:\n        /* \"#utility.yul\":12188:12308   */\n    tag_603:\n        /* \"#utility.yul\":12205:12208   */\n      dup2\n        /* \"#utility.yul\":12198:12203   */\n      dup2\n        /* \"#utility.yul\":12195:12209   */\n      lt\n        /* \"#utility.yul\":12188:12308   */\n      iszero\n      tag_605\n      jumpi\n        /* \"#utility.yul\":12259:12298   */\n      tag_606\n        /* \"#utility.yul\":12296:12297   */\n      0x00\n        /* \"#utility.yul\":12289:12294   */\n      dup3\n        /* \"#utility.yul\":12259:12298   */\n      tag_454\n      jump\t// in\n    tag_606:\n        /* \"#utility.yul\":12232:12233   */\n      0x01\n        /* \"#utility.yul\":12225:12230   */\n      dup2\n        /* \"#utility.yul\":12221:12234   */\n      add\n        /* \"#utility.yul\":12212:12234   */\n      swap1\n      pop\n        /* \"#utility.yul\":12188:12308   */\n      jump(tag_603)\n    tag_605:\n        /* \"#utility.yul\":12128:12314   */\n      pop\n      pop\n      jump\t// out\n        /* \"#utility.yul\":12320:12863   */\n    tag_456:\n        /* \"#utility.yul\":12421:12423   */\n      0x1f\n        /* \"#utility.yul\":12416:12419   */\n      dup3\n        /* \"#utility.yul\":12413:12424   */\n      gt\n        /* \"#utility.yul\":12410:12856   */\n      iszero\n      tag_608\n      jumpi\n        /* \"#utility.yul\":12455:12493   */\n      tag_609\n        /* \"#utility.yul\":12487:12492   */\n      dup2\n        /* \"#utility.yul\":12455:12493   */\n      tag_445\n      jump\t// in\n    tag_609:\n        /* \"#utility.yul\":12539:12568   */\n      tag_610\n        /* \"#utility.yul\":12557:12567   */\n      dup5\n        /* \"#utility.yul\":12539:12568   */\n      tag_446\n      jump\t// in\n    tag_610:\n        /* \"#utility.yul\":12529:12537   */\n      dup2\n        /* \"#utility.yul\":12525:12569   */\n      add\n        /* \"#utility.yul\":12722:12724   */\n      0x20\n        /* \"#utility.yul\":12710:12720   */\n      dup6\n        /* \"#utility.yul\":12707:12725   */\n      lt\n        /* \"#utility.yul\":12704:12753   */\n      iszero\n      tag_611\n      jumpi\n        /* \"#utility.yul\":12743:12751   */\n      dup2\n        /* \"#utility.yul\":12728:12751   */\n      swap1\n      pop\n        /* \"#utility.yul\":12704:12753   */\n    tag_611:\n        /* \"#utility.yul\":12766:12846   */\n      tag_612\n        /* \"#utility.yul\":12822:12844   */\n      tag_613\n        /* \"#utility.yul\":12840:12843   */\n      dup6\n        /* \"#utility.yul\":12822:12844   */\n      tag_446\n      jump\t// in\n    tag_613:\n        /* \"#utility.yul\":12812:12820   */\n      dup4\n        /* \"#utility.yul\":12808:12845   */\n      add\n        /* \"#utility.yul\":12795:12806   */\n      dup3\n        /* \"#utility.yul\":12766:12846   */\n      tag_455\n      jump\t// in\n    tag_612:\n        /* \"#utility.yul\":12425:12856   */\n      pop\n      pop\n        /* \"#utility.yul\":12410:12856   */\n    tag_608:\n        /* \"#utility.yul\":12320:12863   */\n      pop\n      pop\n      pop\n      jump\t// out\n        /* \"#utility.yul\":12869:12986   */\n    tag_457:\n        /* \"#utility.yul\":12923:12931   */\n      0x00\n        /* \"#utility.yul\":12973:12978   */\n      dup3\n        /* \"#utility.yul\":12967:12971   */\n      dup3\n        /* \"#utility.yul\":12963:12979   */\n      shr\n        /* \"#utility.yul\":12942:12979   */\n      swap1\n      pop\n        /* \"#utility.yul\":12869:12986   */\n      swap3\n      swap2\n      pop\n      pop\n      jump\t// out\n        /* \"#utility.yul\":12992:13161   */\n    tag_458:\n        /* \"#utility.yul\":13036:13042   */\n      0x00\n        /* \"#utility.yul\":13069:13120   */\n      tag_616\n        /* \"#utility.yul\":13117:13118   */\n      0x00\n        /* \"#utility.yul\":13113:13119   */\n      not\n        /* \"#utility.yul\":13105:13110   */\n      dup5\n        /* \"#utility.yul\":13102:13103   */\n      0x08\n        /* \"#utility.yul\":13098:13111   */\n      mul\n        /* \"#utility.yul\":13069:13120   */\n      tag_457\n      jump\t// in\n    tag_616:\n        /* \"#utility.yul\":13065:13121   */\n      not\n        /* \"#utility.yul\":13150:13154   */\n      dup1\n        /* \"#utility.yul\":13144:13148   */\n      dup4\n        /* \"#utility.yul\":13140:13155   */\n      and\n        /* \"#utility.yul\":13130:13155   */\n      swap2\n      pop\n        /* \"#utility.yul\":13043:13161   */\n      pop\n        /* \"#utility.yul\":12992:13161   */\n      swap3\n      swap2\n      pop\n      pop\n      jump\t// out\n        /* \"#utility.yul\":13166:13461   */\n    tag_459:\n        /* \"#utility.yul\":13242:13246   */\n      0x00\n        /* \"#utility.yul\":13388:13417   */\n      tag_618\n        /* \"#utility.yul\":13413:13416   */\n      dup4\n        /* \"#utility.yul\":13407:13411   */\n      dup4\n        /* \"#utility.yul\":13388:13417   */\n      tag_458\n      jump\t// in\n    tag_618:\n        /* \"#utility.yul\":13380:13417   */\n      swap2\n      pop\n        /* \"#utility.yul\":13450:13453   */\n      dup3\n        /* \"#utility.yul\":13447:13448   */\n      0x02\n        /* \"#utility.yul\":13443:13454   */\n      mul\n        /* \"#utility.yul\":13437:13441   */\n      dup3\n        /* \"#utility.yul\":13434:13455   */\n      or\n        /* \"#utility.yul\":13426:13455   */\n      swap1\n      pop\n        /* \"#utility.yul\":13166:13461   */\n      swap3\n      swap2\n      pop\n      pop\n      jump\t// out\n        /* \"#utility.yul\":13466:14861   */\n    tag_211:\n        /* \"#utility.yul\":13583:13620   */\n      tag_620\n        /* \"#utility.yul\":13616:13619   */\n      dup3\n        /* \"#utility.yul\":13583:13620   */\n      tag_417\n      jump\t// in\n    tag_620:\n        /* \"#utility.yul\":13685:13703   */\n      0xffffffffffffffff\n        /* \"#utility.yul\":13677:13683   */\n      dup2\n        /* \"#utility.yul\":13674:13704   */\n      gt\n        /* \"#utility.yul\":13671:13727   */\n      iszero\n      tag_621\n      jumpi\n        /* \"#utility.yul\":13707:13725   */\n      tag_622\n      tag_352\n      jump\t// in\n    tag_622:\n        /* \"#utility.yul\":13671:13727   */\n    tag_621:\n        /* \"#utility.yul\":13751:13789   */\n      tag_623\n        /* \"#utility.yul\":13783:13787   */\n      dup3\n        /* \"#utility.yul\":13777:13788   */\n      sload\n        /* \"#utility.yul\":13751:13789   */\n      tag_201\n      jump\t// in\n    tag_623:\n        /* \"#utility.yul\":13836:13903   */\n      tag_624\n        /* \"#utility.yul\":13896:13902   */\n      dup3\n        /* \"#utility.yul\":13888:13894   */\n      dup3\n        /* \"#utility.yul\":13882:13886   */\n      dup6\n        /* \"#utility.yul\":13836:13903   */\n      tag_456\n      jump\t// in\n    tag_624:\n        /* \"#utility.yul\":13930:13931   */\n      0x00\n        /* \"#utility.yul\":13954:13958   */\n      0x20\n        /* \"#utility.yul\":13941:13958   */\n      swap1\n      pop\n        /* \"#utility.yul\":13986:13988   */\n      0x1f\n        /* \"#utility.yul\":13978:13984   */\n      dup4\n        /* \"#utility.yul\":13975:13989   */\n      gt\n        /* \"#utility.yul\":14003:14004   */\n      0x01\n        /* \"#utility.yul\":13998:14616   */\n      dup2\n      eq\n      tag_626\n      jumpi\n        /* \"#utility.yul\":14660:14661   */\n      0x00\n        /* \"#utility.yul\":14677:14683   */\n      dup5\n        /* \"#utility.yul\":14674:14751   */\n      iszero\n      tag_627\n      jumpi\n        /* \"#utility.yul\":14726:14735   */\n      dup3\n        /* \"#utility.yul\":14721:14724   */\n      dup8\n        /* \"#utility.yul\":14717:14736   */\n      add\n        /* \"#utility.yul\":14711:14737   */\n      mload\n        /* \"#utility.yul\":14702:14737   */\n      swap1\n      pop\n        /* \"#utility.yul\":14674:14751   */\n    tag_627:\n        /* \"#utility.yul\":14777:14844   */\n      tag_628\n        /* \"#utility.yul\":14837:14843   */\n      dup6\n        /* \"#utility.yul\":14830:14835   */\n      dup3\n        /* \"#utility.yul\":14777:14844   */\n      tag_459\n      jump\t// in\n    tag_628:\n        /* \"#utility.yul\":14771:14775   */\n      dup7\n        /* \"#utility.yul\":14764:14845   */\n      sstore\n        /* \"#utility.yul\":14633:14855   */\n      pop\n        /* \"#utility.yul\":13968:14855   */\n      jump(tag_625)\n        /* \"#utility.yul\":13998:14616   */\n    tag_626:\n        /* \"#utility.yul\":14050:14054   */\n      0x1f\n        /* \"#utility.yul\":14046:14055   */\n      not\n        /* \"#utility.yul\":14038:14044   */\n      dup5\n        /* \"#utility.yul\":14034:14056   */\n      and\n        /* \"#utility.yul\":14084:14121   */\n      tag_629\n        /* \"#utility.yul\":14116:14120   */\n      dup7\n        /* \"#utility.yul\":14084:14121   */\n      tag_445\n      jump\t// in\n    tag_629:\n        /* \"#utility.yul\":14143:14144   */\n      0x00\n        /* \"#utility.yul\":14157:14365   */\n    tag_630:\n        /* \"#utility.yul\":14171:14178   */\n      dup3\n        /* \"#utility.yul\":14168:14169   */\n      dup2\n        /* \"#utility.yul\":14165:14179   */\n      lt\n        /* \"#utility.yul\":14157:14365   */\n      iszero\n      tag_632\n      jumpi\n        /* \"#utility.yul\":14250:14259   */\n      dup5\n        /* \"#utility.yul\":14245:14248   */\n      dup10\n        /* \"#utility.yul\":14241:14260   */\n      add\n        /* \"#utility.yul\":14235:14261   */\n      mload\n        /* \"#utility.yul\":14227:14233   */\n      dup3\n        /* \"#utility.yul\":14220:14262   */\n      sstore\n        /* \"#utility.yul\":14301:14302   */\n      0x01\n        /* \"#utility.yul\":14293:14299   */\n      dup3\n        /* \"#utility.yul\":14289:14303   */\n      add\n        /* \"#utility.yul\":14279:14303   */\n      swap2\n      pop\n        /* \"#utility.yul\":14348:14350   */\n      0x20\n        /* \"#utility.yul\":14337:14346   */\n      dup6\n        /* \"#utility.yul\":14333:14351   */\n      add\n        /* \"#utility.yul\":14320:14351   */\n      swap5\n      pop\n        /* \"#utility.yul\":14194:14198   */\n      0x20\n        /* \"#utility.yul\":14191:14192   */\n      dup2\n        /* \"#utility.yul\":14187:14199   */\n      add\n        /* \"#utility.yul\":14182:14199   */\n      swap1\n      pop\n        /* \"#utility.yul\":14157:14365   */\n      jump(tag_630)\n    tag_632:\n        /* \"#utility.yul\":14393:14399   */\n      dup7\n        /* \"#utility.yul\":14384:14391   */\n      dup4\n        /* \"#utility.yul\":14381:14400   */\n      lt\n        /* \"#utility.yul\":14378:14557   */\n      iszero\n      tag_633\n      jumpi\n        /* \"#utility.yul\":14451:14460   */\n      dup5\n        /* \"#utility.yul\":14446:14449   */\n      dup10\n        /* \"#utility.yul\":14442:14461   */\n      add\n        /* \"#utility.yul\":14436:14462   */\n      mload\n        /* \"#utility.yul\":14494:14542   */\n      tag_634\n        /* \"#utility.yul\":14536:14540   */\n      0x1f\n        /* \"#utility.yul\":14528:14534   */\n      dup10\n        /* \"#utility.yul\":14524:14541   */\n      and\n        /* \"#utility.yul\":14513:14522   */\n      dup3\n        /* \"#utility.yul\":14494:14542   */\n      tag_458\n      jump\t// in\n    tag_634:\n        /* \"#utility.yul\":14486:14492   */\n      dup4\n        /* \"#utility.yul\":14479:14543   */\n      sstore\n        /* \"#utility.yul\":14401:14557   */\n      pop\n        /* \"#utility.yul\":14378:14557   */\n    tag_633:\n        /* \"#utility.yul\":14603:14604   */\n      0x01\n        /* \"#utility.yul\":14599:14600   */\n      0x02\n        /* \"#utility.yul\":14591:14597   */\n      dup9\n        /* \"#utility.yul\":14587:14601   */\n      mul\n        /* \"#utility.yul\":14583:14605   */\n      add\n        /* \"#utility.yul\":14577:14581   */\n      dup9\n        /* \"#utility.yul\":14570:14606   */\n      sstore\n        /* \"#utility.yul\":14005:14616   */\n      pop\n      pop\n      pop\n        /* \"#utility.yul\":13968:14855   */\n    tag_625:\n      pop\n        /* \"#utility.yul\":13558:14861   */\n      pop\n      pop\n      pop\n        /* \"#utility.yul\":13466:14861   */\n      pop\n      pop\n      jump\t// out\n        /* \"#utility.yul\":14867:15047   */\n    tag_460:\n        /* \"#utility.yul\":14915:14992   */\n      0x4e487b7100000000000000000000000000000000000000000000000000000000\n        /* \"#utility.yul\":14912:14913   */\n      0x00\n        /* \"#utility.yul\":14905:14993   */\n      mstore\n        /* \"#utility.yul\":15012:15016   */\n      0x11\n        /* \"#utility.yul\":15009:15010   */\n      0x04\n        /* \"#utility.yul\":15002:15017   */\n      mstore\n        /* \"#utility.yul\":15036:15040   */\n      0x24\n        /* \"#utility.yul\":15033:15034   */\n      0x00\n        /* \"#utility.yul\":15026:15041   */\n      revert\n        /* \"#utility.yul\":15053:15286   */\n    tag_214:\n        /* \"#utility.yul\":15092:15095   */\n      0x00\n        /* \"#utility.yul\":15115:15139   */\n      tag_637\n        /* \"#utility.yul\":15133:15138   */\n      dup3\n        /* \"#utility.yul\":15115:15139   */\n      tag_415\n      jump\t// in\n    tag_637:\n        /* \"#utility.yul\":15106:15139   */\n      swap2\n      pop\n        /* \"#utility.yul\":15161:15227   */\n      0xffffffffffffffffffffffffffffffffffffffffffffffffffffffffffffffff\n        /* \"#utility.yul\":15154:15159   */\n      dup3\n        /* \"#utility.yul\":15151:15228   */\n      sub\n        /* \"#utility.yul\":15148:15251   */\n      tag_638\n      jumpi\n        /* \"#utility.yul\":15231:15249   */\n      tag_639\n      tag_460\n      jump\t// in\n    tag_639:\n        /* \"#utility.yul\":15148:15251   */\n    tag_638:\n        /* \"#utility.yul\":15278:15279   */\n      0x01\n        /* \"#utility.yul\":15271:15276   */\n      dup3\n        /* \"#utility.yul\":15267:15280   */\n      add\n        /* \"#utility.yul\":15260:15280   */\n      swap1\n      pop\n        /* \"#utility.yul\":15053:15286   */\n      swap2\n      swap1\n      pop\n      jump\t// out\n        /* \"#utility.yul\":15292:15483   */\n    tag_217:\n        /* \"#utility.yul\":15332:15336   */\n      0x00\n        /* \"#utility.yul\":15352:15372   */\n      tag_641\n        /* \"#utility.yul\":15370:15371   */\n      dup3\n        /* \"#utility.yul\":15352:15372   */\n      tag_415\n      jump\t// in\n    tag_641:\n        /* \"#utility.yul\":15347:15372   */\n      swap2\n      pop\n        /* \"#utility.yul\":15386:15406   */\n      tag_642\n        /* \"#utility.yul\":15404:15405   */\n      dup4\n        /* \"#utility.yul\":15386:15406   */\n      tag_415\n      jump\t// in\n    tag_642:\n        /* \"#utility.yul\":15381:15406   */\n      swap3\n      pop\n        /* \"#utility.yul\":15425:15426   */\n      dup3\n        /* \"#utility.yul\":15422:15423   */\n      dup3\n        /* \"#utility.yul\":15419:15427   */\n      lt\n        /* \"#utility.yul\":15416:15450   */\n      iszero\n      tag_643\n      jumpi\n        /* \"#utility.yul\":15430:15448   */\n      tag_644\n      tag_460\n      jump\t// in\n    tag_644:\n        /* \"#utility.yul\":15416:15450   */\n    tag_643:\n        /* \"#utility.yul\":15475:15476   */\n      dup3\n        /* \"#utility.yul\":15472:15473   */\n      dup3\n        /* \"#utility.yul\":15468:15477   */\n      sub\n        /* \"#utility.yul\":15460:15477   */\n      swap1\n      pop\n        /* \"#utility.yul\":15292:15483   */\n      swap3\n      swap2\n      pop\n      pop\n      jump\t// out\n        /* \"#utility.yul\":15489:15837   */\n    tag_219:\n        /* \"#utility.yul\":15529:15536   */\n      0x00\n        /* \"#utility.yul\":15552:15572   */\n      tag_646\n        /* \"#utility.yul\":15570:15571   */\n      dup3\n        /* \"#utility.yul\":15552:15572   */\n      tag_415\n      jump\t// in\n    tag_646:\n        /* \"#utility.yul\":15547:15572   */\n      swap2\n      pop\n        /* \"#utility.yul\":15586:15606   */\n      tag_647\n        /* \"#utility.yul\":15604:15605   */\n      dup4\n        /* \"#utility.yul\":15586:15606   */\n      tag_415\n      jump\t// in\n    tag_647:\n        /* \"#utility.yul\":15581:15606   */\n      swap3\n      pop\n        /* \"#utility.yul\":15774:15775   */\n      dup2\n        /* \"#utility.yul\":15706:15772   */\n      0xffffffffffffffffffffffffffffffffffffffffffffffffffffffffffffffff\n        /* \"#utility.yul\":15702:15776   */\n      div\n        /* \"#utility.yul\":15699:15700   */\n      dup4\n        /* \"#utility.yul\":15696:15777   */\n      gt\n        /* \"#utility.yul\":15691:15692   */\n      dup3\n        /* \"#utility.yul\":15684:15693   */\n      iszero\n        /* \"#utility.yul\":15677:15694   */\n      iszero\n        /* \"#utility.yul\":15673:15778   */\n      and\n        /* \"#utility.yul\":15670:15801   */\n      iszero\n      tag_648\n      jumpi\n        /* \"#utility.yul\":15781:15799   */\n      tag_649\n      tag_460\n      jump\t// in\n    tag_649:\n        /* \"#utility.yul\":15670:15801   */\n    tag_648:\n        /* \"#utility.yul\":15829:15830   */\n      dup3\n        /* \"#utility.yul\":15826:15827   */\n      dup3\n        /* \"#utility.yul\":15822:15831   */\n      mul\n        /* \"#utility.yul\":15811:15831   */\n      swap1\n      pop\n        /* \"#utility.yul\":15489:15837   */\n      swap3\n      swap2\n      pop\n      pop\n      jump\t// out\n        /* \"#utility.yul\":15843:16023   */\n    tag_461:\n        /* \"#utility.yul\":15891:15968   */\n      0x4e487b7100000000000000000000000000000000000000000000000000000000\n        /* \"#utility.yul\":15888:15889   */\n      0x00\n        /* \"#utility.yul\":15881:15969   */\n      mstore\n        /* \"#utility.yul\":15988:15992   */\n      0x12\n        /* \"#utility.yul\":15985:15986   */\n      0x04\n        /* \"#utility.yul\":15978:15993   */\n      mstore\n        /* \"#utility.yul\":16012:16016   */\n      0x24\n        /* \"#utility.yul\":16009:16010   */\n      0x00\n        /* \"#utility.yul\":16002:16017   */\n      revert\n        /* \"#utility.yul\":16029:16214   */\n    tag_221:\n        /* \"#utility.yul\":16069:16070   */\n      0x00\n        /* \"#utility.yul\":16086:16106   */\n      tag_652\n        /* \"#utility.yul\":16104:16105   */\n      dup3\n        /* \"#utility.yul\":16086:16106   */\n      tag_415\n      jump\t// in\n    tag_652:\n        /* \"#utility.yul\":16081:16106   */\n      swap2\n      pop\n        /* \"#utility.yul\":16120:16140   */\n      tag_653\n        /* \"#utility.yul\":16138:16139   */\n      dup4\n        /* \"#utility.yul\":16120:16140   */\n      tag_415\n      jump\t// in\n    tag_653:\n        /* \"#utility.yul\":16115:16140   */\n      swap3\n      pop\n        /* \"#utility.yul\":16159:16160   */\n      dup3\n        /* \"#utility.yul\":16149:16184   */\n      tag_654\n      jumpi\n        /* \"#utility.yul\":16164:16182   */\n      tag_655\n      tag_461\n      jump\t// in\n    tag_655:\n        /* \"#utility.yul\":16149:16184   */\n    tag_654:\n        /* \"#utility.yul\":16206:16207   */\n      dup3\n        /* \"#utility.yul\":16203:16204   */\n      dup3\n        /* \"#utility.yul\":16199:16208   */\n      div\n        /* \"#utility.yul\":16194:16208   */\n      swap1\n      pop\n        /* \"#utility.yul\":16029:16214   */\n      swap3\n      swap2\n      pop\n      pop\n      jump\t// out\n        /* \"#utility.yul\":16220:16400   */\n    tag_225:\n        /* \"#utility.yul\":16268:16345   */\n      0x4e487b7100000000000000000000000000000000000000000000000000000000\n        /* \"#utility.yul\":16265:16266   */\n      0x00\n        /* \"#utility.yul\":16258:16346   */\n      mstore\n        /* \"#utility.yul\":16365:16369   */\n      0x32\n        /* \"#utility.yul\":16362:16363   */\n      0x04\n        /* \"#utility.yul\":16355:16370   */\n      mstore\n        /* \"#utility.yul\":16389:16393   */\n      0x24\n        /* \"#utility.yul\":16386:16387   */\n      0x00\n        /* \"#utility.yul\":16379:16394   */\n      revert\n        /* \"#utility.yul\":16406:16711   */\n    tag_305:\n        /* \"#utility.yul\":16446:16449   */\n      0x00\n        /* \"#utility.yul\":16465:16485   */\n      tag_658\n        /* \"#utility.yul\":16483:16484   */\n      dup3\n        /* \"#utility.yul\":16465:16485   */\n      tag_415\n      jump\t// in\n    tag_658:\n        /* \"#utility.yul\":16460:16485   */\n      swap2\n      pop\n        /* \"#utility.yul\":16499:16519   */\n      tag_659\n        /* \"#utility.yul\":16517:16518   */\n      dup4\n        /* \"#utility.yul\":16499:16519   */\n      tag_415\n      jump\t// in\n    tag_659:\n        /* \"#utility.yul\":16494:16519   */\n      swap3\n      pop\n        /* \"#utility.yul\":16653:16654   */\n      dup3\n        /* \"#utility.yul\":16585:16651   */\n      0xffffffffffffffffffffffffffffffffffffffffffffffffffffffffffffffff\n        /* \"#utility.yul\":16581:16655   */\n      sub\n        /* \"#utility.yul\":16578:16579   */\n      dup3\n        /* \"#utility.yul\":16575:16656   */\n      gt\n        /* \"#utility.yul\":16572:16679   */\n      iszero\n      tag_660\n      jumpi\n        /* \"#utility.yul\":16659:16677   */\n      tag_661\n      tag_460\n      jump\t// in\n    tag_661:\n        /* \"#utility.yul\":16572:16679   */\n    tag_660:\n        /* \"#utility.yul\":16703:16704   */\n      dup3\n        /* \"#utility.yul\":16700:16701   */\n      dup3\n        /* \"#utility.yul\":16696:16705   */\n      add\n        /* \"#utility.yul\":16689:16705   */\n      swap1\n      pop\n        /* \"#utility.yul\":16406:16711   */\n      swap3\n      swap2\n      pop\n      pop\n      jump\t// out\n        /* \"#utility.yul\":16717:16888   */\n    tag_325:\n        /* \"#utility.yul\":16756:16759   */\n      0x00\n        /* \"#utility.yul\":16779:16803   */\n      tag_663\n        /* \"#utility.yul\":16797:16802   */\n      dup3\n        /* \"#utility.yul\":16779:16803   */\n      tag_415\n      jump\t// in\n    tag_663:\n        /* \"#utility.yul\":16770:16803   */\n      swap2\n      pop\n        /* \"#utility.yul\":16825:16829   */\n      0x00\n        /* \"#utility.yul\":16818:16823   */\n      dup3\n        /* \"#utility.yul\":16815:16830   */\n      sub\n        /* \"#utility.yul\":16812:16853   */\n      tag_664\n      jumpi\n        /* \"#utility.yul\":16833:16851   */\n      tag_665\n      tag_460\n      jump\t// in\n    tag_665:\n        /* \"#utility.yul\":16812:16853   */\n    tag_664:\n        /* \"#utility.yul\":16880:16881   */\n      0x01\n        /* \"#utility.yul\":16873:16878   */\n      dup3\n        /* \"#utility.yul\":16869:16882   */\n      sub\n        /* \"#utility.yul\":16862:16882   */\n      swap1\n      pop\n        /* \"#utility.yul\":16717:16888   */\n      swap2\n      swap1\n      pop\n      jump\t// out\n\n    auxdata: 0xa2646970667358221220c83da1dfc41ae38660ee58092af6ffdb6c5d4764355004b90a53b2a5960868e264736f6c634300080f0033\n}\n","bytecode":{"linkReferences":{},"object":"608060405261032060005560646001556014600255600460035560006009556000600b553480156200003057600080fd5b5060405162003392380380620033928339818101604052810190620000569190620003a5565b80600490816200006791906200068d565b5081600660006101000a81548173ffffffffffffffffffffffffffffffffffffffff021916908373ffffffffffffffffffffffffffffffffffffffff16021790555082600560006101000a81548173ffffffffffffffffffffffffffffffffffffffff021916908373ffffffffffffffffffffffffffffffffffffffff16021790555084600f81905550426010819055506201518084620001099190620007a3565b4262000116919062000804565b601281905550620151806002546200012f9190620007a3565b426200013c919062000804565b6011819055506000601360006101000a81548160ff021916908315150217905550505050505062000861565b6000604051905090565b600080fd5b600080fd5b6000819050919050565b62000191816200017c565b81146200019d57600080fd5b50565b600081519050620001b18162000186565b92915050565b600073ffffffffffffffffffffffffffffffffffffffff82169050919050565b6000620001e482620001b7565b9050919050565b620001f681620001d7565b81146200020257600080fd5b50565b6000815190506200021681620001eb565b92915050565b600080fd5b600080fd5b6000601f19601f8301169050919050565b7f4e487b7100000000000000000000000000000000000000000000000000000000600052604160045260246000fd5b620002718262000226565b810181811067ffffffffffffffff8211171562000293576200029262000237565b5b80604052505050565b6000620002a862000168565b9050620002b6828262000266565b919050565b600067ffffffffffffffff821115620002d957620002d862000237565b5b620002e48262000226565b9050602081019050919050565b60005b8381101562000311578082015181840152602081019050620002f4565b8381111562000321576000848401525b50505050565b60006200033e6200033884620002bb565b6200029c565b9050828152602081018484840111156200035d576200035c62000221565b5b6200036a848285620002f1565b509392505050565b600082601f8301126200038a57620003896200021c565b5b81516200039c84826020860162000327565b91505092915050565b600080600080600060a08688031215620003c457620003c362000172565b5b6000620003d488828901620001a0565b9550506020620003e788828901620001a0565b9450506040620003fa8882890162000205565b93505060606200040d8882890162000205565b925050608086015167ffffffffffffffff81111562000431576200043062000177565b5b6200043f8882890162000372565b9150509295509295909350565b600081519050919050565b7f4e487b7100000000000000000000000000000000000000000000000000000000600052602260045260246000fd5b600060028204905060018216806200049f57607f821691505b602082108103620004b557620004b462000457565b5b50919050565b60008190508160005260206000209050919050565b60006020601f8301049050919050565b600082821b905092915050565b6000600883026200051f7fffffffffffffffffffffffffffffffffffffffffffffffffffffffffffffffff82620004e0565b6200052b8683620004e0565b95508019841693508086168417925050509392505050565b6000819050919050565b60006200056e6200056862000562846200017c565b62000543565b6200017c565b9050919050565b6000819050919050565b6200058a836200054d565b620005a2620005998262000575565b848454620004ed565b825550505050565b600090565b620005b9620005aa565b620005c68184846200057f565b505050565b5b81811015620005ee57620005e2600082620005af565b600181019050620005cc565b5050565b601f8211156200063d576200060781620004bb565b6200061284620004d0565b8101602085101562000622578190505b6200063a6200063185620004d0565b830182620005cb565b50505b505050565b600082821c905092915050565b6000620006626000198460080262000642565b1980831691505092915050565b60006200067d83836200064f565b9150826002028217905092915050565b62000698826200044c565b67ffffffffffffffff811115620006b457620006b362000237565b5b620006c0825462000486565b620006cd828285620005f2565b600060209050601f831160018114620007055760008415620006f0578287015190505b620006fc85826200066f565b8655506200076c565b601f1984166200071586620004bb565b60005b828110156200073f5784890151825560018201915060208501945060208101905062000718565b868310156200075f57848901516200075b601f8916826200064f565b8355505b6001600288020188555050505b505050505050565b7f4e487b7100000000000000000000000000000000000000000000000000000000600052601160045260246000fd5b6000620007b0826200017c565b9150620007bd836200017c565b9250817fffffffffffffffffffffffffffffffffffffffffffffffffffffffffffffffff0483118215151615620007f957620007f862000774565b5b828202905092915050565b600062000811826200017c565b91506200081e836200017c565b9250827fffffffffffffffffffffffffffffffffffffffffffffffffffffffffffffffff0382111562000856576200085562000774565b5b828201905092915050565b612b2180620008716000396000f3fe6080604052600436106102045760003560e01c8063864a53dc11610118578063b688a363116100a0578063f63f96551161006f578063f63f965514610747578063fbae5e7d14610788578063fd74d294146107c5578063fda263e8146107f0578063ff65226c1461081b57610204565b8063b688a363146106aa578063d7898240146106b4578063e028a693146106f1578063e0d370ac1461071c57610204565b806398e1b410116100e757806398e1b410146105bc578063999cc5ca146105da578063a4758c9a14610617578063acdb834114610642578063b2f8be5c1461066d57610204565b8063864a53dc146105245780638975aa081461053b578063937e09b114610566578063972c53561461059157610204565b8063361af1711161019b578063481c6a751161016a578063481c6a75146104655780635fb02f4d14610490578063767e0b9c146104a7578063789b2e6c146104d0578063816c97ba146104e757610204565b8063361af17114610383578063364548cd146103c05780633ba20f2a146103fd5780633d22aea81461042857610204565b80632ef3fa27116101d75780632ef3fa27146102c55780632f5274e3146102f057806331d0e40f1461031b57806332b7acec1461034657610204565b8063019998701461020957806306fdde03146102345780631e28528e1461025f5780632b84b3161461029c575b600080fd5b34801561021557600080fd5b5061021e610846565b60405161022b91906120bf565b60405180910390f35b34801561024057600080fd5b5061024961084c565b6040516102569190612173565b60405180910390f35b34801561026b57600080fd5b5061028660048036038101906102819190612207565b6108da565b604051610293919061224f565b60405180910390f35b3480156102a857600080fd5b506102c360048036038101906102be91906123cb565b6108fa565b005b3480156102d157600080fd5b506102da6109c3565b6040516102e791906120bf565b60405180910390f35b3480156102fc57600080fd5b506103056109f2565b60405161031291906120bf565b60405180910390f35b34801561032757600080fd5b506103306109f8565b60405161033d91906120bf565b60405180910390f35b34801561035257600080fd5b5061036d60048036038101906103689190612207565b6109fe565b60405161037a91906120bf565b60405180910390f35b34801561038f57600080fd5b506103aa60048036038101906103a59190612456565b610a16565b6040516103b7919061224f565b60405180910390f35b3480156103cc57600080fd5b506103e760048036038101906103e29190612207565b610a94565b6040516103f4919061224f565b60405180910390f35b34801561040957600080fd5b50610412610ab4565b60405161041f91906120bf565b60405180910390f35b34801561043457600080fd5b5061044f600480360381019061044a9190612456565b610aba565b60405161045c919061224f565b60405180910390f35b34801561047157600080fd5b5061047a610c0f565b6040516104879190612492565b60405180910390f35b34801561049c57600080fd5b506104a5610c35565b005b3480156104b357600080fd5b506104ce60048036038101906104c991906124d9565b610d6c565b005b3480156104dc57600080fd5b506104e5610ec7565b005b3480156104f357600080fd5b5061050e60048036038101906105099190612519565b61114b565b60405161051b919061224f565b60405180910390f35b34801561053057600080fd5b506105396111ca565b005b34801561054757600080fd5b5061055061133e565b60405161055d91906120bf565b60405180910390f35b34801561057257600080fd5b5061057b611344565b60405161058891906120bf565b60405180910390f35b34801561059d57600080fd5b506105a661134a565b6040516105b391906120bf565b60405180910390f35b6105c4611350565b6040516105d1919061224f565b60405180910390f35b3480156105e657600080fd5b5061060160048036038101906105fc9190612207565b611359565b60405161060e919061224f565b60405180910390f35b34801561062357600080fd5b5061062c611379565b60405161063991906120bf565b60405180910390f35b34801561064e57600080fd5b5061065761137f565b60405161066491906120bf565b60405180910390f35b34801561067957600080fd5b50610694600480360381019061068f9190612559565b611497565b6040516106a1919061224f565b60405180910390f35b6106b26116fa565b005b3480156106c057600080fd5b506106db60048036038101906106d69190612207565b611843565b6040516106e891906120bf565b60405180910390f35b3480156106fd57600080fd5b5061070661185b565b60405161071391906120bf565b60405180910390f35b34801561072857600080fd5b50610731611861565b60405161073e9190612492565b60405180910390f35b34801561075357600080fd5b5061076e60048036038101906107699190612456565b611887565b60405161077f959493929190612599565b60405180910390f35b34801561079457600080fd5b506107af60048036038101906107aa9190612456565b6119ea565b6040516107bc9190612492565b60405180910390f35b3480156107d157600080fd5b506107da611a29565b6040516107e791906120bf565b60405180910390f35b3480156107fc57600080fd5b50610805611a2f565b60405161081291906120bf565b60405180910390f35b34801561082757600080fd5b50610830611a35565b60405161083d919061224f565b60405180910390f35b600b5481565b6004805461085990612629565b80601f016020809104026020016040519081016040528092919081815260200182805461088590612629565b80156108d25780601f106108a7576101008083540402835291602001916108d2565b820191906000526020600020905b8154815290600101906020018083116108b557829003601f168201915b505050505081565b60076020528060005260406000206000915054906101000a900460ff1681565b600560009054906101000a900473ffffffffffffffffffffffffffffffffffffffff1673ffffffffffffffffffffffffffffffffffffffff163373ffffffffffffffffffffffffffffffffffffffff161461095457600080fd5b600060146001816001815401808255809150500390600052602060002090600602019050828160000190816109899190612806565b50818160020181905550838160010190816109a49190612806565b50601560008154809291906109b890612907565b919050555050505050565b60006103e86001546103e86109d8919061294f565b476109e39190612983565b6109ed9190612a0c565b905090565b601a5481565b60185481565b600d6020528060005260406000206000915090505481565b60008060148381548110610a2d57610a2c612a3d565b5b906000526020600020906006020190508060050160003373ffffffffffffffffffffffffffffffffffffffff1673ffffffffffffffffffffffffffffffffffffffff16815260200190815260200160002060009054906101000a900460ff16915050919050565b60086020528060005260406000206000915054906101000a900460ff1681565b60115481565b600060011515601360009054906101000a900460ff16151514610adc57600080fd5b600560009054906101000a900473ffffffffffffffffffffffffffffffffffffffff1673ffffffffffffffffffffffffffffffffffffffff163373ffffffffffffffffffffffffffffffffffffffff1614610b3657600080fd5b600060148381548110610b4c57610b4b612a3d565b5b906000526020600020906006020190506002600354610b6b9190612a0c565b81600401541015610b7b57600080fd5b600660009054906101000a900473ffffffffffffffffffffffffffffffffffffffff1673ffffffffffffffffffffffffffffffffffffffff166108fc82600201549081150290604051600060405180830381858888f19350505050158015610be7573d6000803e3d6000fd5b5060018160030160006101000a81548160ff0219169083151502179055506001915050919050565b600560009054906101000a900473ffffffffffffffffffffffffffffffffffffffff1681565b6001601360006101000a81548160ff0219169083151502179055506000479050600080600090505b600a80549050811015610d5f576000600a8281548110610c8057610c7f612a3d565b5b9060005260206000200160009054906101000a900473ffffffffffffffffffffffffffffffffffffffff169050600c60008273ffffffffffffffffffffffffffffffffffffffff1673ffffffffffffffffffffffffffffffffffffffff168152602001908152602001600020549250836103e884610cfe9190612983565b610d089190612a0c565b600d60008373ffffffffffffffffffffffffffffffffffffffff1673ffffffffffffffffffffffffffffffffffffffff16815260200190815260200160002081905550508080610d5790612907565b915050610c5d565b50610d68611a48565b5050565b600760003373ffffffffffffffffffffffffffffffffffffffff1673ffffffffffffffffffffffffffffffffffffffff16815260200190815260200160002060009054906101000a900460ff16610dc257600080fd5b600060148381548110610dd857610dd7612a3d565b5b906000526020600020906006020190508060050160003373ffffffffffffffffffffffffffffffffffffffff1673ffffffffffffffffffffffffffffffffffffffff16815260200190815260200160002060009054906101000a900460ff1615610e4157600080fd5b60018160050160003373ffffffffffffffffffffffffffffffffffffffff1673ffffffffffffffffffffffffffffffffffffffff16815260200190815260200160002060006101000a81548160ff0219169083151502179055506001151582151503610ec257806004016000815480929190610ebc90612907565b91905055505b505050565b6002600354610ed69190612a0c565b600954101580610ef9575060001515601360009054906101000a900460ff161515145b610f0257600080fd5b600660009054906101000a900473ffffffffffffffffffffffffffffffffffffffff1673ffffffffffffffffffffffffffffffffffffffff163373ffffffffffffffffffffffffffffffffffffffff1614610f5c57600080fd5b610f646109c3565b60198190555060005b600a805490508110156110d6576000600a8281548110610f9057610f8f612a3d565b5b9060005260206000200160009054906101000a900473ffffffffffffffffffffffffffffffffffffffff16905060001515600e60008373ffffffffffffffffffffffffffffffffffffffff1673ffffffffffffffffffffffffffffffffffffffff16815260200190815260200160002060009054906101000a900460ff161515036110c2576000600d60008373ffffffffffffffffffffffffffffffffffffffff1673ffffffffffffffffffffffffffffffffffffffff16815260200190815260200160002054905060006103e86019548361106c9190612983565b6110769190612a0c565b90508273ffffffffffffffffffffffffffffffffffffffff166108fc829081150290604051600060405180830381858888f193505050501580156110be573d6000803e3d6000fd5b5050505b5080806110ce90612907565b915050610f6d565b5047601881905550600560009054906101000a900473ffffffffffffffffffffffffffffffffffffffff1673ffffffffffffffffffffffffffffffffffffffff166108fc6018549081150290604051600060405180830381858888f19350505050158015611148573d6000803e3d6000fd5b50565b6000806014848154811061116257611161612a3d565b5b906000526020600020906006020190508060050160008473ffffffffffffffffffffffffffffffffffffffff1673ffffffffffffffffffffffffffffffffffffffff16815260200190815260200160002060009054906101000a900460ff1691505092915050565b60011515601360009054906101000a900460ff161515146111ea57600080fd5b600760003373ffffffffffffffffffffffffffffffffffffffff1673ffffffffffffffffffffffffffffffffffffffff16815260200190815260200160002060009054906101000a900460ff1661124057600080fd5b60001515600860003373ffffffffffffffffffffffffffffffffffffffff1673ffffffffffffffffffffffffffffffffffffffff16815260200190815260200160002060009054906101000a900460ff16151503611309576001600860003373ffffffffffffffffffffffffffffffffffffffff1673ffffffffffffffffffffffffffffffffffffffff16815260200190815260200160002060006101000a81548160ff0219169083151502179055506009600081548092919061130390612907565b91905055505b60026003546113189190612a0c565b6009541061133c576000601360006101000a81548160ff0219169083151502179055505b565b60175481565b600f5481565b60155481565b60006001905090565b600e6020528060005260406000206000915054906101000a900460ff1681565b60195481565b60008060005b600a8054905081101561148f576000600a82815481106113a8576113a7612a3d565b5b9060005260206000200160009054906101000a900473ffffffffffffffffffffffffffffffffffffffff16905060001515600e60008373ffffffffffffffffffffffffffffffffffffffff1673ffffffffffffffffffffffffffffffffffffffff16815260200190815260200160002060009054906101000a900460ff1615150361147b57600d60008273ffffffffffffffffffffffffffffffffffffffff1673ffffffffffffffffffffffffffffffffffffffff16815260200190815260200160002054836114789190612a6c565b92505b50808061148790612907565b915050611385565b508091505090565b600060011515601360009054906101000a900460ff161515146114b957600080fd5b600660009054906101000a900473ffffffffffffffffffffffffffffffffffffffff1673ffffffffffffffffffffffffffffffffffffffff163373ffffffffffffffffffffffffffffffffffffffff161461151357600080fd5b60001515600760003373ffffffffffffffffffffffffffffffffffffffff1673ffffffffffffffffffffffffffffffffffffffff16815260200190815260200160002060009054906101000a900460ff1615151461157057600080fd5b6000600d60008573ffffffffffffffffffffffffffffffffffffffff1673ffffffffffffffffffffffffffffffffffffffff16815260200190815260200160002054905060006115be6109c3565b846115c99190612a6c565b905060006103e86000546103e885856115e29190612983565b6115ec9190612a0c565b6115f69190612983565b6116009190612a0c565b9050806017819055504781116116ec57601754601a819055508573ffffffffffffffffffffffffffffffffffffffff166108fc829081150290604051600060405180830381858888f1935050505015801561165f573d6000803e3d6000fd5b506001600e60008873ffffffffffffffffffffffffffffffffffffffff1673ffffffffffffffffffffffffffffffffffffffff16815260200190815260200160002060006101000a81548160ff021916908315150217905550806016819055506116c883611f2e565b600b60008154809291906116db90612ac2565b9190505550600193505050506116f4565b600093505050505b92915050565b60001515601360009054906101000a900460ff1615151461171a57600080fd5b6000600c60003373ffffffffffffffffffffffffffffffffffffffff1673ffffffffffffffffffffffffffffffffffffffff168152602001908152602001600020549050600081036117f157600f5434101561177557600080fd5b600a339080600181540180825580915050600190039060005260206000200160009091909190916101000a81548173ffffffffffffffffffffffffffffffffffffffff021916908373ffffffffffffffffffffffffffffffffffffffff160217905550600b60008154809291906117eb90612907565b91905055505b34816117fd9190612a6c565b600c60003373ffffffffffffffffffffffffffffffffffffffff1673ffffffffffffffffffffffffffffffffffffffff1681526020019081526020016000208190555050565b600c6020528060005260406000206000915090505481565b60165481565b600660009054906101000a900473ffffffffffffffffffffffffffffffffffffffff1681565b6014818154811061189757600080fd5b90600052602060002090600602016000915090508060000180546118ba90612629565b80601f01602080910402602001604051908101604052809291908181526020018280546118e690612629565b80156119335780601f1061190857610100808354040283529160200191611933565b820191906000526020600020905b81548152906001019060200180831161191657829003601f168201915b50505050509080600101805461194890612629565b80601f016020809104026020016040519081016040528092919081815260200182805461197490612629565b80156119c15780601f10611996576101008083540402835291602001916119c1565b820191906000526020600020905b8154815290600101906020018083116119a457829003601f168201915b5050505050908060020154908060030160009054906101000a900460ff16908060040154905085565b600a81815481106119fa57600080fd5b906000526020600020016000915054906101000a900473ffffffffffffffffffffffffffffffffffffffff1681565b60105481565b60125481565b601360009054906101000a900460ff1681565b600060035467ffffffffffffffff811115611a6657611a65612274565b5b604051908082528060200260200182016040528015611a945781602001602082028036833780820191505090505b509050600060035467ffffffffffffffff811115611ab557611ab4612274565b5b604051908082528060200260200182016040528015611ae35781602001602082028036833780820191505090505b50905060008060009050600080600a600081548110611b0557611b04612a3d565b5b9060005260206000200160009054906101000a900473ffffffffffffffffffffffffffffffffffffffff1690508086600081518110611b4757611b46612a3d565b5b602002602001019073ffffffffffffffffffffffffffffffffffffffff16908173ffffffffffffffffffffffffffffffffffffffff1681525050600c60008273ffffffffffffffffffffffffffffffffffffffff1673ffffffffffffffffffffffffffffffffffffffff1681526020019081526020016000205493508385600081518110611bd857611bd7612a3d565b5b6020026020010181815250506000600190505b600354811015611d0857600a8181548110611c0957611c08612a3d565b5b9060005260206000200160009054906101000a900473ffffffffffffffffffffffffffffffffffffffff16915081878281518110611c4a57611c49612a3d565b5b602002602001019073ffffffffffffffffffffffffffffffffffffffff16908173ffffffffffffffffffffffffffffffffffffffff1681525050600c60008373ffffffffffffffffffffffffffffffffffffffff1673ffffffffffffffffffffffffffffffffffffffff16815260200190815260200160002054925082868281518110611cda57611cd9612a3d565b5b60200260200101818152505082851115611cf5578294508093505b8080611d0090612907565b915050611beb565b50600060035490505b600a80549050811015611e9257600a8181548110611d3257611d31612a3d565b5b9060005260206000200160009054906101000a900473ffffffffffffffffffffffffffffffffffffffff169150600c60008373ffffffffffffffffffffffffffffffffffffffff1673ffffffffffffffffffffffffffffffffffffffff16815260200190815260200160002054925084831115611e7f5781878581518110611dbd57611dbc612a3d565b5b602002602001019073ffffffffffffffffffffffffffffffffffffffff16908173ffffffffffffffffffffffffffffffffffffffff168152505082868581518110611e0b57611e0a612a3d565b5b60200260200101818152505082945060005b600354811015611e7d5785878281518110611e3b57611e3a612a3d565b5b60200260200101511015611e6a57868181518110611e5c57611e5b612a3d565b5b602002602001015195508094505b8080611e7590612907565b915050611e1d565b505b8080611e8a90612907565b915050611d11565b5060005b600354811015611f2557600160076000898481518110611eb957611eb8612a3d565b5b602002602001015173ffffffffffffffffffffffffffffffffffffffff1673ffffffffffffffffffffffffffffffffffffffff16815260200190815260200160002060006101000a81548160ff0219169083151502179055508080611f1d90612907565b915050611e96565b50505050505050565b6000816103e8611f3e919061294f565b905060005b600a805490508110156120a1576000600a8281548110611f6657611f65612a3d565b5b9060005260206000200160009054906101000a900473ffffffffffffffffffffffffffffffffffffffff16905060001515600e60008373ffffffffffffffffffffffffffffffffffffffff1673ffffffffffffffffffffffffffffffffffffffff16815260200190815260200160002060009054906101000a900460ff1615150361208d576000836103e8600d60008573ffffffffffffffffffffffffffffffffffffffff1673ffffffffffffffffffffffffffffffffffffffff1681526020019081526020016000205461203b9190612983565b6120459190612a0c565b905080600d60008473ffffffffffffffffffffffffffffffffffffffff1673ffffffffffffffffffffffffffffffffffffffff16815260200190815260200160002081905550505b50808061209990612907565b915050611f43565b505050565b6000819050919050565b6120b9816120a6565b82525050565b60006020820190506120d460008301846120b0565b92915050565b600081519050919050565b600082825260208201905092915050565b60005b838110156121145780820151818401526020810190506120f9565b83811115612123576000848401525b50505050565b6000601f19601f8301169050919050565b6000612145826120da565b61214f81856120e5565b935061215f8185602086016120f6565b61216881612129565b840191505092915050565b6000602082019050818103600083015261218d818461213a565b905092915050565b6000604051905090565b600080fd5b600080fd5b600073ffffffffffffffffffffffffffffffffffffffff82169050919050565b60006121d4826121a9565b9050919050565b6121e4816121c9565b81146121ef57600080fd5b50565b600081359050612201816121db565b92915050565b60006020828403121561221d5761221c61219f565b5b600061222b848285016121f2565b91505092915050565b60008115159050919050565b61224981612234565b82525050565b60006020820190506122646000830184612240565b92915050565b600080fd5b600080fd5b7f4e487b7100000000000000000000000000000000000000000000000000000000600052604160045260246000fd5b6122ac82612129565b810181811067ffffffffffffffff821117156122cb576122ca612274565b5b80604052505050565b60006122de612195565b90506122ea82826122a3565b919050565b600067ffffffffffffffff82111561230a57612309612274565b5b61231382612129565b9050602081019050919050565b82818337600083830152505050565b600061234261233d846122ef565b6122d4565b90508281526020810184848401111561235e5761235d61226f565b5b612369848285612320565b509392505050565b600082601f8301126123865761238561226a565b5b813561239684826020860161232f565b91505092915050565b6123a8816120a6565b81146123b357600080fd5b50565b6000813590506123c58161239f565b92915050565b6000806000606084860312156123e4576123e361219f565b5b600084013567ffffffffffffffff811115612402576124016121a4565b5b61240e86828701612371565b935050602084013567ffffffffffffffff81111561242f5761242e6121a4565b5b61243b86828701612371565b925050604061244c868287016123b6565b9150509250925092565b60006020828403121561246c5761246b61219f565b5b600061247a848285016123b6565b91505092915050565b61248c816121c9565b82525050565b60006020820190506124a76000830184612483565b92915050565b6124b681612234565b81146124c157600080fd5b50565b6000813590506124d3816124ad565b92915050565b600080604083850312156124f0576124ef61219f565b5b60006124fe858286016123b6565b925050602061250f858286016124c4565b9150509250929050565b600080604083850312156125305761252f61219f565b5b600061253e858286016123b6565b925050602061254f858286016121f2565b9150509250929050565b600080604083850312156125705761256f61219f565b5b600061257e858286016121f2565b925050602061258f858286016123b6565b9150509250929050565b600060a08201905081810360008301526125b3818861213a565b905081810360208301526125c7818761213a565b90506125d660408301866120b0565b6125e36060830185612240565b6125f060808301846120b0565b9695505050505050565b7f4e487b7100000000000000000000000000000000000000000000000000000000600052602260045260246000fd5b6000600282049050600182168061264157607f821691505b602082108103612654576126536125fa565b5b50919050565b60008190508160005260206000209050919050565b60006020601f8301049050919050565b600082821b905092915050565b6000600883026126bc7fffffffffffffffffffffffffffffffffffffffffffffffffffffffffffffffff8261267f565b6126c6868361267f565b95508019841693508086168417925050509392505050565b6000819050919050565b60006127036126fe6126f9846120a6565b6126de565b6120a6565b9050919050565b6000819050919050565b61271d836126e8565b6127316127298261270a565b84845461268c565b825550505050565b600090565b612746612739565b612751818484612714565b505050565b5b818110156127755761276a60008261273e565b600181019050612757565b5050565b601f8211156127ba5761278b8161265a565b6127948461266f565b810160208510156127a3578190505b6127b76127af8561266f565b830182612756565b50505b505050565b600082821c905092915050565b60006127dd600019846008026127bf565b1980831691505092915050565b60006127f683836127cc565b9150826002028217905092915050565b61280f826120da565b67ffffffffffffffff81111561282857612827612274565b5b6128328254612629565b61283d828285612779565b600060209050601f831160018114612870576000841561285e578287015190505b61286885826127ea565b8655506128d0565b601f19841661287e8661265a565b60005b828110156128a657848901518255600182019150602085019450602081019050612881565b868310156128c357848901516128bf601f8916826127cc565b8355505b6001600288020188555050505b505050505050565b7f4e487b7100000000000000000000000000000000000000000000000000000000600052601160045260246000fd5b6000612912826120a6565b91507fffffffffffffffffffffffffffffffffffffffffffffffffffffffffffffffff8203612944576129436128d8565b5b600182019050919050565b600061295a826120a6565b9150612965836120a6565b925082821015612978576129776128d8565b5b828203905092915050565b600061298e826120a6565b9150612999836120a6565b9250817fffffffffffffffffffffffffffffffffffffffffffffffffffffffffffffffff04831182151516156129d2576129d16128d8565b5b828202905092915050565b7f4e487b7100000000000000000000000000000000000000000000000000000000600052601260045260246000fd5b6000612a17826120a6565b9150612a22836120a6565b925082612a3257612a316129dd565b5b828204905092915050565b7f4e487b7100000000000000000000000000000000000000000000000000000000600052603260045260246000fd5b6000612a77826120a6565b9150612a82836120a6565b9250827fffffffffffffffffffffffffffffffffffffffffffffffffffffffffffffffff03821115612ab757612ab66128d8565b5b828201905092915050565b6000612acd826120a6565b915060008203612ae057612adf6128d8565b5b60018203905091905056fea2646970667358221220c83da1dfc41ae38660ee58092af6ffdb6c5d4764355004b90a53b2a5960868e264736f6c634300080f0033","opcodes":"PUSH1 0x80 PUSH1 0x40 MSTORE PUSH2 0x320 PUSH1 0x0 SSTORE PUSH1 0x64 PUSH1 0x1 SSTORE PUSH1 0x14 PUSH1 0x2 SSTORE PUSH1 0x4 PUSH1 0x3 SSTORE PUSH1 0x0 PUSH1 0x9 SSTORE PUSH1 0x0 PUSH1 0xB SSTORE CALLVALUE DUP1 ISZERO PUSH3 0x30 JUMPI PUSH1 0x0 DUP1 REVERT JUMPDEST POP PUSH1 0x40 MLOAD PUSH3 0x3392 CODESIZE SUB DUP1 PUSH3 0x3392 DUP4 CODECOPY DUP2 DUP2 ADD PUSH1 0x40 MSTORE DUP2 ADD SWAP1 PUSH3 0x56 SWAP2 SWAP1 PUSH3 0x3A5 JUMP JUMPDEST DUP1 PUSH1 0x4 SWAP1 DUP2 PUSH3 0x67 SWAP2 SWAP1 PUSH3 0x68D JUMP JUMPDEST POP DUP2 PUSH1 0x6 PUSH1 0x0 PUSH2 0x100 EXP DUP2 SLOAD DUP2 PUSH20 0xFFFFFFFFFFFFFFFFFFFFFFFFFFFFFFFFFFFFFFFF MUL NOT AND SWAP1 DUP4 PUSH20 0xFFFFFFFFFFFFFFFFFFFFFFFFFFFFFFFFFFFFFFFF AND MUL OR SWAP1 SSTORE POP DUP3 PUSH1 0x5 PUSH1 0x0 PUSH2 0x100 EXP DUP2 SLOAD DUP2 PUSH20 0xFFFFFFFFFFFFFFFFFFFFFFFFFFFFFFFFFFFFFFFF MUL NOT AND SWAP1 DUP4 PUSH20 0xFFFFFFFFFFFFFFFFFFFFFFFFFFFFFFFFFFFFFFFF AND MUL OR SWAP1 SSTORE POP DUP5 PUSH1 0xF DUP2 SWAP1 SSTORE POP TIMESTAMP PUSH1 0x10 DUP2 SWAP1 SSTORE POP PUSH3 0x15180 DUP5 PUSH3 0x109 SWAP2 SWAP1 PUSH3 0x7A3 JUMP JUMPDEST TIMESTAMP PUSH3 0x116 SWAP2 SWAP1 PUSH3 0x804 JUMP JUMPDEST PUSH1 0x12 DUP2 SWAP1 SSTORE POP PUSH3 0x15180 PUSH1 0x2 SLOAD PUSH3 0x12F SWAP2 SWAP1 PUSH3 0x7A3 JUMP JUMPDEST TIMESTAMP PUSH3 0x13C SWAP2 SWAP1 PUSH3 0x804 JUMP JUMPDEST PUSH1 0x11 DUP2 SWAP1 SSTORE POP PUSH1 0x0 PUSH1 0x13 PUSH1 0x0 PUSH2 0x100 EXP DUP2 SLOAD DUP2 PUSH1 0xFF MUL NOT AND SWAP1 DUP4 ISZERO ISZERO MUL OR SWAP1 SSTORE POP POP POP POP POP POP PUSH3 0x861 JUMP JUMPDEST PUSH1 0x0 PUSH1 0x40 MLOAD SWAP1 POP SWAP1 JUMP JUMPDEST PUSH1 0x0 DUP1 REVERT JUMPDEST PUSH1 0x0 DUP1 REVERT JUMPDEST PUSH1 0x0 DUP2 SWAP1 POP SWAP2 SWAP1 POP JUMP JUMPDEST PUSH3 0x191 DUP2 PUSH3 0x17C JUMP JUMPDEST DUP2 EQ PUSH3 0x19D JUMPI PUSH1 0x0 DUP1 REVERT JUMPDEST POP JUMP JUMPDEST PUSH1 0x0 DUP2 MLOAD SWAP1 POP PUSH3 0x1B1 DUP2 PUSH3 0x186 JUMP JUMPDEST SWAP3 SWAP2 POP POP JUMP JUMPDEST PUSH1 0x0 PUSH20 0xFFFFFFFFFFFFFFFFFFFFFFFFFFFFFFFFFFFFFFFF DUP3 AND SWAP1 POP SWAP2 SWAP1 POP JUMP JUMPDEST PUSH1 0x0 PUSH3 0x1E4 DUP3 PUSH3 0x1B7 JUMP JUMPDEST SWAP1 POP SWAP2 SWAP1 POP JUMP JUMPDEST PUSH3 0x1F6 DUP2 PUSH3 0x1D7 JUMP JUMPDEST DUP2 EQ PUSH3 0x202 JUMPI PUSH1 0x0 DUP1 REVERT JUMPDEST POP JUMP JUMPDEST PUSH1 0x0 DUP2 MLOAD SWAP1 POP PUSH3 0x216 DUP2 PUSH3 0x1EB JUMP JUMPDEST SWAP3 SWAP2 POP POP JUMP JUMPDEST PUSH1 0x0 DUP1 REVERT JUMPDEST PUSH1 0x0 DUP1 REVERT JUMPDEST PUSH1 0x0 PUSH1 0x1F NOT PUSH1 0x1F DUP4 ADD AND SWAP1 POP SWAP2 SWAP1 POP JUMP JUMPDEST PUSH32 0x4E487B7100000000000000000000000000000000000000000000000000000000 PUSH1 0x0 MSTORE PUSH1 0x41 PUSH1 0x4 MSTORE PUSH1 0x24 PUSH1 0x0 REVERT JUMPDEST PUSH3 0x271 DUP3 PUSH3 0x226 JUMP JUMPDEST DUP2 ADD DUP2 DUP2 LT PUSH8 0xFFFFFFFFFFFFFFFF DUP3 GT OR ISZERO PUSH3 0x293 JUMPI PUSH3 0x292 PUSH3 0x237 JUMP JUMPDEST JUMPDEST DUP1 PUSH1 0x40 MSTORE POP POP POP JUMP JUMPDEST PUSH1 0x0 PUSH3 0x2A8 PUSH3 0x168 JUMP JUMPDEST SWAP1 POP PUSH3 0x2B6 DUP3 DUP3 PUSH3 0x266 JUMP JUMPDEST SWAP2 SWAP1 POP JUMP JUMPDEST PUSH1 0x0 PUSH8 0xFFFFFFFFFFFFFFFF DUP3 GT ISZERO PUSH3 0x2D9 JUMPI PUSH3 0x2D8 PUSH3 0x237 JUMP JUMPDEST JUMPDEST PUSH3 0x2E4 DUP3 PUSH3 0x226 JUMP JUMPDEST SWAP1 POP PUSH1 0x20 DUP2 ADD SWAP1 POP SWAP2 SWAP1 POP JUMP JUMPDEST PUSH1 0x0 JUMPDEST DUP4 DUP2 LT ISZERO PUSH3 0x311 JUMPI DUP1 DUP3 ADD MLOAD DUP2 DUP5 ADD MSTORE PUSH1 0x20 DUP2 ADD SWAP1 POP PUSH3 0x2F4 JUMP JUMPDEST DUP4 DUP2 GT ISZERO PUSH3 0x321 JUMPI PUSH1 0x0 DUP5 DUP5 ADD MSTORE JUMPDEST POP POP POP POP JUMP JUMPDEST PUSH1 0x0 PUSH3 0x33E PUSH3 0x338 DUP5 PUSH3 0x2BB JUMP JUMPDEST PUSH3 0x29C JUMP JUMPDEST SWAP1 POP DUP3 DUP2 MSTORE PUSH1 0x20 DUP2 ADD DUP5 DUP5 DUP5 ADD GT ISZERO PUSH3 0x35D JUMPI PUSH3 0x35C PUSH3 0x221 JUMP JUMPDEST JUMPDEST PUSH3 0x36A DUP5 DUP3 DUP6 PUSH3 0x2F1 JUMP JUMPDEST POP SWAP4 SWAP3 POP POP POP JUMP JUMPDEST PUSH1 0x0 DUP3 PUSH1 0x1F DUP4 ADD SLT PUSH3 0x38A JUMPI PUSH3 0x389 PUSH3 0x21C JUMP JUMPDEST JUMPDEST DUP2 MLOAD PUSH3 0x39C DUP5 DUP3 PUSH1 0x20 DUP7 ADD PUSH3 0x327 JUMP JUMPDEST SWAP2 POP POP SWAP3 SWAP2 POP POP JUMP JUMPDEST PUSH1 0x0 DUP1 PUSH1 0x0 DUP1 PUSH1 0x0 PUSH1 0xA0 DUP7 DUP9 SUB SLT ISZERO PUSH3 0x3C4 JUMPI PUSH3 0x3C3 PUSH3 0x172 JUMP JUMPDEST JUMPDEST PUSH1 0x0 PUSH3 0x3D4 DUP9 DUP3 DUP10 ADD PUSH3 0x1A0 JUMP JUMPDEST SWAP6 POP POP PUSH1 0x20 PUSH3 0x3E7 DUP9 DUP3 DUP10 ADD PUSH3 0x1A0 JUMP JUMPDEST SWAP5 POP POP PUSH1 0x40 PUSH3 0x3FA DUP9 DUP3 DUP10 ADD PUSH3 0x205 JUMP JUMPDEST SWAP4 POP POP PUSH1 0x60 PUSH3 0x40D DUP9 DUP3 DUP10 ADD PUSH3 0x205 JUMP JUMPDEST SWAP3 POP POP PUSH1 0x80 DUP7 ADD MLOAD PUSH8 0xFFFFFFFFFFFFFFFF DUP2 GT ISZERO PUSH3 0x431 JUMPI PUSH3 0x430 PUSH3 0x177 JUMP JUMPDEST JUMPDEST PUSH3 0x43F DUP9 DUP3 DUP10 ADD PUSH3 0x372 JUMP JUMPDEST SWAP2 POP POP SWAP3 SWAP6 POP SWAP3 SWAP6 SWAP1 SWAP4 POP JUMP JUMPDEST PUSH1 0x0 DUP2 MLOAD SWAP1 POP SWAP2 SWAP1 POP JUMP JUMPDEST PUSH32 0x4E487B7100000000000000000000000000000000000000000000000000000000 PUSH1 0x0 MSTORE PUSH1 0x22 PUSH1 0x4 MSTORE PUSH1 0x24 PUSH1 0x0 REVERT JUMPDEST PUSH1 0x0 PUSH1 0x2 DUP3 DIV SWAP1 POP PUSH1 0x1 DUP3 AND DUP1 PUSH3 0x49F JUMPI PUSH1 0x7F DUP3 AND SWAP2 POP JUMPDEST PUSH1 0x20 DUP3 LT DUP2 SUB PUSH3 0x4B5 JUMPI PUSH3 0x4B4 PUSH3 0x457 JUMP JUMPDEST JUMPDEST POP SWAP2 SWAP1 POP JUMP JUMPDEST PUSH1 0x0 DUP2 SWAP1 POP DUP2 PUSH1 0x0 MSTORE PUSH1 0x20 PUSH1 0x0 KECCAK256 SWAP1 POP SWAP2 SWAP1 POP JUMP JUMPDEST PUSH1 0x0 PUSH1 0x20 PUSH1 0x1F DUP4 ADD DIV SWAP1 POP SWAP2 SWAP1 POP JUMP JUMPDEST PUSH1 0x0 DUP3 DUP3 SHL SWAP1 POP SWAP3 SWAP2 POP POP JUMP JUMPDEST PUSH1 0x0 PUSH1 0x8 DUP4 MUL PUSH3 0x51F PUSH32 0xFFFFFFFFFFFFFFFFFFFFFFFFFFFFFFFFFFFFFFFFFFFFFFFFFFFFFFFFFFFFFFFF DUP3 PUSH3 0x4E0 JUMP JUMPDEST PUSH3 0x52B DUP7 DUP4 PUSH3 0x4E0 JUMP JUMPDEST SWAP6 POP DUP1 NOT DUP5 AND SWAP4 POP DUP1 DUP7 AND DUP5 OR SWAP3 POP POP POP SWAP4 SWAP3 POP POP POP JUMP JUMPDEST PUSH1 0x0 DUP2 SWAP1 POP SWAP2 SWAP1 POP JUMP JUMPDEST PUSH1 0x0 PUSH3 0x56E PUSH3 0x568 PUSH3 0x562 DUP5 PUSH3 0x17C JUMP JUMPDEST PUSH3 0x543 JUMP JUMPDEST PUSH3 0x17C JUMP JUMPDEST SWAP1 POP SWAP2 SWAP1 POP JUMP JUMPDEST PUSH1 0x0 DUP2 SWAP1 POP SWAP2 SWAP1 POP JUMP JUMPDEST PUSH3 0x58A DUP4 PUSH3 0x54D JUMP JUMPDEST PUSH3 0x5A2 PUSH3 0x599 DUP3 PUSH3 0x575 JUMP JUMPDEST DUP5 DUP5 SLOAD PUSH3 0x4ED JUMP JUMPDEST DUP3 SSTORE POP POP POP POP JUMP JUMPDEST PUSH1 0x0 SWAP1 JUMP JUMPDEST PUSH3 0x5B9 PUSH3 0x5AA JUMP JUMPDEST PUSH3 0x5C6 DUP2 DUP5 DUP5 PUSH3 0x57F JUMP JUMPDEST POP POP POP JUMP JUMPDEST JUMPDEST DUP2 DUP2 LT ISZERO PUSH3 0x5EE JUMPI PUSH3 0x5E2 PUSH1 0x0 DUP3 PUSH3 0x5AF JUMP JUMPDEST PUSH1 0x1 DUP2 ADD SWAP1 POP PUSH3 0x5CC JUMP JUMPDEST POP POP JUMP JUMPDEST PUSH1 0x1F DUP3 GT ISZERO PUSH3 0x63D JUMPI PUSH3 0x607 DUP2 PUSH3 0x4BB JUMP JUMPDEST PUSH3 0x612 DUP5 PUSH3 0x4D0 JUMP JUMPDEST DUP2 ADD PUSH1 0x20 DUP6 LT ISZERO PUSH3 0x622 JUMPI DUP2 SWAP1 POP JUMPDEST PUSH3 0x63A PUSH3 0x631 DUP6 PUSH3 0x4D0 JUMP JUMPDEST DUP4 ADD DUP3 PUSH3 0x5CB JUMP JUMPDEST POP POP JUMPDEST POP POP POP JUMP JUMPDEST PUSH1 0x0 DUP3 DUP3 SHR SWAP1 POP SWAP3 SWAP2 POP POP JUMP JUMPDEST PUSH1 0x0 PUSH3 0x662 PUSH1 0x0 NOT DUP5 PUSH1 0x8 MUL PUSH3 0x642 JUMP JUMPDEST NOT DUP1 DUP4 AND SWAP2 POP POP SWAP3 SWAP2 POP POP JUMP JUMPDEST PUSH1 0x0 PUSH3 0x67D DUP4 DUP4 PUSH3 0x64F JUMP JUMPDEST SWAP2 POP DUP3 PUSH1 0x2 MUL DUP3 OR SWAP1 POP SWAP3 SWAP2 POP POP JUMP JUMPDEST PUSH3 0x698 DUP3 PUSH3 0x44C JUMP JUMPDEST PUSH8 0xFFFFFFFFFFFFFFFF DUP2 GT ISZERO PUSH3 0x6B4 JUMPI PUSH3 0x6B3 PUSH3 0x237 JUMP JUMPDEST JUMPDEST PUSH3 0x6C0 DUP3 SLOAD PUSH3 0x486 JUMP JUMPDEST PUSH3 0x6CD DUP3 DUP3 DUP6 PUSH3 0x5F2 JUMP JUMPDEST PUSH1 0x0 PUSH1 0x20 SWAP1 POP PUSH1 0x1F DUP4 GT PUSH1 0x1 DUP2 EQ PUSH3 0x705 JUMPI PUSH1 0x0 DUP5 ISZERO PUSH3 0x6F0 JUMPI DUP3 DUP8 ADD MLOAD SWAP1 POP JUMPDEST PUSH3 0x6FC DUP6 DUP3 PUSH3 0x66F JUMP JUMPDEST DUP7 SSTORE POP PUSH3 0x76C JUMP JUMPDEST PUSH1 0x1F NOT DUP5 AND PUSH3 0x715 DUP7 PUSH3 0x4BB JUMP JUMPDEST PUSH1 0x0 JUMPDEST DUP3 DUP2 LT ISZERO PUSH3 0x73F JUMPI DUP5 DUP10 ADD MLOAD DUP3 SSTORE PUSH1 0x1 DUP3 ADD SWAP2 POP PUSH1 0x20 DUP6 ADD SWAP5 POP PUSH1 0x20 DUP2 ADD SWAP1 POP PUSH3 0x718 JUMP JUMPDEST DUP7 DUP4 LT ISZERO PUSH3 0x75F JUMPI DUP5 DUP10 ADD MLOAD PUSH3 0x75B PUSH1 0x1F DUP10 AND DUP3 PUSH3 0x64F JUMP JUMPDEST DUP4 SSTORE POP JUMPDEST PUSH1 0x1 PUSH1 0x2 DUP9 MUL ADD DUP9 SSTORE POP POP POP JUMPDEST POP POP POP POP POP POP JUMP JUMPDEST PUSH32 0x4E487B7100000000000000000000000000000000000000000000000000000000 PUSH1 0x0 MSTORE PUSH1 0x11 PUSH1 0x4 MSTORE PUSH1 0x24 PUSH1 0x0 REVERT JUMPDEST PUSH1 0x0 PUSH3 0x7B0 DUP3 PUSH3 0x17C JUMP JUMPDEST SWAP2 POP PUSH3 0x7BD DUP4 PUSH3 0x17C JUMP JUMPDEST SWAP3 POP DUP2 PUSH32 0xFFFFFFFFFFFFFFFFFFFFFFFFFFFFFFFFFFFFFFFFFFFFFFFFFFFFFFFFFFFFFFFF DIV DUP4 GT DUP3 ISZERO ISZERO AND ISZERO PUSH3 0x7F9 JUMPI PUSH3 0x7F8 PUSH3 0x774 JUMP JUMPDEST JUMPDEST DUP3 DUP3 MUL SWAP1 POP SWAP3 SWAP2 POP POP JUMP JUMPDEST PUSH1 0x0 PUSH3 0x811 DUP3 PUSH3 0x17C JUMP JUMPDEST SWAP2 POP PUSH3 0x81E DUP4 PUSH3 0x17C JUMP JUMPDEST SWAP3 POP DUP3 PUSH32 0xFFFFFFFFFFFFFFFFFFFFFFFFFFFFFFFFFFFFFFFFFFFFFFFFFFFFFFFFFFFFFFFF SUB DUP3 GT ISZERO PUSH3 0x856 JUMPI PUSH3 0x855 PUSH3 0x774 JUMP JUMPDEST JUMPDEST DUP3 DUP3 ADD SWAP1 POP SWAP3 SWAP2 POP POP JUMP JUMPDEST PUSH2 0x2B21 DUP1 PUSH3 0x871 PUSH1 0x0 CODECOPY PUSH1 0x0 RETURN INVALID PUSH1 0x80 PUSH1 0x40 MSTORE PUSH1 0x4 CALLDATASIZE LT PUSH2 0x204 JUMPI PUSH1 0x0 CALLDATALOAD PUSH1 0xE0 SHR DUP1 PUSH4 0x864A53DC GT PUSH2 0x118 JUMPI DUP1 PUSH4 0xB688A363 GT PUSH2 0xA0 JUMPI DUP1 PUSH4 0xF63F9655 GT PUSH2 0x6F JUMPI DUP1 PUSH4 0xF63F9655 EQ PUSH2 0x747 JUMPI DUP1 PUSH4 0xFBAE5E7D EQ PUSH2 0x788 JUMPI DUP1 PUSH4 0xFD74D294 EQ PUSH2 0x7C5 JUMPI DUP1 PUSH4 0xFDA263E8 EQ PUSH2 0x7F0 JUMPI DUP1 PUSH4 0xFF65226C EQ PUSH2 0x81B JUMPI PUSH2 0x204 JUMP JUMPDEST DUP1 PUSH4 0xB688A363 EQ PUSH2 0x6AA JUMPI DUP1 PUSH4 0xD7898240 EQ PUSH2 0x6B4 JUMPI DUP1 PUSH4 0xE028A693 EQ PUSH2 0x6F1 JUMPI DUP1 PUSH4 0xE0D370AC EQ PUSH2 0x71C JUMPI PUSH2 0x204 JUMP JUMPDEST DUP1 PUSH4 0x98E1B410 GT PUSH2 0xE7 JUMPI DUP1 PUSH4 0x98E1B410 EQ PUSH2 0x5BC JUMPI DUP1 PUSH4 0x999CC5CA EQ PUSH2 0x5DA JUMPI DUP1 PUSH4 0xA4758C9A EQ PUSH2 0x617 JUMPI DUP1 PUSH4 0xACDB8341 EQ PUSH2 0x642 JUMPI DUP1 PUSH4 0xB2F8BE5C EQ PUSH2 0x66D JUMPI PUSH2 0x204 JUMP JUMPDEST DUP1 PUSH4 0x864A53DC EQ PUSH2 0x524 JUMPI DUP1 PUSH4 0x8975AA08 EQ PUSH2 0x53B JUMPI DUP1 PUSH4 0x937E09B1 EQ PUSH2 0x566 JUMPI DUP1 PUSH4 0x972C5356 EQ PUSH2 0x591 JUMPI PUSH2 0x204 JUMP JUMPDEST DUP1 PUSH4 0x361AF171 GT PUSH2 0x19B JUMPI DUP1 PUSH4 0x481C6A75 GT PUSH2 0x16A JUMPI DUP1 PUSH4 0x481C6A75 EQ PUSH2 0x465 JUMPI DUP1 PUSH4 0x5FB02F4D EQ PUSH2 0x490 JUMPI DUP1 PUSH4 0x767E0B9C EQ PUSH2 0x4A7 JUMPI DUP1 PUSH4 0x789B2E6C EQ PUSH2 0x4D0 JUMPI DUP1 PUSH4 0x816C97BA EQ PUSH2 0x4E7 JUMPI PUSH2 0x204 JUMP JUMPDEST DUP1 PUSH4 0x361AF171 EQ PUSH2 0x383 JUMPI DUP1 PUSH4 0x364548CD EQ PUSH2 0x3C0 JUMPI DUP1 PUSH4 0x3BA20F2A EQ PUSH2 0x3FD JUMPI DUP1 PUSH4 0x3D22AEA8 EQ PUSH2 0x428 JUMPI PUSH2 0x204 JUMP JUMPDEST DUP1 PUSH4 0x2EF3FA27 GT PUSH2 0x1D7 JUMPI DUP1 PUSH4 0x2EF3FA27 EQ PUSH2 0x2C5 JUMPI DUP1 PUSH4 0x2F5274E3 EQ PUSH2 0x2F0 JUMPI DUP1 PUSH4 0x31D0E40F EQ PUSH2 0x31B JUMPI DUP1 PUSH4 0x32B7ACEC EQ PUSH2 0x346 JUMPI PUSH2 0x204 JUMP JUMPDEST DUP1 PUSH4 0x1999870 EQ PUSH2 0x209 JUMPI DUP1 PUSH4 0x6FDDE03 EQ PUSH2 0x234 JUMPI DUP1 PUSH4 0x1E28528E EQ PUSH2 0x25F JUMPI DUP1 PUSH4 0x2B84B316 EQ PUSH2 0x29C JUMPI JUMPDEST PUSH1 0x0 DUP1 REVERT JUMPDEST CALLVALUE DUP1 ISZERO PUSH2 0x215 JUMPI PUSH1 0x0 DUP1 REVERT JUMPDEST POP PUSH2 0x21E PUSH2 0x846 JUMP JUMPDEST PUSH1 0x40 MLOAD PUSH2 0x22B SWAP2 SWAP1 PUSH2 0x20BF JUMP JUMPDEST PUSH1 0x40 MLOAD DUP1 SWAP2 SUB SWAP1 RETURN JUMPDEST CALLVALUE DUP1 ISZERO PUSH2 0x240 JUMPI PUSH1 0x0 DUP1 REVERT JUMPDEST POP PUSH2 0x249 PUSH2 0x84C JUMP JUMPDEST PUSH1 0x40 MLOAD PUSH2 0x256 SWAP2 SWAP1 PUSH2 0x2173 JUMP JUMPDEST PUSH1 0x40 MLOAD DUP1 SWAP2 SUB SWAP1 RETURN JUMPDEST CALLVALUE DUP1 ISZERO PUSH2 0x26B JUMPI PUSH1 0x0 DUP1 REVERT JUMPDEST POP PUSH2 0x286 PUSH1 0x4 DUP1 CALLDATASIZE SUB DUP2 ADD SWAP1 PUSH2 0x281 SWAP2 SWAP1 PUSH2 0x2207 JUMP JUMPDEST PUSH2 0x8DA JUMP JUMPDEST PUSH1 0x40 MLOAD PUSH2 0x293 SWAP2 SWAP1 PUSH2 0x224F JUMP JUMPDEST PUSH1 0x40 MLOAD DUP1 SWAP2 SUB SWAP1 RETURN JUMPDEST CALLVALUE DUP1 ISZERO PUSH2 0x2A8 JUMPI PUSH1 0x0 DUP1 REVERT JUMPDEST POP PUSH2 0x2C3 PUSH1 0x4 DUP1 CALLDATASIZE SUB DUP2 ADD SWAP1 PUSH2 0x2BE SWAP2 SWAP1 PUSH2 0x23CB JUMP JUMPDEST PUSH2 0x8FA JUMP JUMPDEST STOP JUMPDEST CALLVALUE DUP1 ISZERO PUSH2 0x2D1 JUMPI PUSH1 0x0 DUP1 REVERT JUMPDEST POP PUSH2 0x2DA PUSH2 0x9C3 JUMP JUMPDEST PUSH1 0x40 MLOAD PUSH2 0x2E7 SWAP2 SWAP1 PUSH2 0x20BF JUMP JUMPDEST PUSH1 0x40 MLOAD DUP1 SWAP2 SUB SWAP1 RETURN JUMPDEST CALLVALUE DUP1 ISZERO PUSH2 0x2FC JUMPI PUSH1 0x0 DUP1 REVERT JUMPDEST POP PUSH2 0x305 PUSH2 0x9F2 JUMP JUMPDEST PUSH1 0x40 MLOAD PUSH2 0x312 SWAP2 SWAP1 PUSH2 0x20BF JUMP JUMPDEST PUSH1 0x40 MLOAD DUP1 SWAP2 SUB SWAP1 RETURN JUMPDEST CALLVALUE DUP1 ISZERO PUSH2 0x327 JUMPI PUSH1 0x0 DUP1 REVERT JUMPDEST POP PUSH2 0x330 PUSH2 0x9F8 JUMP JUMPDEST PUSH1 0x40 MLOAD PUSH2 0x33D SWAP2 SWAP1 PUSH2 0x20BF JUMP JUMPDEST PUSH1 0x40 MLOAD DUP1 SWAP2 SUB SWAP1 RETURN JUMPDEST CALLVALUE DUP1 ISZERO PUSH2 0x352 JUMPI PUSH1 0x0 DUP1 REVERT JUMPDEST POP PUSH2 0x36D PUSH1 0x4 DUP1 CALLDATASIZE SUB DUP2 ADD SWAP1 PUSH2 0x368 SWAP2 SWAP1 PUSH2 0x2207 JUMP JUMPDEST PUSH2 0x9FE JUMP JUMPDEST PUSH1 0x40 MLOAD PUSH2 0x37A SWAP2 SWAP1 PUSH2 0x20BF JUMP JUMPDEST PUSH1 0x40 MLOAD DUP1 SWAP2 SUB SWAP1 RETURN JUMPDEST CALLVALUE DUP1 ISZERO PUSH2 0x38F JUMPI PUSH1 0x0 DUP1 REVERT JUMPDEST POP PUSH2 0x3AA PUSH1 0x4 DUP1 CALLDATASIZE SUB DUP2 ADD SWAP1 PUSH2 0x3A5 SWAP2 SWAP1 PUSH2 0x2456 JUMP JUMPDEST PUSH2 0xA16 JUMP JUMPDEST PUSH1 0x40 MLOAD PUSH2 0x3B7 SWAP2 SWAP1 PUSH2 0x224F JUMP JUMPDEST PUSH1 0x40 MLOAD DUP1 SWAP2 SUB SWAP1 RETURN JUMPDEST CALLVALUE DUP1 ISZERO PUSH2 0x3CC JUMPI PUSH1 0x0 DUP1 REVERT JUMPDEST POP PUSH2 0x3E7 PUSH1 0x4 DUP1 CALLDATASIZE SUB DUP2 ADD SWAP1 PUSH2 0x3E2 SWAP2 SWAP1 PUSH2 0x2207 JUMP JUMPDEST PUSH2 0xA94 JUMP JUMPDEST PUSH1 0x40 MLOAD PUSH2 0x3F4 SWAP2 SWAP1 PUSH2 0x224F JUMP JUMPDEST PUSH1 0x40 MLOAD DUP1 SWAP2 SUB SWAP1 RETURN JUMPDEST CALLVALUE DUP1 ISZERO PUSH2 0x409 JUMPI PUSH1 0x0 DUP1 REVERT JUMPDEST POP PUSH2 0x412 PUSH2 0xAB4 JUMP JUMPDEST PUSH1 0x40 MLOAD PUSH2 0x41F SWAP2 SWAP1 PUSH2 0x20BF JUMP JUMPDEST PUSH1 0x40 MLOAD DUP1 SWAP2 SUB SWAP1 RETURN JUMPDEST CALLVALUE DUP1 ISZERO PUSH2 0x434 JUMPI PUSH1 0x0 DUP1 REVERT JUMPDEST POP PUSH2 0x44F PUSH1 0x4 DUP1 CALLDATASIZE SUB DUP2 ADD SWAP1 PUSH2 0x44A SWAP2 SWAP1 PUSH2 0x2456 JUMP JUMPDEST PUSH2 0xABA JUMP JUMPDEST PUSH1 0x40 MLOAD PUSH2 0x45C SWAP2 SWAP1 PUSH2 0x224F JUMP JUMPDEST PUSH1 0x40 MLOAD DUP1 SWAP2 SUB SWAP1 RETURN JUMPDEST CALLVALUE DUP1 ISZERO PUSH2 0x471 JUMPI PUSH1 0x0 DUP1 REVERT JUMPDEST POP PUSH2 0x47A PUSH2 0xC0F JUMP JUMPDEST PUSH1 0x40 MLOAD PUSH2 0x487 SWAP2 SWAP1 PUSH2 0x2492 JUMP JUMPDEST PUSH1 0x40 MLOAD DUP1 SWAP2 SUB SWAP1 RETURN JUMPDEST CALLVALUE DUP1 ISZERO PUSH2 0x49C JUMPI PUSH1 0x0 DUP1 REVERT JUMPDEST POP PUSH2 0x4A5 PUSH2 0xC35 JUMP JUMPDEST STOP JUMPDEST CALLVALUE DUP1 ISZERO PUSH2 0x4B3 JUMPI PUSH1 0x0 DUP1 REVERT JUMPDEST POP PUSH2 0x4CE PUSH1 0x4 DUP1 CALLDATASIZE SUB DUP2 ADD SWAP1 PUSH2 0x4C9 SWAP2 SWAP1 PUSH2 0x24D9 JUMP JUMPDEST PUSH2 0xD6C JUMP JUMPDEST STOP JUMPDEST CALLVALUE DUP1 ISZERO PUSH2 0x4DC JUMPI PUSH1 0x0 DUP1 REVERT JUMPDEST POP PUSH2 0x4E5 PUSH2 0xEC7 JUMP JUMPDEST STOP JUMPDEST CALLVALUE DUP1 ISZERO PUSH2 0x4F3 JUMPI PUSH1 0x0 DUP1 REVERT JUMPDEST POP PUSH2 0x50E PUSH1 0x4 DUP1 CALLDATASIZE SUB DUP2 ADD SWAP1 PUSH2 0x509 SWAP2 SWAP1 PUSH2 0x2519 JUMP JUMPDEST PUSH2 0x114B JUMP JUMPDEST PUSH1 0x40 MLOAD PUSH2 0x51B SWAP2 SWAP1 PUSH2 0x224F JUMP JUMPDEST PUSH1 0x40 MLOAD DUP1 SWAP2 SUB SWAP1 RETURN JUMPDEST CALLVALUE DUP1 ISZERO PUSH2 0x530 JUMPI PUSH1 0x0 DUP1 REVERT JUMPDEST POP PUSH2 0x539 PUSH2 0x11CA JUMP JUMPDEST STOP JUMPDEST CALLVALUE DUP1 ISZERO PUSH2 0x547 JUMPI PUSH1 0x0 DUP1 REVERT JUMPDEST POP PUSH2 0x550 PUSH2 0x133E JUMP JUMPDEST PUSH1 0x40 MLOAD PUSH2 0x55D SWAP2 SWAP1 PUSH2 0x20BF JUMP JUMPDEST PUSH1 0x40 MLOAD DUP1 SWAP2 SUB SWAP1 RETURN JUMPDEST CALLVALUE DUP1 ISZERO PUSH2 0x572 JUMPI PUSH1 0x0 DUP1 REVERT JUMPDEST POP PUSH2 0x57B PUSH2 0x1344 JUMP JUMPDEST PUSH1 0x40 MLOAD PUSH2 0x588 SWAP2 SWAP1 PUSH2 0x20BF JUMP JUMPDEST PUSH1 0x40 MLOAD DUP1 SWAP2 SUB SWAP1 RETURN JUMPDEST CALLVALUE DUP1 ISZERO PUSH2 0x59D JUMPI PUSH1 0x0 DUP1 REVERT JUMPDEST POP PUSH2 0x5A6 PUSH2 0x134A JUMP JUMPDEST PUSH1 0x40 MLOAD PUSH2 0x5B3 SWAP2 SWAP1 PUSH2 0x20BF JUMP JUMPDEST PUSH1 0x40 MLOAD DUP1 SWAP2 SUB SWAP1 RETURN JUMPDEST PUSH2 0x5C4 PUSH2 0x1350 JUMP JUMPDEST PUSH1 0x40 MLOAD PUSH2 0x5D1 SWAP2 SWAP1 PUSH2 0x224F JUMP JUMPDEST PUSH1 0x40 MLOAD DUP1 SWAP2 SUB SWAP1 RETURN JUMPDEST CALLVALUE DUP1 ISZERO PUSH2 0x5E6 JUMPI PUSH1 0x0 DUP1 REVERT JUMPDEST POP PUSH2 0x601 PUSH1 0x4 DUP1 CALLDATASIZE SUB DUP2 ADD SWAP1 PUSH2 0x5FC SWAP2 SWAP1 PUSH2 0x2207 JUMP JUMPDEST PUSH2 0x1359 JUMP JUMPDEST PUSH1 0x40 MLOAD PUSH2 0x60E SWAP2 SWAP1 PUSH2 0x224F JUMP JUMPDEST PUSH1 0x40 MLOAD DUP1 SWAP2 SUB SWAP1 RETURN JUMPDEST CALLVALUE DUP1 ISZERO PUSH2 0x623 JUMPI PUSH1 0x0 DUP1 REVERT JUMPDEST POP PUSH2 0x62C PUSH2 0x1379 JUMP JUMPDEST PUSH1 0x40 MLOAD PUSH2 0x639 SWAP2 SWAP1 PUSH2 0x20BF JUMP JUMPDEST PUSH1 0x40 MLOAD DUP1 SWAP2 SUB SWAP1 RETURN JUMPDEST CALLVALUE DUP1 ISZERO PUSH2 0x64E JUMPI PUSH1 0x0 DUP1 REVERT JUMPDEST POP PUSH2 0x657 PUSH2 0x137F JUMP JUMPDEST PUSH1 0x40 MLOAD PUSH2 0x664 SWAP2 SWAP1 PUSH2 0x20BF JUMP JUMPDEST PUSH1 0x40 MLOAD DUP1 SWAP2 SUB SWAP1 RETURN JUMPDEST CALLVALUE DUP1 ISZERO PUSH2 0x679 JUMPI PUSH1 0x0 DUP1 REVERT JUMPDEST POP PUSH2 0x694 PUSH1 0x4 DUP1 CALLDATASIZE SUB DUP2 ADD SWAP1 PUSH2 0x68F SWAP2 SWAP1 PUSH2 0x2559 JUMP JUMPDEST PUSH2 0x1497 JUMP JUMPDEST PUSH1 0x40 MLOAD PUSH2 0x6A1 SWAP2 SWAP1 PUSH2 0x224F JUMP JUMPDEST PUSH1 0x40 MLOAD DUP1 SWAP2 SUB SWAP1 RETURN JUMPDEST PUSH2 0x6B2 PUSH2 0x16FA JUMP JUMPDEST STOP JUMPDEST CALLVALUE DUP1 ISZERO PUSH2 0x6C0 JUMPI PUSH1 0x0 DUP1 REVERT JUMPDEST POP PUSH2 0x6DB PUSH1 0x4 DUP1 CALLDATASIZE SUB DUP2 ADD SWAP1 PUSH2 0x6D6 SWAP2 SWAP1 PUSH2 0x2207 JUMP JUMPDEST PUSH2 0x1843 JUMP JUMPDEST PUSH1 0x40 MLOAD PUSH2 0x6E8 SWAP2 SWAP1 PUSH2 0x20BF JUMP JUMPDEST PUSH1 0x40 MLOAD DUP1 SWAP2 SUB SWAP1 RETURN JUMPDEST CALLVALUE DUP1 ISZERO PUSH2 0x6FD JUMPI PUSH1 0x0 DUP1 REVERT JUMPDEST POP PUSH2 0x706 PUSH2 0x185B JUMP JUMPDEST PUSH1 0x40 MLOAD PUSH2 0x713 SWAP2 SWAP1 PUSH2 0x20BF JUMP JUMPDEST PUSH1 0x40 MLOAD DUP1 SWAP2 SUB SWAP1 RETURN JUMPDEST CALLVALUE DUP1 ISZERO PUSH2 0x728 JUMPI PUSH1 0x0 DUP1 REVERT JUMPDEST POP PUSH2 0x731 PUSH2 0x1861 JUMP JUMPDEST PUSH1 0x40 MLOAD PUSH2 0x73E SWAP2 SWAP1 PUSH2 0x2492 JUMP JUMPDEST PUSH1 0x40 MLOAD DUP1 SWAP2 SUB SWAP1 RETURN JUMPDEST CALLVALUE DUP1 ISZERO PUSH2 0x753 JUMPI PUSH1 0x0 DUP1 REVERT JUMPDEST POP PUSH2 0x76E PUSH1 0x4 DUP1 CALLDATASIZE SUB DUP2 ADD SWAP1 PUSH2 0x769 SWAP2 SWAP1 PUSH2 0x2456 JUMP JUMPDEST PUSH2 0x1887 JUMP JUMPDEST PUSH1 0x40 MLOAD PUSH2 0x77F SWAP6 SWAP5 SWAP4 SWAP3 SWAP2 SWAP1 PUSH2 0x2599 JUMP JUMPDEST PUSH1 0x40 MLOAD DUP1 SWAP2 SUB SWAP1 RETURN JUMPDEST CALLVALUE DUP1 ISZERO PUSH2 0x794 JUMPI PUSH1 0x0 DUP1 REVERT JUMPDEST POP PUSH2 0x7AF PUSH1 0x4 DUP1 CALLDATASIZE SUB DUP2 ADD SWAP1 PUSH2 0x7AA SWAP2 SWAP1 PUSH2 0x2456 JUMP JUMPDEST PUSH2 0x19EA JUMP JUMPDEST PUSH1 0x40 MLOAD PUSH2 0x7BC SWAP2 SWAP1 PUSH2 0x2492 JUMP JUMPDEST PUSH1 0x40 MLOAD DUP1 SWAP2 SUB SWAP1 RETURN JUMPDEST CALLVALUE DUP1 ISZERO PUSH2 0x7D1 JUMPI PUSH1 0x0 DUP1 REVERT JUMPDEST POP PUSH2 0x7DA PUSH2 0x1A29 JUMP JUMPDEST PUSH1 0x40 MLOAD PUSH2 0x7E7 SWAP2 SWAP1 PUSH2 0x20BF JUMP JUMPDEST PUSH1 0x40 MLOAD DUP1 SWAP2 SUB SWAP1 RETURN JUMPDEST CALLVALUE DUP1 ISZERO PUSH2 0x7FC JUMPI PUSH1 0x0 DUP1 REVERT JUMPDEST POP PUSH2 0x805 PUSH2 0x1A2F JUMP JUMPDEST PUSH1 0x40 MLOAD PUSH2 0x812 SWAP2 SWAP1 PUSH2 0x20BF JUMP JUMPDEST PUSH1 0x40 MLOAD DUP1 SWAP2 SUB SWAP1 RETURN JUMPDEST CALLVALUE DUP1 ISZERO PUSH2 0x827 JUMPI PUSH1 0x0 DUP1 REVERT JUMPDEST POP PUSH2 0x830 PUSH2 0x1A35 JUMP JUMPDEST PUSH1 0x40 MLOAD PUSH2 0x83D SWAP2 SWAP1 PUSH2 0x224F JUMP JUMPDEST PUSH1 0x40 MLOAD DUP1 SWAP2 SUB SWAP1 RETURN JUMPDEST PUSH1 0xB SLOAD DUP2 JUMP JUMPDEST PUSH1 0x4 DUP1 SLOAD PUSH2 0x859 SWAP1 PUSH2 0x2629 JUMP JUMPDEST DUP1 PUSH1 0x1F ADD PUSH1 0x20 DUP1 SWAP2 DIV MUL PUSH1 0x20 ADD PUSH1 0x40 MLOAD SWAP1 DUP2 ADD PUSH1 0x40 MSTORE DUP1 SWAP3 SWAP2 SWAP1 DUP2 DUP2 MSTORE PUSH1 0x20 ADD DUP3 DUP1 SLOAD PUSH2 0x885 SWAP1 PUSH2 0x2629 JUMP JUMPDEST DUP1 ISZERO PUSH2 0x8D2 JUMPI DUP1 PUSH1 0x1F LT PUSH2 0x8A7 JUMPI PUSH2 0x100 DUP1 DUP4 SLOAD DIV MUL DUP4 MSTORE SWAP2 PUSH1 0x20 ADD SWAP2 PUSH2 0x8D2 JUMP JUMPDEST DUP3 ADD SWAP2 SWAP1 PUSH1 0x0 MSTORE PUSH1 0x20 PUSH1 0x0 KECCAK256 SWAP1 JUMPDEST DUP2 SLOAD DUP2 MSTORE SWAP1 PUSH1 0x1 ADD SWAP1 PUSH1 0x20 ADD DUP1 DUP4 GT PUSH2 0x8B5 JUMPI DUP3 SWAP1 SUB PUSH1 0x1F AND DUP3 ADD SWAP2 JUMPDEST POP POP POP POP POP DUP2 JUMP JUMPDEST PUSH1 0x7 PUSH1 0x20 MSTORE DUP1 PUSH1 0x0 MSTORE PUSH1 0x40 PUSH1 0x0 KECCAK256 PUSH1 0x0 SWAP2 POP SLOAD SWAP1 PUSH2 0x100 EXP SWAP1 DIV PUSH1 0xFF AND DUP2 JUMP JUMPDEST PUSH1 0x5 PUSH1 0x0 SWAP1 SLOAD SWAP1 PUSH2 0x100 EXP SWAP1 DIV PUSH20 0xFFFFFFFFFFFFFFFFFFFFFFFFFFFFFFFFFFFFFFFF AND PUSH20 0xFFFFFFFFFFFFFFFFFFFFFFFFFFFFFFFFFFFFFFFF AND CALLER PUSH20 0xFFFFFFFFFFFFFFFFFFFFFFFFFFFFFFFFFFFFFFFF AND EQ PUSH2 0x954 JUMPI PUSH1 0x0 DUP1 REVERT JUMPDEST PUSH1 0x0 PUSH1 0x14 PUSH1 0x1 DUP2 PUSH1 0x1 DUP2 SLOAD ADD DUP1 DUP3 SSTORE DUP1 SWAP2 POP POP SUB SWAP1 PUSH1 0x0 MSTORE PUSH1 0x20 PUSH1 0x0 KECCAK256 SWAP1 PUSH1 0x6 MUL ADD SWAP1 POP DUP3 DUP2 PUSH1 0x0 ADD SWAP1 DUP2 PUSH2 0x989 SWAP2 SWAP1 PUSH2 0x2806 JUMP JUMPDEST POP DUP2 DUP2 PUSH1 0x2 ADD DUP2 SWAP1 SSTORE POP DUP4 DUP2 PUSH1 0x1 ADD SWAP1 DUP2 PUSH2 0x9A4 SWAP2 SWAP1 PUSH2 0x2806 JUMP JUMPDEST POP PUSH1 0x15 PUSH1 0x0 DUP2 SLOAD DUP1 SWAP3 SWAP2 SWAP1 PUSH2 0x9B8 SWAP1 PUSH2 0x2907 JUMP JUMPDEST SWAP2 SWAP1 POP SSTORE POP POP POP POP POP JUMP JUMPDEST PUSH1 0x0 PUSH2 0x3E8 PUSH1 0x1 SLOAD PUSH2 0x3E8 PUSH2 0x9D8 SWAP2 SWAP1 PUSH2 0x294F JUMP JUMPDEST SELFBALANCE PUSH2 0x9E3 SWAP2 SWAP1 PUSH2 0x2983 JUMP JUMPDEST PUSH2 0x9ED SWAP2 SWAP1 PUSH2 0x2A0C JUMP JUMPDEST SWAP1 POP SWAP1 JUMP JUMPDEST PUSH1 0x1A SLOAD DUP2 JUMP JUMPDEST PUSH1 0x18 SLOAD DUP2 JUMP JUMPDEST PUSH1 0xD PUSH1 0x20 MSTORE DUP1 PUSH1 0x0 MSTORE PUSH1 0x40 PUSH1 0x0 KECCAK256 PUSH1 0x0 SWAP2 POP SWAP1 POP SLOAD DUP2 JUMP JUMPDEST PUSH1 0x0 DUP1 PUSH1 0x14 DUP4 DUP2 SLOAD DUP2 LT PUSH2 0xA2D JUMPI PUSH2 0xA2C PUSH2 0x2A3D JUMP JUMPDEST JUMPDEST SWAP1 PUSH1 0x0 MSTORE PUSH1 0x20 PUSH1 0x0 KECCAK256 SWAP1 PUSH1 0x6 MUL ADD SWAP1 POP DUP1 PUSH1 0x5 ADD PUSH1 0x0 CALLER PUSH20 0xFFFFFFFFFFFFFFFFFFFFFFFFFFFFFFFFFFFFFFFF AND PUSH20 0xFFFFFFFFFFFFFFFFFFFFFFFFFFFFFFFFFFFFFFFF AND DUP2 MSTORE PUSH1 0x20 ADD SWAP1 DUP2 MSTORE PUSH1 0x20 ADD PUSH1 0x0 KECCAK256 PUSH1 0x0 SWAP1 SLOAD SWAP1 PUSH2 0x100 EXP SWAP1 DIV PUSH1 0xFF AND SWAP2 POP POP SWAP2 SWAP1 POP JUMP JUMPDEST PUSH1 0x8 PUSH1 0x20 MSTORE DUP1 PUSH1 0x0 MSTORE PUSH1 0x40 PUSH1 0x0 KECCAK256 PUSH1 0x0 SWAP2 POP SLOAD SWAP1 PUSH2 0x100 EXP SWAP1 DIV PUSH1 0xFF AND DUP2 JUMP JUMPDEST PUSH1 0x11 SLOAD DUP2 JUMP JUMPDEST PUSH1 0x0 PUSH1 0x1 ISZERO ISZERO PUSH1 0x13 PUSH1 0x0 SWAP1 SLOAD SWAP1 PUSH2 0x100 EXP SWAP1 DIV PUSH1 0xFF AND ISZERO ISZERO EQ PUSH2 0xADC JUMPI PUSH1 0x0 DUP1 REVERT JUMPDEST PUSH1 0x5 PUSH1 0x0 SWAP1 SLOAD SWAP1 PUSH2 0x100 EXP SWAP1 DIV PUSH20 0xFFFFFFFFFFFFFFFFFFFFFFFFFFFFFFFFFFFFFFFF AND PUSH20 0xFFFFFFFFFFFFFFFFFFFFFFFFFFFFFFFFFFFFFFFF AND CALLER PUSH20 0xFFFFFFFFFFFFFFFFFFFFFFFFFFFFFFFFFFFFFFFF AND EQ PUSH2 0xB36 JUMPI PUSH1 0x0 DUP1 REVERT JUMPDEST PUSH1 0x0 PUSH1 0x14 DUP4 DUP2 SLOAD DUP2 LT PUSH2 0xB4C JUMPI PUSH2 0xB4B PUSH2 0x2A3D JUMP JUMPDEST JUMPDEST SWAP1 PUSH1 0x0 MSTORE PUSH1 0x20 PUSH1 0x0 KECCAK256 SWAP1 PUSH1 0x6 MUL ADD SWAP1 POP PUSH1 0x2 PUSH1 0x3 SLOAD PUSH2 0xB6B SWAP2 SWAP1 PUSH2 0x2A0C JUMP JUMPDEST DUP2 PUSH1 0x4 ADD SLOAD LT ISZERO PUSH2 0xB7B JUMPI PUSH1 0x0 DUP1 REVERT JUMPDEST PUSH1 0x6 PUSH1 0x0 SWAP1 SLOAD SWAP1 PUSH2 0x100 EXP SWAP1 DIV PUSH20 0xFFFFFFFFFFFFFFFFFFFFFFFFFFFFFFFFFFFFFFFF AND PUSH20 0xFFFFFFFFFFFFFFFFFFFFFFFFFFFFFFFFFFFFFFFF AND PUSH2 0x8FC DUP3 PUSH1 0x2 ADD SLOAD SWAP1 DUP2 ISZERO MUL SWAP1 PUSH1 0x40 MLOAD PUSH1 0x0 PUSH1 0x40 MLOAD DUP1 DUP4 SUB DUP2 DUP6 DUP9 DUP9 CALL SWAP4 POP POP POP POP ISZERO DUP1 ISZERO PUSH2 0xBE7 JUMPI RETURNDATASIZE PUSH1 0x0 DUP1 RETURNDATACOPY RETURNDATASIZE PUSH1 0x0 REVERT JUMPDEST POP PUSH1 0x1 DUP2 PUSH1 0x3 ADD PUSH1 0x0 PUSH2 0x100 EXP DUP2 SLOAD DUP2 PUSH1 0xFF MUL NOT AND SWAP1 DUP4 ISZERO ISZERO MUL OR SWAP1 SSTORE POP PUSH1 0x1 SWAP2 POP POP SWAP2 SWAP1 POP JUMP JUMPDEST PUSH1 0x5 PUSH1 0x0 SWAP1 SLOAD SWAP1 PUSH2 0x100 EXP SWAP1 DIV PUSH20 0xFFFFFFFFFFFFFFFFFFFFFFFFFFFFFFFFFFFFFFFF AND DUP2 JUMP JUMPDEST PUSH1 0x1 PUSH1 0x13 PUSH1 0x0 PUSH2 0x100 EXP DUP2 SLOAD DUP2 PUSH1 0xFF MUL NOT AND SWAP1 DUP4 ISZERO ISZERO MUL OR SWAP1 SSTORE POP PUSH1 0x0 SELFBALANCE SWAP1 POP PUSH1 0x0 DUP1 PUSH1 0x0 SWAP1 POP JUMPDEST PUSH1 0xA DUP1 SLOAD SWAP1 POP DUP2 LT ISZERO PUSH2 0xD5F JUMPI PUSH1 0x0 PUSH1 0xA DUP3 DUP2 SLOAD DUP2 LT PUSH2 0xC80 JUMPI PUSH2 0xC7F PUSH2 0x2A3D JUMP JUMPDEST JUMPDEST SWAP1 PUSH1 0x0 MSTORE PUSH1 0x20 PUSH1 0x0 KECCAK256 ADD PUSH1 0x0 SWAP1 SLOAD SWAP1 PUSH2 0x100 EXP SWAP1 DIV PUSH20 0xFFFFFFFFFFFFFFFFFFFFFFFFFFFFFFFFFFFFFFFF AND SWAP1 POP PUSH1 0xC PUSH1 0x0 DUP3 PUSH20 0xFFFFFFFFFFFFFFFFFFFFFFFFFFFFFFFFFFFFFFFF AND PUSH20 0xFFFFFFFFFFFFFFFFFFFFFFFFFFFFFFFFFFFFFFFF AND DUP2 MSTORE PUSH1 0x20 ADD SWAP1 DUP2 MSTORE PUSH1 0x20 ADD PUSH1 0x0 KECCAK256 SLOAD SWAP3 POP DUP4 PUSH2 0x3E8 DUP5 PUSH2 0xCFE SWAP2 SWAP1 PUSH2 0x2983 JUMP JUMPDEST PUSH2 0xD08 SWAP2 SWAP1 PUSH2 0x2A0C JUMP JUMPDEST PUSH1 0xD PUSH1 0x0 DUP4 PUSH20 0xFFFFFFFFFFFFFFFFFFFFFFFFFFFFFFFFFFFFFFFF AND PUSH20 0xFFFFFFFFFFFFFFFFFFFFFFFFFFFFFFFFFFFFFFFF AND DUP2 MSTORE PUSH1 0x20 ADD SWAP1 DUP2 MSTORE PUSH1 0x20 ADD PUSH1 0x0 KECCAK256 DUP2 SWAP1 SSTORE POP POP DUP1 DUP1 PUSH2 0xD57 SWAP1 PUSH2 0x2907 JUMP JUMPDEST SWAP2 POP POP PUSH2 0xC5D JUMP JUMPDEST POP PUSH2 0xD68 PUSH2 0x1A48 JUMP JUMPDEST POP POP JUMP JUMPDEST PUSH1 0x7 PUSH1 0x0 CALLER PUSH20 0xFFFFFFFFFFFFFFFFFFFFFFFFFFFFFFFFFFFFFFFF AND PUSH20 0xFFFFFFFFFFFFFFFFFFFFFFFFFFFFFFFFFFFFFFFF AND DUP2 MSTORE PUSH1 0x20 ADD SWAP1 DUP2 MSTORE PUSH1 0x20 ADD PUSH1 0x0 KECCAK256 PUSH1 0x0 SWAP1 SLOAD SWAP1 PUSH2 0x100 EXP SWAP1 DIV PUSH1 0xFF AND PUSH2 0xDC2 JUMPI PUSH1 0x0 DUP1 REVERT JUMPDEST PUSH1 0x0 PUSH1 0x14 DUP4 DUP2 SLOAD DUP2 LT PUSH2 0xDD8 JUMPI PUSH2 0xDD7 PUSH2 0x2A3D JUMP JUMPDEST JUMPDEST SWAP1 PUSH1 0x0 MSTORE PUSH1 0x20 PUSH1 0x0 KECCAK256 SWAP1 PUSH1 0x6 MUL ADD SWAP1 POP DUP1 PUSH1 0x5 ADD PUSH1 0x0 CALLER PUSH20 0xFFFFFFFFFFFFFFFFFFFFFFFFFFFFFFFFFFFFFFFF AND PUSH20 0xFFFFFFFFFFFFFFFFFFFFFFFFFFFFFFFFFFFFFFFF AND DUP2 MSTORE PUSH1 0x20 ADD SWAP1 DUP2 MSTORE PUSH1 0x20 ADD PUSH1 0x0 KECCAK256 PUSH1 0x0 SWAP1 SLOAD SWAP1 PUSH2 0x100 EXP SWAP1 DIV PUSH1 0xFF AND ISZERO PUSH2 0xE41 JUMPI PUSH1 0x0 DUP1 REVERT JUMPDEST PUSH1 0x1 DUP2 PUSH1 0x5 ADD PUSH1 0x0 CALLER PUSH20 0xFFFFFFFFFFFFFFFFFFFFFFFFFFFFFFFFFFFFFFFF AND PUSH20 0xFFFFFFFFFFFFFFFFFFFFFFFFFFFFFFFFFFFFFFFF AND DUP2 MSTORE PUSH1 0x20 ADD SWAP1 DUP2 MSTORE PUSH1 0x20 ADD PUSH1 0x0 KECCAK256 PUSH1 0x0 PUSH2 0x100 EXP DUP2 SLOAD DUP2 PUSH1 0xFF MUL NOT AND SWAP1 DUP4 ISZERO ISZERO MUL OR SWAP1 SSTORE POP PUSH1 0x1 ISZERO ISZERO DUP3 ISZERO ISZERO SUB PUSH2 0xEC2 JUMPI DUP1 PUSH1 0x4 ADD PUSH1 0x0 DUP2 SLOAD DUP1 SWAP3 SWAP2 SWAP1 PUSH2 0xEBC SWAP1 PUSH2 0x2907 JUMP JUMPDEST SWAP2 SWAP1 POP SSTORE POP JUMPDEST POP POP POP JUMP JUMPDEST PUSH1 0x2 PUSH1 0x3 SLOAD PUSH2 0xED6 SWAP2 SWAP1 PUSH2 0x2A0C JUMP JUMPDEST PUSH1 0x9 SLOAD LT ISZERO DUP1 PUSH2 0xEF9 JUMPI POP PUSH1 0x0 ISZERO ISZERO PUSH1 0x13 PUSH1 0x0 SWAP1 SLOAD SWAP1 PUSH2 0x100 EXP SWAP1 DIV PUSH1 0xFF AND ISZERO ISZERO EQ JUMPDEST PUSH2 0xF02 JUMPI PUSH1 0x0 DUP1 REVERT JUMPDEST PUSH1 0x6 PUSH1 0x0 SWAP1 SLOAD SWAP1 PUSH2 0x100 EXP SWAP1 DIV PUSH20 0xFFFFFFFFFFFFFFFFFFFFFFFFFFFFFFFFFFFFFFFF AND PUSH20 0xFFFFFFFFFFFFFFFFFFFFFFFFFFFFFFFFFFFFFFFF AND CALLER PUSH20 0xFFFFFFFFFFFFFFFFFFFFFFFFFFFFFFFFFFFFFFFF AND EQ PUSH2 0xF5C JUMPI PUSH1 0x0 DUP1 REVERT JUMPDEST PUSH2 0xF64 PUSH2 0x9C3 JUMP JUMPDEST PUSH1 0x19 DUP2 SWAP1 SSTORE POP PUSH1 0x0 JUMPDEST PUSH1 0xA DUP1 SLOAD SWAP1 POP DUP2 LT ISZERO PUSH2 0x10D6 JUMPI PUSH1 0x0 PUSH1 0xA DUP3 DUP2 SLOAD DUP2 LT PUSH2 0xF90 JUMPI PUSH2 0xF8F PUSH2 0x2A3D JUMP JUMPDEST JUMPDEST SWAP1 PUSH1 0x0 MSTORE PUSH1 0x20 PUSH1 0x0 KECCAK256 ADD PUSH1 0x0 SWAP1 SLOAD SWAP1 PUSH2 0x100 EXP SWAP1 DIV PUSH20 0xFFFFFFFFFFFFFFFFFFFFFFFFFFFFFFFFFFFFFFFF AND SWAP1 POP PUSH1 0x0 ISZERO ISZERO PUSH1 0xE PUSH1 0x0 DUP4 PUSH20 0xFFFFFFFFFFFFFFFFFFFFFFFFFFFFFFFFFFFFFFFF AND PUSH20 0xFFFFFFFFFFFFFFFFFFFFFFFFFFFFFFFFFFFFFFFF AND DUP2 MSTORE PUSH1 0x20 ADD SWAP1 DUP2 MSTORE PUSH1 0x20 ADD PUSH1 0x0 KECCAK256 PUSH1 0x0 SWAP1 SLOAD SWAP1 PUSH2 0x100 EXP SWAP1 DIV PUSH1 0xFF AND ISZERO ISZERO SUB PUSH2 0x10C2 JUMPI PUSH1 0x0 PUSH1 0xD PUSH1 0x0 DUP4 PUSH20 0xFFFFFFFFFFFFFFFFFFFFFFFFFFFFFFFFFFFFFFFF AND PUSH20 0xFFFFFFFFFFFFFFFFFFFFFFFFFFFFFFFFFFFFFFFF AND DUP2 MSTORE PUSH1 0x20 ADD SWAP1 DUP2 MSTORE PUSH1 0x20 ADD PUSH1 0x0 KECCAK256 SLOAD SWAP1 POP PUSH1 0x0 PUSH2 0x3E8 PUSH1 0x19 SLOAD DUP4 PUSH2 0x106C SWAP2 SWAP1 PUSH2 0x2983 JUMP JUMPDEST PUSH2 0x1076 SWAP2 SWAP1 PUSH2 0x2A0C JUMP JUMPDEST SWAP1 POP DUP3 PUSH20 0xFFFFFFFFFFFFFFFFFFFFFFFFFFFFFFFFFFFFFFFF AND PUSH2 0x8FC DUP3 SWAP1 DUP2 ISZERO MUL SWAP1 PUSH1 0x40 MLOAD PUSH1 0x0 PUSH1 0x40 MLOAD DUP1 DUP4 SUB DUP2 DUP6 DUP9 DUP9 CALL SWAP4 POP POP POP POP ISZERO DUP1 ISZERO PUSH2 0x10BE JUMPI RETURNDATASIZE PUSH1 0x0 DUP1 RETURNDATACOPY RETURNDATASIZE PUSH1 0x0 REVERT JUMPDEST POP POP POP JUMPDEST POP DUP1 DUP1 PUSH2 0x10CE SWAP1 PUSH2 0x2907 JUMP JUMPDEST SWAP2 POP POP PUSH2 0xF6D JUMP JUMPDEST POP SELFBALANCE PUSH1 0x18 DUP2 SWAP1 SSTORE POP PUSH1 0x5 PUSH1 0x0 SWAP1 SLOAD SWAP1 PUSH2 0x100 EXP SWAP1 DIV PUSH20 0xFFFFFFFFFFFFFFFFFFFFFFFFFFFFFFFFFFFFFFFF AND PUSH20 0xFFFFFFFFFFFFFFFFFFFFFFFFFFFFFFFFFFFFFFFF AND PUSH2 0x8FC PUSH1 0x18 SLOAD SWAP1 DUP2 ISZERO MUL SWAP1 PUSH1 0x40 MLOAD PUSH1 0x0 PUSH1 0x40 MLOAD DUP1 DUP4 SUB DUP2 DUP6 DUP9 DUP9 CALL SWAP4 POP POP POP POP ISZERO DUP1 ISZERO PUSH2 0x1148 JUMPI RETURNDATASIZE PUSH1 0x0 DUP1 RETURNDATACOPY RETURNDATASIZE PUSH1 0x0 REVERT JUMPDEST POP JUMP JUMPDEST PUSH1 0x0 DUP1 PUSH1 0x14 DUP5 DUP2 SLOAD DUP2 LT PUSH2 0x1162 JUMPI PUSH2 0x1161 PUSH2 0x2A3D JUMP JUMPDEST JUMPDEST SWAP1 PUSH1 0x0 MSTORE PUSH1 0x20 PUSH1 0x0 KECCAK256 SWAP1 PUSH1 0x6 MUL ADD SWAP1 POP DUP1 PUSH1 0x5 ADD PUSH1 0x0 DUP5 PUSH20 0xFFFFFFFFFFFFFFFFFFFFFFFFFFFFFFFFFFFFFFFF AND PUSH20 0xFFFFFFFFFFFFFFFFFFFFFFFFFFFFFFFFFFFFFFFF AND DUP2 MSTORE PUSH1 0x20 ADD SWAP1 DUP2 MSTORE PUSH1 0x20 ADD PUSH1 0x0 KECCAK256 PUSH1 0x0 SWAP1 SLOAD SWAP1 PUSH2 0x100 EXP SWAP1 DIV PUSH1 0xFF AND SWAP2 POP POP SWAP3 SWAP2 POP POP JUMP JUMPDEST PUSH1 0x1 ISZERO ISZERO PUSH1 0x13 PUSH1 0x0 SWAP1 SLOAD SWAP1 PUSH2 0x100 EXP SWAP1 DIV PUSH1 0xFF AND ISZERO ISZERO EQ PUSH2 0x11EA JUMPI PUSH1 0x0 DUP1 REVERT JUMPDEST PUSH1 0x7 PUSH1 0x0 CALLER PUSH20 0xFFFFFFFFFFFFFFFFFFFFFFFFFFFFFFFFFFFFFFFF AND PUSH20 0xFFFFFFFFFFFFFFFFFFFFFFFFFFFFFFFFFFFFFFFF AND DUP2 MSTORE PUSH1 0x20 ADD SWAP1 DUP2 MSTORE PUSH1 0x20 ADD PUSH1 0x0 KECCAK256 PUSH1 0x0 SWAP1 SLOAD SWAP1 PUSH2 0x100 EXP SWAP1 DIV PUSH1 0xFF AND PUSH2 0x1240 JUMPI PUSH1 0x0 DUP1 REVERT JUMPDEST PUSH1 0x0 ISZERO ISZERO PUSH1 0x8 PUSH1 0x0 CALLER PUSH20 0xFFFFFFFFFFFFFFFFFFFFFFFFFFFFFFFFFFFFFFFF AND PUSH20 0xFFFFFFFFFFFFFFFFFFFFFFFFFFFFFFFFFFFFFFFF AND DUP2 MSTORE PUSH1 0x20 ADD SWAP1 DUP2 MSTORE PUSH1 0x20 ADD PUSH1 0x0 KECCAK256 PUSH1 0x0 SWAP1 SLOAD SWAP1 PUSH2 0x100 EXP SWAP1 DIV PUSH1 0xFF AND ISZERO ISZERO SUB PUSH2 0x1309 JUMPI PUSH1 0x1 PUSH1 0x8 PUSH1 0x0 CALLER PUSH20 0xFFFFFFFFFFFFFFFFFFFFFFFFFFFFFFFFFFFFFFFF AND PUSH20 0xFFFFFFFFFFFFFFFFFFFFFFFFFFFFFFFFFFFFFFFF AND DUP2 MSTORE PUSH1 0x20 ADD SWAP1 DUP2 MSTORE PUSH1 0x20 ADD PUSH1 0x0 KECCAK256 PUSH1 0x0 PUSH2 0x100 EXP DUP2 SLOAD DUP2 PUSH1 0xFF MUL NOT AND SWAP1 DUP4 ISZERO ISZERO MUL OR SWAP1 SSTORE POP PUSH1 0x9 PUSH1 0x0 DUP2 SLOAD DUP1 SWAP3 SWAP2 SWAP1 PUSH2 0x1303 SWAP1 PUSH2 0x2907 JUMP JUMPDEST SWAP2 SWAP1 POP SSTORE POP JUMPDEST PUSH1 0x2 PUSH1 0x3 SLOAD PUSH2 0x1318 SWAP2 SWAP1 PUSH2 0x2A0C JUMP JUMPDEST PUSH1 0x9 SLOAD LT PUSH2 0x133C JUMPI PUSH1 0x0 PUSH1 0x13 PUSH1 0x0 PUSH2 0x100 EXP DUP2 SLOAD DUP2 PUSH1 0xFF MUL NOT AND SWAP1 DUP4 ISZERO ISZERO MUL OR SWAP1 SSTORE POP JUMPDEST JUMP JUMPDEST PUSH1 0x17 SLOAD DUP2 JUMP JUMPDEST PUSH1 0xF SLOAD DUP2 JUMP JUMPDEST PUSH1 0x15 SLOAD DUP2 JUMP JUMPDEST PUSH1 0x0 PUSH1 0x1 SWAP1 POP SWAP1 JUMP JUMPDEST PUSH1 0xE PUSH1 0x20 MSTORE DUP1 PUSH1 0x0 MSTORE PUSH1 0x40 PUSH1 0x0 KECCAK256 PUSH1 0x0 SWAP2 POP SLOAD SWAP1 PUSH2 0x100 EXP SWAP1 DIV PUSH1 0xFF AND DUP2 JUMP JUMPDEST PUSH1 0x19 SLOAD DUP2 JUMP JUMPDEST PUSH1 0x0 DUP1 PUSH1 0x0 JUMPDEST PUSH1 0xA DUP1 SLOAD SWAP1 POP DUP2 LT ISZERO PUSH2 0x148F JUMPI PUSH1 0x0 PUSH1 0xA DUP3 DUP2 SLOAD DUP2 LT PUSH2 0x13A8 JUMPI PUSH2 0x13A7 PUSH2 0x2A3D JUMP JUMPDEST JUMPDEST SWAP1 PUSH1 0x0 MSTORE PUSH1 0x20 PUSH1 0x0 KECCAK256 ADD PUSH1 0x0 SWAP1 SLOAD SWAP1 PUSH2 0x100 EXP SWAP1 DIV PUSH20 0xFFFFFFFFFFFFFFFFFFFFFFFFFFFFFFFFFFFFFFFF AND SWAP1 POP PUSH1 0x0 ISZERO ISZERO PUSH1 0xE PUSH1 0x0 DUP4 PUSH20 0xFFFFFFFFFFFFFFFFFFFFFFFFFFFFFFFFFFFFFFFF AND PUSH20 0xFFFFFFFFFFFFFFFFFFFFFFFFFFFFFFFFFFFFFFFF AND DUP2 MSTORE PUSH1 0x20 ADD SWAP1 DUP2 MSTORE PUSH1 0x20 ADD PUSH1 0x0 KECCAK256 PUSH1 0x0 SWAP1 SLOAD SWAP1 PUSH2 0x100 EXP SWAP1 DIV PUSH1 0xFF AND ISZERO ISZERO SUB PUSH2 0x147B JUMPI PUSH1 0xD PUSH1 0x0 DUP3 PUSH20 0xFFFFFFFFFFFFFFFFFFFFFFFFFFFFFFFFFFFFFFFF AND PUSH20 0xFFFFFFFFFFFFFFFFFFFFFFFFFFFFFFFFFFFFFFFF AND DUP2 MSTORE PUSH1 0x20 ADD SWAP1 DUP2 MSTORE PUSH1 0x20 ADD PUSH1 0x0 KECCAK256 SLOAD DUP4 PUSH2 0x1478 SWAP2 SWAP1 PUSH2 0x2A6C JUMP JUMPDEST SWAP3 POP JUMPDEST POP DUP1 DUP1 PUSH2 0x1487 SWAP1 PUSH2 0x2907 JUMP JUMPDEST SWAP2 POP POP PUSH2 0x1385 JUMP JUMPDEST POP DUP1 SWAP2 POP POP SWAP1 JUMP JUMPDEST PUSH1 0x0 PUSH1 0x1 ISZERO ISZERO PUSH1 0x13 PUSH1 0x0 SWAP1 SLOAD SWAP1 PUSH2 0x100 EXP SWAP1 DIV PUSH1 0xFF AND ISZERO ISZERO EQ PUSH2 0x14B9 JUMPI PUSH1 0x0 DUP1 REVERT JUMPDEST PUSH1 0x6 PUSH1 0x0 SWAP1 SLOAD SWAP1 PUSH2 0x100 EXP SWAP1 DIV PUSH20 0xFFFFFFFFFFFFFFFFFFFFFFFFFFFFFFFFFFFFFFFF AND PUSH20 0xFFFFFFFFFFFFFFFFFFFFFFFFFFFFFFFFFFFFFFFF AND CALLER PUSH20 0xFFFFFFFFFFFFFFFFFFFFFFFFFFFFFFFFFFFFFFFF AND EQ PUSH2 0x1513 JUMPI PUSH1 0x0 DUP1 REVERT JUMPDEST PUSH1 0x0 ISZERO ISZERO PUSH1 0x7 PUSH1 0x0 CALLER PUSH20 0xFFFFFFFFFFFFFFFFFFFFFFFFFFFFFFFFFFFFFFFF AND PUSH20 0xFFFFFFFFFFFFFFFFFFFFFFFFFFFFFFFFFFFFFFFF AND DUP2 MSTORE PUSH1 0x20 ADD SWAP1 DUP2 MSTORE PUSH1 0x20 ADD PUSH1 0x0 KECCAK256 PUSH1 0x0 SWAP1 SLOAD SWAP1 PUSH2 0x100 EXP SWAP1 DIV PUSH1 0xFF AND ISZERO ISZERO EQ PUSH2 0x1570 JUMPI PUSH1 0x0 DUP1 REVERT JUMPDEST PUSH1 0x0 PUSH1 0xD PUSH1 0x0 DUP6 PUSH20 0xFFFFFFFFFFFFFFFFFFFFFFFFFFFFFFFFFFFFFFFF AND PUSH20 0xFFFFFFFFFFFFFFFFFFFFFFFFFFFFFFFFFFFFFFFF AND DUP2 MSTORE PUSH1 0x20 ADD SWAP1 DUP2 MSTORE PUSH1 0x20 ADD PUSH1 0x0 KECCAK256 SLOAD SWAP1 POP PUSH1 0x0 PUSH2 0x15BE PUSH2 0x9C3 JUMP JUMPDEST DUP5 PUSH2 0x15C9 SWAP2 SWAP1 PUSH2 0x2A6C JUMP JUMPDEST SWAP1 POP PUSH1 0x0 PUSH2 0x3E8 PUSH1 0x0 SLOAD PUSH2 0x3E8 DUP6 DUP6 PUSH2 0x15E2 SWAP2 SWAP1 PUSH2 0x2983 JUMP JUMPDEST PUSH2 0x15EC SWAP2 SWAP1 PUSH2 0x2A0C JUMP JUMPDEST PUSH2 0x15F6 SWAP2 SWAP1 PUSH2 0x2983 JUMP JUMPDEST PUSH2 0x1600 SWAP2 SWAP1 PUSH2 0x2A0C JUMP JUMPDEST SWAP1 POP DUP1 PUSH1 0x17 DUP2 SWAP1 SSTORE POP SELFBALANCE DUP2 GT PUSH2 0x16EC JUMPI PUSH1 0x17 SLOAD PUSH1 0x1A DUP2 SWAP1 SSTORE POP DUP6 PUSH20 0xFFFFFFFFFFFFFFFFFFFFFFFFFFFFFFFFFFFFFFFF AND PUSH2 0x8FC DUP3 SWAP1 DUP2 ISZERO MUL SWAP1 PUSH1 0x40 MLOAD PUSH1 0x0 PUSH1 0x40 MLOAD DUP1 DUP4 SUB DUP2 DUP6 DUP9 DUP9 CALL SWAP4 POP POP POP POP ISZERO DUP1 ISZERO PUSH2 0x165F JUMPI RETURNDATASIZE PUSH1 0x0 DUP1 RETURNDATACOPY RETURNDATASIZE PUSH1 0x0 REVERT JUMPDEST POP PUSH1 0x1 PUSH1 0xE PUSH1 0x0 DUP9 PUSH20 0xFFFFFFFFFFFFFFFFFFFFFFFFFFFFFFFFFFFFFFFF AND PUSH20 0xFFFFFFFFFFFFFFFFFFFFFFFFFFFFFFFFFFFFFFFF AND DUP2 MSTORE PUSH1 0x20 ADD SWAP1 DUP2 MSTORE PUSH1 0x20 ADD PUSH1 0x0 KECCAK256 PUSH1 0x0 PUSH2 0x100 EXP DUP2 SLOAD DUP2 PUSH1 0xFF MUL NOT AND SWAP1 DUP4 ISZERO ISZERO MUL OR SWAP1 SSTORE POP DUP1 PUSH1 0x16 DUP2 SWAP1 SSTORE POP PUSH2 0x16C8 DUP4 PUSH2 0x1F2E JUMP JUMPDEST PUSH1 0xB PUSH1 0x0 DUP2 SLOAD DUP1 SWAP3 SWAP2 SWAP1 PUSH2 0x16DB SWAP1 PUSH2 0x2AC2 JUMP JUMPDEST SWAP2 SWAP1 POP SSTORE POP PUSH1 0x1 SWAP4 POP POP POP POP PUSH2 0x16F4 JUMP JUMPDEST PUSH1 0x0 SWAP4 POP POP POP POP JUMPDEST SWAP3 SWAP2 POP POP JUMP JUMPDEST PUSH1 0x0 ISZERO ISZERO PUSH1 0x13 PUSH1 0x0 SWAP1 SLOAD SWAP1 PUSH2 0x100 EXP SWAP1 DIV PUSH1 0xFF AND ISZERO ISZERO EQ PUSH2 0x171A JUMPI PUSH1 0x0 DUP1 REVERT JUMPDEST PUSH1 0x0 PUSH1 0xC PUSH1 0x0 CALLER PUSH20 0xFFFFFFFFFFFFFFFFFFFFFFFFFFFFFFFFFFFFFFFF AND PUSH20 0xFFFFFFFFFFFFFFFFFFFFFFFFFFFFFFFFFFFFFFFF AND DUP2 MSTORE PUSH1 0x20 ADD SWAP1 DUP2 MSTORE PUSH1 0x20 ADD PUSH1 0x0 KECCAK256 SLOAD SWAP1 POP PUSH1 0x0 DUP2 SUB PUSH2 0x17F1 JUMPI PUSH1 0xF SLOAD CALLVALUE LT ISZERO PUSH2 0x1775 JUMPI PUSH1 0x0 DUP1 REVERT JUMPDEST PUSH1 0xA CALLER SWAP1 DUP1 PUSH1 0x1 DUP2 SLOAD ADD DUP1 DUP3 SSTORE DUP1 SWAP2 POP POP PUSH1 0x1 SWAP1 SUB SWAP1 PUSH1 0x0 MSTORE PUSH1 0x20 PUSH1 0x0 KECCAK256 ADD PUSH1 0x0 SWAP1 SWAP2 SWAP1 SWAP2 SWAP1 SWAP2 PUSH2 0x100 EXP DUP2 SLOAD DUP2 PUSH20 0xFFFFFFFFFFFFFFFFFFFFFFFFFFFFFFFFFFFFFFFF MUL NOT AND SWAP1 DUP4 PUSH20 0xFFFFFFFFFFFFFFFFFFFFFFFFFFFFFFFFFFFFFFFF AND MUL OR SWAP1 SSTORE POP PUSH1 0xB PUSH1 0x0 DUP2 SLOAD DUP1 SWAP3 SWAP2 SWAP1 PUSH2 0x17EB SWAP1 PUSH2 0x2907 JUMP JUMPDEST SWAP2 SWAP1 POP SSTORE POP JUMPDEST CALLVALUE DUP2 PUSH2 0x17FD SWAP2 SWAP1 PUSH2 0x2A6C JUMP JUMPDEST PUSH1 0xC PUSH1 0x0 CALLER PUSH20 0xFFFFFFFFFFFFFFFFFFFFFFFFFFFFFFFFFFFFFFFF AND PUSH20 0xFFFFFFFFFFFFFFFFFFFFFFFFFFFFFFFFFFFFFFFF AND DUP2 MSTORE PUSH1 0x20 ADD SWAP1 DUP2 MSTORE PUSH1 0x20 ADD PUSH1 0x0 KECCAK256 DUP2 SWAP1 SSTORE POP POP JUMP JUMPDEST PUSH1 0xC PUSH1 0x20 MSTORE DUP1 PUSH1 0x0 MSTORE PUSH1 0x40 PUSH1 0x0 KECCAK256 PUSH1 0x0 SWAP2 POP SWAP1 POP SLOAD DUP2 JUMP JUMPDEST PUSH1 0x16 SLOAD DUP2 JUMP JUMPDEST PUSH1 0x6 PUSH1 0x0 SWAP1 SLOAD SWAP1 PUSH2 0x100 EXP SWAP1 DIV PUSH20 0xFFFFFFFFFFFFFFFFFFFFFFFFFFFFFFFFFFFFFFFF AND DUP2 JUMP JUMPDEST PUSH1 0x14 DUP2 DUP2 SLOAD DUP2 LT PUSH2 0x1897 JUMPI PUSH1 0x0 DUP1 REVERT JUMPDEST SWAP1 PUSH1 0x0 MSTORE PUSH1 0x20 PUSH1 0x0 KECCAK256 SWAP1 PUSH1 0x6 MUL ADD PUSH1 0x0 SWAP2 POP SWAP1 POP DUP1 PUSH1 0x0 ADD DUP1 SLOAD PUSH2 0x18BA SWAP1 PUSH2 0x2629 JUMP JUMPDEST DUP1 PUSH1 0x1F ADD PUSH1 0x20 DUP1 SWAP2 DIV MUL PUSH1 0x20 ADD PUSH1 0x40 MLOAD SWAP1 DUP2 ADD PUSH1 0x40 MSTORE DUP1 SWAP3 SWAP2 SWAP1 DUP2 DUP2 MSTORE PUSH1 0x20 ADD DUP3 DUP1 SLOAD PUSH2 0x18E6 SWAP1 PUSH2 0x2629 JUMP JUMPDEST DUP1 ISZERO PUSH2 0x1933 JUMPI DUP1 PUSH1 0x1F LT PUSH2 0x1908 JUMPI PUSH2 0x100 DUP1 DUP4 SLOAD DIV MUL DUP4 MSTORE SWAP2 PUSH1 0x20 ADD SWAP2 PUSH2 0x1933 JUMP JUMPDEST DUP3 ADD SWAP2 SWAP1 PUSH1 0x0 MSTORE PUSH1 0x20 PUSH1 0x0 KECCAK256 SWAP1 JUMPDEST DUP2 SLOAD DUP2 MSTORE SWAP1 PUSH1 0x1 ADD SWAP1 PUSH1 0x20 ADD DUP1 DUP4 GT PUSH2 0x1916 JUMPI DUP3 SWAP1 SUB PUSH1 0x1F AND DUP3 ADD SWAP2 JUMPDEST POP POP POP POP POP SWAP1 DUP1 PUSH1 0x1 ADD DUP1 SLOAD PUSH2 0x1948 SWAP1 PUSH2 0x2629 JUMP JUMPDEST DUP1 PUSH1 0x1F ADD PUSH1 0x20 DUP1 SWAP2 DIV MUL PUSH1 0x20 ADD PUSH1 0x40 MLOAD SWAP1 DUP2 ADD PUSH1 0x40 MSTORE DUP1 SWAP3 SWAP2 SWAP1 DUP2 DUP2 MSTORE PUSH1 0x20 ADD DUP3 DUP1 SLOAD PUSH2 0x1974 SWAP1 PUSH2 0x2629 JUMP JUMPDEST DUP1 ISZERO PUSH2 0x19C1 JUMPI DUP1 PUSH1 0x1F LT PUSH2 0x1996 JUMPI PUSH2 0x100 DUP1 DUP4 SLOAD DIV MUL DUP4 MSTORE SWAP2 PUSH1 0x20 ADD SWAP2 PUSH2 0x19C1 JUMP JUMPDEST DUP3 ADD SWAP2 SWAP1 PUSH1 0x0 MSTORE PUSH1 0x20 PUSH1 0x0 KECCAK256 SWAP1 JUMPDEST DUP2 SLOAD DUP2 MSTORE SWAP1 PUSH1 0x1 ADD SWAP1 PUSH1 0x20 ADD DUP1 DUP4 GT PUSH2 0x19A4 JUMPI DUP3 SWAP1 SUB PUSH1 0x1F AND DUP3 ADD SWAP2 JUMPDEST POP POP POP POP POP SWAP1 DUP1 PUSH1 0x2 ADD SLOAD SWAP1 DUP1 PUSH1 0x3 ADD PUSH1 0x0 SWAP1 SLOAD SWAP1 PUSH2 0x100 EXP SWAP1 DIV PUSH1 0xFF AND SWAP1 DUP1 PUSH1 0x4 ADD SLOAD SWAP1 POP DUP6 JUMP JUMPDEST PUSH1 0xA DUP2 DUP2 SLOAD DUP2 LT PUSH2 0x19FA JUMPI PUSH1 0x0 DUP1 REVERT JUMPDEST SWAP1 PUSH1 0x0 MSTORE PUSH1 0x20 PUSH1 0x0 KECCAK256 ADD PUSH1 0x0 SWAP2 POP SLOAD SWAP1 PUSH2 0x100 EXP SWAP1 DIV PUSH20 0xFFFFFFFFFFFFFFFFFFFFFFFFFFFFFFFFFFFFFFFF AND DUP2 JUMP JUMPDEST PUSH1 0x10 SLOAD DUP2 JUMP JUMPDEST PUSH1 0x12 SLOAD DUP2 JUMP JUMPDEST PUSH1 0x13 PUSH1 0x0 SWAP1 SLOAD SWAP1 PUSH2 0x100 EXP SWAP1 DIV PUSH1 0xFF AND DUP2 JUMP JUMPDEST PUSH1 0x0 PUSH1 0x3 SLOAD PUSH8 0xFFFFFFFFFFFFFFFF DUP2 GT ISZERO PUSH2 0x1A66 JUMPI PUSH2 0x1A65 PUSH2 0x2274 JUMP JUMPDEST JUMPDEST PUSH1 0x40 MLOAD SWAP1 DUP1 DUP3 MSTORE DUP1 PUSH1 0x20 MUL PUSH1 0x20 ADD DUP3 ADD PUSH1 0x40 MSTORE DUP1 ISZERO PUSH2 0x1A94 JUMPI DUP2 PUSH1 0x20 ADD PUSH1 0x20 DUP3 MUL DUP1 CALLDATASIZE DUP4 CALLDATACOPY DUP1 DUP3 ADD SWAP2 POP POP SWAP1 POP JUMPDEST POP SWAP1 POP PUSH1 0x0 PUSH1 0x3 SLOAD PUSH8 0xFFFFFFFFFFFFFFFF DUP2 GT ISZERO PUSH2 0x1AB5 JUMPI PUSH2 0x1AB4 PUSH2 0x2274 JUMP JUMPDEST JUMPDEST PUSH1 0x40 MLOAD SWAP1 DUP1 DUP3 MSTORE DUP1 PUSH1 0x20 MUL PUSH1 0x20 ADD DUP3 ADD PUSH1 0x40 MSTORE DUP1 ISZERO PUSH2 0x1AE3 JUMPI DUP2 PUSH1 0x20 ADD PUSH1 0x20 DUP3 MUL DUP1 CALLDATASIZE DUP4 CALLDATACOPY DUP1 DUP3 ADD SWAP2 POP POP SWAP1 POP JUMPDEST POP SWAP1 POP PUSH1 0x0 DUP1 PUSH1 0x0 SWAP1 POP PUSH1 0x0 DUP1 PUSH1 0xA PUSH1 0x0 DUP2 SLOAD DUP2 LT PUSH2 0x1B05 JUMPI PUSH2 0x1B04 PUSH2 0x2A3D JUMP JUMPDEST JUMPDEST SWAP1 PUSH1 0x0 MSTORE PUSH1 0x20 PUSH1 0x0 KECCAK256 ADD PUSH1 0x0 SWAP1 SLOAD SWAP1 PUSH2 0x100 EXP SWAP1 DIV PUSH20 0xFFFFFFFFFFFFFFFFFFFFFFFFFFFFFFFFFFFFFFFF AND SWAP1 POP DUP1 DUP7 PUSH1 0x0 DUP2 MLOAD DUP2 LT PUSH2 0x1B47 JUMPI PUSH2 0x1B46 PUSH2 0x2A3D JUMP JUMPDEST JUMPDEST PUSH1 0x20 MUL PUSH1 0x20 ADD ADD SWAP1 PUSH20 0xFFFFFFFFFFFFFFFFFFFFFFFFFFFFFFFFFFFFFFFF AND SWAP1 DUP2 PUSH20 0xFFFFFFFFFFFFFFFFFFFFFFFFFFFFFFFFFFFFFFFF AND DUP2 MSTORE POP POP PUSH1 0xC PUSH1 0x0 DUP3 PUSH20 0xFFFFFFFFFFFFFFFFFFFFFFFFFFFFFFFFFFFFFFFF AND PUSH20 0xFFFFFFFFFFFFFFFFFFFFFFFFFFFFFFFFFFFFFFFF AND DUP2 MSTORE PUSH1 0x20 ADD SWAP1 DUP2 MSTORE PUSH1 0x20 ADD PUSH1 0x0 KECCAK256 SLOAD SWAP4 POP DUP4 DUP6 PUSH1 0x0 DUP2 MLOAD DUP2 LT PUSH2 0x1BD8 JUMPI PUSH2 0x1BD7 PUSH2 0x2A3D JUMP JUMPDEST JUMPDEST PUSH1 0x20 MUL PUSH1 0x20 ADD ADD DUP2 DUP2 MSTORE POP POP PUSH1 0x0 PUSH1 0x1 SWAP1 POP JUMPDEST PUSH1 0x3 SLOAD DUP2 LT ISZERO PUSH2 0x1D08 JUMPI PUSH1 0xA DUP2 DUP2 SLOAD DUP2 LT PUSH2 0x1C09 JUMPI PUSH2 0x1C08 PUSH2 0x2A3D JUMP JUMPDEST JUMPDEST SWAP1 PUSH1 0x0 MSTORE PUSH1 0x20 PUSH1 0x0 KECCAK256 ADD PUSH1 0x0 SWAP1 SLOAD SWAP1 PUSH2 0x100 EXP SWAP1 DIV PUSH20 0xFFFFFFFFFFFFFFFFFFFFFFFFFFFFFFFFFFFFFFFF AND SWAP2 POP DUP2 DUP8 DUP3 DUP2 MLOAD DUP2 LT PUSH2 0x1C4A JUMPI PUSH2 0x1C49 PUSH2 0x2A3D JUMP JUMPDEST JUMPDEST PUSH1 0x20 MUL PUSH1 0x20 ADD ADD SWAP1 PUSH20 0xFFFFFFFFFFFFFFFFFFFFFFFFFFFFFFFFFFFFFFFF AND SWAP1 DUP2 PUSH20 0xFFFFFFFFFFFFFFFFFFFFFFFFFFFFFFFFFFFFFFFF AND DUP2 MSTORE POP POP PUSH1 0xC PUSH1 0x0 DUP4 PUSH20 0xFFFFFFFFFFFFFFFFFFFFFFFFFFFFFFFFFFFFFFFF AND PUSH20 0xFFFFFFFFFFFFFFFFFFFFFFFFFFFFFFFFFFFFFFFF AND DUP2 MSTORE PUSH1 0x20 ADD SWAP1 DUP2 MSTORE PUSH1 0x20 ADD PUSH1 0x0 KECCAK256 SLOAD SWAP3 POP DUP3 DUP7 DUP3 DUP2 MLOAD DUP2 LT PUSH2 0x1CDA JUMPI PUSH2 0x1CD9 PUSH2 0x2A3D JUMP JUMPDEST JUMPDEST PUSH1 0x20 MUL PUSH1 0x20 ADD ADD DUP2 DUP2 MSTORE POP POP DUP3 DUP6 GT ISZERO PUSH2 0x1CF5 JUMPI DUP3 SWAP5 POP DUP1 SWAP4 POP JUMPDEST DUP1 DUP1 PUSH2 0x1D00 SWAP1 PUSH2 0x2907 JUMP JUMPDEST SWAP2 POP POP PUSH2 0x1BEB JUMP JUMPDEST POP PUSH1 0x0 PUSH1 0x3 SLOAD SWAP1 POP JUMPDEST PUSH1 0xA DUP1 SLOAD SWAP1 POP DUP2 LT ISZERO PUSH2 0x1E92 JUMPI PUSH1 0xA DUP2 DUP2 SLOAD DUP2 LT PUSH2 0x1D32 JUMPI PUSH2 0x1D31 PUSH2 0x2A3D JUMP JUMPDEST JUMPDEST SWAP1 PUSH1 0x0 MSTORE PUSH1 0x20 PUSH1 0x0 KECCAK256 ADD PUSH1 0x0 SWAP1 SLOAD SWAP1 PUSH2 0x100 EXP SWAP1 DIV PUSH20 0xFFFFFFFFFFFFFFFFFFFFFFFFFFFFFFFFFFFFFFFF AND SWAP2 POP PUSH1 0xC PUSH1 0x0 DUP4 PUSH20 0xFFFFFFFFFFFFFFFFFFFFFFFFFFFFFFFFFFFFFFFF AND PUSH20 0xFFFFFFFFFFFFFFFFFFFFFFFFFFFFFFFFFFFFFFFF AND DUP2 MSTORE PUSH1 0x20 ADD SWAP1 DUP2 MSTORE PUSH1 0x20 ADD PUSH1 0x0 KECCAK256 SLOAD SWAP3 POP DUP5 DUP4 GT ISZERO PUSH2 0x1E7F JUMPI DUP2 DUP8 DUP6 DUP2 MLOAD DUP2 LT PUSH2 0x1DBD JUMPI PUSH2 0x1DBC PUSH2 0x2A3D JUMP JUMPDEST JUMPDEST PUSH1 0x20 MUL PUSH1 0x20 ADD ADD SWAP1 PUSH20 0xFFFFFFFFFFFFFFFFFFFFFFFFFFFFFFFFFFFFFFFF AND SWAP1 DUP2 PUSH20 0xFFFFFFFFFFFFFFFFFFFFFFFFFFFFFFFFFFFFFFFF AND DUP2 MSTORE POP POP DUP3 DUP7 DUP6 DUP2 MLOAD DUP2 LT PUSH2 0x1E0B JUMPI PUSH2 0x1E0A PUSH2 0x2A3D JUMP JUMPDEST JUMPDEST PUSH1 0x20 MUL PUSH1 0x20 ADD ADD DUP2 DUP2 MSTORE POP POP DUP3 SWAP5 POP PUSH1 0x0 JUMPDEST PUSH1 0x3 SLOAD DUP2 LT ISZERO PUSH2 0x1E7D JUMPI DUP6 DUP8 DUP3 DUP2 MLOAD DUP2 LT PUSH2 0x1E3B JUMPI PUSH2 0x1E3A PUSH2 0x2A3D JUMP JUMPDEST JUMPDEST PUSH1 0x20 MUL PUSH1 0x20 ADD ADD MLOAD LT ISZERO PUSH2 0x1E6A JUMPI DUP7 DUP2 DUP2 MLOAD DUP2 LT PUSH2 0x1E5C JUMPI PUSH2 0x1E5B PUSH2 0x2A3D JUMP JUMPDEST JUMPDEST PUSH1 0x20 MUL PUSH1 0x20 ADD ADD MLOAD SWAP6 POP DUP1 SWAP5 POP JUMPDEST DUP1 DUP1 PUSH2 0x1E75 SWAP1 PUSH2 0x2907 JUMP JUMPDEST SWAP2 POP POP PUSH2 0x1E1D JUMP JUMPDEST POP JUMPDEST DUP1 DUP1 PUSH2 0x1E8A SWAP1 PUSH2 0x2907 JUMP JUMPDEST SWAP2 POP POP PUSH2 0x1D11 JUMP JUMPDEST POP PUSH1 0x0 JUMPDEST PUSH1 0x3 SLOAD DUP2 LT ISZERO PUSH2 0x1F25 JUMPI PUSH1 0x1 PUSH1 0x7 PUSH1 0x0 DUP10 DUP5 DUP2 MLOAD DUP2 LT PUSH2 0x1EB9 JUMPI PUSH2 0x1EB8 PUSH2 0x2A3D JUMP JUMPDEST JUMPDEST PUSH1 0x20 MUL PUSH1 0x20 ADD ADD MLOAD PUSH20 0xFFFFFFFFFFFFFFFFFFFFFFFFFFFFFFFFFFFFFFFF AND PUSH20 0xFFFFFFFFFFFFFFFFFFFFFFFFFFFFFFFFFFFFFFFF AND DUP2 MSTORE PUSH1 0x20 ADD SWAP1 DUP2 MSTORE PUSH1 0x20 ADD PUSH1 0x0 KECCAK256 PUSH1 0x0 PUSH2 0x100 EXP DUP2 SLOAD DUP2 PUSH1 0xFF MUL NOT AND SWAP1 DUP4 ISZERO ISZERO MUL OR SWAP1 SSTORE POP DUP1 DUP1 PUSH2 0x1F1D SWAP1 PUSH2 0x2907 JUMP JUMPDEST SWAP2 POP POP PUSH2 0x1E96 JUMP JUMPDEST POP POP POP POP POP POP POP JUMP JUMPDEST PUSH1 0x0 DUP2 PUSH2 0x3E8 PUSH2 0x1F3E SWAP2 SWAP1 PUSH2 0x294F JUMP JUMPDEST SWAP1 POP PUSH1 0x0 JUMPDEST PUSH1 0xA DUP1 SLOAD SWAP1 POP DUP2 LT ISZERO PUSH2 0x20A1 JUMPI PUSH1 0x0 PUSH1 0xA DUP3 DUP2 SLOAD DUP2 LT PUSH2 0x1F66 JUMPI PUSH2 0x1F65 PUSH2 0x2A3D JUMP JUMPDEST JUMPDEST SWAP1 PUSH1 0x0 MSTORE PUSH1 0x20 PUSH1 0x0 KECCAK256 ADD PUSH1 0x0 SWAP1 SLOAD SWAP1 PUSH2 0x100 EXP SWAP1 DIV PUSH20 0xFFFFFFFFFFFFFFFFFFFFFFFFFFFFFFFFFFFFFFFF AND SWAP1 POP PUSH1 0x0 ISZERO ISZERO PUSH1 0xE PUSH1 0x0 DUP4 PUSH20 0xFFFFFFFFFFFFFFFFFFFFFFFFFFFFFFFFFFFFFFFF AND PUSH20 0xFFFFFFFFFFFFFFFFFFFFFFFFFFFFFFFFFFFFFFFF AND DUP2 MSTORE PUSH1 0x20 ADD SWAP1 DUP2 MSTORE PUSH1 0x20 ADD PUSH1 0x0 KECCAK256 PUSH1 0x0 SWAP1 SLOAD SWAP1 PUSH2 0x100 EXP SWAP1 DIV PUSH1 0xFF AND ISZERO ISZERO SUB PUSH2 0x208D JUMPI PUSH1 0x0 DUP4 PUSH2 0x3E8 PUSH1 0xD PUSH1 0x0 DUP6 PUSH20 0xFFFFFFFFFFFFFFFFFFFFFFFFFFFFFFFFFFFFFFFF AND PUSH20 0xFFFFFFFFFFFFFFFFFFFFFFFFFFFFFFFFFFFFFFFF AND DUP2 MSTORE PUSH1 0x20 ADD SWAP1 DUP2 MSTORE PUSH1 0x20 ADD PUSH1 0x0 KECCAK256 SLOAD PUSH2 0x203B SWAP2 SWAP1 PUSH2 0x2983 JUMP JUMPDEST PUSH2 0x2045 SWAP2 SWAP1 PUSH2 0x2A0C JUMP JUMPDEST SWAP1 POP DUP1 PUSH1 0xD PUSH1 0x0 DUP5 PUSH20 0xFFFFFFFFFFFFFFFFFFFFFFFFFFFFFFFFFFFFFFFF AND PUSH20 0xFFFFFFFFFFFFFFFFFFFFFFFFFFFFFFFFFFFFFFFF AND DUP2 MSTORE PUSH1 0x20 ADD SWAP1 DUP2 MSTORE PUSH1 0x20 ADD PUSH1 0x0 KECCAK256 DUP2 SWAP1 SSTORE POP POP JUMPDEST POP DUP1 DUP1 PUSH2 0x2099 SWAP1 PUSH2 0x2907 JUMP JUMPDEST SWAP2 POP POP PUSH2 0x1F43 JUMP JUMPDEST POP POP POP JUMP JUMPDEST PUSH1 0x0 DUP2 SWAP1 POP SWAP2 SWAP1 POP JUMP JUMPDEST PUSH2 0x20B9 DUP2 PUSH2 0x20A6 JUMP JUMPDEST DUP3 MSTORE POP POP JUMP JUMPDEST PUSH1 0x0 PUSH1 0x20 DUP3 ADD SWAP1 POP PUSH2 0x20D4 PUSH1 0x0 DUP4 ADD DUP5 PUSH2 0x20B0 JUMP JUMPDEST SWAP3 SWAP2 POP POP JUMP JUMPDEST PUSH1 0x0 DUP2 MLOAD SWAP1 POP SWAP2 SWAP1 POP JUMP JUMPDEST PUSH1 0x0 DUP3 DUP3 MSTORE PUSH1 0x20 DUP3 ADD SWAP1 POP SWAP3 SWAP2 POP POP JUMP JUMPDEST PUSH1 0x0 JUMPDEST DUP4 DUP2 LT ISZERO PUSH2 0x2114 JUMPI DUP1 DUP3 ADD MLOAD DUP2 DUP5 ADD MSTORE PUSH1 0x20 DUP2 ADD SWAP1 POP PUSH2 0x20F9 JUMP JUMPDEST DUP4 DUP2 GT ISZERO PUSH2 0x2123 JUMPI PUSH1 0x0 DUP5 DUP5 ADD MSTORE JUMPDEST POP POP POP POP JUMP JUMPDEST PUSH1 0x0 PUSH1 0x1F NOT PUSH1 0x1F DUP4 ADD AND SWAP1 POP SWAP2 SWAP1 POP JUMP JUMPDEST PUSH1 0x0 PUSH2 0x2145 DUP3 PUSH2 0x20DA JUMP JUMPDEST PUSH2 0x214F DUP2 DUP6 PUSH2 0x20E5 JUMP JUMPDEST SWAP4 POP PUSH2 0x215F DUP2 DUP6 PUSH1 0x20 DUP7 ADD PUSH2 0x20F6 JUMP JUMPDEST PUSH2 0x2168 DUP2 PUSH2 0x2129 JUMP JUMPDEST DUP5 ADD SWAP2 POP POP SWAP3 SWAP2 POP POP JUMP JUMPDEST PUSH1 0x0 PUSH1 0x20 DUP3 ADD SWAP1 POP DUP2 DUP2 SUB PUSH1 0x0 DUP4 ADD MSTORE PUSH2 0x218D DUP2 DUP5 PUSH2 0x213A JUMP JUMPDEST SWAP1 POP SWAP3 SWAP2 POP POP JUMP JUMPDEST PUSH1 0x0 PUSH1 0x40 MLOAD SWAP1 POP SWAP1 JUMP JUMPDEST PUSH1 0x0 DUP1 REVERT JUMPDEST PUSH1 0x0 DUP1 REVERT JUMPDEST PUSH1 0x0 PUSH20 0xFFFFFFFFFFFFFFFFFFFFFFFFFFFFFFFFFFFFFFFF DUP3 AND SWAP1 POP SWAP2 SWAP1 POP JUMP JUMPDEST PUSH1 0x0 PUSH2 0x21D4 DUP3 PUSH2 0x21A9 JUMP JUMPDEST SWAP1 POP SWAP2 SWAP1 POP JUMP JUMPDEST PUSH2 0x21E4 DUP2 PUSH2 0x21C9 JUMP JUMPDEST DUP2 EQ PUSH2 0x21EF JUMPI PUSH1 0x0 DUP1 REVERT JUMPDEST POP JUMP JUMPDEST PUSH1 0x0 DUP2 CALLDATALOAD SWAP1 POP PUSH2 0x2201 DUP2 PUSH2 0x21DB JUMP JUMPDEST SWAP3 SWAP2 POP POP JUMP JUMPDEST PUSH1 0x0 PUSH1 0x20 DUP3 DUP5 SUB SLT ISZERO PUSH2 0x221D JUMPI PUSH2 0x221C PUSH2 0x219F JUMP JUMPDEST JUMPDEST PUSH1 0x0 PUSH2 0x222B DUP5 DUP3 DUP6 ADD PUSH2 0x21F2 JUMP JUMPDEST SWAP2 POP POP SWAP3 SWAP2 POP POP JUMP JUMPDEST PUSH1 0x0 DUP2 ISZERO ISZERO SWAP1 POP SWAP2 SWAP1 POP JUMP JUMPDEST PUSH2 0x2249 DUP2 PUSH2 0x2234 JUMP JUMPDEST DUP3 MSTORE POP POP JUMP JUMPDEST PUSH1 0x0 PUSH1 0x20 DUP3 ADD SWAP1 POP PUSH2 0x2264 PUSH1 0x0 DUP4 ADD DUP5 PUSH2 0x2240 JUMP JUMPDEST SWAP3 SWAP2 POP POP JUMP JUMPDEST PUSH1 0x0 DUP1 REVERT JUMPDEST PUSH1 0x0 DUP1 REVERT JUMPDEST PUSH32 0x4E487B7100000000000000000000000000000000000000000000000000000000 PUSH1 0x0 MSTORE PUSH1 0x41 PUSH1 0x4 MSTORE PUSH1 0x24 PUSH1 0x0 REVERT JUMPDEST PUSH2 0x22AC DUP3 PUSH2 0x2129 JUMP JUMPDEST DUP2 ADD DUP2 DUP2 LT PUSH8 0xFFFFFFFFFFFFFFFF DUP3 GT OR ISZERO PUSH2 0x22CB JUMPI PUSH2 0x22CA PUSH2 0x2274 JUMP JUMPDEST JUMPDEST DUP1 PUSH1 0x40 MSTORE POP POP POP JUMP JUMPDEST PUSH1 0x0 PUSH2 0x22DE PUSH2 0x2195 JUMP JUMPDEST SWAP1 POP PUSH2 0x22EA DUP3 DUP3 PUSH2 0x22A3 JUMP JUMPDEST SWAP2 SWAP1 POP JUMP JUMPDEST PUSH1 0x0 PUSH8 0xFFFFFFFFFFFFFFFF DUP3 GT ISZERO PUSH2 0x230A JUMPI PUSH2 0x2309 PUSH2 0x2274 JUMP JUMPDEST JUMPDEST PUSH2 0x2313 DUP3 PUSH2 0x2129 JUMP JUMPDEST SWAP1 POP PUSH1 0x20 DUP2 ADD SWAP1 POP SWAP2 SWAP1 POP JUMP JUMPDEST DUP3 DUP2 DUP4 CALLDATACOPY PUSH1 0x0 DUP4 DUP4 ADD MSTORE POP POP POP JUMP JUMPDEST PUSH1 0x0 PUSH2 0x2342 PUSH2 0x233D DUP5 PUSH2 0x22EF JUMP JUMPDEST PUSH2 0x22D4 JUMP JUMPDEST SWAP1 POP DUP3 DUP2 MSTORE PUSH1 0x20 DUP2 ADD DUP5 DUP5 DUP5 ADD GT ISZERO PUSH2 0x235E JUMPI PUSH2 0x235D PUSH2 0x226F JUMP JUMPDEST JUMPDEST PUSH2 0x2369 DUP5 DUP3 DUP6 PUSH2 0x2320 JUMP JUMPDEST POP SWAP4 SWAP3 POP POP POP JUMP JUMPDEST PUSH1 0x0 DUP3 PUSH1 0x1F DUP4 ADD SLT PUSH2 0x2386 JUMPI PUSH2 0x2385 PUSH2 0x226A JUMP JUMPDEST JUMPDEST DUP2 CALLDATALOAD PUSH2 0x2396 DUP5 DUP3 PUSH1 0x20 DUP7 ADD PUSH2 0x232F JUMP JUMPDEST SWAP2 POP POP SWAP3 SWAP2 POP POP JUMP JUMPDEST PUSH2 0x23A8 DUP2 PUSH2 0x20A6 JUMP JUMPDEST DUP2 EQ PUSH2 0x23B3 JUMPI PUSH1 0x0 DUP1 REVERT JUMPDEST POP JUMP JUMPDEST PUSH1 0x0 DUP2 CALLDATALOAD SWAP1 POP PUSH2 0x23C5 DUP2 PUSH2 0x239F JUMP JUMPDEST SWAP3 SWAP2 POP POP JUMP JUMPDEST PUSH1 0x0 DUP1 PUSH1 0x0 PUSH1 0x60 DUP5 DUP7 SUB SLT ISZERO PUSH2 0x23E4 JUMPI PUSH2 0x23E3 PUSH2 0x219F JUMP JUMPDEST JUMPDEST PUSH1 0x0 DUP5 ADD CALLDATALOAD PUSH8 0xFFFFFFFFFFFFFFFF DUP2 GT ISZERO PUSH2 0x2402 JUMPI PUSH2 0x2401 PUSH2 0x21A4 JUMP JUMPDEST JUMPDEST PUSH2 0x240E DUP7 DUP3 DUP8 ADD PUSH2 0x2371 JUMP JUMPDEST SWAP4 POP POP PUSH1 0x20 DUP5 ADD CALLDATALOAD PUSH8 0xFFFFFFFFFFFFFFFF DUP2 GT ISZERO PUSH2 0x242F JUMPI PUSH2 0x242E PUSH2 0x21A4 JUMP JUMPDEST JUMPDEST PUSH2 0x243B DUP7 DUP3 DUP8 ADD PUSH2 0x2371 JUMP JUMPDEST SWAP3 POP POP PUSH1 0x40 PUSH2 0x244C DUP7 DUP3 DUP8 ADD PUSH2 0x23B6 JUMP JUMPDEST SWAP2 POP POP SWAP3 POP SWAP3 POP SWAP3 JUMP JUMPDEST PUSH1 0x0 PUSH1 0x20 DUP3 DUP5 SUB SLT ISZERO PUSH2 0x246C JUMPI PUSH2 0x246B PUSH2 0x219F JUMP JUMPDEST JUMPDEST PUSH1 0x0 PUSH2 0x247A DUP5 DUP3 DUP6 ADD PUSH2 0x23B6 JUMP JUMPDEST SWAP2 POP POP SWAP3 SWAP2 POP POP JUMP JUMPDEST PUSH2 0x248C DUP2 PUSH2 0x21C9 JUMP JUMPDEST DUP3 MSTORE POP POP JUMP JUMPDEST PUSH1 0x0 PUSH1 0x20 DUP3 ADD SWAP1 POP PUSH2 0x24A7 PUSH1 0x0 DUP4 ADD DUP5 PUSH2 0x2483 JUMP JUMPDEST SWAP3 SWAP2 POP POP JUMP JUMPDEST PUSH2 0x24B6 DUP2 PUSH2 0x2234 JUMP JUMPDEST DUP2 EQ PUSH2 0x24C1 JUMPI PUSH1 0x0 DUP1 REVERT JUMPDEST POP JUMP JUMPDEST PUSH1 0x0 DUP2 CALLDATALOAD SWAP1 POP PUSH2 0x24D3 DUP2 PUSH2 0x24AD JUMP JUMPDEST SWAP3 SWAP2 POP POP JUMP JUMPDEST PUSH1 0x0 DUP1 PUSH1 0x40 DUP4 DUP6 SUB SLT ISZERO PUSH2 0x24F0 JUMPI PUSH2 0x24EF PUSH2 0x219F JUMP JUMPDEST JUMPDEST PUSH1 0x0 PUSH2 0x24FE DUP6 DUP3 DUP7 ADD PUSH2 0x23B6 JUMP JUMPDEST SWAP3 POP POP PUSH1 0x20 PUSH2 0x250F DUP6 DUP3 DUP7 ADD PUSH2 0x24C4 JUMP JUMPDEST SWAP2 POP POP SWAP3 POP SWAP3 SWAP1 POP JUMP JUMPDEST PUSH1 0x0 DUP1 PUSH1 0x40 DUP4 DUP6 SUB SLT ISZERO PUSH2 0x2530 JUMPI PUSH2 0x252F PUSH2 0x219F JUMP JUMPDEST JUMPDEST PUSH1 0x0 PUSH2 0x253E DUP6 DUP3 DUP7 ADD PUSH2 0x23B6 JUMP JUMPDEST SWAP3 POP POP PUSH1 0x20 PUSH2 0x254F DUP6 DUP3 DUP7 ADD PUSH2 0x21F2 JUMP JUMPDEST SWAP2 POP POP SWAP3 POP SWAP3 SWAP1 POP JUMP JUMPDEST PUSH1 0x0 DUP1 PUSH1 0x40 DUP4 DUP6 SUB SLT ISZERO PUSH2 0x2570 JUMPI PUSH2 0x256F PUSH2 0x219F JUMP JUMPDEST JUMPDEST PUSH1 0x0 PUSH2 0x257E DUP6 DUP3 DUP7 ADD PUSH2 0x21F2 JUMP JUMPDEST SWAP3 POP POP PUSH1 0x20 PUSH2 0x258F DUP6 DUP3 DUP7 ADD PUSH2 0x23B6 JUMP JUMPDEST SWAP2 POP POP SWAP3 POP SWAP3 SWAP1 POP JUMP JUMPDEST PUSH1 0x0 PUSH1 0xA0 DUP3 ADD SWAP1 POP DUP2 DUP2 SUB PUSH1 0x0 DUP4 ADD MSTORE PUSH2 0x25B3 DUP2 DUP9 PUSH2 0x213A JUMP JUMPDEST SWAP1 POP DUP2 DUP2 SUB PUSH1 0x20 DUP4 ADD MSTORE PUSH2 0x25C7 DUP2 DUP8 PUSH2 0x213A JUMP JUMPDEST SWAP1 POP PUSH2 0x25D6 PUSH1 0x40 DUP4 ADD DUP7 PUSH2 0x20B0 JUMP JUMPDEST PUSH2 0x25E3 PUSH1 0x60 DUP4 ADD DUP6 PUSH2 0x2240 JUMP JUMPDEST PUSH2 0x25F0 PUSH1 0x80 DUP4 ADD DUP5 PUSH2 0x20B0 JUMP JUMPDEST SWAP7 SWAP6 POP POP POP POP POP POP JUMP JUMPDEST PUSH32 0x4E487B7100000000000000000000000000000000000000000000000000000000 PUSH1 0x0 MSTORE PUSH1 0x22 PUSH1 0x4 MSTORE PUSH1 0x24 PUSH1 0x0 REVERT JUMPDEST PUSH1 0x0 PUSH1 0x2 DUP3 DIV SWAP1 POP PUSH1 0x1 DUP3 AND DUP1 PUSH2 0x2641 JUMPI PUSH1 0x7F DUP3 AND SWAP2 POP JUMPDEST PUSH1 0x20 DUP3 LT DUP2 SUB PUSH2 0x2654 JUMPI PUSH2 0x2653 PUSH2 0x25FA JUMP JUMPDEST JUMPDEST POP SWAP2 SWAP1 POP JUMP JUMPDEST PUSH1 0x0 DUP2 SWAP1 POP DUP2 PUSH1 0x0 MSTORE PUSH1 0x20 PUSH1 0x0 KECCAK256 SWAP1 POP SWAP2 SWAP1 POP JUMP JUMPDEST PUSH1 0x0 PUSH1 0x20 PUSH1 0x1F DUP4 ADD DIV SWAP1 POP SWAP2 SWAP1 POP JUMP JUMPDEST PUSH1 0x0 DUP3 DUP3 SHL SWAP1 POP SWAP3 SWAP2 POP POP JUMP JUMPDEST PUSH1 0x0 PUSH1 0x8 DUP4 MUL PUSH2 0x26BC PUSH32 0xFFFFFFFFFFFFFFFFFFFFFFFFFFFFFFFFFFFFFFFFFFFFFFFFFFFFFFFFFFFFFFFF DUP3 PUSH2 0x267F JUMP JUMPDEST PUSH2 0x26C6 DUP7 DUP4 PUSH2 0x267F JUMP JUMPDEST SWAP6 POP DUP1 NOT DUP5 AND SWAP4 POP DUP1 DUP7 AND DUP5 OR SWAP3 POP POP POP SWAP4 SWAP3 POP POP POP JUMP JUMPDEST PUSH1 0x0 DUP2 SWAP1 POP SWAP2 SWAP1 POP JUMP JUMPDEST PUSH1 0x0 PUSH2 0x2703 PUSH2 0x26FE PUSH2 0x26F9 DUP5 PUSH2 0x20A6 JUMP JUMPDEST PUSH2 0x26DE JUMP JUMPDEST PUSH2 0x20A6 JUMP JUMPDEST SWAP1 POP SWAP2 SWAP1 POP JUMP JUMPDEST PUSH1 0x0 DUP2 SWAP1 POP SWAP2 SWAP1 POP JUMP JUMPDEST PUSH2 0x271D DUP4 PUSH2 0x26E8 JUMP JUMPDEST PUSH2 0x2731 PUSH2 0x2729 DUP3 PUSH2 0x270A JUMP JUMPDEST DUP5 DUP5 SLOAD PUSH2 0x268C JUMP JUMPDEST DUP3 SSTORE POP POP POP POP JUMP JUMPDEST PUSH1 0x0 SWAP1 JUMP JUMPDEST PUSH2 0x2746 PUSH2 0x2739 JUMP JUMPDEST PUSH2 0x2751 DUP2 DUP5 DUP5 PUSH2 0x2714 JUMP JUMPDEST POP POP POP JUMP JUMPDEST JUMPDEST DUP2 DUP2 LT ISZERO PUSH2 0x2775 JUMPI PUSH2 0x276A PUSH1 0x0 DUP3 PUSH2 0x273E JUMP JUMPDEST PUSH1 0x1 DUP2 ADD SWAP1 POP PUSH2 0x2757 JUMP JUMPDEST POP POP JUMP JUMPDEST PUSH1 0x1F DUP3 GT ISZERO PUSH2 0x27BA JUMPI PUSH2 0x278B DUP2 PUSH2 0x265A JUMP JUMPDEST PUSH2 0x2794 DUP5 PUSH2 0x266F JUMP JUMPDEST DUP2 ADD PUSH1 0x20 DUP6 LT ISZERO PUSH2 0x27A3 JUMPI DUP2 SWAP1 POP JUMPDEST PUSH2 0x27B7 PUSH2 0x27AF DUP6 PUSH2 0x266F JUMP JUMPDEST DUP4 ADD DUP3 PUSH2 0x2756 JUMP JUMPDEST POP POP JUMPDEST POP POP POP JUMP JUMPDEST PUSH1 0x0 DUP3 DUP3 SHR SWAP1 POP SWAP3 SWAP2 POP POP JUMP JUMPDEST PUSH1 0x0 PUSH2 0x27DD PUSH1 0x0 NOT DUP5 PUSH1 0x8 MUL PUSH2 0x27BF JUMP JUMPDEST NOT DUP1 DUP4 AND SWAP2 POP POP SWAP3 SWAP2 POP POP JUMP JUMPDEST PUSH1 0x0 PUSH2 0x27F6 DUP4 DUP4 PUSH2 0x27CC JUMP JUMPDEST SWAP2 POP DUP3 PUSH1 0x2 MUL DUP3 OR SWAP1 POP SWAP3 SWAP2 POP POP JUMP JUMPDEST PUSH2 0x280F DUP3 PUSH2 0x20DA JUMP JUMPDEST PUSH8 0xFFFFFFFFFFFFFFFF DUP2 GT ISZERO PUSH2 0x2828 JUMPI PUSH2 0x2827 PUSH2 0x2274 JUMP JUMPDEST JUMPDEST PUSH2 0x2832 DUP3 SLOAD PUSH2 0x2629 JUMP JUMPDEST PUSH2 0x283D DUP3 DUP3 DUP6 PUSH2 0x2779 JUMP JUMPDEST PUSH1 0x0 PUSH1 0x20 SWAP1 POP PUSH1 0x1F DUP4 GT PUSH1 0x1 DUP2 EQ PUSH2 0x2870 JUMPI PUSH1 0x0 DUP5 ISZERO PUSH2 0x285E JUMPI DUP3 DUP8 ADD MLOAD SWAP1 POP JUMPDEST PUSH2 0x2868 DUP6 DUP3 PUSH2 0x27EA JUMP JUMPDEST DUP7 SSTORE POP PUSH2 0x28D0 JUMP JUMPDEST PUSH1 0x1F NOT DUP5 AND PUSH2 0x287E DUP7 PUSH2 0x265A JUMP JUMPDEST PUSH1 0x0 JUMPDEST DUP3 DUP2 LT ISZERO PUSH2 0x28A6 JUMPI DUP5 DUP10 ADD MLOAD DUP3 SSTORE PUSH1 0x1 DUP3 ADD SWAP2 POP PUSH1 0x20 DUP6 ADD SWAP5 POP PUSH1 0x20 DUP2 ADD SWAP1 POP PUSH2 0x2881 JUMP JUMPDEST DUP7 DUP4 LT ISZERO PUSH2 0x28C3 JUMPI DUP5 DUP10 ADD MLOAD PUSH2 0x28BF PUSH1 0x1F DUP10 AND DUP3 PUSH2 0x27CC JUMP JUMPDEST DUP4 SSTORE POP JUMPDEST PUSH1 0x1 PUSH1 0x2 DUP9 MUL ADD DUP9 SSTORE POP POP POP JUMPDEST POP POP POP POP POP POP JUMP JUMPDEST PUSH32 0x4E487B7100000000000000000000000000000000000000000000000000000000 PUSH1 0x0 MSTORE PUSH1 0x11 PUSH1 0x4 MSTORE PUSH1 0x24 PUSH1 0x0 REVERT JUMPDEST PUSH1 0x0 PUSH2 0x2912 DUP3 PUSH2 0x20A6 JUMP JUMPDEST SWAP2 POP PUSH32 0xFFFFFFFFFFFFFFFFFFFFFFFFFFFFFFFFFFFFFFFFFFFFFFFFFFFFFFFFFFFFFFFF DUP3 SUB PUSH2 0x2944 JUMPI PUSH2 0x2943 PUSH2 0x28D8 JUMP JUMPDEST JUMPDEST PUSH1 0x1 DUP3 ADD SWAP1 POP SWAP2 SWAP1 POP JUMP JUMPDEST PUSH1 0x0 PUSH2 0x295A DUP3 PUSH2 0x20A6 JUMP JUMPDEST SWAP2 POP PUSH2 0x2965 DUP4 PUSH2 0x20A6 JUMP JUMPDEST SWAP3 POP DUP3 DUP3 LT ISZERO PUSH2 0x2978 JUMPI PUSH2 0x2977 PUSH2 0x28D8 JUMP JUMPDEST JUMPDEST DUP3 DUP3 SUB SWAP1 POP SWAP3 SWAP2 POP POP JUMP JUMPDEST PUSH1 0x0 PUSH2 0x298E DUP3 PUSH2 0x20A6 JUMP JUMPDEST SWAP2 POP PUSH2 0x2999 DUP4 PUSH2 0x20A6 JUMP JUMPDEST SWAP3 POP DUP2 PUSH32 0xFFFFFFFFFFFFFFFFFFFFFFFFFFFFFFFFFFFFFFFFFFFFFFFFFFFFFFFFFFFFFFFF DIV DUP4 GT DUP3 ISZERO ISZERO AND ISZERO PUSH2 0x29D2 JUMPI PUSH2 0x29D1 PUSH2 0x28D8 JUMP JUMPDEST JUMPDEST DUP3 DUP3 MUL SWAP1 POP SWAP3 SWAP2 POP POP JUMP JUMPDEST PUSH32 0x4E487B7100000000000000000000000000000000000000000000000000000000 PUSH1 0x0 MSTORE PUSH1 0x12 PUSH1 0x4 MSTORE PUSH1 0x24 PUSH1 0x0 REVERT JUMPDEST PUSH1 0x0 PUSH2 0x2A17 DUP3 PUSH2 0x20A6 JUMP JUMPDEST SWAP2 POP PUSH2 0x2A22 DUP4 PUSH2 0x20A6 JUMP JUMPDEST SWAP3 POP DUP3 PUSH2 0x2A32 JUMPI PUSH2 0x2A31 PUSH2 0x29DD JUMP JUMPDEST JUMPDEST DUP3 DUP3 DIV SWAP1 POP SWAP3 SWAP2 POP POP JUMP JUMPDEST PUSH32 0x4E487B7100000000000000000000000000000000000000000000000000000000 PUSH1 0x0 MSTORE PUSH1 0x32 PUSH1 0x4 MSTORE PUSH1 0x24 PUSH1 0x0 REVERT JUMPDEST PUSH1 0x0 PUSH2 0x2A77 DUP3 PUSH2 0x20A6 JUMP JUMPDEST SWAP2 POP PUSH2 0x2A82 DUP4 PUSH2 0x20A6 JUMP JUMPDEST SWAP3 POP DUP3 PUSH32 0xFFFFFFFFFFFFFFFFFFFFFFFFFFFFFFFFFFFFFFFFFFFFFFFFFFFFFFFFFFFFFFFF SUB DUP3 GT ISZERO PUSH2 0x2AB7 JUMPI PUSH2 0x2AB6 PUSH2 0x28D8 JUMP JUMPDEST JUMPDEST DUP3 DUP3 ADD SWAP1 POP SWAP3 SWAP2 POP POP JUMP JUMPDEST PUSH1 0x0 PUSH2 0x2ACD DUP3 PUSH2 0x20A6 JUMP JUMPDEST SWAP2 POP PUSH1 0x0 DUP3 SUB PUSH2 0x2AE0 JUMPI PUSH2 0x2ADF PUSH2 0x28D8 JUMP JUMPDEST JUMPDEST PUSH1 0x1 DUP3 SUB SWAP1 POP SWAP2 SWAP1 POP JUMP INVALID LOG2 PUSH5 0x6970667358 0x22 SLT KECCAK256 0xC8 RETURNDATASIZE LOG1 0xDF 0xC4 BYTE 0xE3 DUP7 PUSH1 0xEE PC MULMOD 0x2A 0xF6 SELFDESTRUCT 0xDB PUSH13 0x5D4764355004B90A53B2A59608 PUSH9 0xE264736F6C63430008 0xF STOP CALLER "},"gasEstimates":{"creation":{"codeDepositCost":"2208200","executionCost":"infinite","totalCost":"infinite"},"external":{"Investment(address)":"2881","Investors(uint256)":"5022","PayDayVoted()":"infinite","Stakeholders(address)":"2936","Stakeholders_endTheContract(address)":"2913","allInvestorPercent()":"infinite","approveRequest(uint256,bool)":"infinite","canBuy()":"2603","executed_order_66(uint256)":"infinite","getMoney()":"364","investorBalanc()":"infinite","isStakeholdersVoted(uint256,address)":"5399","join()":"infinite","lastLeaveVal()":"2497","lastRePay()":"2518","lastTotalVal()":"2497","leave_contract(address,uint256)":"infinite","lefted(address)":"2912","listSize()":"2541","makeNewRequset(string,string,uint256)":"infinite","manager()":"2559","managerFineFee()":"2519","minimumContribution()":"2519","myRequsts(uint256)":"infinite","name()":"infinite","numOfInvestors()":"2476","ownPercent(address)":"2926","payDay()":"infinite","requestIsVoted(uint256)":"5089","site()":"2625","startContract()":"infinite","the_balance()":"2518","timeEnd()":"2539","timeStart()":"2517","timeToJoin()":"2519"},"internal":{"fixPercent(uint256)":"infinite","setStakeholders()":"infinite"}},"methodIdentifiers":{"Investment(address)":"d7898240","Investors(uint256)":"fbae5e7d","PayDayVoted()":"864a53dc","Stakeholders(address)":"1e28528e","Stakeholders_endTheContract(address)":"364548cd","allInvestorPercent()":"acdb8341","approveRequest(uint256,bool)":"767e0b9c","canBuy()":"ff65226c","executed_order_66(uint256)":"3d22aea8","getMoney()":"98e1b410","investorBalanc()":"2ef3fa27","isStakeholdersVoted(uint256,address)":"816c97ba","join()":"b688a363","lastLeaveVal()":"2f5274e3","lastRePay()":"e028a693","lastTotalVal()":"8975aa08","leave_contract(address,uint256)":"b2f8be5c","lefted(address)":"999cc5ca","listSize()":"972c5356","makeNewRequset(string,string,uint256)":"2b84b316","manager()":"481c6a75","managerFineFee()":"31d0e40f","minimumContribution()":"937e09b1","myRequsts(uint256)":"f63f9655","name()":"06fdde03","numOfInvestors()":"01999870","ownPercent(address)":"32b7acec","payDay()":"789b2e6c","requestIsVoted(uint256)":"361af171","site()":"e0d370ac","startContract()":"5fb02f4d","the_balance()":"a4758c9a","timeEnd()":"fda263e8","timeStart()":"fd74d294","timeToJoin()":"3ba20f2a"}},"storageLayout":{"storage":[{"astId":101,"contract":"Inbox.sol:basic","label":"penelty","offset":0,"slot":"0","type":"t_uint256"},{"astId":104,"contract":"Inbox.sol:basic","label":"manager_fee","offset":0,"slot":"1","type":"t_uint256"},{"astId":107,"contract":"Inbox.sol:basic","label":"days_start","offset":0,"slot":"2","type":"t_uint256"},{"astId":110,"contract":"Inbox.sol:basic","label":"numStakeholders","offset":0,"slot":"3","type":"t_uint256"},{"astId":112,"contract":"Inbox.sol:basic","label":"name","offset":0,"slot":"4","type":"t_string_storage"},{"astId":114,"contract":"Inbox.sol:basic","label":"manager","offset":0,"slot":"5","type":"t_address"},{"astId":116,"contract":"Inbox.sol:basic","label":"site","offset":0,"slot":"6","type":"t_address"},{"astId":120,"contract":"Inbox.sol:basic","label":"Stakeholders","offset":0,"slot":"7","type":"t_mapping(t_address,t_bool)"},{"astId":124,"contract":"Inbox.sol:basic","label":"Stakeholders_endTheContract","offset":0,"slot":"8","type":"t_mapping(t_address,t_bool)"},{"astId":127,"contract":"Inbox.sol:basic","label":"endTheContract_numOfVote","offset":0,"slot":"9","type":"t_uint256"},{"astId":130,"contract":"Inbox.sol:basic","label":"Investors","offset":0,"slot":"10","type":"t_array(t_address)dyn_storage"},{"astId":133,"contract":"Inbox.sol:basic","label":"numOfInvestors","offset":0,"slot":"11","type":"t_uint256"},{"astId":137,"contract":"Inbox.sol:basic","label":"Investment","offset":0,"slot":"12","type":"t_mapping(t_address,t_uint256)"},{"astId":141,"contract":"Inbox.sol:basic","label":"ownPercent","offset":0,"slot":"13","type":"t_mapping(t_address,t_uint256)"},{"astId":145,"contract":"Inbox.sol:basic","label":"lefted","offset":0,"slot":"14","type":"t_mapping(t_address,t_bool)"},{"astId":147,"contract":"Inbox.sol:basic","label":"minimumContribution","offset":0,"slot":"15","type":"t_uint256"},{"astId":149,"contract":"Inbox.sol:basic","label":"timeStart","offset":0,"slot":"16","type":"t_uint256"},{"astId":151,"contract":"Inbox.sol:basic","label":"timeToJoin","offset":0,"slot":"17","type":"t_uint256"},{"astId":153,"contract":"Inbox.sol:basic","label":"timeEnd","offset":0,"slot":"18","type":"t_uint256"},{"astId":155,"contract":"Inbox.sol:basic","label":"canBuy","offset":0,"slot":"19","type":"t_bool"},{"astId":159,"contract":"Inbox.sol:basic","label":"myRequsts","offset":0,"slot":"20","type":"t_array(t_struct(Request)98_storage)dyn_storage"},{"astId":161,"contract":"Inbox.sol:basic","label":"listSize","offset":0,"slot":"21","type":"t_uint256"},{"astId":163,"contract":"Inbox.sol:basic","label":"lastRePay","offset":0,"slot":"22","type":"t_uint256"},{"astId":165,"contract":"Inbox.sol:basic","label":"lastTotalVal","offset":0,"slot":"23","type":"t_uint256"},{"astId":167,"contract":"Inbox.sol:basic","label":"managerFineFee","offset":0,"slot":"24","type":"t_uint256"},{"astId":169,"contract":"Inbox.sol:basic","label":"the_balance","offset":0,"slot":"25","type":"t_uint256"},{"astId":171,"contract":"Inbox.sol:basic","label":"lastLeaveVal","offset":0,"slot":"26","type":"t_uint256"}],"types":{"t_address":{"encoding":"inplace","label":"address","numberOfBytes":"20"},"t_array(t_address)dyn_storage":{"base":"t_address","encoding":"dynamic_array","label":"address[]","numberOfBytes":"32"},"t_array(t_struct(Request)98_storage)dyn_storage":{"base":"t_struct(Request)98_storage","encoding":"dynamic_array","label":"struct basic.Request[]","numberOfBytes":"32"},"t_bool":{"encoding":"inplace","label":"bool","numberOfBytes":"1"},"t_mapping(t_address,t_bool)":{"encoding":"mapping","key":"t_address","label":"mapping(address => bool)","numberOfBytes":"32","value":"t_bool"},"t_mapping(t_address,t_uint256)":{"encoding":"mapping","key":"t_address","label":"mapping(address => uint256)","numberOfBytes":"32","value":"t_uint256"},"t_string_storage":{"encoding":"bytes","label":"string","numberOfBytes":"32"},"t_struct(Request)98_storage":{"encoding":"inplace","label":"struct basic.Request","members":[{"astId":85,"contract":"Inbox.sol:basic","label":"description","offset":0,"slot":"0","type":"t_string_storage"},{"astId":87,"contract":"Inbox.sol:basic","label":"what","offset":0,"slot":"1","type":"t_string_storage"},{"astId":89,"contract":"Inbox.sol:basic","label":"value","offset":0,"slot":"2","type":"t_uint256"},{"astId":91,"contract":"Inbox.sol:basic","label":"complete","offset":0,"slot":"3","type":"t_bool"},{"astId":93,"contract":"Inbox.sol:basic","label":"approvalCount","offset":0,"slot":"4","type":"t_uint256"},{"astId":97,"contract":"Inbox.sol:basic","label":"approvals","offset":0,"slot":"5","type":"t_mapping(t_address,t_bool)"}],"numberOfBytes":"192"},"t_uint256":{"encoding":"inplace","label":"uint256","numberOfBytes":"32"}}},"userdoc":{"kind":"user","methods":{},"version":1}}