{"abi":[{"inputs":[{"internalType":"uint256","name":"minimum","type":"uint256"},{"internalType":"uint256","name":"num_days","type":"uint256"},{"internalType":"address","name":"creator","type":"address"},{"internalType":"address","name":"sentTo","type":"address"},{"internalType":"string","name":"contractName","type":"string"}],"stateMutability":"nonpayable","type":"constructor"},{"inputs":[{"internalType":"address","name":"","type":"address"}],"name":"Investment","outputs":[{"internalType":"uint256","name":"","type":"uint256"}],"stateMutability":"view","type":"function"},{"inputs":[{"internalType":"uint256","name":"","type":"uint256"}],"name":"Investors","outputs":[{"internalType":"address","name":"","type":"address"}],"stateMutability":"view","type":"function"},{"inputs":[],"name":"PayDayVoted","outputs":[],"stateMutability":"nonpayable","type":"function"},{"inputs":[{"internalType":"address","name":"","type":"address"}],"name":"Stakeholders","outputs":[{"internalType":"bool","name":"","type":"bool"}],"stateMutability":"view","type":"function"},{"inputs":[{"internalType":"address","name":"","type":"address"}],"name":"Stakeholders_endTheContract","outputs":[{"internalType":"bool","name":"","type":"bool"}],"stateMutability":"view","type":"function"},{"inputs":[],"name":"allInvestorPercent","outputs":[{"internalType":"uint256","name":"","type":"uint256"}],"stateMutability":"view","type":"function"},{"inputs":[{"internalType":"uint256","name":"index","type":"uint256"},{"internalType":"bool","name":"res","type":"bool"}],"name":"approveRequest","outputs":[],"stateMutability":"nonpayable","type":"function"},{"inputs":[],"name":"canBuy","outputs":[{"internalType":"bool","name":"","type":"bool"}],"stateMutability":"view","type":"function"},{"inputs":[],"name":"days_start","outputs":[{"internalType":"uint256","name":"","type":"uint256"}],"stateMutability":"view","type":"function"},{"inputs":[],"name":"endTheContract_numOfVote","outputs":[{"internalType":"uint256","name":"","type":"uint256"}],"stateMutability":"view","type":"function"},{"inputs":[{"internalType":"uint256","name":"index","type":"uint256"}],"name":"executed_order_66","outputs":[{"internalType":"bool","name":"","type":"bool"}],"stateMutability":"nonpayable","type":"function"},{"inputs":[],"name":"getMoney","outputs":[{"internalType":"bool","name":"","type":"bool"}],"stateMutability":"payable","type":"function"},{"inputs":[],"name":"investorBalanc","outputs":[{"internalType":"uint256","name":"","type":"uint256"}],"stateMutability":"view","type":"function"},{"inputs":[{"internalType":"uint256","name":"reqId","type":"uint256"},{"internalType":"address","name":"user","type":"address"}],"name":"isStakeholdersVoted","outputs":[{"internalType":"bool","name":"","type":"bool"}],"stateMutability":"view","type":"function"},{"inputs":[],"name":"join","outputs":[],"stateMutability":"payable","type":"function"},{"inputs":[],"name":"lastLeaveVal","outputs":[{"internalType":"uint256","name":"","type":"uint256"}],"stateMutability":"view","type":"function"},{"inputs":[],"name":"lastRePay","outputs":[{"internalType":"uint256","name":"","type":"uint256"}],"stateMutability":"view","type":"function"},{"inputs":[],"name":"lastTotalVal","outputs":[{"internalType":"uint256","name":"","type":"uint256"}],"stateMutability":"view","type":"function"},{"inputs":[{"internalType":"address","name":"leave_address","type":"address"},{"internalType":"uint256","name":"yield","type":"uint256"}],"name":"leave_contract","outputs":[{"internalType":"bool","name":"","type":"bool"}],"stateMutability":"nonpayable","type":"function"},{"inputs":[{"internalType":"address","name":"","type":"address"}],"name":"lefted","outputs":[{"internalType":"bool","name":"","type":"bool"}],"stateMutability":"view","type":"function"},{"inputs":[],"name":"listSize","outputs":[{"internalType":"uint256","name":"","type":"uint256"}],"stateMutability":"view","type":"function"},{"inputs":[{"internalType":"string","name":"what","type":"string"},{"internalType":"string","name":"why","type":"string"},{"internalType":"uint256","name":"value","type":"uint256"}],"name":"makeNewRequset","outputs":[],"stateMutability":"nonpayable","type":"function"},{"inputs":[],"name":"manager","outputs":[{"internalType":"address","name":"","type":"address"}],"stateMutability":"view","type":"function"},{"inputs":[],"name":"managerFineFee","outputs":[{"internalType":"uint256","name":"","type":"uint256"}],"stateMutability":"view","type":"function"},{"inputs":[],"name":"manager_fee","outputs":[{"internalType":"uint256","name":"","type":"uint256"}],"stateMutability":"view","type":"function"},{"inputs":[],"name":"minimumContribution","outputs":[{"internalType":"uint256","name":"","type":"uint256"}],"stateMutability":"view","type":"function"},{"inputs":[{"internalType":"uint256","name":"","type":"uint256"}],"name":"myRequsts","outputs":[{"internalType":"string","name":"description","type":"string"},{"internalType":"string","name":"what","type":"string"},{"internalType":"uint256","name":"value","type":"uint256"},{"internalType":"bool","name":"complete","type":"bool"},{"internalType":"uint256","name":"approvalCount","type":"uint256"}],"stateMutability":"view","type":"function"},{"inputs":[],"name":"name","outputs":[{"internalType":"string","name":"","type":"string"}],"stateMutability":"view","type":"function"},{"inputs":[],"name":"numOfInvestors","outputs":[{"internalType":"uint256","name":"","type":"uint256"}],"stateMutability":"view","type":"function"},{"inputs":[],"name":"numStakeholders","outputs":[{"internalType":"uint256","name":"","type":"uint256"}],"stateMutability":"view","type":"function"},{"inputs":[{"internalType":"address","name":"","type":"address"}],"name":"ownPercent","outputs":[{"internalType":"uint256","name":"","type":"uint256"}],"stateMutability":"view","type":"function"},{"inputs":[],"name":"payDay","outputs":[],"stateMutability":"nonpayable","type":"function"},{"inputs":[],"name":"penelty","outputs":[{"internalType":"uint256","name":"","type":"uint256"}],"stateMutability":"view","type":"function"},{"inputs":[],"name":"percent","outputs":[{"internalType":"uint256","name":"","type":"uint256"}],"stateMutability":"view","type":"function"},{"inputs":[{"internalType":"uint256","name":"index","type":"uint256"}],"name":"requestIsVoted","outputs":[{"internalType":"bool","name":"","type":"bool"}],"stateMutability":"view","type":"function"},{"inputs":[],"name":"site","outputs":[{"internalType":"address","name":"","type":"address"}],"stateMutability":"view","type":"function"},{"inputs":[],"name":"startContract","outputs":[],"stateMutability":"nonpayable","type":"function"},{"inputs":[],"name":"the_balance","outputs":[{"internalType":"uint256","name":"","type":"uint256"}],"stateMutability":"view","type":"function"},{"inputs":[],"name":"timeEnd","outputs":[{"internalType":"uint256","name":"","type":"uint256"}],"stateMutability":"view","type":"function"},{"inputs":[],"name":"timeStart","outputs":[{"internalType":"uint256","name":"","type":"uint256"}],"stateMutability":"view","type":"function"},{"inputs":[],"name":"timeToJoin","outputs":[{"internalType":"uint256","name":"","type":"uint256"}],"stateMutability":"view","type":"function"}],"devdoc":{"kind":"dev","methods":{},"version":1},"evm":{"assembly":"    /* \"Inbox.sol\":65:9888  contract basic {... */\n  mstore(0x40, 0x80)\n    /* \"Inbox.sol\":1221:1225  1000 */\n  0x03e8\n    /* \"Inbox.sol\":1199:1225  uint public percent = 1000 */\n  0x00\n  sstore\n    /* \"Inbox.sol\":1254:1257  800 */\n  0x0320\n    /* \"Inbox.sol\":1232:1257  uint public penelty = 800 */\n  0x01\n  sstore\n    /* \"Inbox.sol\":1320:1323  100 */\n  0x64\n    /* \"Inbox.sol\":1294:1323  uint public manager_fee = 100 */\n  0x02\n  sstore\n    /* \"Inbox.sol\":1365:1367  20 */\n  0x14\n    /* \"Inbox.sol\":1340:1367  uint public days_start = 20 */\n  0x03\n  sstore\n    /* \"Inbox.sol\":1404:1405  4 */\n  0x04\n    /* \"Inbox.sol\":1374:1405  uint public numStakeholders = 4 */\n  dup1\n  sstore\n    /* \"Inbox.sol\":1691:1692  0 */\n  0x00\n    /* \"Inbox.sol\":1651:1692  uint  public endTheContract_numOfVote = 0 */\n  0x0a\n  sstore\n    /* \"Inbox.sol\":1761:1762  0 */\n  0x00\n    /* \"Inbox.sol\":1734:1762  uint public numOfInvestors=0 */\n  0x0c\n  sstore\n    /* \"Inbox.sol\":2768:3237  constructor(... */\n  callvalue\n  dup1\n  iszero\n  tag_1\n  jumpi\n  0x00\n  dup1\n  revert\ntag_1:\n  pop\n  mload(0x40)\n  sub(codesize, bytecodeSize)\n  dup1\n  bytecodeSize\n  dup4\n  codecopy\n  dup2\n  dup2\n  add\n  0x40\n  mstore\n  dup2\n  add\n  swap1\n  tag_2\n  swap2\n  swap1\n  tag_3\n  jump\t// in\ntag_2:\n    /* \"Inbox.sol\":2941:2953  contractName */\n  dup1\n    /* \"Inbox.sol\":2936:2940  name */\n  0x05\n    /* \"Inbox.sol\":2936:2953  name=contractName */\n  swap1\n  dup2\n  tag_6\n  swap2\n  swap1\n  tag_7\n  jump\t// in\ntag_6:\n  pop\n    /* \"Inbox.sol\":2971:2977  sentTo */\n  dup2\n    /* \"Inbox.sol\":2964:2968  site */\n  0x07\n  0x00\n    /* \"Inbox.sol\":2964:2977  site = sentTo */\n  0x0100\n  exp\n  dup2\n  sload\n  dup2\n  0xffffffffffffffffffffffffffffffffffffffff\n  mul\n  not\n  and\n  swap1\n  dup4\n  0xffffffffffffffffffffffffffffffffffffffff\n  and\n  mul\n  or\n  swap1\n  sstore\n  pop\n    /* \"Inbox.sol\":2998:3005  creator */\n  dup3\n    /* \"Inbox.sol\":2988:2995  manager */\n  0x06\n  0x00\n    /* \"Inbox.sol\":2988:3005  manager = creator */\n  0x0100\n  exp\n  dup2\n  sload\n  dup2\n  0xffffffffffffffffffffffffffffffffffffffff\n  mul\n  not\n  and\n  swap1\n  dup4\n  0xffffffffffffffffffffffffffffffffffffffff\n  and\n  mul\n  or\n  swap1\n  sstore\n  pop\n    /* \"Inbox.sol\":3038:3045  minimum */\n  dup5\n    /* \"Inbox.sol\":3016:3035  minimumContribution */\n  0x10\n    /* \"Inbox.sol\":3016:3045  minimumContribution = minimum */\n  dup2\n  swap1\n  sstore\n  pop\n    /* \"Inbox.sol\":3068:3083  block.timestamp */\n  timestamp\n    /* \"Inbox.sol\":3056:3065  timeStart */\n  0x11\n    /* \"Inbox.sol\":3056:3083  timeStart = block.timestamp */\n  dup2\n  swap1\n  sstore\n  pop\n    /* \"Inbox.sol\":3134:3140  1 days */\n  0x015180\n    /* \"Inbox.sol\":3123:3131  num_days */\n  dup5\n    /* \"Inbox.sol\":3123:3140  num_days * 1 days */\n  tag_8\n  swap2\n  swap1\n  tag_9\n  jump\t// in\ntag_8:\n    /* \"Inbox.sol\":3104:3119  block.timestamp */\n  timestamp\n    /* \"Inbox.sol\":3104:3141  block.timestamp + (num_days * 1 days) */\n  tag_10\n  swap2\n  swap1\n  tag_11\n  jump\t// in\ntag_10:\n    /* \"Inbox.sol\":3094:3101  timeEnd */\n  0x13\n    /* \"Inbox.sol\":3094:3141  timeEnd = block.timestamp + (num_days * 1 days) */\n  dup2\n  swap1\n  sstore\n  pop\n    /* \"Inbox.sol\":3197:3203  1 days */\n  0x015180\n    /* \"Inbox.sol\":3184:3194  days_start */\n  sload(0x03)\n    /* \"Inbox.sol\":3184:3203  days_start * 1 days */\n  tag_12\n  swap2\n  swap1\n  tag_9\n  jump\t// in\ntag_12:\n    /* \"Inbox.sol\":3165:3180  block.timestamp */\n  timestamp\n    /* \"Inbox.sol\":3165:3204  block.timestamp + (days_start * 1 days) */\n  tag_13\n  swap2\n  swap1\n  tag_11\n  jump\t// in\ntag_13:\n    /* \"Inbox.sol\":3152:3162  timeToJoin */\n  0x12\n    /* \"Inbox.sol\":3152:3204  timeToJoin = block.timestamp + (days_start * 1 days) */\n  dup2\n  swap1\n  sstore\n  pop\n    /* \"Inbox.sol\":3224:3229  false */\n  0x00\n    /* \"Inbox.sol\":3215:3221  canBuy */\n  0x14\n  0x00\n    /* \"Inbox.sol\":3215:3229  canBuy = false */\n  0x0100\n  exp\n  dup2\n  sload\n  dup2\n  0xff\n  mul\n  not\n  and\n  swap1\n  dup4\n  iszero\n  iszero\n  mul\n  or\n  swap1\n  sstore\n  pop\n    /* \"Inbox.sol\":2768:3237  constructor(... */\n  pop\n  pop\n  pop\n  pop\n  pop\n    /* \"Inbox.sol\":65:9888  contract basic {... */\n  jump(tag_14)\n    /* \"#utility.yul\":7:82   */\ntag_15:\n    /* \"#utility.yul\":40:46   */\n  0x00\n    /* \"#utility.yul\":73:75   */\n  0x40\n    /* \"#utility.yul\":67:76   */\n  mload\n    /* \"#utility.yul\":57:76   */\n  swap1\n  pop\n    /* \"#utility.yul\":7:82   */\n  swap1\n  jump\t// out\n    /* \"#utility.yul\":88:205   */\ntag_16:\n    /* \"#utility.yul\":197:198   */\n  0x00\n    /* \"#utility.yul\":194:195   */\n  dup1\n    /* \"#utility.yul\":187:199   */\n  revert\n    /* \"#utility.yul\":211:328   */\ntag_17:\n    /* \"#utility.yul\":320:321   */\n  0x00\n    /* \"#utility.yul\":317:318   */\n  dup1\n    /* \"#utility.yul\":310:322   */\n  revert\n    /* \"#utility.yul\":334:411   */\ntag_18:\n    /* \"#utility.yul\":371:378   */\n  0x00\n    /* \"#utility.yul\":400:405   */\n  dup2\n    /* \"#utility.yul\":389:405   */\n  swap1\n  pop\n    /* \"#utility.yul\":334:411   */\n  swap2\n  swap1\n  pop\n  jump\t// out\n    /* \"#utility.yul\":417:539   */\ntag_19:\n    /* \"#utility.yul\":490:514   */\n  tag_60\n    /* \"#utility.yul\":508:513   */\n  dup2\n    /* \"#utility.yul\":490:514   */\n  tag_18\n  jump\t// in\ntag_60:\n    /* \"#utility.yul\":483:488   */\n  dup2\n    /* \"#utility.yul\":480:515   */\n  eq\n    /* \"#utility.yul\":470:533   */\n  tag_61\n  jumpi\n    /* \"#utility.yul\":529:530   */\n  0x00\n    /* \"#utility.yul\":526:527   */\n  dup1\n    /* \"#utility.yul\":519:531   */\n  revert\n    /* \"#utility.yul\":470:533   */\ntag_61:\n    /* \"#utility.yul\":417:539   */\n  pop\n  jump\t// out\n    /* \"#utility.yul\":545:688   */\ntag_20:\n    /* \"#utility.yul\":602:607   */\n  0x00\n    /* \"#utility.yul\":633:639   */\n  dup2\n    /* \"#utility.yul\":627:640   */\n  mload\n    /* \"#utility.yul\":618:640   */\n  swap1\n  pop\n    /* \"#utility.yul\":649:682   */\n  tag_63\n    /* \"#utility.yul\":676:681   */\n  dup2\n    /* \"#utility.yul\":649:682   */\n  tag_19\n  jump\t// in\ntag_63:\n    /* \"#utility.yul\":545:688   */\n  swap3\n  swap2\n  pop\n  pop\n  jump\t// out\n    /* \"#utility.yul\":694:820   */\ntag_21:\n    /* \"#utility.yul\":731:738   */\n  0x00\n    /* \"#utility.yul\":771:813   */\n  0xffffffffffffffffffffffffffffffffffffffff\n    /* \"#utility.yul\":764:769   */\n  dup3\n    /* \"#utility.yul\":760:814   */\n  and\n    /* \"#utility.yul\":749:814   */\n  swap1\n  pop\n    /* \"#utility.yul\":694:820   */\n  swap2\n  swap1\n  pop\n  jump\t// out\n    /* \"#utility.yul\":826:922   */\ntag_22:\n    /* \"#utility.yul\":863:870   */\n  0x00\n    /* \"#utility.yul\":892:916   */\n  tag_66\n    /* \"#utility.yul\":910:915   */\n  dup3\n    /* \"#utility.yul\":892:916   */\n  tag_21\n  jump\t// in\ntag_66:\n    /* \"#utility.yul\":881:916   */\n  swap1\n  pop\n    /* \"#utility.yul\":826:922   */\n  swap2\n  swap1\n  pop\n  jump\t// out\n    /* \"#utility.yul\":928:1050   */\ntag_23:\n    /* \"#utility.yul\":1001:1025   */\n  tag_68\n    /* \"#utility.yul\":1019:1024   */\n  dup2\n    /* \"#utility.yul\":1001:1025   */\n  tag_22\n  jump\t// in\ntag_68:\n    /* \"#utility.yul\":994:999   */\n  dup2\n    /* \"#utility.yul\":991:1026   */\n  eq\n    /* \"#utility.yul\":981:1044   */\n  tag_69\n  jumpi\n    /* \"#utility.yul\":1040:1041   */\n  0x00\n    /* \"#utility.yul\":1037:1038   */\n  dup1\n    /* \"#utility.yul\":1030:1042   */\n  revert\n    /* \"#utility.yul\":981:1044   */\ntag_69:\n    /* \"#utility.yul\":928:1050   */\n  pop\n  jump\t// out\n    /* \"#utility.yul\":1056:1199   */\ntag_24:\n    /* \"#utility.yul\":1113:1118   */\n  0x00\n    /* \"#utility.yul\":1144:1150   */\n  dup2\n    /* \"#utility.yul\":1138:1151   */\n  mload\n    /* \"#utility.yul\":1129:1151   */\n  swap1\n  pop\n    /* \"#utility.yul\":1160:1193   */\n  tag_71\n    /* \"#utility.yul\":1187:1192   */\n  dup2\n    /* \"#utility.yul\":1160:1193   */\n  tag_23\n  jump\t// in\ntag_71:\n    /* \"#utility.yul\":1056:1199   */\n  swap3\n  swap2\n  pop\n  pop\n  jump\t// out\n    /* \"#utility.yul\":1205:1322   */\ntag_25:\n    /* \"#utility.yul\":1314:1315   */\n  0x00\n    /* \"#utility.yul\":1311:1312   */\n  dup1\n    /* \"#utility.yul\":1304:1316   */\n  revert\n    /* \"#utility.yul\":1328:1445   */\ntag_26:\n    /* \"#utility.yul\":1437:1438   */\n  0x00\n    /* \"#utility.yul\":1434:1435   */\n  dup1\n    /* \"#utility.yul\":1427:1439   */\n  revert\n    /* \"#utility.yul\":1451:1553   */\ntag_27:\n    /* \"#utility.yul\":1492:1498   */\n  0x00\n    /* \"#utility.yul\":1543:1545   */\n  0x1f\n    /* \"#utility.yul\":1539:1546   */\n  not\n    /* \"#utility.yul\":1534:1536   */\n  0x1f\n    /* \"#utility.yul\":1527:1532   */\n  dup4\n    /* \"#utility.yul\":1523:1537   */\n  add\n    /* \"#utility.yul\":1519:1547   */\n  and\n    /* \"#utility.yul\":1509:1547   */\n  swap1\n  pop\n    /* \"#utility.yul\":1451:1553   */\n  swap2\n  swap1\n  pop\n  jump\t// out\n    /* \"#utility.yul\":1559:1739   */\ntag_28:\n    /* \"#utility.yul\":1607:1684   */\n  0x4e487b7100000000000000000000000000000000000000000000000000000000\n    /* \"#utility.yul\":1604:1605   */\n  0x00\n    /* \"#utility.yul\":1597:1685   */\n  mstore\n    /* \"#utility.yul\":1704:1708   */\n  0x41\n    /* \"#utility.yul\":1701:1702   */\n  0x04\n    /* \"#utility.yul\":1694:1709   */\n  mstore\n    /* \"#utility.yul\":1728:1732   */\n  0x24\n    /* \"#utility.yul\":1725:1726   */\n  0x00\n    /* \"#utility.yul\":1718:1733   */\n  revert\n    /* \"#utility.yul\":1745:2026   */\ntag_29:\n    /* \"#utility.yul\":1828:1855   */\n  tag_77\n    /* \"#utility.yul\":1850:1854   */\n  dup3\n    /* \"#utility.yul\":1828:1855   */\n  tag_27\n  jump\t// in\ntag_77:\n    /* \"#utility.yul\":1820:1826   */\n  dup2\n    /* \"#utility.yul\":1816:1856   */\n  add\n    /* \"#utility.yul\":1958:1964   */\n  dup2\n    /* \"#utility.yul\":1946:1956   */\n  dup2\n    /* \"#utility.yul\":1943:1965   */\n  lt\n    /* \"#utility.yul\":1922:1940   */\n  0xffffffffffffffff\n    /* \"#utility.yul\":1910:1920   */\n  dup3\n    /* \"#utility.yul\":1907:1941   */\n  gt\n    /* \"#utility.yul\":1904:1966   */\n  or\n    /* \"#utility.yul\":1901:1989   */\n  iszero\n  tag_78\n  jumpi\n    /* \"#utility.yul\":1969:1987   */\n  tag_79\n  tag_28\n  jump\t// in\ntag_79:\n    /* \"#utility.yul\":1901:1989   */\ntag_78:\n    /* \"#utility.yul\":2009:2019   */\n  dup1\n    /* \"#utility.yul\":2005:2007   */\n  0x40\n    /* \"#utility.yul\":1998:2020   */\n  mstore\n    /* \"#utility.yul\":1788:2026   */\n  pop\n    /* \"#utility.yul\":1745:2026   */\n  pop\n  pop\n  jump\t// out\n    /* \"#utility.yul\":2032:2161   */\ntag_30:\n    /* \"#utility.yul\":2066:2072   */\n  0x00\n    /* \"#utility.yul\":2093:2113   */\n  tag_81\n  tag_15\n  jump\t// in\ntag_81:\n    /* \"#utility.yul\":2083:2113   */\n  swap1\n  pop\n    /* \"#utility.yul\":2122:2155   */\n  tag_82\n    /* \"#utility.yul\":2150:2154   */\n  dup3\n    /* \"#utility.yul\":2142:2148   */\n  dup3\n    /* \"#utility.yul\":2122:2155   */\n  tag_29\n  jump\t// in\ntag_82:\n    /* \"#utility.yul\":2032:2161   */\n  swap2\n  swap1\n  pop\n  jump\t// out\n    /* \"#utility.yul\":2167:2475   */\ntag_31:\n    /* \"#utility.yul\":2229:2233   */\n  0x00\n    /* \"#utility.yul\":2319:2337   */\n  0xffffffffffffffff\n    /* \"#utility.yul\":2311:2317   */\n  dup3\n    /* \"#utility.yul\":2308:2338   */\n  gt\n    /* \"#utility.yul\":2305:2361   */\n  iszero\n  tag_84\n  jumpi\n    /* \"#utility.yul\":2341:2359   */\n  tag_85\n  tag_28\n  jump\t// in\ntag_85:\n    /* \"#utility.yul\":2305:2361   */\ntag_84:\n    /* \"#utility.yul\":2379:2408   */\n  tag_86\n    /* \"#utility.yul\":2401:2407   */\n  dup3\n    /* \"#utility.yul\":2379:2408   */\n  tag_27\n  jump\t// in\ntag_86:\n    /* \"#utility.yul\":2371:2408   */\n  swap1\n  pop\n    /* \"#utility.yul\":2463:2467   */\n  0x20\n    /* \"#utility.yul\":2457:2461   */\n  dup2\n    /* \"#utility.yul\":2453:2468   */\n  add\n    /* \"#utility.yul\":2445:2468   */\n  swap1\n  pop\n    /* \"#utility.yul\":2167:2475   */\n  swap2\n  swap1\n  pop\n  jump\t// out\n    /* \"#utility.yul\":2481:2788   */\ntag_32:\n    /* \"#utility.yul\":2549:2550   */\n  0x00\n    /* \"#utility.yul\":2559:2672   */\ntag_88:\n    /* \"#utility.yul\":2573:2579   */\n  dup4\n    /* \"#utility.yul\":2570:2571   */\n  dup2\n    /* \"#utility.yul\":2567:2580   */\n  lt\n    /* \"#utility.yul\":2559:2672   */\n  iszero\n  tag_90\n  jumpi\n    /* \"#utility.yul\":2658:2659   */\n  dup1\n    /* \"#utility.yul\":2653:2656   */\n  dup3\n    /* \"#utility.yul\":2649:2660   */\n  add\n    /* \"#utility.yul\":2643:2661   */\n  mload\n    /* \"#utility.yul\":2639:2640   */\n  dup2\n    /* \"#utility.yul\":2634:2637   */\n  dup5\n    /* \"#utility.yul\":2630:2641   */\n  add\n    /* \"#utility.yul\":2623:2662   */\n  mstore\n    /* \"#utility.yul\":2595:2597   */\n  0x20\n    /* \"#utility.yul\":2592:2593   */\n  dup2\n    /* \"#utility.yul\":2588:2598   */\n  add\n    /* \"#utility.yul\":2583:2598   */\n  swap1\n  pop\n    /* \"#utility.yul\":2559:2672   */\n  jump(tag_88)\ntag_90:\n    /* \"#utility.yul\":2690:2696   */\n  dup4\n    /* \"#utility.yul\":2687:2688   */\n  dup2\n    /* \"#utility.yul\":2684:2697   */\n  gt\n    /* \"#utility.yul\":2681:2782   */\n  iszero\n  tag_91\n  jumpi\n    /* \"#utility.yul\":2770:2771   */\n  0x00\n    /* \"#utility.yul\":2761:2767   */\n  dup5\n    /* \"#utility.yul\":2756:2759   */\n  dup5\n    /* \"#utility.yul\":2752:2768   */\n  add\n    /* \"#utility.yul\":2745:2772   */\n  mstore\n    /* \"#utility.yul\":2681:2782   */\ntag_91:\n    /* \"#utility.yul\":2530:2788   */\n  pop\n    /* \"#utility.yul\":2481:2788   */\n  pop\n  pop\n  pop\n  jump\t// out\n    /* \"#utility.yul\":2794:3215   */\ntag_33:\n    /* \"#utility.yul\":2883:2888   */\n  0x00\n    /* \"#utility.yul\":2908:2974   */\n  tag_93\n    /* \"#utility.yul\":2924:2973   */\n  tag_94\n    /* \"#utility.yul\":2966:2972   */\n  dup5\n    /* \"#utility.yul\":2924:2973   */\n  tag_31\n  jump\t// in\ntag_94:\n    /* \"#utility.yul\":2908:2974   */\n  tag_30\n  jump\t// in\ntag_93:\n    /* \"#utility.yul\":2899:2974   */\n  swap1\n  pop\n    /* \"#utility.yul\":2997:3003   */\n  dup3\n    /* \"#utility.yul\":2990:2995   */\n  dup2\n    /* \"#utility.yul\":2983:3004   */\n  mstore\n    /* \"#utility.yul\":3035:3039   */\n  0x20\n    /* \"#utility.yul\":3028:3033   */\n  dup2\n    /* \"#utility.yul\":3024:3040   */\n  add\n    /* \"#utility.yul\":3073:3076   */\n  dup5\n    /* \"#utility.yul\":3064:3070   */\n  dup5\n    /* \"#utility.yul\":3059:3062   */\n  dup5\n    /* \"#utility.yul\":3055:3071   */\n  add\n    /* \"#utility.yul\":3052:3077   */\n  gt\n    /* \"#utility.yul\":3049:3161   */\n  iszero\n  tag_95\n  jumpi\n    /* \"#utility.yul\":3080:3159   */\n  tag_96\n  tag_26\n  jump\t// in\ntag_96:\n    /* \"#utility.yul\":3049:3161   */\ntag_95:\n    /* \"#utility.yul\":3170:3209   */\n  tag_97\n    /* \"#utility.yul\":3202:3208   */\n  dup5\n    /* \"#utility.yul\":3197:3200   */\n  dup3\n    /* \"#utility.yul\":3192:3195   */\n  dup6\n    /* \"#utility.yul\":3170:3209   */\n  tag_32\n  jump\t// in\ntag_97:\n    /* \"#utility.yul\":2889:3215   */\n  pop\n    /* \"#utility.yul\":2794:3215   */\n  swap4\n  swap3\n  pop\n  pop\n  pop\n  jump\t// out\n    /* \"#utility.yul\":3235:3590   */\ntag_34:\n    /* \"#utility.yul\":3302:3307   */\n  0x00\n    /* \"#utility.yul\":3351:3354   */\n  dup3\n    /* \"#utility.yul\":3344:3348   */\n  0x1f\n    /* \"#utility.yul\":3336:3342   */\n  dup4\n    /* \"#utility.yul\":3332:3349   */\n  add\n    /* \"#utility.yul\":3328:3355   */\n  slt\n    /* \"#utility.yul\":3318:3440   */\n  tag_99\n  jumpi\n    /* \"#utility.yul\":3359:3438   */\n  tag_100\n  tag_25\n  jump\t// in\ntag_100:\n    /* \"#utility.yul\":3318:3440   */\ntag_99:\n    /* \"#utility.yul\":3469:3475   */\n  dup2\n    /* \"#utility.yul\":3463:3476   */\n  mload\n    /* \"#utility.yul\":3494:3584   */\n  tag_101\n    /* \"#utility.yul\":3580:3583   */\n  dup5\n    /* \"#utility.yul\":3572:3578   */\n  dup3\n    /* \"#utility.yul\":3565:3569   */\n  0x20\n    /* \"#utility.yul\":3557:3563   */\n  dup7\n    /* \"#utility.yul\":3553:3570   */\n  add\n    /* \"#utility.yul\":3494:3584   */\n  tag_33\n  jump\t// in\ntag_101:\n    /* \"#utility.yul\":3485:3584   */\n  swap2\n  pop\n    /* \"#utility.yul\":3308:3590   */\n  pop\n    /* \"#utility.yul\":3235:3590   */\n  swap3\n  swap2\n  pop\n  pop\n  jump\t// out\n    /* \"#utility.yul\":3596:4746   */\ntag_3:\n    /* \"#utility.yul\":3712:3718   */\n  0x00\n    /* \"#utility.yul\":3720:3726   */\n  dup1\n    /* \"#utility.yul\":3728:3734   */\n  0x00\n    /* \"#utility.yul\":3736:3742   */\n  dup1\n    /* \"#utility.yul\":3744:3750   */\n  0x00\n    /* \"#utility.yul\":3793:3796   */\n  0xa0\n    /* \"#utility.yul\":3781:3790   */\n  dup7\n    /* \"#utility.yul\":3772:3779   */\n  dup9\n    /* \"#utility.yul\":3768:3791   */\n  sub\n    /* \"#utility.yul\":3764:3797   */\n  slt\n    /* \"#utility.yul\":3761:3881   */\n  iszero\n  tag_103\n  jumpi\n    /* \"#utility.yul\":3800:3879   */\n  tag_104\n  tag_16\n  jump\t// in\ntag_104:\n    /* \"#utility.yul\":3761:3881   */\ntag_103:\n    /* \"#utility.yul\":3920:3921   */\n  0x00\n    /* \"#utility.yul\":3945:4009   */\n  tag_105\n    /* \"#utility.yul\":4001:4008   */\n  dup9\n    /* \"#utility.yul\":3992:3998   */\n  dup3\n    /* \"#utility.yul\":3981:3990   */\n  dup10\n    /* \"#utility.yul\":3977:3999   */\n  add\n    /* \"#utility.yul\":3945:4009   */\n  tag_20\n  jump\t// in\ntag_105:\n    /* \"#utility.yul\":3935:4009   */\n  swap6\n  pop\n    /* \"#utility.yul\":3891:4019   */\n  pop\n    /* \"#utility.yul\":4058:4060   */\n  0x20\n    /* \"#utility.yul\":4084:4148   */\n  tag_106\n    /* \"#utility.yul\":4140:4147   */\n  dup9\n    /* \"#utility.yul\":4131:4137   */\n  dup3\n    /* \"#utility.yul\":4120:4129   */\n  dup10\n    /* \"#utility.yul\":4116:4138   */\n  add\n    /* \"#utility.yul\":4084:4148   */\n  tag_20\n  jump\t// in\ntag_106:\n    /* \"#utility.yul\":4074:4148   */\n  swap5\n  pop\n    /* \"#utility.yul\":4029:4158   */\n  pop\n    /* \"#utility.yul\":4197:4199   */\n  0x40\n    /* \"#utility.yul\":4223:4287   */\n  tag_107\n    /* \"#utility.yul\":4279:4286   */\n  dup9\n    /* \"#utility.yul\":4270:4276   */\n  dup3\n    /* \"#utility.yul\":4259:4268   */\n  dup10\n    /* \"#utility.yul\":4255:4277   */\n  add\n    /* \"#utility.yul\":4223:4287   */\n  tag_24\n  jump\t// in\ntag_107:\n    /* \"#utility.yul\":4213:4287   */\n  swap4\n  pop\n    /* \"#utility.yul\":4168:4297   */\n  pop\n    /* \"#utility.yul\":4336:4338   */\n  0x60\n    /* \"#utility.yul\":4362:4426   */\n  tag_108\n    /* \"#utility.yul\":4418:4425   */\n  dup9\n    /* \"#utility.yul\":4409:4415   */\n  dup3\n    /* \"#utility.yul\":4398:4407   */\n  dup10\n    /* \"#utility.yul\":4394:4416   */\n  add\n    /* \"#utility.yul\":4362:4426   */\n  tag_24\n  jump\t// in\ntag_108:\n    /* \"#utility.yul\":4352:4426   */\n  swap3\n  pop\n    /* \"#utility.yul\":4307:4436   */\n  pop\n    /* \"#utility.yul\":4496:4499   */\n  0x80\n    /* \"#utility.yul\":4485:4494   */\n  dup7\n    /* \"#utility.yul\":4481:4500   */\n  add\n    /* \"#utility.yul\":4475:4501   */\n  mload\n    /* \"#utility.yul\":4528:4546   */\n  0xffffffffffffffff\n    /* \"#utility.yul\":4520:4526   */\n  dup2\n    /* \"#utility.yul\":4517:4547   */\n  gt\n    /* \"#utility.yul\":4514:4631   */\n  iszero\n  tag_109\n  jumpi\n    /* \"#utility.yul\":4550:4629   */\n  tag_110\n  tag_17\n  jump\t// in\ntag_110:\n    /* \"#utility.yul\":4514:4631   */\ntag_109:\n    /* \"#utility.yul\":4655:4729   */\n  tag_111\n    /* \"#utility.yul\":4721:4728   */\n  dup9\n    /* \"#utility.yul\":4712:4718   */\n  dup3\n    /* \"#utility.yul\":4701:4710   */\n  dup10\n    /* \"#utility.yul\":4697:4719   */\n  add\n    /* \"#utility.yul\":4655:4729   */\n  tag_34\n  jump\t// in\ntag_111:\n    /* \"#utility.yul\":4645:4729   */\n  swap2\n  pop\n    /* \"#utility.yul\":4446:4739   */\n  pop\n    /* \"#utility.yul\":3596:4746   */\n  swap3\n  swap6\n  pop\n  swap3\n  swap6\n  swap1\n  swap4\n  pop\n  jump\t// out\n    /* \"#utility.yul\":4752:4851   */\ntag_35:\n    /* \"#utility.yul\":4804:4810   */\n  0x00\n    /* \"#utility.yul\":4838:4843   */\n  dup2\n    /* \"#utility.yul\":4832:4844   */\n  mload\n    /* \"#utility.yul\":4822:4844   */\n  swap1\n  pop\n    /* \"#utility.yul\":4752:4851   */\n  swap2\n  swap1\n  pop\n  jump\t// out\n    /* \"#utility.yul\":4857:5037   */\ntag_36:\n    /* \"#utility.yul\":4905:4982   */\n  0x4e487b7100000000000000000000000000000000000000000000000000000000\n    /* \"#utility.yul\":4902:4903   */\n  0x00\n    /* \"#utility.yul\":4895:4983   */\n  mstore\n    /* \"#utility.yul\":5002:5006   */\n  0x22\n    /* \"#utility.yul\":4999:5000   */\n  0x04\n    /* \"#utility.yul\":4992:5007   */\n  mstore\n    /* \"#utility.yul\":5026:5030   */\n  0x24\n    /* \"#utility.yul\":5023:5024   */\n  0x00\n    /* \"#utility.yul\":5016:5031   */\n  revert\n    /* \"#utility.yul\":5043:5363   */\ntag_37:\n    /* \"#utility.yul\":5087:5093   */\n  0x00\n    /* \"#utility.yul\":5124:5125   */\n  0x02\n    /* \"#utility.yul\":5118:5122   */\n  dup3\n    /* \"#utility.yul\":5114:5126   */\n  div\n    /* \"#utility.yul\":5104:5126   */\n  swap1\n  pop\n    /* \"#utility.yul\":5171:5172   */\n  0x01\n    /* \"#utility.yul\":5165:5169   */\n  dup3\n    /* \"#utility.yul\":5161:5173   */\n  and\n    /* \"#utility.yul\":5192:5210   */\n  dup1\n    /* \"#utility.yul\":5182:5263   */\n  tag_115\n  jumpi\n    /* \"#utility.yul\":5248:5252   */\n  0x7f\n    /* \"#utility.yul\":5240:5246   */\n  dup3\n    /* \"#utility.yul\":5236:5253   */\n  and\n    /* \"#utility.yul\":5226:5253   */\n  swap2\n  pop\n    /* \"#utility.yul\":5182:5263   */\ntag_115:\n    /* \"#utility.yul\":5310:5312   */\n  0x20\n    /* \"#utility.yul\":5302:5308   */\n  dup3\n    /* \"#utility.yul\":5299:5313   */\n  lt\n    /* \"#utility.yul\":5279:5297   */\n  dup2\n    /* \"#utility.yul\":5276:5314   */\n  sub\n    /* \"#utility.yul\":5273:5357   */\n  tag_116\n  jumpi\n    /* \"#utility.yul\":5329:5347   */\n  tag_117\n  tag_36\n  jump\t// in\ntag_117:\n    /* \"#utility.yul\":5273:5357   */\ntag_116:\n    /* \"#utility.yul\":5094:5363   */\n  pop\n    /* \"#utility.yul\":5043:5363   */\n  swap2\n  swap1\n  pop\n  jump\t// out\n    /* \"#utility.yul\":5369:5510   */\ntag_38:\n    /* \"#utility.yul\":5418:5422   */\n  0x00\n    /* \"#utility.yul\":5441:5444   */\n  dup2\n    /* \"#utility.yul\":5433:5444   */\n  swap1\n  pop\n    /* \"#utility.yul\":5464:5467   */\n  dup2\n    /* \"#utility.yul\":5461:5462   */\n  0x00\n    /* \"#utility.yul\":5454:5468   */\n  mstore\n    /* \"#utility.yul\":5498:5502   */\n  0x20\n    /* \"#utility.yul\":5495:5496   */\n  0x00\n    /* \"#utility.yul\":5485:5503   */\n  keccak256\n    /* \"#utility.yul\":5477:5503   */\n  swap1\n  pop\n    /* \"#utility.yul\":5369:5510   */\n  swap2\n  swap1\n  pop\n  jump\t// out\n    /* \"#utility.yul\":5516:5609   */\ntag_39:\n    /* \"#utility.yul\":5553:5559   */\n  0x00\n    /* \"#utility.yul\":5600:5602   */\n  0x20\n    /* \"#utility.yul\":5595:5597   */\n  0x1f\n    /* \"#utility.yul\":5588:5593   */\n  dup4\n    /* \"#utility.yul\":5584:5598   */\n  add\n    /* \"#utility.yul\":5580:5603   */\n  div\n    /* \"#utility.yul\":5570:5603   */\n  swap1\n  pop\n    /* \"#utility.yul\":5516:5609   */\n  swap2\n  swap1\n  pop\n  jump\t// out\n    /* \"#utility.yul\":5615:5722   */\ntag_40:\n    /* \"#utility.yul\":5659:5667   */\n  0x00\n    /* \"#utility.yul\":5709:5714   */\n  dup3\n    /* \"#utility.yul\":5703:5707   */\n  dup3\n    /* \"#utility.yul\":5699:5715   */\n  shl\n    /* \"#utility.yul\":5678:5715   */\n  swap1\n  pop\n    /* \"#utility.yul\":5615:5722   */\n  swap3\n  swap2\n  pop\n  pop\n  jump\t// out\n    /* \"#utility.yul\":5728:6121   */\ntag_41:\n    /* \"#utility.yul\":5797:5803   */\n  0x00\n    /* \"#utility.yul\":5847:5848   */\n  0x08\n    /* \"#utility.yul\":5835:5845   */\n  dup4\n    /* \"#utility.yul\":5831:5849   */\n  mul\n    /* \"#utility.yul\":5870:5967   */\n  tag_122\n    /* \"#utility.yul\":5900:5966   */\n  0xffffffffffffffffffffffffffffffffffffffffffffffffffffffffffffffff\n    /* \"#utility.yul\":5889:5898   */\n  dup3\n    /* \"#utility.yul\":5870:5967   */\n  tag_40\n  jump\t// in\ntag_122:\n    /* \"#utility.yul\":5988:6027   */\n  tag_123\n    /* \"#utility.yul\":6018:6026   */\n  dup7\n    /* \"#utility.yul\":6007:6016   */\n  dup4\n    /* \"#utility.yul\":5988:6027   */\n  tag_40\n  jump\t// in\ntag_123:\n    /* \"#utility.yul\":5976:6027   */\n  swap6\n  pop\n    /* \"#utility.yul\":6060:6064   */\n  dup1\n    /* \"#utility.yul\":6056:6065   */\n  not\n    /* \"#utility.yul\":6049:6054   */\n  dup5\n    /* \"#utility.yul\":6045:6066   */\n  and\n    /* \"#utility.yul\":6036:6066   */\n  swap4\n  pop\n    /* \"#utility.yul\":6109:6113   */\n  dup1\n    /* \"#utility.yul\":6099:6107   */\n  dup7\n    /* \"#utility.yul\":6095:6114   */\n  and\n    /* \"#utility.yul\":6088:6093   */\n  dup5\n    /* \"#utility.yul\":6085:6115   */\n  or\n    /* \"#utility.yul\":6075:6115   */\n  swap3\n  pop\n    /* \"#utility.yul\":5804:6121   */\n  pop\n  pop\n    /* \"#utility.yul\":5728:6121   */\n  swap4\n  swap3\n  pop\n  pop\n  pop\n  jump\t// out\n    /* \"#utility.yul\":6127:6187   */\ntag_42:\n    /* \"#utility.yul\":6155:6158   */\n  0x00\n    /* \"#utility.yul\":6176:6181   */\n  dup2\n    /* \"#utility.yul\":6169:6181   */\n  swap1\n  pop\n    /* \"#utility.yul\":6127:6187   */\n  swap2\n  swap1\n  pop\n  jump\t// out\n    /* \"#utility.yul\":6193:6335   */\ntag_43:\n    /* \"#utility.yul\":6243:6252   */\n  0x00\n    /* \"#utility.yul\":6276:6329   */\n  tag_126\n    /* \"#utility.yul\":6294:6328   */\n  tag_127\n    /* \"#utility.yul\":6303:6327   */\n  tag_128\n    /* \"#utility.yul\":6321:6326   */\n  dup5\n    /* \"#utility.yul\":6303:6327   */\n  tag_18\n  jump\t// in\ntag_128:\n    /* \"#utility.yul\":6294:6328   */\n  tag_42\n  jump\t// in\ntag_127:\n    /* \"#utility.yul\":6276:6329   */\n  tag_18\n  jump\t// in\ntag_126:\n    /* \"#utility.yul\":6263:6329   */\n  swap1\n  pop\n    /* \"#utility.yul\":6193:6335   */\n  swap2\n  swap1\n  pop\n  jump\t// out\n    /* \"#utility.yul\":6341:6416   */\ntag_44:\n    /* \"#utility.yul\":6384:6387   */\n  0x00\n    /* \"#utility.yul\":6405:6410   */\n  dup2\n    /* \"#utility.yul\":6398:6410   */\n  swap1\n  pop\n    /* \"#utility.yul\":6341:6416   */\n  swap2\n  swap1\n  pop\n  jump\t// out\n    /* \"#utility.yul\":6422:6691   */\ntag_45:\n    /* \"#utility.yul\":6532:6571   */\n  tag_131\n    /* \"#utility.yul\":6563:6570   */\n  dup4\n    /* \"#utility.yul\":6532:6571   */\n  tag_43\n  jump\t// in\ntag_131:\n    /* \"#utility.yul\":6593:6684   */\n  tag_132\n    /* \"#utility.yul\":6642:6683   */\n  tag_133\n    /* \"#utility.yul\":6666:6682   */\n  dup3\n    /* \"#utility.yul\":6642:6683   */\n  tag_44\n  jump\t// in\ntag_133:\n    /* \"#utility.yul\":6634:6640   */\n  dup5\n    /* \"#utility.yul\":6627:6631   */\n  dup5\n    /* \"#utility.yul\":6621:6632   */\n  sload\n    /* \"#utility.yul\":6593:6684   */\n  tag_41\n  jump\t// in\ntag_132:\n    /* \"#utility.yul\":6587:6591   */\n  dup3\n    /* \"#utility.yul\":6580:6685   */\n  sstore\n    /* \"#utility.yul\":6498:6691   */\n  pop\n    /* \"#utility.yul\":6422:6691   */\n  pop\n  pop\n  pop\n  jump\t// out\n    /* \"#utility.yul\":6697:6770   */\ntag_46:\n    /* \"#utility.yul\":6742:6745   */\n  0x00\n    /* \"#utility.yul\":6697:6770   */\n  swap1\n  jump\t// out\n    /* \"#utility.yul\":6776:6965   */\ntag_47:\n    /* \"#utility.yul\":6853:6885   */\n  tag_136\n  tag_46\n  jump\t// in\ntag_136:\n    /* \"#utility.yul\":6894:6959   */\n  tag_137\n    /* \"#utility.yul\":6952:6958   */\n  dup2\n    /* \"#utility.yul\":6944:6950   */\n  dup5\n    /* \"#utility.yul\":6938:6942   */\n  dup5\n    /* \"#utility.yul\":6894:6959   */\n  tag_45\n  jump\t// in\ntag_137:\n    /* \"#utility.yul\":6829:6965   */\n  pop\n    /* \"#utility.yul\":6776:6965   */\n  pop\n  pop\n  jump\t// out\n    /* \"#utility.yul\":6971:7157   */\ntag_48:\n    /* \"#utility.yul\":7031:7151   */\ntag_139:\n    /* \"#utility.yul\":7048:7051   */\n  dup2\n    /* \"#utility.yul\":7041:7046   */\n  dup2\n    /* \"#utility.yul\":7038:7052   */\n  lt\n    /* \"#utility.yul\":7031:7151   */\n  iszero\n  tag_141\n  jumpi\n    /* \"#utility.yul\":7102:7141   */\n  tag_142\n    /* \"#utility.yul\":7139:7140   */\n  0x00\n    /* \"#utility.yul\":7132:7137   */\n  dup3\n    /* \"#utility.yul\":7102:7141   */\n  tag_47\n  jump\t// in\ntag_142:\n    /* \"#utility.yul\":7075:7076   */\n  0x01\n    /* \"#utility.yul\":7068:7073   */\n  dup2\n    /* \"#utility.yul\":7064:7077   */\n  add\n    /* \"#utility.yul\":7055:7077   */\n  swap1\n  pop\n    /* \"#utility.yul\":7031:7151   */\n  jump(tag_139)\ntag_141:\n    /* \"#utility.yul\":6971:7157   */\n  pop\n  pop\n  jump\t// out\n    /* \"#utility.yul\":7163:7706   */\ntag_49:\n    /* \"#utility.yul\":7264:7266   */\n  0x1f\n    /* \"#utility.yul\":7259:7262   */\n  dup3\n    /* \"#utility.yul\":7256:7267   */\n  gt\n    /* \"#utility.yul\":7253:7699   */\n  iszero\n  tag_144\n  jumpi\n    /* \"#utility.yul\":7298:7336   */\n  tag_145\n    /* \"#utility.yul\":7330:7335   */\n  dup2\n    /* \"#utility.yul\":7298:7336   */\n  tag_38\n  jump\t// in\ntag_145:\n    /* \"#utility.yul\":7382:7411   */\n  tag_146\n    /* \"#utility.yul\":7400:7410   */\n  dup5\n    /* \"#utility.yul\":7382:7411   */\n  tag_39\n  jump\t// in\ntag_146:\n    /* \"#utility.yul\":7372:7380   */\n  dup2\n    /* \"#utility.yul\":7368:7412   */\n  add\n    /* \"#utility.yul\":7565:7567   */\n  0x20\n    /* \"#utility.yul\":7553:7563   */\n  dup6\n    /* \"#utility.yul\":7550:7568   */\n  lt\n    /* \"#utility.yul\":7547:7596   */\n  iszero\n  tag_147\n  jumpi\n    /* \"#utility.yul\":7586:7594   */\n  dup2\n    /* \"#utility.yul\":7571:7594   */\n  swap1\n  pop\n    /* \"#utility.yul\":7547:7596   */\ntag_147:\n    /* \"#utility.yul\":7609:7689   */\n  tag_148\n    /* \"#utility.yul\":7665:7687   */\n  tag_149\n    /* \"#utility.yul\":7683:7686   */\n  dup6\n    /* \"#utility.yul\":7665:7687   */\n  tag_39\n  jump\t// in\ntag_149:\n    /* \"#utility.yul\":7655:7663   */\n  dup4\n    /* \"#utility.yul\":7651:7688   */\n  add\n    /* \"#utility.yul\":7638:7649   */\n  dup3\n    /* \"#utility.yul\":7609:7689   */\n  tag_48\n  jump\t// in\ntag_148:\n    /* \"#utility.yul\":7268:7699   */\n  pop\n  pop\n    /* \"#utility.yul\":7253:7699   */\ntag_144:\n    /* \"#utility.yul\":7163:7706   */\n  pop\n  pop\n  pop\n  jump\t// out\n    /* \"#utility.yul\":7712:7829   */\ntag_50:\n    /* \"#utility.yul\":7766:7774   */\n  0x00\n    /* \"#utility.yul\":7816:7821   */\n  dup3\n    /* \"#utility.yul\":7810:7814   */\n  dup3\n    /* \"#utility.yul\":7806:7822   */\n  shr\n    /* \"#utility.yul\":7785:7822   */\n  swap1\n  pop\n    /* \"#utility.yul\":7712:7829   */\n  swap3\n  swap2\n  pop\n  pop\n  jump\t// out\n    /* \"#utility.yul\":7835:8004   */\ntag_51:\n    /* \"#utility.yul\":7879:7885   */\n  0x00\n    /* \"#utility.yul\":7912:7963   */\n  tag_152\n    /* \"#utility.yul\":7960:7961   */\n  0x00\n    /* \"#utility.yul\":7956:7962   */\n  not\n    /* \"#utility.yul\":7948:7953   */\n  dup5\n    /* \"#utility.yul\":7945:7946   */\n  0x08\n    /* \"#utility.yul\":7941:7954   */\n  mul\n    /* \"#utility.yul\":7912:7963   */\n  tag_50\n  jump\t// in\ntag_152:\n    /* \"#utility.yul\":7908:7964   */\n  not\n    /* \"#utility.yul\":7993:7997   */\n  dup1\n    /* \"#utility.yul\":7987:7991   */\n  dup4\n    /* \"#utility.yul\":7983:7998   */\n  and\n    /* \"#utility.yul\":7973:7998   */\n  swap2\n  pop\n    /* \"#utility.yul\":7886:8004   */\n  pop\n    /* \"#utility.yul\":7835:8004   */\n  swap3\n  swap2\n  pop\n  pop\n  jump\t// out\n    /* \"#utility.yul\":8009:8304   */\ntag_52:\n    /* \"#utility.yul\":8085:8089   */\n  0x00\n    /* \"#utility.yul\":8231:8260   */\n  tag_154\n    /* \"#utility.yul\":8256:8259   */\n  dup4\n    /* \"#utility.yul\":8250:8254   */\n  dup4\n    /* \"#utility.yul\":8231:8260   */\n  tag_51\n  jump\t// in\ntag_154:\n    /* \"#utility.yul\":8223:8260   */\n  swap2\n  pop\n    /* \"#utility.yul\":8293:8296   */\n  dup3\n    /* \"#utility.yul\":8290:8291   */\n  0x02\n    /* \"#utility.yul\":8286:8297   */\n  mul\n    /* \"#utility.yul\":8280:8284   */\n  dup3\n    /* \"#utility.yul\":8277:8298   */\n  or\n    /* \"#utility.yul\":8269:8298   */\n  swap1\n  pop\n    /* \"#utility.yul\":8009:8304   */\n  swap3\n  swap2\n  pop\n  pop\n  jump\t// out\n    /* \"#utility.yul\":8309:9704   */\ntag_7:\n    /* \"#utility.yul\":8426:8463   */\n  tag_156\n    /* \"#utility.yul\":8459:8462   */\n  dup3\n    /* \"#utility.yul\":8426:8463   */\n  tag_35\n  jump\t// in\ntag_156:\n    /* \"#utility.yul\":8528:8546   */\n  0xffffffffffffffff\n    /* \"#utility.yul\":8520:8526   */\n  dup2\n    /* \"#utility.yul\":8517:8547   */\n  gt\n    /* \"#utility.yul\":8514:8570   */\n  iszero\n  tag_157\n  jumpi\n    /* \"#utility.yul\":8550:8568   */\n  tag_158\n  tag_28\n  jump\t// in\ntag_158:\n    /* \"#utility.yul\":8514:8570   */\ntag_157:\n    /* \"#utility.yul\":8594:8632   */\n  tag_159\n    /* \"#utility.yul\":8626:8630   */\n  dup3\n    /* \"#utility.yul\":8620:8631   */\n  sload\n    /* \"#utility.yul\":8594:8632   */\n  tag_37\n  jump\t// in\ntag_159:\n    /* \"#utility.yul\":8679:8746   */\n  tag_160\n    /* \"#utility.yul\":8739:8745   */\n  dup3\n    /* \"#utility.yul\":8731:8737   */\n  dup3\n    /* \"#utility.yul\":8725:8729   */\n  dup6\n    /* \"#utility.yul\":8679:8746   */\n  tag_49\n  jump\t// in\ntag_160:\n    /* \"#utility.yul\":8773:8774   */\n  0x00\n    /* \"#utility.yul\":8797:8801   */\n  0x20\n    /* \"#utility.yul\":8784:8801   */\n  swap1\n  pop\n    /* \"#utility.yul\":8829:8831   */\n  0x1f\n    /* \"#utility.yul\":8821:8827   */\n  dup4\n    /* \"#utility.yul\":8818:8832   */\n  gt\n    /* \"#utility.yul\":8846:8847   */\n  0x01\n    /* \"#utility.yul\":8841:9459   */\n  dup2\n  eq\n  tag_162\n  jumpi\n    /* \"#utility.yul\":9503:9504   */\n  0x00\n    /* \"#utility.yul\":9520:9526   */\n  dup5\n    /* \"#utility.yul\":9517:9594   */\n  iszero\n  tag_163\n  jumpi\n    /* \"#utility.yul\":9569:9578   */\n  dup3\n    /* \"#utility.yul\":9564:9567   */\n  dup8\n    /* \"#utility.yul\":9560:9579   */\n  add\n    /* \"#utility.yul\":9554:9580   */\n  mload\n    /* \"#utility.yul\":9545:9580   */\n  swap1\n  pop\n    /* \"#utility.yul\":9517:9594   */\ntag_163:\n    /* \"#utility.yul\":9620:9687   */\n  tag_164\n    /* \"#utility.yul\":9680:9686   */\n  dup6\n    /* \"#utility.yul\":9673:9678   */\n  dup3\n    /* \"#utility.yul\":9620:9687   */\n  tag_52\n  jump\t// in\ntag_164:\n    /* \"#utility.yul\":9614:9618   */\n  dup7\n    /* \"#utility.yul\":9607:9688   */\n  sstore\n    /* \"#utility.yul\":9476:9698   */\n  pop\n    /* \"#utility.yul\":8811:9698   */\n  jump(tag_161)\n    /* \"#utility.yul\":8841:9459   */\ntag_162:\n    /* \"#utility.yul\":8893:8897   */\n  0x1f\n    /* \"#utility.yul\":8889:8898   */\n  not\n    /* \"#utility.yul\":8881:8887   */\n  dup5\n    /* \"#utility.yul\":8877:8899   */\n  and\n    /* \"#utility.yul\":8927:8964   */\n  tag_165\n    /* \"#utility.yul\":8959:8963   */\n  dup7\n    /* \"#utility.yul\":8927:8964   */\n  tag_38\n  jump\t// in\ntag_165:\n    /* \"#utility.yul\":8986:8987   */\n  0x00\n    /* \"#utility.yul\":9000:9208   */\ntag_166:\n    /* \"#utility.yul\":9014:9021   */\n  dup3\n    /* \"#utility.yul\":9011:9012   */\n  dup2\n    /* \"#utility.yul\":9008:9022   */\n  lt\n    /* \"#utility.yul\":9000:9208   */\n  iszero\n  tag_168\n  jumpi\n    /* \"#utility.yul\":9093:9102   */\n  dup5\n    /* \"#utility.yul\":9088:9091   */\n  dup10\n    /* \"#utility.yul\":9084:9103   */\n  add\n    /* \"#utility.yul\":9078:9104   */\n  mload\n    /* \"#utility.yul\":9070:9076   */\n  dup3\n    /* \"#utility.yul\":9063:9105   */\n  sstore\n    /* \"#utility.yul\":9144:9145   */\n  0x01\n    /* \"#utility.yul\":9136:9142   */\n  dup3\n    /* \"#utility.yul\":9132:9146   */\n  add\n    /* \"#utility.yul\":9122:9146   */\n  swap2\n  pop\n    /* \"#utility.yul\":9191:9193   */\n  0x20\n    /* \"#utility.yul\":9180:9189   */\n  dup6\n    /* \"#utility.yul\":9176:9194   */\n  add\n    /* \"#utility.yul\":9163:9194   */\n  swap5\n  pop\n    /* \"#utility.yul\":9037:9041   */\n  0x20\n    /* \"#utility.yul\":9034:9035   */\n  dup2\n    /* \"#utility.yul\":9030:9042   */\n  add\n    /* \"#utility.yul\":9025:9042   */\n  swap1\n  pop\n    /* \"#utility.yul\":9000:9208   */\n  jump(tag_166)\ntag_168:\n    /* \"#utility.yul\":9236:9242   */\n  dup7\n    /* \"#utility.yul\":9227:9234   */\n  dup4\n    /* \"#utility.yul\":9224:9243   */\n  lt\n    /* \"#utility.yul\":9221:9400   */\n  iszero\n  tag_169\n  jumpi\n    /* \"#utility.yul\":9294:9303   */\n  dup5\n    /* \"#utility.yul\":9289:9292   */\n  dup10\n    /* \"#utility.yul\":9285:9304   */\n  add\n    /* \"#utility.yul\":9279:9305   */\n  mload\n    /* \"#utility.yul\":9337:9385   */\n  tag_170\n    /* \"#utility.yul\":9379:9383   */\n  0x1f\n    /* \"#utility.yul\":9371:9377   */\n  dup10\n    /* \"#utility.yul\":9367:9384   */\n  and\n    /* \"#utility.yul\":9356:9365   */\n  dup3\n    /* \"#utility.yul\":9337:9385   */\n  tag_51\n  jump\t// in\ntag_170:\n    /* \"#utility.yul\":9329:9335   */\n  dup4\n    /* \"#utility.yul\":9322:9386   */\n  sstore\n    /* \"#utility.yul\":9244:9400   */\n  pop\n    /* \"#utility.yul\":9221:9400   */\ntag_169:\n    /* \"#utility.yul\":9446:9447   */\n  0x01\n    /* \"#utility.yul\":9442:9443   */\n  0x02\n    /* \"#utility.yul\":9434:9440   */\n  dup9\n    /* \"#utility.yul\":9430:9444   */\n  mul\n    /* \"#utility.yul\":9426:9448   */\n  add\n    /* \"#utility.yul\":9420:9424   */\n  dup9\n    /* \"#utility.yul\":9413:9449   */\n  sstore\n    /* \"#utility.yul\":8848:9459   */\n  pop\n  pop\n  pop\n    /* \"#utility.yul\":8811:9698   */\ntag_161:\n  pop\n    /* \"#utility.yul\":8401:9704   */\n  pop\n  pop\n  pop\n    /* \"#utility.yul\":8309:9704   */\n  pop\n  pop\n  jump\t// out\n    /* \"#utility.yul\":9710:9890   */\ntag_53:\n    /* \"#utility.yul\":9758:9835   */\n  0x4e487b7100000000000000000000000000000000000000000000000000000000\n    /* \"#utility.yul\":9755:9756   */\n  0x00\n    /* \"#utility.yul\":9748:9836   */\n  mstore\n    /* \"#utility.yul\":9855:9859   */\n  0x11\n    /* \"#utility.yul\":9852:9853   */\n  0x04\n    /* \"#utility.yul\":9845:9860   */\n  mstore\n    /* \"#utility.yul\":9879:9883   */\n  0x24\n    /* \"#utility.yul\":9876:9877   */\n  0x00\n    /* \"#utility.yul\":9869:9884   */\n  revert\n    /* \"#utility.yul\":9896:10244   */\ntag_9:\n    /* \"#utility.yul\":9936:9943   */\n  0x00\n    /* \"#utility.yul\":9959:9979   */\n  tag_173\n    /* \"#utility.yul\":9977:9978   */\n  dup3\n    /* \"#utility.yul\":9959:9979   */\n  tag_18\n  jump\t// in\ntag_173:\n    /* \"#utility.yul\":9954:9979   */\n  swap2\n  pop\n    /* \"#utility.yul\":9993:10013   */\n  tag_174\n    /* \"#utility.yul\":10011:10012   */\n  dup4\n    /* \"#utility.yul\":9993:10013   */\n  tag_18\n  jump\t// in\ntag_174:\n    /* \"#utility.yul\":9988:10013   */\n  swap3\n  pop\n    /* \"#utility.yul\":10181:10182   */\n  dup2\n    /* \"#utility.yul\":10113:10179   */\n  0xffffffffffffffffffffffffffffffffffffffffffffffffffffffffffffffff\n    /* \"#utility.yul\":10109:10183   */\n  div\n    /* \"#utility.yul\":10106:10107   */\n  dup4\n    /* \"#utility.yul\":10103:10184   */\n  gt\n    /* \"#utility.yul\":10098:10099   */\n  dup3\n    /* \"#utility.yul\":10091:10100   */\n  iszero\n    /* \"#utility.yul\":10084:10101   */\n  iszero\n    /* \"#utility.yul\":10080:10185   */\n  and\n    /* \"#utility.yul\":10077:10208   */\n  iszero\n  tag_175\n  jumpi\n    /* \"#utility.yul\":10188:10206   */\n  tag_176\n  tag_53\n  jump\t// in\ntag_176:\n    /* \"#utility.yul\":10077:10208   */\ntag_175:\n    /* \"#utility.yul\":10236:10237   */\n  dup3\n    /* \"#utility.yul\":10233:10234   */\n  dup3\n    /* \"#utility.yul\":10229:10238   */\n  mul\n    /* \"#utility.yul\":10218:10238   */\n  swap1\n  pop\n    /* \"#utility.yul\":9896:10244   */\n  swap3\n  swap2\n  pop\n  pop\n  jump\t// out\n    /* \"#utility.yul\":10250:10555   */\ntag_11:\n    /* \"#utility.yul\":10290:10293   */\n  0x00\n    /* \"#utility.yul\":10309:10329   */\n  tag_178\n    /* \"#utility.yul\":10327:10328   */\n  dup3\n    /* \"#utility.yul\":10309:10329   */\n  tag_18\n  jump\t// in\ntag_178:\n    /* \"#utility.yul\":10304:10329   */\n  swap2\n  pop\n    /* \"#utility.yul\":10343:10363   */\n  tag_179\n    /* \"#utility.yul\":10361:10362   */\n  dup4\n    /* \"#utility.yul\":10343:10363   */\n  tag_18\n  jump\t// in\ntag_179:\n    /* \"#utility.yul\":10338:10363   */\n  swap3\n  pop\n    /* \"#utility.yul\":10497:10498   */\n  dup3\n    /* \"#utility.yul\":10429:10495   */\n  0xffffffffffffffffffffffffffffffffffffffffffffffffffffffffffffffff\n    /* \"#utility.yul\":10425:10499   */\n  sub\n    /* \"#utility.yul\":10422:10423   */\n  dup3\n    /* \"#utility.yul\":10419:10500   */\n  gt\n    /* \"#utility.yul\":10416:10523   */\n  iszero\n  tag_180\n  jumpi\n    /* \"#utility.yul\":10503:10521   */\n  tag_181\n  tag_53\n  jump\t// in\ntag_181:\n    /* \"#utility.yul\":10416:10523   */\ntag_180:\n    /* \"#utility.yul\":10547:10548   */\n  dup3\n    /* \"#utility.yul\":10544:10545   */\n  dup3\n    /* \"#utility.yul\":10540:10549   */\n  add\n    /* \"#utility.yul\":10533:10549   */\n  swap1\n  pop\n    /* \"#utility.yul\":10250:10555   */\n  swap3\n  swap2\n  pop\n  pop\n  jump\t// out\n    /* \"Inbox.sol\":65:9888  contract basic {... */\ntag_14:\n  dataSize(sub_0)\n  dup1\n  dataOffset(sub_0)\n  0x00\n  codecopy\n  0x00\n  return\nstop\n\nsub_0: assembly {\n        /* \"Inbox.sol\":65:9888  contract basic {... */\n      mstore(0x40, 0x80)\n      jumpi(tag_1, lt(calldatasize, 0x04))\n      shr(0xe0, calldataload(0x00))\n      dup1\n      0x842a7f9b\n      gt\n      tag_43\n      jumpi\n      dup1\n      0xb688a363\n      gt\n      tag_44\n      jumpi\n      dup1\n      0xe0d370ac\n      gt\n      tag_45\n      jumpi\n      dup1\n      0xe0d370ac\n      eq\n      tag_37\n      jumpi\n      dup1\n      0xf63f9655\n      eq\n      tag_38\n      jumpi\n      dup1\n      0xfbae5e7d\n      eq\n      tag_39\n      jumpi\n      dup1\n      0xfd74d294\n      eq\n      tag_40\n      jumpi\n      dup1\n      0xfda263e8\n      eq\n      tag_41\n      jumpi\n      dup1\n      0xff65226c\n      eq\n      tag_42\n      jumpi\n      jump(tag_1)\n    tag_45:\n      dup1\n      0xb688a363\n      eq\n      tag_32\n      jumpi\n      dup1\n      0xd4deada4\n      eq\n      tag_33\n      jumpi\n      dup1\n      0xd7898240\n      eq\n      tag_34\n      jumpi\n      dup1\n      0xde281d6c\n      eq\n      tag_35\n      jumpi\n      dup1\n      0xe028a693\n      eq\n      tag_36\n      jumpi\n      jump(tag_1)\n    tag_44:\n      dup1\n      0x98e1b410\n      gt\n      tag_46\n      jumpi\n      dup1\n      0x98e1b410\n      eq\n      tag_27\n      jumpi\n      dup1\n      0x999cc5ca\n      eq\n      tag_28\n      jumpi\n      dup1\n      0xa4758c9a\n      eq\n      tag_29\n      jumpi\n      dup1\n      0xacdb8341\n      eq\n      tag_30\n      jumpi\n      dup1\n      0xb2f8be5c\n      eq\n      tag_31\n      jumpi\n      jump(tag_1)\n    tag_46:\n      dup1\n      0x842a7f9b\n      eq\n      tag_22\n      jumpi\n      dup1\n      0x864a53dc\n      eq\n      tag_23\n      jumpi\n      dup1\n      0x8975aa08\n      eq\n      tag_24\n      jumpi\n      dup1\n      0x937e09b1\n      eq\n      tag_25\n      jumpi\n      dup1\n      0x972c5356\n      eq\n      tag_26\n      jumpi\n      jump(tag_1)\n    tag_43:\n      dup1\n      0x364548cd\n      gt\n      tag_47\n      jumpi\n      dup1\n      0x5fb02f4d\n      gt\n      tag_48\n      jumpi\n      dup1\n      0x5fb02f4d\n      eq\n      tag_17\n      jumpi\n      dup1\n      0x70ba1113\n      eq\n      tag_18\n      jumpi\n      dup1\n      0x767e0b9c\n      eq\n      tag_19\n      jumpi\n      dup1\n      0x789b2e6c\n      eq\n      tag_20\n      jumpi\n      dup1\n      0x816c97ba\n      eq\n      tag_21\n      jumpi\n      jump(tag_1)\n    tag_48:\n      dup1\n      0x364548cd\n      eq\n      tag_12\n      jumpi\n      dup1\n      0x3ba20f2a\n      eq\n      tag_13\n      jumpi\n      dup1\n      0x3d22aea8\n      eq\n      tag_14\n      jumpi\n      dup1\n      0x42494297\n      eq\n      tag_15\n      jumpi\n      dup1\n      0x481c6a75\n      eq\n      tag_16\n      jumpi\n      jump(tag_1)\n    tag_47:\n      dup1\n      0x2ef3fa27\n      gt\n      tag_49\n      jumpi\n      dup1\n      0x2ef3fa27\n      eq\n      tag_7\n      jumpi\n      dup1\n      0x2f5274e3\n      eq\n      tag_8\n      jumpi\n      dup1\n      0x31d0e40f\n      eq\n      tag_9\n      jumpi\n      dup1\n      0x32b7acec\n      eq\n      tag_10\n      jumpi\n      dup1\n      0x361af171\n      eq\n      tag_11\n      jumpi\n      jump(tag_1)\n    tag_49:\n      dup1\n      0x01999870\n      eq\n      tag_2\n      jumpi\n      dup1\n      0x06fdde03\n      eq\n      tag_3\n      jumpi\n      dup1\n      0x0d70d1a7\n      eq\n      tag_4\n      jumpi\n      dup1\n      0x1e28528e\n      eq\n      tag_5\n      jumpi\n      dup1\n      0x2b84b316\n      eq\n      tag_6\n      jumpi\n    tag_1:\n      0x00\n      dup1\n      revert\n        /* \"Inbox.sol\":1734:1762  uint public numOfInvestors=0 */\n    tag_2:\n      callvalue\n      dup1\n      iszero\n      tag_50\n      jumpi\n      0x00\n      dup1\n      revert\n    tag_50:\n      pop\n      tag_51\n      tag_52\n      jump\t// in\n    tag_51:\n      mload(0x40)\n      tag_53\n      swap2\n      swap1\n      tag_54\n      jump\t// in\n    tag_53:\n      mload(0x40)\n      dup1\n      swap2\n      sub\n      swap1\n      return\n        /* \"Inbox.sol\":1451:1470  string  public name */\n    tag_3:\n      callvalue\n      dup1\n      iszero\n      tag_55\n      jumpi\n      0x00\n      dup1\n      revert\n    tag_55:\n      pop\n      tag_56\n      tag_57\n      jump\t// in\n    tag_56:\n      mload(0x40)\n      tag_58\n      swap2\n      swap1\n      tag_59\n      jump\t// in\n    tag_58:\n      mload(0x40)\n      dup1\n      swap2\n      sub\n      swap1\n      return\n        /* \"Inbox.sol\":1232:1257  uint public penelty = 800 */\n    tag_4:\n      callvalue\n      dup1\n      iszero\n      tag_60\n      jumpi\n      0x00\n      dup1\n      revert\n    tag_60:\n      pop\n      tag_61\n      tag_62\n      jump\t// in\n    tag_61:\n      mload(0x40)\n      tag_63\n      swap2\n      swap1\n      tag_54\n      jump\t// in\n    tag_63:\n      mload(0x40)\n      dup1\n      swap2\n      sub\n      swap1\n      return\n        /* \"Inbox.sol\":1534:1578  mapping(address => bool) public Stakeholders */\n    tag_5:\n      callvalue\n      dup1\n      iszero\n      tag_64\n      jumpi\n      0x00\n      dup1\n      revert\n    tag_64:\n      pop\n      tag_65\n      0x04\n      dup1\n      calldatasize\n      sub\n      dup2\n      add\n      swap1\n      tag_66\n      swap2\n      swap1\n      tag_67\n      jump\t// in\n    tag_66:\n      tag_68\n      jump\t// in\n    tag_65:\n      mload(0x40)\n      tag_69\n      swap2\n      swap1\n      tag_70\n      jump\t// in\n    tag_69:\n      mload(0x40)\n      dup1\n      swap2\n      sub\n      swap1\n      return\n        /* \"Inbox.sol\":5975:6295  function makeNewRequset(... */\n    tag_6:\n      callvalue\n      dup1\n      iszero\n      tag_71\n      jumpi\n      0x00\n      dup1\n      revert\n    tag_71:\n      pop\n      tag_72\n      0x04\n      dup1\n      calldatasize\n      sub\n      dup2\n      add\n      swap1\n      tag_73\n      swap2\n      swap1\n      tag_74\n      jump\t// in\n    tag_73:\n      tag_75\n      jump\t// in\n    tag_72:\n      stop\n        /* \"Inbox.sol\":3245:3379  function investorBalanc() public view returns (uint) {... */\n    tag_7:\n      callvalue\n      dup1\n      iszero\n      tag_76\n      jumpi\n      0x00\n      dup1\n      revert\n    tag_76:\n      pop\n      tag_77\n      tag_78\n      jump\t// in\n    tag_77:\n      mload(0x40)\n      tag_79\n      swap2\n      swap1\n      tag_54\n      jump\t// in\n    tag_79:\n      mload(0x40)\n      dup1\n      swap2\n      sub\n      swap1\n      return\n        /* \"Inbox.sol\":2384:2408  uint public lastLeaveVal */\n    tag_8:\n      callvalue\n      dup1\n      iszero\n      tag_80\n      jumpi\n      0x00\n      dup1\n      revert\n    tag_80:\n      pop\n      tag_81\n      tag_82\n      jump\t// in\n    tag_81:\n      mload(0x40)\n      tag_83\n      swap2\n      swap1\n      tag_54\n      jump\t// in\n    tag_83:\n      mload(0x40)\n      dup1\n      swap2\n      sub\n      swap1\n      return\n        /* \"Inbox.sol\":2321:2347  uint public managerFineFee */\n    tag_9:\n      callvalue\n      dup1\n      iszero\n      tag_84\n      jumpi\n      0x00\n      dup1\n      revert\n    tag_84:\n      pop\n      tag_85\n      tag_86\n      jump\t// in\n    tag_85:\n      mload(0x40)\n      tag_87\n      swap2\n      swap1\n      tag_54\n      jump\t// in\n    tag_87:\n      mload(0x40)\n      dup1\n      swap2\n      sub\n      swap1\n      return\n        /* \"Inbox.sol\":1818:1860  mapping(address => uint) public ownPercent */\n    tag_10:\n      callvalue\n      dup1\n      iszero\n      tag_88\n      jumpi\n      0x00\n      dup1\n      revert\n    tag_88:\n      pop\n      tag_89\n      0x04\n      dup1\n      calldatasize\n      sub\n      dup2\n      add\n      swap1\n      tag_90\n      swap2\n      swap1\n      tag_67\n      jump\t// in\n    tag_90:\n      tag_91\n      jump\t// in\n    tag_89:\n      mload(0x40)\n      tag_92\n      swap2\n      swap1\n      tag_54\n      jump\t// in\n    tag_92:\n      mload(0x40)\n      dup1\n      swap2\n      sub\n      swap1\n      return\n        /* \"Inbox.sol\":6303:6488  function requestIsVoted(uint index) public view returns(bool){ //by msg sender... */\n    tag_11:\n      callvalue\n      dup1\n      iszero\n      tag_93\n      jumpi\n      0x00\n      dup1\n      revert\n    tag_93:\n      pop\n      tag_94\n      0x04\n      dup1\n      calldatasize\n      sub\n      dup2\n      add\n      swap1\n      tag_95\n      swap2\n      swap1\n      tag_96\n      jump\t// in\n    tag_95:\n      tag_97\n      jump\t// in\n    tag_94:\n      mload(0x40)\n      tag_98\n      swap2\n      swap1\n      tag_70\n      jump\t// in\n    tag_98:\n      mload(0x40)\n      dup1\n      swap2\n      sub\n      swap1\n      return\n        /* \"Inbox.sol\":1585:1644  mapping(address => bool) public Stakeholders_endTheContract */\n    tag_12:\n      callvalue\n      dup1\n      iszero\n      tag_99\n      jumpi\n      0x00\n      dup1\n      revert\n    tag_99:\n      pop\n      tag_100\n      0x04\n      dup1\n      calldatasize\n      sub\n      dup2\n      add\n      swap1\n      tag_101\n      swap2\n      swap1\n      tag_67\n      jump\t// in\n    tag_101:\n      tag_102\n      jump\t// in\n    tag_100:\n      mload(0x40)\n      tag_103\n      swap2\n      swap1\n      tag_70\n      jump\t// in\n    tag_103:\n      mload(0x40)\n      dup1\n      swap2\n      sub\n      swap1\n      return\n        /* \"Inbox.sol\":2055:2080  uint256 public timeToJoin */\n    tag_13:\n      callvalue\n      dup1\n      iszero\n      tag_104\n      jumpi\n      0x00\n      dup1\n      revert\n    tag_104:\n      pop\n      tag_105\n      tag_106\n      jump\t// in\n    tag_105:\n      mload(0x40)\n      tag_107\n      swap2\n      swap1\n      tag_54\n      jump\t// in\n    tag_107:\n      mload(0x40)\n      dup1\n      swap2\n      sub\n      swap1\n      return\n        /* \"Inbox.sol\":7073:7436  function executed_order_66(uint index)... */\n    tag_14:\n      callvalue\n      dup1\n      iszero\n      tag_108\n      jumpi\n      0x00\n      dup1\n      revert\n    tag_108:\n      pop\n      tag_109\n      0x04\n      dup1\n      calldatasize\n      sub\n      dup2\n      add\n      swap1\n      tag_110\n      swap2\n      swap1\n      tag_96\n      jump\t// in\n    tag_110:\n      tag_111\n      jump\t// in\n    tag_109:\n      mload(0x40)\n      tag_112\n      swap2\n      swap1\n      tag_70\n      jump\t// in\n    tag_112:\n      mload(0x40)\n      dup1\n      swap2\n      sub\n      swap1\n      return\n        /* \"Inbox.sol\":1294:1323  uint public manager_fee = 100 */\n    tag_15:\n      callvalue\n      dup1\n      iszero\n      tag_113\n      jumpi\n      0x00\n      dup1\n      revert\n    tag_113:\n      pop\n      tag_114\n      tag_115\n      jump\t// in\n    tag_114:\n      mload(0x40)\n      tag_116\n      swap2\n      swap1\n      tag_54\n      jump\t// in\n    tag_116:\n      mload(0x40)\n      dup1\n      swap2\n      sub\n      swap1\n      return\n        /* \"Inbox.sol\":1477:1499  address public manager */\n    tag_16:\n      callvalue\n      dup1\n      iszero\n      tag_117\n      jumpi\n      0x00\n      dup1\n      revert\n    tag_117:\n      pop\n      tag_118\n      tag_119\n      jump\t// in\n    tag_118:\n      mload(0x40)\n      tag_120\n      swap2\n      swap1\n      tag_121\n      jump\t// in\n    tag_120:\n      mload(0x40)\n      dup1\n      swap2\n      sub\n      swap1\n      return\n        /* \"Inbox.sol\":3807:4396  function startContract() public onlyManager  { //need to change to only manager... */\n    tag_17:\n      callvalue\n      dup1\n      iszero\n      tag_122\n      jumpi\n      0x00\n      dup1\n      revert\n    tag_122:\n      pop\n      tag_123\n      tag_124\n      jump\t// in\n    tag_123:\n      stop\n        /* \"Inbox.sol\":1199:1225  uint public percent = 1000 */\n    tag_18:\n      callvalue\n      dup1\n      iszero\n      tag_125\n      jumpi\n      0x00\n      dup1\n      revert\n    tag_125:\n      pop\n      tag_126\n      tag_127\n      jump\t// in\n    tag_126:\n      mload(0x40)\n      tag_128\n      swap2\n      swap1\n      tag_54\n      jump\t// in\n    tag_128:\n      mload(0x40)\n      dup1\n      swap2\n      sub\n      swap1\n      return\n        /* \"Inbox.sol\":6724:7065  function approveRequest(uint index, bool res) public onlyStakeholders {... */\n    tag_19:\n      callvalue\n      dup1\n      iszero\n      tag_129\n      jumpi\n      0x00\n      dup1\n      revert\n    tag_129:\n      pop\n      tag_130\n      0x04\n      dup1\n      calldatasize\n      sub\n      dup2\n      add\n      swap1\n      tag_131\n      swap2\n      swap1\n      tag_132\n      jump\t// in\n    tag_131:\n      tag_133\n      jump\t// in\n    tag_130:\n      stop\n        /* \"Inbox.sol\":9240:9885  function payDay() public EndPeriod onlySite {... */\n    tag_20:\n      callvalue\n      dup1\n      iszero\n      tag_134\n      jumpi\n      0x00\n      dup1\n      revert\n    tag_134:\n      pop\n      tag_135\n      tag_136\n      jump\t// in\n    tag_135:\n      stop\n        /* \"Inbox.sol\":6495:6716  function isStakeholdersVoted(uint reqId, address user) //by address... */\n    tag_21:\n      callvalue\n      dup1\n      iszero\n      tag_137\n      jumpi\n      0x00\n      dup1\n      revert\n    tag_137:\n      pop\n      tag_138\n      0x04\n      dup1\n      calldatasize\n      sub\n      dup2\n      add\n      swap1\n      tag_139\n      swap2\n      swap1\n      tag_140\n      jump\t// in\n    tag_139:\n      tag_141\n      jump\t// in\n    tag_138:\n      mload(0x40)\n      tag_142\n      swap2\n      swap1\n      tag_70\n      jump\t// in\n    tag_142:\n      mload(0x40)\n      dup1\n      swap2\n      sub\n      swap1\n      return\n        /* \"Inbox.sol\":1651:1692  uint  public endTheContract_numOfVote = 0 */\n    tag_22:\n      callvalue\n      dup1\n      iszero\n      tag_143\n      jumpi\n      0x00\n      dup1\n      revert\n    tag_143:\n      pop\n      tag_144\n      tag_145\n      jump\t// in\n    tag_144:\n      mload(0x40)\n      tag_146\n      swap2\n      swap1\n      tag_54\n      jump\t// in\n    tag_146:\n      mload(0x40)\n      dup1\n      swap2\n      sub\n      swap1\n      return\n        /* \"Inbox.sol\":8884:9232  function PayDayVoted() public workPeriod onlyStakeholders {... */\n    tag_23:\n      callvalue\n      dup1\n      iszero\n      tag_147\n      jumpi\n      0x00\n      dup1\n      revert\n    tag_147:\n      pop\n      tag_148\n      tag_149\n      jump\t// in\n    tag_148:\n      stop\n        /* \"Inbox.sol\":2290:2314  uint public lastTotalVal */\n    tag_24:\n      callvalue\n      dup1\n      iszero\n      tag_150\n      jumpi\n      0x00\n      dup1\n      revert\n    tag_150:\n      pop\n      tag_151\n      tag_152\n      jump\t// in\n    tag_151:\n      mload(0x40)\n      tag_153\n      swap2\n      swap1\n      tag_54\n      jump\t// in\n    tag_153:\n      mload(0x40)\n      dup1\n      swap2\n      sub\n      swap1\n      return\n        /* \"Inbox.sol\":1947:1978  uint public minimumContribution */\n    tag_25:\n      callvalue\n      dup1\n      iszero\n      tag_154\n      jumpi\n      0x00\n      dup1\n      revert\n    tag_154:\n      pop\n      tag_155\n      tag_156\n      jump\t// in\n    tag_155:\n      mload(0x40)\n      tag_157\n      swap2\n      swap1\n      tag_54\n      jump\t// in\n    tag_157:\n      mload(0x40)\n      dup1\n      swap2\n      sub\n      swap1\n      return\n        /* \"Inbox.sol\":2215:2236  uint  public listSize */\n    tag_26:\n      callvalue\n      dup1\n      iszero\n      tag_158\n      jumpi\n      0x00\n      dup1\n      revert\n    tag_158:\n      pop\n      tag_159\n      tag_160\n      jump\t// in\n    tag_159:\n      mload(0x40)\n      tag_161\n      swap2\n      swap1\n      tag_54\n      jump\t// in\n    tag_161:\n      mload(0x40)\n      dup1\n      swap2\n      sub\n      swap1\n      return\n        /* \"Inbox.sol\":3719:3799  function getMoney() public payable returns (bool) {... */\n    tag_27:\n      tag_162\n      tag_163\n      jump\t// in\n    tag_162:\n      mload(0x40)\n      tag_164\n      swap2\n      swap1\n      tag_70\n      jump\t// in\n    tag_164:\n      mload(0x40)\n      dup1\n      swap2\n      sub\n      swap1\n      return\n        /* \"Inbox.sol\":1896:1934  mapping(address => bool) public lefted */\n    tag_28:\n      callvalue\n      dup1\n      iszero\n      tag_165\n      jumpi\n      0x00\n      dup1\n      revert\n    tag_165:\n      pop\n      tag_166\n      0x04\n      dup1\n      calldatasize\n      sub\n      dup2\n      add\n      swap1\n      tag_167\n      swap2\n      swap1\n      tag_67\n      jump\t// in\n    tag_167:\n      tag_168\n      jump\t// in\n    tag_166:\n      mload(0x40)\n      tag_169\n      swap2\n      swap1\n      tag_70\n      jump\t// in\n    tag_169:\n      mload(0x40)\n      dup1\n      swap2\n      sub\n      swap1\n      return\n        /* \"Inbox.sol\":2354:2377  uint public the_balance */\n    tag_29:\n      callvalue\n      dup1\n      iszero\n      tag_170\n      jumpi\n      0x00\n      dup1\n      revert\n    tag_170:\n      pop\n      tag_171\n      tag_172\n      jump\t// in\n    tag_171:\n      mload(0x40)\n      tag_173\n      swap2\n      swap1\n      tag_54\n      jump\t// in\n    tag_173:\n      mload(0x40)\n      dup1\n      swap2\n      sub\n      swap1\n      return\n        /* \"Inbox.sol\":2417:2734  function allInvestorPercent() public view returns (uint) {... */\n    tag_30:\n      callvalue\n      dup1\n      iszero\n      tag_174\n      jumpi\n      0x00\n      dup1\n      revert\n    tag_174:\n      pop\n      tag_175\n      tag_176\n      jump\t// in\n    tag_175:\n      mload(0x40)\n      tag_177\n      swap2\n      swap1\n      tag_54\n      jump\t// in\n    tag_177:\n      mload(0x40)\n      dup1\n      swap2\n      sub\n      swap1\n      return\n        /* \"Inbox.sol\":7444:8471  function leave_contract(... */\n    tag_31:\n      callvalue\n      dup1\n      iszero\n      tag_178\n      jumpi\n      0x00\n      dup1\n      revert\n    tag_178:\n      pop\n      tag_179\n      0x04\n      dup1\n      calldatasize\n      sub\n      dup2\n      add\n      swap1\n      tag_180\n      swap2\n      swap1\n      tag_181\n      jump\t// in\n    tag_180:\n      tag_182\n      jump\t// in\n    tag_179:\n      mload(0x40)\n      tag_183\n      swap2\n      swap1\n      tag_70\n      jump\t// in\n    tag_183:\n      mload(0x40)\n      dup1\n      swap2\n      sub\n      swap1\n      return\n        /* \"Inbox.sol\":3387:3711  function join() public payable JoinPeriod {... */\n    tag_32:\n      tag_184\n      tag_185\n      jump\t// in\n    tag_184:\n      stop\n        /* \"Inbox.sol\":1374:1405  uint public numStakeholders = 4 */\n    tag_33:\n      callvalue\n      dup1\n      iszero\n      tag_186\n      jumpi\n      0x00\n      dup1\n      revert\n    tag_186:\n      pop\n      tag_187\n      tag_188\n      jump\t// in\n    tag_187:\n      mload(0x40)\n      tag_189\n      swap2\n      swap1\n      tag_54\n      jump\t// in\n    tag_189:\n      mload(0x40)\n      dup1\n      swap2\n      sub\n      swap1\n      return\n        /* \"Inbox.sol\":1769:1811  mapping(address => uint) public Investment */\n    tag_34:\n      callvalue\n      dup1\n      iszero\n      tag_190\n      jumpi\n      0x00\n      dup1\n      revert\n    tag_190:\n      pop\n      tag_191\n      0x04\n      dup1\n      calldatasize\n      sub\n      dup2\n      add\n      swap1\n      tag_192\n      swap2\n      swap1\n      tag_67\n      jump\t// in\n    tag_192:\n      tag_193\n      jump\t// in\n    tag_191:\n      mload(0x40)\n      tag_194\n      swap2\n      swap1\n      tag_54\n      jump\t// in\n    tag_194:\n      mload(0x40)\n      dup1\n      swap2\n      sub\n      swap1\n      return\n        /* \"Inbox.sol\":1340:1367  uint public days_start = 20 */\n    tag_35:\n      callvalue\n      dup1\n      iszero\n      tag_195\n      jumpi\n      0x00\n      dup1\n      revert\n    tag_195:\n      pop\n      tag_196\n      tag_197\n      jump\t// in\n    tag_196:\n      mload(0x40)\n      tag_198\n      swap2\n      swap1\n      tag_54\n      jump\t// in\n    tag_198:\n      mload(0x40)\n      dup1\n      swap2\n      sub\n      swap1\n      return\n        /* \"Inbox.sol\":2262:2283  uint public lastRePay */\n    tag_36:\n      callvalue\n      dup1\n      iszero\n      tag_199\n      jumpi\n      0x00\n      dup1\n      revert\n    tag_199:\n      pop\n      tag_200\n      tag_201\n      jump\t// in\n    tag_200:\n      mload(0x40)\n      tag_202\n      swap2\n      swap1\n      tag_54\n      jump\t// in\n    tag_202:\n      mload(0x40)\n      dup1\n      swap2\n      sub\n      swap1\n      return\n        /* \"Inbox.sol\":1506:1525  address public site */\n    tag_37:\n      callvalue\n      dup1\n      iszero\n      tag_203\n      jumpi\n      0x00\n      dup1\n      revert\n    tag_203:\n      pop\n      tag_204\n      tag_205\n      jump\t// in\n    tag_204:\n      mload(0x40)\n      tag_206\n      swap2\n      swap1\n      tag_121\n      jump\t// in\n    tag_206:\n      mload(0x40)\n      dup1\n      swap2\n      sub\n      swap1\n      return\n        /* \"Inbox.sol\":2182:2208  Request[] public myRequsts */\n    tag_38:\n      callvalue\n      dup1\n      iszero\n      tag_207\n      jumpi\n      0x00\n      dup1\n      revert\n    tag_207:\n      pop\n      tag_208\n      0x04\n      dup1\n      calldatasize\n      sub\n      dup2\n      add\n      swap1\n      tag_209\n      swap2\n      swap1\n      tag_96\n      jump\t// in\n    tag_209:\n      tag_210\n      jump\t// in\n    tag_208:\n      mload(0x40)\n      tag_211\n      swap6\n      swap5\n      swap4\n      swap3\n      swap2\n      swap1\n      tag_212\n      jump\t// in\n    tag_211:\n      mload(0x40)\n      dup1\n      swap2\n      sub\n      swap1\n      return\n        /* \"Inbox.sol\":1701:1727  address[] public Investors */\n    tag_39:\n      callvalue\n      dup1\n      iszero\n      tag_213\n      jumpi\n      0x00\n      dup1\n      revert\n    tag_213:\n      pop\n      tag_214\n      0x04\n      dup1\n      calldatasize\n      sub\n      dup2\n      add\n      swap1\n      tag_215\n      swap2\n      swap1\n      tag_96\n      jump\t// in\n    tag_215:\n      tag_216\n      jump\t// in\n    tag_214:\n      mload(0x40)\n      tag_217\n      swap2\n      swap1\n      tag_121\n      jump\t// in\n    tag_217:\n      mload(0x40)\n      dup1\n      swap2\n      sub\n      swap1\n      return\n        /* \"Inbox.sol\":2024:2048  uint256 public timeStart */\n    tag_40:\n      callvalue\n      dup1\n      iszero\n      tag_218\n      jumpi\n      0x00\n      dup1\n      revert\n    tag_218:\n      pop\n      tag_219\n      tag_220\n      jump\t// in\n    tag_219:\n      mload(0x40)\n      tag_221\n      swap2\n      swap1\n      tag_54\n      jump\t// in\n    tag_221:\n      mload(0x40)\n      dup1\n      swap2\n      sub\n      swap1\n      return\n        /* \"Inbox.sol\":2087:2109  uint256 public timeEnd */\n    tag_41:\n      callvalue\n      dup1\n      iszero\n      tag_222\n      jumpi\n      0x00\n      dup1\n      revert\n    tag_222:\n      pop\n      tag_223\n      tag_224\n      jump\t// in\n    tag_223:\n      mload(0x40)\n      tag_225\n      swap2\n      swap1\n      tag_54\n      jump\t// in\n    tag_225:\n      mload(0x40)\n      dup1\n      swap2\n      sub\n      swap1\n      return\n        /* \"Inbox.sol\":2116:2137  bool    public canBuy */\n    tag_42:\n      callvalue\n      dup1\n      iszero\n      tag_226\n      jumpi\n      0x00\n      dup1\n      revert\n    tag_226:\n      pop\n      tag_227\n      tag_228\n      jump\t// in\n    tag_227:\n      mload(0x40)\n      tag_229\n      swap2\n      swap1\n      tag_70\n      jump\t// in\n    tag_229:\n      mload(0x40)\n      dup1\n      swap2\n      sub\n      swap1\n      return\n        /* \"Inbox.sol\":1734:1762  uint public numOfInvestors=0 */\n    tag_52:\n      sload(0x0c)\n      dup2\n      jump\t// out\n        /* \"Inbox.sol\":1451:1470  string  public name */\n    tag_57:\n      0x05\n      dup1\n      sload\n      tag_230\n      swap1\n      tag_231\n      jump\t// in\n    tag_230:\n      dup1\n      0x1f\n      add\n      0x20\n      dup1\n      swap2\n      div\n      mul\n      0x20\n      add\n      mload(0x40)\n      swap1\n      dup2\n      add\n      0x40\n      mstore\n      dup1\n      swap3\n      swap2\n      swap1\n      dup2\n      dup2\n      mstore\n      0x20\n      add\n      dup3\n      dup1\n      sload\n      tag_232\n      swap1\n      tag_231\n      jump\t// in\n    tag_232:\n      dup1\n      iszero\n      tag_233\n      jumpi\n      dup1\n      0x1f\n      lt\n      tag_234\n      jumpi\n      0x0100\n      dup1\n      dup4\n      sload\n      div\n      mul\n      dup4\n      mstore\n      swap2\n      0x20\n      add\n      swap2\n      jump(tag_233)\n    tag_234:\n      dup3\n      add\n      swap2\n      swap1\n      0x00\n      mstore\n      keccak256(0x00, 0x20)\n      swap1\n    tag_235:\n      dup2\n      sload\n      dup2\n      mstore\n      swap1\n      0x01\n      add\n      swap1\n      0x20\n      add\n      dup1\n      dup4\n      gt\n      tag_235\n      jumpi\n      dup3\n      swap1\n      sub\n      0x1f\n      and\n      dup3\n      add\n      swap2\n    tag_233:\n      pop\n      pop\n      pop\n      pop\n      pop\n      dup2\n      jump\t// out\n        /* \"Inbox.sol\":1232:1257  uint public penelty = 800 */\n    tag_62:\n      sload(0x01)\n      dup2\n      jump\t// out\n        /* \"Inbox.sol\":1534:1578  mapping(address => bool) public Stakeholders */\n    tag_68:\n      mstore(0x20, 0x08)\n      dup1\n      0x00\n      mstore\n      keccak256(0x00, 0x40)\n      0x00\n      swap2\n      pop\n      sload\n      swap1\n      0x0100\n      exp\n      swap1\n      div\n      0xff\n      and\n      dup2\n      jump\t// out\n        /* \"Inbox.sol\":5975:6295  function makeNewRequset(... */\n    tag_75:\n        /* \"Inbox.sol\":143:150  manager */\n      0x06\n      0x00\n      swap1\n      sload\n      swap1\n      0x0100\n      exp\n      swap1\n      div\n      0xffffffffffffffffffffffffffffffffffffffff\n      and\n        /* \"Inbox.sol\":129:150  msg.sender == manager */\n      0xffffffffffffffffffffffffffffffffffffffff\n      and\n        /* \"Inbox.sol\":129:139  msg.sender */\n      caller\n        /* \"Inbox.sol\":129:150  msg.sender == manager */\n      0xffffffffffffffffffffffffffffffffffffffff\n      and\n      eq\n        /* \"Inbox.sol\":121:151  require(msg.sender == manager) */\n      tag_237\n      jumpi\n      0x00\n      dup1\n      revert\n    tag_237:\n        /* \"Inbox.sol\":6114:6140  Request storage newRequest */\n      0x00\n        /* \"Inbox.sol\":6143:6152  myRequsts */\n      0x15\n        /* \"Inbox.sol\":6143:6159  myRequsts.push() */\n      0x01\n      dup2\n      0x01\n      dup2\n      sload\n      add\n      dup1\n      dup3\n      sstore\n      dup1\n      swap2\n      pop\n      pop\n      sub\n      swap1\n      0x00\n      mstore\n      keccak256(0x00, 0x20)\n      swap1\n      0x06\n      mul\n      add\n        /* \"Inbox.sol\":6114:6159  Request storage newRequest = myRequsts.push() */\n      swap1\n      pop\n        /* \"Inbox.sol\":6195:6198  why */\n      dup3\n        /* \"Inbox.sol\":6170:6180  newRequest */\n      dup2\n        /* \"Inbox.sol\":6170:6192  newRequest.description */\n      0x00\n      add\n        /* \"Inbox.sol\":6170:6198  newRequest.description = why */\n      swap1\n      dup2\n      tag_240\n      swap2\n      swap1\n      tag_241\n      jump\t// in\n    tag_240:\n      pop\n        /* \"Inbox.sol\":6228:6233  value */\n      dup2\n        /* \"Inbox.sol\":6209:6219  newRequest */\n      dup2\n        /* \"Inbox.sol\":6209:6225  newRequest.value */\n      0x02\n      add\n        /* \"Inbox.sol\":6209:6233  newRequest.value = value */\n      dup2\n      swap1\n      sstore\n      pop\n        /* \"Inbox.sol\":6262:6266  what */\n      dup4\n        /* \"Inbox.sol\":6244:6254  newRequest */\n      dup2\n        /* \"Inbox.sol\":6244:6259  newRequest.what */\n      0x01\n      add\n        /* \"Inbox.sol\":6244:6266  newRequest.what = what */\n      swap1\n      dup2\n      tag_242\n      swap2\n      swap1\n      tag_241\n      jump\t// in\n    tag_242:\n      pop\n        /* \"Inbox.sol\":6277:6285  listSize */\n      0x16\n      0x00\n        /* \"Inbox.sol\":6277:6287  listSize++ */\n      dup2\n      sload\n      dup1\n      swap3\n      swap2\n      swap1\n      tag_243\n      swap1\n      tag_244\n      jump\t// in\n    tag_243:\n      swap2\n      swap1\n      pop\n      sstore\n      pop\n        /* \"Inbox.sol\":6103:6295  {... */\n      pop\n        /* \"Inbox.sol\":5975:6295  function makeNewRequset(... */\n      pop\n      pop\n      pop\n      jump\t// out\n        /* \"Inbox.sol\":3245:3379  function investorBalanc() public view returns (uint) {... */\n    tag_78:\n        /* \"Inbox.sol\":3292:3296  uint */\n      0x00\n        /* \"Inbox.sol\":3363:3370  percent */\n      dup1\n      sload\n        /* \"Inbox.sol\":3350:3361  manager_fee */\n      sload(0x02)\n        /* \"Inbox.sol\":3342:3349  percent */\n      sload(0x00)\n        /* \"Inbox.sol\":3342:3361  percent-manager_fee */\n      tag_246\n      swap2\n      swap1\n      tag_247\n      jump\t// in\n    tag_246:\n        /* \"Inbox.sol\":3318:3339  address(this).balance */\n      selfbalance\n        /* \"Inbox.sol\":3317:3362  (address(this).balance)*(percent-manager_fee) */\n      tag_248\n      swap2\n      swap1\n      tag_249\n      jump\t// in\n    tag_248:\n        /* \"Inbox.sol\":3317:3370  (address(this).balance)*(percent-manager_fee)/percent */\n      tag_250\n      swap2\n      swap1\n      tag_251\n      jump\t// in\n    tag_250:\n        /* \"Inbox.sol\":3309:3371  return ((address(this).balance)*(percent-manager_fee)/percent) */\n      swap1\n      pop\n        /* \"Inbox.sol\":3245:3379  function investorBalanc() public view returns (uint) {... */\n      swap1\n      jump\t// out\n        /* \"Inbox.sol\":2384:2408  uint public lastLeaveVal */\n    tag_82:\n      sload(0x1b)\n      dup2\n      jump\t// out\n        /* \"Inbox.sol\":2321:2347  uint public managerFineFee */\n    tag_86:\n      sload(0x19)\n      dup2\n      jump\t// out\n        /* \"Inbox.sol\":1818:1860  mapping(address => uint) public ownPercent */\n    tag_91:\n      mstore(0x20, 0x0e)\n      dup1\n      0x00\n      mstore\n      keccak256(0x00, 0x40)\n      0x00\n      swap2\n      pop\n      swap1\n      pop\n      sload\n      dup2\n      jump\t// out\n        /* \"Inbox.sol\":6303:6488  function requestIsVoted(uint index) public view returns(bool){ //by msg sender... */\n    tag_97:\n        /* \"Inbox.sol\":6359:6363  bool */\n      0x00\n        /* \"Inbox.sol\":6391:6414  Request storage request */\n      dup1\n        /* \"Inbox.sol\":6417:6426  myRequsts */\n      0x15\n        /* \"Inbox.sol\":6427:6432  index */\n      dup4\n        /* \"Inbox.sol\":6417:6433  myRequsts[index] */\n      dup2\n      sload\n      dup2\n      lt\n      tag_253\n      jumpi\n      tag_254\n      tag_255\n      jump\t// in\n    tag_254:\n    tag_253:\n      swap1\n      0x00\n      mstore\n      keccak256(0x00, 0x20)\n      swap1\n      0x06\n      mul\n      add\n        /* \"Inbox.sol\":6391:6433  Request storage request = myRequsts[index] */\n      swap1\n      pop\n        /* \"Inbox.sol\":6451:6458  request */\n      dup1\n        /* \"Inbox.sol\":6451:6468  request.approvals */\n      0x05\n      add\n        /* \"Inbox.sol\":6451:6480  request.approvals[msg.sender] */\n      0x00\n        /* \"Inbox.sol\":6469:6479  msg.sender */\n      caller\n        /* \"Inbox.sol\":6451:6480  request.approvals[msg.sender] */\n      0xffffffffffffffffffffffffffffffffffffffff\n      and\n      0xffffffffffffffffffffffffffffffffffffffff\n      and\n      dup2\n      mstore\n      0x20\n      add\n      swap1\n      dup2\n      mstore\n      0x20\n      add\n      0x00\n      keccak256\n      0x00\n      swap1\n      sload\n      swap1\n      0x0100\n      exp\n      swap1\n      div\n      0xff\n      and\n        /* \"Inbox.sol\":6444:6480  return request.approvals[msg.sender] */\n      swap2\n      pop\n      pop\n        /* \"Inbox.sol\":6303:6488  function requestIsVoted(uint index) public view returns(bool){ //by msg sender... */\n      swap2\n      swap1\n      pop\n      jump\t// out\n        /* \"Inbox.sol\":1585:1644  mapping(address => bool) public Stakeholders_endTheContract */\n    tag_102:\n      mstore(0x20, 0x09)\n      dup1\n      0x00\n      mstore\n      keccak256(0x00, 0x40)\n      0x00\n      swap2\n      pop\n      sload\n      swap1\n      0x0100\n      exp\n      swap1\n      div\n      0xff\n      and\n      dup2\n      jump\t// out\n        /* \"Inbox.sol\":2055:2080  uint256 public timeToJoin */\n    tag_106:\n      sload(0x12)\n      dup2\n      jump\t// out\n        /* \"Inbox.sol\":7073:7436  function executed_order_66(uint index)... */\n    tag_111:\n        /* \"Inbox.sol\":7187:7191  bool */\n      0x00\n        /* \"Inbox.sol\":729:733  true */\n      0x01\n        /* \"Inbox.sol\":719:733  canBuy == true */\n      iszero\n      iszero\n        /* \"Inbox.sol\":719:725  canBuy */\n      0x14\n      0x00\n      swap1\n      sload\n      swap1\n      0x0100\n      exp\n      swap1\n      div\n      0xff\n      and\n        /* \"Inbox.sol\":719:733  canBuy == true */\n      iszero\n      iszero\n      eq\n        /* \"Inbox.sol\":710:735  require((canBuy == true)) */\n      tag_258\n      jumpi\n      0x00\n      dup1\n      revert\n    tag_258:\n        /* \"Inbox.sol\":143:150  manager */\n      0x06\n      0x00\n      swap1\n      sload\n      swap1\n      0x0100\n      exp\n      swap1\n      div\n      0xffffffffffffffffffffffffffffffffffffffff\n      and\n        /* \"Inbox.sol\":129:150  msg.sender == manager */\n      0xffffffffffffffffffffffffffffffffffffffff\n      and\n        /* \"Inbox.sol\":129:139  msg.sender */\n      caller\n        /* \"Inbox.sol\":129:150  msg.sender == manager */\n      0xffffffffffffffffffffffffffffffffffffffff\n      and\n      eq\n        /* \"Inbox.sol\":121:151  require(msg.sender == manager) */\n      tag_260\n      jumpi\n      0x00\n      dup1\n      revert\n    tag_260:\n        /* \"Inbox.sol\":7209:7232  Request storage request */\n      0x00\n        /* \"Inbox.sol\":7235:7244  myRequsts */\n      0x15\n        /* \"Inbox.sol\":7245:7250  index */\n      dup4\n        /* \"Inbox.sol\":7235:7251  myRequsts[index] */\n      dup2\n      sload\n      dup2\n      lt\n      tag_262\n      jumpi\n      tag_263\n      tag_255\n      jump\t// in\n    tag_263:\n    tag_262:\n      swap1\n      0x00\n      mstore\n      keccak256(0x00, 0x20)\n      swap1\n      0x06\n      mul\n      add\n        /* \"Inbox.sol\":7209:7251  Request storage request = myRequsts[index] */\n      swap1\n      pop\n        /* \"Inbox.sol\":7321:7322  2 */\n      0x02\n        /* \"Inbox.sol\":7303:7318  numStakeholders */\n      sload(0x04)\n        /* \"Inbox.sol\":7303:7322  numStakeholders / 2 */\n      tag_265\n      swap2\n      swap1\n      tag_251\n      jump\t// in\n    tag_265:\n        /* \"Inbox.sol\":7270:7277  request */\n      dup2\n        /* \"Inbox.sol\":7270:7291  request.approvalCount */\n      0x04\n      add\n      sload\n        /* \"Inbox.sol\":7270:7323  request.approvalCount >= uint256(numStakeholders / 2) */\n      lt\n      iszero\n        /* \"Inbox.sol\":7262:7324  require(request.approvalCount >= uint256(numStakeholders / 2)) */\n      tag_266\n      jumpi\n      0x00\n      dup1\n      revert\n    tag_266:\n        /* \"Inbox.sol\":7343:7347  site */\n      0x07\n      0x00\n      swap1\n      sload\n      swap1\n      0x0100\n      exp\n      swap1\n      div\n      0xffffffffffffffffffffffffffffffffffffffff\n      and\n        /* \"Inbox.sol\":7335:7357  payable(site).transfer */\n      0xffffffffffffffffffffffffffffffffffffffff\n      and\n        /* \"Inbox.sol\":7335:7372  payable(site).transfer(request.value) */\n      0x08fc\n        /* \"Inbox.sol\":7358:7365  request */\n      dup3\n        /* \"Inbox.sol\":7358:7371  request.value */\n      0x02\n      add\n      sload\n        /* \"Inbox.sol\":7335:7372  payable(site).transfer(request.value) */\n      swap1\n      dup2\n      iszero\n      mul\n      swap1\n      mload(0x40)\n      0x00\n      mload(0x40)\n      dup1\n      dup4\n      sub\n      dup2\n      dup6\n      dup9\n      dup9\n      call\n      swap4\n      pop\n      pop\n      pop\n      pop\n      iszero\n      dup1\n      iszero\n      tag_268\n      jumpi\n      returndatasize\n      0x00\n      dup1\n      returndatacopy\n      revert(0x00, returndatasize)\n    tag_268:\n      pop\n        /* \"Inbox.sol\":7402:7406  true */\n      0x01\n        /* \"Inbox.sol\":7383:7390  request */\n      dup2\n        /* \"Inbox.sol\":7383:7399  request.complete */\n      0x03\n      add\n      0x00\n        /* \"Inbox.sol\":7383:7406  request.complete = true */\n      0x0100\n      exp\n      dup2\n      sload\n      dup2\n      0xff\n      mul\n      not\n      and\n      swap1\n      dup4\n      iszero\n      iszero\n      mul\n      or\n      swap1\n      sstore\n      pop\n        /* \"Inbox.sol\":7424:7428  true */\n      0x01\n        /* \"Inbox.sol\":7417:7428  return true */\n      swap2\n      pop\n      pop\n        /* \"Inbox.sol\":7073:7436  function executed_order_66(uint index)... */\n      swap2\n      swap1\n      pop\n      jump\t// out\n        /* \"Inbox.sol\":1294:1323  uint public manager_fee = 100 */\n    tag_115:\n      sload(0x02)\n      dup2\n      jump\t// out\n        /* \"Inbox.sol\":1477:1499  address public manager */\n    tag_119:\n      0x06\n      0x00\n      swap1\n      sload\n      swap1\n      0x0100\n      exp\n      swap1\n      div\n      0xffffffffffffffffffffffffffffffffffffffff\n      and\n      dup2\n      jump\t// out\n        /* \"Inbox.sol\":3807:4396  function startContract() public onlyManager  { //need to change to only manager... */\n    tag_124:\n        /* \"Inbox.sol\":143:150  manager */\n      0x06\n      0x00\n      swap1\n      sload\n      swap1\n      0x0100\n      exp\n      swap1\n      div\n      0xffffffffffffffffffffffffffffffffffffffff\n      and\n        /* \"Inbox.sol\":129:150  msg.sender == manager */\n      0xffffffffffffffffffffffffffffffffffffffff\n      and\n        /* \"Inbox.sol\":129:139  msg.sender */\n      caller\n        /* \"Inbox.sol\":129:150  msg.sender == manager */\n      0xffffffffffffffffffffffffffffffffffffffff\n      and\n      eq\n        /* \"Inbox.sol\":121:151  require(msg.sender == manager) */\n      tag_270\n      jumpi\n      0x00\n      dup1\n      revert\n    tag_270:\n        /* \"Inbox.sol\":3982:3986  true */\n      0x01\n        /* \"Inbox.sol\":3973:3979  canBuy */\n      0x14\n      0x00\n        /* \"Inbox.sol\":3973:3986  canBuy = true */\n      0x0100\n      exp\n      dup2\n      sload\n      dup2\n      0xff\n      mul\n      not\n      and\n      swap1\n      dup4\n      iszero\n      iszero\n      mul\n      or\n      swap1\n      sstore\n      pop\n        /* \"Inbox.sol\":3997:4010  uint totalVal */\n      0x00\n        /* \"Inbox.sol\":4013:4034  address(this).balance */\n      selfbalance\n        /* \"Inbox.sol\":3997:4034  uint totalVal = address(this).balance */\n      swap1\n      pop\n        /* \"Inbox.sol\":4089:4100  uint ammunt */\n      0x00\n        /* \"Inbox.sol\":4116:4122  uint i */\n      dup1\n        /* \"Inbox.sol\":4125:4126  0 */\n      0x00\n        /* \"Inbox.sol\":4116:4126  uint i = 0 */\n      swap1\n      pop\n        /* \"Inbox.sol\":4111:4361  for (uint i = 0; i < Investors.length; i++) {... */\n    tag_272:\n        /* \"Inbox.sol\":4132:4141  Investors */\n      0x0b\n        /* \"Inbox.sol\":4132:4148  Investors.length */\n      dup1\n      sload\n      swap1\n      pop\n        /* \"Inbox.sol\":4128:4129  i */\n      dup2\n        /* \"Inbox.sol\":4128:4148  i < Investors.length */\n      lt\n        /* \"Inbox.sol\":4111:4361  for (uint i = 0; i < Investors.length; i++) {... */\n      iszero\n      tag_273\n      jumpi\n        /* \"Inbox.sol\":4170:4191  address temp_investor */\n      0x00\n        /* \"Inbox.sol\":4194:4203  Investors */\n      0x0b\n        /* \"Inbox.sol\":4204:4205  i */\n      dup3\n        /* \"Inbox.sol\":4194:4206  Investors[i] */\n      dup2\n      sload\n      dup2\n      lt\n      tag_275\n      jumpi\n      tag_276\n      tag_255\n      jump\t// in\n    tag_276:\n    tag_275:\n      swap1\n      0x00\n      mstore\n      keccak256(0x00, 0x20)\n      add\n      0x00\n      swap1\n      sload\n      swap1\n      0x0100\n      exp\n      swap1\n      div\n      0xffffffffffffffffffffffffffffffffffffffff\n      and\n        /* \"Inbox.sol\":4170:4206  address temp_investor = Investors[i] */\n      swap1\n      pop\n        /* \"Inbox.sol\":4230:4240  Investment */\n      0x0d\n        /* \"Inbox.sol\":4230:4255  Investment[temp_investor] */\n      0x00\n        /* \"Inbox.sol\":4241:4254  temp_investor */\n      dup3\n        /* \"Inbox.sol\":4230:4255  Investment[temp_investor] */\n      0xffffffffffffffffffffffffffffffffffffffff\n      and\n      0xffffffffffffffffffffffffffffffffffffffff\n      and\n      dup2\n      mstore\n      0x20\n      add\n      swap1\n      dup2\n      mstore\n      0x20\n      add\n      0x00\n      keccak256\n      sload\n        /* \"Inbox.sol\":4221:4255  ammunt = Investment[temp_investor] */\n      swap3\n      pop\n        /* \"Inbox.sol\":4323:4331  totalVal */\n      dup4\n        /* \"Inbox.sol\":4312:4319  percent */\n      sload(0x00)\n        /* \"Inbox.sol\":4302:4308  ammunt */\n      dup5\n        /* \"Inbox.sol\":4301:4319  (ammunt) * percent */\n      tag_278\n      swap2\n      swap1\n      tag_249\n      jump\t// in\n    tag_278:\n        /* \"Inbox.sol\":4300:4331  ((ammunt) * percent) / totalVal */\n      tag_279\n      swap2\n      swap1\n      tag_251\n      jump\t// in\n    tag_279:\n        /* \"Inbox.sol\":4270:4280  ownPercent */\n      0x0e\n        /* \"Inbox.sol\":4270:4295  ownPercent[temp_investor] */\n      0x00\n        /* \"Inbox.sol\":4281:4294  temp_investor */\n      dup4\n        /* \"Inbox.sol\":4270:4295  ownPercent[temp_investor] */\n      0xffffffffffffffffffffffffffffffffffffffff\n      and\n      0xffffffffffffffffffffffffffffffffffffffff\n      and\n      dup2\n      mstore\n      0x20\n      add\n      swap1\n      dup2\n      mstore\n      0x20\n      add\n      0x00\n      keccak256\n        /* \"Inbox.sol\":4270:4333  ownPercent[temp_investor] = ((((ammunt) * percent) / totalVal)) */\n      dup2\n      swap1\n      sstore\n      pop\n        /* \"Inbox.sol\":4155:4361  {... */\n      pop\n        /* \"Inbox.sol\":4150:4153  i++ */\n      dup1\n      dup1\n      tag_280\n      swap1\n      tag_244\n      jump\t// in\n    tag_280:\n      swap2\n      pop\n      pop\n        /* \"Inbox.sol\":4111:4361  for (uint i = 0; i < Investors.length; i++) {... */\n      jump(tag_272)\n    tag_273:\n      pop\n        /* \"Inbox.sol\":4371:4388  setStakeholders() */\n      tag_281\n        /* \"Inbox.sol\":4371:4386  setStakeholders */\n      tag_282\n        /* \"Inbox.sol\":4371:4388  setStakeholders() */\n      jump\t// in\n    tag_281:\n        /* \"Inbox.sol\":3852:4396  { //need to change to only manager... */\n      pop\n      pop\n        /* \"Inbox.sol\":3807:4396  function startContract() public onlyManager  { //need to change to only manager... */\n      jump\t// out\n        /* \"Inbox.sol\":1199:1225  uint public percent = 1000 */\n    tag_127:\n      sload(0x00)\n      dup2\n      jump\t// out\n        /* \"Inbox.sol\":6724:7065  function approveRequest(uint index, bool res) public onlyStakeholders {... */\n    tag_133:\n        /* \"Inbox.sol\":226:238  Stakeholders */\n      0x08\n        /* \"Inbox.sol\":226:250  Stakeholders[msg.sender] */\n      0x00\n        /* \"Inbox.sol\":239:249  msg.sender */\n      caller\n        /* \"Inbox.sol\":226:250  Stakeholders[msg.sender] */\n      0xffffffffffffffffffffffffffffffffffffffff\n      and\n      0xffffffffffffffffffffffffffffffffffffffff\n      and\n      dup2\n      mstore\n      0x20\n      add\n      swap1\n      dup2\n      mstore\n      0x20\n      add\n      0x00\n      keccak256\n      0x00\n      swap1\n      sload\n      swap1\n      0x0100\n      exp\n      swap1\n      div\n      0xff\n      and\n        /* \"Inbox.sol\":218:251  require(Stakeholders[msg.sender]) */\n      tag_284\n      jumpi\n      0x00\n      dup1\n      revert\n    tag_284:\n        /* \"Inbox.sol\":6845:6868  Request storage request */\n      0x00\n        /* \"Inbox.sol\":6871:6880  myRequsts */\n      0x15\n        /* \"Inbox.sol\":6881:6886  index */\n      dup4\n        /* \"Inbox.sol\":6871:6887  myRequsts[index] */\n      dup2\n      sload\n      dup2\n      lt\n      tag_286\n      jumpi\n      tag_287\n      tag_255\n      jump\t// in\n    tag_287:\n    tag_286:\n      swap1\n      0x00\n      mstore\n      keccak256(0x00, 0x20)\n      swap1\n      0x06\n      mul\n      add\n        /* \"Inbox.sol\":6845:6887  Request storage request = myRequsts[index] */\n      swap1\n      pop\n        /* \"Inbox.sol\":6907:6914  request */\n      dup1\n        /* \"Inbox.sol\":6907:6924  request.approvals */\n      0x05\n      add\n        /* \"Inbox.sol\":6907:6936  request.approvals[msg.sender] */\n      0x00\n        /* \"Inbox.sol\":6925:6935  msg.sender */\n      caller\n        /* \"Inbox.sol\":6907:6936  request.approvals[msg.sender] */\n      0xffffffffffffffffffffffffffffffffffffffff\n      and\n      0xffffffffffffffffffffffffffffffffffffffff\n      and\n      dup2\n      mstore\n      0x20\n      add\n      swap1\n      dup2\n      mstore\n      0x20\n      add\n      0x00\n      keccak256\n      0x00\n      swap1\n      sload\n      swap1\n      0x0100\n      exp\n      swap1\n      div\n      0xff\n      and\n        /* \"Inbox.sol\":6906:6936  !request.approvals[msg.sender] */\n      iszero\n        /* \"Inbox.sol\":6898:6937  require(!request.approvals[msg.sender]) */\n      tag_289\n      jumpi\n      0x00\n      dup1\n      revert\n    tag_289:\n        /* \"Inbox.sol\":6980:6984  true */\n      0x01\n        /* \"Inbox.sol\":6948:6955  request */\n      dup2\n        /* \"Inbox.sol\":6948:6965  request.approvals */\n      0x05\n      add\n        /* \"Inbox.sol\":6948:6977  request.approvals[msg.sender] */\n      0x00\n        /* \"Inbox.sol\":6966:6976  msg.sender */\n      caller\n        /* \"Inbox.sol\":6948:6977  request.approvals[msg.sender] */\n      0xffffffffffffffffffffffffffffffffffffffff\n      and\n      0xffffffffffffffffffffffffffffffffffffffff\n      and\n      dup2\n      mstore\n      0x20\n      add\n      swap1\n      dup2\n      mstore\n      0x20\n      add\n      0x00\n      keccak256\n      0x00\n        /* \"Inbox.sol\":6948:6984  request.approvals[msg.sender] = true */\n      0x0100\n      exp\n      dup2\n      sload\n      dup2\n      0xff\n      mul\n      not\n      and\n      swap1\n      dup4\n      iszero\n      iszero\n      mul\n      or\n      swap1\n      sstore\n      pop\n        /* \"Inbox.sol\":7003:7007  true */\n      0x01\n        /* \"Inbox.sol\":6998:7007  res==true */\n      iszero\n      iszero\n        /* \"Inbox.sol\":6998:7001  res */\n      dup3\n        /* \"Inbox.sol\":6998:7007  res==true */\n      iszero\n      iszero\n      sub\n        /* \"Inbox.sol\":6995:7058  if(res==true){... */\n      tag_290\n      jumpi\n        /* \"Inbox.sol\":7023:7030  request */\n      dup1\n        /* \"Inbox.sol\":7023:7044  request.approvalCount */\n      0x04\n      add\n      0x00\n        /* \"Inbox.sol\":7023:7046  request.approvalCount++ */\n      dup2\n      sload\n      dup1\n      swap3\n      swap2\n      swap1\n      tag_291\n      swap1\n      tag_244\n      jump\t// in\n    tag_291:\n      swap2\n      swap1\n      pop\n      sstore\n      pop\n        /* \"Inbox.sol\":6995:7058  if(res==true){... */\n    tag_290:\n        /* \"Inbox.sol\":6794:7065  {... */\n      pop\n        /* \"Inbox.sol\":6724:7065  function approveRequest(uint index, bool res) public onlyStakeholders {... */\n      pop\n      pop\n      jump\t// out\n        /* \"Inbox.sol\":9240:9885  function payDay() public EndPeriod onlySite {... */\n    tag_136:\n        /* \"Inbox.sol\":910:911  2 */\n      0x02\n        /* \"Inbox.sol\":892:907  numStakeholders */\n      sload(0x04)\n        /* \"Inbox.sol\":892:911  numStakeholders / 2 */\n      tag_293\n      swap2\n      swap1\n      tag_251\n      jump\t// in\n    tag_293:\n        /* \"Inbox.sol\":864:888  endTheContract_numOfVote */\n      sload(0x0a)\n        /* \"Inbox.sol\":864:911  endTheContract_numOfVote >= numStakeholders / 2 */\n      lt\n      iszero\n        /* \"Inbox.sol\":863:931  (endTheContract_numOfVote >= numStakeholders / 2) || canBuy == false */\n      dup1\n      tag_294\n      jumpi\n      pop\n        /* \"Inbox.sol\":926:931  false */\n      0x00\n        /* \"Inbox.sol\":916:931  canBuy == false */\n      iszero\n      iszero\n        /* \"Inbox.sol\":916:922  canBuy */\n      0x14\n      0x00\n      swap1\n      sload\n      swap1\n      0x0100\n      exp\n      swap1\n      div\n      0xff\n      and\n        /* \"Inbox.sol\":916:931  canBuy == false */\n      iszero\n      iszero\n      eq\n        /* \"Inbox.sol\":863:931  (endTheContract_numOfVote >= numStakeholders / 2) || canBuy == false */\n    tag_294:\n        /* \"Inbox.sol\":841:942  require(... */\n      tag_295\n      jumpi\n      0x00\n      dup1\n      revert\n    tag_295:\n        /* \"Inbox.sol\":332:336  site */\n      0x07\n      0x00\n      swap1\n      sload\n      swap1\n      0x0100\n      exp\n      swap1\n      div\n      0xffffffffffffffffffffffffffffffffffffffff\n      and\n        /* \"Inbox.sol\":318:336  msg.sender == site */\n      0xffffffffffffffffffffffffffffffffffffffff\n      and\n        /* \"Inbox.sol\":318:328  msg.sender */\n      caller\n        /* \"Inbox.sol\":318:336  msg.sender == site */\n      0xffffffffffffffffffffffffffffffffffffffff\n      and\n      eq\n        /* \"Inbox.sol\":310:337  require(msg.sender == site) */\n      tag_297\n      jumpi\n      0x00\n      dup1\n      revert\n    tag_297:\n        /* \"Inbox.sol\":9329:9345  investorBalanc() */\n      tag_299\n        /* \"Inbox.sol\":9329:9343  investorBalanc */\n      tag_78\n        /* \"Inbox.sol\":9329:9345  investorBalanc() */\n      jump\t// in\n    tag_299:\n        /* \"Inbox.sol\":9316:9327  the_balance */\n      0x1a\n        /* \"Inbox.sol\":9316:9345  the_balance =investorBalanc() */\n      dup2\n      swap1\n      sstore\n      pop\n        /* \"Inbox.sol\":9362:9368  uint i */\n      0x00\n        /* \"Inbox.sol\":9357:9729  for (uint i = 0; i < Investors.length; i++) {... */\n    tag_300:\n        /* \"Inbox.sol\":9378:9387  Investors */\n      0x0b\n        /* \"Inbox.sol\":9378:9394  Investors.length */\n      dup1\n      sload\n      swap1\n      pop\n        /* \"Inbox.sol\":9374:9375  i */\n      dup2\n        /* \"Inbox.sol\":9374:9394  i < Investors.length */\n      lt\n        /* \"Inbox.sol\":9357:9729  for (uint i = 0; i < Investors.length; i++) {... */\n      iszero\n      tag_301\n      jumpi\n        /* \"Inbox.sol\":9416:9432  address investor */\n      0x00\n        /* \"Inbox.sol\":9435:9444  Investors */\n      0x0b\n        /* \"Inbox.sol\":9445:9446  i */\n      dup3\n        /* \"Inbox.sol\":9435:9447  Investors[i] */\n      dup2\n      sload\n      dup2\n      lt\n      tag_303\n      jumpi\n      tag_304\n      tag_255\n      jump\t// in\n    tag_304:\n    tag_303:\n      swap1\n      0x00\n      mstore\n      keccak256(0x00, 0x20)\n      add\n      0x00\n      swap1\n      sload\n      swap1\n      0x0100\n      exp\n      swap1\n      div\n      0xffffffffffffffffffffffffffffffffffffffff\n      and\n        /* \"Inbox.sol\":9416:9447  address investor = Investors[i] */\n      swap1\n      pop\n        /* \"Inbox.sol\":9486:9491  false */\n      0x00\n        /* \"Inbox.sol\":9466:9491  lefted[investor] == false */\n      iszero\n      iszero\n        /* \"Inbox.sol\":9466:9472  lefted */\n      0x0f\n        /* \"Inbox.sol\":9466:9482  lefted[investor] */\n      0x00\n        /* \"Inbox.sol\":9473:9481  investor */\n      dup4\n        /* \"Inbox.sol\":9466:9482  lefted[investor] */\n      0xffffffffffffffffffffffffffffffffffffffff\n      and\n      0xffffffffffffffffffffffffffffffffffffffff\n      and\n      dup2\n      mstore\n      0x20\n      add\n      swap1\n      dup2\n      mstore\n      0x20\n      add\n      0x00\n      keccak256\n      0x00\n      swap1\n      sload\n      swap1\n      0x0100\n      exp\n      swap1\n      div\n      0xff\n      and\n        /* \"Inbox.sol\":9466:9491  lefted[investor] == false */\n      iszero\n      iszero\n      sub\n        /* \"Inbox.sol\":9462:9718  if (lefted[investor] == false) {... */\n      tag_306\n      jumpi\n        /* \"Inbox.sol\":9512:9526  uint myPercent */\n      0x00\n        /* \"Inbox.sol\":9529:9539  ownPercent */\n      0x0e\n        /* \"Inbox.sol\":9529:9549  ownPercent[investor] */\n      0x00\n        /* \"Inbox.sol\":9540:9548  investor */\n      dup4\n        /* \"Inbox.sol\":9529:9549  ownPercent[investor] */\n      0xffffffffffffffffffffffffffffffffffffffff\n      and\n      0xffffffffffffffffffffffffffffffffffffffff\n      and\n      dup2\n      mstore\n      0x20\n      add\n      swap1\n      dup2\n      mstore\n      0x20\n      add\n      0x00\n      keccak256\n      sload\n        /* \"Inbox.sol\":9512:9549  uint myPercent = ownPercent[investor] */\n      swap1\n      pop\n        /* \"Inbox.sol\":9568:9578  uint value */\n      0x00\n        /* \"Inbox.sol\":9609:9616  percent */\n      dup1\n      sload\n        /* \"Inbox.sol\":9594:9605  the_balance */\n      sload(0x1a)\n        /* \"Inbox.sol\":9582:9591  myPercent */\n      dup4\n        /* \"Inbox.sol\":9582:9605  myPercent * the_balance */\n      tag_307\n      swap2\n      swap1\n      tag_249\n      jump\t// in\n    tag_307:\n        /* \"Inbox.sol\":9581:9616  (myPercent * the_balance) / percent */\n      tag_308\n      swap2\n      swap1\n      tag_251\n      jump\t// in\n    tag_308:\n        /* \"Inbox.sol\":9568:9616  uint value = (myPercent * the_balance) / percent */\n      swap1\n      pop\n        /* \"Inbox.sol\":9643:9651  investor */\n      dup3\n        /* \"Inbox.sol\":9635:9661  payable(investor).transfer */\n      0xffffffffffffffffffffffffffffffffffffffff\n      and\n        /* \"Inbox.sol\":9635:9668  payable(investor).transfer(value) */\n      0x08fc\n        /* \"Inbox.sol\":9662:9667  value */\n      dup3\n        /* \"Inbox.sol\":9635:9668  payable(investor).transfer(value) */\n      swap1\n      dup2\n      iszero\n      mul\n      swap1\n      mload(0x40)\n      0x00\n      mload(0x40)\n      dup1\n      dup4\n      sub\n      dup2\n      dup6\n      dup9\n      dup9\n      call\n      swap4\n      pop\n      pop\n      pop\n      pop\n      iszero\n      dup1\n      iszero\n      tag_310\n      jumpi\n      returndatasize\n      0x00\n      dup1\n      returndatacopy\n      revert(0x00, returndatasize)\n    tag_310:\n      pop\n        /* \"Inbox.sol\":9493:9718  {... */\n      pop\n      pop\n        /* \"Inbox.sol\":9462:9718  if (lefted[investor] == false) {... */\n    tag_306:\n        /* \"Inbox.sol\":9401:9729  {... */\n      pop\n        /* \"Inbox.sol\":9396:9399  i++ */\n      dup1\n      dup1\n      tag_311\n      swap1\n      tag_244\n      jump\t// in\n    tag_311:\n      swap2\n      pop\n      pop\n        /* \"Inbox.sol\":9357:9729  for (uint i = 0; i < Investors.length; i++) {... */\n      jump(tag_300)\n    tag_301:\n      pop\n        /* \"Inbox.sol\":9756:9777  address(this).balance */\n      selfbalance\n        /* \"Inbox.sol\":9739:9753  managerFineFee */\n      0x19\n        /* \"Inbox.sol\":9739:9777  managerFineFee = address(this).balance */\n      dup2\n      swap1\n      sstore\n      pop\n        /* \"Inbox.sol\":9796:9803  manager */\n      0x06\n      0x00\n      swap1\n      sload\n      swap1\n      0x0100\n      exp\n      swap1\n      div\n      0xffffffffffffffffffffffffffffffffffffffff\n      and\n        /* \"Inbox.sol\":9788:9813  payable(manager).transfer */\n      0xffffffffffffffffffffffffffffffffffffffff\n      and\n        /* \"Inbox.sol\":9788:9829  payable(manager).transfer(managerFineFee) */\n      0x08fc\n        /* \"Inbox.sol\":9814:9828  managerFineFee */\n      sload(0x19)\n        /* \"Inbox.sol\":9788:9829  payable(manager).transfer(managerFineFee) */\n      swap1\n      dup2\n      iszero\n      mul\n      swap1\n      mload(0x40)\n      0x00\n      mload(0x40)\n      dup1\n      dup4\n      sub\n      dup2\n      dup6\n      dup9\n      dup9\n      call\n      swap4\n      pop\n      pop\n      pop\n      pop\n      iszero\n      dup1\n      iszero\n      tag_313\n      jumpi\n      returndatasize\n      0x00\n      dup1\n      returndatacopy\n      revert(0x00, returndatasize)\n    tag_313:\n      pop\n        /* \"Inbox.sol\":9240:9885  function payDay() public EndPeriod onlySite {... */\n      jump\t// out\n        /* \"Inbox.sol\":6495:6716  function isStakeholdersVoted(uint reqId, address user) //by address... */\n    tag_141:\n        /* \"Inbox.sol\":6611:6615  bool */\n      0x00\n        /* \"Inbox.sol\":6633:6652  Request storage req */\n      dup1\n        /* \"Inbox.sol\":6655:6664  myRequsts */\n      0x15\n        /* \"Inbox.sol\":6665:6670  reqId */\n      dup5\n        /* \"Inbox.sol\":6655:6671  myRequsts[reqId] */\n      dup2\n      sload\n      dup2\n      lt\n      tag_315\n      jumpi\n      tag_316\n      tag_255\n      jump\t// in\n    tag_316:\n    tag_315:\n      swap1\n      0x00\n      mstore\n      keccak256(0x00, 0x20)\n      swap1\n      0x06\n      mul\n      add\n        /* \"Inbox.sol\":6633:6671  Request storage req = myRequsts[reqId] */\n      swap1\n      pop\n        /* \"Inbox.sol\":6689:6692  req */\n      dup1\n        /* \"Inbox.sol\":6689:6702  req.approvals */\n      0x05\n      add\n        /* \"Inbox.sol\":6689:6708  req.approvals[user] */\n      0x00\n        /* \"Inbox.sol\":6703:6707  user */\n      dup5\n        /* \"Inbox.sol\":6689:6708  req.approvals[user] */\n      0xffffffffffffffffffffffffffffffffffffffff\n      and\n      0xffffffffffffffffffffffffffffffffffffffff\n      and\n      dup2\n      mstore\n      0x20\n      add\n      swap1\n      dup2\n      mstore\n      0x20\n      add\n      0x00\n      keccak256\n      0x00\n      swap1\n      sload\n      swap1\n      0x0100\n      exp\n      swap1\n      div\n      0xff\n      and\n        /* \"Inbox.sol\":6682:6708  return req.approvals[user] */\n      swap2\n      pop\n      pop\n        /* \"Inbox.sol\":6495:6716  function isStakeholdersVoted(uint reqId, address user) //by address... */\n      swap3\n      swap2\n      pop\n      pop\n      jump\t// out\n        /* \"Inbox.sol\":1651:1692  uint  public endTheContract_numOfVote = 0 */\n    tag_145:\n      sload(0x0a)\n      dup2\n      jump\t// out\n        /* \"Inbox.sol\":8884:9232  function PayDayVoted() public workPeriod onlyStakeholders {... */\n    tag_149:\n        /* \"Inbox.sol\":729:733  true */\n      0x01\n        /* \"Inbox.sol\":719:733  canBuy == true */\n      iszero\n      iszero\n        /* \"Inbox.sol\":719:725  canBuy */\n      0x14\n      0x00\n      swap1\n      sload\n      swap1\n      0x0100\n      exp\n      swap1\n      div\n      0xff\n      and\n        /* \"Inbox.sol\":719:733  canBuy == true */\n      iszero\n      iszero\n      eq\n        /* \"Inbox.sol\":710:735  require((canBuy == true)) */\n      tag_319\n      jumpi\n      0x00\n      dup1\n      revert\n    tag_319:\n        /* \"Inbox.sol\":226:238  Stakeholders */\n      0x08\n        /* \"Inbox.sol\":226:250  Stakeholders[msg.sender] */\n      0x00\n        /* \"Inbox.sol\":239:249  msg.sender */\n      caller\n        /* \"Inbox.sol\":226:250  Stakeholders[msg.sender] */\n      0xffffffffffffffffffffffffffffffffffffffff\n      and\n      0xffffffffffffffffffffffffffffffffffffffff\n      and\n      dup2\n      mstore\n      0x20\n      add\n      swap1\n      dup2\n      mstore\n      0x20\n      add\n      0x00\n      keccak256\n      0x00\n      swap1\n      sload\n      swap1\n      0x0100\n      exp\n      swap1\n      div\n      0xff\n      and\n        /* \"Inbox.sol\":218:251  require(Stakeholders[msg.sender]) */\n      tag_321\n      jumpi\n      0x00\n      dup1\n      revert\n    tag_321:\n        /* \"Inbox.sol\":9000:9005  false */\n      0x00\n        /* \"Inbox.sol\":8957:9005  Stakeholders_endTheContract[msg.sender] == false */\n      iszero\n      iszero\n        /* \"Inbox.sol\":8957:8984  Stakeholders_endTheContract */\n      0x09\n        /* \"Inbox.sol\":8957:8996  Stakeholders_endTheContract[msg.sender] */\n      0x00\n        /* \"Inbox.sol\":8985:8995  msg.sender */\n      caller\n        /* \"Inbox.sol\":8957:8996  Stakeholders_endTheContract[msg.sender] */\n      0xffffffffffffffffffffffffffffffffffffffff\n      and\n      0xffffffffffffffffffffffffffffffffffffffff\n      and\n      dup2\n      mstore\n      0x20\n      add\n      swap1\n      dup2\n      mstore\n      0x20\n      add\n      0x00\n      keccak256\n      0x00\n      swap1\n      sload\n      swap1\n      0x0100\n      exp\n      swap1\n      div\n      0xff\n      and\n        /* \"Inbox.sol\":8957:9005  Stakeholders_endTheContract[msg.sender] == false */\n      iszero\n      iszero\n      sub\n        /* \"Inbox.sol\":8953:9121  if (Stakeholders_endTheContract[msg.sender] == false) {... */\n      tag_323\n      jumpi\n        /* \"Inbox.sol\":9064:9068  true */\n      0x01\n        /* \"Inbox.sol\":9022:9049  Stakeholders_endTheContract */\n      0x09\n        /* \"Inbox.sol\":9022:9061  Stakeholders_endTheContract[msg.sender] */\n      0x00\n        /* \"Inbox.sol\":9050:9060  msg.sender */\n      caller\n        /* \"Inbox.sol\":9022:9061  Stakeholders_endTheContract[msg.sender] */\n      0xffffffffffffffffffffffffffffffffffffffff\n      and\n      0xffffffffffffffffffffffffffffffffffffffff\n      and\n      dup2\n      mstore\n      0x20\n      add\n      swap1\n      dup2\n      mstore\n      0x20\n      add\n      0x00\n      keccak256\n      0x00\n        /* \"Inbox.sol\":9022:9068  Stakeholders_endTheContract[msg.sender] = true */\n      0x0100\n      exp\n      dup2\n      sload\n      dup2\n      0xff\n      mul\n      not\n      and\n      swap1\n      dup4\n      iszero\n      iszero\n      mul\n      or\n      swap1\n      sstore\n      pop\n        /* \"Inbox.sol\":9083:9107  endTheContract_numOfVote */\n      0x0a\n      0x00\n        /* \"Inbox.sol\":9083:9109  endTheContract_numOfVote++ */\n      dup2\n      sload\n      dup1\n      swap3\n      swap2\n      swap1\n      tag_324\n      swap1\n      tag_244\n      jump\t// in\n    tag_324:\n      swap2\n      swap1\n      pop\n      sstore\n      pop\n        /* \"Inbox.sol\":8953:9121  if (Stakeholders_endTheContract[msg.sender] == false) {... */\n    tag_323:\n        /* \"Inbox.sol\":9181:9182  2 */\n      0x02\n        /* \"Inbox.sol\":9163:9178  numStakeholders */\n      sload(0x04)\n        /* \"Inbox.sol\":9163:9182  numStakeholders / 2 */\n      tag_325\n      swap2\n      swap1\n      tag_251\n      jump\t// in\n    tag_325:\n        /* \"Inbox.sol\":9135:9159  endTheContract_numOfVote */\n      sload(0x0a)\n        /* \"Inbox.sol\":9135:9182  endTheContract_numOfVote >= numStakeholders / 2 */\n      lt\n        /* \"Inbox.sol\":9131:9225  if (endTheContract_numOfVote >= numStakeholders / 2) {... */\n      tag_326\n      jumpi\n        /* \"Inbox.sol\":9208:9213  false */\n      0x00\n        /* \"Inbox.sol\":9199:9205  canBuy */\n      0x14\n      0x00\n        /* \"Inbox.sol\":9199:9213  canBuy = false */\n      0x0100\n      exp\n      dup2\n      sload\n      dup2\n      0xff\n      mul\n      not\n      and\n      swap1\n      dup4\n      iszero\n      iszero\n      mul\n      or\n      swap1\n      sstore\n      pop\n        /* \"Inbox.sol\":9131:9225  if (endTheContract_numOfVote >= numStakeholders / 2) {... */\n    tag_326:\n        /* \"Inbox.sol\":8884:9232  function PayDayVoted() public workPeriod onlyStakeholders {... */\n      jump\t// out\n        /* \"Inbox.sol\":2290:2314  uint public lastTotalVal */\n    tag_152:\n      sload(0x18)\n      dup2\n      jump\t// out\n        /* \"Inbox.sol\":1947:1978  uint public minimumContribution */\n    tag_156:\n      sload(0x10)\n      dup2\n      jump\t// out\n        /* \"Inbox.sol\":2215:2236  uint  public listSize */\n    tag_160:\n      sload(0x16)\n      dup2\n      jump\t// out\n        /* \"Inbox.sol\":3719:3799  function getMoney() public payable returns (bool) {... */\n    tag_163:\n        /* \"Inbox.sol\":3763:3767  bool */\n      0x00\n        /* \"Inbox.sol\":3787:3791  true */\n      0x01\n        /* \"Inbox.sol\":3780:3791  return true */\n      swap1\n      pop\n        /* \"Inbox.sol\":3719:3799  function getMoney() public payable returns (bool) {... */\n      swap1\n      jump\t// out\n        /* \"Inbox.sol\":1896:1934  mapping(address => bool) public lefted */\n    tag_168:\n      mstore(0x20, 0x0f)\n      dup1\n      0x00\n      mstore\n      keccak256(0x00, 0x40)\n      0x00\n      swap2\n      pop\n      sload\n      swap1\n      0x0100\n      exp\n      swap1\n      div\n      0xff\n      and\n      dup2\n      jump\t// out\n        /* \"Inbox.sol\":2354:2377  uint public the_balance */\n    tag_172:\n      sload(0x1a)\n      dup2\n      jump\t// out\n        /* \"Inbox.sol\":2417:2734  function allInvestorPercent() public view returns (uint) {... */\n    tag_176:\n        /* \"Inbox.sol\":2468:2472  uint */\n      0x00\n        /* \"Inbox.sol\":2485:2493  uint sum */\n      dup1\n        /* \"Inbox.sol\":2509:2515  uint i */\n      0x00\n        /* \"Inbox.sol\":2504:2706  for (uint i = 0; i < Investors.length; i++) {... */\n    tag_329:\n        /* \"Inbox.sol\":2525:2534  Investors */\n      0x0b\n        /* \"Inbox.sol\":2525:2541  Investors.length */\n      dup1\n      sload\n      swap1\n      pop\n        /* \"Inbox.sol\":2521:2522  i */\n      dup2\n        /* \"Inbox.sol\":2521:2541  i < Investors.length */\n      lt\n        /* \"Inbox.sol\":2504:2706  for (uint i = 0; i < Investors.length; i++) {... */\n      iszero\n      tag_330\n      jumpi\n        /* \"Inbox.sol\":2563:2575  address user */\n      0x00\n        /* \"Inbox.sol\":2578:2587  Investors */\n      0x0b\n        /* \"Inbox.sol\":2588:2589  i */\n      dup3\n        /* \"Inbox.sol\":2578:2590  Investors[i] */\n      dup2\n      sload\n      dup2\n      lt\n      tag_332\n      jumpi\n      tag_333\n      tag_255\n      jump\t// in\n    tag_333:\n    tag_332:\n      swap1\n      0x00\n      mstore\n      keccak256(0x00, 0x20)\n      add\n      0x00\n      swap1\n      sload\n      swap1\n      0x0100\n      exp\n      swap1\n      div\n      0xffffffffffffffffffffffffffffffffffffffff\n      and\n        /* \"Inbox.sol\":2563:2590  address user = Investors[i] */\n      swap1\n      pop\n        /* \"Inbox.sol\":2625:2630  false */\n      0x00\n        /* \"Inbox.sol\":2609:2630  lefted[user] == false */\n      iszero\n      iszero\n        /* \"Inbox.sol\":2609:2615  lefted */\n      0x0f\n        /* \"Inbox.sol\":2609:2621  lefted[user] */\n      0x00\n        /* \"Inbox.sol\":2616:2620  user */\n      dup4\n        /* \"Inbox.sol\":2609:2621  lefted[user] */\n      0xffffffffffffffffffffffffffffffffffffffff\n      and\n      0xffffffffffffffffffffffffffffffffffffffff\n      and\n      dup2\n      mstore\n      0x20\n      add\n      swap1\n      dup2\n      mstore\n      0x20\n      add\n      0x00\n      keccak256\n      0x00\n      swap1\n      sload\n      swap1\n      0x0100\n      exp\n      swap1\n      div\n      0xff\n      and\n        /* \"Inbox.sol\":2609:2630  lefted[user] == false */\n      iszero\n      iszero\n      sub\n        /* \"Inbox.sol\":2605:2695  if (lefted[user] == false) {... */\n      tag_335\n      jumpi\n        /* \"Inbox.sol\":2663:2673  ownPercent */\n      0x0e\n        /* \"Inbox.sol\":2663:2679  ownPercent[user] */\n      0x00\n        /* \"Inbox.sol\":2674:2678  user */\n      dup3\n        /* \"Inbox.sol\":2663:2679  ownPercent[user] */\n      0xffffffffffffffffffffffffffffffffffffffff\n      and\n      0xffffffffffffffffffffffffffffffffffffffff\n      and\n      dup2\n      mstore\n      0x20\n      add\n      swap1\n      dup2\n      mstore\n      0x20\n      add\n      0x00\n      keccak256\n      sload\n        /* \"Inbox.sol\":2657:2660  sum */\n      dup4\n        /* \"Inbox.sol\":2657:2679  sum + ownPercent[user] */\n      tag_336\n      swap2\n      swap1\n      tag_337\n      jump\t// in\n    tag_336:\n        /* \"Inbox.sol\":2651:2679  sum = sum + ownPercent[user] */\n      swap3\n      pop\n        /* \"Inbox.sol\":2605:2695  if (lefted[user] == false) {... */\n    tag_335:\n        /* \"Inbox.sol\":2548:2706  {... */\n      pop\n        /* \"Inbox.sol\":2543:2546  i++ */\n      dup1\n      dup1\n      tag_338\n      swap1\n      tag_244\n      jump\t// in\n    tag_338:\n      swap2\n      pop\n      pop\n        /* \"Inbox.sol\":2504:2706  for (uint i = 0; i < Investors.length; i++) {... */\n      jump(tag_329)\n    tag_330:\n      pop\n        /* \"Inbox.sol\":2723:2726  sum */\n      dup1\n        /* \"Inbox.sol\":2716:2726  return sum */\n      swap2\n      pop\n      pop\n        /* \"Inbox.sol\":2417:2734  function allInvestorPercent() public view returns (uint) {... */\n      swap1\n      jump\t// out\n        /* \"Inbox.sol\":7444:8471  function leave_contract(... */\n    tag_182:\n        /* \"Inbox.sol\":7612:7616  bool */\n      0x00\n        /* \"Inbox.sol\":729:733  true */\n      0x01\n        /* \"Inbox.sol\":719:733  canBuy == true */\n      iszero\n      iszero\n        /* \"Inbox.sol\":719:725  canBuy */\n      0x14\n      0x00\n      swap1\n      sload\n      swap1\n      0x0100\n      exp\n      swap1\n      div\n      0xff\n      and\n        /* \"Inbox.sol\":719:733  canBuy == true */\n      iszero\n      iszero\n      eq\n        /* \"Inbox.sol\":710:735  require((canBuy == true)) */\n      tag_340\n      jumpi\n      0x00\n      dup1\n      revert\n    tag_340:\n        /* \"Inbox.sol\":332:336  site */\n      0x07\n      0x00\n      swap1\n      sload\n      swap1\n      0x0100\n      exp\n      swap1\n      div\n      0xffffffffffffffffffffffffffffffffffffffff\n      and\n        /* \"Inbox.sol\":318:336  msg.sender == site */\n      0xffffffffffffffffffffffffffffffffffffffff\n      and\n        /* \"Inbox.sol\":318:328  msg.sender */\n      caller\n        /* \"Inbox.sol\":318:336  msg.sender == site */\n      0xffffffffffffffffffffffffffffffffffffffff\n      and\n      eq\n        /* \"Inbox.sol\":310:337  require(msg.sender == site) */\n      tag_342\n      jumpi\n      0x00\n      dup1\n      revert\n    tag_342:\n        /* \"Inbox.sol\":7665:7670  false */\n      0x00\n        /* \"Inbox.sol\":7637:7670  Stakeholders[msg.sender] == false */\n      iszero\n      iszero\n        /* \"Inbox.sol\":7637:7649  Stakeholders */\n      0x08\n        /* \"Inbox.sol\":7637:7661  Stakeholders[msg.sender] */\n      0x00\n        /* \"Inbox.sol\":7650:7660  msg.sender */\n      caller\n        /* \"Inbox.sol\":7637:7661  Stakeholders[msg.sender] */\n      0xffffffffffffffffffffffffffffffffffffffff\n      and\n      0xffffffffffffffffffffffffffffffffffffffff\n      and\n      dup2\n      mstore\n      0x20\n      add\n      swap1\n      dup2\n      mstore\n      0x20\n      add\n      0x00\n      keccak256\n      0x00\n      swap1\n      sload\n      swap1\n      0x0100\n      exp\n      swap1\n      div\n      0xff\n      and\n        /* \"Inbox.sol\":7637:7670  Stakeholders[msg.sender] == false */\n      iszero\n      iszero\n      eq\n        /* \"Inbox.sol\":7629:7671  require(Stakeholders[msg.sender] == false) */\n      tag_344\n      jumpi\n      0x00\n      dup1\n      revert\n    tag_344:\n        /* \"Inbox.sol\":7857:7864  manager */\n      0x06\n      0x00\n      swap1\n      sload\n      swap1\n      0x0100\n      exp\n      swap1\n      div\n      0xffffffffffffffffffffffffffffffffffffffff\n      and\n        /* \"Inbox.sol\":7840:7864  leave_address != manager */\n      0xffffffffffffffffffffffffffffffffffffffff\n      and\n        /* \"Inbox.sol\":7840:7853  leave_address */\n      dup4\n        /* \"Inbox.sol\":7840:7864  leave_address != manager */\n      0xffffffffffffffffffffffffffffffffffffffff\n      and\n      sub\n        /* \"Inbox.sol\":7832:7865  require(leave_address != manager) */\n      tag_345\n      jumpi\n      0x00\n      dup1\n      revert\n    tag_345:\n        /* \"Inbox.sol\":7877:7891  uint myPercent */\n      0x00\n        /* \"Inbox.sol\":7894:7904  ownPercent */\n      0x0e\n        /* \"Inbox.sol\":7894:7919  ownPercent[leave_address] */\n      0x00\n        /* \"Inbox.sol\":7905:7918  leave_address */\n      dup6\n        /* \"Inbox.sol\":7894:7919  ownPercent[leave_address] */\n      0xffffffffffffffffffffffffffffffffffffffff\n      and\n      0xffffffffffffffffffffffffffffffffffffffff\n      and\n      dup2\n      mstore\n      0x20\n      add\n      swap1\n      dup2\n      mstore\n      0x20\n      add\n      0x00\n      keccak256\n      sload\n        /* \"Inbox.sol\":7877:7919  uint myPercent = ownPercent[leave_address] */\n      swap1\n      pop\n        /* \"Inbox.sol\":7930:7945  uint totalValue */\n      0x00\n        /* \"Inbox.sol\":7956:7972  investorBalanc() */\n      tag_346\n        /* \"Inbox.sol\":7956:7970  investorBalanc */\n      tag_78\n        /* \"Inbox.sol\":7956:7972  investorBalanc() */\n      jump\t// in\n    tag_346:\n        /* \"Inbox.sol\":7948:7953  yield */\n      dup5\n        /* \"Inbox.sol\":7948:7972  yield + investorBalanc() */\n      tag_347\n      swap2\n      swap1\n      tag_337\n      jump\t// in\n    tag_347:\n        /* \"Inbox.sol\":7930:7972  uint totalValue = yield + investorBalanc() */\n      swap1\n      pop\n        /* \"Inbox.sol\":7983:7993  uint value */\n      0x00\n        /* \"Inbox.sol\":8048:8055  percent */\n      dup1\n      sload\n        /* \"Inbox.sol\":8037:8044  penelty */\n      sload(0x01)\n        /* \"Inbox.sol\":8026:8033  percent */\n      sload(0x00)\n        /* \"Inbox.sol\":8013:8022  myPercent */\n      dup6\n        /* \"Inbox.sol\":8000:8010  totalValue */\n      dup6\n        /* \"Inbox.sol\":8000:8022  totalValue * myPercent */\n      tag_348\n      swap2\n      swap1\n      tag_249\n      jump\t// in\n    tag_348:\n        /* \"Inbox.sol\":7999:8033  (totalValue * myPercent) / percent */\n      tag_349\n      swap2\n      swap1\n      tag_251\n      jump\t// in\n    tag_349:\n        /* \"Inbox.sol\":7998:8044  ((totalValue * myPercent) / percent) * penelty */\n      tag_350\n      swap2\n      swap1\n      tag_249\n      jump\t// in\n    tag_350:\n        /* \"Inbox.sol\":7997:8055  (((totalValue * myPercent) / percent) * penelty) / percent */\n      tag_351\n      swap2\n      swap1\n      tag_251\n      jump\t// in\n    tag_351:\n        /* \"Inbox.sol\":7983:8056  uint value = ((((totalValue * myPercent) / percent) * penelty) / percent) */\n      swap1\n      pop\n        /* \"Inbox.sol\":8082:8087  value */\n      dup1\n        /* \"Inbox.sol\":8067:8079  lastTotalVal */\n      0x18\n        /* \"Inbox.sol\":8067:8087  lastTotalVal = value */\n      dup2\n      swap1\n      sstore\n      pop\n        /* \"Inbox.sol\":8111:8132  address(this).balance */\n      selfbalance\n        /* \"Inbox.sol\":8102:8107  value */\n      dup2\n        /* \"Inbox.sol\":8102:8132  value <= address(this).balance */\n      gt\n        /* \"Inbox.sol\":8098:8464  if (value <= address(this).balance) {... */\n      tag_352\n      jumpi\n        /* \"Inbox.sol\":8162:8174  lastTotalVal */\n      sload(0x18)\n        /* \"Inbox.sol\":8149:8161  lastLeaveVal */\n      0x1b\n        /* \"Inbox.sol\":8149:8174  lastLeaveVal=lastTotalVal */\n      dup2\n      swap1\n      sstore\n      pop\n        /* \"Inbox.sol\":8209:8222  leave_address */\n      dup6\n        /* \"Inbox.sol\":8201:8232  payable(leave_address).transfer */\n      0xffffffffffffffffffffffffffffffffffffffff\n      and\n        /* \"Inbox.sol\":8201:8239  payable(leave_address).transfer(value) */\n      0x08fc\n        /* \"Inbox.sol\":8233:8238  value */\n      dup3\n        /* \"Inbox.sol\":8201:8239  payable(leave_address).transfer(value) */\n      swap1\n      dup2\n      iszero\n      mul\n      swap1\n      mload(0x40)\n      0x00\n      mload(0x40)\n      dup1\n      dup4\n      sub\n      dup2\n      dup6\n      dup9\n      dup9\n      call\n      swap4\n      pop\n      pop\n      pop\n      pop\n      iszero\n      dup1\n      iszero\n      tag_354\n      jumpi\n      returndatasize\n      0x00\n      dup1\n      returndatacopy\n      revert(0x00, returndatasize)\n    tag_354:\n      pop\n        /* \"Inbox.sol\":8278:8282  true */\n      0x01\n        /* \"Inbox.sol\":8254:8260  lefted */\n      0x0f\n        /* \"Inbox.sol\":8254:8275  lefted[leave_address] */\n      0x00\n        /* \"Inbox.sol\":8261:8274  leave_address */\n      dup9\n        /* \"Inbox.sol\":8254:8275  lefted[leave_address] */\n      0xffffffffffffffffffffffffffffffffffffffff\n      and\n      0xffffffffffffffffffffffffffffffffffffffff\n      and\n      dup2\n      mstore\n      0x20\n      add\n      swap1\n      dup2\n      mstore\n      0x20\n      add\n      0x00\n      keccak256\n      0x00\n        /* \"Inbox.sol\":8254:8282  lefted[leave_address] = true */\n      0x0100\n      exp\n      dup2\n      sload\n      dup2\n      0xff\n      mul\n      not\n      and\n      swap1\n      dup4\n      iszero\n      iszero\n      mul\n      or\n      swap1\n      sstore\n      pop\n        /* \"Inbox.sol\":8309:8314  value */\n      dup1\n        /* \"Inbox.sol\":8297:8306  lastRePay */\n      0x17\n        /* \"Inbox.sol\":8297:8314  lastRePay = value */\n      dup2\n      swap1\n      sstore\n      pop\n        /* \"Inbox.sol\":8329:8350  fixPercent(myPercent) */\n      tag_355\n        /* \"Inbox.sol\":8340:8349  myPercent */\n      dup4\n        /* \"Inbox.sol\":8329:8339  fixPercent */\n      tag_356\n        /* \"Inbox.sol\":8329:8350  fixPercent(myPercent) */\n      jump\t// in\n    tag_355:\n        /* \"Inbox.sol\":8365:8379  numOfInvestors */\n      0x0c\n      0x00\n        /* \"Inbox.sol\":8365:8381  numOfInvestors-- */\n      dup2\n      sload\n      dup1\n      swap3\n      swap2\n      swap1\n      tag_357\n      swap1\n      tag_358\n      jump\t// in\n    tag_357:\n      swap2\n      swap1\n      pop\n      sstore\n      pop\n        /* \"Inbox.sol\":8403:8407  true */\n      0x01\n        /* \"Inbox.sol\":8396:8407  return true */\n      swap4\n      pop\n      pop\n      pop\n      pop\n      jump(tag_343)\n        /* \"Inbox.sol\":8098:8464  if (value <= address(this).balance) {... */\n    tag_352:\n        /* \"Inbox.sol\":8447:8452  false */\n      0x00\n        /* \"Inbox.sol\":8440:8452  return false */\n      swap4\n      pop\n      pop\n      pop\n      pop\n        /* \"Inbox.sol\":349:350  _ */\n    tag_343:\n        /* \"Inbox.sol\":7444:8471  function leave_contract(... */\n      swap3\n      swap2\n      pop\n      pop\n      jump\t// out\n        /* \"Inbox.sol\":3387:3711  function join() public payable JoinPeriod {... */\n    tag_185:\n        /* \"Inbox.sol\":417:422  false */\n      0x00\n        /* \"Inbox.sol\":407:422  canBuy == false */\n      iszero\n      iszero\n        /* \"Inbox.sol\":407:413  canBuy */\n      0x14\n      0x00\n      swap1\n      sload\n      swap1\n      0x0100\n      exp\n      swap1\n      div\n      0xff\n      and\n        /* \"Inbox.sol\":407:422  canBuy == false */\n      iszero\n      iszero\n      eq\n        /* \"Inbox.sol\":399:423  require(canBuy == false) */\n      tag_361\n      jumpi\n      0x00\n      dup1\n      revert\n    tag_361:\n        /* \"Inbox.sol\":3440:3453  uint myInvest */\n      0x00\n        /* \"Inbox.sol\":3456:3466  Investment */\n      0x0d\n        /* \"Inbox.sol\":3456:3478  Investment[msg.sender] */\n      0x00\n        /* \"Inbox.sol\":3467:3477  msg.sender */\n      caller\n        /* \"Inbox.sol\":3456:3478  Investment[msg.sender] */\n      0xffffffffffffffffffffffffffffffffffffffff\n      and\n      0xffffffffffffffffffffffffffffffffffffffff\n      and\n      dup2\n      mstore\n      0x20\n      add\n      swap1\n      dup2\n      mstore\n      0x20\n      add\n      0x00\n      keccak256\n      sload\n        /* \"Inbox.sol\":3440:3478  uint myInvest = Investment[msg.sender] */\n      swap1\n      pop\n        /* \"Inbox.sol\":3505:3506  0 */\n      0x00\n        /* \"Inbox.sol\":3493:3501  myInvest */\n      dup2\n        /* \"Inbox.sol\":3493:3506  myInvest == 0 */\n      sub\n        /* \"Inbox.sol\":3489:3648  if (myInvest == 0) {... */\n      tag_363\n      jumpi\n        /* \"Inbox.sol\":3544:3563  minimumContribution */\n      sload(0x10)\n        /* \"Inbox.sol\":3531:3540  msg.value */\n      callvalue\n        /* \"Inbox.sol\":3531:3563  msg.value >= minimumContribution */\n      lt\n      iszero\n        /* \"Inbox.sol\":3523:3564  require(msg.value >= minimumContribution) */\n      tag_364\n      jumpi\n      0x00\n      dup1\n      revert\n    tag_364:\n        /* \"Inbox.sol\":3579:3588  Investors */\n      0x0b\n        /* \"Inbox.sol\":3594:3604  msg.sender */\n      caller\n        /* \"Inbox.sol\":3579:3605  Investors.push(msg.sender) */\n      swap1\n      dup1\n      0x01\n      dup2\n      sload\n      add\n      dup1\n      dup3\n      sstore\n      dup1\n      swap2\n      pop\n      pop\n      0x01\n      swap1\n      sub\n      swap1\n      0x00\n      mstore\n      keccak256(0x00, 0x20)\n      add\n      0x00\n      swap1\n      swap2\n      swap1\n      swap2\n      swap1\n      swap2\n      0x0100\n      exp\n      dup2\n      sload\n      dup2\n      0xffffffffffffffffffffffffffffffffffffffff\n      mul\n      not\n      and\n      swap1\n      dup4\n      0xffffffffffffffffffffffffffffffffffffffff\n      and\n      mul\n      or\n      swap1\n      sstore\n      pop\n        /* \"Inbox.sol\":3620:3634  numOfInvestors */\n      0x0c\n      0x00\n        /* \"Inbox.sol\":3620:3636  numOfInvestors++ */\n      dup2\n      sload\n      dup1\n      swap3\n      swap2\n      swap1\n      tag_366\n      swap1\n      tag_244\n      jump\t// in\n    tag_366:\n      swap2\n      swap1\n      pop\n      sstore\n      pop\n        /* \"Inbox.sol\":3489:3648  if (myInvest == 0) {... */\n    tag_363:\n        /* \"Inbox.sol\":3694:3703  msg.value */\n      callvalue\n        /* \"Inbox.sol\":3683:3691  myInvest */\n      dup2\n        /* \"Inbox.sol\":3683:3703  myInvest + msg.value */\n      tag_367\n      swap2\n      swap1\n      tag_337\n      jump\t// in\n    tag_367:\n        /* \"Inbox.sol\":3658:3668  Investment */\n      0x0d\n        /* \"Inbox.sol\":3658:3680  Investment[msg.sender] */\n      0x00\n        /* \"Inbox.sol\":3669:3679  msg.sender */\n      caller\n        /* \"Inbox.sol\":3658:3680  Investment[msg.sender] */\n      0xffffffffffffffffffffffffffffffffffffffff\n      and\n      0xffffffffffffffffffffffffffffffffffffffff\n      and\n      dup2\n      mstore\n      0x20\n      add\n      swap1\n      dup2\n      mstore\n      0x20\n      add\n      0x00\n      keccak256\n        /* \"Inbox.sol\":3658:3703  Investment[msg.sender] = myInvest + msg.value */\n      dup2\n      swap1\n      sstore\n      pop\n        /* \"Inbox.sol\":3429:3711  {... */\n      pop\n        /* \"Inbox.sol\":3387:3711  function join() public payable JoinPeriod {... */\n      jump\t// out\n        /* \"Inbox.sol\":1374:1405  uint public numStakeholders = 4 */\n    tag_188:\n      sload(0x04)\n      dup2\n      jump\t// out\n        /* \"Inbox.sol\":1769:1811  mapping(address => uint) public Investment */\n    tag_193:\n      mstore(0x20, 0x0d)\n      dup1\n      0x00\n      mstore\n      keccak256(0x00, 0x40)\n      0x00\n      swap2\n      pop\n      swap1\n      pop\n      sload\n      dup2\n      jump\t// out\n        /* \"Inbox.sol\":1340:1367  uint public days_start = 20 */\n    tag_197:\n      sload(0x03)\n      dup2\n      jump\t// out\n        /* \"Inbox.sol\":2262:2283  uint public lastRePay */\n    tag_201:\n      sload(0x17)\n      dup2\n      jump\t// out\n        /* \"Inbox.sol\":1506:1525  address public site */\n    tag_205:\n      0x07\n      0x00\n      swap1\n      sload\n      swap1\n      0x0100\n      exp\n      swap1\n      div\n      0xffffffffffffffffffffffffffffffffffffffff\n      and\n      dup2\n      jump\t// out\n        /* \"Inbox.sol\":2182:2208  Request[] public myRequsts */\n    tag_210:\n      0x15\n      dup2\n      dup2\n      sload\n      dup2\n      lt\n      tag_368\n      jumpi\n      0x00\n      dup1\n      revert\n    tag_368:\n      swap1\n      0x00\n      mstore\n      keccak256(0x00, 0x20)\n      swap1\n      0x06\n      mul\n      add\n      0x00\n      swap2\n      pop\n      swap1\n      pop\n      dup1\n      0x00\n      add\n      dup1\n      sload\n      tag_370\n      swap1\n      tag_231\n      jump\t// in\n    tag_370:\n      dup1\n      0x1f\n      add\n      0x20\n      dup1\n      swap2\n      div\n      mul\n      0x20\n      add\n      mload(0x40)\n      swap1\n      dup2\n      add\n      0x40\n      mstore\n      dup1\n      swap3\n      swap2\n      swap1\n      dup2\n      dup2\n      mstore\n      0x20\n      add\n      dup3\n      dup1\n      sload\n      tag_371\n      swap1\n      tag_231\n      jump\t// in\n    tag_371:\n      dup1\n      iszero\n      tag_372\n      jumpi\n      dup1\n      0x1f\n      lt\n      tag_373\n      jumpi\n      0x0100\n      dup1\n      dup4\n      sload\n      div\n      mul\n      dup4\n      mstore\n      swap2\n      0x20\n      add\n      swap2\n      jump(tag_372)\n    tag_373:\n      dup3\n      add\n      swap2\n      swap1\n      0x00\n      mstore\n      keccak256(0x00, 0x20)\n      swap1\n    tag_374:\n      dup2\n      sload\n      dup2\n      mstore\n      swap1\n      0x01\n      add\n      swap1\n      0x20\n      add\n      dup1\n      dup4\n      gt\n      tag_374\n      jumpi\n      dup3\n      swap1\n      sub\n      0x1f\n      and\n      dup3\n      add\n      swap2\n    tag_372:\n      pop\n      pop\n      pop\n      pop\n      pop\n      swap1\n      dup1\n      0x01\n      add\n      dup1\n      sload\n      tag_375\n      swap1\n      tag_231\n      jump\t// in\n    tag_375:\n      dup1\n      0x1f\n      add\n      0x20\n      dup1\n      swap2\n      div\n      mul\n      0x20\n      add\n      mload(0x40)\n      swap1\n      dup2\n      add\n      0x40\n      mstore\n      dup1\n      swap3\n      swap2\n      swap1\n      dup2\n      dup2\n      mstore\n      0x20\n      add\n      dup3\n      dup1\n      sload\n      tag_376\n      swap1\n      tag_231\n      jump\t// in\n    tag_376:\n      dup1\n      iszero\n      tag_377\n      jumpi\n      dup1\n      0x1f\n      lt\n      tag_378\n      jumpi\n      0x0100\n      dup1\n      dup4\n      sload\n      div\n      mul\n      dup4\n      mstore\n      swap2\n      0x20\n      add\n      swap2\n      jump(tag_377)\n    tag_378:\n      dup3\n      add\n      swap2\n      swap1\n      0x00\n      mstore\n      keccak256(0x00, 0x20)\n      swap1\n    tag_379:\n      dup2\n      sload\n      dup2\n      mstore\n      swap1\n      0x01\n      add\n      swap1\n      0x20\n      add\n      dup1\n      dup4\n      gt\n      tag_379\n      jumpi\n      dup3\n      swap1\n      sub\n      0x1f\n      and\n      dup3\n      add\n      swap2\n    tag_377:\n      pop\n      pop\n      pop\n      pop\n      pop\n      swap1\n      dup1\n      0x02\n      add\n      sload\n      swap1\n      dup1\n      0x03\n      add\n      0x00\n      swap1\n      sload\n      swap1\n      0x0100\n      exp\n      swap1\n      div\n      0xff\n      and\n      swap1\n      dup1\n      0x04\n      add\n      sload\n      swap1\n      pop\n      dup6\n      jump\t// out\n        /* \"Inbox.sol\":1701:1727  address[] public Investors */\n    tag_216:\n      0x0b\n      dup2\n      dup2\n      sload\n      dup2\n      lt\n      tag_380\n      jumpi\n      0x00\n      dup1\n      revert\n    tag_380:\n      swap1\n      0x00\n      mstore\n      keccak256(0x00, 0x20)\n      add\n      0x00\n      swap2\n      pop\n      sload\n      swap1\n      0x0100\n      exp\n      swap1\n      div\n      0xffffffffffffffffffffffffffffffffffffffff\n      and\n      dup2\n      jump\t// out\n        /* \"Inbox.sol\":2024:2048  uint256 public timeStart */\n    tag_220:\n      sload(0x11)\n      dup2\n      jump\t// out\n        /* \"Inbox.sol\":2087:2109  uint256 public timeEnd */\n    tag_224:\n      sload(0x13)\n      dup2\n      jump\t// out\n        /* \"Inbox.sol\":2116:2137  bool    public canBuy */\n    tag_228:\n      0x14\n      0x00\n      swap1\n      sload\n      swap1\n      0x0100\n      exp\n      swap1\n      div\n      0xff\n      and\n      dup2\n      jump\t// out\n        /* \"Inbox.sol\":4404:5961  function setStakeholders() private {... */\n    tag_282:\n        /* \"Inbox.sol\":4450:4479  address[] memory address_temp */\n      0x00\n        /* \"Inbox.sol\":4496:4511  numStakeholders */\n      sload(0x04)\n        /* \"Inbox.sol\":4482:4512  new address[](numStakeholders) */\n      0xffffffffffffffff\n      dup2\n      gt\n      iszero\n      tag_383\n      jumpi\n      tag_384\n      tag_385\n      jump\t// in\n    tag_384:\n    tag_383:\n      mload(0x40)\n      swap1\n      dup1\n      dup3\n      mstore\n      dup1\n      0x20\n      mul\n      0x20\n      add\n      dup3\n      add\n      0x40\n      mstore\n      dup1\n      iszero\n      tag_386\n      jumpi\n      dup2\n      0x20\n      add\n      0x20\n      dup3\n      mul\n      dup1\n      calldatasize\n      dup4\n      calldatacopy\n      dup1\n      dup3\n      add\n      swap2\n      pop\n      pop\n      swap1\n      pop\n    tag_386:\n      pop\n        /* \"Inbox.sol\":4450:4512  address[] memory address_temp = new address[](numStakeholders) */\n      swap1\n      pop\n        /* \"Inbox.sol\":4523:4547  uint[] memory value_temp */\n      0x00\n        /* \"Inbox.sol\":4561:4576  numStakeholders */\n      sload(0x04)\n        /* \"Inbox.sol\":4550:4577  new uint[](numStakeholders) */\n      0xffffffffffffffff\n      dup2\n      gt\n      iszero\n      tag_387\n      jumpi\n      tag_388\n      tag_385\n      jump\t// in\n    tag_388:\n    tag_387:\n      mload(0x40)\n      swap1\n      dup1\n      dup3\n      mstore\n      dup1\n      0x20\n      mul\n      0x20\n      add\n      dup3\n      add\n      0x40\n      mstore\n      dup1\n      iszero\n      tag_389\n      jumpi\n      dup2\n      0x20\n      add\n      0x20\n      dup3\n      mul\n      dup1\n      calldatasize\n      dup4\n      calldatacopy\n      dup1\n      dup3\n      add\n      swap2\n      pop\n      pop\n      swap1\n      pop\n    tag_389:\n      pop\n        /* \"Inbox.sol\":4523:4577  uint[] memory value_temp = new uint[](numStakeholders) */\n      swap1\n      pop\n        /* \"Inbox.sol\":4588:4596  uint min */\n      0x00\n        /* \"Inbox.sol\":4607:4615  uint pos */\n      dup1\n        /* \"Inbox.sol\":4618:4619  0 */\n      0x00\n        /* \"Inbox.sol\":4607:4619  uint pos = 0 */\n      swap1\n      pop\n        /* \"Inbox.sol\":4630:4643  uint temp_val */\n      0x00\n        /* \"Inbox.sol\":4654:4666  address temp */\n      dup1\n        /* \"Inbox.sol\":4669:4678  Investors */\n      0x0b\n        /* \"Inbox.sol\":4679:4680  0 */\n      0x00\n        /* \"Inbox.sol\":4669:4681  Investors[0] */\n      dup2\n      sload\n      dup2\n      lt\n      tag_390\n      jumpi\n      tag_391\n      tag_255\n      jump\t// in\n    tag_391:\n    tag_390:\n      swap1\n      0x00\n      mstore\n      keccak256(0x00, 0x20)\n      add\n      0x00\n      swap1\n      sload\n      swap1\n      0x0100\n      exp\n      swap1\n      div\n      0xffffffffffffffffffffffffffffffffffffffff\n      and\n        /* \"Inbox.sol\":4654:4681  address temp = Investors[0] */\n      swap1\n      pop\n        /* \"Inbox.sol\":4710:4714  temp */\n      dup1\n        /* \"Inbox.sol\":4692:4704  address_temp */\n      dup7\n        /* \"Inbox.sol\":4705:4706  0 */\n      0x00\n        /* \"Inbox.sol\":4692:4707  address_temp[0] */\n      dup2\n      mload\n      dup2\n      lt\n      tag_393\n      jumpi\n      tag_394\n      tag_255\n      jump\t// in\n    tag_394:\n    tag_393:\n      0x20\n      mul\n      0x20\n      add\n      add\n        /* \"Inbox.sol\":4692:4714  address_temp[0] = temp */\n      swap1\n      0xffffffffffffffffffffffffffffffffffffffff\n      and\n      swap1\n      dup2\n      0xffffffffffffffffffffffffffffffffffffffff\n      and\n      dup2\n      mstore\n      pop\n      pop\n        /* \"Inbox.sol\":4731:4741  Investment */\n      0x0d\n        /* \"Inbox.sol\":4731:4747  Investment[temp] */\n      0x00\n        /* \"Inbox.sol\":4742:4746  temp */\n      dup3\n        /* \"Inbox.sol\":4731:4747  Investment[temp] */\n      0xffffffffffffffffffffffffffffffffffffffff\n      and\n      0xffffffffffffffffffffffffffffffffffffffff\n      and\n      dup2\n      mstore\n      0x20\n      add\n      swap1\n      dup2\n      mstore\n      0x20\n      add\n      0x00\n      keccak256\n      sload\n        /* \"Inbox.sol\":4725:4747  min = Investment[temp] */\n      swap4\n      pop\n        /* \"Inbox.sol\":4774:4777  min */\n      dup4\n        /* \"Inbox.sol\":4758:4768  value_temp */\n      dup6\n        /* \"Inbox.sol\":4769:4770  0 */\n      0x00\n        /* \"Inbox.sol\":4758:4771  value_temp[0] */\n      dup2\n      mload\n      dup2\n      lt\n      tag_395\n      jumpi\n      tag_396\n      tag_255\n      jump\t// in\n    tag_396:\n    tag_395:\n      0x20\n      mul\n      0x20\n      add\n      add\n        /* \"Inbox.sol\":4758:4777  value_temp[0] = min */\n      dup2\n      dup2\n      mstore\n      pop\n      pop\n        /* \"Inbox.sol\":4793:4799  uint i */\n      0x00\n        /* \"Inbox.sol\":4802:4803  1 */\n      0x01\n        /* \"Inbox.sol\":4793:4803  uint i = 1 */\n      swap1\n      pop\n        /* \"Inbox.sol\":4788:5241  for (uint i = 1; i < numStakeholders; i++) {... */\n    tag_397:\n        /* \"Inbox.sol\":4809:4824  numStakeholders */\n      sload(0x04)\n        /* \"Inbox.sol\":4805:4806  i */\n      dup2\n        /* \"Inbox.sol\":4805:4824  i < numStakeholders */\n      lt\n        /* \"Inbox.sol\":4788:5241  for (uint i = 1; i < numStakeholders; i++) {... */\n      iszero\n      tag_398\n      jumpi\n        /* \"Inbox.sol\":4912:4921  Investors */\n      0x0b\n        /* \"Inbox.sol\":4922:4923  i */\n      dup2\n        /* \"Inbox.sol\":4912:4924  Investors[i] */\n      dup2\n      sload\n      dup2\n      lt\n      tag_400\n      jumpi\n      tag_401\n      tag_255\n      jump\t// in\n    tag_401:\n    tag_400:\n      swap1\n      0x00\n      mstore\n      keccak256(0x00, 0x20)\n      add\n      0x00\n      swap1\n      sload\n      swap1\n      0x0100\n      exp\n      swap1\n      div\n      0xffffffffffffffffffffffffffffffffffffffff\n      and\n        /* \"Inbox.sol\":4905:4924  temp = Investors[i] */\n      swap2\n      pop\n        /* \"Inbox.sol\":4971:4975  temp */\n      dup2\n        /* \"Inbox.sol\":4953:4965  address_temp */\n      dup8\n        /* \"Inbox.sol\":4966:4967  i */\n      dup3\n        /* \"Inbox.sol\":4953:4968  address_temp[i] */\n      dup2\n      mload\n      dup2\n      lt\n      tag_403\n      jumpi\n      tag_404\n      tag_255\n      jump\t// in\n    tag_404:\n    tag_403:\n      0x20\n      mul\n      0x20\n      add\n      add\n        /* \"Inbox.sol\":4953:4975  address_temp[i] = temp */\n      swap1\n      0xffffffffffffffffffffffffffffffffffffffff\n      and\n      swap1\n      dup2\n      0xffffffffffffffffffffffffffffffffffffffff\n      and\n      dup2\n      mstore\n      pop\n      pop\n        /* \"Inbox.sol\":5025:5035  Investment */\n      0x0d\n        /* \"Inbox.sol\":5025:5041  Investment[temp] */\n      0x00\n        /* \"Inbox.sol\":5036:5040  temp */\n      dup4\n        /* \"Inbox.sol\":5025:5041  Investment[temp] */\n      0xffffffffffffffffffffffffffffffffffffffff\n      and\n      0xffffffffffffffffffffffffffffffffffffffff\n      and\n      dup2\n      mstore\n      0x20\n      add\n      swap1\n      dup2\n      mstore\n      0x20\n      add\n      0x00\n      keccak256\n      sload\n        /* \"Inbox.sol\":5014:5041  temp_val = Investment[temp] */\n      swap3\n      pop\n        /* \"Inbox.sol\":5096:5104  temp_val */\n      dup3\n        /* \"Inbox.sol\":5080:5090  value_temp */\n      dup7\n        /* \"Inbox.sol\":5091:5092  i */\n      dup3\n        /* \"Inbox.sol\":5080:5093  value_temp[i] */\n      dup2\n      mload\n      dup2\n      lt\n      tag_405\n      jumpi\n      tag_406\n      tag_255\n      jump\t// in\n    tag_406:\n    tag_405:\n      0x20\n      mul\n      0x20\n      add\n      add\n        /* \"Inbox.sol\":5080:5104  value_temp[i] = temp_val */\n      dup2\n      dup2\n      mstore\n      pop\n      pop\n        /* \"Inbox.sol\":5145:5153  temp_val */\n      dup3\n        /* \"Inbox.sol\":5139:5142  min */\n      dup6\n        /* \"Inbox.sol\":5139:5153  min > temp_val */\n      gt\n        /* \"Inbox.sol\":5135:5230  if (min > temp_val) {... */\n      iszero\n      tag_407\n      jumpi\n        /* \"Inbox.sol\":5180:5188  temp_val */\n      dup3\n        /* \"Inbox.sol\":5174:5188  min = temp_val */\n      swap5\n      pop\n        /* \"Inbox.sol\":5213:5214  i */\n      dup1\n        /* \"Inbox.sol\":5207:5214  pos = i */\n      swap4\n      pop\n        /* \"Inbox.sol\":5135:5230  if (min > temp_val) {... */\n    tag_407:\n        /* \"Inbox.sol\":4826:4829  i++ */\n      dup1\n      dup1\n      tag_408\n      swap1\n      tag_244\n      jump\t// in\n    tag_408:\n      swap2\n      pop\n      pop\n        /* \"Inbox.sol\":4788:5241  for (uint i = 1; i < numStakeholders; i++) {... */\n      jump(tag_397)\n    tag_398:\n      pop\n        /* \"Inbox.sol\":5258:5264  uint i */\n      0x00\n        /* \"Inbox.sol\":5267:5282  numStakeholders */\n      sload(0x04)\n        /* \"Inbox.sol\":5258:5282  uint i = numStakeholders */\n      swap1\n      pop\n        /* \"Inbox.sol\":5253:5836  for (uint i = numStakeholders; i < Investors.length; i++) {... */\n    tag_409:\n        /* \"Inbox.sol\":5288:5297  Investors */\n      0x0b\n        /* \"Inbox.sol\":5288:5304  Investors.length */\n      dup1\n      sload\n      swap1\n      pop\n        /* \"Inbox.sol\":5284:5285  i */\n      dup2\n        /* \"Inbox.sol\":5284:5304  i < Investors.length */\n      lt\n        /* \"Inbox.sol\":5253:5836  for (uint i = numStakeholders; i < Investors.length; i++) {... */\n      iszero\n      tag_410\n      jumpi\n        /* \"Inbox.sol\":5333:5342  Investors */\n      0x0b\n        /* \"Inbox.sol\":5343:5344  i */\n      dup2\n        /* \"Inbox.sol\":5333:5345  Investors[i] */\n      dup2\n      sload\n      dup2\n      lt\n      tag_412\n      jumpi\n      tag_413\n      tag_255\n      jump\t// in\n    tag_413:\n    tag_412:\n      swap1\n      0x00\n      mstore\n      keccak256(0x00, 0x20)\n      add\n      0x00\n      swap1\n      sload\n      swap1\n      0x0100\n      exp\n      swap1\n      div\n      0xffffffffffffffffffffffffffffffffffffffff\n      and\n        /* \"Inbox.sol\":5326:5345  temp = Investors[i] */\n      swap2\n      pop\n        /* \"Inbox.sol\":5386:5396  Investment */\n      0x0d\n        /* \"Inbox.sol\":5386:5402  Investment[temp] */\n      0x00\n        /* \"Inbox.sol\":5397:5401  temp */\n      dup4\n        /* \"Inbox.sol\":5386:5402  Investment[temp] */\n      0xffffffffffffffffffffffffffffffffffffffff\n      and\n      0xffffffffffffffffffffffffffffffffffffffff\n      and\n      dup2\n      mstore\n      0x20\n      add\n      swap1\n      dup2\n      mstore\n      0x20\n      add\n      0x00\n      keccak256\n      sload\n        /* \"Inbox.sol\":5375:5402  temp_val = Investment[temp] */\n      swap3\n      pop\n        /* \"Inbox.sol\":5451:5454  min */\n      dup5\n        /* \"Inbox.sol\":5440:5448  temp_val */\n      dup4\n        /* \"Inbox.sol\":5440:5454  temp_val > min */\n      gt\n        /* \"Inbox.sol\":5436:5825  if (temp_val > min) {... */\n      iszero\n      tag_415\n      jumpi\n        /* \"Inbox.sol\":5495:5499  temp */\n      dup2\n        /* \"Inbox.sol\":5475:5487  address_temp */\n      dup8\n        /* \"Inbox.sol\":5488:5491  pos */\n      dup6\n        /* \"Inbox.sol\":5475:5492  address_temp[pos] */\n      dup2\n      mload\n      dup2\n      lt\n      tag_416\n      jumpi\n      tag_417\n      tag_255\n      jump\t// in\n    tag_417:\n    tag_416:\n      0x20\n      mul\n      0x20\n      add\n      add\n        /* \"Inbox.sol\":5475:5499  address_temp[pos] = temp */\n      swap1\n      0xffffffffffffffffffffffffffffffffffffffff\n      and\n      swap1\n      dup2\n      0xffffffffffffffffffffffffffffffffffffffff\n      and\n      dup2\n      mstore\n      pop\n      pop\n        /* \"Inbox.sol\":5536:5544  temp_val */\n      dup3\n        /* \"Inbox.sol\":5518:5528  value_temp */\n      dup7\n        /* \"Inbox.sol\":5529:5532  pos */\n      dup6\n        /* \"Inbox.sol\":5518:5533  value_temp[pos] */\n      dup2\n      mload\n      dup2\n      lt\n      tag_418\n      jumpi\n      tag_419\n      tag_255\n      jump\t// in\n    tag_419:\n    tag_418:\n      0x20\n      mul\n      0x20\n      add\n      add\n        /* \"Inbox.sol\":5518:5544  value_temp[pos] = temp_val */\n      dup2\n      dup2\n      mstore\n      pop\n      pop\n        /* \"Inbox.sol\":5569:5577  temp_val */\n      dup3\n        /* \"Inbox.sol\":5563:5577  min = temp_val */\n      swap5\n      pop\n        /* \"Inbox.sol\":5601:5607  uint j */\n      0x00\n        /* \"Inbox.sol\":5596:5810  for (uint j = 0; j < numStakeholders; j++) {... */\n    tag_420:\n        /* \"Inbox.sol\":5617:5632  numStakeholders */\n      sload(0x04)\n        /* \"Inbox.sol\":5613:5614  j */\n      dup2\n        /* \"Inbox.sol\":5613:5632  j < numStakeholders */\n      lt\n        /* \"Inbox.sol\":5596:5810  for (uint j = 0; j < numStakeholders; j++) {... */\n      iszero\n      tag_421\n      jumpi\n        /* \"Inbox.sol\":5682:5685  min */\n      dup6\n        /* \"Inbox.sol\":5666:5676  value_temp */\n      dup8\n        /* \"Inbox.sol\":5677:5678  j */\n      dup3\n        /* \"Inbox.sol\":5666:5679  value_temp[j] */\n      dup2\n      mload\n      dup2\n      lt\n      tag_423\n      jumpi\n      tag_424\n      tag_255\n      jump\t// in\n    tag_424:\n    tag_423:\n      0x20\n      mul\n      0x20\n      add\n      add\n      mload\n        /* \"Inbox.sol\":5666:5685  value_temp[j] < min */\n      lt\n        /* \"Inbox.sol\":5662:5791  if (value_temp[j] < min) {... */\n      iszero\n      tag_425\n      jumpi\n        /* \"Inbox.sol\":5720:5730  value_temp */\n      dup7\n        /* \"Inbox.sol\":5731:5732  j */\n      dup2\n        /* \"Inbox.sol\":5720:5733  value_temp[j] */\n      dup2\n      mload\n      dup2\n      lt\n      tag_426\n      jumpi\n      tag_427\n      tag_255\n      jump\t// in\n    tag_427:\n    tag_426:\n      0x20\n      mul\n      0x20\n      add\n      add\n      mload\n        /* \"Inbox.sol\":5714:5733  min = value_temp[j] */\n      swap6\n      pop\n        /* \"Inbox.sol\":5766:5767  j */\n      dup1\n        /* \"Inbox.sol\":5760:5767  pos = j */\n      swap5\n      pop\n        /* \"Inbox.sol\":5662:5791  if (value_temp[j] < min) {... */\n    tag_425:\n        /* \"Inbox.sol\":5634:5637  j++ */\n      dup1\n      dup1\n      tag_428\n      swap1\n      tag_244\n      jump\t// in\n    tag_428:\n      swap2\n      pop\n      pop\n        /* \"Inbox.sol\":5596:5810  for (uint j = 0; j < numStakeholders; j++) {... */\n      jump(tag_420)\n    tag_421:\n      pop\n        /* \"Inbox.sol\":5436:5825  if (temp_val > min) {... */\n    tag_415:\n        /* \"Inbox.sol\":5306:5309  i++ */\n      dup1\n      dup1\n      tag_429\n      swap1\n      tag_244\n      jump\t// in\n    tag_429:\n      swap2\n      pop\n      pop\n        /* \"Inbox.sol\":5253:5836  for (uint i = numStakeholders; i < Investors.length; i++) {... */\n      jump(tag_409)\n    tag_410:\n      pop\n        /* \"Inbox.sol\":5853:5859  uint i */\n      0x00\n        /* \"Inbox.sol\":5848:5954  for (uint i = 0; i < numStakeholders; i++) {... */\n    tag_430:\n        /* \"Inbox.sol\":5869:5884  numStakeholders */\n      sload(0x04)\n        /* \"Inbox.sol\":5865:5866  i */\n      dup2\n        /* \"Inbox.sol\":5865:5884  i < numStakeholders */\n      lt\n        /* \"Inbox.sol\":5848:5954  for (uint i = 0; i < numStakeholders; i++) {... */\n      iszero\n      tag_431\n      jumpi\n        /* \"Inbox.sol\":5938:5942  true */\n      0x01\n        /* \"Inbox.sol\":5906:5918  Stakeholders */\n      0x08\n        /* \"Inbox.sol\":5906:5935  Stakeholders[address_temp[i]] */\n      0x00\n        /* \"Inbox.sol\":5919:5931  address_temp */\n      dup10\n        /* \"Inbox.sol\":5932:5933  i */\n      dup5\n        /* \"Inbox.sol\":5919:5934  address_temp[i] */\n      dup2\n      mload\n      dup2\n      lt\n      tag_433\n      jumpi\n      tag_434\n      tag_255\n      jump\t// in\n    tag_434:\n    tag_433:\n      0x20\n      mul\n      0x20\n      add\n      add\n      mload\n        /* \"Inbox.sol\":5906:5935  Stakeholders[address_temp[i]] */\n      0xffffffffffffffffffffffffffffffffffffffff\n      and\n      0xffffffffffffffffffffffffffffffffffffffff\n      and\n      dup2\n      mstore\n      0x20\n      add\n      swap1\n      dup2\n      mstore\n      0x20\n      add\n      0x00\n      keccak256\n      0x00\n        /* \"Inbox.sol\":5906:5942  Stakeholders[address_temp[i]] = true */\n      0x0100\n      exp\n      dup2\n      sload\n      dup2\n      0xff\n      mul\n      not\n      and\n      swap1\n      dup4\n      iszero\n      iszero\n      mul\n      or\n      swap1\n      sstore\n      pop\n        /* \"Inbox.sol\":5886:5889  i++ */\n      dup1\n      dup1\n      tag_435\n      swap1\n      tag_244\n      jump\t// in\n    tag_435:\n      swap2\n      pop\n      pop\n        /* \"Inbox.sol\":5848:5954  for (uint i = 0; i < numStakeholders; i++) {... */\n      jump(tag_430)\n    tag_431:\n      pop\n        /* \"Inbox.sol\":4439:5961  {... */\n      pop\n      pop\n      pop\n      pop\n      pop\n      pop\n        /* \"Inbox.sol\":4404:5961  function setStakeholders() private {... */\n      jump\t// out\n        /* \"Inbox.sol\":8479:8876  function fixPercent(uint leftPercent) private {... */\n    tag_356:\n        /* \"Inbox.sol\":8536:8555  uint totalPercented */\n      0x00\n        /* \"Inbox.sol\":8568:8579  leftPercent */\n      dup2\n        /* \"Inbox.sol\":8558:8565  percent */\n      sload(0x00)\n        /* \"Inbox.sol\":8558:8579  percent - leftPercent */\n      tag_437\n      swap2\n      swap1\n      tag_247\n      jump\t// in\n    tag_437:\n        /* \"Inbox.sol\":8536:8579  uint totalPercented = percent - leftPercent */\n      swap1\n      pop\n        /* \"Inbox.sol\":8595:8601  uint i */\n      0x00\n        /* \"Inbox.sol\":8590:8869  for (uint i = 0; i < Investors.length; i++) {... */\n    tag_438:\n        /* \"Inbox.sol\":8611:8620  Investors */\n      0x0b\n        /* \"Inbox.sol\":8611:8627  Investors.length */\n      dup1\n      sload\n      swap1\n      pop\n        /* \"Inbox.sol\":8607:8608  i */\n      dup2\n        /* \"Inbox.sol\":8607:8627  i < Investors.length */\n      lt\n        /* \"Inbox.sol\":8590:8869  for (uint i = 0; i < Investors.length; i++) {... */\n      iszero\n      tag_439\n      jumpi\n        /* \"Inbox.sol\":8649:8661  address user */\n      0x00\n        /* \"Inbox.sol\":8664:8673  Investors */\n      0x0b\n        /* \"Inbox.sol\":8674:8675  i */\n      dup3\n        /* \"Inbox.sol\":8664:8676  Investors[i] */\n      dup2\n      sload\n      dup2\n      lt\n      tag_441\n      jumpi\n      tag_442\n      tag_255\n      jump\t// in\n    tag_442:\n    tag_441:\n      swap1\n      0x00\n      mstore\n      keccak256(0x00, 0x20)\n      add\n      0x00\n      swap1\n      sload\n      swap1\n      0x0100\n      exp\n      swap1\n      div\n      0xffffffffffffffffffffffffffffffffffffffff\n      and\n        /* \"Inbox.sol\":8649:8676  address user = Investors[i] */\n      swap1\n      pop\n        /* \"Inbox.sol\":8711:8716  false */\n      0x00\n        /* \"Inbox.sol\":8695:8716  lefted[user] == false */\n      iszero\n      iszero\n        /* \"Inbox.sol\":8695:8701  lefted */\n      0x0f\n        /* \"Inbox.sol\":8695:8707  lefted[user] */\n      0x00\n        /* \"Inbox.sol\":8702:8706  user */\n      dup4\n        /* \"Inbox.sol\":8695:8707  lefted[user] */\n      0xffffffffffffffffffffffffffffffffffffffff\n      and\n      0xffffffffffffffffffffffffffffffffffffffff\n      and\n      dup2\n      mstore\n      0x20\n      add\n      swap1\n      dup2\n      mstore\n      0x20\n      add\n      0x00\n      keccak256\n      0x00\n      swap1\n      sload\n      swap1\n      0x0100\n      exp\n      swap1\n      div\n      0xff\n      and\n        /* \"Inbox.sol\":8695:8716  lefted[user] == false */\n      iszero\n      iszero\n      sub\n        /* \"Inbox.sol\":8691:8858  if (lefted[user] == false) {... */\n      tag_444\n      jumpi\n        /* \"Inbox.sol\":8737:8748  uint newVal */\n      0x00\n        /* \"Inbox.sol\":8783:8797  totalPercented */\n      dup4\n        /* \"Inbox.sol\":8772:8779  percent */\n      sload(0x00)\n        /* \"Inbox.sol\":8753:8763  ownPercent */\n      0x0e\n        /* \"Inbox.sol\":8753:8769  ownPercent[user] */\n      0x00\n        /* \"Inbox.sol\":8764:8768  user */\n      dup6\n        /* \"Inbox.sol\":8753:8769  ownPercent[user] */\n      0xffffffffffffffffffffffffffffffffffffffff\n      and\n      0xffffffffffffffffffffffffffffffffffffffff\n      and\n      dup2\n      mstore\n      0x20\n      add\n      swap1\n      dup2\n      mstore\n      0x20\n      add\n      0x00\n      keccak256\n      sload\n        /* \"Inbox.sol\":8753:8779  ownPercent[user] * percent */\n      tag_445\n      swap2\n      swap1\n      tag_249\n      jump\t// in\n    tag_445:\n        /* \"Inbox.sol\":8752:8797  (ownPercent[user] * percent) / totalPercented */\n      tag_446\n      swap2\n      swap1\n      tag_251\n      jump\t// in\n    tag_446:\n        /* \"Inbox.sol\":8737:8798  uint newVal = ((ownPercent[user] * percent) / totalPercented) */\n      swap1\n      pop\n        /* \"Inbox.sol\":8836:8842  newVal */\n      dup1\n        /* \"Inbox.sol\":8817:8827  ownPercent */\n      0x0e\n        /* \"Inbox.sol\":8817:8833  ownPercent[user] */\n      0x00\n        /* \"Inbox.sol\":8828:8832  user */\n      dup5\n        /* \"Inbox.sol\":8817:8833  ownPercent[user] */\n      0xffffffffffffffffffffffffffffffffffffffff\n      and\n      0xffffffffffffffffffffffffffffffffffffffff\n      and\n      dup2\n      mstore\n      0x20\n      add\n      swap1\n      dup2\n      mstore\n      0x20\n      add\n      0x00\n      keccak256\n        /* \"Inbox.sol\":8817:8842  ownPercent[user] = newVal */\n      dup2\n      swap1\n      sstore\n      pop\n        /* \"Inbox.sol\":8718:8858  {... */\n      pop\n        /* \"Inbox.sol\":8691:8858  if (lefted[user] == false) {... */\n    tag_444:\n        /* \"Inbox.sol\":8634:8869  {... */\n      pop\n        /* \"Inbox.sol\":8629:8632  i++ */\n      dup1\n      dup1\n      tag_447\n      swap1\n      tag_244\n      jump\t// in\n    tag_447:\n      swap2\n      pop\n      pop\n        /* \"Inbox.sol\":8590:8869  for (uint i = 0; i < Investors.length; i++) {... */\n      jump(tag_438)\n    tag_439:\n      pop\n        /* \"Inbox.sol\":8525:8876  {... */\n      pop\n        /* \"Inbox.sol\":8479:8876  function fixPercent(uint leftPercent) private {... */\n      pop\n      jump\t// out\n        /* \"#utility.yul\":7:84   */\n    tag_448:\n        /* \"#utility.yul\":44:51   */\n      0x00\n        /* \"#utility.yul\":73:78   */\n      dup2\n        /* \"#utility.yul\":62:78   */\n      swap1\n      pop\n        /* \"#utility.yul\":7:84   */\n      swap2\n      swap1\n      pop\n      jump\t// out\n        /* \"#utility.yul\":90:208   */\n    tag_449:\n        /* \"#utility.yul\":177:201   */\n      tag_498\n        /* \"#utility.yul\":195:200   */\n      dup2\n        /* \"#utility.yul\":177:201   */\n      tag_448\n      jump\t// in\n    tag_498:\n        /* \"#utility.yul\":172:175   */\n      dup3\n        /* \"#utility.yul\":165:202   */\n      mstore\n        /* \"#utility.yul\":90:208   */\n      pop\n      pop\n      jump\t// out\n        /* \"#utility.yul\":214:436   */\n    tag_54:\n        /* \"#utility.yul\":307:311   */\n      0x00\n        /* \"#utility.yul\":345:347   */\n      0x20\n        /* \"#utility.yul\":334:343   */\n      dup3\n        /* \"#utility.yul\":330:348   */\n      add\n        /* \"#utility.yul\":322:348   */\n      swap1\n      pop\n        /* \"#utility.yul\":358:429   */\n      tag_500\n        /* \"#utility.yul\":426:427   */\n      0x00\n        /* \"#utility.yul\":415:424   */\n      dup4\n        /* \"#utility.yul\":411:428   */\n      add\n        /* \"#utility.yul\":402:408   */\n      dup5\n        /* \"#utility.yul\":358:429   */\n      tag_449\n      jump\t// in\n    tag_500:\n        /* \"#utility.yul\":214:436   */\n      swap3\n      swap2\n      pop\n      pop\n      jump\t// out\n        /* \"#utility.yul\":442:541   */\n    tag_450:\n        /* \"#utility.yul\":494:500   */\n      0x00\n        /* \"#utility.yul\":528:533   */\n      dup2\n        /* \"#utility.yul\":522:534   */\n      mload\n        /* \"#utility.yul\":512:534   */\n      swap1\n      pop\n        /* \"#utility.yul\":442:541   */\n      swap2\n      swap1\n      pop\n      jump\t// out\n        /* \"#utility.yul\":547:716   */\n    tag_451:\n        /* \"#utility.yul\":631:642   */\n      0x00\n        /* \"#utility.yul\":665:671   */\n      dup3\n        /* \"#utility.yul\":660:663   */\n      dup3\n        /* \"#utility.yul\":653:672   */\n      mstore\n        /* \"#utility.yul\":705:709   */\n      0x20\n        /* \"#utility.yul\":700:703   */\n      dup3\n        /* \"#utility.yul\":696:710   */\n      add\n        /* \"#utility.yul\":681:710   */\n      swap1\n      pop\n        /* \"#utility.yul\":547:716   */\n      swap3\n      swap2\n      pop\n      pop\n      jump\t// out\n        /* \"#utility.yul\":722:1029   */\n    tag_452:\n        /* \"#utility.yul\":790:791   */\n      0x00\n        /* \"#utility.yul\":800:913   */\n    tag_504:\n        /* \"#utility.yul\":814:820   */\n      dup4\n        /* \"#utility.yul\":811:812   */\n      dup2\n        /* \"#utility.yul\":808:821   */\n      lt\n        /* \"#utility.yul\":800:913   */\n      iszero\n      tag_506\n      jumpi\n        /* \"#utility.yul\":899:900   */\n      dup1\n        /* \"#utility.yul\":894:897   */\n      dup3\n        /* \"#utility.yul\":890:901   */\n      add\n        /* \"#utility.yul\":884:902   */\n      mload\n        /* \"#utility.yul\":880:881   */\n      dup2\n        /* \"#utility.yul\":875:878   */\n      dup5\n        /* \"#utility.yul\":871:882   */\n      add\n        /* \"#utility.yul\":864:903   */\n      mstore\n        /* \"#utility.yul\":836:838   */\n      0x20\n        /* \"#utility.yul\":833:834   */\n      dup2\n        /* \"#utility.yul\":829:839   */\n      add\n        /* \"#utility.yul\":824:839   */\n      swap1\n      pop\n        /* \"#utility.yul\":800:913   */\n      jump(tag_504)\n    tag_506:\n        /* \"#utility.yul\":931:937   */\n      dup4\n        /* \"#utility.yul\":928:929   */\n      dup2\n        /* \"#utility.yul\":925:938   */\n      gt\n        /* \"#utility.yul\":922:1023   */\n      iszero\n      tag_507\n      jumpi\n        /* \"#utility.yul\":1011:1012   */\n      0x00\n        /* \"#utility.yul\":1002:1008   */\n      dup5\n        /* \"#utility.yul\":997:1000   */\n      dup5\n        /* \"#utility.yul\":993:1009   */\n      add\n        /* \"#utility.yul\":986:1013   */\n      mstore\n        /* \"#utility.yul\":922:1023   */\n    tag_507:\n        /* \"#utility.yul\":771:1029   */\n      pop\n        /* \"#utility.yul\":722:1029   */\n      pop\n      pop\n      pop\n      jump\t// out\n        /* \"#utility.yul\":1035:1137   */\n    tag_453:\n        /* \"#utility.yul\":1076:1082   */\n      0x00\n        /* \"#utility.yul\":1127:1129   */\n      0x1f\n        /* \"#utility.yul\":1123:1130   */\n      not\n        /* \"#utility.yul\":1118:1120   */\n      0x1f\n        /* \"#utility.yul\":1111:1116   */\n      dup4\n        /* \"#utility.yul\":1107:1121   */\n      add\n        /* \"#utility.yul\":1103:1131   */\n      and\n        /* \"#utility.yul\":1093:1131   */\n      swap1\n      pop\n        /* \"#utility.yul\":1035:1137   */\n      swap2\n      swap1\n      pop\n      jump\t// out\n        /* \"#utility.yul\":1143:1507   */\n    tag_454:\n        /* \"#utility.yul\":1231:1234   */\n      0x00\n        /* \"#utility.yul\":1259:1298   */\n      tag_510\n        /* \"#utility.yul\":1292:1297   */\n      dup3\n        /* \"#utility.yul\":1259:1298   */\n      tag_450\n      jump\t// in\n    tag_510:\n        /* \"#utility.yul\":1314:1385   */\n      tag_511\n        /* \"#utility.yul\":1378:1384   */\n      dup2\n        /* \"#utility.yul\":1373:1376   */\n      dup6\n        /* \"#utility.yul\":1314:1385   */\n      tag_451\n      jump\t// in\n    tag_511:\n        /* \"#utility.yul\":1307:1385   */\n      swap4\n      pop\n        /* \"#utility.yul\":1394:1446   */\n      tag_512\n        /* \"#utility.yul\":1439:1445   */\n      dup2\n        /* \"#utility.yul\":1434:1437   */\n      dup6\n        /* \"#utility.yul\":1427:1431   */\n      0x20\n        /* \"#utility.yul\":1420:1425   */\n      dup7\n        /* \"#utility.yul\":1416:1432   */\n      add\n        /* \"#utility.yul\":1394:1446   */\n      tag_452\n      jump\t// in\n    tag_512:\n        /* \"#utility.yul\":1471:1500   */\n      tag_513\n        /* \"#utility.yul\":1493:1499   */\n      dup2\n        /* \"#utility.yul\":1471:1500   */\n      tag_453\n      jump\t// in\n    tag_513:\n        /* \"#utility.yul\":1466:1469   */\n      dup5\n        /* \"#utility.yul\":1462:1501   */\n      add\n        /* \"#utility.yul\":1455:1501   */\n      swap2\n      pop\n        /* \"#utility.yul\":1235:1507   */\n      pop\n        /* \"#utility.yul\":1143:1507   */\n      swap3\n      swap2\n      pop\n      pop\n      jump\t// out\n        /* \"#utility.yul\":1513:1826   */\n    tag_59:\n        /* \"#utility.yul\":1626:1630   */\n      0x00\n        /* \"#utility.yul\":1664:1666   */\n      0x20\n        /* \"#utility.yul\":1653:1662   */\n      dup3\n        /* \"#utility.yul\":1649:1667   */\n      add\n        /* \"#utility.yul\":1641:1667   */\n      swap1\n      pop\n        /* \"#utility.yul\":1713:1722   */\n      dup2\n        /* \"#utility.yul\":1707:1711   */\n      dup2\n        /* \"#utility.yul\":1703:1723   */\n      sub\n        /* \"#utility.yul\":1699:1700   */\n      0x00\n        /* \"#utility.yul\":1688:1697   */\n      dup4\n        /* \"#utility.yul\":1684:1701   */\n      add\n        /* \"#utility.yul\":1677:1724   */\n      mstore\n        /* \"#utility.yul\":1741:1819   */\n      tag_515\n        /* \"#utility.yul\":1814:1818   */\n      dup2\n        /* \"#utility.yul\":1805:1811   */\n      dup5\n        /* \"#utility.yul\":1741:1819   */\n      tag_454\n      jump\t// in\n    tag_515:\n        /* \"#utility.yul\":1733:1819   */\n      swap1\n      pop\n        /* \"#utility.yul\":1513:1826   */\n      swap3\n      swap2\n      pop\n      pop\n      jump\t// out\n        /* \"#utility.yul\":1832:1907   */\n    tag_455:\n        /* \"#utility.yul\":1865:1871   */\n      0x00\n        /* \"#utility.yul\":1898:1900   */\n      0x40\n        /* \"#utility.yul\":1892:1901   */\n      mload\n        /* \"#utility.yul\":1882:1901   */\n      swap1\n      pop\n        /* \"#utility.yul\":1832:1907   */\n      swap1\n      jump\t// out\n        /* \"#utility.yul\":1913:2030   */\n    tag_456:\n        /* \"#utility.yul\":2022:2023   */\n      0x00\n        /* \"#utility.yul\":2019:2020   */\n      dup1\n        /* \"#utility.yul\":2012:2024   */\n      revert\n        /* \"#utility.yul\":2036:2153   */\n    tag_457:\n        /* \"#utility.yul\":2145:2146   */\n      0x00\n        /* \"#utility.yul\":2142:2143   */\n      dup1\n        /* \"#utility.yul\":2135:2147   */\n      revert\n        /* \"#utility.yul\":2159:2285   */\n    tag_458:\n        /* \"#utility.yul\":2196:2203   */\n      0x00\n        /* \"#utility.yul\":2236:2278   */\n      0xffffffffffffffffffffffffffffffffffffffff\n        /* \"#utility.yul\":2229:2234   */\n      dup3\n        /* \"#utility.yul\":2225:2279   */\n      and\n        /* \"#utility.yul\":2214:2279   */\n      swap1\n      pop\n        /* \"#utility.yul\":2159:2285   */\n      swap2\n      swap1\n      pop\n      jump\t// out\n        /* \"#utility.yul\":2291:2387   */\n    tag_459:\n        /* \"#utility.yul\":2328:2335   */\n      0x00\n        /* \"#utility.yul\":2357:2381   */\n      tag_521\n        /* \"#utility.yul\":2375:2380   */\n      dup3\n        /* \"#utility.yul\":2357:2381   */\n      tag_458\n      jump\t// in\n    tag_521:\n        /* \"#utility.yul\":2346:2381   */\n      swap1\n      pop\n        /* \"#utility.yul\":2291:2387   */\n      swap2\n      swap1\n      pop\n      jump\t// out\n        /* \"#utility.yul\":2393:2515   */\n    tag_460:\n        /* \"#utility.yul\":2466:2490   */\n      tag_523\n        /* \"#utility.yul\":2484:2489   */\n      dup2\n        /* \"#utility.yul\":2466:2490   */\n      tag_459\n      jump\t// in\n    tag_523:\n        /* \"#utility.yul\":2459:2464   */\n      dup2\n        /* \"#utility.yul\":2456:2491   */\n      eq\n        /* \"#utility.yul\":2446:2509   */\n      tag_524\n      jumpi\n        /* \"#utility.yul\":2505:2506   */\n      0x00\n        /* \"#utility.yul\":2502:2503   */\n      dup1\n        /* \"#utility.yul\":2495:2507   */\n      revert\n        /* \"#utility.yul\":2446:2509   */\n    tag_524:\n        /* \"#utility.yul\":2393:2515   */\n      pop\n      jump\t// out\n        /* \"#utility.yul\":2521:2660   */\n    tag_461:\n        /* \"#utility.yul\":2567:2572   */\n      0x00\n        /* \"#utility.yul\":2605:2611   */\n      dup2\n        /* \"#utility.yul\":2592:2612   */\n      calldataload\n        /* \"#utility.yul\":2583:2612   */\n      swap1\n      pop\n        /* \"#utility.yul\":2621:2654   */\n      tag_526\n        /* \"#utility.yul\":2648:2653   */\n      dup2\n        /* \"#utility.yul\":2621:2654   */\n      tag_460\n      jump\t// in\n    tag_526:\n        /* \"#utility.yul\":2521:2660   */\n      swap3\n      swap2\n      pop\n      pop\n      jump\t// out\n        /* \"#utility.yul\":2666:2995   */\n    tag_67:\n        /* \"#utility.yul\":2725:2731   */\n      0x00\n        /* \"#utility.yul\":2774:2776   */\n      0x20\n        /* \"#utility.yul\":2762:2771   */\n      dup3\n        /* \"#utility.yul\":2753:2760   */\n      dup5\n        /* \"#utility.yul\":2749:2772   */\n      sub\n        /* \"#utility.yul\":2745:2777   */\n      slt\n        /* \"#utility.yul\":2742:2861   */\n      iszero\n      tag_528\n      jumpi\n        /* \"#utility.yul\":2780:2859   */\n      tag_529\n      tag_456\n      jump\t// in\n    tag_529:\n        /* \"#utility.yul\":2742:2861   */\n    tag_528:\n        /* \"#utility.yul\":2900:2901   */\n      0x00\n        /* \"#utility.yul\":2925:2978   */\n      tag_530\n        /* \"#utility.yul\":2970:2977   */\n      dup5\n        /* \"#utility.yul\":2961:2967   */\n      dup3\n        /* \"#utility.yul\":2950:2959   */\n      dup6\n        /* \"#utility.yul\":2946:2968   */\n      add\n        /* \"#utility.yul\":2925:2978   */\n      tag_461\n      jump\t// in\n    tag_530:\n        /* \"#utility.yul\":2915:2978   */\n      swap2\n      pop\n        /* \"#utility.yul\":2871:2988   */\n      pop\n        /* \"#utility.yul\":2666:2995   */\n      swap3\n      swap2\n      pop\n      pop\n      jump\t// out\n        /* \"#utility.yul\":3001:3091   */\n    tag_462:\n        /* \"#utility.yul\":3035:3042   */\n      0x00\n        /* \"#utility.yul\":3078:3083   */\n      dup2\n        /* \"#utility.yul\":3071:3084   */\n      iszero\n        /* \"#utility.yul\":3064:3085   */\n      iszero\n        /* \"#utility.yul\":3053:3085   */\n      swap1\n      pop\n        /* \"#utility.yul\":3001:3091   */\n      swap2\n      swap1\n      pop\n      jump\t// out\n        /* \"#utility.yul\":3097:3206   */\n    tag_463:\n        /* \"#utility.yul\":3178:3199   */\n      tag_533\n        /* \"#utility.yul\":3193:3198   */\n      dup2\n        /* \"#utility.yul\":3178:3199   */\n      tag_462\n      jump\t// in\n    tag_533:\n        /* \"#utility.yul\":3173:3176   */\n      dup3\n        /* \"#utility.yul\":3166:3200   */\n      mstore\n        /* \"#utility.yul\":3097:3206   */\n      pop\n      pop\n      jump\t// out\n        /* \"#utility.yul\":3212:3422   */\n    tag_70:\n        /* \"#utility.yul\":3299:3303   */\n      0x00\n        /* \"#utility.yul\":3337:3339   */\n      0x20\n        /* \"#utility.yul\":3326:3335   */\n      dup3\n        /* \"#utility.yul\":3322:3340   */\n      add\n        /* \"#utility.yul\":3314:3340   */\n      swap1\n      pop\n        /* \"#utility.yul\":3350:3415   */\n      tag_535\n        /* \"#utility.yul\":3412:3413   */\n      0x00\n        /* \"#utility.yul\":3401:3410   */\n      dup4\n        /* \"#utility.yul\":3397:3414   */\n      add\n        /* \"#utility.yul\":3388:3394   */\n      dup5\n        /* \"#utility.yul\":3350:3415   */\n      tag_463\n      jump\t// in\n    tag_535:\n        /* \"#utility.yul\":3212:3422   */\n      swap3\n      swap2\n      pop\n      pop\n      jump\t// out\n        /* \"#utility.yul\":3428:3545   */\n    tag_464:\n        /* \"#utility.yul\":3537:3538   */\n      0x00\n        /* \"#utility.yul\":3534:3535   */\n      dup1\n        /* \"#utility.yul\":3527:3539   */\n      revert\n        /* \"#utility.yul\":3551:3668   */\n    tag_465:\n        /* \"#utility.yul\":3660:3661   */\n      0x00\n        /* \"#utility.yul\":3657:3658   */\n      dup1\n        /* \"#utility.yul\":3650:3662   */\n      revert\n        /* \"#utility.yul\":3674:3854   */\n    tag_385:\n        /* \"#utility.yul\":3722:3799   */\n      0x4e487b7100000000000000000000000000000000000000000000000000000000\n        /* \"#utility.yul\":3719:3720   */\n      0x00\n        /* \"#utility.yul\":3712:3800   */\n      mstore\n        /* \"#utility.yul\":3819:3823   */\n      0x41\n        /* \"#utility.yul\":3816:3817   */\n      0x04\n        /* \"#utility.yul\":3809:3824   */\n      mstore\n        /* \"#utility.yul\":3843:3847   */\n      0x24\n        /* \"#utility.yul\":3840:3841   */\n      0x00\n        /* \"#utility.yul\":3833:3848   */\n      revert\n        /* \"#utility.yul\":3860:4141   */\n    tag_466:\n        /* \"#utility.yul\":3943:3970   */\n      tag_540\n        /* \"#utility.yul\":3965:3969   */\n      dup3\n        /* \"#utility.yul\":3943:3970   */\n      tag_453\n      jump\t// in\n    tag_540:\n        /* \"#utility.yul\":3935:3941   */\n      dup2\n        /* \"#utility.yul\":3931:3971   */\n      add\n        /* \"#utility.yul\":4073:4079   */\n      dup2\n        /* \"#utility.yul\":4061:4071   */\n      dup2\n        /* \"#utility.yul\":4058:4080   */\n      lt\n        /* \"#utility.yul\":4037:4055   */\n      0xffffffffffffffff\n        /* \"#utility.yul\":4025:4035   */\n      dup3\n        /* \"#utility.yul\":4022:4056   */\n      gt\n        /* \"#utility.yul\":4019:4081   */\n      or\n        /* \"#utility.yul\":4016:4104   */\n      iszero\n      tag_541\n      jumpi\n        /* \"#utility.yul\":4084:4102   */\n      tag_542\n      tag_385\n      jump\t// in\n    tag_542:\n        /* \"#utility.yul\":4016:4104   */\n    tag_541:\n        /* \"#utility.yul\":4124:4134   */\n      dup1\n        /* \"#utility.yul\":4120:4122   */\n      0x40\n        /* \"#utility.yul\":4113:4135   */\n      mstore\n        /* \"#utility.yul\":3903:4141   */\n      pop\n        /* \"#utility.yul\":3860:4141   */\n      pop\n      pop\n      jump\t// out\n        /* \"#utility.yul\":4147:4276   */\n    tag_467:\n        /* \"#utility.yul\":4181:4187   */\n      0x00\n        /* \"#utility.yul\":4208:4228   */\n      tag_544\n      tag_455\n      jump\t// in\n    tag_544:\n        /* \"#utility.yul\":4198:4228   */\n      swap1\n      pop\n        /* \"#utility.yul\":4237:4270   */\n      tag_545\n        /* \"#utility.yul\":4265:4269   */\n      dup3\n        /* \"#utility.yul\":4257:4263   */\n      dup3\n        /* \"#utility.yul\":4237:4270   */\n      tag_466\n      jump\t// in\n    tag_545:\n        /* \"#utility.yul\":4147:4276   */\n      swap2\n      swap1\n      pop\n      jump\t// out\n        /* \"#utility.yul\":4282:4590   */\n    tag_468:\n        /* \"#utility.yul\":4344:4348   */\n      0x00\n        /* \"#utility.yul\":4434:4452   */\n      0xffffffffffffffff\n        /* \"#utility.yul\":4426:4432   */\n      dup3\n        /* \"#utility.yul\":4423:4453   */\n      gt\n        /* \"#utility.yul\":4420:4476   */\n      iszero\n      tag_547\n      jumpi\n        /* \"#utility.yul\":4456:4474   */\n      tag_548\n      tag_385\n      jump\t// in\n    tag_548:\n        /* \"#utility.yul\":4420:4476   */\n    tag_547:\n        /* \"#utility.yul\":4494:4523   */\n      tag_549\n        /* \"#utility.yul\":4516:4522   */\n      dup3\n        /* \"#utility.yul\":4494:4523   */\n      tag_453\n      jump\t// in\n    tag_549:\n        /* \"#utility.yul\":4486:4523   */\n      swap1\n      pop\n        /* \"#utility.yul\":4578:4582   */\n      0x20\n        /* \"#utility.yul\":4572:4576   */\n      dup2\n        /* \"#utility.yul\":4568:4583   */\n      add\n        /* \"#utility.yul\":4560:4583   */\n      swap1\n      pop\n        /* \"#utility.yul\":4282:4590   */\n      swap2\n      swap1\n      pop\n      jump\t// out\n        /* \"#utility.yul\":4596:4750   */\n    tag_469:\n        /* \"#utility.yul\":4680:4686   */\n      dup3\n        /* \"#utility.yul\":4675:4678   */\n      dup2\n        /* \"#utility.yul\":4670:4673   */\n      dup4\n        /* \"#utility.yul\":4657:4687   */\n      calldatacopy\n        /* \"#utility.yul\":4742:4743   */\n      0x00\n        /* \"#utility.yul\":4733:4739   */\n      dup4\n        /* \"#utility.yul\":4728:4731   */\n      dup4\n        /* \"#utility.yul\":4724:4740   */\n      add\n        /* \"#utility.yul\":4717:4744   */\n      mstore\n        /* \"#utility.yul\":4596:4750   */\n      pop\n      pop\n      pop\n      jump\t// out\n        /* \"#utility.yul\":4756:5168   */\n    tag_470:\n        /* \"#utility.yul\":4834:4839   */\n      0x00\n        /* \"#utility.yul\":4859:4925   */\n      tag_552\n        /* \"#utility.yul\":4875:4924   */\n      tag_553\n        /* \"#utility.yul\":4917:4923   */\n      dup5\n        /* \"#utility.yul\":4875:4924   */\n      tag_468\n      jump\t// in\n    tag_553:\n        /* \"#utility.yul\":4859:4925   */\n      tag_467\n      jump\t// in\n    tag_552:\n        /* \"#utility.yul\":4850:4925   */\n      swap1\n      pop\n        /* \"#utility.yul\":4948:4954   */\n      dup3\n        /* \"#utility.yul\":4941:4946   */\n      dup2\n        /* \"#utility.yul\":4934:4955   */\n      mstore\n        /* \"#utility.yul\":4986:4990   */\n      0x20\n        /* \"#utility.yul\":4979:4984   */\n      dup2\n        /* \"#utility.yul\":4975:4991   */\n      add\n        /* \"#utility.yul\":5024:5027   */\n      dup5\n        /* \"#utility.yul\":5015:5021   */\n      dup5\n        /* \"#utility.yul\":5010:5013   */\n      dup5\n        /* \"#utility.yul\":5006:5022   */\n      add\n        /* \"#utility.yul\":5003:5028   */\n      gt\n        /* \"#utility.yul\":5000:5112   */\n      iszero\n      tag_554\n      jumpi\n        /* \"#utility.yul\":5031:5110   */\n      tag_555\n      tag_465\n      jump\t// in\n    tag_555:\n        /* \"#utility.yul\":5000:5112   */\n    tag_554:\n        /* \"#utility.yul\":5121:5162   */\n      tag_556\n        /* \"#utility.yul\":5155:5161   */\n      dup5\n        /* \"#utility.yul\":5150:5153   */\n      dup3\n        /* \"#utility.yul\":5145:5148   */\n      dup6\n        /* \"#utility.yul\":5121:5162   */\n      tag_469\n      jump\t// in\n    tag_556:\n        /* \"#utility.yul\":4840:5168   */\n      pop\n        /* \"#utility.yul\":4756:5168   */\n      swap4\n      swap3\n      pop\n      pop\n      pop\n      jump\t// out\n        /* \"#utility.yul\":5188:5528   */\n    tag_471:\n        /* \"#utility.yul\":5244:5249   */\n      0x00\n        /* \"#utility.yul\":5293:5296   */\n      dup3\n        /* \"#utility.yul\":5286:5290   */\n      0x1f\n        /* \"#utility.yul\":5278:5284   */\n      dup4\n        /* \"#utility.yul\":5274:5291   */\n      add\n        /* \"#utility.yul\":5270:5297   */\n      slt\n        /* \"#utility.yul\":5260:5382   */\n      tag_558\n      jumpi\n        /* \"#utility.yul\":5301:5380   */\n      tag_559\n      tag_464\n      jump\t// in\n    tag_559:\n        /* \"#utility.yul\":5260:5382   */\n    tag_558:\n        /* \"#utility.yul\":5418:5424   */\n      dup2\n        /* \"#utility.yul\":5405:5425   */\n      calldataload\n        /* \"#utility.yul\":5443:5522   */\n      tag_560\n        /* \"#utility.yul\":5518:5521   */\n      dup5\n        /* \"#utility.yul\":5510:5516   */\n      dup3\n        /* \"#utility.yul\":5503:5507   */\n      0x20\n        /* \"#utility.yul\":5495:5501   */\n      dup7\n        /* \"#utility.yul\":5491:5508   */\n      add\n        /* \"#utility.yul\":5443:5522   */\n      tag_470\n      jump\t// in\n    tag_560:\n        /* \"#utility.yul\":5434:5522   */\n      swap2\n      pop\n        /* \"#utility.yul\":5250:5528   */\n      pop\n        /* \"#utility.yul\":5188:5528   */\n      swap3\n      swap2\n      pop\n      pop\n      jump\t// out\n        /* \"#utility.yul\":5534:5656   */\n    tag_472:\n        /* \"#utility.yul\":5607:5631   */\n      tag_562\n        /* \"#utility.yul\":5625:5630   */\n      dup2\n        /* \"#utility.yul\":5607:5631   */\n      tag_448\n      jump\t// in\n    tag_562:\n        /* \"#utility.yul\":5600:5605   */\n      dup2\n        /* \"#utility.yul\":5597:5632   */\n      eq\n        /* \"#utility.yul\":5587:5650   */\n      tag_563\n      jumpi\n        /* \"#utility.yul\":5646:5647   */\n      0x00\n        /* \"#utility.yul\":5643:5644   */\n      dup1\n        /* \"#utility.yul\":5636:5648   */\n      revert\n        /* \"#utility.yul\":5587:5650   */\n    tag_563:\n        /* \"#utility.yul\":5534:5656   */\n      pop\n      jump\t// out\n        /* \"#utility.yul\":5662:5801   */\n    tag_473:\n        /* \"#utility.yul\":5708:5713   */\n      0x00\n        /* \"#utility.yul\":5746:5752   */\n      dup2\n        /* \"#utility.yul\":5733:5753   */\n      calldataload\n        /* \"#utility.yul\":5724:5753   */\n      swap1\n      pop\n        /* \"#utility.yul\":5762:5795   */\n      tag_565\n        /* \"#utility.yul\":5789:5794   */\n      dup2\n        /* \"#utility.yul\":5762:5795   */\n      tag_472\n      jump\t// in\n    tag_565:\n        /* \"#utility.yul\":5662:5801   */\n      swap3\n      swap2\n      pop\n      pop\n      jump\t// out\n        /* \"#utility.yul\":5807:6786   */\n    tag_74:\n        /* \"#utility.yul\":5904:5910   */\n      0x00\n        /* \"#utility.yul\":5912:5918   */\n      dup1\n        /* \"#utility.yul\":5920:5926   */\n      0x00\n        /* \"#utility.yul\":5969:5971   */\n      0x60\n        /* \"#utility.yul\":5957:5966   */\n      dup5\n        /* \"#utility.yul\":5948:5955   */\n      dup7\n        /* \"#utility.yul\":5944:5967   */\n      sub\n        /* \"#utility.yul\":5940:5972   */\n      slt\n        /* \"#utility.yul\":5937:6056   */\n      iszero\n      tag_567\n      jumpi\n        /* \"#utility.yul\":5975:6054   */\n      tag_568\n      tag_456\n      jump\t// in\n    tag_568:\n        /* \"#utility.yul\":5937:6056   */\n    tag_567:\n        /* \"#utility.yul\":6123:6124   */\n      0x00\n        /* \"#utility.yul\":6112:6121   */\n      dup5\n        /* \"#utility.yul\":6108:6125   */\n      add\n        /* \"#utility.yul\":6095:6126   */\n      calldataload\n        /* \"#utility.yul\":6153:6171   */\n      0xffffffffffffffff\n        /* \"#utility.yul\":6145:6151   */\n      dup2\n        /* \"#utility.yul\":6142:6172   */\n      gt\n        /* \"#utility.yul\":6139:6256   */\n      iszero\n      tag_569\n      jumpi\n        /* \"#utility.yul\":6175:6254   */\n      tag_570\n      tag_457\n      jump\t// in\n    tag_570:\n        /* \"#utility.yul\":6139:6256   */\n    tag_569:\n        /* \"#utility.yul\":6280:6343   */\n      tag_571\n        /* \"#utility.yul\":6335:6342   */\n      dup7\n        /* \"#utility.yul\":6326:6332   */\n      dup3\n        /* \"#utility.yul\":6315:6324   */\n      dup8\n        /* \"#utility.yul\":6311:6333   */\n      add\n        /* \"#utility.yul\":6280:6343   */\n      tag_471\n      jump\t// in\n    tag_571:\n        /* \"#utility.yul\":6270:6343   */\n      swap4\n      pop\n        /* \"#utility.yul\":6066:6353   */\n      pop\n        /* \"#utility.yul\":6420:6422   */\n      0x20\n        /* \"#utility.yul\":6409:6418   */\n      dup5\n        /* \"#utility.yul\":6405:6423   */\n      add\n        /* \"#utility.yul\":6392:6424   */\n      calldataload\n        /* \"#utility.yul\":6451:6469   */\n      0xffffffffffffffff\n        /* \"#utility.yul\":6443:6449   */\n      dup2\n        /* \"#utility.yul\":6440:6470   */\n      gt\n        /* \"#utility.yul\":6437:6554   */\n      iszero\n      tag_572\n      jumpi\n        /* \"#utility.yul\":6473:6552   */\n      tag_573\n      tag_457\n      jump\t// in\n    tag_573:\n        /* \"#utility.yul\":6437:6554   */\n    tag_572:\n        /* \"#utility.yul\":6578:6641   */\n      tag_574\n        /* \"#utility.yul\":6633:6640   */\n      dup7\n        /* \"#utility.yul\":6624:6630   */\n      dup3\n        /* \"#utility.yul\":6613:6622   */\n      dup8\n        /* \"#utility.yul\":6609:6631   */\n      add\n        /* \"#utility.yul\":6578:6641   */\n      tag_471\n      jump\t// in\n    tag_574:\n        /* \"#utility.yul\":6568:6641   */\n      swap3\n      pop\n        /* \"#utility.yul\":6363:6651   */\n      pop\n        /* \"#utility.yul\":6690:6692   */\n      0x40\n        /* \"#utility.yul\":6716:6769   */\n      tag_575\n        /* \"#utility.yul\":6761:6768   */\n      dup7\n        /* \"#utility.yul\":6752:6758   */\n      dup3\n        /* \"#utility.yul\":6741:6750   */\n      dup8\n        /* \"#utility.yul\":6737:6759   */\n      add\n        /* \"#utility.yul\":6716:6769   */\n      tag_473\n      jump\t// in\n    tag_575:\n        /* \"#utility.yul\":6706:6769   */\n      swap2\n      pop\n        /* \"#utility.yul\":6661:6779   */\n      pop\n        /* \"#utility.yul\":5807:6786   */\n      swap3\n      pop\n      swap3\n      pop\n      swap3\n      jump\t// out\n        /* \"#utility.yul\":6792:7121   */\n    tag_96:\n        /* \"#utility.yul\":6851:6857   */\n      0x00\n        /* \"#utility.yul\":6900:6902   */\n      0x20\n        /* \"#utility.yul\":6888:6897   */\n      dup3\n        /* \"#utility.yul\":6879:6886   */\n      dup5\n        /* \"#utility.yul\":6875:6898   */\n      sub\n        /* \"#utility.yul\":6871:6903   */\n      slt\n        /* \"#utility.yul\":6868:6987   */\n      iszero\n      tag_577\n      jumpi\n        /* \"#utility.yul\":6906:6985   */\n      tag_578\n      tag_456\n      jump\t// in\n    tag_578:\n        /* \"#utility.yul\":6868:6987   */\n    tag_577:\n        /* \"#utility.yul\":7026:7027   */\n      0x00\n        /* \"#utility.yul\":7051:7104   */\n      tag_579\n        /* \"#utility.yul\":7096:7103   */\n      dup5\n        /* \"#utility.yul\":7087:7093   */\n      dup3\n        /* \"#utility.yul\":7076:7085   */\n      dup6\n        /* \"#utility.yul\":7072:7094   */\n      add\n        /* \"#utility.yul\":7051:7104   */\n      tag_473\n      jump\t// in\n    tag_579:\n        /* \"#utility.yul\":7041:7104   */\n      swap2\n      pop\n        /* \"#utility.yul\":6997:7114   */\n      pop\n        /* \"#utility.yul\":6792:7121   */\n      swap3\n      swap2\n      pop\n      pop\n      jump\t// out\n        /* \"#utility.yul\":7127:7245   */\n    tag_474:\n        /* \"#utility.yul\":7214:7238   */\n      tag_581\n        /* \"#utility.yul\":7232:7237   */\n      dup2\n        /* \"#utility.yul\":7214:7238   */\n      tag_459\n      jump\t// in\n    tag_581:\n        /* \"#utility.yul\":7209:7212   */\n      dup3\n        /* \"#utility.yul\":7202:7239   */\n      mstore\n        /* \"#utility.yul\":7127:7245   */\n      pop\n      pop\n      jump\t// out\n        /* \"#utility.yul\":7251:7473   */\n    tag_121:\n        /* \"#utility.yul\":7344:7348   */\n      0x00\n        /* \"#utility.yul\":7382:7384   */\n      0x20\n        /* \"#utility.yul\":7371:7380   */\n      dup3\n        /* \"#utility.yul\":7367:7385   */\n      add\n        /* \"#utility.yul\":7359:7385   */\n      swap1\n      pop\n        /* \"#utility.yul\":7395:7466   */\n      tag_583\n        /* \"#utility.yul\":7463:7464   */\n      0x00\n        /* \"#utility.yul\":7452:7461   */\n      dup4\n        /* \"#utility.yul\":7448:7465   */\n      add\n        /* \"#utility.yul\":7439:7445   */\n      dup5\n        /* \"#utility.yul\":7395:7466   */\n      tag_474\n      jump\t// in\n    tag_583:\n        /* \"#utility.yul\":7251:7473   */\n      swap3\n      swap2\n      pop\n      pop\n      jump\t// out\n        /* \"#utility.yul\":7479:7595   */\n    tag_475:\n        /* \"#utility.yul\":7549:7570   */\n      tag_585\n        /* \"#utility.yul\":7564:7569   */\n      dup2\n        /* \"#utility.yul\":7549:7570   */\n      tag_462\n      jump\t// in\n    tag_585:\n        /* \"#utility.yul\":7542:7547   */\n      dup2\n        /* \"#utility.yul\":7539:7571   */\n      eq\n        /* \"#utility.yul\":7529:7589   */\n      tag_586\n      jumpi\n        /* \"#utility.yul\":7585:7586   */\n      0x00\n        /* \"#utility.yul\":7582:7583   */\n      dup1\n        /* \"#utility.yul\":7575:7587   */\n      revert\n        /* \"#utility.yul\":7529:7589   */\n    tag_586:\n        /* \"#utility.yul\":7479:7595   */\n      pop\n      jump\t// out\n        /* \"#utility.yul\":7601:7734   */\n    tag_476:\n        /* \"#utility.yul\":7644:7649   */\n      0x00\n        /* \"#utility.yul\":7682:7688   */\n      dup2\n        /* \"#utility.yul\":7669:7689   */\n      calldataload\n        /* \"#utility.yul\":7660:7689   */\n      swap1\n      pop\n        /* \"#utility.yul\":7698:7728   */\n      tag_588\n        /* \"#utility.yul\":7722:7727   */\n      dup2\n        /* \"#utility.yul\":7698:7728   */\n      tag_475\n      jump\t// in\n    tag_588:\n        /* \"#utility.yul\":7601:7734   */\n      swap3\n      swap2\n      pop\n      pop\n      jump\t// out\n        /* \"#utility.yul\":7740:8208   */\n    tag_132:\n        /* \"#utility.yul\":7805:7811   */\n      0x00\n        /* \"#utility.yul\":7813:7819   */\n      dup1\n        /* \"#utility.yul\":7862:7864   */\n      0x40\n        /* \"#utility.yul\":7850:7859   */\n      dup4\n        /* \"#utility.yul\":7841:7848   */\n      dup6\n        /* \"#utility.yul\":7837:7860   */\n      sub\n        /* \"#utility.yul\":7833:7865   */\n      slt\n        /* \"#utility.yul\":7830:7949   */\n      iszero\n      tag_590\n      jumpi\n        /* \"#utility.yul\":7868:7947   */\n      tag_591\n      tag_456\n      jump\t// in\n    tag_591:\n        /* \"#utility.yul\":7830:7949   */\n    tag_590:\n        /* \"#utility.yul\":7988:7989   */\n      0x00\n        /* \"#utility.yul\":8013:8066   */\n      tag_592\n        /* \"#utility.yul\":8058:8065   */\n      dup6\n        /* \"#utility.yul\":8049:8055   */\n      dup3\n        /* \"#utility.yul\":8038:8047   */\n      dup7\n        /* \"#utility.yul\":8034:8056   */\n      add\n        /* \"#utility.yul\":8013:8066   */\n      tag_473\n      jump\t// in\n    tag_592:\n        /* \"#utility.yul\":8003:8066   */\n      swap3\n      pop\n        /* \"#utility.yul\":7959:8076   */\n      pop\n        /* \"#utility.yul\":8115:8117   */\n      0x20\n        /* \"#utility.yul\":8141:8191   */\n      tag_593\n        /* \"#utility.yul\":8183:8190   */\n      dup6\n        /* \"#utility.yul\":8174:8180   */\n      dup3\n        /* \"#utility.yul\":8163:8172   */\n      dup7\n        /* \"#utility.yul\":8159:8181   */\n      add\n        /* \"#utility.yul\":8141:8191   */\n      tag_476\n      jump\t// in\n    tag_593:\n        /* \"#utility.yul\":8131:8191   */\n      swap2\n      pop\n        /* \"#utility.yul\":8086:8201   */\n      pop\n        /* \"#utility.yul\":7740:8208   */\n      swap3\n      pop\n      swap3\n      swap1\n      pop\n      jump\t// out\n        /* \"#utility.yul\":8214:8688   */\n    tag_140:\n        /* \"#utility.yul\":8282:8288   */\n      0x00\n        /* \"#utility.yul\":8290:8296   */\n      dup1\n        /* \"#utility.yul\":8339:8341   */\n      0x40\n        /* \"#utility.yul\":8327:8336   */\n      dup4\n        /* \"#utility.yul\":8318:8325   */\n      dup6\n        /* \"#utility.yul\":8314:8337   */\n      sub\n        /* \"#utility.yul\":8310:8342   */\n      slt\n        /* \"#utility.yul\":8307:8426   */\n      iszero\n      tag_595\n      jumpi\n        /* \"#utility.yul\":8345:8424   */\n      tag_596\n      tag_456\n      jump\t// in\n    tag_596:\n        /* \"#utility.yul\":8307:8426   */\n    tag_595:\n        /* \"#utility.yul\":8465:8466   */\n      0x00\n        /* \"#utility.yul\":8490:8543   */\n      tag_597\n        /* \"#utility.yul\":8535:8542   */\n      dup6\n        /* \"#utility.yul\":8526:8532   */\n      dup3\n        /* \"#utility.yul\":8515:8524   */\n      dup7\n        /* \"#utility.yul\":8511:8533   */\n      add\n        /* \"#utility.yul\":8490:8543   */\n      tag_473\n      jump\t// in\n    tag_597:\n        /* \"#utility.yul\":8480:8543   */\n      swap3\n      pop\n        /* \"#utility.yul\":8436:8553   */\n      pop\n        /* \"#utility.yul\":8592:8594   */\n      0x20\n        /* \"#utility.yul\":8618:8671   */\n      tag_598\n        /* \"#utility.yul\":8663:8670   */\n      dup6\n        /* \"#utility.yul\":8654:8660   */\n      dup3\n        /* \"#utility.yul\":8643:8652   */\n      dup7\n        /* \"#utility.yul\":8639:8661   */\n      add\n        /* \"#utility.yul\":8618:8671   */\n      tag_461\n      jump\t// in\n    tag_598:\n        /* \"#utility.yul\":8608:8671   */\n      swap2\n      pop\n        /* \"#utility.yul\":8563:8681   */\n      pop\n        /* \"#utility.yul\":8214:8688   */\n      swap3\n      pop\n      swap3\n      swap1\n      pop\n      jump\t// out\n        /* \"#utility.yul\":8694:9168   */\n    tag_181:\n        /* \"#utility.yul\":8762:8768   */\n      0x00\n        /* \"#utility.yul\":8770:8776   */\n      dup1\n        /* \"#utility.yul\":8819:8821   */\n      0x40\n        /* \"#utility.yul\":8807:8816   */\n      dup4\n        /* \"#utility.yul\":8798:8805   */\n      dup6\n        /* \"#utility.yul\":8794:8817   */\n      sub\n        /* \"#utility.yul\":8790:8822   */\n      slt\n        /* \"#utility.yul\":8787:8906   */\n      iszero\n      tag_600\n      jumpi\n        /* \"#utility.yul\":8825:8904   */\n      tag_601\n      tag_456\n      jump\t// in\n    tag_601:\n        /* \"#utility.yul\":8787:8906   */\n    tag_600:\n        /* \"#utility.yul\":8945:8946   */\n      0x00\n        /* \"#utility.yul\":8970:9023   */\n      tag_602\n        /* \"#utility.yul\":9015:9022   */\n      dup6\n        /* \"#utility.yul\":9006:9012   */\n      dup3\n        /* \"#utility.yul\":8995:9004   */\n      dup7\n        /* \"#utility.yul\":8991:9013   */\n      add\n        /* \"#utility.yul\":8970:9023   */\n      tag_461\n      jump\t// in\n    tag_602:\n        /* \"#utility.yul\":8960:9023   */\n      swap3\n      pop\n        /* \"#utility.yul\":8916:9033   */\n      pop\n        /* \"#utility.yul\":9072:9074   */\n      0x20\n        /* \"#utility.yul\":9098:9151   */\n      tag_603\n        /* \"#utility.yul\":9143:9150   */\n      dup6\n        /* \"#utility.yul\":9134:9140   */\n      dup3\n        /* \"#utility.yul\":9123:9132   */\n      dup7\n        /* \"#utility.yul\":9119:9141   */\n      add\n        /* \"#utility.yul\":9098:9151   */\n      tag_473\n      jump\t// in\n    tag_603:\n        /* \"#utility.yul\":9088:9151   */\n      swap2\n      pop\n        /* \"#utility.yul\":9043:9161   */\n      pop\n        /* \"#utility.yul\":8694:9168   */\n      swap3\n      pop\n      swap3\n      swap1\n      pop\n      jump\t// out\n        /* \"#utility.yul\":9174:10008   */\n    tag_212:\n        /* \"#utility.yul\":9413:9417   */\n      0x00\n        /* \"#utility.yul\":9451:9454   */\n      0xa0\n        /* \"#utility.yul\":9440:9449   */\n      dup3\n        /* \"#utility.yul\":9436:9455   */\n      add\n        /* \"#utility.yul\":9428:9455   */\n      swap1\n      pop\n        /* \"#utility.yul\":9501:9510   */\n      dup2\n        /* \"#utility.yul\":9495:9499   */\n      dup2\n        /* \"#utility.yul\":9491:9511   */\n      sub\n        /* \"#utility.yul\":9487:9488   */\n      0x00\n        /* \"#utility.yul\":9476:9485   */\n      dup4\n        /* \"#utility.yul\":9472:9489   */\n      add\n        /* \"#utility.yul\":9465:9512   */\n      mstore\n        /* \"#utility.yul\":9529:9607   */\n      tag_605\n        /* \"#utility.yul\":9602:9606   */\n      dup2\n        /* \"#utility.yul\":9593:9599   */\n      dup9\n        /* \"#utility.yul\":9529:9607   */\n      tag_454\n      jump\t// in\n    tag_605:\n        /* \"#utility.yul\":9521:9607   */\n      swap1\n      pop\n        /* \"#utility.yul\":9654:9663   */\n      dup2\n        /* \"#utility.yul\":9648:9652   */\n      dup2\n        /* \"#utility.yul\":9644:9664   */\n      sub\n        /* \"#utility.yul\":9639:9641   */\n      0x20\n        /* \"#utility.yul\":9628:9637   */\n      dup4\n        /* \"#utility.yul\":9624:9642   */\n      add\n        /* \"#utility.yul\":9617:9665   */\n      mstore\n        /* \"#utility.yul\":9682:9760   */\n      tag_606\n        /* \"#utility.yul\":9755:9759   */\n      dup2\n        /* \"#utility.yul\":9746:9752   */\n      dup8\n        /* \"#utility.yul\":9682:9760   */\n      tag_454\n      jump\t// in\n    tag_606:\n        /* \"#utility.yul\":9674:9760   */\n      swap1\n      pop\n        /* \"#utility.yul\":9770:9842   */\n      tag_607\n        /* \"#utility.yul\":9838:9840   */\n      0x40\n        /* \"#utility.yul\":9827:9836   */\n      dup4\n        /* \"#utility.yul\":9823:9841   */\n      add\n        /* \"#utility.yul\":9814:9820   */\n      dup7\n        /* \"#utility.yul\":9770:9842   */\n      tag_449\n      jump\t// in\n    tag_607:\n        /* \"#utility.yul\":9852:9918   */\n      tag_608\n        /* \"#utility.yul\":9914:9916   */\n      0x60\n        /* \"#utility.yul\":9903:9912   */\n      dup4\n        /* \"#utility.yul\":9899:9917   */\n      add\n        /* \"#utility.yul\":9890:9896   */\n      dup6\n        /* \"#utility.yul\":9852:9918   */\n      tag_463\n      jump\t// in\n    tag_608:\n        /* \"#utility.yul\":9928:10001   */\n      tag_609\n        /* \"#utility.yul\":9996:9999   */\n      0x80\n        /* \"#utility.yul\":9985:9994   */\n      dup4\n        /* \"#utility.yul\":9981:10000   */\n      add\n        /* \"#utility.yul\":9972:9978   */\n      dup5\n        /* \"#utility.yul\":9928:10001   */\n      tag_449\n      jump\t// in\n    tag_609:\n        /* \"#utility.yul\":9174:10008   */\n      swap7\n      swap6\n      pop\n      pop\n      pop\n      pop\n      pop\n      pop\n      jump\t// out\n        /* \"#utility.yul\":10014:10194   */\n    tag_477:\n        /* \"#utility.yul\":10062:10139   */\n      0x4e487b7100000000000000000000000000000000000000000000000000000000\n        /* \"#utility.yul\":10059:10060   */\n      0x00\n        /* \"#utility.yul\":10052:10140   */\n      mstore\n        /* \"#utility.yul\":10159:10163   */\n      0x22\n        /* \"#utility.yul\":10156:10157   */\n      0x04\n        /* \"#utility.yul\":10149:10164   */\n      mstore\n        /* \"#utility.yul\":10183:10187   */\n      0x24\n        /* \"#utility.yul\":10180:10181   */\n      0x00\n        /* \"#utility.yul\":10173:10188   */\n      revert\n        /* \"#utility.yul\":10200:10520   */\n    tag_231:\n        /* \"#utility.yul\":10244:10250   */\n      0x00\n        /* \"#utility.yul\":10281:10282   */\n      0x02\n        /* \"#utility.yul\":10275:10279   */\n      dup3\n        /* \"#utility.yul\":10271:10283   */\n      div\n        /* \"#utility.yul\":10261:10283   */\n      swap1\n      pop\n        /* \"#utility.yul\":10328:10329   */\n      0x01\n        /* \"#utility.yul\":10322:10326   */\n      dup3\n        /* \"#utility.yul\":10318:10330   */\n      and\n        /* \"#utility.yul\":10349:10367   */\n      dup1\n        /* \"#utility.yul\":10339:10420   */\n      tag_612\n      jumpi\n        /* \"#utility.yul\":10405:10409   */\n      0x7f\n        /* \"#utility.yul\":10397:10403   */\n      dup3\n        /* \"#utility.yul\":10393:10410   */\n      and\n        /* \"#utility.yul\":10383:10410   */\n      swap2\n      pop\n        /* \"#utility.yul\":10339:10420   */\n    tag_612:\n        /* \"#utility.yul\":10467:10469   */\n      0x20\n        /* \"#utility.yul\":10459:10465   */\n      dup3\n        /* \"#utility.yul\":10456:10470   */\n      lt\n        /* \"#utility.yul\":10436:10454   */\n      dup2\n        /* \"#utility.yul\":10433:10471   */\n      sub\n        /* \"#utility.yul\":10430:10514   */\n      tag_613\n      jumpi\n        /* \"#utility.yul\":10486:10504   */\n      tag_614\n      tag_477\n      jump\t// in\n    tag_614:\n        /* \"#utility.yul\":10430:10514   */\n    tag_613:\n        /* \"#utility.yul\":10251:10520   */\n      pop\n        /* \"#utility.yul\":10200:10520   */\n      swap2\n      swap1\n      pop\n      jump\t// out\n        /* \"#utility.yul\":10526:10667   */\n    tag_478:\n        /* \"#utility.yul\":10575:10579   */\n      0x00\n        /* \"#utility.yul\":10598:10601   */\n      dup2\n        /* \"#utility.yul\":10590:10601   */\n      swap1\n      pop\n        /* \"#utility.yul\":10621:10624   */\n      dup2\n        /* \"#utility.yul\":10618:10619   */\n      0x00\n        /* \"#utility.yul\":10611:10625   */\n      mstore\n        /* \"#utility.yul\":10655:10659   */\n      0x20\n        /* \"#utility.yul\":10652:10653   */\n      0x00\n        /* \"#utility.yul\":10642:10660   */\n      keccak256\n        /* \"#utility.yul\":10634:10660   */\n      swap1\n      pop\n        /* \"#utility.yul\":10526:10667   */\n      swap2\n      swap1\n      pop\n      jump\t// out\n        /* \"#utility.yul\":10673:10766   */\n    tag_479:\n        /* \"#utility.yul\":10710:10716   */\n      0x00\n        /* \"#utility.yul\":10757:10759   */\n      0x20\n        /* \"#utility.yul\":10752:10754   */\n      0x1f\n        /* \"#utility.yul\":10745:10750   */\n      dup4\n        /* \"#utility.yul\":10741:10755   */\n      add\n        /* \"#utility.yul\":10737:10760   */\n      div\n        /* \"#utility.yul\":10727:10760   */\n      swap1\n      pop\n        /* \"#utility.yul\":10673:10766   */\n      swap2\n      swap1\n      pop\n      jump\t// out\n        /* \"#utility.yul\":10772:10879   */\n    tag_480:\n        /* \"#utility.yul\":10816:10824   */\n      0x00\n        /* \"#utility.yul\":10866:10871   */\n      dup3\n        /* \"#utility.yul\":10860:10864   */\n      dup3\n        /* \"#utility.yul\":10856:10872   */\n      shl\n        /* \"#utility.yul\":10835:10872   */\n      swap1\n      pop\n        /* \"#utility.yul\":10772:10879   */\n      swap3\n      swap2\n      pop\n      pop\n      jump\t// out\n        /* \"#utility.yul\":10885:11278   */\n    tag_481:\n        /* \"#utility.yul\":10954:10960   */\n      0x00\n        /* \"#utility.yul\":11004:11005   */\n      0x08\n        /* \"#utility.yul\":10992:11002   */\n      dup4\n        /* \"#utility.yul\":10988:11006   */\n      mul\n        /* \"#utility.yul\":11027:11124   */\n      tag_619\n        /* \"#utility.yul\":11057:11123   */\n      0xffffffffffffffffffffffffffffffffffffffffffffffffffffffffffffffff\n        /* \"#utility.yul\":11046:11055   */\n      dup3\n        /* \"#utility.yul\":11027:11124   */\n      tag_480\n      jump\t// in\n    tag_619:\n        /* \"#utility.yul\":11145:11184   */\n      tag_620\n        /* \"#utility.yul\":11175:11183   */\n      dup7\n        /* \"#utility.yul\":11164:11173   */\n      dup4\n        /* \"#utility.yul\":11145:11184   */\n      tag_480\n      jump\t// in\n    tag_620:\n        /* \"#utility.yul\":11133:11184   */\n      swap6\n      pop\n        /* \"#utility.yul\":11217:11221   */\n      dup1\n        /* \"#utility.yul\":11213:11222   */\n      not\n        /* \"#utility.yul\":11206:11211   */\n      dup5\n        /* \"#utility.yul\":11202:11223   */\n      and\n        /* \"#utility.yul\":11193:11223   */\n      swap4\n      pop\n        /* \"#utility.yul\":11266:11270   */\n      dup1\n        /* \"#utility.yul\":11256:11264   */\n      dup7\n        /* \"#utility.yul\":11252:11271   */\n      and\n        /* \"#utility.yul\":11245:11250   */\n      dup5\n        /* \"#utility.yul\":11242:11272   */\n      or\n        /* \"#utility.yul\":11232:11272   */\n      swap3\n      pop\n        /* \"#utility.yul\":10961:11278   */\n      pop\n      pop\n        /* \"#utility.yul\":10885:11278   */\n      swap4\n      swap3\n      pop\n      pop\n      pop\n      jump\t// out\n        /* \"#utility.yul\":11284:11344   */\n    tag_482:\n        /* \"#utility.yul\":11312:11315   */\n      0x00\n        /* \"#utility.yul\":11333:11338   */\n      dup2\n        /* \"#utility.yul\":11326:11338   */\n      swap1\n      pop\n        /* \"#utility.yul\":11284:11344   */\n      swap2\n      swap1\n      pop\n      jump\t// out\n        /* \"#utility.yul\":11350:11492   */\n    tag_483:\n        /* \"#utility.yul\":11400:11409   */\n      0x00\n        /* \"#utility.yul\":11433:11486   */\n      tag_623\n        /* \"#utility.yul\":11451:11485   */\n      tag_624\n        /* \"#utility.yul\":11460:11484   */\n      tag_625\n        /* \"#utility.yul\":11478:11483   */\n      dup5\n        /* \"#utility.yul\":11460:11484   */\n      tag_448\n      jump\t// in\n    tag_625:\n        /* \"#utility.yul\":11451:11485   */\n      tag_482\n      jump\t// in\n    tag_624:\n        /* \"#utility.yul\":11433:11486   */\n      tag_448\n      jump\t// in\n    tag_623:\n        /* \"#utility.yul\":11420:11486   */\n      swap1\n      pop\n        /* \"#utility.yul\":11350:11492   */\n      swap2\n      swap1\n      pop\n      jump\t// out\n        /* \"#utility.yul\":11498:11573   */\n    tag_484:\n        /* \"#utility.yul\":11541:11544   */\n      0x00\n        /* \"#utility.yul\":11562:11567   */\n      dup2\n        /* \"#utility.yul\":11555:11567   */\n      swap1\n      pop\n        /* \"#utility.yul\":11498:11573   */\n      swap2\n      swap1\n      pop\n      jump\t// out\n        /* \"#utility.yul\":11579:11848   */\n    tag_485:\n        /* \"#utility.yul\":11689:11728   */\n      tag_628\n        /* \"#utility.yul\":11720:11727   */\n      dup4\n        /* \"#utility.yul\":11689:11728   */\n      tag_483\n      jump\t// in\n    tag_628:\n        /* \"#utility.yul\":11750:11841   */\n      tag_629\n        /* \"#utility.yul\":11799:11840   */\n      tag_630\n        /* \"#utility.yul\":11823:11839   */\n      dup3\n        /* \"#utility.yul\":11799:11840   */\n      tag_484\n      jump\t// in\n    tag_630:\n        /* \"#utility.yul\":11791:11797   */\n      dup5\n        /* \"#utility.yul\":11784:11788   */\n      dup5\n        /* \"#utility.yul\":11778:11789   */\n      sload\n        /* \"#utility.yul\":11750:11841   */\n      tag_481\n      jump\t// in\n    tag_629:\n        /* \"#utility.yul\":11744:11748   */\n      dup3\n        /* \"#utility.yul\":11737:11842   */\n      sstore\n        /* \"#utility.yul\":11655:11848   */\n      pop\n        /* \"#utility.yul\":11579:11848   */\n      pop\n      pop\n      pop\n      jump\t// out\n        /* \"#utility.yul\":11854:11927   */\n    tag_486:\n        /* \"#utility.yul\":11899:11902   */\n      0x00\n        /* \"#utility.yul\":11854:11927   */\n      swap1\n      jump\t// out\n        /* \"#utility.yul\":11933:12122   */\n    tag_487:\n        /* \"#utility.yul\":12010:12042   */\n      tag_633\n      tag_486\n      jump\t// in\n    tag_633:\n        /* \"#utility.yul\":12051:12116   */\n      tag_634\n        /* \"#utility.yul\":12109:12115   */\n      dup2\n        /* \"#utility.yul\":12101:12107   */\n      dup5\n        /* \"#utility.yul\":12095:12099   */\n      dup5\n        /* \"#utility.yul\":12051:12116   */\n      tag_485\n      jump\t// in\n    tag_634:\n        /* \"#utility.yul\":11986:12122   */\n      pop\n        /* \"#utility.yul\":11933:12122   */\n      pop\n      pop\n      jump\t// out\n        /* \"#utility.yul\":12128:12314   */\n    tag_488:\n        /* \"#utility.yul\":12188:12308   */\n    tag_636:\n        /* \"#utility.yul\":12205:12208   */\n      dup2\n        /* \"#utility.yul\":12198:12203   */\n      dup2\n        /* \"#utility.yul\":12195:12209   */\n      lt\n        /* \"#utility.yul\":12188:12308   */\n      iszero\n      tag_638\n      jumpi\n        /* \"#utility.yul\":12259:12298   */\n      tag_639\n        /* \"#utility.yul\":12296:12297   */\n      0x00\n        /* \"#utility.yul\":12289:12294   */\n      dup3\n        /* \"#utility.yul\":12259:12298   */\n      tag_487\n      jump\t// in\n    tag_639:\n        /* \"#utility.yul\":12232:12233   */\n      0x01\n        /* \"#utility.yul\":12225:12230   */\n      dup2\n        /* \"#utility.yul\":12221:12234   */\n      add\n        /* \"#utility.yul\":12212:12234   */\n      swap1\n      pop\n        /* \"#utility.yul\":12188:12308   */\n      jump(tag_636)\n    tag_638:\n        /* \"#utility.yul\":12128:12314   */\n      pop\n      pop\n      jump\t// out\n        /* \"#utility.yul\":12320:12863   */\n    tag_489:\n        /* \"#utility.yul\":12421:12423   */\n      0x1f\n        /* \"#utility.yul\":12416:12419   */\n      dup3\n        /* \"#utility.yul\":12413:12424   */\n      gt\n        /* \"#utility.yul\":12410:12856   */\n      iszero\n      tag_641\n      jumpi\n        /* \"#utility.yul\":12455:12493   */\n      tag_642\n        /* \"#utility.yul\":12487:12492   */\n      dup2\n        /* \"#utility.yul\":12455:12493   */\n      tag_478\n      jump\t// in\n    tag_642:\n        /* \"#utility.yul\":12539:12568   */\n      tag_643\n        /* \"#utility.yul\":12557:12567   */\n      dup5\n        /* \"#utility.yul\":12539:12568   */\n      tag_479\n      jump\t// in\n    tag_643:\n        /* \"#utility.yul\":12529:12537   */\n      dup2\n        /* \"#utility.yul\":12525:12569   */\n      add\n        /* \"#utility.yul\":12722:12724   */\n      0x20\n        /* \"#utility.yul\":12710:12720   */\n      dup6\n        /* \"#utility.yul\":12707:12725   */\n      lt\n        /* \"#utility.yul\":12704:12753   */\n      iszero\n      tag_644\n      jumpi\n        /* \"#utility.yul\":12743:12751   */\n      dup2\n        /* \"#utility.yul\":12728:12751   */\n      swap1\n      pop\n        /* \"#utility.yul\":12704:12753   */\n    tag_644:\n        /* \"#utility.yul\":12766:12846   */\n      tag_645\n        /* \"#utility.yul\":12822:12844   */\n      tag_646\n        /* \"#utility.yul\":12840:12843   */\n      dup6\n        /* \"#utility.yul\":12822:12844   */\n      tag_479\n      jump\t// in\n    tag_646:\n        /* \"#utility.yul\":12812:12820   */\n      dup4\n        /* \"#utility.yul\":12808:12845   */\n      add\n        /* \"#utility.yul\":12795:12806   */\n      dup3\n        /* \"#utility.yul\":12766:12846   */\n      tag_488\n      jump\t// in\n    tag_645:\n        /* \"#utility.yul\":12425:12856   */\n      pop\n      pop\n        /* \"#utility.yul\":12410:12856   */\n    tag_641:\n        /* \"#utility.yul\":12320:12863   */\n      pop\n      pop\n      pop\n      jump\t// out\n        /* \"#utility.yul\":12869:12986   */\n    tag_490:\n        /* \"#utility.yul\":12923:12931   */\n      0x00\n        /* \"#utility.yul\":12973:12978   */\n      dup3\n        /* \"#utility.yul\":12967:12971   */\n      dup3\n        /* \"#utility.yul\":12963:12979   */\n      shr\n        /* \"#utility.yul\":12942:12979   */\n      swap1\n      pop\n        /* \"#utility.yul\":12869:12986   */\n      swap3\n      swap2\n      pop\n      pop\n      jump\t// out\n        /* \"#utility.yul\":12992:13161   */\n    tag_491:\n        /* \"#utility.yul\":13036:13042   */\n      0x00\n        /* \"#utility.yul\":13069:13120   */\n      tag_649\n        /* \"#utility.yul\":13117:13118   */\n      0x00\n        /* \"#utility.yul\":13113:13119   */\n      not\n        /* \"#utility.yul\":13105:13110   */\n      dup5\n        /* \"#utility.yul\":13102:13103   */\n      0x08\n        /* \"#utility.yul\":13098:13111   */\n      mul\n        /* \"#utility.yul\":13069:13120   */\n      tag_490\n      jump\t// in\n    tag_649:\n        /* \"#utility.yul\":13065:13121   */\n      not\n        /* \"#utility.yul\":13150:13154   */\n      dup1\n        /* \"#utility.yul\":13144:13148   */\n      dup4\n        /* \"#utility.yul\":13140:13155   */\n      and\n        /* \"#utility.yul\":13130:13155   */\n      swap2\n      pop\n        /* \"#utility.yul\":13043:13161   */\n      pop\n        /* \"#utility.yul\":12992:13161   */\n      swap3\n      swap2\n      pop\n      pop\n      jump\t// out\n        /* \"#utility.yul\":13166:13461   */\n    tag_492:\n        /* \"#utility.yul\":13242:13246   */\n      0x00\n        /* \"#utility.yul\":13388:13417   */\n      tag_651\n        /* \"#utility.yul\":13413:13416   */\n      dup4\n        /* \"#utility.yul\":13407:13411   */\n      dup4\n        /* \"#utility.yul\":13388:13417   */\n      tag_491\n      jump\t// in\n    tag_651:\n        /* \"#utility.yul\":13380:13417   */\n      swap2\n      pop\n        /* \"#utility.yul\":13450:13453   */\n      dup3\n        /* \"#utility.yul\":13447:13448   */\n      0x02\n        /* \"#utility.yul\":13443:13454   */\n      mul\n        /* \"#utility.yul\":13437:13441   */\n      dup3\n        /* \"#utility.yul\":13434:13455   */\n      or\n        /* \"#utility.yul\":13426:13455   */\n      swap1\n      pop\n        /* \"#utility.yul\":13166:13461   */\n      swap3\n      swap2\n      pop\n      pop\n      jump\t// out\n        /* \"#utility.yul\":13466:14861   */\n    tag_241:\n        /* \"#utility.yul\":13583:13620   */\n      tag_653\n        /* \"#utility.yul\":13616:13619   */\n      dup3\n        /* \"#utility.yul\":13583:13620   */\n      tag_450\n      jump\t// in\n    tag_653:\n        /* \"#utility.yul\":13685:13703   */\n      0xffffffffffffffff\n        /* \"#utility.yul\":13677:13683   */\n      dup2\n        /* \"#utility.yul\":13674:13704   */\n      gt\n        /* \"#utility.yul\":13671:13727   */\n      iszero\n      tag_654\n      jumpi\n        /* \"#utility.yul\":13707:13725   */\n      tag_655\n      tag_385\n      jump\t// in\n    tag_655:\n        /* \"#utility.yul\":13671:13727   */\n    tag_654:\n        /* \"#utility.yul\":13751:13789   */\n      tag_656\n        /* \"#utility.yul\":13783:13787   */\n      dup3\n        /* \"#utility.yul\":13777:13788   */\n      sload\n        /* \"#utility.yul\":13751:13789   */\n      tag_231\n      jump\t// in\n    tag_656:\n        /* \"#utility.yul\":13836:13903   */\n      tag_657\n        /* \"#utility.yul\":13896:13902   */\n      dup3\n        /* \"#utility.yul\":13888:13894   */\n      dup3\n        /* \"#utility.yul\":13882:13886   */\n      dup6\n        /* \"#utility.yul\":13836:13903   */\n      tag_489\n      jump\t// in\n    tag_657:\n        /* \"#utility.yul\":13930:13931   */\n      0x00\n        /* \"#utility.yul\":13954:13958   */\n      0x20\n        /* \"#utility.yul\":13941:13958   */\n      swap1\n      pop\n        /* \"#utility.yul\":13986:13988   */\n      0x1f\n        /* \"#utility.yul\":13978:13984   */\n      dup4\n        /* \"#utility.yul\":13975:13989   */\n      gt\n        /* \"#utility.yul\":14003:14004   */\n      0x01\n        /* \"#utility.yul\":13998:14616   */\n      dup2\n      eq\n      tag_659\n      jumpi\n        /* \"#utility.yul\":14660:14661   */\n      0x00\n        /* \"#utility.yul\":14677:14683   */\n      dup5\n        /* \"#utility.yul\":14674:14751   */\n      iszero\n      tag_660\n      jumpi\n        /* \"#utility.yul\":14726:14735   */\n      dup3\n        /* \"#utility.yul\":14721:14724   */\n      dup8\n        /* \"#utility.yul\":14717:14736   */\n      add\n        /* \"#utility.yul\":14711:14737   */\n      mload\n        /* \"#utility.yul\":14702:14737   */\n      swap1\n      pop\n        /* \"#utility.yul\":14674:14751   */\n    tag_660:\n        /* \"#utility.yul\":14777:14844   */\n      tag_661\n        /* \"#utility.yul\":14837:14843   */\n      dup6\n        /* \"#utility.yul\":14830:14835   */\n      dup3\n        /* \"#utility.yul\":14777:14844   */\n      tag_492\n      jump\t// in\n    tag_661:\n        /* \"#utility.yul\":14771:14775   */\n      dup7\n        /* \"#utility.yul\":14764:14845   */\n      sstore\n        /* \"#utility.yul\":14633:14855   */\n      pop\n        /* \"#utility.yul\":13968:14855   */\n      jump(tag_658)\n        /* \"#utility.yul\":13998:14616   */\n    tag_659:\n        /* \"#utility.yul\":14050:14054   */\n      0x1f\n        /* \"#utility.yul\":14046:14055   */\n      not\n        /* \"#utility.yul\":14038:14044   */\n      dup5\n        /* \"#utility.yul\":14034:14056   */\n      and\n        /* \"#utility.yul\":14084:14121   */\n      tag_662\n        /* \"#utility.yul\":14116:14120   */\n      dup7\n        /* \"#utility.yul\":14084:14121   */\n      tag_478\n      jump\t// in\n    tag_662:\n        /* \"#utility.yul\":14143:14144   */\n      0x00\n        /* \"#utility.yul\":14157:14365   */\n    tag_663:\n        /* \"#utility.yul\":14171:14178   */\n      dup3\n        /* \"#utility.yul\":14168:14169   */\n      dup2\n        /* \"#utility.yul\":14165:14179   */\n      lt\n        /* \"#utility.yul\":14157:14365   */\n      iszero\n      tag_665\n      jumpi\n        /* \"#utility.yul\":14250:14259   */\n      dup5\n        /* \"#utility.yul\":14245:14248   */\n      dup10\n        /* \"#utility.yul\":14241:14260   */\n      add\n        /* \"#utility.yul\":14235:14261   */\n      mload\n        /* \"#utility.yul\":14227:14233   */\n      dup3\n        /* \"#utility.yul\":14220:14262   */\n      sstore\n        /* \"#utility.yul\":14301:14302   */\n      0x01\n        /* \"#utility.yul\":14293:14299   */\n      dup3\n        /* \"#utility.yul\":14289:14303   */\n      add\n        /* \"#utility.yul\":14279:14303   */\n      swap2\n      pop\n        /* \"#utility.yul\":14348:14350   */\n      0x20\n        /* \"#utility.yul\":14337:14346   */\n      dup6\n        /* \"#utility.yul\":14333:14351   */\n      add\n        /* \"#utility.yul\":14320:14351   */\n      swap5\n      pop\n        /* \"#utility.yul\":14194:14198   */\n      0x20\n        /* \"#utility.yul\":14191:14192   */\n      dup2\n        /* \"#utility.yul\":14187:14199   */\n      add\n        /* \"#utility.yul\":14182:14199   */\n      swap1\n      pop\n        /* \"#utility.yul\":14157:14365   */\n      jump(tag_663)\n    tag_665:\n        /* \"#utility.yul\":14393:14399   */\n      dup7\n        /* \"#utility.yul\":14384:14391   */\n      dup4\n        /* \"#utility.yul\":14381:14400   */\n      lt\n        /* \"#utility.yul\":14378:14557   */\n      iszero\n      tag_666\n      jumpi\n        /* \"#utility.yul\":14451:14460   */\n      dup5\n        /* \"#utility.yul\":14446:14449   */\n      dup10\n        /* \"#utility.yul\":14442:14461   */\n      add\n        /* \"#utility.yul\":14436:14462   */\n      mload\n        /* \"#utility.yul\":14494:14542   */\n      tag_667\n        /* \"#utility.yul\":14536:14540   */\n      0x1f\n        /* \"#utility.yul\":14528:14534   */\n      dup10\n        /* \"#utility.yul\":14524:14541   */\n      and\n        /* \"#utility.yul\":14513:14522   */\n      dup3\n        /* \"#utility.yul\":14494:14542   */\n      tag_491\n      jump\t// in\n    tag_667:\n        /* \"#utility.yul\":14486:14492   */\n      dup4\n        /* \"#utility.yul\":14479:14543   */\n      sstore\n        /* \"#utility.yul\":14401:14557   */\n      pop\n        /* \"#utility.yul\":14378:14557   */\n    tag_666:\n        /* \"#utility.yul\":14603:14604   */\n      0x01\n        /* \"#utility.yul\":14599:14600   */\n      0x02\n        /* \"#utility.yul\":14591:14597   */\n      dup9\n        /* \"#utility.yul\":14587:14601   */\n      mul\n        /* \"#utility.yul\":14583:14605   */\n      add\n        /* \"#utility.yul\":14577:14581   */\n      dup9\n        /* \"#utility.yul\":14570:14606   */\n      sstore\n        /* \"#utility.yul\":14005:14616   */\n      pop\n      pop\n      pop\n        /* \"#utility.yul\":13968:14855   */\n    tag_658:\n      pop\n        /* \"#utility.yul\":13558:14861   */\n      pop\n      pop\n      pop\n        /* \"#utility.yul\":13466:14861   */\n      pop\n      pop\n      jump\t// out\n        /* \"#utility.yul\":14867:15047   */\n    tag_493:\n        /* \"#utility.yul\":14915:14992   */\n      0x4e487b7100000000000000000000000000000000000000000000000000000000\n        /* \"#utility.yul\":14912:14913   */\n      0x00\n        /* \"#utility.yul\":14905:14993   */\n      mstore\n        /* \"#utility.yul\":15012:15016   */\n      0x11\n        /* \"#utility.yul\":15009:15010   */\n      0x04\n        /* \"#utility.yul\":15002:15017   */\n      mstore\n        /* \"#utility.yul\":15036:15040   */\n      0x24\n        /* \"#utility.yul\":15033:15034   */\n      0x00\n        /* \"#utility.yul\":15026:15041   */\n      revert\n        /* \"#utility.yul\":15053:15286   */\n    tag_244:\n        /* \"#utility.yul\":15092:15095   */\n      0x00\n        /* \"#utility.yul\":15115:15139   */\n      tag_670\n        /* \"#utility.yul\":15133:15138   */\n      dup3\n        /* \"#utility.yul\":15115:15139   */\n      tag_448\n      jump\t// in\n    tag_670:\n        /* \"#utility.yul\":15106:15139   */\n      swap2\n      pop\n        /* \"#utility.yul\":15161:15227   */\n      0xffffffffffffffffffffffffffffffffffffffffffffffffffffffffffffffff\n        /* \"#utility.yul\":15154:15159   */\n      dup3\n        /* \"#utility.yul\":15151:15228   */\n      sub\n        /* \"#utility.yul\":15148:15251   */\n      tag_671\n      jumpi\n        /* \"#utility.yul\":15231:15249   */\n      tag_672\n      tag_493\n      jump\t// in\n    tag_672:\n        /* \"#utility.yul\":15148:15251   */\n    tag_671:\n        /* \"#utility.yul\":15278:15279   */\n      0x01\n        /* \"#utility.yul\":15271:15276   */\n      dup3\n        /* \"#utility.yul\":15267:15280   */\n      add\n        /* \"#utility.yul\":15260:15280   */\n      swap1\n      pop\n        /* \"#utility.yul\":15053:15286   */\n      swap2\n      swap1\n      pop\n      jump\t// out\n        /* \"#utility.yul\":15292:15483   */\n    tag_247:\n        /* \"#utility.yul\":15332:15336   */\n      0x00\n        /* \"#utility.yul\":15352:15372   */\n      tag_674\n        /* \"#utility.yul\":15370:15371   */\n      dup3\n        /* \"#utility.yul\":15352:15372   */\n      tag_448\n      jump\t// in\n    tag_674:\n        /* \"#utility.yul\":15347:15372   */\n      swap2\n      pop\n        /* \"#utility.yul\":15386:15406   */\n      tag_675\n        /* \"#utility.yul\":15404:15405   */\n      dup4\n        /* \"#utility.yul\":15386:15406   */\n      tag_448\n      jump\t// in\n    tag_675:\n        /* \"#utility.yul\":15381:15406   */\n      swap3\n      pop\n        /* \"#utility.yul\":15425:15426   */\n      dup3\n        /* \"#utility.yul\":15422:15423   */\n      dup3\n        /* \"#utility.yul\":15419:15427   */\n      lt\n        /* \"#utility.yul\":15416:15450   */\n      iszero\n      tag_676\n      jumpi\n        /* \"#utility.yul\":15430:15448   */\n      tag_677\n      tag_493\n      jump\t// in\n    tag_677:\n        /* \"#utility.yul\":15416:15450   */\n    tag_676:\n        /* \"#utility.yul\":15475:15476   */\n      dup3\n        /* \"#utility.yul\":15472:15473   */\n      dup3\n        /* \"#utility.yul\":15468:15477   */\n      sub\n        /* \"#utility.yul\":15460:15477   */\n      swap1\n      pop\n        /* \"#utility.yul\":15292:15483   */\n      swap3\n      swap2\n      pop\n      pop\n      jump\t// out\n        /* \"#utility.yul\":15489:15837   */\n    tag_249:\n        /* \"#utility.yul\":15529:15536   */\n      0x00\n        /* \"#utility.yul\":15552:15572   */\n      tag_679\n        /* \"#utility.yul\":15570:15571   */\n      dup3\n        /* \"#utility.yul\":15552:15572   */\n      tag_448\n      jump\t// in\n    tag_679:\n        /* \"#utility.yul\":15547:15572   */\n      swap2\n      pop\n        /* \"#utility.yul\":15586:15606   */\n      tag_680\n        /* \"#utility.yul\":15604:15605   */\n      dup4\n        /* \"#utility.yul\":15586:15606   */\n      tag_448\n      jump\t// in\n    tag_680:\n        /* \"#utility.yul\":15581:15606   */\n      swap3\n      pop\n        /* \"#utility.yul\":15774:15775   */\n      dup2\n        /* \"#utility.yul\":15706:15772   */\n      0xffffffffffffffffffffffffffffffffffffffffffffffffffffffffffffffff\n        /* \"#utility.yul\":15702:15776   */\n      div\n        /* \"#utility.yul\":15699:15700   */\n      dup4\n        /* \"#utility.yul\":15696:15777   */\n      gt\n        /* \"#utility.yul\":15691:15692   */\n      dup3\n        /* \"#utility.yul\":15684:15693   */\n      iszero\n        /* \"#utility.yul\":15677:15694   */\n      iszero\n        /* \"#utility.yul\":15673:15778   */\n      and\n        /* \"#utility.yul\":15670:15801   */\n      iszero\n      tag_681\n      jumpi\n        /* \"#utility.yul\":15781:15799   */\n      tag_682\n      tag_493\n      jump\t// in\n    tag_682:\n        /* \"#utility.yul\":15670:15801   */\n    tag_681:\n        /* \"#utility.yul\":15829:15830   */\n      dup3\n        /* \"#utility.yul\":15826:15827   */\n      dup3\n        /* \"#utility.yul\":15822:15831   */\n      mul\n        /* \"#utility.yul\":15811:15831   */\n      swap1\n      pop\n        /* \"#utility.yul\":15489:15837   */\n      swap3\n      swap2\n      pop\n      pop\n      jump\t// out\n        /* \"#utility.yul\":15843:16023   */\n    tag_494:\n        /* \"#utility.yul\":15891:15968   */\n      0x4e487b7100000000000000000000000000000000000000000000000000000000\n        /* \"#utility.yul\":15888:15889   */\n      0x00\n        /* \"#utility.yul\":15881:15969   */\n      mstore\n        /* \"#utility.yul\":15988:15992   */\n      0x12\n        /* \"#utility.yul\":15985:15986   */\n      0x04\n        /* \"#utility.yul\":15978:15993   */\n      mstore\n        /* \"#utility.yul\":16012:16016   */\n      0x24\n        /* \"#utility.yul\":16009:16010   */\n      0x00\n        /* \"#utility.yul\":16002:16017   */\n      revert\n        /* \"#utility.yul\":16029:16214   */\n    tag_251:\n        /* \"#utility.yul\":16069:16070   */\n      0x00\n        /* \"#utility.yul\":16086:16106   */\n      tag_685\n        /* \"#utility.yul\":16104:16105   */\n      dup3\n        /* \"#utility.yul\":16086:16106   */\n      tag_448\n      jump\t// in\n    tag_685:\n        /* \"#utility.yul\":16081:16106   */\n      swap2\n      pop\n        /* \"#utility.yul\":16120:16140   */\n      tag_686\n        /* \"#utility.yul\":16138:16139   */\n      dup4\n        /* \"#utility.yul\":16120:16140   */\n      tag_448\n      jump\t// in\n    tag_686:\n        /* \"#utility.yul\":16115:16140   */\n      swap3\n      pop\n        /* \"#utility.yul\":16159:16160   */\n      dup3\n        /* \"#utility.yul\":16149:16184   */\n      tag_687\n      jumpi\n        /* \"#utility.yul\":16164:16182   */\n      tag_688\n      tag_494\n      jump\t// in\n    tag_688:\n        /* \"#utility.yul\":16149:16184   */\n    tag_687:\n        /* \"#utility.yul\":16206:16207   */\n      dup3\n        /* \"#utility.yul\":16203:16204   */\n      dup3\n        /* \"#utility.yul\":16199:16208   */\n      div\n        /* \"#utility.yul\":16194:16208   */\n      swap1\n      pop\n        /* \"#utility.yul\":16029:16214   */\n      swap3\n      swap2\n      pop\n      pop\n      jump\t// out\n        /* \"#utility.yul\":16220:16400   */\n    tag_255:\n        /* \"#utility.yul\":16268:16345   */\n      0x4e487b7100000000000000000000000000000000000000000000000000000000\n        /* \"#utility.yul\":16265:16266   */\n      0x00\n        /* \"#utility.yul\":16258:16346   */\n      mstore\n        /* \"#utility.yul\":16365:16369   */\n      0x32\n        /* \"#utility.yul\":16362:16363   */\n      0x04\n        /* \"#utility.yul\":16355:16370   */\n      mstore\n        /* \"#utility.yul\":16389:16393   */\n      0x24\n        /* \"#utility.yul\":16386:16387   */\n      0x00\n        /* \"#utility.yul\":16379:16394   */\n      revert\n        /* \"#utility.yul\":16406:16711   */\n    tag_337:\n        /* \"#utility.yul\":16446:16449   */\n      0x00\n        /* \"#utility.yul\":16465:16485   */\n      tag_691\n        /* \"#utility.yul\":16483:16484   */\n      dup3\n        /* \"#utility.yul\":16465:16485   */\n      tag_448\n      jump\t// in\n    tag_691:\n        /* \"#utility.yul\":16460:16485   */\n      swap2\n      pop\n        /* \"#utility.yul\":16499:16519   */\n      tag_692\n        /* \"#utility.yul\":16517:16518   */\n      dup4\n        /* \"#utility.yul\":16499:16519   */\n      tag_448\n      jump\t// in\n    tag_692:\n        /* \"#utility.yul\":16494:16519   */\n      swap3\n      pop\n        /* \"#utility.yul\":16653:16654   */\n      dup3\n        /* \"#utility.yul\":16585:16651   */\n      0xffffffffffffffffffffffffffffffffffffffffffffffffffffffffffffffff\n        /* \"#utility.yul\":16581:16655   */\n      sub\n        /* \"#utility.yul\":16578:16579   */\n      dup3\n        /* \"#utility.yul\":16575:16656   */\n      gt\n        /* \"#utility.yul\":16572:16679   */\n      iszero\n      tag_693\n      jumpi\n        /* \"#utility.yul\":16659:16677   */\n      tag_694\n      tag_493\n      jump\t// in\n    tag_694:\n        /* \"#utility.yul\":16572:16679   */\n    tag_693:\n        /* \"#utility.yul\":16703:16704   */\n      dup3\n        /* \"#utility.yul\":16700:16701   */\n      dup3\n        /* \"#utility.yul\":16696:16705   */\n      add\n        /* \"#utility.yul\":16689:16705   */\n      swap1\n      pop\n        /* \"#utility.yul\":16406:16711   */\n      swap3\n      swap2\n      pop\n      pop\n      jump\t// out\n        /* \"#utility.yul\":16717:16888   */\n    tag_358:\n        /* \"#utility.yul\":16756:16759   */\n      0x00\n        /* \"#utility.yul\":16779:16803   */\n      tag_696\n        /* \"#utility.yul\":16797:16802   */\n      dup3\n        /* \"#utility.yul\":16779:16803   */\n      tag_448\n      jump\t// in\n    tag_696:\n        /* \"#utility.yul\":16770:16803   */\n      swap2\n      pop\n        /* \"#utility.yul\":16825:16829   */\n      0x00\n        /* \"#utility.yul\":16818:16823   */\n      dup3\n        /* \"#utility.yul\":16815:16830   */\n      sub\n        /* \"#utility.yul\":16812:16853   */\n      tag_697\n      jumpi\n        /* \"#utility.yul\":16833:16851   */\n      tag_698\n      tag_493\n      jump\t// in\n    tag_698:\n        /* \"#utility.yul\":16812:16853   */\n    tag_697:\n        /* \"#utility.yul\":16880:16881   */\n      0x01\n        /* \"#utility.yul\":16873:16878   */\n      dup3\n        /* \"#utility.yul\":16869:16882   */\n      sub\n        /* \"#utility.yul\":16862:16882   */\n      swap1\n      pop\n        /* \"#utility.yul\":16717:16888   */\n      swap2\n      swap1\n      pop\n      jump\t// out\n\n    auxdata: 0xa264697066735822122095f3880164ab08520a65435793ab4dd80f2be385dbf579d8366169367125725064736f6c634300080f0033\n}\n","bytecode":{"linkReferences":{},"object":"60806040526103e860005561032060015560646002556014600355600480556000600a556000600c553480156200003557600080fd5b50604051620035b0380380620035b083398181016040528101906200005b9190620003aa565b80600590816200006c919062000692565b5081600760006101000a81548173ffffffffffffffffffffffffffffffffffffffff021916908373ffffffffffffffffffffffffffffffffffffffff16021790555082600660006101000a81548173ffffffffffffffffffffffffffffffffffffffff021916908373ffffffffffffffffffffffffffffffffffffffff160217905550846010819055504260118190555062015180846200010e9190620007a8565b426200011b919062000809565b60138190555062015180600354620001349190620007a8565b4262000141919062000809565b6012819055506000601460006101000a81548160ff021916908315150217905550505050505062000866565b6000604051905090565b600080fd5b600080fd5b6000819050919050565b620001968162000181565b8114620001a257600080fd5b50565b600081519050620001b6816200018b565b92915050565b600073ffffffffffffffffffffffffffffffffffffffff82169050919050565b6000620001e982620001bc565b9050919050565b620001fb81620001dc565b81146200020757600080fd5b50565b6000815190506200021b81620001f0565b92915050565b600080fd5b600080fd5b6000601f19601f8301169050919050565b7f4e487b7100000000000000000000000000000000000000000000000000000000600052604160045260246000fd5b62000276826200022b565b810181811067ffffffffffffffff821117156200029857620002976200023c565b5b80604052505050565b6000620002ad6200016d565b9050620002bb82826200026b565b919050565b600067ffffffffffffffff821115620002de57620002dd6200023c565b5b620002e9826200022b565b9050602081019050919050565b60005b8381101562000316578082015181840152602081019050620002f9565b8381111562000326576000848401525b50505050565b6000620003436200033d84620002c0565b620002a1565b90508281526020810184848401111562000362576200036162000226565b5b6200036f848285620002f6565b509392505050565b600082601f8301126200038f576200038e62000221565b5b8151620003a18482602086016200032c565b91505092915050565b600080600080600060a08688031215620003c957620003c862000177565b5b6000620003d988828901620001a5565b9550506020620003ec88828901620001a5565b9450506040620003ff888289016200020a565b935050606062000412888289016200020a565b925050608086015167ffffffffffffffff8111156200043657620004356200017c565b5b620004448882890162000377565b9150509295509295909350565b600081519050919050565b7f4e487b7100000000000000000000000000000000000000000000000000000000600052602260045260246000fd5b60006002820490506001821680620004a457607f821691505b602082108103620004ba57620004b96200045c565b5b50919050565b60008190508160005260206000209050919050565b60006020601f8301049050919050565b600082821b905092915050565b600060088302620005247fffffffffffffffffffffffffffffffffffffffffffffffffffffffffffffffff82620004e5565b620005308683620004e5565b95508019841693508086168417925050509392505050565b6000819050919050565b6000620005736200056d620005678462000181565b62000548565b62000181565b9050919050565b6000819050919050565b6200058f8362000552565b620005a76200059e826200057a565b848454620004f2565b825550505050565b600090565b620005be620005af565b620005cb81848462000584565b505050565b5b81811015620005f357620005e7600082620005b4565b600181019050620005d1565b5050565b601f82111562000642576200060c81620004c0565b6200061784620004d5565b8101602085101562000627578190505b6200063f6200063685620004d5565b830182620005d0565b50505b505050565b600082821c905092915050565b6000620006676000198460080262000647565b1980831691505092915050565b600062000682838362000654565b9150826002028217905092915050565b6200069d8262000451565b67ffffffffffffffff811115620006b957620006b86200023c565b5b620006c582546200048b565b620006d2828285620005f7565b600060209050601f8311600181146200070a5760008415620006f5578287015190505b62000701858262000674565b86555062000771565b601f1984166200071a86620004c0565b60005b8281101562000744578489015182556001820191506020850194506020810190506200071d565b8683101562000764578489015162000760601f89168262000654565b8355505b6001600288020188555050505b505050505050565b7f4e487b7100000000000000000000000000000000000000000000000000000000600052601160045260246000fd5b6000620007b58262000181565b9150620007c28362000181565b9250817fffffffffffffffffffffffffffffffffffffffffffffffffffffffffffffffff0483118215151615620007fe57620007fd62000779565b5b828202905092915050565b6000620008168262000181565b9150620008238362000181565b9250827fffffffffffffffffffffffffffffffffffffffffffffffffffffffffffffffff038211156200085b576200085a62000779565b5b828201905092915050565b612d3a80620008766000396000f3fe6080604052600436106102465760003560e01c8063842a7f9b11610139578063b688a363116100b6578063e0d370ac1161007a578063e0d370ac14610860578063f63f96551461088b578063fbae5e7d146108cc578063fd74d29414610909578063fda263e814610934578063ff65226c1461095f57610246565b8063b688a36314610798578063d4deada4146107a2578063d7898240146107cd578063de281d6c1461080a578063e028a6931461083557610246565b806398e1b410116100fd57806398e1b410146106aa578063999cc5ca146106c8578063a4758c9a14610705578063acdb834114610730578063b2f8be5c1461075b57610246565b8063842a7f9b146105e7578063864a53dc146106125780638975aa0814610629578063937e09b114610654578063972c53561461067f57610246565b8063364548cd116101c75780635fb02f4d1161018b5780635fb02f4d1461052857806370ba11131461053f578063767e0b9c1461056a578063789b2e6c14610593578063816c97ba146105aa57610246565b8063364548cd1461042d5780633ba20f2a1461046a5780633d22aea81461049557806342494297146104d2578063481c6a75146104fd57610246565b80632ef3fa271161020e5780632ef3fa27146103325780632f5274e31461035d57806331d0e40f1461038857806332b7acec146103b3578063361af171146103f057610246565b8063019998701461024b57806306fdde03146102765780630d70d1a7146102a15780631e28528e146102cc5780632b84b31614610309575b600080fd5b34801561025757600080fd5b5061026061098a565b60405161026d91906122d8565b60405180910390f35b34801561028257600080fd5b5061028b610990565b604051610298919061238c565b60405180910390f35b3480156102ad57600080fd5b506102b6610a1e565b6040516102c391906122d8565b60405180910390f35b3480156102d857600080fd5b506102f360048036038101906102ee9190612420565b610a24565b6040516103009190612468565b60405180910390f35b34801561031557600080fd5b50610330600480360381019061032b91906125e4565b610a44565b005b34801561033e57600080fd5b50610347610b0d565b60405161035491906122d8565b60405180910390f35b34801561036957600080fd5b50610372610b3b565b60405161037f91906122d8565b60405180910390f35b34801561039457600080fd5b5061039d610b41565b6040516103aa91906122d8565b60405180910390f35b3480156103bf57600080fd5b506103da60048036038101906103d59190612420565b610b47565b6040516103e791906122d8565b60405180910390f35b3480156103fc57600080fd5b506104176004803603810190610412919061266f565b610b5f565b6040516104249190612468565b60405180910390f35b34801561043957600080fd5b50610454600480360381019061044f9190612420565b610bdd565b6040516104619190612468565b60405180910390f35b34801561047657600080fd5b5061047f610bfd565b60405161048c91906122d8565b60405180910390f35b3480156104a157600080fd5b506104bc60048036038101906104b7919061266f565b610c03565b6040516104c99190612468565b60405180910390f35b3480156104de57600080fd5b506104e7610d58565b6040516104f491906122d8565b60405180910390f35b34801561050957600080fd5b50610512610d5e565b60405161051f91906126ab565b60405180910390f35b34801561053457600080fd5b5061053d610d84565b005b34801561054b57600080fd5b50610554610f15565b60405161056191906122d8565b60405180910390f35b34801561057657600080fd5b50610591600480360381019061058c91906126f2565b610f1b565b005b34801561059f57600080fd5b506105a8611076565b005b3480156105b657600080fd5b506105d160048036038101906105cc9190612732565b6112f9565b6040516105de9190612468565b60405180910390f35b3480156105f357600080fd5b506105fc611378565b60405161060991906122d8565b60405180910390f35b34801561061e57600080fd5b5061062761137e565b005b34801561063557600080fd5b5061063e6114f2565b60405161064b91906122d8565b60405180910390f35b34801561066057600080fd5b506106696114f8565b60405161067691906122d8565b60405180910390f35b34801561068b57600080fd5b506106946114fe565b6040516106a191906122d8565b60405180910390f35b6106b2611504565b6040516106bf9190612468565b60405180910390f35b3480156106d457600080fd5b506106ef60048036038101906106ea9190612420565b61150d565b6040516106fc9190612468565b60405180910390f35b34801561071157600080fd5b5061071a61152d565b60405161072791906122d8565b60405180910390f35b34801561073c57600080fd5b50610745611533565b60405161075291906122d8565b60405180910390f35b34801561076757600080fd5b50610782600480360381019061077d9190612772565b61164b565b60405161078f9190612468565b60405180910390f35b6107a0611907565b005b3480156107ae57600080fd5b506107b7611a50565b6040516107c491906122d8565b60405180910390f35b3480156107d957600080fd5b506107f460048036038101906107ef9190612420565b611a56565b60405161080191906122d8565b60405180910390f35b34801561081657600080fd5b5061081f611a6e565b60405161082c91906122d8565b60405180910390f35b34801561084157600080fd5b5061084a611a74565b60405161085791906122d8565b60405180910390f35b34801561086c57600080fd5b50610875611a7a565b60405161088291906126ab565b60405180910390f35b34801561089757600080fd5b506108b260048036038101906108ad919061266f565b611aa0565b6040516108c39594939291906127b2565b60405180910390f35b3480156108d857600080fd5b506108f360048036038101906108ee919061266f565b611c03565b60405161090091906126ab565b60405180910390f35b34801561091557600080fd5b5061091e611c42565b60405161092b91906122d8565b60405180910390f35b34801561094057600080fd5b50610949611c48565b60405161095691906122d8565b60405180910390f35b34801561096b57600080fd5b50610974611c4e565b6040516109819190612468565b60405180910390f35b600c5481565b6005805461099d90612842565b80601f01602080910402602001604051908101604052809291908181526020018280546109c990612842565b8015610a165780601f106109eb57610100808354040283529160200191610a16565b820191906000526020600020905b8154815290600101906020018083116109f957829003601f168201915b505050505081565b60015481565b60086020528060005260406000206000915054906101000a900460ff1681565b600660009054906101000a900473ffffffffffffffffffffffffffffffffffffffff1673ffffffffffffffffffffffffffffffffffffffff163373ffffffffffffffffffffffffffffffffffffffff1614610a9e57600080fd5b60006015600181600181540180825580915050039060005260206000209060060201905082816000019081610ad39190612a1f565b5081816002018190555083816001019081610aee9190612a1f565b5060166000815480929190610b0290612b20565b919050555050505050565b60008054600254600054610b219190612b68565b47610b2c9190612b9c565b610b369190612c25565b905090565b601b5481565b60195481565b600e6020528060005260406000206000915090505481565b60008060158381548110610b7657610b75612c56565b5b906000526020600020906006020190508060050160003373ffffffffffffffffffffffffffffffffffffffff1673ffffffffffffffffffffffffffffffffffffffff16815260200190815260200160002060009054906101000a900460ff16915050919050565b60096020528060005260406000206000915054906101000a900460ff1681565b60125481565b600060011515601460009054906101000a900460ff16151514610c2557600080fd5b600660009054906101000a900473ffffffffffffffffffffffffffffffffffffffff1673ffffffffffffffffffffffffffffffffffffffff163373ffffffffffffffffffffffffffffffffffffffff1614610c7f57600080fd5b600060158381548110610c9557610c94612c56565b5b906000526020600020906006020190506002600454610cb49190612c25565b81600401541015610cc457600080fd5b600760009054906101000a900473ffffffffffffffffffffffffffffffffffffffff1673ffffffffffffffffffffffffffffffffffffffff166108fc82600201549081150290604051600060405180830381858888f19350505050158015610d30573d6000803e3d6000fd5b5060018160030160006101000a81548160ff0219169083151502179055506001915050919050565b60025481565b600660009054906101000a900473ffffffffffffffffffffffffffffffffffffffff1681565b600660009054906101000a900473ffffffffffffffffffffffffffffffffffffffff1673ffffffffffffffffffffffffffffffffffffffff163373ffffffffffffffffffffffffffffffffffffffff1614610dde57600080fd5b6001601460006101000a81548160ff0219169083151502179055506000479050600080600090505b600b80549050811015610f08576000600b8281548110610e2957610e28612c56565b5b9060005260206000200160009054906101000a900473ffffffffffffffffffffffffffffffffffffffff169050600d60008273ffffffffffffffffffffffffffffffffffffffff1673ffffffffffffffffffffffffffffffffffffffff1681526020019081526020016000205492508360005484610ea79190612b9c565b610eb19190612c25565b600e60008373ffffffffffffffffffffffffffffffffffffffff1673ffffffffffffffffffffffffffffffffffffffff16815260200190815260200160002081905550508080610f0090612b20565b915050610e06565b50610f11611c61565b5050565b60005481565b600860003373ffffffffffffffffffffffffffffffffffffffff1673ffffffffffffffffffffffffffffffffffffffff16815260200190815260200160002060009054906101000a900460ff16610f7157600080fd5b600060158381548110610f8757610f86612c56565b5b906000526020600020906006020190508060050160003373ffffffffffffffffffffffffffffffffffffffff1673ffffffffffffffffffffffffffffffffffffffff16815260200190815260200160002060009054906101000a900460ff1615610ff057600080fd5b60018160050160003373ffffffffffffffffffffffffffffffffffffffff1673ffffffffffffffffffffffffffffffffffffffff16815260200190815260200160002060006101000a81548160ff02191690831515021790555060011515821515036110715780600401600081548092919061106b90612b20565b91905055505b505050565b60026004546110859190612c25565b600a541015806110a8575060001515601460009054906101000a900460ff161515145b6110b157600080fd5b600760009054906101000a900473ffffffffffffffffffffffffffffffffffffffff1673ffffffffffffffffffffffffffffffffffffffff163373ffffffffffffffffffffffffffffffffffffffff161461110b57600080fd5b611113610b0d565b601a8190555060005b600b80549050811015611284576000600b828154811061113f5761113e612c56565b5b9060005260206000200160009054906101000a900473ffffffffffffffffffffffffffffffffffffffff16905060001515600f60008373ffffffffffffffffffffffffffffffffffffffff1673ffffffffffffffffffffffffffffffffffffffff16815260200190815260200160002060009054906101000a900460ff16151503611270576000600e60008373ffffffffffffffffffffffffffffffffffffffff1673ffffffffffffffffffffffffffffffffffffffff16815260200190815260200160002054905060008054601a548361121a9190612b9c565b6112249190612c25565b90508273ffffffffffffffffffffffffffffffffffffffff166108fc829081150290604051600060405180830381858888f1935050505015801561126c573d6000803e3d6000fd5b5050505b50808061127c90612b20565b91505061111c565b5047601981905550600660009054906101000a900473ffffffffffffffffffffffffffffffffffffffff1673ffffffffffffffffffffffffffffffffffffffff166108fc6019549081150290604051600060405180830381858888f193505050501580156112f6573d6000803e3d6000fd5b50565b600080601584815481106113105761130f612c56565b5b906000526020600020906006020190508060050160008473ffffffffffffffffffffffffffffffffffffffff1673ffffffffffffffffffffffffffffffffffffffff16815260200190815260200160002060009054906101000a900460ff1691505092915050565b600a5481565b60011515601460009054906101000a900460ff1615151461139e57600080fd5b600860003373ffffffffffffffffffffffffffffffffffffffff1673ffffffffffffffffffffffffffffffffffffffff16815260200190815260200160002060009054906101000a900460ff166113f457600080fd5b60001515600960003373ffffffffffffffffffffffffffffffffffffffff1673ffffffffffffffffffffffffffffffffffffffff16815260200190815260200160002060009054906101000a900460ff161515036114bd576001600960003373ffffffffffffffffffffffffffffffffffffffff1673ffffffffffffffffffffffffffffffffffffffff16815260200190815260200160002060006101000a81548160ff021916908315150217905550600a60008154809291906114b790612b20565b91905055505b60026004546114cc9190612c25565b600a54106114f0576000601460006101000a81548160ff0219169083151502179055505b565b60185481565b60105481565b60165481565b60006001905090565b600f6020528060005260406000206000915054906101000a900460ff1681565b601a5481565b60008060005b600b80549050811015611643576000600b828154811061155c5761155b612c56565b5b9060005260206000200160009054906101000a900473ffffffffffffffffffffffffffffffffffffffff16905060001515600f60008373ffffffffffffffffffffffffffffffffffffffff1673ffffffffffffffffffffffffffffffffffffffff16815260200190815260200160002060009054906101000a900460ff1615150361162f57600e60008273ffffffffffffffffffffffffffffffffffffffff1673ffffffffffffffffffffffffffffffffffffffff168152602001908152602001600020548361162c9190612c85565b92505b50808061163b90612b20565b915050611539565b508091505090565b600060011515601460009054906101000a900460ff1615151461166d57600080fd5b600760009054906101000a900473ffffffffffffffffffffffffffffffffffffffff1673ffffffffffffffffffffffffffffffffffffffff163373ffffffffffffffffffffffffffffffffffffffff16146116c757600080fd5b60001515600860003373ffffffffffffffffffffffffffffffffffffffff1673ffffffffffffffffffffffffffffffffffffffff16815260200190815260200160002060009054906101000a900460ff1615151461172457600080fd5b600660009054906101000a900473ffffffffffffffffffffffffffffffffffffffff1673ffffffffffffffffffffffffffffffffffffffff168373ffffffffffffffffffffffffffffffffffffffff160361177e57600080fd5b6000600e60008573ffffffffffffffffffffffffffffffffffffffff1673ffffffffffffffffffffffffffffffffffffffff16815260200190815260200160002054905060006117cc610b0d565b846117d79190612c85565b90506000805460015460005485856117ef9190612b9c565b6117f99190612c25565b6118039190612b9c565b61180d9190612c25565b9050806018819055504781116118f957601854601b819055508573ffffffffffffffffffffffffffffffffffffffff166108fc829081150290604051600060405180830381858888f1935050505015801561186c573d6000803e3d6000fd5b506001600f60008873ffffffffffffffffffffffffffffffffffffffff1673ffffffffffffffffffffffffffffffffffffffff16815260200190815260200160002060006101000a81548160ff021916908315150217905550806017819055506118d583612147565b600c60008154809291906118e890612cdb565b919050555060019350505050611901565b600093505050505b92915050565b60001515601460009054906101000a900460ff1615151461192757600080fd5b6000600d60003373ffffffffffffffffffffffffffffffffffffffff1673ffffffffffffffffffffffffffffffffffffffff168152602001908152602001600020549050600081036119fe5760105434101561198257600080fd5b600b339080600181540180825580915050600190039060005260206000200160009091909190916101000a81548173ffffffffffffffffffffffffffffffffffffffff021916908373ffffffffffffffffffffffffffffffffffffffff160217905550600c60008154809291906119f890612b20565b91905055505b3481611a0a9190612c85565b600d60003373ffffffffffffffffffffffffffffffffffffffff1673ffffffffffffffffffffffffffffffffffffffff1681526020019081526020016000208190555050565b60045481565b600d6020528060005260406000206000915090505481565b60035481565b60175481565b600760009054906101000a900473ffffffffffffffffffffffffffffffffffffffff1681565b60158181548110611ab057600080fd5b9060005260206000209060060201600091509050806000018054611ad390612842565b80601f0160208091040260200160405190810160405280929190818152602001828054611aff90612842565b8015611b4c5780601f10611b2157610100808354040283529160200191611b4c565b820191906000526020600020905b815481529060010190602001808311611b2f57829003601f168201915b505050505090806001018054611b6190612842565b80601f0160208091040260200160405190810160405280929190818152602001828054611b8d90612842565b8015611bda5780601f10611baf57610100808354040283529160200191611bda565b820191906000526020600020905b815481529060010190602001808311611bbd57829003601f168201915b5050505050908060020154908060030160009054906101000a900460ff16908060040154905085565b600b8181548110611c1357600080fd5b906000526020600020016000915054906101000a900473ffffffffffffffffffffffffffffffffffffffff1681565b60115481565b60135481565b601460009054906101000a900460ff1681565b600060045467ffffffffffffffff811115611c7f57611c7e61248d565b5b604051908082528060200260200182016040528015611cad5781602001602082028036833780820191505090505b509050600060045467ffffffffffffffff811115611cce57611ccd61248d565b5b604051908082528060200260200182016040528015611cfc5781602001602082028036833780820191505090505b50905060008060009050600080600b600081548110611d1e57611d1d612c56565b5b9060005260206000200160009054906101000a900473ffffffffffffffffffffffffffffffffffffffff1690508086600081518110611d6057611d5f612c56565b5b602002602001019073ffffffffffffffffffffffffffffffffffffffff16908173ffffffffffffffffffffffffffffffffffffffff1681525050600d60008273ffffffffffffffffffffffffffffffffffffffff1673ffffffffffffffffffffffffffffffffffffffff1681526020019081526020016000205493508385600081518110611df157611df0612c56565b5b6020026020010181815250506000600190505b600454811015611f2157600b8181548110611e2257611e21612c56565b5b9060005260206000200160009054906101000a900473ffffffffffffffffffffffffffffffffffffffff16915081878281518110611e6357611e62612c56565b5b602002602001019073ffffffffffffffffffffffffffffffffffffffff16908173ffffffffffffffffffffffffffffffffffffffff1681525050600d60008373ffffffffffffffffffffffffffffffffffffffff1673ffffffffffffffffffffffffffffffffffffffff16815260200190815260200160002054925082868281518110611ef357611ef2612c56565b5b60200260200101818152505082851115611f0e578294508093505b8080611f1990612b20565b915050611e04565b50600060045490505b600b805490508110156120ab57600b8181548110611f4b57611f4a612c56565b5b9060005260206000200160009054906101000a900473ffffffffffffffffffffffffffffffffffffffff169150600d60008373ffffffffffffffffffffffffffffffffffffffff1673ffffffffffffffffffffffffffffffffffffffff168152602001908152602001600020549250848311156120985781878581518110611fd657611fd5612c56565b5b602002602001019073ffffffffffffffffffffffffffffffffffffffff16908173ffffffffffffffffffffffffffffffffffffffff16815250508286858151811061202457612023612c56565b5b60200260200101818152505082945060005b600454811015612096578587828151811061205457612053612c56565b5b602002602001015110156120835786818151811061207557612074612c56565b5b602002602001015195508094505b808061208e90612b20565b915050612036565b505b80806120a390612b20565b915050611f2a565b5060005b60045481101561213e576001600860008984815181106120d2576120d1612c56565b5b602002602001015173ffffffffffffffffffffffffffffffffffffffff1673ffffffffffffffffffffffffffffffffffffffff16815260200190815260200160002060006101000a81548160ff021916908315150217905550808061213690612b20565b9150506120af565b50505050505050565b6000816000546121579190612b68565b905060005b600b805490508110156122ba576000600b828154811061217f5761217e612c56565b5b9060005260206000200160009054906101000a900473ffffffffffffffffffffffffffffffffffffffff16905060001515600f60008373ffffffffffffffffffffffffffffffffffffffff1673ffffffffffffffffffffffffffffffffffffffff16815260200190815260200160002060009054906101000a900460ff161515036122a657600083600054600e60008573ffffffffffffffffffffffffffffffffffffffff1673ffffffffffffffffffffffffffffffffffffffff168152602001908152602001600020546122549190612b9c565b61225e9190612c25565b905080600e60008473ffffffffffffffffffffffffffffffffffffffff1673ffffffffffffffffffffffffffffffffffffffff16815260200190815260200160002081905550505b5080806122b290612b20565b91505061215c565b505050565b6000819050919050565b6122d2816122bf565b82525050565b60006020820190506122ed60008301846122c9565b92915050565b600081519050919050565b600082825260208201905092915050565b60005b8381101561232d578082015181840152602081019050612312565b8381111561233c576000848401525b50505050565b6000601f19601f8301169050919050565b600061235e826122f3565b61236881856122fe565b935061237881856020860161230f565b61238181612342565b840191505092915050565b600060208201905081810360008301526123a68184612353565b905092915050565b6000604051905090565b600080fd5b600080fd5b600073ffffffffffffffffffffffffffffffffffffffff82169050919050565b60006123ed826123c2565b9050919050565b6123fd816123e2565b811461240857600080fd5b50565b60008135905061241a816123f4565b92915050565b600060208284031215612436576124356123b8565b5b60006124448482850161240b565b91505092915050565b60008115159050919050565b6124628161244d565b82525050565b600060208201905061247d6000830184612459565b92915050565b600080fd5b600080fd5b7f4e487b7100000000000000000000000000000000000000000000000000000000600052604160045260246000fd5b6124c582612342565b810181811067ffffffffffffffff821117156124e4576124e361248d565b5b80604052505050565b60006124f76123ae565b905061250382826124bc565b919050565b600067ffffffffffffffff8211156125235761252261248d565b5b61252c82612342565b9050602081019050919050565b82818337600083830152505050565b600061255b61255684612508565b6124ed565b90508281526020810184848401111561257757612576612488565b5b612582848285612539565b509392505050565b600082601f83011261259f5761259e612483565b5b81356125af848260208601612548565b91505092915050565b6125c1816122bf565b81146125cc57600080fd5b50565b6000813590506125de816125b8565b92915050565b6000806000606084860312156125fd576125fc6123b8565b5b600084013567ffffffffffffffff81111561261b5761261a6123bd565b5b6126278682870161258a565b935050602084013567ffffffffffffffff811115612648576126476123bd565b5b6126548682870161258a565b9250506040612665868287016125cf565b9150509250925092565b600060208284031215612685576126846123b8565b5b6000612693848285016125cf565b91505092915050565b6126a5816123e2565b82525050565b60006020820190506126c0600083018461269c565b92915050565b6126cf8161244d565b81146126da57600080fd5b50565b6000813590506126ec816126c6565b92915050565b60008060408385031215612709576127086123b8565b5b6000612717858286016125cf565b9250506020612728858286016126dd565b9150509250929050565b60008060408385031215612749576127486123b8565b5b6000612757858286016125cf565b92505060206127688582860161240b565b9150509250929050565b60008060408385031215612789576127886123b8565b5b60006127978582860161240b565b92505060206127a8858286016125cf565b9150509250929050565b600060a08201905081810360008301526127cc8188612353565b905081810360208301526127e08187612353565b90506127ef60408301866122c9565b6127fc6060830185612459565b61280960808301846122c9565b9695505050505050565b7f4e487b7100000000000000000000000000000000000000000000000000000000600052602260045260246000fd5b6000600282049050600182168061285a57607f821691505b60208210810361286d5761286c612813565b5b50919050565b60008190508160005260206000209050919050565b60006020601f8301049050919050565b600082821b905092915050565b6000600883026128d57fffffffffffffffffffffffffffffffffffffffffffffffffffffffffffffffff82612898565b6128df8683612898565b95508019841693508086168417925050509392505050565b6000819050919050565b600061291c612917612912846122bf565b6128f7565b6122bf565b9050919050565b6000819050919050565b61293683612901565b61294a61294282612923565b8484546128a5565b825550505050565b600090565b61295f612952565b61296a81848461292d565b505050565b5b8181101561298e57612983600082612957565b600181019050612970565b5050565b601f8211156129d3576129a481612873565b6129ad84612888565b810160208510156129bc578190505b6129d06129c885612888565b83018261296f565b50505b505050565b600082821c905092915050565b60006129f6600019846008026129d8565b1980831691505092915050565b6000612a0f83836129e5565b9150826002028217905092915050565b612a28826122f3565b67ffffffffffffffff811115612a4157612a4061248d565b5b612a4b8254612842565b612a56828285612992565b600060209050601f831160018114612a895760008415612a77578287015190505b612a818582612a03565b865550612ae9565b601f198416612a9786612873565b60005b82811015612abf57848901518255600182019150602085019450602081019050612a9a565b86831015612adc5784890151612ad8601f8916826129e5565b8355505b6001600288020188555050505b505050505050565b7f4e487b7100000000000000000000000000000000000000000000000000000000600052601160045260246000fd5b6000612b2b826122bf565b91507fffffffffffffffffffffffffffffffffffffffffffffffffffffffffffffffff8203612b5d57612b5c612af1565b5b600182019050919050565b6000612b73826122bf565b9150612b7e836122bf565b925082821015612b9157612b90612af1565b5b828203905092915050565b6000612ba7826122bf565b9150612bb2836122bf565b9250817fffffffffffffffffffffffffffffffffffffffffffffffffffffffffffffffff0483118215151615612beb57612bea612af1565b5b828202905092915050565b7f4e487b7100000000000000000000000000000000000000000000000000000000600052601260045260246000fd5b6000612c30826122bf565b9150612c3b836122bf565b925082612c4b57612c4a612bf6565b5b828204905092915050565b7f4e487b7100000000000000000000000000000000000000000000000000000000600052603260045260246000fd5b6000612c90826122bf565b9150612c9b836122bf565b9250827fffffffffffffffffffffffffffffffffffffffffffffffffffffffffffffffff03821115612cd057612ccf612af1565b5b828201905092915050565b6000612ce6826122bf565b915060008203612cf957612cf8612af1565b5b60018203905091905056fea264697066735822122095f3880164ab08520a65435793ab4dd80f2be385dbf579d8366169367125725064736f6c634300080f0033","opcodes":"PUSH1 0x80 PUSH1 0x40 MSTORE PUSH2 0x3E8 PUSH1 0x0 SSTORE PUSH2 0x320 PUSH1 0x1 SSTORE PUSH1 0x64 PUSH1 0x2 SSTORE PUSH1 0x14 PUSH1 0x3 SSTORE PUSH1 0x4 DUP1 SSTORE PUSH1 0x0 PUSH1 0xA SSTORE PUSH1 0x0 PUSH1 0xC SSTORE CALLVALUE DUP1 ISZERO PUSH3 0x35 JUMPI PUSH1 0x0 DUP1 REVERT JUMPDEST POP PUSH1 0x40 MLOAD PUSH3 0x35B0 CODESIZE SUB DUP1 PUSH3 0x35B0 DUP4 CODECOPY DUP2 DUP2 ADD PUSH1 0x40 MSTORE DUP2 ADD SWAP1 PUSH3 0x5B SWAP2 SWAP1 PUSH3 0x3AA JUMP JUMPDEST DUP1 PUSH1 0x5 SWAP1 DUP2 PUSH3 0x6C SWAP2 SWAP1 PUSH3 0x692 JUMP JUMPDEST POP DUP2 PUSH1 0x7 PUSH1 0x0 PUSH2 0x100 EXP DUP2 SLOAD DUP2 PUSH20 0xFFFFFFFFFFFFFFFFFFFFFFFFFFFFFFFFFFFFFFFF MUL NOT AND SWAP1 DUP4 PUSH20 0xFFFFFFFFFFFFFFFFFFFFFFFFFFFFFFFFFFFFFFFF AND MUL OR SWAP1 SSTORE POP DUP3 PUSH1 0x6 PUSH1 0x0 PUSH2 0x100 EXP DUP2 SLOAD DUP2 PUSH20 0xFFFFFFFFFFFFFFFFFFFFFFFFFFFFFFFFFFFFFFFF MUL NOT AND SWAP1 DUP4 PUSH20 0xFFFFFFFFFFFFFFFFFFFFFFFFFFFFFFFFFFFFFFFF AND MUL OR SWAP1 SSTORE POP DUP5 PUSH1 0x10 DUP2 SWAP1 SSTORE POP TIMESTAMP PUSH1 0x11 DUP2 SWAP1 SSTORE POP PUSH3 0x15180 DUP5 PUSH3 0x10E SWAP2 SWAP1 PUSH3 0x7A8 JUMP JUMPDEST TIMESTAMP PUSH3 0x11B SWAP2 SWAP1 PUSH3 0x809 JUMP JUMPDEST PUSH1 0x13 DUP2 SWAP1 SSTORE POP PUSH3 0x15180 PUSH1 0x3 SLOAD PUSH3 0x134 SWAP2 SWAP1 PUSH3 0x7A8 JUMP JUMPDEST TIMESTAMP PUSH3 0x141 SWAP2 SWAP1 PUSH3 0x809 JUMP JUMPDEST PUSH1 0x12 DUP2 SWAP1 SSTORE POP PUSH1 0x0 PUSH1 0x14 PUSH1 0x0 PUSH2 0x100 EXP DUP2 SLOAD DUP2 PUSH1 0xFF MUL NOT AND SWAP1 DUP4 ISZERO ISZERO MUL OR SWAP1 SSTORE POP POP POP POP POP POP PUSH3 0x866 JUMP JUMPDEST PUSH1 0x0 PUSH1 0x40 MLOAD SWAP1 POP SWAP1 JUMP JUMPDEST PUSH1 0x0 DUP1 REVERT JUMPDEST PUSH1 0x0 DUP1 REVERT JUMPDEST PUSH1 0x0 DUP2 SWAP1 POP SWAP2 SWAP1 POP JUMP JUMPDEST PUSH3 0x196 DUP2 PUSH3 0x181 JUMP JUMPDEST DUP2 EQ PUSH3 0x1A2 JUMPI PUSH1 0x0 DUP1 REVERT JUMPDEST POP JUMP JUMPDEST PUSH1 0x0 DUP2 MLOAD SWAP1 POP PUSH3 0x1B6 DUP2 PUSH3 0x18B JUMP JUMPDEST SWAP3 SWAP2 POP POP JUMP JUMPDEST PUSH1 0x0 PUSH20 0xFFFFFFFFFFFFFFFFFFFFFFFFFFFFFFFFFFFFFFFF DUP3 AND SWAP1 POP SWAP2 SWAP1 POP JUMP JUMPDEST PUSH1 0x0 PUSH3 0x1E9 DUP3 PUSH3 0x1BC JUMP JUMPDEST SWAP1 POP SWAP2 SWAP1 POP JUMP JUMPDEST PUSH3 0x1FB DUP2 PUSH3 0x1DC JUMP JUMPDEST DUP2 EQ PUSH3 0x207 JUMPI PUSH1 0x0 DUP1 REVERT JUMPDEST POP JUMP JUMPDEST PUSH1 0x0 DUP2 MLOAD SWAP1 POP PUSH3 0x21B DUP2 PUSH3 0x1F0 JUMP JUMPDEST SWAP3 SWAP2 POP POP JUMP JUMPDEST PUSH1 0x0 DUP1 REVERT JUMPDEST PUSH1 0x0 DUP1 REVERT JUMPDEST PUSH1 0x0 PUSH1 0x1F NOT PUSH1 0x1F DUP4 ADD AND SWAP1 POP SWAP2 SWAP1 POP JUMP JUMPDEST PUSH32 0x4E487B7100000000000000000000000000000000000000000000000000000000 PUSH1 0x0 MSTORE PUSH1 0x41 PUSH1 0x4 MSTORE PUSH1 0x24 PUSH1 0x0 REVERT JUMPDEST PUSH3 0x276 DUP3 PUSH3 0x22B JUMP JUMPDEST DUP2 ADD DUP2 DUP2 LT PUSH8 0xFFFFFFFFFFFFFFFF DUP3 GT OR ISZERO PUSH3 0x298 JUMPI PUSH3 0x297 PUSH3 0x23C JUMP JUMPDEST JUMPDEST DUP1 PUSH1 0x40 MSTORE POP POP POP JUMP JUMPDEST PUSH1 0x0 PUSH3 0x2AD PUSH3 0x16D JUMP JUMPDEST SWAP1 POP PUSH3 0x2BB DUP3 DUP3 PUSH3 0x26B JUMP JUMPDEST SWAP2 SWAP1 POP JUMP JUMPDEST PUSH1 0x0 PUSH8 0xFFFFFFFFFFFFFFFF DUP3 GT ISZERO PUSH3 0x2DE JUMPI PUSH3 0x2DD PUSH3 0x23C JUMP JUMPDEST JUMPDEST PUSH3 0x2E9 DUP3 PUSH3 0x22B JUMP JUMPDEST SWAP1 POP PUSH1 0x20 DUP2 ADD SWAP1 POP SWAP2 SWAP1 POP JUMP JUMPDEST PUSH1 0x0 JUMPDEST DUP4 DUP2 LT ISZERO PUSH3 0x316 JUMPI DUP1 DUP3 ADD MLOAD DUP2 DUP5 ADD MSTORE PUSH1 0x20 DUP2 ADD SWAP1 POP PUSH3 0x2F9 JUMP JUMPDEST DUP4 DUP2 GT ISZERO PUSH3 0x326 JUMPI PUSH1 0x0 DUP5 DUP5 ADD MSTORE JUMPDEST POP POP POP POP JUMP JUMPDEST PUSH1 0x0 PUSH3 0x343 PUSH3 0x33D DUP5 PUSH3 0x2C0 JUMP JUMPDEST PUSH3 0x2A1 JUMP JUMPDEST SWAP1 POP DUP3 DUP2 MSTORE PUSH1 0x20 DUP2 ADD DUP5 DUP5 DUP5 ADD GT ISZERO PUSH3 0x362 JUMPI PUSH3 0x361 PUSH3 0x226 JUMP JUMPDEST JUMPDEST PUSH3 0x36F DUP5 DUP3 DUP6 PUSH3 0x2F6 JUMP JUMPDEST POP SWAP4 SWAP3 POP POP POP JUMP JUMPDEST PUSH1 0x0 DUP3 PUSH1 0x1F DUP4 ADD SLT PUSH3 0x38F JUMPI PUSH3 0x38E PUSH3 0x221 JUMP JUMPDEST JUMPDEST DUP2 MLOAD PUSH3 0x3A1 DUP5 DUP3 PUSH1 0x20 DUP7 ADD PUSH3 0x32C JUMP JUMPDEST SWAP2 POP POP SWAP3 SWAP2 POP POP JUMP JUMPDEST PUSH1 0x0 DUP1 PUSH1 0x0 DUP1 PUSH1 0x0 PUSH1 0xA0 DUP7 DUP9 SUB SLT ISZERO PUSH3 0x3C9 JUMPI PUSH3 0x3C8 PUSH3 0x177 JUMP JUMPDEST JUMPDEST PUSH1 0x0 PUSH3 0x3D9 DUP9 DUP3 DUP10 ADD PUSH3 0x1A5 JUMP JUMPDEST SWAP6 POP POP PUSH1 0x20 PUSH3 0x3EC DUP9 DUP3 DUP10 ADD PUSH3 0x1A5 JUMP JUMPDEST SWAP5 POP POP PUSH1 0x40 PUSH3 0x3FF DUP9 DUP3 DUP10 ADD PUSH3 0x20A JUMP JUMPDEST SWAP4 POP POP PUSH1 0x60 PUSH3 0x412 DUP9 DUP3 DUP10 ADD PUSH3 0x20A JUMP JUMPDEST SWAP3 POP POP PUSH1 0x80 DUP7 ADD MLOAD PUSH8 0xFFFFFFFFFFFFFFFF DUP2 GT ISZERO PUSH3 0x436 JUMPI PUSH3 0x435 PUSH3 0x17C JUMP JUMPDEST JUMPDEST PUSH3 0x444 DUP9 DUP3 DUP10 ADD PUSH3 0x377 JUMP JUMPDEST SWAP2 POP POP SWAP3 SWAP6 POP SWAP3 SWAP6 SWAP1 SWAP4 POP JUMP JUMPDEST PUSH1 0x0 DUP2 MLOAD SWAP1 POP SWAP2 SWAP1 POP JUMP JUMPDEST PUSH32 0x4E487B7100000000000000000000000000000000000000000000000000000000 PUSH1 0x0 MSTORE PUSH1 0x22 PUSH1 0x4 MSTORE PUSH1 0x24 PUSH1 0x0 REVERT JUMPDEST PUSH1 0x0 PUSH1 0x2 DUP3 DIV SWAP1 POP PUSH1 0x1 DUP3 AND DUP1 PUSH3 0x4A4 JUMPI PUSH1 0x7F DUP3 AND SWAP2 POP JUMPDEST PUSH1 0x20 DUP3 LT DUP2 SUB PUSH3 0x4BA JUMPI PUSH3 0x4B9 PUSH3 0x45C JUMP JUMPDEST JUMPDEST POP SWAP2 SWAP1 POP JUMP JUMPDEST PUSH1 0x0 DUP2 SWAP1 POP DUP2 PUSH1 0x0 MSTORE PUSH1 0x20 PUSH1 0x0 KECCAK256 SWAP1 POP SWAP2 SWAP1 POP JUMP JUMPDEST PUSH1 0x0 PUSH1 0x20 PUSH1 0x1F DUP4 ADD DIV SWAP1 POP SWAP2 SWAP1 POP JUMP JUMPDEST PUSH1 0x0 DUP3 DUP3 SHL SWAP1 POP SWAP3 SWAP2 POP POP JUMP JUMPDEST PUSH1 0x0 PUSH1 0x8 DUP4 MUL PUSH3 0x524 PUSH32 0xFFFFFFFFFFFFFFFFFFFFFFFFFFFFFFFFFFFFFFFFFFFFFFFFFFFFFFFFFFFFFFFF DUP3 PUSH3 0x4E5 JUMP JUMPDEST PUSH3 0x530 DUP7 DUP4 PUSH3 0x4E5 JUMP JUMPDEST SWAP6 POP DUP1 NOT DUP5 AND SWAP4 POP DUP1 DUP7 AND DUP5 OR SWAP3 POP POP POP SWAP4 SWAP3 POP POP POP JUMP JUMPDEST PUSH1 0x0 DUP2 SWAP1 POP SWAP2 SWAP1 POP JUMP JUMPDEST PUSH1 0x0 PUSH3 0x573 PUSH3 0x56D PUSH3 0x567 DUP5 PUSH3 0x181 JUMP JUMPDEST PUSH3 0x548 JUMP JUMPDEST PUSH3 0x181 JUMP JUMPDEST SWAP1 POP SWAP2 SWAP1 POP JUMP JUMPDEST PUSH1 0x0 DUP2 SWAP1 POP SWAP2 SWAP1 POP JUMP JUMPDEST PUSH3 0x58F DUP4 PUSH3 0x552 JUMP JUMPDEST PUSH3 0x5A7 PUSH3 0x59E DUP3 PUSH3 0x57A JUMP JUMPDEST DUP5 DUP5 SLOAD PUSH3 0x4F2 JUMP JUMPDEST DUP3 SSTORE POP POP POP POP JUMP JUMPDEST PUSH1 0x0 SWAP1 JUMP JUMPDEST PUSH3 0x5BE PUSH3 0x5AF JUMP JUMPDEST PUSH3 0x5CB DUP2 DUP5 DUP5 PUSH3 0x584 JUMP JUMPDEST POP POP POP JUMP JUMPDEST JUMPDEST DUP2 DUP2 LT ISZERO PUSH3 0x5F3 JUMPI PUSH3 0x5E7 PUSH1 0x0 DUP3 PUSH3 0x5B4 JUMP JUMPDEST PUSH1 0x1 DUP2 ADD SWAP1 POP PUSH3 0x5D1 JUMP JUMPDEST POP POP JUMP JUMPDEST PUSH1 0x1F DUP3 GT ISZERO PUSH3 0x642 JUMPI PUSH3 0x60C DUP2 PUSH3 0x4C0 JUMP JUMPDEST PUSH3 0x617 DUP5 PUSH3 0x4D5 JUMP JUMPDEST DUP2 ADD PUSH1 0x20 DUP6 LT ISZERO PUSH3 0x627 JUMPI DUP2 SWAP1 POP JUMPDEST PUSH3 0x63F PUSH3 0x636 DUP6 PUSH3 0x4D5 JUMP JUMPDEST DUP4 ADD DUP3 PUSH3 0x5D0 JUMP JUMPDEST POP POP JUMPDEST POP POP POP JUMP JUMPDEST PUSH1 0x0 DUP3 DUP3 SHR SWAP1 POP SWAP3 SWAP2 POP POP JUMP JUMPDEST PUSH1 0x0 PUSH3 0x667 PUSH1 0x0 NOT DUP5 PUSH1 0x8 MUL PUSH3 0x647 JUMP JUMPDEST NOT DUP1 DUP4 AND SWAP2 POP POP SWAP3 SWAP2 POP POP JUMP JUMPDEST PUSH1 0x0 PUSH3 0x682 DUP4 DUP4 PUSH3 0x654 JUMP JUMPDEST SWAP2 POP DUP3 PUSH1 0x2 MUL DUP3 OR SWAP1 POP SWAP3 SWAP2 POP POP JUMP JUMPDEST PUSH3 0x69D DUP3 PUSH3 0x451 JUMP JUMPDEST PUSH8 0xFFFFFFFFFFFFFFFF DUP2 GT ISZERO PUSH3 0x6B9 JUMPI PUSH3 0x6B8 PUSH3 0x23C JUMP JUMPDEST JUMPDEST PUSH3 0x6C5 DUP3 SLOAD PUSH3 0x48B JUMP JUMPDEST PUSH3 0x6D2 DUP3 DUP3 DUP6 PUSH3 0x5F7 JUMP JUMPDEST PUSH1 0x0 PUSH1 0x20 SWAP1 POP PUSH1 0x1F DUP4 GT PUSH1 0x1 DUP2 EQ PUSH3 0x70A JUMPI PUSH1 0x0 DUP5 ISZERO PUSH3 0x6F5 JUMPI DUP3 DUP8 ADD MLOAD SWAP1 POP JUMPDEST PUSH3 0x701 DUP6 DUP3 PUSH3 0x674 JUMP JUMPDEST DUP7 SSTORE POP PUSH3 0x771 JUMP JUMPDEST PUSH1 0x1F NOT DUP5 AND PUSH3 0x71A DUP7 PUSH3 0x4C0 JUMP JUMPDEST PUSH1 0x0 JUMPDEST DUP3 DUP2 LT ISZERO PUSH3 0x744 JUMPI DUP5 DUP10 ADD MLOAD DUP3 SSTORE PUSH1 0x1 DUP3 ADD SWAP2 POP PUSH1 0x20 DUP6 ADD SWAP5 POP PUSH1 0x20 DUP2 ADD SWAP1 POP PUSH3 0x71D JUMP JUMPDEST DUP7 DUP4 LT ISZERO PUSH3 0x764 JUMPI DUP5 DUP10 ADD MLOAD PUSH3 0x760 PUSH1 0x1F DUP10 AND DUP3 PUSH3 0x654 JUMP JUMPDEST DUP4 SSTORE POP JUMPDEST PUSH1 0x1 PUSH1 0x2 DUP9 MUL ADD DUP9 SSTORE POP POP POP JUMPDEST POP POP POP POP POP POP JUMP JUMPDEST PUSH32 0x4E487B7100000000000000000000000000000000000000000000000000000000 PUSH1 0x0 MSTORE PUSH1 0x11 PUSH1 0x4 MSTORE PUSH1 0x24 PUSH1 0x0 REVERT JUMPDEST PUSH1 0x0 PUSH3 0x7B5 DUP3 PUSH3 0x181 JUMP JUMPDEST SWAP2 POP PUSH3 0x7C2 DUP4 PUSH3 0x181 JUMP JUMPDEST SWAP3 POP DUP2 PUSH32 0xFFFFFFFFFFFFFFFFFFFFFFFFFFFFFFFFFFFFFFFFFFFFFFFFFFFFFFFFFFFFFFFF DIV DUP4 GT DUP3 ISZERO ISZERO AND ISZERO PUSH3 0x7FE JUMPI PUSH3 0x7FD PUSH3 0x779 JUMP JUMPDEST JUMPDEST DUP3 DUP3 MUL SWAP1 POP SWAP3 SWAP2 POP POP JUMP JUMPDEST PUSH1 0x0 PUSH3 0x816 DUP3 PUSH3 0x181 JUMP JUMPDEST SWAP2 POP PUSH3 0x823 DUP4 PUSH3 0x181 JUMP JUMPDEST SWAP3 POP DUP3 PUSH32 0xFFFFFFFFFFFFFFFFFFFFFFFFFFFFFFFFFFFFFFFFFFFFFFFFFFFFFFFFFFFFFFFF SUB DUP3 GT ISZERO PUSH3 0x85B JUMPI PUSH3 0x85A PUSH3 0x779 JUMP JUMPDEST JUMPDEST DUP3 DUP3 ADD SWAP1 POP SWAP3 SWAP2 POP POP JUMP JUMPDEST PUSH2 0x2D3A DUP1 PUSH3 0x876 PUSH1 0x0 CODECOPY PUSH1 0x0 RETURN INVALID PUSH1 0x80 PUSH1 0x40 MSTORE PUSH1 0x4 CALLDATASIZE LT PUSH2 0x246 JUMPI PUSH1 0x0 CALLDATALOAD PUSH1 0xE0 SHR DUP1 PUSH4 0x842A7F9B GT PUSH2 0x139 JUMPI DUP1 PUSH4 0xB688A363 GT PUSH2 0xB6 JUMPI DUP1 PUSH4 0xE0D370AC GT PUSH2 0x7A JUMPI DUP1 PUSH4 0xE0D370AC EQ PUSH2 0x860 JUMPI DUP1 PUSH4 0xF63F9655 EQ PUSH2 0x88B JUMPI DUP1 PUSH4 0xFBAE5E7D EQ PUSH2 0x8CC JUMPI DUP1 PUSH4 0xFD74D294 EQ PUSH2 0x909 JUMPI DUP1 PUSH4 0xFDA263E8 EQ PUSH2 0x934 JUMPI DUP1 PUSH4 0xFF65226C EQ PUSH2 0x95F JUMPI PUSH2 0x246 JUMP JUMPDEST DUP1 PUSH4 0xB688A363 EQ PUSH2 0x798 JUMPI DUP1 PUSH4 0xD4DEADA4 EQ PUSH2 0x7A2 JUMPI DUP1 PUSH4 0xD7898240 EQ PUSH2 0x7CD JUMPI DUP1 PUSH4 0xDE281D6C EQ PUSH2 0x80A JUMPI DUP1 PUSH4 0xE028A693 EQ PUSH2 0x835 JUMPI PUSH2 0x246 JUMP JUMPDEST DUP1 PUSH4 0x98E1B410 GT PUSH2 0xFD JUMPI DUP1 PUSH4 0x98E1B410 EQ PUSH2 0x6AA JUMPI DUP1 PUSH4 0x999CC5CA EQ PUSH2 0x6C8 JUMPI DUP1 PUSH4 0xA4758C9A EQ PUSH2 0x705 JUMPI DUP1 PUSH4 0xACDB8341 EQ PUSH2 0x730 JUMPI DUP1 PUSH4 0xB2F8BE5C EQ PUSH2 0x75B JUMPI PUSH2 0x246 JUMP JUMPDEST DUP1 PUSH4 0x842A7F9B EQ PUSH2 0x5E7 JUMPI DUP1 PUSH4 0x864A53DC EQ PUSH2 0x612 JUMPI DUP1 PUSH4 0x8975AA08 EQ PUSH2 0x629 JUMPI DUP1 PUSH4 0x937E09B1 EQ PUSH2 0x654 JUMPI DUP1 PUSH4 0x972C5356 EQ PUSH2 0x67F JUMPI PUSH2 0x246 JUMP JUMPDEST DUP1 PUSH4 0x364548CD GT PUSH2 0x1C7 JUMPI DUP1 PUSH4 0x5FB02F4D GT PUSH2 0x18B JUMPI DUP1 PUSH4 0x5FB02F4D EQ PUSH2 0x528 JUMPI DUP1 PUSH4 0x70BA1113 EQ PUSH2 0x53F JUMPI DUP1 PUSH4 0x767E0B9C EQ PUSH2 0x56A JUMPI DUP1 PUSH4 0x789B2E6C EQ PUSH2 0x593 JUMPI DUP1 PUSH4 0x816C97BA EQ PUSH2 0x5AA JUMPI PUSH2 0x246 JUMP JUMPDEST DUP1 PUSH4 0x364548CD EQ PUSH2 0x42D JUMPI DUP1 PUSH4 0x3BA20F2A EQ PUSH2 0x46A JUMPI DUP1 PUSH4 0x3D22AEA8 EQ PUSH2 0x495 JUMPI DUP1 PUSH4 0x42494297 EQ PUSH2 0x4D2 JUMPI DUP1 PUSH4 0x481C6A75 EQ PUSH2 0x4FD JUMPI PUSH2 0x246 JUMP JUMPDEST DUP1 PUSH4 0x2EF3FA27 GT PUSH2 0x20E JUMPI DUP1 PUSH4 0x2EF3FA27 EQ PUSH2 0x332 JUMPI DUP1 PUSH4 0x2F5274E3 EQ PUSH2 0x35D JUMPI DUP1 PUSH4 0x31D0E40F EQ PUSH2 0x388 JUMPI DUP1 PUSH4 0x32B7ACEC EQ PUSH2 0x3B3 JUMPI DUP1 PUSH4 0x361AF171 EQ PUSH2 0x3F0 JUMPI PUSH2 0x246 JUMP JUMPDEST DUP1 PUSH4 0x1999870 EQ PUSH2 0x24B JUMPI DUP1 PUSH4 0x6FDDE03 EQ PUSH2 0x276 JUMPI DUP1 PUSH4 0xD70D1A7 EQ PUSH2 0x2A1 JUMPI DUP1 PUSH4 0x1E28528E EQ PUSH2 0x2CC JUMPI DUP1 PUSH4 0x2B84B316 EQ PUSH2 0x309 JUMPI JUMPDEST PUSH1 0x0 DUP1 REVERT JUMPDEST CALLVALUE DUP1 ISZERO PUSH2 0x257 JUMPI PUSH1 0x0 DUP1 REVERT JUMPDEST POP PUSH2 0x260 PUSH2 0x98A JUMP JUMPDEST PUSH1 0x40 MLOAD PUSH2 0x26D SWAP2 SWAP1 PUSH2 0x22D8 JUMP JUMPDEST PUSH1 0x40 MLOAD DUP1 SWAP2 SUB SWAP1 RETURN JUMPDEST CALLVALUE DUP1 ISZERO PUSH2 0x282 JUMPI PUSH1 0x0 DUP1 REVERT JUMPDEST POP PUSH2 0x28B PUSH2 0x990 JUMP JUMPDEST PUSH1 0x40 MLOAD PUSH2 0x298 SWAP2 SWAP1 PUSH2 0x238C JUMP JUMPDEST PUSH1 0x40 MLOAD DUP1 SWAP2 SUB SWAP1 RETURN JUMPDEST CALLVALUE DUP1 ISZERO PUSH2 0x2AD JUMPI PUSH1 0x0 DUP1 REVERT JUMPDEST POP PUSH2 0x2B6 PUSH2 0xA1E JUMP JUMPDEST PUSH1 0x40 MLOAD PUSH2 0x2C3 SWAP2 SWAP1 PUSH2 0x22D8 JUMP JUMPDEST PUSH1 0x40 MLOAD DUP1 SWAP2 SUB SWAP1 RETURN JUMPDEST CALLVALUE DUP1 ISZERO PUSH2 0x2D8 JUMPI PUSH1 0x0 DUP1 REVERT JUMPDEST POP PUSH2 0x2F3 PUSH1 0x4 DUP1 CALLDATASIZE SUB DUP2 ADD SWAP1 PUSH2 0x2EE SWAP2 SWAP1 PUSH2 0x2420 JUMP JUMPDEST PUSH2 0xA24 JUMP JUMPDEST PUSH1 0x40 MLOAD PUSH2 0x300 SWAP2 SWAP1 PUSH2 0x2468 JUMP JUMPDEST PUSH1 0x40 MLOAD DUP1 SWAP2 SUB SWAP1 RETURN JUMPDEST CALLVALUE DUP1 ISZERO PUSH2 0x315 JUMPI PUSH1 0x0 DUP1 REVERT JUMPDEST POP PUSH2 0x330 PUSH1 0x4 DUP1 CALLDATASIZE SUB DUP2 ADD SWAP1 PUSH2 0x32B SWAP2 SWAP1 PUSH2 0x25E4 JUMP JUMPDEST PUSH2 0xA44 JUMP JUMPDEST STOP JUMPDEST CALLVALUE DUP1 ISZERO PUSH2 0x33E JUMPI PUSH1 0x0 DUP1 REVERT JUMPDEST POP PUSH2 0x347 PUSH2 0xB0D JUMP JUMPDEST PUSH1 0x40 MLOAD PUSH2 0x354 SWAP2 SWAP1 PUSH2 0x22D8 JUMP JUMPDEST PUSH1 0x40 MLOAD DUP1 SWAP2 SUB SWAP1 RETURN JUMPDEST CALLVALUE DUP1 ISZERO PUSH2 0x369 JUMPI PUSH1 0x0 DUP1 REVERT JUMPDEST POP PUSH2 0x372 PUSH2 0xB3B JUMP JUMPDEST PUSH1 0x40 MLOAD PUSH2 0x37F SWAP2 SWAP1 PUSH2 0x22D8 JUMP JUMPDEST PUSH1 0x40 MLOAD DUP1 SWAP2 SUB SWAP1 RETURN JUMPDEST CALLVALUE DUP1 ISZERO PUSH2 0x394 JUMPI PUSH1 0x0 DUP1 REVERT JUMPDEST POP PUSH2 0x39D PUSH2 0xB41 JUMP JUMPDEST PUSH1 0x40 MLOAD PUSH2 0x3AA SWAP2 SWAP1 PUSH2 0x22D8 JUMP JUMPDEST PUSH1 0x40 MLOAD DUP1 SWAP2 SUB SWAP1 RETURN JUMPDEST CALLVALUE DUP1 ISZERO PUSH2 0x3BF JUMPI PUSH1 0x0 DUP1 REVERT JUMPDEST POP PUSH2 0x3DA PUSH1 0x4 DUP1 CALLDATASIZE SUB DUP2 ADD SWAP1 PUSH2 0x3D5 SWAP2 SWAP1 PUSH2 0x2420 JUMP JUMPDEST PUSH2 0xB47 JUMP JUMPDEST PUSH1 0x40 MLOAD PUSH2 0x3E7 SWAP2 SWAP1 PUSH2 0x22D8 JUMP JUMPDEST PUSH1 0x40 MLOAD DUP1 SWAP2 SUB SWAP1 RETURN JUMPDEST CALLVALUE DUP1 ISZERO PUSH2 0x3FC JUMPI PUSH1 0x0 DUP1 REVERT JUMPDEST POP PUSH2 0x417 PUSH1 0x4 DUP1 CALLDATASIZE SUB DUP2 ADD SWAP1 PUSH2 0x412 SWAP2 SWAP1 PUSH2 0x266F JUMP JUMPDEST PUSH2 0xB5F JUMP JUMPDEST PUSH1 0x40 MLOAD PUSH2 0x424 SWAP2 SWAP1 PUSH2 0x2468 JUMP JUMPDEST PUSH1 0x40 MLOAD DUP1 SWAP2 SUB SWAP1 RETURN JUMPDEST CALLVALUE DUP1 ISZERO PUSH2 0x439 JUMPI PUSH1 0x0 DUP1 REVERT JUMPDEST POP PUSH2 0x454 PUSH1 0x4 DUP1 CALLDATASIZE SUB DUP2 ADD SWAP1 PUSH2 0x44F SWAP2 SWAP1 PUSH2 0x2420 JUMP JUMPDEST PUSH2 0xBDD JUMP JUMPDEST PUSH1 0x40 MLOAD PUSH2 0x461 SWAP2 SWAP1 PUSH2 0x2468 JUMP JUMPDEST PUSH1 0x40 MLOAD DUP1 SWAP2 SUB SWAP1 RETURN JUMPDEST CALLVALUE DUP1 ISZERO PUSH2 0x476 JUMPI PUSH1 0x0 DUP1 REVERT JUMPDEST POP PUSH2 0x47F PUSH2 0xBFD JUMP JUMPDEST PUSH1 0x40 MLOAD PUSH2 0x48C SWAP2 SWAP1 PUSH2 0x22D8 JUMP JUMPDEST PUSH1 0x40 MLOAD DUP1 SWAP2 SUB SWAP1 RETURN JUMPDEST CALLVALUE DUP1 ISZERO PUSH2 0x4A1 JUMPI PUSH1 0x0 DUP1 REVERT JUMPDEST POP PUSH2 0x4BC PUSH1 0x4 DUP1 CALLDATASIZE SUB DUP2 ADD SWAP1 PUSH2 0x4B7 SWAP2 SWAP1 PUSH2 0x266F JUMP JUMPDEST PUSH2 0xC03 JUMP JUMPDEST PUSH1 0x40 MLOAD PUSH2 0x4C9 SWAP2 SWAP1 PUSH2 0x2468 JUMP JUMPDEST PUSH1 0x40 MLOAD DUP1 SWAP2 SUB SWAP1 RETURN JUMPDEST CALLVALUE DUP1 ISZERO PUSH2 0x4DE JUMPI PUSH1 0x0 DUP1 REVERT JUMPDEST POP PUSH2 0x4E7 PUSH2 0xD58 JUMP JUMPDEST PUSH1 0x40 MLOAD PUSH2 0x4F4 SWAP2 SWAP1 PUSH2 0x22D8 JUMP JUMPDEST PUSH1 0x40 MLOAD DUP1 SWAP2 SUB SWAP1 RETURN JUMPDEST CALLVALUE DUP1 ISZERO PUSH2 0x509 JUMPI PUSH1 0x0 DUP1 REVERT JUMPDEST POP PUSH2 0x512 PUSH2 0xD5E JUMP JUMPDEST PUSH1 0x40 MLOAD PUSH2 0x51F SWAP2 SWAP1 PUSH2 0x26AB JUMP JUMPDEST PUSH1 0x40 MLOAD DUP1 SWAP2 SUB SWAP1 RETURN JUMPDEST CALLVALUE DUP1 ISZERO PUSH2 0x534 JUMPI PUSH1 0x0 DUP1 REVERT JUMPDEST POP PUSH2 0x53D PUSH2 0xD84 JUMP JUMPDEST STOP JUMPDEST CALLVALUE DUP1 ISZERO PUSH2 0x54B JUMPI PUSH1 0x0 DUP1 REVERT JUMPDEST POP PUSH2 0x554 PUSH2 0xF15 JUMP JUMPDEST PUSH1 0x40 MLOAD PUSH2 0x561 SWAP2 SWAP1 PUSH2 0x22D8 JUMP JUMPDEST PUSH1 0x40 MLOAD DUP1 SWAP2 SUB SWAP1 RETURN JUMPDEST CALLVALUE DUP1 ISZERO PUSH2 0x576 JUMPI PUSH1 0x0 DUP1 REVERT JUMPDEST POP PUSH2 0x591 PUSH1 0x4 DUP1 CALLDATASIZE SUB DUP2 ADD SWAP1 PUSH2 0x58C SWAP2 SWAP1 PUSH2 0x26F2 JUMP JUMPDEST PUSH2 0xF1B JUMP JUMPDEST STOP JUMPDEST CALLVALUE DUP1 ISZERO PUSH2 0x59F JUMPI PUSH1 0x0 DUP1 REVERT JUMPDEST POP PUSH2 0x5A8 PUSH2 0x1076 JUMP JUMPDEST STOP JUMPDEST CALLVALUE DUP1 ISZERO PUSH2 0x5B6 JUMPI PUSH1 0x0 DUP1 REVERT JUMPDEST POP PUSH2 0x5D1 PUSH1 0x4 DUP1 CALLDATASIZE SUB DUP2 ADD SWAP1 PUSH2 0x5CC SWAP2 SWAP1 PUSH2 0x2732 JUMP JUMPDEST PUSH2 0x12F9 JUMP JUMPDEST PUSH1 0x40 MLOAD PUSH2 0x5DE SWAP2 SWAP1 PUSH2 0x2468 JUMP JUMPDEST PUSH1 0x40 MLOAD DUP1 SWAP2 SUB SWAP1 RETURN JUMPDEST CALLVALUE DUP1 ISZERO PUSH2 0x5F3 JUMPI PUSH1 0x0 DUP1 REVERT JUMPDEST POP PUSH2 0x5FC PUSH2 0x1378 JUMP JUMPDEST PUSH1 0x40 MLOAD PUSH2 0x609 SWAP2 SWAP1 PUSH2 0x22D8 JUMP JUMPDEST PUSH1 0x40 MLOAD DUP1 SWAP2 SUB SWAP1 RETURN JUMPDEST CALLVALUE DUP1 ISZERO PUSH2 0x61E JUMPI PUSH1 0x0 DUP1 REVERT JUMPDEST POP PUSH2 0x627 PUSH2 0x137E JUMP JUMPDEST STOP JUMPDEST CALLVALUE DUP1 ISZERO PUSH2 0x635 JUMPI PUSH1 0x0 DUP1 REVERT JUMPDEST POP PUSH2 0x63E PUSH2 0x14F2 JUMP JUMPDEST PUSH1 0x40 MLOAD PUSH2 0x64B SWAP2 SWAP1 PUSH2 0x22D8 JUMP JUMPDEST PUSH1 0x40 MLOAD DUP1 SWAP2 SUB SWAP1 RETURN JUMPDEST CALLVALUE DUP1 ISZERO PUSH2 0x660 JUMPI PUSH1 0x0 DUP1 REVERT JUMPDEST POP PUSH2 0x669 PUSH2 0x14F8 JUMP JUMPDEST PUSH1 0x40 MLOAD PUSH2 0x676 SWAP2 SWAP1 PUSH2 0x22D8 JUMP JUMPDEST PUSH1 0x40 MLOAD DUP1 SWAP2 SUB SWAP1 RETURN JUMPDEST CALLVALUE DUP1 ISZERO PUSH2 0x68B JUMPI PUSH1 0x0 DUP1 REVERT JUMPDEST POP PUSH2 0x694 PUSH2 0x14FE JUMP JUMPDEST PUSH1 0x40 MLOAD PUSH2 0x6A1 SWAP2 SWAP1 PUSH2 0x22D8 JUMP JUMPDEST PUSH1 0x40 MLOAD DUP1 SWAP2 SUB SWAP1 RETURN JUMPDEST PUSH2 0x6B2 PUSH2 0x1504 JUMP JUMPDEST PUSH1 0x40 MLOAD PUSH2 0x6BF SWAP2 SWAP1 PUSH2 0x2468 JUMP JUMPDEST PUSH1 0x40 MLOAD DUP1 SWAP2 SUB SWAP1 RETURN JUMPDEST CALLVALUE DUP1 ISZERO PUSH2 0x6D4 JUMPI PUSH1 0x0 DUP1 REVERT JUMPDEST POP PUSH2 0x6EF PUSH1 0x4 DUP1 CALLDATASIZE SUB DUP2 ADD SWAP1 PUSH2 0x6EA SWAP2 SWAP1 PUSH2 0x2420 JUMP JUMPDEST PUSH2 0x150D JUMP JUMPDEST PUSH1 0x40 MLOAD PUSH2 0x6FC SWAP2 SWAP1 PUSH2 0x2468 JUMP JUMPDEST PUSH1 0x40 MLOAD DUP1 SWAP2 SUB SWAP1 RETURN JUMPDEST CALLVALUE DUP1 ISZERO PUSH2 0x711 JUMPI PUSH1 0x0 DUP1 REVERT JUMPDEST POP PUSH2 0x71A PUSH2 0x152D JUMP JUMPDEST PUSH1 0x40 MLOAD PUSH2 0x727 SWAP2 SWAP1 PUSH2 0x22D8 JUMP JUMPDEST PUSH1 0x40 MLOAD DUP1 SWAP2 SUB SWAP1 RETURN JUMPDEST CALLVALUE DUP1 ISZERO PUSH2 0x73C JUMPI PUSH1 0x0 DUP1 REVERT JUMPDEST POP PUSH2 0x745 PUSH2 0x1533 JUMP JUMPDEST PUSH1 0x40 MLOAD PUSH2 0x752 SWAP2 SWAP1 PUSH2 0x22D8 JUMP JUMPDEST PUSH1 0x40 MLOAD DUP1 SWAP2 SUB SWAP1 RETURN JUMPDEST CALLVALUE DUP1 ISZERO PUSH2 0x767 JUMPI PUSH1 0x0 DUP1 REVERT JUMPDEST POP PUSH2 0x782 PUSH1 0x4 DUP1 CALLDATASIZE SUB DUP2 ADD SWAP1 PUSH2 0x77D SWAP2 SWAP1 PUSH2 0x2772 JUMP JUMPDEST PUSH2 0x164B JUMP JUMPDEST PUSH1 0x40 MLOAD PUSH2 0x78F SWAP2 SWAP1 PUSH2 0x2468 JUMP JUMPDEST PUSH1 0x40 MLOAD DUP1 SWAP2 SUB SWAP1 RETURN JUMPDEST PUSH2 0x7A0 PUSH2 0x1907 JUMP JUMPDEST STOP JUMPDEST CALLVALUE DUP1 ISZERO PUSH2 0x7AE JUMPI PUSH1 0x0 DUP1 REVERT JUMPDEST POP PUSH2 0x7B7 PUSH2 0x1A50 JUMP JUMPDEST PUSH1 0x40 MLOAD PUSH2 0x7C4 SWAP2 SWAP1 PUSH2 0x22D8 JUMP JUMPDEST PUSH1 0x40 MLOAD DUP1 SWAP2 SUB SWAP1 RETURN JUMPDEST CALLVALUE DUP1 ISZERO PUSH2 0x7D9 JUMPI PUSH1 0x0 DUP1 REVERT JUMPDEST POP PUSH2 0x7F4 PUSH1 0x4 DUP1 CALLDATASIZE SUB DUP2 ADD SWAP1 PUSH2 0x7EF SWAP2 SWAP1 PUSH2 0x2420 JUMP JUMPDEST PUSH2 0x1A56 JUMP JUMPDEST PUSH1 0x40 MLOAD PUSH2 0x801 SWAP2 SWAP1 PUSH2 0x22D8 JUMP JUMPDEST PUSH1 0x40 MLOAD DUP1 SWAP2 SUB SWAP1 RETURN JUMPDEST CALLVALUE DUP1 ISZERO PUSH2 0x816 JUMPI PUSH1 0x0 DUP1 REVERT JUMPDEST POP PUSH2 0x81F PUSH2 0x1A6E JUMP JUMPDEST PUSH1 0x40 MLOAD PUSH2 0x82C SWAP2 SWAP1 PUSH2 0x22D8 JUMP JUMPDEST PUSH1 0x40 MLOAD DUP1 SWAP2 SUB SWAP1 RETURN JUMPDEST CALLVALUE DUP1 ISZERO PUSH2 0x841 JUMPI PUSH1 0x0 DUP1 REVERT JUMPDEST POP PUSH2 0x84A PUSH2 0x1A74 JUMP JUMPDEST PUSH1 0x40 MLOAD PUSH2 0x857 SWAP2 SWAP1 PUSH2 0x22D8 JUMP JUMPDEST PUSH1 0x40 MLOAD DUP1 SWAP2 SUB SWAP1 RETURN JUMPDEST CALLVALUE DUP1 ISZERO PUSH2 0x86C JUMPI PUSH1 0x0 DUP1 REVERT JUMPDEST POP PUSH2 0x875 PUSH2 0x1A7A JUMP JUMPDEST PUSH1 0x40 MLOAD PUSH2 0x882 SWAP2 SWAP1 PUSH2 0x26AB JUMP JUMPDEST PUSH1 0x40 MLOAD DUP1 SWAP2 SUB SWAP1 RETURN JUMPDEST CALLVALUE DUP1 ISZERO PUSH2 0x897 JUMPI PUSH1 0x0 DUP1 REVERT JUMPDEST POP PUSH2 0x8B2 PUSH1 0x4 DUP1 CALLDATASIZE SUB DUP2 ADD SWAP1 PUSH2 0x8AD SWAP2 SWAP1 PUSH2 0x266F JUMP JUMPDEST PUSH2 0x1AA0 JUMP JUMPDEST PUSH1 0x40 MLOAD PUSH2 0x8C3 SWAP6 SWAP5 SWAP4 SWAP3 SWAP2 SWAP1 PUSH2 0x27B2 JUMP JUMPDEST PUSH1 0x40 MLOAD DUP1 SWAP2 SUB SWAP1 RETURN JUMPDEST CALLVALUE DUP1 ISZERO PUSH2 0x8D8 JUMPI PUSH1 0x0 DUP1 REVERT JUMPDEST POP PUSH2 0x8F3 PUSH1 0x4 DUP1 CALLDATASIZE SUB DUP2 ADD SWAP1 PUSH2 0x8EE SWAP2 SWAP1 PUSH2 0x266F JUMP JUMPDEST PUSH2 0x1C03 JUMP JUMPDEST PUSH1 0x40 MLOAD PUSH2 0x900 SWAP2 SWAP1 PUSH2 0x26AB JUMP JUMPDEST PUSH1 0x40 MLOAD DUP1 SWAP2 SUB SWAP1 RETURN JUMPDEST CALLVALUE DUP1 ISZERO PUSH2 0x915 JUMPI PUSH1 0x0 DUP1 REVERT JUMPDEST POP PUSH2 0x91E PUSH2 0x1C42 JUMP JUMPDEST PUSH1 0x40 MLOAD PUSH2 0x92B SWAP2 SWAP1 PUSH2 0x22D8 JUMP JUMPDEST PUSH1 0x40 MLOAD DUP1 SWAP2 SUB SWAP1 RETURN JUMPDEST CALLVALUE DUP1 ISZERO PUSH2 0x940 JUMPI PUSH1 0x0 DUP1 REVERT JUMPDEST POP PUSH2 0x949 PUSH2 0x1C48 JUMP JUMPDEST PUSH1 0x40 MLOAD PUSH2 0x956 SWAP2 SWAP1 PUSH2 0x22D8 JUMP JUMPDEST PUSH1 0x40 MLOAD DUP1 SWAP2 SUB SWAP1 RETURN JUMPDEST CALLVALUE DUP1 ISZERO PUSH2 0x96B JUMPI PUSH1 0x0 DUP1 REVERT JUMPDEST POP PUSH2 0x974 PUSH2 0x1C4E JUMP JUMPDEST PUSH1 0x40 MLOAD PUSH2 0x981 SWAP2 SWAP1 PUSH2 0x2468 JUMP JUMPDEST PUSH1 0x40 MLOAD DUP1 SWAP2 SUB SWAP1 RETURN JUMPDEST PUSH1 0xC SLOAD DUP2 JUMP JUMPDEST PUSH1 0x5 DUP1 SLOAD PUSH2 0x99D SWAP1 PUSH2 0x2842 JUMP JUMPDEST DUP1 PUSH1 0x1F ADD PUSH1 0x20 DUP1 SWAP2 DIV MUL PUSH1 0x20 ADD PUSH1 0x40 MLOAD SWAP1 DUP2 ADD PUSH1 0x40 MSTORE DUP1 SWAP3 SWAP2 SWAP1 DUP2 DUP2 MSTORE PUSH1 0x20 ADD DUP3 DUP1 SLOAD PUSH2 0x9C9 SWAP1 PUSH2 0x2842 JUMP JUMPDEST DUP1 ISZERO PUSH2 0xA16 JUMPI DUP1 PUSH1 0x1F LT PUSH2 0x9EB JUMPI PUSH2 0x100 DUP1 DUP4 SLOAD DIV MUL DUP4 MSTORE SWAP2 PUSH1 0x20 ADD SWAP2 PUSH2 0xA16 JUMP JUMPDEST DUP3 ADD SWAP2 SWAP1 PUSH1 0x0 MSTORE PUSH1 0x20 PUSH1 0x0 KECCAK256 SWAP1 JUMPDEST DUP2 SLOAD DUP2 MSTORE SWAP1 PUSH1 0x1 ADD SWAP1 PUSH1 0x20 ADD DUP1 DUP4 GT PUSH2 0x9F9 JUMPI DUP3 SWAP1 SUB PUSH1 0x1F AND DUP3 ADD SWAP2 JUMPDEST POP POP POP POP POP DUP2 JUMP JUMPDEST PUSH1 0x1 SLOAD DUP2 JUMP JUMPDEST PUSH1 0x8 PUSH1 0x20 MSTORE DUP1 PUSH1 0x0 MSTORE PUSH1 0x40 PUSH1 0x0 KECCAK256 PUSH1 0x0 SWAP2 POP SLOAD SWAP1 PUSH2 0x100 EXP SWAP1 DIV PUSH1 0xFF AND DUP2 JUMP JUMPDEST PUSH1 0x6 PUSH1 0x0 SWAP1 SLOAD SWAP1 PUSH2 0x100 EXP SWAP1 DIV PUSH20 0xFFFFFFFFFFFFFFFFFFFFFFFFFFFFFFFFFFFFFFFF AND PUSH20 0xFFFFFFFFFFFFFFFFFFFFFFFFFFFFFFFFFFFFFFFF AND CALLER PUSH20 0xFFFFFFFFFFFFFFFFFFFFFFFFFFFFFFFFFFFFFFFF AND EQ PUSH2 0xA9E JUMPI PUSH1 0x0 DUP1 REVERT JUMPDEST PUSH1 0x0 PUSH1 0x15 PUSH1 0x1 DUP2 PUSH1 0x1 DUP2 SLOAD ADD DUP1 DUP3 SSTORE DUP1 SWAP2 POP POP SUB SWAP1 PUSH1 0x0 MSTORE PUSH1 0x20 PUSH1 0x0 KECCAK256 SWAP1 PUSH1 0x6 MUL ADD SWAP1 POP DUP3 DUP2 PUSH1 0x0 ADD SWAP1 DUP2 PUSH2 0xAD3 SWAP2 SWAP1 PUSH2 0x2A1F JUMP JUMPDEST POP DUP2 DUP2 PUSH1 0x2 ADD DUP2 SWAP1 SSTORE POP DUP4 DUP2 PUSH1 0x1 ADD SWAP1 DUP2 PUSH2 0xAEE SWAP2 SWAP1 PUSH2 0x2A1F JUMP JUMPDEST POP PUSH1 0x16 PUSH1 0x0 DUP2 SLOAD DUP1 SWAP3 SWAP2 SWAP1 PUSH2 0xB02 SWAP1 PUSH2 0x2B20 JUMP JUMPDEST SWAP2 SWAP1 POP SSTORE POP POP POP POP POP JUMP JUMPDEST PUSH1 0x0 DUP1 SLOAD PUSH1 0x2 SLOAD PUSH1 0x0 SLOAD PUSH2 0xB21 SWAP2 SWAP1 PUSH2 0x2B68 JUMP JUMPDEST SELFBALANCE PUSH2 0xB2C SWAP2 SWAP1 PUSH2 0x2B9C JUMP JUMPDEST PUSH2 0xB36 SWAP2 SWAP1 PUSH2 0x2C25 JUMP JUMPDEST SWAP1 POP SWAP1 JUMP JUMPDEST PUSH1 0x1B SLOAD DUP2 JUMP JUMPDEST PUSH1 0x19 SLOAD DUP2 JUMP JUMPDEST PUSH1 0xE PUSH1 0x20 MSTORE DUP1 PUSH1 0x0 MSTORE PUSH1 0x40 PUSH1 0x0 KECCAK256 PUSH1 0x0 SWAP2 POP SWAP1 POP SLOAD DUP2 JUMP JUMPDEST PUSH1 0x0 DUP1 PUSH1 0x15 DUP4 DUP2 SLOAD DUP2 LT PUSH2 0xB76 JUMPI PUSH2 0xB75 PUSH2 0x2C56 JUMP JUMPDEST JUMPDEST SWAP1 PUSH1 0x0 MSTORE PUSH1 0x20 PUSH1 0x0 KECCAK256 SWAP1 PUSH1 0x6 MUL ADD SWAP1 POP DUP1 PUSH1 0x5 ADD PUSH1 0x0 CALLER PUSH20 0xFFFFFFFFFFFFFFFFFFFFFFFFFFFFFFFFFFFFFFFF AND PUSH20 0xFFFFFFFFFFFFFFFFFFFFFFFFFFFFFFFFFFFFFFFF AND DUP2 MSTORE PUSH1 0x20 ADD SWAP1 DUP2 MSTORE PUSH1 0x20 ADD PUSH1 0x0 KECCAK256 PUSH1 0x0 SWAP1 SLOAD SWAP1 PUSH2 0x100 EXP SWAP1 DIV PUSH1 0xFF AND SWAP2 POP POP SWAP2 SWAP1 POP JUMP JUMPDEST PUSH1 0x9 PUSH1 0x20 MSTORE DUP1 PUSH1 0x0 MSTORE PUSH1 0x40 PUSH1 0x0 KECCAK256 PUSH1 0x0 SWAP2 POP SLOAD SWAP1 PUSH2 0x100 EXP SWAP1 DIV PUSH1 0xFF AND DUP2 JUMP JUMPDEST PUSH1 0x12 SLOAD DUP2 JUMP JUMPDEST PUSH1 0x0 PUSH1 0x1 ISZERO ISZERO PUSH1 0x14 PUSH1 0x0 SWAP1 SLOAD SWAP1 PUSH2 0x100 EXP SWAP1 DIV PUSH1 0xFF AND ISZERO ISZERO EQ PUSH2 0xC25 JUMPI PUSH1 0x0 DUP1 REVERT JUMPDEST PUSH1 0x6 PUSH1 0x0 SWAP1 SLOAD SWAP1 PUSH2 0x100 EXP SWAP1 DIV PUSH20 0xFFFFFFFFFFFFFFFFFFFFFFFFFFFFFFFFFFFFFFFF AND PUSH20 0xFFFFFFFFFFFFFFFFFFFFFFFFFFFFFFFFFFFFFFFF AND CALLER PUSH20 0xFFFFFFFFFFFFFFFFFFFFFFFFFFFFFFFFFFFFFFFF AND EQ PUSH2 0xC7F JUMPI PUSH1 0x0 DUP1 REVERT JUMPDEST PUSH1 0x0 PUSH1 0x15 DUP4 DUP2 SLOAD DUP2 LT PUSH2 0xC95 JUMPI PUSH2 0xC94 PUSH2 0x2C56 JUMP JUMPDEST JUMPDEST SWAP1 PUSH1 0x0 MSTORE PUSH1 0x20 PUSH1 0x0 KECCAK256 SWAP1 PUSH1 0x6 MUL ADD SWAP1 POP PUSH1 0x2 PUSH1 0x4 SLOAD PUSH2 0xCB4 SWAP2 SWAP1 PUSH2 0x2C25 JUMP JUMPDEST DUP2 PUSH1 0x4 ADD SLOAD LT ISZERO PUSH2 0xCC4 JUMPI PUSH1 0x0 DUP1 REVERT JUMPDEST PUSH1 0x7 PUSH1 0x0 SWAP1 SLOAD SWAP1 PUSH2 0x100 EXP SWAP1 DIV PUSH20 0xFFFFFFFFFFFFFFFFFFFFFFFFFFFFFFFFFFFFFFFF AND PUSH20 0xFFFFFFFFFFFFFFFFFFFFFFFFFFFFFFFFFFFFFFFF AND PUSH2 0x8FC DUP3 PUSH1 0x2 ADD SLOAD SWAP1 DUP2 ISZERO MUL SWAP1 PUSH1 0x40 MLOAD PUSH1 0x0 PUSH1 0x40 MLOAD DUP1 DUP4 SUB DUP2 DUP6 DUP9 DUP9 CALL SWAP4 POP POP POP POP ISZERO DUP1 ISZERO PUSH2 0xD30 JUMPI RETURNDATASIZE PUSH1 0x0 DUP1 RETURNDATACOPY RETURNDATASIZE PUSH1 0x0 REVERT JUMPDEST POP PUSH1 0x1 DUP2 PUSH1 0x3 ADD PUSH1 0x0 PUSH2 0x100 EXP DUP2 SLOAD DUP2 PUSH1 0xFF MUL NOT AND SWAP1 DUP4 ISZERO ISZERO MUL OR SWAP1 SSTORE POP PUSH1 0x1 SWAP2 POP POP SWAP2 SWAP1 POP JUMP JUMPDEST PUSH1 0x2 SLOAD DUP2 JUMP JUMPDEST PUSH1 0x6 PUSH1 0x0 SWAP1 SLOAD SWAP1 PUSH2 0x100 EXP SWAP1 DIV PUSH20 0xFFFFFFFFFFFFFFFFFFFFFFFFFFFFFFFFFFFFFFFF AND DUP2 JUMP JUMPDEST PUSH1 0x6 PUSH1 0x0 SWAP1 SLOAD SWAP1 PUSH2 0x100 EXP SWAP1 DIV PUSH20 0xFFFFFFFFFFFFFFFFFFFFFFFFFFFFFFFFFFFFFFFF AND PUSH20 0xFFFFFFFFFFFFFFFFFFFFFFFFFFFFFFFFFFFFFFFF AND CALLER PUSH20 0xFFFFFFFFFFFFFFFFFFFFFFFFFFFFFFFFFFFFFFFF AND EQ PUSH2 0xDDE JUMPI PUSH1 0x0 DUP1 REVERT JUMPDEST PUSH1 0x1 PUSH1 0x14 PUSH1 0x0 PUSH2 0x100 EXP DUP2 SLOAD DUP2 PUSH1 0xFF MUL NOT AND SWAP1 DUP4 ISZERO ISZERO MUL OR SWAP1 SSTORE POP PUSH1 0x0 SELFBALANCE SWAP1 POP PUSH1 0x0 DUP1 PUSH1 0x0 SWAP1 POP JUMPDEST PUSH1 0xB DUP1 SLOAD SWAP1 POP DUP2 LT ISZERO PUSH2 0xF08 JUMPI PUSH1 0x0 PUSH1 0xB DUP3 DUP2 SLOAD DUP2 LT PUSH2 0xE29 JUMPI PUSH2 0xE28 PUSH2 0x2C56 JUMP JUMPDEST JUMPDEST SWAP1 PUSH1 0x0 MSTORE PUSH1 0x20 PUSH1 0x0 KECCAK256 ADD PUSH1 0x0 SWAP1 SLOAD SWAP1 PUSH2 0x100 EXP SWAP1 DIV PUSH20 0xFFFFFFFFFFFFFFFFFFFFFFFFFFFFFFFFFFFFFFFF AND SWAP1 POP PUSH1 0xD PUSH1 0x0 DUP3 PUSH20 0xFFFFFFFFFFFFFFFFFFFFFFFFFFFFFFFFFFFFFFFF AND PUSH20 0xFFFFFFFFFFFFFFFFFFFFFFFFFFFFFFFFFFFFFFFF AND DUP2 MSTORE PUSH1 0x20 ADD SWAP1 DUP2 MSTORE PUSH1 0x20 ADD PUSH1 0x0 KECCAK256 SLOAD SWAP3 POP DUP4 PUSH1 0x0 SLOAD DUP5 PUSH2 0xEA7 SWAP2 SWAP1 PUSH2 0x2B9C JUMP JUMPDEST PUSH2 0xEB1 SWAP2 SWAP1 PUSH2 0x2C25 JUMP JUMPDEST PUSH1 0xE PUSH1 0x0 DUP4 PUSH20 0xFFFFFFFFFFFFFFFFFFFFFFFFFFFFFFFFFFFFFFFF AND PUSH20 0xFFFFFFFFFFFFFFFFFFFFFFFFFFFFFFFFFFFFFFFF AND DUP2 MSTORE PUSH1 0x20 ADD SWAP1 DUP2 MSTORE PUSH1 0x20 ADD PUSH1 0x0 KECCAK256 DUP2 SWAP1 SSTORE POP POP DUP1 DUP1 PUSH2 0xF00 SWAP1 PUSH2 0x2B20 JUMP JUMPDEST SWAP2 POP POP PUSH2 0xE06 JUMP JUMPDEST POP PUSH2 0xF11 PUSH2 0x1C61 JUMP JUMPDEST POP POP JUMP JUMPDEST PUSH1 0x0 SLOAD DUP2 JUMP JUMPDEST PUSH1 0x8 PUSH1 0x0 CALLER PUSH20 0xFFFFFFFFFFFFFFFFFFFFFFFFFFFFFFFFFFFFFFFF AND PUSH20 0xFFFFFFFFFFFFFFFFFFFFFFFFFFFFFFFFFFFFFFFF AND DUP2 MSTORE PUSH1 0x20 ADD SWAP1 DUP2 MSTORE PUSH1 0x20 ADD PUSH1 0x0 KECCAK256 PUSH1 0x0 SWAP1 SLOAD SWAP1 PUSH2 0x100 EXP SWAP1 DIV PUSH1 0xFF AND PUSH2 0xF71 JUMPI PUSH1 0x0 DUP1 REVERT JUMPDEST PUSH1 0x0 PUSH1 0x15 DUP4 DUP2 SLOAD DUP2 LT PUSH2 0xF87 JUMPI PUSH2 0xF86 PUSH2 0x2C56 JUMP JUMPDEST JUMPDEST SWAP1 PUSH1 0x0 MSTORE PUSH1 0x20 PUSH1 0x0 KECCAK256 SWAP1 PUSH1 0x6 MUL ADD SWAP1 POP DUP1 PUSH1 0x5 ADD PUSH1 0x0 CALLER PUSH20 0xFFFFFFFFFFFFFFFFFFFFFFFFFFFFFFFFFFFFFFFF AND PUSH20 0xFFFFFFFFFFFFFFFFFFFFFFFFFFFFFFFFFFFFFFFF AND DUP2 MSTORE PUSH1 0x20 ADD SWAP1 DUP2 MSTORE PUSH1 0x20 ADD PUSH1 0x0 KECCAK256 PUSH1 0x0 SWAP1 SLOAD SWAP1 PUSH2 0x100 EXP SWAP1 DIV PUSH1 0xFF AND ISZERO PUSH2 0xFF0 JUMPI PUSH1 0x0 DUP1 REVERT JUMPDEST PUSH1 0x1 DUP2 PUSH1 0x5 ADD PUSH1 0x0 CALLER PUSH20 0xFFFFFFFFFFFFFFFFFFFFFFFFFFFFFFFFFFFFFFFF AND PUSH20 0xFFFFFFFFFFFFFFFFFFFFFFFFFFFFFFFFFFFFFFFF AND DUP2 MSTORE PUSH1 0x20 ADD SWAP1 DUP2 MSTORE PUSH1 0x20 ADD PUSH1 0x0 KECCAK256 PUSH1 0x0 PUSH2 0x100 EXP DUP2 SLOAD DUP2 PUSH1 0xFF MUL NOT AND SWAP1 DUP4 ISZERO ISZERO MUL OR SWAP1 SSTORE POP PUSH1 0x1 ISZERO ISZERO DUP3 ISZERO ISZERO SUB PUSH2 0x1071 JUMPI DUP1 PUSH1 0x4 ADD PUSH1 0x0 DUP2 SLOAD DUP1 SWAP3 SWAP2 SWAP1 PUSH2 0x106B SWAP1 PUSH2 0x2B20 JUMP JUMPDEST SWAP2 SWAP1 POP SSTORE POP JUMPDEST POP POP POP JUMP JUMPDEST PUSH1 0x2 PUSH1 0x4 SLOAD PUSH2 0x1085 SWAP2 SWAP1 PUSH2 0x2C25 JUMP JUMPDEST PUSH1 0xA SLOAD LT ISZERO DUP1 PUSH2 0x10A8 JUMPI POP PUSH1 0x0 ISZERO ISZERO PUSH1 0x14 PUSH1 0x0 SWAP1 SLOAD SWAP1 PUSH2 0x100 EXP SWAP1 DIV PUSH1 0xFF AND ISZERO ISZERO EQ JUMPDEST PUSH2 0x10B1 JUMPI PUSH1 0x0 DUP1 REVERT JUMPDEST PUSH1 0x7 PUSH1 0x0 SWAP1 SLOAD SWAP1 PUSH2 0x100 EXP SWAP1 DIV PUSH20 0xFFFFFFFFFFFFFFFFFFFFFFFFFFFFFFFFFFFFFFFF AND PUSH20 0xFFFFFFFFFFFFFFFFFFFFFFFFFFFFFFFFFFFFFFFF AND CALLER PUSH20 0xFFFFFFFFFFFFFFFFFFFFFFFFFFFFFFFFFFFFFFFF AND EQ PUSH2 0x110B JUMPI PUSH1 0x0 DUP1 REVERT JUMPDEST PUSH2 0x1113 PUSH2 0xB0D JUMP JUMPDEST PUSH1 0x1A DUP2 SWAP1 SSTORE POP PUSH1 0x0 JUMPDEST PUSH1 0xB DUP1 SLOAD SWAP1 POP DUP2 LT ISZERO PUSH2 0x1284 JUMPI PUSH1 0x0 PUSH1 0xB DUP3 DUP2 SLOAD DUP2 LT PUSH2 0x113F JUMPI PUSH2 0x113E PUSH2 0x2C56 JUMP JUMPDEST JUMPDEST SWAP1 PUSH1 0x0 MSTORE PUSH1 0x20 PUSH1 0x0 KECCAK256 ADD PUSH1 0x0 SWAP1 SLOAD SWAP1 PUSH2 0x100 EXP SWAP1 DIV PUSH20 0xFFFFFFFFFFFFFFFFFFFFFFFFFFFFFFFFFFFFFFFF AND SWAP1 POP PUSH1 0x0 ISZERO ISZERO PUSH1 0xF PUSH1 0x0 DUP4 PUSH20 0xFFFFFFFFFFFFFFFFFFFFFFFFFFFFFFFFFFFFFFFF AND PUSH20 0xFFFFFFFFFFFFFFFFFFFFFFFFFFFFFFFFFFFFFFFF AND DUP2 MSTORE PUSH1 0x20 ADD SWAP1 DUP2 MSTORE PUSH1 0x20 ADD PUSH1 0x0 KECCAK256 PUSH1 0x0 SWAP1 SLOAD SWAP1 PUSH2 0x100 EXP SWAP1 DIV PUSH1 0xFF AND ISZERO ISZERO SUB PUSH2 0x1270 JUMPI PUSH1 0x0 PUSH1 0xE PUSH1 0x0 DUP4 PUSH20 0xFFFFFFFFFFFFFFFFFFFFFFFFFFFFFFFFFFFFFFFF AND PUSH20 0xFFFFFFFFFFFFFFFFFFFFFFFFFFFFFFFFFFFFFFFF AND DUP2 MSTORE PUSH1 0x20 ADD SWAP1 DUP2 MSTORE PUSH1 0x20 ADD PUSH1 0x0 KECCAK256 SLOAD SWAP1 POP PUSH1 0x0 DUP1 SLOAD PUSH1 0x1A SLOAD DUP4 PUSH2 0x121A SWAP2 SWAP1 PUSH2 0x2B9C JUMP JUMPDEST PUSH2 0x1224 SWAP2 SWAP1 PUSH2 0x2C25 JUMP JUMPDEST SWAP1 POP DUP3 PUSH20 0xFFFFFFFFFFFFFFFFFFFFFFFFFFFFFFFFFFFFFFFF AND PUSH2 0x8FC DUP3 SWAP1 DUP2 ISZERO MUL SWAP1 PUSH1 0x40 MLOAD PUSH1 0x0 PUSH1 0x40 MLOAD DUP1 DUP4 SUB DUP2 DUP6 DUP9 DUP9 CALL SWAP4 POP POP POP POP ISZERO DUP1 ISZERO PUSH2 0x126C JUMPI RETURNDATASIZE PUSH1 0x0 DUP1 RETURNDATACOPY RETURNDATASIZE PUSH1 0x0 REVERT JUMPDEST POP POP POP JUMPDEST POP DUP1 DUP1 PUSH2 0x127C SWAP1 PUSH2 0x2B20 JUMP JUMPDEST SWAP2 POP POP PUSH2 0x111C JUMP JUMPDEST POP SELFBALANCE PUSH1 0x19 DUP2 SWAP1 SSTORE POP PUSH1 0x6 PUSH1 0x0 SWAP1 SLOAD SWAP1 PUSH2 0x100 EXP SWAP1 DIV PUSH20 0xFFFFFFFFFFFFFFFFFFFFFFFFFFFFFFFFFFFFFFFF AND PUSH20 0xFFFFFFFFFFFFFFFFFFFFFFFFFFFFFFFFFFFFFFFF AND PUSH2 0x8FC PUSH1 0x19 SLOAD SWAP1 DUP2 ISZERO MUL SWAP1 PUSH1 0x40 MLOAD PUSH1 0x0 PUSH1 0x40 MLOAD DUP1 DUP4 SUB DUP2 DUP6 DUP9 DUP9 CALL SWAP4 POP POP POP POP ISZERO DUP1 ISZERO PUSH2 0x12F6 JUMPI RETURNDATASIZE PUSH1 0x0 DUP1 RETURNDATACOPY RETURNDATASIZE PUSH1 0x0 REVERT JUMPDEST POP JUMP JUMPDEST PUSH1 0x0 DUP1 PUSH1 0x15 DUP5 DUP2 SLOAD DUP2 LT PUSH2 0x1310 JUMPI PUSH2 0x130F PUSH2 0x2C56 JUMP JUMPDEST JUMPDEST SWAP1 PUSH1 0x0 MSTORE PUSH1 0x20 PUSH1 0x0 KECCAK256 SWAP1 PUSH1 0x6 MUL ADD SWAP1 POP DUP1 PUSH1 0x5 ADD PUSH1 0x0 DUP5 PUSH20 0xFFFFFFFFFFFFFFFFFFFFFFFFFFFFFFFFFFFFFFFF AND PUSH20 0xFFFFFFFFFFFFFFFFFFFFFFFFFFFFFFFFFFFFFFFF AND DUP2 MSTORE PUSH1 0x20 ADD SWAP1 DUP2 MSTORE PUSH1 0x20 ADD PUSH1 0x0 KECCAK256 PUSH1 0x0 SWAP1 SLOAD SWAP1 PUSH2 0x100 EXP SWAP1 DIV PUSH1 0xFF AND SWAP2 POP POP SWAP3 SWAP2 POP POP JUMP JUMPDEST PUSH1 0xA SLOAD DUP2 JUMP JUMPDEST PUSH1 0x1 ISZERO ISZERO PUSH1 0x14 PUSH1 0x0 SWAP1 SLOAD SWAP1 PUSH2 0x100 EXP SWAP1 DIV PUSH1 0xFF AND ISZERO ISZERO EQ PUSH2 0x139E JUMPI PUSH1 0x0 DUP1 REVERT JUMPDEST PUSH1 0x8 PUSH1 0x0 CALLER PUSH20 0xFFFFFFFFFFFFFFFFFFFFFFFFFFFFFFFFFFFFFFFF AND PUSH20 0xFFFFFFFFFFFFFFFFFFFFFFFFFFFFFFFFFFFFFFFF AND DUP2 MSTORE PUSH1 0x20 ADD SWAP1 DUP2 MSTORE PUSH1 0x20 ADD PUSH1 0x0 KECCAK256 PUSH1 0x0 SWAP1 SLOAD SWAP1 PUSH2 0x100 EXP SWAP1 DIV PUSH1 0xFF AND PUSH2 0x13F4 JUMPI PUSH1 0x0 DUP1 REVERT JUMPDEST PUSH1 0x0 ISZERO ISZERO PUSH1 0x9 PUSH1 0x0 CALLER PUSH20 0xFFFFFFFFFFFFFFFFFFFFFFFFFFFFFFFFFFFFFFFF AND PUSH20 0xFFFFFFFFFFFFFFFFFFFFFFFFFFFFFFFFFFFFFFFF AND DUP2 MSTORE PUSH1 0x20 ADD SWAP1 DUP2 MSTORE PUSH1 0x20 ADD PUSH1 0x0 KECCAK256 PUSH1 0x0 SWAP1 SLOAD SWAP1 PUSH2 0x100 EXP SWAP1 DIV PUSH1 0xFF AND ISZERO ISZERO SUB PUSH2 0x14BD JUMPI PUSH1 0x1 PUSH1 0x9 PUSH1 0x0 CALLER PUSH20 0xFFFFFFFFFFFFFFFFFFFFFFFFFFFFFFFFFFFFFFFF AND PUSH20 0xFFFFFFFFFFFFFFFFFFFFFFFFFFFFFFFFFFFFFFFF AND DUP2 MSTORE PUSH1 0x20 ADD SWAP1 DUP2 MSTORE PUSH1 0x20 ADD PUSH1 0x0 KECCAK256 PUSH1 0x0 PUSH2 0x100 EXP DUP2 SLOAD DUP2 PUSH1 0xFF MUL NOT AND SWAP1 DUP4 ISZERO ISZERO MUL OR SWAP1 SSTORE POP PUSH1 0xA PUSH1 0x0 DUP2 SLOAD DUP1 SWAP3 SWAP2 SWAP1 PUSH2 0x14B7 SWAP1 PUSH2 0x2B20 JUMP JUMPDEST SWAP2 SWAP1 POP SSTORE POP JUMPDEST PUSH1 0x2 PUSH1 0x4 SLOAD PUSH2 0x14CC SWAP2 SWAP1 PUSH2 0x2C25 JUMP JUMPDEST PUSH1 0xA SLOAD LT PUSH2 0x14F0 JUMPI PUSH1 0x0 PUSH1 0x14 PUSH1 0x0 PUSH2 0x100 EXP DUP2 SLOAD DUP2 PUSH1 0xFF MUL NOT AND SWAP1 DUP4 ISZERO ISZERO MUL OR SWAP1 SSTORE POP JUMPDEST JUMP JUMPDEST PUSH1 0x18 SLOAD DUP2 JUMP JUMPDEST PUSH1 0x10 SLOAD DUP2 JUMP JUMPDEST PUSH1 0x16 SLOAD DUP2 JUMP JUMPDEST PUSH1 0x0 PUSH1 0x1 SWAP1 POP SWAP1 JUMP JUMPDEST PUSH1 0xF PUSH1 0x20 MSTORE DUP1 PUSH1 0x0 MSTORE PUSH1 0x40 PUSH1 0x0 KECCAK256 PUSH1 0x0 SWAP2 POP SLOAD SWAP1 PUSH2 0x100 EXP SWAP1 DIV PUSH1 0xFF AND DUP2 JUMP JUMPDEST PUSH1 0x1A SLOAD DUP2 JUMP JUMPDEST PUSH1 0x0 DUP1 PUSH1 0x0 JUMPDEST PUSH1 0xB DUP1 SLOAD SWAP1 POP DUP2 LT ISZERO PUSH2 0x1643 JUMPI PUSH1 0x0 PUSH1 0xB DUP3 DUP2 SLOAD DUP2 LT PUSH2 0x155C JUMPI PUSH2 0x155B PUSH2 0x2C56 JUMP JUMPDEST JUMPDEST SWAP1 PUSH1 0x0 MSTORE PUSH1 0x20 PUSH1 0x0 KECCAK256 ADD PUSH1 0x0 SWAP1 SLOAD SWAP1 PUSH2 0x100 EXP SWAP1 DIV PUSH20 0xFFFFFFFFFFFFFFFFFFFFFFFFFFFFFFFFFFFFFFFF AND SWAP1 POP PUSH1 0x0 ISZERO ISZERO PUSH1 0xF PUSH1 0x0 DUP4 PUSH20 0xFFFFFFFFFFFFFFFFFFFFFFFFFFFFFFFFFFFFFFFF AND PUSH20 0xFFFFFFFFFFFFFFFFFFFFFFFFFFFFFFFFFFFFFFFF AND DUP2 MSTORE PUSH1 0x20 ADD SWAP1 DUP2 MSTORE PUSH1 0x20 ADD PUSH1 0x0 KECCAK256 PUSH1 0x0 SWAP1 SLOAD SWAP1 PUSH2 0x100 EXP SWAP1 DIV PUSH1 0xFF AND ISZERO ISZERO SUB PUSH2 0x162F JUMPI PUSH1 0xE PUSH1 0x0 DUP3 PUSH20 0xFFFFFFFFFFFFFFFFFFFFFFFFFFFFFFFFFFFFFFFF AND PUSH20 0xFFFFFFFFFFFFFFFFFFFFFFFFFFFFFFFFFFFFFFFF AND DUP2 MSTORE PUSH1 0x20 ADD SWAP1 DUP2 MSTORE PUSH1 0x20 ADD PUSH1 0x0 KECCAK256 SLOAD DUP4 PUSH2 0x162C SWAP2 SWAP1 PUSH2 0x2C85 JUMP JUMPDEST SWAP3 POP JUMPDEST POP DUP1 DUP1 PUSH2 0x163B SWAP1 PUSH2 0x2B20 JUMP JUMPDEST SWAP2 POP POP PUSH2 0x1539 JUMP JUMPDEST POP DUP1 SWAP2 POP POP SWAP1 JUMP JUMPDEST PUSH1 0x0 PUSH1 0x1 ISZERO ISZERO PUSH1 0x14 PUSH1 0x0 SWAP1 SLOAD SWAP1 PUSH2 0x100 EXP SWAP1 DIV PUSH1 0xFF AND ISZERO ISZERO EQ PUSH2 0x166D JUMPI PUSH1 0x0 DUP1 REVERT JUMPDEST PUSH1 0x7 PUSH1 0x0 SWAP1 SLOAD SWAP1 PUSH2 0x100 EXP SWAP1 DIV PUSH20 0xFFFFFFFFFFFFFFFFFFFFFFFFFFFFFFFFFFFFFFFF AND PUSH20 0xFFFFFFFFFFFFFFFFFFFFFFFFFFFFFFFFFFFFFFFF AND CALLER PUSH20 0xFFFFFFFFFFFFFFFFFFFFFFFFFFFFFFFFFFFFFFFF AND EQ PUSH2 0x16C7 JUMPI PUSH1 0x0 DUP1 REVERT JUMPDEST PUSH1 0x0 ISZERO ISZERO PUSH1 0x8 PUSH1 0x0 CALLER PUSH20 0xFFFFFFFFFFFFFFFFFFFFFFFFFFFFFFFFFFFFFFFF AND PUSH20 0xFFFFFFFFFFFFFFFFFFFFFFFFFFFFFFFFFFFFFFFF AND DUP2 MSTORE PUSH1 0x20 ADD SWAP1 DUP2 MSTORE PUSH1 0x20 ADD PUSH1 0x0 KECCAK256 PUSH1 0x0 SWAP1 SLOAD SWAP1 PUSH2 0x100 EXP SWAP1 DIV PUSH1 0xFF AND ISZERO ISZERO EQ PUSH2 0x1724 JUMPI PUSH1 0x0 DUP1 REVERT JUMPDEST PUSH1 0x6 PUSH1 0x0 SWAP1 SLOAD SWAP1 PUSH2 0x100 EXP SWAP1 DIV PUSH20 0xFFFFFFFFFFFFFFFFFFFFFFFFFFFFFFFFFFFFFFFF AND PUSH20 0xFFFFFFFFFFFFFFFFFFFFFFFFFFFFFFFFFFFFFFFF AND DUP4 PUSH20 0xFFFFFFFFFFFFFFFFFFFFFFFFFFFFFFFFFFFFFFFF AND SUB PUSH2 0x177E JUMPI PUSH1 0x0 DUP1 REVERT JUMPDEST PUSH1 0x0 PUSH1 0xE PUSH1 0x0 DUP6 PUSH20 0xFFFFFFFFFFFFFFFFFFFFFFFFFFFFFFFFFFFFFFFF AND PUSH20 0xFFFFFFFFFFFFFFFFFFFFFFFFFFFFFFFFFFFFFFFF AND DUP2 MSTORE PUSH1 0x20 ADD SWAP1 DUP2 MSTORE PUSH1 0x20 ADD PUSH1 0x0 KECCAK256 SLOAD SWAP1 POP PUSH1 0x0 PUSH2 0x17CC PUSH2 0xB0D JUMP JUMPDEST DUP5 PUSH2 0x17D7 SWAP2 SWAP1 PUSH2 0x2C85 JUMP JUMPDEST SWAP1 POP PUSH1 0x0 DUP1 SLOAD PUSH1 0x1 SLOAD PUSH1 0x0 SLOAD DUP6 DUP6 PUSH2 0x17EF SWAP2 SWAP1 PUSH2 0x2B9C JUMP JUMPDEST PUSH2 0x17F9 SWAP2 SWAP1 PUSH2 0x2C25 JUMP JUMPDEST PUSH2 0x1803 SWAP2 SWAP1 PUSH2 0x2B9C JUMP JUMPDEST PUSH2 0x180D SWAP2 SWAP1 PUSH2 0x2C25 JUMP JUMPDEST SWAP1 POP DUP1 PUSH1 0x18 DUP2 SWAP1 SSTORE POP SELFBALANCE DUP2 GT PUSH2 0x18F9 JUMPI PUSH1 0x18 SLOAD PUSH1 0x1B DUP2 SWAP1 SSTORE POP DUP6 PUSH20 0xFFFFFFFFFFFFFFFFFFFFFFFFFFFFFFFFFFFFFFFF AND PUSH2 0x8FC DUP3 SWAP1 DUP2 ISZERO MUL SWAP1 PUSH1 0x40 MLOAD PUSH1 0x0 PUSH1 0x40 MLOAD DUP1 DUP4 SUB DUP2 DUP6 DUP9 DUP9 CALL SWAP4 POP POP POP POP ISZERO DUP1 ISZERO PUSH2 0x186C JUMPI RETURNDATASIZE PUSH1 0x0 DUP1 RETURNDATACOPY RETURNDATASIZE PUSH1 0x0 REVERT JUMPDEST POP PUSH1 0x1 PUSH1 0xF PUSH1 0x0 DUP9 PUSH20 0xFFFFFFFFFFFFFFFFFFFFFFFFFFFFFFFFFFFFFFFF AND PUSH20 0xFFFFFFFFFFFFFFFFFFFFFFFFFFFFFFFFFFFFFFFF AND DUP2 MSTORE PUSH1 0x20 ADD SWAP1 DUP2 MSTORE PUSH1 0x20 ADD PUSH1 0x0 KECCAK256 PUSH1 0x0 PUSH2 0x100 EXP DUP2 SLOAD DUP2 PUSH1 0xFF MUL NOT AND SWAP1 DUP4 ISZERO ISZERO MUL OR SWAP1 SSTORE POP DUP1 PUSH1 0x17 DUP2 SWAP1 SSTORE POP PUSH2 0x18D5 DUP4 PUSH2 0x2147 JUMP JUMPDEST PUSH1 0xC PUSH1 0x0 DUP2 SLOAD DUP1 SWAP3 SWAP2 SWAP1 PUSH2 0x18E8 SWAP1 PUSH2 0x2CDB JUMP JUMPDEST SWAP2 SWAP1 POP SSTORE POP PUSH1 0x1 SWAP4 POP POP POP POP PUSH2 0x1901 JUMP JUMPDEST PUSH1 0x0 SWAP4 POP POP POP POP JUMPDEST SWAP3 SWAP2 POP POP JUMP JUMPDEST PUSH1 0x0 ISZERO ISZERO PUSH1 0x14 PUSH1 0x0 SWAP1 SLOAD SWAP1 PUSH2 0x100 EXP SWAP1 DIV PUSH1 0xFF AND ISZERO ISZERO EQ PUSH2 0x1927 JUMPI PUSH1 0x0 DUP1 REVERT JUMPDEST PUSH1 0x0 PUSH1 0xD PUSH1 0x0 CALLER PUSH20 0xFFFFFFFFFFFFFFFFFFFFFFFFFFFFFFFFFFFFFFFF AND PUSH20 0xFFFFFFFFFFFFFFFFFFFFFFFFFFFFFFFFFFFFFFFF AND DUP2 MSTORE PUSH1 0x20 ADD SWAP1 DUP2 MSTORE PUSH1 0x20 ADD PUSH1 0x0 KECCAK256 SLOAD SWAP1 POP PUSH1 0x0 DUP2 SUB PUSH2 0x19FE JUMPI PUSH1 0x10 SLOAD CALLVALUE LT ISZERO PUSH2 0x1982 JUMPI PUSH1 0x0 DUP1 REVERT JUMPDEST PUSH1 0xB CALLER SWAP1 DUP1 PUSH1 0x1 DUP2 SLOAD ADD DUP1 DUP3 SSTORE DUP1 SWAP2 POP POP PUSH1 0x1 SWAP1 SUB SWAP1 PUSH1 0x0 MSTORE PUSH1 0x20 PUSH1 0x0 KECCAK256 ADD PUSH1 0x0 SWAP1 SWAP2 SWAP1 SWAP2 SWAP1 SWAP2 PUSH2 0x100 EXP DUP2 SLOAD DUP2 PUSH20 0xFFFFFFFFFFFFFFFFFFFFFFFFFFFFFFFFFFFFFFFF MUL NOT AND SWAP1 DUP4 PUSH20 0xFFFFFFFFFFFFFFFFFFFFFFFFFFFFFFFFFFFFFFFF AND MUL OR SWAP1 SSTORE POP PUSH1 0xC PUSH1 0x0 DUP2 SLOAD DUP1 SWAP3 SWAP2 SWAP1 PUSH2 0x19F8 SWAP1 PUSH2 0x2B20 JUMP JUMPDEST SWAP2 SWAP1 POP SSTORE POP JUMPDEST CALLVALUE DUP2 PUSH2 0x1A0A SWAP2 SWAP1 PUSH2 0x2C85 JUMP JUMPDEST PUSH1 0xD PUSH1 0x0 CALLER PUSH20 0xFFFFFFFFFFFFFFFFFFFFFFFFFFFFFFFFFFFFFFFF AND PUSH20 0xFFFFFFFFFFFFFFFFFFFFFFFFFFFFFFFFFFFFFFFF AND DUP2 MSTORE PUSH1 0x20 ADD SWAP1 DUP2 MSTORE PUSH1 0x20 ADD PUSH1 0x0 KECCAK256 DUP2 SWAP1 SSTORE POP POP JUMP JUMPDEST PUSH1 0x4 SLOAD DUP2 JUMP JUMPDEST PUSH1 0xD PUSH1 0x20 MSTORE DUP1 PUSH1 0x0 MSTORE PUSH1 0x40 PUSH1 0x0 KECCAK256 PUSH1 0x0 SWAP2 POP SWAP1 POP SLOAD DUP2 JUMP JUMPDEST PUSH1 0x3 SLOAD DUP2 JUMP JUMPDEST PUSH1 0x17 SLOAD DUP2 JUMP JUMPDEST PUSH1 0x7 PUSH1 0x0 SWAP1 SLOAD SWAP1 PUSH2 0x100 EXP SWAP1 DIV PUSH20 0xFFFFFFFFFFFFFFFFFFFFFFFFFFFFFFFFFFFFFFFF AND DUP2 JUMP JUMPDEST PUSH1 0x15 DUP2 DUP2 SLOAD DUP2 LT PUSH2 0x1AB0 JUMPI PUSH1 0x0 DUP1 REVERT JUMPDEST SWAP1 PUSH1 0x0 MSTORE PUSH1 0x20 PUSH1 0x0 KECCAK256 SWAP1 PUSH1 0x6 MUL ADD PUSH1 0x0 SWAP2 POP SWAP1 POP DUP1 PUSH1 0x0 ADD DUP1 SLOAD PUSH2 0x1AD3 SWAP1 PUSH2 0x2842 JUMP JUMPDEST DUP1 PUSH1 0x1F ADD PUSH1 0x20 DUP1 SWAP2 DIV MUL PUSH1 0x20 ADD PUSH1 0x40 MLOAD SWAP1 DUP2 ADD PUSH1 0x40 MSTORE DUP1 SWAP3 SWAP2 SWAP1 DUP2 DUP2 MSTORE PUSH1 0x20 ADD DUP3 DUP1 SLOAD PUSH2 0x1AFF SWAP1 PUSH2 0x2842 JUMP JUMPDEST DUP1 ISZERO PUSH2 0x1B4C JUMPI DUP1 PUSH1 0x1F LT PUSH2 0x1B21 JUMPI PUSH2 0x100 DUP1 DUP4 SLOAD DIV MUL DUP4 MSTORE SWAP2 PUSH1 0x20 ADD SWAP2 PUSH2 0x1B4C JUMP JUMPDEST DUP3 ADD SWAP2 SWAP1 PUSH1 0x0 MSTORE PUSH1 0x20 PUSH1 0x0 KECCAK256 SWAP1 JUMPDEST DUP2 SLOAD DUP2 MSTORE SWAP1 PUSH1 0x1 ADD SWAP1 PUSH1 0x20 ADD DUP1 DUP4 GT PUSH2 0x1B2F JUMPI DUP3 SWAP1 SUB PUSH1 0x1F AND DUP3 ADD SWAP2 JUMPDEST POP POP POP POP POP SWAP1 DUP1 PUSH1 0x1 ADD DUP1 SLOAD PUSH2 0x1B61 SWAP1 PUSH2 0x2842 JUMP JUMPDEST DUP1 PUSH1 0x1F ADD PUSH1 0x20 DUP1 SWAP2 DIV MUL PUSH1 0x20 ADD PUSH1 0x40 MLOAD SWAP1 DUP2 ADD PUSH1 0x40 MSTORE DUP1 SWAP3 SWAP2 SWAP1 DUP2 DUP2 MSTORE PUSH1 0x20 ADD DUP3 DUP1 SLOAD PUSH2 0x1B8D SWAP1 PUSH2 0x2842 JUMP JUMPDEST DUP1 ISZERO PUSH2 0x1BDA JUMPI DUP1 PUSH1 0x1F LT PUSH2 0x1BAF JUMPI PUSH2 0x100 DUP1 DUP4 SLOAD DIV MUL DUP4 MSTORE SWAP2 PUSH1 0x20 ADD SWAP2 PUSH2 0x1BDA JUMP JUMPDEST DUP3 ADD SWAP2 SWAP1 PUSH1 0x0 MSTORE PUSH1 0x20 PUSH1 0x0 KECCAK256 SWAP1 JUMPDEST DUP2 SLOAD DUP2 MSTORE SWAP1 PUSH1 0x1 ADD SWAP1 PUSH1 0x20 ADD DUP1 DUP4 GT PUSH2 0x1BBD JUMPI DUP3 SWAP1 SUB PUSH1 0x1F AND DUP3 ADD SWAP2 JUMPDEST POP POP POP POP POP SWAP1 DUP1 PUSH1 0x2 ADD SLOAD SWAP1 DUP1 PUSH1 0x3 ADD PUSH1 0x0 SWAP1 SLOAD SWAP1 PUSH2 0x100 EXP SWAP1 DIV PUSH1 0xFF AND SWAP1 DUP1 PUSH1 0x4 ADD SLOAD SWAP1 POP DUP6 JUMP JUMPDEST PUSH1 0xB DUP2 DUP2 SLOAD DUP2 LT PUSH2 0x1C13 JUMPI PUSH1 0x0 DUP1 REVERT JUMPDEST SWAP1 PUSH1 0x0 MSTORE PUSH1 0x20 PUSH1 0x0 KECCAK256 ADD PUSH1 0x0 SWAP2 POP SLOAD SWAP1 PUSH2 0x100 EXP SWAP1 DIV PUSH20 0xFFFFFFFFFFFFFFFFFFFFFFFFFFFFFFFFFFFFFFFF AND DUP2 JUMP JUMPDEST PUSH1 0x11 SLOAD DUP2 JUMP JUMPDEST PUSH1 0x13 SLOAD DUP2 JUMP JUMPDEST PUSH1 0x14 PUSH1 0x0 SWAP1 SLOAD SWAP1 PUSH2 0x100 EXP SWAP1 DIV PUSH1 0xFF AND DUP2 JUMP JUMPDEST PUSH1 0x0 PUSH1 0x4 SLOAD PUSH8 0xFFFFFFFFFFFFFFFF DUP2 GT ISZERO PUSH2 0x1C7F JUMPI PUSH2 0x1C7E PUSH2 0x248D JUMP JUMPDEST JUMPDEST PUSH1 0x40 MLOAD SWAP1 DUP1 DUP3 MSTORE DUP1 PUSH1 0x20 MUL PUSH1 0x20 ADD DUP3 ADD PUSH1 0x40 MSTORE DUP1 ISZERO PUSH2 0x1CAD JUMPI DUP2 PUSH1 0x20 ADD PUSH1 0x20 DUP3 MUL DUP1 CALLDATASIZE DUP4 CALLDATACOPY DUP1 DUP3 ADD SWAP2 POP POP SWAP1 POP JUMPDEST POP SWAP1 POP PUSH1 0x0 PUSH1 0x4 SLOAD PUSH8 0xFFFFFFFFFFFFFFFF DUP2 GT ISZERO PUSH2 0x1CCE JUMPI PUSH2 0x1CCD PUSH2 0x248D JUMP JUMPDEST JUMPDEST PUSH1 0x40 MLOAD SWAP1 DUP1 DUP3 MSTORE DUP1 PUSH1 0x20 MUL PUSH1 0x20 ADD DUP3 ADD PUSH1 0x40 MSTORE DUP1 ISZERO PUSH2 0x1CFC JUMPI DUP2 PUSH1 0x20 ADD PUSH1 0x20 DUP3 MUL DUP1 CALLDATASIZE DUP4 CALLDATACOPY DUP1 DUP3 ADD SWAP2 POP POP SWAP1 POP JUMPDEST POP SWAP1 POP PUSH1 0x0 DUP1 PUSH1 0x0 SWAP1 POP PUSH1 0x0 DUP1 PUSH1 0xB PUSH1 0x0 DUP2 SLOAD DUP2 LT PUSH2 0x1D1E JUMPI PUSH2 0x1D1D PUSH2 0x2C56 JUMP JUMPDEST JUMPDEST SWAP1 PUSH1 0x0 MSTORE PUSH1 0x20 PUSH1 0x0 KECCAK256 ADD PUSH1 0x0 SWAP1 SLOAD SWAP1 PUSH2 0x100 EXP SWAP1 DIV PUSH20 0xFFFFFFFFFFFFFFFFFFFFFFFFFFFFFFFFFFFFFFFF AND SWAP1 POP DUP1 DUP7 PUSH1 0x0 DUP2 MLOAD DUP2 LT PUSH2 0x1D60 JUMPI PUSH2 0x1D5F PUSH2 0x2C56 JUMP JUMPDEST JUMPDEST PUSH1 0x20 MUL PUSH1 0x20 ADD ADD SWAP1 PUSH20 0xFFFFFFFFFFFFFFFFFFFFFFFFFFFFFFFFFFFFFFFF AND SWAP1 DUP2 PUSH20 0xFFFFFFFFFFFFFFFFFFFFFFFFFFFFFFFFFFFFFFFF AND DUP2 MSTORE POP POP PUSH1 0xD PUSH1 0x0 DUP3 PUSH20 0xFFFFFFFFFFFFFFFFFFFFFFFFFFFFFFFFFFFFFFFF AND PUSH20 0xFFFFFFFFFFFFFFFFFFFFFFFFFFFFFFFFFFFFFFFF AND DUP2 MSTORE PUSH1 0x20 ADD SWAP1 DUP2 MSTORE PUSH1 0x20 ADD PUSH1 0x0 KECCAK256 SLOAD SWAP4 POP DUP4 DUP6 PUSH1 0x0 DUP2 MLOAD DUP2 LT PUSH2 0x1DF1 JUMPI PUSH2 0x1DF0 PUSH2 0x2C56 JUMP JUMPDEST JUMPDEST PUSH1 0x20 MUL PUSH1 0x20 ADD ADD DUP2 DUP2 MSTORE POP POP PUSH1 0x0 PUSH1 0x1 SWAP1 POP JUMPDEST PUSH1 0x4 SLOAD DUP2 LT ISZERO PUSH2 0x1F21 JUMPI PUSH1 0xB DUP2 DUP2 SLOAD DUP2 LT PUSH2 0x1E22 JUMPI PUSH2 0x1E21 PUSH2 0x2C56 JUMP JUMPDEST JUMPDEST SWAP1 PUSH1 0x0 MSTORE PUSH1 0x20 PUSH1 0x0 KECCAK256 ADD PUSH1 0x0 SWAP1 SLOAD SWAP1 PUSH2 0x100 EXP SWAP1 DIV PUSH20 0xFFFFFFFFFFFFFFFFFFFFFFFFFFFFFFFFFFFFFFFF AND SWAP2 POP DUP2 DUP8 DUP3 DUP2 MLOAD DUP2 LT PUSH2 0x1E63 JUMPI PUSH2 0x1E62 PUSH2 0x2C56 JUMP JUMPDEST JUMPDEST PUSH1 0x20 MUL PUSH1 0x20 ADD ADD SWAP1 PUSH20 0xFFFFFFFFFFFFFFFFFFFFFFFFFFFFFFFFFFFFFFFF AND SWAP1 DUP2 PUSH20 0xFFFFFFFFFFFFFFFFFFFFFFFFFFFFFFFFFFFFFFFF AND DUP2 MSTORE POP POP PUSH1 0xD PUSH1 0x0 DUP4 PUSH20 0xFFFFFFFFFFFFFFFFFFFFFFFFFFFFFFFFFFFFFFFF AND PUSH20 0xFFFFFFFFFFFFFFFFFFFFFFFFFFFFFFFFFFFFFFFF AND DUP2 MSTORE PUSH1 0x20 ADD SWAP1 DUP2 MSTORE PUSH1 0x20 ADD PUSH1 0x0 KECCAK256 SLOAD SWAP3 POP DUP3 DUP7 DUP3 DUP2 MLOAD DUP2 LT PUSH2 0x1EF3 JUMPI PUSH2 0x1EF2 PUSH2 0x2C56 JUMP JUMPDEST JUMPDEST PUSH1 0x20 MUL PUSH1 0x20 ADD ADD DUP2 DUP2 MSTORE POP POP DUP3 DUP6 GT ISZERO PUSH2 0x1F0E JUMPI DUP3 SWAP5 POP DUP1 SWAP4 POP JUMPDEST DUP1 DUP1 PUSH2 0x1F19 SWAP1 PUSH2 0x2B20 JUMP JUMPDEST SWAP2 POP POP PUSH2 0x1E04 JUMP JUMPDEST POP PUSH1 0x0 PUSH1 0x4 SLOAD SWAP1 POP JUMPDEST PUSH1 0xB DUP1 SLOAD SWAP1 POP DUP2 LT ISZERO PUSH2 0x20AB JUMPI PUSH1 0xB DUP2 DUP2 SLOAD DUP2 LT PUSH2 0x1F4B JUMPI PUSH2 0x1F4A PUSH2 0x2C56 JUMP JUMPDEST JUMPDEST SWAP1 PUSH1 0x0 MSTORE PUSH1 0x20 PUSH1 0x0 KECCAK256 ADD PUSH1 0x0 SWAP1 SLOAD SWAP1 PUSH2 0x100 EXP SWAP1 DIV PUSH20 0xFFFFFFFFFFFFFFFFFFFFFFFFFFFFFFFFFFFFFFFF AND SWAP2 POP PUSH1 0xD PUSH1 0x0 DUP4 PUSH20 0xFFFFFFFFFFFFFFFFFFFFFFFFFFFFFFFFFFFFFFFF AND PUSH20 0xFFFFFFFFFFFFFFFFFFFFFFFFFFFFFFFFFFFFFFFF AND DUP2 MSTORE PUSH1 0x20 ADD SWAP1 DUP2 MSTORE PUSH1 0x20 ADD PUSH1 0x0 KECCAK256 SLOAD SWAP3 POP DUP5 DUP4 GT ISZERO PUSH2 0x2098 JUMPI DUP2 DUP8 DUP6 DUP2 MLOAD DUP2 LT PUSH2 0x1FD6 JUMPI PUSH2 0x1FD5 PUSH2 0x2C56 JUMP JUMPDEST JUMPDEST PUSH1 0x20 MUL PUSH1 0x20 ADD ADD SWAP1 PUSH20 0xFFFFFFFFFFFFFFFFFFFFFFFFFFFFFFFFFFFFFFFF AND SWAP1 DUP2 PUSH20 0xFFFFFFFFFFFFFFFFFFFFFFFFFFFFFFFFFFFFFFFF AND DUP2 MSTORE POP POP DUP3 DUP7 DUP6 DUP2 MLOAD DUP2 LT PUSH2 0x2024 JUMPI PUSH2 0x2023 PUSH2 0x2C56 JUMP JUMPDEST JUMPDEST PUSH1 0x20 MUL PUSH1 0x20 ADD ADD DUP2 DUP2 MSTORE POP POP DUP3 SWAP5 POP PUSH1 0x0 JUMPDEST PUSH1 0x4 SLOAD DUP2 LT ISZERO PUSH2 0x2096 JUMPI DUP6 DUP8 DUP3 DUP2 MLOAD DUP2 LT PUSH2 0x2054 JUMPI PUSH2 0x2053 PUSH2 0x2C56 JUMP JUMPDEST JUMPDEST PUSH1 0x20 MUL PUSH1 0x20 ADD ADD MLOAD LT ISZERO PUSH2 0x2083 JUMPI DUP7 DUP2 DUP2 MLOAD DUP2 LT PUSH2 0x2075 JUMPI PUSH2 0x2074 PUSH2 0x2C56 JUMP JUMPDEST JUMPDEST PUSH1 0x20 MUL PUSH1 0x20 ADD ADD MLOAD SWAP6 POP DUP1 SWAP5 POP JUMPDEST DUP1 DUP1 PUSH2 0x208E SWAP1 PUSH2 0x2B20 JUMP JUMPDEST SWAP2 POP POP PUSH2 0x2036 JUMP JUMPDEST POP JUMPDEST DUP1 DUP1 PUSH2 0x20A3 SWAP1 PUSH2 0x2B20 JUMP JUMPDEST SWAP2 POP POP PUSH2 0x1F2A JUMP JUMPDEST POP PUSH1 0x0 JUMPDEST PUSH1 0x4 SLOAD DUP2 LT ISZERO PUSH2 0x213E JUMPI PUSH1 0x1 PUSH1 0x8 PUSH1 0x0 DUP10 DUP5 DUP2 MLOAD DUP2 LT PUSH2 0x20D2 JUMPI PUSH2 0x20D1 PUSH2 0x2C56 JUMP JUMPDEST JUMPDEST PUSH1 0x20 MUL PUSH1 0x20 ADD ADD MLOAD PUSH20 0xFFFFFFFFFFFFFFFFFFFFFFFFFFFFFFFFFFFFFFFF AND PUSH20 0xFFFFFFFFFFFFFFFFFFFFFFFFFFFFFFFFFFFFFFFF AND DUP2 MSTORE PUSH1 0x20 ADD SWAP1 DUP2 MSTORE PUSH1 0x20 ADD PUSH1 0x0 KECCAK256 PUSH1 0x0 PUSH2 0x100 EXP DUP2 SLOAD DUP2 PUSH1 0xFF MUL NOT AND SWAP1 DUP4 ISZERO ISZERO MUL OR SWAP1 SSTORE POP DUP1 DUP1 PUSH2 0x2136 SWAP1 PUSH2 0x2B20 JUMP JUMPDEST SWAP2 POP POP PUSH2 0x20AF JUMP JUMPDEST POP POP POP POP POP POP POP JUMP JUMPDEST PUSH1 0x0 DUP2 PUSH1 0x0 SLOAD PUSH2 0x2157 SWAP2 SWAP1 PUSH2 0x2B68 JUMP JUMPDEST SWAP1 POP PUSH1 0x0 JUMPDEST PUSH1 0xB DUP1 SLOAD SWAP1 POP DUP2 LT ISZERO PUSH2 0x22BA JUMPI PUSH1 0x0 PUSH1 0xB DUP3 DUP2 SLOAD DUP2 LT PUSH2 0x217F JUMPI PUSH2 0x217E PUSH2 0x2C56 JUMP JUMPDEST JUMPDEST SWAP1 PUSH1 0x0 MSTORE PUSH1 0x20 PUSH1 0x0 KECCAK256 ADD PUSH1 0x0 SWAP1 SLOAD SWAP1 PUSH2 0x100 EXP SWAP1 DIV PUSH20 0xFFFFFFFFFFFFFFFFFFFFFFFFFFFFFFFFFFFFFFFF AND SWAP1 POP PUSH1 0x0 ISZERO ISZERO PUSH1 0xF PUSH1 0x0 DUP4 PUSH20 0xFFFFFFFFFFFFFFFFFFFFFFFFFFFFFFFFFFFFFFFF AND PUSH20 0xFFFFFFFFFFFFFFFFFFFFFFFFFFFFFFFFFFFFFFFF AND DUP2 MSTORE PUSH1 0x20 ADD SWAP1 DUP2 MSTORE PUSH1 0x20 ADD PUSH1 0x0 KECCAK256 PUSH1 0x0 SWAP1 SLOAD SWAP1 PUSH2 0x100 EXP SWAP1 DIV PUSH1 0xFF AND ISZERO ISZERO SUB PUSH2 0x22A6 JUMPI PUSH1 0x0 DUP4 PUSH1 0x0 SLOAD PUSH1 0xE PUSH1 0x0 DUP6 PUSH20 0xFFFFFFFFFFFFFFFFFFFFFFFFFFFFFFFFFFFFFFFF AND PUSH20 0xFFFFFFFFFFFFFFFFFFFFFFFFFFFFFFFFFFFFFFFF AND DUP2 MSTORE PUSH1 0x20 ADD SWAP1 DUP2 MSTORE PUSH1 0x20 ADD PUSH1 0x0 KECCAK256 SLOAD PUSH2 0x2254 SWAP2 SWAP1 PUSH2 0x2B9C JUMP JUMPDEST PUSH2 0x225E SWAP2 SWAP1 PUSH2 0x2C25 JUMP JUMPDEST SWAP1 POP DUP1 PUSH1 0xE PUSH1 0x0 DUP5 PUSH20 0xFFFFFFFFFFFFFFFFFFFFFFFFFFFFFFFFFFFFFFFF AND PUSH20 0xFFFFFFFFFFFFFFFFFFFFFFFFFFFFFFFFFFFFFFFF AND DUP2 MSTORE PUSH1 0x20 ADD SWAP1 DUP2 MSTORE PUSH1 0x20 ADD PUSH1 0x0 KECCAK256 DUP2 SWAP1 SSTORE POP POP JUMPDEST POP DUP1 DUP1 PUSH2 0x22B2 SWAP1 PUSH2 0x2B20 JUMP JUMPDEST SWAP2 POP POP PUSH2 0x215C JUMP JUMPDEST POP POP POP JUMP JUMPDEST PUSH1 0x0 DUP2 SWAP1 POP SWAP2 SWAP1 POP JUMP JUMPDEST PUSH2 0x22D2 DUP2 PUSH2 0x22BF JUMP JUMPDEST DUP3 MSTORE POP POP JUMP JUMPDEST PUSH1 0x0 PUSH1 0x20 DUP3 ADD SWAP1 POP PUSH2 0x22ED PUSH1 0x0 DUP4 ADD DUP5 PUSH2 0x22C9 JUMP JUMPDEST SWAP3 SWAP2 POP POP JUMP JUMPDEST PUSH1 0x0 DUP2 MLOAD SWAP1 POP SWAP2 SWAP1 POP JUMP JUMPDEST PUSH1 0x0 DUP3 DUP3 MSTORE PUSH1 0x20 DUP3 ADD SWAP1 POP SWAP3 SWAP2 POP POP JUMP JUMPDEST PUSH1 0x0 JUMPDEST DUP4 DUP2 LT ISZERO PUSH2 0x232D JUMPI DUP1 DUP3 ADD MLOAD DUP2 DUP5 ADD MSTORE PUSH1 0x20 DUP2 ADD SWAP1 POP PUSH2 0x2312 JUMP JUMPDEST DUP4 DUP2 GT ISZERO PUSH2 0x233C JUMPI PUSH1 0x0 DUP5 DUP5 ADD MSTORE JUMPDEST POP POP POP POP JUMP JUMPDEST PUSH1 0x0 PUSH1 0x1F NOT PUSH1 0x1F DUP4 ADD AND SWAP1 POP SWAP2 SWAP1 POP JUMP JUMPDEST PUSH1 0x0 PUSH2 0x235E DUP3 PUSH2 0x22F3 JUMP JUMPDEST PUSH2 0x2368 DUP2 DUP6 PUSH2 0x22FE JUMP JUMPDEST SWAP4 POP PUSH2 0x2378 DUP2 DUP6 PUSH1 0x20 DUP7 ADD PUSH2 0x230F JUMP JUMPDEST PUSH2 0x2381 DUP2 PUSH2 0x2342 JUMP JUMPDEST DUP5 ADD SWAP2 POP POP SWAP3 SWAP2 POP POP JUMP JUMPDEST PUSH1 0x0 PUSH1 0x20 DUP3 ADD SWAP1 POP DUP2 DUP2 SUB PUSH1 0x0 DUP4 ADD MSTORE PUSH2 0x23A6 DUP2 DUP5 PUSH2 0x2353 JUMP JUMPDEST SWAP1 POP SWAP3 SWAP2 POP POP JUMP JUMPDEST PUSH1 0x0 PUSH1 0x40 MLOAD SWAP1 POP SWAP1 JUMP JUMPDEST PUSH1 0x0 DUP1 REVERT JUMPDEST PUSH1 0x0 DUP1 REVERT JUMPDEST PUSH1 0x0 PUSH20 0xFFFFFFFFFFFFFFFFFFFFFFFFFFFFFFFFFFFFFFFF DUP3 AND SWAP1 POP SWAP2 SWAP1 POP JUMP JUMPDEST PUSH1 0x0 PUSH2 0x23ED DUP3 PUSH2 0x23C2 JUMP JUMPDEST SWAP1 POP SWAP2 SWAP1 POP JUMP JUMPDEST PUSH2 0x23FD DUP2 PUSH2 0x23E2 JUMP JUMPDEST DUP2 EQ PUSH2 0x2408 JUMPI PUSH1 0x0 DUP1 REVERT JUMPDEST POP JUMP JUMPDEST PUSH1 0x0 DUP2 CALLDATALOAD SWAP1 POP PUSH2 0x241A DUP2 PUSH2 0x23F4 JUMP JUMPDEST SWAP3 SWAP2 POP POP JUMP JUMPDEST PUSH1 0x0 PUSH1 0x20 DUP3 DUP5 SUB SLT ISZERO PUSH2 0x2436 JUMPI PUSH2 0x2435 PUSH2 0x23B8 JUMP JUMPDEST JUMPDEST PUSH1 0x0 PUSH2 0x2444 DUP5 DUP3 DUP6 ADD PUSH2 0x240B JUMP JUMPDEST SWAP2 POP POP SWAP3 SWAP2 POP POP JUMP JUMPDEST PUSH1 0x0 DUP2 ISZERO ISZERO SWAP1 POP SWAP2 SWAP1 POP JUMP JUMPDEST PUSH2 0x2462 DUP2 PUSH2 0x244D JUMP JUMPDEST DUP3 MSTORE POP POP JUMP JUMPDEST PUSH1 0x0 PUSH1 0x20 DUP3 ADD SWAP1 POP PUSH2 0x247D PUSH1 0x0 DUP4 ADD DUP5 PUSH2 0x2459 JUMP JUMPDEST SWAP3 SWAP2 POP POP JUMP JUMPDEST PUSH1 0x0 DUP1 REVERT JUMPDEST PUSH1 0x0 DUP1 REVERT JUMPDEST PUSH32 0x4E487B7100000000000000000000000000000000000000000000000000000000 PUSH1 0x0 MSTORE PUSH1 0x41 PUSH1 0x4 MSTORE PUSH1 0x24 PUSH1 0x0 REVERT JUMPDEST PUSH2 0x24C5 DUP3 PUSH2 0x2342 JUMP JUMPDEST DUP2 ADD DUP2 DUP2 LT PUSH8 0xFFFFFFFFFFFFFFFF DUP3 GT OR ISZERO PUSH2 0x24E4 JUMPI PUSH2 0x24E3 PUSH2 0x248D JUMP JUMPDEST JUMPDEST DUP1 PUSH1 0x40 MSTORE POP POP POP JUMP JUMPDEST PUSH1 0x0 PUSH2 0x24F7 PUSH2 0x23AE JUMP JUMPDEST SWAP1 POP PUSH2 0x2503 DUP3 DUP3 PUSH2 0x24BC JUMP JUMPDEST SWAP2 SWAP1 POP JUMP JUMPDEST PUSH1 0x0 PUSH8 0xFFFFFFFFFFFFFFFF DUP3 GT ISZERO PUSH2 0x2523 JUMPI PUSH2 0x2522 PUSH2 0x248D JUMP JUMPDEST JUMPDEST PUSH2 0x252C DUP3 PUSH2 0x2342 JUMP JUMPDEST SWAP1 POP PUSH1 0x20 DUP2 ADD SWAP1 POP SWAP2 SWAP1 POP JUMP JUMPDEST DUP3 DUP2 DUP4 CALLDATACOPY PUSH1 0x0 DUP4 DUP4 ADD MSTORE POP POP POP JUMP JUMPDEST PUSH1 0x0 PUSH2 0x255B PUSH2 0x2556 DUP5 PUSH2 0x2508 JUMP JUMPDEST PUSH2 0x24ED JUMP JUMPDEST SWAP1 POP DUP3 DUP2 MSTORE PUSH1 0x20 DUP2 ADD DUP5 DUP5 DUP5 ADD GT ISZERO PUSH2 0x2577 JUMPI PUSH2 0x2576 PUSH2 0x2488 JUMP JUMPDEST JUMPDEST PUSH2 0x2582 DUP5 DUP3 DUP6 PUSH2 0x2539 JUMP JUMPDEST POP SWAP4 SWAP3 POP POP POP JUMP JUMPDEST PUSH1 0x0 DUP3 PUSH1 0x1F DUP4 ADD SLT PUSH2 0x259F JUMPI PUSH2 0x259E PUSH2 0x2483 JUMP JUMPDEST JUMPDEST DUP2 CALLDATALOAD PUSH2 0x25AF DUP5 DUP3 PUSH1 0x20 DUP7 ADD PUSH2 0x2548 JUMP JUMPDEST SWAP2 POP POP SWAP3 SWAP2 POP POP JUMP JUMPDEST PUSH2 0x25C1 DUP2 PUSH2 0x22BF JUMP JUMPDEST DUP2 EQ PUSH2 0x25CC JUMPI PUSH1 0x0 DUP1 REVERT JUMPDEST POP JUMP JUMPDEST PUSH1 0x0 DUP2 CALLDATALOAD SWAP1 POP PUSH2 0x25DE DUP2 PUSH2 0x25B8 JUMP JUMPDEST SWAP3 SWAP2 POP POP JUMP JUMPDEST PUSH1 0x0 DUP1 PUSH1 0x0 PUSH1 0x60 DUP5 DUP7 SUB SLT ISZERO PUSH2 0x25FD JUMPI PUSH2 0x25FC PUSH2 0x23B8 JUMP JUMPDEST JUMPDEST PUSH1 0x0 DUP5 ADD CALLDATALOAD PUSH8 0xFFFFFFFFFFFFFFFF DUP2 GT ISZERO PUSH2 0x261B JUMPI PUSH2 0x261A PUSH2 0x23BD JUMP JUMPDEST JUMPDEST PUSH2 0x2627 DUP7 DUP3 DUP8 ADD PUSH2 0x258A JUMP JUMPDEST SWAP4 POP POP PUSH1 0x20 DUP5 ADD CALLDATALOAD PUSH8 0xFFFFFFFFFFFFFFFF DUP2 GT ISZERO PUSH2 0x2648 JUMPI PUSH2 0x2647 PUSH2 0x23BD JUMP JUMPDEST JUMPDEST PUSH2 0x2654 DUP7 DUP3 DUP8 ADD PUSH2 0x258A JUMP JUMPDEST SWAP3 POP POP PUSH1 0x40 PUSH2 0x2665 DUP7 DUP3 DUP8 ADD PUSH2 0x25CF JUMP JUMPDEST SWAP2 POP POP SWAP3 POP SWAP3 POP SWAP3 JUMP JUMPDEST PUSH1 0x0 PUSH1 0x20 DUP3 DUP5 SUB SLT ISZERO PUSH2 0x2685 JUMPI PUSH2 0x2684 PUSH2 0x23B8 JUMP JUMPDEST JUMPDEST PUSH1 0x0 PUSH2 0x2693 DUP5 DUP3 DUP6 ADD PUSH2 0x25CF JUMP JUMPDEST SWAP2 POP POP SWAP3 SWAP2 POP POP JUMP JUMPDEST PUSH2 0x26A5 DUP2 PUSH2 0x23E2 JUMP JUMPDEST DUP3 MSTORE POP POP JUMP JUMPDEST PUSH1 0x0 PUSH1 0x20 DUP3 ADD SWAP1 POP PUSH2 0x26C0 PUSH1 0x0 DUP4 ADD DUP5 PUSH2 0x269C JUMP JUMPDEST SWAP3 SWAP2 POP POP JUMP JUMPDEST PUSH2 0x26CF DUP2 PUSH2 0x244D JUMP JUMPDEST DUP2 EQ PUSH2 0x26DA JUMPI PUSH1 0x0 DUP1 REVERT JUMPDEST POP JUMP JUMPDEST PUSH1 0x0 DUP2 CALLDATALOAD SWAP1 POP PUSH2 0x26EC DUP2 PUSH2 0x26C6 JUMP JUMPDEST SWAP3 SWAP2 POP POP JUMP JUMPDEST PUSH1 0x0 DUP1 PUSH1 0x40 DUP4 DUP6 SUB SLT ISZERO PUSH2 0x2709 JUMPI PUSH2 0x2708 PUSH2 0x23B8 JUMP JUMPDEST JUMPDEST PUSH1 0x0 PUSH2 0x2717 DUP6 DUP3 DUP7 ADD PUSH2 0x25CF JUMP JUMPDEST SWAP3 POP POP PUSH1 0x20 PUSH2 0x2728 DUP6 DUP3 DUP7 ADD PUSH2 0x26DD JUMP JUMPDEST SWAP2 POP POP SWAP3 POP SWAP3 SWAP1 POP JUMP JUMPDEST PUSH1 0x0 DUP1 PUSH1 0x40 DUP4 DUP6 SUB SLT ISZERO PUSH2 0x2749 JUMPI PUSH2 0x2748 PUSH2 0x23B8 JUMP JUMPDEST JUMPDEST PUSH1 0x0 PUSH2 0x2757 DUP6 DUP3 DUP7 ADD PUSH2 0x25CF JUMP JUMPDEST SWAP3 POP POP PUSH1 0x20 PUSH2 0x2768 DUP6 DUP3 DUP7 ADD PUSH2 0x240B JUMP JUMPDEST SWAP2 POP POP SWAP3 POP SWAP3 SWAP1 POP JUMP JUMPDEST PUSH1 0x0 DUP1 PUSH1 0x40 DUP4 DUP6 SUB SLT ISZERO PUSH2 0x2789 JUMPI PUSH2 0x2788 PUSH2 0x23B8 JUMP JUMPDEST JUMPDEST PUSH1 0x0 PUSH2 0x2797 DUP6 DUP3 DUP7 ADD PUSH2 0x240B JUMP JUMPDEST SWAP3 POP POP PUSH1 0x20 PUSH2 0x27A8 DUP6 DUP3 DUP7 ADD PUSH2 0x25CF JUMP JUMPDEST SWAP2 POP POP SWAP3 POP SWAP3 SWAP1 POP JUMP JUMPDEST PUSH1 0x0 PUSH1 0xA0 DUP3 ADD SWAP1 POP DUP2 DUP2 SUB PUSH1 0x0 DUP4 ADD MSTORE PUSH2 0x27CC DUP2 DUP9 PUSH2 0x2353 JUMP JUMPDEST SWAP1 POP DUP2 DUP2 SUB PUSH1 0x20 DUP4 ADD MSTORE PUSH2 0x27E0 DUP2 DUP8 PUSH2 0x2353 JUMP JUMPDEST SWAP1 POP PUSH2 0x27EF PUSH1 0x40 DUP4 ADD DUP7 PUSH2 0x22C9 JUMP JUMPDEST PUSH2 0x27FC PUSH1 0x60 DUP4 ADD DUP6 PUSH2 0x2459 JUMP JUMPDEST PUSH2 0x2809 PUSH1 0x80 DUP4 ADD DUP5 PUSH2 0x22C9 JUMP JUMPDEST SWAP7 SWAP6 POP POP POP POP POP POP JUMP JUMPDEST PUSH32 0x4E487B7100000000000000000000000000000000000000000000000000000000 PUSH1 0x0 MSTORE PUSH1 0x22 PUSH1 0x4 MSTORE PUSH1 0x24 PUSH1 0x0 REVERT JUMPDEST PUSH1 0x0 PUSH1 0x2 DUP3 DIV SWAP1 POP PUSH1 0x1 DUP3 AND DUP1 PUSH2 0x285A JUMPI PUSH1 0x7F DUP3 AND SWAP2 POP JUMPDEST PUSH1 0x20 DUP3 LT DUP2 SUB PUSH2 0x286D JUMPI PUSH2 0x286C PUSH2 0x2813 JUMP JUMPDEST JUMPDEST POP SWAP2 SWAP1 POP JUMP JUMPDEST PUSH1 0x0 DUP2 SWAP1 POP DUP2 PUSH1 0x0 MSTORE PUSH1 0x20 PUSH1 0x0 KECCAK256 SWAP1 POP SWAP2 SWAP1 POP JUMP JUMPDEST PUSH1 0x0 PUSH1 0x20 PUSH1 0x1F DUP4 ADD DIV SWAP1 POP SWAP2 SWAP1 POP JUMP JUMPDEST PUSH1 0x0 DUP3 DUP3 SHL SWAP1 POP SWAP3 SWAP2 POP POP JUMP JUMPDEST PUSH1 0x0 PUSH1 0x8 DUP4 MUL PUSH2 0x28D5 PUSH32 0xFFFFFFFFFFFFFFFFFFFFFFFFFFFFFFFFFFFFFFFFFFFFFFFFFFFFFFFFFFFFFFFF DUP3 PUSH2 0x2898 JUMP JUMPDEST PUSH2 0x28DF DUP7 DUP4 PUSH2 0x2898 JUMP JUMPDEST SWAP6 POP DUP1 NOT DUP5 AND SWAP4 POP DUP1 DUP7 AND DUP5 OR SWAP3 POP POP POP SWAP4 SWAP3 POP POP POP JUMP JUMPDEST PUSH1 0x0 DUP2 SWAP1 POP SWAP2 SWAP1 POP JUMP JUMPDEST PUSH1 0x0 PUSH2 0x291C PUSH2 0x2917 PUSH2 0x2912 DUP5 PUSH2 0x22BF JUMP JUMPDEST PUSH2 0x28F7 JUMP JUMPDEST PUSH2 0x22BF JUMP JUMPDEST SWAP1 POP SWAP2 SWAP1 POP JUMP JUMPDEST PUSH1 0x0 DUP2 SWAP1 POP SWAP2 SWAP1 POP JUMP JUMPDEST PUSH2 0x2936 DUP4 PUSH2 0x2901 JUMP JUMPDEST PUSH2 0x294A PUSH2 0x2942 DUP3 PUSH2 0x2923 JUMP JUMPDEST DUP5 DUP5 SLOAD PUSH2 0x28A5 JUMP JUMPDEST DUP3 SSTORE POP POP POP POP JUMP JUMPDEST PUSH1 0x0 SWAP1 JUMP JUMPDEST PUSH2 0x295F PUSH2 0x2952 JUMP JUMPDEST PUSH2 0x296A DUP2 DUP5 DUP5 PUSH2 0x292D JUMP JUMPDEST POP POP POP JUMP JUMPDEST JUMPDEST DUP2 DUP2 LT ISZERO PUSH2 0x298E JUMPI PUSH2 0x2983 PUSH1 0x0 DUP3 PUSH2 0x2957 JUMP JUMPDEST PUSH1 0x1 DUP2 ADD SWAP1 POP PUSH2 0x2970 JUMP JUMPDEST POP POP JUMP JUMPDEST PUSH1 0x1F DUP3 GT ISZERO PUSH2 0x29D3 JUMPI PUSH2 0x29A4 DUP2 PUSH2 0x2873 JUMP JUMPDEST PUSH2 0x29AD DUP5 PUSH2 0x2888 JUMP JUMPDEST DUP2 ADD PUSH1 0x20 DUP6 LT ISZERO PUSH2 0x29BC JUMPI DUP2 SWAP1 POP JUMPDEST PUSH2 0x29D0 PUSH2 0x29C8 DUP6 PUSH2 0x2888 JUMP JUMPDEST DUP4 ADD DUP3 PUSH2 0x296F JUMP JUMPDEST POP POP JUMPDEST POP POP POP JUMP JUMPDEST PUSH1 0x0 DUP3 DUP3 SHR SWAP1 POP SWAP3 SWAP2 POP POP JUMP JUMPDEST PUSH1 0x0 PUSH2 0x29F6 PUSH1 0x0 NOT DUP5 PUSH1 0x8 MUL PUSH2 0x29D8 JUMP JUMPDEST NOT DUP1 DUP4 AND SWAP2 POP POP SWAP3 SWAP2 POP POP JUMP JUMPDEST PUSH1 0x0 PUSH2 0x2A0F DUP4 DUP4 PUSH2 0x29E5 JUMP JUMPDEST SWAP2 POP DUP3 PUSH1 0x2 MUL DUP3 OR SWAP1 POP SWAP3 SWAP2 POP POP JUMP JUMPDEST PUSH2 0x2A28 DUP3 PUSH2 0x22F3 JUMP JUMPDEST PUSH8 0xFFFFFFFFFFFFFFFF DUP2 GT ISZERO PUSH2 0x2A41 JUMPI PUSH2 0x2A40 PUSH2 0x248D JUMP JUMPDEST JUMPDEST PUSH2 0x2A4B DUP3 SLOAD PUSH2 0x2842 JUMP JUMPDEST PUSH2 0x2A56 DUP3 DUP3 DUP6 PUSH2 0x2992 JUMP JUMPDEST PUSH1 0x0 PUSH1 0x20 SWAP1 POP PUSH1 0x1F DUP4 GT PUSH1 0x1 DUP2 EQ PUSH2 0x2A89 JUMPI PUSH1 0x0 DUP5 ISZERO PUSH2 0x2A77 JUMPI DUP3 DUP8 ADD MLOAD SWAP1 POP JUMPDEST PUSH2 0x2A81 DUP6 DUP3 PUSH2 0x2A03 JUMP JUMPDEST DUP7 SSTORE POP PUSH2 0x2AE9 JUMP JUMPDEST PUSH1 0x1F NOT DUP5 AND PUSH2 0x2A97 DUP7 PUSH2 0x2873 JUMP JUMPDEST PUSH1 0x0 JUMPDEST DUP3 DUP2 LT ISZERO PUSH2 0x2ABF JUMPI DUP5 DUP10 ADD MLOAD DUP3 SSTORE PUSH1 0x1 DUP3 ADD SWAP2 POP PUSH1 0x20 DUP6 ADD SWAP5 POP PUSH1 0x20 DUP2 ADD SWAP1 POP PUSH2 0x2A9A JUMP JUMPDEST DUP7 DUP4 LT ISZERO PUSH2 0x2ADC JUMPI DUP5 DUP10 ADD MLOAD PUSH2 0x2AD8 PUSH1 0x1F DUP10 AND DUP3 PUSH2 0x29E5 JUMP JUMPDEST DUP4 SSTORE POP JUMPDEST PUSH1 0x1 PUSH1 0x2 DUP9 MUL ADD DUP9 SSTORE POP POP POP JUMPDEST POP POP POP POP POP POP JUMP JUMPDEST PUSH32 0x4E487B7100000000000000000000000000000000000000000000000000000000 PUSH1 0x0 MSTORE PUSH1 0x11 PUSH1 0x4 MSTORE PUSH1 0x24 PUSH1 0x0 REVERT JUMPDEST PUSH1 0x0 PUSH2 0x2B2B DUP3 PUSH2 0x22BF JUMP JUMPDEST SWAP2 POP PUSH32 0xFFFFFFFFFFFFFFFFFFFFFFFFFFFFFFFFFFFFFFFFFFFFFFFFFFFFFFFFFFFFFFFF DUP3 SUB PUSH2 0x2B5D JUMPI PUSH2 0x2B5C PUSH2 0x2AF1 JUMP JUMPDEST JUMPDEST PUSH1 0x1 DUP3 ADD SWAP1 POP SWAP2 SWAP1 POP JUMP JUMPDEST PUSH1 0x0 PUSH2 0x2B73 DUP3 PUSH2 0x22BF JUMP JUMPDEST SWAP2 POP PUSH2 0x2B7E DUP4 PUSH2 0x22BF JUMP JUMPDEST SWAP3 POP DUP3 DUP3 LT ISZERO PUSH2 0x2B91 JUMPI PUSH2 0x2B90 PUSH2 0x2AF1 JUMP JUMPDEST JUMPDEST DUP3 DUP3 SUB SWAP1 POP SWAP3 SWAP2 POP POP JUMP JUMPDEST PUSH1 0x0 PUSH2 0x2BA7 DUP3 PUSH2 0x22BF JUMP JUMPDEST SWAP2 POP PUSH2 0x2BB2 DUP4 PUSH2 0x22BF JUMP JUMPDEST SWAP3 POP DUP2 PUSH32 0xFFFFFFFFFFFFFFFFFFFFFFFFFFFFFFFFFFFFFFFFFFFFFFFFFFFFFFFFFFFFFFFF DIV DUP4 GT DUP3 ISZERO ISZERO AND ISZERO PUSH2 0x2BEB JUMPI PUSH2 0x2BEA PUSH2 0x2AF1 JUMP JUMPDEST JUMPDEST DUP3 DUP3 MUL SWAP1 POP SWAP3 SWAP2 POP POP JUMP JUMPDEST PUSH32 0x4E487B7100000000000000000000000000000000000000000000000000000000 PUSH1 0x0 MSTORE PUSH1 0x12 PUSH1 0x4 MSTORE PUSH1 0x24 PUSH1 0x0 REVERT JUMPDEST PUSH1 0x0 PUSH2 0x2C30 DUP3 PUSH2 0x22BF JUMP JUMPDEST SWAP2 POP PUSH2 0x2C3B DUP4 PUSH2 0x22BF JUMP JUMPDEST SWAP3 POP DUP3 PUSH2 0x2C4B JUMPI PUSH2 0x2C4A PUSH2 0x2BF6 JUMP JUMPDEST JUMPDEST DUP3 DUP3 DIV SWAP1 POP SWAP3 SWAP2 POP POP JUMP JUMPDEST PUSH32 0x4E487B7100000000000000000000000000000000000000000000000000000000 PUSH1 0x0 MSTORE PUSH1 0x32 PUSH1 0x4 MSTORE PUSH1 0x24 PUSH1 0x0 REVERT JUMPDEST PUSH1 0x0 PUSH2 0x2C90 DUP3 PUSH2 0x22BF JUMP JUMPDEST SWAP2 POP PUSH2 0x2C9B DUP4 PUSH2 0x22BF JUMP JUMPDEST SWAP3 POP DUP3 PUSH32 0xFFFFFFFFFFFFFFFFFFFFFFFFFFFFFFFFFFFFFFFFFFFFFFFFFFFFFFFFFFFFFFFF SUB DUP3 GT ISZERO PUSH2 0x2CD0 JUMPI PUSH2 0x2CCF PUSH2 0x2AF1 JUMP JUMPDEST JUMPDEST DUP3 DUP3 ADD SWAP1 POP SWAP3 SWAP2 POP POP JUMP JUMPDEST PUSH1 0x0 PUSH2 0x2CE6 DUP3 PUSH2 0x22BF JUMP JUMPDEST SWAP2 POP PUSH1 0x0 DUP3 SUB PUSH2 0x2CF9 JUMPI PUSH2 0x2CF8 PUSH2 0x2AF1 JUMP JUMPDEST JUMPDEST PUSH1 0x1 DUP3 SUB SWAP1 POP SWAP2 SWAP1 POP JUMP INVALID LOG2 PUSH5 0x6970667358 0x22 SLT KECCAK256 SWAP6 RETURN DUP9 ADD PUSH5 0xAB08520A65 NUMBER JUMPI SWAP4 0xAB 0x4D 0xD8 0xF 0x2B 0xE3 DUP6 0xDB CREATE2 PUSH26 0xD8366169367125725064736F6C634300080F0033000000000000 "},"gasEstimates":{"creation":{"codeDepositCost":"2315600","executionCost":"infinite","totalCost":"infinite"},"external":{"Investment(address)":"2903","Investors(uint256)":"5044","PayDayVoted()":"infinite","Stakeholders(address)":"2958","Stakeholders_endTheContract(address)":"2891","allInvestorPercent()":"infinite","approveRequest(uint256,bool)":"infinite","canBuy()":"2625","days_start()":"2540","endTheContract_numOfVote()":"2475","executed_order_66(uint256)":"infinite","getMoney()":"364","investorBalanc()":"infinite","isStakeholdersVoted(uint256,address)":"5399","join()":"infinite","lastLeaveVal()":"2497","lastRePay()":"2562","lastTotalVal()":"2519","leave_contract(address,uint256)":"infinite","lefted(address)":"2912","listSize()":"2563","makeNewRequset(string,string,uint256)":"infinite","manager()":"2648","managerFineFee()":"2519","manager_fee()":"2541","minimumContribution()":"2541","myRequsts(uint256)":"infinite","name()":"infinite","numOfInvestors()":"2476","numStakeholders()":"2496","ownPercent(address)":"2926","payDay()":"infinite","penelty()":"2520","percent()":"2496","requestIsVoted(uint256)":"5177","site()":"2558","startContract()":"infinite","the_balance()":"2518","timeEnd()":"2561","timeStart()":"2539","timeToJoin()":"2497"},"internal":{"fixPercent(uint256)":"infinite","setStakeholders()":"infinite"}},"methodIdentifiers":{"Investment(address)":"d7898240","Investors(uint256)":"fbae5e7d","PayDayVoted()":"864a53dc","Stakeholders(address)":"1e28528e","Stakeholders_endTheContract(address)":"364548cd","allInvestorPercent()":"acdb8341","approveRequest(uint256,bool)":"767e0b9c","canBuy()":"ff65226c","days_start()":"de281d6c","endTheContract_numOfVote()":"842a7f9b","executed_order_66(uint256)":"3d22aea8","getMoney()":"98e1b410","investorBalanc()":"2ef3fa27","isStakeholdersVoted(uint256,address)":"816c97ba","join()":"b688a363","lastLeaveVal()":"2f5274e3","lastRePay()":"e028a693","lastTotalVal()":"8975aa08","leave_contract(address,uint256)":"b2f8be5c","lefted(address)":"999cc5ca","listSize()":"972c5356","makeNewRequset(string,string,uint256)":"2b84b316","manager()":"481c6a75","managerFineFee()":"31d0e40f","manager_fee()":"42494297","minimumContribution()":"937e09b1","myRequsts(uint256)":"f63f9655","name()":"06fdde03","numOfInvestors()":"01999870","numStakeholders()":"d4deada4","ownPercent(address)":"32b7acec","payDay()":"789b2e6c","penelty()":"0d70d1a7","percent()":"70ba1113","requestIsVoted(uint256)":"361af171","site()":"e0d370ac","startContract()":"5fb02f4d","the_balance()":"a4758c9a","timeEnd()":"fda263e8","timeStart()":"fd74d294","timeToJoin()":"3ba20f2a"}},"storageLayout":{"storage":[{"astId":101,"contract":"Inbox.sol:basic","label":"percent","offset":0,"slot":"0","type":"t_uint256"},{"astId":104,"contract":"Inbox.sol:basic","label":"penelty","offset":0,"slot":"1","type":"t_uint256"},{"astId":107,"contract":"Inbox.sol:basic","label":"manager_fee","offset":0,"slot":"2","type":"t_uint256"},{"astId":110,"contract":"Inbox.sol:basic","label":"days_start","offset":0,"slot":"3","type":"t_uint256"},{"astId":113,"contract":"Inbox.sol:basic","label":"numStakeholders","offset":0,"slot":"4","type":"t_uint256"},{"astId":115,"contract":"Inbox.sol:basic","label":"name","offset":0,"slot":"5","type":"t_string_storage"},{"astId":117,"contract":"Inbox.sol:basic","label":"manager","offset":0,"slot":"6","type":"t_address"},{"astId":119,"contract":"Inbox.sol:basic","label":"site","offset":0,"slot":"7","type":"t_address"},{"astId":123,"contract":"Inbox.sol:basic","label":"Stakeholders","offset":0,"slot":"8","type":"t_mapping(t_address,t_bool)"},{"astId":127,"contract":"Inbox.sol:basic","label":"Stakeholders_endTheContract","offset":0,"slot":"9","type":"t_mapping(t_address,t_bool)"},{"astId":130,"contract":"Inbox.sol:basic","label":"endTheContract_numOfVote","offset":0,"slot":"10","type":"t_uint256"},{"astId":133,"contract":"Inbox.sol:basic","label":"Investors","offset":0,"slot":"11","type":"t_array(t_address)dyn_storage"},{"astId":136,"contract":"Inbox.sol:basic","label":"numOfInvestors","offset":0,"slot":"12","type":"t_uint256"},{"astId":140,"contract":"Inbox.sol:basic","label":"Investment","offset":0,"slot":"13","type":"t_mapping(t_address,t_uint256)"},{"astId":144,"contract":"Inbox.sol:basic","label":"ownPercent","offset":0,"slot":"14","type":"t_mapping(t_address,t_uint256)"},{"astId":148,"contract":"Inbox.sol:basic","label":"lefted","offset":0,"slot":"15","type":"t_mapping(t_address,t_bool)"},{"astId":150,"contract":"Inbox.sol:basic","label":"minimumContribution","offset":0,"slot":"16","type":"t_uint256"},{"astId":152,"contract":"Inbox.sol:basic","label":"timeStart","offset":0,"slot":"17","type":"t_uint256"},{"astId":154,"contract":"Inbox.sol:basic","label":"timeToJoin","offset":0,"slot":"18","type":"t_uint256"},{"astId":156,"contract":"Inbox.sol:basic","label":"timeEnd","offset":0,"slot":"19","type":"t_uint256"},{"astId":158,"contract":"Inbox.sol:basic","label":"canBuy","offset":0,"slot":"20","type":"t_bool"},{"astId":162,"contract":"Inbox.sol:basic","label":"myRequsts","offset":0,"slot":"21","type":"t_array(t_struct(Request)98_storage)dyn_storage"},{"astId":164,"contract":"Inbox.sol:basic","label":"listSize","offset":0,"slot":"22","type":"t_uint256"},{"astId":166,"contract":"Inbox.sol:basic","label":"lastRePay","offset":0,"slot":"23","type":"t_uint256"},{"astId":168,"contract":"Inbox.sol:basic","label":"lastTotalVal","offset":0,"slot":"24","type":"t_uint256"},{"astId":170,"contract":"Inbox.sol:basic","label":"managerFineFee","offset":0,"slot":"25","type":"t_uint256"},{"astId":172,"contract":"Inbox.sol:basic","label":"the_balance","offset":0,"slot":"26","type":"t_uint256"},{"astId":174,"contract":"Inbox.sol:basic","label":"lastLeaveVal","offset":0,"slot":"27","type":"t_uint256"}],"types":{"t_address":{"encoding":"inplace","label":"address","numberOfBytes":"20"},"t_array(t_address)dyn_storage":{"base":"t_address","encoding":"dynamic_array","label":"address[]","numberOfBytes":"32"},"t_array(t_struct(Request)98_storage)dyn_storage":{"base":"t_struct(Request)98_storage","encoding":"dynamic_array","label":"struct basic.Request[]","numberOfBytes":"32"},"t_bool":{"encoding":"inplace","label":"bool","numberOfBytes":"1"},"t_mapping(t_address,t_bool)":{"encoding":"mapping","key":"t_address","label":"mapping(address => bool)","numberOfBytes":"32","value":"t_bool"},"t_mapping(t_address,t_uint256)":{"encoding":"mapping","key":"t_address","label":"mapping(address => uint256)","numberOfBytes":"32","value":"t_uint256"},"t_string_storage":{"encoding":"bytes","label":"string","numberOfBytes":"32"},"t_struct(Request)98_storage":{"encoding":"inplace","label":"struct basic.Request","members":[{"astId":85,"contract":"Inbox.sol:basic","label":"description","offset":0,"slot":"0","type":"t_string_storage"},{"astId":87,"contract":"Inbox.sol:basic","label":"what","offset":0,"slot":"1","type":"t_string_storage"},{"astId":89,"contract":"Inbox.sol:basic","label":"value","offset":0,"slot":"2","type":"t_uint256"},{"astId":91,"contract":"Inbox.sol:basic","label":"complete","offset":0,"slot":"3","type":"t_bool"},{"astId":93,"contract":"Inbox.sol:basic","label":"approvalCount","offset":0,"slot":"4","type":"t_uint256"},{"astId":97,"contract":"Inbox.sol:basic","label":"approvals","offset":0,"slot":"5","type":"t_mapping(t_address,t_bool)"}],"numberOfBytes":"192"},"t_uint256":{"encoding":"inplace","label":"uint256","numberOfBytes":"32"}}},"userdoc":{"kind":"user","methods":{},"version":1}}